{
  "_format": "hh-sol-artifact-1",
  "contractName": "RacksItemsv2",
  "sourceName": "contracts/RacksItemsv3.sol",
  "abi": [
    {
      "inputs": [
        {
          "internalType": "address",
          "name": "vrfCoordinatorV2",
          "type": "address"
        },
        {
          "internalType": "bytes32",
          "name": "gasLane",
          "type": "bytes32"
        },
        {
          "internalType": "uint64",
          "name": "subscriptionId",
          "type": "uint64"
        },
        {
          "internalType": "uint32",
          "name": "callbackGasLimit",
          "type": "uint32"
        },
        {
          "internalType": "address",
          "name": "_racksTokenAddress",
          "type": "address"
        }
      ],
      "stateMutability": "nonpayable",
      "type": "constructor"
    },
    {
      "inputs": [
        {
          "internalType": "address",
          "name": "have",
          "type": "address"
        },
        {
          "internalType": "address",
          "name": "want",
          "type": "address"
        }
      ],
      "name": "OnlyCoordinatorCanFulfill",
      "type": "error"
    },
    {
      "anonymous": false,
      "inputs": [
        {
          "indexed": true,
          "internalType": "address",
          "name": "account",
          "type": "address"
        },
        {
          "indexed": true,
          "internalType": "address",
          "name": "operator",
          "type": "address"
        },
        {
          "indexed": false,
          "internalType": "bool",
          "name": "approved",
          "type": "bool"
        }
      ],
      "name": "ApprovalForAll",
      "type": "event"
    },
    {
      "anonymous": false,
      "inputs": [
        {
          "indexed": false,
          "internalType": "address",
          "name": "user",
          "type": "address"
        },
        {
          "indexed": false,
          "internalType": "uint256",
          "name": "casePrice",
          "type": "uint256"
        },
        {
          "indexed": false,
          "internalType": "uint256",
          "name": "item",
          "type": "uint256"
        }
      ],
      "name": "CaseOpened",
      "type": "event"
    },
    {
      "anonymous": false,
      "inputs": [
        {
          "indexed": true,
          "internalType": "bytes32",
          "name": "role",
          "type": "bytes32"
        },
        {
          "indexed": true,
          "internalType": "bytes32",
          "name": "previousAdminRole",
          "type": "bytes32"
        },
        {
          "indexed": true,
          "internalType": "bytes32",
          "name": "newAdminRole",
          "type": "bytes32"
        }
      ],
      "name": "RoleAdminChanged",
      "type": "event"
    },
    {
      "anonymous": false,
      "inputs": [
        {
          "indexed": true,
          "internalType": "bytes32",
          "name": "role",
          "type": "bytes32"
        },
        {
          "indexed": true,
          "internalType": "address",
          "name": "account",
          "type": "address"
        },
        {
          "indexed": true,
          "internalType": "address",
          "name": "sender",
          "type": "address"
        }
      ],
      "name": "RoleGranted",
      "type": "event"
    },
    {
      "anonymous": false,
      "inputs": [
        {
          "indexed": true,
          "internalType": "bytes32",
          "name": "role",
          "type": "bytes32"
        },
        {
          "indexed": true,
          "internalType": "address",
          "name": "account",
          "type": "address"
        },
        {
          "indexed": true,
          "internalType": "address",
          "name": "sender",
          "type": "address"
        }
      ],
      "name": "RoleRevoked",
      "type": "event"
    },
    {
      "anonymous": false,
      "inputs": [
        {
          "indexed": true,
          "internalType": "address",
          "name": "operator",
          "type": "address"
        },
        {
          "indexed": true,
          "internalType": "address",
          "name": "from",
          "type": "address"
        },
        {
          "indexed": true,
          "internalType": "address",
          "name": "to",
          "type": "address"
        },
        {
          "indexed": false,
          "internalType": "uint256[]",
          "name": "ids",
          "type": "uint256[]"
        },
        {
          "indexed": false,
          "internalType": "uint256[]",
          "name": "values",
          "type": "uint256[]"
        }
      ],
      "name": "TransferBatch",
      "type": "event"
    },
    {
      "anonymous": false,
      "inputs": [
        {
          "indexed": true,
          "internalType": "address",
          "name": "operator",
          "type": "address"
        },
        {
          "indexed": true,
          "internalType": "address",
          "name": "from",
          "type": "address"
        },
        {
          "indexed": true,
          "internalType": "address",
          "name": "to",
          "type": "address"
        },
        {
          "indexed": false,
          "internalType": "uint256",
          "name": "id",
          "type": "uint256"
        },
        {
          "indexed": false,
          "internalType": "uint256",
          "name": "value",
          "type": "uint256"
        }
      ],
      "name": "TransferSingle",
      "type": "event"
    },
    {
      "anonymous": false,
      "inputs": [
        {
          "indexed": false,
          "internalType": "string",
          "name": "value",
          "type": "string"
        },
        {
          "indexed": true,
          "internalType": "uint256",
          "name": "id",
          "type": "uint256"
        }
      ],
      "name": "URI",
      "type": "event"
    },
    {
      "anonymous": false,
      "inputs": [
        {
          "indexed": false,
          "internalType": "uint256",
          "name": "newPrice",
          "type": "uint256"
        }
      ],
      "name": "casePriceChanged",
      "type": "event"
    },
    {
      "anonymous": false,
      "inputs": [
        {
          "indexed": false,
          "internalType": "address",
          "name": "buyer",
          "type": "address"
        },
        {
          "indexed": false,
          "internalType": "address",
          "name": "seller",
          "type": "address"
        },
        {
          "indexed": false,
          "internalType": "uint256",
          "name": "marketItemId",
          "type": "uint256"
        },
        {
          "indexed": false,
          "internalType": "uint256",
          "name": "price",
          "type": "uint256"
        }
      ],
      "name": "itemBought",
      "type": "event"
    },
    {
      "anonymous": false,
      "inputs": [
        {
          "indexed": false,
          "internalType": "address",
          "name": "user",
          "type": "address"
        },
        {
          "indexed": false,
          "internalType": "uint256",
          "name": "tokenId",
          "type": "uint256"
        }
      ],
      "name": "itemExchanged",
      "type": "event"
    },
    {
      "anonymous": false,
      "inputs": [
        {
          "indexed": false,
          "internalType": "address",
          "name": "owner",
          "type": "address"
        },
        {
          "indexed": false,
          "internalType": "uint256",
          "name": "marketItemId",
          "type": "uint256"
        },
        {
          "indexed": false,
          "internalType": "uint256",
          "name": "oldPrice",
          "type": "uint256"
        },
        {
          "indexed": false,
          "internalType": "uint256",
          "name": "newPrice",
          "type": "uint256"
        }
      ],
      "name": "itemPriceChanged",
      "type": "event"
    },
    {
      "anonymous": false,
      "inputs": [
        {
          "indexed": false,
          "internalType": "address",
          "name": "seller",
          "type": "address"
        },
        {
          "indexed": false,
          "internalType": "uint256",
          "name": "numTries",
          "type": "uint256"
        },
        {
          "indexed": false,
          "internalType": "uint256",
          "name": "_hours",
          "type": "uint256"
        },
        {
          "indexed": false,
          "internalType": "uint256",
          "name": "price",
          "type": "uint256"
        }
      ],
      "name": "newTicketOnSale",
      "type": "event"
    },
    {
      "anonymous": false,
      "inputs": [
        {
          "indexed": false,
          "internalType": "address",
          "name": "user",
          "type": "address"
        },
        {
          "indexed": false,
          "internalType": "uint256",
          "name": "tokenId",
          "type": "uint256"
        },
        {
          "indexed": false,
          "internalType": "uint256",
          "name": "price",
          "type": "uint256"
        }
      ],
      "name": "sellingItem",
      "type": "event"
    },
    {
      "anonymous": false,
      "inputs": [
        {
          "indexed": false,
          "internalType": "uint256",
          "name": "ticketId",
          "type": "uint256"
        },
        {
          "indexed": false,
          "internalType": "address",
          "name": "oldOwner",
          "type": "address"
        },
        {
          "indexed": false,
          "internalType": "address",
          "name": "newOwner",
          "type": "address"
        },
        {
          "indexed": false,
          "internalType": "uint256",
          "name": "price",
          "type": "uint256"
        }
      ],
      "name": "ticketBought",
      "type": "event"
    },
    {
      "anonymous": false,
      "inputs": [
        {
          "indexed": false,
          "internalType": "address",
          "name": "borrower",
          "type": "address"
        },
        {
          "indexed": false,
          "internalType": "address",
          "name": "realOwner",
          "type": "address"
        }
      ],
      "name": "ticketClaimedBack",
      "type": "event"
    },
    {
      "anonymous": false,
      "inputs": [
        {
          "indexed": false,
          "internalType": "address",
          "name": "owner",
          "type": "address"
        },
        {
          "indexed": false,
          "internalType": "uint256",
          "name": "newTries",
          "type": "uint256"
        },
        {
          "indexed": false,
          "internalType": "uint256",
          "name": "newPrice",
          "type": "uint256"
        }
      ],
      "name": "ticketPriceChanged",
      "type": "event"
    },
    {
      "anonymous": false,
      "inputs": [
        {
          "indexed": false,
          "internalType": "address",
          "name": "owner",
          "type": "address"
        }
      ],
      "name": "unListTicketOnSale",
      "type": "event"
    },
    {
      "anonymous": false,
      "inputs": [
        {
          "indexed": false,
          "internalType": "address",
          "name": "owner",
          "type": "address"
        },
        {
          "indexed": false,
          "internalType": "uint256",
          "name": "marketItemId",
          "type": "uint256"
        }
      ],
      "name": "unListedItem",
      "type": "event"
    },
    {
      "inputs": [],
      "name": "ADMIN_ROLE",
      "outputs": [
        {
          "internalType": "bytes32",
          "name": "",
          "type": "bytes32"
        }
      ],
      "stateMutability": "view",
      "type": "function"
    },
    {
      "inputs": [],
      "name": "DEFAULT_ADMIN_ROLE",
      "outputs": [
        {
          "internalType": "bytes32",
          "name": "",
          "type": "bytes32"
        }
      ],
      "stateMutability": "view",
      "type": "function"
    },
    {
      "inputs": [],
      "name": "NUM_WORDS",
      "outputs": [
        {
          "internalType": "uint32",
          "name": "",
          "type": "uint32"
        }
      ],
      "stateMutability": "view",
      "type": "function"
    },
    {
      "inputs": [],
      "name": "REQUEST_CONFIRMATIONS",
      "outputs": [
        {
          "internalType": "uint16",
          "name": "",
          "type": "uint16"
        }
      ],
      "stateMutability": "view",
      "type": "function"
    },
    {
      "inputs": [],
      "name": "_randomNumber",
      "outputs": [
        {
          "internalType": "uint256",
          "name": "",
          "type": "uint256"
        }
      ],
      "stateMutability": "nonpayable",
      "type": "function"
    },
    {
      "inputs": [
        {
          "internalType": "uint256",
          "name": "tokenId",
          "type": "uint256"
        }
      ],
      "name": "_rarityOfItem",
      "outputs": [
        {
          "internalType": "uint256",
          "name": "",
          "type": "uint256"
        }
      ],
      "stateMutability": "view",
      "type": "function"
    },
    {
      "inputs": [
        {
          "internalType": "address",
          "name": "account",
          "type": "address"
        },
        {
          "internalType": "uint256",
          "name": "id",
          "type": "uint256"
        }
      ],
      "name": "balanceOf",
      "outputs": [
        {
          "internalType": "uint256",
          "name": "",
          "type": "uint256"
        }
      ],
      "stateMutability": "view",
      "type": "function"
    },
    {
      "inputs": [
        {
          "internalType": "address[]",
          "name": "accounts",
          "type": "address[]"
        },
        {
          "internalType": "uint256[]",
          "name": "ids",
          "type": "uint256[]"
        }
      ],
      "name": "balanceOfBatch",
      "outputs": [
        {
          "internalType": "uint256[]",
          "name": "",
          "type": "uint256[]"
        }
      ],
      "stateMutability": "view",
      "type": "function"
    },
    {
      "inputs": [
        {
          "internalType": "uint256",
          "name": "marketItemId",
          "type": "uint256"
        }
      ],
      "name": "buyItem",
      "outputs": [],
      "stateMutability": "nonpayable",
      "type": "function"
    },
    {
      "inputs": [
        {
          "internalType": "uint256",
          "name": "ticketId",
          "type": "uint256"
        }
      ],
      "name": "buyTicket",
      "outputs": [],
      "stateMutability": "nonpayable",
      "type": "function"
    },
    {
      "inputs": [],
      "name": "casePrice",
      "outputs": [
        {
          "internalType": "uint256",
          "name": "",
          "type": "uint256"
        }
      ],
      "stateMutability": "view",
      "type": "function"
    },
    {
      "inputs": [
        {
          "internalType": "uint256",
          "name": "marketItemId",
          "type": "uint256"
        },
        {
          "internalType": "uint256",
          "name": "newPrice",
          "type": "uint256"
        }
      ],
      "name": "changeItemPrice",
      "outputs": [],
      "stateMutability": "nonpayable",
      "type": "function"
    },
    {
      "inputs": [
        {
          "internalType": "uint256",
          "name": "ticketId",
          "type": "uint256"
        },
        {
          "internalType": "uint256",
          "name": "newTries",
          "type": "uint256"
        },
        {
          "internalType": "uint256",
          "name": "newPrice",
          "type": "uint256"
        }
      ],
      "name": "changeTicketConditions",
      "outputs": [],
      "stateMutability": "nonpayable",
      "type": "function"
    },
    {
      "inputs": [
        {
          "internalType": "uint256",
          "name": "ticketId",
          "type": "uint256"
        }
      ],
      "name": "claimTicketBack",
      "outputs": [],
      "stateMutability": "nonpayable",
      "type": "function"
    },
    {
      "inputs": [],
      "name": "contractActive",
      "outputs": [
        {
          "internalType": "bool",
          "name": "",
          "type": "bool"
        }
      ],
      "stateMutability": "view",
      "type": "function"
    },
    {
      "inputs": [
        {
          "internalType": "address",
          "name": "user",
          "type": "address"
        }
      ],
      "name": "decreaseTicketTries",
      "outputs": [],
      "stateMutability": "nonpayable",
      "type": "function"
    },
    {
      "inputs": [
        {
          "internalType": "uint256",
          "name": "marketItemId",
          "type": "uint256"
        }
      ],
      "name": "exchangeItem",
      "outputs": [],
      "stateMutability": "nonpayable",
      "type": "function"
    },
    {
      "inputs": [],
      "name": "flipContractState",
      "outputs": [],
      "stateMutability": "nonpayable",
      "type": "function"
    },
    {
      "inputs": [],
      "name": "getCasePrice",
      "outputs": [
        {
          "internalType": "uint256",
          "name": "",
          "type": "uint256"
        }
      ],
      "stateMutability": "view",
      "type": "function"
    },
    {
      "inputs": [],
      "name": "getITicketsOnSale",
      "outputs": [
        {
          "components": [
            {
              "internalType": "uint256",
              "name": "ticketId",
              "type": "uint256"
            },
            {
              "internalType": "uint256",
              "name": "numTries",
              "type": "uint256"
            },
            {
              "internalType": "uint256",
              "name": "duration",
              "type": "uint256"
            },
            {
              "internalType": "uint256",
              "name": "price",
              "type": "uint256"
            },
            {
              "internalType": "address",
              "name": "owner",
              "type": "address"
            },
            {
              "internalType": "uint256",
              "name": "timeWhenSold",
              "type": "uint256"
            },
            {
              "internalType": "bool",
              "name": "isAvaliable",
              "type": "bool"
            }
          ],
          "internalType": "struct RacksItemsv2.caseTicket[]",
          "name": "",
          "type": "tuple[]"
        }
      ],
      "stateMutability": "view",
      "type": "function"
    },
    {
      "inputs": [],
      "name": "getItemsOnSale",
      "outputs": [
        {
          "components": [
            {
              "internalType": "uint256",
              "name": "tokenId",
              "type": "uint256"
            },
            {
              "internalType": "uint256",
              "name": "marketItemId",
              "type": "uint256"
            },
            {
              "internalType": "uint256",
              "name": "price",
              "type": "uint256"
            },
            {
              "internalType": "address",
              "name": "itemOwner",
              "type": "address"
            },
            {
              "internalType": "bool",
              "name": "isOnSale",
              "type": "bool"
            }
          ],
          "internalType": "struct RacksItemsv2.itemOnSale[]",
          "name": "",
          "type": "tuple[]"
        }
      ],
      "stateMutability": "view",
      "type": "function"
    },
    {
      "inputs": [
        {
          "internalType": "uint256",
          "name": "marketItemId",
          "type": "uint256"
        }
      ],
      "name": "getMarketItem",
      "outputs": [
        {
          "components": [
            {
              "internalType": "uint256",
              "name": "tokenId",
              "type": "uint256"
            },
            {
              "internalType": "uint256",
              "name": "marketItemId",
              "type": "uint256"
            },
            {
              "internalType": "uint256",
              "name": "price",
              "type": "uint256"
            },
            {
              "internalType": "address",
              "name": "itemOwner",
              "type": "address"
            },
            {
              "internalType": "bool",
              "name": "isOnSale",
              "type": "bool"
            }
          ],
          "internalType": "struct RacksItemsv2.itemOnSale",
          "name": "",
          "type": "tuple"
        }
      ],
      "stateMutability": "view",
      "type": "function"
    },
    {
      "inputs": [
        {
          "internalType": "uint256",
          "name": "ticketId",
          "type": "uint256"
        }
      ],
      "name": "getMarketTicket",
      "outputs": [
        {
          "components": [
            {
              "internalType": "uint256",
              "name": "ticketId",
              "type": "uint256"
            },
            {
              "internalType": "uint256",
              "name": "numTries",
              "type": "uint256"
            },
            {
              "internalType": "uint256",
              "name": "duration",
              "type": "uint256"
            },
            {
              "internalType": "uint256",
              "name": "price",
              "type": "uint256"
            },
            {
              "internalType": "address",
              "name": "owner",
              "type": "address"
            },
            {
              "internalType": "uint256",
              "name": "timeWhenSold",
              "type": "uint256"
            },
            {
              "internalType": "bool",
              "name": "isAvaliable",
              "type": "bool"
            }
          ],
          "internalType": "struct RacksItemsv2.caseTicket",
          "name": "",
          "type": "tuple"
        }
      ],
      "stateMutability": "view",
      "type": "function"
    },
    {
      "inputs": [
        {
          "internalType": "bytes32",
          "name": "role",
          "type": "bytes32"
        }
      ],
      "name": "getRoleAdmin",
      "outputs": [
        {
          "internalType": "bytes32",
          "name": "",
          "type": "bytes32"
        }
      ],
      "stateMutability": "view",
      "type": "function"
    },
    {
      "inputs": [
        {
          "internalType": "bytes32",
          "name": "role",
          "type": "bytes32"
        },
        {
          "internalType": "address",
          "name": "account",
          "type": "address"
        }
      ],
      "name": "grantRole",
      "outputs": [],
      "stateMutability": "nonpayable",
      "type": "function"
    },
    {
      "inputs": [
        {
          "internalType": "bytes32",
          "name": "role",
          "type": "bytes32"
        },
        {
          "internalType": "address",
          "name": "account",
          "type": "address"
        }
      ],
      "name": "hasRole",
      "outputs": [
        {
          "internalType": "bool",
          "name": "",
          "type": "bool"
        }
      ],
      "stateMutability": "view",
      "type": "function"
    },
    {
      "inputs": [],
      "name": "i_MrCryptoAddress",
      "outputs": [
        {
          "internalType": "address",
          "name": "",
          "type": "address"
        }
      ],
      "stateMutability": "view",
      "type": "function"
    },
    {
      "inputs": [],
      "name": "i_callbackGasLimit",
      "outputs": [
        {
          "internalType": "uint32",
          "name": "",
          "type": "uint32"
        }
      ],
      "stateMutability": "view",
      "type": "function"
    },
    {
      "inputs": [],
      "name": "i_gasLane",
      "outputs": [
        {
          "internalType": "bytes32",
          "name": "",
          "type": "bytes32"
        }
      ],
      "stateMutability": "view",
      "type": "function"
    },
    {
      "inputs": [],
      "name": "i_subscriptionId",
      "outputs": [
        {
          "internalType": "uint64",
          "name": "",
          "type": "uint64"
        }
      ],
      "stateMutability": "view",
      "type": "function"
    },
    {
      "inputs": [],
      "name": "i_vrfCoordinator",
      "outputs": [
        {
          "internalType": "contract VRFCoordinatorV2Interface",
          "name": "",
          "type": "address"
        }
      ],
      "stateMutability": "view",
      "type": "function"
    },
    {
      "inputs": [
        {
          "internalType": "address",
          "name": "account",
          "type": "address"
        },
        {
          "internalType": "address",
          "name": "operator",
          "type": "address"
        }
      ],
      "name": "isApprovedForAll",
      "outputs": [
        {
          "internalType": "bool",
          "name": "",
          "type": "bool"
        }
      ],
      "stateMutability": "view",
      "type": "function"
    },
    {
      "inputs": [
        {
          "internalType": "address",
          "name": "user",
          "type": "address"
        }
      ],
      "name": "isVip",
      "outputs": [
        {
          "internalType": "bool",
          "name": "",
          "type": "bool"
        }
      ],
      "stateMutability": "view",
      "type": "function"
    },
    {
      "inputs": [
        {
          "internalType": "uint256",
          "name": "itemSupply",
          "type": "uint256"
        }
      ],
      "name": "listItem",
      "outputs": [],
      "stateMutability": "nonpayable",
      "type": "function"
    },
    {
      "inputs": [
        {
          "internalType": "uint256",
          "name": "marketItemId",
          "type": "uint256"
        },
        {
          "internalType": "uint256",
          "name": "price",
          "type": "uint256"
        }
      ],
      "name": "listItem",
      "outputs": [],
      "stateMutability": "nonpayable",
      "type": "function"
    },
    {
      "inputs": [
        {
          "internalType": "uint256",
          "name": "numTries",
          "type": "uint256"
        },
        {
          "internalType": "uint256",
          "name": "_hours",
          "type": "uint256"
        },
        {
          "internalType": "uint256",
          "name": "price",
          "type": "uint256"
        }
      ],
      "name": "listTicket",
      "outputs": [],
      "stateMutability": "nonpayable",
      "type": "function"
    },
    {
      "inputs": [
        {
          "internalType": "address",
          "name": "",
          "type": "address"
        },
        {
          "internalType": "address",
          "name": "",
          "type": "address"
        },
        {
          "internalType": "uint256[]",
          "name": "",
          "type": "uint256[]"
        },
        {
          "internalType": "uint256[]",
          "name": "",
          "type": "uint256[]"
        },
        {
          "internalType": "bytes",
          "name": "",
          "type": "bytes"
        }
      ],
      "name": "onERC1155BatchReceived",
      "outputs": [
        {
          "internalType": "bytes4",
          "name": "",
          "type": "bytes4"
        }
      ],
      "stateMutability": "nonpayable",
      "type": "function"
    },
    {
      "inputs": [
        {
          "internalType": "address",
          "name": "",
          "type": "address"
        },
        {
          "internalType": "address",
          "name": "",
          "type": "address"
        },
        {
          "internalType": "uint256",
          "name": "",
          "type": "uint256"
        },
        {
          "internalType": "uint256",
          "name": "",
          "type": "uint256"
        },
        {
          "internalType": "bytes",
          "name": "",
          "type": "bytes"
        }
      ],
      "name": "onERC1155Received",
      "outputs": [
        {
          "internalType": "bytes4",
          "name": "",
          "type": "bytes4"
        }
      ],
      "stateMutability": "nonpayable",
      "type": "function"
    },
    {
      "inputs": [],
      "name": "openCase",
      "outputs": [],
      "stateMutability": "nonpayable",
      "type": "function"
    },
    {
      "inputs": [
        {
          "internalType": "uint256",
          "name": "requestId",
          "type": "uint256"
        },
        {
          "internalType": "uint256[]",
          "name": "randomWords",
          "type": "uint256[]"
        }
      ],
      "name": "rawFulfillRandomWords",
      "outputs": [],
      "stateMutability": "nonpayable",
      "type": "function"
    },
    {
      "inputs": [
        {
          "internalType": "address[]",
          "name": "users",
          "type": "address[]"
        }
      ],
      "name": "removeListRacksMembers",
      "outputs": [],
      "stateMutability": "nonpayable",
      "type": "function"
    },
    {
      "inputs": [
        {
          "internalType": "address",
          "name": "user",
          "type": "address"
        }
      ],
      "name": "removeSingleRacksMember",
      "outputs": [],
      "stateMutability": "nonpayable",
      "type": "function"
    },
    {
      "inputs": [
        {
          "internalType": "bytes32",
          "name": "role",
          "type": "bytes32"
        },
        {
          "internalType": "address",
          "name": "account",
          "type": "address"
        }
      ],
      "name": "renounceRole",
      "outputs": [],
      "stateMutability": "nonpayable",
      "type": "function"
    },
    {
      "inputs": [
        {
          "internalType": "bytes32",
          "name": "role",
          "type": "bytes32"
        },
        {
          "internalType": "address",
          "name": "account",
          "type": "address"
        }
      ],
      "name": "revokeRole",
      "outputs": [],
      "stateMutability": "nonpayable",
      "type": "function"
    },
    {
      "inputs": [],
      "name": "s_contractState",
      "outputs": [
        {
          "internalType": "enum RacksItemsv2.ContractState",
          "name": "",
          "type": "uint8"
        }
      ],
      "stateMutability": "view",
      "type": "function"
    },
    {
      "inputs": [],
      "name": "s_randomWord",
      "outputs": [
        {
          "internalType": "uint256",
          "name": "",
          "type": "uint256"
        }
      ],
      "stateMutability": "view",
      "type": "function"
    },
    {
      "inputs": [
        {
          "internalType": "address",
          "name": "from",
          "type": "address"
        },
        {
          "internalType": "address",
          "name": "to",
          "type": "address"
        },
        {
          "internalType": "uint256[]",
          "name": "ids",
          "type": "uint256[]"
        },
        {
          "internalType": "uint256[]",
          "name": "amounts",
          "type": "uint256[]"
        },
        {
          "internalType": "bytes",
          "name": "data",
          "type": "bytes"
        }
      ],
      "name": "safeBatchTransferFrom",
      "outputs": [],
      "stateMutability": "nonpayable",
      "type": "function"
    },
    {
      "inputs": [
        {
          "internalType": "address",
          "name": "from",
          "type": "address"
        },
        {
          "internalType": "address",
          "name": "to",
          "type": "address"
        },
        {
          "internalType": "uint256",
          "name": "id",
          "type": "uint256"
        },
        {
          "internalType": "uint256",
          "name": "amount",
          "type": "uint256"
        },
        {
          "internalType": "bytes",
          "name": "data",
          "type": "bytes"
        }
      ],
      "name": "safeTransferFrom",
      "outputs": [],
      "stateMutability": "nonpayable",
      "type": "function"
    },
    {
      "inputs": [
        {
          "internalType": "address",
          "name": "_newAdmin",
          "type": "address"
        }
      ],
      "name": "setAdmin",
      "outputs": [],
      "stateMutability": "nonpayable",
      "type": "function"
    },
    {
      "inputs": [
        {
          "internalType": "address",
          "name": "operator",
          "type": "address"
        },
        {
          "internalType": "bool",
          "name": "approved",
          "type": "bool"
        }
      ],
      "name": "setApprovalForAll",
      "outputs": [],
      "stateMutability": "nonpayable",
      "type": "function"
    },
    {
      "inputs": [
        {
          "internalType": "uint256",
          "name": "price",
          "type": "uint256"
        }
      ],
      "name": "setCasePrice",
      "outputs": [],
      "stateMutability": "nonpayable",
      "type": "function"
    },
    {
      "inputs": [
        {
          "internalType": "address[]",
          "name": "users",
          "type": "address[]"
        }
      ],
      "name": "setListRacksMembers",
      "outputs": [],
      "stateMutability": "nonpayable",
      "type": "function"
    },
    {
      "inputs": [
        {
          "internalType": "address",
          "name": "user",
          "type": "address"
        }
      ],
      "name": "setSingleRacksMember",
      "outputs": [],
      "stateMutability": "nonpayable",
      "type": "function"
    },
    {
      "inputs": [
        {
          "internalType": "uint256",
          "name": "tokenId",
          "type": "uint256"
        },
        {
          "internalType": "string",
          "name": "_uri",
          "type": "string"
        }
      ],
      "name": "setTokenUri",
      "outputs": [],
      "stateMutability": "nonpayable",
      "type": "function"
    },
    {
      "inputs": [
        {
          "internalType": "uint256",
          "name": "tokenId",
          "type": "uint256"
        }
      ],
      "name": "supplyOfItem",
      "outputs": [
        {
          "internalType": "uint256",
          "name": "",
          "type": "uint256"
        }
      ],
      "stateMutability": "view",
      "type": "function"
    },
    {
      "inputs": [
        {
          "internalType": "bytes4",
          "name": "interfaceId",
          "type": "bytes4"
        }
      ],
      "name": "supportsInterface",
      "outputs": [
        {
          "internalType": "bool",
          "name": "",
          "type": "bool"
        }
      ],
      "stateMutability": "view",
      "type": "function"
    },
    {
      "inputs": [
        {
          "internalType": "uint256",
          "name": "marketItemId",
          "type": "uint256"
        }
      ],
      "name": "unListItem",
      "outputs": [],
      "stateMutability": "nonpayable",
      "type": "function"
    },
    {
      "inputs": [
        {
          "internalType": "uint256",
          "name": "ticketId",
          "type": "uint256"
        }
      ],
      "name": "unListTicket",
      "outputs": [],
      "stateMutability": "nonpayable",
      "type": "function"
    },
    {
      "inputs": [
        {
          "internalType": "uint256",
          "name": "tokenId",
          "type": "uint256"
        }
      ],
      "name": "uri",
      "outputs": [
        {
          "internalType": "string",
          "name": "",
          "type": "string"
        }
      ],
      "stateMutability": "view",
      "type": "function"
    },
    {
      "inputs": [
        {
          "internalType": "address",
          "name": "owner",
          "type": "address"
        }
      ],
      "name": "viewItems",
      "outputs": [
        {
          "internalType": "uint256[]",
          "name": "",
          "type": "uint256[]"
        }
      ],
      "stateMutability": "view",
      "type": "function"
    },
    {
      "inputs": [
        {
          "internalType": "address",
          "name": "wallet",
          "type": "address"
        }
      ],
      "name": "withdrawAllFunds",
      "outputs": [],
      "stateMutability": "nonpayable",
      "type": "function"
    },
    {
      "inputs": [
        {
          "internalType": "address",
          "name": "wallet",
          "type": "address"
        },
        {
          "internalType": "uint256",
          "name": "amount",
          "type": "uint256"
        }
      ],
      "name": "withdrawFunds",
      "outputs": [],
      "stateMutability": "nonpayable",
      "type": "function"
    },
    {
      "stateMutability": "payable",
      "type": "receive"
    }
  ],
  "bytecode": "0x610120604052600c805460ff191660011790553480156200001f57600080fd5b5060405162005e6b38038062005e6b8339810160408190526200004291620001ec565b60408051602081019091526000815285906200005e8162000110565b50606090811b6001600160601b031990811660805295901b90941660a05260c0928352911b6001600160c01b03191660e09081521b6001600160e01b031916610100526004805473ef453154766505feb9dbf0a58e6990fd6eb669696001600160a01b0319918216179091556005805482166001600160a01b0393909316929092179091556006805433921691909117905560006008819055600a556001600b55600c805461ff0019169055620002a9565b80516200012590600290602084019062000129565b5050565b82805462000137906200026c565b90600052602060002090601f0160209004810192826200015b5760008555620001a6565b82601f106200017657805160ff1916838001178555620001a6565b82800160010185558215620001a6579182015b82811115620001a657825182559160200191906001019062000189565b50620001b4929150620001b8565b5090565b5b80821115620001b45760008155600101620001b9565b80516001600160a01b0381168114620001e757600080fd5b919050565b600080600080600060a086880312156200020557600080fd5b6200021086620001cf565b6020870151604088015191965094506001600160401b03811681146200023557600080fd5b606087015190935063ffffffff811681146200025057600080fd5b91506200026060808701620001cf565b90509295509295909350565b600181811c908216806200028157607f821691505b60208210811415620002a357634e487b7160e01b600052602260045260246000fd5b50919050565b60805160601c60a05160601c60c05160e05160c01c6101005160e01c615b4e6200031d60003960008181610b230152611a590152600081816105fd0152611a2601526000818161088801526119f70152600081816109770152611a94015260008181610ead0152610f080152615b4e6000f3fe6080604052600436106103b05760003560e01c80638ba8b15a116101e7578063c10753291161010d578063e289fcb6116100a0578063f23a6e611161006f578063f23a6e6114610c2a578063f242432a14610c56578063f48c9d3414610c76578063fd210fd914610c9657600080fd5b8063e289fcb614610b87578063e7fb74c714610ba1578063e985e9c514610bc1578063ebf82e5c14610c0a57600080fd5b8063d547741f116100dc578063d547741f14610af1578063d757d02714610b11578063dd006d3114610b45578063de08f65314610b7257600080fd5b8063c107532914610a6e578063c7be7a4914610a8e578063c7e05f8d14610abb578063ca90958f14610adb57600080fd5b8063a7b1942411610185578063b63b861211610154578063b63b8612146109bb578063b85e67af146109e7578063bbcbc2e714610a07578063bc197c8114610a2957600080fd5b8063a7b1942414610925578063a7bc77c614610945578063aebc455014610965578063b2ead3c71461099957600080fd5b806391d14854116101c157806391d14854146108aa578063976298f3146108f0578063a217fddf146107a1578063a22cb4651461090557600080fd5b80638ba8b15a146108365780638dc5f45b146108565780638e879c8a1461087657600080fd5b80634a226657116102d757806367f082b01161026a5780637e420db5116102395780637e420db5146107b657806384203f4b146107d6578063883efa67146107f657806389165aa91461081657600080fd5b806367f082b01461072f578063704b6c021461075757806372cf6e341461077757806375b238fc146107a157600080fd5b806357f7789e116102a657806357f7789e146106ba57806361652450146106da57806361c073d6146106ef57806367dd74ca1461070f57600080fd5b80634a226657146106385780634e1273f41461064d5780635408c3191461067a57806354e889f61461069a57600080fd5b8063248a9ca31161034f57806330dc27641161031e57806330dc27641461058b57806332dee40b146105ab57806336568abe146105cb578063470cdf97146105eb57600080fd5b8063248a9ca3146104fb5780632ce381901461052b5780632eb2c2d61461054b5780632f2ff15d1461056b57600080fd5b8063109b82781161038b578063109b82781461044c5780631cb0b2731461048c5780631fe543e3146104ae57806320ba0814146104ce57600080fd5b8062fdd58e146103bc57806301ffc9a7146103ef5780630e89341c1461041f57600080fd5b366103b757005b600080fd5b3480156103c857600080fd5b506103dc6103d7366004615278565b610cac565b6040519081526020015b60405180910390f35b3480156103fb57600080fd5b5061040f61040a36600461539c565b610d58565b60405190151581526020016103e6565b34801561042b57600080fd5b5061043f61043a366004615360565b610d63565b6040516103e691906157cd565b34801561045857600080fd5b5061047473ef453154766505feb9dbf0a58e6990fd6eb6696981565b6040516001600160a01b0390911681526020016103e6565b34801561049857600080fd5b506104ac6104a7366004615360565b610e05565b005b3480156104ba57600080fd5b506104ac6104c93660046153ef565b610ea2565b3480156104da57600080fd5b506103dc6104e9366004615360565b60009081526011602052604090205490565b34801561050757600080fd5b506103dc610516366004615360565b60009081526003602052604090206001015490565b34801561053757600080fd5b506104ac610546366004615360565b610f43565b34801561055757600080fd5b506104ac610566366004615132565b610faf565b34801561057757600080fd5b506104ac610586366004615379565b611051565b34801561059757600080fd5b506104ac6105a63660046150e4565b61107b565b3480156105b757600080fd5b506104ac6105c63660046150e4565b6111cc565b3480156105d757600080fd5b506104ac6105e6366004615379565b611374565b3480156105f757600080fd5b5061061f7f000000000000000000000000000000000000000000000000000000000000000081565b60405167ffffffffffffffff90911681526020016103e6565b34801561064457600080fd5b506104ac6113fc565b34801561065957600080fd5b5061066d6106683660046152df565b611661565b6040516103e69190615764565b34801561068657600080fd5b506104ac6106953660046152a2565b61179f565b3480156106a657600080fd5b506104ac6106b53660046150e4565b611866565b3480156106c657600080fd5b506104ac6106d536600461542c565b6118e9565b3480156106e657600080fd5b506103dc6119cf565b3480156106fb57600080fd5b506104ac61070a366004615360565b611b10565b34801561071b57600080fd5b506104ac61072a366004615360565b611d26565b34801561073b57600080fd5b50610744600381565b60405161ffff90911681526020016103e6565b34801561076357600080fd5b506104ac6107723660046150e4565b6121dc565b34801561078357600080fd5b5061078c600281565b60405163ffffffff90911681526020016103e6565b3480156107ad57600080fd5b506103dc600081565b3480156107c257600080fd5b506104ac6107d1366004615360565b612241565b3480156107e257600080fd5b5061040f6107f13660046150e4565b61242e565b34801561080257600080fd5b506104ac61081136600461547d565b6124e8565b34801561082257600080fd5b506104ac6108313660046152a2565b6126b2565b34801561084257600080fd5b506104ac6108513660046150e4565b612779565b34801561086257600080fd5b506104ac610871366004615360565b6127f9565b34801561088257600080fd5b506103dc7f000000000000000000000000000000000000000000000000000000000000000081565b3480156108b657600080fd5b5061040f6108c5366004615379565b60009182526003602090815260408084206001600160a01b0393909316845291905290205460ff1690565b3480156108fc57600080fd5b50600b546103dc565b34801561091157600080fd5b506104ac610920366004615241565b61288d565b34801561093157600080fd5b506104ac61094036600461547d565b612898565b34801561095157600080fd5b506104ac610960366004615360565b6129c3565b34801561097157600080fd5b506104747f000000000000000000000000000000000000000000000000000000000000000081565b3480156109a557600080fd5b506109ae612b07565b6040516103e69190615654565b3480156109c757600080fd5b50600c546109da90610100900460ff1681565b6040516103e691906157a5565b3480156109f357600080fd5b506104ac610a0236600461549f565b612d48565b348015610a1357600080fd5b50610a1c6130a9565b6040516103e691906156ec565b348015610a3557600080fd5b50610a55610a44366004615132565b63bc197c8160e01b95945050505050565b6040516001600160e01b031990911681526020016103e6565b348015610a7a57600080fd5b506104ac610a89366004615278565b6132b3565b348015610a9a57600080fd5b50610aae610aa9366004615360565b61345c565b6040516103e69190615838565b348015610ac757600080fd5b506103dc610ad6366004615360565b61350f565b348015610ae757600080fd5b506103dc600b5481565b348015610afd57600080fd5b506104ac610b0c366004615379565b613546565b348015610b1d57600080fd5b5061078c7f000000000000000000000000000000000000000000000000000000000000000081565b348015610b5157600080fd5b50610b65610b60366004615360565b61356b565b6040516103e691906157e0565b348015610b7e57600080fd5b506104ac61363c565b348015610b9357600080fd5b50600c5461040f9060ff1681565b348015610bad57600080fd5b506104ac610bbc366004615360565b6136dd565b348015610bcd57600080fd5b5061040f610bdc3660046150ff565b6001600160a01b03918216600090815260016020908152604080832093909416825291909152205460ff1690565b348015610c1657600080fd5b506104ac610c2536600461549f565b613ae5565b348015610c3657600080fd5b50610a55610c453660046151dc565b63f23a6e6160e01b95945050505050565b348015610c6257600080fd5b506104ac610c713660046151dc565b613ce6565b348015610c8257600080fd5b5061066d610c913660046150e4565b613d81565b348015610ca257600080fd5b506103dc600f5481565b60006001600160a01b038316610d2f5760405162461bcd60e51b815260206004820152602b60248201527f455243313135353a2062616c616e636520717565727920666f7220746865207a60448201527f65726f206164647265737300000000000000000000000000000000000000000060648201526084015b60405180910390fd5b506000818152602081815260408083206001600160a01b03861684529091529020545b92915050565b6000610d5282613e18565b6000818152601260205260409020805460609190610d8090615949565b80601f0160208091040260200160405190810160405280929190818152602001828054610dac90615949565b8015610df95780601f10610dce57610100808354040283529160200191610df9565b820191906000526020600020905b815481529060010190602001808311610ddc57829003601f168201915b50505050509050919050565b6000610e113383610cac565b11610e1b57600080fd5b610e2733826001613e56565b6000818152601160205260408120805460019290610e469084906158eb565b92505081905550600160076000828254610e6091906158eb565b909155505060408051338152602081018390527f9e90d55d2f1f115ffe1b87372c45f27f6b3a2b5ba392942167be78456189009491015b60405180910390a150565b336001600160a01b037f00000000000000000000000000000000000000000000000000000000000000001614610f35576040517f1cf993f40000000000000000000000000000000000000000000000000000000081523360048201526001600160a01b037f0000000000000000000000000000000000000000000000000000000000000000166024820152604401610d26565b610f3f828261400a565b5050565b610f4c3361402f565b610fa25760405162461bcd60e51b815260206004820152602160248201527f55736572206973206e6f7420746865204f776e6572206f7220616e2041646d696044820152603760f91b6064820152608401610d26565b610fac308261408e565b50565b6001600160a01b038516331480610fcb5750610fcb8533610bdc565b61103d5760405162461bcd60e51b815260206004820152603260248201527f455243313135353a207472616e736665722063616c6c6572206973206e6f742060448201527f6f776e6572206e6f7220617070726f76656400000000000000000000000000006064820152608401610d26565b61104a85858585856140f9565b5050505050565b60008281526003602052604090206001015461106c8161436c565b6110768383614376565b505050565b60005b600e54811015610f3f57816001600160a01b0316600e82815481106110a5576110a5615a22565b60009182526020909120600460079092020101546001600160a01b031614156111ba57600e81815481106110db576110db615a22565b90600052602060002090600702016001015460011461112f57600e818154811061110757611107615a22565b60009182526020822060016007909202010180549161112583615932565b91905055506111ba565b600e818154811061114257611142615a22565b60009182526020822060016007909202010180549161116083615932565b91905055506000600e828154811061117a5761117a615a22565b60009182526020808320600660079093020191909101805493151560ff199485161790556001600160a01b03851682526014905260409020805490911690555b806111c4816159b1565b91505061107e565b6006546001600160a01b031633146112265760405162461bcd60e51b815260206004820152601560248201527f55736572206973206e6f7420746865206f776e657200000000000000000000006044820152606401610d26565b6005546040516370a0823160e01b81523060048201526000916001600160a01b0316906370a082319060240160206040518083038186803b15801561126a57600080fd5b505afa15801561127e573d6000803e3d6000fd5b505050506040513d601f19601f820116820180604052508101906112a291906153d6565b116112ef5760405162461bcd60e51b815260206004820152601460248201527f4e6f2066756e647320746f2077697468647261770000000000000000000000006044820152606401610d26565b60055460405163a9059cbb60e01b81526001600160a01b0383811660048301524760248301529091169063a9059cbb90604401602060405180830381600087803b15801561133c57600080fd5b505af1158015611350573d6000803e3d6000fd5b505050506040513d601f19601f82011682018060405250810190610f3f9190615343565b6001600160a01b03811633146113f25760405162461bcd60e51b815260206004820152602f60248201527f416363657373436f6e74726f6c3a2063616e206f6e6c792072656e6f756e636560448201527f20726f6c657320666f722073656c6600000000000000000000000000000000006064820152608401610d26565b610f3f8282614418565b6000600c54610100900460ff16600181111561141a5761141a615a0c565b1461148d5760405162461bcd60e51b815260206004820152602560248201527f436f6e7472616374206973206e6f74206163746976652061742074686973206d60448201527f6f6d656e740000000000000000000000000000000000000000000000000000006064820152608401610d26565b600554600b546040517f23b872dd00000000000000000000000000000000000000000000000000000000815233600482015230602482015260448101919091526001600160a01b03909116906323b872dd90606401602060405180830381600087803b1580156114fc57600080fd5b505af1158015611510573d6000803e3d6000fd5b505050506040513d601f19601f820116820180604052508101906115349190615343565b5060006007546115426119cf565b61154c91906159cc565b9050600080805b60085481101561160d5760008181526011602052604081205461157690856158a0565b905080851115611588578093506115fa565b8192506115953084610cac565b6115d75760006115a66001856158eb565b90505b60006115b53083610cac565b11156115c3578093506115d5565b806115cd81615932565b9150506115a9565b505b6115f430338560016040518060200160405280600081525061449b565b5061160d565b5080611605816159b1565b915050611553565b506116173361107b565b600b5460408051338152602081019290925281018290527fea32e37a2618dbb680c93d891742e9e13b30d184822562a0ee3c09290fd42b43906060015b60405180910390a1505050565b606081518351146116da5760405162461bcd60e51b815260206004820152602960248201527f455243313135353a206163636f756e747320616e6420696473206c656e67746860448201527f206d69736d6174636800000000000000000000000000000000000000000000006064820152608401610d26565b6000835167ffffffffffffffff8111156116f6576116f6615a38565b60405190808252806020026020018201604052801561171f578160200160208202803683370190505b50905060005b84518110156117975761176a85828151811061174357611743615a22565b602002602001015185838151811061175d5761175d615a22565b6020026020010151610cac565b82828151811061177c5761177c615a22565b6020908102919091010152611790816159b1565b9050611725565b509392505050565b6117a83361402f565b6117fe5760405162461bcd60e51b815260206004820152602160248201527f55736572206973206e6f7420746865204f776e6572206f7220616e2041646d696044820152603760f91b6064820152608401610d26565b60005b8151811015610f3f5760006010600084848151811061182257611822615a22565b6020908102919091018101516001600160a01b03168252810191909152604001600020805460ff19169115159190911790558061185e816159b1565b915050611801565b61186f3361402f565b6118c55760405162461bcd60e51b815260206004820152602160248201527f55736572206973206e6f7420746865204f776e6572206f7220616e2041646d696044820152603760f91b6064820152608401610d26565b6001600160a01b03166000908152601060205260409020805460ff19166001179055565b6118f23361402f565b6119485760405162461bcd60e51b815260206004820152602160248201527f55736572206973206e6f7420746865204f776e6572206f7220616e2041646d696044820152603760f91b6064820152608401610d26565b6000828152601260205260409020805461196190615949565b1590506119b05760405162461bcd60e51b815260206004820152601560248201527f43616e206e6f74207365742075726920747769636500000000000000000000006044820152606401610d26565b6000828152601260209081526040909120825161107692840190614ec9565b6040517f5d3b1d300000000000000000000000000000000000000000000000000000000081527f0000000000000000000000000000000000000000000000000000000000000000600482015267ffffffffffffffff7f00000000000000000000000000000000000000000000000000000000000000001660248201526003604482015263ffffffff7f00000000000000000000000000000000000000000000000000000000000000001660648201526002608482015260009081906001600160a01b037f00000000000000000000000000000000000000000000000000000000000000001690635d3b1d309060a401602060405180830381600087803b158015611ad857600080fd5b505af1158015611aec573d6000803e3d6000fd5b505050506040513d601f19601f82011682018060405250810190610d5291906153d6565b3360009081526015602052604090205460ff16611b6f5760405162461bcd60e51b815260206004820152601c60248201527f5573657220646964206e6f742073656c6c20616e79205469636b6574000000006044820152606401610d26565b603c600e8281548110611b8457611b84615a22565b906000526020600020906007020160020154611ba091906158b8565b42600e8381548110611bb457611bb4615a22565b906000526020600020906007020160050154611bd091906158eb565b11611c435760405162461bcd60e51b815260206004820152602960248201527f4475726174696f6e206f6620746865205469636b6574206973207374696c6c2060448201527f6176616c6961626c6500000000000000000000000000000000000000000000006064820152608401610d26565b600060146000600e8481548110611c5c57611c5c615a22565b60009182526020808320600460079093020191909101546001600160a01b031683528281019390935260409182018120805494151560ff19958616179055338152601483528181208054851660011790556015909252902080549091169055600e80547f5093646a80c0a81f51115fbf5ec8379ecf902ae2ba552c74599cbe844dcb53e3919083908110611cf257611cf2615a22565b600091825260209182902060079091020160040154604080516001600160a01b039092168252339282019290925201610e97565b611d2f3361242e565b15611d3957600080fd5b336001600160a01b0316600e8281548110611d5657611d56615a22565b60009182526020909120600460079092020101546001600160a01b03161415611de75760405162461bcd60e51b815260206004820152602560248201527f596f752063616e206e6f74206275792061207469636b657420746f20796f757260448201527f2073656c660000000000000000000000000000000000000000000000000000006064820152608401610d26565b600e8181548110611dfa57611dfa615a22565b600091825260209091206006600790920201015460ff161515600114611e885760405162461bcd60e51b815260206004820152602160248201527f5469636b6574206973206e6f742063757272656e746c79206176616c6961626c60448201527f65000000000000000000000000000000000000000000000000000000000000006064820152608401610d26565b6000600e8281548110611e9d57611e9d615a22565b6000918252602090912060079091020160040154600554600e80546001600160a01b03938416945092909116916323b872dd91339186908110611ee257611ee2615a22565b906000526020600020906007020160040160009054906101000a90046001600160a01b0316600e8681548110611f1a57611f1a615a22565b60009182526020909120600360079092020101546040516001600160e01b031960e086901b1681526001600160a01b0393841660048201529290911660248301526044820152606401602060405180830381600087803b158015611f7d57600080fd5b505af1158015611f91573d6000803e3d6000fd5b505050506040513d601f19601f82011682018060405250810190611fb59190615343565b5042600e8381548110611fca57611fca615a22565b906000526020600020906007020160050181905550600060146000600e8581548110611ff857611ff8615a22565b60009182526020808320600792909202909101600401546001600160a01b031683528201929092526040018120805460ff191692151592909217909155600e805460139183918690811061204e5761204e615a22565b60009182526020808320600792909202909101600401546001600160a01b031683528201929092526040018120805460ff191692151592909217909155600e80546001926015929091869081106120a7576120a7615a22565b60009182526020808320600792909202909101600401546001600160a01b031683528201929092526040019020805460ff1916911515919091179055600e8054339190849081106120fa576120fa615a22565b60009182526020808320600792909202909101600401805473ffffffffffffffffffffffffffffffffffffffff19166001600160a01b03949094169390931790925533808252601490925260409020805460ff19166001179055600e80547f060f7dd92424d6f1af65d2fe9acba5b63d299cc26cd8eb26403ca371bc9fbfbb92859285928490811061218e5761218e615a22565b9060005260206000209060070201600301546040516121d094939291909384526001600160a01b03928316602085015291166040830152606082015260800190565b60405180910390a15050565b6006546001600160a01b031633146122365760405162461bcd60e51b815260206004820152601560248201527f55736572206973206e6f7420746865206f776e657200000000000000000000006044820152606401610d26565b610fac600082614646565b61224a3361242e565b6122bc5760405162461bcd60e51b815260206004820152603460248201527f55736572206973206e6f74205261636b734d656d62657273206f7220646f657360448201527f206e6f74206f776e732061204d7243727970746f0000000000000000000000006064820152608401610d26565b3360009081526013602052604090205460ff1661232a5760405162461bcd60e51b815260206004820152602660248201527f55736572206973206e6f742063757272656e746c792073656c6c696e67206120604482015265151a58dad95d60d21b6064820152608401610d26565b336001600160a01b0316600e828154811061234757612347615a22565b60009182526020909120600460079092020101546001600160a01b0316146123b15760405162461bcd60e51b815260206004820181905260248201527f55736572206973206e6f74206f776e6572206f662074686973207469636b65746044820152606401610d26565b6000600e82815481106123c6576123c6615a22565b6000918252602080832060066007939093020191909101805493151560ff199485161790553380835260138252604092839020805490941690935590519182527f5dbab6b1e9ddd154d6eb51aa5622fb5278ea62a0b5f81d046a945d899490f6319101610e97565b600480546040516370a0823160e01b81526001600160a01b0384811693820193909352600092839216906370a082319060240160206040518083038186803b15801561247957600080fd5b505afa15801561248d573d6000803e3d6000fd5b505050506040513d601f19601f820116820180604052508101906124b191906153d6565b116124bb57600080fd5b6001600160a01b03821660009081526010602052604090205460ff166124e057600080fd5b506001919050565b60006124f43384610cac565b116125415760405162461bcd60e51b815260206004820152600f60248201527f4974656d206e6f7420666f756e642e00000000000000000000000000000000006044820152606401610d26565b6040805160a08101825283815260098054602083019081529282018481523360608401908152600160808501818152600d80549283018155600090815295517fd7b6990105719101dabeb77144f2a3385c8033acd3af97e9423a695e81ad1eb560049093029283015595517fd7b6990105719101dabeb77144f2a3385c8033acd3af97e9423a695e81ad1eb682015591517fd7b6990105719101dabeb77144f2a3385c8033acd3af97e9423a695e81ad1eb7830155517fd7b6990105719101dabeb77144f2a3385c8033acd3af97e9423a695e81ad1eb8909101805494516001600160a01b039092167fffffffffffffffffffffff00000000000000000000000000000000000000000090951694909417600160a01b91151591909102179092558154919061266f836159b1565b909155505060408051338152602081018490529081018290527f23cba88d6c6f26b62b2cfc32a2cc04fbbde8590188b97cd3590e45af9ac6dd6d906060016121d0565b6126bb3361402f565b6127115760405162461bcd60e51b815260206004820152602160248201527f55736572206973206e6f7420746865204f776e6572206f7220616e2041646d696044820152603760f91b6064820152608401610d26565b60005b8151811015610f3f5760016010600084848151811061273557612735615a22565b6020908102919091018101516001600160a01b03168252810191909152604001600020805460ff191691151591909117905580612771816159b1565b915050612714565b6127823361402f565b6127d85760405162461bcd60e51b815260206004820152602160248201527f55736572206973206e6f7420746865204f776e6572206f7220616e2041646d696044820152603760f91b6064820152608401610d26565b6001600160a01b03166000908152601060205260409020805460ff19169055565b6128023361402f565b6128585760405162461bcd60e51b815260206004820152602160248201527f55736572206973206e6f7420746865204f776e6572206f7220616e2041646d696044820152603760f91b6064820152608401610d26565b600b8190556040518181527f06cd74aabc11982a85b554df4d7833623303656fe69bed4db1b0cb3245feebe390602001610e97565b610f3f338383614650565b336001600160a01b0316600d83815481106128b5576128b5615a22565b60009182526020909120600360049092020101546001600160a01b03161461292b5760405162461bcd60e51b815260206004820152602360248201527f596f7520617265206e6f7420746865206f776e6572206f66207468697320697460448201526232b69760e91b6064820152608401610d26565b6000600d838154811061294057612940615a22565b906000526020600020906004020160020154905081600d848154811061296857612968615a22565b600091825260209182902060026004909202010191909155604080513381529182018590528101829052606081018390527fb141d00f22a670547caacc412e6489d8edaba6a840df558118363ce1a40d6ed290608001611654565b336001600160a01b0316600d82815481106129e0576129e0615a22565b60009182526020909120600360049092020101546001600160a01b031614612a565760405162461bcd60e51b815260206004820152602360248201527f596f7520617265206e6f7420746865206f776e6572206f66207468697320697460448201526232b69760e91b6064820152608401610d26565b612a7330338360016040518060200160405280600081525061449b565b6000600d8281548110612a8857612a88615a22565b60009182526020918290206003600490920201018054921515600160a01b027fffffffffffffffffffffff00ffffffffffffffffffffffffffffffffffffffff90931692909217909155604080513381529182018390527fc9cedcca3d85d6009a562a9e70071f6288adabda9ba7f059589165e75c9cf4049101610e97565b60606000805b600e54811015612bc7576000600e8281548110612b2c57612b2c615a22565b60009182526020918290206040805160e081018252600790930290910180548352600180820154948401949094526002810154918301919091526003810154606083015260048101546001600160a01b03166080830152600581015460a08301526006015460ff16151560c082018190529092501415612bb457612bb16001846158a0565b92505b5080612bbf816159b1565b915050612b0d565b5060008167ffffffffffffffff811115612be357612be3615a38565b604051908082528060200260200182016040528015612c5f57816020015b612c4c6040518060e001604052806000815260200160008152602001600081526020016000815260200160006001600160a01b03168152602001600081526020016000151581525090565b815260200190600190039081612c015790505b5090506000805b600e54811015612d3f576000600e8281548110612c8557612c85615a22565b60009182526020918290206040805160e081018252600790930290910180548352600180820154948401949094526002810154918301919091526003810154606083015260048101546001600160a01b03166080830152600581015460a08301526006015460ff16151560c082018190529092501415612d2c5780848481518110612d1257612d12615a22565b60200260200101819052508280612d28906159b1565b9350505b5080612d37816159b1565b915050612c66565b50909392505050565b612d513361242e565b612dc35760405162461bcd60e51b815260206004820152603460248201527f55736572206973206e6f74205261636b734d656d62657273206f7220646f657360448201527f206e6f74206f776e732061204d7243727970746f0000000000000000000000006064820152608401610d26565b3360009081526013602052604090205460ff1615612e495760405162461bcd60e51b815260206004820152602a60248201527f5573657220697320616c72656164792063757272656e746c792073656c6c696e60448201527f672061205469636b6574000000000000000000000000000000000000000000006064820152608401610d26565b3360009081526014602052604090205460ff16612ea85760405162461bcd60e51b815260206004820152601960248201527f5573657220686173207469636b6574206176616c6961626c65000000000000006044820152606401610d26565b6040805160e081018252600a8054825260208201868152928201858152606083018581523360808501908152600060a08601818152600160c08801818152600e80549283018155845297517fbb7b4a454dc3493923482f07822329ed19e8244eff582cc204f8554c3620c3fd60079092029182015597517fbb7b4a454dc3493923482f07822329ed19e8244eff582cc204f8554c3620c3fe89015593517fbb7b4a454dc3493923482f07822329ed19e8244eff582cc204f8554c3620c3ff88015591517fbb7b4a454dc3493923482f07822329ed19e8244eff582cc204f8554c3620c400870155517fbb7b4a454dc3493923482f07822329ed19e8244eff582cc204f8554c3620c4018601805473ffffffffffffffffffffffffffffffffffffffff19166001600160a01b0390921691909117905590517fbb7b4a454dc3493923482f07822329ed19e8244eff582cc204f8554c3620c40285015591517fbb7b4a454dc3493923482f07822329ed19e8244eff582cc204f8554c3620c403909301805460ff19169315159390931790925581549190613046836159b1565b909155505033600081815260136020908152604091829020805460ff19166001179055815192835282018590528101839052606081018290527f07814713aba2e13eb5f2470225f7395d33fad1452b70f8427dae73e4d3a5934490608001611654565b60606000805b600d54811015613159576000600d82815481106130ce576130ce615a22565b60009182526020918290206040805160a08101825260049093029091018054835260018082015494840194909452600281015491830191909152600301546001600160a01b038116606083015260ff600160a01b909104161515608082018190529092501415613146576131436001846158a0565b92505b5080613151816159b1565b9150506130af565b5060008167ffffffffffffffff81111561317557613175615a38565b6040519080825280602002602001820160405280156131e357816020015b6131d06040518060a0016040528060008152602001600081526020016000815260200160006001600160a01b031681526020016000151581525090565b8152602001906001900390816131935790505b5090506000805b600d54811015612d3f576000600d828154811061320957613209615a22565b60009182526020918290206040805160a08101825260049093029091018054835260018082015494840194909452600281015491830191909152600301546001600160a01b038116606083015260ff600160a01b9091041615156080820181905290925014156132a0578084848151811061328657613286615a22565b6020026020010181905250828061329c906159b1565b9350505b50806132ab816159b1565b9150506131ea565b6006546001600160a01b0316331461330d5760405162461bcd60e51b815260206004820152601560248201527f55736572206973206e6f7420746865206f776e657200000000000000000000006044820152606401610d26565b6005546040516370a0823160e01b81523060048201526000916001600160a01b0316906370a082319060240160206040518083038186803b15801561335157600080fd5b505afa158015613365573d6000803e3d6000fd5b505050506040513d601f19601f8201168201806040525081019061338991906153d6565b116133d65760405162461bcd60e51b815260206004820152601460248201527f4e6f2066756e647320746f2077697468647261770000000000000000000000006044820152606401610d26565b60055460405163a9059cbb60e01b81526001600160a01b038481166004830152602482018490529091169063a9059cbb90604401602060405180830381600087803b15801561342457600080fd5b505af1158015613438573d6000803e3d6000fd5b505050506040513d601f19601f820116820180604052508101906110769190615343565b6134996040518060a0016040528060008152602001600081526020016000815260200160006001600160a01b031681526020016000151581525090565b600d82815481106134ac576134ac615a22565b60009182526020918290206040805160a0810182526004909302909101805483526001810154938301939093526002830154908201526003909101546001600160a01b038116606083015260ff600160a01b909104161515608082015292915050565b600061351a82614745565b61352357600080fd5b60008281526011602052604081205460075461353f91906158b8565b9392505050565b6000828152600360205260409020600101546135618161436c565b6110768383614418565b6135b66040518060e001604052806000815260200160008152602001600081526020016000815260200160006001600160a01b03168152602001600081526020016000151581525090565b600e82815481106135c9576135c9615a22565b60009182526020918290206040805160e0810182526007909302909101805483526001810154938301939093526002830154908201526003820154606082015260048201546001600160a01b03166080820152600582015460a082015260069091015460ff16151560c082015292915050565b6136453361402f565b61369b5760405162461bcd60e51b815260206004820152602160248201527f55736572206973206e6f7420746865204f776e6572206f7220616e2041646d696044820152603760f91b6064820152608401610d26565b6000600c54610100900460ff1660018111156136b9576136b9615a0c565b14156136d057600c805461ff001916610100179055565b600c805461ff0019169055565b600d81815481106136f0576136f0615a22565b60009182526020909120600490910201600301546001600160a01b03163314156137825760405162461bcd60e51b815260206004820152602360248201527f596f752063616e206e6f742062757920616e206974656d20746f20796f75727360448201527f656c6600000000000000000000000000000000000000000000000000000000006064820152608401610d26565b600d818154811061379557613795615a22565b906000526020600020906004020160030160149054906101000a900460ff161515600115151461382d5760405162461bcd60e51b815260206004820152602160248201527f54686973206974656d206973206e6f74206f6e2073616c6520616e796d6f726560448201527f2e000000000000000000000000000000000000000000000000000000000000006064820152608401610d26565b600554600d80546001600160a01b03909216916323b872dd9133918590811061385857613858615a22565b906000526020600020906004020160030160009054906101000a90046001600160a01b0316600d858154811061389057613890615a22565b9060005260206000209060040201600201546040518463ffffffff1660e01b81526004016138df939291906001600160a01b039384168152919092166020820152604081019190915260600190565b602060405180830381600087803b1580156138f957600080fd5b505af115801561390d573d6000803e3d6000fd5b505050506040513d601f19601f820116820180604052508101906139319190615343565b506139aa600d828154811061394857613948615a22565b906000526020600020906004020160030160009054906101000a90046001600160a01b031633600d848154811061398157613981615a22565b90600052602060002090600402016000015460016040518060200160405280600081525061449b565b6000600d82815481106139bf576139bf615a22565b906000526020600020906004020160030160009054906101000a90046001600160a01b0316905033600d83815481106139fa576139fa615a22565b906000526020600020906004020160030160006101000a8154816001600160a01b0302191690836001600160a01b031602179055506000600d8381548110613a4457613a44615a22565b906000526020600020906004020160030160146101000a81548160ff0219169083151502179055507f642067ff529c9b5b1162502fc8e8a3a91dda56e126a84f2fe38d341236231a82338284600d8681548110613aa357613aa3615a22565b600091825260209182902060026004909202010154604080516001600160a01b03968716815295909416918501919091529183015260608201526080016121d0565b613aee3361242e565b613b605760405162461bcd60e51b815260206004820152603460248201527f55736572206973206e6f74205261636b734d656d62657273206f7220646f657360448201527f206e6f74206f776e732061204d7243727970746f0000000000000000000000006064820152608401610d26565b3360009081526013602052604090205460ff16613bce5760405162461bcd60e51b815260206004820152602660248201527f55736572206973206e6f742063757272656e746c792073656c6c696e67206120604482015265151a58dad95d60d21b6064820152608401610d26565b336001600160a01b0316600e8481548110613beb57613beb615a22565b60009182526020909120600460079092020101546001600160a01b031614613c555760405162461bcd60e51b815260206004820181905260248201527f55736572206973206e6f74206f776e6572206f662074686973207469636b65746044820152606401610d26565b80600e8481548110613c6957613c69615a22565b90600052602060002090600702016003018190555081600e8481548110613c9257613c92615a22565b6000918252602091829020600160079092020101919091556040805133815291820184905281018290527f4dfa55e7e1af9cb25343bfcd39c4bcb1f066d75ebe9b67988cf1496f06dedfef90606001611654565b6001600160a01b038516331480613d025750613d028533610bdc565b613d745760405162461bcd60e51b815260206004820152602960248201527f455243313135353a2063616c6c6572206973206e6f74206f776e6572206e6f7260448201527f20617070726f76656400000000000000000000000000000000000000000000006064820152608401610d26565b61104a858585858561449b565b6060600060085467ffffffffffffffff811115613da057613da0615a38565b604051908082528060200260200182016040528015613dc9578160200160208202803683370190505b50905060005b8151811015613e1157613de28482610cac565b828281518110613df457613df4615a22565b602090810291909101015280613e09816159b1565b915050613dcf565b5092915050565b60006001600160e01b031982167f7965db0b000000000000000000000000000000000000000000000000000000001480610d525750610d528261475d565b6001600160a01b038316613ed25760405162461bcd60e51b815260206004820152602360248201527f455243313135353a206275726e2066726f6d20746865207a65726f206164647260448201527f65737300000000000000000000000000000000000000000000000000000000006064820152608401610d26565b336000613ede8461479b565b90506000613eeb8461479b565b60408051602080820183526000918290528882528181528282206001600160a01b038b1683529052205490915084811015613f8d5760405162461bcd60e51b8152602060048201526024808201527f455243313135353a206275726e20616d6f756e7420657863656564732062616c60448201527f616e6365000000000000000000000000000000000000000000000000000000006064820152608401610d26565b6000868152602081815260408083206001600160a01b038b81168086529184528285208a8703905582518b81529384018a90529092908816917fc3d58168c5ae7397731d063d5bbf3d657854427343f4c083240f7aacaa2d0f62910160405180910390a46040805160208101909152600090525b50505050505050565b8060008151811061401d5761401d615a22565b6020026020010151600f819055505050565b6006546000906001600160a01b038381169116148061408557506001600160a01b03821660009081527f3617319a054d772f909f7c479a2cebe5066e836a939412e32403c99029b92eff602052604090205460ff165b6124e057600080fd5b6140ab8260085483604051806020016040528060008152506147e6565b6140c46008548260009182526011602052604090912055565b80600760008282546140d691906158a0565b925050819055506001600860008282546140f091906158a0565b90915550505050565b81518351146141705760405162461bcd60e51b815260206004820152602860248201527f455243313135353a2069647320616e6420616d6f756e7473206c656e6774682060448201527f6d69736d617463680000000000000000000000000000000000000000000000006064820152608401610d26565b6001600160a01b0384166141d45760405162461bcd60e51b815260206004820152602560248201527f455243313135353a207472616e7366657220746f20746865207a65726f206164604482015264647265737360d81b6064820152608401610d26565b3360005b84518110156142fe5760008582815181106141f5576141f5615a22565b60200260200101519050600085838151811061421357614213615a22565b602090810291909101810151600084815280835260408082206001600160a01b038e1683529093529190912054909150818110156142a65760405162461bcd60e51b815260206004820152602a60248201527f455243313135353a20696e73756666696369656e742062616c616e636520666f60448201526939103a3930b739b332b960b11b6064820152608401610d26565b6000838152602081815260408083206001600160a01b038e8116855292528083208585039055908b168252812080548492906142e39084906158a0565b92505081905550505050806142f7906159b1565b90506141d8565b50846001600160a01b0316866001600160a01b0316826001600160a01b03167f4a39dc06d4c0dbc64b70af90fd698a233a518aa5d07e595d983b8c0526c8f7fb878760405161434e929190615777565b60405180910390a461436481878787878761490d565b505050505050565b610fac8133614ac2565b60008281526003602090815260408083206001600160a01b038516845290915290205460ff16610f3f5760008281526003602090815260408083206001600160a01b03851684529091529020805460ff191660011790556143d43390565b6001600160a01b0316816001600160a01b0316837f2f8788117e7eff1d82e926ec794901d17c78024a50270940304540a733656f0d60405160405180910390a45050565b60008281526003602090815260408083206001600160a01b038516845290915290205460ff1615610f3f5760008281526003602090815260408083206001600160a01b0385168085529252808320805460ff1916905551339285917ff6391f5c32d9c69d2a47ea670b442974b53935d1edc7fd64eb21e047a839171b9190a45050565b6001600160a01b0384166144ff5760405162461bcd60e51b815260206004820152602560248201527f455243313135353a207472616e7366657220746f20746865207a65726f206164604482015264647265737360d81b6064820152608401610d26565b33600061450b8561479b565b905060006145188561479b565b90506000868152602081815260408083206001600160a01b038c1684529091529020548581101561459e5760405162461bcd60e51b815260206004820152602a60248201527f455243313135353a20696e73756666696369656e742062616c616e636520666f60448201526939103a3930b739b332b960b11b6064820152608401610d26565b6000878152602081815260408083206001600160a01b038d8116855292528083208985039055908a168252812080548892906145db9084906158a0565b909155505060408051888152602081018890526001600160a01b03808b16928c821692918816917fc3d58168c5ae7397731d063d5bbf3d657854427343f4c083240f7aacaa2d0f62910160405180910390a461463b848a8a8a8a8a614b42565b505050505050505050565b610f3f8282614376565b816001600160a01b0316836001600160a01b031614156146d85760405162461bcd60e51b815260206004820152602960248201527f455243313135353a2073657474696e6720617070726f76616c2073746174757360448201527f20666f722073656c6600000000000000000000000000000000000000000000006064820152608401610d26565b6001600160a01b03838116600081815260016020908152604080832094871680845294825291829020805460ff191686151590811790915591519182527f17307eab39ab6107e8899845ad3d59bd9653f200f220920489ca2b5937696c31910160405180910390a3505050565b6000818152601160205260408120546124e057600080fd5b60006001600160e01b031982167f4e2312e0000000000000000000000000000000000000000000000000000000001480610d525750610d5282614c4d565b604080516001808252818301909252606091600091906020808301908036833701905050905082816000815181106147d5576147d5615a22565b602090810291909101015292915050565b6001600160a01b0384166148625760405162461bcd60e51b815260206004820152602160248201527f455243313135353a206d696e7420746f20746865207a65726f2061646472657360448201527f73000000000000000000000000000000000000000000000000000000000000006064820152608401610d26565b33600061486e8561479b565b9050600061487b8561479b565b90506000868152602081815260408083206001600160a01b038b168452909152812080548792906148ad9084906158a0565b909155505060408051878152602081018790526001600160a01b03808a1692600092918716917fc3d58168c5ae7397731d063d5bbf3d657854427343f4c083240f7aacaa2d0f62910160405180910390a461400183600089898989614b42565b6001600160a01b0384163b156143645760405163bc197c8160e01b81526001600160a01b0385169063bc197c819061495190899089908890889088906004016155b3565b602060405180830381600087803b15801561496b57600080fd5b505af192505050801561499b575060408051601f3d908101601f19168201909252614998918101906153b9565b60015b614a51576149a7615a4e565b806308c379a014156149e157506149bc615a6a565b806149c757506149e3565b8060405162461bcd60e51b8152600401610d2691906157cd565b505b60405162461bcd60e51b815260206004820152603460248201527f455243313135353a207472616e7366657220746f206e6f6e204552433131353560448201527f526563656976657220696d706c656d656e7465720000000000000000000000006064820152608401610d26565b6001600160e01b0319811663bc197c8160e01b146140015760405162461bcd60e51b815260206004820152602860248201527f455243313135353a204552433131353552656365697665722072656a656374656044820152676420746f6b656e7360c01b6064820152608401610d26565b60008281526003602090815260408083206001600160a01b038516845290915290205460ff16610f3f57614b00816001600160a01b03166014614ce8565b614b0b836020614ce8565b604051602001614b1c929190615532565b60408051601f198184030181529082905262461bcd60e51b8252610d26916004016157cd565b6001600160a01b0384163b156143645760405163f23a6e6160e01b81526001600160a01b0385169063f23a6e6190614b869089908990889088908890600401615611565b602060405180830381600087803b158015614ba057600080fd5b505af1925050508015614bd0575060408051601f3d908101601f19168201909252614bcd918101906153b9565b60015b614bdc576149a7615a4e565b6001600160e01b0319811663f23a6e6160e01b146140015760405162461bcd60e51b815260206004820152602860248201527f455243313135353a204552433131353552656365697665722072656a656374656044820152676420746f6b656e7360c01b6064820152608401610d26565b60006001600160e01b031982167fd9b67a26000000000000000000000000000000000000000000000000000000001480614cb057506001600160e01b031982167f0e89341c00000000000000000000000000000000000000000000000000000000145b80610d5257507f01ffc9a7000000000000000000000000000000000000000000000000000000006001600160e01b0319831614610d52565b60606000614cf78360026158cc565b614d029060026158a0565b67ffffffffffffffff811115614d1a57614d1a615a38565b6040519080825280601f01601f191660200182016040528015614d44576020820181803683370190505b5090507f300000000000000000000000000000000000000000000000000000000000000081600081518110614d7b57614d7b615a22565b60200101906001600160f81b031916908160001a9053507f780000000000000000000000000000000000000000000000000000000000000081600181518110614dc657614dc6615a22565b60200101906001600160f81b031916908160001a9053506000614dea8460026158cc565b614df59060016158a0565b90505b6001811115614e7a577f303132333435363738396162636465660000000000000000000000000000000085600f1660108110614e3657614e36615a22565b1a60f81b828281518110614e4c57614e4c615a22565b60200101906001600160f81b031916908160001a90535060049490941c93614e7381615932565b9050614df8565b50831561353f5760405162461bcd60e51b815260206004820181905260248201527f537472696e67733a20686578206c656e67746820696e73756666696369656e746044820152606401610d26565b828054614ed590615949565b90600052602060002090601f016020900481019282614ef75760008555614f3d565b82601f10614f1057805160ff1916838001178555614f3d565b82800160010185558215614f3d579182015b82811115614f3d578251825591602001919060010190614f22565b50614f49929150614f4d565b5090565b5b80821115614f495760008155600101614f4e565b600067ffffffffffffffff831115614f7c57614f7c615a38565b604051614f93601f8501601f191660200182615984565b809150838152848484011115614fa857600080fd5b83836020830137600060208583010152509392505050565b80356001600160a01b0381168114614fd757600080fd5b919050565b600082601f830112614fed57600080fd5b81356020614ffa8261587c565b6040516150078282615984565b8381528281019150858301600585901b8701840188101561502757600080fd5b60005b8581101561504d5761503b82614fc0565b8452928401929084019060010161502a565b5090979650505050505050565b600082601f83011261506b57600080fd5b813560206150788261587c565b6040516150858282615984565b8381528281019150858301600585901b870184018810156150a557600080fd5b60005b8581101561504d578135845292840192908401906001016150a8565b600082601f8301126150d557600080fd5b61353f83833560208501614f62565b6000602082840312156150f657600080fd5b61353f82614fc0565b6000806040838503121561511257600080fd5b61511b83614fc0565b915061512960208401614fc0565b90509250929050565b600080600080600060a0868803121561514a57600080fd5b61515386614fc0565b945061516160208701614fc0565b9350604086013567ffffffffffffffff8082111561517e57600080fd5b61518a89838a0161505a565b945060608801359150808211156151a057600080fd5b6151ac89838a0161505a565b935060808801359150808211156151c257600080fd5b506151cf888289016150c4565b9150509295509295909350565b600080600080600060a086880312156151f457600080fd5b6151fd86614fc0565b945061520b60208701614fc0565b93506040860135925060608601359150608086013567ffffffffffffffff81111561523557600080fd5b6151cf888289016150c4565b6000806040838503121561525457600080fd5b61525d83614fc0565b9150602083013561526d81615af4565b809150509250929050565b6000806040838503121561528b57600080fd5b61529483614fc0565b946020939093013593505050565b6000602082840312156152b457600080fd5b813567ffffffffffffffff8111156152cb57600080fd5b6152d784828501614fdc565b949350505050565b600080604083850312156152f257600080fd5b823567ffffffffffffffff8082111561530a57600080fd5b61531686838701614fdc565b9350602085013591508082111561532c57600080fd5b506153398582860161505a565b9150509250929050565b60006020828403121561535557600080fd5b815161353f81615af4565b60006020828403121561537257600080fd5b5035919050565b6000806040838503121561538c57600080fd5b8235915061512960208401614fc0565b6000602082840312156153ae57600080fd5b813561353f81615b02565b6000602082840312156153cb57600080fd5b815161353f81615b02565b6000602082840312156153e857600080fd5b5051919050565b6000806040838503121561540257600080fd5b82359150602083013567ffffffffffffffff81111561542057600080fd5b6153398582860161505a565b6000806040838503121561543f57600080fd5b82359150602083013567ffffffffffffffff81111561545d57600080fd5b8301601f8101851361546e57600080fd5b61533985823560208401614f62565b6000806040838503121561549057600080fd5b50508035926020909101359150565b6000806000606084860312156154b457600080fd5b505081359360208301359350604090920135919050565b600081518084526020808501945080840160005b838110156154fb578151875295820195908201906001016154df565b509495945050505050565b6000815180845261551e816020860160208601615902565b601f01601f19169290920160200192915050565b7f416363657373436f6e74726f6c3a206163636f756e742000000000000000000081526000835161556a816017850160208801615902565b7f206973206d697373696e6720726f6c652000000000000000000000000000000060179184019182015283516155a7816028840160208801615902565b01602801949350505050565b60006001600160a01b03808816835280871660208401525060a060408301526155df60a08301866154cb565b82810360608401526155f181866154cb565b905082810360808401526156058185615506565b98975050505050505050565b60006001600160a01b03808816835280871660208401525084604083015283606083015260a0608083015261564960a0830184615506565b979650505050505050565b6020808252825182820181905260009190848201906040850190845b818110156156e0576156cd838551805182526020810151602083015260408101516040830152606081015160608301526001600160a01b03608082015116608083015260a081015160a083015260c0810151151560c08301525050565b9284019260e09290920191600101615670565b50909695505050505050565b6020808252825182820181905260009190848201906040850190845b818110156156e0576157518385518051825260208101516020830152604081015160408301526001600160a01b0360608201511660608301526080810151151560808301525050565b9284019260a09290920191600101615708565b60208152600061353f60208301846154cb565b60408152600061578a60408301856154cb565b828103602084015261579c81856154cb565b95945050505050565b60208101600283106157c757634e487b7160e01b600052602160045260246000fd5b91905290565b60208152600061353f6020830184615506565b60e08101610d528284805182526020810151602083015260408101516040830152606081015160608301526001600160a01b03608082015116608083015260a081015160a083015260c0810151151560c08301525050565b60a08101610d5282848051825260208101516020830152604081015160408301526001600160a01b0360608201511660608301526080810151151560808301525050565b600067ffffffffffffffff82111561589657615896615a38565b5060051b60200190565b600082198211156158b3576158b36159e0565b500190565b6000826158c7576158c76159f6565b500490565b60008160001904831182151516156158e6576158e66159e0565b500290565b6000828210156158fd576158fd6159e0565b500390565b60005b8381101561591d578181015183820152602001615905565b8381111561592c576000848401525b50505050565b600081615941576159416159e0565b506000190190565b600181811c9082168061595d57607f821691505b6020821081141561597e57634e487b7160e01b600052602260045260246000fd5b50919050565b601f8201601f1916810167ffffffffffffffff811182821017156159aa576159aa615a38565b6040525050565b60006000198214156159c5576159c56159e0565b5060010190565b6000826159db576159db6159f6565b500690565b634e487b7160e01b600052601160045260246000fd5b634e487b7160e01b600052601260045260246000fd5b634e487b7160e01b600052602160045260246000fd5b634e487b7160e01b600052603260045260246000fd5b634e487b7160e01b600052604160045260246000fd5b600060033d1115615a675760046000803e5060005160e01c5b90565b600060443d1015615a785790565b6040516003193d81016004833e81513d67ffffffffffffffff8160248401118184111715615aa857505050505090565b8285019150815181811115615ac05750505050505090565b843d8701016020828501011115615ada5750505050505090565b615ae960208286010187615984565b509095945050505050565b8015158114610fac57600080fd5b6001600160e01b031981168114610fac57600080fdfea264697066735822122090cc93886945ddc419e74c6a4e60305eb6a7c62371026dab45253087d6bc53bc64736f6c63430008070033",
  "linkReferences": {},
  "deployedLinkReferences": {}
}