{
  "_format": "hh-sol-artifact-1",
  "contractName": "RacksItemsv3",
  "sourceName": "contracts/RacksItemsv3.sol",
  "abi": [
    {
      "inputs": [
        {
          "internalType": "address",
          "name": "vrfCoordinatorV2",
          "type": "address"
        },
        {
          "internalType": "bytes32",
          "name": "gasLane",
          "type": "bytes32"
        },
        {
          "internalType": "uint64",
          "name": "subscriptionId",
          "type": "uint64"
        },
        {
          "internalType": "uint32",
          "name": "callbackGasLimit",
          "type": "uint32"
        },
        {
          "internalType": "address",
          "name": "_racksTokenAddress",
          "type": "address"
        }
      ],
      "stateMutability": "nonpayable",
      "type": "constructor"
    },
    {
      "inputs": [
        {
          "internalType": "address",
          "name": "have",
          "type": "address"
        },
        {
          "internalType": "address",
          "name": "want",
          "type": "address"
        }
      ],
      "name": "OnlyCoordinatorCanFulfill",
      "type": "error"
    },
    {
      "anonymous": false,
      "inputs": [
        {
          "indexed": true,
          "internalType": "address",
          "name": "account",
          "type": "address"
        },
        {
          "indexed": true,
          "internalType": "address",
          "name": "operator",
          "type": "address"
        },
        {
          "indexed": false,
          "internalType": "bool",
          "name": "approved",
          "type": "bool"
        }
      ],
      "name": "ApprovalForAll",
      "type": "event"
    },
    {
      "anonymous": false,
      "inputs": [
        {
          "indexed": false,
          "internalType": "address",
          "name": "user",
          "type": "address"
        },
        {
          "indexed": false,
          "internalType": "uint256",
          "name": "casePrice",
          "type": "uint256"
        },
        {
          "indexed": false,
          "internalType": "uint256",
          "name": "item",
          "type": "uint256"
        }
      ],
      "name": "CaseOpened",
      "type": "event"
    },
    {
      "anonymous": false,
      "inputs": [
        {
          "indexed": true,
          "internalType": "bytes32",
          "name": "role",
          "type": "bytes32"
        },
        {
          "indexed": true,
          "internalType": "bytes32",
          "name": "previousAdminRole",
          "type": "bytes32"
        },
        {
          "indexed": true,
          "internalType": "bytes32",
          "name": "newAdminRole",
          "type": "bytes32"
        }
      ],
      "name": "RoleAdminChanged",
      "type": "event"
    },
    {
      "anonymous": false,
      "inputs": [
        {
          "indexed": true,
          "internalType": "bytes32",
          "name": "role",
          "type": "bytes32"
        },
        {
          "indexed": true,
          "internalType": "address",
          "name": "account",
          "type": "address"
        },
        {
          "indexed": true,
          "internalType": "address",
          "name": "sender",
          "type": "address"
        }
      ],
      "name": "RoleGranted",
      "type": "event"
    },
    {
      "anonymous": false,
      "inputs": [
        {
          "indexed": true,
          "internalType": "bytes32",
          "name": "role",
          "type": "bytes32"
        },
        {
          "indexed": true,
          "internalType": "address",
          "name": "account",
          "type": "address"
        },
        {
          "indexed": true,
          "internalType": "address",
          "name": "sender",
          "type": "address"
        }
      ],
      "name": "RoleRevoked",
      "type": "event"
    },
    {
      "anonymous": false,
      "inputs": [
        {
          "indexed": true,
          "internalType": "address",
          "name": "operator",
          "type": "address"
        },
        {
          "indexed": true,
          "internalType": "address",
          "name": "from",
          "type": "address"
        },
        {
          "indexed": true,
          "internalType": "address",
          "name": "to",
          "type": "address"
        },
        {
          "indexed": false,
          "internalType": "uint256[]",
          "name": "ids",
          "type": "uint256[]"
        },
        {
          "indexed": false,
          "internalType": "uint256[]",
          "name": "values",
          "type": "uint256[]"
        }
      ],
      "name": "TransferBatch",
      "type": "event"
    },
    {
      "anonymous": false,
      "inputs": [
        {
          "indexed": true,
          "internalType": "address",
          "name": "operator",
          "type": "address"
        },
        {
          "indexed": true,
          "internalType": "address",
          "name": "from",
          "type": "address"
        },
        {
          "indexed": true,
          "internalType": "address",
          "name": "to",
          "type": "address"
        },
        {
          "indexed": false,
          "internalType": "uint256",
          "name": "id",
          "type": "uint256"
        },
        {
          "indexed": false,
          "internalType": "uint256",
          "name": "value",
          "type": "uint256"
        }
      ],
      "name": "TransferSingle",
      "type": "event"
    },
    {
      "anonymous": false,
      "inputs": [
        {
          "indexed": false,
          "internalType": "string",
          "name": "value",
          "type": "string"
        },
        {
          "indexed": true,
          "internalType": "uint256",
          "name": "id",
          "type": "uint256"
        }
      ],
      "name": "URI",
      "type": "event"
    },
    {
      "anonymous": false,
      "inputs": [
        {
          "indexed": false,
          "internalType": "uint256",
          "name": "newPrice",
          "type": "uint256"
        }
      ],
      "name": "casePriceChanged",
      "type": "event"
    },
    {
      "anonymous": false,
      "inputs": [
        {
          "indexed": false,
          "internalType": "address",
          "name": "buyer",
          "type": "address"
        },
        {
          "indexed": false,
          "internalType": "address",
          "name": "seller",
          "type": "address"
        },
        {
          "indexed": false,
          "internalType": "uint256",
          "name": "marketItemId",
          "type": "uint256"
        },
        {
          "indexed": false,
          "internalType": "uint256",
          "name": "price",
          "type": "uint256"
        }
      ],
      "name": "itemBought",
      "type": "event"
    },
    {
      "anonymous": false,
      "inputs": [
        {
          "indexed": false,
          "internalType": "address",
          "name": "user",
          "type": "address"
        },
        {
          "indexed": false,
          "internalType": "uint256",
          "name": "tokenId",
          "type": "uint256"
        }
      ],
      "name": "itemExchanged",
      "type": "event"
    },
    {
      "anonymous": false,
      "inputs": [
        {
          "indexed": false,
          "internalType": "address",
          "name": "owner",
          "type": "address"
        },
        {
          "indexed": false,
          "internalType": "uint256",
          "name": "marketItemId",
          "type": "uint256"
        },
        {
          "indexed": false,
          "internalType": "uint256",
          "name": "oldPrice",
          "type": "uint256"
        },
        {
          "indexed": false,
          "internalType": "uint256",
          "name": "newPrice",
          "type": "uint256"
        }
      ],
      "name": "itemPriceChanged",
      "type": "event"
    },
    {
      "anonymous": false,
      "inputs": [
        {
          "indexed": false,
          "internalType": "address",
          "name": "seller",
          "type": "address"
        },
        {
          "indexed": false,
          "internalType": "uint256",
          "name": "numTries",
          "type": "uint256"
        },
        {
          "indexed": false,
          "internalType": "uint256",
          "name": "_hours",
          "type": "uint256"
        },
        {
          "indexed": false,
          "internalType": "uint256",
          "name": "price",
          "type": "uint256"
        }
      ],
      "name": "newTicketOnSale",
      "type": "event"
    },
    {
      "anonymous": false,
      "inputs": [
        {
          "indexed": false,
          "internalType": "address",
          "name": "user",
          "type": "address"
        },
        {
          "indexed": false,
          "internalType": "uint256",
          "name": "tokenId",
          "type": "uint256"
        },
        {
          "indexed": false,
          "internalType": "uint256",
          "name": "price",
          "type": "uint256"
        }
      ],
      "name": "sellingItem",
      "type": "event"
    },
    {
      "anonymous": false,
      "inputs": [
        {
          "indexed": false,
          "internalType": "uint256",
          "name": "ticketId",
          "type": "uint256"
        },
        {
          "indexed": false,
          "internalType": "address",
          "name": "oldOwner",
          "type": "address"
        },
        {
          "indexed": false,
          "internalType": "address",
          "name": "newOwner",
          "type": "address"
        },
        {
          "indexed": false,
          "internalType": "uint256",
          "name": "price",
          "type": "uint256"
        }
      ],
      "name": "ticketBought",
      "type": "event"
    },
    {
      "anonymous": false,
      "inputs": [
        {
          "indexed": false,
          "internalType": "address",
          "name": "borrower",
          "type": "address"
        },
        {
          "indexed": false,
          "internalType": "address",
          "name": "realOwner",
          "type": "address"
        }
      ],
      "name": "ticketClaimedBack",
      "type": "event"
    },
    {
      "anonymous": false,
      "inputs": [
        {
          "indexed": false,
          "internalType": "address",
          "name": "owner",
          "type": "address"
        },
        {
          "indexed": false,
          "internalType": "uint256",
          "name": "newTries",
          "type": "uint256"
        },
        {
          "indexed": false,
          "internalType": "uint256",
          "name": "newPrice",
          "type": "uint256"
        }
      ],
      "name": "ticketPriceChanged",
      "type": "event"
    },
    {
      "anonymous": false,
      "inputs": [
        {
          "indexed": false,
          "internalType": "address",
          "name": "owner",
          "type": "address"
        }
      ],
      "name": "unListTicketOnSale",
      "type": "event"
    },
    {
      "anonymous": false,
      "inputs": [
        {
          "indexed": false,
          "internalType": "address",
          "name": "owner",
          "type": "address"
        },
        {
          "indexed": false,
          "internalType": "uint256",
          "name": "marketItemId",
          "type": "uint256"
        }
      ],
      "name": "unListedItem",
      "type": "event"
    },
    {
      "inputs": [],
      "name": "ADMIN_ROLE",
      "outputs": [
        {
          "internalType": "bytes32",
          "name": "",
          "type": "bytes32"
        }
      ],
      "stateMutability": "view",
      "type": "function"
    },
    {
      "inputs": [],
      "name": "DEFAULT_ADMIN_ROLE",
      "outputs": [
        {
          "internalType": "bytes32",
          "name": "",
          "type": "bytes32"
        }
      ],
      "stateMutability": "view",
      "type": "function"
    },
    {
      "inputs": [],
      "name": "NUM_WORDS",
      "outputs": [
        {
          "internalType": "uint32",
          "name": "",
          "type": "uint32"
        }
      ],
      "stateMutability": "view",
      "type": "function"
    },
    {
      "inputs": [],
      "name": "REQUEST_CONFIRMATIONS",
      "outputs": [
        {
          "internalType": "uint16",
          "name": "",
          "type": "uint16"
        }
      ],
      "stateMutability": "view",
      "type": "function"
    },
    {
      "inputs": [],
      "name": "_randomNumber",
      "outputs": [
        {
          "internalType": "uint256",
          "name": "",
          "type": "uint256"
        }
      ],
      "stateMutability": "nonpayable",
      "type": "function"
    },
    {
      "inputs": [
        {
          "internalType": "uint256",
          "name": "tokenId",
          "type": "uint256"
        }
      ],
      "name": "_rarityOfItem",
      "outputs": [
        {
          "internalType": "uint256",
          "name": "",
          "type": "uint256"
        }
      ],
      "stateMutability": "view",
      "type": "function"
    },
    {
      "inputs": [
        {
          "internalType": "address",
          "name": "account",
          "type": "address"
        },
        {
          "internalType": "uint256",
          "name": "id",
          "type": "uint256"
        }
      ],
      "name": "balanceOf",
      "outputs": [
        {
          "internalType": "uint256",
          "name": "",
          "type": "uint256"
        }
      ],
      "stateMutability": "view",
      "type": "function"
    },
    {
      "inputs": [
        {
          "internalType": "address[]",
          "name": "accounts",
          "type": "address[]"
        },
        {
          "internalType": "uint256[]",
          "name": "ids",
          "type": "uint256[]"
        }
      ],
      "name": "balanceOfBatch",
      "outputs": [
        {
          "internalType": "uint256[]",
          "name": "",
          "type": "uint256[]"
        }
      ],
      "stateMutability": "view",
      "type": "function"
    },
    {
      "inputs": [
        {
          "internalType": "uint256",
          "name": "marketItemId",
          "type": "uint256"
        }
      ],
      "name": "buyItem",
      "outputs": [],
      "stateMutability": "nonpayable",
      "type": "function"
    },
    {
      "inputs": [
        {
          "internalType": "uint256",
          "name": "ticketId",
          "type": "uint256"
        }
      ],
      "name": "buyTicket",
      "outputs": [],
      "stateMutability": "nonpayable",
      "type": "function"
    },
    {
      "inputs": [],
      "name": "casePrice",
      "outputs": [
        {
          "internalType": "uint256",
          "name": "",
          "type": "uint256"
        }
      ],
      "stateMutability": "view",
      "type": "function"
    },
    {
      "inputs": [
        {
          "internalType": "uint256",
          "name": "marketItemId",
          "type": "uint256"
        },
        {
          "internalType": "uint256",
          "name": "newPrice",
          "type": "uint256"
        }
      ],
      "name": "changeItemPrice",
      "outputs": [],
      "stateMutability": "nonpayable",
      "type": "function"
    },
    {
      "inputs": [
        {
          "internalType": "uint256",
          "name": "ticketId",
          "type": "uint256"
        },
        {
          "internalType": "uint256",
          "name": "newTries",
          "type": "uint256"
        },
        {
          "internalType": "uint256",
          "name": "newPrice",
          "type": "uint256"
        }
      ],
      "name": "changeTicketConditions",
      "outputs": [],
      "stateMutability": "nonpayable",
      "type": "function"
    },
    {
      "inputs": [
        {
          "internalType": "uint256",
          "name": "ticketId",
          "type": "uint256"
        }
      ],
      "name": "claimTicketBack",
      "outputs": [],
      "stateMutability": "nonpayable",
      "type": "function"
    },
    {
      "inputs": [],
      "name": "contractActive",
      "outputs": [
        {
          "internalType": "bool",
          "name": "",
          "type": "bool"
        }
      ],
      "stateMutability": "view",
      "type": "function"
    },
    {
      "inputs": [
        {
          "internalType": "uint256",
          "name": "tokenId",
          "type": "uint256"
        }
      ],
      "name": "exchangeItem",
      "outputs": [],
      "stateMutability": "nonpayable",
      "type": "function"
    },
    {
      "inputs": [],
      "name": "flipContractState",
      "outputs": [],
      "stateMutability": "nonpayable",
      "type": "function"
    },
    {
      "inputs": [],
      "name": "getCasePrice",
      "outputs": [
        {
          "internalType": "uint256",
          "name": "",
          "type": "uint256"
        }
      ],
      "stateMutability": "view",
      "type": "function"
    },
    {
      "inputs": [],
      "name": "getITicketsOnSale",
      "outputs": [
        {
          "components": [
            {
              "internalType": "uint256",
              "name": "ticketId",
              "type": "uint256"
            },
            {
              "internalType": "uint256",
              "name": "numTries",
              "type": "uint256"
            },
            {
              "internalType": "uint256",
              "name": "duration",
              "type": "uint256"
            },
            {
              "internalType": "uint256",
              "name": "price",
              "type": "uint256"
            },
            {
              "internalType": "address",
              "name": "owner",
              "type": "address"
            },
            {
              "internalType": "uint256",
              "name": "timeWhenSold",
              "type": "uint256"
            },
            {
              "internalType": "bool",
              "name": "isAvaliable",
              "type": "bool"
            }
          ],
          "internalType": "struct RacksItemsv3.caseTicket[]",
          "name": "",
          "type": "tuple[]"
        }
      ],
      "stateMutability": "view",
      "type": "function"
    },
    {
      "inputs": [],
      "name": "getItemsOnSale",
      "outputs": [
        {
          "components": [
            {
              "internalType": "uint256",
              "name": "tokenId",
              "type": "uint256"
            },
            {
              "internalType": "uint256",
              "name": "marketItemId",
              "type": "uint256"
            },
            {
              "internalType": "uint256",
              "name": "price",
              "type": "uint256"
            },
            {
              "internalType": "address",
              "name": "itemOwner",
              "type": "address"
            },
            {
              "internalType": "bool",
              "name": "isOnSale",
              "type": "bool"
            }
          ],
          "internalType": "struct RacksItemsv3.itemOnSale[]",
          "name": "",
          "type": "tuple[]"
        }
      ],
      "stateMutability": "view",
      "type": "function"
    },
    {
      "inputs": [
        {
          "internalType": "uint256",
          "name": "marketItemId",
          "type": "uint256"
        }
      ],
      "name": "getMarketItem",
      "outputs": [
        {
          "components": [
            {
              "internalType": "uint256",
              "name": "tokenId",
              "type": "uint256"
            },
            {
              "internalType": "uint256",
              "name": "marketItemId",
              "type": "uint256"
            },
            {
              "internalType": "uint256",
              "name": "price",
              "type": "uint256"
            },
            {
              "internalType": "address",
              "name": "itemOwner",
              "type": "address"
            },
            {
              "internalType": "bool",
              "name": "isOnSale",
              "type": "bool"
            }
          ],
          "internalType": "struct RacksItemsv3.itemOnSale",
          "name": "",
          "type": "tuple"
        }
      ],
      "stateMutability": "view",
      "type": "function"
    },
    {
      "inputs": [
        {
          "internalType": "uint256",
          "name": "ticketId",
          "type": "uint256"
        }
      ],
      "name": "getMarketTicket",
      "outputs": [
        {
          "components": [
            {
              "internalType": "uint256",
              "name": "ticketId",
              "type": "uint256"
            },
            {
              "internalType": "uint256",
              "name": "numTries",
              "type": "uint256"
            },
            {
              "internalType": "uint256",
              "name": "duration",
              "type": "uint256"
            },
            {
              "internalType": "uint256",
              "name": "price",
              "type": "uint256"
            },
            {
              "internalType": "address",
              "name": "owner",
              "type": "address"
            },
            {
              "internalType": "uint256",
              "name": "timeWhenSold",
              "type": "uint256"
            },
            {
              "internalType": "bool",
              "name": "isAvaliable",
              "type": "bool"
            }
          ],
          "internalType": "struct RacksItemsv3.caseTicket",
          "name": "",
          "type": "tuple"
        }
      ],
      "stateMutability": "view",
      "type": "function"
    },
    {
      "inputs": [
        {
          "internalType": "bytes32",
          "name": "role",
          "type": "bytes32"
        }
      ],
      "name": "getRoleAdmin",
      "outputs": [
        {
          "internalType": "bytes32",
          "name": "",
          "type": "bytes32"
        }
      ],
      "stateMutability": "view",
      "type": "function"
    },
    {
      "inputs": [
        {
          "internalType": "uint256",
          "name": "ticketId",
          "type": "uint256"
        }
      ],
      "name": "getTicketDurationLeft",
      "outputs": [
        {
          "internalType": "uint256",
          "name": "",
          "type": "uint256"
        }
      ],
      "stateMutability": "view",
      "type": "function"
    },
    {
      "inputs": [
        {
          "internalType": "bytes32",
          "name": "role",
          "type": "bytes32"
        },
        {
          "internalType": "address",
          "name": "account",
          "type": "address"
        }
      ],
      "name": "grantRole",
      "outputs": [],
      "stateMutability": "nonpayable",
      "type": "function"
    },
    {
      "inputs": [
        {
          "internalType": "bytes32",
          "name": "role",
          "type": "bytes32"
        },
        {
          "internalType": "address",
          "name": "account",
          "type": "address"
        }
      ],
      "name": "hasRole",
      "outputs": [
        {
          "internalType": "bool",
          "name": "",
          "type": "bool"
        }
      ],
      "stateMutability": "view",
      "type": "function"
    },
    {
      "inputs": [],
      "name": "i_MrCryptoAddress",
      "outputs": [
        {
          "internalType": "address",
          "name": "",
          "type": "address"
        }
      ],
      "stateMutability": "view",
      "type": "function"
    },
    {
      "inputs": [],
      "name": "i_callbackGasLimit",
      "outputs": [
        {
          "internalType": "uint32",
          "name": "",
          "type": "uint32"
        }
      ],
      "stateMutability": "view",
      "type": "function"
    },
    {
      "inputs": [],
      "name": "i_gasLane",
      "outputs": [
        {
          "internalType": "bytes32",
          "name": "",
          "type": "bytes32"
        }
      ],
      "stateMutability": "view",
      "type": "function"
    },
    {
      "inputs": [],
      "name": "i_subscriptionId",
      "outputs": [
        {
          "internalType": "uint64",
          "name": "",
          "type": "uint64"
        }
      ],
      "stateMutability": "view",
      "type": "function"
    },
    {
      "inputs": [],
      "name": "i_vrfCoordinator",
      "outputs": [
        {
          "internalType": "contract VRFCoordinatorV2Interface",
          "name": "",
          "type": "address"
        }
      ],
      "stateMutability": "view",
      "type": "function"
    },
    {
      "inputs": [
        {
          "internalType": "address",
          "name": "account",
          "type": "address"
        },
        {
          "internalType": "address",
          "name": "operator",
          "type": "address"
        }
      ],
      "name": "isApprovedForAll",
      "outputs": [
        {
          "internalType": "bool",
          "name": "",
          "type": "bool"
        }
      ],
      "stateMutability": "view",
      "type": "function"
    },
    {
      "inputs": [
        {
          "internalType": "address",
          "name": "user",
          "type": "address"
        }
      ],
      "name": "isVip",
      "outputs": [
        {
          "internalType": "bool",
          "name": "",
          "type": "bool"
        }
      ],
      "stateMutability": "view",
      "type": "function"
    },
    {
      "inputs": [
        {
          "internalType": "uint256",
          "name": "itemSupply",
          "type": "uint256"
        }
      ],
      "name": "listItem",
      "outputs": [],
      "stateMutability": "nonpayable",
      "type": "function"
    },
    {
      "inputs": [
        {
          "internalType": "uint256",
          "name": "marketItemId",
          "type": "uint256"
        },
        {
          "internalType": "uint256",
          "name": "price",
          "type": "uint256"
        }
      ],
      "name": "listItemOnMarket",
      "outputs": [],
      "stateMutability": "nonpayable",
      "type": "function"
    },
    {
      "inputs": [
        {
          "internalType": "uint256",
          "name": "numTries",
          "type": "uint256"
        },
        {
          "internalType": "uint256",
          "name": "_hours",
          "type": "uint256"
        },
        {
          "internalType": "uint256",
          "name": "price",
          "type": "uint256"
        }
      ],
      "name": "listTicket",
      "outputs": [],
      "stateMutability": "nonpayable",
      "type": "function"
    },
    {
      "inputs": [
        {
          "internalType": "address",
          "name": "",
          "type": "address"
        },
        {
          "internalType": "address",
          "name": "",
          "type": "address"
        },
        {
          "internalType": "uint256[]",
          "name": "",
          "type": "uint256[]"
        },
        {
          "internalType": "uint256[]",
          "name": "",
          "type": "uint256[]"
        },
        {
          "internalType": "bytes",
          "name": "",
          "type": "bytes"
        }
      ],
      "name": "onERC1155BatchReceived",
      "outputs": [
        {
          "internalType": "bytes4",
          "name": "",
          "type": "bytes4"
        }
      ],
      "stateMutability": "nonpayable",
      "type": "function"
    },
    {
      "inputs": [
        {
          "internalType": "address",
          "name": "",
          "type": "address"
        },
        {
          "internalType": "address",
          "name": "",
          "type": "address"
        },
        {
          "internalType": "uint256",
          "name": "",
          "type": "uint256"
        },
        {
          "internalType": "uint256",
          "name": "",
          "type": "uint256"
        },
        {
          "internalType": "bytes",
          "name": "",
          "type": "bytes"
        }
      ],
      "name": "onERC1155Received",
      "outputs": [
        {
          "internalType": "bytes4",
          "name": "",
          "type": "bytes4"
        }
      ],
      "stateMutability": "nonpayable",
      "type": "function"
    },
    {
      "inputs": [],
      "name": "openCase",
      "outputs": [],
      "stateMutability": "nonpayable",
      "type": "function"
    },
    {
      "inputs": [
        {
          "internalType": "uint256",
          "name": "requestId",
          "type": "uint256"
        },
        {
          "internalType": "uint256[]",
          "name": "randomWords",
          "type": "uint256[]"
        }
      ],
      "name": "rawFulfillRandomWords",
      "outputs": [],
      "stateMutability": "nonpayable",
      "type": "function"
    },
    {
      "inputs": [
        {
          "internalType": "address[]",
          "name": "users",
          "type": "address[]"
        }
      ],
      "name": "removeListRacksMembers",
      "outputs": [],
      "stateMutability": "nonpayable",
      "type": "function"
    },
    {
      "inputs": [
        {
          "internalType": "address",
          "name": "user",
          "type": "address"
        }
      ],
      "name": "removeSingleRacksMember",
      "outputs": [],
      "stateMutability": "nonpayable",
      "type": "function"
    },
    {
      "inputs": [
        {
          "internalType": "bytes32",
          "name": "role",
          "type": "bytes32"
        },
        {
          "internalType": "address",
          "name": "account",
          "type": "address"
        }
      ],
      "name": "renounceRole",
      "outputs": [],
      "stateMutability": "nonpayable",
      "type": "function"
    },
    {
      "inputs": [
        {
          "internalType": "bytes32",
          "name": "role",
          "type": "bytes32"
        },
        {
          "internalType": "address",
          "name": "account",
          "type": "address"
        }
      ],
      "name": "revokeRole",
      "outputs": [],
      "stateMutability": "nonpayable",
      "type": "function"
    },
    {
      "inputs": [],
      "name": "s_contractState",
      "outputs": [
        {
          "internalType": "enum RacksItemsv3.ContractState",
          "name": "",
          "type": "uint8"
        }
      ],
      "stateMutability": "view",
      "type": "function"
    },
    {
      "inputs": [],
      "name": "s_randomWord",
      "outputs": [
        {
          "internalType": "uint256",
          "name": "",
          "type": "uint256"
        }
      ],
      "stateMutability": "view",
      "type": "function"
    },
    {
      "inputs": [
        {
          "internalType": "address",
          "name": "from",
          "type": "address"
        },
        {
          "internalType": "address",
          "name": "to",
          "type": "address"
        },
        {
          "internalType": "uint256[]",
          "name": "ids",
          "type": "uint256[]"
        },
        {
          "internalType": "uint256[]",
          "name": "amounts",
          "type": "uint256[]"
        },
        {
          "internalType": "bytes",
          "name": "data",
          "type": "bytes"
        }
      ],
      "name": "safeBatchTransferFrom",
      "outputs": [],
      "stateMutability": "nonpayable",
      "type": "function"
    },
    {
      "inputs": [
        {
          "internalType": "address",
          "name": "from",
          "type": "address"
        },
        {
          "internalType": "address",
          "name": "to",
          "type": "address"
        },
        {
          "internalType": "uint256",
          "name": "id",
          "type": "uint256"
        },
        {
          "internalType": "uint256",
          "name": "amount",
          "type": "uint256"
        },
        {
          "internalType": "bytes",
          "name": "data",
          "type": "bytes"
        }
      ],
      "name": "safeTransferFrom",
      "outputs": [],
      "stateMutability": "nonpayable",
      "type": "function"
    },
    {
      "inputs": [
        {
          "internalType": "address",
          "name": "_newAdmin",
          "type": "address"
        }
      ],
      "name": "setAdmin",
      "outputs": [],
      "stateMutability": "nonpayable",
      "type": "function"
    },
    {
      "inputs": [
        {
          "internalType": "address",
          "name": "operator",
          "type": "address"
        },
        {
          "internalType": "bool",
          "name": "approved",
          "type": "bool"
        }
      ],
      "name": "setApprovalForAll",
      "outputs": [],
      "stateMutability": "nonpayable",
      "type": "function"
    },
    {
      "inputs": [
        {
          "internalType": "uint256",
          "name": "price",
          "type": "uint256"
        }
      ],
      "name": "setCasePrice",
      "outputs": [],
      "stateMutability": "nonpayable",
      "type": "function"
    },
    {
      "inputs": [
        {
          "internalType": "address[]",
          "name": "users",
          "type": "address[]"
        }
      ],
      "name": "setListRacksMembers",
      "outputs": [],
      "stateMutability": "nonpayable",
      "type": "function"
    },
    {
      "inputs": [
        {
          "internalType": "address",
          "name": "user",
          "type": "address"
        }
      ],
      "name": "setSingleRacksMember",
      "outputs": [],
      "stateMutability": "nonpayable",
      "type": "function"
    },
    {
      "inputs": [
        {
          "internalType": "uint256",
          "name": "tokenId",
          "type": "uint256"
        },
        {
          "internalType": "string",
          "name": "_uri",
          "type": "string"
        }
      ],
      "name": "setTokenUri",
      "outputs": [],
      "stateMutability": "nonpayable",
      "type": "function"
    },
    {
      "inputs": [
        {
          "internalType": "uint256",
          "name": "tokenId",
          "type": "uint256"
        }
      ],
      "name": "supplyOfItem",
      "outputs": [
        {
          "internalType": "uint256",
          "name": "",
          "type": "uint256"
        }
      ],
      "stateMutability": "view",
      "type": "function"
    },
    {
      "inputs": [
        {
          "internalType": "bytes4",
          "name": "interfaceId",
          "type": "bytes4"
        }
      ],
      "name": "supportsInterface",
      "outputs": [
        {
          "internalType": "bool",
          "name": "",
          "type": "bool"
        }
      ],
      "stateMutability": "view",
      "type": "function"
    },
    {
      "inputs": [
        {
          "internalType": "uint256",
          "name": "marketItemId",
          "type": "uint256"
        }
      ],
      "name": "unListItem",
      "outputs": [],
      "stateMutability": "nonpayable",
      "type": "function"
    },
    {
      "inputs": [
        {
          "internalType": "uint256",
          "name": "ticketId",
          "type": "uint256"
        }
      ],
      "name": "unListTicket",
      "outputs": [],
      "stateMutability": "nonpayable",
      "type": "function"
    },
    {
      "inputs": [
        {
          "internalType": "uint256",
          "name": "tokenId",
          "type": "uint256"
        }
      ],
      "name": "uri",
      "outputs": [
        {
          "internalType": "string",
          "name": "",
          "type": "string"
        }
      ],
      "stateMutability": "view",
      "type": "function"
    },
    {
      "inputs": [
        {
          "internalType": "address",
          "name": "owner",
          "type": "address"
        }
      ],
      "name": "viewItems",
      "outputs": [
        {
          "internalType": "uint256[]",
          "name": "",
          "type": "uint256[]"
        }
      ],
      "stateMutability": "view",
      "type": "function"
    },
    {
      "inputs": [
        {
          "internalType": "address",
          "name": "wallet",
          "type": "address"
        }
      ],
      "name": "withdrawAllFunds",
      "outputs": [],
      "stateMutability": "nonpayable",
      "type": "function"
    },
    {
      "inputs": [
        {
          "internalType": "address",
          "name": "wallet",
          "type": "address"
        },
        {
          "internalType": "uint256",
          "name": "amount",
          "type": "uint256"
        }
      ],
      "name": "withdrawFunds",
      "outputs": [],
      "stateMutability": "nonpayable",
      "type": "function"
    },
    {
      "stateMutability": "payable",
      "type": "receive"
    }
  ],
  "bytecode": "0x610120604052600c805460ff191660011790553480156200001f57600080fd5b5060405162005fef38038062005fef8339810160408190526200004291620001ec565b60408051602081019091526000815285906200005e8162000110565b50606090811b6001600160601b031990811660805295901b90941660a05260c0928352911b6001600160c01b03191660e09081521b6001600160e01b031916610100526004805473ef453154766505feb9dbf0a58e6990fd6eb669696001600160a01b0319918216179091556005805482166001600160a01b0393909316929092179091556006805433921691909117905560006008819055600a556001600b55600c805461ff0019169055620002a9565b80516200012590600290602084019062000129565b5050565b82805462000137906200026c565b90600052602060002090601f0160209004810192826200015b5760008555620001a6565b82601f106200017657805160ff1916838001178555620001a6565b82800160010185558215620001a6579182015b82811115620001a657825182559160200191906001019062000189565b50620001b4929150620001b8565b5090565b5b80821115620001b45760008155600101620001b9565b80516001600160a01b0381168114620001e757600080fd5b919050565b600080600080600060a086880312156200020557600080fd5b6200021086620001cf565b6020870151604088015191965094506001600160401b03811681146200023557600080fd5b606087015190935063ffffffff811681146200025057600080fd5b91506200026060808701620001cf565b90509295509295909350565b600181811c908216806200028157607f821691505b60208210811415620002a357634e487b7160e01b600052602260045260246000fd5b50919050565b60805160601c60a05160601c60c05160e05160c01c6101005160e01c615cd26200031d60003960008181610b230152611ca201526000818161061d0152611c6f0152600081816108880152611c400152600081816109770152611cdd0152600081816111c901526112240152615cd26000f3fe6080604052600436106103b05760003560e01c80638ba8b15a116101e7578063c10753291161010d578063e289fcb6116100a0578063f23a6e611161006f578063f23a6e6114610c2a578063f242432a14610c56578063f48c9d3414610c76578063fd210fd914610c9657600080fd5b8063e289fcb614610b87578063e7fb74c714610ba1578063e985e9c514610bc1578063ebf82e5c14610c0a57600080fd5b8063d547741f116100dc578063d547741f14610af1578063d757d02714610b11578063dd006d3114610b45578063de08f65314610b7257600080fd5b8063c107532914610a6e578063c7be7a4914610a8e578063c7e05f8d14610abb578063ca90958f14610adb57600080fd5b8063a7b1942411610185578063b63b861211610154578063b63b8612146109bb578063b85e67af146109e7578063bbcbc2e714610a07578063bc197c8114610a2957600080fd5b8063a7b1942414610925578063a7bc77c614610945578063aebc455014610965578063b2ead3c71461099957600080fd5b806391d14854116101c157806391d14854146108aa578063976298f3146108f0578063a217fddf146107c1578063a22cb4651461090557600080fd5b80638ba8b15a146108365780638dc5f45b146108565780638e879c8a1461087657600080fd5b8063470cdf97116102d757806367dd74ca1161026a57806375b238fc1161023957806375b238fc146107c15780637e420db5146107d657806384203f4b146107f657806389165aa91461081657600080fd5b806367dd74ca1461072f57806367f082b01461074f578063704b6c021461077757806372cf6e341461079757600080fd5b806354e889f6116102a657806354e889f6146106ba57806357f7789e146106da57806361652450146106fa57806361c073d61461070f57600080fd5b8063470cdf971461060b5780634a226657146106585780634e1273f41461066d5780635408c3191461069a57600080fd5b80631fe543e31161034f5780632eb2c2d61161031e5780632eb2c2d61461058b5780632f2ff15d146105ab57806332dee40b146105cb57806336568abe146105eb57600080fd5b80631fe543e3146104ee57806320ba08141461050e578063248a9ca31461053b5780632ce381901461056b57600080fd5b80630e89341c1161038b5780630e89341c14610441578063109b82781461046e57806319c08575146104ae5780631cb0b273146104ce57600080fd5b8062fdd58e146103bc57806301ffc9a7146103ef578063020f19801461041f57600080fd5b366103b757005b600080fd5b3480156103c857600080fd5b506103dc6103d73660046153fc565b610cac565b6040519081526020015b60405180910390f35b3480156103fb57600080fd5b5061040f61040a366004615520565b610d58565b60405190151581526020016103e6565b34801561042b57600080fd5b5061043f61043a366004615601565b610d63565b005b34801561044d57600080fd5b5061046161045c3660046154e4565b610f35565b6040516103e69190615951565b34801561047a57600080fd5b5061049673ef453154766505feb9dbf0a58e6990fd6eb6696981565b6040516001600160a01b0390911681526020016103e6565b3480156104ba57600080fd5b506103dc6104c93660046154e4565b610fd7565b3480156104da57600080fd5b5061043f6104e93660046154e4565b611121565b3480156104fa57600080fd5b5061043f610509366004615573565b6111be565b34801561051a57600080fd5b506103dc6105293660046154e4565b60009081526011602052604090205490565b34801561054757600080fd5b506103dc6105563660046154e4565b60009081526003602052604090206001015490565b34801561057757600080fd5b5061043f6105863660046154e4565b61125f565b34801561059757600080fd5b5061043f6105a63660046152b6565b6112cb565b3480156105b757600080fd5b5061043f6105c63660046154fd565b61136d565b3480156105d757600080fd5b5061043f6105e6366004615268565b611397565b3480156105f757600080fd5b5061043f6106063660046154fd565b6115bd565b34801561061757600080fd5b5061063f7f000000000000000000000000000000000000000000000000000000000000000081565b60405167ffffffffffffffff90911681526020016103e6565b34801561066457600080fd5b5061043f611645565b34801561067957600080fd5b5061068d610688366004615463565b6118aa565b6040516103e691906158e8565b3480156106a657600080fd5b5061043f6106b5366004615426565b6119e8565b3480156106c657600080fd5b5061043f6106d5366004615268565b611aaf565b3480156106e657600080fd5b5061043f6106f53660046155b0565b611b32565b34801561070657600080fd5b506103dc611c18565b34801561071b57600080fd5b5061043f61072a3660046154e4565b611d59565b34801561073b57600080fd5b5061043f61074a3660046154e4565b61200e565b34801561075b57600080fd5b50610764600381565b60405161ffff90911681526020016103e6565b34801561078357600080fd5b5061043f610792366004615268565b6124e1565b3480156107a357600080fd5b506107ac600281565b60405163ffffffff90911681526020016103e6565b3480156107cd57600080fd5b506103dc600081565b3480156107e257600080fd5b5061043f6107f13660046154e4565b612546565b34801561080257600080fd5b5061040f610811366004615268565b6126c8565b34801561082257600080fd5b5061043f610831366004615426565b612782565b34801561084257600080fd5b5061043f610851366004615268565b612849565b34801561086257600080fd5b5061043f6108713660046154e4565b6128c9565b34801561088257600080fd5b506103dc7f000000000000000000000000000000000000000000000000000000000000000081565b3480156108b657600080fd5b5061040f6108c53660046154fd565b60009182526003602090815260408084206001600160a01b0393909316845291905290205460ff1690565b3480156108fc57600080fd5b50600b546103dc565b34801561091157600080fd5b5061043f6109203660046153c5565b61295d565b34801561093157600080fd5b5061043f610940366004615601565b612968565b34801561095157600080fd5b5061043f6109603660046154e4565b612a93565b34801561097157600080fd5b506104967f000000000000000000000000000000000000000000000000000000000000000081565b3480156109a557600080fd5b506109ae612bd7565b6040516103e691906157d8565b3480156109c757600080fd5b50600c546109da90610100900460ff1681565b6040516103e69190615929565b3480156109f357600080fd5b5061043f610a02366004615623565b612e18565b348015610a1357600080fd5b50610a1c613145565b6040516103e69190615870565b348015610a3557600080fd5b50610a55610a443660046152b6565b63bc197c8160e01b95945050505050565b6040516001600160e01b031990911681526020016103e6565b348015610a7a57600080fd5b5061043f610a893660046153fc565b61334f565b348015610a9a57600080fd5b50610aae610aa93660046154e4565b613511565b6040516103e691906159bc565b348015610ac757600080fd5b506103dc610ad63660046154e4565b6135c4565b348015610ae757600080fd5b506103dc600b5481565b348015610afd57600080fd5b5061043f610b0c3660046154fd565b6135f4565b348015610b1d57600080fd5b506107ac7f000000000000000000000000000000000000000000000000000000000000000081565b348015610b5157600080fd5b50610b65610b603660046154e4565b613619565b6040516103e69190615964565b348015610b7e57600080fd5b5061043f6136ea565b348015610b9357600080fd5b50600c5461040f9060ff1681565b348015610bad57600080fd5b5061043f610bbc3660046154e4565b61378b565b348015610bcd57600080fd5b5061040f610bdc366004615283565b6001600160a01b03918216600090815260016020908152604080832093909416825291909152205460ff1690565b348015610c1657600080fd5b5061043f610c25366004615623565b613b93565b348015610c3657600080fd5b50610a55610c45366004615360565b63f23a6e6160e01b95945050505050565b348015610c6257600080fd5b5061043f610c71366004615360565b613d19565b348015610c8257600080fd5b5061068d610c91366004615268565b613db4565b348015610ca257600080fd5b506103dc600f5481565b60006001600160a01b038316610d2f5760405162461bcd60e51b815260206004820152602b60248201527f455243313135353a2062616c616e636520717565727920666f7220746865207a60448201527f65726f206164647265737300000000000000000000000000000000000000000060648201526084015b60405180910390fd5b506000818152602081815260408083206001600160a01b03861684529091529020545b92915050565b6000610d5282613e4b565b6000610d6f3384610cac565b11610dbc5760405162461bcd60e51b815260206004820152600f60248201527f4974656d206e6f7420666f756e642e00000000000000000000000000000000006044820152606401610d26565b6040805160a08101825283815260098054602083019081529282018481523360608401908152600160808501818152600d80549283018155600090815295517fd7b6990105719101dabeb77144f2a3385c8033acd3af97e9423a695e81ad1eb560049093029283015595517fd7b6990105719101dabeb77144f2a3385c8033acd3af97e9423a695e81ad1eb682015591517fd7b6990105719101dabeb77144f2a3385c8033acd3af97e9423a695e81ad1eb7830155517fd7b6990105719101dabeb77144f2a3385c8033acd3af97e9423a695e81ad1eb8909101805494516001600160a01b039092167fffffffffffffffffffffff00000000000000000000000000000000000000000090951694909417600160a01b911515919091021790925581549190610eea83615b35565b909155505060408051338152602081018490529081018290527f23cba88d6c6f26b62b2cfc32a2cc04fbbde8590188b97cd3590e45af9ac6dd6d906060015b60405180910390a15050565b6000818152601260205260409020805460609190610f5290615acd565b80601f0160208091040260200160405190810160405280929190818152602001828054610f7e90615acd565b8015610fcb5780601f10610fa057610100808354040283529160200191610fcb565b820191906000526020600020905b815481529060010190602001808311610fae57829003601f168201915b50505050509050919050565b6000603c600e8381548110610fee57610fee615ba6565b90600052602060002090600702016002015461100a9190615a3c565b600e838154811061101d5761101d615ba6565b9060005260206000209060070201600501544261103a9190615a6f565b116110ad5760405162461bcd60e51b815260206004820152602360248201527f5469636b657420686173206e6f2074696d65206c65667420666f72206c656e6460448201527f696e6700000000000000000000000000000000000000000000000000000000006064820152608401610d26565b6000603c600e84815481106110c4576110c4615ba6565b9060005260206000209060070201600201546110e09190615a3c565b600e84815481106110f3576110f3615ba6565b906000526020600020906007020160050154426111109190615a6f565b61111a9190615a6f565b9392505050565b600061112d3383610cac565b1161113757600080fd5b61114333826001613e89565b6000818152601160205260408120805460019290611162908490615a6f565b9250508190555060016007600082825461117c9190615a6f565b909155505060408051338152602081018390527f9e90d55d2f1f115ffe1b87372c45f27f6b3a2b5ba392942167be78456189009491015b60405180910390a150565b336001600160a01b037f00000000000000000000000000000000000000000000000000000000000000001614611251576040517f1cf993f40000000000000000000000000000000000000000000000000000000081523360048201526001600160a01b037f0000000000000000000000000000000000000000000000000000000000000000166024820152604401610d26565b61125b828261403d565b5050565b61126833614062565b6112be5760405162461bcd60e51b815260206004820152602160248201527f55736572206973206e6f7420746865204f776e6572206f7220616e2041646d696044820152603760f91b6064820152608401610d26565b6112c830826140c1565b50565b6001600160a01b0385163314806112e757506112e78533610bdc565b6113595760405162461bcd60e51b815260206004820152603260248201527f455243313135353a207472616e736665722063616c6c6572206973206e6f742060448201527f6f776e6572206e6f7220617070726f76656400000000000000000000000000006064820152608401610d26565b611366858585858561412c565b5050505050565b6000828152600360205260409020600101546113888161439f565b61139283836143a9565b505050565b6006546001600160a01b031633146113f15760405162461bcd60e51b815260206004820152601560248201527f55736572206973206e6f7420746865206f776e657200000000000000000000006044820152606401610d26565b6005546040516370a0823160e01b81523060048201526000916001600160a01b0316906370a082319060240160206040518083038186803b15801561143557600080fd5b505afa158015611449573d6000803e3d6000fd5b505050506040513d601f19601f8201168201806040525081019061146d919061555a565b116114ba5760405162461bcd60e51b815260206004820152601460248201527f4e6f2066756e647320746f2077697468647261770000000000000000000000006044820152606401610d26565b6005546040516370a0823160e01b81523060048201526001600160a01b039091169063a9059cbb90839083906370a082319060240160206040518083038186803b15801561150757600080fd5b505afa15801561151b573d6000803e3d6000fd5b505050506040513d601f19601f8201168201806040525081019061153f919061555a565b6040516001600160e01b031960e085901b1681526001600160a01b0390921660048301526024820152604401602060405180830381600087803b15801561158557600080fd5b505af1158015611599573d6000803e3d6000fd5b505050506040513d601f19601f8201168201806040525081019061125b91906154c7565b6001600160a01b038116331461163b5760405162461bcd60e51b815260206004820152602f60248201527f416363657373436f6e74726f6c3a2063616e206f6e6c792072656e6f756e636560448201527f20726f6c657320666f722073656c6600000000000000000000000000000000006064820152608401610d26565b61125b828261444b565b6000600c54610100900460ff16600181111561166357611663615b90565b146116d65760405162461bcd60e51b815260206004820152602560248201527f436f6e7472616374206973206e6f74206163746976652061742074686973206d60448201527f6f6d656e740000000000000000000000000000000000000000000000000000006064820152608401610d26565b600554600b546040517f23b872dd00000000000000000000000000000000000000000000000000000000815233600482015230602482015260448101919091526001600160a01b03909116906323b872dd90606401602060405180830381600087803b15801561174557600080fd5b505af1158015611759573d6000803e3d6000fd5b505050506040513d601f19601f8201168201806040525081019061177d91906154c7565b50600060075461178b611c18565b6117959190615b50565b9050600080805b600854811015611856576000818152601160205260408120546117bf9085615a24565b9050808511156117d157809350611843565b8192506117de3084610cac565b6118205760006117ef600185615a6f565b90505b60006117fe3083610cac565b111561180c5780935061181e565b8061181681615ab6565b9150506117f2565b505b61183d3033856001604051806020016040528060008152506144ce565b50611856565b508061184e81615b35565b91505061179c565b5061186033614679565b600b5460408051338152602081019290925281018290527fea32e37a2618dbb680c93d891742e9e13b30d184822562a0ee3c09290fd42b43906060015b60405180910390a1505050565b606081518351146119235760405162461bcd60e51b815260206004820152602960248201527f455243313135353a206163636f756e747320616e6420696473206c656e67746860448201527f206d69736d6174636800000000000000000000000000000000000000000000006064820152608401610d26565b6000835167ffffffffffffffff81111561193f5761193f615bbc565b604051908082528060200260200182016040528015611968578160200160208202803683370190505b50905060005b84518110156119e0576119b385828151811061198c5761198c615ba6565b60200260200101518583815181106119a6576119a6615ba6565b6020026020010151610cac565b8282815181106119c5576119c5615ba6565b60209081029190910101526119d981615b35565b905061196e565b509392505050565b6119f133614062565b611a475760405162461bcd60e51b815260206004820152602160248201527f55736572206973206e6f7420746865204f776e6572206f7220616e2041646d696044820152603760f91b6064820152608401610d26565b60005b815181101561125b57600060106000848481518110611a6b57611a6b615ba6565b6020908102919091018101516001600160a01b03168252810191909152604001600020805460ff191691151591909117905580611aa781615b35565b915050611a4a565b611ab833614062565b611b0e5760405162461bcd60e51b815260206004820152602160248201527f55736572206973206e6f7420746865204f776e6572206f7220616e2041646d696044820152603760f91b6064820152608401610d26565b6001600160a01b03166000908152601060205260409020805460ff19166001179055565b611b3b33614062565b611b915760405162461bcd60e51b815260206004820152602160248201527f55736572206973206e6f7420746865204f776e6572206f7220616e2041646d696044820152603760f91b6064820152608401610d26565b60008281526012602052604090208054611baa90615acd565b159050611bf95760405162461bcd60e51b815260206004820152601560248201527f43616e206e6f74207365742075726920747769636500000000000000000000006044820152606401610d26565b600082815260126020908152604090912082516113929284019061504d565b6040517f5d3b1d300000000000000000000000000000000000000000000000000000000081527f0000000000000000000000000000000000000000000000000000000000000000600482015267ffffffffffffffff7f00000000000000000000000000000000000000000000000000000000000000001660248201526003604482015263ffffffff7f00000000000000000000000000000000000000000000000000000000000000001660648201526002608482015260009081906001600160a01b037f00000000000000000000000000000000000000000000000000000000000000001690635d3b1d309060a401602060405180830381600087803b158015611d2157600080fd5b505af1158015611d35573d6000803e3d6000fd5b505050506040513d601f19601f82011682018060405250810190610d52919061555a565b3360009081526016602052604090205460ff16611db85760405162461bcd60e51b815260206004820152601c60248201527f5573657220646964206e6f742073656c6c20616e79205469636b6574000000006044820152606401610d26565b603c600e8281548110611dcd57611dcd615ba6565b906000526020600020906007020160020154611de99190615a3c565b600e8281548110611dfc57611dfc615ba6565b90600052602060002090600702016005015442611e199190615a6f565b11611e8c5760405162461bcd60e51b815260206004820152602960248201527f4475726174696f6e206f6620746865205469636b6574206973207374696c6c2060448201527f6176616c6961626c6500000000000000000000000000000000000000000000006064820152608401610d26565b600060146000600e8481548110611ea557611ea5615ba6565b60009182526020808320600460079093020191909101546001600160a01b031683528281019390935260409182018120805494151560ff1995861617905533808252601484528282208054861660011790556016909352208054909216909155600e805483908110611f1957611f19615ba6565b906000526020600020906007020160040160006101000a8154816001600160a01b0302191690836001600160a01b03160217905550600160146000600e8481548110611f6757611f67615ba6565b60009182526020808320600792909202909101600401546001600160a01b031683528201929092526040019020805460ff1916911515919091179055600e80547f5093646a80c0a81f51115fbf5ec8379ecf902ae2ba552c74599cbe844dcb53e3919083908110611fda57611fda615ba6565b600091825260209182902060079091020160040154604080516001600160a01b0390921682523392820192909252016111b3565b612017336126c8565b1561202157600080fd5b336001600160a01b0316600e828154811061203e5761203e615ba6565b60009182526020909120600460079092020101546001600160a01b031614156120cf5760405162461bcd60e51b815260206004820152602560248201527f596f752063616e206e6f74206275792061207469636b657420746f20796f757260448201527f2073656c660000000000000000000000000000000000000000000000000000006064820152608401610d26565b600e81815481106120e2576120e2615ba6565b600091825260209091206006600790920201015460ff1615156001146121705760405162461bcd60e51b815260206004820152602160248201527f5469636b6574206973206e6f742063757272656e746c79206176616c6961626c60448201527f65000000000000000000000000000000000000000000000000000000000000006064820152608401610d26565b6000600e828154811061218557612185615ba6565b6000918252602090912060079091020160040154600554600e80546001600160a01b03938416945092909116916323b872dd913391869081106121ca576121ca615ba6565b906000526020600020906007020160040160009054906101000a90046001600160a01b0316600e868154811061220257612202615ba6565b60009182526020909120600360079092020101546040516001600160e01b031960e086901b1681526001600160a01b0393841660048201529290911660248301526044820152606401602060405180830381600087803b15801561226557600080fd5b505af1158015612279573d6000803e3d6000fd5b505050506040513d601f19601f8201168201806040525081019061229d91906154c7565b5042600e83815481106122b2576122b2615ba6565b906000526020600020906007020160050181905550600060146000600e85815481106122e0576122e0615ba6565b60009182526020808320600792909202909101600401546001600160a01b031683528201929092526040018120805460ff191692151592909217909155600e805460139183918690811061233657612336615ba6565b60009182526020808320600792909202909101600401546001600160a01b031683528201929092526040018120805460ff191692151592909217909155600e805460019260169290918690811061238f5761238f615ba6565b60009182526020808320600460079093020191909101546001600160a01b031683528281019390935260409182018120805494151560ff19958616179055338082526014909352208054909216600117909155600e8054849081106123f6576123f6615ba6565b906000526020600020906007020160040160006101000a8154816001600160a01b0302191690836001600160a01b031602179055506000600e838154811061244057612440615ba6565b906000526020600020906007020160060160006101000a81548160ff0219169083151502179055507f060f7dd92424d6f1af65d2fe9acba5b63d299cc26cd8eb26403ca371bc9fbfbb828233600e868154811061249f5761249f615ba6565b906000526020600020906007020160030154604051610f2994939291909384526001600160a01b03928316602085015291166040830152606082015260800190565b6006546001600160a01b0316331461253b5760405162461bcd60e51b815260206004820152601560248201527f55736572206973206e6f7420746865206f776e657200000000000000000000006044820152606401610d26565b6112c86000826147ca565b3360009081526013602052604090205460ff166125b45760405162461bcd60e51b815260206004820152602660248201527f55736572206973206e6f742063757272656e746c792073656c6c696e67206120604482015265151a58dad95d60d21b6064820152608401610d26565b336001600160a01b0316600e82815481106125d1576125d1615ba6565b60009182526020909120600460079092020101546001600160a01b03161461263b5760405162461bcd60e51b815260206004820181905260248201527f55736572206973206e6f74206f776e6572206f662074686973207469636b65746044820152606401610d26565b6000600e828154811061265057612650615ba6565b6000918252602080832060066007939093020191909101805493151560ff19948516179055338083526013825260408084208054861690556014835292839020805490941660011790935590519182527f5dbab6b1e9ddd154d6eb51aa5622fb5278ea62a0b5f81d046a945d899490f63191016111b3565b600480546040516370a0823160e01b81526001600160a01b0384811693820193909352600092839216906370a082319060240160206040518083038186803b15801561271357600080fd5b505afa158015612727573d6000803e3d6000fd5b505050506040513d601f19601f8201168201806040525081019061274b919061555a565b1161275557600080fd5b6001600160a01b03821660009081526010602052604090205460ff1661277a57600080fd5b506001919050565b61278b33614062565b6127e15760405162461bcd60e51b815260206004820152602160248201527f55736572206973206e6f7420746865204f776e6572206f7220616e2041646d696044820152603760f91b6064820152608401610d26565b60005b815181101561125b5760016010600084848151811061280557612805615ba6565b6020908102919091018101516001600160a01b03168252810191909152604001600020805460ff19169115159190911790558061284181615b35565b9150506127e4565b61285233614062565b6128a85760405162461bcd60e51b815260206004820152602160248201527f55736572206973206e6f7420746865204f776e6572206f7220616e2041646d696044820152603760f91b6064820152608401610d26565b6001600160a01b03166000908152601060205260409020805460ff19169055565b6128d233614062565b6129285760405162461bcd60e51b815260206004820152602160248201527f55736572206973206e6f7420746865204f776e6572206f7220616e2041646d696044820152603760f91b6064820152608401610d26565b600b8190556040518181527f06cd74aabc11982a85b554df4d7833623303656fe69bed4db1b0cb3245feebe3906020016111b3565b61125b3383836147d4565b336001600160a01b0316600d838154811061298557612985615ba6565b60009182526020909120600360049092020101546001600160a01b0316146129fb5760405162461bcd60e51b815260206004820152602360248201527f596f7520617265206e6f7420746865206f776e6572206f66207468697320697460448201526232b69760e91b6064820152608401610d26565b6000600d8381548110612a1057612a10615ba6565b906000526020600020906004020160020154905081600d8481548110612a3857612a38615ba6565b600091825260209182902060026004909202010191909155604080513381529182018590528101829052606081018390527fb141d00f22a670547caacc412e6489d8edaba6a840df558118363ce1a40d6ed29060800161189d565b336001600160a01b0316600d8281548110612ab057612ab0615ba6565b60009182526020909120600360049092020101546001600160a01b031614612b265760405162461bcd60e51b815260206004820152602360248201527f596f7520617265206e6f7420746865206f776e6572206f66207468697320697460448201526232b69760e91b6064820152608401610d26565b612b433033836001604051806020016040528060008152506144ce565b6000600d8281548110612b5857612b58615ba6565b60009182526020918290206003600490920201018054921515600160a01b027fffffffffffffffffffffff00ffffffffffffffffffffffffffffffffffffffff90931692909217909155604080513381529182018390527fc9cedcca3d85d6009a562a9e70071f6288adabda9ba7f059589165e75c9cf40491016111b3565b60606000805b600e54811015612c97576000600e8281548110612bfc57612bfc615ba6565b60009182526020918290206040805160e081018252600790930290910180548352600180820154948401949094526002810154918301919091526003810154606083015260048101546001600160a01b03166080830152600581015460a08301526006015460ff16151560c082018190529092501415612c8457612c81600184615a24565b92505b5080612c8f81615b35565b915050612bdd565b5060008167ffffffffffffffff811115612cb357612cb3615bbc565b604051908082528060200260200182016040528015612d2f57816020015b612d1c6040518060e001604052806000815260200160008152602001600081526020016000815260200160006001600160a01b03168152602001600081526020016000151581525090565b815260200190600190039081612cd15790505b5090506000805b600e54811015612e0f576000600e8281548110612d5557612d55615ba6565b60009182526020918290206040805160e081018252600790930290910180548352600180820154948401949094526002810154918301919091526003810154606083015260048101546001600160a01b03166080830152600581015460a08301526006015460ff16151560c082018190529092501415612dfc5780848481518110612de257612de2615ba6565b60200260200101819052508280612df890615b35565b9350505b5080612e0781615b35565b915050612d36565b50909392505050565b3360009081526013602052604090205460ff1615612e9e5760405162461bcd60e51b815260206004820152602a60248201527f5573657220697320616c72656164792063757272656e746c792073656c6c696e60448201527f672061205469636b6574000000000000000000000000000000000000000000006064820152608401610d26565b3360009081526015602052604090205460ff1615612f15573360009081526014602052604090205460ff16612f155760405162461bcd60e51b815260206004820152601d60248201527f5573657220686173206e6f74207469636b6574206176616c6961626c650000006044820152606401610d26565b6040805160e081018252600a8054825260208201868152928201858152606083018581523360808501908152600060a08601818152600160c08801818152600e80549283018155845297517fbb7b4a454dc3493923482f07822329ed19e8244eff582cc204f8554c3620c3fd60079092029182015597517fbb7b4a454dc3493923482f07822329ed19e8244eff582cc204f8554c3620c3fe89015593517fbb7b4a454dc3493923482f07822329ed19e8244eff582cc204f8554c3620c3ff88015591517fbb7b4a454dc3493923482f07822329ed19e8244eff582cc204f8554c3620c400870155517fbb7b4a454dc3493923482f07822329ed19e8244eff582cc204f8554c3620c401860180547fffffffffffffffffffffffff0000000000000000000000000000000000000000166001600160a01b0390921691909117905590517fbb7b4a454dc3493923482f07822329ed19e8244eff582cc204f8554c3620c40285015591517fbb7b4a454dc3493923482f07822329ed19e8244eff582cc204f8554c3620c403909301805460ff191693151593909317909255815491906130be83615b35565b90915550503360008181526013602090815260408083208054600160ff199182168117909255601584528285208054821690921790915560148352928190208054909316909255815192835282018590528101839052606081018290527f07814713aba2e13eb5f2470225f7395d33fad1452b70f8427dae73e4d3a593449060800161189d565b60606000805b600d548110156131f5576000600d828154811061316a5761316a615ba6565b60009182526020918290206040805160a08101825260049093029091018054835260018082015494840194909452600281015491830191909152600301546001600160a01b038116606083015260ff600160a01b9091041615156080820181905290925014156131e2576131df600184615a24565b92505b50806131ed81615b35565b91505061314b565b5060008167ffffffffffffffff81111561321157613211615bbc565b60405190808252806020026020018201604052801561327f57816020015b61326c6040518060a0016040528060008152602001600081526020016000815260200160006001600160a01b031681526020016000151581525090565b81526020019060019003908161322f5790505b5090506000805b600d54811015612e0f576000600d82815481106132a5576132a5615ba6565b60009182526020918290206040805160a08101825260049093029091018054835260018082015494840194909452600281015491830191909152600301546001600160a01b038116606083015260ff600160a01b90910416151560808201819052909250141561333c578084848151811061332257613322615ba6565b6020026020010181905250828061333890615b35565b9350505b508061334781615b35565b915050613286565b6006546001600160a01b031633146133a95760405162461bcd60e51b815260206004820152601560248201527f55736572206973206e6f7420746865206f776e657200000000000000000000006044820152606401610d26565b6005546040516370a0823160e01b81523060048201526000916001600160a01b0316906370a082319060240160206040518083038186803b1580156133ed57600080fd5b505afa158015613401573d6000803e3d6000fd5b505050506040513d601f19601f82011682018060405250810190613425919061555a565b116134725760405162461bcd60e51b815260206004820152601460248201527f4e6f2066756e647320746f2077697468647261770000000000000000000000006044820152606401610d26565b6005546040517fa9059cbb0000000000000000000000000000000000000000000000000000000081526001600160a01b038481166004830152602482018490529091169063a9059cbb90604401602060405180830381600087803b1580156134d957600080fd5b505af11580156134ed573d6000803e3d6000fd5b505050506040513d601f19601f8201168201806040525081019061139291906154c7565b61354e6040518060a0016040528060008152602001600081526020016000815260200160006001600160a01b031681526020016000151581525090565b600d828154811061356157613561615ba6565b60009182526020918290206040805160a0810182526004909302909101805483526001810154938301939093526002830154908201526003909101546001600160a01b038116606083015260ff600160a01b909104161515608082015292915050565b60006135cf826148c9565b6135d857600080fd5b60008281526011602052604081205460075461111a9190615a3c565b60008281526003602052604090206001015461360f8161439f565b611392838361444b565b6136646040518060e001604052806000815260200160008152602001600081526020016000815260200160006001600160a01b03168152602001600081526020016000151581525090565b600e828154811061367757613677615ba6565b60009182526020918290206040805160e0810182526007909302909101805483526001810154938301939093526002830154908201526003820154606082015260048201546001600160a01b03166080820152600582015460a082015260069091015460ff16151560c082015292915050565b6136f333614062565b6137495760405162461bcd60e51b815260206004820152602160248201527f55736572206973206e6f7420746865204f776e6572206f7220616e2041646d696044820152603760f91b6064820152608401610d26565b6000600c54610100900460ff16600181111561376757613767615b90565b141561377e57600c805461ff001916610100179055565b600c805461ff0019169055565b600d818154811061379e5761379e615ba6565b60009182526020909120600490910201600301546001600160a01b03163314156138305760405162461bcd60e51b815260206004820152602360248201527f596f752063616e206e6f742062757920616e206974656d20746f20796f75727360448201527f656c6600000000000000000000000000000000000000000000000000000000006064820152608401610d26565b600d818154811061384357613843615ba6565b906000526020600020906004020160030160149054906101000a900460ff16151560011515146138db5760405162461bcd60e51b815260206004820152602160248201527f54686973206974656d206973206e6f74206f6e2073616c6520616e796d6f726560448201527f2e000000000000000000000000000000000000000000000000000000000000006064820152608401610d26565b600554600d80546001600160a01b03909216916323b872dd9133918590811061390657613906615ba6565b906000526020600020906004020160030160009054906101000a90046001600160a01b0316600d858154811061393e5761393e615ba6565b9060005260206000209060040201600201546040518463ffffffff1660e01b815260040161398d939291906001600160a01b039384168152919092166020820152604081019190915260600190565b602060405180830381600087803b1580156139a757600080fd5b505af11580156139bb573d6000803e3d6000fd5b505050506040513d601f19601f820116820180604052508101906139df91906154c7565b50613a58600d82815481106139f6576139f6615ba6565b906000526020600020906004020160030160009054906101000a90046001600160a01b031633600d8481548110613a2f57613a2f615ba6565b9060005260206000209060040201600001546001604051806020016040528060008152506144ce565b6000600d8281548110613a6d57613a6d615ba6565b906000526020600020906004020160030160009054906101000a90046001600160a01b0316905033600d8381548110613aa857613aa8615ba6565b906000526020600020906004020160030160006101000a8154816001600160a01b0302191690836001600160a01b031602179055506000600d8381548110613af257613af2615ba6565b906000526020600020906004020160030160146101000a81548160ff0219169083151502179055507f642067ff529c9b5b1162502fc8e8a3a91dda56e126a84f2fe38d341236231a82338284600d8681548110613b5157613b51615ba6565b600091825260209182902060026004909202010154604080516001600160a01b0396871681529590941691850191909152918301526060820152608001610f29565b3360009081526013602052604090205460ff16613c015760405162461bcd60e51b815260206004820152602660248201527f55736572206973206e6f742063757272656e746c792073656c6c696e67206120604482015265151a58dad95d60d21b6064820152608401610d26565b336001600160a01b0316600e8481548110613c1e57613c1e615ba6565b60009182526020909120600460079092020101546001600160a01b031614613c885760405162461bcd60e51b815260206004820181905260248201527f55736572206973206e6f74206f776e6572206f662074686973207469636b65746044820152606401610d26565b80600e8481548110613c9c57613c9c615ba6565b90600052602060002090600702016003018190555081600e8481548110613cc557613cc5615ba6565b6000918252602091829020600160079092020101919091556040805133815291820184905281018290527f4dfa55e7e1af9cb25343bfcd39c4bcb1f066d75ebe9b67988cf1496f06dedfef9060600161189d565b6001600160a01b038516331480613d355750613d358533610bdc565b613da75760405162461bcd60e51b815260206004820152602960248201527f455243313135353a2063616c6c6572206973206e6f74206f776e6572206e6f7260448201527f20617070726f76656400000000000000000000000000000000000000000000006064820152608401610d26565b61136685858585856144ce565b6060600060085467ffffffffffffffff811115613dd357613dd3615bbc565b604051908082528060200260200182016040528015613dfc578160200160208202803683370190505b50905060005b8151811015613e4457613e158482610cac565b828281518110613e2757613e27615ba6565b602090810291909101015280613e3c81615b35565b915050613e02565b5092915050565b60006001600160e01b031982167f7965db0b000000000000000000000000000000000000000000000000000000001480610d525750610d52826148e1565b6001600160a01b038316613f055760405162461bcd60e51b815260206004820152602360248201527f455243313135353a206275726e2066726f6d20746865207a65726f206164647260448201527f65737300000000000000000000000000000000000000000000000000000000006064820152608401610d26565b336000613f118461491f565b90506000613f1e8461491f565b60408051602080820183526000918290528882528181528282206001600160a01b038b1683529052205490915084811015613fc05760405162461bcd60e51b8152602060048201526024808201527f455243313135353a206275726e20616d6f756e7420657863656564732062616c60448201527f616e6365000000000000000000000000000000000000000000000000000000006064820152608401610d26565b6000868152602081815260408083206001600160a01b038b81168086529184528285208a8703905582518b81529384018a90529092908816917fc3d58168c5ae7397731d063d5bbf3d657854427343f4c083240f7aacaa2d0f62910160405180910390a46040805160208101909152600090525b50505050505050565b8060008151811061405057614050615ba6565b6020026020010151600f819055505050565b6006546000906001600160a01b03838116911614806140b857506001600160a01b03821660009081527f3617319a054d772f909f7c479a2cebe5066e836a939412e32403c99029b92eff602052604090205460ff165b61277a57600080fd5b6140de82600854836040518060200160405280600081525061496a565b6140f76008548260009182526011602052604090912055565b80600760008282546141099190615a24565b925050819055506001600860008282546141239190615a24565b90915550505050565b81518351146141a35760405162461bcd60e51b815260206004820152602860248201527f455243313135353a2069647320616e6420616d6f756e7473206c656e6774682060448201527f6d69736d617463680000000000000000000000000000000000000000000000006064820152608401610d26565b6001600160a01b0384166142075760405162461bcd60e51b815260206004820152602560248201527f455243313135353a207472616e7366657220746f20746865207a65726f206164604482015264647265737360d81b6064820152608401610d26565b3360005b845181101561433157600085828151811061422857614228615ba6565b60200260200101519050600085838151811061424657614246615ba6565b602090810291909101810151600084815280835260408082206001600160a01b038e1683529093529190912054909150818110156142d95760405162461bcd60e51b815260206004820152602a60248201527f455243313135353a20696e73756666696369656e742062616c616e636520666f60448201526939103a3930b739b332b960b11b6064820152608401610d26565b6000838152602081815260408083206001600160a01b038e8116855292528083208585039055908b16825281208054849290614316908490615a24565b925050819055505050508061432a90615b35565b905061420b565b50846001600160a01b0316866001600160a01b0316826001600160a01b03167f4a39dc06d4c0dbc64b70af90fd698a233a518aa5d07e595d983b8c0526c8f7fb87876040516143819291906158fb565b60405180910390a4614397818787878787614a91565b505050505050565b6112c88133614c46565b60008281526003602090815260408083206001600160a01b038516845290915290205460ff1661125b5760008281526003602090815260408083206001600160a01b03851684529091529020805460ff191660011790556144073390565b6001600160a01b0316816001600160a01b0316837f2f8788117e7eff1d82e926ec794901d17c78024a50270940304540a733656f0d60405160405180910390a45050565b60008281526003602090815260408083206001600160a01b038516845290915290205460ff161561125b5760008281526003602090815260408083206001600160a01b0385168085529252808320805460ff1916905551339285917ff6391f5c32d9c69d2a47ea670b442974b53935d1edc7fd64eb21e047a839171b9190a45050565b6001600160a01b0384166145325760405162461bcd60e51b815260206004820152602560248201527f455243313135353a207472616e7366657220746f20746865207a65726f206164604482015264647265737360d81b6064820152608401610d26565b33600061453e8561491f565b9050600061454b8561491f565b90506000868152602081815260408083206001600160a01b038c168452909152902054858110156145d15760405162461bcd60e51b815260206004820152602a60248201527f455243313135353a20696e73756666696369656e742062616c616e636520666f60448201526939103a3930b739b332b960b11b6064820152608401610d26565b6000878152602081815260408083206001600160a01b038d8116855292528083208985039055908a1682528120805488929061460e908490615a24565b909155505060408051888152602081018890526001600160a01b03808b16928c821692918816917fc3d58168c5ae7397731d063d5bbf3d657854427343f4c083240f7aacaa2d0f62910160405180910390a461466e848a8a8a8a8a614cc6565b505050505050505050565b60005b600e5481101561125b57816001600160a01b0316600e82815481106146a3576146a3615ba6565b60009182526020909120600460079092020101546001600160a01b031614156147b857600e81815481106146d9576146d9615ba6565b90600052602060002090600702016001015460011461472d57600e818154811061470557614705615ba6565b60009182526020822060016007909202010180549161472383615ab6565b91905055506147b8565b600e818154811061474057614740615ba6565b60009182526020822060016007909202010180549161475e83615ab6565b91905055506000600e828154811061477857614778615ba6565b60009182526020808320600660079093020191909101805493151560ff199485161790556001600160a01b03851682526014905260409020805490911690555b806147c281615b35565b91505061467c565b61125b82826143a9565b816001600160a01b0316836001600160a01b0316141561485c5760405162461bcd60e51b815260206004820152602960248201527f455243313135353a2073657474696e6720617070726f76616c2073746174757360448201527f20666f722073656c6600000000000000000000000000000000000000000000006064820152608401610d26565b6001600160a01b03838116600081815260016020908152604080832094871680845294825291829020805460ff191686151590811790915591519182527f17307eab39ab6107e8899845ad3d59bd9653f200f220920489ca2b5937696c31910160405180910390a3505050565b60008181526011602052604081205461277a57600080fd5b60006001600160e01b031982167f4e2312e0000000000000000000000000000000000000000000000000000000001480610d525750610d5282614dd1565b6040805160018082528183019092526060916000919060208083019080368337019050509050828160008151811061495957614959615ba6565b602090810291909101015292915050565b6001600160a01b0384166149e65760405162461bcd60e51b815260206004820152602160248201527f455243313135353a206d696e7420746f20746865207a65726f2061646472657360448201527f73000000000000000000000000000000000000000000000000000000000000006064820152608401610d26565b3360006149f28561491f565b905060006149ff8561491f565b90506000868152602081815260408083206001600160a01b038b16845290915281208054879290614a31908490615a24565b909155505060408051878152602081018790526001600160a01b03808a1692600092918716917fc3d58168c5ae7397731d063d5bbf3d657854427343f4c083240f7aacaa2d0f62910160405180910390a461403483600089898989614cc6565b6001600160a01b0384163b156143975760405163bc197c8160e01b81526001600160a01b0385169063bc197c8190614ad59089908990889088908890600401615737565b602060405180830381600087803b158015614aef57600080fd5b505af1925050508015614b1f575060408051601f3d908101601f19168201909252614b1c9181019061553d565b60015b614bd557614b2b615bd2565b806308c379a01415614b655750614b40615bee565b80614b4b5750614b67565b8060405162461bcd60e51b8152600401610d269190615951565b505b60405162461bcd60e51b815260206004820152603460248201527f455243313135353a207472616e7366657220746f206e6f6e204552433131353560448201527f526563656976657220696d706c656d656e7465720000000000000000000000006064820152608401610d26565b6001600160e01b0319811663bc197c8160e01b146140345760405162461bcd60e51b815260206004820152602860248201527f455243313135353a204552433131353552656365697665722072656a656374656044820152676420746f6b656e7360c01b6064820152608401610d26565b60008281526003602090815260408083206001600160a01b038516845290915290205460ff1661125b57614c84816001600160a01b03166014614e6c565b614c8f836020614e6c565b604051602001614ca09291906156b6565b60408051601f198184030181529082905262461bcd60e51b8252610d2691600401615951565b6001600160a01b0384163b156143975760405163f23a6e6160e01b81526001600160a01b0385169063f23a6e6190614d0a9089908990889088908890600401615795565b602060405180830381600087803b158015614d2457600080fd5b505af1925050508015614d54575060408051601f3d908101601f19168201909252614d519181019061553d565b60015b614d6057614b2b615bd2565b6001600160e01b0319811663f23a6e6160e01b146140345760405162461bcd60e51b815260206004820152602860248201527f455243313135353a204552433131353552656365697665722072656a656374656044820152676420746f6b656e7360c01b6064820152608401610d26565b60006001600160e01b031982167fd9b67a26000000000000000000000000000000000000000000000000000000001480614e3457506001600160e01b031982167f0e89341c00000000000000000000000000000000000000000000000000000000145b80610d5257507f01ffc9a7000000000000000000000000000000000000000000000000000000006001600160e01b0319831614610d52565b60606000614e7b836002615a50565b614e86906002615a24565b67ffffffffffffffff811115614e9e57614e9e615bbc565b6040519080825280601f01601f191660200182016040528015614ec8576020820181803683370190505b5090507f300000000000000000000000000000000000000000000000000000000000000081600081518110614eff57614eff615ba6565b60200101906001600160f81b031916908160001a9053507f780000000000000000000000000000000000000000000000000000000000000081600181518110614f4a57614f4a615ba6565b60200101906001600160f81b031916908160001a9053506000614f6e846002615a50565b614f79906001615a24565b90505b6001811115614ffe577f303132333435363738396162636465660000000000000000000000000000000085600f1660108110614fba57614fba615ba6565b1a60f81b828281518110614fd057614fd0615ba6565b60200101906001600160f81b031916908160001a90535060049490941c93614ff781615ab6565b9050614f7c565b50831561111a5760405162461bcd60e51b815260206004820181905260248201527f537472696e67733a20686578206c656e67746820696e73756666696369656e746044820152606401610d26565b82805461505990615acd565b90600052602060002090601f01602090048101928261507b57600085556150c1565b82601f1061509457805160ff19168380011785556150c1565b828001600101855582156150c1579182015b828111156150c15782518255916020019190600101906150a6565b506150cd9291506150d1565b5090565b5b808211156150cd57600081556001016150d2565b600067ffffffffffffffff83111561510057615100615bbc565b604051615117601f8501601f191660200182615b08565b80915083815284848401111561512c57600080fd5b83836020830137600060208583010152509392505050565b80356001600160a01b038116811461515b57600080fd5b919050565b600082601f83011261517157600080fd5b8135602061517e82615a00565b60405161518b8282615b08565b8381528281019150858301600585901b870184018810156151ab57600080fd5b60005b858110156151d1576151bf82615144565b845292840192908401906001016151ae565b5090979650505050505050565b600082601f8301126151ef57600080fd5b813560206151fc82615a00565b6040516152098282615b08565b8381528281019150858301600585901b8701840188101561522957600080fd5b60005b858110156151d15781358452928401929084019060010161522c565b600082601f83011261525957600080fd5b61111a838335602085016150e6565b60006020828403121561527a57600080fd5b61111a82615144565b6000806040838503121561529657600080fd5b61529f83615144565b91506152ad60208401615144565b90509250929050565b600080600080600060a086880312156152ce57600080fd5b6152d786615144565b94506152e560208701615144565b9350604086013567ffffffffffffffff8082111561530257600080fd5b61530e89838a016151de565b9450606088013591508082111561532457600080fd5b61533089838a016151de565b9350608088013591508082111561534657600080fd5b5061535388828901615248565b9150509295509295909350565b600080600080600060a0868803121561537857600080fd5b61538186615144565b945061538f60208701615144565b93506040860135925060608601359150608086013567ffffffffffffffff8111156153b957600080fd5b61535388828901615248565b600080604083850312156153d857600080fd5b6153e183615144565b915060208301356153f181615c78565b809150509250929050565b6000806040838503121561540f57600080fd5b61541883615144565b946020939093013593505050565b60006020828403121561543857600080fd5b813567ffffffffffffffff81111561544f57600080fd5b61545b84828501615160565b949350505050565b6000806040838503121561547657600080fd5b823567ffffffffffffffff8082111561548e57600080fd5b61549a86838701615160565b935060208501359150808211156154b057600080fd5b506154bd858286016151de565b9150509250929050565b6000602082840312156154d957600080fd5b815161111a81615c78565b6000602082840312156154f657600080fd5b5035919050565b6000806040838503121561551057600080fd5b823591506152ad60208401615144565b60006020828403121561553257600080fd5b813561111a81615c86565b60006020828403121561554f57600080fd5b815161111a81615c86565b60006020828403121561556c57600080fd5b5051919050565b6000806040838503121561558657600080fd5b82359150602083013567ffffffffffffffff8111156155a457600080fd5b6154bd858286016151de565b600080604083850312156155c357600080fd5b82359150602083013567ffffffffffffffff8111156155e157600080fd5b8301601f810185136155f257600080fd5b6154bd858235602084016150e6565b6000806040838503121561561457600080fd5b50508035926020909101359150565b60008060006060848603121561563857600080fd5b505081359360208301359350604090920135919050565b600081518084526020808501945080840160005b8381101561567f57815187529582019590820190600101615663565b509495945050505050565b600081518084526156a2816020860160208601615a86565b601f01601f19169290920160200192915050565b7f416363657373436f6e74726f6c3a206163636f756e74200000000000000000008152600083516156ee816017850160208801615a86565b7f206973206d697373696e6720726f6c6520000000000000000000000000000000601791840191820152835161572b816028840160208801615a86565b01602801949350505050565b60006001600160a01b03808816835280871660208401525060a0604083015261576360a083018661564f565b8281036060840152615775818661564f565b90508281036080840152615789818561568a565b98975050505050505050565b60006001600160a01b03808816835280871660208401525084604083015283606083015260a060808301526157cd60a083018461568a565b979650505050505050565b6020808252825182820181905260009190848201906040850190845b8181101561586457615851838551805182526020810151602083015260408101516040830152606081015160608301526001600160a01b03608082015116608083015260a081015160a083015260c0810151151560c08301525050565b9284019260e092909201916001016157f4565b50909695505050505050565b6020808252825182820181905260009190848201906040850190845b81811015615864576158d58385518051825260208101516020830152604081015160408301526001600160a01b0360608201511660608301526080810151151560808301525050565b9284019260a0929092019160010161588c565b60208152600061111a602083018461564f565b60408152600061590e604083018561564f565b8281036020840152615920818561564f565b95945050505050565b602081016002831061594b57634e487b7160e01b600052602160045260246000fd5b91905290565b60208152600061111a602083018461568a565b60e08101610d528284805182526020810151602083015260408101516040830152606081015160608301526001600160a01b03608082015116608083015260a081015160a083015260c0810151151560c08301525050565b60a08101610d5282848051825260208101516020830152604081015160408301526001600160a01b0360608201511660608301526080810151151560808301525050565b600067ffffffffffffffff821115615a1a57615a1a615bbc565b5060051b60200190565b60008219821115615a3757615a37615b64565b500190565b600082615a4b57615a4b615b7a565b500490565b6000816000190483118215151615615a6a57615a6a615b64565b500290565b600082821015615a8157615a81615b64565b500390565b60005b83811015615aa1578181015183820152602001615a89565b83811115615ab0576000848401525b50505050565b600081615ac557615ac5615b64565b506000190190565b600181811c90821680615ae157607f821691505b60208210811415615b0257634e487b7160e01b600052602260045260246000fd5b50919050565b601f8201601f1916810167ffffffffffffffff81118282101715615b2e57615b2e615bbc565b6040525050565b6000600019821415615b4957615b49615b64565b5060010190565b600082615b5f57615b5f615b7a565b500690565b634e487b7160e01b600052601160045260246000fd5b634e487b7160e01b600052601260045260246000fd5b634e487b7160e01b600052602160045260246000fd5b634e487b7160e01b600052603260045260246000fd5b634e487b7160e01b600052604160045260246000fd5b600060033d1115615beb5760046000803e5060005160e01c5b90565b600060443d1015615bfc5790565b6040516003193d81016004833e81513d67ffffffffffffffff8160248401118184111715615c2c57505050505090565b8285019150815181811115615c445750505050505090565b843d8701016020828501011115615c5e5750505050505090565b615c6d60208286010187615b08565b509095945050505050565b80151581146112c857600080fd5b6001600160e01b0319811681146112c857600080fdfea26469706673582212207fad9566525364805b5ebd2f49ab28d0bba6b2609b7c4c8e9ca2052000138e2c64736f6c63430008070033",
  "linkReferences": {},
  "deployedLinkReferences": {}
}