{
  "_format": "hh-sol-artifact-1",
  "contractName": "RacksItemsv3",
  "sourceName": "contracts/RacksItemsv3.sol",
  "abi": [
    {
      "inputs": [
        {
          "internalType": "address",
          "name": "vrfCoordinatorV2",
          "type": "address"
        },
        {
          "internalType": "bytes32",
          "name": "gasLane",
          "type": "bytes32"
        },
        {
          "internalType": "uint64",
          "name": "subscriptionId",
          "type": "uint64"
        },
        {
          "internalType": "uint32",
          "name": "callbackGasLimit",
          "type": "uint32"
        },
        {
          "internalType": "address",
          "name": "_racksTokenAddress",
          "type": "address"
        },
        {
          "internalType": "address",
          "name": "_MockMrCryptoAddress",
          "type": "address"
        }
      ],
      "stateMutability": "nonpayable",
      "type": "constructor"
    },
    {
      "inputs": [
        {
          "internalType": "address",
          "name": "have",
          "type": "address"
        },
        {
          "internalType": "address",
          "name": "want",
          "type": "address"
        }
      ],
      "name": "OnlyCoordinatorCanFulfill",
      "type": "error"
    },
    {
      "anonymous": false,
      "inputs": [
        {
          "indexed": true,
          "internalType": "address",
          "name": "account",
          "type": "address"
        },
        {
          "indexed": true,
          "internalType": "address",
          "name": "operator",
          "type": "address"
        },
        {
          "indexed": false,
          "internalType": "bool",
          "name": "approved",
          "type": "bool"
        }
      ],
      "name": "ApprovalForAll",
      "type": "event"
    },
    {
      "anonymous": false,
      "inputs": [
        {
          "indexed": false,
          "internalType": "address",
          "name": "user",
          "type": "address"
        },
        {
          "indexed": false,
          "internalType": "uint256",
          "name": "casePrice",
          "type": "uint256"
        },
        {
          "indexed": false,
          "internalType": "uint256",
          "name": "item",
          "type": "uint256"
        }
      ],
      "name": "CaseOpened",
      "type": "event"
    },
    {
      "anonymous": false,
      "inputs": [
        {
          "indexed": true,
          "internalType": "bytes32",
          "name": "role",
          "type": "bytes32"
        },
        {
          "indexed": true,
          "internalType": "bytes32",
          "name": "previousAdminRole",
          "type": "bytes32"
        },
        {
          "indexed": true,
          "internalType": "bytes32",
          "name": "newAdminRole",
          "type": "bytes32"
        }
      ],
      "name": "RoleAdminChanged",
      "type": "event"
    },
    {
      "anonymous": false,
      "inputs": [
        {
          "indexed": true,
          "internalType": "bytes32",
          "name": "role",
          "type": "bytes32"
        },
        {
          "indexed": true,
          "internalType": "address",
          "name": "account",
          "type": "address"
        },
        {
          "indexed": true,
          "internalType": "address",
          "name": "sender",
          "type": "address"
        }
      ],
      "name": "RoleGranted",
      "type": "event"
    },
    {
      "anonymous": false,
      "inputs": [
        {
          "indexed": true,
          "internalType": "bytes32",
          "name": "role",
          "type": "bytes32"
        },
        {
          "indexed": true,
          "internalType": "address",
          "name": "account",
          "type": "address"
        },
        {
          "indexed": true,
          "internalType": "address",
          "name": "sender",
          "type": "address"
        }
      ],
      "name": "RoleRevoked",
      "type": "event"
    },
    {
      "anonymous": false,
      "inputs": [
        {
          "indexed": true,
          "internalType": "address",
          "name": "operator",
          "type": "address"
        },
        {
          "indexed": true,
          "internalType": "address",
          "name": "from",
          "type": "address"
        },
        {
          "indexed": true,
          "internalType": "address",
          "name": "to",
          "type": "address"
        },
        {
          "indexed": false,
          "internalType": "uint256[]",
          "name": "ids",
          "type": "uint256[]"
        },
        {
          "indexed": false,
          "internalType": "uint256[]",
          "name": "values",
          "type": "uint256[]"
        }
      ],
      "name": "TransferBatch",
      "type": "event"
    },
    {
      "anonymous": false,
      "inputs": [
        {
          "indexed": true,
          "internalType": "address",
          "name": "operator",
          "type": "address"
        },
        {
          "indexed": true,
          "internalType": "address",
          "name": "from",
          "type": "address"
        },
        {
          "indexed": true,
          "internalType": "address",
          "name": "to",
          "type": "address"
        },
        {
          "indexed": false,
          "internalType": "uint256",
          "name": "id",
          "type": "uint256"
        },
        {
          "indexed": false,
          "internalType": "uint256",
          "name": "value",
          "type": "uint256"
        }
      ],
      "name": "TransferSingle",
      "type": "event"
    },
    {
      "anonymous": false,
      "inputs": [
        {
          "indexed": false,
          "internalType": "string",
          "name": "value",
          "type": "string"
        },
        {
          "indexed": true,
          "internalType": "uint256",
          "name": "id",
          "type": "uint256"
        }
      ],
      "name": "URI",
      "type": "event"
    },
    {
      "anonymous": false,
      "inputs": [
        {
          "indexed": false,
          "internalType": "uint256",
          "name": "newPrice",
          "type": "uint256"
        }
      ],
      "name": "casePriceChanged",
      "type": "event"
    },
    {
      "anonymous": false,
      "inputs": [
        {
          "indexed": false,
          "internalType": "address",
          "name": "buyer",
          "type": "address"
        },
        {
          "indexed": false,
          "internalType": "address",
          "name": "seller",
          "type": "address"
        },
        {
          "indexed": false,
          "internalType": "uint256",
          "name": "marketItemId",
          "type": "uint256"
        },
        {
          "indexed": false,
          "internalType": "uint256",
          "name": "price",
          "type": "uint256"
        }
      ],
      "name": "itemBought",
      "type": "event"
    },
    {
      "anonymous": false,
      "inputs": [
        {
          "indexed": false,
          "internalType": "address",
          "name": "user",
          "type": "address"
        },
        {
          "indexed": false,
          "internalType": "uint256",
          "name": "tokenId",
          "type": "uint256"
        }
      ],
      "name": "itemExchanged",
      "type": "event"
    },
    {
      "anonymous": false,
      "inputs": [
        {
          "indexed": false,
          "internalType": "address",
          "name": "owner",
          "type": "address"
        },
        {
          "indexed": false,
          "internalType": "uint256",
          "name": "marketItemId",
          "type": "uint256"
        },
        {
          "indexed": false,
          "internalType": "uint256",
          "name": "oldPrice",
          "type": "uint256"
        },
        {
          "indexed": false,
          "internalType": "uint256",
          "name": "newPrice",
          "type": "uint256"
        }
      ],
      "name": "itemPriceChanged",
      "type": "event"
    },
    {
      "anonymous": false,
      "inputs": [
        {
          "indexed": false,
          "internalType": "address",
          "name": "seller",
          "type": "address"
        },
        {
          "indexed": false,
          "internalType": "uint256",
          "name": "numTries",
          "type": "uint256"
        },
        {
          "indexed": false,
          "internalType": "uint256",
          "name": "_hours",
          "type": "uint256"
        },
        {
          "indexed": false,
          "internalType": "uint256",
          "name": "price",
          "type": "uint256"
        }
      ],
      "name": "newTicketOnSale",
      "type": "event"
    },
    {
      "anonymous": false,
      "inputs": [
        {
          "indexed": false,
          "internalType": "address",
          "name": "user",
          "type": "address"
        },
        {
          "indexed": false,
          "internalType": "uint256",
          "name": "tokenId",
          "type": "uint256"
        },
        {
          "indexed": false,
          "internalType": "uint256",
          "name": "price",
          "type": "uint256"
        }
      ],
      "name": "sellingItem",
      "type": "event"
    },
    {
      "anonymous": false,
      "inputs": [
        {
          "indexed": false,
          "internalType": "uint256",
          "name": "ticketId",
          "type": "uint256"
        },
        {
          "indexed": false,
          "internalType": "address",
          "name": "oldOwner",
          "type": "address"
        },
        {
          "indexed": false,
          "internalType": "address",
          "name": "newOwner",
          "type": "address"
        },
        {
          "indexed": false,
          "internalType": "uint256",
          "name": "price",
          "type": "uint256"
        }
      ],
      "name": "ticketBought",
      "type": "event"
    },
    {
      "anonymous": false,
      "inputs": [
        {
          "indexed": false,
          "internalType": "address",
          "name": "borrower",
          "type": "address"
        },
        {
          "indexed": false,
          "internalType": "address",
          "name": "realOwner",
          "type": "address"
        }
      ],
      "name": "ticketClaimedBack",
      "type": "event"
    },
    {
      "anonymous": false,
      "inputs": [
        {
          "indexed": false,
          "internalType": "address",
          "name": "owner",
          "type": "address"
        },
        {
          "indexed": false,
          "internalType": "uint256",
          "name": "newTries",
          "type": "uint256"
        },
        {
          "indexed": false,
          "internalType": "uint256",
          "name": "newHours",
          "type": "uint256"
        },
        {
          "indexed": false,
          "internalType": "uint256",
          "name": "newPrice",
          "type": "uint256"
        }
      ],
      "name": "ticketConditionsChanged",
      "type": "event"
    },
    {
      "anonymous": false,
      "inputs": [
        {
          "indexed": false,
          "internalType": "address",
          "name": "owner",
          "type": "address"
        }
      ],
      "name": "unListTicketOnSale",
      "type": "event"
    },
    {
      "anonymous": false,
      "inputs": [
        {
          "indexed": false,
          "internalType": "address",
          "name": "owner",
          "type": "address"
        },
        {
          "indexed": false,
          "internalType": "uint256",
          "name": "marketItemId",
          "type": "uint256"
        }
      ],
      "name": "unListedItem",
      "type": "event"
    },
    {
      "inputs": [],
      "name": "ADMIN_ROLE",
      "outputs": [
        {
          "internalType": "bytes32",
          "name": "",
          "type": "bytes32"
        }
      ],
      "stateMutability": "view",
      "type": "function"
    },
    {
      "inputs": [],
      "name": "DEFAULT_ADMIN_ROLE",
      "outputs": [
        {
          "internalType": "bytes32",
          "name": "",
          "type": "bytes32"
        }
      ],
      "stateMutability": "view",
      "type": "function"
    },
    {
      "inputs": [],
      "name": "NUM_WORDS",
      "outputs": [
        {
          "internalType": "uint32",
          "name": "",
          "type": "uint32"
        }
      ],
      "stateMutability": "view",
      "type": "function"
    },
    {
      "inputs": [],
      "name": "REQUEST_CONFIRMATIONS",
      "outputs": [
        {
          "internalType": "uint16",
          "name": "",
          "type": "uint16"
        }
      ],
      "stateMutability": "view",
      "type": "function"
    },
    {
      "inputs": [],
      "name": "_randomNumber",
      "outputs": [
        {
          "internalType": "uint256",
          "name": "",
          "type": "uint256"
        }
      ],
      "stateMutability": "nonpayable",
      "type": "function"
    },
    {
      "inputs": [
        {
          "internalType": "uint256",
          "name": "tokenId",
          "type": "uint256"
        }
      ],
      "name": "_rarityOfItem",
      "outputs": [
        {
          "internalType": "uint256",
          "name": "",
          "type": "uint256"
        }
      ],
      "stateMutability": "view",
      "type": "function"
    },
    {
      "inputs": [
        {
          "internalType": "address",
          "name": "account",
          "type": "address"
        },
        {
          "internalType": "uint256",
          "name": "id",
          "type": "uint256"
        }
      ],
      "name": "balanceOf",
      "outputs": [
        {
          "internalType": "uint256",
          "name": "",
          "type": "uint256"
        }
      ],
      "stateMutability": "view",
      "type": "function"
    },
    {
      "inputs": [
        {
          "internalType": "address[]",
          "name": "accounts",
          "type": "address[]"
        },
        {
          "internalType": "uint256[]",
          "name": "ids",
          "type": "uint256[]"
        }
      ],
      "name": "balanceOfBatch",
      "outputs": [
        {
          "internalType": "uint256[]",
          "name": "",
          "type": "uint256[]"
        }
      ],
      "stateMutability": "view",
      "type": "function"
    },
    {
      "inputs": [
        {
          "internalType": "uint256",
          "name": "marketItemId",
          "type": "uint256"
        }
      ],
      "name": "buyItem",
      "outputs": [],
      "stateMutability": "nonpayable",
      "type": "function"
    },
    {
      "inputs": [
        {
          "internalType": "uint256",
          "name": "ticketId",
          "type": "uint256"
        }
      ],
      "name": "buyTicket",
      "outputs": [],
      "stateMutability": "nonpayable",
      "type": "function"
    },
    {
      "inputs": [],
      "name": "casePrice",
      "outputs": [
        {
          "internalType": "uint256",
          "name": "",
          "type": "uint256"
        }
      ],
      "stateMutability": "view",
      "type": "function"
    },
    {
      "inputs": [
        {
          "internalType": "uint256",
          "name": "marketItemId",
          "type": "uint256"
        },
        {
          "internalType": "uint256",
          "name": "newPrice",
          "type": "uint256"
        }
      ],
      "name": "changeItemPrice",
      "outputs": [],
      "stateMutability": "nonpayable",
      "type": "function"
    },
    {
      "inputs": [
        {
          "internalType": "uint256",
          "name": "ticketId",
          "type": "uint256"
        },
        {
          "internalType": "uint256",
          "name": "newTries",
          "type": "uint256"
        },
        {
          "internalType": "uint256",
          "name": "newHours",
          "type": "uint256"
        },
        {
          "internalType": "uint256",
          "name": "newPrice",
          "type": "uint256"
        }
      ],
      "name": "changeTicketConditions",
      "outputs": [],
      "stateMutability": "nonpayable",
      "type": "function"
    },
    {
      "inputs": [
        {
          "internalType": "uint256",
          "name": "ticketId",
          "type": "uint256"
        }
      ],
      "name": "claimTicketBack",
      "outputs": [],
      "stateMutability": "nonpayable",
      "type": "function"
    },
    {
      "inputs": [],
      "name": "contractActive",
      "outputs": [
        {
          "internalType": "bool",
          "name": "",
          "type": "bool"
        }
      ],
      "stateMutability": "view",
      "type": "function"
    },
    {
      "inputs": [
        {
          "internalType": "uint256",
          "name": "tokenId",
          "type": "uint256"
        }
      ],
      "name": "exchangeItem",
      "outputs": [],
      "stateMutability": "nonpayable",
      "type": "function"
    },
    {
      "inputs": [],
      "name": "flipContractState",
      "outputs": [],
      "stateMutability": "nonpayable",
      "type": "function"
    },
    {
      "inputs": [],
      "name": "getCasePrice",
      "outputs": [
        {
          "internalType": "uint256",
          "name": "",
          "type": "uint256"
        }
      ],
      "stateMutability": "view",
      "type": "function"
    },
    {
      "inputs": [],
      "name": "getITicketsOnSale",
      "outputs": [
        {
          "components": [
            {
              "internalType": "uint256",
              "name": "ticketId",
              "type": "uint256"
            },
            {
              "internalType": "uint256",
              "name": "numTries",
              "type": "uint256"
            },
            {
              "internalType": "uint256",
              "name": "duration",
              "type": "uint256"
            },
            {
              "internalType": "uint256",
              "name": "price",
              "type": "uint256"
            },
            {
              "internalType": "address",
              "name": "owner",
              "type": "address"
            },
            {
              "internalType": "uint256",
              "name": "timeWhenSold",
              "type": "uint256"
            },
            {
              "internalType": "bool",
              "name": "isAvaliable",
              "type": "bool"
            }
          ],
          "internalType": "struct RacksItemsv3.caseTicket[]",
          "name": "",
          "type": "tuple[]"
        }
      ],
      "stateMutability": "view",
      "type": "function"
    },
    {
      "inputs": [],
      "name": "getItemsOnSale",
      "outputs": [
        {
          "components": [
            {
              "internalType": "uint256",
              "name": "tokenId",
              "type": "uint256"
            },
            {
              "internalType": "uint256",
              "name": "marketItemId",
              "type": "uint256"
            },
            {
              "internalType": "uint256",
              "name": "price",
              "type": "uint256"
            },
            {
              "internalType": "address",
              "name": "itemOwner",
              "type": "address"
            },
            {
              "internalType": "bool",
              "name": "isOnSale",
              "type": "bool"
            }
          ],
          "internalType": "struct RacksItemsv3.itemOnSale[]",
          "name": "",
          "type": "tuple[]"
        }
      ],
      "stateMutability": "view",
      "type": "function"
    },
    {
      "inputs": [
        {
          "internalType": "uint256",
          "name": "marketItemId",
          "type": "uint256"
        }
      ],
      "name": "getMarketItem",
      "outputs": [
        {
          "components": [
            {
              "internalType": "uint256",
              "name": "tokenId",
              "type": "uint256"
            },
            {
              "internalType": "uint256",
              "name": "marketItemId",
              "type": "uint256"
            },
            {
              "internalType": "uint256",
              "name": "price",
              "type": "uint256"
            },
            {
              "internalType": "address",
              "name": "itemOwner",
              "type": "address"
            },
            {
              "internalType": "bool",
              "name": "isOnSale",
              "type": "bool"
            }
          ],
          "internalType": "struct RacksItemsv3.itemOnSale",
          "name": "",
          "type": "tuple"
        }
      ],
      "stateMutability": "view",
      "type": "function"
    },
    {
      "inputs": [
        {
          "internalType": "uint256",
          "name": "ticketId",
          "type": "uint256"
        }
      ],
      "name": "getMarketTicket",
      "outputs": [
        {
          "components": [
            {
              "internalType": "uint256",
              "name": "ticketId",
              "type": "uint256"
            },
            {
              "internalType": "uint256",
              "name": "numTries",
              "type": "uint256"
            },
            {
              "internalType": "uint256",
              "name": "duration",
              "type": "uint256"
            },
            {
              "internalType": "uint256",
              "name": "price",
              "type": "uint256"
            },
            {
              "internalType": "address",
              "name": "owner",
              "type": "address"
            },
            {
              "internalType": "uint256",
              "name": "timeWhenSold",
              "type": "uint256"
            },
            {
              "internalType": "bool",
              "name": "isAvaliable",
              "type": "bool"
            }
          ],
          "internalType": "struct RacksItemsv3.caseTicket",
          "name": "",
          "type": "tuple"
        }
      ],
      "stateMutability": "view",
      "type": "function"
    },
    {
      "inputs": [
        {
          "internalType": "bytes32",
          "name": "role",
          "type": "bytes32"
        }
      ],
      "name": "getRoleAdmin",
      "outputs": [
        {
          "internalType": "bytes32",
          "name": "",
          "type": "bytes32"
        }
      ],
      "stateMutability": "view",
      "type": "function"
    },
    {
      "inputs": [
        {
          "internalType": "uint256",
          "name": "ticketId",
          "type": "uint256"
        }
      ],
      "name": "getTicketDurationLeft",
      "outputs": [
        {
          "internalType": "uint256",
          "name": "",
          "type": "uint256"
        }
      ],
      "stateMutability": "view",
      "type": "function"
    },
    {
      "inputs": [
        {
          "internalType": "bytes32",
          "name": "role",
          "type": "bytes32"
        },
        {
          "internalType": "address",
          "name": "account",
          "type": "address"
        }
      ],
      "name": "grantRole",
      "outputs": [],
      "stateMutability": "nonpayable",
      "type": "function"
    },
    {
      "inputs": [
        {
          "internalType": "bytes32",
          "name": "role",
          "type": "bytes32"
        },
        {
          "internalType": "address",
          "name": "account",
          "type": "address"
        }
      ],
      "name": "hasRole",
      "outputs": [
        {
          "internalType": "bool",
          "name": "",
          "type": "bool"
        }
      ],
      "stateMutability": "view",
      "type": "function"
    },
    {
      "inputs": [],
      "name": "i_callbackGasLimit",
      "outputs": [
        {
          "internalType": "uint32",
          "name": "",
          "type": "uint32"
        }
      ],
      "stateMutability": "view",
      "type": "function"
    },
    {
      "inputs": [],
      "name": "i_gasLane",
      "outputs": [
        {
          "internalType": "bytes32",
          "name": "",
          "type": "bytes32"
        }
      ],
      "stateMutability": "view",
      "type": "function"
    },
    {
      "inputs": [],
      "name": "i_subscriptionId",
      "outputs": [
        {
          "internalType": "uint64",
          "name": "",
          "type": "uint64"
        }
      ],
      "stateMutability": "view",
      "type": "function"
    },
    {
      "inputs": [],
      "name": "i_vrfCoordinator",
      "outputs": [
        {
          "internalType": "contract VRFCoordinatorV2Interface",
          "name": "",
          "type": "address"
        }
      ],
      "stateMutability": "view",
      "type": "function"
    },
    {
      "inputs": [
        {
          "internalType": "address",
          "name": "account",
          "type": "address"
        },
        {
          "internalType": "address",
          "name": "operator",
          "type": "address"
        }
      ],
      "name": "isApprovedForAll",
      "outputs": [
        {
          "internalType": "bool",
          "name": "",
          "type": "bool"
        }
      ],
      "stateMutability": "view",
      "type": "function"
    },
    {
      "inputs": [
        {
          "internalType": "address",
          "name": "user",
          "type": "address"
        }
      ],
      "name": "isVip",
      "outputs": [
        {
          "internalType": "bool",
          "name": "",
          "type": "bool"
        }
      ],
      "stateMutability": "view",
      "type": "function"
    },
    {
      "inputs": [
        {
          "internalType": "uint256",
          "name": "itemSupply",
          "type": "uint256"
        }
      ],
      "name": "listItem",
      "outputs": [],
      "stateMutability": "nonpayable",
      "type": "function"
    },
    {
      "inputs": [
        {
          "internalType": "uint256",
          "name": "marketItemId",
          "type": "uint256"
        },
        {
          "internalType": "uint256",
          "name": "price",
          "type": "uint256"
        }
      ],
      "name": "listItemOnMarket",
      "outputs": [],
      "stateMutability": "nonpayable",
      "type": "function"
    },
    {
      "inputs": [
        {
          "internalType": "uint256",
          "name": "numTries",
          "type": "uint256"
        },
        {
          "internalType": "uint256",
          "name": "_hours",
          "type": "uint256"
        },
        {
          "internalType": "uint256",
          "name": "price",
          "type": "uint256"
        }
      ],
      "name": "listTicket",
      "outputs": [],
      "stateMutability": "nonpayable",
      "type": "function"
    },
    {
      "inputs": [
        {
          "internalType": "address",
          "name": "",
          "type": "address"
        },
        {
          "internalType": "address",
          "name": "",
          "type": "address"
        },
        {
          "internalType": "uint256[]",
          "name": "",
          "type": "uint256[]"
        },
        {
          "internalType": "uint256[]",
          "name": "",
          "type": "uint256[]"
        },
        {
          "internalType": "bytes",
          "name": "",
          "type": "bytes"
        }
      ],
      "name": "onERC1155BatchReceived",
      "outputs": [
        {
          "internalType": "bytes4",
          "name": "",
          "type": "bytes4"
        }
      ],
      "stateMutability": "nonpayable",
      "type": "function"
    },
    {
      "inputs": [
        {
          "internalType": "address",
          "name": "",
          "type": "address"
        },
        {
          "internalType": "address",
          "name": "",
          "type": "address"
        },
        {
          "internalType": "uint256",
          "name": "",
          "type": "uint256"
        },
        {
          "internalType": "uint256",
          "name": "",
          "type": "uint256"
        },
        {
          "internalType": "bytes",
          "name": "",
          "type": "bytes"
        }
      ],
      "name": "onERC1155Received",
      "outputs": [
        {
          "internalType": "bytes4",
          "name": "",
          "type": "bytes4"
        }
      ],
      "stateMutability": "nonpayable",
      "type": "function"
    },
    {
      "inputs": [],
      "name": "openCase",
      "outputs": [],
      "stateMutability": "nonpayable",
      "type": "function"
    },
    {
      "inputs": [
        {
          "internalType": "uint256",
          "name": "requestId",
          "type": "uint256"
        },
        {
          "internalType": "uint256[]",
          "name": "randomWords",
          "type": "uint256[]"
        }
      ],
      "name": "rawFulfillRandomWords",
      "outputs": [],
      "stateMutability": "nonpayable",
      "type": "function"
    },
    {
      "inputs": [
        {
          "internalType": "address[]",
          "name": "users",
          "type": "address[]"
        }
      ],
      "name": "removeListRacksMembers",
      "outputs": [],
      "stateMutability": "nonpayable",
      "type": "function"
    },
    {
      "inputs": [
        {
          "internalType": "address",
          "name": "user",
          "type": "address"
        }
      ],
      "name": "removeSingleRacksMember",
      "outputs": [],
      "stateMutability": "nonpayable",
      "type": "function"
    },
    {
      "inputs": [
        {
          "internalType": "bytes32",
          "name": "role",
          "type": "bytes32"
        },
        {
          "internalType": "address",
          "name": "account",
          "type": "address"
        }
      ],
      "name": "renounceRole",
      "outputs": [],
      "stateMutability": "nonpayable",
      "type": "function"
    },
    {
      "inputs": [
        {
          "internalType": "bytes32",
          "name": "role",
          "type": "bytes32"
        },
        {
          "internalType": "address",
          "name": "account",
          "type": "address"
        }
      ],
      "name": "revokeRole",
      "outputs": [],
      "stateMutability": "nonpayable",
      "type": "function"
    },
    {
      "inputs": [],
      "name": "s_contractState",
      "outputs": [
        {
          "internalType": "enum RacksItemsv3.ContractState",
          "name": "",
          "type": "uint8"
        }
      ],
      "stateMutability": "view",
      "type": "function"
    },
    {
      "inputs": [],
      "name": "s_randomWord",
      "outputs": [
        {
          "internalType": "uint256",
          "name": "",
          "type": "uint256"
        }
      ],
      "stateMutability": "view",
      "type": "function"
    },
    {
      "inputs": [
        {
          "internalType": "address",
          "name": "from",
          "type": "address"
        },
        {
          "internalType": "address",
          "name": "to",
          "type": "address"
        },
        {
          "internalType": "uint256[]",
          "name": "ids",
          "type": "uint256[]"
        },
        {
          "internalType": "uint256[]",
          "name": "amounts",
          "type": "uint256[]"
        },
        {
          "internalType": "bytes",
          "name": "data",
          "type": "bytes"
        }
      ],
      "name": "safeBatchTransferFrom",
      "outputs": [],
      "stateMutability": "nonpayable",
      "type": "function"
    },
    {
      "inputs": [
        {
          "internalType": "address",
          "name": "from",
          "type": "address"
        },
        {
          "internalType": "address",
          "name": "to",
          "type": "address"
        },
        {
          "internalType": "uint256",
          "name": "id",
          "type": "uint256"
        },
        {
          "internalType": "uint256",
          "name": "amount",
          "type": "uint256"
        },
        {
          "internalType": "bytes",
          "name": "data",
          "type": "bytes"
        }
      ],
      "name": "safeTransferFrom",
      "outputs": [],
      "stateMutability": "nonpayable",
      "type": "function"
    },
    {
      "inputs": [
        {
          "internalType": "address",
          "name": "_newAdmin",
          "type": "address"
        }
      ],
      "name": "setAdmin",
      "outputs": [],
      "stateMutability": "nonpayable",
      "type": "function"
    },
    {
      "inputs": [
        {
          "internalType": "address",
          "name": "operator",
          "type": "address"
        },
        {
          "internalType": "bool",
          "name": "approved",
          "type": "bool"
        }
      ],
      "name": "setApprovalForAll",
      "outputs": [],
      "stateMutability": "nonpayable",
      "type": "function"
    },
    {
      "inputs": [
        {
          "internalType": "uint256",
          "name": "price",
          "type": "uint256"
        }
      ],
      "name": "setCasePrice",
      "outputs": [],
      "stateMutability": "nonpayable",
      "type": "function"
    },
    {
      "inputs": [
        {
          "internalType": "address[]",
          "name": "users",
          "type": "address[]"
        }
      ],
      "name": "setListRacksMembers",
      "outputs": [],
      "stateMutability": "nonpayable",
      "type": "function"
    },
    {
      "inputs": [
        {
          "internalType": "address",
          "name": "user",
          "type": "address"
        }
      ],
      "name": "setSingleRacksMember",
      "outputs": [],
      "stateMutability": "nonpayable",
      "type": "function"
    },
    {
      "inputs": [
        {
          "internalType": "uint256",
          "name": "tokenId",
          "type": "uint256"
        },
        {
          "internalType": "string",
          "name": "_uri",
          "type": "string"
        }
      ],
      "name": "setTokenUri",
      "outputs": [],
      "stateMutability": "nonpayable",
      "type": "function"
    },
    {
      "inputs": [
        {
          "internalType": "uint256",
          "name": "tokenId",
          "type": "uint256"
        }
      ],
      "name": "supplyOfItem",
      "outputs": [
        {
          "internalType": "uint256",
          "name": "",
          "type": "uint256"
        }
      ],
      "stateMutability": "view",
      "type": "function"
    },
    {
      "inputs": [
        {
          "internalType": "bytes4",
          "name": "interfaceId",
          "type": "bytes4"
        }
      ],
      "name": "supportsInterface",
      "outputs": [
        {
          "internalType": "bool",
          "name": "",
          "type": "bool"
        }
      ],
      "stateMutability": "view",
      "type": "function"
    },
    {
      "inputs": [
        {
          "internalType": "uint256",
          "name": "marketItemId",
          "type": "uint256"
        }
      ],
      "name": "unListItem",
      "outputs": [],
      "stateMutability": "nonpayable",
      "type": "function"
    },
    {
      "inputs": [
        {
          "internalType": "uint256",
          "name": "ticketId",
          "type": "uint256"
        }
      ],
      "name": "unListTicket",
      "outputs": [],
      "stateMutability": "nonpayable",
      "type": "function"
    },
    {
      "inputs": [
        {
          "internalType": "uint256",
          "name": "tokenId",
          "type": "uint256"
        }
      ],
      "name": "uri",
      "outputs": [
        {
          "internalType": "string",
          "name": "",
          "type": "string"
        }
      ],
      "stateMutability": "view",
      "type": "function"
    },
    {
      "inputs": [
        {
          "internalType": "address",
          "name": "owner",
          "type": "address"
        }
      ],
      "name": "viewItems",
      "outputs": [
        {
          "internalType": "uint256[]",
          "name": "",
          "type": "uint256[]"
        }
      ],
      "stateMutability": "view",
      "type": "function"
    },
    {
      "inputs": [
        {
          "internalType": "address",
          "name": "wallet",
          "type": "address"
        }
      ],
      "name": "withdrawAllFunds",
      "outputs": [],
      "stateMutability": "nonpayable",
      "type": "function"
    },
    {
      "inputs": [
        {
          "internalType": "address",
          "name": "wallet",
          "type": "address"
        },
        {
          "internalType": "uint256",
          "name": "amount",
          "type": "uint256"
        }
      ],
      "name": "withdrawFunds",
      "outputs": [],
      "stateMutability": "nonpayable",
      "type": "function"
    },
    {
      "stateMutability": "payable",
      "type": "receive"
    }
  ],
  "bytecode": "0x610120604052600c805460ff191660011790553480156200001f57600080fd5b5060405162006211380380620062118339810160408190526200004291620001de565b60408051602081019091526000815286906200005e8162000102565b506001600160601b0319606091821b811660805296901b90951660a05260c09384526001600160c01b03199290931b9190911660e09081526001600160e01b031991901b1661010052600480546001600160a01b039384166001600160a01b0319918216179091556005805493909216928116929092179055600680549091163317905560006008819055600a556001600b55600c805461ff0019169055620002ac565b8051620001179060029060208401906200011b565b5050565b82805462000129906200026f565b90600052602060002090601f0160209004810192826200014d576000855562000198565b82601f106200016857805160ff191683800117855562000198565b8280016001018555821562000198579182015b82811115620001985782518255916020019190600101906200017b565b50620001a6929150620001aa565b5090565b5b80821115620001a65760008155600101620001ab565b80516001600160a01b0381168114620001d957600080fd5b919050565b60008060008060008060c08789031215620001f857600080fd5b6200020387620001c1565b6020880151604089015191975095506001600160401b03811681146200022857600080fd5b606088015190945063ffffffff811681146200024357600080fd5b92506200025360808801620001c1565b91506200026360a08801620001c1565b90509295509295509295565b600181811c908216806200028457607f821691505b60208210811415620002a657634e487b7160e01b600052602260045260246000fd5b50919050565b60805160601c60a05160601c60c05160e05160c01c6101005160e01c615ef16200032060003960008181610b100152611f4b0152600081816105f20152611f1801526000818161085d0152611ee901526000818161094c0152611f860152600081816113d3015261142e0152615ef16000f3fe6080604052600436106103a55760003560e01c806389165aa9116101e7578063bc197c811161010d578063de08f653116100a0578063f23a6e611161006f578063f23a6e6114610bf7578063f242432a14610c23578063f48c9d3414610c43578063fd210fd914610c6357600080fd5b8063de08f65314610b5f578063e289fcb614610b74578063e7fb74c714610b8e578063e985e9c514610bae57600080fd5b8063ca90958f116100dc578063ca90958f14610ac8578063d547741f14610ade578063d757d02714610afe578063dd006d3114610b3257600080fd5b8063bc197c8114610a16578063c107532914610a5b578063c7be7a4914610a7b578063c7e05f8d14610aa857600080fd5b8063a22cb46511610185578063b2ead3c711610154578063b2ead3c714610986578063b63b8612146109a8578063b85e67af146109d4578063bbcbc2e7146109f457600080fd5b8063a22cb465146108da578063a7b19424146108fa578063a7bc77c61461091a578063aebc45501461093a57600080fd5b80638e879c8a116101c15780638e879c8a1461084b57806391d148541461087f578063976298f3146108c5578063a217fddf1461079657600080fd5b806389165aa9146107eb5780638ba8b15a1461080b5780638dc5f45b1461082b57600080fd5b8063470cdf97116102cc57806361c073d61161026a57806372cf6e341161023957806372cf6e341461076c57806375b238fc146107965780637e420db5146107ab57806384203f4b146107cb57600080fd5b806361c073d6146106e457806367dd74ca1461070457806367f082b014610724578063704b6c021461074c57600080fd5b80635408c319116102a65780635408c3191461066f57806354e889f61461068f57806357f7789e146106af57806361652450146106cf57600080fd5b8063470cdf97146105e05780634a2266571461062d5780634e1273f41461064257600080fd5b80631fe543e3116103445780632eb2c2d6116103135780632eb2c2d6146105605780632f2ff15d1461058057806332dee40b146105a057806336568abe146105c057600080fd5b80631fe543e3146104c357806320ba0814146104e3578063248a9ca3146105105780632ce381901461054057600080fd5b80630e89341c116103805780630e89341c1461043657806319c08575146104635780631c7cbe4f146104835780631cb0b273146104a357600080fd5b8062fdd58e146103b157806301ffc9a7146103e4578063020f19801461041457600080fd5b366103ac57005b600080fd5b3480156103bd57600080fd5b506103d16103cc3660046155e9565b610c79565b6040519081526020015b60405180910390f35b3480156103f057600080fd5b506104046103ff36600461570d565b610d25565b60405190151581526020016103db565b34801561042057600080fd5b5061043461042f3660046157ee565b610d30565b005b34801561044257600080fd5b506104566104513660046156d1565b610f02565b6040516103db9190615b70565b34801561046f57600080fd5b506103d161047e3660046156d1565b610fa4565b34801561048f57600080fd5b5061043461049e36600461583c565b61116c565b3480156104af57600080fd5b506104346104be3660046156d1565b61132b565b3480156104cf57600080fd5b506104346104de366004615760565b6113c8565b3480156104ef57600080fd5b506103d16104fe3660046156d1565b60009081526011602052604090205490565b34801561051c57600080fd5b506103d161052b3660046156d1565b60009081526003602052604090206001015490565b34801561054c57600080fd5b5061043461055b3660046156d1565b611469565b34801561056c57600080fd5b5061043461057b3660046154a3565b6114d5565b34801561058c57600080fd5b5061043461059b3660046156ea565b611577565b3480156105ac57600080fd5b506104346105bb366004615455565b6115a1565b3480156105cc57600080fd5b506104346105db3660046156ea565b6117c7565b3480156105ec57600080fd5b506106147f000000000000000000000000000000000000000000000000000000000000000081565b60405167ffffffffffffffff90911681526020016103db565b34801561063957600080fd5b5061043461184f565b34801561064e57600080fd5b5061066261065d366004615650565b611b53565b6040516103db9190615b07565b34801561067b57600080fd5b5061043461068a366004615613565b611c91565b34801561069b57600080fd5b506104346106aa366004615455565b611d58565b3480156106bb57600080fd5b506104346106ca36600461579d565b611ddb565b3480156106db57600080fd5b506103d1611ec1565b3480156106f057600080fd5b506104346106ff3660046156d1565b612002565b34801561071057600080fd5b5061043461071f3660046156d1565b612333565b34801561073057600080fd5b50610739600381565b60405161ffff90911681526020016103db565b34801561075857600080fd5b50610434610767366004615455565b612849565b34801561077857600080fd5b50610781600281565b60405163ffffffff90911681526020016103db565b3480156107a257600080fd5b506103d1600081565b3480156107b757600080fd5b506104346107c63660046156d1565b6128ae565b3480156107d757600080fd5b506104046107e6366004615455565b612a30565b3480156107f757600080fd5b50610434610806366004615613565b612af2565b34801561081757600080fd5b50610434610826366004615455565b612bb9565b34801561083757600080fd5b506104346108463660046156d1565b612c39565b34801561085757600080fd5b506103d17f000000000000000000000000000000000000000000000000000000000000000081565b34801561088b57600080fd5b5061040461089a3660046156ea565b60009182526003602090815260408084206001600160a01b0393909316845291905290205460ff1690565b3480156108d157600080fd5b50600b546103d1565b3480156108e657600080fd5b506104346108f53660046155b2565b612ccd565b34801561090657600080fd5b506104346109153660046157ee565b612cd8565b34801561092657600080fd5b506104346109353660046156d1565b612e03565b34801561094657600080fd5b5061096e7f000000000000000000000000000000000000000000000000000000000000000081565b6040516001600160a01b0390911681526020016103db565b34801561099257600080fd5b5061099b612f47565b6040516103db91906159f7565b3480156109b457600080fd5b50600c546109c790610100900460ff1681565b6040516103db9190615b48565b3480156109e057600080fd5b506104346109ef366004615810565b613188565b348015610a0057600080fd5b50610a096134b5565b6040516103db9190615a8f565b348015610a2257600080fd5b50610a42610a313660046154a3565b63bc197c8160e01b95945050505050565b6040516001600160e01b031990911681526020016103db565b348015610a6757600080fd5b50610434610a763660046155e9565b6136bf565b348015610a8757600080fd5b50610a9b610a963660046156d1565b613881565b6040516103db9190615bdb565b348015610ab457600080fd5b506103d1610ac33660046156d1565b613934565b348015610ad457600080fd5b506103d1600b5481565b348015610aea57600080fd5b50610434610af93660046156ea565b613964565b348015610b0a57600080fd5b506107817f000000000000000000000000000000000000000000000000000000000000000081565b348015610b3e57600080fd5b50610b52610b4d3660046156d1565b613989565b6040516103db9190615b83565b348015610b6b57600080fd5b50610434613a5a565b348015610b8057600080fd5b50600c546104049060ff1681565b348015610b9a57600080fd5b50610434610ba93660046156d1565b613afb565b348015610bba57600080fd5b50610404610bc9366004615470565b6001600160a01b03918216600090815260016020908152604080832093909416825291909152205460ff1690565b348015610c0357600080fd5b50610a42610c1236600461554d565b63f23a6e6160e01b95945050505050565b348015610c2f57600080fd5b50610434610c3e36600461554d565b613f03565b348015610c4f57600080fd5b50610662610c5e366004615455565b613f9e565b348015610c6f57600080fd5b506103d1600f5481565b60006001600160a01b038316610cfc5760405162461bcd60e51b815260206004820152602b60248201527f455243313135353a2062616c616e636520717565727920666f7220746865207a60448201527f65726f206164647265737300000000000000000000000000000000000000000060648201526084015b60405180910390fd5b506000818152602081815260408083206001600160a01b03861684529091529020545b92915050565b6000610d1f82614035565b6000610d3c3384610c79565b11610d895760405162461bcd60e51b815260206004820152600f60248201527f4974656d206e6f7420666f756e642e00000000000000000000000000000000006044820152606401610cf3565b6040805160a08101825283815260098054602083019081529282018481523360608401908152600160808501818152600d80549283018155600090815295517fd7b6990105719101dabeb77144f2a3385c8033acd3af97e9423a695e81ad1eb560049093029283015595517fd7b6990105719101dabeb77144f2a3385c8033acd3af97e9423a695e81ad1eb682015591517fd7b6990105719101dabeb77144f2a3385c8033acd3af97e9423a695e81ad1eb7830155517fd7b6990105719101dabeb77144f2a3385c8033acd3af97e9423a695e81ad1eb8909101805494516001600160a01b039092167fffffffffffffffffffffff00000000000000000000000000000000000000000090951694909417600160a01b911515919091021790925581549190610eb783615d54565b909155505060408051338152602081018490529081018290527f23cba88d6c6f26b62b2cfc32a2cc04fbbde8590188b97cd3590e45af9ac6dd6d906060015b60405180910390a15050565b6000818152601260205260409020805460609190610f1f90615cec565b80601f0160208091040260200160405190810160405280929190818152602001828054610f4b90615cec565b8015610f985780601f10610f6d57610100808354040283529160200191610f98565b820191906000526020600020905b815481529060010190602001808311610f7b57829003601f168201915b50505050509050919050565b600080600e8381548110610fba57610fba615dc5565b906000526020600020906007020160050154116110195760405162461bcd60e51b815260206004820152601760248201527f5469636b6574206973206e6f7420736f6c64207965742e0000000000000000006044820152606401610cf3565b610e10600e838154811061102f5761102f615dc5565b90600052602060002090600702016002015461104b9190615c5b565b600e838154811061105e5761105e615dc5565b9060005260206000209060070201600501544261107b9190615c8e565b116110ed5760405162461bcd60e51b8152602060048201526024808201527f5469636b657420686173206e6f2074696d65206c65667420666f72206c656e6460448201527f696e672e000000000000000000000000000000000000000000000000000000006064820152608401610cf3565b6000603c600e848154811061110457611104615dc5565b9060005260206000209060070201600201546111209190615c5b565b600e848154811061113357611133615dc5565b906000526020600020906007020160050154426111509190615c8e565b61115b90603c615c6f565b6111659190615c8e565b9392505050565b3360009081526013602052604090205460ff166111da5760405162461bcd60e51b815260206004820152602660248201527f55736572206973206e6f742063757272656e746c792073656c6c696e67206120604482015265151a58dad95d60d21b6064820152608401610cf3565b336001600160a01b0316600e85815481106111f7576111f7615dc5565b60009182526020909120600460079092020101546001600160a01b0316146112615760405162461bcd60e51b815260206004820181905260248201527f55736572206973206e6f74206f776e6572206f662074686973207469636b65746044820152606401610cf3565b80600e858154811061127557611275615dc5565b90600052602060002090600702016003018190555081600e858154811061129e5761129e615dc5565b90600052602060002090600702016002018190555082600e85815481106112c7576112c7615dc5565b600091825260209182902060016007909202010191909155604080513381529182018590528101839052606081018290527f0fcd915268f7fe921a6c99bd903199d2f30c7f65a422416bfd1de6a264b8264d9060800160405180910390a150505050565b60006113373383610c79565b1161134157600080fd5b61134d33826001614073565b600081815260116020526040812080546001929061136c908490615c8e565b925050819055506001600760008282546113869190615c8e565b909155505060408051338152602081018390527f9e90d55d2f1f115ffe1b87372c45f27f6b3a2b5ba392942167be78456189009491015b60405180910390a150565b336001600160a01b037f0000000000000000000000000000000000000000000000000000000000000000161461145b576040517f1cf993f40000000000000000000000000000000000000000000000000000000081523360048201526001600160a01b037f0000000000000000000000000000000000000000000000000000000000000000166024820152604401610cf3565b6114658282614227565b5050565b6114723361424c565b6114c85760405162461bcd60e51b815260206004820152602160248201527f55736572206973206e6f7420746865204f776e6572206f7220616e2041646d696044820152603760f91b6064820152608401610cf3565b6114d230826142b3565b50565b6001600160a01b0385163314806114f157506114f18533610bc9565b6115635760405162461bcd60e51b815260206004820152603260248201527f455243313135353a207472616e736665722063616c6c6572206973206e6f742060448201527f6f776e6572206e6f7220617070726f76656400000000000000000000000000006064820152608401610cf3565b611570858585858561431e565b5050505050565b60008281526003602052604090206001015461159281614591565b61159c838361459b565b505050565b6006546001600160a01b031633146115fb5760405162461bcd60e51b815260206004820152601560248201527f55736572206973206e6f7420746865206f776e657200000000000000000000006044820152606401610cf3565b6005546040516370a0823160e01b81523060048201526000916001600160a01b0316906370a082319060240160206040518083038186803b15801561163f57600080fd5b505afa158015611653573d6000803e3d6000fd5b505050506040513d601f19601f820116820180604052508101906116779190615747565b116116c45760405162461bcd60e51b815260206004820152601460248201527f4e6f2066756e647320746f2077697468647261770000000000000000000000006044820152606401610cf3565b6005546040516370a0823160e01b81523060048201526001600160a01b039091169063a9059cbb90839083906370a082319060240160206040518083038186803b15801561171157600080fd5b505afa158015611725573d6000803e3d6000fd5b505050506040513d601f19601f820116820180604052508101906117499190615747565b6040516001600160e01b031960e085901b1681526001600160a01b0390921660048301526024820152604401602060405180830381600087803b15801561178f57600080fd5b505af11580156117a3573d6000803e3d6000fd5b505050506040513d601f19601f8201168201806040525081019061146591906156b4565b6001600160a01b03811633146118455760405162461bcd60e51b815260206004820152602f60248201527f416363657373436f6e74726f6c3a2063616e206f6e6c792072656e6f756e636560448201527f20726f6c657320666f722073656c6600000000000000000000000000000000006064820152608401610cf3565b611465828261463d565b6000600c54610100900460ff16600181111561186d5761186d615daf565b146118e05760405162461bcd60e51b815260206004820152602560248201527f436f6e7472616374206973206e6f74206163746976652061742074686973206d60448201527f6f6d656e740000000000000000000000000000000000000000000000000000006064820152608401610cf3565b6118e933612a30565b611972573360009081526014602052604090205460ff166119725760405162461bcd60e51b815260206004820152602b60248201527f55736572206973204e4f542056495020616e6420646f6573206e6f74206f776e60448201527f732061205469636b65742e0000000000000000000000000000000000000000006064820152608401610cf3565b600554600b546040517f23b872dd00000000000000000000000000000000000000000000000000000000815233600482015230602482015260448101919091526001600160a01b03909116906323b872dd90606401602060405180830381600087803b1580156119e157600080fd5b505af11580156119f5573d6000803e3d6000fd5b505050506040513d601f19601f82011682018060405250810190611a1991906156b4565b506000600754611a27611ec1565b611a319190615d6f565b9050600080805b600854811015611af257600081815260116020526040812054611a5b9085615c43565b905080851115611a6d57809350611adf565b819250611a7a3084610c79565b611abc576000611a8b600185615c8e565b90505b6000611a9a3083610c79565b1115611aa857809350611aba565b80611ab281615cd5565b915050611a8e565b505b611ad93033856001604051806020016040528060008152506146c0565b50611af2565b5080611aea81615d54565b915050611a38565b50611afc33612a30565b611b0957611b093361486b565b600b5460408051338152602081019290925281018290527fea32e37a2618dbb680c93d891742e9e13b30d184822562a0ee3c09290fd42b43906060015b60405180910390a1505050565b60608151835114611bcc5760405162461bcd60e51b815260206004820152602960248201527f455243313135353a206163636f756e747320616e6420696473206c656e67746860448201527f206d69736d6174636800000000000000000000000000000000000000000000006064820152608401610cf3565b6000835167ffffffffffffffff811115611be857611be8615ddb565b604051908082528060200260200182016040528015611c11578160200160208202803683370190505b50905060005b8451811015611c8957611c5c858281518110611c3557611c35615dc5565b6020026020010151858381518110611c4f57611c4f615dc5565b6020026020010151610c79565b828281518110611c6e57611c6e615dc5565b6020908102919091010152611c8281615d54565b9050611c17565b509392505050565b611c9a3361424c565b611cf05760405162461bcd60e51b815260206004820152602160248201527f55736572206973206e6f7420746865204f776e6572206f7220616e2041646d696044820152603760f91b6064820152608401610cf3565b60005b815181101561146557600060106000848481518110611d1457611d14615dc5565b6020908102919091018101516001600160a01b03168252810191909152604001600020805460ff191691151591909117905580611d5081615d54565b915050611cf3565b611d613361424c565b611db75760405162461bcd60e51b815260206004820152602160248201527f55736572206973206e6f7420746865204f776e6572206f7220616e2041646d696044820152603760f91b6064820152608401610cf3565b6001600160a01b03166000908152601060205260409020805460ff19166001179055565b611de43361424c565b611e3a5760405162461bcd60e51b815260206004820152602160248201527f55736572206973206e6f7420746865204f776e6572206f7220616e2041646d696044820152603760f91b6064820152608401610cf3565b60008281526012602052604090208054611e5390615cec565b159050611ea25760405162461bcd60e51b815260206004820152601560248201527f43616e206e6f74207365742075726920747769636500000000000000000000006044820152606401610cf3565b6000828152601260209081526040909120825161159c9284019061523f565b6040517f5d3b1d300000000000000000000000000000000000000000000000000000000081527f0000000000000000000000000000000000000000000000000000000000000000600482015267ffffffffffffffff7f00000000000000000000000000000000000000000000000000000000000000001660248201526003604482015263ffffffff7f00000000000000000000000000000000000000000000000000000000000000001660648201526002608482015260009081906001600160a01b037f00000000000000000000000000000000000000000000000000000000000000001690635d3b1d309060a401602060405180830381600087803b158015611fca57600080fd5b505af1158015611fde573d6000803e3d6000fd5b505050506040513d601f19601f82011682018060405250810190610d1f9190615747565b3360009081526016602052604090205460ff166120615760405162461bcd60e51b815260206004820152601c60248201527f5573657220646964206e6f742073656c6c20616e79205469636b6574000000006044820152606401610cf3565b610e10600e828154811061207757612077615dc5565b9060005260206000209060070201600201546120939190615c5b565b600e82815481106120a6576120a6615dc5565b906000526020600020906007020160050154426120c39190615c8e565b11806120f35750600e81815481106120dd576120dd615dc5565b9060005260206000209060070201600101546000145b6121655760405162461bcd60e51b815260206004820152603560248201527f4475726174696f6e206f6620746865205469636b6574206f72206e756d54726960448201527f6573206973207374696c6c206176616c6961626c6500000000000000000000006064820152608401610cf3565b6000600e828154811061217a5761217a615dc5565b906000526020600020906007020160040160009054906101000a90046001600160a01b03169050600060146000600e85815481106121ba576121ba615dc5565b60009182526020808320600460079093020191909101546001600160a01b031683528281019390935260409182018120805494151560ff1995861617905533808252601484528282208054861660011790556016909352208054909216909155600e80548490811061222e5761222e615dc5565b906000526020600020906007020160040160006101000a8154816001600160a01b0302191690836001600160a01b031602179055506001600e838154811061227857612278615dc5565b906000526020600020906007020160060160006101000a81548160ff021916908315150217905550600160146000600e85815481106122b9576122b9615dc5565b60009182526020808320600792909202909101600401546001600160a01b039081168452838201949094526040928301909120805460ff1916941515949094179093558051918416825233928201929092527f5093646a80c0a81f51115fbf5ec8379ecf902ae2ba552c74599cbe844dcb53e39101610ef6565b61233c33612a30565b156123895760405162461bcd60e51b815260206004820152601f60248201527f412056495020757365722063616e206e6f74206275792061207469636b6574006044820152606401610cf3565b336001600160a01b0316600e82815481106123a6576123a6615dc5565b60009182526020909120600460079092020101546001600160a01b031614156124375760405162461bcd60e51b815260206004820152602560248201527f596f752063616e206e6f74206275792061207469636b657420746f20796f757260448201527f2073656c660000000000000000000000000000000000000000000000000000006064820152608401610cf3565b600e818154811061244a5761244a615dc5565b600091825260209091206006600790920201015460ff1615156001146124d85760405162461bcd60e51b815260206004820152602160248201527f5469636b6574206973206e6f742063757272656e746c79206176616c6961626c60448201527f65000000000000000000000000000000000000000000000000000000000000006064820152608401610cf3565b6000600e82815481106124ed576124ed615dc5565b6000918252602090912060079091020160040154600554600e80546001600160a01b03938416945092909116916323b872dd9133918690811061253257612532615dc5565b906000526020600020906007020160040160009054906101000a90046001600160a01b0316600e868154811061256a5761256a615dc5565b60009182526020909120600360079092020101546040516001600160e01b031960e086901b1681526001600160a01b0393841660048201529290911660248301526044820152606401602060405180830381600087803b1580156125cd57600080fd5b505af11580156125e1573d6000803e3d6000fd5b505050506040513d601f19601f8201168201806040525081019061260591906156b4565b5042600e838154811061261a5761261a615dc5565b906000526020600020906007020160050181905550600060146000600e858154811061264857612648615dc5565b60009182526020808320600792909202909101600401546001600160a01b031683528201929092526040018120805460ff191692151592909217909155600e805460139183918690811061269e5761269e615dc5565b60009182526020808320600792909202909101600401546001600160a01b031683528201929092526040018120805460ff191692151592909217909155600e80546001926016929091869081106126f7576126f7615dc5565b60009182526020808320600460079093020191909101546001600160a01b031683528281019390935260409182018120805494151560ff19958616179055338082526014909352208054909216600117909155600e80548490811061275e5761275e615dc5565b906000526020600020906007020160040160006101000a8154816001600160a01b0302191690836001600160a01b031602179055506000600e83815481106127a8576127a8615dc5565b906000526020600020906007020160060160006101000a81548160ff0219169083151502179055507f060f7dd92424d6f1af65d2fe9acba5b63d299cc26cd8eb26403ca371bc9fbfbb828233600e868154811061280757612807615dc5565b906000526020600020906007020160030154604051610ef694939291909384526001600160a01b03928316602085015291166040830152606082015260800190565b6006546001600160a01b031633146128a35760405162461bcd60e51b815260206004820152601560248201527f55736572206973206e6f7420746865206f776e657200000000000000000000006044820152606401610cf3565b6114d26000826149bc565b3360009081526013602052604090205460ff1661291c5760405162461bcd60e51b815260206004820152602660248201527f55736572206973206e6f742063757272656e746c792073656c6c696e67206120604482015265151a58dad95d60d21b6064820152608401610cf3565b336001600160a01b0316600e828154811061293957612939615dc5565b60009182526020909120600460079092020101546001600160a01b0316146129a35760405162461bcd60e51b815260206004820181905260248201527f55736572206973206e6f74206f776e6572206f662074686973207469636b65746044820152606401610cf3565b6000600e82815481106129b8576129b8615dc5565b6000918252602080832060066007939093020191909101805493151560ff19948516179055338083526013825260408084208054861690556014835292839020805490941660011790935590519182527f5dbab6b1e9ddd154d6eb51aa5622fb5278ea62a0b5f81d046a945d899490f63191016113bd565b600480546040516370a0823160e01b81526001600160a01b0384811693820193909352600092839216906370a082319060240160206040518083038186803b158015612a7b57600080fd5b505afa158015612a8f573d6000803e3d6000fd5b505050506040513d601f19601f82011682018060405250810190612ab39190615747565b118015612ad857506001600160a01b03821660009081526010602052604090205460ff165b15612ae557506001919050565b506000919050565b919050565b612afb3361424c565b612b515760405162461bcd60e51b815260206004820152602160248201527f55736572206973206e6f7420746865204f776e6572206f7220616e2041646d696044820152603760f91b6064820152608401610cf3565b60005b815181101561146557600160106000848481518110612b7557612b75615dc5565b6020908102919091018101516001600160a01b03168252810191909152604001600020805460ff191691151591909117905580612bb181615d54565b915050612b54565b612bc23361424c565b612c185760405162461bcd60e51b815260206004820152602160248201527f55736572206973206e6f7420746865204f776e6572206f7220616e2041646d696044820152603760f91b6064820152608401610cf3565b6001600160a01b03166000908152601060205260409020805460ff19169055565b612c423361424c565b612c985760405162461bcd60e51b815260206004820152602160248201527f55736572206973206e6f7420746865204f776e6572206f7220616e2041646d696044820152603760f91b6064820152608401610cf3565b600b8190556040518181527f06cd74aabc11982a85b554df4d7833623303656fe69bed4db1b0cb3245feebe3906020016113bd565b6114653383836149c6565b336001600160a01b0316600d8381548110612cf557612cf5615dc5565b60009182526020909120600360049092020101546001600160a01b031614612d6b5760405162461bcd60e51b815260206004820152602360248201527f596f7520617265206e6f7420746865206f776e6572206f66207468697320697460448201526232b69760e91b6064820152608401610cf3565b6000600d8381548110612d8057612d80615dc5565b906000526020600020906004020160020154905081600d8481548110612da857612da8615dc5565b600091825260209182902060026004909202010191909155604080513381529182018590528101829052606081018390527fb141d00f22a670547caacc412e6489d8edaba6a840df558118363ce1a40d6ed290608001611b46565b336001600160a01b0316600d8281548110612e2057612e20615dc5565b60009182526020909120600360049092020101546001600160a01b031614612e965760405162461bcd60e51b815260206004820152602360248201527f596f7520617265206e6f7420746865206f776e6572206f66207468697320697460448201526232b69760e91b6064820152608401610cf3565b612eb33033836001604051806020016040528060008152506146c0565b6000600d8281548110612ec857612ec8615dc5565b60009182526020918290206003600490920201018054921515600160a01b027fffffffffffffffffffffff00ffffffffffffffffffffffffffffffffffffffff90931692909217909155604080513381529182018390527fc9cedcca3d85d6009a562a9e70071f6288adabda9ba7f059589165e75c9cf40491016113bd565b60606000805b600e54811015613007576000600e8281548110612f6c57612f6c615dc5565b60009182526020918290206040805160e081018252600790930290910180548352600180820154948401949094526002810154918301919091526003810154606083015260048101546001600160a01b03166080830152600581015460a08301526006015460ff16151560c082018190529092501415612ff457612ff1600184615c43565b92505b5080612fff81615d54565b915050612f4d565b5060008167ffffffffffffffff81111561302357613023615ddb565b60405190808252806020026020018201604052801561309f57816020015b61308c6040518060e001604052806000815260200160008152602001600081526020016000815260200160006001600160a01b03168152602001600081526020016000151581525090565b8152602001906001900390816130415790505b5090506000805b600e5481101561317f576000600e82815481106130c5576130c5615dc5565b60009182526020918290206040805160e081018252600790930290910180548352600180820154948401949094526002810154918301919091526003810154606083015260048101546001600160a01b03166080830152600581015460a08301526006015460ff16151560c08201819052909250141561316c578084848151811061315257613152615dc5565b6020026020010181905250828061316890615d54565b9350505b508061317781615d54565b9150506130a6565b50909392505050565b3360009081526013602052604090205460ff161561320e5760405162461bcd60e51b815260206004820152602a60248201527f5573657220697320616c72656164792063757272656e746c792073656c6c696e60448201527f672061205469636b6574000000000000000000000000000000000000000000006064820152608401610cf3565b3360009081526015602052604090205460ff1615613285573360009081526014602052604090205460ff166132855760405162461bcd60e51b815260206004820152601d60248201527f5573657220686173206e6f74207469636b6574206176616c6961626c650000006044820152606401610cf3565b6040805160e081018252600a8054825260208201868152928201858152606083018581523360808501908152600060a08601818152600160c08801818152600e80549283018155845297517fbb7b4a454dc3493923482f07822329ed19e8244eff582cc204f8554c3620c3fd60079092029182015597517fbb7b4a454dc3493923482f07822329ed19e8244eff582cc204f8554c3620c3fe89015593517fbb7b4a454dc3493923482f07822329ed19e8244eff582cc204f8554c3620c3ff88015591517fbb7b4a454dc3493923482f07822329ed19e8244eff582cc204f8554c3620c400870155517fbb7b4a454dc3493923482f07822329ed19e8244eff582cc204f8554c3620c401860180547fffffffffffffffffffffffff0000000000000000000000000000000000000000166001600160a01b0390921691909117905590517fbb7b4a454dc3493923482f07822329ed19e8244eff582cc204f8554c3620c40285015591517fbb7b4a454dc3493923482f07822329ed19e8244eff582cc204f8554c3620c403909301805460ff1916931515939093179092558154919061342e83615d54565b90915550503360008181526013602090815260408083208054600160ff199182168117909255601584528285208054821690921790915560148352928190208054909316909255815192835282018590528101839052606081018290527f07814713aba2e13eb5f2470225f7395d33fad1452b70f8427dae73e4d3a5934490608001611b46565b60606000805b600d54811015613565576000600d82815481106134da576134da615dc5565b60009182526020918290206040805160a08101825260049093029091018054835260018082015494840194909452600281015491830191909152600301546001600160a01b038116606083015260ff600160a01b9091041615156080820181905290925014156135525761354f600184615c43565b92505b508061355d81615d54565b9150506134bb565b5060008167ffffffffffffffff81111561358157613581615ddb565b6040519080825280602002602001820160405280156135ef57816020015b6135dc6040518060a0016040528060008152602001600081526020016000815260200160006001600160a01b031681526020016000151581525090565b81526020019060019003908161359f5790505b5090506000805b600d5481101561317f576000600d828154811061361557613615615dc5565b60009182526020918290206040805160a08101825260049093029091018054835260018082015494840194909452600281015491830191909152600301546001600160a01b038116606083015260ff600160a01b9091041615156080820181905290925014156136ac578084848151811061369257613692615dc5565b602002602001018190525082806136a890615d54565b9350505b50806136b781615d54565b9150506135f6565b6006546001600160a01b031633146137195760405162461bcd60e51b815260206004820152601560248201527f55736572206973206e6f7420746865206f776e657200000000000000000000006044820152606401610cf3565b6005546040516370a0823160e01b81523060048201526000916001600160a01b0316906370a082319060240160206040518083038186803b15801561375d57600080fd5b505afa158015613771573d6000803e3d6000fd5b505050506040513d601f19601f820116820180604052508101906137959190615747565b116137e25760405162461bcd60e51b815260206004820152601460248201527f4e6f2066756e647320746f2077697468647261770000000000000000000000006044820152606401610cf3565b6005546040517fa9059cbb0000000000000000000000000000000000000000000000000000000081526001600160a01b038481166004830152602482018490529091169063a9059cbb90604401602060405180830381600087803b15801561384957600080fd5b505af115801561385d573d6000803e3d6000fd5b505050506040513d601f19601f8201168201806040525081019061159c91906156b4565b6138be6040518060a0016040528060008152602001600081526020016000815260200160006001600160a01b031681526020016000151581525090565b600d82815481106138d1576138d1615dc5565b60009182526020918290206040805160a0810182526004909302909101805483526001810154938301939093526002830154908201526003909101546001600160a01b038116606083015260ff600160a01b909104161515608082015292915050565b600061393f82614abb565b61394857600080fd5b6000828152601160205260408120546007546111659190615c5b565b60008281526003602052604090206001015461397f81614591565b61159c838361463d565b6139d46040518060e001604052806000815260200160008152602001600081526020016000815260200160006001600160a01b03168152602001600081526020016000151581525090565b600e82815481106139e7576139e7615dc5565b60009182526020918290206040805160e0810182526007909302909101805483526001810154938301939093526002830154908201526003820154606082015260048201546001600160a01b03166080820152600582015460a082015260069091015460ff16151560c082015292915050565b613a633361424c565b613ab95760405162461bcd60e51b815260206004820152602160248201527f55736572206973206e6f7420746865204f776e6572206f7220616e2041646d696044820152603760f91b6064820152608401610cf3565b6000600c54610100900460ff166001811115613ad757613ad7615daf565b1415613aee57600c805461ff001916610100179055565b600c805461ff0019169055565b600d8181548110613b0e57613b0e615dc5565b60009182526020909120600490910201600301546001600160a01b0316331415613ba05760405162461bcd60e51b815260206004820152602360248201527f596f752063616e206e6f742062757920616e206974656d20746f20796f75727360448201527f656c6600000000000000000000000000000000000000000000000000000000006064820152608401610cf3565b600d8181548110613bb357613bb3615dc5565b906000526020600020906004020160030160149054906101000a900460ff1615156001151514613c4b5760405162461bcd60e51b815260206004820152602160248201527f54686973206974656d206973206e6f74206f6e2073616c6520616e796d6f726560448201527f2e000000000000000000000000000000000000000000000000000000000000006064820152608401610cf3565b600554600d80546001600160a01b03909216916323b872dd91339185908110613c7657613c76615dc5565b906000526020600020906004020160030160009054906101000a90046001600160a01b0316600d8581548110613cae57613cae615dc5565b9060005260206000209060040201600201546040518463ffffffff1660e01b8152600401613cfd939291906001600160a01b039384168152919092166020820152604081019190915260600190565b602060405180830381600087803b158015613d1757600080fd5b505af1158015613d2b573d6000803e3d6000fd5b505050506040513d601f19601f82011682018060405250810190613d4f91906156b4565b50613dc8600d8281548110613d6657613d66615dc5565b906000526020600020906004020160030160009054906101000a90046001600160a01b031633600d8481548110613d9f57613d9f615dc5565b9060005260206000209060040201600001546001604051806020016040528060008152506146c0565b6000600d8281548110613ddd57613ddd615dc5565b906000526020600020906004020160030160009054906101000a90046001600160a01b0316905033600d8381548110613e1857613e18615dc5565b906000526020600020906004020160030160006101000a8154816001600160a01b0302191690836001600160a01b031602179055506000600d8381548110613e6257613e62615dc5565b906000526020600020906004020160030160146101000a81548160ff0219169083151502179055507f642067ff529c9b5b1162502fc8e8a3a91dda56e126a84f2fe38d341236231a82338284600d8681548110613ec157613ec1615dc5565b600091825260209182902060026004909202010154604080516001600160a01b0396871681529590941691850191909152918301526060820152608001610ef6565b6001600160a01b038516331480613f1f5750613f1f8533610bc9565b613f915760405162461bcd60e51b815260206004820152602960248201527f455243313135353a2063616c6c6572206973206e6f74206f776e6572206e6f7260448201527f20617070726f76656400000000000000000000000000000000000000000000006064820152608401610cf3565b61157085858585856146c0565b6060600060085467ffffffffffffffff811115613fbd57613fbd615ddb565b604051908082528060200260200182016040528015613fe6578160200160208202803683370190505b50905060005b815181101561402e57613fff8482610c79565b82828151811061401157614011615dc5565b60209081029190910101528061402681615d54565b915050613fec565b5092915050565b60006001600160e01b031982167f7965db0b000000000000000000000000000000000000000000000000000000001480610d1f5750610d1f82614ad3565b6001600160a01b0383166140ef5760405162461bcd60e51b815260206004820152602360248201527f455243313135353a206275726e2066726f6d20746865207a65726f206164647260448201527f65737300000000000000000000000000000000000000000000000000000000006064820152608401610cf3565b3360006140fb84614b11565b9050600061410884614b11565b60408051602080820183526000918290528882528181528282206001600160a01b038b16835290522054909150848110156141aa5760405162461bcd60e51b8152602060048201526024808201527f455243313135353a206275726e20616d6f756e7420657863656564732062616c60448201527f616e6365000000000000000000000000000000000000000000000000000000006064820152608401610cf3565b6000868152602081815260408083206001600160a01b038b81168086529184528285208a8703905582518b81529384018a90529092908816917fc3d58168c5ae7397731d063d5bbf3d657854427343f4c083240f7aacaa2d0f62910160405180910390a46040805160208101909152600090525b50505050505050565b8060008151811061423a5761423a615dc5565b6020026020010151600f819055505050565b6006546000906001600160a01b03838116911614806142a257506001600160a01b03821660009081527f3617319a054d772f909f7c479a2cebe5066e836a939412e32403c99029b92eff602052604090205460ff165b6142ab57600080fd5b506001919050565b6142d0826008548360405180602001604052806000815250614b5c565b6142e96008548260009182526011602052604090912055565b80600760008282546142fb9190615c43565b925050819055506001600860008282546143159190615c43565b90915550505050565b81518351146143955760405162461bcd60e51b815260206004820152602860248201527f455243313135353a2069647320616e6420616d6f756e7473206c656e6774682060448201527f6d69736d617463680000000000000000000000000000000000000000000000006064820152608401610cf3565b6001600160a01b0384166143f95760405162461bcd60e51b815260206004820152602560248201527f455243313135353a207472616e7366657220746f20746865207a65726f206164604482015264647265737360d81b6064820152608401610cf3565b3360005b845181101561452357600085828151811061441a5761441a615dc5565b60200260200101519050600085838151811061443857614438615dc5565b602090810291909101810151600084815280835260408082206001600160a01b038e1683529093529190912054909150818110156144cb5760405162461bcd60e51b815260206004820152602a60248201527f455243313135353a20696e73756666696369656e742062616c616e636520666f60448201526939103a3930b739b332b960b11b6064820152608401610cf3565b6000838152602081815260408083206001600160a01b038e8116855292528083208585039055908b16825281208054849290614508908490615c43565b925050819055505050508061451c90615d54565b90506143fd565b50846001600160a01b0316866001600160a01b0316826001600160a01b03167f4a39dc06d4c0dbc64b70af90fd698a233a518aa5d07e595d983b8c0526c8f7fb8787604051614573929190615b1a565b60405180910390a4614589818787878787614c83565b505050505050565b6114d28133614e38565b60008281526003602090815260408083206001600160a01b038516845290915290205460ff166114655760008281526003602090815260408083206001600160a01b03851684529091529020805460ff191660011790556145f93390565b6001600160a01b0316816001600160a01b0316837f2f8788117e7eff1d82e926ec794901d17c78024a50270940304540a733656f0d60405160405180910390a45050565b60008281526003602090815260408083206001600160a01b038516845290915290205460ff16156114655760008281526003602090815260408083206001600160a01b0385168085529252808320805460ff1916905551339285917ff6391f5c32d9c69d2a47ea670b442974b53935d1edc7fd64eb21e047a839171b9190a45050565b6001600160a01b0384166147245760405162461bcd60e51b815260206004820152602560248201527f455243313135353a207472616e7366657220746f20746865207a65726f206164604482015264647265737360d81b6064820152608401610cf3565b33600061473085614b11565b9050600061473d85614b11565b90506000868152602081815260408083206001600160a01b038c168452909152902054858110156147c35760405162461bcd60e51b815260206004820152602a60248201527f455243313135353a20696e73756666696369656e742062616c616e636520666f60448201526939103a3930b739b332b960b11b6064820152608401610cf3565b6000878152602081815260408083206001600160a01b038d8116855292528083208985039055908a16825281208054889290614800908490615c43565b909155505060408051888152602081018890526001600160a01b03808b16928c821692918816917fc3d58168c5ae7397731d063d5bbf3d657854427343f4c083240f7aacaa2d0f62910160405180910390a4614860848a8a8a8a8a614eb8565b505050505050505050565b60005b600e5481101561146557816001600160a01b0316600e828154811061489557614895615dc5565b60009182526020909120600460079092020101546001600160a01b031614156149aa57600e81815481106148cb576148cb615dc5565b90600052602060002090600702016001015460011461491f57600e81815481106148f7576148f7615dc5565b60009182526020822060016007909202010180549161491583615cd5565b91905055506149aa565b600e818154811061493257614932615dc5565b60009182526020822060016007909202010180549161495083615cd5565b91905055506000600e828154811061496a5761496a615dc5565b60009182526020808320600660079093020191909101805493151560ff199485161790556001600160a01b03851682526014905260409020805490911690555b806149b481615d54565b91505061486e565b611465828261459b565b816001600160a01b0316836001600160a01b03161415614a4e5760405162461bcd60e51b815260206004820152602960248201527f455243313135353a2073657474696e6720617070726f76616c2073746174757360448201527f20666f722073656c6600000000000000000000000000000000000000000000006064820152608401610cf3565b6001600160a01b03838116600081815260016020908152604080832094871680845294825291829020805460ff191686151590811790915591519182527f17307eab39ab6107e8899845ad3d59bd9653f200f220920489ca2b5937696c31910160405180910390a3505050565b6000818152601160205260408120546142ab57600080fd5b60006001600160e01b031982167f4e2312e0000000000000000000000000000000000000000000000000000000001480610d1f5750610d1f82614fc3565b60408051600180825281830190925260609160009190602080830190803683370190505090508281600081518110614b4b57614b4b615dc5565b602090810291909101015292915050565b6001600160a01b038416614bd85760405162461bcd60e51b815260206004820152602160248201527f455243313135353a206d696e7420746f20746865207a65726f2061646472657360448201527f73000000000000000000000000000000000000000000000000000000000000006064820152608401610cf3565b336000614be485614b11565b90506000614bf185614b11565b90506000868152602081815260408083206001600160a01b038b16845290915281208054879290614c23908490615c43565b909155505060408051878152602081018790526001600160a01b03808a1692600092918716917fc3d58168c5ae7397731d063d5bbf3d657854427343f4c083240f7aacaa2d0f62910160405180910390a461421e83600089898989614eb8565b6001600160a01b0384163b156145895760405163bc197c8160e01b81526001600160a01b0385169063bc197c8190614cc79089908990889088908890600401615956565b602060405180830381600087803b158015614ce157600080fd5b505af1925050508015614d11575060408051601f3d908101601f19168201909252614d0e9181019061572a565b60015b614dc757614d1d615df1565b806308c379a01415614d575750614d32615e0d565b80614d3d5750614d59565b8060405162461bcd60e51b8152600401610cf39190615b70565b505b60405162461bcd60e51b815260206004820152603460248201527f455243313135353a207472616e7366657220746f206e6f6e204552433131353560448201527f526563656976657220696d706c656d656e7465720000000000000000000000006064820152608401610cf3565b6001600160e01b0319811663bc197c8160e01b1461421e5760405162461bcd60e51b815260206004820152602860248201527f455243313135353a204552433131353552656365697665722072656a656374656044820152676420746f6b656e7360c01b6064820152608401610cf3565b60008281526003602090815260408083206001600160a01b038516845290915290205460ff1661146557614e76816001600160a01b0316601461505e565b614e8183602061505e565b604051602001614e929291906158d5565b60408051601f198184030181529082905262461bcd60e51b8252610cf391600401615b70565b6001600160a01b0384163b156145895760405163f23a6e6160e01b81526001600160a01b0385169063f23a6e6190614efc90899089908890889088906004016159b4565b602060405180830381600087803b158015614f1657600080fd5b505af1925050508015614f46575060408051601f3d908101601f19168201909252614f439181019061572a565b60015b614f5257614d1d615df1565b6001600160e01b0319811663f23a6e6160e01b1461421e5760405162461bcd60e51b815260206004820152602860248201527f455243313135353a204552433131353552656365697665722072656a656374656044820152676420746f6b656e7360c01b6064820152608401610cf3565b60006001600160e01b031982167fd9b67a2600000000000000000000000000000000000000000000000000000000148061502657506001600160e01b031982167f0e89341c00000000000000000000000000000000000000000000000000000000145b80610d1f57507f01ffc9a7000000000000000000000000000000000000000000000000000000006001600160e01b0319831614610d1f565b6060600061506d836002615c6f565b615078906002615c43565b67ffffffffffffffff81111561509057615090615ddb565b6040519080825280601f01601f1916602001820160405280156150ba576020820181803683370190505b5090507f3000000000000000000000000000000000000000000000000000000000000000816000815181106150f1576150f1615dc5565b60200101906001600160f81b031916908160001a9053507f78000000000000000000000000000000000000000000000000000000000000008160018151811061513c5761513c615dc5565b60200101906001600160f81b031916908160001a9053506000615160846002615c6f565b61516b906001615c43565b90505b60018111156151f0577f303132333435363738396162636465660000000000000000000000000000000085600f16601081106151ac576151ac615dc5565b1a60f81b8282815181106151c2576151c2615dc5565b60200101906001600160f81b031916908160001a90535060049490941c936151e981615cd5565b905061516e565b5083156111655760405162461bcd60e51b815260206004820181905260248201527f537472696e67733a20686578206c656e67746820696e73756666696369656e746044820152606401610cf3565b82805461524b90615cec565b90600052602060002090601f01602090048101928261526d57600085556152b3565b82601f1061528657805160ff19168380011785556152b3565b828001600101855582156152b3579182015b828111156152b3578251825591602001919060010190615298565b506152bf9291506152c3565b5090565b5b808211156152bf57600081556001016152c4565b600067ffffffffffffffff8311156152f2576152f2615ddb565b604051615309601f8501601f191660200182615d27565b80915083815284848401111561531e57600080fd5b83836020830137600060208583010152509392505050565b80356001600160a01b0381168114612aed57600080fd5b600082601f83011261535e57600080fd5b8135602061536b82615c1f565b6040516153788282615d27565b8381528281019150858301600585901b8701840188101561539857600080fd5b60005b858110156153be576153ac82615336565b8452928401929084019060010161539b565b5090979650505050505050565b600082601f8301126153dc57600080fd5b813560206153e982615c1f565b6040516153f68282615d27565b8381528281019150858301600585901b8701840188101561541657600080fd5b60005b858110156153be57813584529284019290840190600101615419565b600082601f83011261544657600080fd5b611165838335602085016152d8565b60006020828403121561546757600080fd5b61116582615336565b6000806040838503121561548357600080fd5b61548c83615336565b915061549a60208401615336565b90509250929050565b600080600080600060a086880312156154bb57600080fd5b6154c486615336565b94506154d260208701615336565b9350604086013567ffffffffffffffff808211156154ef57600080fd5b6154fb89838a016153cb565b9450606088013591508082111561551157600080fd5b61551d89838a016153cb565b9350608088013591508082111561553357600080fd5b5061554088828901615435565b9150509295509295909350565b600080600080600060a0868803121561556557600080fd5b61556e86615336565b945061557c60208701615336565b93506040860135925060608601359150608086013567ffffffffffffffff8111156155a657600080fd5b61554088828901615435565b600080604083850312156155c557600080fd5b6155ce83615336565b915060208301356155de81615e97565b809150509250929050565b600080604083850312156155fc57600080fd5b61560583615336565b946020939093013593505050565b60006020828403121561562557600080fd5b813567ffffffffffffffff81111561563c57600080fd5b6156488482850161534d565b949350505050565b6000806040838503121561566357600080fd5b823567ffffffffffffffff8082111561567b57600080fd5b6156878683870161534d565b9350602085013591508082111561569d57600080fd5b506156aa858286016153cb565b9150509250929050565b6000602082840312156156c657600080fd5b815161116581615e97565b6000602082840312156156e357600080fd5b5035919050565b600080604083850312156156fd57600080fd5b8235915061549a60208401615336565b60006020828403121561571f57600080fd5b813561116581615ea5565b60006020828403121561573c57600080fd5b815161116581615ea5565b60006020828403121561575957600080fd5b5051919050565b6000806040838503121561577357600080fd5b82359150602083013567ffffffffffffffff81111561579157600080fd5b6156aa858286016153cb565b600080604083850312156157b057600080fd5b82359150602083013567ffffffffffffffff8111156157ce57600080fd5b8301601f810185136157df57600080fd5b6156aa858235602084016152d8565b6000806040838503121561580157600080fd5b50508035926020909101359150565b60008060006060848603121561582557600080fd5b505081359360208301359350604090920135919050565b6000806000806080858703121561585257600080fd5b5050823594602084013594506040840135936060013592509050565b600081518084526020808501945080840160005b8381101561589e57815187529582019590820190600101615882565b509495945050505050565b600081518084526158c1816020860160208601615ca5565b601f01601f19169290920160200192915050565b7f416363657373436f6e74726f6c3a206163636f756e742000000000000000000081526000835161590d816017850160208801615ca5565b7f206973206d697373696e6720726f6c6520000000000000000000000000000000601791840191820152835161594a816028840160208801615ca5565b01602801949350505050565b60006001600160a01b03808816835280871660208401525060a0604083015261598260a083018661586e565b8281036060840152615994818661586e565b905082810360808401526159a881856158a9565b98975050505050505050565b60006001600160a01b03808816835280871660208401525084604083015283606083015260a060808301526159ec60a08301846158a9565b979650505050505050565b6020808252825182820181905260009190848201906040850190845b81811015615a8357615a70838551805182526020810151602083015260408101516040830152606081015160608301526001600160a01b03608082015116608083015260a081015160a083015260c0810151151560c08301525050565b9284019260e09290920191600101615a13565b50909695505050505050565b6020808252825182820181905260009190848201906040850190845b81811015615a8357615af48385518051825260208101516020830152604081015160408301526001600160a01b0360608201511660608301526080810151151560808301525050565b9284019260a09290920191600101615aab565b602081526000611165602083018461586e565b604081526000615b2d604083018561586e565b8281036020840152615b3f818561586e565b95945050505050565b6020810160028310615b6a57634e487b7160e01b600052602160045260246000fd5b91905290565b60208152600061116560208301846158a9565b60e08101610d1f8284805182526020810151602083015260408101516040830152606081015160608301526001600160a01b03608082015116608083015260a081015160a083015260c0810151151560c08301525050565b60a08101610d1f82848051825260208101516020830152604081015160408301526001600160a01b0360608201511660608301526080810151151560808301525050565b600067ffffffffffffffff821115615c3957615c39615ddb565b5060051b60200190565b60008219821115615c5657615c56615d83565b500190565b600082615c6a57615c6a615d99565b500490565b6000816000190483118215151615615c8957615c89615d83565b500290565b600082821015615ca057615ca0615d83565b500390565b60005b83811015615cc0578181015183820152602001615ca8565b83811115615ccf576000848401525b50505050565b600081615ce457615ce4615d83565b506000190190565b600181811c90821680615d0057607f821691505b60208210811415615d2157634e487b7160e01b600052602260045260246000fd5b50919050565b601f8201601f1916810167ffffffffffffffff81118282101715615d4d57615d4d615ddb565b6040525050565b6000600019821415615d6857615d68615d83565b5060010190565b600082615d7e57615d7e615d99565b500690565b634e487b7160e01b600052601160045260246000fd5b634e487b7160e01b600052601260045260246000fd5b634e487b7160e01b600052602160045260246000fd5b634e487b7160e01b600052603260045260246000fd5b634e487b7160e01b600052604160045260246000fd5b600060033d1115615e0a5760046000803e5060005160e01c5b90565b600060443d1015615e1b5790565b6040516003193d81016004833e81513d67ffffffffffffffff8160248401118184111715615e4b57505050505090565b8285019150815181811115615e635750505050505090565b843d8701016020828501011115615e7d5750505050505090565b615e8c60208286010187615d27565b509095945050505050565b80151581146114d257600080fd5b6001600160e01b0319811681146114d257600080fdfea2646970667358221220423ab88b78131731ed9a16811742229c61331c8d14a36f4540f115d27974bd6f64736f6c63430008070033",
  "linkReferences": {},
  "deployedLinkReferences": {}
}