{
  "_format": "hh-sol-artifact-1",
  "contractName": "RacksItemsv3",
  "sourceName": "contracts/RacksItemsv3.sol",
  "abi": [
    {
      "inputs": [
        {
          "internalType": "address",
          "name": "vrfCoordinatorV2",
          "type": "address"
        },
        {
          "internalType": "bytes32",
          "name": "gasLane",
          "type": "bytes32"
        },
        {
          "internalType": "uint64",
          "name": "subscriptionId",
          "type": "uint64"
        },
        {
          "internalType": "uint32",
          "name": "callbackGasLimit",
          "type": "uint32"
        },
        {
          "internalType": "address",
          "name": "_racksTokenAddress",
          "type": "address"
        }
      ],
      "stateMutability": "nonpayable",
      "type": "constructor"
    },
    {
      "inputs": [
        {
          "internalType": "address",
          "name": "have",
          "type": "address"
        },
        {
          "internalType": "address",
          "name": "want",
          "type": "address"
        }
      ],
      "name": "OnlyCoordinatorCanFulfill",
      "type": "error"
    },
    {
      "anonymous": false,
      "inputs": [
        {
          "indexed": true,
          "internalType": "address",
          "name": "account",
          "type": "address"
        },
        {
          "indexed": true,
          "internalType": "address",
          "name": "operator",
          "type": "address"
        },
        {
          "indexed": false,
          "internalType": "bool",
          "name": "approved",
          "type": "bool"
        }
      ],
      "name": "ApprovalForAll",
      "type": "event"
    },
    {
      "anonymous": false,
      "inputs": [
        {
          "indexed": false,
          "internalType": "address",
          "name": "user",
          "type": "address"
        },
        {
          "indexed": false,
          "internalType": "uint256",
          "name": "casePrice",
          "type": "uint256"
        },
        {
          "indexed": false,
          "internalType": "uint256",
          "name": "item",
          "type": "uint256"
        }
      ],
      "name": "CaseOpened",
      "type": "event"
    },
    {
      "anonymous": false,
      "inputs": [
        {
          "indexed": true,
          "internalType": "bytes32",
          "name": "role",
          "type": "bytes32"
        },
        {
          "indexed": true,
          "internalType": "bytes32",
          "name": "previousAdminRole",
          "type": "bytes32"
        },
        {
          "indexed": true,
          "internalType": "bytes32",
          "name": "newAdminRole",
          "type": "bytes32"
        }
      ],
      "name": "RoleAdminChanged",
      "type": "event"
    },
    {
      "anonymous": false,
      "inputs": [
        {
          "indexed": true,
          "internalType": "bytes32",
          "name": "role",
          "type": "bytes32"
        },
        {
          "indexed": true,
          "internalType": "address",
          "name": "account",
          "type": "address"
        },
        {
          "indexed": true,
          "internalType": "address",
          "name": "sender",
          "type": "address"
        }
      ],
      "name": "RoleGranted",
      "type": "event"
    },
    {
      "anonymous": false,
      "inputs": [
        {
          "indexed": true,
          "internalType": "bytes32",
          "name": "role",
          "type": "bytes32"
        },
        {
          "indexed": true,
          "internalType": "address",
          "name": "account",
          "type": "address"
        },
        {
          "indexed": true,
          "internalType": "address",
          "name": "sender",
          "type": "address"
        }
      ],
      "name": "RoleRevoked",
      "type": "event"
    },
    {
      "anonymous": false,
      "inputs": [
        {
          "indexed": true,
          "internalType": "address",
          "name": "operator",
          "type": "address"
        },
        {
          "indexed": true,
          "internalType": "address",
          "name": "from",
          "type": "address"
        },
        {
          "indexed": true,
          "internalType": "address",
          "name": "to",
          "type": "address"
        },
        {
          "indexed": false,
          "internalType": "uint256[]",
          "name": "ids",
          "type": "uint256[]"
        },
        {
          "indexed": false,
          "internalType": "uint256[]",
          "name": "values",
          "type": "uint256[]"
        }
      ],
      "name": "TransferBatch",
      "type": "event"
    },
    {
      "anonymous": false,
      "inputs": [
        {
          "indexed": true,
          "internalType": "address",
          "name": "operator",
          "type": "address"
        },
        {
          "indexed": true,
          "internalType": "address",
          "name": "from",
          "type": "address"
        },
        {
          "indexed": true,
          "internalType": "address",
          "name": "to",
          "type": "address"
        },
        {
          "indexed": false,
          "internalType": "uint256",
          "name": "id",
          "type": "uint256"
        },
        {
          "indexed": false,
          "internalType": "uint256",
          "name": "value",
          "type": "uint256"
        }
      ],
      "name": "TransferSingle",
      "type": "event"
    },
    {
      "anonymous": false,
      "inputs": [
        {
          "indexed": false,
          "internalType": "string",
          "name": "value",
          "type": "string"
        },
        {
          "indexed": true,
          "internalType": "uint256",
          "name": "id",
          "type": "uint256"
        }
      ],
      "name": "URI",
      "type": "event"
    },
    {
      "anonymous": false,
      "inputs": [
        {
          "indexed": false,
          "internalType": "uint256",
          "name": "newPrice",
          "type": "uint256"
        }
      ],
      "name": "casePriceChanged",
      "type": "event"
    },
    {
      "anonymous": false,
      "inputs": [
        {
          "indexed": false,
          "internalType": "address",
          "name": "buyer",
          "type": "address"
        },
        {
          "indexed": false,
          "internalType": "address",
          "name": "seller",
          "type": "address"
        },
        {
          "indexed": false,
          "internalType": "uint256",
          "name": "marketItemId",
          "type": "uint256"
        },
        {
          "indexed": false,
          "internalType": "uint256",
          "name": "price",
          "type": "uint256"
        }
      ],
      "name": "itemBought",
      "type": "event"
    },
    {
      "anonymous": false,
      "inputs": [
        {
          "indexed": false,
          "internalType": "address",
          "name": "user",
          "type": "address"
        },
        {
          "indexed": false,
          "internalType": "uint256",
          "name": "tokenId",
          "type": "uint256"
        }
      ],
      "name": "itemExchanged",
      "type": "event"
    },
    {
      "anonymous": false,
      "inputs": [
        {
          "indexed": false,
          "internalType": "address",
          "name": "owner",
          "type": "address"
        },
        {
          "indexed": false,
          "internalType": "uint256",
          "name": "marketItemId",
          "type": "uint256"
        },
        {
          "indexed": false,
          "internalType": "uint256",
          "name": "oldPrice",
          "type": "uint256"
        },
        {
          "indexed": false,
          "internalType": "uint256",
          "name": "newPrice",
          "type": "uint256"
        }
      ],
      "name": "itemPriceChanged",
      "type": "event"
    },
    {
      "anonymous": false,
      "inputs": [
        {
          "indexed": false,
          "internalType": "address",
          "name": "seller",
          "type": "address"
        },
        {
          "indexed": false,
          "internalType": "uint256",
          "name": "numTries",
          "type": "uint256"
        },
        {
          "indexed": false,
          "internalType": "uint256",
          "name": "_hours",
          "type": "uint256"
        },
        {
          "indexed": false,
          "internalType": "uint256",
          "name": "price",
          "type": "uint256"
        }
      ],
      "name": "newTicketOnSale",
      "type": "event"
    },
    {
      "anonymous": false,
      "inputs": [
        {
          "indexed": false,
          "internalType": "address",
          "name": "user",
          "type": "address"
        },
        {
          "indexed": false,
          "internalType": "uint256",
          "name": "tokenId",
          "type": "uint256"
        },
        {
          "indexed": false,
          "internalType": "uint256",
          "name": "price",
          "type": "uint256"
        }
      ],
      "name": "sellingItem",
      "type": "event"
    },
    {
      "anonymous": false,
      "inputs": [
        {
          "indexed": false,
          "internalType": "uint256",
          "name": "ticketId",
          "type": "uint256"
        },
        {
          "indexed": false,
          "internalType": "address",
          "name": "oldOwner",
          "type": "address"
        },
        {
          "indexed": false,
          "internalType": "address",
          "name": "newOwner",
          "type": "address"
        },
        {
          "indexed": false,
          "internalType": "uint256",
          "name": "price",
          "type": "uint256"
        }
      ],
      "name": "ticketBought",
      "type": "event"
    },
    {
      "anonymous": false,
      "inputs": [
        {
          "indexed": false,
          "internalType": "address",
          "name": "borrower",
          "type": "address"
        },
        {
          "indexed": false,
          "internalType": "address",
          "name": "realOwner",
          "type": "address"
        }
      ],
      "name": "ticketClaimedBack",
      "type": "event"
    },
    {
      "anonymous": false,
      "inputs": [
        {
          "indexed": false,
          "internalType": "address",
          "name": "owner",
          "type": "address"
        },
        {
          "indexed": false,
          "internalType": "uint256",
          "name": "newTries",
          "type": "uint256"
        },
        {
          "indexed": false,
          "internalType": "uint256",
          "name": "newPrice",
          "type": "uint256"
        }
      ],
      "name": "ticketPriceChanged",
      "type": "event"
    },
    {
      "anonymous": false,
      "inputs": [
        {
          "indexed": false,
          "internalType": "address",
          "name": "owner",
          "type": "address"
        }
      ],
      "name": "unListTicketOnSale",
      "type": "event"
    },
    {
      "anonymous": false,
      "inputs": [
        {
          "indexed": false,
          "internalType": "address",
          "name": "owner",
          "type": "address"
        },
        {
          "indexed": false,
          "internalType": "uint256",
          "name": "marketItemId",
          "type": "uint256"
        }
      ],
      "name": "unListedItem",
      "type": "event"
    },
    {
      "inputs": [],
      "name": "ADMIN_ROLE",
      "outputs": [
        {
          "internalType": "bytes32",
          "name": "",
          "type": "bytes32"
        }
      ],
      "stateMutability": "view",
      "type": "function"
    },
    {
      "inputs": [],
      "name": "DEFAULT_ADMIN_ROLE",
      "outputs": [
        {
          "internalType": "bytes32",
          "name": "",
          "type": "bytes32"
        }
      ],
      "stateMutability": "view",
      "type": "function"
    },
    {
      "inputs": [],
      "name": "NUM_WORDS",
      "outputs": [
        {
          "internalType": "uint32",
          "name": "",
          "type": "uint32"
        }
      ],
      "stateMutability": "view",
      "type": "function"
    },
    {
      "inputs": [],
      "name": "REQUEST_CONFIRMATIONS",
      "outputs": [
        {
          "internalType": "uint16",
          "name": "",
          "type": "uint16"
        }
      ],
      "stateMutability": "view",
      "type": "function"
    },
    {
      "inputs": [],
      "name": "_randomNumber",
      "outputs": [
        {
          "internalType": "uint256",
          "name": "",
          "type": "uint256"
        }
      ],
      "stateMutability": "nonpayable",
      "type": "function"
    },
    {
      "inputs": [
        {
          "internalType": "uint256",
          "name": "tokenId",
          "type": "uint256"
        }
      ],
      "name": "_rarityOfItem",
      "outputs": [
        {
          "internalType": "uint256",
          "name": "",
          "type": "uint256"
        }
      ],
      "stateMutability": "view",
      "type": "function"
    },
    {
      "inputs": [
        {
          "internalType": "address",
          "name": "account",
          "type": "address"
        },
        {
          "internalType": "uint256",
          "name": "id",
          "type": "uint256"
        }
      ],
      "name": "balanceOf",
      "outputs": [
        {
          "internalType": "uint256",
          "name": "",
          "type": "uint256"
        }
      ],
      "stateMutability": "view",
      "type": "function"
    },
    {
      "inputs": [
        {
          "internalType": "address[]",
          "name": "accounts",
          "type": "address[]"
        },
        {
          "internalType": "uint256[]",
          "name": "ids",
          "type": "uint256[]"
        }
      ],
      "name": "balanceOfBatch",
      "outputs": [
        {
          "internalType": "uint256[]",
          "name": "",
          "type": "uint256[]"
        }
      ],
      "stateMutability": "view",
      "type": "function"
    },
    {
      "inputs": [
        {
          "internalType": "uint256",
          "name": "marketItemId",
          "type": "uint256"
        }
      ],
      "name": "buyItem",
      "outputs": [],
      "stateMutability": "nonpayable",
      "type": "function"
    },
    {
      "inputs": [
        {
          "internalType": "uint256",
          "name": "ticketId",
          "type": "uint256"
        }
      ],
      "name": "buyTicket",
      "outputs": [],
      "stateMutability": "nonpayable",
      "type": "function"
    },
    {
      "inputs": [],
      "name": "casePrice",
      "outputs": [
        {
          "internalType": "uint256",
          "name": "",
          "type": "uint256"
        }
      ],
      "stateMutability": "view",
      "type": "function"
    },
    {
      "inputs": [
        {
          "internalType": "uint256",
          "name": "marketItemId",
          "type": "uint256"
        },
        {
          "internalType": "uint256",
          "name": "newPrice",
          "type": "uint256"
        }
      ],
      "name": "changeItemPrice",
      "outputs": [],
      "stateMutability": "nonpayable",
      "type": "function"
    },
    {
      "inputs": [
        {
          "internalType": "uint256",
          "name": "ticketId",
          "type": "uint256"
        },
        {
          "internalType": "uint256",
          "name": "newTries",
          "type": "uint256"
        },
        {
          "internalType": "uint256",
          "name": "newHours",
          "type": "uint256"
        },
        {
          "internalType": "uint256",
          "name": "newPrice",
          "type": "uint256"
        }
      ],
      "name": "changeTicketConditions",
      "outputs": [],
      "stateMutability": "nonpayable",
      "type": "function"
    },
    {
      "inputs": [
        {
          "internalType": "uint256",
          "name": "ticketId",
          "type": "uint256"
        }
      ],
      "name": "claimTicketBack",
      "outputs": [],
      "stateMutability": "nonpayable",
      "type": "function"
    },
    {
      "inputs": [],
      "name": "contractActive",
      "outputs": [
        {
          "internalType": "bool",
          "name": "",
          "type": "bool"
        }
      ],
      "stateMutability": "view",
      "type": "function"
    },
    {
      "inputs": [
        {
          "internalType": "uint256",
          "name": "tokenId",
          "type": "uint256"
        }
      ],
      "name": "exchangeItem",
      "outputs": [],
      "stateMutability": "nonpayable",
      "type": "function"
    },
    {
      "inputs": [],
      "name": "flipContractState",
      "outputs": [],
      "stateMutability": "nonpayable",
      "type": "function"
    },
    {
      "inputs": [],
      "name": "getCasePrice",
      "outputs": [
        {
          "internalType": "uint256",
          "name": "",
          "type": "uint256"
        }
      ],
      "stateMutability": "view",
      "type": "function"
    },
    {
      "inputs": [],
      "name": "getITicketsOnSale",
      "outputs": [
        {
          "components": [
            {
              "internalType": "uint256",
              "name": "ticketId",
              "type": "uint256"
            },
            {
              "internalType": "uint256",
              "name": "numTries",
              "type": "uint256"
            },
            {
              "internalType": "uint256",
              "name": "duration",
              "type": "uint256"
            },
            {
              "internalType": "uint256",
              "name": "price",
              "type": "uint256"
            },
            {
              "internalType": "address",
              "name": "owner",
              "type": "address"
            },
            {
              "internalType": "uint256",
              "name": "timeWhenSold",
              "type": "uint256"
            },
            {
              "internalType": "bool",
              "name": "isAvaliable",
              "type": "bool"
            }
          ],
          "internalType": "struct RacksItemsv3.caseTicket[]",
          "name": "",
          "type": "tuple[]"
        }
      ],
      "stateMutability": "view",
      "type": "function"
    },
    {
      "inputs": [],
      "name": "getItemsOnSale",
      "outputs": [
        {
          "components": [
            {
              "internalType": "uint256",
              "name": "tokenId",
              "type": "uint256"
            },
            {
              "internalType": "uint256",
              "name": "marketItemId",
              "type": "uint256"
            },
            {
              "internalType": "uint256",
              "name": "price",
              "type": "uint256"
            },
            {
              "internalType": "address",
              "name": "itemOwner",
              "type": "address"
            },
            {
              "internalType": "bool",
              "name": "isOnSale",
              "type": "bool"
            }
          ],
          "internalType": "struct RacksItemsv3.itemOnSale[]",
          "name": "",
          "type": "tuple[]"
        }
      ],
      "stateMutability": "view",
      "type": "function"
    },
    {
      "inputs": [
        {
          "internalType": "uint256",
          "name": "marketItemId",
          "type": "uint256"
        }
      ],
      "name": "getMarketItem",
      "outputs": [
        {
          "components": [
            {
              "internalType": "uint256",
              "name": "tokenId",
              "type": "uint256"
            },
            {
              "internalType": "uint256",
              "name": "marketItemId",
              "type": "uint256"
            },
            {
              "internalType": "uint256",
              "name": "price",
              "type": "uint256"
            },
            {
              "internalType": "address",
              "name": "itemOwner",
              "type": "address"
            },
            {
              "internalType": "bool",
              "name": "isOnSale",
              "type": "bool"
            }
          ],
          "internalType": "struct RacksItemsv3.itemOnSale",
          "name": "",
          "type": "tuple"
        }
      ],
      "stateMutability": "view",
      "type": "function"
    },
    {
      "inputs": [
        {
          "internalType": "uint256",
          "name": "ticketId",
          "type": "uint256"
        }
      ],
      "name": "getMarketTicket",
      "outputs": [
        {
          "components": [
            {
              "internalType": "uint256",
              "name": "ticketId",
              "type": "uint256"
            },
            {
              "internalType": "uint256",
              "name": "numTries",
              "type": "uint256"
            },
            {
              "internalType": "uint256",
              "name": "duration",
              "type": "uint256"
            },
            {
              "internalType": "uint256",
              "name": "price",
              "type": "uint256"
            },
            {
              "internalType": "address",
              "name": "owner",
              "type": "address"
            },
            {
              "internalType": "uint256",
              "name": "timeWhenSold",
              "type": "uint256"
            },
            {
              "internalType": "bool",
              "name": "isAvaliable",
              "type": "bool"
            }
          ],
          "internalType": "struct RacksItemsv3.caseTicket",
          "name": "",
          "type": "tuple"
        }
      ],
      "stateMutability": "view",
      "type": "function"
    },
    {
      "inputs": [
        {
          "internalType": "bytes32",
          "name": "role",
          "type": "bytes32"
        }
      ],
      "name": "getRoleAdmin",
      "outputs": [
        {
          "internalType": "bytes32",
          "name": "",
          "type": "bytes32"
        }
      ],
      "stateMutability": "view",
      "type": "function"
    },
    {
      "inputs": [
        {
          "internalType": "uint256",
          "name": "ticketId",
          "type": "uint256"
        }
      ],
      "name": "getTicketDurationLeft",
      "outputs": [
        {
          "internalType": "uint256",
          "name": "",
          "type": "uint256"
        }
      ],
      "stateMutability": "view",
      "type": "function"
    },
    {
      "inputs": [
        {
          "internalType": "bytes32",
          "name": "role",
          "type": "bytes32"
        },
        {
          "internalType": "address",
          "name": "account",
          "type": "address"
        }
      ],
      "name": "grantRole",
      "outputs": [],
      "stateMutability": "nonpayable",
      "type": "function"
    },
    {
      "inputs": [
        {
          "internalType": "bytes32",
          "name": "role",
          "type": "bytes32"
        },
        {
          "internalType": "address",
          "name": "account",
          "type": "address"
        }
      ],
      "name": "hasRole",
      "outputs": [
        {
          "internalType": "bool",
          "name": "",
          "type": "bool"
        }
      ],
      "stateMutability": "view",
      "type": "function"
    },
    {
      "inputs": [],
      "name": "i_MrCryptoAddress",
      "outputs": [
        {
          "internalType": "address",
          "name": "",
          "type": "address"
        }
      ],
      "stateMutability": "view",
      "type": "function"
    },
    {
      "inputs": [],
      "name": "i_callbackGasLimit",
      "outputs": [
        {
          "internalType": "uint32",
          "name": "",
          "type": "uint32"
        }
      ],
      "stateMutability": "view",
      "type": "function"
    },
    {
      "inputs": [],
      "name": "i_gasLane",
      "outputs": [
        {
          "internalType": "bytes32",
          "name": "",
          "type": "bytes32"
        }
      ],
      "stateMutability": "view",
      "type": "function"
    },
    {
      "inputs": [],
      "name": "i_subscriptionId",
      "outputs": [
        {
          "internalType": "uint64",
          "name": "",
          "type": "uint64"
        }
      ],
      "stateMutability": "view",
      "type": "function"
    },
    {
      "inputs": [],
      "name": "i_vrfCoordinator",
      "outputs": [
        {
          "internalType": "contract VRFCoordinatorV2Interface",
          "name": "",
          "type": "address"
        }
      ],
      "stateMutability": "view",
      "type": "function"
    },
    {
      "inputs": [
        {
          "internalType": "address",
          "name": "account",
          "type": "address"
        },
        {
          "internalType": "address",
          "name": "operator",
          "type": "address"
        }
      ],
      "name": "isApprovedForAll",
      "outputs": [
        {
          "internalType": "bool",
          "name": "",
          "type": "bool"
        }
      ],
      "stateMutability": "view",
      "type": "function"
    },
    {
      "inputs": [
        {
          "internalType": "address",
          "name": "user",
          "type": "address"
        }
      ],
      "name": "isVip",
      "outputs": [
        {
          "internalType": "bool",
          "name": "",
          "type": "bool"
        }
      ],
      "stateMutability": "view",
      "type": "function"
    },
    {
      "inputs": [
        {
          "internalType": "uint256",
          "name": "itemSupply",
          "type": "uint256"
        }
      ],
      "name": "listItem",
      "outputs": [],
      "stateMutability": "nonpayable",
      "type": "function"
    },
    {
      "inputs": [
        {
          "internalType": "uint256",
          "name": "marketItemId",
          "type": "uint256"
        },
        {
          "internalType": "uint256",
          "name": "price",
          "type": "uint256"
        }
      ],
      "name": "listItemOnMarket",
      "outputs": [],
      "stateMutability": "nonpayable",
      "type": "function"
    },
    {
      "inputs": [
        {
          "internalType": "uint256",
          "name": "numTries",
          "type": "uint256"
        },
        {
          "internalType": "uint256",
          "name": "_hours",
          "type": "uint256"
        },
        {
          "internalType": "uint256",
          "name": "price",
          "type": "uint256"
        }
      ],
      "name": "listTicket",
      "outputs": [],
      "stateMutability": "nonpayable",
      "type": "function"
    },
    {
      "inputs": [
        {
          "internalType": "address",
          "name": "",
          "type": "address"
        },
        {
          "internalType": "address",
          "name": "",
          "type": "address"
        },
        {
          "internalType": "uint256[]",
          "name": "",
          "type": "uint256[]"
        },
        {
          "internalType": "uint256[]",
          "name": "",
          "type": "uint256[]"
        },
        {
          "internalType": "bytes",
          "name": "",
          "type": "bytes"
        }
      ],
      "name": "onERC1155BatchReceived",
      "outputs": [
        {
          "internalType": "bytes4",
          "name": "",
          "type": "bytes4"
        }
      ],
      "stateMutability": "nonpayable",
      "type": "function"
    },
    {
      "inputs": [
        {
          "internalType": "address",
          "name": "",
          "type": "address"
        },
        {
          "internalType": "address",
          "name": "",
          "type": "address"
        },
        {
          "internalType": "uint256",
          "name": "",
          "type": "uint256"
        },
        {
          "internalType": "uint256",
          "name": "",
          "type": "uint256"
        },
        {
          "internalType": "bytes",
          "name": "",
          "type": "bytes"
        }
      ],
      "name": "onERC1155Received",
      "outputs": [
        {
          "internalType": "bytes4",
          "name": "",
          "type": "bytes4"
        }
      ],
      "stateMutability": "nonpayable",
      "type": "function"
    },
    {
      "inputs": [],
      "name": "openCase",
      "outputs": [],
      "stateMutability": "nonpayable",
      "type": "function"
    },
    {
      "inputs": [
        {
          "internalType": "uint256",
          "name": "requestId",
          "type": "uint256"
        },
        {
          "internalType": "uint256[]",
          "name": "randomWords",
          "type": "uint256[]"
        }
      ],
      "name": "rawFulfillRandomWords",
      "outputs": [],
      "stateMutability": "nonpayable",
      "type": "function"
    },
    {
      "inputs": [
        {
          "internalType": "address[]",
          "name": "users",
          "type": "address[]"
        }
      ],
      "name": "removeListRacksMembers",
      "outputs": [],
      "stateMutability": "nonpayable",
      "type": "function"
    },
    {
      "inputs": [
        {
          "internalType": "address",
          "name": "user",
          "type": "address"
        }
      ],
      "name": "removeSingleRacksMember",
      "outputs": [],
      "stateMutability": "nonpayable",
      "type": "function"
    },
    {
      "inputs": [
        {
          "internalType": "bytes32",
          "name": "role",
          "type": "bytes32"
        },
        {
          "internalType": "address",
          "name": "account",
          "type": "address"
        }
      ],
      "name": "renounceRole",
      "outputs": [],
      "stateMutability": "nonpayable",
      "type": "function"
    },
    {
      "inputs": [
        {
          "internalType": "bytes32",
          "name": "role",
          "type": "bytes32"
        },
        {
          "internalType": "address",
          "name": "account",
          "type": "address"
        }
      ],
      "name": "revokeRole",
      "outputs": [],
      "stateMutability": "nonpayable",
      "type": "function"
    },
    {
      "inputs": [],
      "name": "s_contractState",
      "outputs": [
        {
          "internalType": "enum RacksItemsv3.ContractState",
          "name": "",
          "type": "uint8"
        }
      ],
      "stateMutability": "view",
      "type": "function"
    },
    {
      "inputs": [],
      "name": "s_randomWord",
      "outputs": [
        {
          "internalType": "uint256",
          "name": "",
          "type": "uint256"
        }
      ],
      "stateMutability": "view",
      "type": "function"
    },
    {
      "inputs": [
        {
          "internalType": "address",
          "name": "from",
          "type": "address"
        },
        {
          "internalType": "address",
          "name": "to",
          "type": "address"
        },
        {
          "internalType": "uint256[]",
          "name": "ids",
          "type": "uint256[]"
        },
        {
          "internalType": "uint256[]",
          "name": "amounts",
          "type": "uint256[]"
        },
        {
          "internalType": "bytes",
          "name": "data",
          "type": "bytes"
        }
      ],
      "name": "safeBatchTransferFrom",
      "outputs": [],
      "stateMutability": "nonpayable",
      "type": "function"
    },
    {
      "inputs": [
        {
          "internalType": "address",
          "name": "from",
          "type": "address"
        },
        {
          "internalType": "address",
          "name": "to",
          "type": "address"
        },
        {
          "internalType": "uint256",
          "name": "id",
          "type": "uint256"
        },
        {
          "internalType": "uint256",
          "name": "amount",
          "type": "uint256"
        },
        {
          "internalType": "bytes",
          "name": "data",
          "type": "bytes"
        }
      ],
      "name": "safeTransferFrom",
      "outputs": [],
      "stateMutability": "nonpayable",
      "type": "function"
    },
    {
      "inputs": [
        {
          "internalType": "address",
          "name": "_newAdmin",
          "type": "address"
        }
      ],
      "name": "setAdmin",
      "outputs": [],
      "stateMutability": "nonpayable",
      "type": "function"
    },
    {
      "inputs": [
        {
          "internalType": "address",
          "name": "operator",
          "type": "address"
        },
        {
          "internalType": "bool",
          "name": "approved",
          "type": "bool"
        }
      ],
      "name": "setApprovalForAll",
      "outputs": [],
      "stateMutability": "nonpayable",
      "type": "function"
    },
    {
      "inputs": [
        {
          "internalType": "uint256",
          "name": "price",
          "type": "uint256"
        }
      ],
      "name": "setCasePrice",
      "outputs": [],
      "stateMutability": "nonpayable",
      "type": "function"
    },
    {
      "inputs": [
        {
          "internalType": "address[]",
          "name": "users",
          "type": "address[]"
        }
      ],
      "name": "setListRacksMembers",
      "outputs": [],
      "stateMutability": "nonpayable",
      "type": "function"
    },
    {
      "inputs": [
        {
          "internalType": "address",
          "name": "user",
          "type": "address"
        }
      ],
      "name": "setSingleRacksMember",
      "outputs": [],
      "stateMutability": "nonpayable",
      "type": "function"
    },
    {
      "inputs": [
        {
          "internalType": "uint256",
          "name": "tokenId",
          "type": "uint256"
        },
        {
          "internalType": "string",
          "name": "_uri",
          "type": "string"
        }
      ],
      "name": "setTokenUri",
      "outputs": [],
      "stateMutability": "nonpayable",
      "type": "function"
    },
    {
      "inputs": [
        {
          "internalType": "uint256",
          "name": "tokenId",
          "type": "uint256"
        }
      ],
      "name": "supplyOfItem",
      "outputs": [
        {
          "internalType": "uint256",
          "name": "",
          "type": "uint256"
        }
      ],
      "stateMutability": "view",
      "type": "function"
    },
    {
      "inputs": [
        {
          "internalType": "bytes4",
          "name": "interfaceId",
          "type": "bytes4"
        }
      ],
      "name": "supportsInterface",
      "outputs": [
        {
          "internalType": "bool",
          "name": "",
          "type": "bool"
        }
      ],
      "stateMutability": "view",
      "type": "function"
    },
    {
      "inputs": [
        {
          "internalType": "uint256",
          "name": "marketItemId",
          "type": "uint256"
        }
      ],
      "name": "unListItem",
      "outputs": [],
      "stateMutability": "nonpayable",
      "type": "function"
    },
    {
      "inputs": [
        {
          "internalType": "uint256",
          "name": "ticketId",
          "type": "uint256"
        }
      ],
      "name": "unListTicket",
      "outputs": [],
      "stateMutability": "nonpayable",
      "type": "function"
    },
    {
      "inputs": [
        {
          "internalType": "uint256",
          "name": "tokenId",
          "type": "uint256"
        }
      ],
      "name": "uri",
      "outputs": [
        {
          "internalType": "string",
          "name": "",
          "type": "string"
        }
      ],
      "stateMutability": "view",
      "type": "function"
    },
    {
      "inputs": [
        {
          "internalType": "address",
          "name": "owner",
          "type": "address"
        }
      ],
      "name": "viewItems",
      "outputs": [
        {
          "internalType": "uint256[]",
          "name": "",
          "type": "uint256[]"
        }
      ],
      "stateMutability": "view",
      "type": "function"
    },
    {
      "inputs": [
        {
          "internalType": "address",
          "name": "wallet",
          "type": "address"
        }
      ],
      "name": "withdrawAllFunds",
      "outputs": [],
      "stateMutability": "nonpayable",
      "type": "function"
    },
    {
      "inputs": [
        {
          "internalType": "address",
          "name": "wallet",
          "type": "address"
        },
        {
          "internalType": "uint256",
          "name": "amount",
          "type": "uint256"
        }
      ],
      "name": "withdrawFunds",
      "outputs": [],
      "stateMutability": "nonpayable",
      "type": "function"
    },
    {
      "stateMutability": "payable",
      "type": "receive"
    }
  ],
  "bytecode": "0x610120604052600c805460ff191660011790553480156200001f57600080fd5b5060405162006053380380620060538339810160408190526200004291620001ec565b60408051602081019091526000815285906200005e8162000110565b50606090811b6001600160601b031990811660805295901b90941660a05260c0928352911b6001600160c01b03191660e09081521b6001600160e01b031916610100526004805473ef453154766505feb9dbf0a58e6990fd6eb669696001600160a01b0319918216179091556005805482166001600160a01b0393909316929092179091556006805433921691909117905560006008819055600a556001600b55600c805461ff0019169055620002a9565b80516200012590600290602084019062000129565b5050565b82805462000137906200026c565b90600052602060002090601f0160209004810192826200015b5760008555620001a6565b82601f106200017657805160ff1916838001178555620001a6565b82800160010185558215620001a6579182015b82811115620001a657825182559160200191906001019062000189565b50620001b4929150620001b8565b5090565b5b80821115620001b45760008155600101620001b9565b80516001600160a01b0381168114620001e757600080fd5b919050565b600080600080600060a086880312156200020557600080fd5b6200021086620001cf565b6020870151604088015191965094506001600160401b03811681146200023557600080fd5b606087015190935063ffffffff811681146200025057600080fd5b91506200026060808701620001cf565b90509295509295909350565b600181811c908216806200028157607f821691505b60208210811415620002a357634e487b7160e01b600052602260045260246000fd5b50919050565b60805160601c60a05160601c60c05160e05160c01c6101005160e01c615d366200031d60003960008181610b430152611e5a01526000818161063d0152611e270152600081816108a80152611df80152600081816109970152611e9501526000818161138101526113dc0152615d366000f3fe6080604052600436106103b05760003560e01c806389165aa9116101e7578063bc197c811161010d578063de08f653116100a0578063f23a6e611161006f578063f23a6e6114610c2a578063f242432a14610c56578063f48c9d3414610c76578063fd210fd914610c9657600080fd5b8063de08f65314610b92578063e289fcb614610ba7578063e7fb74c714610bc1578063e985e9c514610be157600080fd5b8063ca90958f116100dc578063ca90958f14610afb578063d547741f14610b11578063d757d02714610b31578063dd006d3114610b6557600080fd5b8063bc197c8114610a49578063c107532914610a8e578063c7be7a4914610aae578063c7e05f8d14610adb57600080fd5b8063a22cb46511610185578063b2ead3c711610154578063b2ead3c7146109b9578063b63b8612146109db578063b85e67af14610a07578063bbcbc2e714610a2757600080fd5b8063a22cb46514610925578063a7b1942414610945578063a7bc77c614610965578063aebc45501461098557600080fd5b80638e879c8a116101c15780638e879c8a1461089657806391d14854146108ca578063976298f314610910578063a217fddf146107e157600080fd5b806389165aa9146108365780638ba8b15a146108565780638dc5f45b1461087657600080fd5b806336568abe116102d757806361c073d61161026a57806372cf6e341161023957806372cf6e34146107b757806375b238fc146107e15780637e420db5146107f657806384203f4b1461081657600080fd5b806361c073d61461072f57806367dd74ca1461074f57806367f082b01461076f578063704b6c021461079757600080fd5b80635408c319116102a65780635408c319146106ba57806354e889f6146106da57806357f7789e146106fa578063616524501461071a57600080fd5b806336568abe1461060b578063470cdf971461062b5780634a226657146106785780634e1273f41461068d57600080fd5b80631cb0b2731161034f5780632ce381901161031e5780632ce381901461058b5780632eb2c2d6146105ab5780632f2ff15d146105cb57806332dee40b146105eb57600080fd5b80631cb0b273146104ee5780631fe543e31461050e57806320ba08141461052e578063248a9ca31461055b57600080fd5b80630e89341c1161038b5780630e89341c14610441578063109b82781461046e57806319c08575146104ae5780631c7cbe4f146104ce57600080fd5b8062fdd58e146103bc57806301ffc9a7146103ef578063020f19801461041f57600080fd5b366103b757005b600080fd5b3480156103c857600080fd5b506103dc6103d736600461542e565b610cac565b6040519081526020015b60405180910390f35b3480156103fb57600080fd5b5061040f61040a366004615552565b610d58565b60405190151581526020016103e6565b34801561042b57600080fd5b5061043f61043a366004615633565b610d63565b005b34801561044d57600080fd5b5061046161045c366004615516565b610f35565b6040516103e691906159b5565b34801561047a57600080fd5b5061049673ef453154766505feb9dbf0a58e6990fd6eb6696981565b6040516001600160a01b0390911681526020016103e6565b3480156104ba57600080fd5b506103dc6104c9366004615516565b610fd7565b3480156104da57600080fd5b5061043f6104e9366004615681565b611121565b3480156104fa57600080fd5b5061043f610509366004615516565b6112d9565b34801561051a57600080fd5b5061043f6105293660046155a5565b611376565b34801561053a57600080fd5b506103dc610549366004615516565b60009081526011602052604090205490565b34801561056757600080fd5b506103dc610576366004615516565b60009081526003602052604090206001015490565b34801561059757600080fd5b5061043f6105a6366004615516565b611417565b3480156105b757600080fd5b5061043f6105c63660046152e8565b611483565b3480156105d757600080fd5b5061043f6105e636600461552f565b611525565b3480156105f757600080fd5b5061043f61060636600461529a565b61154f565b34801561061757600080fd5b5061043f61062636600461552f565b611775565b34801561063757600080fd5b5061065f7f000000000000000000000000000000000000000000000000000000000000000081565b60405167ffffffffffffffff90911681526020016103e6565b34801561068457600080fd5b5061043f6117fd565b34801561069957600080fd5b506106ad6106a8366004615495565b611a62565b6040516103e6919061594c565b3480156106c657600080fd5b5061043f6106d5366004615458565b611ba0565b3480156106e657600080fd5b5061043f6106f536600461529a565b611c67565b34801561070657600080fd5b5061043f6107153660046155e2565b611cea565b34801561072657600080fd5b506103dc611dd0565b34801561073b57600080fd5b5061043f61074a366004615516565b611f11565b34801561075b57600080fd5b5061043f61076a366004615516565b6121c6565b34801561077b57600080fd5b50610784600381565b60405161ffff90911681526020016103e6565b3480156107a357600080fd5b5061043f6107b236600461529a565b612699565b3480156107c357600080fd5b506107cc600281565b60405163ffffffff90911681526020016103e6565b3480156107ed57600080fd5b506103dc600081565b34801561080257600080fd5b5061043f610811366004615516565b6126fe565b34801561082257600080fd5b5061040f61083136600461529a565b612880565b34801561084257600080fd5b5061043f610851366004615458565b61293a565b34801561086257600080fd5b5061043f61087136600461529a565b612a01565b34801561088257600080fd5b5061043f610891366004615516565b612a81565b3480156108a257600080fd5b506103dc7f000000000000000000000000000000000000000000000000000000000000000081565b3480156108d657600080fd5b5061040f6108e536600461552f565b60009182526003602090815260408084206001600160a01b0393909316845291905290205460ff1690565b34801561091c57600080fd5b50600b546103dc565b34801561093157600080fd5b5061043f6109403660046153f7565b612b15565b34801561095157600080fd5b5061043f610960366004615633565b612b20565b34801561097157600080fd5b5061043f610980366004615516565b612c4b565b34801561099157600080fd5b506104967f000000000000000000000000000000000000000000000000000000000000000081565b3480156109c557600080fd5b506109ce612d8f565b6040516103e6919061583c565b3480156109e757600080fd5b50600c546109fa90610100900460ff1681565b6040516103e6919061598d565b348015610a1357600080fd5b5061043f610a22366004615655565b612fd0565b348015610a3357600080fd5b50610a3c6132fd565b6040516103e691906158d4565b348015610a5557600080fd5b50610a75610a643660046152e8565b63bc197c8160e01b95945050505050565b6040516001600160e01b031990911681526020016103e6565b348015610a9a57600080fd5b5061043f610aa936600461542e565b613507565b348015610aba57600080fd5b50610ace610ac9366004615516565b6136c9565b6040516103e69190615a20565b348015610ae757600080fd5b506103dc610af6366004615516565b61377c565b348015610b0757600080fd5b506103dc600b5481565b348015610b1d57600080fd5b5061043f610b2c36600461552f565b6137ac565b348015610b3d57600080fd5b506107cc7f000000000000000000000000000000000000000000000000000000000000000081565b348015610b7157600080fd5b50610b85610b80366004615516565b6137d1565b6040516103e691906159c8565b348015610b9e57600080fd5b5061043f6138a2565b348015610bb357600080fd5b50600c5461040f9060ff1681565b348015610bcd57600080fd5b5061043f610bdc366004615516565b613943565b348015610bed57600080fd5b5061040f610bfc3660046152b5565b6001600160a01b03918216600090815260016020908152604080832093909416825291909152205460ff1690565b348015610c3657600080fd5b50610a75610c45366004615392565b63f23a6e6160e01b95945050505050565b348015610c6257600080fd5b5061043f610c71366004615392565b613d4b565b348015610c8257600080fd5b506106ad610c9136600461529a565b613de6565b348015610ca257600080fd5b506103dc600f5481565b60006001600160a01b038316610d2f5760405162461bcd60e51b815260206004820152602b60248201527f455243313135353a2062616c616e636520717565727920666f7220746865207a60448201527f65726f206164647265737300000000000000000000000000000000000000000060648201526084015b60405180910390fd5b506000818152602081815260408083206001600160a01b03861684529091529020545b92915050565b6000610d5282613e7d565b6000610d6f3384610cac565b11610dbc5760405162461bcd60e51b815260206004820152600f60248201527f4974656d206e6f7420666f756e642e00000000000000000000000000000000006044820152606401610d26565b6040805160a08101825283815260098054602083019081529282018481523360608401908152600160808501818152600d80549283018155600090815295517fd7b6990105719101dabeb77144f2a3385c8033acd3af97e9423a695e81ad1eb560049093029283015595517fd7b6990105719101dabeb77144f2a3385c8033acd3af97e9423a695e81ad1eb682015591517fd7b6990105719101dabeb77144f2a3385c8033acd3af97e9423a695e81ad1eb7830155517fd7b6990105719101dabeb77144f2a3385c8033acd3af97e9423a695e81ad1eb8909101805494516001600160a01b039092167fffffffffffffffffffffff00000000000000000000000000000000000000000090951694909417600160a01b911515919091021790925581549190610eea83615b99565b909155505060408051338152602081018490529081018290527f23cba88d6c6f26b62b2cfc32a2cc04fbbde8590188b97cd3590e45af9ac6dd6d906060015b60405180910390a15050565b6000818152601260205260409020805460609190610f5290615b31565b80601f0160208091040260200160405190810160405280929190818152602001828054610f7e90615b31565b8015610fcb5780601f10610fa057610100808354040283529160200191610fcb565b820191906000526020600020905b815481529060010190602001808311610fae57829003601f168201915b50505050509050919050565b6000603c600e8381548110610fee57610fee615c0a565b90600052602060002090600702016002015461100a9190615aa0565b600e838154811061101d5761101d615c0a565b9060005260206000209060070201600501544261103a9190615ad3565b116110ad5760405162461bcd60e51b815260206004820152602360248201527f5469636b657420686173206e6f2074696d65206c65667420666f72206c656e6460448201527f696e6700000000000000000000000000000000000000000000000000000000006064820152608401610d26565b6000603c600e84815481106110c4576110c4615c0a565b9060005260206000209060070201600201546110e09190615aa0565b600e84815481106110f3576110f3615c0a565b906000526020600020906007020160050154426111109190615ad3565b61111a9190615ad3565b9392505050565b3360009081526013602052604090205460ff1661118f5760405162461bcd60e51b815260206004820152602660248201527f55736572206973206e6f742063757272656e746c792073656c6c696e67206120604482015265151a58dad95d60d21b6064820152608401610d26565b336001600160a01b0316600e85815481106111ac576111ac615c0a565b60009182526020909120600460079092020101546001600160a01b0316146112165760405162461bcd60e51b815260206004820181905260248201527f55736572206973206e6f74206f776e6572206f662074686973207469636b65746044820152606401610d26565b80600e858154811061122a5761122a615c0a565b90600052602060002090600702016003018190555081600e858154811061125357611253615c0a565b90600052602060002090600702016002018190555082600e858154811061127c5761127c615c0a565b6000918252602091829020600160079092020101919091556040805133815291820185905281018290527f4dfa55e7e1af9cb25343bfcd39c4bcb1f066d75ebe9b67988cf1496f06dedfef9060600160405180910390a150505050565b60006112e53383610cac565b116112ef57600080fd5b6112fb33826001613ebb565b600081815260116020526040812080546001929061131a908490615ad3565b925050819055506001600760008282546113349190615ad3565b909155505060408051338152602081018390527f9e90d55d2f1f115ffe1b87372c45f27f6b3a2b5ba392942167be78456189009491015b60405180910390a150565b336001600160a01b037f00000000000000000000000000000000000000000000000000000000000000001614611409576040517f1cf993f40000000000000000000000000000000000000000000000000000000081523360048201526001600160a01b037f0000000000000000000000000000000000000000000000000000000000000000166024820152604401610d26565b611413828261406f565b5050565b61142033614094565b6114765760405162461bcd60e51b815260206004820152602160248201527f55736572206973206e6f7420746865204f776e6572206f7220616e2041646d696044820152603760f91b6064820152608401610d26565b61148030826140f3565b50565b6001600160a01b03851633148061149f575061149f8533610bfc565b6115115760405162461bcd60e51b815260206004820152603260248201527f455243313135353a207472616e736665722063616c6c6572206973206e6f742060448201527f6f776e6572206e6f7220617070726f76656400000000000000000000000000006064820152608401610d26565b61151e858585858561415e565b5050505050565b600082815260036020526040902060010154611540816143d1565b61154a83836143db565b505050565b6006546001600160a01b031633146115a95760405162461bcd60e51b815260206004820152601560248201527f55736572206973206e6f7420746865206f776e657200000000000000000000006044820152606401610d26565b6005546040516370a0823160e01b81523060048201526000916001600160a01b0316906370a082319060240160206040518083038186803b1580156115ed57600080fd5b505afa158015611601573d6000803e3d6000fd5b505050506040513d601f19601f82011682018060405250810190611625919061558c565b116116725760405162461bcd60e51b815260206004820152601460248201527f4e6f2066756e647320746f2077697468647261770000000000000000000000006044820152606401610d26565b6005546040516370a0823160e01b81523060048201526001600160a01b039091169063a9059cbb90839083906370a082319060240160206040518083038186803b1580156116bf57600080fd5b505afa1580156116d3573d6000803e3d6000fd5b505050506040513d601f19601f820116820180604052508101906116f7919061558c565b6040516001600160e01b031960e085901b1681526001600160a01b0390921660048301526024820152604401602060405180830381600087803b15801561173d57600080fd5b505af1158015611751573d6000803e3d6000fd5b505050506040513d601f19601f8201168201806040525081019061141391906154f9565b6001600160a01b03811633146117f35760405162461bcd60e51b815260206004820152602f60248201527f416363657373436f6e74726f6c3a2063616e206f6e6c792072656e6f756e636560448201527f20726f6c657320666f722073656c6600000000000000000000000000000000006064820152608401610d26565b611413828261447d565b6000600c54610100900460ff16600181111561181b5761181b615bf4565b1461188e5760405162461bcd60e51b815260206004820152602560248201527f436f6e7472616374206973206e6f74206163746976652061742074686973206d60448201527f6f6d656e740000000000000000000000000000000000000000000000000000006064820152608401610d26565b600554600b546040517f23b872dd00000000000000000000000000000000000000000000000000000000815233600482015230602482015260448101919091526001600160a01b03909116906323b872dd90606401602060405180830381600087803b1580156118fd57600080fd5b505af1158015611911573d6000803e3d6000fd5b505050506040513d601f19601f8201168201806040525081019061193591906154f9565b506000600754611943611dd0565b61194d9190615bb4565b9050600080805b600854811015611a0e576000818152601160205260408120546119779085615a88565b905080851115611989578093506119fb565b8192506119963084610cac565b6119d85760006119a7600185615ad3565b90505b60006119b63083610cac565b11156119c4578093506119d6565b806119ce81615b1a565b9150506119aa565b505b6119f5303385600160405180602001604052806000815250614500565b50611a0e565b5080611a0681615b99565b915050611954565b50611a18336146ab565b600b5460408051338152602081019290925281018290527fea32e37a2618dbb680c93d891742e9e13b30d184822562a0ee3c09290fd42b43906060015b60405180910390a1505050565b60608151835114611adb5760405162461bcd60e51b815260206004820152602960248201527f455243313135353a206163636f756e747320616e6420696473206c656e67746860448201527f206d69736d6174636800000000000000000000000000000000000000000000006064820152608401610d26565b6000835167ffffffffffffffff811115611af757611af7615c20565b604051908082528060200260200182016040528015611b20578160200160208202803683370190505b50905060005b8451811015611b9857611b6b858281518110611b4457611b44615c0a565b6020026020010151858381518110611b5e57611b5e615c0a565b6020026020010151610cac565b828281518110611b7d57611b7d615c0a565b6020908102919091010152611b9181615b99565b9050611b26565b509392505050565b611ba933614094565b611bff5760405162461bcd60e51b815260206004820152602160248201527f55736572206973206e6f7420746865204f776e6572206f7220616e2041646d696044820152603760f91b6064820152608401610d26565b60005b815181101561141357600060106000848481518110611c2357611c23615c0a565b6020908102919091018101516001600160a01b03168252810191909152604001600020805460ff191691151591909117905580611c5f81615b99565b915050611c02565b611c7033614094565b611cc65760405162461bcd60e51b815260206004820152602160248201527f55736572206973206e6f7420746865204f776e6572206f7220616e2041646d696044820152603760f91b6064820152608401610d26565b6001600160a01b03166000908152601060205260409020805460ff19166001179055565b611cf333614094565b611d495760405162461bcd60e51b815260206004820152602160248201527f55736572206973206e6f7420746865204f776e6572206f7220616e2041646d696044820152603760f91b6064820152608401610d26565b60008281526012602052604090208054611d6290615b31565b159050611db15760405162461bcd60e51b815260206004820152601560248201527f43616e206e6f74207365742075726920747769636500000000000000000000006044820152606401610d26565b6000828152601260209081526040909120825161154a9284019061507f565b6040517f5d3b1d300000000000000000000000000000000000000000000000000000000081527f0000000000000000000000000000000000000000000000000000000000000000600482015267ffffffffffffffff7f00000000000000000000000000000000000000000000000000000000000000001660248201526003604482015263ffffffff7f00000000000000000000000000000000000000000000000000000000000000001660648201526002608482015260009081906001600160a01b037f00000000000000000000000000000000000000000000000000000000000000001690635d3b1d309060a401602060405180830381600087803b158015611ed957600080fd5b505af1158015611eed573d6000803e3d6000fd5b505050506040513d601f19601f82011682018060405250810190610d52919061558c565b3360009081526016602052604090205460ff16611f705760405162461bcd60e51b815260206004820152601c60248201527f5573657220646964206e6f742073656c6c20616e79205469636b6574000000006044820152606401610d26565b603c600e8281548110611f8557611f85615c0a565b906000526020600020906007020160020154611fa19190615aa0565b600e8281548110611fb457611fb4615c0a565b90600052602060002090600702016005015442611fd19190615ad3565b116120445760405162461bcd60e51b815260206004820152602960248201527f4475726174696f6e206f6620746865205469636b6574206973207374696c6c2060448201527f6176616c6961626c6500000000000000000000000000000000000000000000006064820152608401610d26565b600060146000600e848154811061205d5761205d615c0a565b60009182526020808320600460079093020191909101546001600160a01b031683528281019390935260409182018120805494151560ff1995861617905533808252601484528282208054861660011790556016909352208054909216909155600e8054839081106120d1576120d1615c0a565b906000526020600020906007020160040160006101000a8154816001600160a01b0302191690836001600160a01b03160217905550600160146000600e848154811061211f5761211f615c0a565b60009182526020808320600792909202909101600401546001600160a01b031683528201929092526040019020805460ff1916911515919091179055600e80547f5093646a80c0a81f51115fbf5ec8379ecf902ae2ba552c74599cbe844dcb53e391908390811061219257612192615c0a565b600091825260209182902060079091020160040154604080516001600160a01b03909216825233928201929092520161136b565b6121cf33612880565b156121d957600080fd5b336001600160a01b0316600e82815481106121f6576121f6615c0a565b60009182526020909120600460079092020101546001600160a01b031614156122875760405162461bcd60e51b815260206004820152602560248201527f596f752063616e206e6f74206275792061207469636b657420746f20796f757260448201527f2073656c660000000000000000000000000000000000000000000000000000006064820152608401610d26565b600e818154811061229a5761229a615c0a565b600091825260209091206006600790920201015460ff1615156001146123285760405162461bcd60e51b815260206004820152602160248201527f5469636b6574206973206e6f742063757272656e746c79206176616c6961626c60448201527f65000000000000000000000000000000000000000000000000000000000000006064820152608401610d26565b6000600e828154811061233d5761233d615c0a565b6000918252602090912060079091020160040154600554600e80546001600160a01b03938416945092909116916323b872dd9133918690811061238257612382615c0a565b906000526020600020906007020160040160009054906101000a90046001600160a01b0316600e86815481106123ba576123ba615c0a565b60009182526020909120600360079092020101546040516001600160e01b031960e086901b1681526001600160a01b0393841660048201529290911660248301526044820152606401602060405180830381600087803b15801561241d57600080fd5b505af1158015612431573d6000803e3d6000fd5b505050506040513d601f19601f8201168201806040525081019061245591906154f9565b5042600e838154811061246a5761246a615c0a565b906000526020600020906007020160050181905550600060146000600e858154811061249857612498615c0a565b60009182526020808320600792909202909101600401546001600160a01b031683528201929092526040018120805460ff191692151592909217909155600e80546013918391869081106124ee576124ee615c0a565b60009182526020808320600792909202909101600401546001600160a01b031683528201929092526040018120805460ff191692151592909217909155600e805460019260169290918690811061254757612547615c0a565b60009182526020808320600460079093020191909101546001600160a01b031683528281019390935260409182018120805494151560ff19958616179055338082526014909352208054909216600117909155600e8054849081106125ae576125ae615c0a565b906000526020600020906007020160040160006101000a8154816001600160a01b0302191690836001600160a01b031602179055506000600e83815481106125f8576125f8615c0a565b906000526020600020906007020160060160006101000a81548160ff0219169083151502179055507f060f7dd92424d6f1af65d2fe9acba5b63d299cc26cd8eb26403ca371bc9fbfbb828233600e868154811061265757612657615c0a565b906000526020600020906007020160030154604051610f2994939291909384526001600160a01b03928316602085015291166040830152606082015260800190565b6006546001600160a01b031633146126f35760405162461bcd60e51b815260206004820152601560248201527f55736572206973206e6f7420746865206f776e657200000000000000000000006044820152606401610d26565b6114806000826147fc565b3360009081526013602052604090205460ff1661276c5760405162461bcd60e51b815260206004820152602660248201527f55736572206973206e6f742063757272656e746c792073656c6c696e67206120604482015265151a58dad95d60d21b6064820152608401610d26565b336001600160a01b0316600e828154811061278957612789615c0a565b60009182526020909120600460079092020101546001600160a01b0316146127f35760405162461bcd60e51b815260206004820181905260248201527f55736572206973206e6f74206f776e6572206f662074686973207469636b65746044820152606401610d26565b6000600e828154811061280857612808615c0a565b6000918252602080832060066007939093020191909101805493151560ff19948516179055338083526013825260408084208054861690556014835292839020805490941660011790935590519182527f5dbab6b1e9ddd154d6eb51aa5622fb5278ea62a0b5f81d046a945d899490f631910161136b565b600480546040516370a0823160e01b81526001600160a01b0384811693820193909352600092839216906370a082319060240160206040518083038186803b1580156128cb57600080fd5b505afa1580156128df573d6000803e3d6000fd5b505050506040513d601f19601f82011682018060405250810190612903919061558c565b1161290d57600080fd5b6001600160a01b03821660009081526010602052604090205460ff1661293257600080fd5b506001919050565b61294333614094565b6129995760405162461bcd60e51b815260206004820152602160248201527f55736572206973206e6f7420746865204f776e6572206f7220616e2041646d696044820152603760f91b6064820152608401610d26565b60005b8151811015611413576001601060008484815181106129bd576129bd615c0a565b6020908102919091018101516001600160a01b03168252810191909152604001600020805460ff1916911515919091179055806129f981615b99565b91505061299c565b612a0a33614094565b612a605760405162461bcd60e51b815260206004820152602160248201527f55736572206973206e6f7420746865204f776e6572206f7220616e2041646d696044820152603760f91b6064820152608401610d26565b6001600160a01b03166000908152601060205260409020805460ff19169055565b612a8a33614094565b612ae05760405162461bcd60e51b815260206004820152602160248201527f55736572206973206e6f7420746865204f776e6572206f7220616e2041646d696044820152603760f91b6064820152608401610d26565b600b8190556040518181527f06cd74aabc11982a85b554df4d7833623303656fe69bed4db1b0cb3245feebe39060200161136b565b611413338383614806565b336001600160a01b0316600d8381548110612b3d57612b3d615c0a565b60009182526020909120600360049092020101546001600160a01b031614612bb35760405162461bcd60e51b815260206004820152602360248201527f596f7520617265206e6f7420746865206f776e6572206f66207468697320697460448201526232b69760e91b6064820152608401610d26565b6000600d8381548110612bc857612bc8615c0a565b906000526020600020906004020160020154905081600d8481548110612bf057612bf0615c0a565b600091825260209182902060026004909202010191909155604080513381529182018590528101829052606081018390527fb141d00f22a670547caacc412e6489d8edaba6a840df558118363ce1a40d6ed290608001611a55565b336001600160a01b0316600d8281548110612c6857612c68615c0a565b60009182526020909120600360049092020101546001600160a01b031614612cde5760405162461bcd60e51b815260206004820152602360248201527f596f7520617265206e6f7420746865206f776e6572206f66207468697320697460448201526232b69760e91b6064820152608401610d26565b612cfb303383600160405180602001604052806000815250614500565b6000600d8281548110612d1057612d10615c0a565b60009182526020918290206003600490920201018054921515600160a01b027fffffffffffffffffffffff00ffffffffffffffffffffffffffffffffffffffff90931692909217909155604080513381529182018390527fc9cedcca3d85d6009a562a9e70071f6288adabda9ba7f059589165e75c9cf404910161136b565b60606000805b600e54811015612e4f576000600e8281548110612db457612db4615c0a565b60009182526020918290206040805160e081018252600790930290910180548352600180820154948401949094526002810154918301919091526003810154606083015260048101546001600160a01b03166080830152600581015460a08301526006015460ff16151560c082018190529092501415612e3c57612e39600184615a88565b92505b5080612e4781615b99565b915050612d95565b5060008167ffffffffffffffff811115612e6b57612e6b615c20565b604051908082528060200260200182016040528015612ee757816020015b612ed46040518060e001604052806000815260200160008152602001600081526020016000815260200160006001600160a01b03168152602001600081526020016000151581525090565b815260200190600190039081612e895790505b5090506000805b600e54811015612fc7576000600e8281548110612f0d57612f0d615c0a565b60009182526020918290206040805160e081018252600790930290910180548352600180820154948401949094526002810154918301919091526003810154606083015260048101546001600160a01b03166080830152600581015460a08301526006015460ff16151560c082018190529092501415612fb45780848481518110612f9a57612f9a615c0a565b60200260200101819052508280612fb090615b99565b9350505b5080612fbf81615b99565b915050612eee565b50909392505050565b3360009081526013602052604090205460ff16156130565760405162461bcd60e51b815260206004820152602a60248201527f5573657220697320616c72656164792063757272656e746c792073656c6c696e60448201527f672061205469636b6574000000000000000000000000000000000000000000006064820152608401610d26565b3360009081526015602052604090205460ff16156130cd573360009081526014602052604090205460ff166130cd5760405162461bcd60e51b815260206004820152601d60248201527f5573657220686173206e6f74207469636b6574206176616c6961626c650000006044820152606401610d26565b6040805160e081018252600a8054825260208201868152928201858152606083018581523360808501908152600060a08601818152600160c08801818152600e80549283018155845297517fbb7b4a454dc3493923482f07822329ed19e8244eff582cc204f8554c3620c3fd60079092029182015597517fbb7b4a454dc3493923482f07822329ed19e8244eff582cc204f8554c3620c3fe89015593517fbb7b4a454dc3493923482f07822329ed19e8244eff582cc204f8554c3620c3ff88015591517fbb7b4a454dc3493923482f07822329ed19e8244eff582cc204f8554c3620c400870155517fbb7b4a454dc3493923482f07822329ed19e8244eff582cc204f8554c3620c401860180547fffffffffffffffffffffffff0000000000000000000000000000000000000000166001600160a01b0390921691909117905590517fbb7b4a454dc3493923482f07822329ed19e8244eff582cc204f8554c3620c40285015591517fbb7b4a454dc3493923482f07822329ed19e8244eff582cc204f8554c3620c403909301805460ff1916931515939093179092558154919061327683615b99565b90915550503360008181526013602090815260408083208054600160ff199182168117909255601584528285208054821690921790915560148352928190208054909316909255815192835282018590528101839052606081018290527f07814713aba2e13eb5f2470225f7395d33fad1452b70f8427dae73e4d3a5934490608001611a55565b60606000805b600d548110156133ad576000600d828154811061332257613322615c0a565b60009182526020918290206040805160a08101825260049093029091018054835260018082015494840194909452600281015491830191909152600301546001600160a01b038116606083015260ff600160a01b90910416151560808201819052909250141561339a57613397600184615a88565b92505b50806133a581615b99565b915050613303565b5060008167ffffffffffffffff8111156133c9576133c9615c20565b60405190808252806020026020018201604052801561343757816020015b6134246040518060a0016040528060008152602001600081526020016000815260200160006001600160a01b031681526020016000151581525090565b8152602001906001900390816133e75790505b5090506000805b600d54811015612fc7576000600d828154811061345d5761345d615c0a565b60009182526020918290206040805160a08101825260049093029091018054835260018082015494840194909452600281015491830191909152600301546001600160a01b038116606083015260ff600160a01b9091041615156080820181905290925014156134f457808484815181106134da576134da615c0a565b602002602001018190525082806134f090615b99565b9350505b50806134ff81615b99565b91505061343e565b6006546001600160a01b031633146135615760405162461bcd60e51b815260206004820152601560248201527f55736572206973206e6f7420746865206f776e657200000000000000000000006044820152606401610d26565b6005546040516370a0823160e01b81523060048201526000916001600160a01b0316906370a082319060240160206040518083038186803b1580156135a557600080fd5b505afa1580156135b9573d6000803e3d6000fd5b505050506040513d601f19601f820116820180604052508101906135dd919061558c565b1161362a5760405162461bcd60e51b815260206004820152601460248201527f4e6f2066756e647320746f2077697468647261770000000000000000000000006044820152606401610d26565b6005546040517fa9059cbb0000000000000000000000000000000000000000000000000000000081526001600160a01b038481166004830152602482018490529091169063a9059cbb90604401602060405180830381600087803b15801561369157600080fd5b505af11580156136a5573d6000803e3d6000fd5b505050506040513d601f19601f8201168201806040525081019061154a91906154f9565b6137066040518060a0016040528060008152602001600081526020016000815260200160006001600160a01b031681526020016000151581525090565b600d828154811061371957613719615c0a565b60009182526020918290206040805160a0810182526004909302909101805483526001810154938301939093526002830154908201526003909101546001600160a01b038116606083015260ff600160a01b909104161515608082015292915050565b6000613787826148fb565b61379057600080fd5b60008281526011602052604081205460075461111a9190615aa0565b6000828152600360205260409020600101546137c7816143d1565b61154a838361447d565b61381c6040518060e001604052806000815260200160008152602001600081526020016000815260200160006001600160a01b03168152602001600081526020016000151581525090565b600e828154811061382f5761382f615c0a565b60009182526020918290206040805160e0810182526007909302909101805483526001810154938301939093526002830154908201526003820154606082015260048201546001600160a01b03166080820152600582015460a082015260069091015460ff16151560c082015292915050565b6138ab33614094565b6139015760405162461bcd60e51b815260206004820152602160248201527f55736572206973206e6f7420746865204f776e6572206f7220616e2041646d696044820152603760f91b6064820152608401610d26565b6000600c54610100900460ff16600181111561391f5761391f615bf4565b141561393657600c805461ff001916610100179055565b600c805461ff0019169055565b600d818154811061395657613956615c0a565b60009182526020909120600490910201600301546001600160a01b03163314156139e85760405162461bcd60e51b815260206004820152602360248201527f596f752063616e206e6f742062757920616e206974656d20746f20796f75727360448201527f656c6600000000000000000000000000000000000000000000000000000000006064820152608401610d26565b600d81815481106139fb576139fb615c0a565b906000526020600020906004020160030160149054906101000a900460ff1615156001151514613a935760405162461bcd60e51b815260206004820152602160248201527f54686973206974656d206973206e6f74206f6e2073616c6520616e796d6f726560448201527f2e000000000000000000000000000000000000000000000000000000000000006064820152608401610d26565b600554600d80546001600160a01b03909216916323b872dd91339185908110613abe57613abe615c0a565b906000526020600020906004020160030160009054906101000a90046001600160a01b0316600d8581548110613af657613af6615c0a565b9060005260206000209060040201600201546040518463ffffffff1660e01b8152600401613b45939291906001600160a01b039384168152919092166020820152604081019190915260600190565b602060405180830381600087803b158015613b5f57600080fd5b505af1158015613b73573d6000803e3d6000fd5b505050506040513d601f19601f82011682018060405250810190613b9791906154f9565b50613c10600d8281548110613bae57613bae615c0a565b906000526020600020906004020160030160009054906101000a90046001600160a01b031633600d8481548110613be757613be7615c0a565b906000526020600020906004020160000154600160405180602001604052806000815250614500565b6000600d8281548110613c2557613c25615c0a565b906000526020600020906004020160030160009054906101000a90046001600160a01b0316905033600d8381548110613c6057613c60615c0a565b906000526020600020906004020160030160006101000a8154816001600160a01b0302191690836001600160a01b031602179055506000600d8381548110613caa57613caa615c0a565b906000526020600020906004020160030160146101000a81548160ff0219169083151502179055507f642067ff529c9b5b1162502fc8e8a3a91dda56e126a84f2fe38d341236231a82338284600d8681548110613d0957613d09615c0a565b600091825260209182902060026004909202010154604080516001600160a01b0396871681529590941691850191909152918301526060820152608001610f29565b6001600160a01b038516331480613d675750613d678533610bfc565b613dd95760405162461bcd60e51b815260206004820152602960248201527f455243313135353a2063616c6c6572206973206e6f74206f776e6572206e6f7260448201527f20617070726f76656400000000000000000000000000000000000000000000006064820152608401610d26565b61151e8585858585614500565b6060600060085467ffffffffffffffff811115613e0557613e05615c20565b604051908082528060200260200182016040528015613e2e578160200160208202803683370190505b50905060005b8151811015613e7657613e478482610cac565b828281518110613e5957613e59615c0a565b602090810291909101015280613e6e81615b99565b915050613e34565b5092915050565b60006001600160e01b031982167f7965db0b000000000000000000000000000000000000000000000000000000001480610d525750610d5282614913565b6001600160a01b038316613f375760405162461bcd60e51b815260206004820152602360248201527f455243313135353a206275726e2066726f6d20746865207a65726f206164647260448201527f65737300000000000000000000000000000000000000000000000000000000006064820152608401610d26565b336000613f4384614951565b90506000613f5084614951565b60408051602080820183526000918290528882528181528282206001600160a01b038b1683529052205490915084811015613ff25760405162461bcd60e51b8152602060048201526024808201527f455243313135353a206275726e20616d6f756e7420657863656564732062616c60448201527f616e6365000000000000000000000000000000000000000000000000000000006064820152608401610d26565b6000868152602081815260408083206001600160a01b038b81168086529184528285208a8703905582518b81529384018a90529092908816917fc3d58168c5ae7397731d063d5bbf3d657854427343f4c083240f7aacaa2d0f62910160405180910390a46040805160208101909152600090525b50505050505050565b8060008151811061408257614082615c0a565b6020026020010151600f819055505050565b6006546000906001600160a01b03838116911614806140ea57506001600160a01b03821660009081527f3617319a054d772f909f7c479a2cebe5066e836a939412e32403c99029b92eff602052604090205460ff165b61293257600080fd5b61411082600854836040518060200160405280600081525061499c565b6141296008548260009182526011602052604090912055565b806007600082825461413b9190615a88565b925050819055506001600860008282546141559190615a88565b90915550505050565b81518351146141d55760405162461bcd60e51b815260206004820152602860248201527f455243313135353a2069647320616e6420616d6f756e7473206c656e6774682060448201527f6d69736d617463680000000000000000000000000000000000000000000000006064820152608401610d26565b6001600160a01b0384166142395760405162461bcd60e51b815260206004820152602560248201527f455243313135353a207472616e7366657220746f20746865207a65726f206164604482015264647265737360d81b6064820152608401610d26565b3360005b845181101561436357600085828151811061425a5761425a615c0a565b60200260200101519050600085838151811061427857614278615c0a565b602090810291909101810151600084815280835260408082206001600160a01b038e16835290935291909120549091508181101561430b5760405162461bcd60e51b815260206004820152602a60248201527f455243313135353a20696e73756666696369656e742062616c616e636520666f60448201526939103a3930b739b332b960b11b6064820152608401610d26565b6000838152602081815260408083206001600160a01b038e8116855292528083208585039055908b16825281208054849290614348908490615a88565b925050819055505050508061435c90615b99565b905061423d565b50846001600160a01b0316866001600160a01b0316826001600160a01b03167f4a39dc06d4c0dbc64b70af90fd698a233a518aa5d07e595d983b8c0526c8f7fb87876040516143b392919061595f565b60405180910390a46143c9818787878787614ac3565b505050505050565b6114808133614c78565b60008281526003602090815260408083206001600160a01b038516845290915290205460ff166114135760008281526003602090815260408083206001600160a01b03851684529091529020805460ff191660011790556144393390565b6001600160a01b0316816001600160a01b0316837f2f8788117e7eff1d82e926ec794901d17c78024a50270940304540a733656f0d60405160405180910390a45050565b60008281526003602090815260408083206001600160a01b038516845290915290205460ff16156114135760008281526003602090815260408083206001600160a01b0385168085529252808320805460ff1916905551339285917ff6391f5c32d9c69d2a47ea670b442974b53935d1edc7fd64eb21e047a839171b9190a45050565b6001600160a01b0384166145645760405162461bcd60e51b815260206004820152602560248201527f455243313135353a207472616e7366657220746f20746865207a65726f206164604482015264647265737360d81b6064820152608401610d26565b33600061457085614951565b9050600061457d85614951565b90506000868152602081815260408083206001600160a01b038c168452909152902054858110156146035760405162461bcd60e51b815260206004820152602a60248201527f455243313135353a20696e73756666696369656e742062616c616e636520666f60448201526939103a3930b739b332b960b11b6064820152608401610d26565b6000878152602081815260408083206001600160a01b038d8116855292528083208985039055908a16825281208054889290614640908490615a88565b909155505060408051888152602081018890526001600160a01b03808b16928c821692918816917fc3d58168c5ae7397731d063d5bbf3d657854427343f4c083240f7aacaa2d0f62910160405180910390a46146a0848a8a8a8a8a614cf8565b505050505050505050565b60005b600e5481101561141357816001600160a01b0316600e82815481106146d5576146d5615c0a565b60009182526020909120600460079092020101546001600160a01b031614156147ea57600e818154811061470b5761470b615c0a565b90600052602060002090600702016001015460011461475f57600e818154811061473757614737615c0a565b60009182526020822060016007909202010180549161475583615b1a565b91905055506147ea565b600e818154811061477257614772615c0a565b60009182526020822060016007909202010180549161479083615b1a565b91905055506000600e82815481106147aa576147aa615c0a565b60009182526020808320600660079093020191909101805493151560ff199485161790556001600160a01b03851682526014905260409020805490911690555b806147f481615b99565b9150506146ae565b61141382826143db565b816001600160a01b0316836001600160a01b0316141561488e5760405162461bcd60e51b815260206004820152602960248201527f455243313135353a2073657474696e6720617070726f76616c2073746174757360448201527f20666f722073656c6600000000000000000000000000000000000000000000006064820152608401610d26565b6001600160a01b03838116600081815260016020908152604080832094871680845294825291829020805460ff191686151590811790915591519182527f17307eab39ab6107e8899845ad3d59bd9653f200f220920489ca2b5937696c31910160405180910390a3505050565b60008181526011602052604081205461293257600080fd5b60006001600160e01b031982167f4e2312e0000000000000000000000000000000000000000000000000000000001480610d525750610d5282614e03565b6040805160018082528183019092526060916000919060208083019080368337019050509050828160008151811061498b5761498b615c0a565b602090810291909101015292915050565b6001600160a01b038416614a185760405162461bcd60e51b815260206004820152602160248201527f455243313135353a206d696e7420746f20746865207a65726f2061646472657360448201527f73000000000000000000000000000000000000000000000000000000000000006064820152608401610d26565b336000614a2485614951565b90506000614a3185614951565b90506000868152602081815260408083206001600160a01b038b16845290915281208054879290614a63908490615a88565b909155505060408051878152602081018790526001600160a01b03808a1692600092918716917fc3d58168c5ae7397731d063d5bbf3d657854427343f4c083240f7aacaa2d0f62910160405180910390a461406683600089898989614cf8565b6001600160a01b0384163b156143c95760405163bc197c8160e01b81526001600160a01b0385169063bc197c8190614b07908990899088908890889060040161579b565b602060405180830381600087803b158015614b2157600080fd5b505af1925050508015614b51575060408051601f3d908101601f19168201909252614b4e9181019061556f565b60015b614c0757614b5d615c36565b806308c379a01415614b975750614b72615c52565b80614b7d5750614b99565b8060405162461bcd60e51b8152600401610d2691906159b5565b505b60405162461bcd60e51b815260206004820152603460248201527f455243313135353a207472616e7366657220746f206e6f6e204552433131353560448201527f526563656976657220696d706c656d656e7465720000000000000000000000006064820152608401610d26565b6001600160e01b0319811663bc197c8160e01b146140665760405162461bcd60e51b815260206004820152602860248201527f455243313135353a204552433131353552656365697665722072656a656374656044820152676420746f6b656e7360c01b6064820152608401610d26565b60008281526003602090815260408083206001600160a01b038516845290915290205460ff1661141357614cb6816001600160a01b03166014614e9e565b614cc1836020614e9e565b604051602001614cd292919061571a565b60408051601f198184030181529082905262461bcd60e51b8252610d26916004016159b5565b6001600160a01b0384163b156143c95760405163f23a6e6160e01b81526001600160a01b0385169063f23a6e6190614d3c90899089908890889088906004016157f9565b602060405180830381600087803b158015614d5657600080fd5b505af1925050508015614d86575060408051601f3d908101601f19168201909252614d839181019061556f565b60015b614d9257614b5d615c36565b6001600160e01b0319811663f23a6e6160e01b146140665760405162461bcd60e51b815260206004820152602860248201527f455243313135353a204552433131353552656365697665722072656a656374656044820152676420746f6b656e7360c01b6064820152608401610d26565b60006001600160e01b031982167fd9b67a26000000000000000000000000000000000000000000000000000000001480614e6657506001600160e01b031982167f0e89341c00000000000000000000000000000000000000000000000000000000145b80610d5257507f01ffc9a7000000000000000000000000000000000000000000000000000000006001600160e01b0319831614610d52565b60606000614ead836002615ab4565b614eb8906002615a88565b67ffffffffffffffff811115614ed057614ed0615c20565b6040519080825280601f01601f191660200182016040528015614efa576020820181803683370190505b5090507f300000000000000000000000000000000000000000000000000000000000000081600081518110614f3157614f31615c0a565b60200101906001600160f81b031916908160001a9053507f780000000000000000000000000000000000000000000000000000000000000081600181518110614f7c57614f7c615c0a565b60200101906001600160f81b031916908160001a9053506000614fa0846002615ab4565b614fab906001615a88565b90505b6001811115615030577f303132333435363738396162636465660000000000000000000000000000000085600f1660108110614fec57614fec615c0a565b1a60f81b82828151811061500257615002615c0a565b60200101906001600160f81b031916908160001a90535060049490941c9361502981615b1a565b9050614fae565b50831561111a5760405162461bcd60e51b815260206004820181905260248201527f537472696e67733a20686578206c656e67746820696e73756666696369656e746044820152606401610d26565b82805461508b90615b31565b90600052602060002090601f0160209004810192826150ad57600085556150f3565b82601f106150c657805160ff19168380011785556150f3565b828001600101855582156150f3579182015b828111156150f35782518255916020019190600101906150d8565b506150ff929150615103565b5090565b5b808211156150ff5760008155600101615104565b600067ffffffffffffffff83111561513257615132615c20565b604051615149601f8501601f191660200182615b6c565b80915083815284848401111561515e57600080fd5b83836020830137600060208583010152509392505050565b80356001600160a01b038116811461518d57600080fd5b919050565b600082601f8301126151a357600080fd5b813560206151b082615a64565b6040516151bd8282615b6c565b8381528281019150858301600585901b870184018810156151dd57600080fd5b60005b85811015615203576151f182615176565b845292840192908401906001016151e0565b5090979650505050505050565b600082601f83011261522157600080fd5b8135602061522e82615a64565b60405161523b8282615b6c565b8381528281019150858301600585901b8701840188101561525b57600080fd5b60005b858110156152035781358452928401929084019060010161525e565b600082601f83011261528b57600080fd5b61111a83833560208501615118565b6000602082840312156152ac57600080fd5b61111a82615176565b600080604083850312156152c857600080fd5b6152d183615176565b91506152df60208401615176565b90509250929050565b600080600080600060a0868803121561530057600080fd5b61530986615176565b945061531760208701615176565b9350604086013567ffffffffffffffff8082111561533457600080fd5b61534089838a01615210565b9450606088013591508082111561535657600080fd5b61536289838a01615210565b9350608088013591508082111561537857600080fd5b506153858882890161527a565b9150509295509295909350565b600080600080600060a086880312156153aa57600080fd5b6153b386615176565b94506153c160208701615176565b93506040860135925060608601359150608086013567ffffffffffffffff8111156153eb57600080fd5b6153858882890161527a565b6000806040838503121561540a57600080fd5b61541383615176565b9150602083013561542381615cdc565b809150509250929050565b6000806040838503121561544157600080fd5b61544a83615176565b946020939093013593505050565b60006020828403121561546a57600080fd5b813567ffffffffffffffff81111561548157600080fd5b61548d84828501615192565b949350505050565b600080604083850312156154a857600080fd5b823567ffffffffffffffff808211156154c057600080fd5b6154cc86838701615192565b935060208501359150808211156154e257600080fd5b506154ef85828601615210565b9150509250929050565b60006020828403121561550b57600080fd5b815161111a81615cdc565b60006020828403121561552857600080fd5b5035919050565b6000806040838503121561554257600080fd5b823591506152df60208401615176565b60006020828403121561556457600080fd5b813561111a81615cea565b60006020828403121561558157600080fd5b815161111a81615cea565b60006020828403121561559e57600080fd5b5051919050565b600080604083850312156155b857600080fd5b82359150602083013567ffffffffffffffff8111156155d657600080fd5b6154ef85828601615210565b600080604083850312156155f557600080fd5b82359150602083013567ffffffffffffffff81111561561357600080fd5b8301601f8101851361562457600080fd5b6154ef85823560208401615118565b6000806040838503121561564657600080fd5b50508035926020909101359150565b60008060006060848603121561566a57600080fd5b505081359360208301359350604090920135919050565b6000806000806080858703121561569757600080fd5b5050823594602084013594506040840135936060013592509050565b600081518084526020808501945080840160005b838110156156e3578151875295820195908201906001016156c7565b509495945050505050565b60008151808452615706816020860160208601615aea565b601f01601f19169290920160200192915050565b7f416363657373436f6e74726f6c3a206163636f756e7420000000000000000000815260008351615752816017850160208801615aea565b7f206973206d697373696e6720726f6c6520000000000000000000000000000000601791840191820152835161578f816028840160208801615aea565b01602801949350505050565b60006001600160a01b03808816835280871660208401525060a060408301526157c760a08301866156b3565b82810360608401526157d981866156b3565b905082810360808401526157ed81856156ee565b98975050505050505050565b60006001600160a01b03808816835280871660208401525084604083015283606083015260a0608083015261583160a08301846156ee565b979650505050505050565b6020808252825182820181905260009190848201906040850190845b818110156158c8576158b5838551805182526020810151602083015260408101516040830152606081015160608301526001600160a01b03608082015116608083015260a081015160a083015260c0810151151560c08301525050565b9284019260e09290920191600101615858565b50909695505050505050565b6020808252825182820181905260009190848201906040850190845b818110156158c8576159398385518051825260208101516020830152604081015160408301526001600160a01b0360608201511660608301526080810151151560808301525050565b9284019260a092909201916001016158f0565b60208152600061111a60208301846156b3565b60408152600061597260408301856156b3565b828103602084015261598481856156b3565b95945050505050565b60208101600283106159af57634e487b7160e01b600052602160045260246000fd5b91905290565b60208152600061111a60208301846156ee565b60e08101610d528284805182526020810151602083015260408101516040830152606081015160608301526001600160a01b03608082015116608083015260a081015160a083015260c0810151151560c08301525050565b60a08101610d5282848051825260208101516020830152604081015160408301526001600160a01b0360608201511660608301526080810151151560808301525050565b600067ffffffffffffffff821115615a7e57615a7e615c20565b5060051b60200190565b60008219821115615a9b57615a9b615bc8565b500190565b600082615aaf57615aaf615bde565b500490565b6000816000190483118215151615615ace57615ace615bc8565b500290565b600082821015615ae557615ae5615bc8565b500390565b60005b83811015615b05578181015183820152602001615aed565b83811115615b14576000848401525b50505050565b600081615b2957615b29615bc8565b506000190190565b600181811c90821680615b4557607f821691505b60208210811415615b6657634e487b7160e01b600052602260045260246000fd5b50919050565b601f8201601f1916810167ffffffffffffffff81118282101715615b9257615b92615c20565b6040525050565b6000600019821415615bad57615bad615bc8565b5060010190565b600082615bc357615bc3615bde565b500690565b634e487b7160e01b600052601160045260246000fd5b634e487b7160e01b600052601260045260246000fd5b634e487b7160e01b600052602160045260246000fd5b634e487b7160e01b600052603260045260246000fd5b634e487b7160e01b600052604160045260246000fd5b600060033d1115615c4f5760046000803e5060005160e01c5b90565b600060443d1015615c605790565b6040516003193d81016004833e81513d67ffffffffffffffff8160248401118184111715615c9057505050505090565b8285019150815181811115615ca85750505050505090565b843d8701016020828501011115615cc25750505050505090565b615cd160208286010187615b6c565b509095945050505050565b801515811461148057600080fd5b6001600160e01b03198116811461148057600080fdfea2646970667358221220d4e7c952372135deef9ec19ff8bfcde9a231bf7d64bb59f702a689d74de950b164736f6c63430008070033",
  "linkReferences": {},
  "deployedLinkReferences": {}
}