{
  "_format": "hh-sol-artifact-1",
  "contractName": "RacksItemsv3",
  "sourceName": "contracts/RacksItemsv3.sol",
  "abi": [
    {
      "inputs": [
        {
          "internalType": "address",
          "name": "vrfCoordinatorV2",
          "type": "address"
        },
        {
          "internalType": "bytes32",
          "name": "gasLane",
          "type": "bytes32"
        },
        {
          "internalType": "uint64",
          "name": "subscriptionId",
          "type": "uint64"
        },
        {
          "internalType": "uint32",
          "name": "callbackGasLimit",
          "type": "uint32"
        },
        {
          "internalType": "address",
          "name": "_racksTokenAddress",
          "type": "address"
        }
      ],
      "stateMutability": "nonpayable",
      "type": "constructor"
    },
    {
      "inputs": [
        {
          "internalType": "address",
          "name": "have",
          "type": "address"
        },
        {
          "internalType": "address",
          "name": "want",
          "type": "address"
        }
      ],
      "name": "OnlyCoordinatorCanFulfill",
      "type": "error"
    },
    {
      "anonymous": false,
      "inputs": [
        {
          "indexed": true,
          "internalType": "address",
          "name": "account",
          "type": "address"
        },
        {
          "indexed": true,
          "internalType": "address",
          "name": "operator",
          "type": "address"
        },
        {
          "indexed": false,
          "internalType": "bool",
          "name": "approved",
          "type": "bool"
        }
      ],
      "name": "ApprovalForAll",
      "type": "event"
    },
    {
      "anonymous": false,
      "inputs": [
        {
          "indexed": false,
          "internalType": "address",
          "name": "user",
          "type": "address"
        },
        {
          "indexed": false,
          "internalType": "uint256",
          "name": "casePrice",
          "type": "uint256"
        },
        {
          "indexed": false,
          "internalType": "uint256",
          "name": "item",
          "type": "uint256"
        }
      ],
      "name": "CaseOpened",
      "type": "event"
    },
    {
      "anonymous": false,
      "inputs": [
        {
          "indexed": true,
          "internalType": "bytes32",
          "name": "role",
          "type": "bytes32"
        },
        {
          "indexed": true,
          "internalType": "bytes32",
          "name": "previousAdminRole",
          "type": "bytes32"
        },
        {
          "indexed": true,
          "internalType": "bytes32",
          "name": "newAdminRole",
          "type": "bytes32"
        }
      ],
      "name": "RoleAdminChanged",
      "type": "event"
    },
    {
      "anonymous": false,
      "inputs": [
        {
          "indexed": true,
          "internalType": "bytes32",
          "name": "role",
          "type": "bytes32"
        },
        {
          "indexed": true,
          "internalType": "address",
          "name": "account",
          "type": "address"
        },
        {
          "indexed": true,
          "internalType": "address",
          "name": "sender",
          "type": "address"
        }
      ],
      "name": "RoleGranted",
      "type": "event"
    },
    {
      "anonymous": false,
      "inputs": [
        {
          "indexed": true,
          "internalType": "bytes32",
          "name": "role",
          "type": "bytes32"
        },
        {
          "indexed": true,
          "internalType": "address",
          "name": "account",
          "type": "address"
        },
        {
          "indexed": true,
          "internalType": "address",
          "name": "sender",
          "type": "address"
        }
      ],
      "name": "RoleRevoked",
      "type": "event"
    },
    {
      "anonymous": false,
      "inputs": [
        {
          "indexed": true,
          "internalType": "address",
          "name": "operator",
          "type": "address"
        },
        {
          "indexed": true,
          "internalType": "address",
          "name": "from",
          "type": "address"
        },
        {
          "indexed": true,
          "internalType": "address",
          "name": "to",
          "type": "address"
        },
        {
          "indexed": false,
          "internalType": "uint256[]",
          "name": "ids",
          "type": "uint256[]"
        },
        {
          "indexed": false,
          "internalType": "uint256[]",
          "name": "values",
          "type": "uint256[]"
        }
      ],
      "name": "TransferBatch",
      "type": "event"
    },
    {
      "anonymous": false,
      "inputs": [
        {
          "indexed": true,
          "internalType": "address",
          "name": "operator",
          "type": "address"
        },
        {
          "indexed": true,
          "internalType": "address",
          "name": "from",
          "type": "address"
        },
        {
          "indexed": true,
          "internalType": "address",
          "name": "to",
          "type": "address"
        },
        {
          "indexed": false,
          "internalType": "uint256",
          "name": "id",
          "type": "uint256"
        },
        {
          "indexed": false,
          "internalType": "uint256",
          "name": "value",
          "type": "uint256"
        }
      ],
      "name": "TransferSingle",
      "type": "event"
    },
    {
      "anonymous": false,
      "inputs": [
        {
          "indexed": false,
          "internalType": "string",
          "name": "value",
          "type": "string"
        },
        {
          "indexed": true,
          "internalType": "uint256",
          "name": "id",
          "type": "uint256"
        }
      ],
      "name": "URI",
      "type": "event"
    },
    {
      "anonymous": false,
      "inputs": [
        {
          "indexed": false,
          "internalType": "uint256",
          "name": "newPrice",
          "type": "uint256"
        }
      ],
      "name": "casePriceChanged",
      "type": "event"
    },
    {
      "anonymous": false,
      "inputs": [
        {
          "indexed": false,
          "internalType": "address",
          "name": "buyer",
          "type": "address"
        },
        {
          "indexed": false,
          "internalType": "address",
          "name": "seller",
          "type": "address"
        },
        {
          "indexed": false,
          "internalType": "uint256",
          "name": "marketItemId",
          "type": "uint256"
        },
        {
          "indexed": false,
          "internalType": "uint256",
          "name": "price",
          "type": "uint256"
        }
      ],
      "name": "itemBought",
      "type": "event"
    },
    {
      "anonymous": false,
      "inputs": [
        {
          "indexed": false,
          "internalType": "address",
          "name": "user",
          "type": "address"
        },
        {
          "indexed": false,
          "internalType": "uint256",
          "name": "tokenId",
          "type": "uint256"
        }
      ],
      "name": "itemExchanged",
      "type": "event"
    },
    {
      "anonymous": false,
      "inputs": [
        {
          "indexed": false,
          "internalType": "address",
          "name": "owner",
          "type": "address"
        },
        {
          "indexed": false,
          "internalType": "uint256",
          "name": "marketItemId",
          "type": "uint256"
        },
        {
          "indexed": false,
          "internalType": "uint256",
          "name": "oldPrice",
          "type": "uint256"
        },
        {
          "indexed": false,
          "internalType": "uint256",
          "name": "newPrice",
          "type": "uint256"
        }
      ],
      "name": "itemPriceChanged",
      "type": "event"
    },
    {
      "anonymous": false,
      "inputs": [
        {
          "indexed": false,
          "internalType": "address",
          "name": "seller",
          "type": "address"
        },
        {
          "indexed": false,
          "internalType": "uint256",
          "name": "numTries",
          "type": "uint256"
        },
        {
          "indexed": false,
          "internalType": "uint256",
          "name": "_hours",
          "type": "uint256"
        },
        {
          "indexed": false,
          "internalType": "uint256",
          "name": "price",
          "type": "uint256"
        }
      ],
      "name": "newTicketOnSale",
      "type": "event"
    },
    {
      "anonymous": false,
      "inputs": [
        {
          "indexed": false,
          "internalType": "address",
          "name": "user",
          "type": "address"
        },
        {
          "indexed": false,
          "internalType": "uint256",
          "name": "tokenId",
          "type": "uint256"
        },
        {
          "indexed": false,
          "internalType": "uint256",
          "name": "price",
          "type": "uint256"
        }
      ],
      "name": "sellingItem",
      "type": "event"
    },
    {
      "anonymous": false,
      "inputs": [
        {
          "indexed": false,
          "internalType": "uint256",
          "name": "ticketId",
          "type": "uint256"
        },
        {
          "indexed": false,
          "internalType": "address",
          "name": "oldOwner",
          "type": "address"
        },
        {
          "indexed": false,
          "internalType": "address",
          "name": "newOwner",
          "type": "address"
        },
        {
          "indexed": false,
          "internalType": "uint256",
          "name": "price",
          "type": "uint256"
        }
      ],
      "name": "ticketBought",
      "type": "event"
    },
    {
      "anonymous": false,
      "inputs": [
        {
          "indexed": false,
          "internalType": "address",
          "name": "borrower",
          "type": "address"
        },
        {
          "indexed": false,
          "internalType": "address",
          "name": "realOwner",
          "type": "address"
        }
      ],
      "name": "ticketClaimedBack",
      "type": "event"
    },
    {
      "anonymous": false,
      "inputs": [
        {
          "indexed": false,
          "internalType": "address",
          "name": "owner",
          "type": "address"
        },
        {
          "indexed": false,
          "internalType": "uint256",
          "name": "newTries",
          "type": "uint256"
        },
        {
          "indexed": false,
          "internalType": "uint256",
          "name": "newPrice",
          "type": "uint256"
        }
      ],
      "name": "ticketPriceChanged",
      "type": "event"
    },
    {
      "anonymous": false,
      "inputs": [
        {
          "indexed": false,
          "internalType": "address",
          "name": "owner",
          "type": "address"
        }
      ],
      "name": "unListTicketOnSale",
      "type": "event"
    },
    {
      "anonymous": false,
      "inputs": [
        {
          "indexed": false,
          "internalType": "address",
          "name": "owner",
          "type": "address"
        },
        {
          "indexed": false,
          "internalType": "uint256",
          "name": "marketItemId",
          "type": "uint256"
        }
      ],
      "name": "unListedItem",
      "type": "event"
    },
    {
      "inputs": [],
      "name": "ADMIN_ROLE",
      "outputs": [
        {
          "internalType": "bytes32",
          "name": "",
          "type": "bytes32"
        }
      ],
      "stateMutability": "view",
      "type": "function"
    },
    {
      "inputs": [],
      "name": "DEFAULT_ADMIN_ROLE",
      "outputs": [
        {
          "internalType": "bytes32",
          "name": "",
          "type": "bytes32"
        }
      ],
      "stateMutability": "view",
      "type": "function"
    },
    {
      "inputs": [],
      "name": "NUM_WORDS",
      "outputs": [
        {
          "internalType": "uint32",
          "name": "",
          "type": "uint32"
        }
      ],
      "stateMutability": "view",
      "type": "function"
    },
    {
      "inputs": [],
      "name": "REQUEST_CONFIRMATIONS",
      "outputs": [
        {
          "internalType": "uint16",
          "name": "",
          "type": "uint16"
        }
      ],
      "stateMutability": "view",
      "type": "function"
    },
    {
      "inputs": [],
      "name": "_randomNumber",
      "outputs": [
        {
          "internalType": "uint256",
          "name": "",
          "type": "uint256"
        }
      ],
      "stateMutability": "nonpayable",
      "type": "function"
    },
    {
      "inputs": [
        {
          "internalType": "uint256",
          "name": "tokenId",
          "type": "uint256"
        }
      ],
      "name": "_rarityOfItem",
      "outputs": [
        {
          "internalType": "uint256",
          "name": "",
          "type": "uint256"
        }
      ],
      "stateMutability": "view",
      "type": "function"
    },
    {
      "inputs": [
        {
          "internalType": "address",
          "name": "account",
          "type": "address"
        },
        {
          "internalType": "uint256",
          "name": "id",
          "type": "uint256"
        }
      ],
      "name": "balanceOf",
      "outputs": [
        {
          "internalType": "uint256",
          "name": "",
          "type": "uint256"
        }
      ],
      "stateMutability": "view",
      "type": "function"
    },
    {
      "inputs": [
        {
          "internalType": "address[]",
          "name": "accounts",
          "type": "address[]"
        },
        {
          "internalType": "uint256[]",
          "name": "ids",
          "type": "uint256[]"
        }
      ],
      "name": "balanceOfBatch",
      "outputs": [
        {
          "internalType": "uint256[]",
          "name": "",
          "type": "uint256[]"
        }
      ],
      "stateMutability": "view",
      "type": "function"
    },
    {
      "inputs": [
        {
          "internalType": "uint256",
          "name": "marketItemId",
          "type": "uint256"
        }
      ],
      "name": "buyItem",
      "outputs": [],
      "stateMutability": "nonpayable",
      "type": "function"
    },
    {
      "inputs": [
        {
          "internalType": "uint256",
          "name": "ticketId",
          "type": "uint256"
        }
      ],
      "name": "buyTicket",
      "outputs": [],
      "stateMutability": "nonpayable",
      "type": "function"
    },
    {
      "inputs": [],
      "name": "casePrice",
      "outputs": [
        {
          "internalType": "uint256",
          "name": "",
          "type": "uint256"
        }
      ],
      "stateMutability": "view",
      "type": "function"
    },
    {
      "inputs": [
        {
          "internalType": "uint256",
          "name": "marketItemId",
          "type": "uint256"
        },
        {
          "internalType": "uint256",
          "name": "newPrice",
          "type": "uint256"
        }
      ],
      "name": "changeItemPrice",
      "outputs": [],
      "stateMutability": "nonpayable",
      "type": "function"
    },
    {
      "inputs": [
        {
          "internalType": "uint256",
          "name": "ticketId",
          "type": "uint256"
        },
        {
          "internalType": "uint256",
          "name": "newTries",
          "type": "uint256"
        },
        {
          "internalType": "uint256",
          "name": "newPrice",
          "type": "uint256"
        }
      ],
      "name": "changeTicketConditions",
      "outputs": [],
      "stateMutability": "nonpayable",
      "type": "function"
    },
    {
      "inputs": [
        {
          "internalType": "uint256",
          "name": "ticketId",
          "type": "uint256"
        }
      ],
      "name": "claimTicketBack",
      "outputs": [],
      "stateMutability": "nonpayable",
      "type": "function"
    },
    {
      "inputs": [],
      "name": "contractActive",
      "outputs": [
        {
          "internalType": "bool",
          "name": "",
          "type": "bool"
        }
      ],
      "stateMutability": "view",
      "type": "function"
    },
    {
      "inputs": [
        {
          "internalType": "address",
          "name": "user",
          "type": "address"
        }
      ],
      "name": "decreaseTicketTries",
      "outputs": [],
      "stateMutability": "nonpayable",
      "type": "function"
    },
    {
      "inputs": [
        {
          "internalType": "uint256",
          "name": "marketItemId",
          "type": "uint256"
        }
      ],
      "name": "exchangeItem",
      "outputs": [],
      "stateMutability": "nonpayable",
      "type": "function"
    },
    {
      "inputs": [],
      "name": "flipContractState",
      "outputs": [],
      "stateMutability": "nonpayable",
      "type": "function"
    },
    {
      "inputs": [],
      "name": "getCasePrice",
      "outputs": [
        {
          "internalType": "uint256",
          "name": "",
          "type": "uint256"
        }
      ],
      "stateMutability": "view",
      "type": "function"
    },
    {
      "inputs": [],
      "name": "getITicketsOnSale",
      "outputs": [
        {
          "components": [
            {
              "internalType": "uint256",
              "name": "ticketId",
              "type": "uint256"
            },
            {
              "internalType": "uint256",
              "name": "numTries",
              "type": "uint256"
            },
            {
              "internalType": "uint256",
              "name": "duration",
              "type": "uint256"
            },
            {
              "internalType": "uint256",
              "name": "price",
              "type": "uint256"
            },
            {
              "internalType": "address",
              "name": "owner",
              "type": "address"
            },
            {
              "internalType": "uint256",
              "name": "timeWhenSold",
              "type": "uint256"
            },
            {
              "internalType": "bool",
              "name": "isAvaliable",
              "type": "bool"
            }
          ],
          "internalType": "struct RacksItemsv3.caseTicket[]",
          "name": "",
          "type": "tuple[]"
        }
      ],
      "stateMutability": "view",
      "type": "function"
    },
    {
      "inputs": [],
      "name": "getItemsOnSale",
      "outputs": [
        {
          "components": [
            {
              "internalType": "uint256",
              "name": "tokenId",
              "type": "uint256"
            },
            {
              "internalType": "uint256",
              "name": "marketItemId",
              "type": "uint256"
            },
            {
              "internalType": "uint256",
              "name": "price",
              "type": "uint256"
            },
            {
              "internalType": "address",
              "name": "itemOwner",
              "type": "address"
            },
            {
              "internalType": "bool",
              "name": "isOnSale",
              "type": "bool"
            }
          ],
          "internalType": "struct RacksItemsv3.itemOnSale[]",
          "name": "",
          "type": "tuple[]"
        }
      ],
      "stateMutability": "view",
      "type": "function"
    },
    {
      "inputs": [
        {
          "internalType": "uint256",
          "name": "marketItemId",
          "type": "uint256"
        }
      ],
      "name": "getMarketItem",
      "outputs": [
        {
          "components": [
            {
              "internalType": "uint256",
              "name": "tokenId",
              "type": "uint256"
            },
            {
              "internalType": "uint256",
              "name": "marketItemId",
              "type": "uint256"
            },
            {
              "internalType": "uint256",
              "name": "price",
              "type": "uint256"
            },
            {
              "internalType": "address",
              "name": "itemOwner",
              "type": "address"
            },
            {
              "internalType": "bool",
              "name": "isOnSale",
              "type": "bool"
            }
          ],
          "internalType": "struct RacksItemsv3.itemOnSale",
          "name": "",
          "type": "tuple"
        }
      ],
      "stateMutability": "view",
      "type": "function"
    },
    {
      "inputs": [
        {
          "internalType": "uint256",
          "name": "ticketId",
          "type": "uint256"
        }
      ],
      "name": "getMarketTicket",
      "outputs": [
        {
          "components": [
            {
              "internalType": "uint256",
              "name": "ticketId",
              "type": "uint256"
            },
            {
              "internalType": "uint256",
              "name": "numTries",
              "type": "uint256"
            },
            {
              "internalType": "uint256",
              "name": "duration",
              "type": "uint256"
            },
            {
              "internalType": "uint256",
              "name": "price",
              "type": "uint256"
            },
            {
              "internalType": "address",
              "name": "owner",
              "type": "address"
            },
            {
              "internalType": "uint256",
              "name": "timeWhenSold",
              "type": "uint256"
            },
            {
              "internalType": "bool",
              "name": "isAvaliable",
              "type": "bool"
            }
          ],
          "internalType": "struct RacksItemsv3.caseTicket",
          "name": "",
          "type": "tuple"
        }
      ],
      "stateMutability": "view",
      "type": "function"
    },
    {
      "inputs": [
        {
          "internalType": "bytes32",
          "name": "role",
          "type": "bytes32"
        }
      ],
      "name": "getRoleAdmin",
      "outputs": [
        {
          "internalType": "bytes32",
          "name": "",
          "type": "bytes32"
        }
      ],
      "stateMutability": "view",
      "type": "function"
    },
    {
      "inputs": [
        {
          "internalType": "bytes32",
          "name": "role",
          "type": "bytes32"
        },
        {
          "internalType": "address",
          "name": "account",
          "type": "address"
        }
      ],
      "name": "grantRole",
      "outputs": [],
      "stateMutability": "nonpayable",
      "type": "function"
    },
    {
      "inputs": [
        {
          "internalType": "bytes32",
          "name": "role",
          "type": "bytes32"
        },
        {
          "internalType": "address",
          "name": "account",
          "type": "address"
        }
      ],
      "name": "hasRole",
      "outputs": [
        {
          "internalType": "bool",
          "name": "",
          "type": "bool"
        }
      ],
      "stateMutability": "view",
      "type": "function"
    },
    {
      "inputs": [],
      "name": "i_MrCryptoAddress",
      "outputs": [
        {
          "internalType": "address",
          "name": "",
          "type": "address"
        }
      ],
      "stateMutability": "view",
      "type": "function"
    },
    {
      "inputs": [],
      "name": "i_callbackGasLimit",
      "outputs": [
        {
          "internalType": "uint32",
          "name": "",
          "type": "uint32"
        }
      ],
      "stateMutability": "view",
      "type": "function"
    },
    {
      "inputs": [],
      "name": "i_gasLane",
      "outputs": [
        {
          "internalType": "bytes32",
          "name": "",
          "type": "bytes32"
        }
      ],
      "stateMutability": "view",
      "type": "function"
    },
    {
      "inputs": [],
      "name": "i_subscriptionId",
      "outputs": [
        {
          "internalType": "uint64",
          "name": "",
          "type": "uint64"
        }
      ],
      "stateMutability": "view",
      "type": "function"
    },
    {
      "inputs": [],
      "name": "i_vrfCoordinator",
      "outputs": [
        {
          "internalType": "contract VRFCoordinatorV2Interface",
          "name": "",
          "type": "address"
        }
      ],
      "stateMutability": "view",
      "type": "function"
    },
    {
      "inputs": [
        {
          "internalType": "address",
          "name": "account",
          "type": "address"
        },
        {
          "internalType": "address",
          "name": "operator",
          "type": "address"
        }
      ],
      "name": "isApprovedForAll",
      "outputs": [
        {
          "internalType": "bool",
          "name": "",
          "type": "bool"
        }
      ],
      "stateMutability": "view",
      "type": "function"
    },
    {
      "inputs": [
        {
          "internalType": "address",
          "name": "user",
          "type": "address"
        }
      ],
      "name": "isVip",
      "outputs": [
        {
          "internalType": "bool",
          "name": "",
          "type": "bool"
        }
      ],
      "stateMutability": "view",
      "type": "function"
    },
    {
      "inputs": [
        {
          "internalType": "uint256",
          "name": "itemSupply",
          "type": "uint256"
        }
      ],
      "name": "listItem",
      "outputs": [],
      "stateMutability": "nonpayable",
      "type": "function"
    },
    {
      "inputs": [
        {
          "internalType": "uint256",
          "name": "marketItemId",
          "type": "uint256"
        },
        {
          "internalType": "uint256",
          "name": "price",
          "type": "uint256"
        }
      ],
      "name": "listItemOnMarket",
      "outputs": [],
      "stateMutability": "nonpayable",
      "type": "function"
    },
    {
      "inputs": [
        {
          "internalType": "uint256",
          "name": "numTries",
          "type": "uint256"
        },
        {
          "internalType": "uint256",
          "name": "_hours",
          "type": "uint256"
        },
        {
          "internalType": "uint256",
          "name": "price",
          "type": "uint256"
        }
      ],
      "name": "listTicket",
      "outputs": [],
      "stateMutability": "nonpayable",
      "type": "function"
    },
    {
      "inputs": [
        {
          "internalType": "address",
          "name": "",
          "type": "address"
        },
        {
          "internalType": "address",
          "name": "",
          "type": "address"
        },
        {
          "internalType": "uint256[]",
          "name": "",
          "type": "uint256[]"
        },
        {
          "internalType": "uint256[]",
          "name": "",
          "type": "uint256[]"
        },
        {
          "internalType": "bytes",
          "name": "",
          "type": "bytes"
        }
      ],
      "name": "onERC1155BatchReceived",
      "outputs": [
        {
          "internalType": "bytes4",
          "name": "",
          "type": "bytes4"
        }
      ],
      "stateMutability": "nonpayable",
      "type": "function"
    },
    {
      "inputs": [
        {
          "internalType": "address",
          "name": "",
          "type": "address"
        },
        {
          "internalType": "address",
          "name": "",
          "type": "address"
        },
        {
          "internalType": "uint256",
          "name": "",
          "type": "uint256"
        },
        {
          "internalType": "uint256",
          "name": "",
          "type": "uint256"
        },
        {
          "internalType": "bytes",
          "name": "",
          "type": "bytes"
        }
      ],
      "name": "onERC1155Received",
      "outputs": [
        {
          "internalType": "bytes4",
          "name": "",
          "type": "bytes4"
        }
      ],
      "stateMutability": "nonpayable",
      "type": "function"
    },
    {
      "inputs": [],
      "name": "openCase",
      "outputs": [],
      "stateMutability": "nonpayable",
      "type": "function"
    },
    {
      "inputs": [
        {
          "internalType": "uint256",
          "name": "requestId",
          "type": "uint256"
        },
        {
          "internalType": "uint256[]",
          "name": "randomWords",
          "type": "uint256[]"
        }
      ],
      "name": "rawFulfillRandomWords",
      "outputs": [],
      "stateMutability": "nonpayable",
      "type": "function"
    },
    {
      "inputs": [
        {
          "internalType": "address[]",
          "name": "users",
          "type": "address[]"
        }
      ],
      "name": "removeListRacksMembers",
      "outputs": [],
      "stateMutability": "nonpayable",
      "type": "function"
    },
    {
      "inputs": [
        {
          "internalType": "address",
          "name": "user",
          "type": "address"
        }
      ],
      "name": "removeSingleRacksMember",
      "outputs": [],
      "stateMutability": "nonpayable",
      "type": "function"
    },
    {
      "inputs": [
        {
          "internalType": "bytes32",
          "name": "role",
          "type": "bytes32"
        },
        {
          "internalType": "address",
          "name": "account",
          "type": "address"
        }
      ],
      "name": "renounceRole",
      "outputs": [],
      "stateMutability": "nonpayable",
      "type": "function"
    },
    {
      "inputs": [
        {
          "internalType": "bytes32",
          "name": "role",
          "type": "bytes32"
        },
        {
          "internalType": "address",
          "name": "account",
          "type": "address"
        }
      ],
      "name": "revokeRole",
      "outputs": [],
      "stateMutability": "nonpayable",
      "type": "function"
    },
    {
      "inputs": [],
      "name": "s_contractState",
      "outputs": [
        {
          "internalType": "enum RacksItemsv3.ContractState",
          "name": "",
          "type": "uint8"
        }
      ],
      "stateMutability": "view",
      "type": "function"
    },
    {
      "inputs": [],
      "name": "s_randomWord",
      "outputs": [
        {
          "internalType": "uint256",
          "name": "",
          "type": "uint256"
        }
      ],
      "stateMutability": "view",
      "type": "function"
    },
    {
      "inputs": [
        {
          "internalType": "address",
          "name": "from",
          "type": "address"
        },
        {
          "internalType": "address",
          "name": "to",
          "type": "address"
        },
        {
          "internalType": "uint256[]",
          "name": "ids",
          "type": "uint256[]"
        },
        {
          "internalType": "uint256[]",
          "name": "amounts",
          "type": "uint256[]"
        },
        {
          "internalType": "bytes",
          "name": "data",
          "type": "bytes"
        }
      ],
      "name": "safeBatchTransferFrom",
      "outputs": [],
      "stateMutability": "nonpayable",
      "type": "function"
    },
    {
      "inputs": [
        {
          "internalType": "address",
          "name": "from",
          "type": "address"
        },
        {
          "internalType": "address",
          "name": "to",
          "type": "address"
        },
        {
          "internalType": "uint256",
          "name": "id",
          "type": "uint256"
        },
        {
          "internalType": "uint256",
          "name": "amount",
          "type": "uint256"
        },
        {
          "internalType": "bytes",
          "name": "data",
          "type": "bytes"
        }
      ],
      "name": "safeTransferFrom",
      "outputs": [],
      "stateMutability": "nonpayable",
      "type": "function"
    },
    {
      "inputs": [
        {
          "internalType": "address",
          "name": "_newAdmin",
          "type": "address"
        }
      ],
      "name": "setAdmin",
      "outputs": [],
      "stateMutability": "nonpayable",
      "type": "function"
    },
    {
      "inputs": [
        {
          "internalType": "address",
          "name": "operator",
          "type": "address"
        },
        {
          "internalType": "bool",
          "name": "approved",
          "type": "bool"
        }
      ],
      "name": "setApprovalForAll",
      "outputs": [],
      "stateMutability": "nonpayable",
      "type": "function"
    },
    {
      "inputs": [
        {
          "internalType": "uint256",
          "name": "price",
          "type": "uint256"
        }
      ],
      "name": "setCasePrice",
      "outputs": [],
      "stateMutability": "nonpayable",
      "type": "function"
    },
    {
      "inputs": [
        {
          "internalType": "address[]",
          "name": "users",
          "type": "address[]"
        }
      ],
      "name": "setListRacksMembers",
      "outputs": [],
      "stateMutability": "nonpayable",
      "type": "function"
    },
    {
      "inputs": [
        {
          "internalType": "address",
          "name": "user",
          "type": "address"
        }
      ],
      "name": "setSingleRacksMember",
      "outputs": [],
      "stateMutability": "nonpayable",
      "type": "function"
    },
    {
      "inputs": [
        {
          "internalType": "uint256",
          "name": "tokenId",
          "type": "uint256"
        },
        {
          "internalType": "string",
          "name": "_uri",
          "type": "string"
        }
      ],
      "name": "setTokenUri",
      "outputs": [],
      "stateMutability": "nonpayable",
      "type": "function"
    },
    {
      "inputs": [
        {
          "internalType": "uint256",
          "name": "tokenId",
          "type": "uint256"
        }
      ],
      "name": "supplyOfItem",
      "outputs": [
        {
          "internalType": "uint256",
          "name": "",
          "type": "uint256"
        }
      ],
      "stateMutability": "view",
      "type": "function"
    },
    {
      "inputs": [
        {
          "internalType": "bytes4",
          "name": "interfaceId",
          "type": "bytes4"
        }
      ],
      "name": "supportsInterface",
      "outputs": [
        {
          "internalType": "bool",
          "name": "",
          "type": "bool"
        }
      ],
      "stateMutability": "view",
      "type": "function"
    },
    {
      "inputs": [
        {
          "internalType": "uint256",
          "name": "marketItemId",
          "type": "uint256"
        }
      ],
      "name": "unListItem",
      "outputs": [],
      "stateMutability": "nonpayable",
      "type": "function"
    },
    {
      "inputs": [
        {
          "internalType": "uint256",
          "name": "ticketId",
          "type": "uint256"
        }
      ],
      "name": "unListTicket",
      "outputs": [],
      "stateMutability": "nonpayable",
      "type": "function"
    },
    {
      "inputs": [
        {
          "internalType": "uint256",
          "name": "tokenId",
          "type": "uint256"
        }
      ],
      "name": "uri",
      "outputs": [
        {
          "internalType": "string",
          "name": "",
          "type": "string"
        }
      ],
      "stateMutability": "view",
      "type": "function"
    },
    {
      "inputs": [
        {
          "internalType": "address",
          "name": "owner",
          "type": "address"
        }
      ],
      "name": "viewItems",
      "outputs": [
        {
          "internalType": "uint256[]",
          "name": "",
          "type": "uint256[]"
        }
      ],
      "stateMutability": "view",
      "type": "function"
    },
    {
      "inputs": [
        {
          "internalType": "address",
          "name": "wallet",
          "type": "address"
        }
      ],
      "name": "withdrawAllFunds",
      "outputs": [],
      "stateMutability": "nonpayable",
      "type": "function"
    },
    {
      "inputs": [
        {
          "internalType": "address",
          "name": "wallet",
          "type": "address"
        },
        {
          "internalType": "uint256",
          "name": "amount",
          "type": "uint256"
        }
      ],
      "name": "withdrawFunds",
      "outputs": [],
      "stateMutability": "nonpayable",
      "type": "function"
    },
    {
      "stateMutability": "payable",
      "type": "receive"
    }
  ],
  "bytecode": "0x610120604052600c805460ff191660011790553480156200001f57600080fd5b5060405162005e6738038062005e678339810160408190526200004291620001ec565b60408051602081019091526000815285906200005e8162000110565b50606090811b6001600160601b031990811660805295901b90941660a05260c0928352911b6001600160c01b03191660e09081521b6001600160e01b031916610100526004805473ef453154766505feb9dbf0a58e6990fd6eb669696001600160a01b0319918216179091556005805482166001600160a01b0393909316929092179091556006805433921691909117905560006008819055600a556001600b55600c805461ff0019169055620002a9565b80516200012590600290602084019062000129565b5050565b82805462000137906200026c565b90600052602060002090601f0160209004810192826200015b5760008555620001a6565b82601f106200017657805160ff1916838001178555620001a6565b82800160010185558215620001a6579182015b82811115620001a657825182559160200191906001019062000189565b50620001b4929150620001b8565b5090565b5b80821115620001b45760008155600101620001b9565b80516001600160a01b0381168114620001e757600080fd5b919050565b600080600080600060a086880312156200020557600080fd5b6200021086620001cf565b6020870151604088015191965094506001600160401b03811681146200023557600080fd5b606087015190935063ffffffff811681146200025057600080fd5b91506200026060808701620001cf565b90509295509295909350565b600181811c908216806200028157607f821691505b60208210811415620002a357634e487b7160e01b600052602260045260246000fd5b50919050565b60805160601c60a05160601c60c05160e05160c01c6101005160e01c615b4a6200031d60003960008181610b230152611c2b01526000818161061d0152611bf80152600081816108880152611bc90152600081816109770152611c6601526000818161107f01526110da0152615b4a6000f3fe6080604052600436106103b05760003560e01c80638ba8b15a116101e7578063c10753291161010d578063e289fcb6116100a0578063f23a6e611161006f578063f23a6e6114610c2a578063f242432a14610c56578063f48c9d3414610c76578063fd210fd914610c9657600080fd5b8063e289fcb614610b87578063e7fb74c714610ba1578063e985e9c514610bc1578063ebf82e5c14610c0a57600080fd5b8063d547741f116100dc578063d547741f14610af1578063d757d02714610b11578063dd006d3114610b45578063de08f65314610b7257600080fd5b8063c107532914610a6e578063c7be7a4914610a8e578063c7e05f8d14610abb578063ca90958f14610adb57600080fd5b8063a7b1942411610185578063b63b861211610154578063b63b8612146109bb578063b85e67af146109e7578063bbcbc2e714610a07578063bc197c8114610a2957600080fd5b8063a7b1942414610925578063a7bc77c614610945578063aebc455014610965578063b2ead3c71461099957600080fd5b806391d14854116101c157806391d14854146108aa578063976298f3146108f0578063a217fddf146107c1578063a22cb4651461090557600080fd5b80638ba8b15a146108365780638dc5f45b146108565780638e879c8a1461087657600080fd5b8063470cdf97116102d757806367dd74ca1161026a57806375b238fc1161023957806375b238fc146107c15780637e420db5146107d657806384203f4b146107f657806389165aa91461081657600080fd5b806367dd74ca1461072f57806367f082b01461074f578063704b6c021461077757806372cf6e341461079757600080fd5b806354e889f6116102a657806354e889f6146106ba57806357f7789e146106da57806361652450146106fa57806361c073d61461070f57600080fd5b8063470cdf971461060b5780634a226657146106585780634e1273f41461066d5780635408c3191461069a57600080fd5b806320ba08141161034f5780632f2ff15d1161031e5780632f2ff15d1461058b57806330dc2764146105ab57806332dee40b146105cb57806336568abe146105eb57600080fd5b806320ba0814146104ee578063248a9ca31461051b5780632ce381901461054b5780632eb2c2d61461056b57600080fd5b80630e89341c1161038b5780630e89341c14610441578063109b82781461046e5780631cb0b273146104ae5780631fe543e3146104ce57600080fd5b8062fdd58e146103bc57806301ffc9a7146103ef578063020f19801461041f57600080fd5b366103b757005b600080fd5b3480156103c857600080fd5b506103dc6103d7366004615274565b610cac565b6040519081526020015b60405180910390f35b3480156103fb57600080fd5b5061040f61040a366004615398565b610d58565b60405190151581526020016103e6565b34801561042b57600080fd5b5061043f61043a366004615479565b610d63565b005b34801561044d57600080fd5b5061046161045c36600461535c565b610f35565b6040516103e691906157c9565b34801561047a57600080fd5b5061049673ef453154766505feb9dbf0a58e6990fd6eb6696981565b6040516001600160a01b0390911681526020016103e6565b3480156104ba57600080fd5b5061043f6104c936600461535c565b610fd7565b3480156104da57600080fd5b5061043f6104e93660046153eb565b611074565b3480156104fa57600080fd5b506103dc61050936600461535c565b60009081526011602052604090205490565b34801561052757600080fd5b506103dc61053636600461535c565b60009081526003602052604090206001015490565b34801561055757600080fd5b5061043f61056636600461535c565b611115565b34801561057757600080fd5b5061043f61058636600461512e565b611181565b34801561059757600080fd5b5061043f6105a6366004615375565b611223565b3480156105b757600080fd5b5061043f6105c63660046150e0565b61124d565b3480156105d757600080fd5b5061043f6105e63660046150e0565b61139e565b3480156105f757600080fd5b5061043f610606366004615375565b611546565b34801561061757600080fd5b5061063f7f000000000000000000000000000000000000000000000000000000000000000081565b60405167ffffffffffffffff90911681526020016103e6565b34801561066457600080fd5b5061043f6115ce565b34801561067957600080fd5b5061068d6106883660046152db565b611833565b6040516103e69190615760565b3480156106a657600080fd5b5061043f6106b536600461529e565b611971565b3480156106c657600080fd5b5061043f6106d53660046150e0565b611a38565b3480156106e657600080fd5b5061043f6106f5366004615428565b611abb565b34801561070657600080fd5b506103dc611ba1565b34801561071b57600080fd5b5061043f61072a36600461535c565b611ce2565b34801561073b57600080fd5b5061043f61074a36600461535c565b611ef8565b34801561075b57600080fd5b50610764600381565b60405161ffff90911681526020016103e6565b34801561078357600080fd5b5061043f6107923660046150e0565b6123a2565b3480156107a357600080fd5b506107ac600281565b60405163ffffffff90911681526020016103e6565b3480156107cd57600080fd5b506103dc600081565b3480156107e257600080fd5b5061043f6107f136600461535c565b612407565b34801561080257600080fd5b5061040f6108113660046150e0565b6125f4565b34801561082257600080fd5b5061043f61083136600461529e565b6126ae565b34801561084257600080fd5b5061043f6108513660046150e0565b612775565b34801561086257600080fd5b5061043f61087136600461535c565b6127f5565b34801561088257600080fd5b506103dc7f000000000000000000000000000000000000000000000000000000000000000081565b3480156108b657600080fd5b5061040f6108c5366004615375565b60009182526003602090815260408084206001600160a01b0393909316845291905290205460ff1690565b3480156108fc57600080fd5b50600b546103dc565b34801561091157600080fd5b5061043f61092036600461523d565b612889565b34801561093157600080fd5b5061043f610940366004615479565b612894565b34801561095157600080fd5b5061043f61096036600461535c565b6129bf565b34801561097157600080fd5b506104967f000000000000000000000000000000000000000000000000000000000000000081565b3480156109a557600080fd5b506109ae612b03565b6040516103e69190615650565b3480156109c757600080fd5b50600c546109da90610100900460ff1681565b6040516103e691906157a1565b3480156109f357600080fd5b5061043f610a0236600461549b565b612d44565b348015610a1357600080fd5b50610a1c6130a5565b6040516103e691906156e8565b348015610a3557600080fd5b50610a55610a4436600461512e565b63bc197c8160e01b95945050505050565b6040516001600160e01b031990911681526020016103e6565b348015610a7a57600080fd5b5061043f610a89366004615274565b6132af565b348015610a9a57600080fd5b50610aae610aa936600461535c565b613458565b6040516103e69190615834565b348015610ac757600080fd5b506103dc610ad636600461535c565b61350b565b348015610ae757600080fd5b506103dc600b5481565b348015610afd57600080fd5b5061043f610b0c366004615375565b613542565b348015610b1d57600080fd5b506107ac7f000000000000000000000000000000000000000000000000000000000000000081565b348015610b5157600080fd5b50610b65610b6036600461535c565b613567565b6040516103e691906157dc565b348015610b7e57600080fd5b5061043f613638565b348015610b9357600080fd5b50600c5461040f9060ff1681565b348015610bad57600080fd5b5061043f610bbc36600461535c565b6136d9565b348015610bcd57600080fd5b5061040f610bdc3660046150fb565b6001600160a01b03918216600090815260016020908152604080832093909416825291909152205460ff1690565b348015610c1657600080fd5b5061043f610c2536600461549b565b613ae1565b348015610c3657600080fd5b50610a55610c453660046151d8565b63f23a6e6160e01b95945050505050565b348015610c6257600080fd5b5061043f610c713660046151d8565b613ce2565b348015610c8257600080fd5b5061068d610c913660046150e0565b613d7d565b348015610ca257600080fd5b506103dc600f5481565b60006001600160a01b038316610d2f5760405162461bcd60e51b815260206004820152602b60248201527f455243313135353a2062616c616e636520717565727920666f7220746865207a60448201527f65726f206164647265737300000000000000000000000000000000000000000060648201526084015b60405180910390fd5b506000818152602081815260408083206001600160a01b03861684529091529020545b92915050565b6000610d5282613e14565b6000610d6f3384610cac565b11610dbc5760405162461bcd60e51b815260206004820152600f60248201527f4974656d206e6f7420666f756e642e00000000000000000000000000000000006044820152606401610d26565b6040805160a08101825283815260098054602083019081529282018481523360608401908152600160808501818152600d80549283018155600090815295517fd7b6990105719101dabeb77144f2a3385c8033acd3af97e9423a695e81ad1eb560049093029283015595517fd7b6990105719101dabeb77144f2a3385c8033acd3af97e9423a695e81ad1eb682015591517fd7b6990105719101dabeb77144f2a3385c8033acd3af97e9423a695e81ad1eb7830155517fd7b6990105719101dabeb77144f2a3385c8033acd3af97e9423a695e81ad1eb8909101805494516001600160a01b039092167fffffffffffffffffffffff00000000000000000000000000000000000000000090951694909417600160a01b911515919091021790925581549190610eea836159ad565b909155505060408051338152602081018490529081018290527f23cba88d6c6f26b62b2cfc32a2cc04fbbde8590188b97cd3590e45af9ac6dd6d906060015b60405180910390a15050565b6000818152601260205260409020805460609190610f5290615945565b80601f0160208091040260200160405190810160405280929190818152602001828054610f7e90615945565b8015610fcb5780601f10610fa057610100808354040283529160200191610fcb565b820191906000526020600020905b815481529060010190602001808311610fae57829003601f168201915b50505050509050919050565b6000610fe33383610cac565b11610fed57600080fd5b610ff933826001613e52565b60008181526011602052604081208054600192906110189084906158e7565b9250508190555060016007600082825461103291906158e7565b909155505060408051338152602081018390527f9e90d55d2f1f115ffe1b87372c45f27f6b3a2b5ba392942167be78456189009491015b60405180910390a150565b336001600160a01b037f00000000000000000000000000000000000000000000000000000000000000001614611107576040517f1cf993f40000000000000000000000000000000000000000000000000000000081523360048201526001600160a01b037f0000000000000000000000000000000000000000000000000000000000000000166024820152604401610d26565b6111118282614006565b5050565b61111e3361402b565b6111745760405162461bcd60e51b815260206004820152602160248201527f55736572206973206e6f7420746865204f776e6572206f7220616e2041646d696044820152603760f91b6064820152608401610d26565b61117e308261408a565b50565b6001600160a01b03851633148061119d575061119d8533610bdc565b61120f5760405162461bcd60e51b815260206004820152603260248201527f455243313135353a207472616e736665722063616c6c6572206973206e6f742060448201527f6f776e6572206e6f7220617070726f76656400000000000000000000000000006064820152608401610d26565b61121c85858585856140f5565b5050505050565b60008281526003602052604090206001015461123e81614368565b6112488383614372565b505050565b60005b600e5481101561111157816001600160a01b0316600e828154811061127757611277615a1e565b60009182526020909120600460079092020101546001600160a01b0316141561138c57600e81815481106112ad576112ad615a1e565b90600052602060002090600702016001015460011461130157600e81815481106112d9576112d9615a1e565b6000918252602082206001600790920201018054916112f78361592e565b919050555061138c565b600e818154811061131457611314615a1e565b6000918252602082206001600790920201018054916113328361592e565b91905055506000600e828154811061134c5761134c615a1e565b60009182526020808320600660079093020191909101805493151560ff199485161790556001600160a01b03851682526014905260409020805490911690555b80611396816159ad565b915050611250565b6006546001600160a01b031633146113f85760405162461bcd60e51b815260206004820152601560248201527f55736572206973206e6f7420746865206f776e657200000000000000000000006044820152606401610d26565b6005546040516370a0823160e01b81523060048201526000916001600160a01b0316906370a082319060240160206040518083038186803b15801561143c57600080fd5b505afa158015611450573d6000803e3d6000fd5b505050506040513d601f19601f8201168201806040525081019061147491906153d2565b116114c15760405162461bcd60e51b815260206004820152601460248201527f4e6f2066756e647320746f2077697468647261770000000000000000000000006044820152606401610d26565b60055460405163a9059cbb60e01b81526001600160a01b0383811660048301524760248301529091169063a9059cbb90604401602060405180830381600087803b15801561150e57600080fd5b505af1158015611522573d6000803e3d6000fd5b505050506040513d601f19601f82011682018060405250810190611111919061533f565b6001600160a01b03811633146115c45760405162461bcd60e51b815260206004820152602f60248201527f416363657373436f6e74726f6c3a2063616e206f6e6c792072656e6f756e636560448201527f20726f6c657320666f722073656c6600000000000000000000000000000000006064820152608401610d26565b6111118282614414565b6000600c54610100900460ff1660018111156115ec576115ec615a08565b1461165f5760405162461bcd60e51b815260206004820152602560248201527f436f6e7472616374206973206e6f74206163746976652061742074686973206d60448201527f6f6d656e740000000000000000000000000000000000000000000000000000006064820152608401610d26565b600554600b546040517f23b872dd00000000000000000000000000000000000000000000000000000000815233600482015230602482015260448101919091526001600160a01b03909116906323b872dd90606401602060405180830381600087803b1580156116ce57600080fd5b505af11580156116e2573d6000803e3d6000fd5b505050506040513d601f19601f82011682018060405250810190611706919061533f565b506000600754611714611ba1565b61171e91906159c8565b9050600080805b6008548110156117df57600081815260116020526040812054611748908561589c565b90508085111561175a578093506117cc565b8192506117673084610cac565b6117a95760006117786001856158e7565b90505b60006117873083610cac565b1115611795578093506117a7565b8061179f8161592e565b91505061177b565b505b6117c6303385600160405180602001604052806000815250614497565b506117df565b50806117d7816159ad565b915050611725565b506117e93361124d565b600b5460408051338152602081019290925281018290527fea32e37a2618dbb680c93d891742e9e13b30d184822562a0ee3c09290fd42b43906060015b60405180910390a1505050565b606081518351146118ac5760405162461bcd60e51b815260206004820152602960248201527f455243313135353a206163636f756e747320616e6420696473206c656e67746860448201527f206d69736d6174636800000000000000000000000000000000000000000000006064820152608401610d26565b6000835167ffffffffffffffff8111156118c8576118c8615a34565b6040519080825280602002602001820160405280156118f1578160200160208202803683370190505b50905060005b84518110156119695761193c85828151811061191557611915615a1e565b602002602001015185838151811061192f5761192f615a1e565b6020026020010151610cac565b82828151811061194e5761194e615a1e565b6020908102919091010152611962816159ad565b90506118f7565b509392505050565b61197a3361402b565b6119d05760405162461bcd60e51b815260206004820152602160248201527f55736572206973206e6f7420746865204f776e6572206f7220616e2041646d696044820152603760f91b6064820152608401610d26565b60005b8151811015611111576000601060008484815181106119f4576119f4615a1e565b6020908102919091018101516001600160a01b03168252810191909152604001600020805460ff191691151591909117905580611a30816159ad565b9150506119d3565b611a413361402b565b611a975760405162461bcd60e51b815260206004820152602160248201527f55736572206973206e6f7420746865204f776e6572206f7220616e2041646d696044820152603760f91b6064820152608401610d26565b6001600160a01b03166000908152601060205260409020805460ff19166001179055565b611ac43361402b565b611b1a5760405162461bcd60e51b815260206004820152602160248201527f55736572206973206e6f7420746865204f776e6572206f7220616e2041646d696044820152603760f91b6064820152608401610d26565b60008281526012602052604090208054611b3390615945565b159050611b825760405162461bcd60e51b815260206004820152601560248201527f43616e206e6f74207365742075726920747769636500000000000000000000006044820152606401610d26565b6000828152601260209081526040909120825161124892840190614ec5565b6040517f5d3b1d300000000000000000000000000000000000000000000000000000000081527f0000000000000000000000000000000000000000000000000000000000000000600482015267ffffffffffffffff7f00000000000000000000000000000000000000000000000000000000000000001660248201526003604482015263ffffffff7f00000000000000000000000000000000000000000000000000000000000000001660648201526002608482015260009081906001600160a01b037f00000000000000000000000000000000000000000000000000000000000000001690635d3b1d309060a401602060405180830381600087803b158015611caa57600080fd5b505af1158015611cbe573d6000803e3d6000fd5b505050506040513d601f19601f82011682018060405250810190610d5291906153d2565b3360009081526015602052604090205460ff16611d415760405162461bcd60e51b815260206004820152601c60248201527f5573657220646964206e6f742073656c6c20616e79205469636b6574000000006044820152606401610d26565b603c600e8281548110611d5657611d56615a1e565b906000526020600020906007020160020154611d7291906158b4565b42600e8381548110611d8657611d86615a1e565b906000526020600020906007020160050154611da291906158e7565b11611e155760405162461bcd60e51b815260206004820152602960248201527f4475726174696f6e206f6620746865205469636b6574206973207374696c6c2060448201527f6176616c6961626c6500000000000000000000000000000000000000000000006064820152608401610d26565b600060146000600e8481548110611e2e57611e2e615a1e565b60009182526020808320600460079093020191909101546001600160a01b031683528281019390935260409182018120805494151560ff19958616179055338152601483528181208054851660011790556015909252902080549091169055600e80547f5093646a80c0a81f51115fbf5ec8379ecf902ae2ba552c74599cbe844dcb53e3919083908110611ec457611ec4615a1e565b600091825260209182902060079091020160040154604080516001600160a01b039092168252339282019290925201611069565b611f01336125f4565b15611f0b57600080fd5b336001600160a01b0316600e8281548110611f2857611f28615a1e565b60009182526020909120600460079092020101546001600160a01b03161415611fb95760405162461bcd60e51b815260206004820152602560248201527f596f752063616e206e6f74206275792061207469636b657420746f20796f757260448201527f2073656c660000000000000000000000000000000000000000000000000000006064820152608401610d26565b600e8181548110611fcc57611fcc615a1e565b600091825260209091206006600790920201015460ff16151560011461205a5760405162461bcd60e51b815260206004820152602160248201527f5469636b6574206973206e6f742063757272656e746c79206176616c6961626c60448201527f65000000000000000000000000000000000000000000000000000000000000006064820152608401610d26565b6000600e828154811061206f5761206f615a1e565b6000918252602090912060079091020160040154600554600e80546001600160a01b03938416945092909116916323b872dd913391869081106120b4576120b4615a1e565b906000526020600020906007020160040160009054906101000a90046001600160a01b0316600e86815481106120ec576120ec615a1e565b60009182526020909120600360079092020101546040516001600160e01b031960e086901b1681526001600160a01b0393841660048201529290911660248301526044820152606401602060405180830381600087803b15801561214f57600080fd5b505af1158015612163573d6000803e3d6000fd5b505050506040513d601f19601f82011682018060405250810190612187919061533f565b5042600e838154811061219c5761219c615a1e565b906000526020600020906007020160050181905550600060146000600e85815481106121ca576121ca615a1e565b60009182526020808320600792909202909101600401546001600160a01b031683528201929092526040018120805460ff191692151592909217909155600e805460139183918690811061222057612220615a1e565b60009182526020808320600792909202909101600401546001600160a01b031683528201929092526040018120805460ff191692151592909217909155600e805460019260159290918690811061227957612279615a1e565b60009182526020808320600792909202909101600401546001600160a01b031683528201929092526040019020805460ff1916911515919091179055600e8054339190849081106122cc576122cc615a1e565b60009182526020808320600792909202909101600401805473ffffffffffffffffffffffffffffffffffffffff19166001600160a01b03949094169390931790925533808252601490925260409020805460ff19166001179055600e80547f060f7dd92424d6f1af65d2fe9acba5b63d299cc26cd8eb26403ca371bc9fbfbb92859285928490811061236057612360615a1e565b906000526020600020906007020160030154604051610f2994939291909384526001600160a01b03928316602085015291166040830152606082015260800190565b6006546001600160a01b031633146123fc5760405162461bcd60e51b815260206004820152601560248201527f55736572206973206e6f7420746865206f776e657200000000000000000000006044820152606401610d26565b61117e600082614642565b612410336125f4565b6124825760405162461bcd60e51b815260206004820152603460248201527f55736572206973206e6f74205261636b734d656d62657273206f7220646f657360448201527f206e6f74206f776e732061204d7243727970746f0000000000000000000000006064820152608401610d26565b3360009081526013602052604090205460ff166124f05760405162461bcd60e51b815260206004820152602660248201527f55736572206973206e6f742063757272656e746c792073656c6c696e67206120604482015265151a58dad95d60d21b6064820152608401610d26565b336001600160a01b0316600e828154811061250d5761250d615a1e565b60009182526020909120600460079092020101546001600160a01b0316146125775760405162461bcd60e51b815260206004820181905260248201527f55736572206973206e6f74206f776e6572206f662074686973207469636b65746044820152606401610d26565b6000600e828154811061258c5761258c615a1e565b6000918252602080832060066007939093020191909101805493151560ff199485161790553380835260138252604092839020805490941690935590519182527f5dbab6b1e9ddd154d6eb51aa5622fb5278ea62a0b5f81d046a945d899490f6319101611069565b600480546040516370a0823160e01b81526001600160a01b0384811693820193909352600092839216906370a082319060240160206040518083038186803b15801561263f57600080fd5b505afa158015612653573d6000803e3d6000fd5b505050506040513d601f19601f8201168201806040525081019061267791906153d2565b1161268157600080fd5b6001600160a01b03821660009081526010602052604090205460ff166126a657600080fd5b506001919050565b6126b73361402b565b61270d5760405162461bcd60e51b815260206004820152602160248201527f55736572206973206e6f7420746865204f776e6572206f7220616e2041646d696044820152603760f91b6064820152608401610d26565b60005b81518110156111115760016010600084848151811061273157612731615a1e565b6020908102919091018101516001600160a01b03168252810191909152604001600020805460ff19169115159190911790558061276d816159ad565b915050612710565b61277e3361402b565b6127d45760405162461bcd60e51b815260206004820152602160248201527f55736572206973206e6f7420746865204f776e6572206f7220616e2041646d696044820152603760f91b6064820152608401610d26565b6001600160a01b03166000908152601060205260409020805460ff19169055565b6127fe3361402b565b6128545760405162461bcd60e51b815260206004820152602160248201527f55736572206973206e6f7420746865204f776e6572206f7220616e2041646d696044820152603760f91b6064820152608401610d26565b600b8190556040518181527f06cd74aabc11982a85b554df4d7833623303656fe69bed4db1b0cb3245feebe390602001611069565b61111133838361464c565b336001600160a01b0316600d83815481106128b1576128b1615a1e565b60009182526020909120600360049092020101546001600160a01b0316146129275760405162461bcd60e51b815260206004820152602360248201527f596f7520617265206e6f7420746865206f776e6572206f66207468697320697460448201526232b69760e91b6064820152608401610d26565b6000600d838154811061293c5761293c615a1e565b906000526020600020906004020160020154905081600d848154811061296457612964615a1e565b600091825260209182902060026004909202010191909155604080513381529182018590528101829052606081018390527fb141d00f22a670547caacc412e6489d8edaba6a840df558118363ce1a40d6ed290608001611826565b336001600160a01b0316600d82815481106129dc576129dc615a1e565b60009182526020909120600360049092020101546001600160a01b031614612a525760405162461bcd60e51b815260206004820152602360248201527f596f7520617265206e6f7420746865206f776e6572206f66207468697320697460448201526232b69760e91b6064820152608401610d26565b612a6f303383600160405180602001604052806000815250614497565b6000600d8281548110612a8457612a84615a1e565b60009182526020918290206003600490920201018054921515600160a01b027fffffffffffffffffffffff00ffffffffffffffffffffffffffffffffffffffff90931692909217909155604080513381529182018390527fc9cedcca3d85d6009a562a9e70071f6288adabda9ba7f059589165e75c9cf4049101611069565b60606000805b600e54811015612bc3576000600e8281548110612b2857612b28615a1e565b60009182526020918290206040805160e081018252600790930290910180548352600180820154948401949094526002810154918301919091526003810154606083015260048101546001600160a01b03166080830152600581015460a08301526006015460ff16151560c082018190529092501415612bb057612bad60018461589c565b92505b5080612bbb816159ad565b915050612b09565b5060008167ffffffffffffffff811115612bdf57612bdf615a34565b604051908082528060200260200182016040528015612c5b57816020015b612c486040518060e001604052806000815260200160008152602001600081526020016000815260200160006001600160a01b03168152602001600081526020016000151581525090565b815260200190600190039081612bfd5790505b5090506000805b600e54811015612d3b576000600e8281548110612c8157612c81615a1e565b60009182526020918290206040805160e081018252600790930290910180548352600180820154948401949094526002810154918301919091526003810154606083015260048101546001600160a01b03166080830152600581015460a08301526006015460ff16151560c082018190529092501415612d285780848481518110612d0e57612d0e615a1e565b60200260200101819052508280612d24906159ad565b9350505b5080612d33816159ad565b915050612c62565b50909392505050565b612d4d336125f4565b612dbf5760405162461bcd60e51b815260206004820152603460248201527f55736572206973206e6f74205261636b734d656d62657273206f7220646f657360448201527f206e6f74206f776e732061204d7243727970746f0000000000000000000000006064820152608401610d26565b3360009081526013602052604090205460ff1615612e455760405162461bcd60e51b815260206004820152602a60248201527f5573657220697320616c72656164792063757272656e746c792073656c6c696e60448201527f672061205469636b6574000000000000000000000000000000000000000000006064820152608401610d26565b3360009081526014602052604090205460ff16612ea45760405162461bcd60e51b815260206004820152601960248201527f5573657220686173207469636b6574206176616c6961626c65000000000000006044820152606401610d26565b6040805160e081018252600a8054825260208201868152928201858152606083018581523360808501908152600060a08601818152600160c08801818152600e80549283018155845297517fbb7b4a454dc3493923482f07822329ed19e8244eff582cc204f8554c3620c3fd60079092029182015597517fbb7b4a454dc3493923482f07822329ed19e8244eff582cc204f8554c3620c3fe89015593517fbb7b4a454dc3493923482f07822329ed19e8244eff582cc204f8554c3620c3ff88015591517fbb7b4a454dc3493923482f07822329ed19e8244eff582cc204f8554c3620c400870155517fbb7b4a454dc3493923482f07822329ed19e8244eff582cc204f8554c3620c4018601805473ffffffffffffffffffffffffffffffffffffffff19166001600160a01b0390921691909117905590517fbb7b4a454dc3493923482f07822329ed19e8244eff582cc204f8554c3620c40285015591517fbb7b4a454dc3493923482f07822329ed19e8244eff582cc204f8554c3620c403909301805460ff19169315159390931790925581549190613042836159ad565b909155505033600081815260136020908152604091829020805460ff19166001179055815192835282018590528101839052606081018290527f07814713aba2e13eb5f2470225f7395d33fad1452b70f8427dae73e4d3a5934490608001611826565b60606000805b600d54811015613155576000600d82815481106130ca576130ca615a1e565b60009182526020918290206040805160a08101825260049093029091018054835260018082015494840194909452600281015491830191909152600301546001600160a01b038116606083015260ff600160a01b9091041615156080820181905290925014156131425761313f60018461589c565b92505b508061314d816159ad565b9150506130ab565b5060008167ffffffffffffffff81111561317157613171615a34565b6040519080825280602002602001820160405280156131df57816020015b6131cc6040518060a0016040528060008152602001600081526020016000815260200160006001600160a01b031681526020016000151581525090565b81526020019060019003908161318f5790505b5090506000805b600d54811015612d3b576000600d828154811061320557613205615a1e565b60009182526020918290206040805160a08101825260049093029091018054835260018082015494840194909452600281015491830191909152600301546001600160a01b038116606083015260ff600160a01b90910416151560808201819052909250141561329c578084848151811061328257613282615a1e565b60200260200101819052508280613298906159ad565b9350505b50806132a7816159ad565b9150506131e6565b6006546001600160a01b031633146133095760405162461bcd60e51b815260206004820152601560248201527f55736572206973206e6f7420746865206f776e657200000000000000000000006044820152606401610d26565b6005546040516370a0823160e01b81523060048201526000916001600160a01b0316906370a082319060240160206040518083038186803b15801561334d57600080fd5b505afa158015613361573d6000803e3d6000fd5b505050506040513d601f19601f8201168201806040525081019061338591906153d2565b116133d25760405162461bcd60e51b815260206004820152601460248201527f4e6f2066756e647320746f2077697468647261770000000000000000000000006044820152606401610d26565b60055460405163a9059cbb60e01b81526001600160a01b038481166004830152602482018490529091169063a9059cbb90604401602060405180830381600087803b15801561342057600080fd5b505af1158015613434573d6000803e3d6000fd5b505050506040513d601f19601f82011682018060405250810190611248919061533f565b6134956040518060a0016040528060008152602001600081526020016000815260200160006001600160a01b031681526020016000151581525090565b600d82815481106134a8576134a8615a1e565b60009182526020918290206040805160a0810182526004909302909101805483526001810154938301939093526002830154908201526003909101546001600160a01b038116606083015260ff600160a01b909104161515608082015292915050565b600061351682614741565b61351f57600080fd5b60008281526011602052604081205460075461353b91906158b4565b9392505050565b60008281526003602052604090206001015461355d81614368565b6112488383614414565b6135b26040518060e001604052806000815260200160008152602001600081526020016000815260200160006001600160a01b03168152602001600081526020016000151581525090565b600e82815481106135c5576135c5615a1e565b60009182526020918290206040805160e0810182526007909302909101805483526001810154938301939093526002830154908201526003820154606082015260048201546001600160a01b03166080820152600582015460a082015260069091015460ff16151560c082015292915050565b6136413361402b565b6136975760405162461bcd60e51b815260206004820152602160248201527f55736572206973206e6f7420746865204f776e6572206f7220616e2041646d696044820152603760f91b6064820152608401610d26565b6000600c54610100900460ff1660018111156136b5576136b5615a08565b14156136cc57600c805461ff001916610100179055565b600c805461ff0019169055565b600d81815481106136ec576136ec615a1e565b60009182526020909120600490910201600301546001600160a01b031633141561377e5760405162461bcd60e51b815260206004820152602360248201527f596f752063616e206e6f742062757920616e206974656d20746f20796f75727360448201527f656c6600000000000000000000000000000000000000000000000000000000006064820152608401610d26565b600d818154811061379157613791615a1e565b906000526020600020906004020160030160149054906101000a900460ff16151560011515146138295760405162461bcd60e51b815260206004820152602160248201527f54686973206974656d206973206e6f74206f6e2073616c6520616e796d6f726560448201527f2e000000000000000000000000000000000000000000000000000000000000006064820152608401610d26565b600554600d80546001600160a01b03909216916323b872dd9133918590811061385457613854615a1e565b906000526020600020906004020160030160009054906101000a90046001600160a01b0316600d858154811061388c5761388c615a1e565b9060005260206000209060040201600201546040518463ffffffff1660e01b81526004016138db939291906001600160a01b039384168152919092166020820152604081019190915260600190565b602060405180830381600087803b1580156138f557600080fd5b505af1158015613909573d6000803e3d6000fd5b505050506040513d601f19601f8201168201806040525081019061392d919061533f565b506139a6600d828154811061394457613944615a1e565b906000526020600020906004020160030160009054906101000a90046001600160a01b031633600d848154811061397d5761397d615a1e565b906000526020600020906004020160000154600160405180602001604052806000815250614497565b6000600d82815481106139bb576139bb615a1e565b906000526020600020906004020160030160009054906101000a90046001600160a01b0316905033600d83815481106139f6576139f6615a1e565b906000526020600020906004020160030160006101000a8154816001600160a01b0302191690836001600160a01b031602179055506000600d8381548110613a4057613a40615a1e565b906000526020600020906004020160030160146101000a81548160ff0219169083151502179055507f642067ff529c9b5b1162502fc8e8a3a91dda56e126a84f2fe38d341236231a82338284600d8681548110613a9f57613a9f615a1e565b600091825260209182902060026004909202010154604080516001600160a01b0396871681529590941691850191909152918301526060820152608001610f29565b613aea336125f4565b613b5c5760405162461bcd60e51b815260206004820152603460248201527f55736572206973206e6f74205261636b734d656d62657273206f7220646f657360448201527f206e6f74206f776e732061204d7243727970746f0000000000000000000000006064820152608401610d26565b3360009081526013602052604090205460ff16613bca5760405162461bcd60e51b815260206004820152602660248201527f55736572206973206e6f742063757272656e746c792073656c6c696e67206120604482015265151a58dad95d60d21b6064820152608401610d26565b336001600160a01b0316600e8481548110613be757613be7615a1e565b60009182526020909120600460079092020101546001600160a01b031614613c515760405162461bcd60e51b815260206004820181905260248201527f55736572206973206e6f74206f776e6572206f662074686973207469636b65746044820152606401610d26565b80600e8481548110613c6557613c65615a1e565b90600052602060002090600702016003018190555081600e8481548110613c8e57613c8e615a1e565b6000918252602091829020600160079092020101919091556040805133815291820184905281018290527f4dfa55e7e1af9cb25343bfcd39c4bcb1f066d75ebe9b67988cf1496f06dedfef90606001611826565b6001600160a01b038516331480613cfe5750613cfe8533610bdc565b613d705760405162461bcd60e51b815260206004820152602960248201527f455243313135353a2063616c6c6572206973206e6f74206f776e6572206e6f7260448201527f20617070726f76656400000000000000000000000000000000000000000000006064820152608401610d26565b61121c8585858585614497565b6060600060085467ffffffffffffffff811115613d9c57613d9c615a34565b604051908082528060200260200182016040528015613dc5578160200160208202803683370190505b50905060005b8151811015613e0d57613dde8482610cac565b828281518110613df057613df0615a1e565b602090810291909101015280613e05816159ad565b915050613dcb565b5092915050565b60006001600160e01b031982167f7965db0b000000000000000000000000000000000000000000000000000000001480610d525750610d5282614759565b6001600160a01b038316613ece5760405162461bcd60e51b815260206004820152602360248201527f455243313135353a206275726e2066726f6d20746865207a65726f206164647260448201527f65737300000000000000000000000000000000000000000000000000000000006064820152608401610d26565b336000613eda84614797565b90506000613ee784614797565b60408051602080820183526000918290528882528181528282206001600160a01b038b1683529052205490915084811015613f895760405162461bcd60e51b8152602060048201526024808201527f455243313135353a206275726e20616d6f756e7420657863656564732062616c60448201527f616e6365000000000000000000000000000000000000000000000000000000006064820152608401610d26565b6000868152602081815260408083206001600160a01b038b81168086529184528285208a8703905582518b81529384018a90529092908816917fc3d58168c5ae7397731d063d5bbf3d657854427343f4c083240f7aacaa2d0f62910160405180910390a46040805160208101909152600090525b50505050505050565b8060008151811061401957614019615a1e565b6020026020010151600f819055505050565b6006546000906001600160a01b038381169116148061408157506001600160a01b03821660009081527f3617319a054d772f909f7c479a2cebe5066e836a939412e32403c99029b92eff602052604090205460ff165b6126a657600080fd5b6140a78260085483604051806020016040528060008152506147e2565b6140c06008548260009182526011602052604090912055565b80600760008282546140d2919061589c565b925050819055506001600860008282546140ec919061589c565b90915550505050565b815183511461416c5760405162461bcd60e51b815260206004820152602860248201527f455243313135353a2069647320616e6420616d6f756e7473206c656e6774682060448201527f6d69736d617463680000000000000000000000000000000000000000000000006064820152608401610d26565b6001600160a01b0384166141d05760405162461bcd60e51b815260206004820152602560248201527f455243313135353a207472616e7366657220746f20746865207a65726f206164604482015264647265737360d81b6064820152608401610d26565b3360005b84518110156142fa5760008582815181106141f1576141f1615a1e565b60200260200101519050600085838151811061420f5761420f615a1e565b602090810291909101810151600084815280835260408082206001600160a01b038e1683529093529190912054909150818110156142a25760405162461bcd60e51b815260206004820152602a60248201527f455243313135353a20696e73756666696369656e742062616c616e636520666f60448201526939103a3930b739b332b960b11b6064820152608401610d26565b6000838152602081815260408083206001600160a01b038e8116855292528083208585039055908b168252812080548492906142df90849061589c565b92505081905550505050806142f3906159ad565b90506141d4565b50846001600160a01b0316866001600160a01b0316826001600160a01b03167f4a39dc06d4c0dbc64b70af90fd698a233a518aa5d07e595d983b8c0526c8f7fb878760405161434a929190615773565b60405180910390a4614360818787878787614909565b505050505050565b61117e8133614abe565b60008281526003602090815260408083206001600160a01b038516845290915290205460ff166111115760008281526003602090815260408083206001600160a01b03851684529091529020805460ff191660011790556143d03390565b6001600160a01b0316816001600160a01b0316837f2f8788117e7eff1d82e926ec794901d17c78024a50270940304540a733656f0d60405160405180910390a45050565b60008281526003602090815260408083206001600160a01b038516845290915290205460ff16156111115760008281526003602090815260408083206001600160a01b0385168085529252808320805460ff1916905551339285917ff6391f5c32d9c69d2a47ea670b442974b53935d1edc7fd64eb21e047a839171b9190a45050565b6001600160a01b0384166144fb5760405162461bcd60e51b815260206004820152602560248201527f455243313135353a207472616e7366657220746f20746865207a65726f206164604482015264647265737360d81b6064820152608401610d26565b33600061450785614797565b9050600061451485614797565b90506000868152602081815260408083206001600160a01b038c1684529091529020548581101561459a5760405162461bcd60e51b815260206004820152602a60248201527f455243313135353a20696e73756666696369656e742062616c616e636520666f60448201526939103a3930b739b332b960b11b6064820152608401610d26565b6000878152602081815260408083206001600160a01b038d8116855292528083208985039055908a168252812080548892906145d790849061589c565b909155505060408051888152602081018890526001600160a01b03808b16928c821692918816917fc3d58168c5ae7397731d063d5bbf3d657854427343f4c083240f7aacaa2d0f62910160405180910390a4614637848a8a8a8a8a614b3e565b505050505050505050565b6111118282614372565b816001600160a01b0316836001600160a01b031614156146d45760405162461bcd60e51b815260206004820152602960248201527f455243313135353a2073657474696e6720617070726f76616c2073746174757360448201527f20666f722073656c6600000000000000000000000000000000000000000000006064820152608401610d26565b6001600160a01b03838116600081815260016020908152604080832094871680845294825291829020805460ff191686151590811790915591519182527f17307eab39ab6107e8899845ad3d59bd9653f200f220920489ca2b5937696c31910160405180910390a3505050565b6000818152601160205260408120546126a657600080fd5b60006001600160e01b031982167f4e2312e0000000000000000000000000000000000000000000000000000000001480610d525750610d5282614c49565b604080516001808252818301909252606091600091906020808301908036833701905050905082816000815181106147d1576147d1615a1e565b602090810291909101015292915050565b6001600160a01b03841661485e5760405162461bcd60e51b815260206004820152602160248201527f455243313135353a206d696e7420746f20746865207a65726f2061646472657360448201527f73000000000000000000000000000000000000000000000000000000000000006064820152608401610d26565b33600061486a85614797565b9050600061487785614797565b90506000868152602081815260408083206001600160a01b038b168452909152812080548792906148a990849061589c565b909155505060408051878152602081018790526001600160a01b03808a1692600092918716917fc3d58168c5ae7397731d063d5bbf3d657854427343f4c083240f7aacaa2d0f62910160405180910390a4613ffd83600089898989614b3e565b6001600160a01b0384163b156143605760405163bc197c8160e01b81526001600160a01b0385169063bc197c819061494d90899089908890889088906004016155af565b602060405180830381600087803b15801561496757600080fd5b505af1925050508015614997575060408051601f3d908101601f19168201909252614994918101906153b5565b60015b614a4d576149a3615a4a565b806308c379a014156149dd57506149b8615a66565b806149c357506149df565b8060405162461bcd60e51b8152600401610d2691906157c9565b505b60405162461bcd60e51b815260206004820152603460248201527f455243313135353a207472616e7366657220746f206e6f6e204552433131353560448201527f526563656976657220696d706c656d656e7465720000000000000000000000006064820152608401610d26565b6001600160e01b0319811663bc197c8160e01b14613ffd5760405162461bcd60e51b815260206004820152602860248201527f455243313135353a204552433131353552656365697665722072656a656374656044820152676420746f6b656e7360c01b6064820152608401610d26565b60008281526003602090815260408083206001600160a01b038516845290915290205460ff1661111157614afc816001600160a01b03166014614ce4565b614b07836020614ce4565b604051602001614b1892919061552e565b60408051601f198184030181529082905262461bcd60e51b8252610d26916004016157c9565b6001600160a01b0384163b156143605760405163f23a6e6160e01b81526001600160a01b0385169063f23a6e6190614b82908990899088908890889060040161560d565b602060405180830381600087803b158015614b9c57600080fd5b505af1925050508015614bcc575060408051601f3d908101601f19168201909252614bc9918101906153b5565b60015b614bd8576149a3615a4a565b6001600160e01b0319811663f23a6e6160e01b14613ffd5760405162461bcd60e51b815260206004820152602860248201527f455243313135353a204552433131353552656365697665722072656a656374656044820152676420746f6b656e7360c01b6064820152608401610d26565b60006001600160e01b031982167fd9b67a26000000000000000000000000000000000000000000000000000000001480614cac57506001600160e01b031982167f0e89341c00000000000000000000000000000000000000000000000000000000145b80610d5257507f01ffc9a7000000000000000000000000000000000000000000000000000000006001600160e01b0319831614610d52565b60606000614cf38360026158c8565b614cfe90600261589c565b67ffffffffffffffff811115614d1657614d16615a34565b6040519080825280601f01601f191660200182016040528015614d40576020820181803683370190505b5090507f300000000000000000000000000000000000000000000000000000000000000081600081518110614d7757614d77615a1e565b60200101906001600160f81b031916908160001a9053507f780000000000000000000000000000000000000000000000000000000000000081600181518110614dc257614dc2615a1e565b60200101906001600160f81b031916908160001a9053506000614de68460026158c8565b614df190600161589c565b90505b6001811115614e76577f303132333435363738396162636465660000000000000000000000000000000085600f1660108110614e3257614e32615a1e565b1a60f81b828281518110614e4857614e48615a1e565b60200101906001600160f81b031916908160001a90535060049490941c93614e6f8161592e565b9050614df4565b50831561353b5760405162461bcd60e51b815260206004820181905260248201527f537472696e67733a20686578206c656e67746820696e73756666696369656e746044820152606401610d26565b828054614ed190615945565b90600052602060002090601f016020900481019282614ef35760008555614f39565b82601f10614f0c57805160ff1916838001178555614f39565b82800160010185558215614f39579182015b82811115614f39578251825591602001919060010190614f1e565b50614f45929150614f49565b5090565b5b80821115614f455760008155600101614f4a565b600067ffffffffffffffff831115614f7857614f78615a34565b604051614f8f601f8501601f191660200182615980565b809150838152848484011115614fa457600080fd5b83836020830137600060208583010152509392505050565b80356001600160a01b0381168114614fd357600080fd5b919050565b600082601f830112614fe957600080fd5b81356020614ff682615878565b6040516150038282615980565b8381528281019150858301600585901b8701840188101561502357600080fd5b60005b858110156150495761503782614fbc565b84529284019290840190600101615026565b5090979650505050505050565b600082601f83011261506757600080fd5b8135602061507482615878565b6040516150818282615980565b8381528281019150858301600585901b870184018810156150a157600080fd5b60005b85811015615049578135845292840192908401906001016150a4565b600082601f8301126150d157600080fd5b61353b83833560208501614f5e565b6000602082840312156150f257600080fd5b61353b82614fbc565b6000806040838503121561510e57600080fd5b61511783614fbc565b915061512560208401614fbc565b90509250929050565b600080600080600060a0868803121561514657600080fd5b61514f86614fbc565b945061515d60208701614fbc565b9350604086013567ffffffffffffffff8082111561517a57600080fd5b61518689838a01615056565b9450606088013591508082111561519c57600080fd5b6151a889838a01615056565b935060808801359150808211156151be57600080fd5b506151cb888289016150c0565b9150509295509295909350565b600080600080600060a086880312156151f057600080fd5b6151f986614fbc565b945061520760208701614fbc565b93506040860135925060608601359150608086013567ffffffffffffffff81111561523157600080fd5b6151cb888289016150c0565b6000806040838503121561525057600080fd5b61525983614fbc565b9150602083013561526981615af0565b809150509250929050565b6000806040838503121561528757600080fd5b61529083614fbc565b946020939093013593505050565b6000602082840312156152b057600080fd5b813567ffffffffffffffff8111156152c757600080fd5b6152d384828501614fd8565b949350505050565b600080604083850312156152ee57600080fd5b823567ffffffffffffffff8082111561530657600080fd5b61531286838701614fd8565b9350602085013591508082111561532857600080fd5b5061533585828601615056565b9150509250929050565b60006020828403121561535157600080fd5b815161353b81615af0565b60006020828403121561536e57600080fd5b5035919050565b6000806040838503121561538857600080fd5b8235915061512560208401614fbc565b6000602082840312156153aa57600080fd5b813561353b81615afe565b6000602082840312156153c757600080fd5b815161353b81615afe565b6000602082840312156153e457600080fd5b5051919050565b600080604083850312156153fe57600080fd5b82359150602083013567ffffffffffffffff81111561541c57600080fd5b61533585828601615056565b6000806040838503121561543b57600080fd5b82359150602083013567ffffffffffffffff81111561545957600080fd5b8301601f8101851361546a57600080fd5b61533585823560208401614f5e565b6000806040838503121561548c57600080fd5b50508035926020909101359150565b6000806000606084860312156154b057600080fd5b505081359360208301359350604090920135919050565b600081518084526020808501945080840160005b838110156154f7578151875295820195908201906001016154db565b509495945050505050565b6000815180845261551a8160208601602086016158fe565b601f01601f19169290920160200192915050565b7f416363657373436f6e74726f6c3a206163636f756e74200000000000000000008152600083516155668160178501602088016158fe565b7f206973206d697373696e6720726f6c652000000000000000000000000000000060179184019182015283516155a38160288401602088016158fe565b01602801949350505050565b60006001600160a01b03808816835280871660208401525060a060408301526155db60a08301866154c7565b82810360608401526155ed81866154c7565b905082810360808401526156018185615502565b98975050505050505050565b60006001600160a01b03808816835280871660208401525084604083015283606083015260a0608083015261564560a0830184615502565b979650505050505050565b6020808252825182820181905260009190848201906040850190845b818110156156dc576156c9838551805182526020810151602083015260408101516040830152606081015160608301526001600160a01b03608082015116608083015260a081015160a083015260c0810151151560c08301525050565b9284019260e0929092019160010161566c565b50909695505050505050565b6020808252825182820181905260009190848201906040850190845b818110156156dc5761574d8385518051825260208101516020830152604081015160408301526001600160a01b0360608201511660608301526080810151151560808301525050565b9284019260a09290920191600101615704565b60208152600061353b60208301846154c7565b60408152600061578660408301856154c7565b828103602084015261579881856154c7565b95945050505050565b60208101600283106157c357634e487b7160e01b600052602160045260246000fd5b91905290565b60208152600061353b6020830184615502565b60e08101610d528284805182526020810151602083015260408101516040830152606081015160608301526001600160a01b03608082015116608083015260a081015160a083015260c0810151151560c08301525050565b60a08101610d5282848051825260208101516020830152604081015160408301526001600160a01b0360608201511660608301526080810151151560808301525050565b600067ffffffffffffffff82111561589257615892615a34565b5060051b60200190565b600082198211156158af576158af6159dc565b500190565b6000826158c3576158c36159f2565b500490565b60008160001904831182151516156158e2576158e26159dc565b500290565b6000828210156158f9576158f96159dc565b500390565b60005b83811015615919578181015183820152602001615901565b83811115615928576000848401525b50505050565b60008161593d5761593d6159dc565b506000190190565b600181811c9082168061595957607f821691505b6020821081141561597a57634e487b7160e01b600052602260045260246000fd5b50919050565b601f8201601f1916810167ffffffffffffffff811182821017156159a6576159a6615a34565b6040525050565b60006000198214156159c1576159c16159dc565b5060010190565b6000826159d7576159d76159f2565b500690565b634e487b7160e01b600052601160045260246000fd5b634e487b7160e01b600052601260045260246000fd5b634e487b7160e01b600052602160045260246000fd5b634e487b7160e01b600052603260045260246000fd5b634e487b7160e01b600052604160045260246000fd5b600060033d1115615a635760046000803e5060005160e01c5b90565b600060443d1015615a745790565b6040516003193d81016004833e81513d67ffffffffffffffff8160248401118184111715615aa457505050505090565b8285019150815181811115615abc5750505050505090565b843d8701016020828501011115615ad65750505050505090565b615ae560208286010187615980565b509095945050505050565b801515811461117e57600080fd5b6001600160e01b03198116811461117e57600080fdfea26469706673582212208f330833ad41dfc1991468eae776f5f858fdda7444a30b72e0f6aa7c5e2a902d64736f6c63430008070033",
  "linkReferences": {},
  "deployedLinkReferences": {}
}