{
  "_format": "hh-sol-artifact-1",
  "contractName": "RacksItemsv2",
  "sourceName": "contracts/RacksItemsv2.sol",
  "abi": [
    {
      "inputs": [
        {
          "internalType": "address",
          "name": "vrfCoordinatorV2",
          "type": "address"
        },
        {
          "internalType": "bytes32",
          "name": "gasLane",
          "type": "bytes32"
        },
        {
          "internalType": "uint64",
          "name": "subscriptionId",
          "type": "uint64"
        },
        {
          "internalType": "uint32",
          "name": "callbackGasLimit",
          "type": "uint32"
        },
        {
          "internalType": "address",
          "name": "_racksTokenAddress",
          "type": "address"
        }
      ],
      "stateMutability": "nonpayable",
      "type": "constructor"
    },
    {
      "inputs": [
        {
          "internalType": "address",
          "name": "have",
          "type": "address"
        },
        {
          "internalType": "address",
          "name": "want",
          "type": "address"
        }
      ],
      "name": "OnlyCoordinatorCanFulfill",
      "type": "error"
    },
    {
      "anonymous": false,
      "inputs": [
        {
          "indexed": true,
          "internalType": "address",
          "name": "account",
          "type": "address"
        },
        {
          "indexed": true,
          "internalType": "address",
          "name": "operator",
          "type": "address"
        },
        {
          "indexed": false,
          "internalType": "bool",
          "name": "approved",
          "type": "bool"
        }
      ],
      "name": "ApprovalForAll",
      "type": "event"
    },
    {
      "anonymous": false,
      "inputs": [
        {
          "indexed": false,
          "internalType": "address",
          "name": "user",
          "type": "address"
        },
        {
          "indexed": false,
          "internalType": "uint256",
          "name": "casePrice",
          "type": "uint256"
        },
        {
          "indexed": false,
          "internalType": "uint256",
          "name": "item",
          "type": "uint256"
        }
      ],
      "name": "CaseOpened",
      "type": "event"
    },
    {
      "anonymous": false,
      "inputs": [
        {
          "indexed": true,
          "internalType": "bytes32",
          "name": "role",
          "type": "bytes32"
        },
        {
          "indexed": true,
          "internalType": "bytes32",
          "name": "previousAdminRole",
          "type": "bytes32"
        },
        {
          "indexed": true,
          "internalType": "bytes32",
          "name": "newAdminRole",
          "type": "bytes32"
        }
      ],
      "name": "RoleAdminChanged",
      "type": "event"
    },
    {
      "anonymous": false,
      "inputs": [
        {
          "indexed": true,
          "internalType": "bytes32",
          "name": "role",
          "type": "bytes32"
        },
        {
          "indexed": true,
          "internalType": "address",
          "name": "account",
          "type": "address"
        },
        {
          "indexed": true,
          "internalType": "address",
          "name": "sender",
          "type": "address"
        }
      ],
      "name": "RoleGranted",
      "type": "event"
    },
    {
      "anonymous": false,
      "inputs": [
        {
          "indexed": true,
          "internalType": "bytes32",
          "name": "role",
          "type": "bytes32"
        },
        {
          "indexed": true,
          "internalType": "address",
          "name": "account",
          "type": "address"
        },
        {
          "indexed": true,
          "internalType": "address",
          "name": "sender",
          "type": "address"
        }
      ],
      "name": "RoleRevoked",
      "type": "event"
    },
    {
      "anonymous": false,
      "inputs": [
        {
          "indexed": true,
          "internalType": "address",
          "name": "operator",
          "type": "address"
        },
        {
          "indexed": true,
          "internalType": "address",
          "name": "from",
          "type": "address"
        },
        {
          "indexed": true,
          "internalType": "address",
          "name": "to",
          "type": "address"
        },
        {
          "indexed": false,
          "internalType": "uint256[]",
          "name": "ids",
          "type": "uint256[]"
        },
        {
          "indexed": false,
          "internalType": "uint256[]",
          "name": "values",
          "type": "uint256[]"
        }
      ],
      "name": "TransferBatch",
      "type": "event"
    },
    {
      "anonymous": false,
      "inputs": [
        {
          "indexed": true,
          "internalType": "address",
          "name": "operator",
          "type": "address"
        },
        {
          "indexed": true,
          "internalType": "address",
          "name": "from",
          "type": "address"
        },
        {
          "indexed": true,
          "internalType": "address",
          "name": "to",
          "type": "address"
        },
        {
          "indexed": false,
          "internalType": "uint256",
          "name": "id",
          "type": "uint256"
        },
        {
          "indexed": false,
          "internalType": "uint256",
          "name": "value",
          "type": "uint256"
        }
      ],
      "name": "TransferSingle",
      "type": "event"
    },
    {
      "anonymous": false,
      "inputs": [
        {
          "indexed": false,
          "internalType": "string",
          "name": "value",
          "type": "string"
        },
        {
          "indexed": true,
          "internalType": "uint256",
          "name": "id",
          "type": "uint256"
        }
      ],
      "name": "URI",
      "type": "event"
    },
    {
      "anonymous": false,
      "inputs": [
        {
          "indexed": false,
          "internalType": "uint256",
          "name": "newPrice",
          "type": "uint256"
        }
      ],
      "name": "casePriceChanged",
      "type": "event"
    },
    {
      "anonymous": false,
      "inputs": [
        {
          "indexed": false,
          "internalType": "address",
          "name": "buyer",
          "type": "address"
        },
        {
          "indexed": false,
          "internalType": "address",
          "name": "seller",
          "type": "address"
        },
        {
          "indexed": false,
          "internalType": "uint256",
          "name": "marketItemId",
          "type": "uint256"
        },
        {
          "indexed": false,
          "internalType": "uint256",
          "name": "price",
          "type": "uint256"
        }
      ],
      "name": "itemBought",
      "type": "event"
    },
    {
      "anonymous": false,
      "inputs": [
        {
          "indexed": false,
          "internalType": "address",
          "name": "user",
          "type": "address"
        },
        {
          "indexed": false,
          "internalType": "uint256",
          "name": "tokenId",
          "type": "uint256"
        }
      ],
      "name": "itemExchanged",
      "type": "event"
    },
    {
      "anonymous": false,
      "inputs": [
        {
          "indexed": false,
          "internalType": "address",
          "name": "owner",
          "type": "address"
        },
        {
          "indexed": false,
          "internalType": "uint256",
          "name": "marketItemId",
          "type": "uint256"
        },
        {
          "indexed": false,
          "internalType": "uint256",
          "name": "oldPrice",
          "type": "uint256"
        },
        {
          "indexed": false,
          "internalType": "uint256",
          "name": "newPrice",
          "type": "uint256"
        }
      ],
      "name": "itemPriceChanged",
      "type": "event"
    },
    {
      "anonymous": false,
      "inputs": [
        {
          "indexed": false,
          "internalType": "address",
          "name": "seller",
          "type": "address"
        },
        {
          "indexed": false,
          "internalType": "uint256",
          "name": "numTries",
          "type": "uint256"
        },
        {
          "indexed": false,
          "internalType": "uint256",
          "name": "_hours",
          "type": "uint256"
        },
        {
          "indexed": false,
          "internalType": "uint256",
          "name": "price",
          "type": "uint256"
        }
      ],
      "name": "newTicketOnSale",
      "type": "event"
    },
    {
      "anonymous": false,
      "inputs": [
        {
          "indexed": false,
          "internalType": "address",
          "name": "user",
          "type": "address"
        },
        {
          "indexed": false,
          "internalType": "uint256",
          "name": "tokenId",
          "type": "uint256"
        },
        {
          "indexed": false,
          "internalType": "uint256",
          "name": "price",
          "type": "uint256"
        }
      ],
      "name": "sellingItem",
      "type": "event"
    },
    {
      "anonymous": false,
      "inputs": [
        {
          "indexed": false,
          "internalType": "uint256",
          "name": "ticketId",
          "type": "uint256"
        },
        {
          "indexed": false,
          "internalType": "address",
          "name": "oldOwner",
          "type": "address"
        },
        {
          "indexed": false,
          "internalType": "address",
          "name": "newOwner",
          "type": "address"
        },
        {
          "indexed": false,
          "internalType": "uint256",
          "name": "price",
          "type": "uint256"
        }
      ],
      "name": "ticketBought",
      "type": "event"
    },
    {
      "anonymous": false,
      "inputs": [
        {
          "indexed": false,
          "internalType": "address",
          "name": "borrower",
          "type": "address"
        },
        {
          "indexed": false,
          "internalType": "address",
          "name": "realOwner",
          "type": "address"
        }
      ],
      "name": "ticketClaimedBack",
      "type": "event"
    },
    {
      "anonymous": false,
      "inputs": [
        {
          "indexed": false,
          "internalType": "address",
          "name": "owner",
          "type": "address"
        },
        {
          "indexed": false,
          "internalType": "uint256",
          "name": "newTries",
          "type": "uint256"
        },
        {
          "indexed": false,
          "internalType": "uint256",
          "name": "newPrice",
          "type": "uint256"
        }
      ],
      "name": "ticketPriceChanged",
      "type": "event"
    },
    {
      "anonymous": false,
      "inputs": [
        {
          "indexed": false,
          "internalType": "address",
          "name": "owner",
          "type": "address"
        }
      ],
      "name": "unListTicketOnSale",
      "type": "event"
    },
    {
      "anonymous": false,
      "inputs": [
        {
          "indexed": false,
          "internalType": "address",
          "name": "owner",
          "type": "address"
        },
        {
          "indexed": false,
          "internalType": "uint256",
          "name": "marketItemId",
          "type": "uint256"
        }
      ],
      "name": "unListedItem",
      "type": "event"
    },
    {
      "inputs": [],
      "name": "ADMIN_ROLE",
      "outputs": [
        {
          "internalType": "bytes32",
          "name": "",
          "type": "bytes32"
        }
      ],
      "stateMutability": "view",
      "type": "function"
    },
    {
      "inputs": [],
      "name": "DEFAULT_ADMIN_ROLE",
      "outputs": [
        {
          "internalType": "bytes32",
          "name": "",
          "type": "bytes32"
        }
      ],
      "stateMutability": "view",
      "type": "function"
    },
    {
      "inputs": [],
      "name": "NUM_WORDS",
      "outputs": [
        {
          "internalType": "uint32",
          "name": "",
          "type": "uint32"
        }
      ],
      "stateMutability": "view",
      "type": "function"
    },
    {
      "inputs": [],
      "name": "REQUEST_CONFIRMATIONS",
      "outputs": [
        {
          "internalType": "uint16",
          "name": "",
          "type": "uint16"
        }
      ],
      "stateMutability": "view",
      "type": "function"
    },
    {
      "inputs": [],
      "name": "_randomNumber",
      "outputs": [
        {
          "internalType": "uint256",
          "name": "",
          "type": "uint256"
        }
      ],
      "stateMutability": "nonpayable",
      "type": "function"
    },
    {
      "inputs": [
        {
          "internalType": "uint256",
          "name": "tokenId",
          "type": "uint256"
        }
      ],
      "name": "_rarityOfItem",
      "outputs": [
        {
          "internalType": "uint256",
          "name": "",
          "type": "uint256"
        }
      ],
      "stateMutability": "view",
      "type": "function"
    },
    {
      "inputs": [
        {
          "internalType": "address",
          "name": "account",
          "type": "address"
        },
        {
          "internalType": "uint256",
          "name": "id",
          "type": "uint256"
        }
      ],
      "name": "balanceOf",
      "outputs": [
        {
          "internalType": "uint256",
          "name": "",
          "type": "uint256"
        }
      ],
      "stateMutability": "view",
      "type": "function"
    },
    {
      "inputs": [
        {
          "internalType": "address[]",
          "name": "accounts",
          "type": "address[]"
        },
        {
          "internalType": "uint256[]",
          "name": "ids",
          "type": "uint256[]"
        }
      ],
      "name": "balanceOfBatch",
      "outputs": [
        {
          "internalType": "uint256[]",
          "name": "",
          "type": "uint256[]"
        }
      ],
      "stateMutability": "view",
      "type": "function"
    },
    {
      "inputs": [
        {
          "internalType": "uint256",
          "name": "marketItemId",
          "type": "uint256"
        }
      ],
      "name": "buyItem",
      "outputs": [],
      "stateMutability": "nonpayable",
      "type": "function"
    },
    {
      "inputs": [
        {
          "internalType": "uint256",
          "name": "ticketId",
          "type": "uint256"
        }
      ],
      "name": "buyTicket",
      "outputs": [],
      "stateMutability": "nonpayable",
      "type": "function"
    },
    {
      "inputs": [],
      "name": "casePrice",
      "outputs": [
        {
          "internalType": "uint256",
          "name": "",
          "type": "uint256"
        }
      ],
      "stateMutability": "view",
      "type": "function"
    },
    {
      "inputs": [
        {
          "internalType": "uint256",
          "name": "marketItemId",
          "type": "uint256"
        },
        {
          "internalType": "uint256",
          "name": "newPrice",
          "type": "uint256"
        }
      ],
      "name": "changeItemPrice",
      "outputs": [],
      "stateMutability": "nonpayable",
      "type": "function"
    },
    {
      "inputs": [
        {
          "internalType": "uint256",
          "name": "ticketId",
          "type": "uint256"
        },
        {
          "internalType": "uint256",
          "name": "newTries",
          "type": "uint256"
        },
        {
          "internalType": "uint256",
          "name": "newPrice",
          "type": "uint256"
        }
      ],
      "name": "changeTicketConditions",
      "outputs": [],
      "stateMutability": "nonpayable",
      "type": "function"
    },
    {
      "inputs": [
        {
          "internalType": "uint256",
          "name": "ticketId",
          "type": "uint256"
        }
      ],
      "name": "claimTicketBack",
      "outputs": [],
      "stateMutability": "nonpayable",
      "type": "function"
    },
    {
      "inputs": [],
      "name": "contractActive",
      "outputs": [
        {
          "internalType": "bool",
          "name": "",
          "type": "bool"
        }
      ],
      "stateMutability": "view",
      "type": "function"
    },
    {
      "inputs": [
        {
          "internalType": "address",
          "name": "user",
          "type": "address"
        }
      ],
      "name": "decreaseTicketTries",
      "outputs": [],
      "stateMutability": "nonpayable",
      "type": "function"
    },
    {
      "inputs": [
        {
          "internalType": "uint256",
          "name": "marketItemId",
          "type": "uint256"
        }
      ],
      "name": "exchangeItem",
      "outputs": [],
      "stateMutability": "nonpayable",
      "type": "function"
    },
    {
      "inputs": [],
      "name": "flipContractState",
      "outputs": [],
      "stateMutability": "nonpayable",
      "type": "function"
    },
    {
      "inputs": [],
      "name": "getCasePrice",
      "outputs": [
        {
          "internalType": "uint256",
          "name": "",
          "type": "uint256"
        }
      ],
      "stateMutability": "view",
      "type": "function"
    },
    {
      "inputs": [],
      "name": "getITicketsOnSale",
      "outputs": [
        {
          "components": [
            {
              "internalType": "uint256",
              "name": "ticketId",
              "type": "uint256"
            },
            {
              "internalType": "uint256",
              "name": "numTries",
              "type": "uint256"
            },
            {
              "internalType": "uint256",
              "name": "duration",
              "type": "uint256"
            },
            {
              "internalType": "uint256",
              "name": "price",
              "type": "uint256"
            },
            {
              "internalType": "address",
              "name": "owner",
              "type": "address"
            },
            {
              "internalType": "uint256",
              "name": "timeWhenSold",
              "type": "uint256"
            },
            {
              "internalType": "bool",
              "name": "isAvaliable",
              "type": "bool"
            }
          ],
          "internalType": "struct RacksItemsv2.caseTicket[]",
          "name": "",
          "type": "tuple[]"
        }
      ],
      "stateMutability": "view",
      "type": "function"
    },
    {
      "inputs": [],
      "name": "getItemsOnSale",
      "outputs": [
        {
          "components": [
            {
              "internalType": "uint256",
              "name": "tokenId",
              "type": "uint256"
            },
            {
              "internalType": "uint256",
              "name": "marketItemId",
              "type": "uint256"
            },
            {
              "internalType": "uint256",
              "name": "price",
              "type": "uint256"
            },
            {
              "internalType": "address",
              "name": "seller",
              "type": "address"
            },
            {
              "internalType": "bool",
              "name": "sold",
              "type": "bool"
            }
          ],
          "internalType": "struct RacksItemsv2.itemOnSale[]",
          "name": "",
          "type": "tuple[]"
        }
      ],
      "stateMutability": "view",
      "type": "function"
    },
    {
      "inputs": [
        {
          "internalType": "uint256",
          "name": "marketItemId",
          "type": "uint256"
        }
      ],
      "name": "getMarketItem",
      "outputs": [
        {
          "components": [
            {
              "internalType": "uint256",
              "name": "tokenId",
              "type": "uint256"
            },
            {
              "internalType": "uint256",
              "name": "marketItemId",
              "type": "uint256"
            },
            {
              "internalType": "uint256",
              "name": "price",
              "type": "uint256"
            },
            {
              "internalType": "address",
              "name": "seller",
              "type": "address"
            },
            {
              "internalType": "bool",
              "name": "sold",
              "type": "bool"
            }
          ],
          "internalType": "struct RacksItemsv2.itemOnSale",
          "name": "",
          "type": "tuple"
        }
      ],
      "stateMutability": "view",
      "type": "function"
    },
    {
      "inputs": [
        {
          "internalType": "uint256",
          "name": "ticketId",
          "type": "uint256"
        }
      ],
      "name": "getMarketTicket",
      "outputs": [
        {
          "components": [
            {
              "internalType": "uint256",
              "name": "ticketId",
              "type": "uint256"
            },
            {
              "internalType": "uint256",
              "name": "numTries",
              "type": "uint256"
            },
            {
              "internalType": "uint256",
              "name": "duration",
              "type": "uint256"
            },
            {
              "internalType": "uint256",
              "name": "price",
              "type": "uint256"
            },
            {
              "internalType": "address",
              "name": "owner",
              "type": "address"
            },
            {
              "internalType": "uint256",
              "name": "timeWhenSold",
              "type": "uint256"
            },
            {
              "internalType": "bool",
              "name": "isAvaliable",
              "type": "bool"
            }
          ],
          "internalType": "struct RacksItemsv2.caseTicket",
          "name": "",
          "type": "tuple"
        }
      ],
      "stateMutability": "view",
      "type": "function"
    },
    {
      "inputs": [
        {
          "internalType": "bytes32",
          "name": "role",
          "type": "bytes32"
        }
      ],
      "name": "getRoleAdmin",
      "outputs": [
        {
          "internalType": "bytes32",
          "name": "",
          "type": "bytes32"
        }
      ],
      "stateMutability": "view",
      "type": "function"
    },
    {
      "inputs": [
        {
          "internalType": "bytes32",
          "name": "role",
          "type": "bytes32"
        },
        {
          "internalType": "address",
          "name": "account",
          "type": "address"
        }
      ],
      "name": "grantRole",
      "outputs": [],
      "stateMutability": "nonpayable",
      "type": "function"
    },
    {
      "inputs": [
        {
          "internalType": "bytes32",
          "name": "role",
          "type": "bytes32"
        },
        {
          "internalType": "address",
          "name": "account",
          "type": "address"
        }
      ],
      "name": "hasRole",
      "outputs": [
        {
          "internalType": "bool",
          "name": "",
          "type": "bool"
        }
      ],
      "stateMutability": "view",
      "type": "function"
    },
    {
      "inputs": [],
      "name": "i_MrCryptoAddress",
      "outputs": [
        {
          "internalType": "address",
          "name": "",
          "type": "address"
        }
      ],
      "stateMutability": "view",
      "type": "function"
    },
    {
      "inputs": [],
      "name": "i_callbackGasLimit",
      "outputs": [
        {
          "internalType": "uint32",
          "name": "",
          "type": "uint32"
        }
      ],
      "stateMutability": "view",
      "type": "function"
    },
    {
      "inputs": [],
      "name": "i_gasLane",
      "outputs": [
        {
          "internalType": "bytes32",
          "name": "",
          "type": "bytes32"
        }
      ],
      "stateMutability": "view",
      "type": "function"
    },
    {
      "inputs": [],
      "name": "i_subscriptionId",
      "outputs": [
        {
          "internalType": "uint64",
          "name": "",
          "type": "uint64"
        }
      ],
      "stateMutability": "view",
      "type": "function"
    },
    {
      "inputs": [],
      "name": "i_vrfCoordinator",
      "outputs": [
        {
          "internalType": "contract VRFCoordinatorV2Interface",
          "name": "",
          "type": "address"
        }
      ],
      "stateMutability": "view",
      "type": "function"
    },
    {
      "inputs": [
        {
          "internalType": "address",
          "name": "account",
          "type": "address"
        },
        {
          "internalType": "address",
          "name": "operator",
          "type": "address"
        }
      ],
      "name": "isApprovedForAll",
      "outputs": [
        {
          "internalType": "bool",
          "name": "",
          "type": "bool"
        }
      ],
      "stateMutability": "view",
      "type": "function"
    },
    {
      "inputs": [
        {
          "internalType": "address",
          "name": "user",
          "type": "address"
        }
      ],
      "name": "isVip",
      "outputs": [
        {
          "internalType": "bool",
          "name": "",
          "type": "bool"
        }
      ],
      "stateMutability": "view",
      "type": "function"
    },
    {
      "inputs": [
        {
          "internalType": "uint256",
          "name": "itemSupply",
          "type": "uint256"
        }
      ],
      "name": "listItem",
      "outputs": [],
      "stateMutability": "nonpayable",
      "type": "function"
    },
    {
      "inputs": [
        {
          "internalType": "uint256",
          "name": "numTries",
          "type": "uint256"
        },
        {
          "internalType": "uint256",
          "name": "_hours",
          "type": "uint256"
        },
        {
          "internalType": "uint256",
          "name": "price",
          "type": "uint256"
        }
      ],
      "name": "listTicket",
      "outputs": [],
      "stateMutability": "nonpayable",
      "type": "function"
    },
    {
      "inputs": [
        {
          "internalType": "address",
          "name": "",
          "type": "address"
        },
        {
          "internalType": "address",
          "name": "",
          "type": "address"
        },
        {
          "internalType": "uint256[]",
          "name": "",
          "type": "uint256[]"
        },
        {
          "internalType": "uint256[]",
          "name": "",
          "type": "uint256[]"
        },
        {
          "internalType": "bytes",
          "name": "",
          "type": "bytes"
        }
      ],
      "name": "onERC1155BatchReceived",
      "outputs": [
        {
          "internalType": "bytes4",
          "name": "",
          "type": "bytes4"
        }
      ],
      "stateMutability": "nonpayable",
      "type": "function"
    },
    {
      "inputs": [
        {
          "internalType": "address",
          "name": "",
          "type": "address"
        },
        {
          "internalType": "address",
          "name": "",
          "type": "address"
        },
        {
          "internalType": "uint256",
          "name": "",
          "type": "uint256"
        },
        {
          "internalType": "uint256",
          "name": "",
          "type": "uint256"
        },
        {
          "internalType": "bytes",
          "name": "",
          "type": "bytes"
        }
      ],
      "name": "onERC1155Received",
      "outputs": [
        {
          "internalType": "bytes4",
          "name": "",
          "type": "bytes4"
        }
      ],
      "stateMutability": "nonpayable",
      "type": "function"
    },
    {
      "inputs": [],
      "name": "openCase",
      "outputs": [],
      "stateMutability": "nonpayable",
      "type": "function"
    },
    {
      "inputs": [
        {
          "internalType": "uint256",
          "name": "requestId",
          "type": "uint256"
        },
        {
          "internalType": "uint256[]",
          "name": "randomWords",
          "type": "uint256[]"
        }
      ],
      "name": "rawFulfillRandomWords",
      "outputs": [],
      "stateMutability": "nonpayable",
      "type": "function"
    },
    {
      "inputs": [
        {
          "internalType": "address[]",
          "name": "users",
          "type": "address[]"
        }
      ],
      "name": "removeListRacksMembers",
      "outputs": [],
      "stateMutability": "nonpayable",
      "type": "function"
    },
    {
      "inputs": [
        {
          "internalType": "address",
          "name": "user",
          "type": "address"
        }
      ],
      "name": "removeSingleRacksMember",
      "outputs": [],
      "stateMutability": "nonpayable",
      "type": "function"
    },
    {
      "inputs": [
        {
          "internalType": "bytes32",
          "name": "role",
          "type": "bytes32"
        },
        {
          "internalType": "address",
          "name": "account",
          "type": "address"
        }
      ],
      "name": "renounceRole",
      "outputs": [],
      "stateMutability": "nonpayable",
      "type": "function"
    },
    {
      "inputs": [
        {
          "internalType": "bytes32",
          "name": "role",
          "type": "bytes32"
        },
        {
          "internalType": "address",
          "name": "account",
          "type": "address"
        }
      ],
      "name": "revokeRole",
      "outputs": [],
      "stateMutability": "nonpayable",
      "type": "function"
    },
    {
      "inputs": [],
      "name": "s_contractState",
      "outputs": [
        {
          "internalType": "enum RacksItemsv2.ContractState",
          "name": "",
          "type": "uint8"
        }
      ],
      "stateMutability": "view",
      "type": "function"
    },
    {
      "inputs": [],
      "name": "s_randomWord",
      "outputs": [
        {
          "internalType": "uint256",
          "name": "",
          "type": "uint256"
        }
      ],
      "stateMutability": "view",
      "type": "function"
    },
    {
      "inputs": [
        {
          "internalType": "address",
          "name": "from",
          "type": "address"
        },
        {
          "internalType": "address",
          "name": "to",
          "type": "address"
        },
        {
          "internalType": "uint256[]",
          "name": "ids",
          "type": "uint256[]"
        },
        {
          "internalType": "uint256[]",
          "name": "amounts",
          "type": "uint256[]"
        },
        {
          "internalType": "bytes",
          "name": "data",
          "type": "bytes"
        }
      ],
      "name": "safeBatchTransferFrom",
      "outputs": [],
      "stateMutability": "nonpayable",
      "type": "function"
    },
    {
      "inputs": [
        {
          "internalType": "address",
          "name": "from",
          "type": "address"
        },
        {
          "internalType": "address",
          "name": "to",
          "type": "address"
        },
        {
          "internalType": "uint256",
          "name": "id",
          "type": "uint256"
        },
        {
          "internalType": "uint256",
          "name": "amount",
          "type": "uint256"
        },
        {
          "internalType": "bytes",
          "name": "data",
          "type": "bytes"
        }
      ],
      "name": "safeTransferFrom",
      "outputs": [],
      "stateMutability": "nonpayable",
      "type": "function"
    },
    {
      "inputs": [
        {
          "internalType": "uint256",
          "name": "marketItemId",
          "type": "uint256"
        },
        {
          "internalType": "uint256",
          "name": "price",
          "type": "uint256"
        }
      ],
      "name": "sellItem",
      "outputs": [],
      "stateMutability": "nonpayable",
      "type": "function"
    },
    {
      "inputs": [
        {
          "internalType": "address",
          "name": "_newAdmin",
          "type": "address"
        }
      ],
      "name": "setAdmin",
      "outputs": [],
      "stateMutability": "nonpayable",
      "type": "function"
    },
    {
      "inputs": [
        {
          "internalType": "address",
          "name": "operator",
          "type": "address"
        },
        {
          "internalType": "bool",
          "name": "approved",
          "type": "bool"
        }
      ],
      "name": "setApprovalForAll",
      "outputs": [],
      "stateMutability": "nonpayable",
      "type": "function"
    },
    {
      "inputs": [
        {
          "internalType": "uint256",
          "name": "price",
          "type": "uint256"
        }
      ],
      "name": "setCasePrice",
      "outputs": [],
      "stateMutability": "nonpayable",
      "type": "function"
    },
    {
      "inputs": [
        {
          "internalType": "address[]",
          "name": "users",
          "type": "address[]"
        }
      ],
      "name": "setListRacksMembers",
      "outputs": [],
      "stateMutability": "nonpayable",
      "type": "function"
    },
    {
      "inputs": [
        {
          "internalType": "address",
          "name": "user",
          "type": "address"
        }
      ],
      "name": "setSingleRacksMember",
      "outputs": [],
      "stateMutability": "nonpayable",
      "type": "function"
    },
    {
      "inputs": [
        {
          "internalType": "uint256",
          "name": "tokenId",
          "type": "uint256"
        },
        {
          "internalType": "string",
          "name": "_uri",
          "type": "string"
        }
      ],
      "name": "setTokenUri",
      "outputs": [],
      "stateMutability": "nonpayable",
      "type": "function"
    },
    {
      "inputs": [
        {
          "internalType": "uint256",
          "name": "tokenId",
          "type": "uint256"
        }
      ],
      "name": "supplyOfItem",
      "outputs": [
        {
          "internalType": "uint256",
          "name": "",
          "type": "uint256"
        }
      ],
      "stateMutability": "view",
      "type": "function"
    },
    {
      "inputs": [
        {
          "internalType": "bytes4",
          "name": "interfaceId",
          "type": "bytes4"
        }
      ],
      "name": "supportsInterface",
      "outputs": [
        {
          "internalType": "bool",
          "name": "",
          "type": "bool"
        }
      ],
      "stateMutability": "view",
      "type": "function"
    },
    {
      "inputs": [
        {
          "internalType": "uint256",
          "name": "marketItemId",
          "type": "uint256"
        }
      ],
      "name": "unListItem",
      "outputs": [],
      "stateMutability": "nonpayable",
      "type": "function"
    },
    {
      "inputs": [
        {
          "internalType": "uint256",
          "name": "ticketId",
          "type": "uint256"
        }
      ],
      "name": "unListTicket",
      "outputs": [],
      "stateMutability": "nonpayable",
      "type": "function"
    },
    {
      "inputs": [
        {
          "internalType": "uint256",
          "name": "tokenId",
          "type": "uint256"
        }
      ],
      "name": "uri",
      "outputs": [
        {
          "internalType": "string",
          "name": "",
          "type": "string"
        }
      ],
      "stateMutability": "view",
      "type": "function"
    },
    {
      "inputs": [
        {
          "internalType": "address",
          "name": "owner",
          "type": "address"
        }
      ],
      "name": "viewItems",
      "outputs": [
        {
          "internalType": "uint256[]",
          "name": "",
          "type": "uint256[]"
        }
      ],
      "stateMutability": "view",
      "type": "function"
    },
    {
      "inputs": [
        {
          "internalType": "address",
          "name": "wallet",
          "type": "address"
        }
      ],
      "name": "withdrawAllFunds",
      "outputs": [],
      "stateMutability": "nonpayable",
      "type": "function"
    },
    {
      "inputs": [
        {
          "internalType": "address",
          "name": "wallet",
          "type": "address"
        },
        {
          "internalType": "uint256",
          "name": "amount",
          "type": "uint256"
        }
      ],
      "name": "withdrawFunds",
      "outputs": [],
      "stateMutability": "nonpayable",
      "type": "function"
    },
    {
      "stateMutability": "payable",
      "type": "receive"
    }
  ],
  "bytecode": "0x610120604052600c805460ff191660011790553480156200001f57600080fd5b5060405162005c7b38038062005c7b8339810160408190526200004291620001ec565b60408051602081019091526000815285906200005e8162000110565b50606090811b6001600160601b031990811660805295901b90941660a05260c0928352911b6001600160c01b03191660e09081521b6001600160e01b031916610100526004805473ef453154766505feb9dbf0a58e6990fd6eb669696001600160a01b0319918216179091556005805482166001600160a01b0393909316929092179091556006805433921691909117905560006008819055600a556001600b55600c805461ff0019169055620002a9565b80516200012590600290602084019062000129565b5050565b82805462000137906200026c565b90600052602060002090601f0160209004810192826200015b5760008555620001a6565b82601f106200017657805160ff1916838001178555620001a6565b82800160010185558215620001a6579182015b82811115620001a657825182559160200191906001019062000189565b50620001b4929150620001b8565b5090565b5b80821115620001b45760008155600101620001b9565b80516001600160a01b0381168114620001e757600080fd5b919050565b600080600080600060a086880312156200020557600080fd5b6200021086620001cf565b6020870151604088015191965094506001600160401b03811681146200023557600080fd5b606087015190935063ffffffff811681146200025057600080fd5b91506200026060808701620001cf565b90509295509295909350565b600181811c908216806200028157607f821691505b60208210811415620002a357634e487b7160e01b600052602260045260246000fd5b50919050565b60805160601c60a05160601c60c05160e05160c01c6101005160e01c61595e6200031d60003960008181610b230152611c2f01526000818161061d0152611bfc0152600081816108880152611bcd0152600081816109770152611c6a015260008181610ead0152610f08015261595e6000f3fe6080604052600436106103b05760003560e01c80638ba8b15a116101e7578063c10753291161010d578063e289fcb6116100a0578063f23a6e611161006f578063f23a6e6114610c2a578063f242432a14610c56578063f48c9d3414610c76578063fd210fd914610c9657600080fd5b8063e289fcb614610b87578063e7fb74c714610ba1578063e985e9c514610bc1578063ebf82e5c14610c0a57600080fd5b8063d547741f116100dc578063d547741f14610af1578063d757d02714610b11578063dd006d3114610b45578063de08f65314610b7257600080fd5b8063c107532914610a6e578063c7be7a4914610a8e578063c7e05f8d14610abb578063ca90958f14610adb57600080fd5b8063a7b1942411610185578063b63b861211610154578063b63b8612146109bb578063b85e67af146109e7578063bbcbc2e714610a07578063bc197c8114610a2957600080fd5b8063a7b1942414610925578063a7bc77c614610945578063aebc455014610965578063b2ead3c71461099957600080fd5b806391d14854116101c157806391d14854146108aa578063976298f3146108f0578063a217fddf146107c1578063a22cb4651461090557600080fd5b80638ba8b15a146108365780638dc5f45b146108565780638e879c8a1461087657600080fd5b8063470cdf97116102d757806367dd74ca1161026a57806375b238fc1161023957806375b238fc146107c15780637e420db5146107d657806384203f4b146107f657806389165aa91461081657600080fd5b806367dd74ca1461072f57806367f082b01461074f578063704b6c021461077757806372cf6e341461079757600080fd5b806354e889f6116102a657806354e889f6146106ba57806357f7789e146106da57806361652450146106fa57806361c073d61461070f57600080fd5b8063470cdf971461060b5780634a226657146106585780634e1273f41461066d5780635408c3191461069a57600080fd5b8063248a9ca31161034f5780632f2ff15d1161031e5780632f2ff15d1461058b57806330dc2764146105ab57806332dee40b146105cb57806336568abe146105eb57600080fd5b8063248a9ca3146104fb5780632ce381901461052b5780632d9235611461054b5780632eb2c2d61461056b57600080fd5b8063109b82781161038b578063109b82781461044c5780631cb0b2731461048c5780631fe543e3146104ae57806320ba0814146104ce57600080fd5b8062fdd58e146103bc57806301ffc9a7146103ef5780630e89341c1461041f57600080fd5b366103b757005b600080fd5b3480156103c857600080fd5b506103dc6103d7366004615088565b610cac565b6040519081526020015b60405180910390f35b3480156103fb57600080fd5b5061040f61040a3660046151ac565b610d58565b60405190151581526020016103e6565b34801561042b57600080fd5b5061043f61043a366004615170565b610d63565b6040516103e691906155dd565b34801561045857600080fd5b5061047473ef453154766505feb9dbf0a58e6990fd6eb6696981565b6040516001600160a01b0390911681526020016103e6565b34801561049857600080fd5b506104ac6104a7366004615170565b610e05565b005b3480156104ba57600080fd5b506104ac6104c93660046151ff565b610ea2565b3480156104da57600080fd5b506103dc6104e9366004615170565b60009081526011602052604090205490565b34801561050757600080fd5b506103dc610516366004615170565b60009081526003602052604090206001015490565b34801561053757600080fd5b506104ac610546366004615170565b610f43565b34801561055757600080fd5b506104ac61056636600461528d565b610faf565b34801561057757600080fd5b506104ac610586366004614f42565b61119e565b34801561059757600080fd5b506104ac6105a6366004615189565b611240565b3480156105b757600080fd5b506104ac6105c6366004614ef4565b61126a565b3480156105d757600080fd5b506104ac6105e6366004614ef4565b6113bb565b3480156105f757600080fd5b506104ac610606366004615189565b611563565b34801561061757600080fd5b5061063f7f000000000000000000000000000000000000000000000000000000000000000081565b60405167ffffffffffffffff90911681526020016103e6565b34801561066457600080fd5b506104ac6115eb565b34801561067957600080fd5b5061068d6106883660046150ef565b611837565b6040516103e69190615574565b3480156106a657600080fd5b506104ac6106b53660046150b2565b611975565b3480156106c657600080fd5b506104ac6106d5366004614ef4565b611a3c565b3480156106e657600080fd5b506104ac6106f536600461523c565b611abf565b34801561070657600080fd5b506103dc611ba5565b34801561071b57600080fd5b506104ac61072a366004615170565b611ce6565b34801561073b57600080fd5b506104ac61074a366004615170565b611f6e565b34801561075b57600080fd5b50610764600381565b60405161ffff90911681526020016103e6565b34801561078357600080fd5b506104ac610792366004614ef4565b612418565b3480156107a357600080fd5b506107ac600281565b60405163ffffffff90911681526020016103e6565b3480156107cd57600080fd5b506103dc600081565b3480156107e257600080fd5b506104ac6107f1366004615170565b61247d565b34801561080257600080fd5b5061040f610811366004614ef4565b612661565b34801561082257600080fd5b506104ac6108313660046150b2565b61271b565b34801561084257600080fd5b506104ac610851366004614ef4565b6127e2565b34801561086257600080fd5b506104ac610871366004615170565b612862565b34801561088257600080fd5b506103dc7f000000000000000000000000000000000000000000000000000000000000000081565b3480156108b657600080fd5b5061040f6108c5366004615189565b60009182526003602090815260408084206001600160a01b0393909316845291905290205460ff1690565b3480156108fc57600080fd5b50600b546103dc565b34801561091157600080fd5b506104ac610920366004615051565b6128f6565b34801561093157600080fd5b506104ac61094036600461528d565b612901565b34801561095157600080fd5b506104ac610960366004615170565b612a2c565b34801561097157600080fd5b506104747f000000000000000000000000000000000000000000000000000000000000000081565b3480156109a557600080fd5b506109ae612b55565b6040516103e69190615464565b3480156109c757600080fd5b50600c546109da90610100900460ff1681565b6040516103e691906155b5565b3480156109f357600080fd5b506104ac610a023660046152af565b612d96565b348015610a1357600080fd5b50610a1c6130ee565b6040516103e691906154fc565b348015610a3557600080fd5b50610a55610a44366004614f42565b63bc197c8160e01b95945050505050565b6040516001600160e01b031990911681526020016103e6565b348015610a7a57600080fd5b506104ac610a89366004615088565b6132f0565b348015610a9a57600080fd5b50610aae610aa9366004615170565b613499565b6040516103e69190615648565b348015610ac757600080fd5b506103dc610ad6366004615170565b61354c565b348015610ae757600080fd5b506103dc600b5481565b348015610afd57600080fd5b506104ac610b0c366004615189565b613583565b348015610b1d57600080fd5b506107ac7f000000000000000000000000000000000000000000000000000000000000000081565b348015610b5157600080fd5b50610b65610b60366004615170565b6135a8565b6040516103e691906155f0565b348015610b7e57600080fd5b506104ac613679565b348015610b9357600080fd5b50600c5461040f9060ff1681565b348015610bad57600080fd5b506104ac610bbc366004615170565b61371a565b348015610bcd57600080fd5b5061040f610bdc366004614f0f565b6001600160a01b03918216600090815260016020908152604080832093909416825291909152205460ff1690565b348015610c1657600080fd5b506104ac610c253660046152af565b613902565b348015610c3657600080fd5b50610a55610c45366004614fec565b63f23a6e6160e01b95945050505050565b348015610c6257600080fd5b506104ac610c71366004614fec565b613afa565b348015610c8257600080fd5b5061068d610c91366004614ef4565b613b95565b348015610ca257600080fd5b506103dc600f5481565b60006001600160a01b038316610d2f5760405162461bcd60e51b815260206004820152602b60248201527f455243313135353a2062616c616e636520717565727920666f7220746865207a60448201527f65726f206164647265737300000000000000000000000000000000000000000060648201526084015b60405180910390fd5b506000818152602081815260408083206001600160a01b03861684529091529020545b92915050565b6000610d5282613c2c565b6000818152601260205260409020805460609190610d8090615759565b80601f0160208091040260200160405190810160405280929190818152602001828054610dac90615759565b8015610df95780601f10610dce57610100808354040283529160200191610df9565b820191906000526020600020905b815481529060010190602001808311610ddc57829003601f168201915b50505050509050919050565b6000610e113383610cac565b11610e1b57600080fd5b610e2733826001613c6a565b6000818152601160205260408120805460019290610e469084906156fb565b92505081905550600160076000828254610e6091906156fb565b909155505060408051338152602081018390527f9e90d55d2f1f115ffe1b87372c45f27f6b3a2b5ba392942167be78456189009491015b60405180910390a150565b336001600160a01b037f00000000000000000000000000000000000000000000000000000000000000001614610f35576040517f1cf993f40000000000000000000000000000000000000000000000000000000081523360048201526001600160a01b037f0000000000000000000000000000000000000000000000000000000000000000166024820152604401610d26565b610f3f8282613e1e565b5050565b610f4c33613e43565b610fa25760405162461bcd60e51b815260206004820152602160248201527f55736572206973206e6f7420746865204f776e6572206f7220616e2041646d696044820152603760f91b6064820152608401610d26565b610fac3082613ea2565b50565b6000610fbb3384610cac565b116110085760405162461bcd60e51b815260206004820152600f60248201527f4974656d206e6f7420666f756e642e00000000000000000000000000000000006044820152606401610d26565b611025333084600160405180602001604052806000815250613f0d565b6040805160a08101825283815260098054602083019081529282018481523360608401908152600060808501818152600d8054600181018255908352955160049096027fd7b6990105719101dabeb77144f2a3385c8033acd3af97e9423a695e81ad1eb581019690965595517fd7b6990105719101dabeb77144f2a3385c8033acd3af97e9423a695e81ad1eb686015591517fd7b6990105719101dabeb77144f2a3385c8033acd3af97e9423a695e81ad1eb7850155517fd7b6990105719101dabeb77144f2a3385c8033acd3af97e9423a695e81ad1eb8909301805494511515600160a01b027fffffffffffffffffffffff0000000000000000000000000000000000000000009095166001600160a01b03949094169390931793909317909155805491611153836157c1565b909155505060408051338152602081018490529081018290527f23cba88d6c6f26b62b2cfc32a2cc04fbbde8590188b97cd3590e45af9ac6dd6d906060015b60405180910390a15050565b6001600160a01b0385163314806111ba57506111ba8533610bdc565b61122c5760405162461bcd60e51b815260206004820152603260248201527f455243313135353a207472616e736665722063616c6c6572206973206e6f742060448201527f6f776e6572206e6f7220617070726f76656400000000000000000000000000006064820152608401610d26565b61123985858585856140b8565b5050505050565b60008281526003602052604090206001015461125b8161432b565b6112658383614335565b505050565b60005b600e54811015610f3f57816001600160a01b0316600e828154811061129457611294615832565b60009182526020909120600460079092020101546001600160a01b031614156113a957600e81815481106112ca576112ca615832565b90600052602060002090600702016001015460011461131e57600e81815481106112f6576112f6615832565b60009182526020822060016007909202010180549161131483615742565b91905055506113a9565b600e818154811061133157611331615832565b60009182526020822060016007909202010180549161134f83615742565b91905055506000600e828154811061136957611369615832565b60009182526020808320600660079093020191909101805493151560ff199485161790556001600160a01b03851682526014905260409020805490911690555b806113b3816157c1565b91505061126d565b6006546001600160a01b031633146114155760405162461bcd60e51b815260206004820152601560248201527f55736572206973206e6f7420746865206f776e657200000000000000000000006044820152606401610d26565b6005546040516370a0823160e01b81523060048201526000916001600160a01b0316906370a082319060240160206040518083038186803b15801561145957600080fd5b505afa15801561146d573d6000803e3d6000fd5b505050506040513d601f19601f8201168201806040525081019061149191906151e6565b116114de5760405162461bcd60e51b815260206004820152601460248201527f4e6f2066756e647320746f2077697468647261770000000000000000000000006044820152606401610d26565b60055460405163a9059cbb60e01b81526001600160a01b0383811660048301524760248301529091169063a9059cbb90604401602060405180830381600087803b15801561152b57600080fd5b505af115801561153f573d6000803e3d6000fd5b505050506040513d601f19601f82011682018060405250810190610f3f9190615153565b6001600160a01b03811633146115e15760405162461bcd60e51b815260206004820152602f60248201527f416363657373436f6e74726f6c3a2063616e206f6e6c792072656e6f756e636560448201527f20726f6c657320666f722073656c6600000000000000000000000000000000006064820152608401610d26565b610f3f82826143d7565b6000600c54610100900460ff1660018111156116095761160961581c565b1461167c5760405162461bcd60e51b815260206004820152602560248201527f436f6e7472616374206973206e6f74206163746976652061742074686973206d60448201527f6f6d656e740000000000000000000000000000000000000000000000000000006064820152608401610d26565b600554600b546040516323b872dd60e01b815233600482015230602482015260448101919091526001600160a01b03909116906323b872dd90606401602060405180830381600087803b1580156116d257600080fd5b505af11580156116e6573d6000803e3d6000fd5b505050506040513d601f19601f8201168201806040525081019061170a9190615153565b506000600754611718611ba5565b61172291906157dc565b9050600080805b6008548110156117e35760008181526011602052604081205461174c90856156b0565b90508085111561175e578093506117d0565b81925061176b3084610cac565b6117ad57600061177c6001856156fb565b90505b600061178b3083610cac565b1115611799578093506117ab565b806117a381615742565b91505061177f565b505b6117ca303385600160405180602001604052806000815250613f0d565b506117e3565b50806117db816157c1565b915050611729565b506117ed3361126a565b600b5460408051338152602081019290925281018290527fea32e37a2618dbb680c93d891742e9e13b30d184822562a0ee3c09290fd42b43906060015b60405180910390a1505050565b606081518351146118b05760405162461bcd60e51b815260206004820152602960248201527f455243313135353a206163636f756e747320616e6420696473206c656e67746860448201527f206d69736d6174636800000000000000000000000000000000000000000000006064820152608401610d26565b6000835167ffffffffffffffff8111156118cc576118cc615848565b6040519080825280602002602001820160405280156118f5578160200160208202803683370190505b50905060005b845181101561196d5761194085828151811061191957611919615832565b602002602001015185838151811061193357611933615832565b6020026020010151610cac565b82828151811061195257611952615832565b6020908102919091010152611966816157c1565b90506118fb565b509392505050565b61197e33613e43565b6119d45760405162461bcd60e51b815260206004820152602160248201527f55736572206973206e6f7420746865204f776e6572206f7220616e2041646d696044820152603760f91b6064820152608401610d26565b60005b8151811015610f3f576000601060008484815181106119f8576119f8615832565b6020908102919091018101516001600160a01b03168252810191909152604001600020805460ff191691151591909117905580611a34816157c1565b9150506119d7565b611a4533613e43565b611a9b5760405162461bcd60e51b815260206004820152602160248201527f55736572206973206e6f7420746865204f776e6572206f7220616e2041646d696044820152603760f91b6064820152608401610d26565b6001600160a01b03166000908152601060205260409020805460ff19166001179055565b611ac833613e43565b611b1e5760405162461bcd60e51b815260206004820152602160248201527f55736572206973206e6f7420746865204f776e6572206f7220616e2041646d696044820152603760f91b6064820152608401610d26565b60008281526012602052604090208054611b3790615759565b159050611b865760405162461bcd60e51b815260206004820152601560248201527f43616e206e6f74207365742075726920747769636500000000000000000000006044820152606401610d26565b6000828152601260209081526040909120825161126592840190614cd9565b6040517f5d3b1d300000000000000000000000000000000000000000000000000000000081527f0000000000000000000000000000000000000000000000000000000000000000600482015267ffffffffffffffff7f00000000000000000000000000000000000000000000000000000000000000001660248201526003604482015263ffffffff7f00000000000000000000000000000000000000000000000000000000000000001660648201526002608482015260009081906001600160a01b037f00000000000000000000000000000000000000000000000000000000000000001690635d3b1d309060a401602060405180830381600087803b158015611cae57600080fd5b505af1158015611cc2573d6000803e3d6000fd5b505050506040513d601f19601f82011682018060405250810190610d5291906151e6565b611cef33612661565b611d585760405162461bcd60e51b815260206004820152603460248201527f55736572206973206e6f74205261636b734d656d62657273206f7220646f6573604482015273206e6f74206f776e732061204d7243727970746f60601b6064820152608401610d26565b3360009081526015602052604090205460ff16611db75760405162461bcd60e51b815260206004820152601c60248201527f5573657220646964206e6f742073656c6c20616e79205469636b6574000000006044820152606401610d26565b603c600e8281548110611dcc57611dcc615832565b906000526020600020906007020160020154611de891906156c8565b42600e8381548110611dfc57611dfc615832565b906000526020600020906007020160050154611e1891906156fb565b11611e8b5760405162461bcd60e51b815260206004820152602960248201527f4475726174696f6e206f6620746865205469636b6574206973207374696c6c2060448201527f6176616c6961626c6500000000000000000000000000000000000000000000006064820152608401610d26565b600060146000600e8481548110611ea457611ea4615832565b60009182526020808320600460079093020191909101546001600160a01b031683528281019390935260409182018120805494151560ff19958616179055338152601483528181208054851660011790556015909252902080549091169055600e80547f5093646a80c0a81f51115fbf5ec8379ecf902ae2ba552c74599cbe844dcb53e3919083908110611f3a57611f3a615832565b600091825260209182902060079091020160040154604080516001600160a01b039092168252339282019290925201610e97565b611f7733612661565b15611f8157600080fd5b336001600160a01b0316600e8281548110611f9e57611f9e615832565b60009182526020909120600460079092020101546001600160a01b0316141561202f5760405162461bcd60e51b815260206004820152602560248201527f596f752063616e206e6f74206275792061207469636b657420746f20796f757260448201527f2073656c660000000000000000000000000000000000000000000000000000006064820152608401610d26565b600e818154811061204257612042615832565b600091825260209091206006600790920201015460ff1615156001146120d05760405162461bcd60e51b815260206004820152602160248201527f5469636b6574206973206e6f742063757272656e746c79206176616c6961626c60448201527f65000000000000000000000000000000000000000000000000000000000000006064820152608401610d26565b6000600e82815481106120e5576120e5615832565b6000918252602090912060079091020160040154600554600e80546001600160a01b03938416945092909116916323b872dd9133918690811061212a5761212a615832565b906000526020600020906007020160040160009054906101000a90046001600160a01b0316600e868154811061216257612162615832565b60009182526020909120600360079092020101546040516001600160e01b031960e086901b1681526001600160a01b0393841660048201529290911660248301526044820152606401602060405180830381600087803b1580156121c557600080fd5b505af11580156121d9573d6000803e3d6000fd5b505050506040513d601f19601f820116820180604052508101906121fd9190615153565b5042600e838154811061221257612212615832565b906000526020600020906007020160050181905550600060146000600e858154811061224057612240615832565b60009182526020808320600792909202909101600401546001600160a01b031683528201929092526040018120805460ff191692151592909217909155600e805460139183918690811061229657612296615832565b60009182526020808320600792909202909101600401546001600160a01b031683528201929092526040018120805460ff191692151592909217909155600e80546001926015929091869081106122ef576122ef615832565b60009182526020808320600792909202909101600401546001600160a01b031683528201929092526040019020805460ff1916911515919091179055600e80543391908490811061234257612342615832565b60009182526020808320600792909202909101600401805473ffffffffffffffffffffffffffffffffffffffff19166001600160a01b03949094169390931790925533808252601490925260409020805460ff19166001179055600e80547f060f7dd92424d6f1af65d2fe9acba5b63d299cc26cd8eb26403ca371bc9fbfbb9285928592849081106123d6576123d6615832565b90600052602060002090600702016003015460405161119294939291909384526001600160a01b03928316602085015291166040830152606082015260800190565b6006546001600160a01b031633146124725760405162461bcd60e51b815260206004820152601560248201527f55736572206973206e6f7420746865206f776e657200000000000000000000006044820152606401610d26565b610fac60008261445a565b61248633612661565b6124ef5760405162461bcd60e51b815260206004820152603460248201527f55736572206973206e6f74205261636b734d656d62657273206f7220646f6573604482015273206e6f74206f776e732061204d7243727970746f60601b6064820152608401610d26565b3360009081526013602052604090205460ff1661255d5760405162461bcd60e51b815260206004820152602660248201527f55736572206973206e6f742063757272656e746c792073656c6c696e67206120604482015265151a58dad95d60d21b6064820152608401610d26565b336001600160a01b0316600e828154811061257a5761257a615832565b60009182526020909120600460079092020101546001600160a01b0316146125e45760405162461bcd60e51b815260206004820181905260248201527f55736572206973206e6f74206f776e6572206f662074686973207469636b65746044820152606401610d26565b6000600e82815481106125f9576125f9615832565b6000918252602080832060066007939093020191909101805493151560ff199485161790553380835260138252604092839020805490941690935590519182527f5dbab6b1e9ddd154d6eb51aa5622fb5278ea62a0b5f81d046a945d899490f6319101610e97565b600480546040516370a0823160e01b81526001600160a01b0384811693820193909352600092839216906370a082319060240160206040518083038186803b1580156126ac57600080fd5b505afa1580156126c0573d6000803e3d6000fd5b505050506040513d601f19601f820116820180604052508101906126e491906151e6565b116126ee57600080fd5b6001600160a01b03821660009081526010602052604090205460ff1661271357600080fd5b506001919050565b61272433613e43565b61277a5760405162461bcd60e51b815260206004820152602160248201527f55736572206973206e6f7420746865204f776e6572206f7220616e2041646d696044820152603760f91b6064820152608401610d26565b60005b8151811015610f3f5760016010600084848151811061279e5761279e615832565b6020908102919091018101516001600160a01b03168252810191909152604001600020805460ff1916911515919091179055806127da816157c1565b91505061277d565b6127eb33613e43565b6128415760405162461bcd60e51b815260206004820152602160248201527f55736572206973206e6f7420746865204f776e6572206f7220616e2041646d696044820152603760f91b6064820152608401610d26565b6001600160a01b03166000908152601060205260409020805460ff19169055565b61286b33613e43565b6128c15760405162461bcd60e51b815260206004820152602160248201527f55736572206973206e6f7420746865204f776e6572206f7220616e2041646d696044820152603760f91b6064820152608401610d26565b600b8190556040518181527f06cd74aabc11982a85b554df4d7833623303656fe69bed4db1b0cb3245feebe390602001610e97565b610f3f338383614464565b336001600160a01b0316600d838154811061291e5761291e615832565b60009182526020909120600360049092020101546001600160a01b0316146129945760405162461bcd60e51b815260206004820152602360248201527f596f7520617265206e6f7420746865206f776e6572206f66207468697320697460448201526232b69760e91b6064820152608401610d26565b6000600d83815481106129a9576129a9615832565b906000526020600020906004020160020154905081600d84815481106129d1576129d1615832565b600091825260209182902060026004909202010191909155604080513381529182018590528101829052606081018390527fb141d00f22a670547caacc412e6489d8edaba6a840df558118363ce1a40d6ed29060800161182a565b336001600160a01b0316600d8281548110612a4957612a49615832565b60009182526020909120600360049092020101546001600160a01b031614612abf5760405162461bcd60e51b815260206004820152602360248201527f596f7520617265206e6f7420746865206f776e6572206f66207468697320697460448201526232b69760e91b6064820152608401610d26565b612adc303383600160405180602001604052806000815250613f0d565b6001600d8281548110612af157612af1615832565b60009182526020918290206003600490920201018054921515600160a01b0260ff60a01b1990931692909217909155604080513381529182018390527fc9cedcca3d85d6009a562a9e70071f6288adabda9ba7f059589165e75c9cf4049101610e97565b60606000805b600e54811015612c15576000600e8281548110612b7a57612b7a615832565b60009182526020918290206040805160e081018252600790930290910180548352600180820154948401949094526002810154918301919091526003810154606083015260048101546001600160a01b03166080830152600581015460a08301526006015460ff16151560c082018190529092501415612c0257612bff6001846156b0565b92505b5080612c0d816157c1565b915050612b5b565b5060008167ffffffffffffffff811115612c3157612c31615848565b604051908082528060200260200182016040528015612cad57816020015b612c9a6040518060e001604052806000815260200160008152602001600081526020016000815260200160006001600160a01b03168152602001600081526020016000151581525090565b815260200190600190039081612c4f5790505b5090506000805b600e54811015612d8d576000600e8281548110612cd357612cd3615832565b60009182526020918290206040805160e081018252600790930290910180548352600180820154948401949094526002810154918301919091526003810154606083015260048101546001600160a01b03166080830152600581015460a08301526006015460ff16151560c082018190529092501415612d7a5780848481518110612d6057612d60615832565b60200260200101819052508280612d76906157c1565b9350505b5080612d85816157c1565b915050612cb4565b50909392505050565b612d9f33612661565b612e085760405162461bcd60e51b815260206004820152603460248201527f55736572206973206e6f74205261636b734d656d62657273206f7220646f6573604482015273206e6f74206f776e732061204d7243727970746f60601b6064820152608401610d26565b3360009081526013602052604090205460ff1615612e8e5760405162461bcd60e51b815260206004820152602a60248201527f5573657220697320616c72656164792063757272656e746c792073656c6c696e60448201527f672061205469636b6574000000000000000000000000000000000000000000006064820152608401610d26565b3360009081526014602052604090205460ff16612eed5760405162461bcd60e51b815260206004820152601960248201527f5573657220686173207469636b6574206176616c6961626c65000000000000006044820152606401610d26565b6040805160e081018252600a8054825260208201868152928201858152606083018581523360808501908152600060a08601818152600160c08801818152600e80549283018155845297517fbb7b4a454dc3493923482f07822329ed19e8244eff582cc204f8554c3620c3fd60079092029182015597517fbb7b4a454dc3493923482f07822329ed19e8244eff582cc204f8554c3620c3fe89015593517fbb7b4a454dc3493923482f07822329ed19e8244eff582cc204f8554c3620c3ff88015591517fbb7b4a454dc3493923482f07822329ed19e8244eff582cc204f8554c3620c400870155517fbb7b4a454dc3493923482f07822329ed19e8244eff582cc204f8554c3620c4018601805473ffffffffffffffffffffffffffffffffffffffff19166001600160a01b0390921691909117905590517fbb7b4a454dc3493923482f07822329ed19e8244eff582cc204f8554c3620c40285015591517fbb7b4a454dc3493923482f07822329ed19e8244eff582cc204f8554c3620c403909301805460ff1916931515939093179092558154919061308b836157c1565b909155505033600081815260136020908152604091829020805460ff19166001179055815192835282018590528101839052606081018290527f07814713aba2e13eb5f2470225f7395d33fad1452b70f8427dae73e4d3a593449060800161182a565b60606000805b600d5481101561319a576000600d828154811061311357613113615832565b60009182526020918290206040805160a0810182526004909302909101805483526001810154938301939093526002830154908201526003909101546001600160a01b038116606083015260ff600160a01b90910416151560808201819052909150613187576131846001846156b0565b92505b5080613192816157c1565b9150506130f4565b5060008167ffffffffffffffff8111156131b6576131b6615848565b60405190808252806020026020018201604052801561322457816020015b6132116040518060a0016040528060008152602001600081526020016000815260200160006001600160a01b031681526020016000151581525090565b8152602001906001900390816131d45790505b5090506000805b600d54811015612d8d576000600d828154811061324a5761324a615832565b60009182526020918290206040805160a0810182526004909302909101805483526001810154938301939093526002830154908201526003909101546001600160a01b038116606083015260ff600160a01b909104161515608082018190529091506132dd57808484815181106132c3576132c3615832565b602002602001018190525082806132d9906157c1565b9350505b50806132e8816157c1565b91505061322b565b6006546001600160a01b0316331461334a5760405162461bcd60e51b815260206004820152601560248201527f55736572206973206e6f7420746865206f776e657200000000000000000000006044820152606401610d26565b6005546040516370a0823160e01b81523060048201526000916001600160a01b0316906370a082319060240160206040518083038186803b15801561338e57600080fd5b505afa1580156133a2573d6000803e3d6000fd5b505050506040513d601f19601f820116820180604052508101906133c691906151e6565b116134135760405162461bcd60e51b815260206004820152601460248201527f4e6f2066756e647320746f2077697468647261770000000000000000000000006044820152606401610d26565b60055460405163a9059cbb60e01b81526001600160a01b038481166004830152602482018490529091169063a9059cbb90604401602060405180830381600087803b15801561346157600080fd5b505af1158015613475573d6000803e3d6000fd5b505050506040513d601f19601f820116820180604052508101906112659190615153565b6134d66040518060a0016040528060008152602001600081526020016000815260200160006001600160a01b031681526020016000151581525090565b600d82815481106134e9576134e9615832565b60009182526020918290206040805160a0810182526004909302909101805483526001810154938301939093526002830154908201526003909101546001600160a01b038116606083015260ff600160a01b909104161515608082015292915050565b600061355782614559565b61356057600080fd5b60008281526011602052604081205460075461357c91906156c8565b9392505050565b60008281526003602052604090206001015461359e8161432b565b61126583836143d7565b6135f36040518060e001604052806000815260200160008152602001600081526020016000815260200160006001600160a01b03168152602001600081526020016000151581525090565b600e828154811061360657613606615832565b60009182526020918290206040805160e0810182526007909302909101805483526001810154938301939093526002830154908201526003820154606082015260048201546001600160a01b03166080820152600582015460a082015260069091015460ff16151560c082015292915050565b61368233613e43565b6136d85760405162461bcd60e51b815260206004820152602160248201527f55736572206973206e6f7420746865204f776e6572206f7220616e2041646d696044820152603760f91b6064820152608401610d26565b6000600c54610100900460ff1660018111156136f6576136f661581c565b141561370d57600c805461ff001916610100179055565b600c805461ff0019169055565b6000600d828154811061372f5761372f615832565b60009182526020918290206040805160a081018252600493909302909101805483526001810154938301939093526002830154908201526003909101546001600160a01b03811660608301819052600160a01b90910460ff161515608083015290915033141561379e57600080fd5b6080810151156137ad57600080fd5b600554606082015160408084015190516323b872dd60e01b81523360048201526001600160a01b03928316602482015260448101919091529116906323b872dd90606401602060405180830381600087803b15801561380b57600080fd5b505af115801561381f573d6000803e3d6000fd5b505050506040513d601f19601f820116820180604052508101906138439190615153565b5061386530338360000151600160405180602001604052806000815250613f0d565b6001600d838154811061387a5761387a615832565b60009182526020918290206003600490920201018054921515600160a01b0260ff60a01b199093169290921790915560608083015160408085015181513381526001600160a01b03909316948301949094528101859052908101919091527f642067ff529c9b5b1162502fc8e8a3a91dda56e126a84f2fe38d341236231a8290608001611192565b61390b33612661565b6139745760405162461bcd60e51b815260206004820152603460248201527f55736572206973206e6f74205261636b734d656d62657273206f7220646f6573604482015273206e6f74206f776e732061204d7243727970746f60601b6064820152608401610d26565b3360009081526013602052604090205460ff166139e25760405162461bcd60e51b815260206004820152602660248201527f55736572206973206e6f742063757272656e746c792073656c6c696e67206120604482015265151a58dad95d60d21b6064820152608401610d26565b336001600160a01b0316600e84815481106139ff576139ff615832565b60009182526020909120600460079092020101546001600160a01b031614613a695760405162461bcd60e51b815260206004820181905260248201527f55736572206973206e6f74206f776e6572206f662074686973207469636b65746044820152606401610d26565b80600e8481548110613a7d57613a7d615832565b90600052602060002090600702016003018190555081600e8481548110613aa657613aa6615832565b6000918252602091829020600160079092020101919091556040805133815291820184905281018290527f4dfa55e7e1af9cb25343bfcd39c4bcb1f066d75ebe9b67988cf1496f06dedfef9060600161182a565b6001600160a01b038516331480613b165750613b168533610bdc565b613b885760405162461bcd60e51b815260206004820152602960248201527f455243313135353a2063616c6c6572206973206e6f74206f776e6572206e6f7260448201527f20617070726f76656400000000000000000000000000000000000000000000006064820152608401610d26565b6112398585858585613f0d565b6060600060085467ffffffffffffffff811115613bb457613bb4615848565b604051908082528060200260200182016040528015613bdd578160200160208202803683370190505b50905060005b8151811015613c2557613bf68482610cac565b828281518110613c0857613c08615832565b602090810291909101015280613c1d816157c1565b915050613be3565b5092915050565b60006001600160e01b031982167f7965db0b000000000000000000000000000000000000000000000000000000001480610d525750610d5282614571565b6001600160a01b038316613ce65760405162461bcd60e51b815260206004820152602360248201527f455243313135353a206275726e2066726f6d20746865207a65726f206164647260448201527f65737300000000000000000000000000000000000000000000000000000000006064820152608401610d26565b336000613cf2846145af565b90506000613cff846145af565b60408051602080820183526000918290528882528181528282206001600160a01b038b1683529052205490915084811015613da15760405162461bcd60e51b8152602060048201526024808201527f455243313135353a206275726e20616d6f756e7420657863656564732062616c60448201527f616e6365000000000000000000000000000000000000000000000000000000006064820152608401610d26565b6000868152602081815260408083206001600160a01b038b81168086529184528285208a8703905582518b81529384018a90529092908816917fc3d58168c5ae7397731d063d5bbf3d657854427343f4c083240f7aacaa2d0f62910160405180910390a46040805160208101909152600090525b50505050505050565b80600081518110613e3157613e31615832565b6020026020010151600f819055505050565b6006546000906001600160a01b0383811691161480613e9957506001600160a01b03821660009081527f3617319a054d772f909f7c479a2cebe5066e836a939412e32403c99029b92eff602052604090205460ff165b61271357600080fd5b613ebf8260085483604051806020016040528060008152506145fa565b613ed86008548260009182526011602052604090912055565b8060076000828254613eea91906156b0565b92505081905550600160086000828254613f0491906156b0565b90915550505050565b6001600160a01b038416613f715760405162461bcd60e51b815260206004820152602560248201527f455243313135353a207472616e7366657220746f20746865207a65726f206164604482015264647265737360d81b6064820152608401610d26565b336000613f7d856145af565b90506000613f8a856145af565b90506000868152602081815260408083206001600160a01b038c168452909152902054858110156140105760405162461bcd60e51b815260206004820152602a60248201527f455243313135353a20696e73756666696369656e742062616c616e636520666f60448201526939103a3930b739b332b960b11b6064820152608401610d26565b6000878152602081815260408083206001600160a01b038d8116855292528083208985039055908a1682528120805488929061404d9084906156b0565b909155505060408051888152602081018890526001600160a01b03808b16928c821692918816917fc3d58168c5ae7397731d063d5bbf3d657854427343f4c083240f7aacaa2d0f62910160405180910390a46140ad848a8a8a8a8a61471d565b505050505050505050565b815183511461412f5760405162461bcd60e51b815260206004820152602860248201527f455243313135353a2069647320616e6420616d6f756e7473206c656e6774682060448201527f6d69736d617463680000000000000000000000000000000000000000000000006064820152608401610d26565b6001600160a01b0384166141935760405162461bcd60e51b815260206004820152602560248201527f455243313135353a207472616e7366657220746f20746865207a65726f206164604482015264647265737360d81b6064820152608401610d26565b3360005b84518110156142bd5760008582815181106141b4576141b4615832565b6020026020010151905060008583815181106141d2576141d2615832565b602090810291909101810151600084815280835260408082206001600160a01b038e1683529093529190912054909150818110156142655760405162461bcd60e51b815260206004820152602a60248201527f455243313135353a20696e73756666696369656e742062616c616e636520666f60448201526939103a3930b739b332b960b11b6064820152608401610d26565b6000838152602081815260408083206001600160a01b038e8116855292528083208585039055908b168252812080548492906142a29084906156b0565b92505081905550505050806142b6906157c1565b9050614197565b50846001600160a01b0316866001600160a01b0316826001600160a01b03167f4a39dc06d4c0dbc64b70af90fd698a233a518aa5d07e595d983b8c0526c8f7fb878760405161430d929190615587565b60405180910390a46143238187878787876148d2565b505050505050565b610fac81336149dd565b60008281526003602090815260408083206001600160a01b038516845290915290205460ff16610f3f5760008281526003602090815260408083206001600160a01b03851684529091529020805460ff191660011790556143933390565b6001600160a01b0316816001600160a01b0316837f2f8788117e7eff1d82e926ec794901d17c78024a50270940304540a733656f0d60405160405180910390a45050565b60008281526003602090815260408083206001600160a01b038516845290915290205460ff1615610f3f5760008281526003602090815260408083206001600160a01b0385168085529252808320805460ff1916905551339285917ff6391f5c32d9c69d2a47ea670b442974b53935d1edc7fd64eb21e047a839171b9190a45050565b610f3f8282614335565b816001600160a01b0316836001600160a01b031614156144ec5760405162461bcd60e51b815260206004820152602960248201527f455243313135353a2073657474696e6720617070726f76616c2073746174757360448201527f20666f722073656c6600000000000000000000000000000000000000000000006064820152608401610d26565b6001600160a01b03838116600081815260016020908152604080832094871680845294825291829020805460ff191686151590811790915591519182527f17307eab39ab6107e8899845ad3d59bd9653f200f220920489ca2b5937696c31910160405180910390a3505050565b60008181526011602052604081205461271357600080fd5b60006001600160e01b031982167f4e2312e0000000000000000000000000000000000000000000000000000000001480610d525750610d5282614a5d565b604080516001808252818301909252606091600091906020808301908036833701905050905082816000815181106145e9576145e9615832565b602090810291909101015292915050565b6001600160a01b0384166146765760405162461bcd60e51b815260206004820152602160248201527f455243313135353a206d696e7420746f20746865207a65726f2061646472657360448201527f73000000000000000000000000000000000000000000000000000000000000006064820152608401610d26565b336000614682856145af565b9050600061468f856145af565b90506000868152602081815260408083206001600160a01b038b168452909152812080548792906146c19084906156b0565b909155505060408051878152602081018790526001600160a01b03808a1692600092918716917fc3d58168c5ae7397731d063d5bbf3d657854427343f4c083240f7aacaa2d0f62910160405180910390a4613e15836000898989895b6001600160a01b0384163b156143235760405163f23a6e6160e01b81526001600160a01b0385169063f23a6e61906147619089908990889088908890600401615421565b602060405180830381600087803b15801561477b57600080fd5b505af19250505080156147ab575060408051601f3d908101601f191682019092526147a8918101906151c9565b60015b614861576147b761585e565b806308c379a014156147f157506147cc61587a565b806147d757506147f3565b8060405162461bcd60e51b8152600401610d2691906155dd565b505b60405162461bcd60e51b815260206004820152603460248201527f455243313135353a207472616e7366657220746f206e6f6e204552433131353560448201527f526563656976657220696d706c656d656e7465720000000000000000000000006064820152608401610d26565b6001600160e01b0319811663f23a6e6160e01b14613e155760405162461bcd60e51b815260206004820152602860248201527f455243313135353a204552433131353552656365697665722072656a656374656044820152676420746f6b656e7360c01b6064820152608401610d26565b6001600160a01b0384163b156143235760405163bc197c8160e01b81526001600160a01b0385169063bc197c819061491690899089908890889088906004016153c3565b602060405180830381600087803b15801561493057600080fd5b505af1925050508015614960575060408051601f3d908101601f1916820190925261495d918101906151c9565b60015b61496c576147b761585e565b6001600160e01b0319811663bc197c8160e01b14613e155760405162461bcd60e51b815260206004820152602860248201527f455243313135353a204552433131353552656365697665722072656a656374656044820152676420746f6b656e7360c01b6064820152608401610d26565b60008281526003602090815260408083206001600160a01b038516845290915290205460ff16610f3f57614a1b816001600160a01b03166014614af8565b614a26836020614af8565b604051602001614a37929190615342565b60408051601f198184030181529082905262461bcd60e51b8252610d26916004016155dd565b60006001600160e01b031982167fd9b67a26000000000000000000000000000000000000000000000000000000001480614ac057506001600160e01b031982167f0e89341c00000000000000000000000000000000000000000000000000000000145b80610d5257507f01ffc9a7000000000000000000000000000000000000000000000000000000006001600160e01b0319831614610d52565b60606000614b078360026156dc565b614b129060026156b0565b67ffffffffffffffff811115614b2a57614b2a615848565b6040519080825280601f01601f191660200182016040528015614b54576020820181803683370190505b5090507f300000000000000000000000000000000000000000000000000000000000000081600081518110614b8b57614b8b615832565b60200101906001600160f81b031916908160001a9053507f780000000000000000000000000000000000000000000000000000000000000081600181518110614bd657614bd6615832565b60200101906001600160f81b031916908160001a9053506000614bfa8460026156dc565b614c059060016156b0565b90505b6001811115614c8a577f303132333435363738396162636465660000000000000000000000000000000085600f1660108110614c4657614c46615832565b1a60f81b828281518110614c5c57614c5c615832565b60200101906001600160f81b031916908160001a90535060049490941c93614c8381615742565b9050614c08565b50831561357c5760405162461bcd60e51b815260206004820181905260248201527f537472696e67733a20686578206c656e67746820696e73756666696369656e746044820152606401610d26565b828054614ce590615759565b90600052602060002090601f016020900481019282614d075760008555614d4d565b82601f10614d2057805160ff1916838001178555614d4d565b82800160010185558215614d4d579182015b82811115614d4d578251825591602001919060010190614d32565b50614d59929150614d5d565b5090565b5b80821115614d595760008155600101614d5e565b600067ffffffffffffffff831115614d8c57614d8c615848565b604051614da3601f8501601f191660200182615794565b809150838152848484011115614db857600080fd5b83836020830137600060208583010152509392505050565b80356001600160a01b0381168114614de757600080fd5b919050565b600082601f830112614dfd57600080fd5b81356020614e0a8261568c565b604051614e178282615794565b8381528281019150858301600585901b87018401881015614e3757600080fd5b60005b85811015614e5d57614e4b82614dd0565b84529284019290840190600101614e3a565b5090979650505050505050565b600082601f830112614e7b57600080fd5b81356020614e888261568c565b604051614e958282615794565b8381528281019150858301600585901b87018401881015614eb557600080fd5b60005b85811015614e5d57813584529284019290840190600101614eb8565b600082601f830112614ee557600080fd5b61357c83833560208501614d72565b600060208284031215614f0657600080fd5b61357c82614dd0565b60008060408385031215614f2257600080fd5b614f2b83614dd0565b9150614f3960208401614dd0565b90509250929050565b600080600080600060a08688031215614f5a57600080fd5b614f6386614dd0565b9450614f7160208701614dd0565b9350604086013567ffffffffffffffff80821115614f8e57600080fd5b614f9a89838a01614e6a565b94506060880135915080821115614fb057600080fd5b614fbc89838a01614e6a565b93506080880135915080821115614fd257600080fd5b50614fdf88828901614ed4565b9150509295509295909350565b600080600080600060a0868803121561500457600080fd5b61500d86614dd0565b945061501b60208701614dd0565b93506040860135925060608601359150608086013567ffffffffffffffff81111561504557600080fd5b614fdf88828901614ed4565b6000806040838503121561506457600080fd5b61506d83614dd0565b9150602083013561507d81615904565b809150509250929050565b6000806040838503121561509b57600080fd5b6150a483614dd0565b946020939093013593505050565b6000602082840312156150c457600080fd5b813567ffffffffffffffff8111156150db57600080fd5b6150e784828501614dec565b949350505050565b6000806040838503121561510257600080fd5b823567ffffffffffffffff8082111561511a57600080fd5b61512686838701614dec565b9350602085013591508082111561513c57600080fd5b5061514985828601614e6a565b9150509250929050565b60006020828403121561516557600080fd5b815161357c81615904565b60006020828403121561518257600080fd5b5035919050565b6000806040838503121561519c57600080fd5b82359150614f3960208401614dd0565b6000602082840312156151be57600080fd5b813561357c81615912565b6000602082840312156151db57600080fd5b815161357c81615912565b6000602082840312156151f857600080fd5b5051919050565b6000806040838503121561521257600080fd5b82359150602083013567ffffffffffffffff81111561523057600080fd5b61514985828601614e6a565b6000806040838503121561524f57600080fd5b82359150602083013567ffffffffffffffff81111561526d57600080fd5b8301601f8101851361527e57600080fd5b61514985823560208401614d72565b600080604083850312156152a057600080fd5b50508035926020909101359150565b6000806000606084860312156152c457600080fd5b505081359360208301359350604090920135919050565b600081518084526020808501945080840160005b8381101561530b578151875295820195908201906001016152ef565b509495945050505050565b6000815180845261532e816020860160208601615712565b601f01601f19169290920160200192915050565b7f416363657373436f6e74726f6c3a206163636f756e742000000000000000000081526000835161537a816017850160208801615712565b7f206973206d697373696e6720726f6c652000000000000000000000000000000060179184019182015283516153b7816028840160208801615712565b01602801949350505050565b60006001600160a01b03808816835280871660208401525060a060408301526153ef60a08301866152db565b828103606084015261540181866152db565b905082810360808401526154158185615316565b98975050505050505050565b60006001600160a01b03808816835280871660208401525084604083015283606083015260a0608083015261545960a0830184615316565b979650505050505050565b6020808252825182820181905260009190848201906040850190845b818110156154f0576154dd838551805182526020810151602083015260408101516040830152606081015160608301526001600160a01b03608082015116608083015260a081015160a083015260c0810151151560c08301525050565b9284019260e09290920191600101615480565b50909695505050505050565b6020808252825182820181905260009190848201906040850190845b818110156154f0576155618385518051825260208101516020830152604081015160408301526001600160a01b0360608201511660608301526080810151151560808301525050565b9284019260a09290920191600101615518565b60208152600061357c60208301846152db565b60408152600061559a60408301856152db565b82810360208401526155ac81856152db565b95945050505050565b60208101600283106155d757634e487b7160e01b600052602160045260246000fd5b91905290565b60208152600061357c6020830184615316565b60e08101610d528284805182526020810151602083015260408101516040830152606081015160608301526001600160a01b03608082015116608083015260a081015160a083015260c0810151151560c08301525050565b60a08101610d5282848051825260208101516020830152604081015160408301526001600160a01b0360608201511660608301526080810151151560808301525050565b600067ffffffffffffffff8211156156a6576156a6615848565b5060051b60200190565b600082198211156156c3576156c36157f0565b500190565b6000826156d7576156d7615806565b500490565b60008160001904831182151516156156f6576156f66157f0565b500290565b60008282101561570d5761570d6157f0565b500390565b60005b8381101561572d578181015183820152602001615715565b8381111561573c576000848401525b50505050565b600081615751576157516157f0565b506000190190565b600181811c9082168061576d57607f821691505b6020821081141561578e57634e487b7160e01b600052602260045260246000fd5b50919050565b601f8201601f1916810167ffffffffffffffff811182821017156157ba576157ba615848565b6040525050565b60006000198214156157d5576157d56157f0565b5060010190565b6000826157eb576157eb615806565b500690565b634e487b7160e01b600052601160045260246000fd5b634e487b7160e01b600052601260045260246000fd5b634e487b7160e01b600052602160045260246000fd5b634e487b7160e01b600052603260045260246000fd5b634e487b7160e01b600052604160045260246000fd5b600060033d11156158775760046000803e5060005160e01c5b90565b600060443d10156158885790565b6040516003193d81016004833e81513d67ffffffffffffffff81602484011181841117156158b857505050505090565b82850191508151818111156158d05750505050505090565b843d87010160208285010111156158ea5750505050505090565b6158f960208286010187615794565b509095945050505050565b8015158114610fac57600080fd5b6001600160e01b031981168114610fac57600080fdfea264697066735822122010dd5b8c0704aa1c10c78746c86a52182e7a4980e848f69d6455b3b06243690764736f6c63430008070033",
  "linkReferences": {},
  "deployedLinkReferences": {}
}