{
  "_format": "hh-sol-artifact-1",
  "contractName": "RacksItemsTicket",
  "sourceName": "contracts/RacksItemsTickets.sol",
  "abi": [
    {
      "inputs": [
        {
          "internalType": "address",
          "name": "vrfCoordinatorV2",
          "type": "address"
        },
        {
          "internalType": "bytes32",
          "name": "gasLane",
          "type": "bytes32"
        },
        {
          "internalType": "uint64",
          "name": "subscriptionId",
          "type": "uint64"
        },
        {
          "internalType": "uint32",
          "name": "callbackGasLimit",
          "type": "uint32"
        },
        {
          "internalType": "address",
          "name": "_racksTokenAddress",
          "type": "address"
        }
      ],
      "stateMutability": "nonpayable",
      "type": "constructor"
    },
    {
      "inputs": [
        {
          "internalType": "address",
          "name": "have",
          "type": "address"
        },
        {
          "internalType": "address",
          "name": "want",
          "type": "address"
        }
      ],
      "name": "OnlyCoordinatorCanFulfill",
      "type": "error"
    },
    {
      "anonymous": false,
      "inputs": [
        {
          "indexed": true,
          "internalType": "address",
          "name": "account",
          "type": "address"
        },
        {
          "indexed": true,
          "internalType": "address",
          "name": "operator",
          "type": "address"
        },
        {
          "indexed": false,
          "internalType": "bool",
          "name": "approved",
          "type": "bool"
        }
      ],
      "name": "ApprovalForAll",
      "type": "event"
    },
    {
      "anonymous": false,
      "inputs": [
        {
          "indexed": false,
          "internalType": "address",
          "name": "user",
          "type": "address"
        },
        {
          "indexed": false,
          "internalType": "uint256",
          "name": "casePrice",
          "type": "uint256"
        },
        {
          "indexed": false,
          "internalType": "uint256",
          "name": "item",
          "type": "uint256"
        }
      ],
      "name": "CaseOpened",
      "type": "event"
    },
    {
      "anonymous": false,
      "inputs": [
        {
          "indexed": true,
          "internalType": "bytes32",
          "name": "role",
          "type": "bytes32"
        },
        {
          "indexed": true,
          "internalType": "bytes32",
          "name": "previousAdminRole",
          "type": "bytes32"
        },
        {
          "indexed": true,
          "internalType": "bytes32",
          "name": "newAdminRole",
          "type": "bytes32"
        }
      ],
      "name": "RoleAdminChanged",
      "type": "event"
    },
    {
      "anonymous": false,
      "inputs": [
        {
          "indexed": true,
          "internalType": "bytes32",
          "name": "role",
          "type": "bytes32"
        },
        {
          "indexed": true,
          "internalType": "address",
          "name": "account",
          "type": "address"
        },
        {
          "indexed": true,
          "internalType": "address",
          "name": "sender",
          "type": "address"
        }
      ],
      "name": "RoleGranted",
      "type": "event"
    },
    {
      "anonymous": false,
      "inputs": [
        {
          "indexed": true,
          "internalType": "bytes32",
          "name": "role",
          "type": "bytes32"
        },
        {
          "indexed": true,
          "internalType": "address",
          "name": "account",
          "type": "address"
        },
        {
          "indexed": true,
          "internalType": "address",
          "name": "sender",
          "type": "address"
        }
      ],
      "name": "RoleRevoked",
      "type": "event"
    },
    {
      "anonymous": false,
      "inputs": [
        {
          "indexed": true,
          "internalType": "address",
          "name": "operator",
          "type": "address"
        },
        {
          "indexed": true,
          "internalType": "address",
          "name": "from",
          "type": "address"
        },
        {
          "indexed": true,
          "internalType": "address",
          "name": "to",
          "type": "address"
        },
        {
          "indexed": false,
          "internalType": "uint256[]",
          "name": "ids",
          "type": "uint256[]"
        },
        {
          "indexed": false,
          "internalType": "uint256[]",
          "name": "values",
          "type": "uint256[]"
        }
      ],
      "name": "TransferBatch",
      "type": "event"
    },
    {
      "anonymous": false,
      "inputs": [
        {
          "indexed": true,
          "internalType": "address",
          "name": "operator",
          "type": "address"
        },
        {
          "indexed": true,
          "internalType": "address",
          "name": "from",
          "type": "address"
        },
        {
          "indexed": true,
          "internalType": "address",
          "name": "to",
          "type": "address"
        },
        {
          "indexed": false,
          "internalType": "uint256",
          "name": "id",
          "type": "uint256"
        },
        {
          "indexed": false,
          "internalType": "uint256",
          "name": "value",
          "type": "uint256"
        }
      ],
      "name": "TransferSingle",
      "type": "event"
    },
    {
      "anonymous": false,
      "inputs": [
        {
          "indexed": false,
          "internalType": "string",
          "name": "value",
          "type": "string"
        },
        {
          "indexed": true,
          "internalType": "uint256",
          "name": "id",
          "type": "uint256"
        }
      ],
      "name": "URI",
      "type": "event"
    },
    {
      "anonymous": false,
      "inputs": [
        {
          "indexed": false,
          "internalType": "uint256",
          "name": "newPrice",
          "type": "uint256"
        }
      ],
      "name": "casePriceChanged",
      "type": "event"
    },
    {
      "anonymous": false,
      "inputs": [
        {
          "indexed": false,
          "internalType": "address",
          "name": "buyer",
          "type": "address"
        },
        {
          "indexed": false,
          "internalType": "address",
          "name": "seller",
          "type": "address"
        },
        {
          "indexed": false,
          "internalType": "uint256",
          "name": "marketItemId",
          "type": "uint256"
        },
        {
          "indexed": false,
          "internalType": "uint256",
          "name": "price",
          "type": "uint256"
        }
      ],
      "name": "itemBought",
      "type": "event"
    },
    {
      "anonymous": false,
      "inputs": [
        {
          "indexed": false,
          "internalType": "address",
          "name": "user",
          "type": "address"
        },
        {
          "indexed": false,
          "internalType": "uint256",
          "name": "tokenId",
          "type": "uint256"
        }
      ],
      "name": "itemExchanged",
      "type": "event"
    },
    {
      "anonymous": false,
      "inputs": [
        {
          "indexed": false,
          "internalType": "address",
          "name": "owner",
          "type": "address"
        },
        {
          "indexed": false,
          "internalType": "uint256",
          "name": "marketItemId",
          "type": "uint256"
        },
        {
          "indexed": false,
          "internalType": "uint256",
          "name": "oldPrice",
          "type": "uint256"
        },
        {
          "indexed": false,
          "internalType": "uint256",
          "name": "newPrice",
          "type": "uint256"
        }
      ],
      "name": "itemPriceChanged",
      "type": "event"
    },
    {
      "anonymous": false,
      "inputs": [
        {
          "indexed": false,
          "internalType": "address",
          "name": "seller",
          "type": "address"
        },
        {
          "indexed": false,
          "internalType": "uint256",
          "name": "numTries",
          "type": "uint256"
        },
        {
          "indexed": false,
          "internalType": "uint256",
          "name": "price",
          "type": "uint256"
        }
      ],
      "name": "newTicketOnSale",
      "type": "event"
    },
    {
      "anonymous": false,
      "inputs": [
        {
          "indexed": false,
          "internalType": "address",
          "name": "user",
          "type": "address"
        },
        {
          "indexed": false,
          "internalType": "uint256",
          "name": "tokenId",
          "type": "uint256"
        },
        {
          "indexed": false,
          "internalType": "uint256",
          "name": "price",
          "type": "uint256"
        }
      ],
      "name": "sellingItem",
      "type": "event"
    },
    {
      "anonymous": false,
      "inputs": [
        {
          "indexed": false,
          "internalType": "uint256",
          "name": "ticketId",
          "type": "uint256"
        },
        {
          "indexed": false,
          "internalType": "address",
          "name": "oldOwner",
          "type": "address"
        },
        {
          "indexed": false,
          "internalType": "address",
          "name": "newOwner",
          "type": "address"
        },
        {
          "indexed": false,
          "internalType": "uint256",
          "name": "price",
          "type": "uint256"
        }
      ],
      "name": "ticketBought",
      "type": "event"
    },
    {
      "anonymous": false,
      "inputs": [
        {
          "indexed": false,
          "internalType": "address",
          "name": "owner",
          "type": "address"
        },
        {
          "indexed": false,
          "internalType": "uint256",
          "name": "newTries",
          "type": "uint256"
        },
        {
          "indexed": false,
          "internalType": "uint256",
          "name": "newPrice",
          "type": "uint256"
        }
      ],
      "name": "ticketPriceChanged",
      "type": "event"
    },
    {
      "anonymous": false,
      "inputs": [
        {
          "indexed": false,
          "internalType": "address",
          "name": "owner",
          "type": "address"
        }
      ],
      "name": "unListTicketOnSale",
      "type": "event"
    },
    {
      "anonymous": false,
      "inputs": [
        {
          "indexed": false,
          "internalType": "address",
          "name": "owner",
          "type": "address"
        },
        {
          "indexed": false,
          "internalType": "uint256",
          "name": "marketItemId",
          "type": "uint256"
        }
      ],
      "name": "unListedItem",
      "type": "event"
    },
    {
      "inputs": [],
      "name": "ADMIN_ROLE",
      "outputs": [
        {
          "internalType": "bytes32",
          "name": "",
          "type": "bytes32"
        }
      ],
      "stateMutability": "view",
      "type": "function"
    },
    {
      "inputs": [],
      "name": "DEFAULT_ADMIN_ROLE",
      "outputs": [
        {
          "internalType": "bytes32",
          "name": "",
          "type": "bytes32"
        }
      ],
      "stateMutability": "view",
      "type": "function"
    },
    {
      "inputs": [],
      "name": "NUM_WORDS",
      "outputs": [
        {
          "internalType": "uint32",
          "name": "",
          "type": "uint32"
        }
      ],
      "stateMutability": "view",
      "type": "function"
    },
    {
      "inputs": [],
      "name": "REQUEST_CONFIRMATIONS",
      "outputs": [
        {
          "internalType": "uint16",
          "name": "",
          "type": "uint16"
        }
      ],
      "stateMutability": "view",
      "type": "function"
    },
    {
      "inputs": [],
      "name": "_randomNumber",
      "outputs": [
        {
          "internalType": "uint256",
          "name": "",
          "type": "uint256"
        }
      ],
      "stateMutability": "nonpayable",
      "type": "function"
    },
    {
      "inputs": [
        {
          "internalType": "uint256",
          "name": "tokenId",
          "type": "uint256"
        }
      ],
      "name": "_rarityOfItem",
      "outputs": [
        {
          "internalType": "uint256",
          "name": "",
          "type": "uint256"
        }
      ],
      "stateMutability": "view",
      "type": "function"
    },
    {
      "inputs": [
        {
          "internalType": "address",
          "name": "account",
          "type": "address"
        },
        {
          "internalType": "uint256",
          "name": "id",
          "type": "uint256"
        }
      ],
      "name": "balanceOf",
      "outputs": [
        {
          "internalType": "uint256",
          "name": "",
          "type": "uint256"
        }
      ],
      "stateMutability": "view",
      "type": "function"
    },
    {
      "inputs": [
        {
          "internalType": "address[]",
          "name": "accounts",
          "type": "address[]"
        },
        {
          "internalType": "uint256[]",
          "name": "ids",
          "type": "uint256[]"
        }
      ],
      "name": "balanceOfBatch",
      "outputs": [
        {
          "internalType": "uint256[]",
          "name": "",
          "type": "uint256[]"
        }
      ],
      "stateMutability": "view",
      "type": "function"
    },
    {
      "inputs": [
        {
          "internalType": "uint256",
          "name": "marketItemId",
          "type": "uint256"
        }
      ],
      "name": "buyItem",
      "outputs": [],
      "stateMutability": "nonpayable",
      "type": "function"
    },
    {
      "inputs": [
        {
          "internalType": "uint256",
          "name": "ticketId",
          "type": "uint256"
        }
      ],
      "name": "buyTicket",
      "outputs": [],
      "stateMutability": "nonpayable",
      "type": "function"
    },
    {
      "inputs": [],
      "name": "casePrice",
      "outputs": [
        {
          "internalType": "uint256",
          "name": "",
          "type": "uint256"
        }
      ],
      "stateMutability": "view",
      "type": "function"
    },
    {
      "inputs": [
        {
          "internalType": "uint256",
          "name": "marketItemId",
          "type": "uint256"
        },
        {
          "internalType": "uint256",
          "name": "newPrice",
          "type": "uint256"
        }
      ],
      "name": "changeItemPrice",
      "outputs": [],
      "stateMutability": "nonpayable",
      "type": "function"
    },
    {
      "inputs": [
        {
          "internalType": "uint256",
          "name": "ticketId",
          "type": "uint256"
        },
        {
          "internalType": "uint256",
          "name": "newTries",
          "type": "uint256"
        },
        {
          "internalType": "uint256",
          "name": "newPrice",
          "type": "uint256"
        }
      ],
      "name": "changeTicketConditions",
      "outputs": [],
      "stateMutability": "nonpayable",
      "type": "function"
    },
    {
      "inputs": [],
      "name": "contractActive",
      "outputs": [
        {
          "internalType": "bool",
          "name": "",
          "type": "bool"
        }
      ],
      "stateMutability": "view",
      "type": "function"
    },
    {
      "inputs": [
        {
          "internalType": "address",
          "name": "user",
          "type": "address"
        }
      ],
      "name": "decreaseTicketTries",
      "outputs": [],
      "stateMutability": "nonpayable",
      "type": "function"
    },
    {
      "inputs": [
        {
          "internalType": "uint256",
          "name": "marketItemId",
          "type": "uint256"
        }
      ],
      "name": "exchangeItem",
      "outputs": [],
      "stateMutability": "nonpayable",
      "type": "function"
    },
    {
      "inputs": [],
      "name": "flipContractState",
      "outputs": [],
      "stateMutability": "nonpayable",
      "type": "function"
    },
    {
      "inputs": [],
      "name": "getCasePrice",
      "outputs": [
        {
          "internalType": "uint256",
          "name": "",
          "type": "uint256"
        }
      ],
      "stateMutability": "view",
      "type": "function"
    },
    {
      "inputs": [],
      "name": "getITicketsOnSale",
      "outputs": [
        {
          "components": [
            {
              "internalType": "uint256",
              "name": "ticketId",
              "type": "uint256"
            },
            {
              "internalType": "uint256",
              "name": "numTries",
              "type": "uint256"
            },
            {
              "internalType": "uint256",
              "name": "price",
              "type": "uint256"
            },
            {
              "internalType": "address",
              "name": "owner",
              "type": "address"
            },
            {
              "internalType": "bool",
              "name": "isAvaliable",
              "type": "bool"
            }
          ],
          "internalType": "struct RacksItemsTicket.caseTicket[]",
          "name": "",
          "type": "tuple[]"
        }
      ],
      "stateMutability": "view",
      "type": "function"
    },
    {
      "inputs": [],
      "name": "getItemsOnSale",
      "outputs": [
        {
          "components": [
            {
              "internalType": "uint256",
              "name": "tokenId",
              "type": "uint256"
            },
            {
              "internalType": "uint256",
              "name": "marketItemId",
              "type": "uint256"
            },
            {
              "internalType": "uint256",
              "name": "price",
              "type": "uint256"
            },
            {
              "internalType": "address",
              "name": "seller",
              "type": "address"
            },
            {
              "internalType": "bool",
              "name": "sold",
              "type": "bool"
            }
          ],
          "internalType": "struct RacksItemsTicket.itemOnSale[]",
          "name": "",
          "type": "tuple[]"
        }
      ],
      "stateMutability": "view",
      "type": "function"
    },
    {
      "inputs": [
        {
          "internalType": "uint256",
          "name": "marketItemId",
          "type": "uint256"
        }
      ],
      "name": "getMarketItem",
      "outputs": [
        {
          "components": [
            {
              "internalType": "uint256",
              "name": "tokenId",
              "type": "uint256"
            },
            {
              "internalType": "uint256",
              "name": "marketItemId",
              "type": "uint256"
            },
            {
              "internalType": "uint256",
              "name": "price",
              "type": "uint256"
            },
            {
              "internalType": "address",
              "name": "seller",
              "type": "address"
            },
            {
              "internalType": "bool",
              "name": "sold",
              "type": "bool"
            }
          ],
          "internalType": "struct RacksItemsTicket.itemOnSale",
          "name": "",
          "type": "tuple"
        }
      ],
      "stateMutability": "view",
      "type": "function"
    },
    {
      "inputs": [
        {
          "internalType": "uint256",
          "name": "ticketId",
          "type": "uint256"
        }
      ],
      "name": "getMarketTicket",
      "outputs": [
        {
          "components": [
            {
              "internalType": "uint256",
              "name": "ticketId",
              "type": "uint256"
            },
            {
              "internalType": "uint256",
              "name": "numTries",
              "type": "uint256"
            },
            {
              "internalType": "uint256",
              "name": "price",
              "type": "uint256"
            },
            {
              "internalType": "address",
              "name": "owner",
              "type": "address"
            },
            {
              "internalType": "bool",
              "name": "isAvaliable",
              "type": "bool"
            }
          ],
          "internalType": "struct RacksItemsTicket.caseTicket",
          "name": "",
          "type": "tuple"
        }
      ],
      "stateMutability": "view",
      "type": "function"
    },
    {
      "inputs": [
        {
          "internalType": "bytes32",
          "name": "role",
          "type": "bytes32"
        }
      ],
      "name": "getRoleAdmin",
      "outputs": [
        {
          "internalType": "bytes32",
          "name": "",
          "type": "bytes32"
        }
      ],
      "stateMutability": "view",
      "type": "function"
    },
    {
      "inputs": [
        {
          "internalType": "bytes32",
          "name": "role",
          "type": "bytes32"
        },
        {
          "internalType": "address",
          "name": "account",
          "type": "address"
        }
      ],
      "name": "grantRole",
      "outputs": [],
      "stateMutability": "nonpayable",
      "type": "function"
    },
    {
      "inputs": [
        {
          "internalType": "bytes32",
          "name": "role",
          "type": "bytes32"
        },
        {
          "internalType": "address",
          "name": "account",
          "type": "address"
        }
      ],
      "name": "hasRole",
      "outputs": [
        {
          "internalType": "bool",
          "name": "",
          "type": "bool"
        }
      ],
      "stateMutability": "view",
      "type": "function"
    },
    {
      "inputs": [],
      "name": "i_MrCryptoAddress",
      "outputs": [
        {
          "internalType": "address",
          "name": "",
          "type": "address"
        }
      ],
      "stateMutability": "view",
      "type": "function"
    },
    {
      "inputs": [],
      "name": "i_callbackGasLimit",
      "outputs": [
        {
          "internalType": "uint32",
          "name": "",
          "type": "uint32"
        }
      ],
      "stateMutability": "view",
      "type": "function"
    },
    {
      "inputs": [],
      "name": "i_gasLane",
      "outputs": [
        {
          "internalType": "bytes32",
          "name": "",
          "type": "bytes32"
        }
      ],
      "stateMutability": "view",
      "type": "function"
    },
    {
      "inputs": [],
      "name": "i_subscriptionId",
      "outputs": [
        {
          "internalType": "uint64",
          "name": "",
          "type": "uint64"
        }
      ],
      "stateMutability": "view",
      "type": "function"
    },
    {
      "inputs": [],
      "name": "i_vrfCoordinator",
      "outputs": [
        {
          "internalType": "contract VRFCoordinatorV2Interface",
          "name": "",
          "type": "address"
        }
      ],
      "stateMutability": "view",
      "type": "function"
    },
    {
      "inputs": [
        {
          "internalType": "address",
          "name": "account",
          "type": "address"
        },
        {
          "internalType": "address",
          "name": "operator",
          "type": "address"
        }
      ],
      "name": "isApprovedForAll",
      "outputs": [
        {
          "internalType": "bool",
          "name": "",
          "type": "bool"
        }
      ],
      "stateMutability": "view",
      "type": "function"
    },
    {
      "inputs": [
        {
          "internalType": "address",
          "name": "user",
          "type": "address"
        }
      ],
      "name": "isVip",
      "outputs": [
        {
          "internalType": "bool",
          "name": "",
          "type": "bool"
        }
      ],
      "stateMutability": "view",
      "type": "function"
    },
    {
      "inputs": [
        {
          "internalType": "uint256",
          "name": "itemSupply",
          "type": "uint256"
        }
      ],
      "name": "listItem",
      "outputs": [],
      "stateMutability": "nonpayable",
      "type": "function"
    },
    {
      "inputs": [
        {
          "internalType": "uint256",
          "name": "numTries",
          "type": "uint256"
        },
        {
          "internalType": "uint256",
          "name": "price",
          "type": "uint256"
        }
      ],
      "name": "listTicket",
      "outputs": [],
      "stateMutability": "nonpayable",
      "type": "function"
    },
    {
      "inputs": [
        {
          "internalType": "address",
          "name": "",
          "type": "address"
        },
        {
          "internalType": "address",
          "name": "",
          "type": "address"
        },
        {
          "internalType": "uint256[]",
          "name": "",
          "type": "uint256[]"
        },
        {
          "internalType": "uint256[]",
          "name": "",
          "type": "uint256[]"
        },
        {
          "internalType": "bytes",
          "name": "",
          "type": "bytes"
        }
      ],
      "name": "onERC1155BatchReceived",
      "outputs": [
        {
          "internalType": "bytes4",
          "name": "",
          "type": "bytes4"
        }
      ],
      "stateMutability": "nonpayable",
      "type": "function"
    },
    {
      "inputs": [
        {
          "internalType": "address",
          "name": "",
          "type": "address"
        },
        {
          "internalType": "address",
          "name": "",
          "type": "address"
        },
        {
          "internalType": "uint256",
          "name": "",
          "type": "uint256"
        },
        {
          "internalType": "uint256",
          "name": "",
          "type": "uint256"
        },
        {
          "internalType": "bytes",
          "name": "",
          "type": "bytes"
        }
      ],
      "name": "onERC1155Received",
      "outputs": [
        {
          "internalType": "bytes4",
          "name": "",
          "type": "bytes4"
        }
      ],
      "stateMutability": "nonpayable",
      "type": "function"
    },
    {
      "inputs": [],
      "name": "openCase",
      "outputs": [],
      "stateMutability": "nonpayable",
      "type": "function"
    },
    {
      "inputs": [
        {
          "internalType": "uint256",
          "name": "requestId",
          "type": "uint256"
        },
        {
          "internalType": "uint256[]",
          "name": "randomWords",
          "type": "uint256[]"
        }
      ],
      "name": "rawFulfillRandomWords",
      "outputs": [],
      "stateMutability": "nonpayable",
      "type": "function"
    },
    {
      "inputs": [
        {
          "internalType": "address[]",
          "name": "users",
          "type": "address[]"
        }
      ],
      "name": "removeListRacksMembers",
      "outputs": [],
      "stateMutability": "nonpayable",
      "type": "function"
    },
    {
      "inputs": [
        {
          "internalType": "address",
          "name": "user",
          "type": "address"
        }
      ],
      "name": "removeSingleRacksMember",
      "outputs": [],
      "stateMutability": "nonpayable",
      "type": "function"
    },
    {
      "inputs": [
        {
          "internalType": "bytes32",
          "name": "role",
          "type": "bytes32"
        },
        {
          "internalType": "address",
          "name": "account",
          "type": "address"
        }
      ],
      "name": "renounceRole",
      "outputs": [],
      "stateMutability": "nonpayable",
      "type": "function"
    },
    {
      "inputs": [
        {
          "internalType": "bytes32",
          "name": "role",
          "type": "bytes32"
        },
        {
          "internalType": "address",
          "name": "account",
          "type": "address"
        }
      ],
      "name": "revokeRole",
      "outputs": [],
      "stateMutability": "nonpayable",
      "type": "function"
    },
    {
      "inputs": [],
      "name": "s_contractState",
      "outputs": [
        {
          "internalType": "enum RacksItemsTicket.ContractState",
          "name": "",
          "type": "uint8"
        }
      ],
      "stateMutability": "view",
      "type": "function"
    },
    {
      "inputs": [],
      "name": "s_randomWord",
      "outputs": [
        {
          "internalType": "uint256",
          "name": "",
          "type": "uint256"
        }
      ],
      "stateMutability": "view",
      "type": "function"
    },
    {
      "inputs": [
        {
          "internalType": "address",
          "name": "from",
          "type": "address"
        },
        {
          "internalType": "address",
          "name": "to",
          "type": "address"
        },
        {
          "internalType": "uint256[]",
          "name": "ids",
          "type": "uint256[]"
        },
        {
          "internalType": "uint256[]",
          "name": "amounts",
          "type": "uint256[]"
        },
        {
          "internalType": "bytes",
          "name": "data",
          "type": "bytes"
        }
      ],
      "name": "safeBatchTransferFrom",
      "outputs": [],
      "stateMutability": "nonpayable",
      "type": "function"
    },
    {
      "inputs": [
        {
          "internalType": "address",
          "name": "from",
          "type": "address"
        },
        {
          "internalType": "address",
          "name": "to",
          "type": "address"
        },
        {
          "internalType": "uint256",
          "name": "id",
          "type": "uint256"
        },
        {
          "internalType": "uint256",
          "name": "amount",
          "type": "uint256"
        },
        {
          "internalType": "bytes",
          "name": "data",
          "type": "bytes"
        }
      ],
      "name": "safeTransferFrom",
      "outputs": [],
      "stateMutability": "nonpayable",
      "type": "function"
    },
    {
      "inputs": [
        {
          "internalType": "uint256",
          "name": "marketItemId",
          "type": "uint256"
        },
        {
          "internalType": "uint256",
          "name": "price",
          "type": "uint256"
        }
      ],
      "name": "sellItem",
      "outputs": [],
      "stateMutability": "nonpayable",
      "type": "function"
    },
    {
      "inputs": [
        {
          "internalType": "address",
          "name": "_newAdmin",
          "type": "address"
        }
      ],
      "name": "setAdmin",
      "outputs": [],
      "stateMutability": "nonpayable",
      "type": "function"
    },
    {
      "inputs": [
        {
          "internalType": "address",
          "name": "operator",
          "type": "address"
        },
        {
          "internalType": "bool",
          "name": "approved",
          "type": "bool"
        }
      ],
      "name": "setApprovalForAll",
      "outputs": [],
      "stateMutability": "nonpayable",
      "type": "function"
    },
    {
      "inputs": [
        {
          "internalType": "uint256",
          "name": "price",
          "type": "uint256"
        }
      ],
      "name": "setCasePrice",
      "outputs": [],
      "stateMutability": "nonpayable",
      "type": "function"
    },
    {
      "inputs": [
        {
          "internalType": "address[]",
          "name": "users",
          "type": "address[]"
        }
      ],
      "name": "setListRacksMembers",
      "outputs": [],
      "stateMutability": "nonpayable",
      "type": "function"
    },
    {
      "inputs": [
        {
          "internalType": "address",
          "name": "user",
          "type": "address"
        }
      ],
      "name": "setSingleRacksMember",
      "outputs": [],
      "stateMutability": "nonpayable",
      "type": "function"
    },
    {
      "inputs": [
        {
          "internalType": "uint256",
          "name": "tokenId",
          "type": "uint256"
        },
        {
          "internalType": "string",
          "name": "_uri",
          "type": "string"
        }
      ],
      "name": "setTokenUri",
      "outputs": [],
      "stateMutability": "nonpayable",
      "type": "function"
    },
    {
      "inputs": [
        {
          "internalType": "uint256",
          "name": "tokenId",
          "type": "uint256"
        }
      ],
      "name": "supplyOfItem",
      "outputs": [
        {
          "internalType": "uint256",
          "name": "",
          "type": "uint256"
        }
      ],
      "stateMutability": "view",
      "type": "function"
    },
    {
      "inputs": [
        {
          "internalType": "bytes4",
          "name": "interfaceId",
          "type": "bytes4"
        }
      ],
      "name": "supportsInterface",
      "outputs": [
        {
          "internalType": "bool",
          "name": "",
          "type": "bool"
        }
      ],
      "stateMutability": "view",
      "type": "function"
    },
    {
      "inputs": [
        {
          "internalType": "uint256",
          "name": "marketItemId",
          "type": "uint256"
        }
      ],
      "name": "unListItem",
      "outputs": [],
      "stateMutability": "nonpayable",
      "type": "function"
    },
    {
      "inputs": [
        {
          "internalType": "uint256",
          "name": "ticketId",
          "type": "uint256"
        }
      ],
      "name": "unListTicket",
      "outputs": [],
      "stateMutability": "nonpayable",
      "type": "function"
    },
    {
      "inputs": [
        {
          "internalType": "uint256",
          "name": "tokenId",
          "type": "uint256"
        }
      ],
      "name": "uri",
      "outputs": [
        {
          "internalType": "string",
          "name": "",
          "type": "string"
        }
      ],
      "stateMutability": "view",
      "type": "function"
    },
    {
      "inputs": [
        {
          "internalType": "address",
          "name": "owner",
          "type": "address"
        }
      ],
      "name": "viewItems",
      "outputs": [
        {
          "internalType": "uint256[]",
          "name": "",
          "type": "uint256[]"
        }
      ],
      "stateMutability": "view",
      "type": "function"
    },
    {
      "inputs": [
        {
          "internalType": "address",
          "name": "wallet",
          "type": "address"
        }
      ],
      "name": "withdrawAllFunds",
      "outputs": [],
      "stateMutability": "nonpayable",
      "type": "function"
    },
    {
      "inputs": [
        {
          "internalType": "address",
          "name": "wallet",
          "type": "address"
        },
        {
          "internalType": "uint256",
          "name": "amount",
          "type": "uint256"
        }
      ],
      "name": "withdrawFunds",
      "outputs": [],
      "stateMutability": "nonpayable",
      "type": "function"
    },
    {
      "stateMutability": "payable",
      "type": "receive"
    }
  ],
  "bytecode": "0x610120604052600c805460ff191660011790553480156200001f57600080fd5b5060405162005804380380620058048339810160408190526200004291620001ec565b60408051602081019091526000815285906200005e8162000110565b50606090811b6001600160601b031990811660805295901b90941660a05260c0928352911b6001600160c01b03191660e09081521b6001600160e01b031916610100526004805473ef453154766505feb9dbf0a58e6990fd6eb669696001600160a01b0319918216179091556005805482166001600160a01b0393909316929092179091556006805433921691909117905560006008819055600a556001600b55600c805461ff0019169055620002a9565b80516200012590600290602084019062000129565b5050565b82805462000137906200026c565b90600052602060002090601f0160209004810192826200015b5760008555620001a6565b82601f106200017657805160ff1916838001178555620001a6565b82800160010185558215620001a6579182015b82811115620001a657825182559160200191906001019062000189565b50620001b4929150620001b8565b5090565b5b80821115620001b45760008155600101620001b9565b80516001600160a01b0381168114620001e757600080fd5b919050565b600080600080600060a086880312156200020557600080fd5b6200021086620001cf565b6020870151604088015191965094506001600160401b03811681146200023557600080fd5b606087015190935063ffffffff811681146200025057600080fd5b91506200026060808701620001cf565b90509295509295909350565b600181811c908216806200028157607f821691505b60208210811415620002a357634e487b7160e01b600052602260045260246000fd5b50919050565b60805160601c60a05160601c60c05160e05160c01c6101005160e01c6154e76200031d60003960008181610af80152611efb0152600081816106320152611ec801526000818161087d0152611e9901526000818161096c0152611f36015260008181610e750152610ed001526154e76000f3fe6080604052600436106103a55760003560e01c806389165aa9116101e7578063c10753291161010d578063e289fcb6116100a0578063f23a6e611161006f578063f23a6e6114610bf2578063f242432a14610c1e578063f48c9d3414610c3e578063fd210fd914610c5e57600080fd5b8063e289fcb614610b4f578063e7fb74c714610b69578063e985e9c514610b89578063ebf82e5c14610bd257600080fd5b8063d547741f116100dc578063d547741f14610ac6578063d757d02714610ae6578063dd006d3114610b1a578063de08f65314610b3a57600080fd5b8063c107532914610a43578063c7be7a4914610a63578063c7e05f8d14610a90578063ca90958f14610ab057600080fd5b8063a22cb46511610185578063b2ead3c711610154578063b2ead3c71461098e578063b63b8612146109b0578063bbcbc2e7146109dc578063bc197c81146109fe57600080fd5b8063a22cb465146108fa578063a7b194241461091a578063a7bc77c61461093a578063aebc45501461095a57600080fd5b80638e879c8a116101c15780638e879c8a1461086b57806391d148541461089f578063976298f3146108e5578063a217fddf146107b657600080fd5b806389165aa91461080b5780638ba8b15a1461082b5780638dc5f45b1461084b57600080fd5b806336568abe116102cc578063616524501161026a57806372cf6e341161023957806372cf6e341461078c57806375b238fc146107b65780637e420db5146107cb57806384203f4b146107eb57600080fd5b8063616524501461070f57806367dd74ca1461072457806367f082b014610744578063704b6c021461076c57600080fd5b80634e1273f4116102a65780634e1273f4146106825780635408c319146106af57806354e889f6146106cf57806357f7789e146106ef57600080fd5b806336568abe14610600578063470cdf97146106205780634a2266571461066d57600080fd5b8063248a9ca3116103445780632f2ff15d116103135780632f2ff15d14610580578063305a905a146105a057806330dc2764146105c057806332dee40b146105e057600080fd5b8063248a9ca3146104f05780632ce38190146105205780632d923561146105405780632eb2c2d61461056057600080fd5b8063109b827811610380578063109b8278146104415780631cb0b273146104815780631fe543e3146104a357806320ba0814146104c357600080fd5b8062fdd58e146103b157806301ffc9a7146103e45780630e89341c1461041457600080fd5b366103ac57005b600080fd5b3480156103bd57600080fd5b506103d16103cc366004614c7d565b610c74565b6040519081526020015b60405180910390f35b3480156103f057600080fd5b506104046103ff366004614da1565b610d20565b60405190151581526020016103db565b34801561042057600080fd5b5061043461042f366004614d65565b610d2b565b6040516103db91906151be565b34801561044d57600080fd5b5061046973ef453154766505feb9dbf0a58e6990fd6eb6696981565b6040516001600160a01b0390911681526020016103db565b34801561048d57600080fd5b506104a161049c366004614d65565b610dcd565b005b3480156104af57600080fd5b506104a16104be366004614df4565b610e6a565b3480156104cf57600080fd5b506103d16104de366004614d65565b60009081526011602052604090205490565b3480156104fc57600080fd5b506103d161050b366004614d65565b60009081526003602052604090206001015490565b34801561052c57600080fd5b506104a161053b366004614d65565b610f0b565b34801561054c57600080fd5b506104a161055b366004614e82565b610f77565b34801561056c57600080fd5b506104a161057b366004614b37565b61115c565b34801561058c57600080fd5b506104a161059b366004614d7e565b6111fe565b3480156105ac57600080fd5b506104a16105bb366004614e82565b611228565b3480156105cc57600080fd5b506104a16105db366004614ae9565b611519565b3480156105ec57600080fd5b506104a16105fb366004614ae9565b611679565b34801561060c57600080fd5b506104a161061b366004614d7e565b611821565b34801561062c57600080fd5b506106547f000000000000000000000000000000000000000000000000000000000000000081565b60405167ffffffffffffffff90911681526020016103db565b34801561067957600080fd5b506104a16118a9565b34801561068e57600080fd5b506106a261069d366004614ce4565b611b03565b6040516103db9190615155565b3480156106bb57600080fd5b506104a16106ca366004614ca7565b611c41565b3480156106db57600080fd5b506104a16106ea366004614ae9565b611d08565b3480156106fb57600080fd5b506104a161070a366004614e31565b611d8b565b34801561071b57600080fd5b506103d1611e71565b34801561073057600080fd5b506104a161073f366004614d65565b611fb2565b34801561075057600080fd5b50610759600381565b60405161ffff90911681526020016103db565b34801561077857600080fd5b506104a1610787366004614ae9565b6123f5565b34801561079857600080fd5b506107a1600281565b60405163ffffffff90911681526020016103db565b3480156107c257600080fd5b506103d1600081565b3480156107d757600080fd5b506104a16107e6366004614d65565b61245a565b3480156107f757600080fd5b50610404610806366004614ae9565b612654565b34801561081757600080fd5b506104a1610826366004614ca7565b61270e565b34801561083757600080fd5b506104a1610846366004614ae9565b6127d5565b34801561085757600080fd5b506104a1610866366004614d65565b612855565b34801561087757600080fd5b506103d17f000000000000000000000000000000000000000000000000000000000000000081565b3480156108ab57600080fd5b506104046108ba366004614d7e565b60009182526003602090815260408084206001600160a01b0393909316845291905290205460ff1690565b3480156108f157600080fd5b50600b546103d1565b34801561090657600080fd5b506104a1610915366004614c46565b6128e9565b34801561092657600080fd5b506104a1610935366004614e82565b6128f4565b34801561094657600080fd5b506104a1610955366004614d65565b612a1f565b34801561096657600080fd5b506104697f000000000000000000000000000000000000000000000000000000000000000081565b34801561099a57600080fd5b506109a3612b48565b6040516103db9190615059565b3480156109bc57600080fd5b50600c546109cf90610100900460ff1681565b6040516103db9190615196565b3480156109e857600080fd5b506109f1612d5b565b6040516103db91906150dd565b348015610a0a57600080fd5b50610a2a610a19366004614b37565b63bc197c8160e01b95945050505050565b6040516001600160e01b031990911681526020016103db565b348015610a4f57600080fd5b506104a1610a5e366004614c7d565b612f5d565b348015610a6f57600080fd5b50610a83610a7e366004614d65565b613106565b6040516103db91906151d1565b348015610a9c57600080fd5b506103d1610aab366004614d65565b6131b9565b348015610abc57600080fd5b506103d1600b5481565b348015610ad257600080fd5b506104a1610ae1366004614d7e565b6131f0565b348015610af257600080fd5b506107a17f000000000000000000000000000000000000000000000000000000000000000081565b348015610b2657600080fd5b50610a83610b35366004614d65565b613215565b348015610b4657600080fd5b506104a1613265565b348015610b5b57600080fd5b50600c546104049060ff1681565b348015610b7557600080fd5b506104a1610b84366004614d65565b613306565b348015610b9557600080fd5b50610404610ba4366004614b04565b6001600160a01b03918216600090815260016020908152604080832093909416825291909152205460ff1690565b348015610bde57600080fd5b506104a1610bed366004614ea4565b6134ee565b348015610bfe57600080fd5b50610a2a610c0d366004614be1565b63f23a6e6160e01b95945050505050565b348015610c2a57600080fd5b506104a1610c39366004614be1565b6136ef565b348015610c4a57600080fd5b506106a2610c59366004614ae9565b61378a565b348015610c6a57600080fd5b506103d1600f5481565b60006001600160a01b038316610cf75760405162461bcd60e51b815260206004820152602b60248201527f455243313135353a2062616c616e636520717565727920666f7220746865207a60448201527f65726f206164647265737300000000000000000000000000000000000000000060648201526084015b60405180910390fd5b506000818152602081815260408083206001600160a01b03861684529091529020545b92915050565b6000610d1a82613821565b6000818152601260205260409020805460609190610d48906152e2565b80601f0160208091040260200160405190810160405280929190818152602001828054610d74906152e2565b8015610dc15780601f10610d9657610100808354040283529160200191610dc1565b820191906000526020600020905b815481529060010190602001808311610da457829003601f168201915b50505050509050919050565b6000610dd93383610c74565b11610de357600080fd5b610def3382600161385f565b6000818152601160205260408120805460019290610e0e908490615284565b92505081905550600160076000828254610e289190615284565b909155505060408051338152602081018390527f9e90d55d2f1f115ffe1b87372c45f27f6b3a2b5ba392942167be78456189009491015b60405180910390a150565b336001600160a01b037f00000000000000000000000000000000000000000000000000000000000000001614610efd576040517f1cf993f40000000000000000000000000000000000000000000000000000000081523360048201526001600160a01b037f0000000000000000000000000000000000000000000000000000000000000000166024820152604401610cee565b610f078282613a13565b5050565b610f1433613a38565b610f6a5760405162461bcd60e51b815260206004820152602160248201527f55736572206973206e6f7420746865204f776e6572206f7220616e2041646d696044820152603760f91b6064820152608401610cee565b610f743082613a97565b50565b6000610f833384610c74565b11610fd05760405162461bcd60e51b815260206004820152600f60248201527f4974656d206e6f7420666f756e642e00000000000000000000000000000000006044820152606401610cee565b610fed333084600160405180602001604052806000815250613b02565b6040805160a08101825283815260098054602083019081529282018481523360608401908152600060808501818152600d8054600181018255908352955160049096027fd7b6990105719101dabeb77144f2a3385c8033acd3af97e9423a695e81ad1eb581019690965595517fd7b6990105719101dabeb77144f2a3385c8033acd3af97e9423a695e81ad1eb686015591517fd7b6990105719101dabeb77144f2a3385c8033acd3af97e9423a695e81ad1eb7850155517fd7b6990105719101dabeb77144f2a3385c8033acd3af97e9423a695e81ad1eb8909301805494511515600160a01b0274ffffffffffffffffffffffffffffffffffffffffff199095166001600160a01b039490941693909317939093179091558054916111118361534a565b909155505060408051338152602081018490529081018290527f23cba88d6c6f26b62b2cfc32a2cc04fbbde8590188b97cd3590e45af9ac6dd6d906060015b60405180910390a15050565b6001600160a01b03851633148061117857506111788533610ba4565b6111ea5760405162461bcd60e51b815260206004820152603260248201527f455243313135353a207472616e736665722063616c6c6572206973206e6f742060448201527f6f776e6572206e6f7220617070726f76656400000000000000000000000000006064820152608401610cee565b6111f78585858585613cad565b5050505050565b60008281526003602052604090206001015461121981613f20565b6112238383613f2a565b505050565b61123133612654565b6112a35760405162461bcd60e51b815260206004820152603460248201527f55736572206973206e6f74205261636b734d656d62657273206f7220646f657360448201527f206e6f74206f776e732061204d7243727970746f0000000000000000000000006064820152608401610cee565b3360009081526013602052604090205460ff16156113295760405162461bcd60e51b815260206004820152602a60248201527f5573657220697320616c72656164792063757272656e746c792073656c6c696e60448201527f672061205469636b6574000000000000000000000000000000000000000000006064820152608401610cee565b3360009081526014602052604090205460ff166113885760405162461bcd60e51b815260206004820152601960248201527f5573657220686173207469636b6574206176616c6961626c65000000000000006044820152606401610cee565b6040805160a081018252600a80548252602082018581529282018481523360608401908152600160808501818152600e80549283018155600090815295517fbb7b4a454dc3493923482f07822329ed19e8244eff582cc204f8554c3620c3fd60049093029283015595517fbb7b4a454dc3493923482f07822329ed19e8244eff582cc204f8554c3620c3fe82015591517fbb7b4a454dc3493923482f07822329ed19e8244eff582cc204f8554c3620c3ff830155517fbb7b4a454dc3493923482f07822329ed19e8244eff582cc204f8554c3620c400909101805494516001600160a01b0390921674ffffffffffffffffffffffffffffffffffffffffff1990951694909417600160a01b9115159190910217909255815491906114ab8361534a565b90915550503360008181526013602090815260408083208054600160ff1991821617909155601483529281902080549093169092558151928352820184905281018290527fc4dde423656bab4864c13e89a02f85c481213e9e6900bb38e91154902f5c787e90606001611150565b60005b600e54811015610f0757816001600160a01b0316600e8281548110611543576115436153bb565b60009182526020909120600360049092020101546001600160a01b0316141561166757600e8181548110611579576115796153bb565b9060005260206000209060040201600101546001146115cd57600e81815481106115a5576115a56153bb565b6000918252602082206001600490920201018054916115c3836152cb565b9190505550611667565b600e81815481106115e0576115e06153bb565b6000918252602082206001600490920201018054916115fe836152cb565b91905055506000600e8281548110611618576116186153bb565b600091825260208083206003600490930201919091018054931515600160a01b0260ff60a01b19909416939093179092556001600160a01b0384168152601490915260409020805460ff191690555b806116718161534a565b91505061151c565b6006546001600160a01b031633146116d35760405162461bcd60e51b815260206004820152601560248201527f55736572206973206e6f7420746865206f776e657200000000000000000000006044820152606401610cee565b6005546040516370a0823160e01b81523060048201526000916001600160a01b0316906370a082319060240160206040518083038186803b15801561171757600080fd5b505afa15801561172b573d6000803e3d6000fd5b505050506040513d601f19601f8201168201806040525081019061174f9190614ddb565b1161179c5760405162461bcd60e51b815260206004820152601460248201527f4e6f2066756e647320746f2077697468647261770000000000000000000000006044820152606401610cee565b60055460405163a9059cbb60e01b81526001600160a01b0383811660048301524760248301529091169063a9059cbb90604401602060405180830381600087803b1580156117e957600080fd5b505af11580156117fd573d6000803e3d6000fd5b505050506040513d601f19601f82011682018060405250810190610f079190614d48565b6001600160a01b038116331461189f5760405162461bcd60e51b815260206004820152602f60248201527f416363657373436f6e74726f6c3a2063616e206f6e6c792072656e6f756e636560448201527f20726f6c657320666f722073656c6600000000000000000000000000000000006064820152608401610cee565b610f078282613fcc565b6118b233612654565b806118cc57503360009081526014602052604090205460ff165b61193e5760405162461bcd60e51b815260206004820152602a60248201527f55736572206973204e4f542056495020616e6420646f6573204e4f54206f776e60448201527f732061207469636b6574000000000000000000000000000000000000000000006064820152608401610cee565b600554600b546040516323b872dd60e01b815233600482015230602482015260448101919091526001600160a01b03909116906323b872dd90606401602060405180830381600087803b15801561199457600080fd5b505af11580156119a8573d6000803e3d6000fd5b505050506040513d601f19601f820116820180604052508101906119cc9190614d48565b5060006007546119da611e71565b6119e49190615365565b9050600080805b600854811015611aaf57600081815260116020526040812054611a0e9085615239565b905083851115611a2057809350611a9c565b611a2b600183615284565b9250611a373084610c74565b611a79576000611a48600185615284565b90505b6000611a573083610c74565b1115611a6557809350611a77565b80611a6f816152cb565b915050611a4b565b505b611a96303385600160405180602001604052806000815250613b02565b50611aaf565b5080611aa78161534a565b9150506119eb565b50611ab933611519565b600b5460408051338152602081019290925281018290527fea32e37a2618dbb680c93d891742e9e13b30d184822562a0ee3c09290fd42b43906060015b60405180910390a1505050565b60608151835114611b7c5760405162461bcd60e51b815260206004820152602960248201527f455243313135353a206163636f756e747320616e6420696473206c656e67746860448201527f206d69736d6174636800000000000000000000000000000000000000000000006064820152608401610cee565b6000835167ffffffffffffffff811115611b9857611b986153d1565b604051908082528060200260200182016040528015611bc1578160200160208202803683370190505b50905060005b8451811015611c3957611c0c858281518110611be557611be56153bb565b6020026020010151858381518110611bff57611bff6153bb565b6020026020010151610c74565b828281518110611c1e57611c1e6153bb565b6020908102919091010152611c328161534a565b9050611bc7565b509392505050565b611c4a33613a38565b611ca05760405162461bcd60e51b815260206004820152602160248201527f55736572206973206e6f7420746865204f776e6572206f7220616e2041646d696044820152603760f91b6064820152608401610cee565b60005b8151811015610f0757600060106000848481518110611cc457611cc46153bb565b6020908102919091018101516001600160a01b03168252810191909152604001600020805460ff191691151591909117905580611d008161534a565b915050611ca3565b611d1133613a38565b611d675760405162461bcd60e51b815260206004820152602160248201527f55736572206973206e6f7420746865204f776e6572206f7220616e2041646d696044820152603760f91b6064820152608401610cee565b6001600160a01b03166000908152601060205260409020805460ff19166001179055565b611d9433613a38565b611dea5760405162461bcd60e51b815260206004820152602160248201527f55736572206973206e6f7420746865204f776e6572206f7220616e2041646d696044820152603760f91b6064820152608401610cee565b60008281526012602052604090208054611e03906152e2565b159050611e525760405162461bcd60e51b815260206004820152601560248201527f43616e206e6f74207365742075726920747769636500000000000000000000006044820152606401610cee565b60008281526012602090815260409091208251611223928401906148ce565b6040517f5d3b1d300000000000000000000000000000000000000000000000000000000081527f0000000000000000000000000000000000000000000000000000000000000000600482015267ffffffffffffffff7f00000000000000000000000000000000000000000000000000000000000000001660248201526003604482015263ffffffff7f00000000000000000000000000000000000000000000000000000000000000001660648201526002608482015260009081906001600160a01b037f00000000000000000000000000000000000000000000000000000000000000001690635d3b1d309060a401602060405180830381600087803b158015611f7a57600080fd5b505af1158015611f8e573d6000803e3d6000fd5b505050506040513d601f19601f82011682018060405250810190610d1a9190614ddb565b611fbb33612654565b15611fc557600080fd5b336001600160a01b0316600e8281548110611fe257611fe26153bb565b60009182526020909120600360049092020101546001600160a01b031614156120735760405162461bcd60e51b815260206004820152602560248201527f596f752063616e206e6f74206275792061207469636b657420746f20796f757260448201527f2073656c660000000000000000000000000000000000000000000000000000006064820152608401610cee565b600e8181548110612086576120866153bb565b906000526020600020906004020160030160149054906101000a900460ff161515600115151461211e5760405162461bcd60e51b815260206004820152602160248201527f5469636b6574206973206e6f742063757272656e746c79206176616c6961626c60448201527f65000000000000000000000000000000000000000000000000000000000000006064820152608401610cee565b6000600e8281548110612133576121336153bb565b6000918252602090912060049091020160030154600554600e80546001600160a01b03938416945092909116916323b872dd91339186908110612178576121786153bb565b906000526020600020906004020160030160009054906101000a90046001600160a01b0316600e86815481106121b0576121b06153bb565b9060005260206000209060040201600201546040518463ffffffff1660e01b81526004016121ff939291906001600160a01b039384168152919092166020820152604081019190915260600190565b602060405180830381600087803b15801561221957600080fd5b505af115801561222d573d6000803e3d6000fd5b505050506040513d601f19601f820116820180604052508101906122519190614d48565b50600060146000600e858154811061226b5761226b6153bb565b60009182526020808320600492909202909101600301546001600160a01b031683528201929092526040018120805460ff191692151592909217909155600e80546013918391869081106122c1576122c16153bb565b60009182526020808320600492909202909101600301546001600160a01b031683528201929092526040019020805460ff1916911515919091179055600e805433919084908110612314576123146153bb565b6000918252602080832060049290920290910160030180547fffffffffffffffffffffffff0000000000000000000000000000000000000000166001600160a01b03949094169390931790925533808252601490925260409020805460ff19166001179055600e80547f060f7dd92424d6f1af65d2fe9acba5b63d299cc26cd8eb26403ca371bc9fbfbb9285928592849081106123b3576123b36153bb565b90600052602060002090600402016002015460405161115094939291909384526001600160a01b03928316602085015291166040830152606082015260800190565b6006546001600160a01b0316331461244f5760405162461bcd60e51b815260206004820152601560248201527f55736572206973206e6f7420746865206f776e657200000000000000000000006044820152606401610cee565b610f7460008261404f565b61246333612654565b6124d55760405162461bcd60e51b815260206004820152603460248201527f55736572206973206e6f74205261636b734d656d62657273206f7220646f657360448201527f206e6f74206f776e732061204d7243727970746f0000000000000000000000006064820152608401610cee565b3360009081526013602052604090205460ff166125435760405162461bcd60e51b815260206004820152602660248201527f55736572206973206e6f742063757272656e746c792073656c6c696e67206120604482015265151a58dad95d60d21b6064820152608401610cee565b336001600160a01b0316600e8281548110612560576125606153bb565b60009182526020909120600360049092020101546001600160a01b0316146125ca5760405162461bcd60e51b815260206004820181905260248201527f55736572206973206e6f74206f776e6572206f662074686973207469636b65746044820152606401610cee565b6000600e82815481106125df576125df6153bb565b60009182526020808320600492909202909101600301805460ff60a01b1916600160a01b94151594909402939093179092553380825260138352604091829020805460ff1916905590519081527f5dbab6b1e9ddd154d6eb51aa5622fb5278ea62a0b5f81d046a945d899490f6319101610e5f565b600480546040516370a0823160e01b81526001600160a01b0384811693820193909352600092839216906370a082319060240160206040518083038186803b15801561269f57600080fd5b505afa1580156126b3573d6000803e3d6000fd5b505050506040513d601f19601f820116820180604052508101906126d79190614ddb565b116126e157600080fd5b6001600160a01b03821660009081526010602052604090205460ff1661270657600080fd5b506001919050565b61271733613a38565b61276d5760405162461bcd60e51b815260206004820152602160248201527f55736572206973206e6f7420746865204f776e6572206f7220616e2041646d696044820152603760f91b6064820152608401610cee565b60005b8151811015610f0757600160106000848481518110612791576127916153bb565b6020908102919091018101516001600160a01b03168252810191909152604001600020805460ff1916911515919091179055806127cd8161534a565b915050612770565b6127de33613a38565b6128345760405162461bcd60e51b815260206004820152602160248201527f55736572206973206e6f7420746865204f776e6572206f7220616e2041646d696044820152603760f91b6064820152608401610cee565b6001600160a01b03166000908152601060205260409020805460ff19169055565b61285e33613a38565b6128b45760405162461bcd60e51b815260206004820152602160248201527f55736572206973206e6f7420746865204f776e6572206f7220616e2041646d696044820152603760f91b6064820152608401610cee565b600b8190556040518181527f06cd74aabc11982a85b554df4d7833623303656fe69bed4db1b0cb3245feebe390602001610e5f565b610f07338383614059565b336001600160a01b0316600d8381548110612911576129116153bb565b60009182526020909120600360049092020101546001600160a01b0316146129875760405162461bcd60e51b815260206004820152602360248201527f596f7520617265206e6f7420746865206f776e6572206f66207468697320697460448201526232b69760e91b6064820152608401610cee565b6000600d838154811061299c5761299c6153bb565b906000526020600020906004020160020154905081600d84815481106129c4576129c46153bb565b600091825260209182902060026004909202010191909155604080513381529182018590528101829052606081018390527fb141d00f22a670547caacc412e6489d8edaba6a840df558118363ce1a40d6ed290608001611af6565b336001600160a01b0316600d8281548110612a3c57612a3c6153bb565b60009182526020909120600360049092020101546001600160a01b031614612ab25760405162461bcd60e51b815260206004820152602360248201527f596f7520617265206e6f7420746865206f776e6572206f66207468697320697460448201526232b69760e91b6064820152608401610cee565b612acf303383600160405180602001604052806000815250613b02565b6001600d8281548110612ae457612ae46153bb565b60009182526020918290206003600490920201018054921515600160a01b0260ff60a01b1990931692909217909155604080513381529182018390527fc9cedcca3d85d6009a562a9e70071f6288adabda9ba7f059589165e75c9cf4049101610e5f565b60606000805b600e54811015612bf8576000600e8281548110612b6d57612b6d6153bb565b60009182526020918290206040805160a08101825260049093029091018054835260018082015494840194909452600281015491830191909152600301546001600160a01b038116606083015260ff600160a01b909104161515608082018190529092501415612be557612be2600184615239565b92505b5080612bf08161534a565b915050612b4e565b5060008167ffffffffffffffff811115612c1457612c146153d1565b604051908082528060200260200182016040528015612c8257816020015b612c6f6040518060a0016040528060008152602001600081526020016000815260200160006001600160a01b031681526020016000151581525090565b815260200190600190039081612c325790505b5090506000805b600e54811015612d52576000600e8281548110612ca857612ca86153bb565b60009182526020918290206040805160a08101825260049093029091018054835260018082015494840194909452600281015491830191909152600301546001600160a01b038116606083015260ff600160a01b909104161515608082018190529092501415612d3f5780848481518110612d2557612d256153bb565b60200260200101819052508280612d3b9061534a565b9350505b5080612d4a8161534a565b915050612c89565b50909392505050565b60606000805b600d54811015612e07576000600d8281548110612d8057612d806153bb565b60009182526020918290206040805160a0810182526004909302909101805483526001810154938301939093526002830154908201526003909101546001600160a01b038116606083015260ff600160a01b90910416151560808201819052909150612df457612df1600184615239565b92505b5080612dff8161534a565b915050612d61565b5060008167ffffffffffffffff811115612e2357612e236153d1565b604051908082528060200260200182016040528015612e9157816020015b612e7e6040518060a0016040528060008152602001600081526020016000815260200160006001600160a01b031681526020016000151581525090565b815260200190600190039081612e415790505b5090506000805b600d54811015612d52576000600d8281548110612eb757612eb76153bb565b60009182526020918290206040805160a0810182526004909302909101805483526001810154938301939093526002830154908201526003909101546001600160a01b038116606083015260ff600160a01b90910416151560808201819052909150612f4a5780848481518110612f3057612f306153bb565b60200260200101819052508280612f469061534a565b9350505b5080612f558161534a565b915050612e98565b6006546001600160a01b03163314612fb75760405162461bcd60e51b815260206004820152601560248201527f55736572206973206e6f7420746865206f776e657200000000000000000000006044820152606401610cee565b6005546040516370a0823160e01b81523060048201526000916001600160a01b0316906370a082319060240160206040518083038186803b158015612ffb57600080fd5b505afa15801561300f573d6000803e3d6000fd5b505050506040513d601f19601f820116820180604052508101906130339190614ddb565b116130805760405162461bcd60e51b815260206004820152601460248201527f4e6f2066756e647320746f2077697468647261770000000000000000000000006044820152606401610cee565b60055460405163a9059cbb60e01b81526001600160a01b038481166004830152602482018490529091169063a9059cbb90604401602060405180830381600087803b1580156130ce57600080fd5b505af11580156130e2573d6000803e3d6000fd5b505050506040513d601f19601f820116820180604052508101906112239190614d48565b6131436040518060a0016040528060008152602001600081526020016000815260200160006001600160a01b031681526020016000151581525090565b600d8281548110613156576131566153bb565b60009182526020918290206040805160a0810182526004909302909101805483526001810154938301939093526002830154908201526003909101546001600160a01b038116606083015260ff600160a01b909104161515608082015292915050565b60006131c48261414e565b6131cd57600080fd5b6000828152601160205260408120546007546131e99190615251565b9392505050565b60008281526003602052604090206001015461320b81613f20565b6112238383613fcc565b6132526040518060a0016040528060008152602001600081526020016000815260200160006001600160a01b031681526020016000151581525090565b600e8281548110613156576131566153bb565b61326e33613a38565b6132c45760405162461bcd60e51b815260206004820152602160248201527f55736572206973206e6f7420746865204f776e6572206f7220616e2041646d696044820152603760f91b6064820152608401610cee565b6000600c54610100900460ff1660018111156132e2576132e26153a5565b14156132f957600c805461ff001916610100179055565b600c805461ff0019169055565b6000600d828154811061331b5761331b6153bb565b60009182526020918290206040805160a081018252600493909302909101805483526001810154938301939093526002830154908201526003909101546001600160a01b03811660608301819052600160a01b90910460ff161515608083015290915033141561338a57600080fd5b60808101511561339957600080fd5b600554606082015160408084015190516323b872dd60e01b81523360048201526001600160a01b03928316602482015260448101919091529116906323b872dd90606401602060405180830381600087803b1580156133f757600080fd5b505af115801561340b573d6000803e3d6000fd5b505050506040513d601f19601f8201168201806040525081019061342f9190614d48565b5061345130338360000151600160405180602001604052806000815250613b02565b6001600d8381548110613466576134666153bb565b60009182526020918290206003600490920201018054921515600160a01b0260ff60a01b199093169290921790915560608083015160408085015181513381526001600160a01b03909316948301949094528101859052908101919091527f642067ff529c9b5b1162502fc8e8a3a91dda56e126a84f2fe38d341236231a8290608001611150565b6134f733612654565b6135695760405162461bcd60e51b815260206004820152603460248201527f55736572206973206e6f74205261636b734d656d62657273206f7220646f657360448201527f206e6f74206f776e732061204d7243727970746f0000000000000000000000006064820152608401610cee565b3360009081526013602052604090205460ff166135d75760405162461bcd60e51b815260206004820152602660248201527f55736572206973206e6f742063757272656e746c792073656c6c696e67206120604482015265151a58dad95d60d21b6064820152608401610cee565b336001600160a01b0316600e84815481106135f4576135f46153bb565b60009182526020909120600360049092020101546001600160a01b03161461365e5760405162461bcd60e51b815260206004820181905260248201527f55736572206973206e6f74206f776e6572206f662074686973207469636b65746044820152606401610cee565b80600e8481548110613672576136726153bb565b90600052602060002090600402016002018190555081600e848154811061369b5761369b6153bb565b6000918252602091829020600160049092020101919091556040805133815291820184905281018290527f4dfa55e7e1af9cb25343bfcd39c4bcb1f066d75ebe9b67988cf1496f06dedfef90606001611af6565b6001600160a01b03851633148061370b575061370b8533610ba4565b61377d5760405162461bcd60e51b815260206004820152602960248201527f455243313135353a2063616c6c6572206973206e6f74206f776e6572206e6f7260448201527f20617070726f76656400000000000000000000000000000000000000000000006064820152608401610cee565b6111f78585858585613b02565b6060600060085467ffffffffffffffff8111156137a9576137a96153d1565b6040519080825280602002602001820160405280156137d2578160200160208202803683370190505b50905060005b815181101561381a576137eb8482610c74565b8282815181106137fd576137fd6153bb565b6020908102919091010152806138128161534a565b9150506137d8565b5092915050565b60006001600160e01b031982167f7965db0b000000000000000000000000000000000000000000000000000000001480610d1a5750610d1a82614166565b6001600160a01b0383166138db5760405162461bcd60e51b815260206004820152602360248201527f455243313135353a206275726e2066726f6d20746865207a65726f206164647260448201527f65737300000000000000000000000000000000000000000000000000000000006064820152608401610cee565b3360006138e7846141a4565b905060006138f4846141a4565b60408051602080820183526000918290528882528181528282206001600160a01b038b16835290522054909150848110156139965760405162461bcd60e51b8152602060048201526024808201527f455243313135353a206275726e20616d6f756e7420657863656564732062616c60448201527f616e6365000000000000000000000000000000000000000000000000000000006064820152608401610cee565b6000868152602081815260408083206001600160a01b038b81168086529184528285208a8703905582518b81529384018a90529092908816917fc3d58168c5ae7397731d063d5bbf3d657854427343f4c083240f7aacaa2d0f62910160405180910390a46040805160208101909152600090525b50505050505050565b80600081518110613a2657613a266153bb565b6020026020010151600f819055505050565b6006546000906001600160a01b0383811691161480613a8e57506001600160a01b03821660009081527f3617319a054d772f909f7c479a2cebe5066e836a939412e32403c99029b92eff602052604090205460ff165b61270657600080fd5b613ab48260085483604051806020016040528060008152506141ef565b613acd6008548260009182526011602052604090912055565b8060076000828254613adf9190615239565b92505081905550600160086000828254613af99190615239565b90915550505050565b6001600160a01b038416613b665760405162461bcd60e51b815260206004820152602560248201527f455243313135353a207472616e7366657220746f20746865207a65726f206164604482015264647265737360d81b6064820152608401610cee565b336000613b72856141a4565b90506000613b7f856141a4565b90506000868152602081815260408083206001600160a01b038c16845290915290205485811015613c055760405162461bcd60e51b815260206004820152602a60248201527f455243313135353a20696e73756666696369656e742062616c616e636520666f60448201526939103a3930b739b332b960b11b6064820152608401610cee565b6000878152602081815260408083206001600160a01b038d8116855292528083208985039055908a16825281208054889290613c42908490615239565b909155505060408051888152602081018890526001600160a01b03808b16928c821692918816917fc3d58168c5ae7397731d063d5bbf3d657854427343f4c083240f7aacaa2d0f62910160405180910390a4613ca2848a8a8a8a8a614312565b505050505050505050565b8151835114613d245760405162461bcd60e51b815260206004820152602860248201527f455243313135353a2069647320616e6420616d6f756e7473206c656e6774682060448201527f6d69736d617463680000000000000000000000000000000000000000000000006064820152608401610cee565b6001600160a01b038416613d885760405162461bcd60e51b815260206004820152602560248201527f455243313135353a207472616e7366657220746f20746865207a65726f206164604482015264647265737360d81b6064820152608401610cee565b3360005b8451811015613eb2576000858281518110613da957613da96153bb565b602002602001015190506000858381518110613dc757613dc76153bb565b602090810291909101810151600084815280835260408082206001600160a01b038e168352909352919091205490915081811015613e5a5760405162461bcd60e51b815260206004820152602a60248201527f455243313135353a20696e73756666696369656e742062616c616e636520666f60448201526939103a3930b739b332b960b11b6064820152608401610cee565b6000838152602081815260408083206001600160a01b038e8116855292528083208585039055908b16825281208054849290613e97908490615239565b9250508190555050505080613eab9061534a565b9050613d8c565b50846001600160a01b0316866001600160a01b0316826001600160a01b03167f4a39dc06d4c0dbc64b70af90fd698a233a518aa5d07e595d983b8c0526c8f7fb8787604051613f02929190615168565b60405180910390a4613f188187878787876144c7565b505050505050565b610f7481336145d2565b60008281526003602090815260408083206001600160a01b038516845290915290205460ff16610f075760008281526003602090815260408083206001600160a01b03851684529091529020805460ff19166001179055613f883390565b6001600160a01b0316816001600160a01b0316837f2f8788117e7eff1d82e926ec794901d17c78024a50270940304540a733656f0d60405160405180910390a45050565b60008281526003602090815260408083206001600160a01b038516845290915290205460ff1615610f075760008281526003602090815260408083206001600160a01b0385168085529252808320805460ff1916905551339285917ff6391f5c32d9c69d2a47ea670b442974b53935d1edc7fd64eb21e047a839171b9190a45050565b610f078282613f2a565b816001600160a01b0316836001600160a01b031614156140e15760405162461bcd60e51b815260206004820152602960248201527f455243313135353a2073657474696e6720617070726f76616c2073746174757360448201527f20666f722073656c6600000000000000000000000000000000000000000000006064820152608401610cee565b6001600160a01b03838116600081815260016020908152604080832094871680845294825291829020805460ff191686151590811790915591519182527f17307eab39ab6107e8899845ad3d59bd9653f200f220920489ca2b5937696c31910160405180910390a3505050565b60008181526011602052604081205461270657600080fd5b60006001600160e01b031982167f4e2312e0000000000000000000000000000000000000000000000000000000001480610d1a5750610d1a82614652565b604080516001808252818301909252606091600091906020808301908036833701905050905082816000815181106141de576141de6153bb565b602090810291909101015292915050565b6001600160a01b03841661426b5760405162461bcd60e51b815260206004820152602160248201527f455243313135353a206d696e7420746f20746865207a65726f2061646472657360448201527f73000000000000000000000000000000000000000000000000000000000000006064820152608401610cee565b336000614277856141a4565b90506000614284856141a4565b90506000868152602081815260408083206001600160a01b038b168452909152812080548792906142b6908490615239565b909155505060408051878152602081018790526001600160a01b03808a1692600092918716917fc3d58168c5ae7397731d063d5bbf3d657854427343f4c083240f7aacaa2d0f62910160405180910390a4613a0a836000898989895b6001600160a01b0384163b15613f185760405163f23a6e6160e01b81526001600160a01b0385169063f23a6e61906143569089908990889088908890600401615016565b602060405180830381600087803b15801561437057600080fd5b505af19250505080156143a0575060408051601f3d908101601f1916820190925261439d91810190614dbe565b60015b614456576143ac6153e7565b806308c379a014156143e657506143c1615403565b806143cc57506143e8565b8060405162461bcd60e51b8152600401610cee91906151be565b505b60405162461bcd60e51b815260206004820152603460248201527f455243313135353a207472616e7366657220746f206e6f6e204552433131353560448201527f526563656976657220696d706c656d656e7465720000000000000000000000006064820152608401610cee565b6001600160e01b0319811663f23a6e6160e01b14613a0a5760405162461bcd60e51b815260206004820152602860248201527f455243313135353a204552433131353552656365697665722072656a656374656044820152676420746f6b656e7360c01b6064820152608401610cee565b6001600160a01b0384163b15613f185760405163bc197c8160e01b81526001600160a01b0385169063bc197c819061450b9089908990889088908890600401614fb8565b602060405180830381600087803b15801561452557600080fd5b505af1925050508015614555575060408051601f3d908101601f1916820190925261455291810190614dbe565b60015b614561576143ac6153e7565b6001600160e01b0319811663bc197c8160e01b14613a0a5760405162461bcd60e51b815260206004820152602860248201527f455243313135353a204552433131353552656365697665722072656a656374656044820152676420746f6b656e7360c01b6064820152608401610cee565b60008281526003602090815260408083206001600160a01b038516845290915290205460ff16610f0757614610816001600160a01b031660146146ed565b61461b8360206146ed565b60405160200161462c929190614f37565b60408051601f198184030181529082905262461bcd60e51b8252610cee916004016151be565b60006001600160e01b031982167fd9b67a260000000000000000000000000000000000000000000000000000000014806146b557506001600160e01b031982167f0e89341c00000000000000000000000000000000000000000000000000000000145b80610d1a57507f01ffc9a7000000000000000000000000000000000000000000000000000000006001600160e01b0319831614610d1a565b606060006146fc836002615265565b614707906002615239565b67ffffffffffffffff81111561471f5761471f6153d1565b6040519080825280601f01601f191660200182016040528015614749576020820181803683370190505b5090507f300000000000000000000000000000000000000000000000000000000000000081600081518110614780576147806153bb565b60200101906001600160f81b031916908160001a9053507f7800000000000000000000000000000000000000000000000000000000000000816001815181106147cb576147cb6153bb565b60200101906001600160f81b031916908160001a90535060006147ef846002615265565b6147fa906001615239565b90505b600181111561487f577f303132333435363738396162636465660000000000000000000000000000000085600f166010811061483b5761483b6153bb565b1a60f81b828281518110614851576148516153bb565b60200101906001600160f81b031916908160001a90535060049490941c93614878816152cb565b90506147fd565b5083156131e95760405162461bcd60e51b815260206004820181905260248201527f537472696e67733a20686578206c656e67746820696e73756666696369656e746044820152606401610cee565b8280546148da906152e2565b90600052602060002090601f0160209004810192826148fc5760008555614942565b82601f1061491557805160ff1916838001178555614942565b82800160010185558215614942579182015b82811115614942578251825591602001919060010190614927565b5061494e929150614952565b5090565b5b8082111561494e5760008155600101614953565b600067ffffffffffffffff831115614981576149816153d1565b604051614998601f8501601f19166020018261531d565b8091508381528484840111156149ad57600080fd5b83836020830137600060208583010152509392505050565b80356001600160a01b03811681146149dc57600080fd5b919050565b600082601f8301126149f257600080fd5b813560206149ff82615215565b604051614a0c828261531d565b8381528281019150858301600585901b87018401881015614a2c57600080fd5b60005b85811015614a5257614a40826149c5565b84529284019290840190600101614a2f565b5090979650505050505050565b600082601f830112614a7057600080fd5b81356020614a7d82615215565b604051614a8a828261531d565b8381528281019150858301600585901b87018401881015614aaa57600080fd5b60005b85811015614a5257813584529284019290840190600101614aad565b600082601f830112614ada57600080fd5b6131e983833560208501614967565b600060208284031215614afb57600080fd5b6131e9826149c5565b60008060408385031215614b1757600080fd5b614b20836149c5565b9150614b2e602084016149c5565b90509250929050565b600080600080600060a08688031215614b4f57600080fd5b614b58866149c5565b9450614b66602087016149c5565b9350604086013567ffffffffffffffff80821115614b8357600080fd5b614b8f89838a01614a5f565b94506060880135915080821115614ba557600080fd5b614bb189838a01614a5f565b93506080880135915080821115614bc757600080fd5b50614bd488828901614ac9565b9150509295509295909350565b600080600080600060a08688031215614bf957600080fd5b614c02866149c5565b9450614c10602087016149c5565b93506040860135925060608601359150608086013567ffffffffffffffff811115614c3a57600080fd5b614bd488828901614ac9565b60008060408385031215614c5957600080fd5b614c62836149c5565b91506020830135614c728161548d565b809150509250929050565b60008060408385031215614c9057600080fd5b614c99836149c5565b946020939093013593505050565b600060208284031215614cb957600080fd5b813567ffffffffffffffff811115614cd057600080fd5b614cdc848285016149e1565b949350505050565b60008060408385031215614cf757600080fd5b823567ffffffffffffffff80821115614d0f57600080fd5b614d1b868387016149e1565b93506020850135915080821115614d3157600080fd5b50614d3e85828601614a5f565b9150509250929050565b600060208284031215614d5a57600080fd5b81516131e98161548d565b600060208284031215614d7757600080fd5b5035919050565b60008060408385031215614d9157600080fd5b82359150614b2e602084016149c5565b600060208284031215614db357600080fd5b81356131e98161549b565b600060208284031215614dd057600080fd5b81516131e98161549b565b600060208284031215614ded57600080fd5b5051919050565b60008060408385031215614e0757600080fd5b82359150602083013567ffffffffffffffff811115614e2557600080fd5b614d3e85828601614a5f565b60008060408385031215614e4457600080fd5b82359150602083013567ffffffffffffffff811115614e6257600080fd5b8301601f81018513614e7357600080fd5b614d3e85823560208401614967565b60008060408385031215614e9557600080fd5b50508035926020909101359150565b600080600060608486031215614eb957600080fd5b505081359360208301359350604090920135919050565b600081518084526020808501945080840160005b83811015614f0057815187529582019590820190600101614ee4565b509495945050505050565b60008151808452614f2381602086016020860161529b565b601f01601f19169290920160200192915050565b7f416363657373436f6e74726f6c3a206163636f756e7420000000000000000000815260008351614f6f81601785016020880161529b565b7f206973206d697373696e6720726f6c65200000000000000000000000000000006017918401918201528351614fac81602884016020880161529b565b01602801949350505050565b60006001600160a01b03808816835280871660208401525060a06040830152614fe460a0830186614ed0565b8281036060840152614ff68186614ed0565b9050828103608084015261500a8185614f0b565b98975050505050505050565b60006001600160a01b03808816835280871660208401525084604083015283606083015260a0608083015261504e60a0830184614f0b565b979650505050505050565b6020808252825182820181905260009190848201906040850190845b818110156150d1576150be8385518051825260208101516020830152604081015160408301526001600160a01b0360608201511660608301526080810151151560808301525050565b9284019260a09290920191600101615075565b50909695505050505050565b6020808252825182820181905260009190848201906040850190845b818110156150d1576151428385518051825260208101516020830152604081015160408301526001600160a01b0360608201511660608301526080810151151560808301525050565b9284019260a092909201916001016150f9565b6020815260006131e96020830184614ed0565b60408152600061517b6040830185614ed0565b828103602084015261518d8185614ed0565b95945050505050565b60208101600283106151b857634e487b7160e01b600052602160045260246000fd5b91905290565b6020815260006131e96020830184614f0b565b60a08101610d1a82848051825260208101516020830152604081015160408301526001600160a01b0360608201511660608301526080810151151560808301525050565b600067ffffffffffffffff82111561522f5761522f6153d1565b5060051b60200190565b6000821982111561524c5761524c615379565b500190565b6000826152605761526061538f565b500490565b600081600019048311821515161561527f5761527f615379565b500290565b60008282101561529657615296615379565b500390565b60005b838110156152b657818101518382015260200161529e565b838111156152c5576000848401525b50505050565b6000816152da576152da615379565b506000190190565b600181811c908216806152f657607f821691505b6020821081141561531757634e487b7160e01b600052602260045260246000fd5b50919050565b601f8201601f1916810167ffffffffffffffff81118282101715615343576153436153d1565b6040525050565b600060001982141561535e5761535e615379565b5060010190565b6000826153745761537461538f565b500690565b634e487b7160e01b600052601160045260246000fd5b634e487b7160e01b600052601260045260246000fd5b634e487b7160e01b600052602160045260246000fd5b634e487b7160e01b600052603260045260246000fd5b634e487b7160e01b600052604160045260246000fd5b600060033d11156154005760046000803e5060005160e01c5b90565b600060443d10156154115790565b6040516003193d81016004833e81513d67ffffffffffffffff816024840111818411171561544157505050505090565b82850191508151818111156154595750505050505090565b843d87010160208285010111156154735750505050505090565b6154826020828601018761531d565b509095945050505050565b8015158114610f7457600080fd5b6001600160e01b031981168114610f7457600080fdfea2646970667358221220c6d31f5af279972356881410fef761111daba019152f897c6217a6fd5a8cd3c864736f6c63430008070033",
  "linkReferences": {},
  "deployedLinkReferences": {}
}