{
  "_format": "hh-sol-artifact-1",
  "contractName": "RacksItemsv4",
  "sourceName": "contracts/RacksItemsv4.sol",
  "abi": [
    {
      "inputs": [
        {
          "internalType": "address",
          "name": "vrfCoordinatorV2",
          "type": "address"
        },
        {
          "internalType": "bytes32",
          "name": "gasLane",
          "type": "bytes32"
        },
        {
          "internalType": "uint64",
          "name": "subscriptionId",
          "type": "uint64"
        },
        {
          "internalType": "uint32",
          "name": "callbackGasLimit",
          "type": "uint32"
        },
        {
          "internalType": "address",
          "name": "_racksTokenAddress",
          "type": "address"
        },
        {
          "internalType": "address",
          "name": "_MockMrCryptoAddress",
          "type": "address"
        }
      ],
      "stateMutability": "nonpayable",
      "type": "constructor"
    },
    {
      "inputs": [
        {
          "internalType": "address",
          "name": "have",
          "type": "address"
        },
        {
          "internalType": "address",
          "name": "want",
          "type": "address"
        }
      ],
      "name": "OnlyCoordinatorCanFulfill",
      "type": "error"
    },
    {
      "anonymous": false,
      "inputs": [
        {
          "indexed": true,
          "internalType": "address",
          "name": "account",
          "type": "address"
        },
        {
          "indexed": true,
          "internalType": "address",
          "name": "operator",
          "type": "address"
        },
        {
          "indexed": false,
          "internalType": "bool",
          "name": "approved",
          "type": "bool"
        }
      ],
      "name": "ApprovalForAll",
      "type": "event"
    },
    {
      "anonymous": false,
      "inputs": [
        {
          "indexed": false,
          "internalType": "address",
          "name": "user",
          "type": "address"
        },
        {
          "indexed": false,
          "internalType": "uint256",
          "name": "casePrice",
          "type": "uint256"
        },
        {
          "indexed": false,
          "internalType": "uint256",
          "name": "item",
          "type": "uint256"
        }
      ],
      "name": "CaseOpened",
      "type": "event"
    },
    {
      "anonymous": false,
      "inputs": [
        {
          "indexed": true,
          "internalType": "bytes32",
          "name": "role",
          "type": "bytes32"
        },
        {
          "indexed": true,
          "internalType": "bytes32",
          "name": "previousAdminRole",
          "type": "bytes32"
        },
        {
          "indexed": true,
          "internalType": "bytes32",
          "name": "newAdminRole",
          "type": "bytes32"
        }
      ],
      "name": "RoleAdminChanged",
      "type": "event"
    },
    {
      "anonymous": false,
      "inputs": [
        {
          "indexed": true,
          "internalType": "bytes32",
          "name": "role",
          "type": "bytes32"
        },
        {
          "indexed": true,
          "internalType": "address",
          "name": "account",
          "type": "address"
        },
        {
          "indexed": true,
          "internalType": "address",
          "name": "sender",
          "type": "address"
        }
      ],
      "name": "RoleGranted",
      "type": "event"
    },
    {
      "anonymous": false,
      "inputs": [
        {
          "indexed": true,
          "internalType": "bytes32",
          "name": "role",
          "type": "bytes32"
        },
        {
          "indexed": true,
          "internalType": "address",
          "name": "account",
          "type": "address"
        },
        {
          "indexed": true,
          "internalType": "address",
          "name": "sender",
          "type": "address"
        }
      ],
      "name": "RoleRevoked",
      "type": "event"
    },
    {
      "anonymous": false,
      "inputs": [
        {
          "indexed": true,
          "internalType": "address",
          "name": "operator",
          "type": "address"
        },
        {
          "indexed": true,
          "internalType": "address",
          "name": "from",
          "type": "address"
        },
        {
          "indexed": true,
          "internalType": "address",
          "name": "to",
          "type": "address"
        },
        {
          "indexed": false,
          "internalType": "uint256[]",
          "name": "ids",
          "type": "uint256[]"
        },
        {
          "indexed": false,
          "internalType": "uint256[]",
          "name": "values",
          "type": "uint256[]"
        }
      ],
      "name": "TransferBatch",
      "type": "event"
    },
    {
      "anonymous": false,
      "inputs": [
        {
          "indexed": true,
          "internalType": "address",
          "name": "operator",
          "type": "address"
        },
        {
          "indexed": true,
          "internalType": "address",
          "name": "from",
          "type": "address"
        },
        {
          "indexed": true,
          "internalType": "address",
          "name": "to",
          "type": "address"
        },
        {
          "indexed": false,
          "internalType": "uint256",
          "name": "id",
          "type": "uint256"
        },
        {
          "indexed": false,
          "internalType": "uint256",
          "name": "value",
          "type": "uint256"
        }
      ],
      "name": "TransferSingle",
      "type": "event"
    },
    {
      "anonymous": false,
      "inputs": [
        {
          "indexed": false,
          "internalType": "string",
          "name": "value",
          "type": "string"
        },
        {
          "indexed": true,
          "internalType": "uint256",
          "name": "id",
          "type": "uint256"
        }
      ],
      "name": "URI",
      "type": "event"
    },
    {
      "anonymous": false,
      "inputs": [
        {
          "indexed": false,
          "internalType": "uint256",
          "name": "newPrice",
          "type": "uint256"
        }
      ],
      "name": "casePriceChanged",
      "type": "event"
    },
    {
      "anonymous": false,
      "inputs": [
        {
          "indexed": false,
          "internalType": "address",
          "name": "buyer",
          "type": "address"
        },
        {
          "indexed": false,
          "internalType": "address",
          "name": "seller",
          "type": "address"
        },
        {
          "indexed": false,
          "internalType": "uint256",
          "name": "marketItemId",
          "type": "uint256"
        },
        {
          "indexed": false,
          "internalType": "uint256",
          "name": "price",
          "type": "uint256"
        }
      ],
      "name": "itemBought",
      "type": "event"
    },
    {
      "anonymous": false,
      "inputs": [
        {
          "indexed": false,
          "internalType": "address",
          "name": "user",
          "type": "address"
        },
        {
          "indexed": false,
          "internalType": "uint256",
          "name": "tokenId",
          "type": "uint256"
        }
      ],
      "name": "itemExchanged",
      "type": "event"
    },
    {
      "anonymous": false,
      "inputs": [
        {
          "indexed": false,
          "internalType": "address",
          "name": "owner",
          "type": "address"
        },
        {
          "indexed": false,
          "internalType": "uint256",
          "name": "marketItemId",
          "type": "uint256"
        },
        {
          "indexed": false,
          "internalType": "uint256",
          "name": "oldPrice",
          "type": "uint256"
        },
        {
          "indexed": false,
          "internalType": "uint256",
          "name": "newPrice",
          "type": "uint256"
        }
      ],
      "name": "itemPriceChanged",
      "type": "event"
    },
    {
      "anonymous": false,
      "inputs": [
        {
          "indexed": false,
          "internalType": "address",
          "name": "seller",
          "type": "address"
        },
        {
          "indexed": false,
          "internalType": "uint256",
          "name": "numTries",
          "type": "uint256"
        },
        {
          "indexed": false,
          "internalType": "uint256",
          "name": "_hours",
          "type": "uint256"
        },
        {
          "indexed": false,
          "internalType": "uint256",
          "name": "price",
          "type": "uint256"
        }
      ],
      "name": "newTicketOnSale",
      "type": "event"
    },
    {
      "anonymous": false,
      "inputs": [
        {
          "indexed": false,
          "internalType": "address",
          "name": "user",
          "type": "address"
        },
        {
          "indexed": false,
          "internalType": "uint256",
          "name": "tokenId",
          "type": "uint256"
        },
        {
          "indexed": false,
          "internalType": "uint256",
          "name": "price",
          "type": "uint256"
        }
      ],
      "name": "sellingItem",
      "type": "event"
    },
    {
      "anonymous": false,
      "inputs": [
        {
          "indexed": false,
          "internalType": "uint256",
          "name": "ticketId",
          "type": "uint256"
        },
        {
          "indexed": false,
          "internalType": "address",
          "name": "oldOwner",
          "type": "address"
        },
        {
          "indexed": false,
          "internalType": "address",
          "name": "newOwner",
          "type": "address"
        },
        {
          "indexed": false,
          "internalType": "uint256",
          "name": "price",
          "type": "uint256"
        }
      ],
      "name": "ticketBought",
      "type": "event"
    },
    {
      "anonymous": false,
      "inputs": [
        {
          "indexed": false,
          "internalType": "address",
          "name": "borrower",
          "type": "address"
        },
        {
          "indexed": false,
          "internalType": "address",
          "name": "realOwner",
          "type": "address"
        }
      ],
      "name": "ticketClaimedBack",
      "type": "event"
    },
    {
      "anonymous": false,
      "inputs": [
        {
          "indexed": false,
          "internalType": "address",
          "name": "owner",
          "type": "address"
        },
        {
          "indexed": false,
          "internalType": "uint256",
          "name": "newTries",
          "type": "uint256"
        },
        {
          "indexed": false,
          "internalType": "uint256",
          "name": "newHours",
          "type": "uint256"
        },
        {
          "indexed": false,
          "internalType": "uint256",
          "name": "newPrice",
          "type": "uint256"
        }
      ],
      "name": "ticketConditionsChanged",
      "type": "event"
    },
    {
      "anonymous": false,
      "inputs": [
        {
          "indexed": false,
          "internalType": "address",
          "name": "owner",
          "type": "address"
        }
      ],
      "name": "unListTicketOnSale",
      "type": "event"
    },
    {
      "anonymous": false,
      "inputs": [
        {
          "indexed": false,
          "internalType": "address",
          "name": "owner",
          "type": "address"
        },
        {
          "indexed": false,
          "internalType": "uint256",
          "name": "marketItemId",
          "type": "uint256"
        }
      ],
      "name": "unListedItem",
      "type": "event"
    },
    {
      "inputs": [],
      "name": "ADMIN_ROLE",
      "outputs": [
        {
          "internalType": "bytes32",
          "name": "",
          "type": "bytes32"
        }
      ],
      "stateMutability": "view",
      "type": "function"
    },
    {
      "inputs": [],
      "name": "DEFAULT_ADMIN_ROLE",
      "outputs": [
        {
          "internalType": "bytes32",
          "name": "",
          "type": "bytes32"
        }
      ],
      "stateMutability": "view",
      "type": "function"
    },
    {
      "inputs": [],
      "name": "NUM_WORDS",
      "outputs": [
        {
          "internalType": "uint32",
          "name": "",
          "type": "uint32"
        }
      ],
      "stateMutability": "view",
      "type": "function"
    },
    {
      "inputs": [],
      "name": "REQUEST_CONFIRMATIONS",
      "outputs": [
        {
          "internalType": "uint16",
          "name": "",
          "type": "uint16"
        }
      ],
      "stateMutability": "view",
      "type": "function"
    },
    {
      "inputs": [],
      "name": "_randomNumber",
      "outputs": [
        {
          "internalType": "uint256",
          "name": "",
          "type": "uint256"
        }
      ],
      "stateMutability": "nonpayable",
      "type": "function"
    },
    {
      "inputs": [
        {
          "internalType": "uint256",
          "name": "tokenId",
          "type": "uint256"
        }
      ],
      "name": "_rarityOfItem",
      "outputs": [
        {
          "internalType": "uint256",
          "name": "",
          "type": "uint256"
        }
      ],
      "stateMutability": "view",
      "type": "function"
    },
    {
      "inputs": [
        {
          "internalType": "address",
          "name": "account",
          "type": "address"
        },
        {
          "internalType": "uint256",
          "name": "id",
          "type": "uint256"
        }
      ],
      "name": "balanceOf",
      "outputs": [
        {
          "internalType": "uint256",
          "name": "",
          "type": "uint256"
        }
      ],
      "stateMutability": "view",
      "type": "function"
    },
    {
      "inputs": [
        {
          "internalType": "address[]",
          "name": "accounts",
          "type": "address[]"
        },
        {
          "internalType": "uint256[]",
          "name": "ids",
          "type": "uint256[]"
        }
      ],
      "name": "balanceOfBatch",
      "outputs": [
        {
          "internalType": "uint256[]",
          "name": "",
          "type": "uint256[]"
        }
      ],
      "stateMutability": "view",
      "type": "function"
    },
    {
      "inputs": [
        {
          "internalType": "uint256",
          "name": "marketItemId",
          "type": "uint256"
        }
      ],
      "name": "buyItem",
      "outputs": [],
      "stateMutability": "nonpayable",
      "type": "function"
    },
    {
      "inputs": [
        {
          "internalType": "uint256",
          "name": "ticketId",
          "type": "uint256"
        }
      ],
      "name": "buyTicket",
      "outputs": [],
      "stateMutability": "nonpayable",
      "type": "function"
    },
    {
      "inputs": [],
      "name": "caseLiquidity",
      "outputs": [
        {
          "internalType": "uint256[]",
          "name": "",
          "type": "uint256[]"
        }
      ],
      "stateMutability": "view",
      "type": "function"
    },
    {
      "inputs": [],
      "name": "casePrice",
      "outputs": [
        {
          "internalType": "uint256",
          "name": "",
          "type": "uint256"
        }
      ],
      "stateMutability": "view",
      "type": "function"
    },
    {
      "inputs": [
        {
          "internalType": "uint256",
          "name": "marketItemId",
          "type": "uint256"
        },
        {
          "internalType": "uint256",
          "name": "newPrice",
          "type": "uint256"
        }
      ],
      "name": "changeItemPrice",
      "outputs": [],
      "stateMutability": "nonpayable",
      "type": "function"
    },
    {
      "inputs": [
        {
          "internalType": "uint256",
          "name": "ticketId",
          "type": "uint256"
        },
        {
          "internalType": "uint256",
          "name": "newTries",
          "type": "uint256"
        },
        {
          "internalType": "uint256",
          "name": "newHours",
          "type": "uint256"
        },
        {
          "internalType": "uint256",
          "name": "newPrice",
          "type": "uint256"
        }
      ],
      "name": "changeTicketConditions",
      "outputs": [],
      "stateMutability": "nonpayable",
      "type": "function"
    },
    {
      "inputs": [
        {
          "internalType": "uint256",
          "name": "ticketId",
          "type": "uint256"
        }
      ],
      "name": "claimTicketBack",
      "outputs": [],
      "stateMutability": "nonpayable",
      "type": "function"
    },
    {
      "inputs": [],
      "name": "contractActive",
      "outputs": [
        {
          "internalType": "bool",
          "name": "",
          "type": "bool"
        }
      ],
      "stateMutability": "view",
      "type": "function"
    },
    {
      "inputs": [
        {
          "internalType": "uint256",
          "name": "tokenId",
          "type": "uint256"
        }
      ],
      "name": "exchangeItem",
      "outputs": [],
      "stateMutability": "nonpayable",
      "type": "function"
    },
    {
      "inputs": [],
      "name": "flipContractState",
      "outputs": [],
      "stateMutability": "nonpayable",
      "type": "function"
    },
    {
      "inputs": [],
      "name": "getCasePrice",
      "outputs": [
        {
          "internalType": "uint256",
          "name": "",
          "type": "uint256"
        }
      ],
      "stateMutability": "view",
      "type": "function"
    },
    {
      "inputs": [],
      "name": "getITicketsOnSale",
      "outputs": [
        {
          "components": [
            {
              "internalType": "uint256",
              "name": "ticketId",
              "type": "uint256"
            },
            {
              "internalType": "uint256",
              "name": "numTries",
              "type": "uint256"
            },
            {
              "internalType": "uint256",
              "name": "duration",
              "type": "uint256"
            },
            {
              "internalType": "uint256",
              "name": "price",
              "type": "uint256"
            },
            {
              "internalType": "address",
              "name": "owner",
              "type": "address"
            },
            {
              "internalType": "uint256",
              "name": "timeWhenSold",
              "type": "uint256"
            },
            {
              "internalType": "bool",
              "name": "isAvaliable",
              "type": "bool"
            }
          ],
          "internalType": "struct IRacksItems.caseTicket[]",
          "name": "",
          "type": "tuple[]"
        }
      ],
      "stateMutability": "view",
      "type": "function"
    },
    {
      "inputs": [],
      "name": "getItemsOnSale",
      "outputs": [
        {
          "components": [
            {
              "internalType": "uint256",
              "name": "tokenId",
              "type": "uint256"
            },
            {
              "internalType": "uint256",
              "name": "marketItemId",
              "type": "uint256"
            },
            {
              "internalType": "uint256",
              "name": "price",
              "type": "uint256"
            },
            {
              "internalType": "address",
              "name": "itemOwner",
              "type": "address"
            },
            {
              "internalType": "bool",
              "name": "isOnSale",
              "type": "bool"
            }
          ],
          "internalType": "struct IRacksItems.itemOnSale[]",
          "name": "",
          "type": "tuple[]"
        }
      ],
      "stateMutability": "view",
      "type": "function"
    },
    {
      "inputs": [
        {
          "internalType": "uint256",
          "name": "marketItemId",
          "type": "uint256"
        }
      ],
      "name": "getMarketItem",
      "outputs": [
        {
          "components": [
            {
              "internalType": "uint256",
              "name": "tokenId",
              "type": "uint256"
            },
            {
              "internalType": "uint256",
              "name": "marketItemId",
              "type": "uint256"
            },
            {
              "internalType": "uint256",
              "name": "price",
              "type": "uint256"
            },
            {
              "internalType": "address",
              "name": "itemOwner",
              "type": "address"
            },
            {
              "internalType": "bool",
              "name": "isOnSale",
              "type": "bool"
            }
          ],
          "internalType": "struct IRacksItems.itemOnSale",
          "name": "",
          "type": "tuple"
        }
      ],
      "stateMutability": "view",
      "type": "function"
    },
    {
      "inputs": [
        {
          "internalType": "uint256",
          "name": "ticketId",
          "type": "uint256"
        }
      ],
      "name": "getMarketTicket",
      "outputs": [
        {
          "components": [
            {
              "internalType": "uint256",
              "name": "ticketId",
              "type": "uint256"
            },
            {
              "internalType": "uint256",
              "name": "numTries",
              "type": "uint256"
            },
            {
              "internalType": "uint256",
              "name": "duration",
              "type": "uint256"
            },
            {
              "internalType": "uint256",
              "name": "price",
              "type": "uint256"
            },
            {
              "internalType": "address",
              "name": "owner",
              "type": "address"
            },
            {
              "internalType": "uint256",
              "name": "timeWhenSold",
              "type": "uint256"
            },
            {
              "internalType": "bool",
              "name": "isAvaliable",
              "type": "bool"
            }
          ],
          "internalType": "struct IRacksItems.caseTicket",
          "name": "",
          "type": "tuple"
        }
      ],
      "stateMutability": "view",
      "type": "function"
    },
    {
      "inputs": [
        {
          "internalType": "bytes32",
          "name": "role",
          "type": "bytes32"
        }
      ],
      "name": "getRoleAdmin",
      "outputs": [
        {
          "internalType": "bytes32",
          "name": "",
          "type": "bytes32"
        }
      ],
      "stateMutability": "view",
      "type": "function"
    },
    {
      "inputs": [
        {
          "internalType": "uint256",
          "name": "ticketId",
          "type": "uint256"
        }
      ],
      "name": "getTicketDurationLeft",
      "outputs": [
        {
          "internalType": "address",
          "name": "",
          "type": "address"
        },
        {
          "internalType": "uint256",
          "name": "",
          "type": "uint256"
        },
        {
          "internalType": "bool",
          "name": "",
          "type": "bool"
        }
      ],
      "stateMutability": "view",
      "type": "function"
    },
    {
      "inputs": [
        {
          "internalType": "bytes32",
          "name": "role",
          "type": "bytes32"
        },
        {
          "internalType": "address",
          "name": "account",
          "type": "address"
        }
      ],
      "name": "grantRole",
      "outputs": [],
      "stateMutability": "nonpayable",
      "type": "function"
    },
    {
      "inputs": [
        {
          "internalType": "bytes32",
          "name": "role",
          "type": "bytes32"
        },
        {
          "internalType": "address",
          "name": "account",
          "type": "address"
        }
      ],
      "name": "hasRole",
      "outputs": [
        {
          "internalType": "bool",
          "name": "",
          "type": "bool"
        }
      ],
      "stateMutability": "view",
      "type": "function"
    },
    {
      "inputs": [],
      "name": "i_callbackGasLimit",
      "outputs": [
        {
          "internalType": "uint32",
          "name": "",
          "type": "uint32"
        }
      ],
      "stateMutability": "view",
      "type": "function"
    },
    {
      "inputs": [],
      "name": "i_gasLane",
      "outputs": [
        {
          "internalType": "bytes32",
          "name": "",
          "type": "bytes32"
        }
      ],
      "stateMutability": "view",
      "type": "function"
    },
    {
      "inputs": [],
      "name": "i_subscriptionId",
      "outputs": [
        {
          "internalType": "uint64",
          "name": "",
          "type": "uint64"
        }
      ],
      "stateMutability": "view",
      "type": "function"
    },
    {
      "inputs": [],
      "name": "i_vrfCoordinator",
      "outputs": [
        {
          "internalType": "contract VRFCoordinatorV2Interface",
          "name": "",
          "type": "address"
        }
      ],
      "stateMutability": "view",
      "type": "function"
    },
    {
      "inputs": [
        {
          "internalType": "address",
          "name": "account",
          "type": "address"
        },
        {
          "internalType": "address",
          "name": "operator",
          "type": "address"
        }
      ],
      "name": "isApprovedForAll",
      "outputs": [
        {
          "internalType": "bool",
          "name": "",
          "type": "bool"
        }
      ],
      "stateMutability": "view",
      "type": "function"
    },
    {
      "inputs": [
        {
          "internalType": "address",
          "name": "user",
          "type": "address"
        }
      ],
      "name": "isVip",
      "outputs": [
        {
          "internalType": "bool",
          "name": "",
          "type": "bool"
        }
      ],
      "stateMutability": "view",
      "type": "function"
    },
    {
      "inputs": [
        {
          "internalType": "uint256",
          "name": "itemSupply",
          "type": "uint256"
        }
      ],
      "name": "listItem",
      "outputs": [],
      "stateMutability": "nonpayable",
      "type": "function"
    },
    {
      "inputs": [
        {
          "internalType": "uint256",
          "name": "marketItemId",
          "type": "uint256"
        },
        {
          "internalType": "uint256",
          "name": "price",
          "type": "uint256"
        }
      ],
      "name": "listItemOnMarket",
      "outputs": [],
      "stateMutability": "nonpayable",
      "type": "function"
    },
    {
      "inputs": [
        {
          "internalType": "uint256",
          "name": "numTries",
          "type": "uint256"
        },
        {
          "internalType": "uint256",
          "name": "_hours",
          "type": "uint256"
        },
        {
          "internalType": "uint256",
          "name": "price",
          "type": "uint256"
        }
      ],
      "name": "listTicket",
      "outputs": [],
      "stateMutability": "nonpayable",
      "type": "function"
    },
    {
      "inputs": [
        {
          "internalType": "address",
          "name": "",
          "type": "address"
        },
        {
          "internalType": "address",
          "name": "",
          "type": "address"
        },
        {
          "internalType": "uint256[]",
          "name": "",
          "type": "uint256[]"
        },
        {
          "internalType": "uint256[]",
          "name": "",
          "type": "uint256[]"
        },
        {
          "internalType": "bytes",
          "name": "",
          "type": "bytes"
        }
      ],
      "name": "onERC1155BatchReceived",
      "outputs": [
        {
          "internalType": "bytes4",
          "name": "",
          "type": "bytes4"
        }
      ],
      "stateMutability": "nonpayable",
      "type": "function"
    },
    {
      "inputs": [
        {
          "internalType": "address",
          "name": "",
          "type": "address"
        },
        {
          "internalType": "address",
          "name": "",
          "type": "address"
        },
        {
          "internalType": "uint256",
          "name": "",
          "type": "uint256"
        },
        {
          "internalType": "uint256",
          "name": "",
          "type": "uint256"
        },
        {
          "internalType": "bytes",
          "name": "",
          "type": "bytes"
        }
      ],
      "name": "onERC1155Received",
      "outputs": [
        {
          "internalType": "bytes4",
          "name": "",
          "type": "bytes4"
        }
      ],
      "stateMutability": "nonpayable",
      "type": "function"
    },
    {
      "inputs": [],
      "name": "openCase",
      "outputs": [],
      "stateMutability": "nonpayable",
      "type": "function"
    },
    {
      "inputs": [
        {
          "internalType": "uint256",
          "name": "requestId",
          "type": "uint256"
        },
        {
          "internalType": "uint256[]",
          "name": "randomWords",
          "type": "uint256[]"
        }
      ],
      "name": "rawFulfillRandomWords",
      "outputs": [],
      "stateMutability": "nonpayable",
      "type": "function"
    },
    {
      "inputs": [
        {
          "internalType": "bytes32",
          "name": "role",
          "type": "bytes32"
        },
        {
          "internalType": "address",
          "name": "account",
          "type": "address"
        }
      ],
      "name": "renounceRole",
      "outputs": [],
      "stateMutability": "nonpayable",
      "type": "function"
    },
    {
      "inputs": [
        {
          "internalType": "bytes32",
          "name": "role",
          "type": "bytes32"
        },
        {
          "internalType": "address",
          "name": "account",
          "type": "address"
        }
      ],
      "name": "revokeRole",
      "outputs": [],
      "stateMutability": "nonpayable",
      "type": "function"
    },
    {
      "inputs": [],
      "name": "s_contractState",
      "outputs": [
        {
          "internalType": "enum RacksItemsv4.ContractState",
          "name": "",
          "type": "uint8"
        }
      ],
      "stateMutability": "view",
      "type": "function"
    },
    {
      "inputs": [],
      "name": "s_randomWord",
      "outputs": [
        {
          "internalType": "uint256",
          "name": "",
          "type": "uint256"
        }
      ],
      "stateMutability": "view",
      "type": "function"
    },
    {
      "inputs": [
        {
          "internalType": "address",
          "name": "from",
          "type": "address"
        },
        {
          "internalType": "address",
          "name": "to",
          "type": "address"
        },
        {
          "internalType": "uint256[]",
          "name": "ids",
          "type": "uint256[]"
        },
        {
          "internalType": "uint256[]",
          "name": "amounts",
          "type": "uint256[]"
        },
        {
          "internalType": "bytes",
          "name": "data",
          "type": "bytes"
        }
      ],
      "name": "safeBatchTransferFrom",
      "outputs": [],
      "stateMutability": "nonpayable",
      "type": "function"
    },
    {
      "inputs": [
        {
          "internalType": "address",
          "name": "from",
          "type": "address"
        },
        {
          "internalType": "address",
          "name": "to",
          "type": "address"
        },
        {
          "internalType": "uint256",
          "name": "id",
          "type": "uint256"
        },
        {
          "internalType": "uint256",
          "name": "amount",
          "type": "uint256"
        },
        {
          "internalType": "bytes",
          "name": "data",
          "type": "bytes"
        }
      ],
      "name": "safeTransferFrom",
      "outputs": [],
      "stateMutability": "nonpayable",
      "type": "function"
    },
    {
      "inputs": [
        {
          "internalType": "address",
          "name": "_newAdmin",
          "type": "address"
        }
      ],
      "name": "setAdmin",
      "outputs": [],
      "stateMutability": "nonpayable",
      "type": "function"
    },
    {
      "inputs": [
        {
          "internalType": "address",
          "name": "operator",
          "type": "address"
        },
        {
          "internalType": "bool",
          "name": "approved",
          "type": "bool"
        }
      ],
      "name": "setApprovalForAll",
      "outputs": [],
      "stateMutability": "nonpayable",
      "type": "function"
    },
    {
      "inputs": [
        {
          "internalType": "uint256",
          "name": "price",
          "type": "uint256"
        }
      ],
      "name": "setCasePrice",
      "outputs": [],
      "stateMutability": "nonpayable",
      "type": "function"
    },
    {
      "inputs": [
        {
          "internalType": "uint256",
          "name": "tokenId",
          "type": "uint256"
        },
        {
          "internalType": "string",
          "name": "_uri",
          "type": "string"
        }
      ],
      "name": "setTokenUri",
      "outputs": [],
      "stateMutability": "nonpayable",
      "type": "function"
    },
    {
      "inputs": [
        {
          "internalType": "uint256",
          "name": "tokenId",
          "type": "uint256"
        }
      ],
      "name": "supplyOfItem",
      "outputs": [
        {
          "internalType": "uint256",
          "name": "",
          "type": "uint256"
        }
      ],
      "stateMutability": "view",
      "type": "function"
    },
    {
      "inputs": [
        {
          "internalType": "bytes4",
          "name": "interfaceId",
          "type": "bytes4"
        }
      ],
      "name": "supportsInterface",
      "outputs": [
        {
          "internalType": "bool",
          "name": "",
          "type": "bool"
        }
      ],
      "stateMutability": "view",
      "type": "function"
    },
    {
      "inputs": [
        {
          "internalType": "uint256",
          "name": "marketItemId",
          "type": "uint256"
        }
      ],
      "name": "unListItem",
      "outputs": [],
      "stateMutability": "nonpayable",
      "type": "function"
    },
    {
      "inputs": [
        {
          "internalType": "uint256",
          "name": "ticketId",
          "type": "uint256"
        }
      ],
      "name": "unListTicket",
      "outputs": [],
      "stateMutability": "nonpayable",
      "type": "function"
    },
    {
      "inputs": [
        {
          "internalType": "uint256",
          "name": "tokenId",
          "type": "uint256"
        }
      ],
      "name": "uri",
      "outputs": [
        {
          "internalType": "string",
          "name": "",
          "type": "string"
        }
      ],
      "stateMutability": "view",
      "type": "function"
    },
    {
      "inputs": [
        {
          "internalType": "address",
          "name": "owner",
          "type": "address"
        }
      ],
      "name": "viewItems",
      "outputs": [
        {
          "internalType": "uint256[]",
          "name": "",
          "type": "uint256[]"
        }
      ],
      "stateMutability": "view",
      "type": "function"
    },
    {
      "inputs": [
        {
          "internalType": "address",
          "name": "wallet",
          "type": "address"
        }
      ],
      "name": "withdrawAllFunds",
      "outputs": [],
      "stateMutability": "nonpayable",
      "type": "function"
    },
    {
      "inputs": [
        {
          "internalType": "address",
          "name": "wallet",
          "type": "address"
        },
        {
          "internalType": "uint256",
          "name": "amount",
          "type": "uint256"
        }
      ],
      "name": "withdrawFunds",
      "outputs": [],
      "stateMutability": "nonpayable",
      "type": "function"
    },
    {
      "stateMutability": "payable",
      "type": "receive"
    }
  ],
  "bytecode": "0x610120604052600c805460ff191660011790553480156200001f57600080fd5b5060405162005e1938038062005e198339810160408190526200004291620001de565b60408051602081019091526000815286906200005e8162000102565b506001600160601b0319606091821b811660805296901b90951660a05260c09384526001600160c01b03199290931b9190911660e09081526001600160e01b031991901b1661010052600480546001600160a01b039384166001600160a01b0319918216179091556005805493909216928116929092179055600680549091163317905560006008819055600a556001600b55600c805461ff0019169055620002ac565b8051620001179060029060208401906200011b565b5050565b82805462000129906200026f565b90600052602060002090601f0160209004810192826200014d576000855562000198565b82601f106200016857805160ff191683800117855562000198565b8280016001018555821562000198579182015b82811115620001985782518255916020019190600101906200017b565b50620001a6929150620001aa565b5090565b5b80821115620001a65760008155600101620001ab565b80516001600160a01b0381168114620001d957600080fd5b919050565b60008060008060008060c08789031215620001f857600080fd5b6200020387620001c1565b6020880151604089015191975095506001600160401b03811681146200022857600080fd5b606088015190945063ffffffff811681146200024357600080fd5b92506200025360808801620001c1565b91506200026360a08801620001c1565b90509295509295509295565b600181811c908216806200028457607f821691505b60208210811415620002a657634e487b7160e01b600052602260045260246000fd5b50919050565b60805160601c60a05160601c60c05160e05160c01c6101005160e01c615af962000320600039600081816109f90152611d200152600081816105780152611ced0152600081816107620152611cbf01526000818161082b0152611d5b015260008181611432015261145a0152615af96000f3fe6080604052600436106103045760003560e01c80638e879c8a11610191578063c7be7a49116100e2578063de08f65311610090578063de08f65314610a48578063e289fcb614610a5d578063e7fb74c714610a77578063e985e9c514610a97578063f23a6e6114610ab7578063f242432a14610ae3578063f48c9d3414610b03578063fd210fd914610b2357600080fd5b8063c7be7a491461094f578063c7e05f8d1461097c578063ca90958f1461099c578063d3c115f2146109b2578063d547741f146109c7578063d757d027146109e7578063dd006d3114610a1b57600080fd5b8063aebc45501161013f578063aebc455014610819578063b2ead3c71461085a578063b63b86121461087c578063b85e67af146108a8578063bbcbc2e7146108c8578063bc197c81146108ea578063c10753291461092f57600080fd5b80638e879c8a1461075057806391d1485414610784578063976298f3146107a4578063a217fddf146106db578063a22cb465146107b9578063a7b19424146107d9578063a7bc77c6146107f957600080fd5b806336568abe1161025657806367dd74ca1161020457806367dd74ca1461064957806367f082b014610669578063704b6c021461069157806372cf6e34146106b157806375b238fc146106db5780637e420db5146106f057806384203f4b146107105780638dc5f45b1461073057600080fd5b806336568abe14610546578063470cdf97146105665780634a226657146105b25780634e1273f4146105c757806357f7789e146105f4578063616524501461061457806361c073d61461062957600080fd5b80631fe543e3116102b35780631fe543e31461044957806320ba081414610469578063248a9ca3146104965780632ce38190146104c65780632eb2c2d6146104e65780632f2ff15d1461050657806332dee40b1461052657600080fd5b8062fdd58e1461031057806301ffc9a714610343578063020f1980146103735780630e89341c1461039557806319c08575146103c25780631c7cbe4f146104095780631cb0b2731461042957600080fd5b3661030b57005b600080fd5b34801561031c57600080fd5b5061033061032b366004614f17565b610b39565b6040519081526020015b60405180910390f35b34801561034f57600080fd5b5061036361035e36600461506a565b610bd3565b604051901515815260200161033a565b34801561037f57600080fd5b5061039361038e366004615149565b610bde565b005b3480156103a157600080fd5b506103b56103b036600461502e565b610e59565b60405161033a9190615571565b3480156103ce57600080fd5b506103e26103dd36600461502e565b610efb565b604080516001600160a01b039094168452602084019290925215159082015260600161033a565b34801561041557600080fd5b50610393610424366004615197565b611221565b34801561043557600080fd5b5061039361044436600461502e565b61138a565b34801561045557600080fd5b506103936104643660046150bd565b611427565b34801561047557600080fd5b5061033061048436600461502e565b60009081526010602052604090205490565b3480156104a257600080fd5b506103306104b136600461502e565b60009081526003602052604090206001015490565b3480156104d257600080fd5b506103936104e136600461502e565b6114a2565b3480156104f257600080fd5b50610393610501366004614dd3565b6114d4565b34801561051257600080fd5b50610393610521366004615047565b61156b565b34801561053257600080fd5b50610393610541366004614d85565b611595565b34801561055257600080fd5b50610393610561366004615047565b611756565b34801561057257600080fd5b5061059a7f000000000000000000000000000000000000000000000000000000000000000081565b6040516001600160401b03909116815260200161033a565b3480156105be57600080fd5b506103936117d0565b3480156105d357600080fd5b506105e76105e2366004614f41565b611ae3565b60405161033a9190615508565b34801561060057600080fd5b5061039361060f3660046150f9565b611c0c565b34801561062057600080fd5b50610330611cb0565b34801561063557600080fd5b5061039361064436600461502e565b611dd7565b34801561065557600080fd5b5061039361066436600461502e565b612126565b34801561067557600080fd5b5061067e600381565b60405161ffff909116815260200161033a565b34801561069d57600080fd5b506103936106ac366004614d85565b6125ef565b3480156106bd57600080fd5b506106c6600281565b60405163ffffffff909116815260200161033a565b3480156106e757600080fd5b50610330600081565b3480156106fc57600080fd5b5061039361070b36600461502e565b612624565b34801561071c57600080fd5b5061036361072b366004614d85565b61275c565b34801561073c57600080fd5b5061039361074b36600461502e565b6127f9565b34801561075c57600080fd5b506103307f000000000000000000000000000000000000000000000000000000000000000081565b34801561079057600080fd5b5061036361079f366004615047565b612853565b3480156107b057600080fd5b50600b54610330565b3480156107c557600080fd5b506103936107d4366004614ee0565b61287e565b3480156107e557600080fd5b506103936107f4366004615149565b612889565b34801561080557600080fd5b5061039361081436600461502e565b612967565b34801561082557600080fd5b5061084d7f000000000000000000000000000000000000000000000000000000000000000081565b60405161033a9190615323565b34801561086657600080fd5b5061086f612a8a565b60405161033a9190615478565b34801561088857600080fd5b50600c5461089b90610100900460ff1681565b60405161033a9190615549565b3480156108b457600080fd5b506103936108c336600461516b565b612c87565b3480156108d457600080fd5b506108dd612fa0565b60405161033a91906154c6565b3480156108f657600080fd5b50610916610905366004614dd3565b63bc197c8160e01b95945050505050565b6040516001600160e01b0319909116815260200161033a565b34801561093b57600080fd5b5061039361094a366004614f17565b6131a6565b34801561095b57600080fd5b5061096f61096a36600461502e565b6132f2565b60405161033a91906157fc565b34801561098857600080fd5b5061033061099736600461502e565b613370565b3480156109a857600080fd5b50610330600b5481565b3480156109be57600080fd5b506105e76133a7565b3480156109d357600080fd5b506103936109e2366004615047565b61348e565b3480156109f357600080fd5b506106c67f000000000000000000000000000000000000000000000000000000000000000081565b348015610a2757600080fd5b50610a3b610a3636600461502e565b6134b3565b60405161033a91906157ee565b348015610a5457600080fd5b50610393613541565b348015610a6957600080fd5b50600c546103639060ff1681565b348015610a8357600080fd5b50610393610a9236600461502e565b6135a8565b348015610aa357600080fd5b50610363610ab2366004614da0565b613b3c565b348015610ac357600080fd5b50610916610ad2366004614e7c565b63f23a6e6160e01b95945050505050565b348015610aef57600080fd5b50610393610afe366004614e7c565b613b6a565b348015610b0f57600080fd5b506105e7610b1e366004614d85565b613bf1565b348015610b2f57600080fd5b50610330600f5481565b60006001600160a01b038316610baa5760405162461bcd60e51b815260206004820152602b60248201527f455243313135353a2062616c616e636520717565727920666f7220746865207a60448201526a65726f206164647265737360a81b60648201526084015b60405180910390fd5b506000818152602081815260408083206001600160a01b03861684529091529020545b92915050565b6000610bcd82613cb5565b6000610bea3384610b39565b11610c295760405162461bcd60e51b815260206004820152600f60248201526e24ba32b6903737ba103337bab7321760891b6044820152606401610ba1565b610c333330613b3c565b610c7f5760405162461bcd60e51b815260206004820152601f60248201527f417070726f766564206973206e6f7420636f72726563746c7920646f6e652e006044820152606401610ba1565b60008111610ccf5760405162461bcd60e51b815260206004820152601c60248201527f5072696365206d7573742062652067726561746572207468616e2030000000006044820152606401610ba1565b3360009081526016602090815260408083208584529091528120805460019290610cfa90849061582d565b90915550506040805160a08101825283815260098054602083019081529282018481523360608401908152600160808501818152600d80549283018155600090815295517fd7b6990105719101dabeb77144f2a3385c8033acd3af97e9423a695e81ad1eb560049093029283015595517fd7b6990105719101dabeb77144f2a3385c8033acd3af97e9423a695e81ad1eb682015591517fd7b6990105719101dabeb77144f2a3385c8033acd3af97e9423a695e81ad1eb7830155517fd7b6990105719101dabeb77144f2a3385c8033acd3af97e9423a695e81ad1eb8909101805494516001600160a01b039092166001600160a81b031990951694909417600160a01b911515919091021790925581549190610e158361593d565b91905055507f23cba88d6c6f26b62b2cfc32a2cc04fbbde8590188b97cd3590e45af9ac6dd6d338383604051610e4d93929190615431565b60405180910390a15050565b6000818152601160205260409020805460609190610e76906158d6565b80601f0160208091040260200160405190810160405280929190818152602001828054610ea2906158d6565b8015610eef5780601f10610ec457610100808354040283529160200191610eef565b820191906000526020600020905b815481529060010190602001808311610ed257829003601f168201915b50505050509050919050565b600080600080600e8581548110610f1457610f146159ae565b90600052602060002090600702016005015411610f6d5760405162461bcd60e51b81526020600482015260176024820152762a34b1b5b2ba1034b9903737ba1039b7b632103cb2ba1760491b6044820152606401610ba1565b6000600e8581548110610f8257610f826159ae565b906000526020600020906007020160010154600014156110da57600e8581548110610faf57610faf6159ae565b906000526020600020906007020160020154603c610fcd9190615859565b603c600e8781548110610fe257610fe26159ae565b90600052602060002090600702016005015442610fff9190615878565b6110099190615845565b141561104e5760009050600e8581548110611026576110266159ae565b600091825260208220600460079092020101546001600160a01b03169450909250905061121a565b603c600e8681548110611063576110636159ae565b906000526020600020906007020160050154426110809190615878565b61108a9190615845565b600e868154811061109d5761109d6159ae565b906000526020600020906007020160020154603c6110bb9190615859565b6110c59190615878565b9050600e8581548110611026576110266159ae565b600e85815481106110ed576110ed6159ae565b906000526020600020906007020160020154603c61110b9190615859565b603c600e8781548110611120576111206159ae565b9060005260206000209060070201600501544261113d9190615878565b6111479190615845565b141561118e5760009050600e8581548110611164576111646159ae565b60009182526020909120600460079092020101546001600160a01b0316935091506001905061121a565b603c600e86815481106111a3576111a36159ae565b906000526020600020906007020160050154426111c09190615878565b6111ca9190615845565b600e86815481106111dd576111dd6159ae565b906000526020600020906007020160020154603c6111fb9190615859565b6112059190615878565b9050600e8581548110611164576111646159ae565b9193909250565b61122a3361275c565b6112465760405162461bcd60e51b8152600401610ba1906156fd565b3360009081526012602052604090205460ff166112755760405162461bcd60e51b8152600401610ba190615601565b336001600160a01b0316600e8581548110611292576112926159ae565b60009182526020909120600460079092020101546001600160a01b0316146112cc5760405162461bcd60e51b8152600401610ba1906155cc565b80600e85815481106112e0576112e06159ae565b90600052602060002090600702016003018190555081600e8581548110611309576113096159ae565b90600052602060002090600702016002018190555082600e8581548110611332576113326159ae565b9060005260206000209060070201600101819055507f0fcd915268f7fe921a6c99bd903199d2f30c7f65a422416bfd1de6a264b8264d3384848460405161137c9493929190615452565b60405180910390a150505050565b60006113963383610b39565b116113a057600080fd5b6113ac33826001613cda565b60008181526010602052604081208054600192906113cb908490615878565b925050819055506001600760008282546113e59190615878565b90915550506040517f9e90d55d2f1f115ffe1b87372c45f27f6b3a2b5ba392942167be7845618900949061141c9033908490615418565b60405180910390a150565b336001600160a01b037f0000000000000000000000000000000000000000000000000000000000000000161461149457337f000000000000000000000000000000000000000000000000000000000000000060405163073e64fd60e21b8152600401610ba1929190615337565b61149e8282613e49565b5050565b6114ab33613e6e565b6114c75760405162461bcd60e51b8152600401610ba19061577e565b6114d13082613ea4565b50565b6001600160a01b0385163314806114f057506114f08533613b3c565b6115575760405162461bcd60e51b815260206004820152603260248201527f455243313135353a207472616e736665722063616c6c6572206973206e6f74206044820152711bdddb995c881b9bdc88185c1c1c9bdd995960721b6064820152608401610ba1565b6115648585858585613f0f565b5050505050565b600082815260036020526040902060010154611586816140ec565b61159083836140f6565b505050565b6006546001600160a01b031633146115bf5760405162461bcd60e51b8152600401610ba1906157bf565b6005546040516370a0823160e01b81526000916001600160a01b0316906370a08231906115f0903090600401615323565b60206040518083038186803b15801561160857600080fd5b505afa15801561161c573d6000803e3d6000fd5b505050506040513d601f19601f8201168201806040525081019061164091906150a4565b1161165d5760405162461bcd60e51b8152600401610ba190615647565b6005546040516370a0823160e01b81526001600160a01b039091169063a9059cbb90839083906370a0823190611697903090600401615323565b60206040518083038186803b1580156116af57600080fd5b505afa1580156116c3573d6000803e3d6000fd5b505050506040513d601f19601f820116820180604052508101906116e791906150a4565b6040518363ffffffff1660e01b8152600401611704929190615418565b602060405180830381600087803b15801561171e57600080fd5b505af1158015611732573d6000803e3d6000fd5b505050506040513d601f19601f8201168201806040525081019061149e9190615011565b6001600160a01b03811633146117c65760405162461bcd60e51b815260206004820152602f60248201527f416363657373436f6e74726f6c3a2063616e206f6e6c792072656e6f756e636560448201526e103937b632b9903337b91039b2b63360891b6064820152608401610ba1565b61149e828261417c565b3360009081526013602052604090205460ff1661184a5760405162461bcd60e51b815260206004820152603260248201527f5573657220646f6573206e6f74206f776e732061205469636b657420666f722060448201527137b832b73734b733903a34329031b0b9b29760711b6064820152608401610ba1565b60006007541161189c5760405162461bcd60e51b815260206004820152601c60248201527f546865726520617265206e6f206974656d73206176616c6961626c65000000006044820152606401610ba1565b6000600c54610100900460ff1660018111156118ba576118ba615998565b146119155760405162461bcd60e51b815260206004820152602560248201527f436f6e7472616374206973206e6f74206163746976652061742074686973206d6044820152641bdb595b9d60da1b6064820152608401610ba1565b600554600b546040516323b872dd60e01b81526001600160a01b03909216916323b872dd9161194a91339130916004016153af565b602060405180830381600087803b15801561196457600080fd5b505af1158015611978573d6000803e3d6000fd5b505050506040513d601f19601f8201168201806040525081019061199c9190615011565b5060006007546119aa611cb0565b6119b49190615958565b9050600080805b600854811015611a8a576000818152601060205260408120546119de908561582d565b9050808511156119f057809350611a77565b8192506119fd3084610b39565b611a3f576000611a0e600185615878565b90505b6000611a1d3083610b39565b1115611a2b57809350611a3d565b80611a35816158bf565b915050611a11565b505b611a5c3033856001604051806020016040528060008152506141e3565b60078054906000611a6c836158bf565b919050555050611a8a565b5080611a828161593d565b9150506119bb565b50611a943361275c565b611aa157611aa1336142fb565b7fea32e37a2618dbb680c93d891742e9e13b30d184822562a0ee3c09290fd42b4333600b5483604051611ad693929190615431565b60405180910390a1505050565b60608151835114611b485760405162461bcd60e51b815260206004820152602960248201527f455243313135353a206163636f756e747320616e6420696473206c656e677468604482015268040dad2e6dac2e8c6d60bb1b6064820152608401610ba1565b600083516001600160401b03811115611b6357611b636159c4565b604051908082528060200260200182016040528015611b8c578160200160208202803683370190505b50905060005b8451811015611c0457611bd7858281518110611bb057611bb06159ae565b6020026020010151858381518110611bca57611bca6159ae565b6020026020010151610b39565b828281518110611be957611be96159ae565b6020908102919091010152611bfd8161593d565b9050611b92565b509392505050565b611c1533613e6e565b611c315760405162461bcd60e51b8152600401610ba19061577e565b60008281526011602052604090208054611c4a906158d6565b159050611c915760405162461bcd60e51b815260206004820152601560248201527443616e206e6f74207365742075726920747769636560581b6044820152606401610ba1565b6000828152601160209081526040909120825161159092840190614b5f565b6040516305d3b1d360e41b81527f000000000000000000000000000000000000000000000000000000000000000060048201526001600160401b037f00000000000000000000000000000000000000000000000000000000000000001660248201526003604482015263ffffffff7f00000000000000000000000000000000000000000000000000000000000000001660648201526002608482015260009081906001600160a01b037f00000000000000000000000000000000000000000000000000000000000000001690635d3b1d309060a401602060405180830381600087803b158015611d9f57600080fd5b505af1158015611db3573d6000803e3d6000fd5b505050506040513d601f19601f82011682018060405250810190610bcd91906150a4565b611de03361275c565b611dfc5760405162461bcd60e51b8152600401610ba1906156fd565b3360009081526015602052604090205460ff16611e5b5760405162461bcd60e51b815260206004820152601c60248201527f5573657220646964206e6f742073656c6c20616e79205469636b6574000000006044820152606401610ba1565b600e8181548110611e6e57611e6e6159ae565b90600052602060002090600702016001015460001480611ef85750600e8181548110611e9c57611e9c6159ae565b906000526020600020906007020160020154603c611eba9190615859565b603c600e8381548110611ecf57611ecf6159ae565b90600052602060002090600702016005015442611eec9190615878565b611ef69190615845565b145b611f625760405162461bcd60e51b815260206004820152603560248201527f4475726174696f6e206f6620746865205469636b6574206f72206e756d5472696044820152746573206973207374696c6c206176616c6961626c6560581b6064820152608401610ba1565b6000600e8281548110611f7757611f776159ae565b906000526020600020906007020160040160009054906101000a90046001600160a01b03169050600060136000600e8581548110611fb757611fb76159ae565b60009182526020808320600460079093020191909101546001600160a01b031683528281019390935260409182018120805494151560ff1995861617905533808252601384528282208054861660011790556015909352208054909216909155600e80548490811061202b5761202b6159ae565b906000526020600020906007020160040160006101000a8154816001600160a01b0302191690836001600160a01b031602179055506001600e8381548110612075576120756159ae565b906000526020600020906007020160060160006101000a81548160ff021916908315150217905550600160136000600e85815481106120b6576120b66159ae565b60009182526020808320600792909202909101600401546001600160a01b031683528201929092526040908101909120805460ff191692151592909217909155517f5093646a80c0a81f51115fbf5ec8379ecf902ae2ba552c74599cbe844dcb53e390610e4d9083903390615337565b61212f3361275c565b1561217c5760405162461bcd60e51b815260206004820152601f60248201527f412056495020757365722063616e206e6f74206275792061207469636b6574006044820152606401610ba1565b336001600160a01b0316600e8281548110612199576121996159ae565b60009182526020909120600460079092020101546001600160a01b031614156122125760405162461bcd60e51b815260206004820152602560248201527f596f752063616e206e6f74206275792061207469636b657420746f20796f75726044820152641039b2b63360d91b6064820152608401610ba1565b600e8181548110612225576122256159ae565b600091825260209091206006600790920201015460ff1615156001146122975760405162461bcd60e51b815260206004820152602160248201527f5469636b6574206973206e6f742063757272656e746c79206176616c6961626c6044820152606560f81b6064820152608401610ba1565b6000600e82815481106122ac576122ac6159ae565b6000918252602090912060079091020160040154600554600e80546001600160a01b03938416945092909116916323b872dd913391869081106122f1576122f16159ae565b906000526020600020906007020160040160009054906101000a90046001600160a01b0316600e8681548110612329576123296159ae565b9060005260206000209060070201600301546040518463ffffffff1660e01b8152600401612359939291906153af565b602060405180830381600087803b15801561237357600080fd5b505af1158015612387573d6000803e3d6000fd5b505050506040513d601f19601f820116820180604052508101906123ab9190615011565b5042600e83815481106123c0576123c06159ae565b906000526020600020906007020160050181905550600060136000600e85815481106123ee576123ee6159ae565b60009182526020808320600792909202909101600401546001600160a01b031683528201929092526040018120805460ff191692151592909217909155600e8054601291839186908110612444576124446159ae565b60009182526020808320600792909202909101600401546001600160a01b031683528201929092526040018120805460ff191692151592909217909155600e805460019260159290918690811061249d5761249d6159ae565b60009182526020808320600460079093020191909101546001600160a01b031683528281019390935260409182018120805494151560ff19958616179055338082526013909352208054909216600117909155600e805484908110612504576125046159ae565b906000526020600020906007020160040160006101000a8154816001600160a01b0302191690836001600160a01b031602179055506000600e838154811061254e5761254e6159ae565b906000526020600020906007020160060160006101000a81548160ff0219169083151502179055507f060f7dd92424d6f1af65d2fe9acba5b63d299cc26cd8eb26403ca371bc9fbfbb828233600e86815481106125ad576125ad6159ae565b906000526020600020906007020160030154604051610e4d94939291909384526001600160a01b03928316602085015291166040830152606082015260800190565b6006546001600160a01b031633146126195760405162461bcd60e51b8152600401610ba1906157bf565b6114d160008261444c565b61262d3361275c565b6126495760405162461bcd60e51b8152600401610ba1906156fd565b3360009081526012602052604090205460ff166126785760405162461bcd60e51b8152600401610ba190615601565b336001600160a01b0316600e8281548110612695576126956159ae565b60009182526020909120600460079092020101546001600160a01b0316146126cf5760405162461bcd60e51b8152600401610ba1906155cc565b6000600e82815481106126e4576126e46159ae565b60009182526020808320600660079093020191909101805493151560ff1994851617905533808352601282526040808420805486169055601390925291819020805490931660011790925590517f5dbab6b1e9ddd154d6eb51aa5622fb5278ea62a0b5f81d046a945d899490f6319161141c91615323565b600480546040516370a0823160e01b815260009283926001600160a01b0316916370a082319161278e91879101615323565b60206040518083038186803b1580156127a657600080fd5b505afa1580156127ba573d6000803e3d6000fd5b505050506040513d601f19601f820116820180604052508101906127de91906150a4565b11156127ec57506001919050565b506000919050565b919050565b61280233613e6e565b61281e5760405162461bcd60e51b8152600401610ba19061577e565b600b8190556040518181527f06cd74aabc11982a85b554df4d7833623303656fe69bed4db1b0cb3245feebe39060200161141c565b60009182526003602090815260408084206001600160a01b0393909316845291905290205460ff1690565b61149e338383614456565b336001600160a01b0316600d83815481106128a6576128a66159ae565b60009182526020909120600360049092020101546001600160a01b0316146128e05760405162461bcd60e51b8152600401610ba190615675565b6000600d83815481106128f5576128f56159ae565b906000526020600020906004020160020154905081600d848154811061291d5761291d6159ae565b9060005260206000209060040201600201819055507fb141d00f22a670547caacc412e6489d8edaba6a840df558118363ce1a40d6ed233848385604051611ad69493929190615452565b336001600160a01b0316600d8281548110612984576129846159ae565b60009182526020909120600360049092020101546001600160a01b0316146129be5760405162461bcd60e51b8152600401610ba190615675565b336000908152601660205260408120600d80546001939190859081106129e6576129e66159ae565b90600052602060002090600402016000015481526020019081526020016000206000828254612a159190615878565b925050819055506000600d8281548110612a3157612a316159ae565b906000526020600020906004020160030160146101000a81548160ff0219169083151502179055507fc9cedcca3d85d6009a562a9e70071f6288adabda9ba7f059589165e75c9cf404338260405161141c929190615418565b60606000805b600e54811015612b4a576000600e8281548110612aaf57612aaf6159ae565b60009182526020918290206040805160e081018252600790930290910180548352600180820154948401949094526002810154918301919091526003810154606083015260048101546001600160a01b03166080830152600581015460a08301526006015460ff16151560c082018190529092501415612b3757612b3460018461582d565b92505b5080612b428161593d565b915050612a90565b506000816001600160401b03811115612b6557612b656159c4565b604051908082528060200260200182016040528015612b9e57816020015b612b8b614be3565b815260200190600190039081612b835790505b5090506000805b600e54811015612c7e576000600e8281548110612bc457612bc46159ae565b60009182526020918290206040805160e081018252600790930290910180548352600180820154948401949094526002810154918301919091526003810154606083015260048101546001600160a01b03166080830152600581015460a08301526006015460ff16151560c082018190529092501415612c6b5780848481518110612c5157612c516159ae565b60200260200101819052508280612c679061593d565b9350505b5080612c768161593d565b915050612ba5565b50909392505050565b612c903361275c565b612cac5760405162461bcd60e51b8152600401610ba1906156fd565b3360009081526012602052604090205460ff1615612d1f5760405162461bcd60e51b815260206004820152602a60248201527f5573657220697320616c72656164792063757272656e746c792073656c6c696e60448201526919c81848151a58dad95d60b21b6064820152608401610ba1565b3360009081526014602052604090205460ff1615612d96573360009081526013602052604090205460ff16612d965760405162461bcd60e51b815260206004820152601d60248201527f5573657220686173206e6f74207469636b6574206176616c6961626c650000006044820152606401610ba1565b6040805160e081018252600a8054825260208201868152928201858152606083018581523360808501908152600060a08601818152600160c08801818152600e80549283018155845297517fbb7b4a454dc3493923482f07822329ed19e8244eff582cc204f8554c3620c3fd60079092029182015597517fbb7b4a454dc3493923482f07822329ed19e8244eff582cc204f8554c3620c3fe89015593517fbb7b4a454dc3493923482f07822329ed19e8244eff582cc204f8554c3620c3ff88015591517fbb7b4a454dc3493923482f07822329ed19e8244eff582cc204f8554c3620c400870155517fbb7b4a454dc3493923482f07822329ed19e8244eff582cc204f8554c3620c401860180546001600160a01b0319166001600160a01b0390921691909117905590517fbb7b4a454dc3493923482f07822329ed19e8244eff582cc204f8554c3620c40285015591517fbb7b4a454dc3493923482f07822329ed19e8244eff582cc204f8554c3620c403909301805460ff19169315159390931790925581549190612f278361593d565b90915550503360008181526012602090815260408083208054600160ff199182168117909255601484528285208054821690921790915560139092529182902080549091169055517f07814713aba2e13eb5f2470225f7395d33fad1452b70f8427dae73e4d3a5934491611ad691869086908690615452565b60606000805b600d54811015613069576000600d8281548110612fc557612fc56159ae565b60009182526020918290206040805160a08101825260049093029091018054835260018082015494840194909452600281015491830191909152600301546001600160a01b038116606083015260ff600160a01b90910416151560808201819052909250148015613043575061304381606001518260000151614537565b156130565761305360018461582d565b92505b50806130618161593d565b915050612fa6565b506000816001600160401b03811115613084576130846159c4565b6040519080825280602002602001820160405280156130bd57816020015b6130aa614c2b565b8152602001906001900390816130a25790505b5090506000805b600d54811015612c7e576000600d82815481106130e3576130e36159ae565b60009182526020918290206040805160a08101825260049093029091018054835260018082015494840194909452600281015491830191909152600301546001600160a01b038116606083015260ff600160a01b90910416151560808201819052909250148015613161575061316181606001518260000151614537565b156131935780848481518110613179576131796159ae565b6020026020010181905250828061318f9061593d565b9350505b508061319e8161593d565b9150506130c4565b6006546001600160a01b031633146131d05760405162461bcd60e51b8152600401610ba1906157bf565b6005546040516370a0823160e01b81526000916001600160a01b0316906370a0823190613201903090600401615323565b60206040518083038186803b15801561321957600080fd5b505afa15801561322d573d6000803e3d6000fd5b505050506040513d601f19601f8201168201806040525081019061325191906150a4565b1161326e5760405162461bcd60e51b8152600401610ba190615647565b60055460405163a9059cbb60e01b81526001600160a01b039091169063a9059cbb906132a09085908590600401615418565b602060405180830381600087803b1580156132ba57600080fd5b505af11580156132ce573d6000803e3d6000fd5b505050506040513d601f19601f820116820180604052508101906115909190615011565b6132fa614c2b565b600d828154811061330d5761330d6159ae565b60009182526020918290206040805160a0810182526004909302909101805483526001810154938301939093526002830154908201526003909101546001600160a01b038116606083015260ff600160a01b909104161515608082015292915050565b600061337b8261455a565b61338457600080fd5b6000828152601060205260408120546007546133a09190615845565b9392505050565b60606000805b6008548110156133e95760006133c33083610b39565b11156133d757816133d38161593d565b9250505b806133e18161593d565b9150506133ad565b506000816001600160401b03811115613404576134046159c4565b60405190808252806020026020018201604052801561342d578160200160208202803683370190505b5090506000805b600854811015612c7e57600061344a3083610b39565b111561347c5780838381518110613463576134636159ae565b6020908102919091010152816134788161593d565b9250505b806134868161593d565b915050613434565b6000828152600360205260409020600101546134a9816140ec565b611590838361417c565b6134bb614be3565b600e82815481106134ce576134ce6159ae565b60009182526020918290206040805160e0810182526007909302909101805483526001810154938301939093526002830154908201526003820154606082015260048201546001600160a01b03166080820152600582015460a082015260069091015460ff16151560c082015292915050565b61354a33613e6e565b6135665760405162461bcd60e51b8152600401610ba19061577e565b6000600c54610100900460ff16600181111561358457613584615998565b141561359b57600c805461ff001916610100179055565b600c805461ff0019169055565b6000600d82815481106135bd576135bd6159ae565b60009182526020918290206040805160a0810182526004909302909101805483526001810154938301939093526002830154908201526003909101546001600160a01b038116606083015260ff600160a01b9091041615156080820152600d80549192509083908110613632576136326159ae565b60009182526020909120600490910201600301546001600160a01b03163314156136aa5760405162461bcd60e51b815260206004820152602360248201527f596f752063616e206e6f742062757920616e206974656d20746f20796f75727360448201526232b63360e91b6064820152608401610ba1565b600d82815481106136bd576136bd6159ae565b906000526020600020906004020160030160149054906101000a900460ff16151560011515146137395760405162461bcd60e51b815260206004820152602160248201527f54686973206974656d206973206e6f74206f6e2073616c6520616e796d6f72656044820152601760f91b6064820152608401610ba1565b61374b81606001518260000151614537565b61378e5760405162461bcd60e51b815260206004820152601460248201527324ba32b6903237b2b9903737ba1032bc34b9ba1760611b6044820152606401610ba1565b6040808201516005549151636eb1769f60e11b815290916001600160a01b03169063dd62ed3e906137c59033903090600401615337565b60206040518083038186803b1580156137dd57600080fd5b505afa1580156137f1573d6000803e3d6000fd5b505050506040513d601f19601f8201168201806040525081019061381591906150a4565b10156138635760405162461bcd60e51b815260206004820152601c60248201527f496e73756666696369656e7420455243323020616c6c6f77616e6365000000006044820152606401610ba1565b600554600d80546001600160a01b03909216916323b872dd9133918690811061388e5761388e6159ae565b906000526020600020906004020160030160009054906101000a90046001600160a01b0316600d86815481106138c6576138c66159ae565b9060005260206000209060040201600201546040518463ffffffff1660e01b81526004016138f6939291906153af565b602060405180830381600087803b15801561391057600080fd5b505af1158015613924573d6000803e3d6000fd5b505050506040513d601f19601f820116820180604052508101906139489190615011565b506139c1600d838154811061395f5761395f6159ae565b906000526020600020906004020160030160009054906101000a90046001600160a01b031633600d8581548110613998576139986159ae565b9060005260206000209060040201600001546001604051806020016040528060008152506141e3565b60608101516001600160a01b031660009081526016602090815260408083208451845290915281208054600192906139fa908490615878565b925050819055506000600d8381548110613a1657613a166159ae565b906000526020600020906004020160030160009054906101000a90046001600160a01b0316905033600d8481548110613a5157613a516159ae565b906000526020600020906004020160030160006101000a8154816001600160a01b0302191690836001600160a01b031602179055506000600d8481548110613a9b57613a9b6159ae565b906000526020600020906004020160030160146101000a81548160ff0219169083151502179055507f642067ff529c9b5b1162502fc8e8a3a91dda56e126a84f2fe38d341236231a82338285600d8781548110613afa57613afa6159ae565b600091825260209182902060026004909202010154604080516001600160a01b0396871681529590941691850191909152918301526060820152608001611ad6565b6001600160a01b03918216600090815260016020908152604080832093909416825291909152205460ff1690565b6001600160a01b038516331480613b865750613b868533613b3c565b613be45760405162461bcd60e51b815260206004820152602960248201527f455243313135353a2063616c6c6572206973206e6f74206f776e6572206e6f7260448201526808185c1c1c9bdd995960ba1b6064820152608401610ba1565b61156485858585856141e3565b606060006008546001600160401b03811115613c0f57613c0f6159c4565b604051908082528060200260200182016040528015613c38578160200160208202803683370190505b50905060005b8151811015613cae576001600160a01b0384166000908152601660209081526040808320848452909152902054613c758583610b39565b613c7f9190615878565b828281518110613c9157613c916159ae565b602090810291909101015280613ca68161593d565b915050613c3e565b5092915050565b60006001600160e01b03198216637965db0b60e01b1480610bcd5750610bcd82614572565b6001600160a01b038316613d3c5760405162461bcd60e51b815260206004820152602360248201527f455243313135353a206275726e2066726f6d20746865207a65726f206164647260448201526265737360e81b6064820152608401610ba1565b336000613d4884614597565b90506000613d5584614597565b60408051602080820183526000918290528882528181528282206001600160a01b038b1683529052205490915084811015613dde5760405162461bcd60e51b8152602060048201526024808201527f455243313135353a206275726e20616d6f756e7420657863656564732062616c604482015263616e636560e01b6064820152608401610ba1565b6000868152602081815260408083206001600160a01b038b81168086529184528285208a8703905582518b81529384018a9052909290881691600080516020615aa4833981519152910160405180910390a46040805160208101909152600090525b50505050505050565b80600081518110613e5c57613e5c6159ae565b6020026020010151600f819055505050565b6006546000906001600160a01b0383811691161480613e935750613e93600083612853565b613e9c57600080fd5b506001919050565b613ec18260085483604051806020016040528060008152506145e2565b613eda6008548260009182526010602052604090912055565b8060076000828254613eec919061582d565b92505081905550600160086000828254613f06919061582d565b90915550505050565b8151835114613f715760405162461bcd60e51b815260206004820152602860248201527f455243313135353a2069647320616e6420616d6f756e7473206c656e677468206044820152670dad2e6dac2e8c6d60c31b6064820152608401610ba1565b6001600160a01b038416613f975760405162461bcd60e51b8152600401610ba1906156b8565b3360005b845181101561407e576000858281518110613fb857613fb86159ae565b602002602001015190506000858381518110613fd657613fd66159ae565b602090810291909101810151600084815280835260408082206001600160a01b038e1683529093529190912054909150818110156140265760405162461bcd60e51b8152600401610ba190615734565b6000838152602081815260408083206001600160a01b038e8116855292528083208585039055908b1682528120805484929061406390849061582d565b92505081905550505050806140779061593d565b9050613f9b565b50846001600160a01b0316866001600160a01b0316826001600160a01b03167f4a39dc06d4c0dbc64b70af90fd698a233a518aa5d07e595d983b8c0526c8f7fb87876040516140ce92919061551b565b60405180910390a46140e48187878787876146db565b505050505050565b6114d18133614846565b6141008282612853565b61149e5760008281526003602090815260408083206001600160a01b03851684529091529020805460ff191660011790556141383390565b6001600160a01b0316816001600160a01b0316837f2f8788117e7eff1d82e926ec794901d17c78024a50270940304540a733656f0d60405160405180910390a45050565b6141868282612853565b1561149e5760008281526003602090815260408083206001600160a01b0385168085529252808320805460ff1916905551339285917ff6391f5c32d9c69d2a47ea670b442974b53935d1edc7fd64eb21e047a839171b9190a45050565b6001600160a01b0384166142095760405162461bcd60e51b8152600401610ba1906156b8565b33600061421585614597565b9050600061422285614597565b90506000868152602081815260408083206001600160a01b038c168452909152902054858110156142655760405162461bcd60e51b8152600401610ba190615734565b6000878152602081815260408083206001600160a01b038d8116855292528083208985039055908a168252812080548892906142a290849061582d565b909155505060408051888152602081018890526001600160a01b03808b16928c82169291881691600080516020615aa4833981519152910160405180910390a46142f0848a8a8a8a8a6148aa565b505050505050505050565b60005b600e5481101561149e57816001600160a01b0316600e8281548110614325576143256159ae565b60009182526020909120600460079092020101546001600160a01b0316141561443a57600e818154811061435b5761435b6159ae565b9060005260206000209060070201600101546001146143af57600e8181548110614387576143876159ae565b6000918252602082206001600790920201018054916143a5836158bf565b919050555061443a565b600e81815481106143c2576143c26159ae565b6000918252602082206001600790920201018054916143e0836158bf565b91905055506000600e82815481106143fa576143fa6159ae565b60009182526020808320600660079093020191909101805493151560ff199485161790556001600160a01b03851682526013905260409020805490911690555b806144448161593d565b9150506142fe565b61149e82826140f6565b816001600160a01b0316836001600160a01b031614156144ca5760405162461bcd60e51b815260206004820152602960248201527f455243313135353a2073657474696e6720617070726f76616c20737461747573604482015268103337b91039b2b63360b91b6064820152608401610ba1565b6001600160a01b03838116600081815260016020908152604080832094871680845294825291829020805460ff191686151590811790915591519182527f17307eab39ab6107e8899845ad3d59bd9653f200f220920489ca2b5937696c31910160405180910390a3505050565b6000806145448484610b39565b111561455257506001610bcd565b506000610bcd565b600081815260106020526040812054613e9c57600080fd5b60006001600160e01b03198216630271189760e51b1480610bcd5750610bcd82614974565b604080516001808252818301909252606091600091906020808301908036833701905050905082816000815181106145d1576145d16159ae565b602090810291909101015292915050565b6001600160a01b0384166146425760405162461bcd60e51b815260206004820152602160248201527f455243313135353a206d696e7420746f20746865207a65726f206164647265736044820152607360f81b6064820152608401610ba1565b33600061464e85614597565b9050600061465b85614597565b90506000868152602081815260408083206001600160a01b038b1684529091528120805487929061468d90849061582d565b909155505060408051878152602081018790526001600160a01b03808a169260009291871691600080516020615aa4833981519152910160405180910390a4613e40836000898989896148aa565b6001600160a01b0384163b156140e45760405163bc197c8160e01b81526001600160a01b0385169063bc197c819061471f9089908990889088908890600401615351565b602060405180830381600087803b15801561473957600080fd5b505af1925050508015614769575060408051601f3d908101601f1916820190925261476691810190615087565b60015b614816576147756159da565b806308c379a014156147af575061478a6159f6565b8061479557506147b1565b8060405162461bcd60e51b8152600401610ba19190615571565b505b60405162461bcd60e51b815260206004820152603460248201527f455243313135353a207472616e7366657220746f206e6f6e20455243313135356044820152732932b1b2b4bb32b91034b6b83632b6b2b73a32b960611b6064820152608401610ba1565b6001600160e01b0319811663bc197c8160e01b14613e405760405162461bcd60e51b8152600401610ba190615584565b6148508282612853565b61149e57614868816001600160a01b031660146149c4565b6148738360206149c4565b6040516020016148849291906152b4565b60408051601f198184030181529082905262461bcd60e51b8252610ba191600401615571565b6001600160a01b0384163b156140e45760405163f23a6e6160e01b81526001600160a01b0385169063f23a6e61906148ee90899089908890889088906004016153d3565b602060405180830381600087803b15801561490857600080fd5b505af1925050508015614938575060408051601f3d908101601f1916820190925261493591810190615087565b60015b614944576147756159da565b6001600160e01b0319811663f23a6e6160e01b14613e405760405162461bcd60e51b8152600401610ba190615584565b60006001600160e01b03198216636cdb3d1360e11b14806149a557506001600160e01b031982166303a24d0760e21b145b80610bcd57506301ffc9a760e01b6001600160e01b0319831614610bcd565b606060006149d3836002615859565b6149de90600261582d565b6001600160401b038111156149f5576149f56159c4565b6040519080825280601f01601f191660200182016040528015614a1f576020820181803683370190505b509050600360fc1b81600081518110614a3a57614a3a6159ae565b60200101906001600160f81b031916908160001a905350600f60fb1b81600181518110614a6957614a696159ae565b60200101906001600160f81b031916908160001a9053506000614a8d846002615859565b614a9890600161582d565b90505b6001811115614b10576f181899199a1a9b1b9c1cb0b131b232b360811b85600f1660108110614acc57614acc6159ae565b1a60f81b828281518110614ae257614ae26159ae565b60200101906001600160f81b031916908160001a90535060049490941c93614b09816158bf565b9050614a9b565b5083156133a05760405162461bcd60e51b815260206004820181905260248201527f537472696e67733a20686578206c656e67746820696e73756666696369656e746044820152606401610ba1565b828054614b6b906158d6565b90600052602060002090601f016020900481019282614b8d5760008555614bd3565b82601f10614ba657805160ff1916838001178555614bd3565b82800160010185558215614bd3579182015b82811115614bd3578251825591602001919060010190614bb8565b50614bdf929150614c65565b5090565b6040518060e001604052806000815260200160008152602001600081526020016000815260200160006001600160a01b03168152602001600081526020016000151581525090565b6040518060a0016040528060008152602001600081526020016000815260200160006001600160a01b031681526020016000151581525090565b5b80821115614bdf5760008155600101614c66565b60006001600160401b03831115614c9357614c936159c4565b604051614caa601f8501601f191660200182615911565b809150838152848484011115614cbf57600080fd5b83836020830137600060208583010152509392505050565b80356001600160a01b03811681146127f457600080fd5b600082601f830112614cff57600080fd5b81356020614d0c8261580a565b604051614d198282615911565b8381528281019150858301600585901b87018401881015614d3957600080fd5b60005b85811015614d5857813584529284019290840190600101614d3c565b5090979650505050505050565b600082601f830112614d7657600080fd5b6133a083833560208501614c7a565b600060208284031215614d9757600080fd5b6133a082614cd7565b60008060408385031215614db357600080fd5b614dbc83614cd7565b9150614dca60208401614cd7565b90509250929050565b600080600080600060a08688031215614deb57600080fd5b614df486614cd7565b9450614e0260208701614cd7565b935060408601356001600160401b0380821115614e1e57600080fd5b614e2a89838a01614cee565b94506060880135915080821115614e4057600080fd5b614e4c89838a01614cee565b93506080880135915080821115614e6257600080fd5b50614e6f88828901614d65565b9150509295509295909350565b600080600080600060a08688031215614e9457600080fd5b614e9d86614cd7565b9450614eab60208701614cd7565b9350604086013592506060860135915060808601356001600160401b03811115614ed457600080fd5b614e6f88828901614d65565b60008060408385031215614ef357600080fd5b614efc83614cd7565b91506020830135614f0c81615a7f565b809150509250929050565b60008060408385031215614f2a57600080fd5b614f3383614cd7565b946020939093013593505050565b60008060408385031215614f5457600080fd5b82356001600160401b0380821115614f6b57600080fd5b818501915085601f830112614f7f57600080fd5b81356020614f8c8261580a565b604051614f998282615911565b8381528281019150858301600585901b870184018b1015614fb957600080fd5b600096505b84871015614fe357614fcf81614cd7565b835260019690960195918301918301614fbe565b5096505086013592505080821115614ffa57600080fd5b5061500785828601614cee565b9150509250929050565b60006020828403121561502357600080fd5b81516133a081615a7f565b60006020828403121561504057600080fd5b5035919050565b6000806040838503121561505a57600080fd5b82359150614dca60208401614cd7565b60006020828403121561507c57600080fd5b81356133a081615a8d565b60006020828403121561509957600080fd5b81516133a081615a8d565b6000602082840312156150b657600080fd5b5051919050565b600080604083850312156150d057600080fd5b8235915060208301356001600160401b038111156150ed57600080fd5b61500785828601614cee565b6000806040838503121561510c57600080fd5b8235915060208301356001600160401b0381111561512957600080fd5b8301601f8101851361513a57600080fd5b61500785823560208401614c7a565b6000806040838503121561515c57600080fd5b50508035926020909101359150565b60008060006060848603121561518057600080fd5b505081359360208301359350604090920135919050565b600080600080608085870312156151ad57600080fd5b5050823594602084013594506040840135936060013592509050565b600081518084526020808501945080840160005b838110156151f9578151875295820195908201906001016151dd565b509495945050505050565b6000815180845261521c81602086016020860161588f565b601f01601f19169290920160200192915050565b805182526020808201519083015260408082015190830152606080820151908301526080808201516001600160a01b03169083015260a0808201519083015260c0908101511515910152565b8051825260208082015190830152604080820151908301526060808201516001600160a01b0316908301526080908101511515910152565b76020b1b1b2b9b9a1b7b73a3937b61d1030b1b1b7bab73a1604d1b8152600083516152e681601785016020880161588f565b7001034b99036b4b9b9b4b733903937b6329607d1b601791840191820152835161531781602884016020880161588f565b01602801949350505050565b6001600160a01b0391909116815260200190565b6001600160a01b0392831681529116602082015260400190565b6001600160a01b0386811682528516602082015260a06040820181905260009061537d908301866151c9565b828103606084015261538f81866151c9565b905082810360808401526153a38185615204565b98975050505050505050565b6001600160a01b039384168152919092166020820152604081019190915260600190565b6001600160a01b03868116825285166020820152604081018490526060810183905260a06080820181905260009061540d90830184615204565b979650505050505050565b6001600160a01b03929092168252602082015260400190565b6001600160a01b039390931683526020830191909152604082015260600190565b6001600160a01b0394909416845260208401929092526040830152606082015260800190565b6020808252825182820181905260009190848201906040850190845b818110156154ba576154a7838551615230565b9284019260e09290920191600101615494565b50909695505050505050565b6020808252825182820181905260009190848201906040850190845b818110156154ba576154f583855161527c565b9284019260a092909201916001016154e2565b6020815260006133a060208301846151c9565b60408152600061552e60408301856151c9565b828103602084015261554081856151c9565b95945050505050565b602081016002831061556b57634e487b7160e01b600052602160045260246000fd5b91905290565b6020815260006133a06020830184615204565b60208082526028908201527f455243313135353a204552433131353552656365697665722072656a656374656040820152676420746f6b656e7360c01b606082015260800190565b6020808252818101527f55736572206973206e6f74206f776e6572206f662074686973207469636b6574604082015260600190565b60208082526026908201527f55736572206973206e6f742063757272656e746c792073656c6c696e67206120604082015265151a58dad95d60d21b606082015260800190565b6020808252601490820152734e6f2066756e647320746f20776974686472617760601b604082015260600190565b60208082526023908201527f596f7520617265206e6f7420746865206f776e6572206f66207468697320697460408201526232b69760e91b606082015260800190565b60208082526025908201527f455243313135353a207472616e7366657220746f20746865207a65726f206164604082015264647265737360d81b606082015260800190565b6020808252601d908201527f5573657220646f6573206e6f74206f776e732061204d7243727970746f000000604082015260600190565b6020808252602a908201527f455243313135353a20696e73756666696369656e742062616c616e636520666f60408201526939103a3930b739b332b960b11b606082015260800190565b60208082526021908201527f55736572206973206e6f7420746865204f776e6572206f7220616e2041646d696040820152603760f91b606082015260800190565b6020808252601590820152742ab9b2b91034b9903737ba103a34329037bbb732b960591b604082015260600190565b60e08101610bcd8284615230565b60a08101610bcd828461527c565b60006001600160401b03821115615823576158236159c4565b5060051b60200190565b600082198211156158405761584061596c565b500190565b60008261585457615854615982565b500490565b60008160001904831182151516156158735761587361596c565b500290565b60008282101561588a5761588a61596c565b500390565b60005b838110156158aa578181015183820152602001615892565b838111156158b9576000848401525b50505050565b6000816158ce576158ce61596c565b506000190190565b600181811c908216806158ea57607f821691505b6020821081141561590b57634e487b7160e01b600052602260045260246000fd5b50919050565b601f8201601f191681016001600160401b0381118282101715615936576159366159c4565b6040525050565b60006000198214156159515761595161596c565b5060010190565b60008261596757615967615982565b500690565b634e487b7160e01b600052601160045260246000fd5b634e487b7160e01b600052601260045260246000fd5b634e487b7160e01b600052602160045260246000fd5b634e487b7160e01b600052603260045260246000fd5b634e487b7160e01b600052604160045260246000fd5b600060033d11156159f35760046000803e5060005160e01c5b90565b600060443d1015615a045790565b6040516003193d81016004833e81513d6001600160401b038160248401118184111715615a3357505050505090565b8285019150815181811115615a4b5750505050505090565b843d8701016020828501011115615a655750505050505090565b615a7460208286010187615911565b509095945050505050565b80151581146114d157600080fd5b6001600160e01b0319811681146114d157600080fdfec3d58168c5ae7397731d063d5bbf3d657854427343f4c083240f7aacaa2d0f62a26469706673582212205a90d708affa3966533c0769856a8aca24d5de6044176a20abeaaff93754a9d164736f6c63430008070033",
  "linkReferences": {},
  "deployedLinkReferences": {}
}