{
  "_format": "hh-sol-artifact-1",
  "contractName": "RacksItemsv4",
  "sourceName": "contracts/RacksItemsv4.sol",
  "abi": [
    {
      "inputs": [
        {
          "internalType": "address",
          "name": "vrfCoordinatorV2",
          "type": "address"
        },
        {
          "internalType": "bytes32",
          "name": "gasLane",
          "type": "bytes32"
        },
        {
          "internalType": "uint64",
          "name": "subscriptionId",
          "type": "uint64"
        },
        {
          "internalType": "uint32",
          "name": "callbackGasLimit",
          "type": "uint32"
        },
        {
          "internalType": "address",
          "name": "_racksTokenAddress",
          "type": "address"
        },
        {
          "internalType": "address",
          "name": "_MockMrCryptoAddress",
          "type": "address"
        }
      ],
      "stateMutability": "nonpayable",
      "type": "constructor"
    },
    {
      "inputs": [
        {
          "internalType": "address",
          "name": "have",
          "type": "address"
        },
        {
          "internalType": "address",
          "name": "want",
          "type": "address"
        }
      ],
      "name": "OnlyCoordinatorCanFulfill",
      "type": "error"
    },
    {
      "anonymous": false,
      "inputs": [
        {
          "indexed": true,
          "internalType": "address",
          "name": "account",
          "type": "address"
        },
        {
          "indexed": true,
          "internalType": "address",
          "name": "operator",
          "type": "address"
        },
        {
          "indexed": false,
          "internalType": "bool",
          "name": "approved",
          "type": "bool"
        }
      ],
      "name": "ApprovalForAll",
      "type": "event"
    },
    {
      "anonymous": false,
      "inputs": [
        {
          "indexed": false,
          "internalType": "address",
          "name": "user",
          "type": "address"
        },
        {
          "indexed": false,
          "internalType": "uint256",
          "name": "casePrice",
          "type": "uint256"
        },
        {
          "indexed": false,
          "internalType": "uint256",
          "name": "item",
          "type": "uint256"
        }
      ],
      "name": "CaseOpened",
      "type": "event"
    },
    {
      "anonymous": false,
      "inputs": [
        {
          "indexed": true,
          "internalType": "bytes32",
          "name": "role",
          "type": "bytes32"
        },
        {
          "indexed": true,
          "internalType": "bytes32",
          "name": "previousAdminRole",
          "type": "bytes32"
        },
        {
          "indexed": true,
          "internalType": "bytes32",
          "name": "newAdminRole",
          "type": "bytes32"
        }
      ],
      "name": "RoleAdminChanged",
      "type": "event"
    },
    {
      "anonymous": false,
      "inputs": [
        {
          "indexed": true,
          "internalType": "bytes32",
          "name": "role",
          "type": "bytes32"
        },
        {
          "indexed": true,
          "internalType": "address",
          "name": "account",
          "type": "address"
        },
        {
          "indexed": true,
          "internalType": "address",
          "name": "sender",
          "type": "address"
        }
      ],
      "name": "RoleGranted",
      "type": "event"
    },
    {
      "anonymous": false,
      "inputs": [
        {
          "indexed": true,
          "internalType": "bytes32",
          "name": "role",
          "type": "bytes32"
        },
        {
          "indexed": true,
          "internalType": "address",
          "name": "account",
          "type": "address"
        },
        {
          "indexed": true,
          "internalType": "address",
          "name": "sender",
          "type": "address"
        }
      ],
      "name": "RoleRevoked",
      "type": "event"
    },
    {
      "anonymous": false,
      "inputs": [
        {
          "indexed": true,
          "internalType": "address",
          "name": "operator",
          "type": "address"
        },
        {
          "indexed": true,
          "internalType": "address",
          "name": "from",
          "type": "address"
        },
        {
          "indexed": true,
          "internalType": "address",
          "name": "to",
          "type": "address"
        },
        {
          "indexed": false,
          "internalType": "uint256[]",
          "name": "ids",
          "type": "uint256[]"
        },
        {
          "indexed": false,
          "internalType": "uint256[]",
          "name": "values",
          "type": "uint256[]"
        }
      ],
      "name": "TransferBatch",
      "type": "event"
    },
    {
      "anonymous": false,
      "inputs": [
        {
          "indexed": true,
          "internalType": "address",
          "name": "operator",
          "type": "address"
        },
        {
          "indexed": true,
          "internalType": "address",
          "name": "from",
          "type": "address"
        },
        {
          "indexed": true,
          "internalType": "address",
          "name": "to",
          "type": "address"
        },
        {
          "indexed": false,
          "internalType": "uint256",
          "name": "id",
          "type": "uint256"
        },
        {
          "indexed": false,
          "internalType": "uint256",
          "name": "value",
          "type": "uint256"
        }
      ],
      "name": "TransferSingle",
      "type": "event"
    },
    {
      "anonymous": false,
      "inputs": [
        {
          "indexed": false,
          "internalType": "string",
          "name": "value",
          "type": "string"
        },
        {
          "indexed": true,
          "internalType": "uint256",
          "name": "id",
          "type": "uint256"
        }
      ],
      "name": "URI",
      "type": "event"
    },
    {
      "anonymous": false,
      "inputs": [
        {
          "indexed": false,
          "internalType": "uint256",
          "name": "newPrice",
          "type": "uint256"
        }
      ],
      "name": "casePriceChanged",
      "type": "event"
    },
    {
      "anonymous": false,
      "inputs": [
        {
          "indexed": false,
          "internalType": "address",
          "name": "buyer",
          "type": "address"
        },
        {
          "indexed": false,
          "internalType": "address",
          "name": "seller",
          "type": "address"
        },
        {
          "indexed": false,
          "internalType": "uint256",
          "name": "marketItemId",
          "type": "uint256"
        },
        {
          "indexed": false,
          "internalType": "uint256",
          "name": "price",
          "type": "uint256"
        }
      ],
      "name": "itemBought",
      "type": "event"
    },
    {
      "anonymous": false,
      "inputs": [
        {
          "indexed": false,
          "internalType": "address",
          "name": "user",
          "type": "address"
        },
        {
          "indexed": false,
          "internalType": "uint256",
          "name": "tokenId",
          "type": "uint256"
        }
      ],
      "name": "itemExchanged",
      "type": "event"
    },
    {
      "anonymous": false,
      "inputs": [
        {
          "indexed": false,
          "internalType": "address",
          "name": "owner",
          "type": "address"
        },
        {
          "indexed": false,
          "internalType": "uint256",
          "name": "marketItemId",
          "type": "uint256"
        },
        {
          "indexed": false,
          "internalType": "uint256",
          "name": "oldPrice",
          "type": "uint256"
        },
        {
          "indexed": false,
          "internalType": "uint256",
          "name": "newPrice",
          "type": "uint256"
        }
      ],
      "name": "itemPriceChanged",
      "type": "event"
    },
    {
      "anonymous": false,
      "inputs": [
        {
          "indexed": false,
          "internalType": "address",
          "name": "seller",
          "type": "address"
        },
        {
          "indexed": false,
          "internalType": "uint256",
          "name": "numTries",
          "type": "uint256"
        },
        {
          "indexed": false,
          "internalType": "uint256",
          "name": "_hours",
          "type": "uint256"
        },
        {
          "indexed": false,
          "internalType": "uint256",
          "name": "price",
          "type": "uint256"
        }
      ],
      "name": "newTicketOnSale",
      "type": "event"
    },
    {
      "anonymous": false,
      "inputs": [
        {
          "indexed": false,
          "internalType": "address",
          "name": "user",
          "type": "address"
        },
        {
          "indexed": false,
          "internalType": "uint256",
          "name": "tokenId",
          "type": "uint256"
        },
        {
          "indexed": false,
          "internalType": "uint256",
          "name": "price",
          "type": "uint256"
        }
      ],
      "name": "sellingItem",
      "type": "event"
    },
    {
      "anonymous": false,
      "inputs": [
        {
          "indexed": false,
          "internalType": "uint256",
          "name": "ticketId",
          "type": "uint256"
        },
        {
          "indexed": false,
          "internalType": "address",
          "name": "oldOwner",
          "type": "address"
        },
        {
          "indexed": false,
          "internalType": "address",
          "name": "newOwner",
          "type": "address"
        },
        {
          "indexed": false,
          "internalType": "uint256",
          "name": "price",
          "type": "uint256"
        }
      ],
      "name": "ticketBought",
      "type": "event"
    },
    {
      "anonymous": false,
      "inputs": [
        {
          "indexed": false,
          "internalType": "address",
          "name": "borrower",
          "type": "address"
        },
        {
          "indexed": false,
          "internalType": "address",
          "name": "realOwner",
          "type": "address"
        }
      ],
      "name": "ticketClaimedBack",
      "type": "event"
    },
    {
      "anonymous": false,
      "inputs": [
        {
          "indexed": false,
          "internalType": "address",
          "name": "owner",
          "type": "address"
        },
        {
          "indexed": false,
          "internalType": "uint256",
          "name": "newTries",
          "type": "uint256"
        },
        {
          "indexed": false,
          "internalType": "uint256",
          "name": "newHours",
          "type": "uint256"
        },
        {
          "indexed": false,
          "internalType": "uint256",
          "name": "newPrice",
          "type": "uint256"
        }
      ],
      "name": "ticketConditionsChanged",
      "type": "event"
    },
    {
      "anonymous": false,
      "inputs": [
        {
          "indexed": false,
          "internalType": "address",
          "name": "owner",
          "type": "address"
        }
      ],
      "name": "unListTicketOnSale",
      "type": "event"
    },
    {
      "anonymous": false,
      "inputs": [
        {
          "indexed": false,
          "internalType": "address",
          "name": "owner",
          "type": "address"
        },
        {
          "indexed": false,
          "internalType": "uint256",
          "name": "marketItemId",
          "type": "uint256"
        }
      ],
      "name": "unListedItem",
      "type": "event"
    },
    {
      "inputs": [],
      "name": "ADMIN_ROLE",
      "outputs": [
        {
          "internalType": "bytes32",
          "name": "",
          "type": "bytes32"
        }
      ],
      "stateMutability": "view",
      "type": "function"
    },
    {
      "inputs": [],
      "name": "DEFAULT_ADMIN_ROLE",
      "outputs": [
        {
          "internalType": "bytes32",
          "name": "",
          "type": "bytes32"
        }
      ],
      "stateMutability": "view",
      "type": "function"
    },
    {
      "inputs": [],
      "name": "NUM_WORDS",
      "outputs": [
        {
          "internalType": "uint32",
          "name": "",
          "type": "uint32"
        }
      ],
      "stateMutability": "view",
      "type": "function"
    },
    {
      "inputs": [],
      "name": "REQUEST_CONFIRMATIONS",
      "outputs": [
        {
          "internalType": "uint16",
          "name": "",
          "type": "uint16"
        }
      ],
      "stateMutability": "view",
      "type": "function"
    },
    {
      "inputs": [
        {
          "internalType": "uint256",
          "name": "",
          "type": "uint256"
        }
      ],
      "name": "_marketItems",
      "outputs": [
        {
          "internalType": "uint256",
          "name": "tokenId",
          "type": "uint256"
        },
        {
          "internalType": "uint256",
          "name": "marketItemId",
          "type": "uint256"
        },
        {
          "internalType": "uint256",
          "name": "price",
          "type": "uint256"
        },
        {
          "internalType": "address",
          "name": "itemOwner",
          "type": "address"
        },
        {
          "internalType": "bool",
          "name": "isOnSale",
          "type": "bool"
        }
      ],
      "stateMutability": "view",
      "type": "function"
    },
    {
      "inputs": [],
      "name": "_randomNumber",
      "outputs": [
        {
          "internalType": "uint256",
          "name": "",
          "type": "uint256"
        }
      ],
      "stateMutability": "nonpayable",
      "type": "function"
    },
    {
      "inputs": [
        {
          "internalType": "uint256",
          "name": "tokenId",
          "type": "uint256"
        }
      ],
      "name": "_rarityOfItem",
      "outputs": [
        {
          "internalType": "uint256",
          "name": "",
          "type": "uint256"
        }
      ],
      "stateMutability": "view",
      "type": "function"
    },
    {
      "inputs": [
        {
          "internalType": "uint256",
          "name": "",
          "type": "uint256"
        }
      ],
      "name": "_tickets",
      "outputs": [
        {
          "internalType": "uint256",
          "name": "ticketId",
          "type": "uint256"
        },
        {
          "internalType": "uint256",
          "name": "numTries",
          "type": "uint256"
        },
        {
          "internalType": "uint256",
          "name": "duration",
          "type": "uint256"
        },
        {
          "internalType": "uint256",
          "name": "price",
          "type": "uint256"
        },
        {
          "internalType": "address",
          "name": "owner",
          "type": "address"
        },
        {
          "internalType": "uint256",
          "name": "timeWhenSold",
          "type": "uint256"
        },
        {
          "internalType": "bool",
          "name": "isAvaliable",
          "type": "bool"
        }
      ],
      "stateMutability": "view",
      "type": "function"
    },
    {
      "inputs": [
        {
          "internalType": "address",
          "name": "account",
          "type": "address"
        },
        {
          "internalType": "uint256",
          "name": "id",
          "type": "uint256"
        }
      ],
      "name": "balanceOf",
      "outputs": [
        {
          "internalType": "uint256",
          "name": "",
          "type": "uint256"
        }
      ],
      "stateMutability": "view",
      "type": "function"
    },
    {
      "inputs": [
        {
          "internalType": "address[]",
          "name": "accounts",
          "type": "address[]"
        },
        {
          "internalType": "uint256[]",
          "name": "ids",
          "type": "uint256[]"
        }
      ],
      "name": "balanceOfBatch",
      "outputs": [
        {
          "internalType": "uint256[]",
          "name": "",
          "type": "uint256[]"
        }
      ],
      "stateMutability": "view",
      "type": "function"
    },
    {
      "inputs": [
        {
          "internalType": "uint256",
          "name": "marketItemId",
          "type": "uint256"
        }
      ],
      "name": "buyItem",
      "outputs": [],
      "stateMutability": "nonpayable",
      "type": "function"
    },
    {
      "inputs": [
        {
          "internalType": "uint256",
          "name": "ticketId",
          "type": "uint256"
        }
      ],
      "name": "buyTicket",
      "outputs": [],
      "stateMutability": "nonpayable",
      "type": "function"
    },
    {
      "inputs": [],
      "name": "caseLiquidity",
      "outputs": [
        {
          "internalType": "uint256[]",
          "name": "",
          "type": "uint256[]"
        }
      ],
      "stateMutability": "view",
      "type": "function"
    },
    {
      "inputs": [],
      "name": "casePrice",
      "outputs": [
        {
          "internalType": "uint256",
          "name": "",
          "type": "uint256"
        }
      ],
      "stateMutability": "view",
      "type": "function"
    },
    {
      "inputs": [
        {
          "internalType": "uint256",
          "name": "marketItemId",
          "type": "uint256"
        },
        {
          "internalType": "uint256",
          "name": "newPrice",
          "type": "uint256"
        }
      ],
      "name": "changeItemPrice",
      "outputs": [],
      "stateMutability": "nonpayable",
      "type": "function"
    },
    {
      "inputs": [
        {
          "internalType": "uint256",
          "name": "ticketId",
          "type": "uint256"
        },
        {
          "internalType": "uint256",
          "name": "newTries",
          "type": "uint256"
        },
        {
          "internalType": "uint256",
          "name": "newHours",
          "type": "uint256"
        },
        {
          "internalType": "uint256",
          "name": "newPrice",
          "type": "uint256"
        }
      ],
      "name": "changeTicketConditions",
      "outputs": [],
      "stateMutability": "nonpayable",
      "type": "function"
    },
    {
      "inputs": [
        {
          "internalType": "uint256",
          "name": "ticketId",
          "type": "uint256"
        }
      ],
      "name": "claimTicketBack",
      "outputs": [],
      "stateMutability": "nonpayable",
      "type": "function"
    },
    {
      "inputs": [],
      "name": "contractActive",
      "outputs": [
        {
          "internalType": "bool",
          "name": "",
          "type": "bool"
        }
      ],
      "stateMutability": "view",
      "type": "function"
    },
    {
      "inputs": [
        {
          "internalType": "uint256",
          "name": "tokenId",
          "type": "uint256"
        }
      ],
      "name": "exchangeItem",
      "outputs": [],
      "stateMutability": "nonpayable",
      "type": "function"
    },
    {
      "inputs": [],
      "name": "flipContractState",
      "outputs": [],
      "stateMutability": "nonpayable",
      "type": "function"
    },
    {
      "inputs": [],
      "name": "getCasePrice",
      "outputs": [
        {
          "internalType": "uint256",
          "name": "",
          "type": "uint256"
        }
      ],
      "stateMutability": "view",
      "type": "function"
    },
    {
      "inputs": [],
      "name": "getITicketsOnSale",
      "outputs": [
        {
          "components": [
            {
              "internalType": "uint256",
              "name": "ticketId",
              "type": "uint256"
            },
            {
              "internalType": "uint256",
              "name": "numTries",
              "type": "uint256"
            },
            {
              "internalType": "uint256",
              "name": "duration",
              "type": "uint256"
            },
            {
              "internalType": "uint256",
              "name": "price",
              "type": "uint256"
            },
            {
              "internalType": "address",
              "name": "owner",
              "type": "address"
            },
            {
              "internalType": "uint256",
              "name": "timeWhenSold",
              "type": "uint256"
            },
            {
              "internalType": "bool",
              "name": "isAvaliable",
              "type": "bool"
            }
          ],
          "internalType": "struct IRacksItems.caseTicket[]",
          "name": "",
          "type": "tuple[]"
        }
      ],
      "stateMutability": "view",
      "type": "function"
    },
    {
      "inputs": [],
      "name": "getItemsOnSale",
      "outputs": [
        {
          "components": [
            {
              "internalType": "uint256",
              "name": "tokenId",
              "type": "uint256"
            },
            {
              "internalType": "uint256",
              "name": "marketItemId",
              "type": "uint256"
            },
            {
              "internalType": "uint256",
              "name": "price",
              "type": "uint256"
            },
            {
              "internalType": "address",
              "name": "itemOwner",
              "type": "address"
            },
            {
              "internalType": "bool",
              "name": "isOnSale",
              "type": "bool"
            }
          ],
          "internalType": "struct IRacksItems.itemOnSale[]",
          "name": "",
          "type": "tuple[]"
        }
      ],
      "stateMutability": "view",
      "type": "function"
    },
    {
      "inputs": [
        {
          "internalType": "uint256",
          "name": "marketItemId",
          "type": "uint256"
        }
      ],
      "name": "getMarketItem",
      "outputs": [
        {
          "components": [
            {
              "internalType": "uint256",
              "name": "tokenId",
              "type": "uint256"
            },
            {
              "internalType": "uint256",
              "name": "marketItemId",
              "type": "uint256"
            },
            {
              "internalType": "uint256",
              "name": "price",
              "type": "uint256"
            },
            {
              "internalType": "address",
              "name": "itemOwner",
              "type": "address"
            },
            {
              "internalType": "bool",
              "name": "isOnSale",
              "type": "bool"
            }
          ],
          "internalType": "struct IRacksItems.itemOnSale",
          "name": "",
          "type": "tuple"
        }
      ],
      "stateMutability": "view",
      "type": "function"
    },
    {
      "inputs": [
        {
          "internalType": "uint256",
          "name": "ticketId",
          "type": "uint256"
        }
      ],
      "name": "getMarketTicket",
      "outputs": [
        {
          "components": [
            {
              "internalType": "uint256",
              "name": "ticketId",
              "type": "uint256"
            },
            {
              "internalType": "uint256",
              "name": "numTries",
              "type": "uint256"
            },
            {
              "internalType": "uint256",
              "name": "duration",
              "type": "uint256"
            },
            {
              "internalType": "uint256",
              "name": "price",
              "type": "uint256"
            },
            {
              "internalType": "address",
              "name": "owner",
              "type": "address"
            },
            {
              "internalType": "uint256",
              "name": "timeWhenSold",
              "type": "uint256"
            },
            {
              "internalType": "bool",
              "name": "isAvaliable",
              "type": "bool"
            }
          ],
          "internalType": "struct IRacksItems.caseTicket",
          "name": "",
          "type": "tuple"
        }
      ],
      "stateMutability": "view",
      "type": "function"
    },
    {
      "inputs": [
        {
          "internalType": "bytes32",
          "name": "role",
          "type": "bytes32"
        }
      ],
      "name": "getRoleAdmin",
      "outputs": [
        {
          "internalType": "bytes32",
          "name": "",
          "type": "bytes32"
        }
      ],
      "stateMutability": "view",
      "type": "function"
    },
    {
      "inputs": [
        {
          "internalType": "uint256",
          "name": "ticketId",
          "type": "uint256"
        }
      ],
      "name": "getTicketDurationLeft",
      "outputs": [
        {
          "internalType": "address",
          "name": "",
          "type": "address"
        },
        {
          "internalType": "uint256",
          "name": "",
          "type": "uint256"
        },
        {
          "internalType": "bool",
          "name": "",
          "type": "bool"
        }
      ],
      "stateMutability": "view",
      "type": "function"
    },
    {
      "inputs": [
        {
          "internalType": "bytes32",
          "name": "role",
          "type": "bytes32"
        },
        {
          "internalType": "address",
          "name": "account",
          "type": "address"
        }
      ],
      "name": "grantRole",
      "outputs": [],
      "stateMutability": "nonpayable",
      "type": "function"
    },
    {
      "inputs": [
        {
          "internalType": "bytes32",
          "name": "role",
          "type": "bytes32"
        },
        {
          "internalType": "address",
          "name": "account",
          "type": "address"
        }
      ],
      "name": "hasRole",
      "outputs": [
        {
          "internalType": "bool",
          "name": "",
          "type": "bool"
        }
      ],
      "stateMutability": "view",
      "type": "function"
    },
    {
      "inputs": [],
      "name": "i_callbackGasLimit",
      "outputs": [
        {
          "internalType": "uint32",
          "name": "",
          "type": "uint32"
        }
      ],
      "stateMutability": "view",
      "type": "function"
    },
    {
      "inputs": [],
      "name": "i_gasLane",
      "outputs": [
        {
          "internalType": "bytes32",
          "name": "",
          "type": "bytes32"
        }
      ],
      "stateMutability": "view",
      "type": "function"
    },
    {
      "inputs": [],
      "name": "i_subscriptionId",
      "outputs": [
        {
          "internalType": "uint64",
          "name": "",
          "type": "uint64"
        }
      ],
      "stateMutability": "view",
      "type": "function"
    },
    {
      "inputs": [],
      "name": "i_vrfCoordinator",
      "outputs": [
        {
          "internalType": "contract VRFCoordinatorV2Interface",
          "name": "",
          "type": "address"
        }
      ],
      "stateMutability": "view",
      "type": "function"
    },
    {
      "inputs": [
        {
          "internalType": "address",
          "name": "account",
          "type": "address"
        },
        {
          "internalType": "address",
          "name": "operator",
          "type": "address"
        }
      ],
      "name": "isApprovedForAll",
      "outputs": [
        {
          "internalType": "bool",
          "name": "",
          "type": "bool"
        }
      ],
      "stateMutability": "view",
      "type": "function"
    },
    {
      "inputs": [
        {
          "internalType": "address",
          "name": "user",
          "type": "address"
        }
      ],
      "name": "isVip",
      "outputs": [
        {
          "internalType": "bool",
          "name": "",
          "type": "bool"
        }
      ],
      "stateMutability": "view",
      "type": "function"
    },
    {
      "inputs": [
        {
          "internalType": "uint256",
          "name": "itemSupply",
          "type": "uint256"
        }
      ],
      "name": "listItem",
      "outputs": [],
      "stateMutability": "nonpayable",
      "type": "function"
    },
    {
      "inputs": [
        {
          "internalType": "uint256",
          "name": "marketItemId",
          "type": "uint256"
        },
        {
          "internalType": "uint256",
          "name": "price",
          "type": "uint256"
        }
      ],
      "name": "listItemOnMarket",
      "outputs": [],
      "stateMutability": "nonpayable",
      "type": "function"
    },
    {
      "inputs": [
        {
          "internalType": "uint256",
          "name": "numTries",
          "type": "uint256"
        },
        {
          "internalType": "uint256",
          "name": "_hours",
          "type": "uint256"
        },
        {
          "internalType": "uint256",
          "name": "price",
          "type": "uint256"
        }
      ],
      "name": "listTicket",
      "outputs": [],
      "stateMutability": "nonpayable",
      "type": "function"
    },
    {
      "inputs": [
        {
          "internalType": "address",
          "name": "",
          "type": "address"
        },
        {
          "internalType": "address",
          "name": "",
          "type": "address"
        },
        {
          "internalType": "uint256[]",
          "name": "",
          "type": "uint256[]"
        },
        {
          "internalType": "uint256[]",
          "name": "",
          "type": "uint256[]"
        },
        {
          "internalType": "bytes",
          "name": "",
          "type": "bytes"
        }
      ],
      "name": "onERC1155BatchReceived",
      "outputs": [
        {
          "internalType": "bytes4",
          "name": "",
          "type": "bytes4"
        }
      ],
      "stateMutability": "nonpayable",
      "type": "function"
    },
    {
      "inputs": [
        {
          "internalType": "address",
          "name": "",
          "type": "address"
        },
        {
          "internalType": "address",
          "name": "",
          "type": "address"
        },
        {
          "internalType": "uint256",
          "name": "",
          "type": "uint256"
        },
        {
          "internalType": "uint256",
          "name": "",
          "type": "uint256"
        },
        {
          "internalType": "bytes",
          "name": "",
          "type": "bytes"
        }
      ],
      "name": "onERC1155Received",
      "outputs": [
        {
          "internalType": "bytes4",
          "name": "",
          "type": "bytes4"
        }
      ],
      "stateMutability": "nonpayable",
      "type": "function"
    },
    {
      "inputs": [],
      "name": "openCase",
      "outputs": [],
      "stateMutability": "nonpayable",
      "type": "function"
    },
    {
      "inputs": [
        {
          "internalType": "uint256",
          "name": "requestId",
          "type": "uint256"
        },
        {
          "internalType": "uint256[]",
          "name": "randomWords",
          "type": "uint256[]"
        }
      ],
      "name": "rawFulfillRandomWords",
      "outputs": [],
      "stateMutability": "nonpayable",
      "type": "function"
    },
    {
      "inputs": [
        {
          "internalType": "bytes32",
          "name": "role",
          "type": "bytes32"
        },
        {
          "internalType": "address",
          "name": "account",
          "type": "address"
        }
      ],
      "name": "renounceRole",
      "outputs": [],
      "stateMutability": "nonpayable",
      "type": "function"
    },
    {
      "inputs": [
        {
          "internalType": "bytes32",
          "name": "role",
          "type": "bytes32"
        },
        {
          "internalType": "address",
          "name": "account",
          "type": "address"
        }
      ],
      "name": "revokeRole",
      "outputs": [],
      "stateMutability": "nonpayable",
      "type": "function"
    },
    {
      "inputs": [],
      "name": "s_contractState",
      "outputs": [
        {
          "internalType": "enum RacksItemsv4.ContractState",
          "name": "",
          "type": "uint8"
        }
      ],
      "stateMutability": "view",
      "type": "function"
    },
    {
      "inputs": [],
      "name": "s_randomWord",
      "outputs": [
        {
          "internalType": "uint256",
          "name": "",
          "type": "uint256"
        }
      ],
      "stateMutability": "view",
      "type": "function"
    },
    {
      "inputs": [
        {
          "internalType": "address",
          "name": "from",
          "type": "address"
        },
        {
          "internalType": "address",
          "name": "to",
          "type": "address"
        },
        {
          "internalType": "uint256[]",
          "name": "ids",
          "type": "uint256[]"
        },
        {
          "internalType": "uint256[]",
          "name": "amounts",
          "type": "uint256[]"
        },
        {
          "internalType": "bytes",
          "name": "data",
          "type": "bytes"
        }
      ],
      "name": "safeBatchTransferFrom",
      "outputs": [],
      "stateMutability": "nonpayable",
      "type": "function"
    },
    {
      "inputs": [
        {
          "internalType": "address",
          "name": "from",
          "type": "address"
        },
        {
          "internalType": "address",
          "name": "to",
          "type": "address"
        },
        {
          "internalType": "uint256",
          "name": "id",
          "type": "uint256"
        },
        {
          "internalType": "uint256",
          "name": "amount",
          "type": "uint256"
        },
        {
          "internalType": "bytes",
          "name": "data",
          "type": "bytes"
        }
      ],
      "name": "safeTransferFrom",
      "outputs": [],
      "stateMutability": "nonpayable",
      "type": "function"
    },
    {
      "inputs": [
        {
          "internalType": "address",
          "name": "_newAdmin",
          "type": "address"
        }
      ],
      "name": "setAdmin",
      "outputs": [],
      "stateMutability": "nonpayable",
      "type": "function"
    },
    {
      "inputs": [
        {
          "internalType": "address",
          "name": "operator",
          "type": "address"
        },
        {
          "internalType": "bool",
          "name": "approved",
          "type": "bool"
        }
      ],
      "name": "setApprovalForAll",
      "outputs": [],
      "stateMutability": "nonpayable",
      "type": "function"
    },
    {
      "inputs": [
        {
          "internalType": "uint256",
          "name": "price",
          "type": "uint256"
        }
      ],
      "name": "setCasePrice",
      "outputs": [],
      "stateMutability": "nonpayable",
      "type": "function"
    },
    {
      "inputs": [
        {
          "internalType": "uint256",
          "name": "tokenId",
          "type": "uint256"
        },
        {
          "internalType": "string",
          "name": "_uri",
          "type": "string"
        }
      ],
      "name": "setTokenUri",
      "outputs": [],
      "stateMutability": "nonpayable",
      "type": "function"
    },
    {
      "inputs": [
        {
          "internalType": "uint256",
          "name": "tokenId",
          "type": "uint256"
        }
      ],
      "name": "supplyOfItem",
      "outputs": [
        {
          "internalType": "uint256",
          "name": "",
          "type": "uint256"
        }
      ],
      "stateMutability": "view",
      "type": "function"
    },
    {
      "inputs": [
        {
          "internalType": "bytes4",
          "name": "interfaceId",
          "type": "bytes4"
        }
      ],
      "name": "supportsInterface",
      "outputs": [
        {
          "internalType": "bool",
          "name": "",
          "type": "bool"
        }
      ],
      "stateMutability": "view",
      "type": "function"
    },
    {
      "inputs": [
        {
          "internalType": "uint256",
          "name": "marketItemId",
          "type": "uint256"
        }
      ],
      "name": "unListItem",
      "outputs": [],
      "stateMutability": "nonpayable",
      "type": "function"
    },
    {
      "inputs": [
        {
          "internalType": "uint256",
          "name": "ticketId",
          "type": "uint256"
        }
      ],
      "name": "unListTicket",
      "outputs": [],
      "stateMutability": "nonpayable",
      "type": "function"
    },
    {
      "inputs": [
        {
          "internalType": "uint256",
          "name": "tokenId",
          "type": "uint256"
        }
      ],
      "name": "uri",
      "outputs": [
        {
          "internalType": "string",
          "name": "",
          "type": "string"
        }
      ],
      "stateMutability": "view",
      "type": "function"
    },
    {
      "inputs": [
        {
          "internalType": "address",
          "name": "owner",
          "type": "address"
        }
      ],
      "name": "viewItems",
      "outputs": [
        {
          "internalType": "uint256[]",
          "name": "",
          "type": "uint256[]"
        }
      ],
      "stateMutability": "view",
      "type": "function"
    },
    {
      "inputs": [
        {
          "internalType": "address",
          "name": "wallet",
          "type": "address"
        }
      ],
      "name": "withdrawAllFunds",
      "outputs": [],
      "stateMutability": "nonpayable",
      "type": "function"
    },
    {
      "inputs": [
        {
          "internalType": "address",
          "name": "wallet",
          "type": "address"
        },
        {
          "internalType": "uint256",
          "name": "amount",
          "type": "uint256"
        }
      ],
      "name": "withdrawFunds",
      "outputs": [],
      "stateMutability": "nonpayable",
      "type": "function"
    },
    {
      "stateMutability": "payable",
      "type": "receive"
    }
  ],
  "bytecode": "0x610120604052600c805460ff191660011790553480156200001f57600080fd5b5060405162005f8c38038062005f8c8339810160408190526200004291620001de565b60408051602081019091526000815286906200005e8162000102565b506001600160601b0319606091821b811660805296901b90951660a05260c09384526001600160c01b03199290931b9190911660e09081526001600160e01b031991901b1661010052600480546001600160a01b039384166001600160a01b0319918216179091556005805493909216928116929092179055600680549091163317905560006008819055600a556001600b55600c805461ff0019169055620002ac565b8051620001179060029060208401906200011b565b5050565b82805462000129906200026f565b90600052602060002090601f0160209004810192826200014d576000855562000198565b82601f106200016857805160ff191683800117855562000198565b8280016001018555821562000198579182015b82811115620001985782518255916020019190600101906200017b565b50620001a6929150620001aa565b5090565b5b80821115620001a65760008155600101620001ab565b80516001600160a01b0381168114620001d957600080fd5b919050565b60008060008060008060c08789031215620001f857600080fd5b6200020387620001c1565b6020880151604089015191975095506001600160401b03811681146200022857600080fd5b606088015190945063ffffffff811681146200024357600080fd5b92506200025360808801620001c1565b91506200026360a08801620001c1565b90509295509295509295565b600181811c908216806200028457607f821691505b60208210811415620002a657634e487b7160e01b600052602260045260246000fd5b50919050565b60805160601c60a05160601c60c05160e05160c01c6101005160e01c615c6c6200032060003960008181610ac20152611e380152600081816105e10152611e0501526000818161082b0152611dd70152600081816108f40152611e7301526000818161154a01526115720152615c6c6000f3fe60806040526004361061031a5760003560e01c80638dc5f45b1161019c578063c7be7a49116100e2578063de08f65311610090578063de08f65314610b11578063e289fcb614610b26578063e7fb74c714610b40578063e985e9c514610b60578063f23a6e6114610b80578063f242432a14610bac578063f48c9d3414610bcc578063fd210fd914610bec57600080fd5b8063c7be7a4914610a18578063c7e05f8d14610a45578063ca90958f14610a65578063d3c115f214610a7b578063d547741f14610a90578063d757d02714610ab0578063dd006d3114610ae457600080fd5b8063a7bc77c61161014a578063a7bc77c6146108c2578063aebc4550146108e2578063b2ead3c714610923578063b63b861214610945578063b85e67af14610971578063bbcbc2e714610991578063bc197c81146109b3578063c1075329146109f857600080fd5b80638dc5f45b146107f95780638e879c8a1461081957806391d148541461084d578063976298f31461086d578063a217fddf14610744578063a22cb46514610882578063a7b19424146108a257600080fd5b806336568abe1161026157806367dd74ca1161020f57806367dd74ca146106b257806367f082b0146106d2578063704b6c02146106fa57806372cf6e341461071a57806375b238fc1461074457806378a2db88146107595780637e420db5146107b957806384203f4b146107d957600080fd5b806336568abe146105af578063470cdf97146105cf5780634a2266571461061b5780634e1273f41461063057806357f7789e1461065d578063616524501461067d57806361c073d61461069257600080fd5b80631cb0b273116102c95780631cb0b273146104925780631fe543e3146104b257806320ba0814146104d2578063248a9ca3146104ff5780632ce381901461052f5780632eb2c2d61461054f5780632f2ff15d1461056f57806332dee40b1461058f57600080fd5b8062fdd58e1461032657806301ffc9a714610359578063020f1980146103895780630e89341c146103ab5780631949b133146103d857806319c085751461042b5780631c7cbe4f1461047257600080fd5b3661032157005b600080fd5b34801561033257600080fd5b5061034661034136600461508a565b610c02565b6040519081526020015b60405180910390f35b34801561036557600080fd5b506103796103743660046151dd565b610c9c565b6040519015158152602001610350565b34801561039557600080fd5b506103a96103a43660046152bc565b610ca7565b005b3480156103b757600080fd5b506103cb6103c63660046151a1565b610f22565b60405161035091906156e4565b3480156103e457600080fd5b506103f86103f33660046151a1565b610fc4565b604080519586526020860194909452928401919091526001600160a01b031660608301521515608082015260a001610350565b34801561043757600080fd5b5061044b6104463660046151a1565b611013565b604080516001600160a01b0390941684526020840192909252151590820152606001610350565b34801561047e57600080fd5b506103a961048d36600461530a565b611339565b34801561049e57600080fd5b506103a96104ad3660046151a1565b6114a2565b3480156104be57600080fd5b506103a96104cd366004615230565b61153f565b3480156104de57600080fd5b506103466104ed3660046151a1565b60009081526010602052604090205490565b34801561050b57600080fd5b5061034661051a3660046151a1565b60009081526003602052604090206001015490565b34801561053b57600080fd5b506103a961054a3660046151a1565b6115ba565b34801561055b57600080fd5b506103a961056a366004614f46565b6115ec565b34801561057b57600080fd5b506103a961058a3660046151ba565b611683565b34801561059b57600080fd5b506103a96105aa366004614ef8565b6116ad565b3480156105bb57600080fd5b506103a96105ca3660046151ba565b61186e565b3480156105db57600080fd5b506106037f000000000000000000000000000000000000000000000000000000000000000081565b6040516001600160401b039091168152602001610350565b34801561062757600080fd5b506103a96118e8565b34801561063c57600080fd5b5061065061064b3660046150b4565b611bfb565b604051610350919061567b565b34801561066957600080fd5b506103a961067836600461526c565b611d24565b34801561068957600080fd5b50610346611dc8565b34801561069e57600080fd5b506103a96106ad3660046151a1565b611eef565b3480156106be57600080fd5b506103a96106cd3660046151a1565b61223e565b3480156106de57600080fd5b506106e7600381565b60405161ffff9091168152602001610350565b34801561070657600080fd5b506103a9610715366004614ef8565b612707565b34801561072657600080fd5b5061072f600281565b60405163ffffffff9091168152602001610350565b34801561075057600080fd5b50610346600081565b34801561076557600080fd5b506107796107743660046151a1565b61273c565b6040805197885260208801969096529486019390935260608501919091526001600160a01b0316608084015260a0830152151560c082015260e001610350565b3480156107c557600080fd5b506103a96107d43660046151a1565b612797565b3480156107e557600080fd5b506103796107f4366004614ef8565b6128cf565b34801561080557600080fd5b506103a96108143660046151a1565b61296c565b34801561082557600080fd5b506103467f000000000000000000000000000000000000000000000000000000000000000081565b34801561085957600080fd5b506103796108683660046151ba565b6129c6565b34801561087957600080fd5b50600b54610346565b34801561088e57600080fd5b506103a961089d366004615053565b6129f1565b3480156108ae57600080fd5b506103a96108bd3660046152bc565b6129fc565b3480156108ce57600080fd5b506103a96108dd3660046151a1565b612ada565b3480156108ee57600080fd5b506109167f000000000000000000000000000000000000000000000000000000000000000081565b6040516103509190615496565b34801561092f57600080fd5b50610938612bfd565b60405161035091906155eb565b34801561095157600080fd5b50600c5461096490610100900460ff1681565b60405161035091906156bc565b34801561097d57600080fd5b506103a961098c3660046152de565b612dfa565b34801561099d57600080fd5b506109a6613113565b6040516103509190615639565b3480156109bf57600080fd5b506109df6109ce366004614f46565b63bc197c8160e01b95945050505050565b6040516001600160e01b03199091168152602001610350565b348015610a0457600080fd5b506103a9610a1336600461508a565b613319565b348015610a2457600080fd5b50610a38610a333660046151a1565b613465565b604051610350919061596f565b348015610a5157600080fd5b50610346610a603660046151a1565b6134e3565b348015610a7157600080fd5b50610346600b5481565b348015610a8757600080fd5b5061065061351a565b348015610a9c57600080fd5b506103a9610aab3660046151ba565b613601565b348015610abc57600080fd5b5061072f7f000000000000000000000000000000000000000000000000000000000000000081565b348015610af057600080fd5b50610b04610aff3660046151a1565b613626565b6040516103509190615961565b348015610b1d57600080fd5b506103a96136b4565b348015610b3257600080fd5b50600c546103799060ff1681565b348015610b4c57600080fd5b506103a9610b5b3660046151a1565b61371b565b348015610b6c57600080fd5b50610379610b7b366004614f13565b613caf565b348015610b8c57600080fd5b506109df610b9b366004614fef565b63f23a6e6160e01b95945050505050565b348015610bb857600080fd5b506103a9610bc7366004614fef565b613cdd565b348015610bd857600080fd5b50610650610be7366004614ef8565b613d64565b348015610bf857600080fd5b50610346600f5481565b60006001600160a01b038316610c735760405162461bcd60e51b815260206004820152602b60248201527f455243313135353a2062616c616e636520717565727920666f7220746865207a60448201526a65726f206164647265737360a81b60648201526084015b60405180910390fd5b506000818152602081815260408083206001600160a01b03861684529091529020545b92915050565b6000610c9682613e28565b6000610cb33384610c02565b11610cf25760405162461bcd60e51b815260206004820152600f60248201526e24ba32b6903737ba103337bab7321760891b6044820152606401610c6a565b610cfc3330613caf565b610d485760405162461bcd60e51b815260206004820152601f60248201527f417070726f766564206973206e6f7420636f72726563746c7920646f6e652e006044820152606401610c6a565b60008111610d985760405162461bcd60e51b815260206004820152601c60248201527f5072696365206d7573742062652067726561746572207468616e2030000000006044820152606401610c6a565b3360009081526016602090815260408083208584529091528120805460019290610dc39084906159a0565b90915550506040805160a08101825283815260098054602083019081529282018481523360608401908152600160808501818152600d80549283018155600090815295517fd7b6990105719101dabeb77144f2a3385c8033acd3af97e9423a695e81ad1eb560049093029283015595517fd7b6990105719101dabeb77144f2a3385c8033acd3af97e9423a695e81ad1eb682015591517fd7b6990105719101dabeb77144f2a3385c8033acd3af97e9423a695e81ad1eb7830155517fd7b6990105719101dabeb77144f2a3385c8033acd3af97e9423a695e81ad1eb8909101805494516001600160a01b039092166001600160a81b031990951694909417600160a01b911515919091021790925581549190610ede83615ab0565b91905055507f23cba88d6c6f26b62b2cfc32a2cc04fbbde8590188b97cd3590e45af9ac6dd6d338383604051610f16939291906155a4565b60405180910390a15050565b6000818152601160205260409020805460609190610f3f90615a49565b80601f0160208091040260200160405190810160405280929190818152602001828054610f6b90615a49565b8015610fb85780601f10610f8d57610100808354040283529160200191610fb8565b820191906000526020600020905b815481529060010190602001808311610f9b57829003601f168201915b50505050509050919050565b600d8181548110610fd457600080fd5b6000918252602090912060049091020180546001820154600283015460039093015491935091906001600160a01b03811690600160a01b900460ff1685565b600080600080600e858154811061102c5761102c615b21565b906000526020600020906007020160050154116110855760405162461bcd60e51b81526020600482015260176024820152762a34b1b5b2ba1034b9903737ba1039b7b632103cb2ba1760491b6044820152606401610c6a565b6000600e858154811061109a5761109a615b21565b906000526020600020906007020160010154600014156111f257600e85815481106110c7576110c7615b21565b906000526020600020906007020160020154603c6110e591906159cc565b603c600e87815481106110fa576110fa615b21565b9060005260206000209060070201600501544261111791906159eb565b61112191906159b8565b14156111665760009050600e858154811061113e5761113e615b21565b600091825260208220600460079092020101546001600160a01b031694509092509050611332565b603c600e868154811061117b5761117b615b21565b9060005260206000209060070201600501544261119891906159eb565b6111a291906159b8565b600e86815481106111b5576111b5615b21565b906000526020600020906007020160020154603c6111d391906159cc565b6111dd91906159eb565b9050600e858154811061113e5761113e615b21565b600e858154811061120557611205615b21565b906000526020600020906007020160020154603c61122391906159cc565b603c600e878154811061123857611238615b21565b9060005260206000209060070201600501544261125591906159eb565b61125f91906159b8565b14156112a65760009050600e858154811061127c5761127c615b21565b60009182526020909120600460079092020101546001600160a01b03169350915060019050611332565b603c600e86815481106112bb576112bb615b21565b906000526020600020906007020160050154426112d891906159eb565b6112e291906159b8565b600e86815481106112f5576112f5615b21565b906000526020600020906007020160020154603c61131391906159cc565b61131d91906159eb565b9050600e858154811061127c5761127c615b21565b9193909250565b611342336128cf565b61135e5760405162461bcd60e51b8152600401610c6a90615870565b3360009081526012602052604090205460ff1661138d5760405162461bcd60e51b8152600401610c6a90615774565b336001600160a01b0316600e85815481106113aa576113aa615b21565b60009182526020909120600460079092020101546001600160a01b0316146113e45760405162461bcd60e51b8152600401610c6a9061573f565b80600e85815481106113f8576113f8615b21565b90600052602060002090600702016003018190555081600e858154811061142157611421615b21565b90600052602060002090600702016002018190555082600e858154811061144a5761144a615b21565b9060005260206000209060070201600101819055507f0fcd915268f7fe921a6c99bd903199d2f30c7f65a422416bfd1de6a264b8264d3384848460405161149494939291906155c5565b60405180910390a150505050565b60006114ae3383610c02565b116114b857600080fd5b6114c433826001613e4d565b60008181526010602052604081208054600192906114e39084906159eb565b925050819055506001600760008282546114fd91906159eb565b90915550506040517f9e90d55d2f1f115ffe1b87372c45f27f6b3a2b5ba392942167be78456189009490611534903390849061558b565b60405180910390a150565b336001600160a01b037f000000000000000000000000000000000000000000000000000000000000000016146115ac57337f000000000000000000000000000000000000000000000000000000000000000060405163073e64fd60e21b8152600401610c6a9291906154aa565b6115b68282613fbc565b5050565b6115c333613fe1565b6115df5760405162461bcd60e51b8152600401610c6a906158f1565b6115e93082614017565b50565b6001600160a01b03851633148061160857506116088533613caf565b61166f5760405162461bcd60e51b815260206004820152603260248201527f455243313135353a207472616e736665722063616c6c6572206973206e6f74206044820152711bdddb995c881b9bdc88185c1c1c9bdd995960721b6064820152608401610c6a565b61167c8585858585614082565b5050505050565b60008281526003602052604090206001015461169e8161425f565b6116a88383614269565b505050565b6006546001600160a01b031633146116d75760405162461bcd60e51b8152600401610c6a90615932565b6005546040516370a0823160e01b81526000916001600160a01b0316906370a0823190611708903090600401615496565b60206040518083038186803b15801561172057600080fd5b505afa158015611734573d6000803e3d6000fd5b505050506040513d601f19601f820116820180604052508101906117589190615217565b116117755760405162461bcd60e51b8152600401610c6a906157ba565b6005546040516370a0823160e01b81526001600160a01b039091169063a9059cbb90839083906370a08231906117af903090600401615496565b60206040518083038186803b1580156117c757600080fd5b505afa1580156117db573d6000803e3d6000fd5b505050506040513d601f19601f820116820180604052508101906117ff9190615217565b6040518363ffffffff1660e01b815260040161181c92919061558b565b602060405180830381600087803b15801561183657600080fd5b505af115801561184a573d6000803e3d6000fd5b505050506040513d601f19601f820116820180604052508101906115b69190615184565b6001600160a01b03811633146118de5760405162461bcd60e51b815260206004820152602f60248201527f416363657373436f6e74726f6c3a2063616e206f6e6c792072656e6f756e636560448201526e103937b632b9903337b91039b2b63360891b6064820152608401610c6a565b6115b682826142ef565b3360009081526013602052604090205460ff166119625760405162461bcd60e51b815260206004820152603260248201527f5573657220646f6573206e6f74206f776e732061205469636b657420666f722060448201527137b832b73734b733903a34329031b0b9b29760711b6064820152608401610c6a565b6000600754116119b45760405162461bcd60e51b815260206004820152601c60248201527f546865726520617265206e6f206974656d73206176616c6961626c65000000006044820152606401610c6a565b6000600c54610100900460ff1660018111156119d2576119d2615b0b565b14611a2d5760405162461bcd60e51b815260206004820152602560248201527f436f6e7472616374206973206e6f74206163746976652061742074686973206d6044820152641bdb595b9d60da1b6064820152608401610c6a565b600554600b546040516323b872dd60e01b81526001600160a01b03909216916323b872dd91611a629133913091600401615522565b602060405180830381600087803b158015611a7c57600080fd5b505af1158015611a90573d6000803e3d6000fd5b505050506040513d601f19601f82011682018060405250810190611ab49190615184565b506000600754611ac2611dc8565b611acc9190615acb565b9050600080805b600854811015611ba257600081815260106020526040812054611af690856159a0565b905080851115611b0857809350611b8f565b819250611b153084610c02565b611b57576000611b266001856159eb565b90505b6000611b353083610c02565b1115611b4357809350611b55565b80611b4d81615a32565b915050611b29565b505b611b74303385600160405180602001604052806000815250614356565b60078054906000611b8483615a32565b919050555050611ba2565b5080611b9a81615ab0565b915050611ad3565b50611bac336128cf565b611bb957611bb93361446e565b7fea32e37a2618dbb680c93d891742e9e13b30d184822562a0ee3c09290fd42b4333600b5483604051611bee939291906155a4565b60405180910390a1505050565b60608151835114611c605760405162461bcd60e51b815260206004820152602960248201527f455243313135353a206163636f756e747320616e6420696473206c656e677468604482015268040dad2e6dac2e8c6d60bb1b6064820152608401610c6a565b600083516001600160401b03811115611c7b57611c7b615b37565b604051908082528060200260200182016040528015611ca4578160200160208202803683370190505b50905060005b8451811015611d1c57611cef858281518110611cc857611cc8615b21565b6020026020010151858381518110611ce257611ce2615b21565b6020026020010151610c02565b828281518110611d0157611d01615b21565b6020908102919091010152611d1581615ab0565b9050611caa565b509392505050565b611d2d33613fe1565b611d495760405162461bcd60e51b8152600401610c6a906158f1565b60008281526011602052604090208054611d6290615a49565b159050611da95760405162461bcd60e51b815260206004820152601560248201527443616e206e6f74207365742075726920747769636560581b6044820152606401610c6a565b600082815260116020908152604090912082516116a892840190614cd2565b6040516305d3b1d360e41b81527f000000000000000000000000000000000000000000000000000000000000000060048201526001600160401b037f00000000000000000000000000000000000000000000000000000000000000001660248201526003604482015263ffffffff7f00000000000000000000000000000000000000000000000000000000000000001660648201526002608482015260009081906001600160a01b037f00000000000000000000000000000000000000000000000000000000000000001690635d3b1d309060a401602060405180830381600087803b158015611eb757600080fd5b505af1158015611ecb573d6000803e3d6000fd5b505050506040513d601f19601f82011682018060405250810190610c969190615217565b611ef8336128cf565b611f145760405162461bcd60e51b8152600401610c6a90615870565b3360009081526015602052604090205460ff16611f735760405162461bcd60e51b815260206004820152601c60248201527f5573657220646964206e6f742073656c6c20616e79205469636b6574000000006044820152606401610c6a565b600e8181548110611f8657611f86615b21565b906000526020600020906007020160010154600014806120105750600e8181548110611fb457611fb4615b21565b906000526020600020906007020160020154603c611fd291906159cc565b603c600e8381548110611fe757611fe7615b21565b9060005260206000209060070201600501544261200491906159eb565b61200e91906159b8565b145b61207a5760405162461bcd60e51b815260206004820152603560248201527f4475726174696f6e206f6620746865205469636b6574206f72206e756d5472696044820152746573206973207374696c6c206176616c6961626c6560581b6064820152608401610c6a565b6000600e828154811061208f5761208f615b21565b906000526020600020906007020160040160009054906101000a90046001600160a01b03169050600060136000600e85815481106120cf576120cf615b21565b60009182526020808320600460079093020191909101546001600160a01b031683528281019390935260409182018120805494151560ff1995861617905533808252601384528282208054861660011790556015909352208054909216909155600e80548490811061214357612143615b21565b906000526020600020906007020160040160006101000a8154816001600160a01b0302191690836001600160a01b031602179055506001600e838154811061218d5761218d615b21565b906000526020600020906007020160060160006101000a81548160ff021916908315150217905550600160136000600e85815481106121ce576121ce615b21565b60009182526020808320600792909202909101600401546001600160a01b031683528201929092526040908101909120805460ff191692151592909217909155517f5093646a80c0a81f51115fbf5ec8379ecf902ae2ba552c74599cbe844dcb53e390610f1690839033906154aa565b612247336128cf565b156122945760405162461bcd60e51b815260206004820152601f60248201527f412056495020757365722063616e206e6f74206275792061207469636b6574006044820152606401610c6a565b336001600160a01b0316600e82815481106122b1576122b1615b21565b60009182526020909120600460079092020101546001600160a01b0316141561232a5760405162461bcd60e51b815260206004820152602560248201527f596f752063616e206e6f74206275792061207469636b657420746f20796f75726044820152641039b2b63360d91b6064820152608401610c6a565b600e818154811061233d5761233d615b21565b600091825260209091206006600790920201015460ff1615156001146123af5760405162461bcd60e51b815260206004820152602160248201527f5469636b6574206973206e6f742063757272656e746c79206176616c6961626c6044820152606560f81b6064820152608401610c6a565b6000600e82815481106123c4576123c4615b21565b6000918252602090912060079091020160040154600554600e80546001600160a01b03938416945092909116916323b872dd9133918690811061240957612409615b21565b906000526020600020906007020160040160009054906101000a90046001600160a01b0316600e868154811061244157612441615b21565b9060005260206000209060070201600301546040518463ffffffff1660e01b815260040161247193929190615522565b602060405180830381600087803b15801561248b57600080fd5b505af115801561249f573d6000803e3d6000fd5b505050506040513d601f19601f820116820180604052508101906124c39190615184565b5042600e83815481106124d8576124d8615b21565b906000526020600020906007020160050181905550600060136000600e858154811061250657612506615b21565b60009182526020808320600792909202909101600401546001600160a01b031683528201929092526040018120805460ff191692151592909217909155600e805460129183918690811061255c5761255c615b21565b60009182526020808320600792909202909101600401546001600160a01b031683528201929092526040018120805460ff191692151592909217909155600e80546001926015929091869081106125b5576125b5615b21565b60009182526020808320600460079093020191909101546001600160a01b031683528281019390935260409182018120805494151560ff19958616179055338082526013909352208054909216600117909155600e80548490811061261c5761261c615b21565b906000526020600020906007020160040160006101000a8154816001600160a01b0302191690836001600160a01b031602179055506000600e838154811061266657612666615b21565b906000526020600020906007020160060160006101000a81548160ff0219169083151502179055507f060f7dd92424d6f1af65d2fe9acba5b63d299cc26cd8eb26403ca371bc9fbfbb828233600e86815481106126c5576126c5615b21565b906000526020600020906007020160030154604051610f1694939291909384526001600160a01b03928316602085015291166040830152606082015260800190565b6006546001600160a01b031633146127315760405162461bcd60e51b8152600401610c6a90615932565b6115e96000826145bf565b600e818154811061274c57600080fd5b600091825260209091206007909102018054600182015460028301546003840154600485015460058601546006909601549496509294919390926001600160a01b0316919060ff1687565b6127a0336128cf565b6127bc5760405162461bcd60e51b8152600401610c6a90615870565b3360009081526012602052604090205460ff166127eb5760405162461bcd60e51b8152600401610c6a90615774565b336001600160a01b0316600e828154811061280857612808615b21565b60009182526020909120600460079092020101546001600160a01b0316146128425760405162461bcd60e51b8152600401610c6a9061573f565b6000600e828154811061285757612857615b21565b60009182526020808320600660079093020191909101805493151560ff1994851617905533808352601282526040808420805486169055601390925291819020805490931660011790925590517f5dbab6b1e9ddd154d6eb51aa5622fb5278ea62a0b5f81d046a945d899490f6319161153491615496565b600480546040516370a0823160e01b815260009283926001600160a01b0316916370a082319161290191879101615496565b60206040518083038186803b15801561291957600080fd5b505afa15801561292d573d6000803e3d6000fd5b505050506040513d601f19601f820116820180604052508101906129519190615217565b111561295f57506001919050565b506000919050565b919050565b61297533613fe1565b6129915760405162461bcd60e51b8152600401610c6a906158f1565b600b8190556040518181527f06cd74aabc11982a85b554df4d7833623303656fe69bed4db1b0cb3245feebe390602001611534565b60009182526003602090815260408084206001600160a01b0393909316845291905290205460ff1690565b6115b63383836145c9565b336001600160a01b0316600d8381548110612a1957612a19615b21565b60009182526020909120600360049092020101546001600160a01b031614612a535760405162461bcd60e51b8152600401610c6a906157e8565b6000600d8381548110612a6857612a68615b21565b906000526020600020906004020160020154905081600d8481548110612a9057612a90615b21565b9060005260206000209060040201600201819055507fb141d00f22a670547caacc412e6489d8edaba6a840df558118363ce1a40d6ed233848385604051611bee94939291906155c5565b336001600160a01b0316600d8281548110612af757612af7615b21565b60009182526020909120600360049092020101546001600160a01b031614612b315760405162461bcd60e51b8152600401610c6a906157e8565b336000908152601660205260408120600d8054600193919085908110612b5957612b59615b21565b90600052602060002090600402016000015481526020019081526020016000206000828254612b8891906159eb565b925050819055506000600d8281548110612ba457612ba4615b21565b906000526020600020906004020160030160146101000a81548160ff0219169083151502179055507fc9cedcca3d85d6009a562a9e70071f6288adabda9ba7f059589165e75c9cf404338260405161153492919061558b565b60606000805b600e54811015612cbd576000600e8281548110612c2257612c22615b21565b60009182526020918290206040805160e081018252600790930290910180548352600180820154948401949094526002810154918301919091526003810154606083015260048101546001600160a01b03166080830152600581015460a08301526006015460ff16151560c082018190529092501415612caa57612ca76001846159a0565b92505b5080612cb581615ab0565b915050612c03565b506000816001600160401b03811115612cd857612cd8615b37565b604051908082528060200260200182016040528015612d1157816020015b612cfe614d56565b815260200190600190039081612cf65790505b5090506000805b600e54811015612df1576000600e8281548110612d3757612d37615b21565b60009182526020918290206040805160e081018252600790930290910180548352600180820154948401949094526002810154918301919091526003810154606083015260048101546001600160a01b03166080830152600581015460a08301526006015460ff16151560c082018190529092501415612dde5780848481518110612dc457612dc4615b21565b60200260200101819052508280612dda90615ab0565b9350505b5080612de981615ab0565b915050612d18565b50909392505050565b612e03336128cf565b612e1f5760405162461bcd60e51b8152600401610c6a90615870565b3360009081526012602052604090205460ff1615612e925760405162461bcd60e51b815260206004820152602a60248201527f5573657220697320616c72656164792063757272656e746c792073656c6c696e60448201526919c81848151a58dad95d60b21b6064820152608401610c6a565b3360009081526014602052604090205460ff1615612f09573360009081526013602052604090205460ff16612f095760405162461bcd60e51b815260206004820152601d60248201527f5573657220686173206e6f74207469636b6574206176616c6961626c650000006044820152606401610c6a565b6040805160e081018252600a8054825260208201868152928201858152606083018581523360808501908152600060a08601818152600160c08801818152600e80549283018155845297517fbb7b4a454dc3493923482f07822329ed19e8244eff582cc204f8554c3620c3fd60079092029182015597517fbb7b4a454dc3493923482f07822329ed19e8244eff582cc204f8554c3620c3fe89015593517fbb7b4a454dc3493923482f07822329ed19e8244eff582cc204f8554c3620c3ff88015591517fbb7b4a454dc3493923482f07822329ed19e8244eff582cc204f8554c3620c400870155517fbb7b4a454dc3493923482f07822329ed19e8244eff582cc204f8554c3620c401860180546001600160a01b0319166001600160a01b0390921691909117905590517fbb7b4a454dc3493923482f07822329ed19e8244eff582cc204f8554c3620c40285015591517fbb7b4a454dc3493923482f07822329ed19e8244eff582cc204f8554c3620c403909301805460ff1916931515939093179092558154919061309a83615ab0565b90915550503360008181526012602090815260408083208054600160ff199182168117909255601484528285208054821690921790915560139092529182902080549091169055517f07814713aba2e13eb5f2470225f7395d33fad1452b70f8427dae73e4d3a5934491611bee918690869086906155c5565b60606000805b600d548110156131dc576000600d828154811061313857613138615b21565b60009182526020918290206040805160a08101825260049093029091018054835260018082015494840194909452600281015491830191909152600301546001600160a01b038116606083015260ff600160a01b909104161515608082018190529092501480156131b657506131b6816060015182600001516146aa565b156131c9576131c66001846159a0565b92505b50806131d481615ab0565b915050613119565b506000816001600160401b038111156131f7576131f7615b37565b60405190808252806020026020018201604052801561323057816020015b61321d614d9e565b8152602001906001900390816132155790505b5090506000805b600d54811015612df1576000600d828154811061325657613256615b21565b60009182526020918290206040805160a08101825260049093029091018054835260018082015494840194909452600281015491830191909152600301546001600160a01b038116606083015260ff600160a01b909104161515608082018190529092501480156132d457506132d4816060015182600001516146aa565b1561330657808484815181106132ec576132ec615b21565b6020026020010181905250828061330290615ab0565b9350505b508061331181615ab0565b915050613237565b6006546001600160a01b031633146133435760405162461bcd60e51b8152600401610c6a90615932565b6005546040516370a0823160e01b81526000916001600160a01b0316906370a0823190613374903090600401615496565b60206040518083038186803b15801561338c57600080fd5b505afa1580156133a0573d6000803e3d6000fd5b505050506040513d601f19601f820116820180604052508101906133c49190615217565b116133e15760405162461bcd60e51b8152600401610c6a906157ba565b60055460405163a9059cbb60e01b81526001600160a01b039091169063a9059cbb90613413908590859060040161558b565b602060405180830381600087803b15801561342d57600080fd5b505af1158015613441573d6000803e3d6000fd5b505050506040513d601f19601f820116820180604052508101906116a89190615184565b61346d614d9e565b600d828154811061348057613480615b21565b60009182526020918290206040805160a0810182526004909302909101805483526001810154938301939093526002830154908201526003909101546001600160a01b038116606083015260ff600160a01b909104161515608082015292915050565b60006134ee826146cd565b6134f757600080fd5b60008281526010602052604081205460075461351391906159b8565b9392505050565b60606000805b60085481101561355c5760006135363083610c02565b111561354a578161354681615ab0565b9250505b8061355481615ab0565b915050613520565b506000816001600160401b0381111561357757613577615b37565b6040519080825280602002602001820160405280156135a0578160200160208202803683370190505b5090506000805b600854811015612df15760006135bd3083610c02565b11156135ef57808383815181106135d6576135d6615b21565b6020908102919091010152816135eb81615ab0565b9250505b806135f981615ab0565b9150506135a7565b60008281526003602052604090206001015461361c8161425f565b6116a883836142ef565b61362e614d56565b600e828154811061364157613641615b21565b60009182526020918290206040805160e0810182526007909302909101805483526001810154938301939093526002830154908201526003820154606082015260048201546001600160a01b03166080820152600582015460a082015260069091015460ff16151560c082015292915050565b6136bd33613fe1565b6136d95760405162461bcd60e51b8152600401610c6a906158f1565b6000600c54610100900460ff1660018111156136f7576136f7615b0b565b141561370e57600c805461ff001916610100179055565b600c805461ff0019169055565b6000600d828154811061373057613730615b21565b60009182526020918290206040805160a0810182526004909302909101805483526001810154938301939093526002830154908201526003909101546001600160a01b038116606083015260ff600160a01b9091041615156080820152600d805491925090839081106137a5576137a5615b21565b60009182526020909120600490910201600301546001600160a01b031633141561381d5760405162461bcd60e51b815260206004820152602360248201527f596f752063616e206e6f742062757920616e206974656d20746f20796f75727360448201526232b63360e91b6064820152608401610c6a565b600d828154811061383057613830615b21565b906000526020600020906004020160030160149054906101000a900460ff16151560011515146138ac5760405162461bcd60e51b815260206004820152602160248201527f54686973206974656d206973206e6f74206f6e2073616c6520616e796d6f72656044820152601760f91b6064820152608401610c6a565b6138be816060015182600001516146aa565b6139015760405162461bcd60e51b815260206004820152601460248201527324ba32b6903237b2b9903737ba1032bc34b9ba1760611b6044820152606401610c6a565b6040808201516005549151636eb1769f60e11b815290916001600160a01b03169063dd62ed3e9061393890339030906004016154aa565b60206040518083038186803b15801561395057600080fd5b505afa158015613964573d6000803e3d6000fd5b505050506040513d601f19601f820116820180604052508101906139889190615217565b10156139d65760405162461bcd60e51b815260206004820152601c60248201527f496e73756666696369656e7420455243323020616c6c6f77616e6365000000006044820152606401610c6a565b600554600d80546001600160a01b03909216916323b872dd91339186908110613a0157613a01615b21565b906000526020600020906004020160030160009054906101000a90046001600160a01b0316600d8681548110613a3957613a39615b21565b9060005260206000209060040201600201546040518463ffffffff1660e01b8152600401613a6993929190615522565b602060405180830381600087803b158015613a8357600080fd5b505af1158015613a97573d6000803e3d6000fd5b505050506040513d601f19601f82011682018060405250810190613abb9190615184565b50613b34600d8381548110613ad257613ad2615b21565b906000526020600020906004020160030160009054906101000a90046001600160a01b031633600d8581548110613b0b57613b0b615b21565b906000526020600020906004020160000154600160405180602001604052806000815250614356565b60608101516001600160a01b03166000908152601660209081526040808320845184529091528120805460019290613b6d9084906159eb565b925050819055506000600d8381548110613b8957613b89615b21565b906000526020600020906004020160030160009054906101000a90046001600160a01b0316905033600d8481548110613bc457613bc4615b21565b906000526020600020906004020160030160006101000a8154816001600160a01b0302191690836001600160a01b031602179055506000600d8481548110613c0e57613c0e615b21565b906000526020600020906004020160030160146101000a81548160ff0219169083151502179055507f642067ff529c9b5b1162502fc8e8a3a91dda56e126a84f2fe38d341236231a82338285600d8781548110613c6d57613c6d615b21565b600091825260209182902060026004909202010154604080516001600160a01b0396871681529590941691850191909152918301526060820152608001611bee565b6001600160a01b03918216600090815260016020908152604080832093909416825291909152205460ff1690565b6001600160a01b038516331480613cf95750613cf98533613caf565b613d575760405162461bcd60e51b815260206004820152602960248201527f455243313135353a2063616c6c6572206973206e6f74206f776e6572206e6f7260448201526808185c1c1c9bdd995960ba1b6064820152608401610c6a565b61167c8585858585614356565b606060006008546001600160401b03811115613d8257613d82615b37565b604051908082528060200260200182016040528015613dab578160200160208202803683370190505b50905060005b8151811015613e21576001600160a01b0384166000908152601660209081526040808320848452909152902054613de88583610c02565b613df291906159eb565b828281518110613e0457613e04615b21565b602090810291909101015280613e1981615ab0565b915050613db1565b5092915050565b60006001600160e01b03198216637965db0b60e01b1480610c965750610c96826146e5565b6001600160a01b038316613eaf5760405162461bcd60e51b815260206004820152602360248201527f455243313135353a206275726e2066726f6d20746865207a65726f206164647260448201526265737360e81b6064820152608401610c6a565b336000613ebb8461470a565b90506000613ec88461470a565b60408051602080820183526000918290528882528181528282206001600160a01b038b1683529052205490915084811015613f515760405162461bcd60e51b8152602060048201526024808201527f455243313135353a206275726e20616d6f756e7420657863656564732062616c604482015263616e636560e01b6064820152608401610c6a565b6000868152602081815260408083206001600160a01b038b81168086529184528285208a8703905582518b81529384018a9052909290881691600080516020615c17833981519152910160405180910390a46040805160208101909152600090525b50505050505050565b80600081518110613fcf57613fcf615b21565b6020026020010151600f819055505050565b6006546000906001600160a01b038381169116148061400657506140066000836129c6565b61400f57600080fd5b506001919050565b614034826008548360405180602001604052806000815250614755565b61404d6008548260009182526010602052604090912055565b806007600082825461405f91906159a0565b9250508190555060016008600082825461407991906159a0565b90915550505050565b81518351146140e45760405162461bcd60e51b815260206004820152602860248201527f455243313135353a2069647320616e6420616d6f756e7473206c656e677468206044820152670dad2e6dac2e8c6d60c31b6064820152608401610c6a565b6001600160a01b03841661410a5760405162461bcd60e51b8152600401610c6a9061582b565b3360005b84518110156141f157600085828151811061412b5761412b615b21565b60200260200101519050600085838151811061414957614149615b21565b602090810291909101810151600084815280835260408082206001600160a01b038e1683529093529190912054909150818110156141995760405162461bcd60e51b8152600401610c6a906158a7565b6000838152602081815260408083206001600160a01b038e8116855292528083208585039055908b168252812080548492906141d69084906159a0565b92505081905550505050806141ea90615ab0565b905061410e565b50846001600160a01b0316866001600160a01b0316826001600160a01b03167f4a39dc06d4c0dbc64b70af90fd698a233a518aa5d07e595d983b8c0526c8f7fb878760405161424192919061568e565b60405180910390a461425781878787878761484e565b505050505050565b6115e981336149b9565b61427382826129c6565b6115b65760008281526003602090815260408083206001600160a01b03851684529091529020805460ff191660011790556142ab3390565b6001600160a01b0316816001600160a01b0316837f2f8788117e7eff1d82e926ec794901d17c78024a50270940304540a733656f0d60405160405180910390a45050565b6142f982826129c6565b156115b65760008281526003602090815260408083206001600160a01b0385168085529252808320805460ff1916905551339285917ff6391f5c32d9c69d2a47ea670b442974b53935d1edc7fd64eb21e047a839171b9190a45050565b6001600160a01b03841661437c5760405162461bcd60e51b8152600401610c6a9061582b565b3360006143888561470a565b905060006143958561470a565b90506000868152602081815260408083206001600160a01b038c168452909152902054858110156143d85760405162461bcd60e51b8152600401610c6a906158a7565b6000878152602081815260408083206001600160a01b038d8116855292528083208985039055908a168252812080548892906144159084906159a0565b909155505060408051888152602081018890526001600160a01b03808b16928c82169291881691600080516020615c17833981519152910160405180910390a4614463848a8a8a8a8a614a1d565b505050505050505050565b60005b600e548110156115b657816001600160a01b0316600e828154811061449857614498615b21565b60009182526020909120600460079092020101546001600160a01b031614156145ad57600e81815481106144ce576144ce615b21565b90600052602060002090600702016001015460011461452257600e81815481106144fa576144fa615b21565b60009182526020822060016007909202010180549161451883615a32565b91905055506145ad565b600e818154811061453557614535615b21565b60009182526020822060016007909202010180549161455383615a32565b91905055506000600e828154811061456d5761456d615b21565b60009182526020808320600660079093020191909101805493151560ff199485161790556001600160a01b03851682526013905260409020805490911690555b806145b781615ab0565b915050614471565b6115b68282614269565b816001600160a01b0316836001600160a01b0316141561463d5760405162461bcd60e51b815260206004820152602960248201527f455243313135353a2073657474696e6720617070726f76616c20737461747573604482015268103337b91039b2b63360b91b6064820152608401610c6a565b6001600160a01b03838116600081815260016020908152604080832094871680845294825291829020805460ff191686151590811790915591519182527f17307eab39ab6107e8899845ad3d59bd9653f200f220920489ca2b5937696c31910160405180910390a3505050565b6000806146b78484610c02565b11156146c557506001610c96565b506000610c96565b60008181526010602052604081205461400f57600080fd5b60006001600160e01b03198216630271189760e51b1480610c965750610c9682614ae7565b6040805160018082528183019092526060916000919060208083019080368337019050509050828160008151811061474457614744615b21565b602090810291909101015292915050565b6001600160a01b0384166147b55760405162461bcd60e51b815260206004820152602160248201527f455243313135353a206d696e7420746f20746865207a65726f206164647265736044820152607360f81b6064820152608401610c6a565b3360006147c18561470a565b905060006147ce8561470a565b90506000868152602081815260408083206001600160a01b038b168452909152812080548792906148009084906159a0565b909155505060408051878152602081018790526001600160a01b03808a169260009291871691600080516020615c17833981519152910160405180910390a4613fb383600089898989614a1d565b6001600160a01b0384163b156142575760405163bc197c8160e01b81526001600160a01b0385169063bc197c819061489290899089908890889088906004016154c4565b602060405180830381600087803b1580156148ac57600080fd5b505af19250505080156148dc575060408051601f3d908101601f191682019092526148d9918101906151fa565b60015b614989576148e8615b4d565b806308c379a0141561492257506148fd615b69565b806149085750614924565b8060405162461bcd60e51b8152600401610c6a91906156e4565b505b60405162461bcd60e51b815260206004820152603460248201527f455243313135353a207472616e7366657220746f206e6f6e20455243313135356044820152732932b1b2b4bb32b91034b6b83632b6b2b73a32b960611b6064820152608401610c6a565b6001600160e01b0319811663bc197c8160e01b14613fb35760405162461bcd60e51b8152600401610c6a906156f7565b6149c382826129c6565b6115b6576149db816001600160a01b03166014614b37565b6149e6836020614b37565b6040516020016149f7929190615427565b60408051601f198184030181529082905262461bcd60e51b8252610c6a916004016156e4565b6001600160a01b0384163b156142575760405163f23a6e6160e01b81526001600160a01b0385169063f23a6e6190614a619089908990889088908890600401615546565b602060405180830381600087803b158015614a7b57600080fd5b505af1925050508015614aab575060408051601f3d908101601f19168201909252614aa8918101906151fa565b60015b614ab7576148e8615b4d565b6001600160e01b0319811663f23a6e6160e01b14613fb35760405162461bcd60e51b8152600401610c6a906156f7565b60006001600160e01b03198216636cdb3d1360e11b1480614b1857506001600160e01b031982166303a24d0760e21b145b80610c9657506301ffc9a760e01b6001600160e01b0319831614610c96565b60606000614b468360026159cc565b614b519060026159a0565b6001600160401b03811115614b6857614b68615b37565b6040519080825280601f01601f191660200182016040528015614b92576020820181803683370190505b509050600360fc1b81600081518110614bad57614bad615b21565b60200101906001600160f81b031916908160001a905350600f60fb1b81600181518110614bdc57614bdc615b21565b60200101906001600160f81b031916908160001a9053506000614c008460026159cc565b614c0b9060016159a0565b90505b6001811115614c83576f181899199a1a9b1b9c1cb0b131b232b360811b85600f1660108110614c3f57614c3f615b21565b1a60f81b828281518110614c5557614c55615b21565b60200101906001600160f81b031916908160001a90535060049490941c93614c7c81615a32565b9050614c0e565b5083156135135760405162461bcd60e51b815260206004820181905260248201527f537472696e67733a20686578206c656e67746820696e73756666696369656e746044820152606401610c6a565b828054614cde90615a49565b90600052602060002090601f016020900481019282614d005760008555614d46565b82601f10614d1957805160ff1916838001178555614d46565b82800160010185558215614d46579182015b82811115614d46578251825591602001919060010190614d2b565b50614d52929150614dd8565b5090565b6040518060e001604052806000815260200160008152602001600081526020016000815260200160006001600160a01b03168152602001600081526020016000151581525090565b6040518060a0016040528060008152602001600081526020016000815260200160006001600160a01b031681526020016000151581525090565b5b80821115614d525760008155600101614dd9565b60006001600160401b03831115614e0657614e06615b37565b604051614e1d601f8501601f191660200182615a84565b809150838152848484011115614e3257600080fd5b83836020830137600060208583010152509392505050565b80356001600160a01b038116811461296757600080fd5b600082601f830112614e7257600080fd5b81356020614e7f8261597d565b604051614e8c8282615a84565b8381528281019150858301600585901b87018401881015614eac57600080fd5b60005b85811015614ecb57813584529284019290840190600101614eaf565b5090979650505050505050565b600082601f830112614ee957600080fd5b61351383833560208501614ded565b600060208284031215614f0a57600080fd5b61351382614e4a565b60008060408385031215614f2657600080fd5b614f2f83614e4a565b9150614f3d60208401614e4a565b90509250929050565b600080600080600060a08688031215614f5e57600080fd5b614f6786614e4a565b9450614f7560208701614e4a565b935060408601356001600160401b0380821115614f9157600080fd5b614f9d89838a01614e61565b94506060880135915080821115614fb357600080fd5b614fbf89838a01614e61565b93506080880135915080821115614fd557600080fd5b50614fe288828901614ed8565b9150509295509295909350565b600080600080600060a0868803121561500757600080fd5b61501086614e4a565b945061501e60208701614e4a565b9350604086013592506060860135915060808601356001600160401b0381111561504757600080fd5b614fe288828901614ed8565b6000806040838503121561506657600080fd5b61506f83614e4a565b9150602083013561507f81615bf2565b809150509250929050565b6000806040838503121561509d57600080fd5b6150a683614e4a565b946020939093013593505050565b600080604083850312156150c757600080fd5b82356001600160401b03808211156150de57600080fd5b818501915085601f8301126150f257600080fd5b813560206150ff8261597d565b60405161510c8282615a84565b8381528281019150858301600585901b870184018b101561512c57600080fd5b600096505b848710156151565761514281614e4a565b835260019690960195918301918301615131565b509650508601359250508082111561516d57600080fd5b5061517a85828601614e61565b9150509250929050565b60006020828403121561519657600080fd5b815161351381615bf2565b6000602082840312156151b357600080fd5b5035919050565b600080604083850312156151cd57600080fd5b82359150614f3d60208401614e4a565b6000602082840312156151ef57600080fd5b813561351381615c00565b60006020828403121561520c57600080fd5b815161351381615c00565b60006020828403121561522957600080fd5b5051919050565b6000806040838503121561524357600080fd5b8235915060208301356001600160401b0381111561526057600080fd5b61517a85828601614e61565b6000806040838503121561527f57600080fd5b8235915060208301356001600160401b0381111561529c57600080fd5b8301601f810185136152ad57600080fd5b61517a85823560208401614ded565b600080604083850312156152cf57600080fd5b50508035926020909101359150565b6000806000606084860312156152f357600080fd5b505081359360208301359350604090920135919050565b6000806000806080858703121561532057600080fd5b5050823594602084013594506040840135936060013592509050565b600081518084526020808501945080840160005b8381101561536c57815187529582019590820190600101615350565b509495945050505050565b6000815180845261538f816020860160208601615a02565b601f01601f19169290920160200192915050565b805182526020808201519083015260408082015190830152606080820151908301526080808201516001600160a01b03169083015260a0808201519083015260c0908101511515910152565b8051825260208082015190830152604080820151908301526060808201516001600160a01b0316908301526080908101511515910152565b76020b1b1b2b9b9a1b7b73a3937b61d1030b1b1b7bab73a1604d1b815260008351615459816017850160208801615a02565b7001034b99036b4b9b9b4b733903937b6329607d1b601791840191820152835161548a816028840160208801615a02565b01602801949350505050565b6001600160a01b0391909116815260200190565b6001600160a01b0392831681529116602082015260400190565b6001600160a01b0386811682528516602082015260a0604082018190526000906154f09083018661533c565b8281036060840152615502818661533c565b905082810360808401526155168185615377565b98975050505050505050565b6001600160a01b039384168152919092166020820152604081019190915260600190565b6001600160a01b03868116825285166020820152604081018490526060810183905260a06080820181905260009061558090830184615377565b979650505050505050565b6001600160a01b03929092168252602082015260400190565b6001600160a01b039390931683526020830191909152604082015260600190565b6001600160a01b0394909416845260208401929092526040830152606082015260800190565b6020808252825182820181905260009190848201906040850190845b8181101561562d5761561a8385516153a3565b9284019260e09290920191600101615607565b50909695505050505050565b6020808252825182820181905260009190848201906040850190845b8181101561562d576156688385516153ef565b9284019260a09290920191600101615655565b602081526000613513602083018461533c565b6040815260006156a1604083018561533c565b82810360208401526156b3818561533c565b95945050505050565b60208101600283106156de57634e487b7160e01b600052602160045260246000fd5b91905290565b6020815260006135136020830184615377565b60208082526028908201527f455243313135353a204552433131353552656365697665722072656a656374656040820152676420746f6b656e7360c01b606082015260800190565b6020808252818101527f55736572206973206e6f74206f776e6572206f662074686973207469636b6574604082015260600190565b60208082526026908201527f55736572206973206e6f742063757272656e746c792073656c6c696e67206120604082015265151a58dad95d60d21b606082015260800190565b6020808252601490820152734e6f2066756e647320746f20776974686472617760601b604082015260600190565b60208082526023908201527f596f7520617265206e6f7420746865206f776e6572206f66207468697320697460408201526232b69760e91b606082015260800190565b60208082526025908201527f455243313135353a207472616e7366657220746f20746865207a65726f206164604082015264647265737360d81b606082015260800190565b6020808252601d908201527f5573657220646f6573206e6f74206f776e732061204d7243727970746f000000604082015260600190565b6020808252602a908201527f455243313135353a20696e73756666696369656e742062616c616e636520666f60408201526939103a3930b739b332b960b11b606082015260800190565b60208082526021908201527f55736572206973206e6f7420746865204f776e6572206f7220616e2041646d696040820152603760f91b606082015260800190565b6020808252601590820152742ab9b2b91034b9903737ba103a34329037bbb732b960591b604082015260600190565b60e08101610c9682846153a3565b60a08101610c9682846153ef565b60006001600160401b0382111561599657615996615b37565b5060051b60200190565b600082198211156159b3576159b3615adf565b500190565b6000826159c7576159c7615af5565b500490565b60008160001904831182151516156159e6576159e6615adf565b500290565b6000828210156159fd576159fd615adf565b500390565b60005b83811015615a1d578181015183820152602001615a05565b83811115615a2c576000848401525b50505050565b600081615a4157615a41615adf565b506000190190565b600181811c90821680615a5d57607f821691505b60208210811415615a7e57634e487b7160e01b600052602260045260246000fd5b50919050565b601f8201601f191681016001600160401b0381118282101715615aa957615aa9615b37565b6040525050565b6000600019821415615ac457615ac4615adf565b5060010190565b600082615ada57615ada615af5565b500690565b634e487b7160e01b600052601160045260246000fd5b634e487b7160e01b600052601260045260246000fd5b634e487b7160e01b600052602160045260246000fd5b634e487b7160e01b600052603260045260246000fd5b634e487b7160e01b600052604160045260246000fd5b600060033d1115615b665760046000803e5060005160e01c5b90565b600060443d1015615b775790565b6040516003193d81016004833e81513d6001600160401b038160248401118184111715615ba657505050505090565b8285019150815181811115615bbe5750505050505090565b843d8701016020828501011115615bd85750505050505090565b615be760208286010187615a84565b509095945050505050565b80151581146115e957600080fd5b6001600160e01b0319811681146115e957600080fdfec3d58168c5ae7397731d063d5bbf3d657854427343f4c083240f7aacaa2d0f62a2646970667358221220ba4e255d045d432474ea2e76cc21bfe922e3d944b56b50b396aec3c71785051364736f6c63430008070033",
  "linkReferences": {},
  "deployedLinkReferences": {}
}