{
  "_format": "hh-sol-artifact-1",
  "contractName": "RacksItemsv4",
  "sourceName": "contracts/RacksItemsv4.sol",
  "abi": [
    {
      "inputs": [
        {
          "internalType": "address",
          "name": "vrfCoordinatorV2",
          "type": "address"
        },
        {
          "internalType": "bytes32",
          "name": "gasLane",
          "type": "bytes32"
        },
        {
          "internalType": "uint64",
          "name": "subscriptionId",
          "type": "uint64"
        },
        {
          "internalType": "uint32",
          "name": "callbackGasLimit",
          "type": "uint32"
        },
        {
          "internalType": "address",
          "name": "_racksTokenAddress",
          "type": "address"
        },
        {
          "internalType": "address",
          "name": "_MockMrCryptoAddress",
          "type": "address"
        }
      ],
      "stateMutability": "nonpayable",
      "type": "constructor"
    },
    {
      "inputs": [
        {
          "internalType": "address",
          "name": "have",
          "type": "address"
        },
        {
          "internalType": "address",
          "name": "want",
          "type": "address"
        }
      ],
      "name": "OnlyCoordinatorCanFulfill",
      "type": "error"
    },
    {
      "anonymous": false,
      "inputs": [
        {
          "indexed": true,
          "internalType": "address",
          "name": "account",
          "type": "address"
        },
        {
          "indexed": true,
          "internalType": "address",
          "name": "operator",
          "type": "address"
        },
        {
          "indexed": false,
          "internalType": "bool",
          "name": "approved",
          "type": "bool"
        }
      ],
      "name": "ApprovalForAll",
      "type": "event"
    },
    {
      "anonymous": false,
      "inputs": [
        {
          "indexed": false,
          "internalType": "address",
          "name": "user",
          "type": "address"
        },
        {
          "indexed": false,
          "internalType": "uint256",
          "name": "casePrice",
          "type": "uint256"
        },
        {
          "indexed": false,
          "internalType": "uint256",
          "name": "item",
          "type": "uint256"
        }
      ],
      "name": "CaseOpened",
      "type": "event"
    },
    {
      "anonymous": false,
      "inputs": [
        {
          "indexed": true,
          "internalType": "bytes32",
          "name": "role",
          "type": "bytes32"
        },
        {
          "indexed": true,
          "internalType": "bytes32",
          "name": "previousAdminRole",
          "type": "bytes32"
        },
        {
          "indexed": true,
          "internalType": "bytes32",
          "name": "newAdminRole",
          "type": "bytes32"
        }
      ],
      "name": "RoleAdminChanged",
      "type": "event"
    },
    {
      "anonymous": false,
      "inputs": [
        {
          "indexed": true,
          "internalType": "bytes32",
          "name": "role",
          "type": "bytes32"
        },
        {
          "indexed": true,
          "internalType": "address",
          "name": "account",
          "type": "address"
        },
        {
          "indexed": true,
          "internalType": "address",
          "name": "sender",
          "type": "address"
        }
      ],
      "name": "RoleGranted",
      "type": "event"
    },
    {
      "anonymous": false,
      "inputs": [
        {
          "indexed": true,
          "internalType": "bytes32",
          "name": "role",
          "type": "bytes32"
        },
        {
          "indexed": true,
          "internalType": "address",
          "name": "account",
          "type": "address"
        },
        {
          "indexed": true,
          "internalType": "address",
          "name": "sender",
          "type": "address"
        }
      ],
      "name": "RoleRevoked",
      "type": "event"
    },
    {
      "anonymous": false,
      "inputs": [
        {
          "indexed": true,
          "internalType": "address",
          "name": "operator",
          "type": "address"
        },
        {
          "indexed": true,
          "internalType": "address",
          "name": "from",
          "type": "address"
        },
        {
          "indexed": true,
          "internalType": "address",
          "name": "to",
          "type": "address"
        },
        {
          "indexed": false,
          "internalType": "uint256[]",
          "name": "ids",
          "type": "uint256[]"
        },
        {
          "indexed": false,
          "internalType": "uint256[]",
          "name": "values",
          "type": "uint256[]"
        }
      ],
      "name": "TransferBatch",
      "type": "event"
    },
    {
      "anonymous": false,
      "inputs": [
        {
          "indexed": true,
          "internalType": "address",
          "name": "operator",
          "type": "address"
        },
        {
          "indexed": true,
          "internalType": "address",
          "name": "from",
          "type": "address"
        },
        {
          "indexed": true,
          "internalType": "address",
          "name": "to",
          "type": "address"
        },
        {
          "indexed": false,
          "internalType": "uint256",
          "name": "id",
          "type": "uint256"
        },
        {
          "indexed": false,
          "internalType": "uint256",
          "name": "value",
          "type": "uint256"
        }
      ],
      "name": "TransferSingle",
      "type": "event"
    },
    {
      "anonymous": false,
      "inputs": [
        {
          "indexed": false,
          "internalType": "string",
          "name": "value",
          "type": "string"
        },
        {
          "indexed": true,
          "internalType": "uint256",
          "name": "id",
          "type": "uint256"
        }
      ],
      "name": "URI",
      "type": "event"
    },
    {
      "anonymous": false,
      "inputs": [
        {
          "indexed": false,
          "internalType": "uint256",
          "name": "newPrice",
          "type": "uint256"
        }
      ],
      "name": "casePriceChanged",
      "type": "event"
    },
    {
      "anonymous": false,
      "inputs": [
        {
          "indexed": false,
          "internalType": "address",
          "name": "buyer",
          "type": "address"
        },
        {
          "indexed": false,
          "internalType": "address",
          "name": "seller",
          "type": "address"
        },
        {
          "indexed": false,
          "internalType": "uint256",
          "name": "marketItemId",
          "type": "uint256"
        },
        {
          "indexed": false,
          "internalType": "uint256",
          "name": "price",
          "type": "uint256"
        }
      ],
      "name": "itemBought",
      "type": "event"
    },
    {
      "anonymous": false,
      "inputs": [
        {
          "indexed": false,
          "internalType": "address",
          "name": "user",
          "type": "address"
        },
        {
          "indexed": false,
          "internalType": "uint256",
          "name": "tokenId",
          "type": "uint256"
        }
      ],
      "name": "itemExchanged",
      "type": "event"
    },
    {
      "anonymous": false,
      "inputs": [
        {
          "indexed": false,
          "internalType": "address",
          "name": "owner",
          "type": "address"
        },
        {
          "indexed": false,
          "internalType": "uint256",
          "name": "marketItemId",
          "type": "uint256"
        },
        {
          "indexed": false,
          "internalType": "uint256",
          "name": "oldPrice",
          "type": "uint256"
        },
        {
          "indexed": false,
          "internalType": "uint256",
          "name": "newPrice",
          "type": "uint256"
        }
      ],
      "name": "itemPriceChanged",
      "type": "event"
    },
    {
      "anonymous": false,
      "inputs": [
        {
          "indexed": false,
          "internalType": "address",
          "name": "seller",
          "type": "address"
        },
        {
          "indexed": false,
          "internalType": "uint256",
          "name": "numTries",
          "type": "uint256"
        },
        {
          "indexed": false,
          "internalType": "uint256",
          "name": "_hours",
          "type": "uint256"
        },
        {
          "indexed": false,
          "internalType": "uint256",
          "name": "price",
          "type": "uint256"
        }
      ],
      "name": "newTicketOnSale",
      "type": "event"
    },
    {
      "anonymous": false,
      "inputs": [
        {
          "indexed": false,
          "internalType": "address",
          "name": "user",
          "type": "address"
        },
        {
          "indexed": false,
          "internalType": "uint256",
          "name": "tokenId",
          "type": "uint256"
        },
        {
          "indexed": false,
          "internalType": "uint256",
          "name": "price",
          "type": "uint256"
        }
      ],
      "name": "sellingItem",
      "type": "event"
    },
    {
      "anonymous": false,
      "inputs": [
        {
          "indexed": false,
          "internalType": "uint256",
          "name": "ticketId",
          "type": "uint256"
        },
        {
          "indexed": false,
          "internalType": "address",
          "name": "oldOwner",
          "type": "address"
        },
        {
          "indexed": false,
          "internalType": "address",
          "name": "newOwner",
          "type": "address"
        },
        {
          "indexed": false,
          "internalType": "uint256",
          "name": "price",
          "type": "uint256"
        }
      ],
      "name": "ticketBought",
      "type": "event"
    },
    {
      "anonymous": false,
      "inputs": [
        {
          "indexed": false,
          "internalType": "address",
          "name": "borrower",
          "type": "address"
        },
        {
          "indexed": false,
          "internalType": "address",
          "name": "realOwner",
          "type": "address"
        }
      ],
      "name": "ticketClaimedBack",
      "type": "event"
    },
    {
      "anonymous": false,
      "inputs": [
        {
          "indexed": false,
          "internalType": "address",
          "name": "owner",
          "type": "address"
        },
        {
          "indexed": false,
          "internalType": "uint256",
          "name": "newTries",
          "type": "uint256"
        },
        {
          "indexed": false,
          "internalType": "uint256",
          "name": "newHours",
          "type": "uint256"
        },
        {
          "indexed": false,
          "internalType": "uint256",
          "name": "newPrice",
          "type": "uint256"
        }
      ],
      "name": "ticketConditionsChanged",
      "type": "event"
    },
    {
      "anonymous": false,
      "inputs": [
        {
          "indexed": false,
          "internalType": "address",
          "name": "owner",
          "type": "address"
        }
      ],
      "name": "unListTicketOnSale",
      "type": "event"
    },
    {
      "anonymous": false,
      "inputs": [
        {
          "indexed": false,
          "internalType": "address",
          "name": "owner",
          "type": "address"
        },
        {
          "indexed": false,
          "internalType": "uint256",
          "name": "marketItemId",
          "type": "uint256"
        }
      ],
      "name": "unListedItem",
      "type": "event"
    },
    {
      "inputs": [],
      "name": "ADMIN_ROLE",
      "outputs": [
        {
          "internalType": "bytes32",
          "name": "",
          "type": "bytes32"
        }
      ],
      "stateMutability": "view",
      "type": "function"
    },
    {
      "inputs": [],
      "name": "DEFAULT_ADMIN_ROLE",
      "outputs": [
        {
          "internalType": "bytes32",
          "name": "",
          "type": "bytes32"
        }
      ],
      "stateMutability": "view",
      "type": "function"
    },
    {
      "inputs": [],
      "name": "NUM_WORDS",
      "outputs": [
        {
          "internalType": "uint32",
          "name": "",
          "type": "uint32"
        }
      ],
      "stateMutability": "view",
      "type": "function"
    },
    {
      "inputs": [],
      "name": "REQUEST_CONFIRMATIONS",
      "outputs": [
        {
          "internalType": "uint16",
          "name": "",
          "type": "uint16"
        }
      ],
      "stateMutability": "view",
      "type": "function"
    },
    {
      "inputs": [],
      "name": "_randomNumber",
      "outputs": [
        {
          "internalType": "uint256",
          "name": "",
          "type": "uint256"
        }
      ],
      "stateMutability": "nonpayable",
      "type": "function"
    },
    {
      "inputs": [
        {
          "internalType": "uint256",
          "name": "tokenId",
          "type": "uint256"
        }
      ],
      "name": "_rarityOfItem",
      "outputs": [
        {
          "internalType": "uint256",
          "name": "",
          "type": "uint256"
        }
      ],
      "stateMutability": "view",
      "type": "function"
    },
    {
      "inputs": [
        {
          "internalType": "address",
          "name": "account",
          "type": "address"
        },
        {
          "internalType": "uint256",
          "name": "id",
          "type": "uint256"
        }
      ],
      "name": "balanceOf",
      "outputs": [
        {
          "internalType": "uint256",
          "name": "",
          "type": "uint256"
        }
      ],
      "stateMutability": "view",
      "type": "function"
    },
    {
      "inputs": [
        {
          "internalType": "address[]",
          "name": "accounts",
          "type": "address[]"
        },
        {
          "internalType": "uint256[]",
          "name": "ids",
          "type": "uint256[]"
        }
      ],
      "name": "balanceOfBatch",
      "outputs": [
        {
          "internalType": "uint256[]",
          "name": "",
          "type": "uint256[]"
        }
      ],
      "stateMutability": "view",
      "type": "function"
    },
    {
      "inputs": [
        {
          "internalType": "uint256",
          "name": "marketItemId",
          "type": "uint256"
        }
      ],
      "name": "buyItem",
      "outputs": [],
      "stateMutability": "nonpayable",
      "type": "function"
    },
    {
      "inputs": [
        {
          "internalType": "uint256",
          "name": "ticketId",
          "type": "uint256"
        }
      ],
      "name": "buyTicket",
      "outputs": [],
      "stateMutability": "nonpayable",
      "type": "function"
    },
    {
      "inputs": [],
      "name": "caseLiquidity",
      "outputs": [
        {
          "internalType": "uint256[]",
          "name": "",
          "type": "uint256[]"
        }
      ],
      "stateMutability": "view",
      "type": "function"
    },
    {
      "inputs": [
        {
          "internalType": "uint256",
          "name": "marketItemId",
          "type": "uint256"
        },
        {
          "internalType": "uint256",
          "name": "newPrice",
          "type": "uint256"
        }
      ],
      "name": "changeItemPrice",
      "outputs": [],
      "stateMutability": "nonpayable",
      "type": "function"
    },
    {
      "inputs": [
        {
          "internalType": "uint256",
          "name": "ticketId",
          "type": "uint256"
        },
        {
          "internalType": "uint256",
          "name": "newTries",
          "type": "uint256"
        },
        {
          "internalType": "uint256",
          "name": "newHours",
          "type": "uint256"
        },
        {
          "internalType": "uint256",
          "name": "newPrice",
          "type": "uint256"
        }
      ],
      "name": "changeTicketConditions",
      "outputs": [],
      "stateMutability": "nonpayable",
      "type": "function"
    },
    {
      "inputs": [
        {
          "internalType": "uint256",
          "name": "ticketId",
          "type": "uint256"
        }
      ],
      "name": "claimTicketBack",
      "outputs": [],
      "stateMutability": "nonpayable",
      "type": "function"
    },
    {
      "inputs": [
        {
          "internalType": "uint256",
          "name": "tokenId",
          "type": "uint256"
        }
      ],
      "name": "exchangeItem",
      "outputs": [],
      "stateMutability": "nonpayable",
      "type": "function"
    },
    {
      "inputs": [],
      "name": "flipContractState",
      "outputs": [],
      "stateMutability": "nonpayable",
      "type": "function"
    },
    {
      "inputs": [],
      "name": "getContractState",
      "outputs": [
        {
          "internalType": "enum RacksItemsv4.ContractState",
          "name": "",
          "type": "uint8"
        }
      ],
      "stateMutability": "view",
      "type": "function"
    },
    {
      "inputs": [],
      "name": "getITicketsOnSale",
      "outputs": [
        {
          "components": [
            {
              "internalType": "uint256",
              "name": "ticketId",
              "type": "uint256"
            },
            {
              "internalType": "uint256",
              "name": "numTries",
              "type": "uint256"
            },
            {
              "internalType": "uint256",
              "name": "duration",
              "type": "uint256"
            },
            {
              "internalType": "uint256",
              "name": "price",
              "type": "uint256"
            },
            {
              "internalType": "address",
              "name": "owner",
              "type": "address"
            },
            {
              "internalType": "uint256",
              "name": "timeWhenSold",
              "type": "uint256"
            },
            {
              "internalType": "bool",
              "name": "isAvaliable",
              "type": "bool"
            }
          ],
          "internalType": "struct IRacksItems.caseTicket[]",
          "name": "",
          "type": "tuple[]"
        }
      ],
      "stateMutability": "view",
      "type": "function"
    },
    {
      "inputs": [
        {
          "internalType": "uint256",
          "name": "itemId",
          "type": "uint256"
        }
      ],
      "name": "getItemsOnSale",
      "outputs": [
        {
          "components": [
            {
              "internalType": "uint256",
              "name": "tokenId",
              "type": "uint256"
            },
            {
              "internalType": "uint256",
              "name": "marketItemId",
              "type": "uint256"
            },
            {
              "internalType": "uint256",
              "name": "price",
              "type": "uint256"
            },
            {
              "internalType": "address",
              "name": "itemOwner",
              "type": "address"
            },
            {
              "internalType": "bool",
              "name": "isOnSale",
              "type": "bool"
            }
          ],
          "internalType": "struct IRacksItems.itemOnSale",
          "name": "",
          "type": "tuple"
        }
      ],
      "stateMutability": "view",
      "type": "function"
    },
    {
      "inputs": [],
      "name": "getItemsOnSale",
      "outputs": [
        {
          "components": [
            {
              "internalType": "uint256",
              "name": "tokenId",
              "type": "uint256"
            },
            {
              "internalType": "uint256",
              "name": "marketItemId",
              "type": "uint256"
            },
            {
              "internalType": "uint256",
              "name": "price",
              "type": "uint256"
            },
            {
              "internalType": "address",
              "name": "itemOwner",
              "type": "address"
            },
            {
              "internalType": "bool",
              "name": "isOnSale",
              "type": "bool"
            }
          ],
          "internalType": "struct IRacksItems.itemOnSale[]",
          "name": "",
          "type": "tuple[]"
        }
      ],
      "stateMutability": "view",
      "type": "function"
    },
    {
      "inputs": [
        {
          "internalType": "uint256",
          "name": "marketItemId",
          "type": "uint256"
        }
      ],
      "name": "getMarketItem",
      "outputs": [
        {
          "components": [
            {
              "internalType": "uint256",
              "name": "tokenId",
              "type": "uint256"
            },
            {
              "internalType": "uint256",
              "name": "marketItemId",
              "type": "uint256"
            },
            {
              "internalType": "uint256",
              "name": "price",
              "type": "uint256"
            },
            {
              "internalType": "address",
              "name": "itemOwner",
              "type": "address"
            },
            {
              "internalType": "bool",
              "name": "isOnSale",
              "type": "bool"
            }
          ],
          "internalType": "struct IRacksItems.itemOnSale",
          "name": "",
          "type": "tuple"
        }
      ],
      "stateMutability": "view",
      "type": "function"
    },
    {
      "inputs": [
        {
          "internalType": "uint256",
          "name": "ticketId",
          "type": "uint256"
        }
      ],
      "name": "getMarketTicket",
      "outputs": [
        {
          "components": [
            {
              "internalType": "uint256",
              "name": "ticketId",
              "type": "uint256"
            },
            {
              "internalType": "uint256",
              "name": "numTries",
              "type": "uint256"
            },
            {
              "internalType": "uint256",
              "name": "duration",
              "type": "uint256"
            },
            {
              "internalType": "uint256",
              "name": "price",
              "type": "uint256"
            },
            {
              "internalType": "address",
              "name": "owner",
              "type": "address"
            },
            {
              "internalType": "uint256",
              "name": "timeWhenSold",
              "type": "uint256"
            },
            {
              "internalType": "bool",
              "name": "isAvaliable",
              "type": "bool"
            }
          ],
          "internalType": "struct IRacksItems.caseTicket",
          "name": "",
          "type": "tuple"
        }
      ],
      "stateMutability": "view",
      "type": "function"
    },
    {
      "inputs": [],
      "name": "getMarketcount",
      "outputs": [
        {
          "internalType": "uint256",
          "name": "",
          "type": "uint256"
        }
      ],
      "stateMutability": "view",
      "type": "function"
    },
    {
      "inputs": [],
      "name": "getMaxTotalSupply",
      "outputs": [
        {
          "internalType": "uint256",
          "name": "",
          "type": "uint256"
        }
      ],
      "stateMutability": "view",
      "type": "function"
    },
    {
      "inputs": [],
      "name": "getOwner",
      "outputs": [
        {
          "internalType": "address",
          "name": "",
          "type": "address"
        }
      ],
      "stateMutability": "view",
      "type": "function"
    },
    {
      "inputs": [],
      "name": "getPriceCase",
      "outputs": [
        {
          "internalType": "uint256",
          "name": "",
          "type": "uint256"
        }
      ],
      "stateMutability": "view",
      "type": "function"
    },
    {
      "inputs": [
        {
          "internalType": "bytes32",
          "name": "role",
          "type": "bytes32"
        }
      ],
      "name": "getRoleAdmin",
      "outputs": [
        {
          "internalType": "bytes32",
          "name": "",
          "type": "bytes32"
        }
      ],
      "stateMutability": "view",
      "type": "function"
    },
    {
      "inputs": [
        {
          "internalType": "uint256",
          "name": "ticketId",
          "type": "uint256"
        }
      ],
      "name": "getTicket",
      "outputs": [
        {
          "components": [
            {
              "internalType": "uint256",
              "name": "ticketId",
              "type": "uint256"
            },
            {
              "internalType": "uint256",
              "name": "numTries",
              "type": "uint256"
            },
            {
              "internalType": "uint256",
              "name": "duration",
              "type": "uint256"
            },
            {
              "internalType": "uint256",
              "name": "price",
              "type": "uint256"
            },
            {
              "internalType": "address",
              "name": "owner",
              "type": "address"
            },
            {
              "internalType": "uint256",
              "name": "timeWhenSold",
              "type": "uint256"
            },
            {
              "internalType": "bool",
              "name": "isAvaliable",
              "type": "bool"
            }
          ],
          "internalType": "struct IRacksItems.caseTicket",
          "name": "",
          "type": "tuple"
        }
      ],
      "stateMutability": "view",
      "type": "function"
    },
    {
      "inputs": [],
      "name": "getTicketCount",
      "outputs": [
        {
          "internalType": "uint256",
          "name": "",
          "type": "uint256"
        }
      ],
      "stateMutability": "view",
      "type": "function"
    },
    {
      "inputs": [
        {
          "internalType": "uint256",
          "name": "ticketId",
          "type": "uint256"
        }
      ],
      "name": "getTicketDurationLeft",
      "outputs": [
        {
          "internalType": "address",
          "name": "",
          "type": "address"
        },
        {
          "internalType": "uint256",
          "name": "",
          "type": "uint256"
        },
        {
          "internalType": "bool",
          "name": "",
          "type": "bool"
        }
      ],
      "stateMutability": "view",
      "type": "function"
    },
    {
      "inputs": [],
      "name": "getTokenCount",
      "outputs": [
        {
          "internalType": "uint256",
          "name": "",
          "type": "uint256"
        }
      ],
      "stateMutability": "view",
      "type": "function"
    },
    {
      "inputs": [
        {
          "internalType": "bytes32",
          "name": "role",
          "type": "bytes32"
        },
        {
          "internalType": "address",
          "name": "account",
          "type": "address"
        }
      ],
      "name": "grantRole",
      "outputs": [],
      "stateMutability": "nonpayable",
      "type": "function"
    },
    {
      "inputs": [
        {
          "internalType": "bytes32",
          "name": "role",
          "type": "bytes32"
        },
        {
          "internalType": "address",
          "name": "account",
          "type": "address"
        }
      ],
      "name": "hasRole",
      "outputs": [
        {
          "internalType": "bool",
          "name": "",
          "type": "bool"
        }
      ],
      "stateMutability": "view",
      "type": "function"
    },
    {
      "inputs": [],
      "name": "i_callbackGasLimit",
      "outputs": [
        {
          "internalType": "uint32",
          "name": "",
          "type": "uint32"
        }
      ],
      "stateMutability": "view",
      "type": "function"
    },
    {
      "inputs": [],
      "name": "i_gasLane",
      "outputs": [
        {
          "internalType": "bytes32",
          "name": "",
          "type": "bytes32"
        }
      ],
      "stateMutability": "view",
      "type": "function"
    },
    {
      "inputs": [],
      "name": "i_subscriptionId",
      "outputs": [
        {
          "internalType": "uint64",
          "name": "",
          "type": "uint64"
        }
      ],
      "stateMutability": "view",
      "type": "function"
    },
    {
      "inputs": [],
      "name": "i_vrfCoordinator",
      "outputs": [
        {
          "internalType": "contract VRFCoordinatorV2Interface",
          "name": "",
          "type": "address"
        }
      ],
      "stateMutability": "view",
      "type": "function"
    },
    {
      "inputs": [
        {
          "internalType": "address",
          "name": "account",
          "type": "address"
        },
        {
          "internalType": "address",
          "name": "operator",
          "type": "address"
        }
      ],
      "name": "isApprovedForAll",
      "outputs": [
        {
          "internalType": "bool",
          "name": "",
          "type": "bool"
        }
      ],
      "stateMutability": "view",
      "type": "function"
    },
    {
      "inputs": [
        {
          "internalType": "address",
          "name": "user",
          "type": "address"
        }
      ],
      "name": "isVip",
      "outputs": [
        {
          "internalType": "bool",
          "name": "",
          "type": "bool"
        }
      ],
      "stateMutability": "view",
      "type": "function"
    },
    {
      "inputs": [
        {
          "internalType": "uint256",
          "name": "itemSupply",
          "type": "uint256"
        }
      ],
      "name": "listItem",
      "outputs": [],
      "stateMutability": "nonpayable",
      "type": "function"
    },
    {
      "inputs": [
        {
          "internalType": "uint256",
          "name": "marketItemId",
          "type": "uint256"
        },
        {
          "internalType": "uint256",
          "name": "price",
          "type": "uint256"
        }
      ],
      "name": "listItemOnMarket",
      "outputs": [],
      "stateMutability": "nonpayable",
      "type": "function"
    },
    {
      "inputs": [
        {
          "internalType": "uint256",
          "name": "numTries",
          "type": "uint256"
        },
        {
          "internalType": "uint256",
          "name": "_hours",
          "type": "uint256"
        },
        {
          "internalType": "uint256",
          "name": "price",
          "type": "uint256"
        }
      ],
      "name": "listTicket",
      "outputs": [],
      "stateMutability": "nonpayable",
      "type": "function"
    },
    {
      "inputs": [
        {
          "internalType": "address",
          "name": "",
          "type": "address"
        },
        {
          "internalType": "address",
          "name": "",
          "type": "address"
        },
        {
          "internalType": "uint256[]",
          "name": "",
          "type": "uint256[]"
        },
        {
          "internalType": "uint256[]",
          "name": "",
          "type": "uint256[]"
        },
        {
          "internalType": "bytes",
          "name": "",
          "type": "bytes"
        }
      ],
      "name": "onERC1155BatchReceived",
      "outputs": [
        {
          "internalType": "bytes4",
          "name": "",
          "type": "bytes4"
        }
      ],
      "stateMutability": "nonpayable",
      "type": "function"
    },
    {
      "inputs": [
        {
          "internalType": "address",
          "name": "",
          "type": "address"
        },
        {
          "internalType": "address",
          "name": "",
          "type": "address"
        },
        {
          "internalType": "uint256",
          "name": "",
          "type": "uint256"
        },
        {
          "internalType": "uint256",
          "name": "",
          "type": "uint256"
        },
        {
          "internalType": "bytes",
          "name": "",
          "type": "bytes"
        }
      ],
      "name": "onERC1155Received",
      "outputs": [
        {
          "internalType": "bytes4",
          "name": "",
          "type": "bytes4"
        }
      ],
      "stateMutability": "nonpayable",
      "type": "function"
    },
    {
      "inputs": [],
      "name": "openCase",
      "outputs": [],
      "stateMutability": "nonpayable",
      "type": "function"
    },
    {
      "inputs": [
        {
          "internalType": "uint256",
          "name": "requestId",
          "type": "uint256"
        },
        {
          "internalType": "uint256[]",
          "name": "randomWords",
          "type": "uint256[]"
        }
      ],
      "name": "rawFulfillRandomWords",
      "outputs": [],
      "stateMutability": "nonpayable",
      "type": "function"
    },
    {
      "inputs": [
        {
          "internalType": "bytes32",
          "name": "role",
          "type": "bytes32"
        },
        {
          "internalType": "address",
          "name": "account",
          "type": "address"
        }
      ],
      "name": "renounceRole",
      "outputs": [],
      "stateMutability": "nonpayable",
      "type": "function"
    },
    {
      "inputs": [
        {
          "internalType": "bytes32",
          "name": "role",
          "type": "bytes32"
        },
        {
          "internalType": "address",
          "name": "account",
          "type": "address"
        }
      ],
      "name": "revokeRole",
      "outputs": [],
      "stateMutability": "nonpayable",
      "type": "function"
    },
    {
      "inputs": [],
      "name": "s_randomWord",
      "outputs": [
        {
          "internalType": "uint256",
          "name": "",
          "type": "uint256"
        }
      ],
      "stateMutability": "view",
      "type": "function"
    },
    {
      "inputs": [
        {
          "internalType": "address",
          "name": "from",
          "type": "address"
        },
        {
          "internalType": "address",
          "name": "to",
          "type": "address"
        },
        {
          "internalType": "uint256[]",
          "name": "ids",
          "type": "uint256[]"
        },
        {
          "internalType": "uint256[]",
          "name": "amounts",
          "type": "uint256[]"
        },
        {
          "internalType": "bytes",
          "name": "data",
          "type": "bytes"
        }
      ],
      "name": "safeBatchTransferFrom",
      "outputs": [],
      "stateMutability": "nonpayable",
      "type": "function"
    },
    {
      "inputs": [
        {
          "internalType": "address",
          "name": "from",
          "type": "address"
        },
        {
          "internalType": "address",
          "name": "to",
          "type": "address"
        },
        {
          "internalType": "uint256",
          "name": "id",
          "type": "uint256"
        },
        {
          "internalType": "uint256",
          "name": "amount",
          "type": "uint256"
        },
        {
          "internalType": "bytes",
          "name": "data",
          "type": "bytes"
        }
      ],
      "name": "safeTransferFrom",
      "outputs": [],
      "stateMutability": "nonpayable",
      "type": "function"
    },
    {
      "inputs": [
        {
          "internalType": "address",
          "name": "_newAdmin",
          "type": "address"
        }
      ],
      "name": "setAdmin",
      "outputs": [],
      "stateMutability": "nonpayable",
      "type": "function"
    },
    {
      "inputs": [
        {
          "internalType": "address",
          "name": "operator",
          "type": "address"
        },
        {
          "internalType": "bool",
          "name": "approved",
          "type": "bool"
        }
      ],
      "name": "setApprovalForAll",
      "outputs": [],
      "stateMutability": "nonpayable",
      "type": "function"
    },
    {
      "inputs": [
        {
          "internalType": "uint256",
          "name": "price",
          "type": "uint256"
        }
      ],
      "name": "setCasePrice",
      "outputs": [],
      "stateMutability": "nonpayable",
      "type": "function"
    },
    {
      "inputs": [
        {
          "internalType": "uint256",
          "name": "tokenId",
          "type": "uint256"
        },
        {
          "internalType": "string",
          "name": "_uri",
          "type": "string"
        }
      ],
      "name": "setTokenUri",
      "outputs": [],
      "stateMutability": "nonpayable",
      "type": "function"
    },
    {
      "inputs": [
        {
          "internalType": "uint256",
          "name": "tokenId",
          "type": "uint256"
        }
      ],
      "name": "supplyOfItem",
      "outputs": [
        {
          "internalType": "uint256",
          "name": "",
          "type": "uint256"
        }
      ],
      "stateMutability": "view",
      "type": "function"
    },
    {
      "inputs": [
        {
          "internalType": "bytes4",
          "name": "interfaceId",
          "type": "bytes4"
        }
      ],
      "name": "supportsInterface",
      "outputs": [
        {
          "internalType": "bool",
          "name": "",
          "type": "bool"
        }
      ],
      "stateMutability": "view",
      "type": "function"
    },
    {
      "inputs": [
        {
          "internalType": "uint256",
          "name": "marketItemId",
          "type": "uint256"
        }
      ],
      "name": "unListItem",
      "outputs": [],
      "stateMutability": "nonpayable",
      "type": "function"
    },
    {
      "inputs": [
        {
          "internalType": "uint256",
          "name": "ticketId",
          "type": "uint256"
        }
      ],
      "name": "unListTicket",
      "outputs": [],
      "stateMutability": "nonpayable",
      "type": "function"
    },
    {
      "inputs": [
        {
          "internalType": "uint256",
          "name": "tokenId",
          "type": "uint256"
        }
      ],
      "name": "uri",
      "outputs": [
        {
          "internalType": "string",
          "name": "",
          "type": "string"
        }
      ],
      "stateMutability": "view",
      "type": "function"
    },
    {
      "inputs": [
        {
          "internalType": "address",
          "name": "owner",
          "type": "address"
        }
      ],
      "name": "viewItems",
      "outputs": [
        {
          "internalType": "uint256[]",
          "name": "",
          "type": "uint256[]"
        }
      ],
      "stateMutability": "view",
      "type": "function"
    },
    {
      "inputs": [
        {
          "internalType": "address",
          "name": "wallet",
          "type": "address"
        }
      ],
      "name": "withdrawAllFunds",
      "outputs": [],
      "stateMutability": "nonpayable",
      "type": "function"
    },
    {
      "inputs": [
        {
          "internalType": "address",
          "name": "wallet",
          "type": "address"
        },
        {
          "internalType": "uint256",
          "name": "amount",
          "type": "uint256"
        }
      ],
      "name": "withdrawFunds",
      "outputs": [],
      "stateMutability": "nonpayable",
      "type": "function"
    },
    {
      "stateMutability": "payable",
      "type": "receive"
    }
  ],
  "bytecode": "0x6101206040523480156200001257600080fd5b5060405162005ed338038062005ed38339810160408190526200003591620001d0565b60408051602081019091526000815286906200005181620000f4565b506001600160601b0319606091821b811660805296901b90951660a05260c09384526001600160c01b03199290931b9190911660e09081526001600160e01b031991901b1661010052600480546001600160a01b039384166001600160a01b0319918216179091556005805493909216928116929092179055600680549091163317905560006008819055600a556001600b55600c805460ff191690556200029e565b8051620001099060029060208401906200010d565b5050565b8280546200011b9062000261565b90600052602060002090601f0160209004810192826200013f57600085556200018a565b82601f106200015a57805160ff19168380011785556200018a565b828001600101855582156200018a579182015b828111156200018a5782518255916020019190600101906200016d565b50620001989291506200019c565b5090565b5b808211156200019857600081556001016200019d565b80516001600160a01b0381168114620001cb57600080fd5b919050565b60008060008060008060c08789031215620001ea57600080fd5b620001f587620001b3565b6020880151604089015191975095506001600160401b03811681146200021a57600080fd5b606088015190945063ffffffff811681146200023557600080fd5b92506200024560808801620001b3565b91506200025560a08801620001b3565b90509295509295509295565b600181811c908216806200027657607f821691505b602082108114156200029857634e487b7160e01b600052602260045260246000fd5b50919050565b60805160601c60a05160601c60c05160e05160c01c6101005160e01c615bc16200031260003960008181610aa90152611e610152600081816105c40152611e2e01526000818161088e0152611e000152600081816109420152611e9c01526000818161149b01526114c30152615bc16000f3fe60806040526004361061033b5760003560e01c80637e420db5116101b2578063bc197c81116100ed578063dd006d3111610090578063dd006d3114610793578063de08f65314610acb578063e7fb74c714610ae0578063e985e9c514610b00578063f23a6e6114610b20578063f242432a14610b4c578063f48c9d3414610b6c578063fd210fd914610b8c57600080fd5b8063bc197c81146109c8578063c107532914610a0d578063c4c4273014610a2d578063c7be7a4914610640578063c7e05f8d14610a42578063d3c115f214610a62578063d547741f14610a77578063d757d02714610a9757600080fd5b8063a217fddf11610155578063a217fddf14610769578063a22cb465146108d0578063a7b19424146108f0578063a7bc77c614610910578063aebc455014610930578063b2ead3c714610964578063b85e67af14610986578063bbcbc2e7146109a657600080fd5b80637e420db5146107c05780637f4e4849146107e057806384203f4b14610800578063885c2f1714610820578063893d20e8146108355780638dc5f45b1461085c5780638e879c8a1461087c57806391d14854146108b057600080fd5b806336568abe1161028257806361c073d61161022557806361c073d6146106b757806367dd74ca146106d757806367f082b0146106f7578063704b6c021461071f57806372cf6e341461073f57806375b238fc1461076957806378a895671461077e5780637dc379fa1461079357600080fd5b806336568abe14610592578063470cdf97146105b25780634a226657146105fe5780634e1273f41461061357806352a8bd221461064057806357f7789e1461066d5780635db30bb11461068d57806361652450146106a257600080fd5b80631fe543e3116102ea5780631fe543e31461048057806320ba0814146104a057806321c63a47146104cd578063248a9ca3146104e25780632ce38190146105125780632eb2c2d6146105325780632f2ff15d1461055257806332dee40b1461057257600080fd5b8062fdd58e1461034757806301ffc9a71461037a578063020f1980146103aa5780630e89341c146103cc57806319c08575146103f95780631c7cbe4f146104405780631cb0b2731461046057600080fd5b3661034257005b600080fd5b34801561035357600080fd5b50610367610362366004614fdf565b610ba2565b6040519081526020015b60405180910390f35b34801561038657600080fd5b5061039a610395366004615132565b610c3c565b6040519015158152602001610371565b3480156103b657600080fd5b506103ca6103c5366004615211565b610c47565b005b3480156103d857600080fd5b506103ec6103e73660046150f6565b610ec2565b6040516103719190615639565b34801561040557600080fd5b506104196104143660046150f6565b610f64565b604080516001600160a01b0390941684526020840192909252151590820152606001610371565b34801561044c57600080fd5b506103ca61045b36600461525f565b61128a565b34801561046c57600080fd5b506103ca61047b3660046150f6565b6113f3565b34801561048c57600080fd5b506103ca61049b366004615185565b611490565b3480156104ac57600080fd5b506103676104bb3660046150f6565b60009081526010602052604090205490565b3480156104d957600080fd5b50600a54610367565b3480156104ee57600080fd5b506103676104fd3660046150f6565b60009081526003602052604090206001015490565b34801561051e57600080fd5b506103ca61052d3660046150f6565b61150b565b34801561053e57600080fd5b506103ca61054d366004614e9b565b61153d565b34801561055e57600080fd5b506103ca61056d36600461510f565b6115d4565b34801561057e57600080fd5b506103ca61058d366004614e4d565b6115fe565b34801561059e57600080fd5b506103ca6105ad36600461510f565b6117bf565b3480156105be57600080fd5b506105e67f000000000000000000000000000000000000000000000000000000000000000081565b6040516001600160401b039091168152602001610371565b34801561060a57600080fd5b506103ca611839565b34801561061f57600080fd5b5061063361062e366004615009565b611ba6565b60405161037191906155d0565b34801561064c57600080fd5b5061066061065b3660046150f6565b611ccf565b60405161037191906158c4565b34801561067957600080fd5b506103ca6106883660046151c1565b611d4d565b34801561069957600080fd5b50600754610367565b3480156106ae57600080fd5b50610367611df1565b3480156106c357600080fd5b506103ca6106d23660046150f6565b611f18565b3480156106e357600080fd5b506103ca6106f23660046150f6565b612267565b34801561070357600080fd5b5061070c600381565b60405161ffff9091168152602001610371565b34801561072b57600080fd5b506103ca61073a366004614e4d565b612730565b34801561074b57600080fd5b50610754600281565b60405163ffffffff9091168152602001610371565b34801561077557600080fd5b50610367600081565b34801561078a57600080fd5b50600854610367565b34801561079f57600080fd5b506107b36107ae3660046150f6565b612765565b60405161037191906158b6565b3480156107cc57600080fd5b506103ca6107db3660046150f6565b6127f3565b3480156107ec57600080fd5b50600c5460ff166040516103719190615611565b34801561080c57600080fd5b5061039a61081b366004614e4d565b61292b565b34801561082c57600080fd5b50600b54610367565b34801561084157600080fd5b506006546001600160a01b03165b60405161037191906153eb565b34801561086857600080fd5b506103ca6108773660046150f6565b6129c8565b34801561088857600080fd5b506103677f000000000000000000000000000000000000000000000000000000000000000081565b3480156108bc57600080fd5b5061039a6108cb36600461510f565b612a22565b3480156108dc57600080fd5b506103ca6108eb366004614fa8565b612a4d565b3480156108fc57600080fd5b506103ca61090b366004615211565b612a58565b34801561091c57600080fd5b506103ca61092b3660046150f6565b612b43565b34801561093c57600080fd5b5061084f7f000000000000000000000000000000000000000000000000000000000000000081565b34801561097057600080fd5b50610979612c66565b6040516103719190615540565b34801561099257600080fd5b506103ca6109a1366004615233565b612e63565b3480156109b257600080fd5b506109bb61317c565b604051610371919061558e565b3480156109d457600080fd5b506109f46109e3366004614e9b565b63bc197c8160e01b95945050505050565b6040516001600160e01b03199091168152602001610371565b348015610a1957600080fd5b506103ca610a28366004614fdf565b613382565b348015610a3957600080fd5b50600954610367565b348015610a4e57600080fd5b50610367610a5d3660046150f6565b6134ce565b348015610a6e57600080fd5b50610633613505565b348015610a8357600080fd5b506103ca610a9236600461510f565b6135ec565b348015610aa357600080fd5b506107547f000000000000000000000000000000000000000000000000000000000000000081565b348015610ad757600080fd5b506103ca613611565b348015610aec57600080fd5b506103ca610afb3660046150f6565b613670565b348015610b0c57600080fd5b5061039a610b1b366004614e68565b613c04565b348015610b2c57600080fd5b506109f4610b3b366004614f44565b63f23a6e6160e01b95945050505050565b348015610b5857600080fd5b506103ca610b67366004614f44565b613c32565b348015610b7857600080fd5b50610633610b87366004614e4d565b613cb9565b348015610b9857600080fd5b50610367600f5481565b60006001600160a01b038316610c135760405162461bcd60e51b815260206004820152602b60248201527f455243313135353a2062616c616e636520717565727920666f7220746865207a60448201526a65726f206164647265737360a81b60648201526084015b60405180910390fd5b506000818152602081815260408083206001600160a01b03861684529091529020545b92915050565b6000610c3682613d7d565b6000610c533384610ba2565b11610c925760405162461bcd60e51b815260206004820152600f60248201526e24ba32b6903737ba103337bab7321760891b6044820152606401610c0a565b610c9c3330613c04565b610ce85760405162461bcd60e51b815260206004820152601f60248201527f417070726f766564206973206e6f7420636f72726563746c7920646f6e652e006044820152606401610c0a565b60008111610d385760405162461bcd60e51b815260206004820152601c60248201527f5072696365206d7573742062652067726561746572207468616e2030000000006044820152606401610c0a565b3360009081526016602090815260408083208584529091528120805460019290610d639084906158f5565b90915550506040805160a08101825283815260098054602083019081529282018481523360608401908152600160808501818152600d80549283018155600090815295517fd7b6990105719101dabeb77144f2a3385c8033acd3af97e9423a695e81ad1eb560049093029283015595517fd7b6990105719101dabeb77144f2a3385c8033acd3af97e9423a695e81ad1eb682015591517fd7b6990105719101dabeb77144f2a3385c8033acd3af97e9423a695e81ad1eb7830155517fd7b6990105719101dabeb77144f2a3385c8033acd3af97e9423a695e81ad1eb8909101805494516001600160a01b039092166001600160a81b031990951694909417600160a01b911515919091021790925581549190610e7e83615a05565b91905055507f23cba88d6c6f26b62b2cfc32a2cc04fbbde8590188b97cd3590e45af9ac6dd6d338383604051610eb6939291906154f9565b60405180910390a15050565b6000818152601160205260409020805460609190610edf9061599e565b80601f0160208091040260200160405190810160405280929190818152602001828054610f0b9061599e565b8015610f585780601f10610f2d57610100808354040283529160200191610f58565b820191906000526020600020905b815481529060010190602001808311610f3b57829003601f168201915b50505050509050919050565b600080600080600e8581548110610f7d57610f7d615a76565b90600052602060002090600702016005015411610fd65760405162461bcd60e51b81526020600482015260176024820152762a34b1b5b2ba1034b9903737ba1039b7b632103cb2ba1760491b6044820152606401610c0a565b6000600e8581548110610feb57610feb615a76565b9060005260206000209060070201600101546000141561114357600e858154811061101857611018615a76565b906000526020600020906007020160020154603c6110369190615921565b603c600e878154811061104b5761104b615a76565b906000526020600020906007020160050154426110689190615940565b611072919061590d565b14156110b75760009050600e858154811061108f5761108f615a76565b600091825260208220600460079092020101546001600160a01b031694509092509050611283565b603c600e86815481106110cc576110cc615a76565b906000526020600020906007020160050154426110e99190615940565b6110f3919061590d565b600e868154811061110657611106615a76565b906000526020600020906007020160020154603c6111249190615921565b61112e9190615940565b9050600e858154811061108f5761108f615a76565b600e858154811061115657611156615a76565b906000526020600020906007020160020154603c6111749190615921565b603c600e878154811061118957611189615a76565b906000526020600020906007020160050154426111a69190615940565b6111b0919061590d565b14156111f75760009050600e85815481106111cd576111cd615a76565b60009182526020909120600460079092020101546001600160a01b03169350915060019050611283565b603c600e868154811061120c5761120c615a76565b906000526020600020906007020160050154426112299190615940565b611233919061590d565b600e868154811061124657611246615a76565b906000526020600020906007020160020154603c6112649190615921565b61126e9190615940565b9050600e85815481106111cd576111cd615a76565b9193909250565b6112933361292b565b6112af5760405162461bcd60e51b8152600401610c0a906157c5565b3360009081526012602052604090205460ff166112de5760405162461bcd60e51b8152600401610c0a906156c9565b336001600160a01b0316600e85815481106112fb576112fb615a76565b60009182526020909120600460079092020101546001600160a01b0316146113355760405162461bcd60e51b8152600401610c0a90615694565b80600e858154811061134957611349615a76565b90600052602060002090600702016003018190555081600e858154811061137257611372615a76565b90600052602060002090600702016002018190555082600e858154811061139b5761139b615a76565b9060005260206000209060070201600101819055507f0fcd915268f7fe921a6c99bd903199d2f30c7f65a422416bfd1de6a264b8264d338484846040516113e5949392919061551a565b60405180910390a150505050565b60006113ff3383610ba2565b1161140957600080fd5b61141533826001613da2565b6000818152601060205260408120805460019290611434908490615940565b9250508190555060016007600082825461144e9190615940565b90915550506040517f9e90d55d2f1f115ffe1b87372c45f27f6b3a2b5ba392942167be7845618900949061148590339084906154e0565b60405180910390a150565b336001600160a01b037f000000000000000000000000000000000000000000000000000000000000000016146114fd57337f000000000000000000000000000000000000000000000000000000000000000060405163073e64fd60e21b8152600401610c0a9291906153ff565b6115078282613f11565b5050565b61151433613f36565b6115305760405162461bcd60e51b8152600401610c0a90615846565b61153a3082613f6c565b50565b6001600160a01b03851633148061155957506115598533613c04565b6115c05760405162461bcd60e51b815260206004820152603260248201527f455243313135353a207472616e736665722063616c6c6572206973206e6f74206044820152711bdddb995c881b9bdc88185c1c1c9bdd995960721b6064820152608401610c0a565b6115cd8585858585613fd7565b5050505050565b6000828152600360205260409020600101546115ef816141b4565b6115f983836141be565b505050565b6006546001600160a01b031633146116285760405162461bcd60e51b8152600401610c0a90615887565b6005546040516370a0823160e01b81526000916001600160a01b0316906370a08231906116599030906004016153eb565b60206040518083038186803b15801561167157600080fd5b505afa158015611685573d6000803e3d6000fd5b505050506040513d601f19601f820116820180604052508101906116a9919061516c565b116116c65760405162461bcd60e51b8152600401610c0a9061570f565b6005546040516370a0823160e01b81526001600160a01b039091169063a9059cbb90839083906370a08231906117009030906004016153eb565b60206040518083038186803b15801561171857600080fd5b505afa15801561172c573d6000803e3d6000fd5b505050506040513d601f19601f82011682018060405250810190611750919061516c565b6040518363ffffffff1660e01b815260040161176d9291906154e0565b602060405180830381600087803b15801561178757600080fd5b505af115801561179b573d6000803e3d6000fd5b505050506040513d601f19601f8201168201806040525081019061150791906150d9565b6001600160a01b038116331461182f5760405162461bcd60e51b815260206004820152602f60248201527f416363657373436f6e74726f6c3a2063616e206f6e6c792072656e6f756e636560448201526e103937b632b9903337b91039b2b63360891b6064820152608401610c0a565b6115078282614244565b60006007541161188b5760405162461bcd60e51b815260206004820152601c60248201527f546865726520617265206e6f206974656d73206176616c6961626c65000000006044820152606401610c0a565b6000600c5460ff1660018111156118a4576118a4615a60565b146118ff5760405162461bcd60e51b815260206004820152602560248201527f436f6e7472616374206973206e6f74206163746976652061742074686973206d6044820152641bdb595b9d60da1b6064820152608401610c0a565b600480546040516370a0823160e01b81526001926001600160a01b03909216916370a0823191611931913391016153eb565b60206040518083038186803b15801561194957600080fd5b505afa15801561195d573d6000803e3d6000fd5b505050506040513d601f19601f82011682018060405250810190611981919061516c565b1015611a01573360009081526013602052604090205460ff16611a015760405162461bcd60e51b815260206004820152603260248201527f5573657220646f6573206e6f74206f776e732061205469636b657420666f722060448201527137b832b73734b733903a34329031b0b9b29760711b6064820152608401610c0a565b600554600b546040516323b872dd60e01b81526001600160a01b03909216916323b872dd91611a369133913091600401615477565b602060405180830381600087803b158015611a5057600080fd5b505af1158015611a64573d6000803e3d6000fd5b505050506040513d601f19601f82011682018060405250810190611a8891906150d9565b506000600754611a96611df1565b611aa09190615a20565b90506000611aac613505565b9050600080805b8351811015611b5a57600060106000868481518110611ad457611ad4615a76565b602002602001015181526020019081526020016000205484611af691906158f5565b905080861115611b0857809350611b47565b848281518110611b1a57611b1a615a76565b60200260200101519250611b413033856001604051806020016040528060008152506142ab565b50611b5a565b5080611b5281615a05565b915050611ab3565b50611b643361292b565b611b7157611b71336143c3565b7fea32e37a2618dbb680c93d891742e9e13b30d184822562a0ee3c09290fd42b4333600b54836040516113e5939291906154f9565b60608151835114611c0b5760405162461bcd60e51b815260206004820152602960248201527f455243313135353a206163636f756e747320616e6420696473206c656e677468604482015268040dad2e6dac2e8c6d60bb1b6064820152608401610c0a565b600083516001600160401b03811115611c2657611c26615a8c565b604051908082528060200260200182016040528015611c4f578160200160208202803683370190505b50905060005b8451811015611cc757611c9a858281518110611c7357611c73615a76565b6020026020010151858381518110611c8d57611c8d615a76565b6020026020010151610ba2565b828281518110611cac57611cac615a76565b6020908102919091010152611cc081615a05565b9050611c55565b509392505050565b611cd7614c27565b600d8281548110611cea57611cea615a76565b60009182526020918290206040805160a0810182526004909302909101805483526001810154938301939093526002830154908201526003909101546001600160a01b038116606083015260ff600160a01b909104161515608082015292915050565b611d5633613f36565b611d725760405162461bcd60e51b8152600401610c0a90615846565b60008281526011602052604090208054611d8b9061599e565b159050611dd25760405162461bcd60e51b815260206004820152601560248201527443616e206e6f74207365742075726920747769636560581b6044820152606401610c0a565b600082815260116020908152604090912082516115f992840190614c61565b6040516305d3b1d360e41b81527f000000000000000000000000000000000000000000000000000000000000000060048201526001600160401b037f00000000000000000000000000000000000000000000000000000000000000001660248201526003604482015263ffffffff7f00000000000000000000000000000000000000000000000000000000000000001660648201526002608482015260009081906001600160a01b037f00000000000000000000000000000000000000000000000000000000000000001690635d3b1d309060a401602060405180830381600087803b158015611ee057600080fd5b505af1158015611ef4573d6000803e3d6000fd5b505050506040513d601f19601f82011682018060405250810190610c36919061516c565b611f213361292b565b611f3d5760405162461bcd60e51b8152600401610c0a906157c5565b3360009081526015602052604090205460ff16611f9c5760405162461bcd60e51b815260206004820152601c60248201527f5573657220646964206e6f742073656c6c20616e79205469636b6574000000006044820152606401610c0a565b600e8181548110611faf57611faf615a76565b906000526020600020906007020160010154600014806120395750600e8181548110611fdd57611fdd615a76565b906000526020600020906007020160020154603c611ffb9190615921565b603c600e838154811061201057612010615a76565b9060005260206000209060070201600501544261202d9190615940565b612037919061590d565b145b6120a35760405162461bcd60e51b815260206004820152603560248201527f4475726174696f6e206f6620746865205469636b6574206f72206e756d5472696044820152746573206973207374696c6c206176616c6961626c6560581b6064820152608401610c0a565b6000600e82815481106120b8576120b8615a76565b906000526020600020906007020160040160009054906101000a90046001600160a01b03169050600060136000600e85815481106120f8576120f8615a76565b60009182526020808320600460079093020191909101546001600160a01b031683528281019390935260409182018120805494151560ff1995861617905533808252601384528282208054861660011790556015909352208054909216909155600e80548490811061216c5761216c615a76565b906000526020600020906007020160040160006101000a8154816001600160a01b0302191690836001600160a01b031602179055506001600e83815481106121b6576121b6615a76565b906000526020600020906007020160060160006101000a81548160ff021916908315150217905550600160136000600e85815481106121f7576121f7615a76565b60009182526020808320600792909202909101600401546001600160a01b031683528201929092526040908101909120805460ff191692151592909217909155517f5093646a80c0a81f51115fbf5ec8379ecf902ae2ba552c74599cbe844dcb53e390610eb690839033906153ff565b6122703361292b565b156122bd5760405162461bcd60e51b815260206004820152601f60248201527f412056495020757365722063616e206e6f74206275792061207469636b6574006044820152606401610c0a565b336001600160a01b0316600e82815481106122da576122da615a76565b60009182526020909120600460079092020101546001600160a01b031614156123535760405162461bcd60e51b815260206004820152602560248201527f596f752063616e206e6f74206275792061207469636b657420746f20796f75726044820152641039b2b63360d91b6064820152608401610c0a565b600e818154811061236657612366615a76565b600091825260209091206006600790920201015460ff1615156001146123d85760405162461bcd60e51b815260206004820152602160248201527f5469636b6574206973206e6f742063757272656e746c79206176616c6961626c6044820152606560f81b6064820152608401610c0a565b6000600e82815481106123ed576123ed615a76565b6000918252602090912060079091020160040154600554600e80546001600160a01b03938416945092909116916323b872dd9133918690811061243257612432615a76565b906000526020600020906007020160040160009054906101000a90046001600160a01b0316600e868154811061246a5761246a615a76565b9060005260206000209060070201600301546040518463ffffffff1660e01b815260040161249a93929190615477565b602060405180830381600087803b1580156124b457600080fd5b505af11580156124c8573d6000803e3d6000fd5b505050506040513d601f19601f820116820180604052508101906124ec91906150d9565b5042600e838154811061250157612501615a76565b906000526020600020906007020160050181905550600060136000600e858154811061252f5761252f615a76565b60009182526020808320600792909202909101600401546001600160a01b031683528201929092526040018120805460ff191692151592909217909155600e805460129183918690811061258557612585615a76565b60009182526020808320600792909202909101600401546001600160a01b031683528201929092526040018120805460ff191692151592909217909155600e80546001926015929091869081106125de576125de615a76565b60009182526020808320600460079093020191909101546001600160a01b031683528281019390935260409182018120805494151560ff19958616179055338082526013909352208054909216600117909155600e80548490811061264557612645615a76565b906000526020600020906007020160040160006101000a8154816001600160a01b0302191690836001600160a01b031602179055506000600e838154811061268f5761268f615a76565b906000526020600020906007020160060160006101000a81548160ff0219169083151502179055507f060f7dd92424d6f1af65d2fe9acba5b63d299cc26cd8eb26403ca371bc9fbfbb828233600e86815481106126ee576126ee615a76565b906000526020600020906007020160030154604051610eb694939291909384526001600160a01b03928316602085015291166040830152606082015260800190565b6006546001600160a01b0316331461275a5760405162461bcd60e51b8152600401610c0a90615887565b61153a600082614514565b61276d614ce5565b600e828154811061278057612780615a76565b60009182526020918290206040805160e0810182526007909302909101805483526001810154938301939093526002830154908201526003820154606082015260048201546001600160a01b03166080820152600582015460a082015260069091015460ff16151560c082015292915050565b6127fc3361292b565b6128185760405162461bcd60e51b8152600401610c0a906157c5565b3360009081526012602052604090205460ff166128475760405162461bcd60e51b8152600401610c0a906156c9565b336001600160a01b0316600e828154811061286457612864615a76565b60009182526020909120600460079092020101546001600160a01b03161461289e5760405162461bcd60e51b8152600401610c0a90615694565b6000600e82815481106128b3576128b3615a76565b60009182526020808320600660079093020191909101805493151560ff1994851617905533808352601282526040808420805486169055601390925291819020805490931660011790925590517f5dbab6b1e9ddd154d6eb51aa5622fb5278ea62a0b5f81d046a945d899490f63191611485916153eb565b600480546040516370a0823160e01b815260009283926001600160a01b0316916370a082319161295d918791016153eb565b60206040518083038186803b15801561297557600080fd5b505afa158015612989573d6000803e3d6000fd5b505050506040513d601f19601f820116820180604052508101906129ad919061516c565b11156129bb57506001919050565b506000919050565b919050565b6129d133613f36565b6129ed5760405162461bcd60e51b8152600401610c0a90615846565b600b8190556040518181527f06cd74aabc11982a85b554df4d7833623303656fe69bed4db1b0cb3245feebe390602001611485565b60009182526003602090815260408084206001600160a01b0393909316845291905290205460ff1690565b61150733838361451e565b336001600160a01b0316600d8381548110612a7557612a75615a76565b60009182526020909120600360049092020101546001600160a01b031614612aaf5760405162461bcd60e51b8152600401610c0a9061573d565b6000600d8381548110612ac457612ac4615a76565b906000526020600020906004020160020154905081600d8481548110612aec57612aec615a76565b9060005260206000209060040201600201819055507fb141d00f22a670547caacc412e6489d8edaba6a840df558118363ce1a40d6ed233848385604051612b36949392919061551a565b60405180910390a1505050565b336001600160a01b0316600d8281548110612b6057612b60615a76565b60009182526020909120600360049092020101546001600160a01b031614612b9a5760405162461bcd60e51b8152600401610c0a9061573d565b336000908152601660205260408120600d8054600193919085908110612bc257612bc2615a76565b90600052602060002090600402016000015481526020019081526020016000206000828254612bf19190615940565b925050819055506000600d8281548110612c0d57612c0d615a76565b906000526020600020906004020160030160146101000a81548160ff0219169083151502179055507fc9cedcca3d85d6009a562a9e70071f6288adabda9ba7f059589165e75c9cf40433826040516114859291906154e0565b60606000805b600e54811015612d26576000600e8281548110612c8b57612c8b615a76565b60009182526020918290206040805160e081018252600790930290910180548352600180820154948401949094526002810154918301919091526003810154606083015260048101546001600160a01b03166080830152600581015460a08301526006015460ff16151560c082018190529092501415612d1357612d106001846158f5565b92505b5080612d1e81615a05565b915050612c6c565b506000816001600160401b03811115612d4157612d41615a8c565b604051908082528060200260200182016040528015612d7a57816020015b612d67614ce5565b815260200190600190039081612d5f5790505b5090506000805b600e54811015612e5a576000600e8281548110612da057612da0615a76565b60009182526020918290206040805160e081018252600790930290910180548352600180820154948401949094526002810154918301919091526003810154606083015260048101546001600160a01b03166080830152600581015460a08301526006015460ff16151560c082018190529092501415612e475780848481518110612e2d57612e2d615a76565b60200260200101819052508280612e4390615a05565b9350505b5080612e5281615a05565b915050612d81565b50909392505050565b612e6c3361292b565b612e885760405162461bcd60e51b8152600401610c0a906157c5565b3360009081526012602052604090205460ff1615612efb5760405162461bcd60e51b815260206004820152602a60248201527f5573657220697320616c72656164792063757272656e746c792073656c6c696e60448201526919c81848151a58dad95d60b21b6064820152608401610c0a565b3360009081526014602052604090205460ff1615612f72573360009081526013602052604090205460ff16612f725760405162461bcd60e51b815260206004820152601d60248201527f5573657220686173206e6f74207469636b6574206176616c6961626c650000006044820152606401610c0a565b6040805160e081018252600a8054825260208201868152928201858152606083018581523360808501908152600060a08601818152600160c08801818152600e80549283018155845297517fbb7b4a454dc3493923482f07822329ed19e8244eff582cc204f8554c3620c3fd60079092029182015597517fbb7b4a454dc3493923482f07822329ed19e8244eff582cc204f8554c3620c3fe89015593517fbb7b4a454dc3493923482f07822329ed19e8244eff582cc204f8554c3620c3ff88015591517fbb7b4a454dc3493923482f07822329ed19e8244eff582cc204f8554c3620c400870155517fbb7b4a454dc3493923482f07822329ed19e8244eff582cc204f8554c3620c401860180546001600160a01b0319166001600160a01b0390921691909117905590517fbb7b4a454dc3493923482f07822329ed19e8244eff582cc204f8554c3620c40285015591517fbb7b4a454dc3493923482f07822329ed19e8244eff582cc204f8554c3620c403909301805460ff1916931515939093179092558154919061310383615a05565b90915550503360008181526012602090815260408083208054600160ff199182168117909255601484528285208054821690921790915560139092529182902080549091169055517f07814713aba2e13eb5f2470225f7395d33fad1452b70f8427dae73e4d3a5934491612b369186908690869061551a565b60606000805b600d54811015613245576000600d82815481106131a1576131a1615a76565b60009182526020918290206040805160a08101825260049093029091018054835260018082015494840194909452600281015491830191909152600301546001600160a01b038116606083015260ff600160a01b9091041615156080820181905290925014801561321f575061321f816060015182600001516145ff565b156132325761322f6001846158f5565b92505b508061323d81615a05565b915050613182565b506000816001600160401b0381111561326057613260615a8c565b60405190808252806020026020018201604052801561329957816020015b613286614c27565b81526020019060019003908161327e5790505b5090506000805b600d54811015612e5a576000600d82815481106132bf576132bf615a76565b60009182526020918290206040805160a08101825260049093029091018054835260018082015494840194909452600281015491830191909152600301546001600160a01b038116606083015260ff600160a01b9091041615156080820181905290925014801561333d575061333d816060015182600001516145ff565b1561336f578084848151811061335557613355615a76565b6020026020010181905250828061336b90615a05565b9350505b508061337a81615a05565b9150506132a0565b6006546001600160a01b031633146133ac5760405162461bcd60e51b8152600401610c0a90615887565b6005546040516370a0823160e01b81526000916001600160a01b0316906370a08231906133dd9030906004016153eb565b60206040518083038186803b1580156133f557600080fd5b505afa158015613409573d6000803e3d6000fd5b505050506040513d601f19601f8201168201806040525081019061342d919061516c565b1161344a5760405162461bcd60e51b8152600401610c0a9061570f565b60055460405163a9059cbb60e01b81526001600160a01b039091169063a9059cbb9061347c90859085906004016154e0565b602060405180830381600087803b15801561349657600080fd5b505af11580156134aa573d6000803e3d6000fd5b505050506040513d601f19601f820116820180604052508101906115f991906150d9565b60006134d982614622565b6134e257600080fd5b6000828152601060205260408120546007546134fe919061590d565b9392505050565b60606000805b6008548110156135475760006135213083610ba2565b1115613535578161353181615a05565b9250505b8061353f81615a05565b91505061350b565b506000816001600160401b0381111561356257613562615a8c565b60405190808252806020026020018201604052801561358b578160200160208202803683370190505b5090506000805b600854811015612e5a5760006135a83083610ba2565b11156135da57808383815181106135c1576135c1615a76565b6020908102919091010152816135d681615a05565b9250505b806135e481615a05565b915050613592565b600082815260036020526040902060010154613607816141b4565b6115f98383614244565b61361a33613f36565b6136365760405162461bcd60e51b8152600401610c0a90615846565b6000600c5460ff16600181111561364f5761364f615a60565b141561366457600c805460ff19166001179055565b600c805460ff19169055565b6000600d828154811061368557613685615a76565b60009182526020918290206040805160a0810182526004909302909101805483526001810154938301939093526002830154908201526003909101546001600160a01b038116606083015260ff600160a01b9091041615156080820152600d805491925090839081106136fa576136fa615a76565b60009182526020909120600490910201600301546001600160a01b03163314156137725760405162461bcd60e51b815260206004820152602360248201527f596f752063616e206e6f742062757920616e206974656d20746f20796f75727360448201526232b63360e91b6064820152608401610c0a565b600d828154811061378557613785615a76565b906000526020600020906004020160030160149054906101000a900460ff16151560011515146138015760405162461bcd60e51b815260206004820152602160248201527f54686973206974656d206973206e6f74206f6e2073616c6520616e796d6f72656044820152601760f91b6064820152608401610c0a565b613813816060015182600001516145ff565b6138565760405162461bcd60e51b815260206004820152601460248201527324ba32b6903237b2b9903737ba1032bc34b9ba1760611b6044820152606401610c0a565b6040808201516005549151636eb1769f60e11b815290916001600160a01b03169063dd62ed3e9061388d90339030906004016153ff565b60206040518083038186803b1580156138a557600080fd5b505afa1580156138b9573d6000803e3d6000fd5b505050506040513d601f19601f820116820180604052508101906138dd919061516c565b101561392b5760405162461bcd60e51b815260206004820152601c60248201527f496e73756666696369656e7420455243323020616c6c6f77616e6365000000006044820152606401610c0a565b600554600d80546001600160a01b03909216916323b872dd9133918690811061395657613956615a76565b906000526020600020906004020160030160009054906101000a90046001600160a01b0316600d868154811061398e5761398e615a76565b9060005260206000209060040201600201546040518463ffffffff1660e01b81526004016139be93929190615477565b602060405180830381600087803b1580156139d857600080fd5b505af11580156139ec573d6000803e3d6000fd5b505050506040513d601f19601f82011682018060405250810190613a1091906150d9565b50613a89600d8381548110613a2757613a27615a76565b906000526020600020906004020160030160009054906101000a90046001600160a01b031633600d8581548110613a6057613a60615a76565b9060005260206000209060040201600001546001604051806020016040528060008152506142ab565b60608101516001600160a01b03166000908152601660209081526040808320845184529091528120805460019290613ac2908490615940565b925050819055506000600d8381548110613ade57613ade615a76565b906000526020600020906004020160030160009054906101000a90046001600160a01b0316905033600d8481548110613b1957613b19615a76565b906000526020600020906004020160030160006101000a8154816001600160a01b0302191690836001600160a01b031602179055506000600d8481548110613b6357613b63615a76565b906000526020600020906004020160030160146101000a81548160ff0219169083151502179055507f642067ff529c9b5b1162502fc8e8a3a91dda56e126a84f2fe38d341236231a82338285600d8781548110613bc257613bc2615a76565b600091825260209182902060026004909202010154604080516001600160a01b0396871681529590941691850191909152918301526060820152608001612b36565b6001600160a01b03918216600090815260016020908152604080832093909416825291909152205460ff1690565b6001600160a01b038516331480613c4e5750613c4e8533613c04565b613cac5760405162461bcd60e51b815260206004820152602960248201527f455243313135353a2063616c6c6572206973206e6f74206f776e6572206e6f7260448201526808185c1c1c9bdd995960ba1b6064820152608401610c0a565b6115cd85858585856142ab565b606060006008546001600160401b03811115613cd757613cd7615a8c565b604051908082528060200260200182016040528015613d00578160200160208202803683370190505b50905060005b8151811015613d76576001600160a01b0384166000908152601660209081526040808320848452909152902054613d3d8583610ba2565b613d479190615940565b828281518110613d5957613d59615a76565b602090810291909101015280613d6e81615a05565b915050613d06565b5092915050565b60006001600160e01b03198216637965db0b60e01b1480610c365750610c368261463a565b6001600160a01b038316613e045760405162461bcd60e51b815260206004820152602360248201527f455243313135353a206275726e2066726f6d20746865207a65726f206164647260448201526265737360e81b6064820152608401610c0a565b336000613e108461465f565b90506000613e1d8461465f565b60408051602080820183526000918290528882528181528282206001600160a01b038b1683529052205490915084811015613ea65760405162461bcd60e51b8152602060048201526024808201527f455243313135353a206275726e20616d6f756e7420657863656564732062616c604482015263616e636560e01b6064820152608401610c0a565b6000868152602081815260408083206001600160a01b038b81168086529184528285208a8703905582518b81529384018a9052909290881691600080516020615b6c833981519152910160405180910390a46040805160208101909152600090525b50505050505050565b80600081518110613f2457613f24615a76565b6020026020010151600f819055505050565b6006546000906001600160a01b0383811691161480613f5b5750613f5b600083612a22565b613f6457600080fd5b506001919050565b613f898260085483604051806020016040528060008152506146aa565b613fa26008548260009182526010602052604090912055565b8060076000828254613fb491906158f5565b92505081905550600160086000828254613fce91906158f5565b90915550505050565b81518351146140395760405162461bcd60e51b815260206004820152602860248201527f455243313135353a2069647320616e6420616d6f756e7473206c656e677468206044820152670dad2e6dac2e8c6d60c31b6064820152608401610c0a565b6001600160a01b03841661405f5760405162461bcd60e51b8152600401610c0a90615780565b3360005b845181101561414657600085828151811061408057614080615a76565b60200260200101519050600085838151811061409e5761409e615a76565b602090810291909101810151600084815280835260408082206001600160a01b038e1683529093529190912054909150818110156140ee5760405162461bcd60e51b8152600401610c0a906157fc565b6000838152602081815260408083206001600160a01b038e8116855292528083208585039055908b1682528120805484929061412b9084906158f5565b925050819055505050508061413f90615a05565b9050614063565b50846001600160a01b0316866001600160a01b0316826001600160a01b03167f4a39dc06d4c0dbc64b70af90fd698a233a518aa5d07e595d983b8c0526c8f7fb87876040516141969291906155e3565b60405180910390a46141ac8187878787876147a3565b505050505050565b61153a813361490e565b6141c88282612a22565b6115075760008281526003602090815260408083206001600160a01b03851684529091529020805460ff191660011790556142003390565b6001600160a01b0316816001600160a01b0316837f2f8788117e7eff1d82e926ec794901d17c78024a50270940304540a733656f0d60405160405180910390a45050565b61424e8282612a22565b156115075760008281526003602090815260408083206001600160a01b0385168085529252808320805460ff1916905551339285917ff6391f5c32d9c69d2a47ea670b442974b53935d1edc7fd64eb21e047a839171b9190a45050565b6001600160a01b0384166142d15760405162461bcd60e51b8152600401610c0a90615780565b3360006142dd8561465f565b905060006142ea8561465f565b90506000868152602081815260408083206001600160a01b038c1684529091529020548581101561432d5760405162461bcd60e51b8152600401610c0a906157fc565b6000878152602081815260408083206001600160a01b038d8116855292528083208985039055908a1682528120805488929061436a9084906158f5565b909155505060408051888152602081018890526001600160a01b03808b16928c82169291881691600080516020615b6c833981519152910160405180910390a46143b8848a8a8a8a8a614972565b505050505050505050565b60005b600e5481101561150757816001600160a01b0316600e82815481106143ed576143ed615a76565b60009182526020909120600460079092020101546001600160a01b0316141561450257600e818154811061442357614423615a76565b90600052602060002090600702016001015460011461447757600e818154811061444f5761444f615a76565b60009182526020822060016007909202010180549161446d83615987565b9190505550614502565b600e818154811061448a5761448a615a76565b6000918252602082206001600790920201018054916144a883615987565b91905055506000600e82815481106144c2576144c2615a76565b60009182526020808320600660079093020191909101805493151560ff199485161790556001600160a01b03851682526013905260409020805490911690555b8061450c81615a05565b9150506143c6565b61150782826141be565b816001600160a01b0316836001600160a01b031614156145925760405162461bcd60e51b815260206004820152602960248201527f455243313135353a2073657474696e6720617070726f76616c20737461747573604482015268103337b91039b2b63360b91b6064820152608401610c0a565b6001600160a01b03838116600081815260016020908152604080832094871680845294825291829020805460ff191686151590811790915591519182527f17307eab39ab6107e8899845ad3d59bd9653f200f220920489ca2b5937696c31910160405180910390a3505050565b60008061460c8484610ba2565b111561461a57506001610c36565b506000610c36565b600081815260106020526040812054613f6457600080fd5b60006001600160e01b03198216630271189760e51b1480610c365750610c3682614a3c565b6040805160018082528183019092526060916000919060208083019080368337019050509050828160008151811061469957614699615a76565b602090810291909101015292915050565b6001600160a01b03841661470a5760405162461bcd60e51b815260206004820152602160248201527f455243313135353a206d696e7420746f20746865207a65726f206164647265736044820152607360f81b6064820152608401610c0a565b3360006147168561465f565b905060006147238561465f565b90506000868152602081815260408083206001600160a01b038b168452909152812080548792906147559084906158f5565b909155505060408051878152602081018790526001600160a01b03808a169260009291871691600080516020615b6c833981519152910160405180910390a4613f0883600089898989614972565b6001600160a01b0384163b156141ac5760405163bc197c8160e01b81526001600160a01b0385169063bc197c81906147e79089908990889088908890600401615419565b602060405180830381600087803b15801561480157600080fd5b505af1925050508015614831575060408051601f3d908101601f1916820190925261482e9181019061514f565b60015b6148de5761483d615aa2565b806308c379a014156148775750614852615abe565b8061485d5750614879565b8060405162461bcd60e51b8152600401610c0a9190615639565b505b60405162461bcd60e51b815260206004820152603460248201527f455243313135353a207472616e7366657220746f206e6f6e20455243313135356044820152732932b1b2b4bb32b91034b6b83632b6b2b73a32b960611b6064820152608401610c0a565b6001600160e01b0319811663bc197c8160e01b14613f085760405162461bcd60e51b8152600401610c0a9061564c565b6149188282612a22565b61150757614930816001600160a01b03166014614a8c565b61493b836020614a8c565b60405160200161494c92919061537c565b60408051601f198184030181529082905262461bcd60e51b8252610c0a91600401615639565b6001600160a01b0384163b156141ac5760405163f23a6e6160e01b81526001600160a01b0385169063f23a6e61906149b6908990899088908890889060040161549b565b602060405180830381600087803b1580156149d057600080fd5b505af1925050508015614a00575060408051601f3d908101601f191682019092526149fd9181019061514f565b60015b614a0c5761483d615aa2565b6001600160e01b0319811663f23a6e6160e01b14613f085760405162461bcd60e51b8152600401610c0a9061564c565b60006001600160e01b03198216636cdb3d1360e11b1480614a6d57506001600160e01b031982166303a24d0760e21b145b80610c3657506301ffc9a760e01b6001600160e01b0319831614610c36565b60606000614a9b836002615921565b614aa69060026158f5565b6001600160401b03811115614abd57614abd615a8c565b6040519080825280601f01601f191660200182016040528015614ae7576020820181803683370190505b509050600360fc1b81600081518110614b0257614b02615a76565b60200101906001600160f81b031916908160001a905350600f60fb1b81600181518110614b3157614b31615a76565b60200101906001600160f81b031916908160001a9053506000614b55846002615921565b614b609060016158f5565b90505b6001811115614bd8576f181899199a1a9b1b9c1cb0b131b232b360811b85600f1660108110614b9457614b94615a76565b1a60f81b828281518110614baa57614baa615a76565b60200101906001600160f81b031916908160001a90535060049490941c93614bd181615987565b9050614b63565b5083156134fe5760405162461bcd60e51b815260206004820181905260248201527f537472696e67733a20686578206c656e67746820696e73756666696369656e746044820152606401610c0a565b6040518060a0016040528060008152602001600081526020016000815260200160006001600160a01b031681526020016000151581525090565b828054614c6d9061599e565b90600052602060002090601f016020900481019282614c8f5760008555614cd5565b82601f10614ca857805160ff1916838001178555614cd5565b82800160010185558215614cd5579182015b82811115614cd5578251825591602001919060010190614cba565b50614ce1929150614d2d565b5090565b6040518060e001604052806000815260200160008152602001600081526020016000815260200160006001600160a01b03168152602001600081526020016000151581525090565b5b80821115614ce15760008155600101614d2e565b60006001600160401b03831115614d5b57614d5b615a8c565b604051614d72601f8501601f1916602001826159d9565b809150838152848484011115614d8757600080fd5b83836020830137600060208583010152509392505050565b80356001600160a01b03811681146129c357600080fd5b600082601f830112614dc757600080fd5b81356020614dd4826158d2565b604051614de182826159d9565b8381528281019150858301600585901b87018401881015614e0157600080fd5b60005b85811015614e2057813584529284019290840190600101614e04565b5090979650505050505050565b600082601f830112614e3e57600080fd5b6134fe83833560208501614d42565b600060208284031215614e5f57600080fd5b6134fe82614d9f565b60008060408385031215614e7b57600080fd5b614e8483614d9f565b9150614e9260208401614d9f565b90509250929050565b600080600080600060a08688031215614eb357600080fd5b614ebc86614d9f565b9450614eca60208701614d9f565b935060408601356001600160401b0380821115614ee657600080fd5b614ef289838a01614db6565b94506060880135915080821115614f0857600080fd5b614f1489838a01614db6565b93506080880135915080821115614f2a57600080fd5b50614f3788828901614e2d565b9150509295509295909350565b600080600080600060a08688031215614f5c57600080fd5b614f6586614d9f565b9450614f7360208701614d9f565b9350604086013592506060860135915060808601356001600160401b03811115614f9c57600080fd5b614f3788828901614e2d565b60008060408385031215614fbb57600080fd5b614fc483614d9f565b91506020830135614fd481615b47565b809150509250929050565b60008060408385031215614ff257600080fd5b614ffb83614d9f565b946020939093013593505050565b6000806040838503121561501c57600080fd5b82356001600160401b038082111561503357600080fd5b818501915085601f83011261504757600080fd5b81356020615054826158d2565b60405161506182826159d9565b8381528281019150858301600585901b870184018b101561508157600080fd5b600096505b848710156150ab5761509781614d9f565b835260019690960195918301918301615086565b50965050860135925050808211156150c257600080fd5b506150cf85828601614db6565b9150509250929050565b6000602082840312156150eb57600080fd5b81516134fe81615b47565b60006020828403121561510857600080fd5b5035919050565b6000806040838503121561512257600080fd5b82359150614e9260208401614d9f565b60006020828403121561514457600080fd5b81356134fe81615b55565b60006020828403121561516157600080fd5b81516134fe81615b55565b60006020828403121561517e57600080fd5b5051919050565b6000806040838503121561519857600080fd5b8235915060208301356001600160401b038111156151b557600080fd5b6150cf85828601614db6565b600080604083850312156151d457600080fd5b8235915060208301356001600160401b038111156151f157600080fd5b8301601f8101851361520257600080fd5b6150cf85823560208401614d42565b6000806040838503121561522457600080fd5b50508035926020909101359150565b60008060006060848603121561524857600080fd5b505081359360208301359350604090920135919050565b6000806000806080858703121561527557600080fd5b5050823594602084013594506040840135936060013592509050565b600081518084526020808501945080840160005b838110156152c1578151875295820195908201906001016152a5565b509495945050505050565b600081518084526152e4816020860160208601615957565b601f01601f19169290920160200192915050565b805182526020808201519083015260408082015190830152606080820151908301526080808201516001600160a01b03169083015260a0808201519083015260c0908101511515910152565b8051825260208082015190830152604080820151908301526060808201516001600160a01b0316908301526080908101511515910152565b76020b1b1b2b9b9a1b7b73a3937b61d1030b1b1b7bab73a1604d1b8152600083516153ae816017850160208801615957565b7001034b99036b4b9b9b4b733903937b6329607d1b60179184019182015283516153df816028840160208801615957565b01602801949350505050565b6001600160a01b0391909116815260200190565b6001600160a01b0392831681529116602082015260400190565b6001600160a01b0386811682528516602082015260a06040820181905260009061544590830186615291565b82810360608401526154578186615291565b9050828103608084015261546b81856152cc565b98975050505050505050565b6001600160a01b039384168152919092166020820152604081019190915260600190565b6001600160a01b03868116825285166020820152604081018490526060810183905260a0608082018190526000906154d5908301846152cc565b979650505050505050565b6001600160a01b03929092168252602082015260400190565b6001600160a01b039390931683526020830191909152604082015260600190565b6001600160a01b0394909416845260208401929092526040830152606082015260800190565b6020808252825182820181905260009190848201906040850190845b818110156155825761556f8385516152f8565b9284019260e0929092019160010161555c565b50909695505050505050565b6020808252825182820181905260009190848201906040850190845b81811015615582576155bd838551615344565b9284019260a092909201916001016155aa565b6020815260006134fe6020830184615291565b6040815260006155f66040830185615291565b82810360208401526156088185615291565b95945050505050565b602081016002831061563357634e487b7160e01b600052602160045260246000fd5b91905290565b6020815260006134fe60208301846152cc565b60208082526028908201527f455243313135353a204552433131353552656365697665722072656a656374656040820152676420746f6b656e7360c01b606082015260800190565b6020808252818101527f55736572206973206e6f74206f776e6572206f662074686973207469636b6574604082015260600190565b60208082526026908201527f55736572206973206e6f742063757272656e746c792073656c6c696e67206120604082015265151a58dad95d60d21b606082015260800190565b6020808252601490820152734e6f2066756e647320746f20776974686472617760601b604082015260600190565b60208082526023908201527f596f7520617265206e6f7420746865206f776e6572206f66207468697320697460408201526232b69760e91b606082015260800190565b60208082526025908201527f455243313135353a207472616e7366657220746f20746865207a65726f206164604082015264647265737360d81b606082015260800190565b6020808252601d908201527f5573657220646f6573206e6f74206f776e732061204d7243727970746f000000604082015260600190565b6020808252602a908201527f455243313135353a20696e73756666696369656e742062616c616e636520666f60408201526939103a3930b739b332b960b11b606082015260800190565b60208082526021908201527f55736572206973206e6f7420746865204f776e6572206f7220616e2041646d696040820152603760f91b606082015260800190565b6020808252601590820152742ab9b2b91034b9903737ba103a34329037bbb732b960591b604082015260600190565b60e08101610c3682846152f8565b60a08101610c368284615344565b60006001600160401b038211156158eb576158eb615a8c565b5060051b60200190565b6000821982111561590857615908615a34565b500190565b60008261591c5761591c615a4a565b500490565b600081600019048311821515161561593b5761593b615a34565b500290565b60008282101561595257615952615a34565b500390565b60005b8381101561597257818101518382015260200161595a565b83811115615981576000848401525b50505050565b60008161599657615996615a34565b506000190190565b600181811c908216806159b257607f821691505b602082108114156159d357634e487b7160e01b600052602260045260246000fd5b50919050565b601f8201601f191681016001600160401b03811182821017156159fe576159fe615a8c565b6040525050565b6000600019821415615a1957615a19615a34565b5060010190565b600082615a2f57615a2f615a4a565b500690565b634e487b7160e01b600052601160045260246000fd5b634e487b7160e01b600052601260045260246000fd5b634e487b7160e01b600052602160045260246000fd5b634e487b7160e01b600052603260045260246000fd5b634e487b7160e01b600052604160045260246000fd5b600060033d1115615abb5760046000803e5060005160e01c5b90565b600060443d1015615acc5790565b6040516003193d81016004833e81513d6001600160401b038160248401118184111715615afb57505050505090565b8285019150815181811115615b135750505050505090565b843d8701016020828501011115615b2d5750505050505090565b615b3c602082860101876159d9565b509095945050505050565b801515811461153a57600080fd5b6001600160e01b03198116811461153a57600080fdfec3d58168c5ae7397731d063d5bbf3d657854427343f4c083240f7aacaa2d0f62a26469706673582212200a1555c7eba9e81849e5d5109d78025da6a82e67cadf86c67f47daf61abfe85664736f6c63430008070033",
  "linkReferences": {},
  "deployedLinkReferences": {}
}