{
  "_format": "hh-sol-artifact-1",
  "contractName": "RacksItemsv4",
  "sourceName": "contracts/RacksItemsv4.sol",
  "abi": [
    {
      "inputs": [
        {
          "internalType": "address",
          "name": "vrfCoordinatorV2",
          "type": "address"
        },
        {
          "internalType": "bytes32",
          "name": "gasLane",
          "type": "bytes32"
        },
        {
          "internalType": "uint64",
          "name": "subscriptionId",
          "type": "uint64"
        },
        {
          "internalType": "uint32",
          "name": "callbackGasLimit",
          "type": "uint32"
        },
        {
          "internalType": "address",
          "name": "_racksTokenAddress",
          "type": "address"
        },
        {
          "internalType": "address",
          "name": "_MockMrCryptoAddress",
          "type": "address"
        }
      ],
      "stateMutability": "nonpayable",
      "type": "constructor"
    },
    {
      "inputs": [
        {
          "internalType": "address",
          "name": "have",
          "type": "address"
        },
        {
          "internalType": "address",
          "name": "want",
          "type": "address"
        }
      ],
      "name": "OnlyCoordinatorCanFulfill",
      "type": "error"
    },
    {
      "anonymous": false,
      "inputs": [
        {
          "indexed": true,
          "internalType": "address",
          "name": "account",
          "type": "address"
        },
        {
          "indexed": true,
          "internalType": "address",
          "name": "operator",
          "type": "address"
        },
        {
          "indexed": false,
          "internalType": "bool",
          "name": "approved",
          "type": "bool"
        }
      ],
      "name": "ApprovalForAll",
      "type": "event"
    },
    {
      "anonymous": false,
      "inputs": [
        {
          "indexed": false,
          "internalType": "address",
          "name": "user",
          "type": "address"
        },
        {
          "indexed": false,
          "internalType": "uint256",
          "name": "casePrice",
          "type": "uint256"
        },
        {
          "indexed": false,
          "internalType": "uint256",
          "name": "item",
          "type": "uint256"
        }
      ],
      "name": "CaseOpened",
      "type": "event"
    },
    {
      "anonymous": false,
      "inputs": [
        {
          "indexed": true,
          "internalType": "bytes32",
          "name": "role",
          "type": "bytes32"
        },
        {
          "indexed": true,
          "internalType": "bytes32",
          "name": "previousAdminRole",
          "type": "bytes32"
        },
        {
          "indexed": true,
          "internalType": "bytes32",
          "name": "newAdminRole",
          "type": "bytes32"
        }
      ],
      "name": "RoleAdminChanged",
      "type": "event"
    },
    {
      "anonymous": false,
      "inputs": [
        {
          "indexed": true,
          "internalType": "bytes32",
          "name": "role",
          "type": "bytes32"
        },
        {
          "indexed": true,
          "internalType": "address",
          "name": "account",
          "type": "address"
        },
        {
          "indexed": true,
          "internalType": "address",
          "name": "sender",
          "type": "address"
        }
      ],
      "name": "RoleGranted",
      "type": "event"
    },
    {
      "anonymous": false,
      "inputs": [
        {
          "indexed": true,
          "internalType": "bytes32",
          "name": "role",
          "type": "bytes32"
        },
        {
          "indexed": true,
          "internalType": "address",
          "name": "account",
          "type": "address"
        },
        {
          "indexed": true,
          "internalType": "address",
          "name": "sender",
          "type": "address"
        }
      ],
      "name": "RoleRevoked",
      "type": "event"
    },
    {
      "anonymous": false,
      "inputs": [
        {
          "indexed": true,
          "internalType": "address",
          "name": "operator",
          "type": "address"
        },
        {
          "indexed": true,
          "internalType": "address",
          "name": "from",
          "type": "address"
        },
        {
          "indexed": true,
          "internalType": "address",
          "name": "to",
          "type": "address"
        },
        {
          "indexed": false,
          "internalType": "uint256[]",
          "name": "ids",
          "type": "uint256[]"
        },
        {
          "indexed": false,
          "internalType": "uint256[]",
          "name": "values",
          "type": "uint256[]"
        }
      ],
      "name": "TransferBatch",
      "type": "event"
    },
    {
      "anonymous": false,
      "inputs": [
        {
          "indexed": true,
          "internalType": "address",
          "name": "operator",
          "type": "address"
        },
        {
          "indexed": true,
          "internalType": "address",
          "name": "from",
          "type": "address"
        },
        {
          "indexed": true,
          "internalType": "address",
          "name": "to",
          "type": "address"
        },
        {
          "indexed": false,
          "internalType": "uint256",
          "name": "id",
          "type": "uint256"
        },
        {
          "indexed": false,
          "internalType": "uint256",
          "name": "value",
          "type": "uint256"
        }
      ],
      "name": "TransferSingle",
      "type": "event"
    },
    {
      "anonymous": false,
      "inputs": [
        {
          "indexed": false,
          "internalType": "string",
          "name": "value",
          "type": "string"
        },
        {
          "indexed": true,
          "internalType": "uint256",
          "name": "id",
          "type": "uint256"
        }
      ],
      "name": "URI",
      "type": "event"
    },
    {
      "anonymous": false,
      "inputs": [
        {
          "indexed": false,
          "internalType": "uint256",
          "name": "newPrice",
          "type": "uint256"
        }
      ],
      "name": "casePriceChanged",
      "type": "event"
    },
    {
      "anonymous": false,
      "inputs": [
        {
          "indexed": false,
          "internalType": "address",
          "name": "buyer",
          "type": "address"
        },
        {
          "indexed": false,
          "internalType": "address",
          "name": "seller",
          "type": "address"
        },
        {
          "indexed": false,
          "internalType": "uint256",
          "name": "marketItemId",
          "type": "uint256"
        },
        {
          "indexed": false,
          "internalType": "uint256",
          "name": "price",
          "type": "uint256"
        }
      ],
      "name": "itemBought",
      "type": "event"
    },
    {
      "anonymous": false,
      "inputs": [
        {
          "indexed": false,
          "internalType": "address",
          "name": "user",
          "type": "address"
        },
        {
          "indexed": false,
          "internalType": "uint256",
          "name": "tokenId",
          "type": "uint256"
        }
      ],
      "name": "itemExchanged",
      "type": "event"
    },
    {
      "anonymous": false,
      "inputs": [
        {
          "indexed": false,
          "internalType": "address",
          "name": "owner",
          "type": "address"
        },
        {
          "indexed": false,
          "internalType": "uint256",
          "name": "marketItemId",
          "type": "uint256"
        },
        {
          "indexed": false,
          "internalType": "uint256",
          "name": "oldPrice",
          "type": "uint256"
        },
        {
          "indexed": false,
          "internalType": "uint256",
          "name": "newPrice",
          "type": "uint256"
        }
      ],
      "name": "itemPriceChanged",
      "type": "event"
    },
    {
      "anonymous": false,
      "inputs": [
        {
          "indexed": false,
          "internalType": "address",
          "name": "seller",
          "type": "address"
        },
        {
          "indexed": false,
          "internalType": "uint256",
          "name": "numTries",
          "type": "uint256"
        },
        {
          "indexed": false,
          "internalType": "uint256",
          "name": "_hours",
          "type": "uint256"
        },
        {
          "indexed": false,
          "internalType": "uint256",
          "name": "price",
          "type": "uint256"
        }
      ],
      "name": "newTicketOnSale",
      "type": "event"
    },
    {
      "anonymous": false,
      "inputs": [
        {
          "indexed": false,
          "internalType": "address",
          "name": "user",
          "type": "address"
        },
        {
          "indexed": false,
          "internalType": "uint256",
          "name": "tokenId",
          "type": "uint256"
        },
        {
          "indexed": false,
          "internalType": "uint256",
          "name": "price",
          "type": "uint256"
        }
      ],
      "name": "sellingItem",
      "type": "event"
    },
    {
      "anonymous": false,
      "inputs": [
        {
          "indexed": false,
          "internalType": "uint256",
          "name": "ticketId",
          "type": "uint256"
        },
        {
          "indexed": false,
          "internalType": "address",
          "name": "oldOwner",
          "type": "address"
        },
        {
          "indexed": false,
          "internalType": "address",
          "name": "newOwner",
          "type": "address"
        },
        {
          "indexed": false,
          "internalType": "uint256",
          "name": "price",
          "type": "uint256"
        }
      ],
      "name": "ticketBought",
      "type": "event"
    },
    {
      "anonymous": false,
      "inputs": [
        {
          "indexed": false,
          "internalType": "address",
          "name": "borrower",
          "type": "address"
        },
        {
          "indexed": false,
          "internalType": "address",
          "name": "realOwner",
          "type": "address"
        }
      ],
      "name": "ticketClaimedBack",
      "type": "event"
    },
    {
      "anonymous": false,
      "inputs": [
        {
          "indexed": false,
          "internalType": "address",
          "name": "owner",
          "type": "address"
        },
        {
          "indexed": false,
          "internalType": "uint256",
          "name": "newTries",
          "type": "uint256"
        },
        {
          "indexed": false,
          "internalType": "uint256",
          "name": "newHours",
          "type": "uint256"
        },
        {
          "indexed": false,
          "internalType": "uint256",
          "name": "newPrice",
          "type": "uint256"
        }
      ],
      "name": "ticketConditionsChanged",
      "type": "event"
    },
    {
      "anonymous": false,
      "inputs": [
        {
          "indexed": false,
          "internalType": "address",
          "name": "owner",
          "type": "address"
        }
      ],
      "name": "unListTicketOnSale",
      "type": "event"
    },
    {
      "anonymous": false,
      "inputs": [
        {
          "indexed": false,
          "internalType": "address",
          "name": "owner",
          "type": "address"
        },
        {
          "indexed": false,
          "internalType": "uint256",
          "name": "marketItemId",
          "type": "uint256"
        }
      ],
      "name": "unListedItem",
      "type": "event"
    },
    {
      "inputs": [],
      "name": "ADMIN_ROLE",
      "outputs": [
        {
          "internalType": "bytes32",
          "name": "",
          "type": "bytes32"
        }
      ],
      "stateMutability": "view",
      "type": "function"
    },
    {
      "inputs": [],
      "name": "DEFAULT_ADMIN_ROLE",
      "outputs": [
        {
          "internalType": "bytes32",
          "name": "",
          "type": "bytes32"
        }
      ],
      "stateMutability": "view",
      "type": "function"
    },
    {
      "inputs": [],
      "name": "NUM_WORDS",
      "outputs": [
        {
          "internalType": "uint32",
          "name": "",
          "type": "uint32"
        }
      ],
      "stateMutability": "view",
      "type": "function"
    },
    {
      "inputs": [],
      "name": "REQUEST_CONFIRMATIONS",
      "outputs": [
        {
          "internalType": "uint16",
          "name": "",
          "type": "uint16"
        }
      ],
      "stateMutability": "view",
      "type": "function"
    },
    {
      "inputs": [],
      "name": "_randomNumber",
      "outputs": [
        {
          "internalType": "uint256",
          "name": "",
          "type": "uint256"
        }
      ],
      "stateMutability": "nonpayable",
      "type": "function"
    },
    {
      "inputs": [
        {
          "internalType": "uint256",
          "name": "tokenId",
          "type": "uint256"
        }
      ],
      "name": "_rarityOfItem",
      "outputs": [
        {
          "internalType": "uint256",
          "name": "",
          "type": "uint256"
        }
      ],
      "stateMutability": "view",
      "type": "function"
    },
    {
      "inputs": [
        {
          "internalType": "address",
          "name": "account",
          "type": "address"
        },
        {
          "internalType": "uint256",
          "name": "id",
          "type": "uint256"
        }
      ],
      "name": "balanceOf",
      "outputs": [
        {
          "internalType": "uint256",
          "name": "",
          "type": "uint256"
        }
      ],
      "stateMutability": "view",
      "type": "function"
    },
    {
      "inputs": [
        {
          "internalType": "address[]",
          "name": "accounts",
          "type": "address[]"
        },
        {
          "internalType": "uint256[]",
          "name": "ids",
          "type": "uint256[]"
        }
      ],
      "name": "balanceOfBatch",
      "outputs": [
        {
          "internalType": "uint256[]",
          "name": "",
          "type": "uint256[]"
        }
      ],
      "stateMutability": "view",
      "type": "function"
    },
    {
      "inputs": [
        {
          "internalType": "uint256",
          "name": "marketItemId",
          "type": "uint256"
        }
      ],
      "name": "buyItem",
      "outputs": [],
      "stateMutability": "nonpayable",
      "type": "function"
    },
    {
      "inputs": [
        {
          "internalType": "uint256",
          "name": "ticketId",
          "type": "uint256"
        }
      ],
      "name": "buyTicket",
      "outputs": [],
      "stateMutability": "nonpayable",
      "type": "function"
    },
    {
      "inputs": [],
      "name": "caseLiquidity",
      "outputs": [
        {
          "internalType": "uint256[]",
          "name": "",
          "type": "uint256[]"
        }
      ],
      "stateMutability": "view",
      "type": "function"
    },
    {
      "inputs": [
        {
          "internalType": "uint256",
          "name": "marketItemId",
          "type": "uint256"
        },
        {
          "internalType": "uint256",
          "name": "newPrice",
          "type": "uint256"
        }
      ],
      "name": "changeItemPrice",
      "outputs": [],
      "stateMutability": "nonpayable",
      "type": "function"
    },
    {
      "inputs": [
        {
          "internalType": "uint256",
          "name": "ticketId",
          "type": "uint256"
        },
        {
          "internalType": "uint256",
          "name": "newTries",
          "type": "uint256"
        },
        {
          "internalType": "uint256",
          "name": "newHours",
          "type": "uint256"
        },
        {
          "internalType": "uint256",
          "name": "newPrice",
          "type": "uint256"
        }
      ],
      "name": "changeTicketConditions",
      "outputs": [],
      "stateMutability": "nonpayable",
      "type": "function"
    },
    {
      "inputs": [
        {
          "internalType": "uint256",
          "name": "ticketId",
          "type": "uint256"
        }
      ],
      "name": "claimTicketBack",
      "outputs": [],
      "stateMutability": "nonpayable",
      "type": "function"
    },
    {
      "inputs": [
        {
          "internalType": "uint256",
          "name": "tokenId",
          "type": "uint256"
        }
      ],
      "name": "exchangeItem",
      "outputs": [],
      "stateMutability": "nonpayable",
      "type": "function"
    },
    {
      "inputs": [],
      "name": "flipContractState",
      "outputs": [],
      "stateMutability": "nonpayable",
      "type": "function"
    },
    {
      "inputs": [],
      "name": "getContractState",
      "outputs": [
        {
          "internalType": "enum RacksItemsv4.ContractState",
          "name": "",
          "type": "uint8"
        }
      ],
      "stateMutability": "view",
      "type": "function"
    },
    {
      "inputs": [],
      "name": "getITicketsOnSale",
      "outputs": [
        {
          "components": [
            {
              "internalType": "uint256",
              "name": "ticketId",
              "type": "uint256"
            },
            {
              "internalType": "uint256",
              "name": "numTries",
              "type": "uint256"
            },
            {
              "internalType": "uint256",
              "name": "duration",
              "type": "uint256"
            },
            {
              "internalType": "uint256",
              "name": "price",
              "type": "uint256"
            },
            {
              "internalType": "address",
              "name": "owner",
              "type": "address"
            },
            {
              "internalType": "uint256",
              "name": "timeWhenSold",
              "type": "uint256"
            },
            {
              "internalType": "bool",
              "name": "isAvaliable",
              "type": "bool"
            }
          ],
          "internalType": "struct IRacksItems.caseTicket[]",
          "name": "",
          "type": "tuple[]"
        }
      ],
      "stateMutability": "view",
      "type": "function"
    },
    {
      "inputs": [
        {
          "internalType": "uint256",
          "name": "itemId",
          "type": "uint256"
        }
      ],
      "name": "getItemsOnSale",
      "outputs": [
        {
          "components": [
            {
              "internalType": "uint256",
              "name": "tokenId",
              "type": "uint256"
            },
            {
              "internalType": "uint256",
              "name": "marketItemId",
              "type": "uint256"
            },
            {
              "internalType": "uint256",
              "name": "price",
              "type": "uint256"
            },
            {
              "internalType": "address",
              "name": "itemOwner",
              "type": "address"
            },
            {
              "internalType": "bool",
              "name": "isOnSale",
              "type": "bool"
            }
          ],
          "internalType": "struct IRacksItems.itemOnSale",
          "name": "",
          "type": "tuple"
        }
      ],
      "stateMutability": "view",
      "type": "function"
    },
    {
      "inputs": [],
      "name": "getItemsOnSale",
      "outputs": [
        {
          "components": [
            {
              "internalType": "uint256",
              "name": "tokenId",
              "type": "uint256"
            },
            {
              "internalType": "uint256",
              "name": "marketItemId",
              "type": "uint256"
            },
            {
              "internalType": "uint256",
              "name": "price",
              "type": "uint256"
            },
            {
              "internalType": "address",
              "name": "itemOwner",
              "type": "address"
            },
            {
              "internalType": "bool",
              "name": "isOnSale",
              "type": "bool"
            }
          ],
          "internalType": "struct IRacksItems.itemOnSale[]",
          "name": "",
          "type": "tuple[]"
        }
      ],
      "stateMutability": "view",
      "type": "function"
    },
    {
      "inputs": [
        {
          "internalType": "uint256",
          "name": "marketItemId",
          "type": "uint256"
        }
      ],
      "name": "getMarketItem",
      "outputs": [
        {
          "components": [
            {
              "internalType": "uint256",
              "name": "tokenId",
              "type": "uint256"
            },
            {
              "internalType": "uint256",
              "name": "marketItemId",
              "type": "uint256"
            },
            {
              "internalType": "uint256",
              "name": "price",
              "type": "uint256"
            },
            {
              "internalType": "address",
              "name": "itemOwner",
              "type": "address"
            },
            {
              "internalType": "bool",
              "name": "isOnSale",
              "type": "bool"
            }
          ],
          "internalType": "struct IRacksItems.itemOnSale",
          "name": "",
          "type": "tuple"
        }
      ],
      "stateMutability": "view",
      "type": "function"
    },
    {
      "inputs": [
        {
          "internalType": "uint256",
          "name": "ticketId",
          "type": "uint256"
        }
      ],
      "name": "getMarketTicket",
      "outputs": [
        {
          "components": [
            {
              "internalType": "uint256",
              "name": "ticketId",
              "type": "uint256"
            },
            {
              "internalType": "uint256",
              "name": "numTries",
              "type": "uint256"
            },
            {
              "internalType": "uint256",
              "name": "duration",
              "type": "uint256"
            },
            {
              "internalType": "uint256",
              "name": "price",
              "type": "uint256"
            },
            {
              "internalType": "address",
              "name": "owner",
              "type": "address"
            },
            {
              "internalType": "uint256",
              "name": "timeWhenSold",
              "type": "uint256"
            },
            {
              "internalType": "bool",
              "name": "isAvaliable",
              "type": "bool"
            }
          ],
          "internalType": "struct IRacksItems.caseTicket",
          "name": "",
          "type": "tuple"
        }
      ],
      "stateMutability": "view",
      "type": "function"
    },
    {
      "inputs": [],
      "name": "getMarketcount",
      "outputs": [
        {
          "internalType": "uint256",
          "name": "",
          "type": "uint256"
        }
      ],
      "stateMutability": "view",
      "type": "function"
    },
    {
      "inputs": [],
      "name": "getMaxTotalSupply",
      "outputs": [
        {
          "internalType": "uint256",
          "name": "",
          "type": "uint256"
        }
      ],
      "stateMutability": "view",
      "type": "function"
    },
    {
      "inputs": [],
      "name": "getOwner",
      "outputs": [
        {
          "internalType": "address",
          "name": "",
          "type": "address"
        }
      ],
      "stateMutability": "view",
      "type": "function"
    },
    {
      "inputs": [],
      "name": "getPriceCase",
      "outputs": [
        {
          "internalType": "uint256",
          "name": "",
          "type": "uint256"
        }
      ],
      "stateMutability": "view",
      "type": "function"
    },
    {
      "inputs": [
        {
          "internalType": "bytes32",
          "name": "role",
          "type": "bytes32"
        }
      ],
      "name": "getRoleAdmin",
      "outputs": [
        {
          "internalType": "bytes32",
          "name": "",
          "type": "bytes32"
        }
      ],
      "stateMutability": "view",
      "type": "function"
    },
    {
      "inputs": [
        {
          "internalType": "uint256",
          "name": "ticketId",
          "type": "uint256"
        }
      ],
      "name": "getTicket",
      "outputs": [
        {
          "components": [
            {
              "internalType": "uint256",
              "name": "ticketId",
              "type": "uint256"
            },
            {
              "internalType": "uint256",
              "name": "numTries",
              "type": "uint256"
            },
            {
              "internalType": "uint256",
              "name": "duration",
              "type": "uint256"
            },
            {
              "internalType": "uint256",
              "name": "price",
              "type": "uint256"
            },
            {
              "internalType": "address",
              "name": "owner",
              "type": "address"
            },
            {
              "internalType": "uint256",
              "name": "timeWhenSold",
              "type": "uint256"
            },
            {
              "internalType": "bool",
              "name": "isAvaliable",
              "type": "bool"
            }
          ],
          "internalType": "struct IRacksItems.caseTicket",
          "name": "",
          "type": "tuple"
        }
      ],
      "stateMutability": "view",
      "type": "function"
    },
    {
      "inputs": [],
      "name": "getTicketCount",
      "outputs": [
        {
          "internalType": "uint256",
          "name": "",
          "type": "uint256"
        }
      ],
      "stateMutability": "view",
      "type": "function"
    },
    {
      "inputs": [
        {
          "internalType": "uint256",
          "name": "ticketId",
          "type": "uint256"
        }
      ],
      "name": "getTicketDurationLeft",
      "outputs": [
        {
          "internalType": "address",
          "name": "",
          "type": "address"
        },
        {
          "internalType": "uint256",
          "name": "",
          "type": "uint256"
        },
        {
          "internalType": "bool",
          "name": "",
          "type": "bool"
        }
      ],
      "stateMutability": "view",
      "type": "function"
    },
    {
      "inputs": [],
      "name": "getTokenCount",
      "outputs": [
        {
          "internalType": "uint256",
          "name": "",
          "type": "uint256"
        }
      ],
      "stateMutability": "view",
      "type": "function"
    },
    {
      "inputs": [
        {
          "internalType": "address",
          "name": "user",
          "type": "address"
        }
      ],
      "name": "getUserTicket",
      "outputs": [
        {
          "internalType": "uint256",
          "name": "durationLeft",
          "type": "uint256"
        },
        {
          "internalType": "uint256",
          "name": "triesLeft",
          "type": "uint256"
        },
        {
          "internalType": "address",
          "name": "ownerOrSpender",
          "type": "address"
        },
        {
          "internalType": "uint256",
          "name": "ticketPrice",
          "type": "uint256"
        }
      ],
      "stateMutability": "view",
      "type": "function"
    },
    {
      "inputs": [
        {
          "internalType": "bytes32",
          "name": "role",
          "type": "bytes32"
        },
        {
          "internalType": "address",
          "name": "account",
          "type": "address"
        }
      ],
      "name": "grantRole",
      "outputs": [],
      "stateMutability": "nonpayable",
      "type": "function"
    },
    {
      "inputs": [
        {
          "internalType": "bytes32",
          "name": "role",
          "type": "bytes32"
        },
        {
          "internalType": "address",
          "name": "account",
          "type": "address"
        }
      ],
      "name": "hasRole",
      "outputs": [
        {
          "internalType": "bool",
          "name": "",
          "type": "bool"
        }
      ],
      "stateMutability": "view",
      "type": "function"
    },
    {
      "inputs": [],
      "name": "i_callbackGasLimit",
      "outputs": [
        {
          "internalType": "uint32",
          "name": "",
          "type": "uint32"
        }
      ],
      "stateMutability": "view",
      "type": "function"
    },
    {
      "inputs": [],
      "name": "i_gasLane",
      "outputs": [
        {
          "internalType": "bytes32",
          "name": "",
          "type": "bytes32"
        }
      ],
      "stateMutability": "view",
      "type": "function"
    },
    {
      "inputs": [],
      "name": "i_subscriptionId",
      "outputs": [
        {
          "internalType": "uint64",
          "name": "",
          "type": "uint64"
        }
      ],
      "stateMutability": "view",
      "type": "function"
    },
    {
      "inputs": [],
      "name": "i_vrfCoordinator",
      "outputs": [
        {
          "internalType": "contract VRFCoordinatorV2Interface",
          "name": "",
          "type": "address"
        }
      ],
      "stateMutability": "view",
      "type": "function"
    },
    {
      "inputs": [
        {
          "internalType": "address",
          "name": "account",
          "type": "address"
        },
        {
          "internalType": "address",
          "name": "operator",
          "type": "address"
        }
      ],
      "name": "isApprovedForAll",
      "outputs": [
        {
          "internalType": "bool",
          "name": "",
          "type": "bool"
        }
      ],
      "stateMutability": "view",
      "type": "function"
    },
    {
      "inputs": [
        {
          "internalType": "address",
          "name": "user",
          "type": "address"
        }
      ],
      "name": "isVip",
      "outputs": [
        {
          "internalType": "bool",
          "name": "",
          "type": "bool"
        }
      ],
      "stateMutability": "view",
      "type": "function"
    },
    {
      "inputs": [
        {
          "internalType": "uint256",
          "name": "itemSupply",
          "type": "uint256"
        }
      ],
      "name": "listItem",
      "outputs": [],
      "stateMutability": "nonpayable",
      "type": "function"
    },
    {
      "inputs": [
        {
          "internalType": "uint256",
          "name": "marketItemId",
          "type": "uint256"
        },
        {
          "internalType": "uint256",
          "name": "price",
          "type": "uint256"
        }
      ],
      "name": "listItemOnMarket",
      "outputs": [],
      "stateMutability": "nonpayable",
      "type": "function"
    },
    {
      "inputs": [
        {
          "internalType": "uint256",
          "name": "numTries",
          "type": "uint256"
        },
        {
          "internalType": "uint256",
          "name": "_hours",
          "type": "uint256"
        },
        {
          "internalType": "uint256",
          "name": "price",
          "type": "uint256"
        }
      ],
      "name": "listTicket",
      "outputs": [],
      "stateMutability": "nonpayable",
      "type": "function"
    },
    {
      "inputs": [
        {
          "internalType": "address",
          "name": "",
          "type": "address"
        },
        {
          "internalType": "address",
          "name": "",
          "type": "address"
        },
        {
          "internalType": "uint256[]",
          "name": "",
          "type": "uint256[]"
        },
        {
          "internalType": "uint256[]",
          "name": "",
          "type": "uint256[]"
        },
        {
          "internalType": "bytes",
          "name": "",
          "type": "bytes"
        }
      ],
      "name": "onERC1155BatchReceived",
      "outputs": [
        {
          "internalType": "bytes4",
          "name": "",
          "type": "bytes4"
        }
      ],
      "stateMutability": "nonpayable",
      "type": "function"
    },
    {
      "inputs": [
        {
          "internalType": "address",
          "name": "",
          "type": "address"
        },
        {
          "internalType": "address",
          "name": "",
          "type": "address"
        },
        {
          "internalType": "uint256",
          "name": "",
          "type": "uint256"
        },
        {
          "internalType": "uint256",
          "name": "",
          "type": "uint256"
        },
        {
          "internalType": "bytes",
          "name": "",
          "type": "bytes"
        }
      ],
      "name": "onERC1155Received",
      "outputs": [
        {
          "internalType": "bytes4",
          "name": "",
          "type": "bytes4"
        }
      ],
      "stateMutability": "nonpayable",
      "type": "function"
    },
    {
      "inputs": [],
      "name": "openCase",
      "outputs": [],
      "stateMutability": "nonpayable",
      "type": "function"
    },
    {
      "inputs": [
        {
          "internalType": "uint256",
          "name": "requestId",
          "type": "uint256"
        },
        {
          "internalType": "uint256[]",
          "name": "randomWords",
          "type": "uint256[]"
        }
      ],
      "name": "rawFulfillRandomWords",
      "outputs": [],
      "stateMutability": "nonpayable",
      "type": "function"
    },
    {
      "inputs": [
        {
          "internalType": "bytes32",
          "name": "role",
          "type": "bytes32"
        },
        {
          "internalType": "address",
          "name": "account",
          "type": "address"
        }
      ],
      "name": "renounceRole",
      "outputs": [],
      "stateMutability": "nonpayable",
      "type": "function"
    },
    {
      "inputs": [
        {
          "internalType": "bytes32",
          "name": "role",
          "type": "bytes32"
        },
        {
          "internalType": "address",
          "name": "account",
          "type": "address"
        }
      ],
      "name": "revokeRole",
      "outputs": [],
      "stateMutability": "nonpayable",
      "type": "function"
    },
    {
      "inputs": [],
      "name": "s_randomWord",
      "outputs": [
        {
          "internalType": "uint256",
          "name": "",
          "type": "uint256"
        }
      ],
      "stateMutability": "view",
      "type": "function"
    },
    {
      "inputs": [
        {
          "internalType": "address",
          "name": "from",
          "type": "address"
        },
        {
          "internalType": "address",
          "name": "to",
          "type": "address"
        },
        {
          "internalType": "uint256[]",
          "name": "ids",
          "type": "uint256[]"
        },
        {
          "internalType": "uint256[]",
          "name": "amounts",
          "type": "uint256[]"
        },
        {
          "internalType": "bytes",
          "name": "data",
          "type": "bytes"
        }
      ],
      "name": "safeBatchTransferFrom",
      "outputs": [],
      "stateMutability": "nonpayable",
      "type": "function"
    },
    {
      "inputs": [
        {
          "internalType": "address",
          "name": "from",
          "type": "address"
        },
        {
          "internalType": "address",
          "name": "to",
          "type": "address"
        },
        {
          "internalType": "uint256",
          "name": "id",
          "type": "uint256"
        },
        {
          "internalType": "uint256",
          "name": "amount",
          "type": "uint256"
        },
        {
          "internalType": "bytes",
          "name": "data",
          "type": "bytes"
        }
      ],
      "name": "safeTransferFrom",
      "outputs": [],
      "stateMutability": "nonpayable",
      "type": "function"
    },
    {
      "inputs": [
        {
          "internalType": "address",
          "name": "_newAdmin",
          "type": "address"
        }
      ],
      "name": "setAdmin",
      "outputs": [],
      "stateMutability": "nonpayable",
      "type": "function"
    },
    {
      "inputs": [
        {
          "internalType": "address",
          "name": "operator",
          "type": "address"
        },
        {
          "internalType": "bool",
          "name": "approved",
          "type": "bool"
        }
      ],
      "name": "setApprovalForAll",
      "outputs": [],
      "stateMutability": "nonpayable",
      "type": "function"
    },
    {
      "inputs": [
        {
          "internalType": "uint256",
          "name": "price",
          "type": "uint256"
        }
      ],
      "name": "setCasePrice",
      "outputs": [],
      "stateMutability": "nonpayable",
      "type": "function"
    },
    {
      "inputs": [
        {
          "internalType": "uint256",
          "name": "tokenId",
          "type": "uint256"
        },
        {
          "internalType": "string",
          "name": "_uri",
          "type": "string"
        }
      ],
      "name": "setTokenUri",
      "outputs": [],
      "stateMutability": "nonpayable",
      "type": "function"
    },
    {
      "inputs": [
        {
          "internalType": "uint256",
          "name": "tokenId",
          "type": "uint256"
        }
      ],
      "name": "supplyOfItem",
      "outputs": [
        {
          "internalType": "uint256",
          "name": "",
          "type": "uint256"
        }
      ],
      "stateMutability": "view",
      "type": "function"
    },
    {
      "inputs": [
        {
          "internalType": "bytes4",
          "name": "interfaceId",
          "type": "bytes4"
        }
      ],
      "name": "supportsInterface",
      "outputs": [
        {
          "internalType": "bool",
          "name": "",
          "type": "bool"
        }
      ],
      "stateMutability": "view",
      "type": "function"
    },
    {
      "inputs": [
        {
          "internalType": "uint256",
          "name": "marketItemId",
          "type": "uint256"
        }
      ],
      "name": "unListItem",
      "outputs": [],
      "stateMutability": "nonpayable",
      "type": "function"
    },
    {
      "inputs": [
        {
          "internalType": "uint256",
          "name": "ticketId",
          "type": "uint256"
        }
      ],
      "name": "unListTicket",
      "outputs": [],
      "stateMutability": "nonpayable",
      "type": "function"
    },
    {
      "inputs": [
        {
          "internalType": "uint256",
          "name": "tokenId",
          "type": "uint256"
        }
      ],
      "name": "uri",
      "outputs": [
        {
          "internalType": "string",
          "name": "",
          "type": "string"
        }
      ],
      "stateMutability": "view",
      "type": "function"
    },
    {
      "inputs": [
        {
          "internalType": "address",
          "name": "owner",
          "type": "address"
        }
      ],
      "name": "viewItems",
      "outputs": [
        {
          "internalType": "uint256[]",
          "name": "",
          "type": "uint256[]"
        }
      ],
      "stateMutability": "view",
      "type": "function"
    },
    {
      "inputs": [
        {
          "internalType": "address",
          "name": "wallet",
          "type": "address"
        }
      ],
      "name": "withdrawAllFunds",
      "outputs": [],
      "stateMutability": "nonpayable",
      "type": "function"
    },
    {
      "inputs": [
        {
          "internalType": "address",
          "name": "wallet",
          "type": "address"
        },
        {
          "internalType": "uint256",
          "name": "amount",
          "type": "uint256"
        }
      ],
      "name": "withdrawFunds",
      "outputs": [],
      "stateMutability": "nonpayable",
      "type": "function"
    },
    {
      "stateMutability": "payable",
      "type": "receive"
    }
  ],
  "bytecode": "0x6101206040523480156200001257600080fd5b5060405162005fff38038062005fff8339810160408190526200003591620001d0565b60408051602081019091526000815286906200005181620000f4565b506001600160601b0319606091821b811660805296901b90951660a05260c09384526001600160c01b03199290931b9190911660e09081526001600160e01b031991901b1661010052600480546001600160a01b039384166001600160a01b0319918216179091556005805493909216928116929092179055600680549091163317905560006008819055600a556001600b55600c805460ff191690556200029e565b8051620001099060029060208401906200010d565b5050565b8280546200011b9062000261565b90600052602060002090601f0160209004810192826200013f57600085556200018a565b82601f106200015a57805160ff19168380011785556200018a565b828001600101855582156200018a579182015b828111156200018a5782518255916020019190600101906200016d565b50620001989291506200019c565b5090565b5b808211156200019857600081556001016200019d565b80516001600160a01b0381168114620001cb57600080fd5b919050565b60008060008060008060c08789031215620001ea57600080fd5b620001f587620001b3565b6020880151604089015191975095506001600160401b03811681146200021a57600080fd5b606088015190945063ffffffff811681146200023557600080fd5b92506200024560808801620001b3565b91506200025560a08801620001b3565b90509295509295509295565b600181811c908216806200027657607f821691505b602082108114156200029857634e487b7160e01b600052602260045260246000fd5b50919050565b60805160601c60a05160601c60c05160e05160c01c6101005160e01c615ced6200031260003960008181610b030152611ebb0152600081816105cf0152611e880152600081816108990152611e5a01526000818161094d0152611ef60152600081816114f5015261151d0152615ced6000f3fe6080604052600436106103465760003560e01c80637f4e4849116101b2578063c1075329116100ed578063dd006d3111610090578063dd006d311461079e578063de08f65314610b25578063e7fb74c714610b3a578063e985e9c514610b5a578063f23a6e6114610b7a578063f242432a14610ba6578063f48c9d3414610bc6578063fd210fd914610be657600080fd5b8063c107532914610a18578063c25e2af414610a38578063c4c4273014610a87578063c7be7a491461064b578063c7e05f8d14610a9c578063d3c115f214610abc578063d547741f14610ad1578063d757d02714610af157600080fd5b8063a22cb46511610155578063a22cb465146108db578063a7b19424146108fb578063a7bc77c61461091b578063aebc45501461093b578063b2ead3c71461096f578063b85e67af14610991578063bbcbc2e7146109b1578063bc197c81146109d357600080fd5b80637f4e4849146107eb57806384203f4b1461080b578063885c2f171461082b578063893d20e8146108405780638dc5f45b146108675780638e879c8a1461088757806391d14854146108bb578063a217fddf1461077457600080fd5b8063470cdf971161028257806367dd74ca1161022557806367dd74ca146106e257806367f082b014610702578063704b6c021461072a57806372cf6e341461074a57806375b238fc1461077457806378a89567146107895780637dc379fa1461079e5780637e420db5146107cb57600080fd5b8063470cdf97146105bd5780634a226657146106095780634e1273f41461061e57806352a8bd221461064b57806357f7789e146106785780635db30bb11461069857806361652450146106ad57806361c073d6146106c257600080fd5b806320ba0814116102ea57806320ba0814146104ab57806321c63a47146104d8578063248a9ca3146104ed5780632ce381901461051d5780632eb2c2d61461053d5780632f2ff15d1461055d57806332dee40b1461057d57806336568abe1461059d57600080fd5b8062fdd58e1461035257806301ffc9a714610385578063020f1980146103b55780630e89341c146103d757806319c08575146104045780631c7cbe4f1461044b5780631cb0b2731461046b5780631fe543e31461048b57600080fd5b3661034d57005b600080fd5b34801561035e57600080fd5b5061037261036d36600461510b565b610bfc565b6040519081526020015b60405180910390f35b34801561039157600080fd5b506103a56103a036600461525e565b610c96565b604051901515815260200161037c565b3480156103c157600080fd5b506103d56103d036600461533d565b610ca1565b005b3480156103e357600080fd5b506103f76103f2366004615222565b610f1c565b60405161037c9190615765565b34801561041057600080fd5b5061042461041f366004615222565b610fbe565b604080516001600160a01b039094168452602084019290925215159082015260600161037c565b34801561045757600080fd5b506103d561046636600461538b565b6112e4565b34801561047757600080fd5b506103d5610486366004615222565b61144d565b34801561049757600080fd5b506103d56104a63660046152b1565b6114ea565b3480156104b757600080fd5b506103726104c6366004615222565b60009081526010602052604090205490565b3480156104e457600080fd5b50600a54610372565b3480156104f957600080fd5b50610372610508366004615222565b60009081526003602052604090206001015490565b34801561052957600080fd5b506103d5610538366004615222565b611565565b34801561054957600080fd5b506103d5610558366004614fc7565b611597565b34801561056957600080fd5b506103d561057836600461523b565b61162e565b34801561058957600080fd5b506103d5610598366004614f79565b611658565b3480156105a957600080fd5b506103d56105b836600461523b565b611819565b3480156105c957600080fd5b506105f17f000000000000000000000000000000000000000000000000000000000000000081565b6040516001600160401b03909116815260200161037c565b34801561061557600080fd5b506103d5611893565b34801561062a57600080fd5b5061063e610639366004615135565b611c00565b60405161037c91906156fc565b34801561065757600080fd5b5061066b610666366004615222565b611d29565b60405161037c91906159f0565b34801561068457600080fd5b506103d56106933660046152ed565b611da7565b3480156106a457600080fd5b50600754610372565b3480156106b957600080fd5b50610372611e4b565b3480156106ce57600080fd5b506103d56106dd366004615222565b611f72565b3480156106ee57600080fd5b506103d56106fd366004615222565b6122c1565b34801561070e57600080fd5b50610717600381565b60405161ffff909116815260200161037c565b34801561073657600080fd5b506103d5610745366004614f79565b61279b565b34801561075657600080fd5b5061075f600281565b60405163ffffffff909116815260200161037c565b34801561078057600080fd5b50610372600081565b34801561079557600080fd5b50600854610372565b3480156107aa57600080fd5b506107be6107b9366004615222565b6127d0565b60405161037c91906159e2565b3480156107d757600080fd5b506103d56107e6366004615222565b61285e565b3480156107f757600080fd5b50600c5460ff1660405161037c919061573d565b34801561081757600080fd5b506103a5610826366004614f79565b612996565b34801561083757600080fd5b50600b54610372565b34801561084c57600080fd5b506006546001600160a01b03165b60405161037c9190615517565b34801561087357600080fd5b506103d5610882366004615222565b612a33565b34801561089357600080fd5b506103727f000000000000000000000000000000000000000000000000000000000000000081565b3480156108c757600080fd5b506103a56108d636600461523b565b612a8d565b3480156108e757600080fd5b506103d56108f63660046150d4565b612ab8565b34801561090757600080fd5b506103d561091636600461533d565b612ac3565b34801561092757600080fd5b506103d5610936366004615222565b612bae565b34801561094757600080fd5b5061085a7f000000000000000000000000000000000000000000000000000000000000000081565b34801561097b57600080fd5b50610984612cd1565b60405161037c919061566c565b34801561099d57600080fd5b506103d56109ac36600461535f565b612ece565b3480156109bd57600080fd5b506109c66131e7565b60405161037c91906156ba565b3480156109df57600080fd5b506109ff6109ee366004614fc7565b63bc197c8160e01b95945050505050565b6040516001600160e01b0319909116815260200161037c565b348015610a2457600080fd5b506103d5610a3336600461510b565b6133ed565b348015610a4457600080fd5b50610a58610a53366004614f79565b613539565b60405161037c949392919093845260208401929092526001600160a01b03166040830152606082015260800190565b348015610a9357600080fd5b50600954610372565b348015610aa857600080fd5b50610372610ab7366004615222565b6135fa565b348015610ac857600080fd5b5061063e613631565b348015610add57600080fd5b506103d5610aec36600461523b565b613718565b348015610afd57600080fd5b5061075f7f000000000000000000000000000000000000000000000000000000000000000081565b348015610b3157600080fd5b506103d561373d565b348015610b4657600080fd5b506103d5610b55366004615222565b61379c565b348015610b6657600080fd5b506103a5610b75366004614f94565b613d30565b348015610b8657600080fd5b506109ff610b95366004615070565b63f23a6e6160e01b95945050505050565b348015610bb257600080fd5b506103d5610bc1366004615070565b613d5e565b348015610bd257600080fd5b5061063e610be1366004614f79565b613de5565b348015610bf257600080fd5b50610372600f5481565b60006001600160a01b038316610c6d5760405162461bcd60e51b815260206004820152602b60248201527f455243313135353a2062616c616e636520717565727920666f7220746865207a60448201526a65726f206164647265737360a81b60648201526084015b60405180910390fd5b506000818152602081815260408083206001600160a01b03861684529091529020545b92915050565b6000610c9082613ea9565b6000610cad3384610bfc565b11610cec5760405162461bcd60e51b815260206004820152600f60248201526e24ba32b6903737ba103337bab7321760891b6044820152606401610c64565b610cf63330613d30565b610d425760405162461bcd60e51b815260206004820152601f60248201527f417070726f766564206973206e6f7420636f72726563746c7920646f6e652e006044820152606401610c64565b60008111610d925760405162461bcd60e51b815260206004820152601c60248201527f5072696365206d7573742062652067726561746572207468616e2030000000006044820152606401610c64565b3360009081526016602090815260408083208584529091528120805460019290610dbd908490615a21565b90915550506040805160a08101825283815260098054602083019081529282018481523360608401908152600160808501818152600d80549283018155600090815295517fd7b6990105719101dabeb77144f2a3385c8033acd3af97e9423a695e81ad1eb560049093029283015595517fd7b6990105719101dabeb77144f2a3385c8033acd3af97e9423a695e81ad1eb682015591517fd7b6990105719101dabeb77144f2a3385c8033acd3af97e9423a695e81ad1eb7830155517fd7b6990105719101dabeb77144f2a3385c8033acd3af97e9423a695e81ad1eb8909101805494516001600160a01b039092166001600160a81b031990951694909417600160a01b911515919091021790925581549190610ed883615b31565b91905055507f23cba88d6c6f26b62b2cfc32a2cc04fbbde8590188b97cd3590e45af9ac6dd6d338383604051610f1093929190615625565b60405180910390a15050565b6000818152601160205260409020805460609190610f3990615aca565b80601f0160208091040260200160405190810160405280929190818152602001828054610f6590615aca565b8015610fb25780601f10610f8757610100808354040283529160200191610fb2565b820191906000526020600020905b815481529060010190602001808311610f9557829003601f168201915b50505050509050919050565b600080600080600e8581548110610fd757610fd7615ba2565b906000526020600020906007020160050154116110305760405162461bcd60e51b81526020600482015260176024820152762a34b1b5b2ba1034b9903737ba1039b7b632103cb2ba1760491b6044820152606401610c64565b6000600e858154811061104557611045615ba2565b9060005260206000209060070201600101546000141561119d57600e858154811061107257611072615ba2565b906000526020600020906007020160020154603c6110909190615a4d565b603c600e87815481106110a5576110a5615ba2565b906000526020600020906007020160050154426110c29190615a6c565b6110cc9190615a39565b14156111115760009050600e85815481106110e9576110e9615ba2565b600091825260208220600460079092020101546001600160a01b0316945090925090506112dd565b603c600e868154811061112657611126615ba2565b906000526020600020906007020160050154426111439190615a6c565b61114d9190615a39565b600e868154811061116057611160615ba2565b906000526020600020906007020160020154603c61117e9190615a4d565b6111889190615a6c565b9050600e85815481106110e9576110e9615ba2565b600e85815481106111b0576111b0615ba2565b906000526020600020906007020160020154603c6111ce9190615a4d565b603c600e87815481106111e3576111e3615ba2565b906000526020600020906007020160050154426112009190615a6c565b61120a9190615a39565b14156112515760009050600e858154811061122757611227615ba2565b60009182526020909120600460079092020101546001600160a01b031693509150600190506112dd565b603c600e868154811061126657611266615ba2565b906000526020600020906007020160050154426112839190615a6c565b61128d9190615a39565b600e86815481106112a0576112a0615ba2565b906000526020600020906007020160020154603c6112be9190615a4d565b6112c89190615a6c565b9050600e858154811061122757611227615ba2565b9193909250565b6112ed33612996565b6113095760405162461bcd60e51b8152600401610c64906158f1565b3360009081526012602052604090205460ff166113385760405162461bcd60e51b8152600401610c64906157f5565b336001600160a01b0316600e858154811061135557611355615ba2565b60009182526020909120600460079092020101546001600160a01b03161461138f5760405162461bcd60e51b8152600401610c64906157c0565b80600e85815481106113a3576113a3615ba2565b90600052602060002090600702016003018190555081600e85815481106113cc576113cc615ba2565b90600052602060002090600702016002018190555082600e85815481106113f5576113f5615ba2565b9060005260206000209060070201600101819055507f0fcd915268f7fe921a6c99bd903199d2f30c7f65a422416bfd1de6a264b8264d3384848460405161143f9493929190615646565b60405180910390a150505050565b60006114593383610bfc565b1161146357600080fd5b61146f33826001613ece565b600081815260106020526040812080546001929061148e908490615a6c565b925050819055506001600760008282546114a89190615a6c565b90915550506040517f9e90d55d2f1f115ffe1b87372c45f27f6b3a2b5ba392942167be784561890094906114df903390849061560c565b60405180910390a150565b336001600160a01b037f0000000000000000000000000000000000000000000000000000000000000000161461155757337f000000000000000000000000000000000000000000000000000000000000000060405163073e64fd60e21b8152600401610c6492919061552b565b611561828261403d565b5050565b61156e33614062565b61158a5760405162461bcd60e51b8152600401610c6490615972565b6115943082614098565b50565b6001600160a01b0385163314806115b357506115b38533613d30565b61161a5760405162461bcd60e51b815260206004820152603260248201527f455243313135353a207472616e736665722063616c6c6572206973206e6f74206044820152711bdddb995c881b9bdc88185c1c1c9bdd995960721b6064820152608401610c64565b6116278585858585614103565b5050505050565b600082815260036020526040902060010154611649816142e0565b61165383836142ea565b505050565b6006546001600160a01b031633146116825760405162461bcd60e51b8152600401610c64906159b3565b6005546040516370a0823160e01b81526000916001600160a01b0316906370a08231906116b3903090600401615517565b60206040518083038186803b1580156116cb57600080fd5b505afa1580156116df573d6000803e3d6000fd5b505050506040513d601f19601f820116820180604052508101906117039190615298565b116117205760405162461bcd60e51b8152600401610c649061583b565b6005546040516370a0823160e01b81526001600160a01b039091169063a9059cbb90839083906370a082319061175a903090600401615517565b60206040518083038186803b15801561177257600080fd5b505afa158015611786573d6000803e3d6000fd5b505050506040513d601f19601f820116820180604052508101906117aa9190615298565b6040518363ffffffff1660e01b81526004016117c792919061560c565b602060405180830381600087803b1580156117e157600080fd5b505af11580156117f5573d6000803e3d6000fd5b505050506040513d601f19601f820116820180604052508101906115619190615205565b6001600160a01b03811633146118895760405162461bcd60e51b815260206004820152602f60248201527f416363657373436f6e74726f6c3a2063616e206f6e6c792072656e6f756e636560448201526e103937b632b9903337b91039b2b63360891b6064820152608401610c64565b6115618282614370565b6000600754116118e55760405162461bcd60e51b815260206004820152601c60248201527f546865726520617265206e6f206974656d73206176616c6961626c65000000006044820152606401610c64565b6000600c5460ff1660018111156118fe576118fe615b8c565b146119595760405162461bcd60e51b815260206004820152602560248201527f436f6e7472616374206973206e6f74206163746976652061742074686973206d6044820152641bdb595b9d60da1b6064820152608401610c64565b600480546040516370a0823160e01b81526001926001600160a01b03909216916370a082319161198b91339101615517565b60206040518083038186803b1580156119a357600080fd5b505afa1580156119b7573d6000803e3d6000fd5b505050506040513d601f19601f820116820180604052508101906119db9190615298565b1015611a5b573360009081526013602052604090205460ff16611a5b5760405162461bcd60e51b815260206004820152603260248201527f5573657220646f6573206e6f74206f776e732061205469636b657420666f722060448201527137b832b73734b733903a34329031b0b9b29760711b6064820152608401610c64565b600554600b546040516323b872dd60e01b81526001600160a01b03909216916323b872dd91611a9091339130916004016155a3565b602060405180830381600087803b158015611aaa57600080fd5b505af1158015611abe573d6000803e3d6000fd5b505050506040513d601f19601f82011682018060405250810190611ae29190615205565b506000600754611af0611e4b565b611afa9190615b4c565b90506000611b06613631565b9050600080805b8351811015611bb457600060106000868481518110611b2e57611b2e615ba2565b602002602001015181526020019081526020016000205484611b509190615a21565b905080861115611b6257809350611ba1565b848281518110611b7457611b74615ba2565b60200260200101519250611b9b3033856001604051806020016040528060008152506143d7565b50611bb4565b5080611bac81615b31565b915050611b0d565b50611bbe33612996565b611bcb57611bcb336144ef565b7fea32e37a2618dbb680c93d891742e9e13b30d184822562a0ee3c09290fd42b4333600b548360405161143f93929190615625565b60608151835114611c655760405162461bcd60e51b815260206004820152602960248201527f455243313135353a206163636f756e747320616e6420696473206c656e677468604482015268040dad2e6dac2e8c6d60bb1b6064820152608401610c64565b600083516001600160401b03811115611c8057611c80615bb8565b604051908082528060200260200182016040528015611ca9578160200160208202803683370190505b50905060005b8451811015611d2157611cf4858281518110611ccd57611ccd615ba2565b6020026020010151858381518110611ce757611ce7615ba2565b6020026020010151610bfc565b828281518110611d0657611d06615ba2565b6020908102919091010152611d1a81615b31565b9050611caf565b509392505050565b611d31614d53565b600d8281548110611d4457611d44615ba2565b60009182526020918290206040805160a0810182526004909302909101805483526001810154938301939093526002830154908201526003909101546001600160a01b038116606083015260ff600160a01b909104161515608082015292915050565b611db033614062565b611dcc5760405162461bcd60e51b8152600401610c6490615972565b60008281526011602052604090208054611de590615aca565b159050611e2c5760405162461bcd60e51b815260206004820152601560248201527443616e206e6f74207365742075726920747769636560581b6044820152606401610c64565b6000828152601160209081526040909120825161165392840190614d8d565b6040516305d3b1d360e41b81527f000000000000000000000000000000000000000000000000000000000000000060048201526001600160401b037f00000000000000000000000000000000000000000000000000000000000000001660248201526003604482015263ffffffff7f00000000000000000000000000000000000000000000000000000000000000001660648201526002608482015260009081906001600160a01b037f00000000000000000000000000000000000000000000000000000000000000001690635d3b1d309060a401602060405180830381600087803b158015611f3a57600080fd5b505af1158015611f4e573d6000803e3d6000fd5b505050506040513d601f19601f82011682018060405250810190610c909190615298565b611f7b33612996565b611f975760405162461bcd60e51b8152600401610c64906158f1565b3360009081526015602052604090205460ff16611ff65760405162461bcd60e51b815260206004820152601c60248201527f5573657220646964206e6f742073656c6c20616e79205469636b6574000000006044820152606401610c64565b600e818154811061200957612009615ba2565b906000526020600020906007020160010154600014806120935750600e818154811061203757612037615ba2565b906000526020600020906007020160020154603c6120559190615a4d565b603c600e838154811061206a5761206a615ba2565b906000526020600020906007020160050154426120879190615a6c565b6120919190615a39565b145b6120fd5760405162461bcd60e51b815260206004820152603560248201527f4475726174696f6e206f6620746865205469636b6574206f72206e756d5472696044820152746573206973207374696c6c206176616c6961626c6560581b6064820152608401610c64565b6000600e828154811061211257612112615ba2565b906000526020600020906007020160040160009054906101000a90046001600160a01b03169050600060136000600e858154811061215257612152615ba2565b60009182526020808320600460079093020191909101546001600160a01b031683528281019390935260409182018120805494151560ff1995861617905533808252601384528282208054861660011790556015909352208054909216909155600e8054849081106121c6576121c6615ba2565b906000526020600020906007020160040160006101000a8154816001600160a01b0302191690836001600160a01b031602179055506001600e838154811061221057612210615ba2565b906000526020600020906007020160060160006101000a81548160ff021916908315150217905550600160136000600e858154811061225157612251615ba2565b60009182526020808320600792909202909101600401546001600160a01b031683528201929092526040908101909120805460ff191692151592909217909155517f5093646a80c0a81f51115fbf5ec8379ecf902ae2ba552c74599cbe844dcb53e390610f10908390339061552b565b6122ca33612996565b156123175760405162461bcd60e51b815260206004820152601f60248201527f412056495020757365722063616e206e6f74206275792061207469636b6574006044820152606401610c64565b336001600160a01b0316600e828154811061233457612334615ba2565b60009182526020909120600460079092020101546001600160a01b031614156123ad5760405162461bcd60e51b815260206004820152602560248201527f596f752063616e206e6f74206275792061207469636b657420746f20796f75726044820152641039b2b63360d91b6064820152608401610c64565b600e81815481106123c0576123c0615ba2565b600091825260209091206006600790920201015460ff1615156001146124325760405162461bcd60e51b815260206004820152602160248201527f5469636b6574206973206e6f742063757272656e746c79206176616c6961626c6044820152606560f81b6064820152608401610c64565b6000600e828154811061244757612447615ba2565b6000918252602090912060079091020160040154600554600e80546001600160a01b03938416945092909116916323b872dd9133918690811061248c5761248c615ba2565b906000526020600020906007020160040160009054906101000a90046001600160a01b0316600e86815481106124c4576124c4615ba2565b9060005260206000209060070201600301546040518463ffffffff1660e01b81526004016124f4939291906155a3565b602060405180830381600087803b15801561250e57600080fd5b505af1158015612522573d6000803e3d6000fd5b505050506040513d601f19601f820116820180604052508101906125469190615205565b5042600e838154811061255b5761255b615ba2565b906000526020600020906007020160050181905550600060136000600e858154811061258957612589615ba2565b60009182526020808320600792909202909101600401546001600160a01b031683528201929092526040018120805460ff191692151592909217909155600e80546012918391869081106125df576125df615ba2565b60009182526020808320600792909202909101600401546001600160a01b031683528201929092526040018120805460ff191692151592909217909155600e805460019260159290918690811061263857612638615ba2565b60009182526020808320600460079093020191909101546001600160a01b031683528281019390935260409182018120805494151560ff19958616179055338082526013909352208054909216600117909155600e80548490811061269f5761269f615ba2565b906000526020600020906007020160040160006101000a8154816001600160a01b0302191690836001600160a01b031602179055506000600e83815481106126e9576126e9615ba2565b60009182526020808320600792909202909101600601805460ff19169315159390931790925533808252601790925260409020839055600e80547f060f7dd92424d6f1af65d2fe9acba5b63d299cc26cd8eb26403ca371bc9fbfbb92859285928490811061275957612759615ba2565b906000526020600020906007020160030154604051610f1094939291909384526001600160a01b03928316602085015291166040830152606082015260800190565b6006546001600160a01b031633146127c55760405162461bcd60e51b8152600401610c64906159b3565b611594600082614640565b6127d8614e11565b600e82815481106127eb576127eb615ba2565b60009182526020918290206040805160e0810182526007909302909101805483526001810154938301939093526002830154908201526003820154606082015260048201546001600160a01b03166080820152600582015460a082015260069091015460ff16151560c082015292915050565b61286733612996565b6128835760405162461bcd60e51b8152600401610c64906158f1565b3360009081526012602052604090205460ff166128b25760405162461bcd60e51b8152600401610c64906157f5565b336001600160a01b0316600e82815481106128cf576128cf615ba2565b60009182526020909120600460079092020101546001600160a01b0316146129095760405162461bcd60e51b8152600401610c64906157c0565b6000600e828154811061291e5761291e615ba2565b60009182526020808320600660079093020191909101805493151560ff1994851617905533808352601282526040808420805486169055601390925291819020805490931660011790925590517f5dbab6b1e9ddd154d6eb51aa5622fb5278ea62a0b5f81d046a945d899490f631916114df91615517565b600480546040516370a0823160e01b815260009283926001600160a01b0316916370a08231916129c891879101615517565b60206040518083038186803b1580156129e057600080fd5b505afa1580156129f4573d6000803e3d6000fd5b505050506040513d601f19601f82011682018060405250810190612a189190615298565b1115612a2657506001919050565b506000919050565b919050565b612a3c33614062565b612a585760405162461bcd60e51b8152600401610c6490615972565b600b8190556040518181527f06cd74aabc11982a85b554df4d7833623303656fe69bed4db1b0cb3245feebe3906020016114df565b60009182526003602090815260408084206001600160a01b0393909316845291905290205460ff1690565b61156133838361464a565b336001600160a01b0316600d8381548110612ae057612ae0615ba2565b60009182526020909120600360049092020101546001600160a01b031614612b1a5760405162461bcd60e51b8152600401610c6490615869565b6000600d8381548110612b2f57612b2f615ba2565b906000526020600020906004020160020154905081600d8481548110612b5757612b57615ba2565b9060005260206000209060040201600201819055507fb141d00f22a670547caacc412e6489d8edaba6a840df558118363ce1a40d6ed233848385604051612ba19493929190615646565b60405180910390a1505050565b336001600160a01b0316600d8281548110612bcb57612bcb615ba2565b60009182526020909120600360049092020101546001600160a01b031614612c055760405162461bcd60e51b8152600401610c6490615869565b336000908152601660205260408120600d8054600193919085908110612c2d57612c2d615ba2565b90600052602060002090600402016000015481526020019081526020016000206000828254612c5c9190615a6c565b925050819055506000600d8281548110612c7857612c78615ba2565b906000526020600020906004020160030160146101000a81548160ff0219169083151502179055507fc9cedcca3d85d6009a562a9e70071f6288adabda9ba7f059589165e75c9cf40433826040516114df92919061560c565b60606000805b600e54811015612d91576000600e8281548110612cf657612cf6615ba2565b60009182526020918290206040805160e081018252600790930290910180548352600180820154948401949094526002810154918301919091526003810154606083015260048101546001600160a01b03166080830152600581015460a08301526006015460ff16151560c082018190529092501415612d7e57612d7b600184615a21565b92505b5080612d8981615b31565b915050612cd7565b506000816001600160401b03811115612dac57612dac615bb8565b604051908082528060200260200182016040528015612de557816020015b612dd2614e11565b815260200190600190039081612dca5790505b5090506000805b600e54811015612ec5576000600e8281548110612e0b57612e0b615ba2565b60009182526020918290206040805160e081018252600790930290910180548352600180820154948401949094526002810154918301919091526003810154606083015260048101546001600160a01b03166080830152600581015460a08301526006015460ff16151560c082018190529092501415612eb25780848481518110612e9857612e98615ba2565b60200260200101819052508280612eae90615b31565b9350505b5080612ebd81615b31565b915050612dec565b50909392505050565b612ed733612996565b612ef35760405162461bcd60e51b8152600401610c64906158f1565b3360009081526012602052604090205460ff1615612f665760405162461bcd60e51b815260206004820152602a60248201527f5573657220697320616c72656164792063757272656e746c792073656c6c696e60448201526919c81848151a58dad95d60b21b6064820152608401610c64565b3360009081526014602052604090205460ff1615612fdd573360009081526013602052604090205460ff16612fdd5760405162461bcd60e51b815260206004820152601d60248201527f5573657220686173206e6f74207469636b6574206176616c6961626c650000006044820152606401610c64565b6040805160e081018252600a8054825260208201868152928201858152606083018581523360808501908152600060a08601818152600160c08801818152600e80549283018155845297517fbb7b4a454dc3493923482f07822329ed19e8244eff582cc204f8554c3620c3fd60079092029182015597517fbb7b4a454dc3493923482f07822329ed19e8244eff582cc204f8554c3620c3fe89015593517fbb7b4a454dc3493923482f07822329ed19e8244eff582cc204f8554c3620c3ff88015591517fbb7b4a454dc3493923482f07822329ed19e8244eff582cc204f8554c3620c400870155517fbb7b4a454dc3493923482f07822329ed19e8244eff582cc204f8554c3620c401860180546001600160a01b0319166001600160a01b0390921691909117905590517fbb7b4a454dc3493923482f07822329ed19e8244eff582cc204f8554c3620c40285015591517fbb7b4a454dc3493923482f07822329ed19e8244eff582cc204f8554c3620c403909301805460ff1916931515939093179092558154919061316e83615b31565b90915550503360008181526012602090815260408083208054600160ff199182168117909255601484528285208054821690921790915560139092529182902080549091169055517f07814713aba2e13eb5f2470225f7395d33fad1452b70f8427dae73e4d3a5934491612ba191869086908690615646565b60606000805b600d548110156132b0576000600d828154811061320c5761320c615ba2565b60009182526020918290206040805160a08101825260049093029091018054835260018082015494840194909452600281015491830191909152600301546001600160a01b038116606083015260ff600160a01b9091041615156080820181905290925014801561328a575061328a8160600151826000015161472b565b1561329d5761329a600184615a21565b92505b50806132a881615b31565b9150506131ed565b506000816001600160401b038111156132cb576132cb615bb8565b60405190808252806020026020018201604052801561330457816020015b6132f1614d53565b8152602001906001900390816132e95790505b5090506000805b600d54811015612ec5576000600d828154811061332a5761332a615ba2565b60009182526020918290206040805160a08101825260049093029091018054835260018082015494840194909452600281015491830191909152600301546001600160a01b038116606083015260ff600160a01b909104161515608082018190529092501480156133a857506133a88160600151826000015161472b565b156133da57808484815181106133c0576133c0615ba2565b602002602001018190525082806133d690615b31565b9350505b50806133e581615b31565b91505061330b565b6006546001600160a01b031633146134175760405162461bcd60e51b8152600401610c64906159b3565b6005546040516370a0823160e01b81526000916001600160a01b0316906370a0823190613448903090600401615517565b60206040518083038186803b15801561346057600080fd5b505afa158015613474573d6000803e3d6000fd5b505050506040513d601f19601f820116820180604052508101906134989190615298565b116134b55760405162461bcd60e51b8152600401610c649061583b565b60055460405163a9059cbb60e01b81526001600160a01b039091169063a9059cbb906134e7908590859060040161560c565b602060405180830381600087803b15801561350157600080fd5b505af1158015613515573d6000803e3d6000fd5b505050506040513d601f19601f820116820180604052508101906116539190615205565b6001600160a01b0381166000908152601760205260408120548190819081908161356282610fbe565b5091505080600e838154811061357a5761357a615ba2565b906000526020600020906007020160010154600e848154811061359f5761359f615ba2565b906000526020600020906007020160040160009054906101000a90046001600160a01b0316600e85815481106135d7576135d7615ba2565b906000526020600020906007020160030154955095509550955050509193509193565b60006136058261474e565b61360e57600080fd5b60008281526010602052604081205460075461362a9190615a39565b9392505050565b60606000805b60085481101561367357600061364d3083610bfc565b1115613661578161365d81615b31565b9250505b8061366b81615b31565b915050613637565b506000816001600160401b0381111561368e5761368e615bb8565b6040519080825280602002602001820160405280156136b7578160200160208202803683370190505b5090506000805b600854811015612ec55760006136d43083610bfc565b111561370657808383815181106136ed576136ed615ba2565b60209081029190910101528161370281615b31565b9250505b8061371081615b31565b9150506136be565b600082815260036020526040902060010154613733816142e0565b6116538383614370565b61374633614062565b6137625760405162461bcd60e51b8152600401610c6490615972565b6000600c5460ff16600181111561377b5761377b615b8c565b141561379057600c805460ff19166001179055565b600c805460ff19169055565b6000600d82815481106137b1576137b1615ba2565b60009182526020918290206040805160a0810182526004909302909101805483526001810154938301939093526002830154908201526003909101546001600160a01b038116606083015260ff600160a01b9091041615156080820152600d8054919250908390811061382657613826615ba2565b60009182526020909120600490910201600301546001600160a01b031633141561389e5760405162461bcd60e51b815260206004820152602360248201527f596f752063616e206e6f742062757920616e206974656d20746f20796f75727360448201526232b63360e91b6064820152608401610c64565b600d82815481106138b1576138b1615ba2565b906000526020600020906004020160030160149054906101000a900460ff161515600115151461392d5760405162461bcd60e51b815260206004820152602160248201527f54686973206974656d206973206e6f74206f6e2073616c6520616e796d6f72656044820152601760f91b6064820152608401610c64565b61393f8160600151826000015161472b565b6139825760405162461bcd60e51b815260206004820152601460248201527324ba32b6903237b2b9903737ba1032bc34b9ba1760611b6044820152606401610c64565b6040808201516005549151636eb1769f60e11b815290916001600160a01b03169063dd62ed3e906139b9903390309060040161552b565b60206040518083038186803b1580156139d157600080fd5b505afa1580156139e5573d6000803e3d6000fd5b505050506040513d601f19601f82011682018060405250810190613a099190615298565b1015613a575760405162461bcd60e51b815260206004820152601c60248201527f496e73756666696369656e7420455243323020616c6c6f77616e6365000000006044820152606401610c64565b600554600d80546001600160a01b03909216916323b872dd91339186908110613a8257613a82615ba2565b906000526020600020906004020160030160009054906101000a90046001600160a01b0316600d8681548110613aba57613aba615ba2565b9060005260206000209060040201600201546040518463ffffffff1660e01b8152600401613aea939291906155a3565b602060405180830381600087803b158015613b0457600080fd5b505af1158015613b18573d6000803e3d6000fd5b505050506040513d601f19601f82011682018060405250810190613b3c9190615205565b50613bb5600d8381548110613b5357613b53615ba2565b906000526020600020906004020160030160009054906101000a90046001600160a01b031633600d8581548110613b8c57613b8c615ba2565b9060005260206000209060040201600001546001604051806020016040528060008152506143d7565b60608101516001600160a01b03166000908152601660209081526040808320845184529091528120805460019290613bee908490615a6c565b925050819055506000600d8381548110613c0a57613c0a615ba2565b906000526020600020906004020160030160009054906101000a90046001600160a01b0316905033600d8481548110613c4557613c45615ba2565b906000526020600020906004020160030160006101000a8154816001600160a01b0302191690836001600160a01b031602179055506000600d8481548110613c8f57613c8f615ba2565b906000526020600020906004020160030160146101000a81548160ff0219169083151502179055507f642067ff529c9b5b1162502fc8e8a3a91dda56e126a84f2fe38d341236231a82338285600d8781548110613cee57613cee615ba2565b600091825260209182902060026004909202010154604080516001600160a01b0396871681529590941691850191909152918301526060820152608001612ba1565b6001600160a01b03918216600090815260016020908152604080832093909416825291909152205460ff1690565b6001600160a01b038516331480613d7a5750613d7a8533613d30565b613dd85760405162461bcd60e51b815260206004820152602960248201527f455243313135353a2063616c6c6572206973206e6f74206f776e6572206e6f7260448201526808185c1c1c9bdd995960ba1b6064820152608401610c64565b61162785858585856143d7565b606060006008546001600160401b03811115613e0357613e03615bb8565b604051908082528060200260200182016040528015613e2c578160200160208202803683370190505b50905060005b8151811015613ea2576001600160a01b0384166000908152601660209081526040808320848452909152902054613e698583610bfc565b613e739190615a6c565b828281518110613e8557613e85615ba2565b602090810291909101015280613e9a81615b31565b915050613e32565b5092915050565b60006001600160e01b03198216637965db0b60e01b1480610c905750610c9082614766565b6001600160a01b038316613f305760405162461bcd60e51b815260206004820152602360248201527f455243313135353a206275726e2066726f6d20746865207a65726f206164647260448201526265737360e81b6064820152608401610c64565b336000613f3c8461478b565b90506000613f498461478b565b60408051602080820183526000918290528882528181528282206001600160a01b038b1683529052205490915084811015613fd25760405162461bcd60e51b8152602060048201526024808201527f455243313135353a206275726e20616d6f756e7420657863656564732062616c604482015263616e636560e01b6064820152608401610c64565b6000868152602081815260408083206001600160a01b038b81168086529184528285208a8703905582518b81529384018a9052909290881691600080516020615c98833981519152910160405180910390a46040805160208101909152600090525b50505050505050565b8060008151811061405057614050615ba2565b6020026020010151600f819055505050565b6006546000906001600160a01b03838116911614806140875750614087600083612a8d565b61409057600080fd5b506001919050565b6140b58260085483604051806020016040528060008152506147d6565b6140ce6008548260009182526010602052604090912055565b80600760008282546140e09190615a21565b925050819055506001600860008282546140fa9190615a21565b90915550505050565b81518351146141655760405162461bcd60e51b815260206004820152602860248201527f455243313135353a2069647320616e6420616d6f756e7473206c656e677468206044820152670dad2e6dac2e8c6d60c31b6064820152608401610c64565b6001600160a01b03841661418b5760405162461bcd60e51b8152600401610c64906158ac565b3360005b84518110156142725760008582815181106141ac576141ac615ba2565b6020026020010151905060008583815181106141ca576141ca615ba2565b602090810291909101810151600084815280835260408082206001600160a01b038e16835290935291909120549091508181101561421a5760405162461bcd60e51b8152600401610c6490615928565b6000838152602081815260408083206001600160a01b038e8116855292528083208585039055908b16825281208054849290614257908490615a21565b925050819055505050508061426b90615b31565b905061418f565b50846001600160a01b0316866001600160a01b0316826001600160a01b03167f4a39dc06d4c0dbc64b70af90fd698a233a518aa5d07e595d983b8c0526c8f7fb87876040516142c292919061570f565b60405180910390a46142d88187878787876148cf565b505050505050565b6115948133614a3a565b6142f48282612a8d565b6115615760008281526003602090815260408083206001600160a01b03851684529091529020805460ff1916600117905561432c3390565b6001600160a01b0316816001600160a01b0316837f2f8788117e7eff1d82e926ec794901d17c78024a50270940304540a733656f0d60405160405180910390a45050565b61437a8282612a8d565b156115615760008281526003602090815260408083206001600160a01b0385168085529252808320805460ff1916905551339285917ff6391f5c32d9c69d2a47ea670b442974b53935d1edc7fd64eb21e047a839171b9190a45050565b6001600160a01b0384166143fd5760405162461bcd60e51b8152600401610c64906158ac565b3360006144098561478b565b905060006144168561478b565b90506000868152602081815260408083206001600160a01b038c168452909152902054858110156144595760405162461bcd60e51b8152600401610c6490615928565b6000878152602081815260408083206001600160a01b038d8116855292528083208985039055908a16825281208054889290614496908490615a21565b909155505060408051888152602081018890526001600160a01b03808b16928c82169291881691600080516020615c98833981519152910160405180910390a46144e4848a8a8a8a8a614a9e565b505050505050505050565b60005b600e5481101561156157816001600160a01b0316600e828154811061451957614519615ba2565b60009182526020909120600460079092020101546001600160a01b0316141561462e57600e818154811061454f5761454f615ba2565b9060005260206000209060070201600101546001146145a357600e818154811061457b5761457b615ba2565b60009182526020822060016007909202010180549161459983615ab3565b919050555061462e565b600e81815481106145b6576145b6615ba2565b6000918252602082206001600790920201018054916145d483615ab3565b91905055506000600e82815481106145ee576145ee615ba2565b60009182526020808320600660079093020191909101805493151560ff199485161790556001600160a01b03851682526013905260409020805490911690555b8061463881615b31565b9150506144f2565b61156182826142ea565b816001600160a01b0316836001600160a01b031614156146be5760405162461bcd60e51b815260206004820152602960248201527f455243313135353a2073657474696e6720617070726f76616c20737461747573604482015268103337b91039b2b63360b91b6064820152608401610c64565b6001600160a01b03838116600081815260016020908152604080832094871680845294825291829020805460ff191686151590811790915591519182527f17307eab39ab6107e8899845ad3d59bd9653f200f220920489ca2b5937696c31910160405180910390a3505050565b6000806147388484610bfc565b111561474657506001610c90565b506000610c90565b60008181526010602052604081205461409057600080fd5b60006001600160e01b03198216630271189760e51b1480610c905750610c9082614b68565b604080516001808252818301909252606091600091906020808301908036833701905050905082816000815181106147c5576147c5615ba2565b602090810291909101015292915050565b6001600160a01b0384166148365760405162461bcd60e51b815260206004820152602160248201527f455243313135353a206d696e7420746f20746865207a65726f206164647265736044820152607360f81b6064820152608401610c64565b3360006148428561478b565b9050600061484f8561478b565b90506000868152602081815260408083206001600160a01b038b16845290915281208054879290614881908490615a21565b909155505060408051878152602081018790526001600160a01b03808a169260009291871691600080516020615c98833981519152910160405180910390a461403483600089898989614a9e565b6001600160a01b0384163b156142d85760405163bc197c8160e01b81526001600160a01b0385169063bc197c81906149139089908990889088908890600401615545565b602060405180830381600087803b15801561492d57600080fd5b505af192505050801561495d575060408051601f3d908101601f1916820190925261495a9181019061527b565b60015b614a0a57614969615bce565b806308c379a014156149a3575061497e615bea565b8061498957506149a5565b8060405162461bcd60e51b8152600401610c649190615765565b505b60405162461bcd60e51b815260206004820152603460248201527f455243313135353a207472616e7366657220746f206e6f6e20455243313135356044820152732932b1b2b4bb32b91034b6b83632b6b2b73a32b960611b6064820152608401610c64565b6001600160e01b0319811663bc197c8160e01b146140345760405162461bcd60e51b8152600401610c6490615778565b614a448282612a8d565b61156157614a5c816001600160a01b03166014614bb8565b614a67836020614bb8565b604051602001614a789291906154a8565b60408051601f198184030181529082905262461bcd60e51b8252610c6491600401615765565b6001600160a01b0384163b156142d85760405163f23a6e6160e01b81526001600160a01b0385169063f23a6e6190614ae290899089908890889088906004016155c7565b602060405180830381600087803b158015614afc57600080fd5b505af1925050508015614b2c575060408051601f3d908101601f19168201909252614b299181019061527b565b60015b614b3857614969615bce565b6001600160e01b0319811663f23a6e6160e01b146140345760405162461bcd60e51b8152600401610c6490615778565b60006001600160e01b03198216636cdb3d1360e11b1480614b9957506001600160e01b031982166303a24d0760e21b145b80610c9057506301ffc9a760e01b6001600160e01b0319831614610c90565b60606000614bc7836002615a4d565b614bd2906002615a21565b6001600160401b03811115614be957614be9615bb8565b6040519080825280601f01601f191660200182016040528015614c13576020820181803683370190505b509050600360fc1b81600081518110614c2e57614c2e615ba2565b60200101906001600160f81b031916908160001a905350600f60fb1b81600181518110614c5d57614c5d615ba2565b60200101906001600160f81b031916908160001a9053506000614c81846002615a4d565b614c8c906001615a21565b90505b6001811115614d04576f181899199a1a9b1b9c1cb0b131b232b360811b85600f1660108110614cc057614cc0615ba2565b1a60f81b828281518110614cd657614cd6615ba2565b60200101906001600160f81b031916908160001a90535060049490941c93614cfd81615ab3565b9050614c8f565b50831561362a5760405162461bcd60e51b815260206004820181905260248201527f537472696e67733a20686578206c656e67746820696e73756666696369656e746044820152606401610c64565b6040518060a0016040528060008152602001600081526020016000815260200160006001600160a01b031681526020016000151581525090565b828054614d9990615aca565b90600052602060002090601f016020900481019282614dbb5760008555614e01565b82601f10614dd457805160ff1916838001178555614e01565b82800160010185558215614e01579182015b82811115614e01578251825591602001919060010190614de6565b50614e0d929150614e59565b5090565b6040518060e001604052806000815260200160008152602001600081526020016000815260200160006001600160a01b03168152602001600081526020016000151581525090565b5b80821115614e0d5760008155600101614e5a565b60006001600160401b03831115614e8757614e87615bb8565b604051614e9e601f8501601f191660200182615b05565b809150838152848484011115614eb357600080fd5b83836020830137600060208583010152509392505050565b80356001600160a01b0381168114612a2e57600080fd5b600082601f830112614ef357600080fd5b81356020614f00826159fe565b604051614f0d8282615b05565b8381528281019150858301600585901b87018401881015614f2d57600080fd5b60005b85811015614f4c57813584529284019290840190600101614f30565b5090979650505050505050565b600082601f830112614f6a57600080fd5b61362a83833560208501614e6e565b600060208284031215614f8b57600080fd5b61362a82614ecb565b60008060408385031215614fa757600080fd5b614fb083614ecb565b9150614fbe60208401614ecb565b90509250929050565b600080600080600060a08688031215614fdf57600080fd5b614fe886614ecb565b9450614ff660208701614ecb565b935060408601356001600160401b038082111561501257600080fd5b61501e89838a01614ee2565b9450606088013591508082111561503457600080fd5b61504089838a01614ee2565b9350608088013591508082111561505657600080fd5b5061506388828901614f59565b9150509295509295909350565b600080600080600060a0868803121561508857600080fd5b61509186614ecb565b945061509f60208701614ecb565b9350604086013592506060860135915060808601356001600160401b038111156150c857600080fd5b61506388828901614f59565b600080604083850312156150e757600080fd5b6150f083614ecb565b9150602083013561510081615c73565b809150509250929050565b6000806040838503121561511e57600080fd5b61512783614ecb565b946020939093013593505050565b6000806040838503121561514857600080fd5b82356001600160401b038082111561515f57600080fd5b818501915085601f83011261517357600080fd5b81356020615180826159fe565b60405161518d8282615b05565b8381528281019150858301600585901b870184018b10156151ad57600080fd5b600096505b848710156151d7576151c381614ecb565b8352600196909601959183019183016151b2565b50965050860135925050808211156151ee57600080fd5b506151fb85828601614ee2565b9150509250929050565b60006020828403121561521757600080fd5b815161362a81615c73565b60006020828403121561523457600080fd5b5035919050565b6000806040838503121561524e57600080fd5b82359150614fbe60208401614ecb565b60006020828403121561527057600080fd5b813561362a81615c81565b60006020828403121561528d57600080fd5b815161362a81615c81565b6000602082840312156152aa57600080fd5b5051919050565b600080604083850312156152c457600080fd5b8235915060208301356001600160401b038111156152e157600080fd5b6151fb85828601614ee2565b6000806040838503121561530057600080fd5b8235915060208301356001600160401b0381111561531d57600080fd5b8301601f8101851361532e57600080fd5b6151fb85823560208401614e6e565b6000806040838503121561535057600080fd5b50508035926020909101359150565b60008060006060848603121561537457600080fd5b505081359360208301359350604090920135919050565b600080600080608085870312156153a157600080fd5b5050823594602084013594506040840135936060013592509050565b600081518084526020808501945080840160005b838110156153ed578151875295820195908201906001016153d1565b509495945050505050565b60008151808452615410816020860160208601615a83565b601f01601f19169290920160200192915050565b805182526020808201519083015260408082015190830152606080820151908301526080808201516001600160a01b03169083015260a0808201519083015260c0908101511515910152565b8051825260208082015190830152604080820151908301526060808201516001600160a01b0316908301526080908101511515910152565b76020b1b1b2b9b9a1b7b73a3937b61d1030b1b1b7bab73a1604d1b8152600083516154da816017850160208801615a83565b7001034b99036b4b9b9b4b733903937b6329607d1b601791840191820152835161550b816028840160208801615a83565b01602801949350505050565b6001600160a01b0391909116815260200190565b6001600160a01b0392831681529116602082015260400190565b6001600160a01b0386811682528516602082015260a060408201819052600090615571908301866153bd565b828103606084015261558381866153bd565b9050828103608084015261559781856153f8565b98975050505050505050565b6001600160a01b039384168152919092166020820152604081019190915260600190565b6001600160a01b03868116825285166020820152604081018490526060810183905260a060808201819052600090615601908301846153f8565b979650505050505050565b6001600160a01b03929092168252602082015260400190565b6001600160a01b039390931683526020830191909152604082015260600190565b6001600160a01b0394909416845260208401929092526040830152606082015260800190565b6020808252825182820181905260009190848201906040850190845b818110156156ae5761569b838551615424565b9284019260e09290920191600101615688565b50909695505050505050565b6020808252825182820181905260009190848201906040850190845b818110156156ae576156e9838551615470565b9284019260a092909201916001016156d6565b60208152600061362a60208301846153bd565b60408152600061572260408301856153bd565b828103602084015261573481856153bd565b95945050505050565b602081016002831061575f57634e487b7160e01b600052602160045260246000fd5b91905290565b60208152600061362a60208301846153f8565b60208082526028908201527f455243313135353a204552433131353552656365697665722072656a656374656040820152676420746f6b656e7360c01b606082015260800190565b6020808252818101527f55736572206973206e6f74206f776e6572206f662074686973207469636b6574604082015260600190565b60208082526026908201527f55736572206973206e6f742063757272656e746c792073656c6c696e67206120604082015265151a58dad95d60d21b606082015260800190565b6020808252601490820152734e6f2066756e647320746f20776974686472617760601b604082015260600190565b60208082526023908201527f596f7520617265206e6f7420746865206f776e6572206f66207468697320697460408201526232b69760e91b606082015260800190565b60208082526025908201527f455243313135353a207472616e7366657220746f20746865207a65726f206164604082015264647265737360d81b606082015260800190565b6020808252601d908201527f5573657220646f6573206e6f74206f776e732061204d7243727970746f000000604082015260600190565b6020808252602a908201527f455243313135353a20696e73756666696369656e742062616c616e636520666f60408201526939103a3930b739b332b960b11b606082015260800190565b60208082526021908201527f55736572206973206e6f7420746865204f776e6572206f7220616e2041646d696040820152603760f91b606082015260800190565b6020808252601590820152742ab9b2b91034b9903737ba103a34329037bbb732b960591b604082015260600190565b60e08101610c908284615424565b60a08101610c908284615470565b60006001600160401b03821115615a1757615a17615bb8565b5060051b60200190565b60008219821115615a3457615a34615b60565b500190565b600082615a4857615a48615b76565b500490565b6000816000190483118215151615615a6757615a67615b60565b500290565b600082821015615a7e57615a7e615b60565b500390565b60005b83811015615a9e578181015183820152602001615a86565b83811115615aad576000848401525b50505050565b600081615ac257615ac2615b60565b506000190190565b600181811c90821680615ade57607f821691505b60208210811415615aff57634e487b7160e01b600052602260045260246000fd5b50919050565b601f8201601f191681016001600160401b0381118282101715615b2a57615b2a615bb8565b6040525050565b6000600019821415615b4557615b45615b60565b5060010190565b600082615b5b57615b5b615b76565b500690565b634e487b7160e01b600052601160045260246000fd5b634e487b7160e01b600052601260045260246000fd5b634e487b7160e01b600052602160045260246000fd5b634e487b7160e01b600052603260045260246000fd5b634e487b7160e01b600052604160045260246000fd5b600060033d1115615be75760046000803e5060005160e01c5b90565b600060443d1015615bf85790565b6040516003193d81016004833e81513d6001600160401b038160248401118184111715615c2757505050505090565b8285019150815181811115615c3f5750505050505090565b843d8701016020828501011115615c595750505050505090565b615c6860208286010187615b05565b509095945050505050565b801515811461159457600080fd5b6001600160e01b03198116811461159457600080fdfec3d58168c5ae7397731d063d5bbf3d657854427343f4c083240f7aacaa2d0f62a264697066735822122092e7bab2495e669d2952928d5329d33b3c1c56cade0f48d9dcce9a6546c6e6f164736f6c63430008070033",
  "linkReferences": {},
  "deployedLinkReferences": {}
}