{
  "_format": "hh-sol-artifact-1",
  "contractName": "RacksItemsv4",
  "sourceName": "contracts/RacksItemsv4.sol",
  "abi": [
    {
      "inputs": [
        {
          "internalType": "address",
          "name": "vrfCoordinatorV2",
          "type": "address"
        },
        {
          "internalType": "bytes32",
          "name": "gasLane",
          "type": "bytes32"
        },
        {
          "internalType": "uint64",
          "name": "subscriptionId",
          "type": "uint64"
        },
        {
          "internalType": "uint32",
          "name": "callbackGasLimit",
          "type": "uint32"
        },
        {
          "internalType": "address",
          "name": "_racksTokenAddress",
          "type": "address"
        },
        {
          "internalType": "address",
          "name": "_MockMrCryptoAddress",
          "type": "address"
        }
      ],
      "stateMutability": "nonpayable",
      "type": "constructor"
    },
    {
      "inputs": [
        {
          "internalType": "address",
          "name": "have",
          "type": "address"
        },
        {
          "internalType": "address",
          "name": "want",
          "type": "address"
        }
      ],
      "name": "OnlyCoordinatorCanFulfill",
      "type": "error"
    },
    {
      "anonymous": false,
      "inputs": [
        {
          "indexed": true,
          "internalType": "address",
          "name": "account",
          "type": "address"
        },
        {
          "indexed": true,
          "internalType": "address",
          "name": "operator",
          "type": "address"
        },
        {
          "indexed": false,
          "internalType": "bool",
          "name": "approved",
          "type": "bool"
        }
      ],
      "name": "ApprovalForAll",
      "type": "event"
    },
    {
      "anonymous": false,
      "inputs": [
        {
          "indexed": false,
          "internalType": "address",
          "name": "user",
          "type": "address"
        },
        {
          "indexed": false,
          "internalType": "uint256",
          "name": "casePrice",
          "type": "uint256"
        },
        {
          "indexed": false,
          "internalType": "uint256",
          "name": "item",
          "type": "uint256"
        }
      ],
      "name": "CaseOpened",
      "type": "event"
    },
    {
      "anonymous": false,
      "inputs": [
        {
          "indexed": true,
          "internalType": "bytes32",
          "name": "role",
          "type": "bytes32"
        },
        {
          "indexed": true,
          "internalType": "bytes32",
          "name": "previousAdminRole",
          "type": "bytes32"
        },
        {
          "indexed": true,
          "internalType": "bytes32",
          "name": "newAdminRole",
          "type": "bytes32"
        }
      ],
      "name": "RoleAdminChanged",
      "type": "event"
    },
    {
      "anonymous": false,
      "inputs": [
        {
          "indexed": true,
          "internalType": "bytes32",
          "name": "role",
          "type": "bytes32"
        },
        {
          "indexed": true,
          "internalType": "address",
          "name": "account",
          "type": "address"
        },
        {
          "indexed": true,
          "internalType": "address",
          "name": "sender",
          "type": "address"
        }
      ],
      "name": "RoleGranted",
      "type": "event"
    },
    {
      "anonymous": false,
      "inputs": [
        {
          "indexed": true,
          "internalType": "bytes32",
          "name": "role",
          "type": "bytes32"
        },
        {
          "indexed": true,
          "internalType": "address",
          "name": "account",
          "type": "address"
        },
        {
          "indexed": true,
          "internalType": "address",
          "name": "sender",
          "type": "address"
        }
      ],
      "name": "RoleRevoked",
      "type": "event"
    },
    {
      "anonymous": false,
      "inputs": [
        {
          "indexed": true,
          "internalType": "address",
          "name": "operator",
          "type": "address"
        },
        {
          "indexed": true,
          "internalType": "address",
          "name": "from",
          "type": "address"
        },
        {
          "indexed": true,
          "internalType": "address",
          "name": "to",
          "type": "address"
        },
        {
          "indexed": false,
          "internalType": "uint256[]",
          "name": "ids",
          "type": "uint256[]"
        },
        {
          "indexed": false,
          "internalType": "uint256[]",
          "name": "values",
          "type": "uint256[]"
        }
      ],
      "name": "TransferBatch",
      "type": "event"
    },
    {
      "anonymous": false,
      "inputs": [
        {
          "indexed": true,
          "internalType": "address",
          "name": "operator",
          "type": "address"
        },
        {
          "indexed": true,
          "internalType": "address",
          "name": "from",
          "type": "address"
        },
        {
          "indexed": true,
          "internalType": "address",
          "name": "to",
          "type": "address"
        },
        {
          "indexed": false,
          "internalType": "uint256",
          "name": "id",
          "type": "uint256"
        },
        {
          "indexed": false,
          "internalType": "uint256",
          "name": "value",
          "type": "uint256"
        }
      ],
      "name": "TransferSingle",
      "type": "event"
    },
    {
      "anonymous": false,
      "inputs": [
        {
          "indexed": false,
          "internalType": "string",
          "name": "value",
          "type": "string"
        },
        {
          "indexed": true,
          "internalType": "uint256",
          "name": "id",
          "type": "uint256"
        }
      ],
      "name": "URI",
      "type": "event"
    },
    {
      "anonymous": false,
      "inputs": [
        {
          "indexed": false,
          "internalType": "uint256",
          "name": "newPrice",
          "type": "uint256"
        }
      ],
      "name": "casePriceChanged",
      "type": "event"
    },
    {
      "anonymous": false,
      "inputs": [
        {
          "indexed": false,
          "internalType": "address",
          "name": "buyer",
          "type": "address"
        },
        {
          "indexed": false,
          "internalType": "address",
          "name": "seller",
          "type": "address"
        },
        {
          "indexed": false,
          "internalType": "uint256",
          "name": "marketItemId",
          "type": "uint256"
        },
        {
          "indexed": false,
          "internalType": "uint256",
          "name": "price",
          "type": "uint256"
        }
      ],
      "name": "itemBought",
      "type": "event"
    },
    {
      "anonymous": false,
      "inputs": [
        {
          "indexed": false,
          "internalType": "address",
          "name": "user",
          "type": "address"
        },
        {
          "indexed": false,
          "internalType": "uint256",
          "name": "tokenId",
          "type": "uint256"
        }
      ],
      "name": "itemExchanged",
      "type": "event"
    },
    {
      "anonymous": false,
      "inputs": [
        {
          "indexed": false,
          "internalType": "address",
          "name": "owner",
          "type": "address"
        },
        {
          "indexed": false,
          "internalType": "uint256",
          "name": "marketItemId",
          "type": "uint256"
        },
        {
          "indexed": false,
          "internalType": "uint256",
          "name": "oldPrice",
          "type": "uint256"
        },
        {
          "indexed": false,
          "internalType": "uint256",
          "name": "newPrice",
          "type": "uint256"
        }
      ],
      "name": "itemPriceChanged",
      "type": "event"
    },
    {
      "anonymous": false,
      "inputs": [
        {
          "indexed": false,
          "internalType": "address",
          "name": "seller",
          "type": "address"
        },
        {
          "indexed": false,
          "internalType": "uint256",
          "name": "numTries",
          "type": "uint256"
        },
        {
          "indexed": false,
          "internalType": "uint256",
          "name": "_hours",
          "type": "uint256"
        },
        {
          "indexed": false,
          "internalType": "uint256",
          "name": "price",
          "type": "uint256"
        }
      ],
      "name": "newTicketOnSale",
      "type": "event"
    },
    {
      "anonymous": false,
      "inputs": [
        {
          "indexed": false,
          "internalType": "address",
          "name": "user",
          "type": "address"
        },
        {
          "indexed": false,
          "internalType": "uint256",
          "name": "tokenId",
          "type": "uint256"
        },
        {
          "indexed": false,
          "internalType": "uint256",
          "name": "price",
          "type": "uint256"
        }
      ],
      "name": "sellingItem",
      "type": "event"
    },
    {
      "anonymous": false,
      "inputs": [
        {
          "indexed": false,
          "internalType": "uint256",
          "name": "ticketId",
          "type": "uint256"
        },
        {
          "indexed": false,
          "internalType": "address",
          "name": "oldOwner",
          "type": "address"
        },
        {
          "indexed": false,
          "internalType": "address",
          "name": "newOwner",
          "type": "address"
        },
        {
          "indexed": false,
          "internalType": "uint256",
          "name": "price",
          "type": "uint256"
        }
      ],
      "name": "ticketBought",
      "type": "event"
    },
    {
      "anonymous": false,
      "inputs": [
        {
          "indexed": false,
          "internalType": "address",
          "name": "borrower",
          "type": "address"
        },
        {
          "indexed": false,
          "internalType": "address",
          "name": "realOwner",
          "type": "address"
        }
      ],
      "name": "ticketClaimedBack",
      "type": "event"
    },
    {
      "anonymous": false,
      "inputs": [
        {
          "indexed": false,
          "internalType": "address",
          "name": "owner",
          "type": "address"
        },
        {
          "indexed": false,
          "internalType": "uint256",
          "name": "newTries",
          "type": "uint256"
        },
        {
          "indexed": false,
          "internalType": "uint256",
          "name": "newHours",
          "type": "uint256"
        },
        {
          "indexed": false,
          "internalType": "uint256",
          "name": "newPrice",
          "type": "uint256"
        }
      ],
      "name": "ticketConditionsChanged",
      "type": "event"
    },
    {
      "anonymous": false,
      "inputs": [
        {
          "indexed": false,
          "internalType": "address",
          "name": "owner",
          "type": "address"
        }
      ],
      "name": "unListTicketOnSale",
      "type": "event"
    },
    {
      "anonymous": false,
      "inputs": [
        {
          "indexed": false,
          "internalType": "address",
          "name": "owner",
          "type": "address"
        },
        {
          "indexed": false,
          "internalType": "uint256",
          "name": "marketItemId",
          "type": "uint256"
        }
      ],
      "name": "unListedItem",
      "type": "event"
    },
    {
      "inputs": [],
      "name": "ADMIN_ROLE",
      "outputs": [
        {
          "internalType": "bytes32",
          "name": "",
          "type": "bytes32"
        }
      ],
      "stateMutability": "view",
      "type": "function"
    },
    {
      "inputs": [],
      "name": "DEFAULT_ADMIN_ROLE",
      "outputs": [
        {
          "internalType": "bytes32",
          "name": "",
          "type": "bytes32"
        }
      ],
      "stateMutability": "view",
      "type": "function"
    },
    {
      "inputs": [],
      "name": "NUM_WORDS",
      "outputs": [
        {
          "internalType": "uint32",
          "name": "",
          "type": "uint32"
        }
      ],
      "stateMutability": "view",
      "type": "function"
    },
    {
      "inputs": [],
      "name": "REQUEST_CONFIRMATIONS",
      "outputs": [
        {
          "internalType": "uint16",
          "name": "",
          "type": "uint16"
        }
      ],
      "stateMutability": "view",
      "type": "function"
    },
    {
      "inputs": [],
      "name": "_randomNumber",
      "outputs": [
        {
          "internalType": "uint256",
          "name": "",
          "type": "uint256"
        }
      ],
      "stateMutability": "nonpayable",
      "type": "function"
    },
    {
      "inputs": [
        {
          "internalType": "uint256",
          "name": "tokenId",
          "type": "uint256"
        }
      ],
      "name": "_rarityOfItem",
      "outputs": [
        {
          "internalType": "uint256",
          "name": "",
          "type": "uint256"
        }
      ],
      "stateMutability": "view",
      "type": "function"
    },
    {
      "inputs": [
        {
          "internalType": "address",
          "name": "account",
          "type": "address"
        },
        {
          "internalType": "uint256",
          "name": "id",
          "type": "uint256"
        }
      ],
      "name": "balanceOf",
      "outputs": [
        {
          "internalType": "uint256",
          "name": "",
          "type": "uint256"
        }
      ],
      "stateMutability": "view",
      "type": "function"
    },
    {
      "inputs": [
        {
          "internalType": "address[]",
          "name": "accounts",
          "type": "address[]"
        },
        {
          "internalType": "uint256[]",
          "name": "ids",
          "type": "uint256[]"
        }
      ],
      "name": "balanceOfBatch",
      "outputs": [
        {
          "internalType": "uint256[]",
          "name": "",
          "type": "uint256[]"
        }
      ],
      "stateMutability": "view",
      "type": "function"
    },
    {
      "inputs": [
        {
          "internalType": "uint256",
          "name": "marketItemId",
          "type": "uint256"
        }
      ],
      "name": "buyItem",
      "outputs": [],
      "stateMutability": "nonpayable",
      "type": "function"
    },
    {
      "inputs": [
        {
          "internalType": "uint256",
          "name": "ticketId",
          "type": "uint256"
        }
      ],
      "name": "buyTicket",
      "outputs": [],
      "stateMutability": "nonpayable",
      "type": "function"
    },
    {
      "inputs": [],
      "name": "casePrice",
      "outputs": [
        {
          "internalType": "uint256",
          "name": "",
          "type": "uint256"
        }
      ],
      "stateMutability": "view",
      "type": "function"
    },
    {
      "inputs": [
        {
          "internalType": "uint256",
          "name": "marketItemId",
          "type": "uint256"
        },
        {
          "internalType": "uint256",
          "name": "newPrice",
          "type": "uint256"
        }
      ],
      "name": "changeItemPrice",
      "outputs": [],
      "stateMutability": "nonpayable",
      "type": "function"
    },
    {
      "inputs": [
        {
          "internalType": "uint256",
          "name": "ticketId",
          "type": "uint256"
        },
        {
          "internalType": "uint256",
          "name": "newTries",
          "type": "uint256"
        },
        {
          "internalType": "uint256",
          "name": "newHours",
          "type": "uint256"
        },
        {
          "internalType": "uint256",
          "name": "newPrice",
          "type": "uint256"
        }
      ],
      "name": "changeTicketConditions",
      "outputs": [],
      "stateMutability": "nonpayable",
      "type": "function"
    },
    {
      "inputs": [
        {
          "internalType": "uint256",
          "name": "ticketId",
          "type": "uint256"
        }
      ],
      "name": "claimTicketBack",
      "outputs": [],
      "stateMutability": "nonpayable",
      "type": "function"
    },
    {
      "inputs": [],
      "name": "contractActive",
      "outputs": [
        {
          "internalType": "bool",
          "name": "",
          "type": "bool"
        }
      ],
      "stateMutability": "view",
      "type": "function"
    },
    {
      "inputs": [
        {
          "internalType": "uint256",
          "name": "tokenId",
          "type": "uint256"
        }
      ],
      "name": "exchangeItem",
      "outputs": [],
      "stateMutability": "nonpayable",
      "type": "function"
    },
    {
      "inputs": [],
      "name": "flipContractState",
      "outputs": [],
      "stateMutability": "nonpayable",
      "type": "function"
    },
    {
      "inputs": [],
      "name": "getCasePrice",
      "outputs": [
        {
          "internalType": "uint256",
          "name": "",
          "type": "uint256"
        }
      ],
      "stateMutability": "view",
      "type": "function"
    },
    {
      "inputs": [],
      "name": "getITicketsOnSale",
      "outputs": [
        {
          "components": [
            {
              "internalType": "uint256",
              "name": "ticketId",
              "type": "uint256"
            },
            {
              "internalType": "uint256",
              "name": "numTries",
              "type": "uint256"
            },
            {
              "internalType": "uint256",
              "name": "duration",
              "type": "uint256"
            },
            {
              "internalType": "uint256",
              "name": "price",
              "type": "uint256"
            },
            {
              "internalType": "address",
              "name": "owner",
              "type": "address"
            },
            {
              "internalType": "uint256",
              "name": "timeWhenSold",
              "type": "uint256"
            },
            {
              "internalType": "bool",
              "name": "isAvaliable",
              "type": "bool"
            }
          ],
          "internalType": "struct RacksItemsv4.caseTicket[]",
          "name": "",
          "type": "tuple[]"
        }
      ],
      "stateMutability": "view",
      "type": "function"
    },
    {
      "inputs": [],
      "name": "getItemsOnSale",
      "outputs": [
        {
          "components": [
            {
              "internalType": "uint256",
              "name": "tokenId",
              "type": "uint256"
            },
            {
              "internalType": "uint256",
              "name": "marketItemId",
              "type": "uint256"
            },
            {
              "internalType": "uint256",
              "name": "price",
              "type": "uint256"
            },
            {
              "internalType": "address",
              "name": "itemOwner",
              "type": "address"
            },
            {
              "internalType": "bool",
              "name": "isOnSale",
              "type": "bool"
            }
          ],
          "internalType": "struct RacksItemsv4.itemOnSale[]",
          "name": "",
          "type": "tuple[]"
        }
      ],
      "stateMutability": "view",
      "type": "function"
    },
    {
      "inputs": [
        {
          "internalType": "uint256",
          "name": "marketItemId",
          "type": "uint256"
        }
      ],
      "name": "getMarketItem",
      "outputs": [
        {
          "components": [
            {
              "internalType": "uint256",
              "name": "tokenId",
              "type": "uint256"
            },
            {
              "internalType": "uint256",
              "name": "marketItemId",
              "type": "uint256"
            },
            {
              "internalType": "uint256",
              "name": "price",
              "type": "uint256"
            },
            {
              "internalType": "address",
              "name": "itemOwner",
              "type": "address"
            },
            {
              "internalType": "bool",
              "name": "isOnSale",
              "type": "bool"
            }
          ],
          "internalType": "struct RacksItemsv4.itemOnSale",
          "name": "",
          "type": "tuple"
        }
      ],
      "stateMutability": "view",
      "type": "function"
    },
    {
      "inputs": [
        {
          "internalType": "uint256",
          "name": "ticketId",
          "type": "uint256"
        }
      ],
      "name": "getMarketTicket",
      "outputs": [
        {
          "components": [
            {
              "internalType": "uint256",
              "name": "ticketId",
              "type": "uint256"
            },
            {
              "internalType": "uint256",
              "name": "numTries",
              "type": "uint256"
            },
            {
              "internalType": "uint256",
              "name": "duration",
              "type": "uint256"
            },
            {
              "internalType": "uint256",
              "name": "price",
              "type": "uint256"
            },
            {
              "internalType": "address",
              "name": "owner",
              "type": "address"
            },
            {
              "internalType": "uint256",
              "name": "timeWhenSold",
              "type": "uint256"
            },
            {
              "internalType": "bool",
              "name": "isAvaliable",
              "type": "bool"
            }
          ],
          "internalType": "struct RacksItemsv4.caseTicket",
          "name": "",
          "type": "tuple"
        }
      ],
      "stateMutability": "view",
      "type": "function"
    },
    {
      "inputs": [
        {
          "internalType": "bytes32",
          "name": "role",
          "type": "bytes32"
        }
      ],
      "name": "getRoleAdmin",
      "outputs": [
        {
          "internalType": "bytes32",
          "name": "",
          "type": "bytes32"
        }
      ],
      "stateMutability": "view",
      "type": "function"
    },
    {
      "inputs": [
        {
          "internalType": "uint256",
          "name": "ticketId",
          "type": "uint256"
        }
      ],
      "name": "getTicketDurationLeft",
      "outputs": [
        {
          "internalType": "address",
          "name": "",
          "type": "address"
        },
        {
          "internalType": "uint256",
          "name": "",
          "type": "uint256"
        },
        {
          "internalType": "bool",
          "name": "",
          "type": "bool"
        }
      ],
      "stateMutability": "view",
      "type": "function"
    },
    {
      "inputs": [
        {
          "internalType": "bytes32",
          "name": "role",
          "type": "bytes32"
        },
        {
          "internalType": "address",
          "name": "account",
          "type": "address"
        }
      ],
      "name": "grantRole",
      "outputs": [],
      "stateMutability": "nonpayable",
      "type": "function"
    },
    {
      "inputs": [
        {
          "internalType": "bytes32",
          "name": "role",
          "type": "bytes32"
        },
        {
          "internalType": "address",
          "name": "account",
          "type": "address"
        }
      ],
      "name": "hasRole",
      "outputs": [
        {
          "internalType": "bool",
          "name": "",
          "type": "bool"
        }
      ],
      "stateMutability": "view",
      "type": "function"
    },
    {
      "inputs": [],
      "name": "i_callbackGasLimit",
      "outputs": [
        {
          "internalType": "uint32",
          "name": "",
          "type": "uint32"
        }
      ],
      "stateMutability": "view",
      "type": "function"
    },
    {
      "inputs": [],
      "name": "i_gasLane",
      "outputs": [
        {
          "internalType": "bytes32",
          "name": "",
          "type": "bytes32"
        }
      ],
      "stateMutability": "view",
      "type": "function"
    },
    {
      "inputs": [],
      "name": "i_subscriptionId",
      "outputs": [
        {
          "internalType": "uint64",
          "name": "",
          "type": "uint64"
        }
      ],
      "stateMutability": "view",
      "type": "function"
    },
    {
      "inputs": [],
      "name": "i_vrfCoordinator",
      "outputs": [
        {
          "internalType": "contract VRFCoordinatorV2Interface",
          "name": "",
          "type": "address"
        }
      ],
      "stateMutability": "view",
      "type": "function"
    },
    {
      "inputs": [
        {
          "internalType": "address",
          "name": "account",
          "type": "address"
        },
        {
          "internalType": "address",
          "name": "operator",
          "type": "address"
        }
      ],
      "name": "isApprovedForAll",
      "outputs": [
        {
          "internalType": "bool",
          "name": "",
          "type": "bool"
        }
      ],
      "stateMutability": "view",
      "type": "function"
    },
    {
      "inputs": [
        {
          "internalType": "address",
          "name": "user",
          "type": "address"
        }
      ],
      "name": "isVip",
      "outputs": [
        {
          "internalType": "bool",
          "name": "",
          "type": "bool"
        }
      ],
      "stateMutability": "view",
      "type": "function"
    },
    {
      "inputs": [
        {
          "internalType": "uint256",
          "name": "itemSupply",
          "type": "uint256"
        }
      ],
      "name": "listItem",
      "outputs": [],
      "stateMutability": "nonpayable",
      "type": "function"
    },
    {
      "inputs": [
        {
          "internalType": "uint256",
          "name": "marketItemId",
          "type": "uint256"
        },
        {
          "internalType": "uint256",
          "name": "price",
          "type": "uint256"
        }
      ],
      "name": "listItemOnMarket",
      "outputs": [],
      "stateMutability": "nonpayable",
      "type": "function"
    },
    {
      "inputs": [
        {
          "internalType": "uint256",
          "name": "numTries",
          "type": "uint256"
        },
        {
          "internalType": "uint256",
          "name": "_hours",
          "type": "uint256"
        },
        {
          "internalType": "uint256",
          "name": "price",
          "type": "uint256"
        }
      ],
      "name": "listTicket",
      "outputs": [],
      "stateMutability": "nonpayable",
      "type": "function"
    },
    {
      "inputs": [
        {
          "internalType": "address",
          "name": "",
          "type": "address"
        },
        {
          "internalType": "address",
          "name": "",
          "type": "address"
        },
        {
          "internalType": "uint256[]",
          "name": "",
          "type": "uint256[]"
        },
        {
          "internalType": "uint256[]",
          "name": "",
          "type": "uint256[]"
        },
        {
          "internalType": "bytes",
          "name": "",
          "type": "bytes"
        }
      ],
      "name": "onERC1155BatchReceived",
      "outputs": [
        {
          "internalType": "bytes4",
          "name": "",
          "type": "bytes4"
        }
      ],
      "stateMutability": "nonpayable",
      "type": "function"
    },
    {
      "inputs": [
        {
          "internalType": "address",
          "name": "",
          "type": "address"
        },
        {
          "internalType": "address",
          "name": "",
          "type": "address"
        },
        {
          "internalType": "uint256",
          "name": "",
          "type": "uint256"
        },
        {
          "internalType": "uint256",
          "name": "",
          "type": "uint256"
        },
        {
          "internalType": "bytes",
          "name": "",
          "type": "bytes"
        }
      ],
      "name": "onERC1155Received",
      "outputs": [
        {
          "internalType": "bytes4",
          "name": "",
          "type": "bytes4"
        }
      ],
      "stateMutability": "nonpayable",
      "type": "function"
    },
    {
      "inputs": [],
      "name": "openCase",
      "outputs": [],
      "stateMutability": "nonpayable",
      "type": "function"
    },
    {
      "inputs": [
        {
          "internalType": "uint256",
          "name": "requestId",
          "type": "uint256"
        },
        {
          "internalType": "uint256[]",
          "name": "randomWords",
          "type": "uint256[]"
        }
      ],
      "name": "rawFulfillRandomWords",
      "outputs": [],
      "stateMutability": "nonpayable",
      "type": "function"
    },
    {
      "inputs": [
        {
          "internalType": "bytes32",
          "name": "role",
          "type": "bytes32"
        },
        {
          "internalType": "address",
          "name": "account",
          "type": "address"
        }
      ],
      "name": "renounceRole",
      "outputs": [],
      "stateMutability": "nonpayable",
      "type": "function"
    },
    {
      "inputs": [
        {
          "internalType": "bytes32",
          "name": "role",
          "type": "bytes32"
        },
        {
          "internalType": "address",
          "name": "account",
          "type": "address"
        }
      ],
      "name": "revokeRole",
      "outputs": [],
      "stateMutability": "nonpayable",
      "type": "function"
    },
    {
      "inputs": [],
      "name": "s_contractState",
      "outputs": [
        {
          "internalType": "enum RacksItemsv4.ContractState",
          "name": "",
          "type": "uint8"
        }
      ],
      "stateMutability": "view",
      "type": "function"
    },
    {
      "inputs": [],
      "name": "s_randomWord",
      "outputs": [
        {
          "internalType": "uint256",
          "name": "",
          "type": "uint256"
        }
      ],
      "stateMutability": "view",
      "type": "function"
    },
    {
      "inputs": [
        {
          "internalType": "address",
          "name": "from",
          "type": "address"
        },
        {
          "internalType": "address",
          "name": "to",
          "type": "address"
        },
        {
          "internalType": "uint256[]",
          "name": "ids",
          "type": "uint256[]"
        },
        {
          "internalType": "uint256[]",
          "name": "amounts",
          "type": "uint256[]"
        },
        {
          "internalType": "bytes",
          "name": "data",
          "type": "bytes"
        }
      ],
      "name": "safeBatchTransferFrom",
      "outputs": [],
      "stateMutability": "nonpayable",
      "type": "function"
    },
    {
      "inputs": [
        {
          "internalType": "address",
          "name": "from",
          "type": "address"
        },
        {
          "internalType": "address",
          "name": "to",
          "type": "address"
        },
        {
          "internalType": "uint256",
          "name": "id",
          "type": "uint256"
        },
        {
          "internalType": "uint256",
          "name": "amount",
          "type": "uint256"
        },
        {
          "internalType": "bytes",
          "name": "data",
          "type": "bytes"
        }
      ],
      "name": "safeTransferFrom",
      "outputs": [],
      "stateMutability": "nonpayable",
      "type": "function"
    },
    {
      "inputs": [
        {
          "internalType": "address",
          "name": "_newAdmin",
          "type": "address"
        }
      ],
      "name": "setAdmin",
      "outputs": [],
      "stateMutability": "nonpayable",
      "type": "function"
    },
    {
      "inputs": [
        {
          "internalType": "address",
          "name": "operator",
          "type": "address"
        },
        {
          "internalType": "bool",
          "name": "approved",
          "type": "bool"
        }
      ],
      "name": "setApprovalForAll",
      "outputs": [],
      "stateMutability": "nonpayable",
      "type": "function"
    },
    {
      "inputs": [
        {
          "internalType": "uint256",
          "name": "price",
          "type": "uint256"
        }
      ],
      "name": "setCasePrice",
      "outputs": [],
      "stateMutability": "nonpayable",
      "type": "function"
    },
    {
      "inputs": [
        {
          "internalType": "uint256",
          "name": "tokenId",
          "type": "uint256"
        },
        {
          "internalType": "string",
          "name": "_uri",
          "type": "string"
        }
      ],
      "name": "setTokenUri",
      "outputs": [],
      "stateMutability": "nonpayable",
      "type": "function"
    },
    {
      "inputs": [
        {
          "internalType": "uint256",
          "name": "tokenId",
          "type": "uint256"
        }
      ],
      "name": "supplyOfItem",
      "outputs": [
        {
          "internalType": "uint256",
          "name": "",
          "type": "uint256"
        }
      ],
      "stateMutability": "view",
      "type": "function"
    },
    {
      "inputs": [
        {
          "internalType": "bytes4",
          "name": "interfaceId",
          "type": "bytes4"
        }
      ],
      "name": "supportsInterface",
      "outputs": [
        {
          "internalType": "bool",
          "name": "",
          "type": "bool"
        }
      ],
      "stateMutability": "view",
      "type": "function"
    },
    {
      "inputs": [
        {
          "internalType": "uint256",
          "name": "marketItemId",
          "type": "uint256"
        }
      ],
      "name": "unListItem",
      "outputs": [],
      "stateMutability": "nonpayable",
      "type": "function"
    },
    {
      "inputs": [
        {
          "internalType": "uint256",
          "name": "ticketId",
          "type": "uint256"
        }
      ],
      "name": "unListTicket",
      "outputs": [],
      "stateMutability": "nonpayable",
      "type": "function"
    },
    {
      "inputs": [
        {
          "internalType": "uint256",
          "name": "tokenId",
          "type": "uint256"
        }
      ],
      "name": "uri",
      "outputs": [
        {
          "internalType": "string",
          "name": "",
          "type": "string"
        }
      ],
      "stateMutability": "view",
      "type": "function"
    },
    {
      "inputs": [
        {
          "internalType": "address",
          "name": "owner",
          "type": "address"
        }
      ],
      "name": "viewItems",
      "outputs": [
        {
          "internalType": "uint256[]",
          "name": "",
          "type": "uint256[]"
        }
      ],
      "stateMutability": "view",
      "type": "function"
    },
    {
      "inputs": [
        {
          "internalType": "address",
          "name": "wallet",
          "type": "address"
        }
      ],
      "name": "withdrawAllFunds",
      "outputs": [],
      "stateMutability": "nonpayable",
      "type": "function"
    },
    {
      "inputs": [
        {
          "internalType": "address",
          "name": "wallet",
          "type": "address"
        },
        {
          "internalType": "uint256",
          "name": "amount",
          "type": "uint256"
        }
      ],
      "name": "withdrawFunds",
      "outputs": [],
      "stateMutability": "nonpayable",
      "type": "function"
    },
    {
      "stateMutability": "payable",
      "type": "receive"
    }
  ],
  "bytecode": "0x610120604052600c805460ff191660011790553480156200001f57600080fd5b5060405162005b9038038062005b908339810160408190526200004291620001de565b60408051602081019091526000815286906200005e8162000102565b506001600160601b0319606091821b811660805296901b90951660a05260c09384526001600160c01b03199290931b9190911660e09081526001600160e01b031991901b1661010052600480546001600160a01b039384166001600160a01b0319918216179091556005805493909216928116929092179055600680549091163317905560006008819055600a556001600b55600c805461ff0019169055620002ac565b8051620001179060029060208401906200011b565b5050565b82805462000129906200026f565b90600052602060002090601f0160209004810192826200014d576000855562000198565b82601f106200016857805160ff191683800117855562000198565b8280016001018555821562000198579182015b82811115620001985782518255916020019190600101906200017b565b50620001a6929150620001aa565b5090565b5b80821115620001a65760008155600101620001ab565b80516001600160a01b0381168114620001d957600080fd5b919050565b60008060008060008060c08789031215620001f857600080fd5b6200020387620001c1565b6020880151604089015191975095506001600160401b03811681146200022857600080fd5b606088015190945063ffffffff811681146200024357600080fd5b92506200025360808801620001c1565b91506200026360a08801620001c1565b90509295509295509295565b600181811c908216806200028457607f821691505b60208210811415620002a657634e487b7160e01b600052602260045260246000fd5b50919050565b60805160601c60a05160601c60c05160e05160c01c6101005160e01c61587062000320600039600081816109d90152611d0d01526000818161056d0152611cda0152600081816107570152611cac0152600081816108200152611d48015260008181611412015261145401526158706000f3fe6080604052600436106102f95760003560e01c80638dc5f45b11610191578063c1075329116100e2578063de08f65311610090578063de08f65314610a28578063e289fcb614610a3d578063e7fb74c714610a57578063e985e9c514610a77578063f23a6e6114610a97578063f242432a14610ac3578063f48c9d3414610ae3578063fd210fd914610b0357600080fd5b8063c107532914610924578063c7be7a4914610944578063c7e05f8d14610971578063ca90958f14610991578063d547741f146109a7578063d757d027146109c7578063dd006d31146109fb57600080fd5b8063a7bc77c61161013f578063a7bc77c6146107ee578063aebc45501461080e578063b2ead3c71461084f578063b63b861214610871578063b85e67af1461089d578063bbcbc2e7146108bd578063bc197c81146108df57600080fd5b80638dc5f45b146107255780638e879c8a1461074557806391d1485414610779578063976298f314610799578063a217fddf146106d0578063a22cb465146107ae578063a7b19424146107ce57600080fd5b806336568abe1161024b57806367dd74ca116101f957806367dd74ca1461063e57806367f082b01461065e578063704b6c021461068657806372cf6e34146106a657806375b238fc146106d05780637e420db5146106e557806384203f4b1461070557600080fd5b806336568abe1461053b578063470cdf971461055b5780634a226657146105a75780634e1273f4146105bc57806357f7789e146105e9578063616524501461060957806361c073d61461061e57600080fd5b80631fe543e3116102a85780631fe543e31461043e57806320ba08141461045e578063248a9ca31461048b5780632ce38190146104bb5780632eb2c2d6146104db5780632f2ff15d146104fb57806332dee40b1461051b57600080fd5b8062fdd58e1461030557806301ffc9a714610338578063020f1980146103685780630e89341c1461038a57806319c08575146103b75780631c7cbe4f146103fe5780631cb0b2731461041e57600080fd5b3661030057005b600080fd5b34801561031157600080fd5b50610325610320366004614ca8565b610b19565b6040519081526020015b60405180910390f35b34801561034457600080fd5b50610358610353366004614dfb565b610bb3565b604051901515815260200161032f565b34801561037457600080fd5b50610388610383366004614eda565b610bbe565b005b34801561039657600080fd5b506103aa6103a5366004614dbf565b610e39565b60405161032f91906152e8565b3480156103c357600080fd5b506103d76103d2366004614dbf565b610edb565b604080516001600160a01b039094168452602084019290925215159082015260600161032f565b34801561040a57600080fd5b50610388610419366004614f28565b611201565b34801561042a57600080fd5b50610388610439366004614dbf565b61136a565b34801561044a57600080fd5b50610388610459366004614e4e565b611407565b34801561046a57600080fd5b50610325610479366004614dbf565b60009081526010602052604090205490565b34801561049757600080fd5b506103256104a6366004614dbf565b60009081526003602052604090206001015490565b3480156104c757600080fd5b506103886104d6366004614dbf565b61148f565b3480156104e757600080fd5b506103886104f6366004614b64565b6114c1565b34801561050757600080fd5b50610388610516366004614dd8565b611558565b34801561052757600080fd5b50610388610536366004614b16565b611582565b34801561054757600080fd5b50610388610556366004614dd8565b611743565b34801561056757600080fd5b5061058f7f000000000000000000000000000000000000000000000000000000000000000081565b6040516001600160401b03909116815260200161032f565b3480156105b357600080fd5b506103886117bd565b3480156105c857600080fd5b506105dc6105d7366004614cd2565b611ad0565b60405161032f919061527f565b3480156105f557600080fd5b50610388610604366004614e8a565b611bf9565b34801561061557600080fd5b50610325611c9d565b34801561062a57600080fd5b50610388610639366004614dbf565b611dc4565b34801561064a57600080fd5b50610388610659366004614dbf565b61211d565b34801561066a57600080fd5b50610673600381565b60405161ffff909116815260200161032f565b34801561069257600080fd5b506103886106a1366004614b16565b6125e6565b3480156106b257600080fd5b506106bb600281565b60405163ffffffff909116815260200161032f565b3480156106dc57600080fd5b50610325600081565b3480156106f157600080fd5b50610388610700366004614dbf565b61261b565b34801561071157600080fd5b50610358610720366004614b16565b612753565b34801561073157600080fd5b50610388610740366004614dbf565b6127f0565b34801561075157600080fd5b506103257f000000000000000000000000000000000000000000000000000000000000000081565b34801561078557600080fd5b50610358610794366004614dd8565b61284a565b3480156107a557600080fd5b50600b54610325565b3480156107ba57600080fd5b506103886107c9366004614c71565b612875565b3480156107da57600080fd5b506103886107e9366004614eda565b612880565b3480156107fa57600080fd5b50610388610809366004614dbf565b61295e565b34801561081a57600080fd5b506108427f000000000000000000000000000000000000000000000000000000000000000081565b60405161032f91906150b4565b34801561085b57600080fd5b50610864612a81565b60405161032f91906151ef565b34801561087d57600080fd5b50600c5461089090610100900460ff1681565b60405161032f91906152c0565b3480156108a957600080fd5b506103886108b8366004614efc565b612c7e565b3480156108c957600080fd5b506108d2612f97565b60405161032f919061523d565b3480156108eb57600080fd5b5061090b6108fa366004614b64565b63bc197c8160e01b95945050505050565b6040516001600160e01b0319909116815260200161032f565b34801561093057600080fd5b5061038861093f366004614ca8565b61316b565b34801561095057600080fd5b5061096461095f366004614dbf565b6132b7565b60405161032f9190615573565b34801561097d57600080fd5b5061032561098c366004614dbf565b613335565b34801561099d57600080fd5b50610325600b5481565b3480156109b357600080fd5b506103886109c2366004614dd8565b61336c565b3480156109d357600080fd5b506106bb7f000000000000000000000000000000000000000000000000000000000000000081565b348015610a0757600080fd5b50610a1b610a16366004614dbf565b613391565b60405161032f9190615565565b348015610a3457600080fd5b5061038861341f565b348015610a4957600080fd5b50600c546103589060ff1681565b348015610a6357600080fd5b50610388610a72366004614dbf565b613486565b348015610a8357600080fd5b50610358610a92366004614b31565b6138f0565b348015610aa357600080fd5b5061090b610ab2366004614c0d565b63f23a6e6160e01b95945050505050565b348015610acf57600080fd5b50610388610ade366004614c0d565b61391e565b348015610aef57600080fd5b506105dc610afe366004614b16565b6139a5565b348015610b0f57600080fd5b50610325600f5481565b60006001600160a01b038316610b8a5760405162461bcd60e51b815260206004820152602b60248201527f455243313135353a2062616c616e636520717565727920666f7220746865207a60448201526a65726f206164647265737360a81b60648201526084015b60405180910390fd5b506000818152602081815260408083206001600160a01b03861684529091529020545b92915050565b6000610bad82613a69565b6000610bca3384610b19565b11610c095760405162461bcd60e51b815260206004820152600f60248201526e24ba32b6903737ba103337bab7321760891b6044820152606401610b81565b610c1333306138f0565b610c5f5760405162461bcd60e51b815260206004820152601f60248201527f417070726f766564206973206e6f7420636f72726563746c7920646f6e652e006044820152606401610b81565b60008111610caf5760405162461bcd60e51b815260206004820152601c60248201527f5072696365206d7573742062652067726561746572207468616e2030000000006044820152606401610b81565b3360009081526016602090815260408083208584529091528120805460019290610cda9084906155a4565b90915550506040805160a08101825283815260098054602083019081529282018481523360608401908152600160808501818152600d80549283018155600090815295517fd7b6990105719101dabeb77144f2a3385c8033acd3af97e9423a695e81ad1eb560049093029283015595517fd7b6990105719101dabeb77144f2a3385c8033acd3af97e9423a695e81ad1eb682015591517fd7b6990105719101dabeb77144f2a3385c8033acd3af97e9423a695e81ad1eb7830155517fd7b6990105719101dabeb77144f2a3385c8033acd3af97e9423a695e81ad1eb8909101805494516001600160a01b039092166001600160a81b031990951694909417600160a01b911515919091021790925581549190610df5836156b4565b91905055507f23cba88d6c6f26b62b2cfc32a2cc04fbbde8590188b97cd3590e45af9ac6dd6d338383604051610e2d939291906151a8565b60405180910390a15050565b6000818152601160205260409020805460609190610e569061564d565b80601f0160208091040260200160405190810160405280929190818152602001828054610e829061564d565b8015610ecf5780601f10610ea457610100808354040283529160200191610ecf565b820191906000526020600020905b815481529060010190602001808311610eb257829003601f168201915b50505050509050919050565b600080600080600e8581548110610ef457610ef4615725565b90600052602060002090600702016005015411610f4d5760405162461bcd60e51b81526020600482015260176024820152762a34b1b5b2ba1034b9903737ba1039b7b632103cb2ba1760491b6044820152606401610b81565b6000600e8581548110610f6257610f62615725565b906000526020600020906007020160010154600014156110ba57600e8581548110610f8f57610f8f615725565b906000526020600020906007020160020154603c610fad91906155d0565b603c600e8781548110610fc257610fc2615725565b90600052602060002090600702016005015442610fdf91906155ef565b610fe991906155bc565b141561102e5760009050600e858154811061100657611006615725565b600091825260208220600460079092020101546001600160a01b0316945090925090506111fa565b603c600e868154811061104357611043615725565b9060005260206000209060070201600501544261106091906155ef565b61106a91906155bc565b600e868154811061107d5761107d615725565b906000526020600020906007020160020154603c61109b91906155d0565b6110a591906155ef565b9050600e858154811061100657611006615725565b600e85815481106110cd576110cd615725565b906000526020600020906007020160020154603c6110eb91906155d0565b603c600e878154811061110057611100615725565b9060005260206000209060070201600501544261111d91906155ef565b61112791906155bc565b141561116e5760009050600e858154811061114457611144615725565b60009182526020909120600460079092020101546001600160a01b031693509150600190506111fa565b603c600e868154811061118357611183615725565b906000526020600020906007020160050154426111a091906155ef565b6111aa91906155bc565b600e86815481106111bd576111bd615725565b906000526020600020906007020160020154603c6111db91906155d0565b6111e591906155ef565b9050600e858154811061114457611144615725565b9193909250565b61120a33612753565b6112265760405162461bcd60e51b8152600401610b8190615474565b3360009081526012602052604090205460ff166112555760405162461bcd60e51b8152600401610b8190615378565b336001600160a01b0316600e858154811061127257611272615725565b60009182526020909120600460079092020101546001600160a01b0316146112ac5760405162461bcd60e51b8152600401610b8190615343565b80600e85815481106112c0576112c0615725565b90600052602060002090600702016003018190555081600e85815481106112e9576112e9615725565b90600052602060002090600702016002018190555082600e858154811061131257611312615725565b9060005260206000209060070201600101819055507f0fcd915268f7fe921a6c99bd903199d2f30c7f65a422416bfd1de6a264b8264d3384848460405161135c94939291906151c9565b60405180910390a150505050565b60006113763383610b19565b1161138057600080fd5b61138c33826001613a8e565b60008181526010602052604081208054600192906113ab9084906155ef565b925050819055506001600760008282546113c591906155ef565b90915550506040517f9e90d55d2f1f115ffe1b87372c45f27f6b3a2b5ba392942167be784561890094906113fc903390849061518f565b60405180910390a150565b336001600160a01b037f000000000000000000000000000000000000000000000000000000000000000016146114815760405163073e64fd60e21b81523360048201526001600160a01b037f0000000000000000000000000000000000000000000000000000000000000000166024820152604401610b81565b61148b8282613bfd565b5050565b61149833613c22565b6114b45760405162461bcd60e51b8152600401610b81906154f5565b6114be3082613c58565b50565b6001600160a01b0385163314806114dd57506114dd85336138f0565b6115445760405162461bcd60e51b815260206004820152603260248201527f455243313135353a207472616e736665722063616c6c6572206973206e6f74206044820152711bdddb995c881b9bdc88185c1c1c9bdd995960721b6064820152608401610b81565b6115518585858585613cc3565b5050505050565b60008281526003602052604090206001015461157381613ea0565b61157d8383613eaa565b505050565b6006546001600160a01b031633146115ac5760405162461bcd60e51b8152600401610b8190615536565b6005546040516370a0823160e01b81526000916001600160a01b0316906370a08231906115dd9030906004016150b4565b60206040518083038186803b1580156115f557600080fd5b505afa158015611609573d6000803e3d6000fd5b505050506040513d601f19601f8201168201806040525081019061162d9190614e35565b1161164a5760405162461bcd60e51b8152600401610b81906153be565b6005546040516370a0823160e01b81526001600160a01b039091169063a9059cbb90839083906370a08231906116849030906004016150b4565b60206040518083038186803b15801561169c57600080fd5b505afa1580156116b0573d6000803e3d6000fd5b505050506040513d601f19601f820116820180604052508101906116d49190614e35565b6040518363ffffffff1660e01b81526004016116f192919061518f565b602060405180830381600087803b15801561170b57600080fd5b505af115801561171f573d6000803e3d6000fd5b505050506040513d601f19601f8201168201806040525081019061148b9190614da2565b6001600160a01b03811633146117b35760405162461bcd60e51b815260206004820152602f60248201527f416363657373436f6e74726f6c3a2063616e206f6e6c792072656e6f756e636560448201526e103937b632b9903337b91039b2b63360891b6064820152608401610b81565b61148b8282613f30565b3360009081526013602052604090205460ff166118375760405162461bcd60e51b815260206004820152603260248201527f5573657220646f6573206e6f74206f776e732061205469636b657420666f722060448201527137b832b73734b733903a34329031b0b9b29760711b6064820152608401610b81565b6000600754116118895760405162461bcd60e51b815260206004820152601c60248201527f546865726520617265206e6f206974656d73206176616c6961626c65000000006044820152606401610b81565b6000600c54610100900460ff1660018111156118a7576118a761570f565b146119025760405162461bcd60e51b815260206004820152602560248201527f436f6e7472616374206973206e6f74206163746976652061742074686973206d6044820152641bdb595b9d60da1b6064820152608401610b81565b600554600b546040516323b872dd60e01b81526001600160a01b03909216916323b872dd916119379133913091600401615126565b602060405180830381600087803b15801561195157600080fd5b505af1158015611965573d6000803e3d6000fd5b505050506040513d601f19601f820116820180604052508101906119899190614da2565b506000600754611997611c9d565b6119a191906156cf565b9050600080805b600854811015611a77576000818152601060205260408120546119cb90856155a4565b9050808511156119dd57809350611a64565b8192506119ea3084610b19565b611a2c5760006119fb6001856155ef565b90505b6000611a0a3083610b19565b1115611a1857809350611a2a565b80611a2281615636565b9150506119fe565b505b611a49303385600160405180602001604052806000815250613f97565b60078054906000611a5983615636565b919050555050611a77565b5080611a6f816156b4565b9150506119a8565b50611a8133612753565b611a8e57611a8e336140af565b7fea32e37a2618dbb680c93d891742e9e13b30d184822562a0ee3c09290fd42b4333600b5483604051611ac3939291906151a8565b60405180910390a1505050565b60608151835114611b355760405162461bcd60e51b815260206004820152602960248201527f455243313135353a206163636f756e747320616e6420696473206c656e677468604482015268040dad2e6dac2e8c6d60bb1b6064820152608401610b81565b600083516001600160401b03811115611b5057611b5061573b565b604051908082528060200260200182016040528015611b79578160200160208202803683370190505b50905060005b8451811015611bf157611bc4858281518110611b9d57611b9d615725565b6020026020010151858381518110611bb757611bb7615725565b6020026020010151610b19565b828281518110611bd657611bd6615725565b6020908102919091010152611bea816156b4565b9050611b7f565b509392505050565b611c0233613c22565b611c1e5760405162461bcd60e51b8152600401610b81906154f5565b60008281526011602052604090208054611c379061564d565b159050611c7e5760405162461bcd60e51b815260206004820152601560248201527443616e206e6f74207365742075726920747769636560581b6044820152606401610b81565b6000828152601160209081526040909120825161157d928401906148f0565b6040516305d3b1d360e41b81527f000000000000000000000000000000000000000000000000000000000000000060048201526001600160401b037f00000000000000000000000000000000000000000000000000000000000000001660248201526003604482015263ffffffff7f00000000000000000000000000000000000000000000000000000000000000001660648201526002608482015260009081906001600160a01b037f00000000000000000000000000000000000000000000000000000000000000001690635d3b1d309060a401602060405180830381600087803b158015611d8c57600080fd5b505af1158015611da0573d6000803e3d6000fd5b505050506040513d601f19601f82011682018060405250810190610bad9190614e35565b611dcd33612753565b611de95760405162461bcd60e51b8152600401610b8190615474565b3360009081526015602052604090205460ff16611e485760405162461bcd60e51b815260206004820152601c60248201527f5573657220646964206e6f742073656c6c20616e79205469636b6574000000006044820152606401610b81565b600e8181548110611e5b57611e5b615725565b90600052602060002090600702016001015460001480611ee55750600e8181548110611e8957611e89615725565b906000526020600020906007020160020154603c611ea791906155d0565b603c600e8381548110611ebc57611ebc615725565b90600052602060002090600702016005015442611ed991906155ef565b611ee391906155bc565b145b611f4f5760405162461bcd60e51b815260206004820152603560248201527f4475726174696f6e206f6620746865205469636b6574206f72206e756d5472696044820152746573206973207374696c6c206176616c6961626c6560581b6064820152608401610b81565b6000600e8281548110611f6457611f64615725565b906000526020600020906007020160040160009054906101000a90046001600160a01b03169050600060136000600e8581548110611fa457611fa4615725565b60009182526020808320600460079093020191909101546001600160a01b031683528281019390935260409182018120805494151560ff1995861617905533808252601384528282208054861660011790556015909352208054909216909155600e80548490811061201857612018615725565b906000526020600020906007020160040160006101000a8154816001600160a01b0302191690836001600160a01b031602179055506001600e838154811061206257612062615725565b906000526020600020906007020160060160006101000a81548160ff021916908315150217905550600160136000600e85815481106120a3576120a3615725565b60009182526020808320600792909202909101600401546001600160a01b039081168452838201949094526040928301909120805460ff1916941515949094179093558051918416825233928201929092527f5093646a80c0a81f51115fbf5ec8379ecf902ae2ba552c74599cbe844dcb53e39101610e2d565b61212633612753565b156121735760405162461bcd60e51b815260206004820152601f60248201527f412056495020757365722063616e206e6f74206275792061207469636b6574006044820152606401610b81565b336001600160a01b0316600e828154811061219057612190615725565b60009182526020909120600460079092020101546001600160a01b031614156122095760405162461bcd60e51b815260206004820152602560248201527f596f752063616e206e6f74206275792061207469636b657420746f20796f75726044820152641039b2b63360d91b6064820152608401610b81565b600e818154811061221c5761221c615725565b600091825260209091206006600790920201015460ff16151560011461228e5760405162461bcd60e51b815260206004820152602160248201527f5469636b6574206973206e6f742063757272656e746c79206176616c6961626c6044820152606560f81b6064820152608401610b81565b6000600e82815481106122a3576122a3615725565b6000918252602090912060079091020160040154600554600e80546001600160a01b03938416945092909116916323b872dd913391869081106122e8576122e8615725565b906000526020600020906007020160040160009054906101000a90046001600160a01b0316600e868154811061232057612320615725565b9060005260206000209060070201600301546040518463ffffffff1660e01b815260040161235093929190615126565b602060405180830381600087803b15801561236a57600080fd5b505af115801561237e573d6000803e3d6000fd5b505050506040513d601f19601f820116820180604052508101906123a29190614da2565b5042600e83815481106123b7576123b7615725565b906000526020600020906007020160050181905550600060136000600e85815481106123e5576123e5615725565b60009182526020808320600792909202909101600401546001600160a01b031683528201929092526040018120805460ff191692151592909217909155600e805460129183918690811061243b5761243b615725565b60009182526020808320600792909202909101600401546001600160a01b031683528201929092526040018120805460ff191692151592909217909155600e805460019260159290918690811061249457612494615725565b60009182526020808320600460079093020191909101546001600160a01b031683528281019390935260409182018120805494151560ff19958616179055338082526013909352208054909216600117909155600e8054849081106124fb576124fb615725565b906000526020600020906007020160040160006101000a8154816001600160a01b0302191690836001600160a01b031602179055506000600e838154811061254557612545615725565b906000526020600020906007020160060160006101000a81548160ff0219169083151502179055507f060f7dd92424d6f1af65d2fe9acba5b63d299cc26cd8eb26403ca371bc9fbfbb828233600e86815481106125a4576125a4615725565b906000526020600020906007020160030154604051610e2d94939291909384526001600160a01b03928316602085015291166040830152606082015260800190565b6006546001600160a01b031633146126105760405162461bcd60e51b8152600401610b8190615536565b6114be600082614200565b61262433612753565b6126405760405162461bcd60e51b8152600401610b8190615474565b3360009081526012602052604090205460ff1661266f5760405162461bcd60e51b8152600401610b8190615378565b336001600160a01b0316600e828154811061268c5761268c615725565b60009182526020909120600460079092020101546001600160a01b0316146126c65760405162461bcd60e51b8152600401610b8190615343565b6000600e82815481106126db576126db615725565b60009182526020808320600660079093020191909101805493151560ff1994851617905533808352601282526040808420805486169055601390925291819020805490931660011790925590517f5dbab6b1e9ddd154d6eb51aa5622fb5278ea62a0b5f81d046a945d899490f631916113fc916150b4565b600480546040516370a0823160e01b815260009283926001600160a01b0316916370a0823191612785918791016150b4565b60206040518083038186803b15801561279d57600080fd5b505afa1580156127b1573d6000803e3d6000fd5b505050506040513d601f19601f820116820180604052508101906127d59190614e35565b11156127e357506001919050565b506000919050565b919050565b6127f933613c22565b6128155760405162461bcd60e51b8152600401610b81906154f5565b600b8190556040518181527f06cd74aabc11982a85b554df4d7833623303656fe69bed4db1b0cb3245feebe3906020016113fc565b60009182526003602090815260408084206001600160a01b0393909316845291905290205460ff1690565b61148b33838361420a565b336001600160a01b0316600d838154811061289d5761289d615725565b60009182526020909120600360049092020101546001600160a01b0316146128d75760405162461bcd60e51b8152600401610b81906153ec565b6000600d83815481106128ec576128ec615725565b906000526020600020906004020160020154905081600d848154811061291457612914615725565b9060005260206000209060040201600201819055507fb141d00f22a670547caacc412e6489d8edaba6a840df558118363ce1a40d6ed233848385604051611ac394939291906151c9565b336001600160a01b0316600d828154811061297b5761297b615725565b60009182526020909120600360049092020101546001600160a01b0316146129b55760405162461bcd60e51b8152600401610b81906153ec565b336000908152601660205260408120600d80546001939190859081106129dd576129dd615725565b90600052602060002090600402016000015481526020019081526020016000206000828254612a0c91906155ef565b925050819055506000600d8281548110612a2857612a28615725565b906000526020600020906004020160030160146101000a81548160ff0219169083151502179055507fc9cedcca3d85d6009a562a9e70071f6288adabda9ba7f059589165e75c9cf40433826040516113fc92919061518f565b60606000805b600e54811015612b41576000600e8281548110612aa657612aa6615725565b60009182526020918290206040805160e081018252600790930290910180548352600180820154948401949094526002810154918301919091526003810154606083015260048101546001600160a01b03166080830152600581015460a08301526006015460ff16151560c082018190529092501415612b2e57612b2b6001846155a4565b92505b5080612b39816156b4565b915050612a87565b506000816001600160401b03811115612b5c57612b5c61573b565b604051908082528060200260200182016040528015612b9557816020015b612b82614974565b815260200190600190039081612b7a5790505b5090506000805b600e54811015612c75576000600e8281548110612bbb57612bbb615725565b60009182526020918290206040805160e081018252600790930290910180548352600180820154948401949094526002810154918301919091526003810154606083015260048101546001600160a01b03166080830152600581015460a08301526006015460ff16151560c082018190529092501415612c625780848481518110612c4857612c48615725565b60200260200101819052508280612c5e906156b4565b9350505b5080612c6d816156b4565b915050612b9c565b50909392505050565b612c8733612753565b612ca35760405162461bcd60e51b8152600401610b8190615474565b3360009081526012602052604090205460ff1615612d165760405162461bcd60e51b815260206004820152602a60248201527f5573657220697320616c72656164792063757272656e746c792073656c6c696e60448201526919c81848151a58dad95d60b21b6064820152608401610b81565b3360009081526014602052604090205460ff1615612d8d573360009081526013602052604090205460ff16612d8d5760405162461bcd60e51b815260206004820152601d60248201527f5573657220686173206e6f74207469636b6574206176616c6961626c650000006044820152606401610b81565b6040805160e081018252600a8054825260208201868152928201858152606083018581523360808501908152600060a08601818152600160c08801818152600e80549283018155845297517fbb7b4a454dc3493923482f07822329ed19e8244eff582cc204f8554c3620c3fd60079092029182015597517fbb7b4a454dc3493923482f07822329ed19e8244eff582cc204f8554c3620c3fe89015593517fbb7b4a454dc3493923482f07822329ed19e8244eff582cc204f8554c3620c3ff88015591517fbb7b4a454dc3493923482f07822329ed19e8244eff582cc204f8554c3620c400870155517fbb7b4a454dc3493923482f07822329ed19e8244eff582cc204f8554c3620c401860180546001600160a01b0319166001600160a01b0390921691909117905590517fbb7b4a454dc3493923482f07822329ed19e8244eff582cc204f8554c3620c40285015591517fbb7b4a454dc3493923482f07822329ed19e8244eff582cc204f8554c3620c403909301805460ff19169315159390931790925581549190612f1e836156b4565b90915550503360008181526012602090815260408083208054600160ff199182168117909255601484528285208054821690921790915560139092529182902080549091169055517f07814713aba2e13eb5f2470225f7395d33fad1452b70f8427dae73e4d3a5934491611ac3918690869086906151c9565b60606000805b600d54811015613047576000600d8281548110612fbc57612fbc615725565b60009182526020918290206040805160a08101825260049093029091018054835260018082015494840194909452600281015491830191909152600301546001600160a01b038116606083015260ff600160a01b909104161515608082018190529092501415613034576130316001846155a4565b92505b508061303f816156b4565b915050612f9d565b506000816001600160401b038111156130625761306261573b565b60405190808252806020026020018201604052801561309b57816020015b6130886149bc565b8152602001906001900390816130805790505b5090506000805b600d54811015612c75576000600d82815481106130c1576130c1615725565b60009182526020918290206040805160a08101825260049093029091018054835260018082015494840194909452600281015491830191909152600301546001600160a01b038116606083015260ff600160a01b909104161515608082018190529092501415613158578084848151811061313e5761313e615725565b60200260200101819052508280613154906156b4565b9350505b5080613163816156b4565b9150506130a2565b6006546001600160a01b031633146131955760405162461bcd60e51b8152600401610b8190615536565b6005546040516370a0823160e01b81526000916001600160a01b0316906370a08231906131c69030906004016150b4565b60206040518083038186803b1580156131de57600080fd5b505afa1580156131f2573d6000803e3d6000fd5b505050506040513d601f19601f820116820180604052508101906132169190614e35565b116132335760405162461bcd60e51b8152600401610b81906153be565b60055460405163a9059cbb60e01b81526001600160a01b039091169063a9059cbb90613265908590859060040161518f565b602060405180830381600087803b15801561327f57600080fd5b505af1158015613293573d6000803e3d6000fd5b505050506040513d601f19601f8201168201806040525081019061157d9190614da2565b6132bf6149bc565b600d82815481106132d2576132d2615725565b60009182526020918290206040805160a0810182526004909302909101805483526001810154938301939093526002830154908201526003909101546001600160a01b038116606083015260ff600160a01b909104161515608082015292915050565b6000613340826142eb565b61334957600080fd5b60008281526010602052604081205460075461336591906155bc565b9392505050565b60008281526003602052604090206001015461338781613ea0565b61157d8383613f30565b613399614974565b600e82815481106133ac576133ac615725565b60009182526020918290206040805160e0810182526007909302909101805483526001810154938301939093526002830154908201526003820154606082015260048201546001600160a01b03166080820152600582015460a082015260069091015460ff16151560c082015292915050565b61342833613c22565b6134445760405162461bcd60e51b8152600401610b81906154f5565b6000600c54610100900460ff1660018111156134625761346261570f565b141561347957600c805461ff001916610100179055565b600c805461ff0019169055565b6000600d828154811061349b5761349b615725565b60009182526020918290206040805160a0810182526004909302909101805483526001810154938301939093526002830154908201526003909101546001600160a01b038116606083015260ff600160a01b9091041615156080820152600d8054919250908390811061351057613510615725565b60009182526020909120600490910201600301546001600160a01b03163314156135885760405162461bcd60e51b815260206004820152602360248201527f596f752063616e206e6f742062757920616e206974656d20746f20796f75727360448201526232b63360e91b6064820152608401610b81565b600d828154811061359b5761359b615725565b906000526020600020906004020160030160149054906101000a900460ff16151560011515146136175760405162461bcd60e51b815260206004820152602160248201527f54686973206974656d206973206e6f74206f6e2073616c6520616e796d6f72656044820152601760f91b6064820152608401610b81565b600554600d80546001600160a01b03909216916323b872dd9133918690811061364257613642615725565b906000526020600020906004020160030160009054906101000a90046001600160a01b0316600d868154811061367a5761367a615725565b9060005260206000209060040201600201546040518463ffffffff1660e01b81526004016136aa93929190615126565b602060405180830381600087803b1580156136c457600080fd5b505af11580156136d8573d6000803e3d6000fd5b505050506040513d601f19601f820116820180604052508101906136fc9190614da2565b50613775600d838154811061371357613713615725565b906000526020600020906004020160030160009054906101000a90046001600160a01b031633600d858154811061374c5761374c615725565b906000526020600020906004020160000154600160405180602001604052806000815250613f97565b60608101516001600160a01b031660009081526016602090815260408083208451845290915281208054600192906137ae9084906155ef565b925050819055506000600d83815481106137ca576137ca615725565b906000526020600020906004020160030160009054906101000a90046001600160a01b0316905033600d848154811061380557613805615725565b906000526020600020906004020160030160006101000a8154816001600160a01b0302191690836001600160a01b031602179055506000600d848154811061384f5761384f615725565b906000526020600020906004020160030160146101000a81548160ff0219169083151502179055507f642067ff529c9b5b1162502fc8e8a3a91dda56e126a84f2fe38d341236231a82338285600d87815481106138ae576138ae615725565b600091825260209182902060026004909202010154604080516001600160a01b0396871681529590941691850191909152918301526060820152608001611ac3565b6001600160a01b03918216600090815260016020908152604080832093909416825291909152205460ff1690565b6001600160a01b03851633148061393a575061393a85336138f0565b6139985760405162461bcd60e51b815260206004820152602960248201527f455243313135353a2063616c6c6572206973206e6f74206f776e6572206e6f7260448201526808185c1c1c9bdd995960ba1b6064820152608401610b81565b6115518585858585613f97565b606060006008546001600160401b038111156139c3576139c361573b565b6040519080825280602002602001820160405280156139ec578160200160208202803683370190505b50905060005b8151811015613a62576001600160a01b0384166000908152601660209081526040808320848452909152902054613a298583610b19565b613a3391906155ef565b828281518110613a4557613a45615725565b602090810291909101015280613a5a816156b4565b9150506139f2565b5092915050565b60006001600160e01b03198216637965db0b60e01b1480610bad5750610bad82614303565b6001600160a01b038316613af05760405162461bcd60e51b815260206004820152602360248201527f455243313135353a206275726e2066726f6d20746865207a65726f206164647260448201526265737360e81b6064820152608401610b81565b336000613afc84614328565b90506000613b0984614328565b60408051602080820183526000918290528882528181528282206001600160a01b038b1683529052205490915084811015613b925760405162461bcd60e51b8152602060048201526024808201527f455243313135353a206275726e20616d6f756e7420657863656564732062616c604482015263616e636560e01b6064820152608401610b81565b6000868152602081815260408083206001600160a01b038b81168086529184528285208a8703905582518b81529384018a905290929088169160008051602061581b833981519152910160405180910390a46040805160208101909152600090525b50505050505050565b80600081518110613c1057613c10615725565b6020026020010151600f819055505050565b6006546000906001600160a01b0383811691161480613c475750613c4760008361284a565b613c5057600080fd5b506001919050565b613c75826008548360405180602001604052806000815250614373565b613c8e6008548260009182526010602052604090912055565b8060076000828254613ca091906155a4565b92505081905550600160086000828254613cba91906155a4565b90915550505050565b8151835114613d255760405162461bcd60e51b815260206004820152602860248201527f455243313135353a2069647320616e6420616d6f756e7473206c656e677468206044820152670dad2e6dac2e8c6d60c31b6064820152608401610b81565b6001600160a01b038416613d4b5760405162461bcd60e51b8152600401610b819061542f565b3360005b8451811015613e32576000858281518110613d6c57613d6c615725565b602002602001015190506000858381518110613d8a57613d8a615725565b602090810291909101810151600084815280835260408082206001600160a01b038e168352909352919091205490915081811015613dda5760405162461bcd60e51b8152600401610b81906154ab565b6000838152602081815260408083206001600160a01b038e8116855292528083208585039055908b16825281208054849290613e179084906155a4565b9250508190555050505080613e2b906156b4565b9050613d4f565b50846001600160a01b0316866001600160a01b0316826001600160a01b03167f4a39dc06d4c0dbc64b70af90fd698a233a518aa5d07e595d983b8c0526c8f7fb8787604051613e82929190615292565b60405180910390a4613e9881878787878761446c565b505050505050565b6114be81336145d7565b613eb4828261284a565b61148b5760008281526003602090815260408083206001600160a01b03851684529091529020805460ff19166001179055613eec3390565b6001600160a01b0316816001600160a01b0316837f2f8788117e7eff1d82e926ec794901d17c78024a50270940304540a733656f0d60405160405180910390a45050565b613f3a828261284a565b1561148b5760008281526003602090815260408083206001600160a01b0385168085529252808320805460ff1916905551339285917ff6391f5c32d9c69d2a47ea670b442974b53935d1edc7fd64eb21e047a839171b9190a45050565b6001600160a01b038416613fbd5760405162461bcd60e51b8152600401610b819061542f565b336000613fc985614328565b90506000613fd685614328565b90506000868152602081815260408083206001600160a01b038c168452909152902054858110156140195760405162461bcd60e51b8152600401610b81906154ab565b6000878152602081815260408083206001600160a01b038d8116855292528083208985039055908a168252812080548892906140569084906155a4565b909155505060408051888152602081018890526001600160a01b03808b16928c8216929188169160008051602061581b833981519152910160405180910390a46140a4848a8a8a8a8a61463b565b505050505050505050565b60005b600e5481101561148b57816001600160a01b0316600e82815481106140d9576140d9615725565b60009182526020909120600460079092020101546001600160a01b031614156141ee57600e818154811061410f5761410f615725565b90600052602060002090600702016001015460011461416357600e818154811061413b5761413b615725565b60009182526020822060016007909202010180549161415983615636565b91905055506141ee565b600e818154811061417657614176615725565b60009182526020822060016007909202010180549161419483615636565b91905055506000600e82815481106141ae576141ae615725565b60009182526020808320600660079093020191909101805493151560ff199485161790556001600160a01b03851682526013905260409020805490911690555b806141f8816156b4565b9150506140b2565b61148b8282613eaa565b816001600160a01b0316836001600160a01b0316141561427e5760405162461bcd60e51b815260206004820152602960248201527f455243313135353a2073657474696e6720617070726f76616c20737461747573604482015268103337b91039b2b63360b91b6064820152608401610b81565b6001600160a01b03838116600081815260016020908152604080832094871680845294825291829020805460ff191686151590811790915591519182527f17307eab39ab6107e8899845ad3d59bd9653f200f220920489ca2b5937696c31910160405180910390a3505050565b600081815260106020526040812054613c5057600080fd5b60006001600160e01b03198216630271189760e51b1480610bad5750610bad82614705565b6040805160018082528183019092526060916000919060208083019080368337019050509050828160008151811061436257614362615725565b602090810291909101015292915050565b6001600160a01b0384166143d35760405162461bcd60e51b815260206004820152602160248201527f455243313135353a206d696e7420746f20746865207a65726f206164647265736044820152607360f81b6064820152608401610b81565b3360006143df85614328565b905060006143ec85614328565b90506000868152602081815260408083206001600160a01b038b1684529091528120805487929061441e9084906155a4565b909155505060408051878152602081018790526001600160a01b03808a16926000929187169160008051602061581b833981519152910160405180910390a4613bf48360008989898961463b565b6001600160a01b0384163b15613e985760405163bc197c8160e01b81526001600160a01b0385169063bc197c81906144b090899089908890889088906004016150c8565b602060405180830381600087803b1580156144ca57600080fd5b505af19250505080156144fa575060408051601f3d908101601f191682019092526144f791810190614e18565b60015b6145a757614506615751565b806308c379a01415614540575061451b61576d565b806145265750614542565b8060405162461bcd60e51b8152600401610b8191906152e8565b505b60405162461bcd60e51b815260206004820152603460248201527f455243313135353a207472616e7366657220746f206e6f6e20455243313135356044820152732932b1b2b4bb32b91034b6b83632b6b2b73a32b960611b6064820152608401610b81565b6001600160e01b0319811663bc197c8160e01b14613bf45760405162461bcd60e51b8152600401610b81906152fb565b6145e1828261284a565b61148b576145f9816001600160a01b03166014614755565b614604836020614755565b604051602001614615929190615045565b60408051601f198184030181529082905262461bcd60e51b8252610b81916004016152e8565b6001600160a01b0384163b15613e985760405163f23a6e6160e01b81526001600160a01b0385169063f23a6e619061467f908990899088908890889060040161514a565b602060405180830381600087803b15801561469957600080fd5b505af19250505080156146c9575060408051601f3d908101601f191682019092526146c691810190614e18565b60015b6146d557614506615751565b6001600160e01b0319811663f23a6e6160e01b14613bf45760405162461bcd60e51b8152600401610b81906152fb565b60006001600160e01b03198216636cdb3d1360e11b148061473657506001600160e01b031982166303a24d0760e21b145b80610bad57506301ffc9a760e01b6001600160e01b0319831614610bad565b606060006147648360026155d0565b61476f9060026155a4565b6001600160401b038111156147865761478661573b565b6040519080825280601f01601f1916602001820160405280156147b0576020820181803683370190505b509050600360fc1b816000815181106147cb576147cb615725565b60200101906001600160f81b031916908160001a905350600f60fb1b816001815181106147fa576147fa615725565b60200101906001600160f81b031916908160001a905350600061481e8460026155d0565b6148299060016155a4565b90505b60018111156148a1576f181899199a1a9b1b9c1cb0b131b232b360811b85600f166010811061485d5761485d615725565b1a60f81b82828151811061487357614873615725565b60200101906001600160f81b031916908160001a90535060049490941c9361489a81615636565b905061482c565b5083156133655760405162461bcd60e51b815260206004820181905260248201527f537472696e67733a20686578206c656e67746820696e73756666696369656e746044820152606401610b81565b8280546148fc9061564d565b90600052602060002090601f01602090048101928261491e5760008555614964565b82601f1061493757805160ff1916838001178555614964565b82800160010185558215614964579182015b82811115614964578251825591602001919060010190614949565b506149709291506149f6565b5090565b6040518060e001604052806000815260200160008152602001600081526020016000815260200160006001600160a01b03168152602001600081526020016000151581525090565b6040518060a0016040528060008152602001600081526020016000815260200160006001600160a01b031681526020016000151581525090565b5b8082111561497057600081556001016149f7565b60006001600160401b03831115614a2457614a2461573b565b604051614a3b601f8501601f191660200182615688565b809150838152848484011115614a5057600080fd5b83836020830137600060208583010152509392505050565b80356001600160a01b03811681146127eb57600080fd5b600082601f830112614a9057600080fd5b81356020614a9d82615581565b604051614aaa8282615688565b8381528281019150858301600585901b87018401881015614aca57600080fd5b60005b85811015614ae957813584529284019290840190600101614acd565b5090979650505050505050565b600082601f830112614b0757600080fd5b61336583833560208501614a0b565b600060208284031215614b2857600080fd5b61336582614a68565b60008060408385031215614b4457600080fd5b614b4d83614a68565b9150614b5b60208401614a68565b90509250929050565b600080600080600060a08688031215614b7c57600080fd5b614b8586614a68565b9450614b9360208701614a68565b935060408601356001600160401b0380821115614baf57600080fd5b614bbb89838a01614a7f565b94506060880135915080821115614bd157600080fd5b614bdd89838a01614a7f565b93506080880135915080821115614bf357600080fd5b50614c0088828901614af6565b9150509295509295909350565b600080600080600060a08688031215614c2557600080fd5b614c2e86614a68565b9450614c3c60208701614a68565b9350604086013592506060860135915060808601356001600160401b03811115614c6557600080fd5b614c0088828901614af6565b60008060408385031215614c8457600080fd5b614c8d83614a68565b91506020830135614c9d816157f6565b809150509250929050565b60008060408385031215614cbb57600080fd5b614cc483614a68565b946020939093013593505050565b60008060408385031215614ce557600080fd5b82356001600160401b0380821115614cfc57600080fd5b818501915085601f830112614d1057600080fd5b81356020614d1d82615581565b604051614d2a8282615688565b8381528281019150858301600585901b870184018b1015614d4a57600080fd5b600096505b84871015614d7457614d6081614a68565b835260019690960195918301918301614d4f565b5096505086013592505080821115614d8b57600080fd5b50614d9885828601614a7f565b9150509250929050565b600060208284031215614db457600080fd5b8151613365816157f6565b600060208284031215614dd157600080fd5b5035919050565b60008060408385031215614deb57600080fd5b82359150614b5b60208401614a68565b600060208284031215614e0d57600080fd5b813561336581615804565b600060208284031215614e2a57600080fd5b815161336581615804565b600060208284031215614e4757600080fd5b5051919050565b60008060408385031215614e6157600080fd5b8235915060208301356001600160401b03811115614e7e57600080fd5b614d9885828601614a7f565b60008060408385031215614e9d57600080fd5b8235915060208301356001600160401b03811115614eba57600080fd5b8301601f81018513614ecb57600080fd5b614d9885823560208401614a0b565b60008060408385031215614eed57600080fd5b50508035926020909101359150565b600080600060608486031215614f1157600080fd5b505081359360208301359350604090920135919050565b60008060008060808587031215614f3e57600080fd5b5050823594602084013594506040840135936060013592509050565b600081518084526020808501945080840160005b83811015614f8a57815187529582019590820190600101614f6e565b509495945050505050565b60008151808452614fad816020860160208601615606565b601f01601f19169290920160200192915050565b805182526020808201519083015260408082015190830152606080820151908301526080808201516001600160a01b03169083015260a0808201519083015260c0908101511515910152565b8051825260208082015190830152604080820151908301526060808201516001600160a01b0316908301526080908101511515910152565b76020b1b1b2b9b9a1b7b73a3937b61d1030b1b1b7bab73a1604d1b815260008351615077816017850160208801615606565b7001034b99036b4b9b9b4b733903937b6329607d1b60179184019182015283516150a8816028840160208801615606565b01602801949350505050565b6001600160a01b0391909116815260200190565b6001600160a01b0386811682528516602082015260a0604082018190526000906150f490830186614f5a565b82810360608401526151068186614f5a565b9050828103608084015261511a8185614f95565b98975050505050505050565b6001600160a01b039384168152919092166020820152604081019190915260600190565b6001600160a01b03868116825285166020820152604081018490526060810183905260a06080820181905260009061518490830184614f95565b979650505050505050565b6001600160a01b03929092168252602082015260400190565b6001600160a01b039390931683526020830191909152604082015260600190565b6001600160a01b0394909416845260208401929092526040830152606082015260800190565b6020808252825182820181905260009190848201906040850190845b818110156152315761521e838551614fc1565b9284019260e0929092019160010161520b565b50909695505050505050565b6020808252825182820181905260009190848201906040850190845b818110156152315761526c83855161500d565b9284019260a09290920191600101615259565b6020815260006133656020830184614f5a565b6040815260006152a56040830185614f5a565b82810360208401526152b78185614f5a565b95945050505050565b60208101600283106152e257634e487b7160e01b600052602160045260246000fd5b91905290565b6020815260006133656020830184614f95565b60208082526028908201527f455243313135353a204552433131353552656365697665722072656a656374656040820152676420746f6b656e7360c01b606082015260800190565b6020808252818101527f55736572206973206e6f74206f776e6572206f662074686973207469636b6574604082015260600190565b60208082526026908201527f55736572206973206e6f742063757272656e746c792073656c6c696e67206120604082015265151a58dad95d60d21b606082015260800190565b6020808252601490820152734e6f2066756e647320746f20776974686472617760601b604082015260600190565b60208082526023908201527f596f7520617265206e6f7420746865206f776e6572206f66207468697320697460408201526232b69760e91b606082015260800190565b60208082526025908201527f455243313135353a207472616e7366657220746f20746865207a65726f206164604082015264647265737360d81b606082015260800190565b6020808252601d908201527f5573657220646f6573206e6f74206f776e732061204d7243727970746f000000604082015260600190565b6020808252602a908201527f455243313135353a20696e73756666696369656e742062616c616e636520666f60408201526939103a3930b739b332b960b11b606082015260800190565b60208082526021908201527f55736572206973206e6f7420746865204f776e6572206f7220616e2041646d696040820152603760f91b606082015260800190565b6020808252601590820152742ab9b2b91034b9903737ba103a34329037bbb732b960591b604082015260600190565b60e08101610bad8284614fc1565b60a08101610bad828461500d565b60006001600160401b0382111561559a5761559a61573b565b5060051b60200190565b600082198211156155b7576155b76156e3565b500190565b6000826155cb576155cb6156f9565b500490565b60008160001904831182151516156155ea576155ea6156e3565b500290565b600082821015615601576156016156e3565b500390565b60005b83811015615621578181015183820152602001615609565b83811115615630576000848401525b50505050565b600081615645576156456156e3565b506000190190565b600181811c9082168061566157607f821691505b6020821081141561568257634e487b7160e01b600052602260045260246000fd5b50919050565b601f8201601f191681016001600160401b03811182821017156156ad576156ad61573b565b6040525050565b60006000198214156156c8576156c86156e3565b5060010190565b6000826156de576156de6156f9565b500690565b634e487b7160e01b600052601160045260246000fd5b634e487b7160e01b600052601260045260246000fd5b634e487b7160e01b600052602160045260246000fd5b634e487b7160e01b600052603260045260246000fd5b634e487b7160e01b600052604160045260246000fd5b600060033d111561576a5760046000803e5060005160e01c5b90565b600060443d101561577b5790565b6040516003193d81016004833e81513d6001600160401b0381602484011181841117156157aa57505050505090565b82850191508151818111156157c25750505050505090565b843d87010160208285010111156157dc5750505050505090565b6157eb60208286010187615688565b509095945050505050565b80151581146114be57600080fd5b6001600160e01b0319811681146114be57600080fdfec3d58168c5ae7397731d063d5bbf3d657854427343f4c083240f7aacaa2d0f62a26469706673582212203e73d9d6e5dbe3a20b7a64502d628e3cb72f5f31b9829e1d24f3546eba5c4b9c64736f6c63430008070033",
  "linkReferences": {},
  "deployedLinkReferences": {}
}