{
  "_format": "hh-sol-artifact-1",
  "contractName": "ERC1155Holder",
  "sourceName": "@openzeppelin/contracts/token/ERC1155/utils/ERC1155Holder.sol",
  "abi": [
    {
      "inputs": [
        {
          "internalType": "address",
          "name": "",
          "type": "address"
        },
        {
          "internalType": "address",
          "name": "",
          "type": "address"
        },
        {
          "internalType": "uint256[]",
          "name": "",
          "type": "uint256[]"
        },
        {
          "internalType": "uint256[]",
          "name": "",
          "type": "uint256[]"
        },
        {
          "internalType": "bytes",
          "name": "",
          "type": "bytes"
        }
      ],
      "name": "onERC1155BatchReceived",
      "outputs": [
        {
          "internalType": "bytes4",
          "name": "",
          "type": "bytes4"
        }
      ],
      "stateMutability": "nonpayable",
      "type": "function"
    },
    {
      "inputs": [
        {
          "internalType": "address",
          "name": "",
          "type": "address"
        },
        {
          "internalType": "address",
          "name": "",
          "type": "address"
        },
        {
          "internalType": "uint256",
          "name": "",
          "type": "uint256"
        },
        {
          "internalType": "uint256",
          "name": "",
          "type": "uint256"
        },
        {
          "internalType": "bytes",
          "name": "",
          "type": "bytes"
        }
      ],
      "name": "onERC1155Received",
      "outputs": [
        {
          "internalType": "bytes4",
          "name": "",
          "type": "bytes4"
        }
      ],
      "stateMutability": "nonpayable",
      "type": "function"
    },
    {
      "inputs": [
        {
          "internalType": "bytes4",
          "name": "interfaceId",
          "type": "bytes4"
        }
      ],
      "name": "supportsInterface",
      "outputs": [
        {
          "internalType": "bool",
          "name": "",
          "type": "bool"
        }
      ],
      "stateMutability": "view",
      "type": "function"
    }
  ],
  "bytecode": "0x608060405234801561001057600080fd5b50610455806100206000396000f3fe608060405234801561001057600080fd5b50600436106100415760003560e01c806301ffc9a714610046578063bc197c811461006e578063f23a6e61146100bf575b600080fd5b61005961005436600461038e565b6100f7565b60405190151581526020015b60405180910390f35b6100a661007c36600461027f565b7fbc197c810000000000000000000000000000000000000000000000000000000095945050505050565b6040516001600160e01b03199091168152602001610065565b6100a66100cd366004610329565b7ff23a6e610000000000000000000000000000000000000000000000000000000095945050505050565b60006001600160e01b031982167f4e2312e000000000000000000000000000000000000000000000000000000000148061015a57507f01ffc9a7000000000000000000000000000000000000000000000000000000006001600160e01b03198316145b92915050565b803573ffffffffffffffffffffffffffffffffffffffff8116811461018457600080fd5b919050565b600082601f83011261019a57600080fd5b8135602067ffffffffffffffff8211156101b6576101b66103f0565b8160051b6101c58282016103bf565b8381528281019086840183880185018910156101e057600080fd5b600093505b858410156102035780358352600193909301929184019184016101e5565b50979650505050505050565b600082601f83011261022057600080fd5b813567ffffffffffffffff81111561023a5761023a6103f0565b61024d601f8201601f19166020016103bf565b81815284602083860101111561026257600080fd5b816020850160208301376000918101602001919091529392505050565b600080600080600060a0868803121561029757600080fd5b6102a086610160565b94506102ae60208701610160565b9350604086013567ffffffffffffffff808211156102cb57600080fd5b6102d789838a01610189565b945060608801359150808211156102ed57600080fd5b6102f989838a01610189565b9350608088013591508082111561030f57600080fd5b5061031c8882890161020f565b9150509295509295909350565b600080600080600060a0868803121561034157600080fd5b61034a86610160565b945061035860208701610160565b93506040860135925060608601359150608086013567ffffffffffffffff81111561038257600080fd5b61031c8882890161020f565b6000602082840312156103a057600080fd5b81356001600160e01b0319811681146103b857600080fd5b9392505050565b604051601f8201601f1916810167ffffffffffffffff811182821017156103e8576103e86103f0565b604052919050565b7f4e487b7100000000000000000000000000000000000000000000000000000000600052604160045260246000fdfea264697066735822122042d847755f81306fc738362668cfb4b408048c027ac091b9a8fd280316a371c264736f6c63430008070033",
  "linkReferences": {},
  "deployedLinkReferences": {}
}