{
  "_format": "hh-sol-artifact-1",
  "contractName": "RacksItems",
  "sourceName": "contracts/RacksItems.sol",
  "abi": [
    {
      "inputs": [
        {
          "internalType": "address",
          "name": "vrfCoordinatorV2",
          "type": "address"
        },
        {
          "internalType": "bytes32",
          "name": "gasLane",
          "type": "bytes32"
        },
        {
          "internalType": "uint64",
          "name": "subscriptionId",
          "type": "uint64"
        },
        {
          "internalType": "uint32",
          "name": "callbackGasLimit",
          "type": "uint32"
        },
        {
          "internalType": "contract RacksToken",
          "name": "_racksToken",
          "type": "address"
        }
      ],
      "stateMutability": "nonpayable",
      "type": "constructor"
    },
    {
      "inputs": [
        {
          "internalType": "address",
          "name": "have",
          "type": "address"
        },
        {
          "internalType": "address",
          "name": "want",
          "type": "address"
        }
      ],
      "name": "OnlyCoordinatorCanFulfill",
      "type": "error"
    },
    {
      "anonymous": false,
      "inputs": [
        {
          "indexed": true,
          "internalType": "address",
          "name": "account",
          "type": "address"
        },
        {
          "indexed": true,
          "internalType": "address",
          "name": "operator",
          "type": "address"
        },
        {
          "indexed": false,
          "internalType": "bool",
          "name": "approved",
          "type": "bool"
        }
      ],
      "name": "ApprovalForAll",
      "type": "event"
    },
    {
      "anonymous": false,
      "inputs": [
        {
          "indexed": false,
          "internalType": "address",
          "name": "user",
          "type": "address"
        },
        {
          "indexed": false,
          "internalType": "uint256",
          "name": "casePrice",
          "type": "uint256"
        },
        {
          "indexed": false,
          "internalType": "uint256",
          "name": "item",
          "type": "uint256"
        }
      ],
      "name": "CaseOpened",
      "type": "event"
    },
    {
      "anonymous": false,
      "inputs": [
        {
          "indexed": true,
          "internalType": "bytes32",
          "name": "role",
          "type": "bytes32"
        },
        {
          "indexed": true,
          "internalType": "bytes32",
          "name": "previousAdminRole",
          "type": "bytes32"
        },
        {
          "indexed": true,
          "internalType": "bytes32",
          "name": "newAdminRole",
          "type": "bytes32"
        }
      ],
      "name": "RoleAdminChanged",
      "type": "event"
    },
    {
      "anonymous": false,
      "inputs": [
        {
          "indexed": true,
          "internalType": "bytes32",
          "name": "role",
          "type": "bytes32"
        },
        {
          "indexed": true,
          "internalType": "address",
          "name": "account",
          "type": "address"
        },
        {
          "indexed": true,
          "internalType": "address",
          "name": "sender",
          "type": "address"
        }
      ],
      "name": "RoleGranted",
      "type": "event"
    },
    {
      "anonymous": false,
      "inputs": [
        {
          "indexed": true,
          "internalType": "bytes32",
          "name": "role",
          "type": "bytes32"
        },
        {
          "indexed": true,
          "internalType": "address",
          "name": "account",
          "type": "address"
        },
        {
          "indexed": true,
          "internalType": "address",
          "name": "sender",
          "type": "address"
        }
      ],
      "name": "RoleRevoked",
      "type": "event"
    },
    {
      "anonymous": false,
      "inputs": [
        {
          "indexed": true,
          "internalType": "address",
          "name": "operator",
          "type": "address"
        },
        {
          "indexed": true,
          "internalType": "address",
          "name": "from",
          "type": "address"
        },
        {
          "indexed": true,
          "internalType": "address",
          "name": "to",
          "type": "address"
        },
        {
          "indexed": false,
          "internalType": "uint256[]",
          "name": "ids",
          "type": "uint256[]"
        },
        {
          "indexed": false,
          "internalType": "uint256[]",
          "name": "values",
          "type": "uint256[]"
        }
      ],
      "name": "TransferBatch",
      "type": "event"
    },
    {
      "anonymous": false,
      "inputs": [
        {
          "indexed": true,
          "internalType": "address",
          "name": "operator",
          "type": "address"
        },
        {
          "indexed": true,
          "internalType": "address",
          "name": "from",
          "type": "address"
        },
        {
          "indexed": true,
          "internalType": "address",
          "name": "to",
          "type": "address"
        },
        {
          "indexed": false,
          "internalType": "uint256",
          "name": "id",
          "type": "uint256"
        },
        {
          "indexed": false,
          "internalType": "uint256",
          "name": "value",
          "type": "uint256"
        }
      ],
      "name": "TransferSingle",
      "type": "event"
    },
    {
      "anonymous": false,
      "inputs": [
        {
          "indexed": false,
          "internalType": "string",
          "name": "value",
          "type": "string"
        },
        {
          "indexed": true,
          "internalType": "uint256",
          "name": "id",
          "type": "uint256"
        }
      ],
      "name": "URI",
      "type": "event"
    },
    {
      "anonymous": false,
      "inputs": [
        {
          "indexed": false,
          "internalType": "uint256",
          "name": "newPrice",
          "type": "uint256"
        }
      ],
      "name": "casePriceChanged",
      "type": "event"
    },
    {
      "anonymous": false,
      "inputs": [
        {
          "indexed": false,
          "internalType": "address",
          "name": "buyer",
          "type": "address"
        },
        {
          "indexed": false,
          "internalType": "address",
          "name": "seller",
          "type": "address"
        },
        {
          "indexed": false,
          "internalType": "uint256",
          "name": "marketItemId",
          "type": "uint256"
        },
        {
          "indexed": false,
          "internalType": "uint256",
          "name": "price",
          "type": "uint256"
        }
      ],
      "name": "itemBought",
      "type": "event"
    },
    {
      "anonymous": false,
      "inputs": [
        {
          "indexed": false,
          "internalType": "address",
          "name": "user",
          "type": "address"
        },
        {
          "indexed": false,
          "internalType": "uint256",
          "name": "tokenId",
          "type": "uint256"
        }
      ],
      "name": "itemExchanged",
      "type": "event"
    },
    {
      "anonymous": false,
      "inputs": [
        {
          "indexed": false,
          "internalType": "address",
          "name": "user",
          "type": "address"
        },
        {
          "indexed": false,
          "internalType": "uint256",
          "name": "tokenId",
          "type": "uint256"
        },
        {
          "indexed": false,
          "internalType": "uint256",
          "name": "price",
          "type": "uint256"
        }
      ],
      "name": "sellingItem",
      "type": "event"
    },
    {
      "inputs": [],
      "name": "ADMIN_ROLE",
      "outputs": [
        {
          "internalType": "bytes32",
          "name": "",
          "type": "bytes32"
        }
      ],
      "stateMutability": "view",
      "type": "function"
    },
    {
      "inputs": [],
      "name": "DEFAULT_ADMIN_ROLE",
      "outputs": [
        {
          "internalType": "bytes32",
          "name": "",
          "type": "bytes32"
        }
      ],
      "stateMutability": "view",
      "type": "function"
    },
    {
      "inputs": [],
      "name": "NUM_WORDS",
      "outputs": [
        {
          "internalType": "uint32",
          "name": "",
          "type": "uint32"
        }
      ],
      "stateMutability": "view",
      "type": "function"
    },
    {
      "inputs": [],
      "name": "REQUEST_CONFIRMATIONS",
      "outputs": [
        {
          "internalType": "uint16",
          "name": "",
          "type": "uint16"
        }
      ],
      "stateMutability": "view",
      "type": "function"
    },
    {
      "inputs": [
        {
          "internalType": "uint256",
          "name": "tokenId",
          "type": "uint256"
        }
      ],
      "name": "_rarityOfItem",
      "outputs": [
        {
          "internalType": "uint256",
          "name": "",
          "type": "uint256"
        }
      ],
      "stateMutability": "view",
      "type": "function"
    },
    {
      "inputs": [
        {
          "internalType": "address",
          "name": "account",
          "type": "address"
        },
        {
          "internalType": "uint256",
          "name": "id",
          "type": "uint256"
        }
      ],
      "name": "balanceOf",
      "outputs": [
        {
          "internalType": "uint256",
          "name": "",
          "type": "uint256"
        }
      ],
      "stateMutability": "view",
      "type": "function"
    },
    {
      "inputs": [
        {
          "internalType": "address[]",
          "name": "accounts",
          "type": "address[]"
        },
        {
          "internalType": "uint256[]",
          "name": "ids",
          "type": "uint256[]"
        }
      ],
      "name": "balanceOfBatch",
      "outputs": [
        {
          "internalType": "uint256[]",
          "name": "",
          "type": "uint256[]"
        }
      ],
      "stateMutability": "view",
      "type": "function"
    },
    {
      "inputs": [
        {
          "internalType": "uint256",
          "name": "marketItemId",
          "type": "uint256"
        }
      ],
      "name": "buyItem",
      "outputs": [],
      "stateMutability": "payable",
      "type": "function"
    },
    {
      "inputs": [],
      "name": "casePrice",
      "outputs": [
        {
          "internalType": "uint256",
          "name": "",
          "type": "uint256"
        }
      ],
      "stateMutability": "view",
      "type": "function"
    },
    {
      "inputs": [],
      "name": "contractActive",
      "outputs": [
        {
          "internalType": "bool",
          "name": "",
          "type": "bool"
        }
      ],
      "stateMutability": "view",
      "type": "function"
    },
    {
      "inputs": [
        {
          "internalType": "uint256",
          "name": "tokenId",
          "type": "uint256"
        }
      ],
      "name": "exchangeItem",
      "outputs": [],
      "stateMutability": "nonpayable",
      "type": "function"
    },
    {
      "inputs": [],
      "name": "flipContractState",
      "outputs": [],
      "stateMutability": "nonpayable",
      "type": "function"
    },
    {
      "inputs": [],
      "name": "getCasePrice",
      "outputs": [
        {
          "internalType": "uint256",
          "name": "",
          "type": "uint256"
        }
      ],
      "stateMutability": "view",
      "type": "function"
    },
    {
      "inputs": [],
      "name": "getItemsOnSale",
      "outputs": [
        {
          "components": [
            {
              "internalType": "uint256",
              "name": "tokenId",
              "type": "uint256"
            },
            {
              "internalType": "uint256",
              "name": "price",
              "type": "uint256"
            },
            {
              "internalType": "address payable",
              "name": "seller",
              "type": "address"
            },
            {
              "internalType": "bool",
              "name": "sold",
              "type": "bool"
            }
          ],
          "internalType": "struct RacksItems.itemOnSale[]",
          "name": "",
          "type": "tuple[]"
        }
      ],
      "stateMutability": "view",
      "type": "function"
    },
    {
      "inputs": [
        {
          "internalType": "bytes32",
          "name": "role",
          "type": "bytes32"
        }
      ],
      "name": "getRoleAdmin",
      "outputs": [
        {
          "internalType": "bytes32",
          "name": "",
          "type": "bytes32"
        }
      ],
      "stateMutability": "view",
      "type": "function"
    },
    {
      "inputs": [
        {
          "internalType": "bytes32",
          "name": "role",
          "type": "bytes32"
        },
        {
          "internalType": "address",
          "name": "account",
          "type": "address"
        }
      ],
      "name": "grantRole",
      "outputs": [],
      "stateMutability": "nonpayable",
      "type": "function"
    },
    {
      "inputs": [
        {
          "internalType": "bytes32",
          "name": "role",
          "type": "bytes32"
        },
        {
          "internalType": "address",
          "name": "account",
          "type": "address"
        }
      ],
      "name": "hasRole",
      "outputs": [
        {
          "internalType": "bool",
          "name": "",
          "type": "bool"
        }
      ],
      "stateMutability": "view",
      "type": "function"
    },
    {
      "inputs": [],
      "name": "i_MrCryptoAddress",
      "outputs": [
        {
          "internalType": "address",
          "name": "",
          "type": "address"
        }
      ],
      "stateMutability": "view",
      "type": "function"
    },
    {
      "inputs": [],
      "name": "i_callbackGasLimit",
      "outputs": [
        {
          "internalType": "uint32",
          "name": "",
          "type": "uint32"
        }
      ],
      "stateMutability": "view",
      "type": "function"
    },
    {
      "inputs": [],
      "name": "i_gasLane",
      "outputs": [
        {
          "internalType": "bytes32",
          "name": "",
          "type": "bytes32"
        }
      ],
      "stateMutability": "view",
      "type": "function"
    },
    {
      "inputs": [],
      "name": "i_subscriptionId",
      "outputs": [
        {
          "internalType": "uint64",
          "name": "",
          "type": "uint64"
        }
      ],
      "stateMutability": "view",
      "type": "function"
    },
    {
      "inputs": [],
      "name": "i_vrfCoordinator",
      "outputs": [
        {
          "internalType": "contract VRFCoordinatorV2Interface",
          "name": "",
          "type": "address"
        }
      ],
      "stateMutability": "view",
      "type": "function"
    },
    {
      "inputs": [
        {
          "internalType": "address",
          "name": "account",
          "type": "address"
        },
        {
          "internalType": "address",
          "name": "operator",
          "type": "address"
        }
      ],
      "name": "isApprovedForAll",
      "outputs": [
        {
          "internalType": "bool",
          "name": "",
          "type": "bool"
        }
      ],
      "stateMutability": "view",
      "type": "function"
    },
    {
      "inputs": [
        {
          "internalType": "address",
          "name": "user",
          "type": "address"
        }
      ],
      "name": "isVip",
      "outputs": [
        {
          "internalType": "bool",
          "name": "",
          "type": "bool"
        }
      ],
      "stateMutability": "view",
      "type": "function"
    },
    {
      "inputs": [
        {
          "internalType": "uint256",
          "name": "itemSupply",
          "type": "uint256"
        }
      ],
      "name": "listItem",
      "outputs": [],
      "stateMutability": "nonpayable",
      "type": "function"
    },
    {
      "inputs": [
        {
          "internalType": "address",
          "name": "",
          "type": "address"
        },
        {
          "internalType": "address",
          "name": "",
          "type": "address"
        },
        {
          "internalType": "uint256[]",
          "name": "",
          "type": "uint256[]"
        },
        {
          "internalType": "uint256[]",
          "name": "",
          "type": "uint256[]"
        },
        {
          "internalType": "bytes",
          "name": "",
          "type": "bytes"
        }
      ],
      "name": "onERC1155BatchReceived",
      "outputs": [
        {
          "internalType": "bytes4",
          "name": "",
          "type": "bytes4"
        }
      ],
      "stateMutability": "nonpayable",
      "type": "function"
    },
    {
      "inputs": [
        {
          "internalType": "address",
          "name": "",
          "type": "address"
        },
        {
          "internalType": "address",
          "name": "",
          "type": "address"
        },
        {
          "internalType": "uint256",
          "name": "",
          "type": "uint256"
        },
        {
          "internalType": "uint256",
          "name": "",
          "type": "uint256"
        },
        {
          "internalType": "bytes",
          "name": "",
          "type": "bytes"
        }
      ],
      "name": "onERC1155Received",
      "outputs": [
        {
          "internalType": "bytes4",
          "name": "",
          "type": "bytes4"
        }
      ],
      "stateMutability": "nonpayable",
      "type": "function"
    },
    {
      "inputs": [],
      "name": "openCase",
      "outputs": [],
      "stateMutability": "nonpayable",
      "type": "function"
    },
    {
      "inputs": [],
      "name": "racksToken",
      "outputs": [
        {
          "internalType": "contract RacksToken",
          "name": "",
          "type": "address"
        }
      ],
      "stateMutability": "view",
      "type": "function"
    },
    {
      "inputs": [
        {
          "internalType": "uint256",
          "name": "requestId",
          "type": "uint256"
        },
        {
          "internalType": "uint256[]",
          "name": "randomWords",
          "type": "uint256[]"
        }
      ],
      "name": "rawFulfillRandomWords",
      "outputs": [],
      "stateMutability": "nonpayable",
      "type": "function"
    },
    {
      "inputs": [
        {
          "internalType": "address[]",
          "name": "users",
          "type": "address[]"
        }
      ],
      "name": "removeListRacksMembers",
      "outputs": [],
      "stateMutability": "nonpayable",
      "type": "function"
    },
    {
      "inputs": [
        {
          "internalType": "address",
          "name": "user",
          "type": "address"
        }
      ],
      "name": "removeSingleRacksMember",
      "outputs": [],
      "stateMutability": "nonpayable",
      "type": "function"
    },
    {
      "inputs": [
        {
          "internalType": "bytes32",
          "name": "role",
          "type": "bytes32"
        },
        {
          "internalType": "address",
          "name": "account",
          "type": "address"
        }
      ],
      "name": "renounceRole",
      "outputs": [],
      "stateMutability": "nonpayable",
      "type": "function"
    },
    {
      "inputs": [
        {
          "internalType": "bytes32",
          "name": "role",
          "type": "bytes32"
        },
        {
          "internalType": "address",
          "name": "account",
          "type": "address"
        }
      ],
      "name": "revokeRole",
      "outputs": [],
      "stateMutability": "nonpayable",
      "type": "function"
    },
    {
      "inputs": [],
      "name": "s_contractState",
      "outputs": [
        {
          "internalType": "enum RacksItems.ContractState",
          "name": "",
          "type": "uint8"
        }
      ],
      "stateMutability": "view",
      "type": "function"
    },
    {
      "inputs": [],
      "name": "s_randomWord",
      "outputs": [
        {
          "internalType": "uint256",
          "name": "",
          "type": "uint256"
        }
      ],
      "stateMutability": "view",
      "type": "function"
    },
    {
      "inputs": [
        {
          "internalType": "address",
          "name": "from",
          "type": "address"
        },
        {
          "internalType": "address",
          "name": "to",
          "type": "address"
        },
        {
          "internalType": "uint256[]",
          "name": "ids",
          "type": "uint256[]"
        },
        {
          "internalType": "uint256[]",
          "name": "amounts",
          "type": "uint256[]"
        },
        {
          "internalType": "bytes",
          "name": "data",
          "type": "bytes"
        }
      ],
      "name": "safeBatchTransferFrom",
      "outputs": [],
      "stateMutability": "nonpayable",
      "type": "function"
    },
    {
      "inputs": [
        {
          "internalType": "address",
          "name": "from",
          "type": "address"
        },
        {
          "internalType": "address",
          "name": "to",
          "type": "address"
        },
        {
          "internalType": "uint256",
          "name": "id",
          "type": "uint256"
        },
        {
          "internalType": "uint256",
          "name": "amount",
          "type": "uint256"
        },
        {
          "internalType": "bytes",
          "name": "data",
          "type": "bytes"
        }
      ],
      "name": "safeTransferFrom",
      "outputs": [],
      "stateMutability": "nonpayable",
      "type": "function"
    },
    {
      "inputs": [
        {
          "internalType": "uint256",
          "name": "tokenId",
          "type": "uint256"
        },
        {
          "internalType": "uint256",
          "name": "price",
          "type": "uint256"
        }
      ],
      "name": "sellItem",
      "outputs": [],
      "stateMutability": "nonpayable",
      "type": "function"
    },
    {
      "inputs": [
        {
          "internalType": "address",
          "name": "_newAdmin",
          "type": "address"
        }
      ],
      "name": "setAdmin",
      "outputs": [],
      "stateMutability": "nonpayable",
      "type": "function"
    },
    {
      "inputs": [
        {
          "internalType": "address",
          "name": "operator",
          "type": "address"
        },
        {
          "internalType": "bool",
          "name": "approved",
          "type": "bool"
        }
      ],
      "name": "setApprovalForAll",
      "outputs": [],
      "stateMutability": "nonpayable",
      "type": "function"
    },
    {
      "inputs": [
        {
          "internalType": "uint256",
          "name": "price",
          "type": "uint256"
        }
      ],
      "name": "setCasePrice",
      "outputs": [],
      "stateMutability": "nonpayable",
      "type": "function"
    },
    {
      "inputs": [
        {
          "internalType": "address[]",
          "name": "users",
          "type": "address[]"
        }
      ],
      "name": "setListRacksMembers",
      "outputs": [],
      "stateMutability": "nonpayable",
      "type": "function"
    },
    {
      "inputs": [
        {
          "internalType": "address",
          "name": "user",
          "type": "address"
        }
      ],
      "name": "setSingleRacksMember",
      "outputs": [],
      "stateMutability": "nonpayable",
      "type": "function"
    },
    {
      "inputs": [
        {
          "internalType": "uint256",
          "name": "tokenId",
          "type": "uint256"
        },
        {
          "internalType": "string",
          "name": "_uri",
          "type": "string"
        }
      ],
      "name": "setTokenUri",
      "outputs": [],
      "stateMutability": "nonpayable",
      "type": "function"
    },
    {
      "inputs": [
        {
          "internalType": "uint256",
          "name": "tokenId",
          "type": "uint256"
        }
      ],
      "name": "supplyOfItem",
      "outputs": [
        {
          "internalType": "uint256",
          "name": "",
          "type": "uint256"
        }
      ],
      "stateMutability": "view",
      "type": "function"
    },
    {
      "inputs": [
        {
          "internalType": "bytes4",
          "name": "interfaceId",
          "type": "bytes4"
        }
      ],
      "name": "supportsInterface",
      "outputs": [
        {
          "internalType": "bool",
          "name": "",
          "type": "bool"
        }
      ],
      "stateMutability": "view",
      "type": "function"
    },
    {
      "inputs": [
        {
          "internalType": "uint256",
          "name": "tokenId",
          "type": "uint256"
        }
      ],
      "name": "uri",
      "outputs": [
        {
          "internalType": "string",
          "name": "",
          "type": "string"
        }
      ],
      "stateMutability": "view",
      "type": "function"
    },
    {
      "inputs": [
        {
          "internalType": "address",
          "name": "owner",
          "type": "address"
        }
      ],
      "name": "viewItems",
      "outputs": [
        {
          "internalType": "uint256[]",
          "name": "",
          "type": "uint256[]"
        }
      ],
      "stateMutability": "view",
      "type": "function"
    },
    {
      "inputs": [
        {
          "internalType": "address",
          "name": "wallet",
          "type": "address"
        }
      ],
      "name": "withdrawAllFunds",
      "outputs": [],
      "stateMutability": "nonpayable",
      "type": "function"
    },
    {
      "inputs": [
        {
          "internalType": "address",
          "name": "wallet",
          "type": "address"
        },
        {
          "internalType": "uint256",
          "name": "amount",
          "type": "uint256"
        }
      ],
      "name": "withdrawFunds",
      "outputs": [],
      "stateMutability": "nonpayable",
      "type": "function"
    },
    {
      "stateMutability": "payable",
      "type": "receive"
    }
  ],
  "bytecode": "0x610120604052600a805460ff191660011790553480156200001f57600080fd5b506040516200417d3803806200417d8339810160408190526200004291620001ca565b60408051602081019091526000815285906200005e816200010b565b50606090811b6001600160601b031990811660805295901b90941660a05260c0928352911b6001600160c01b03191660e09081521b6001600160e01b031916610100526004805473ef453154766505feb9dbf0a58e6990fd6eb669696001600160a01b0319918216179091556005805482166001600160a01b0393909316929092179091556006805433921691909117905560006008556001600955600a805461ff0019169055620002a7565b80516200012090600290602084019062000124565b5050565b828054620001329062000251565b90600052602060002090601f016020900481019282620001565760008555620001a1565b82601f106200017157805160ff1916838001178555620001a1565b82800160010185558215620001a1579182015b82811115620001a157825182559160200191906001019062000184565b50620001af929150620001b3565b5090565b5b80821115620001af5760008155600101620001b4565b600080600080600060a08688031215620001e357600080fd5b8551620001f0816200028e565b6020870151604088015191965094506001600160401b03811681146200021557600080fd5b606087015190935063ffffffff811681146200023057600080fd5b608087015190925062000243816200028e565b809150509295509295909350565b600181811c908216806200026657607f821691505b602082108114156200028857634e487b7160e01b600052602260045260246000fd5b50919050565b6001600160a01b0381168114620002a457600080fd5b50565b60805160601c60a05160601c60c05160e05160c01c6101005160e01c613e626200031b600039600081816109860152612a1001526000818161058401526129dd01526000818161079a01526129ae0152600081816108490152612a4b015260008181610c9f0152610cfa0152613e626000f3fe6080604052600436106103375760003560e01c806384203f4b116101b0578063c1075329116100ec578063e289fcb611610095578063f23a6e611161006f578063f23a6e6114610a33578063f242432a14610a5f578063f48c9d3414610a7f578063fd210fd914610a9f57600080fd5b8063e289fcb6146109bd578063e7fb74c7146109d7578063e985e9c5146109ea57600080fd5b8063d547741f116100c6578063d547741f14610954578063d757d02714610974578063de08f653146109a857600080fd5b8063c1075329146108fe578063c7e05f8d1461091e578063ca90958f1461093e57600080fd5b8063976298f311610159578063aebc455011610133578063aebc455014610837578063b63b86121461086b578063bbcbc2e714610897578063bc197c81146108b957600080fd5b8063976298f314610802578063a217fddf146106f3578063a22cb4651461081757600080fd5b80638dc5f45b1161018a5780638dc5f45b146107685780638e879c8a1461078857806391d14854146107bc57600080fd5b806384203f4b1461070857806389165aa9146107285780638ba8b15a1461074857600080fd5b806332dee40b1161027f57806354e889f61161022857806368b721001161020257806368b7210014610689578063704b6c02146106a957806372cf6e34146106c957806375b238fc146106f357600080fd5b806354e889f61461062157806357f7789e1461064157806367f082b01461066157600080fd5b80634a226657116102595780634a226657146105bf5780634e1273f4146105d45780635408c3191461060157600080fd5b806332dee40b1461053257806336568abe14610552578063470cdf971461057257600080fd5b806320ba0814116102e15780632d923561116102bb5780632d923561146104d25780632eb2c2d6146104f25780632f2ff15d1461051257600080fd5b806320ba081414610455578063248a9ca3146104825780632ce38190146104b257600080fd5b8063109b827811610312578063109b8278146103d35780631cb0b273146104135780631fe543e31461043557600080fd5b8062fdd58e1461034357806301ffc9a7146103765780630e89341c146103a657600080fd5b3661033e57005b600080fd5b34801561034f57600080fd5b5061036361035e3660046136f5565b610ab5565b6040519081526020015b60405180910390f35b34801561038257600080fd5b50610396610391366004613819565b610b5e565b604051901515815260200161036d565b3480156103b257600080fd5b506103c66103c13660046137dd565b610b6f565b60405161036d9190613b7d565b3480156103df57600080fd5b506103fb73ef453154766505feb9dbf0a58e6990fd6eb6696981565b6040516001600160a01b03909116815260200161036d565b34801561041f57600080fd5b5061043361042e3660046137dd565b610c11565b005b34801561044157600080fd5b5061043361045036600461386c565b610c94565b34801561046157600080fd5b506103636104703660046137dd565b6000908152600e602052604090205490565b34801561048e57600080fd5b5061036361049d3660046137dd565b60009081526003602052604090206001015490565b3480156104be57600080fd5b506104336104cd3660046137dd565b610d35565b3480156104de57600080fd5b506104336104ed3660046138fa565b610da1565b3480156104fe57600080fd5b5061043361050d3660046135af565b610f49565b34801561051e57600080fd5b5061043361052d3660046137f6565b610feb565b34801561053e57600080fd5b5061043361054d366004613561565b611015565b34801561055e57600080fd5b5061043361056d3660046137f6565b611144565b34801561057e57600080fd5b506105a67f000000000000000000000000000000000000000000000000000000000000000081565b60405167ffffffffffffffff909116815260200161036d565b3480156105cb57600080fd5b506104336111cc565b3480156105e057600080fd5b506105f46105ef36600461375c565b611416565b60405161036d9190613b14565b34801561060d57600080fd5b5061043361061c36600461371f565b611554565b34801561062d57600080fd5b5061043361063c366004613561565b61161b565b34801561064d57600080fd5b5061043361065c3660046138a9565b61169e565b34801561066d57600080fd5b50610676600381565b60405161ffff909116815260200161036d565b34801561069557600080fd5b506005546103fb906001600160a01b031681565b3480156106b557600080fd5b506104336106c4366004613561565b611784565b3480156106d557600080fd5b506106de600281565b60405163ffffffff909116815260200161036d565b3480156106ff57600080fd5b50610363600081565b34801561071457600080fd5b50610396610723366004613561565b6117e9565b34801561073457600080fd5b5061043361074336600461371f565b6118bc565b34801561075457600080fd5b50610433610763366004613561565b611983565b34801561077457600080fd5b506104336107833660046137dd565b611a03565b34801561079457600080fd5b506103637f000000000000000000000000000000000000000000000000000000000000000081565b3480156107c857600080fd5b506103966107d73660046137f6565b60009182526003602090815260408084206001600160a01b0393909316845291905290205460ff1690565b34801561080e57600080fd5b50600954610363565b34801561082357600080fd5b506104336108323660046136be565b611a97565b34801561084357600080fd5b506103fb7f000000000000000000000000000000000000000000000000000000000000000081565b34801561087757600080fd5b50600a5461088a90610100900460ff1681565b60405161036d9190613b55565b3480156108a357600080fd5b506108ac611aa2565b60405161036d9190613aa5565b3480156108c557600080fd5b506108e56108d43660046135af565b63bc197c8160e01b95945050505050565b6040516001600160e01b0319909116815260200161036d565b34801561090a57600080fd5b506104336109193660046136f5565b611c85565b34801561092a57600080fd5b506103636109393660046137dd565b611db5565b34801561094a57600080fd5b5061036360095481565b34801561096057600080fd5b5061043361096f3660046137f6565b611dec565b34801561098057600080fd5b506106de7f000000000000000000000000000000000000000000000000000000000000000081565b3480156109b457600080fd5b50610433611e11565b3480156109c957600080fd5b50600a546103969060ff1681565b6104336109e53660046137dd565b611eb2565b3480156109f657600080fd5b50610396610a0536600461357c565b6001600160a01b03918216600090815260016020908152604080832093909416825291909152205460ff1690565b348015610a3f57600080fd5b506108e5610a4e366004613659565b63f23a6e6160e01b95945050505050565b348015610a6b57600080fd5b50610433610a7a366004613659565b612026565b348015610a8b57600080fd5b506105f4610a9a366004613561565b6120c1565b348015610aab57600080fd5b50610363600c5481565b60006001600160a01b038316610b385760405162461bcd60e51b815260206004820152602b60248201527f455243313135353a2062616c616e636520717565727920666f7220746865207a60448201527f65726f206164647265737300000000000000000000000000000000000000000060648201526084015b60405180910390fd5b506000908152602081815260408083206001600160a01b03949094168352929052205490565b6000610b6982612158565b92915050565b6000818152600f60205260409020805460609190610b8c90613c5d565b80601f0160208091040260200160405190810160405280929190818152602001828054610bb890613c5d565b8015610c055780601f10610bda57610100808354040283529160200191610c05565b820191906000526020600020905b815481529060010190602001808311610be857829003601f168201915b50505050509050919050565b6000610c1d3383610ab5565b11610c2757600080fd5b610c3333826001612196565b6000818152600e60205260408120805460019290610c52908490613bff565b909155505060408051338152602081018390527f9e90d55d2f1f115ffe1b87372c45f27f6b3a2b5ba392942167be78456189009491015b60405180910390a150565b336001600160a01b037f00000000000000000000000000000000000000000000000000000000000000001614610d27576040517f1cf993f40000000000000000000000000000000000000000000000000000000081523360048201526001600160a01b037f0000000000000000000000000000000000000000000000000000000000000000166024820152604401610b2f565b610d31828261234a565b5050565b610d3e3361236f565b610d945760405162461bcd60e51b815260206004820152602160248201527f55736572206973206e6f7420746865204f776e6572206f7220616e2041646d696044820152603760f91b6064820152608401610b2f565b610d9e30826123ce565b50565b6000610dad3384610ab5565b11610dfa5760405162461bcd60e51b815260206004820152600f60248201527f4974656d206e6f7420666f756e642e00000000000000000000000000000000006044820152606401610b2f565b610e17333084600160405180602001604052806000815250612439565b6040805160808101825283815260208082018481523383850181815260006060808701828152600b8054600181018255935296517f0175b7a638427703f0dbe7bb9bbf987a2551717b34e79f33b5b1008d1fa01db960039093029283015593517f0175b7a638427703f0dbe7bb9bbf987a2551717b34e79f33b5b1008d1fa01dba82015590517f0175b7a638427703f0dbe7bb9bbf987a2551717b34e79f33b5b1008d1fa01dbb909101805495516001600160a01b039092167fffffffffffffffffffffff00000000000000000000000000000000000000000090961695909517600160a01b911515919091021790935583519283529082018590529181018390527f23cba88d6c6f26b62b2cfc32a2cc04fbbde8590188b97cd3590e45af9ac6dd6d91015b60405180910390a15050565b6001600160a01b038516331480610f655750610f658533610a05565b610fd75760405162461bcd60e51b815260206004820152603260248201527f455243313135353a207472616e736665722063616c6c6572206973206e6f742060448201527f6f776e6572206e6f7220617070726f76656400000000000000000000000000006064820152608401610b2f565b610fe485858585856125e4565b5050505050565b60008281526003602052604090206001015461100681612857565b6110108383612861565b505050565b6006546001600160a01b0316331461106f5760405162461bcd60e51b815260206004820152601560248201527f55736572206973206e6f7420746865206f776e657200000000000000000000006044820152606401610b2f565b600047116110bf5760405162461bcd60e51b815260206004820152601460248201527f4e6f2066756e647320746f2077697468647261770000000000000000000000006044820152606401610b2f565b60055460405163a9059cbb60e01b81526001600160a01b0383811660048301524760248301529091169063a9059cbb90604401602060405180830381600087803b15801561110c57600080fd5b505af1158015611120573d6000803e3d6000fd5b505050506040513d601f19601f82011682018060405250810190610d3191906137c0565b6001600160a01b03811633146111c25760405162461bcd60e51b815260206004820152602f60248201527f416363657373436f6e74726f6c3a2063616e206f6e6c792072656e6f756e636560448201527f20726f6c657320666f722073656c6600000000000000000000000000000000006064820152608401610b2f565b610d318282612903565b6000600a54610100900460ff1660018111156111ea576111ea613d20565b1461125d5760405162461bcd60e51b815260206004820152602560248201527f436f6e7472616374206973206e6f74206163746976652061742074686973206d60448201527f6f6d656e740000000000000000000000000000000000000000000000000000006064820152608401610b2f565b6005546009546040516323b872dd60e01b815233600482015230602482015260448101919091526001600160a01b03909116906323b872dd90606401602060405180830381600087803b1580156112b357600080fd5b505af11580156112c7573d6000803e3d6000fd5b505050506040513d601f19601f820116820180604052508101906112eb91906137c0565b506112f4612986565b506000600754600c546113079190613ce0565b9050600080805b6008548110156113cc576000818152600e60205260408120546113319085613bb4565b905083851115611343578093506113b9565b81925060006113523084610ab5565b1115611396576000611365600184613bff565b90505b60006113743083610ab5565b111561138257809350611394565b8061138c81613c46565b915050611368565b505b6113b3303385600160405180602001604052806000815250612439565b506113cc565b50806113c481613cc5565b91505061130e565b5060095460408051338152602081019290925281018290527fea32e37a2618dbb680c93d891742e9e13b30d184822562a0ee3c09290fd42b439060600160405180910390a1505050565b6060815183511461148f5760405162461bcd60e51b815260206004820152602960248201527f455243313135353a206163636f756e747320616e6420696473206c656e67746860448201527f206d69736d6174636800000000000000000000000000000000000000000000006064820152608401610b2f565b6000835167ffffffffffffffff8111156114ab576114ab613d4c565b6040519080825280602002602001820160405280156114d4578160200160208202803683370190505b50905060005b845181101561154c5761151f8582815181106114f8576114f8613d36565b602002602001015185838151811061151257611512613d36565b6020026020010151610ab5565b82828151811061153157611531613d36565b602090810291909101015261154581613cc5565b90506114da565b509392505050565b61155d3361236f565b6115b35760405162461bcd60e51b815260206004820152602160248201527f55736572206973206e6f7420746865204f776e6572206f7220616e2041646d696044820152603760f91b6064820152608401610b2f565b60005b8151811015610d31576000600d60008484815181106115d7576115d7613d36565b6020908102919091018101516001600160a01b03168252810191909152604001600020805460ff19169115159190911790558061161381613cc5565b9150506115b6565b6116243361236f565b61167a5760405162461bcd60e51b815260206004820152602160248201527f55736572206973206e6f7420746865204f776e6572206f7220616e2041646d696044820152603760f91b6064820152608401610b2f565b6001600160a01b03166000908152600d60205260409020805460ff19166001179055565b6116a73361236f565b6116fd5760405162461bcd60e51b815260206004820152602160248201527f55736572206973206e6f7420746865204f776e6572206f7220616e2041646d696044820152603760f91b6064820152608401610b2f565b6000828152600f60205260409020805461171690613c5d565b1590506117655760405162461bcd60e51b815260206004820152601560248201527f43616e206e6f74207365742075726920747769636500000000000000000000006044820152606401610b2f565b6000828152600f60209081526040909120825161101092840190613346565b6006546001600160a01b031633146117de5760405162461bcd60e51b815260206004820152601560248201527f55736572206973206e6f7420746865206f776e657200000000000000000000006044820152606401610b2f565b610d9e600082612ac7565b600480546040517f70a082310000000000000000000000000000000000000000000000000000000081526001600160a01b0384811693820193909352600092839216906370a082319060240160206040518083038186803b15801561184d57600080fd5b505afa158015611861573d6000803e3d6000fd5b505050506040513d601f19601f820116820180604052508101906118859190613853565b1161188f57600080fd5b6001600160a01b0382166000908152600d602052604090205460ff166118b457600080fd5b506001919050565b6118c53361236f565b61191b5760405162461bcd60e51b815260206004820152602160248201527f55736572206973206e6f7420746865204f776e6572206f7220616e2041646d696044820152603760f91b6064820152608401610b2f565b60005b8151811015610d31576001600d600084848151811061193f5761193f613d36565b6020908102919091018101516001600160a01b03168252810191909152604001600020805460ff19169115159190911790558061197b81613cc5565b91505061191e565b61198c3361236f565b6119e25760405162461bcd60e51b815260206004820152602160248201527f55736572206973206e6f7420746865204f776e6572206f7220616e2041646d696044820152603760f91b6064820152608401610b2f565b6001600160a01b03166000908152600d60205260409020805460ff19169055565b611a0c3361236f565b611a625760405162461bcd60e51b815260206004820152602160248201527f55736572206973206e6f7420746865204f776e6572206f7220616e2041646d696044820152603760f91b6064820152608401610b2f565b60098190556040518181527f06cd74aabc11982a85b554df4d7833623303656fe69bed4db1b0cb3245feebe390602001610c89565b610d31338383612ad1565b60606000805b600b54811015611b48576000600b8281548110611ac757611ac7613d36565b600091825260209182902060408051608081018252600393909302909101805483526001810154938301939093526002909201546001600160a01b03811692820192909252600160a01b90910460ff16151560608201819052909150611b3557611b32600184613bb4565b92505b5080611b4081613cc5565b915050611aa8565b5060008167ffffffffffffffff811115611b6457611b64613d4c565b604051908082528060200260200182016040528015611bb657816020015b604080516080810182526000808252602080830182905292820181905260608201528252600019909201910181611b825790505b5090506000805b600b54811015611c7c576000600b8281548110611bdc57611bdc613d36565b600091825260209182902060408051608081018252600393909302909101805483526001810154938301939093526002909201546001600160a01b03811692820192909252600160a01b90910460ff16151560608201819052909150611c695780848481518110611c4f57611c4f613d36565b60200260200101819052508280611c6590613cc5565b9350505b5080611c7481613cc5565b915050611bbd565b50909392505050565b6006546001600160a01b03163314611cdf5760405162461bcd60e51b815260206004820152601560248201527f55736572206973206e6f7420746865206f776e657200000000000000000000006044820152606401610b2f565b60004711611d2f5760405162461bcd60e51b815260206004820152601460248201527f4e6f2066756e647320746f2077697468647261770000000000000000000000006044820152606401610b2f565b60055460405163a9059cbb60e01b81526001600160a01b038481166004830152602482018490529091169063a9059cbb90604401602060405180830381600087803b158015611d7d57600080fd5b505af1158015611d91573d6000803e3d6000fd5b505050506040513d601f19601f8201168201806040525081019061101091906137c0565b6000611dc082612bc6565b611dc957600080fd5b6000828152600e6020526040812054600754611de59190613bcc565b9392505050565b600082815260036020526040902060010154611e0781612857565b6110108383612903565b611e1a3361236f565b611e705760405162461bcd60e51b815260206004820152602160248201527f55736572206973206e6f7420746865204f776e6572206f7220616e2041646d696044820152603760f91b6064820152608401610b2f565b6000600a54610100900460ff166001811115611e8e57611e8e613d20565b1415611ea557600a805461ff001916610100179055565b600a805461ff0019169055565b6000600b8281548110611ec757611ec7613d36565b600091825260209182902060408051608081018252600393909302909101805483526001810154938301849052600201546001600160a01b03808216848401819052600160a01b90920460ff161515606085015260055492516323b872dd60e01b815233600482015260248101929092526044820194909452919350909116906323b872dd90606401602060405180830381600087803b158015611f6a57600080fd5b505af1158015611f7e573d6000803e3d6000fd5b505050506040513d601f19601f82011682018060405250810190611fa291906137c0565b50611fc430338360000151600160405180602001604052806000815250612439565b600160608281019190915260408083015160208085015183513381526001600160a01b0390931691830191909152918101859052918201527f642067ff529c9b5b1162502fc8e8a3a91dda56e126a84f2fe38d341236231a8290608001610f3d565b6001600160a01b03851633148061204257506120428533610a05565b6120b45760405162461bcd60e51b815260206004820152602960248201527f455243313135353a2063616c6c6572206973206e6f74206f776e6572206e6f7260448201527f20617070726f76656400000000000000000000000000000000000000000000006064820152608401610b2f565b610fe48585858585612439565b6060600060085467ffffffffffffffff8111156120e0576120e0613d4c565b604051908082528060200260200182016040528015612109578160200160208202803683370190505b50905060005b8151811015612151576121228482610ab5565b82828151811061213457612134613d36565b60209081029190910101528061214981613cc5565b91505061210f565b5092915050565b60006001600160e01b031982167f7965db0b000000000000000000000000000000000000000000000000000000001480610b695750610b6982612bde565b6001600160a01b0383166122125760405162461bcd60e51b815260206004820152602360248201527f455243313135353a206275726e2066726f6d20746865207a65726f206164647260448201527f65737300000000000000000000000000000000000000000000000000000000006064820152608401610b2f565b33600061221e84612c1c565b9050600061222b84612c1c565b60408051602080820183526000918290528882528181528282206001600160a01b038b16835290522054909150848110156122cd5760405162461bcd60e51b8152602060048201526024808201527f455243313135353a206275726e20616d6f756e7420657863656564732062616c60448201527f616e6365000000000000000000000000000000000000000000000000000000006064820152608401610b2f565b6000868152602081815260408083206001600160a01b038b81168086529184528285208a8703905582518b81529384018a90529092908816917fc3d58168c5ae7397731d063d5bbf3d657854427343f4c083240f7aacaa2d0f62910160405180910390a46040805160208101909152600090525b50505050505050565b8060008151811061235d5761235d613d36565b6020026020010151600c819055505050565b6006546000906001600160a01b03838116911614806123c557506001600160a01b03821660009081527f3617319a054d772f909f7c479a2cebe5066e836a939412e32403c99029b92eff602052604090205460ff165b6118b457600080fd5b6123eb826008548360405180602001604052806000815250612c67565b612404600854826000918252600e602052604090912055565b80600760008282546124169190613bb4565b925050819055506001600860008282546124309190613bb4565b90915550505050565b6001600160a01b03841661249d5760405162461bcd60e51b815260206004820152602560248201527f455243313135353a207472616e7366657220746f20746865207a65726f206164604482015264647265737360d81b6064820152608401610b2f565b3360006124a985612c1c565b905060006124b685612c1c565b90506000868152602081815260408083206001600160a01b038c1684529091529020548581101561253c5760405162461bcd60e51b815260206004820152602a60248201527f455243313135353a20696e73756666696369656e742062616c616e636520666f60448201526939103a3930b739b332b960b11b6064820152608401610b2f565b6000878152602081815260408083206001600160a01b038d8116855292528083208985039055908a16825281208054889290612579908490613bb4565b909155505060408051888152602081018890526001600160a01b03808b16928c821692918816917fc3d58168c5ae7397731d063d5bbf3d657854427343f4c083240f7aacaa2d0f62910160405180910390a46125d9848a8a8a8a8a612d8a565b505050505050505050565b815183511461265b5760405162461bcd60e51b815260206004820152602860248201527f455243313135353a2069647320616e6420616d6f756e7473206c656e6774682060448201527f6d69736d617463680000000000000000000000000000000000000000000000006064820152608401610b2f565b6001600160a01b0384166126bf5760405162461bcd60e51b815260206004820152602560248201527f455243313135353a207472616e7366657220746f20746865207a65726f206164604482015264647265737360d81b6064820152608401610b2f565b3360005b84518110156127e95760008582815181106126e0576126e0613d36565b6020026020010151905060008583815181106126fe576126fe613d36565b602090810291909101810151600084815280835260408082206001600160a01b038e1683529093529190912054909150818110156127915760405162461bcd60e51b815260206004820152602a60248201527f455243313135353a20696e73756666696369656e742062616c616e636520666f60448201526939103a3930b739b332b960b11b6064820152608401610b2f565b6000838152602081815260408083206001600160a01b038e8116855292528083208585039055908b168252812080548492906127ce908490613bb4565b92505081905550505050806127e290613cc5565b90506126c3565b50846001600160a01b0316866001600160a01b0316826001600160a01b03167f4a39dc06d4c0dbc64b70af90fd698a233a518aa5d07e595d983b8c0526c8f7fb8787604051612839929190613b27565b60405180910390a461284f818787878787612f3f565b505050505050565b610d9e813361304a565b60008281526003602090815260408083206001600160a01b038516845290915290205460ff16610d315760008281526003602090815260408083206001600160a01b03851684529091529020805460ff191660011790556128bf3390565b6001600160a01b0316816001600160a01b0316837f2f8788117e7eff1d82e926ec794901d17c78024a50270940304540a733656f0d60405160405180910390a45050565b60008281526003602090815260408083206001600160a01b038516845290915290205460ff1615610d315760008281526003602090815260408083206001600160a01b0385168085529252808320805460ff1916905551339285917ff6391f5c32d9c69d2a47ea670b442974b53935d1edc7fd64eb21e047a839171b9190a45050565b6040517f5d3b1d300000000000000000000000000000000000000000000000000000000081527f0000000000000000000000000000000000000000000000000000000000000000600482015267ffffffffffffffff7f00000000000000000000000000000000000000000000000000000000000000001660248201526003604482015263ffffffff7f00000000000000000000000000000000000000000000000000000000000000001660648201526002608482015260009081906001600160a01b037f00000000000000000000000000000000000000000000000000000000000000001690635d3b1d309060a401602060405180830381600087803b158015612a8f57600080fd5b505af1158015612aa3573d6000803e3d6000fd5b505050506040513d601f19601f82011682018060405250810190610b699190613853565b610d318282612861565b816001600160a01b0316836001600160a01b03161415612b595760405162461bcd60e51b815260206004820152602960248201527f455243313135353a2073657474696e6720617070726f76616c2073746174757360448201527f20666f722073656c6600000000000000000000000000000000000000000000006064820152608401610b2f565b6001600160a01b03838116600081815260016020908152604080832094871680845294825291829020805460ff191686151590811790915591519182527f17307eab39ab6107e8899845ad3d59bd9653f200f220920489ca2b5937696c31910160405180910390a3505050565b6000818152600e60205260408120546118b457600080fd5b60006001600160e01b031982167f4e2312e0000000000000000000000000000000000000000000000000000000001480610b695750610b69826130ca565b60408051600180825281830190925260609160009190602080830190803683370190505090508281600081518110612c5657612c56613d36565b602090810291909101015292915050565b6001600160a01b038416612ce35760405162461bcd60e51b815260206004820152602160248201527f455243313135353a206d696e7420746f20746865207a65726f2061646472657360448201527f73000000000000000000000000000000000000000000000000000000000000006064820152608401610b2f565b336000612cef85612c1c565b90506000612cfc85612c1c565b90506000868152602081815260408083206001600160a01b038b16845290915281208054879290612d2e908490613bb4565b909155505060408051878152602081018790526001600160a01b03808a1692600092918716917fc3d58168c5ae7397731d063d5bbf3d657854427343f4c083240f7aacaa2d0f62910160405180910390a4612341836000898989895b6001600160a01b0384163b1561284f5760405163f23a6e6160e01b81526001600160a01b0385169063f23a6e6190612dce9089908990889088908890600401613a62565b602060405180830381600087803b158015612de857600080fd5b505af1925050508015612e18575060408051601f3d908101601f19168201909252612e1591810190613836565b60015b612ece57612e24613d62565b806308c379a01415612e5e5750612e39613d7e565b80612e445750612e60565b8060405162461bcd60e51b8152600401610b2f9190613b7d565b505b60405162461bcd60e51b815260206004820152603460248201527f455243313135353a207472616e7366657220746f206e6f6e204552433131353560448201527f526563656976657220696d706c656d656e7465720000000000000000000000006064820152608401610b2f565b6001600160e01b0319811663f23a6e6160e01b146123415760405162461bcd60e51b815260206004820152602860248201527f455243313135353a204552433131353552656365697665722072656a656374656044820152676420746f6b656e7360c01b6064820152608401610b2f565b6001600160a01b0384163b1561284f5760405163bc197c8160e01b81526001600160a01b0385169063bc197c8190612f839089908990889088908890600401613a04565b602060405180830381600087803b158015612f9d57600080fd5b505af1925050508015612fcd575060408051601f3d908101601f19168201909252612fca91810190613836565b60015b612fd957612e24613d62565b6001600160e01b0319811663bc197c8160e01b146123415760405162461bcd60e51b815260206004820152602860248201527f455243313135353a204552433131353552656365697665722072656a656374656044820152676420746f6b656e7360c01b6064820152608401610b2f565b60008281526003602090815260408083206001600160a01b038516845290915290205460ff16610d3157613088816001600160a01b03166014613165565b613093836020613165565b6040516020016130a4929190613983565b60408051601f198184030181529082905262461bcd60e51b8252610b2f91600401613b7d565b60006001600160e01b031982167fd9b67a2600000000000000000000000000000000000000000000000000000000148061312d57506001600160e01b031982167f0e89341c00000000000000000000000000000000000000000000000000000000145b80610b6957507f01ffc9a7000000000000000000000000000000000000000000000000000000006001600160e01b0319831614610b69565b60606000613174836002613be0565b61317f906002613bb4565b67ffffffffffffffff81111561319757613197613d4c565b6040519080825280601f01601f1916602001820160405280156131c1576020820181803683370190505b5090507f3000000000000000000000000000000000000000000000000000000000000000816000815181106131f8576131f8613d36565b60200101906001600160f81b031916908160001a9053507f78000000000000000000000000000000000000000000000000000000000000008160018151811061324357613243613d36565b60200101906001600160f81b031916908160001a9053506000613267846002613be0565b613272906001613bb4565b90505b60018111156132f7577f303132333435363738396162636465660000000000000000000000000000000085600f16601081106132b3576132b3613d36565b1a60f81b8282815181106132c9576132c9613d36565b60200101906001600160f81b031916908160001a90535060049490941c936132f081613c46565b9050613275565b508315611de55760405162461bcd60e51b815260206004820181905260248201527f537472696e67733a20686578206c656e67746820696e73756666696369656e746044820152606401610b2f565b82805461335290613c5d565b90600052602060002090601f01602090048101928261337457600085556133ba565b82601f1061338d57805160ff19168380011785556133ba565b828001600101855582156133ba579182015b828111156133ba57825182559160200191906001019061339f565b506133c69291506133ca565b5090565b5b808211156133c657600081556001016133cb565b600067ffffffffffffffff8311156133f9576133f9613d4c565b604051613410601f8501601f191660200182613c98565b80915083815284848401111561342557600080fd5b83836020830137600060208583010152509392505050565b80356001600160a01b038116811461345457600080fd5b919050565b600082601f83011261346a57600080fd5b8135602061347782613b90565b6040516134848282613c98565b8381528281019150858301600585901b870184018810156134a457600080fd5b60005b858110156134ca576134b88261343d565b845292840192908401906001016134a7565b5090979650505050505050565b600082601f8301126134e857600080fd5b813560206134f582613b90565b6040516135028282613c98565b8381528281019150858301600585901b8701840188101561352257600080fd5b60005b858110156134ca57813584529284019290840190600101613525565b600082601f83011261355257600080fd5b611de5838335602085016133df565b60006020828403121561357357600080fd5b611de58261343d565b6000806040838503121561358f57600080fd5b6135988361343d565b91506135a66020840161343d565b90509250929050565b600080600080600060a086880312156135c757600080fd5b6135d08661343d565b94506135de6020870161343d565b9350604086013567ffffffffffffffff808211156135fb57600080fd5b61360789838a016134d7565b9450606088013591508082111561361d57600080fd5b61362989838a016134d7565b9350608088013591508082111561363f57600080fd5b5061364c88828901613541565b9150509295509295909350565b600080600080600060a0868803121561367157600080fd5b61367a8661343d565b94506136886020870161343d565b93506040860135925060608601359150608086013567ffffffffffffffff8111156136b257600080fd5b61364c88828901613541565b600080604083850312156136d157600080fd5b6136da8361343d565b915060208301356136ea81613e08565b809150509250929050565b6000806040838503121561370857600080fd5b6137118361343d565b946020939093013593505050565b60006020828403121561373157600080fd5b813567ffffffffffffffff81111561374857600080fd5b61375484828501613459565b949350505050565b6000806040838503121561376f57600080fd5b823567ffffffffffffffff8082111561378757600080fd5b61379386838701613459565b935060208501359150808211156137a957600080fd5b506137b6858286016134d7565b9150509250929050565b6000602082840312156137d257600080fd5b8151611de581613e08565b6000602082840312156137ef57600080fd5b5035919050565b6000806040838503121561380957600080fd5b823591506135a66020840161343d565b60006020828403121561382b57600080fd5b8135611de581613e16565b60006020828403121561384857600080fd5b8151611de581613e16565b60006020828403121561386557600080fd5b5051919050565b6000806040838503121561387f57600080fd5b82359150602083013567ffffffffffffffff81111561389d57600080fd5b6137b6858286016134d7565b600080604083850312156138bc57600080fd5b82359150602083013567ffffffffffffffff8111156138da57600080fd5b8301601f810185136138eb57600080fd5b6137b6858235602084016133df565b6000806040838503121561390d57600080fd5b50508035926020909101359150565b600081518084526020808501945080840160005b8381101561394c57815187529582019590820190600101613930565b509495945050505050565b6000815180845261396f816020860160208601613c16565b601f01601f19169290920160200192915050565b7f416363657373436f6e74726f6c3a206163636f756e74200000000000000000008152600083516139bb816017850160208801613c16565b7f206973206d697373696e6720726f6c652000000000000000000000000000000060179184019182015283516139f8816028840160208801613c16565b01602801949350505050565b60006001600160a01b03808816835280871660208401525060a06040830152613a3060a083018661391c565b8281036060840152613a42818661391c565b90508281036080840152613a568185613957565b98975050505050505050565b60006001600160a01b03808816835280871660208401525084604083015283606083015260a06080830152613a9a60a0830184613957565b979650505050505050565b602080825282518282018190526000919060409081850190868401855b82811015613b07578151805185528681015187860152858101516001600160a01b03168686015260609081015115159085015260809093019290850190600101613ac2565b5091979650505050505050565b602081526000611de5602083018461391c565b604081526000613b3a604083018561391c565b8281036020840152613b4c818561391c565b95945050505050565b6020810160028310613b7757634e487b7160e01b600052602160045260246000fd5b91905290565b602081526000611de56020830184613957565b600067ffffffffffffffff821115613baa57613baa613d4c565b5060051b60200190565b60008219821115613bc757613bc7613cf4565b500190565b600082613bdb57613bdb613d0a565b500490565b6000816000190483118215151615613bfa57613bfa613cf4565b500290565b600082821015613c1157613c11613cf4565b500390565b60005b83811015613c31578181015183820152602001613c19565b83811115613c40576000848401525b50505050565b600081613c5557613c55613cf4565b506000190190565b600181811c90821680613c7157607f821691505b60208210811415613c9257634e487b7160e01b600052602260045260246000fd5b50919050565b601f8201601f1916810167ffffffffffffffff81118282101715613cbe57613cbe613d4c565b6040525050565b6000600019821415613cd957613cd9613cf4565b5060010190565b600082613cef57613cef613d0a565b500690565b634e487b7160e01b600052601160045260246000fd5b634e487b7160e01b600052601260045260246000fd5b634e487b7160e01b600052602160045260246000fd5b634e487b7160e01b600052603260045260246000fd5b634e487b7160e01b600052604160045260246000fd5b600060033d1115613d7b5760046000803e5060005160e01c5b90565b600060443d1015613d8c5790565b6040516003193d81016004833e81513d67ffffffffffffffff8160248401118184111715613dbc57505050505090565b8285019150815181811115613dd45750505050505090565b843d8701016020828501011115613dee5750505050505090565b613dfd60208286010187613c98565b509095945050505050565b8015158114610d9e57600080fd5b6001600160e01b031981168114610d9e57600080fdfea26469706673582212202970cf16b719c802b479ab3c85a6fc49138ca497289b6510331c9495e92e2cfd64736f6c63430008070033",
  "linkReferences": {},
  "deployedLinkReferences": {}
}