{
  "_format": "hh-sol-artifact-1",
  "contractName": "RacksItems",
  "sourceName": "contracts/RacksItems.sol",
  "abi": [
    {
      "inputs": [
        {
          "internalType": "address",
          "name": "vrfCoordinatorV2",
          "type": "address"
        },
        {
          "internalType": "bytes32",
          "name": "gasLane",
          "type": "bytes32"
        },
        {
          "internalType": "uint64",
          "name": "subscriptionId",
          "type": "uint64"
        },
        {
          "internalType": "uint32",
          "name": "callbackGasLimit",
          "type": "uint32"
        },
        {
          "internalType": "address",
          "name": "_racksTokenAddress",
          "type": "address"
        }
      ],
      "stateMutability": "nonpayable",
      "type": "constructor"
    },
    {
      "inputs": [
        {
          "internalType": "address",
          "name": "have",
          "type": "address"
        },
        {
          "internalType": "address",
          "name": "want",
          "type": "address"
        }
      ],
      "name": "OnlyCoordinatorCanFulfill",
      "type": "error"
    },
    {
      "anonymous": false,
      "inputs": [
        {
          "indexed": true,
          "internalType": "address",
          "name": "account",
          "type": "address"
        },
        {
          "indexed": true,
          "internalType": "address",
          "name": "operator",
          "type": "address"
        },
        {
          "indexed": false,
          "internalType": "bool",
          "name": "approved",
          "type": "bool"
        }
      ],
      "name": "ApprovalForAll",
      "type": "event"
    },
    {
      "anonymous": false,
      "inputs": [
        {
          "indexed": false,
          "internalType": "address",
          "name": "user",
          "type": "address"
        },
        {
          "indexed": false,
          "internalType": "uint256",
          "name": "casePrice",
          "type": "uint256"
        },
        {
          "indexed": false,
          "internalType": "uint256",
          "name": "item",
          "type": "uint256"
        }
      ],
      "name": "CaseOpened",
      "type": "event"
    },
    {
      "anonymous": false,
      "inputs": [
        {
          "indexed": true,
          "internalType": "bytes32",
          "name": "role",
          "type": "bytes32"
        },
        {
          "indexed": true,
          "internalType": "bytes32",
          "name": "previousAdminRole",
          "type": "bytes32"
        },
        {
          "indexed": true,
          "internalType": "bytes32",
          "name": "newAdminRole",
          "type": "bytes32"
        }
      ],
      "name": "RoleAdminChanged",
      "type": "event"
    },
    {
      "anonymous": false,
      "inputs": [
        {
          "indexed": true,
          "internalType": "bytes32",
          "name": "role",
          "type": "bytes32"
        },
        {
          "indexed": true,
          "internalType": "address",
          "name": "account",
          "type": "address"
        },
        {
          "indexed": true,
          "internalType": "address",
          "name": "sender",
          "type": "address"
        }
      ],
      "name": "RoleGranted",
      "type": "event"
    },
    {
      "anonymous": false,
      "inputs": [
        {
          "indexed": true,
          "internalType": "bytes32",
          "name": "role",
          "type": "bytes32"
        },
        {
          "indexed": true,
          "internalType": "address",
          "name": "account",
          "type": "address"
        },
        {
          "indexed": true,
          "internalType": "address",
          "name": "sender",
          "type": "address"
        }
      ],
      "name": "RoleRevoked",
      "type": "event"
    },
    {
      "anonymous": false,
      "inputs": [
        {
          "indexed": true,
          "internalType": "address",
          "name": "operator",
          "type": "address"
        },
        {
          "indexed": true,
          "internalType": "address",
          "name": "from",
          "type": "address"
        },
        {
          "indexed": true,
          "internalType": "address",
          "name": "to",
          "type": "address"
        },
        {
          "indexed": false,
          "internalType": "uint256[]",
          "name": "ids",
          "type": "uint256[]"
        },
        {
          "indexed": false,
          "internalType": "uint256[]",
          "name": "values",
          "type": "uint256[]"
        }
      ],
      "name": "TransferBatch",
      "type": "event"
    },
    {
      "anonymous": false,
      "inputs": [
        {
          "indexed": true,
          "internalType": "address",
          "name": "operator",
          "type": "address"
        },
        {
          "indexed": true,
          "internalType": "address",
          "name": "from",
          "type": "address"
        },
        {
          "indexed": true,
          "internalType": "address",
          "name": "to",
          "type": "address"
        },
        {
          "indexed": false,
          "internalType": "uint256",
          "name": "id",
          "type": "uint256"
        },
        {
          "indexed": false,
          "internalType": "uint256",
          "name": "value",
          "type": "uint256"
        }
      ],
      "name": "TransferSingle",
      "type": "event"
    },
    {
      "anonymous": false,
      "inputs": [
        {
          "indexed": false,
          "internalType": "string",
          "name": "value",
          "type": "string"
        },
        {
          "indexed": true,
          "internalType": "uint256",
          "name": "id",
          "type": "uint256"
        }
      ],
      "name": "URI",
      "type": "event"
    },
    {
      "anonymous": false,
      "inputs": [
        {
          "indexed": false,
          "internalType": "uint256",
          "name": "newPrice",
          "type": "uint256"
        }
      ],
      "name": "casePriceChanged",
      "type": "event"
    },
    {
      "anonymous": false,
      "inputs": [
        {
          "indexed": false,
          "internalType": "address",
          "name": "buyer",
          "type": "address"
        },
        {
          "indexed": false,
          "internalType": "address",
          "name": "seller",
          "type": "address"
        },
        {
          "indexed": false,
          "internalType": "uint256",
          "name": "marketItemId",
          "type": "uint256"
        },
        {
          "indexed": false,
          "internalType": "uint256",
          "name": "price",
          "type": "uint256"
        }
      ],
      "name": "itemBought",
      "type": "event"
    },
    {
      "anonymous": false,
      "inputs": [
        {
          "indexed": false,
          "internalType": "address",
          "name": "user",
          "type": "address"
        },
        {
          "indexed": false,
          "internalType": "uint256",
          "name": "tokenId",
          "type": "uint256"
        }
      ],
      "name": "itemExchanged",
      "type": "event"
    },
    {
      "anonymous": false,
      "inputs": [
        {
          "indexed": false,
          "internalType": "address",
          "name": "owner",
          "type": "address"
        },
        {
          "indexed": false,
          "internalType": "uint256",
          "name": "marketItemId",
          "type": "uint256"
        },
        {
          "indexed": false,
          "internalType": "uint256",
          "name": "oldPrice",
          "type": "uint256"
        },
        {
          "indexed": false,
          "internalType": "uint256",
          "name": "newPrice",
          "type": "uint256"
        }
      ],
      "name": "itemPriceChanged",
      "type": "event"
    },
    {
      "anonymous": false,
      "inputs": [
        {
          "indexed": false,
          "internalType": "address",
          "name": "user",
          "type": "address"
        },
        {
          "indexed": false,
          "internalType": "uint256",
          "name": "tokenId",
          "type": "uint256"
        },
        {
          "indexed": false,
          "internalType": "uint256",
          "name": "price",
          "type": "uint256"
        }
      ],
      "name": "sellingItem",
      "type": "event"
    },
    {
      "anonymous": false,
      "inputs": [
        {
          "indexed": false,
          "internalType": "address",
          "name": "owner",
          "type": "address"
        },
        {
          "indexed": false,
          "internalType": "uint256",
          "name": "marketItemId",
          "type": "uint256"
        }
      ],
      "name": "unListedItem",
      "type": "event"
    },
    {
      "inputs": [],
      "name": "ADMIN_ROLE",
      "outputs": [
        {
          "internalType": "bytes32",
          "name": "",
          "type": "bytes32"
        }
      ],
      "stateMutability": "view",
      "type": "function"
    },
    {
      "inputs": [],
      "name": "DEFAULT_ADMIN_ROLE",
      "outputs": [
        {
          "internalType": "bytes32",
          "name": "",
          "type": "bytes32"
        }
      ],
      "stateMutability": "view",
      "type": "function"
    },
    {
      "inputs": [],
      "name": "NUM_WORDS",
      "outputs": [
        {
          "internalType": "uint32",
          "name": "",
          "type": "uint32"
        }
      ],
      "stateMutability": "view",
      "type": "function"
    },
    {
      "inputs": [],
      "name": "REQUEST_CONFIRMATIONS",
      "outputs": [
        {
          "internalType": "uint16",
          "name": "",
          "type": "uint16"
        }
      ],
      "stateMutability": "view",
      "type": "function"
    },
    {
      "inputs": [],
      "name": "_randomNumber",
      "outputs": [
        {
          "internalType": "uint256",
          "name": "",
          "type": "uint256"
        }
      ],
      "stateMutability": "nonpayable",
      "type": "function"
    },
    {
      "inputs": [
        {
          "internalType": "uint256",
          "name": "tokenId",
          "type": "uint256"
        }
      ],
      "name": "_rarityOfItem",
      "outputs": [
        {
          "internalType": "uint256",
          "name": "",
          "type": "uint256"
        }
      ],
      "stateMutability": "view",
      "type": "function"
    },
    {
      "inputs": [
        {
          "internalType": "address",
          "name": "account",
          "type": "address"
        },
        {
          "internalType": "uint256",
          "name": "id",
          "type": "uint256"
        }
      ],
      "name": "balanceOf",
      "outputs": [
        {
          "internalType": "uint256",
          "name": "",
          "type": "uint256"
        }
      ],
      "stateMutability": "view",
      "type": "function"
    },
    {
      "inputs": [
        {
          "internalType": "address[]",
          "name": "accounts",
          "type": "address[]"
        },
        {
          "internalType": "uint256[]",
          "name": "ids",
          "type": "uint256[]"
        }
      ],
      "name": "balanceOfBatch",
      "outputs": [
        {
          "internalType": "uint256[]",
          "name": "",
          "type": "uint256[]"
        }
      ],
      "stateMutability": "view",
      "type": "function"
    },
    {
      "inputs": [
        {
          "internalType": "uint256",
          "name": "marketItemId",
          "type": "uint256"
        }
      ],
      "name": "buyItem",
      "outputs": [],
      "stateMutability": "nonpayable",
      "type": "function"
    },
    {
      "inputs": [],
      "name": "casePrice",
      "outputs": [
        {
          "internalType": "uint256",
          "name": "",
          "type": "uint256"
        }
      ],
      "stateMutability": "view",
      "type": "function"
    },
    {
      "inputs": [
        {
          "internalType": "uint256",
          "name": "marketItemId",
          "type": "uint256"
        },
        {
          "internalType": "uint256",
          "name": "newPrice",
          "type": "uint256"
        }
      ],
      "name": "changeItemPrice",
      "outputs": [],
      "stateMutability": "nonpayable",
      "type": "function"
    },
    {
      "inputs": [],
      "name": "contractActive",
      "outputs": [
        {
          "internalType": "bool",
          "name": "",
          "type": "bool"
        }
      ],
      "stateMutability": "view",
      "type": "function"
    },
    {
      "inputs": [
        {
          "internalType": "uint256",
          "name": "marketItemId",
          "type": "uint256"
        }
      ],
      "name": "exchangeItem",
      "outputs": [],
      "stateMutability": "nonpayable",
      "type": "function"
    },
    {
      "inputs": [],
      "name": "flipContractState",
      "outputs": [],
      "stateMutability": "nonpayable",
      "type": "function"
    },
    {
      "inputs": [],
      "name": "getCasePrice",
      "outputs": [
        {
          "internalType": "uint256",
          "name": "",
          "type": "uint256"
        }
      ],
      "stateMutability": "view",
      "type": "function"
    },
    {
      "inputs": [],
      "name": "getItemsOnSale",
      "outputs": [
        {
          "components": [
            {
              "internalType": "uint256",
              "name": "tokenId",
              "type": "uint256"
            },
            {
              "internalType": "uint256",
              "name": "marketItemId",
              "type": "uint256"
            },
            {
              "internalType": "uint256",
              "name": "price",
              "type": "uint256"
            },
            {
              "internalType": "address",
              "name": "seller",
              "type": "address"
            },
            {
              "internalType": "bool",
              "name": "sold",
              "type": "bool"
            }
          ],
          "internalType": "struct RacksItems.itemOnSale[]",
          "name": "",
          "type": "tuple[]"
        }
      ],
      "stateMutability": "view",
      "type": "function"
    },
    {
      "inputs": [
        {
          "internalType": "uint256",
          "name": "marketItemId",
          "type": "uint256"
        }
      ],
      "name": "getMarketItem",
      "outputs": [
        {
          "components": [
            {
              "internalType": "uint256",
              "name": "tokenId",
              "type": "uint256"
            },
            {
              "internalType": "uint256",
              "name": "marketItemId",
              "type": "uint256"
            },
            {
              "internalType": "uint256",
              "name": "price",
              "type": "uint256"
            },
            {
              "internalType": "address",
              "name": "seller",
              "type": "address"
            },
            {
              "internalType": "bool",
              "name": "sold",
              "type": "bool"
            }
          ],
          "internalType": "struct RacksItems.itemOnSale",
          "name": "",
          "type": "tuple"
        }
      ],
      "stateMutability": "view",
      "type": "function"
    },
    {
      "inputs": [
        {
          "internalType": "bytes32",
          "name": "role",
          "type": "bytes32"
        }
      ],
      "name": "getRoleAdmin",
      "outputs": [
        {
          "internalType": "bytes32",
          "name": "",
          "type": "bytes32"
        }
      ],
      "stateMutability": "view",
      "type": "function"
    },
    {
      "inputs": [
        {
          "internalType": "bytes32",
          "name": "role",
          "type": "bytes32"
        },
        {
          "internalType": "address",
          "name": "account",
          "type": "address"
        }
      ],
      "name": "grantRole",
      "outputs": [],
      "stateMutability": "nonpayable",
      "type": "function"
    },
    {
      "inputs": [
        {
          "internalType": "bytes32",
          "name": "role",
          "type": "bytes32"
        },
        {
          "internalType": "address",
          "name": "account",
          "type": "address"
        }
      ],
      "name": "hasRole",
      "outputs": [
        {
          "internalType": "bool",
          "name": "",
          "type": "bool"
        }
      ],
      "stateMutability": "view",
      "type": "function"
    },
    {
      "inputs": [],
      "name": "i_MrCryptoAddress",
      "outputs": [
        {
          "internalType": "address",
          "name": "",
          "type": "address"
        }
      ],
      "stateMutability": "view",
      "type": "function"
    },
    {
      "inputs": [],
      "name": "i_callbackGasLimit",
      "outputs": [
        {
          "internalType": "uint32",
          "name": "",
          "type": "uint32"
        }
      ],
      "stateMutability": "view",
      "type": "function"
    },
    {
      "inputs": [],
      "name": "i_gasLane",
      "outputs": [
        {
          "internalType": "bytes32",
          "name": "",
          "type": "bytes32"
        }
      ],
      "stateMutability": "view",
      "type": "function"
    },
    {
      "inputs": [],
      "name": "i_subscriptionId",
      "outputs": [
        {
          "internalType": "uint64",
          "name": "",
          "type": "uint64"
        }
      ],
      "stateMutability": "view",
      "type": "function"
    },
    {
      "inputs": [],
      "name": "i_vrfCoordinator",
      "outputs": [
        {
          "internalType": "contract VRFCoordinatorV2Interface",
          "name": "",
          "type": "address"
        }
      ],
      "stateMutability": "view",
      "type": "function"
    },
    {
      "inputs": [
        {
          "internalType": "address",
          "name": "account",
          "type": "address"
        },
        {
          "internalType": "address",
          "name": "operator",
          "type": "address"
        }
      ],
      "name": "isApprovedForAll",
      "outputs": [
        {
          "internalType": "bool",
          "name": "",
          "type": "bool"
        }
      ],
      "stateMutability": "view",
      "type": "function"
    },
    {
      "inputs": [
        {
          "internalType": "address",
          "name": "user",
          "type": "address"
        }
      ],
      "name": "isVip",
      "outputs": [
        {
          "internalType": "bool",
          "name": "",
          "type": "bool"
        }
      ],
      "stateMutability": "view",
      "type": "function"
    },
    {
      "inputs": [
        {
          "internalType": "uint256",
          "name": "itemSupply",
          "type": "uint256"
        }
      ],
      "name": "listItem",
      "outputs": [],
      "stateMutability": "nonpayable",
      "type": "function"
    },
    {
      "inputs": [
        {
          "internalType": "address",
          "name": "",
          "type": "address"
        },
        {
          "internalType": "address",
          "name": "",
          "type": "address"
        },
        {
          "internalType": "uint256[]",
          "name": "",
          "type": "uint256[]"
        },
        {
          "internalType": "uint256[]",
          "name": "",
          "type": "uint256[]"
        },
        {
          "internalType": "bytes",
          "name": "",
          "type": "bytes"
        }
      ],
      "name": "onERC1155BatchReceived",
      "outputs": [
        {
          "internalType": "bytes4",
          "name": "",
          "type": "bytes4"
        }
      ],
      "stateMutability": "nonpayable",
      "type": "function"
    },
    {
      "inputs": [
        {
          "internalType": "address",
          "name": "",
          "type": "address"
        },
        {
          "internalType": "address",
          "name": "",
          "type": "address"
        },
        {
          "internalType": "uint256",
          "name": "",
          "type": "uint256"
        },
        {
          "internalType": "uint256",
          "name": "",
          "type": "uint256"
        },
        {
          "internalType": "bytes",
          "name": "",
          "type": "bytes"
        }
      ],
      "name": "onERC1155Received",
      "outputs": [
        {
          "internalType": "bytes4",
          "name": "",
          "type": "bytes4"
        }
      ],
      "stateMutability": "nonpayable",
      "type": "function"
    },
    {
      "inputs": [],
      "name": "openCase",
      "outputs": [],
      "stateMutability": "nonpayable",
      "type": "function"
    },
    {
      "inputs": [
        {
          "internalType": "uint256",
          "name": "requestId",
          "type": "uint256"
        },
        {
          "internalType": "uint256[]",
          "name": "randomWords",
          "type": "uint256[]"
        }
      ],
      "name": "rawFulfillRandomWords",
      "outputs": [],
      "stateMutability": "nonpayable",
      "type": "function"
    },
    {
      "inputs": [
        {
          "internalType": "address[]",
          "name": "users",
          "type": "address[]"
        }
      ],
      "name": "removeListRacksMembers",
      "outputs": [],
      "stateMutability": "nonpayable",
      "type": "function"
    },
    {
      "inputs": [
        {
          "internalType": "address",
          "name": "user",
          "type": "address"
        }
      ],
      "name": "removeSingleRacksMember",
      "outputs": [],
      "stateMutability": "nonpayable",
      "type": "function"
    },
    {
      "inputs": [
        {
          "internalType": "bytes32",
          "name": "role",
          "type": "bytes32"
        },
        {
          "internalType": "address",
          "name": "account",
          "type": "address"
        }
      ],
      "name": "renounceRole",
      "outputs": [],
      "stateMutability": "nonpayable",
      "type": "function"
    },
    {
      "inputs": [
        {
          "internalType": "bytes32",
          "name": "role",
          "type": "bytes32"
        },
        {
          "internalType": "address",
          "name": "account",
          "type": "address"
        }
      ],
      "name": "revokeRole",
      "outputs": [],
      "stateMutability": "nonpayable",
      "type": "function"
    },
    {
      "inputs": [],
      "name": "s_contractState",
      "outputs": [
        {
          "internalType": "enum RacksItems.ContractState",
          "name": "",
          "type": "uint8"
        }
      ],
      "stateMutability": "view",
      "type": "function"
    },
    {
      "inputs": [],
      "name": "s_randomWord",
      "outputs": [
        {
          "internalType": "uint256",
          "name": "",
          "type": "uint256"
        }
      ],
      "stateMutability": "view",
      "type": "function"
    },
    {
      "inputs": [
        {
          "internalType": "address",
          "name": "from",
          "type": "address"
        },
        {
          "internalType": "address",
          "name": "to",
          "type": "address"
        },
        {
          "internalType": "uint256[]",
          "name": "ids",
          "type": "uint256[]"
        },
        {
          "internalType": "uint256[]",
          "name": "amounts",
          "type": "uint256[]"
        },
        {
          "internalType": "bytes",
          "name": "data",
          "type": "bytes"
        }
      ],
      "name": "safeBatchTransferFrom",
      "outputs": [],
      "stateMutability": "nonpayable",
      "type": "function"
    },
    {
      "inputs": [
        {
          "internalType": "address",
          "name": "from",
          "type": "address"
        },
        {
          "internalType": "address",
          "name": "to",
          "type": "address"
        },
        {
          "internalType": "uint256",
          "name": "id",
          "type": "uint256"
        },
        {
          "internalType": "uint256",
          "name": "amount",
          "type": "uint256"
        },
        {
          "internalType": "bytes",
          "name": "data",
          "type": "bytes"
        }
      ],
      "name": "safeTransferFrom",
      "outputs": [],
      "stateMutability": "nonpayable",
      "type": "function"
    },
    {
      "inputs": [
        {
          "internalType": "uint256",
          "name": "marketItemId",
          "type": "uint256"
        },
        {
          "internalType": "uint256",
          "name": "price",
          "type": "uint256"
        }
      ],
      "name": "sellItem",
      "outputs": [],
      "stateMutability": "nonpayable",
      "type": "function"
    },
    {
      "inputs": [
        {
          "internalType": "address",
          "name": "_newAdmin",
          "type": "address"
        }
      ],
      "name": "setAdmin",
      "outputs": [],
      "stateMutability": "nonpayable",
      "type": "function"
    },
    {
      "inputs": [
        {
          "internalType": "address",
          "name": "operator",
          "type": "address"
        },
        {
          "internalType": "bool",
          "name": "approved",
          "type": "bool"
        }
      ],
      "name": "setApprovalForAll",
      "outputs": [],
      "stateMutability": "nonpayable",
      "type": "function"
    },
    {
      "inputs": [
        {
          "internalType": "uint256",
          "name": "price",
          "type": "uint256"
        }
      ],
      "name": "setCasePrice",
      "outputs": [],
      "stateMutability": "nonpayable",
      "type": "function"
    },
    {
      "inputs": [
        {
          "internalType": "address[]",
          "name": "users",
          "type": "address[]"
        }
      ],
      "name": "setListRacksMembers",
      "outputs": [],
      "stateMutability": "nonpayable",
      "type": "function"
    },
    {
      "inputs": [
        {
          "internalType": "address",
          "name": "user",
          "type": "address"
        }
      ],
      "name": "setSingleRacksMember",
      "outputs": [],
      "stateMutability": "nonpayable",
      "type": "function"
    },
    {
      "inputs": [
        {
          "internalType": "uint256",
          "name": "tokenId",
          "type": "uint256"
        },
        {
          "internalType": "string",
          "name": "_uri",
          "type": "string"
        }
      ],
      "name": "setTokenUri",
      "outputs": [],
      "stateMutability": "nonpayable",
      "type": "function"
    },
    {
      "inputs": [
        {
          "internalType": "uint256",
          "name": "tokenId",
          "type": "uint256"
        }
      ],
      "name": "supplyOfItem",
      "outputs": [
        {
          "internalType": "uint256",
          "name": "",
          "type": "uint256"
        }
      ],
      "stateMutability": "view",
      "type": "function"
    },
    {
      "inputs": [
        {
          "internalType": "bytes4",
          "name": "interfaceId",
          "type": "bytes4"
        }
      ],
      "name": "supportsInterface",
      "outputs": [
        {
          "internalType": "bool",
          "name": "",
          "type": "bool"
        }
      ],
      "stateMutability": "view",
      "type": "function"
    },
    {
      "inputs": [
        {
          "internalType": "uint256",
          "name": "marketItemId",
          "type": "uint256"
        }
      ],
      "name": "unListItem",
      "outputs": [],
      "stateMutability": "nonpayable",
      "type": "function"
    },
    {
      "inputs": [
        {
          "internalType": "uint256",
          "name": "tokenId",
          "type": "uint256"
        }
      ],
      "name": "uri",
      "outputs": [
        {
          "internalType": "string",
          "name": "",
          "type": "string"
        }
      ],
      "stateMutability": "view",
      "type": "function"
    },
    {
      "inputs": [
        {
          "internalType": "address",
          "name": "owner",
          "type": "address"
        }
      ],
      "name": "viewItems",
      "outputs": [
        {
          "internalType": "uint256[]",
          "name": "",
          "type": "uint256[]"
        }
      ],
      "stateMutability": "view",
      "type": "function"
    },
    {
      "inputs": [
        {
          "internalType": "address",
          "name": "wallet",
          "type": "address"
        }
      ],
      "name": "withdrawAllFunds",
      "outputs": [],
      "stateMutability": "nonpayable",
      "type": "function"
    },
    {
      "inputs": [
        {
          "internalType": "address",
          "name": "wallet",
          "type": "address"
        },
        {
          "internalType": "uint256",
          "name": "amount",
          "type": "uint256"
        }
      ],
      "name": "withdrawFunds",
      "outputs": [],
      "stateMutability": "nonpayable",
      "type": "function"
    },
    {
      "stateMutability": "payable",
      "type": "receive"
    }
  ],
  "bytecode": "0x610120604052600b805460ff191660011790553480156200001f57600080fd5b50604051620046af380380620046af8339810160408190526200004291620001e7565b60408051602081019091526000815285906200005e816200010b565b50606090811b6001600160601b031990811660805295901b90941660a05260c0928352911b6001600160c01b03191660e09081521b6001600160e01b031916610100526004805473ef453154766505feb9dbf0a58e6990fd6eb669696001600160a01b0319918216179091556005805482166001600160a01b0393909316929092179091556006805433921691909117905560006008556001600a55600b805461ff0019169055620002a4565b80516200012090600290602084019062000124565b5050565b828054620001329062000267565b90600052602060002090601f016020900481019282620001565760008555620001a1565b82601f106200017157805160ff1916838001178555620001a1565b82800160010185558215620001a1579182015b82811115620001a157825182559160200191906001019062000184565b50620001af929150620001b3565b5090565b5b80821115620001af5760008155600101620001b4565b80516001600160a01b0381168114620001e257600080fd5b919050565b600080600080600060a086880312156200020057600080fd5b6200020b86620001ca565b6020870151604088015191965094506001600160401b03811681146200023057600080fd5b606087015190935063ffffffff811681146200024b57600080fd5b91506200025b60808701620001ca565b90509295509295909350565b600181811c908216806200027c57607f821691505b602082108114156200029e57634e487b7160e01b600052602260045260246000fd5b50919050565b60805160601c60a05160601c60c05160e05160c01c6101005160e01c6143976200031860003960008181610a0901526118e70152600081816105a501526118b40152600081816107b0015261188501526000818161089f0152611922015260008181610d460152610da101526143976000f3fe6080604052600436106103585760003560e01c80638ba8b15a116101bb578063c1075329116100f7578063e289fcb611610095578063f23a6e611161006f578063f23a6e6114610ac3578063f242432a14610aef578063f48c9d3414610b0f578063fd210fd914610b2f57600080fd5b8063e289fcb614610a40578063e7fb74c714610a5a578063e985e9c514610a7a57600080fd5b8063ca90958f116100d1578063ca90958f146109c1578063d547741f146109d7578063d757d027146109f7578063de08f65314610a2b57600080fd5b8063c107532914610954578063c7be7a4914610974578063c7e05f8d146109a157600080fd5b8063a22cb46511610164578063aebc45501161013e578063aebc45501461088d578063b63b8612146108c1578063bbcbc2e7146108ed578063bc197c811461090f57600080fd5b8063a22cb4651461082d578063a7b194241461084d578063a7bc77c61461086d57600080fd5b806391d148541161019557806391d14854146107d2578063976298f314610818578063a217fddf1461070957600080fd5b80638ba8b15a1461075e5780638dc5f45b1461077e5780638e879c8a1461079e57600080fd5b806336568abe11610295578063616524501161023357806372cf6e341161020d57806372cf6e34146106df57806375b238fc1461070957806384203f4b1461071e57806389165aa91461073e57600080fd5b8063616524501461068257806367f082b014610697578063704b6c02146106bf57600080fd5b80634e1273f41161026f5780634e1273f4146105f55780635408c3191461062257806354e889f61461064257806357f7789e1461066257600080fd5b806336568abe14610573578063470cdf97146105935780634a226657146105e057600080fd5b806320ba0814116103025780632d923561116102dc5780632d923561146104f35780632eb2c2d6146105135780632f2ff15d1461053357806332dee40b1461055357600080fd5b806320ba081414610476578063248a9ca3146104a35780632ce38190146104d357600080fd5b8063109b827811610333578063109b8278146103f45780631cb0b273146104345780631fe543e31461045657600080fd5b8062fdd58e1461036457806301ffc9a7146103975780630e89341c146103c757600080fd5b3661035f57005b600080fd5b34801561037057600080fd5b5061038461037f366004613bd1565b610b45565b6040519081526020015b60405180910390f35b3480156103a357600080fd5b506103b76103b2366004613cf5565b610bf1565b604051901515815260200161038e565b3480156103d357600080fd5b506103e76103e2366004613cb9565b610bfc565b60405161038e919061406e565b34801561040057600080fd5b5061041c73ef453154766505feb9dbf0a58e6990fd6eb6696981565b6040516001600160a01b03909116815260200161038e565b34801561044057600080fd5b5061045461044f366004613cb9565b610c9e565b005b34801561046257600080fd5b50610454610471366004613d48565b610d3b565b34801561048257600080fd5b50610384610491366004613cb9565b6000908152600f602052604090205490565b3480156104af57600080fd5b506103846104be366004613cb9565b60009081526003602052604090206001015490565b3480156104df57600080fd5b506104546104ee366004613cb9565b610ddc565b3480156104ff57600080fd5b5061045461050e366004613dd6565b610e48565b34801561051f57600080fd5b5061045461052e366004613a8b565b611037565b34801561053f57600080fd5b5061045461054e366004613cd2565b6110d9565b34801561055f57600080fd5b5061045461056e366004613a3d565b611103565b34801561057f57600080fd5b5061045461058e366004613cd2565b6112ab565b34801561059f57600080fd5b506105c77f000000000000000000000000000000000000000000000000000000000000000081565b60405167ffffffffffffffff909116815260200161038e565b3480156105ec57600080fd5b50610454611333565b34801561060157600080fd5b50610615610610366004613c38565b6114ef565b60405161038e9190614005565b34801561062e57600080fd5b5061045461063d366004613bfb565b61162d565b34801561064e57600080fd5b5061045461065d366004613a3d565b6116f4565b34801561066e57600080fd5b5061045461067d366004613d85565b611777565b34801561068e57600080fd5b5061038461185d565b3480156106a357600080fd5b506106ac600381565b60405161ffff909116815260200161038e565b3480156106cb57600080fd5b506104546106da366004613a3d565b61199e565b3480156106eb57600080fd5b506106f4600281565b60405163ffffffff909116815260200161038e565b34801561071557600080fd5b50610384600081565b34801561072a57600080fd5b506103b7610739366004613a3d565b611a03565b34801561074a57600080fd5b50610454610759366004613bfb565b611abd565b34801561076a57600080fd5b50610454610779366004613a3d565b611b84565b34801561078a57600080fd5b50610454610799366004613cb9565b611c04565b3480156107aa57600080fd5b506103847f000000000000000000000000000000000000000000000000000000000000000081565b3480156107de57600080fd5b506103b76107ed366004613cd2565b60009182526003602090815260408084206001600160a01b0393909316845291905290205460ff1690565b34801561082457600080fd5b50600a54610384565b34801561083957600080fd5b50610454610848366004613b9a565b611c98565b34801561085957600080fd5b50610454610868366004613dd6565b611ca3565b34801561087957600080fd5b50610454610888366004613cb9565b611dce565b34801561089957600080fd5b5061041c7f000000000000000000000000000000000000000000000000000000000000000081565b3480156108cd57600080fd5b50600b546108e090610100900460ff1681565b60405161038e9190614046565b3480156108f957600080fd5b50610902611ef7565b60405161038e9190613f81565b34801561091b57600080fd5b5061093b61092a366004613a8b565b63bc197c8160e01b95945050505050565b6040516001600160e01b0319909116815260200161038e565b34801561096057600080fd5b5061045461096f366004613bd1565b612102565b34801561098057600080fd5b5061099461098f366004613cb9565b6122ab565b60405161038e9190614081565b3480156109ad57600080fd5b506103846109bc366004613cb9565b61235e565b3480156109cd57600080fd5b50610384600a5481565b3480156109e357600080fd5b506104546109f2366004613cd2565b612395565b348015610a0357600080fd5b506106f47f000000000000000000000000000000000000000000000000000000000000000081565b348015610a3757600080fd5b506104546123ba565b348015610a4c57600080fd5b50600b546103b79060ff1681565b348015610a6657600080fd5b50610454610a75366004613cb9565b61245b565b348015610a8657600080fd5b506103b7610a95366004613a58565b6001600160a01b03918216600090815260016020908152604080832093909416825291909152205460ff1690565b348015610acf57600080fd5b5061093b610ade366004613b35565b63f23a6e6160e01b95945050505050565b348015610afb57600080fd5b50610454610b0a366004613b35565b612643565b348015610b1b57600080fd5b50610615610b2a366004613a3d565b6126de565b348015610b3b57600080fd5b50610384600d5481565b60006001600160a01b038316610bc85760405162461bcd60e51b815260206004820152602b60248201527f455243313135353a2062616c616e636520717565727920666f7220746865207a60448201527f65726f206164647265737300000000000000000000000000000000000000000060648201526084015b60405180910390fd5b506000818152602081815260408083206001600160a01b03861684529091529020545b92915050565b6000610beb82612775565b6000818152601060205260409020805460609190610c1990614192565b80601f0160208091040260200160405190810160405280929190818152602001828054610c4590614192565b8015610c925780601f10610c6757610100808354040283529160200191610c92565b820191906000526020600020905b815481529060010190602001808311610c7557829003601f168201915b50505050509050919050565b6000610caa3383610b45565b11610cb457600080fd5b610cc0338260016127b3565b6000818152600f60205260408120805460019290610cdf908490614134565b92505081905550600160076000828254610cf99190614134565b909155505060408051338152602081018390527f9e90d55d2f1f115ffe1b87372c45f27f6b3a2b5ba392942167be78456189009491015b60405180910390a150565b336001600160a01b037f00000000000000000000000000000000000000000000000000000000000000001614610dce576040517f1cf993f40000000000000000000000000000000000000000000000000000000081523360048201526001600160a01b037f0000000000000000000000000000000000000000000000000000000000000000166024820152604401610bbf565b610dd88282612967565b5050565b610de53361298c565b610e3b5760405162461bcd60e51b815260206004820152602160248201527f55736572206973206e6f7420746865204f776e6572206f7220616e2041646d696044820152603760f91b6064820152608401610bbf565b610e4530826129eb565b50565b6000610e543384610b45565b11610ea15760405162461bcd60e51b815260206004820152600f60248201527f4974656d206e6f7420666f756e642e00000000000000000000000000000000006044820152606401610bbf565b610ebe333084600160405180602001604052806000815250612a56565b6040805160a08101825283815260098054602083019081529282018481523360608401908152600060808501818152600c8054600181018255908352955160049096027fdf6966c971051c3d54ec59162606531493a51404a002842f56009d7e5cf4a8c781019690965595517fdf6966c971051c3d54ec59162606531493a51404a002842f56009d7e5cf4a8c886015591517fdf6966c971051c3d54ec59162606531493a51404a002842f56009d7e5cf4a8c9850155517fdf6966c971051c3d54ec59162606531493a51404a002842f56009d7e5cf4a8ca909301805494511515600160a01b027fffffffffffffffffffffff0000000000000000000000000000000000000000009095166001600160a01b03949094169390931793909317909155805491610fec836141fa565b909155505060408051338152602081018490529081018290527f23cba88d6c6f26b62b2cfc32a2cc04fbbde8590188b97cd3590e45af9ac6dd6d906060015b60405180910390a15050565b6001600160a01b03851633148061105357506110538533610a95565b6110c55760405162461bcd60e51b815260206004820152603260248201527f455243313135353a207472616e736665722063616c6c6572206973206e6f742060448201527f6f776e6572206e6f7220617070726f76656400000000000000000000000000006064820152608401610bbf565b6110d28585858585612c01565b5050505050565b6000828152600360205260409020600101546110f481612e74565b6110fe8383612e7e565b505050565b6006546001600160a01b0316331461115d5760405162461bcd60e51b815260206004820152601560248201527f55736572206973206e6f7420746865206f776e657200000000000000000000006044820152606401610bbf565b6005546040516370a0823160e01b81523060048201526000916001600160a01b0316906370a082319060240160206040518083038186803b1580156111a157600080fd5b505afa1580156111b5573d6000803e3d6000fd5b505050506040513d601f19601f820116820180604052508101906111d99190613d2f565b116112265760405162461bcd60e51b815260206004820152601460248201527f4e6f2066756e647320746f2077697468647261770000000000000000000000006044820152606401610bbf565b60055460405163a9059cbb60e01b81526001600160a01b0383811660048301524760248301529091169063a9059cbb90604401602060405180830381600087803b15801561127357600080fd5b505af1158015611287573d6000803e3d6000fd5b505050506040513d601f19601f82011682018060405250810190610dd89190613c9c565b6001600160a01b03811633146113295760405162461bcd60e51b815260206004820152602f60248201527f416363657373436f6e74726f6c3a2063616e206f6e6c792072656e6f756e636560448201527f20726f6c657320666f722073656c6600000000000000000000000000000000006064820152608401610bbf565b610dd88282612f20565b600554600a546040516323b872dd60e01b815233600482015230602482015260448101919091526001600160a01b03909116906323b872dd90606401602060405180830381600087803b15801561138957600080fd5b505af115801561139d573d6000803e3d6000fd5b505050506040513d601f19601f820116820180604052508101906113c19190613c9c565b5060006007546113cf61185d565b6113d99190614215565b9050600080805b6008548110156114a4576000818152600f602052604081205461140390856140e9565b90508385111561141557809350611491565b611420600183614134565b925061142c3084610b45565b61146e57600061143d600185614134565b90505b600061144c3083610b45565b111561145a5780935061146c565b806114648161417b565b915050611440565b505b61148b303385600160405180602001604052806000815250612a56565b506114a4565b508061149c816141fa565b9150506113e0565b50600a5460408051338152602081019290925281018290527fea32e37a2618dbb680c93d891742e9e13b30d184822562a0ee3c09290fd42b43906060015b60405180910390a1505050565b606081518351146115685760405162461bcd60e51b815260206004820152602960248201527f455243313135353a206163636f756e747320616e6420696473206c656e67746860448201527f206d69736d6174636800000000000000000000000000000000000000000000006064820152608401610bbf565b6000835167ffffffffffffffff81111561158457611584614281565b6040519080825280602002602001820160405280156115ad578160200160208202803683370190505b50905060005b8451811015611625576115f88582815181106115d1576115d161426b565b60200260200101518583815181106115eb576115eb61426b565b6020026020010151610b45565b82828151811061160a5761160a61426b565b602090810291909101015261161e816141fa565b90506115b3565b509392505050565b6116363361298c565b61168c5760405162461bcd60e51b815260206004820152602160248201527f55736572206973206e6f7420746865204f776e6572206f7220616e2041646d696044820152603760f91b6064820152608401610bbf565b60005b8151811015610dd8576000600e60008484815181106116b0576116b061426b565b6020908102919091018101516001600160a01b03168252810191909152604001600020805460ff1916911515919091179055806116ec816141fa565b91505061168f565b6116fd3361298c565b6117535760405162461bcd60e51b815260206004820152602160248201527f55736572206973206e6f7420746865204f776e6572206f7220616e2041646d696044820152603760f91b6064820152608401610bbf565b6001600160a01b03166000908152600e60205260409020805460ff19166001179055565b6117803361298c565b6117d65760405162461bcd60e51b815260206004820152602160248201527f55736572206973206e6f7420746865204f776e6572206f7220616e2041646d696044820152603760f91b6064820152608401610bbf565b600082815260106020526040902080546117ef90614192565b15905061183e5760405162461bcd60e51b815260206004820152601560248201527f43616e206e6f74207365742075726920747769636500000000000000000000006044820152606401610bbf565b600082815260106020908152604090912082516110fe92840190613822565b6040517f5d3b1d300000000000000000000000000000000000000000000000000000000081527f0000000000000000000000000000000000000000000000000000000000000000600482015267ffffffffffffffff7f00000000000000000000000000000000000000000000000000000000000000001660248201526003604482015263ffffffff7f00000000000000000000000000000000000000000000000000000000000000001660648201526002608482015260009081906001600160a01b037f00000000000000000000000000000000000000000000000000000000000000001690635d3b1d309060a401602060405180830381600087803b15801561196657600080fd5b505af115801561197a573d6000803e3d6000fd5b505050506040513d601f19601f82011682018060405250810190610beb9190613d2f565b6006546001600160a01b031633146119f85760405162461bcd60e51b815260206004820152601560248201527f55736572206973206e6f7420746865206f776e657200000000000000000000006044820152606401610bbf565b610e45600082612fa3565b600480546040516370a0823160e01b81526001600160a01b0384811693820193909352600092839216906370a082319060240160206040518083038186803b158015611a4e57600080fd5b505afa158015611a62573d6000803e3d6000fd5b505050506040513d601f19601f82011682018060405250810190611a869190613d2f565b11611a9057600080fd5b6001600160a01b0382166000908152600e602052604090205460ff16611ab557600080fd5b506001919050565b611ac63361298c565b611b1c5760405162461bcd60e51b815260206004820152602160248201527f55736572206973206e6f7420746865204f776e6572206f7220616e2041646d696044820152603760f91b6064820152608401610bbf565b60005b8151811015610dd8576001600e6000848481518110611b4057611b4061426b565b6020908102919091018101516001600160a01b03168252810191909152604001600020805460ff191691151591909117905580611b7c816141fa565b915050611b1f565b611b8d3361298c565b611be35760405162461bcd60e51b815260206004820152602160248201527f55736572206973206e6f7420746865204f776e6572206f7220616e2041646d696044820152603760f91b6064820152608401610bbf565b6001600160a01b03166000908152600e60205260409020805460ff19169055565b611c0d3361298c565b611c635760405162461bcd60e51b815260206004820152602160248201527f55736572206973206e6f7420746865204f776e6572206f7220616e2041646d696044820152603760f91b6064820152608401610bbf565b600a8190556040518181527f06cd74aabc11982a85b554df4d7833623303656fe69bed4db1b0cb3245feebe390602001610d30565b610dd8338383612fad565b336001600160a01b0316600c8381548110611cc057611cc061426b565b60009182526020909120600360049092020101546001600160a01b031614611d365760405162461bcd60e51b815260206004820152602360248201527f596f7520617265206e6f7420746865206f776e6572206f66207468697320697460448201526232b69760e91b6064820152608401610bbf565b6000600c8381548110611d4b57611d4b61426b565b906000526020600020906004020160020154905081600c8481548110611d7357611d7361426b565b600091825260209182902060026004909202010191909155604080513381529182018590528101829052606081018390527fb141d00f22a670547caacc412e6489d8edaba6a840df558118363ce1a40d6ed2906080016114e2565b336001600160a01b0316600c8281548110611deb57611deb61426b565b60009182526020909120600360049092020101546001600160a01b031614611e615760405162461bcd60e51b815260206004820152602360248201527f596f7520617265206e6f7420746865206f776e6572206f66207468697320697460448201526232b69760e91b6064820152608401610bbf565b611e7e303383600160405180602001604052806000815250612a56565b6001600c8281548110611e9357611e9361426b565b60009182526020918290206003600490920201018054921515600160a01b0260ff60a01b1990931692909217909155604080513381529182018390527fc9cedcca3d85d6009a562a9e70071f6288adabda9ba7f059589165e75c9cf4049101610d30565b60606000805b600c54811015611fa3576000600c8281548110611f1c57611f1c61426b565b60009182526020918290206040805160a0810182526004909302909101805483526001810154938301939093526002830154908201526003909101546001600160a01b038116606083015260ff600160a01b90910416151560808201819052909150611f9057611f8d6001846140e9565b92505b5080611f9b816141fa565b915050611efd565b5060008167ffffffffffffffff811115611fbf57611fbf614281565b60405190808252806020026020018201604052801561202d57816020015b61201a6040518060a0016040528060008152602001600081526020016000815260200160006001600160a01b031681526020016000151581525090565b815260200190600190039081611fdd5790505b5090506000805b600c548110156120f9576000600c82815481106120535761205361426b565b60009182526020918290206040805160a0810182526004909302909101805483526001810154938301939093526002830154908201526003909101546001600160a01b038116606083015260ff600160a01b909104161515608082018190529091506120e657808484815181106120cc576120cc61426b565b602002602001018190525082806120e2906141fa565b9350505b50806120f1816141fa565b915050612034565b50909392505050565b6006546001600160a01b0316331461215c5760405162461bcd60e51b815260206004820152601560248201527f55736572206973206e6f7420746865206f776e657200000000000000000000006044820152606401610bbf565b6005546040516370a0823160e01b81523060048201526000916001600160a01b0316906370a082319060240160206040518083038186803b1580156121a057600080fd5b505afa1580156121b4573d6000803e3d6000fd5b505050506040513d601f19601f820116820180604052508101906121d89190613d2f565b116122255760405162461bcd60e51b815260206004820152601460248201527f4e6f2066756e647320746f2077697468647261770000000000000000000000006044820152606401610bbf565b60055460405163a9059cbb60e01b81526001600160a01b038481166004830152602482018490529091169063a9059cbb90604401602060405180830381600087803b15801561227357600080fd5b505af1158015612287573d6000803e3d6000fd5b505050506040513d601f19601f820116820180604052508101906110fe9190613c9c565b6122e86040518060a0016040528060008152602001600081526020016000815260200160006001600160a01b031681526020016000151581525090565b600c82815481106122fb576122fb61426b565b60009182526020918290206040805160a0810182526004909302909101805483526001810154938301939093526002830154908201526003909101546001600160a01b038116606083015260ff600160a01b909104161515608082015292915050565b6000612369826130a2565b61237257600080fd5b6000828152600f602052604081205460075461238e9190614101565b9392505050565b6000828152600360205260409020600101546123b081612e74565b6110fe8383612f20565b6123c33361298c565b6124195760405162461bcd60e51b815260206004820152602160248201527f55736572206973206e6f7420746865204f776e6572206f7220616e2041646d696044820152603760f91b6064820152608401610bbf565b6000600b54610100900460ff16600181111561243757612437614255565b141561244e57600b805461ff001916610100179055565b600b805461ff0019169055565b6000600c82815481106124705761247061426b565b60009182526020918290206040805160a081018252600493909302909101805483526001810154938301939093526002830154908201526003909101546001600160a01b03811660608301819052600160a01b90910460ff16151560808301529091503314156124df57600080fd5b6080810151156124ee57600080fd5b600554606082015160408084015190516323b872dd60e01b81523360048201526001600160a01b03928316602482015260448101919091529116906323b872dd90606401602060405180830381600087803b15801561254c57600080fd5b505af1158015612560573d6000803e3d6000fd5b505050506040513d601f19601f820116820180604052508101906125849190613c9c565b506125a630338360000151600160405180602001604052806000815250612a56565b6001600c83815481106125bb576125bb61426b565b60009182526020918290206003600490920201018054921515600160a01b0260ff60a01b199093169290921790915560608083015160408085015181513381526001600160a01b03909316948301949094528101859052908101919091527f642067ff529c9b5b1162502fc8e8a3a91dda56e126a84f2fe38d341236231a829060800161102b565b6001600160a01b03851633148061265f575061265f8533610a95565b6126d15760405162461bcd60e51b815260206004820152602960248201527f455243313135353a2063616c6c6572206973206e6f74206f776e6572206e6f7260448201527f20617070726f76656400000000000000000000000000000000000000000000006064820152608401610bbf565b6110d28585858585612a56565b6060600060085467ffffffffffffffff8111156126fd576126fd614281565b604051908082528060200260200182016040528015612726578160200160208202803683370190505b50905060005b815181101561276e5761273f8482610b45565b8282815181106127515761275161426b565b602090810291909101015280612766816141fa565b91505061272c565b5092915050565b60006001600160e01b031982167f7965db0b000000000000000000000000000000000000000000000000000000001480610beb5750610beb826130ba565b6001600160a01b03831661282f5760405162461bcd60e51b815260206004820152602360248201527f455243313135353a206275726e2066726f6d20746865207a65726f206164647260448201527f65737300000000000000000000000000000000000000000000000000000000006064820152608401610bbf565b33600061283b846130f8565b90506000612848846130f8565b60408051602080820183526000918290528882528181528282206001600160a01b038b16835290522054909150848110156128ea5760405162461bcd60e51b8152602060048201526024808201527f455243313135353a206275726e20616d6f756e7420657863656564732062616c60448201527f616e6365000000000000000000000000000000000000000000000000000000006064820152608401610bbf565b6000868152602081815260408083206001600160a01b038b81168086529184528285208a8703905582518b81529384018a90529092908816917fc3d58168c5ae7397731d063d5bbf3d657854427343f4c083240f7aacaa2d0f62910160405180910390a46040805160208101909152600090525b50505050505050565b8060008151811061297a5761297a61426b565b6020026020010151600d819055505050565b6006546000906001600160a01b03838116911614806129e257506001600160a01b03821660009081527f3617319a054d772f909f7c479a2cebe5066e836a939412e32403c99029b92eff602052604090205460ff165b611ab557600080fd5b612a08826008548360405180602001604052806000815250613143565b612a21600854826000918252600f602052604090912055565b8060076000828254612a3391906140e9565b92505081905550600160086000828254612a4d91906140e9565b90915550505050565b6001600160a01b038416612aba5760405162461bcd60e51b815260206004820152602560248201527f455243313135353a207472616e7366657220746f20746865207a65726f206164604482015264647265737360d81b6064820152608401610bbf565b336000612ac6856130f8565b90506000612ad3856130f8565b90506000868152602081815260408083206001600160a01b038c16845290915290205485811015612b595760405162461bcd60e51b815260206004820152602a60248201527f455243313135353a20696e73756666696369656e742062616c616e636520666f60448201526939103a3930b739b332b960b11b6064820152608401610bbf565b6000878152602081815260408083206001600160a01b038d8116855292528083208985039055908a16825281208054889290612b969084906140e9565b909155505060408051888152602081018890526001600160a01b03808b16928c821692918816917fc3d58168c5ae7397731d063d5bbf3d657854427343f4c083240f7aacaa2d0f62910160405180910390a4612bf6848a8a8a8a8a613266565b505050505050505050565b8151835114612c785760405162461bcd60e51b815260206004820152602860248201527f455243313135353a2069647320616e6420616d6f756e7473206c656e6774682060448201527f6d69736d617463680000000000000000000000000000000000000000000000006064820152608401610bbf565b6001600160a01b038416612cdc5760405162461bcd60e51b815260206004820152602560248201527f455243313135353a207472616e7366657220746f20746865207a65726f206164604482015264647265737360d81b6064820152608401610bbf565b3360005b8451811015612e06576000858281518110612cfd57612cfd61426b565b602002602001015190506000858381518110612d1b57612d1b61426b565b602090810291909101810151600084815280835260408082206001600160a01b038e168352909352919091205490915081811015612dae5760405162461bcd60e51b815260206004820152602a60248201527f455243313135353a20696e73756666696369656e742062616c616e636520666f60448201526939103a3930b739b332b960b11b6064820152608401610bbf565b6000838152602081815260408083206001600160a01b038e8116855292528083208585039055908b16825281208054849290612deb9084906140e9565b9250508190555050505080612dff906141fa565b9050612ce0565b50846001600160a01b0316866001600160a01b0316826001600160a01b03167f4a39dc06d4c0dbc64b70af90fd698a233a518aa5d07e595d983b8c0526c8f7fb8787604051612e56929190614018565b60405180910390a4612e6c81878787878761341b565b505050505050565b610e458133613526565b60008281526003602090815260408083206001600160a01b038516845290915290205460ff16610dd85760008281526003602090815260408083206001600160a01b03851684529091529020805460ff19166001179055612edc3390565b6001600160a01b0316816001600160a01b0316837f2f8788117e7eff1d82e926ec794901d17c78024a50270940304540a733656f0d60405160405180910390a45050565b60008281526003602090815260408083206001600160a01b038516845290915290205460ff1615610dd85760008281526003602090815260408083206001600160a01b0385168085529252808320805460ff1916905551339285917ff6391f5c32d9c69d2a47ea670b442974b53935d1edc7fd64eb21e047a839171b9190a45050565b610dd88282612e7e565b816001600160a01b0316836001600160a01b031614156130355760405162461bcd60e51b815260206004820152602960248201527f455243313135353a2073657474696e6720617070726f76616c2073746174757360448201527f20666f722073656c6600000000000000000000000000000000000000000000006064820152608401610bbf565b6001600160a01b03838116600081815260016020908152604080832094871680845294825291829020805460ff191686151590811790915591519182527f17307eab39ab6107e8899845ad3d59bd9653f200f220920489ca2b5937696c31910160405180910390a3505050565b6000818152600f6020526040812054611ab557600080fd5b60006001600160e01b031982167f4e2312e0000000000000000000000000000000000000000000000000000000001480610beb5750610beb826135a6565b604080516001808252818301909252606091600091906020808301908036833701905050905082816000815181106131325761313261426b565b602090810291909101015292915050565b6001600160a01b0384166131bf5760405162461bcd60e51b815260206004820152602160248201527f455243313135353a206d696e7420746f20746865207a65726f2061646472657360448201527f73000000000000000000000000000000000000000000000000000000000000006064820152608401610bbf565b3360006131cb856130f8565b905060006131d8856130f8565b90506000868152602081815260408083206001600160a01b038b1684529091528120805487929061320a9084906140e9565b909155505060408051878152602081018790526001600160a01b03808a1692600092918716917fc3d58168c5ae7397731d063d5bbf3d657854427343f4c083240f7aacaa2d0f62910160405180910390a461295e836000898989895b6001600160a01b0384163b15612e6c5760405163f23a6e6160e01b81526001600160a01b0385169063f23a6e61906132aa9089908990889088908890600401613f3e565b602060405180830381600087803b1580156132c457600080fd5b505af19250505080156132f4575060408051601f3d908101601f191682019092526132f191810190613d12565b60015b6133aa57613300614297565b806308c379a0141561333a57506133156142b3565b80613320575061333c565b8060405162461bcd60e51b8152600401610bbf919061406e565b505b60405162461bcd60e51b815260206004820152603460248201527f455243313135353a207472616e7366657220746f206e6f6e204552433131353560448201527f526563656976657220696d706c656d656e7465720000000000000000000000006064820152608401610bbf565b6001600160e01b0319811663f23a6e6160e01b1461295e5760405162461bcd60e51b815260206004820152602860248201527f455243313135353a204552433131353552656365697665722072656a656374656044820152676420746f6b656e7360c01b6064820152608401610bbf565b6001600160a01b0384163b15612e6c5760405163bc197c8160e01b81526001600160a01b0385169063bc197c819061345f9089908990889088908890600401613ee0565b602060405180830381600087803b15801561347957600080fd5b505af19250505080156134a9575060408051601f3d908101601f191682019092526134a691810190613d12565b60015b6134b557613300614297565b6001600160e01b0319811663bc197c8160e01b1461295e5760405162461bcd60e51b815260206004820152602860248201527f455243313135353a204552433131353552656365697665722072656a656374656044820152676420746f6b656e7360c01b6064820152608401610bbf565b60008281526003602090815260408083206001600160a01b038516845290915290205460ff16610dd857613564816001600160a01b03166014613641565b61356f836020613641565b604051602001613580929190613e5f565b60408051601f198184030181529082905262461bcd60e51b8252610bbf9160040161406e565b60006001600160e01b031982167fd9b67a2600000000000000000000000000000000000000000000000000000000148061360957506001600160e01b031982167f0e89341c00000000000000000000000000000000000000000000000000000000145b80610beb57507f01ffc9a7000000000000000000000000000000000000000000000000000000006001600160e01b0319831614610beb565b60606000613650836002614115565b61365b9060026140e9565b67ffffffffffffffff81111561367357613673614281565b6040519080825280601f01601f19166020018201604052801561369d576020820181803683370190505b5090507f3000000000000000000000000000000000000000000000000000000000000000816000815181106136d4576136d461426b565b60200101906001600160f81b031916908160001a9053507f78000000000000000000000000000000000000000000000000000000000000008160018151811061371f5761371f61426b565b60200101906001600160f81b031916908160001a9053506000613743846002614115565b61374e9060016140e9565b90505b60018111156137d3577f303132333435363738396162636465660000000000000000000000000000000085600f166010811061378f5761378f61426b565b1a60f81b8282815181106137a5576137a561426b565b60200101906001600160f81b031916908160001a90535060049490941c936137cc8161417b565b9050613751565b50831561238e5760405162461bcd60e51b815260206004820181905260248201527f537472696e67733a20686578206c656e67746820696e73756666696369656e746044820152606401610bbf565b82805461382e90614192565b90600052602060002090601f0160209004810192826138505760008555613896565b82601f1061386957805160ff1916838001178555613896565b82800160010185558215613896579182015b8281111561389657825182559160200191906001019061387b565b506138a29291506138a6565b5090565b5b808211156138a257600081556001016138a7565b600067ffffffffffffffff8311156138d5576138d5614281565b6040516138ec601f8501601f1916602001826141cd565b80915083815284848401111561390157600080fd5b83836020830137600060208583010152509392505050565b80356001600160a01b038116811461393057600080fd5b919050565b600082601f83011261394657600080fd5b81356020613953826140c5565b60405161396082826141cd565b8381528281019150858301600585901b8701840188101561398057600080fd5b60005b858110156139a65761399482613919565b84529284019290840190600101613983565b5090979650505050505050565b600082601f8301126139c457600080fd5b813560206139d1826140c5565b6040516139de82826141cd565b8381528281019150858301600585901b870184018810156139fe57600080fd5b60005b858110156139a657813584529284019290840190600101613a01565b600082601f830112613a2e57600080fd5b61238e838335602085016138bb565b600060208284031215613a4f57600080fd5b61238e82613919565b60008060408385031215613a6b57600080fd5b613a7483613919565b9150613a8260208401613919565b90509250929050565b600080600080600060a08688031215613aa357600080fd5b613aac86613919565b9450613aba60208701613919565b9350604086013567ffffffffffffffff80821115613ad757600080fd5b613ae389838a016139b3565b94506060880135915080821115613af957600080fd5b613b0589838a016139b3565b93506080880135915080821115613b1b57600080fd5b50613b2888828901613a1d565b9150509295509295909350565b600080600080600060a08688031215613b4d57600080fd5b613b5686613919565b9450613b6460208701613919565b93506040860135925060608601359150608086013567ffffffffffffffff811115613b8e57600080fd5b613b2888828901613a1d565b60008060408385031215613bad57600080fd5b613bb683613919565b91506020830135613bc68161433d565b809150509250929050565b60008060408385031215613be457600080fd5b613bed83613919565b946020939093013593505050565b600060208284031215613c0d57600080fd5b813567ffffffffffffffff811115613c2457600080fd5b613c3084828501613935565b949350505050565b60008060408385031215613c4b57600080fd5b823567ffffffffffffffff80821115613c6357600080fd5b613c6f86838701613935565b93506020850135915080821115613c8557600080fd5b50613c92858286016139b3565b9150509250929050565b600060208284031215613cae57600080fd5b815161238e8161433d565b600060208284031215613ccb57600080fd5b5035919050565b60008060408385031215613ce557600080fd5b82359150613a8260208401613919565b600060208284031215613d0757600080fd5b813561238e8161434b565b600060208284031215613d2457600080fd5b815161238e8161434b565b600060208284031215613d4157600080fd5b5051919050565b60008060408385031215613d5b57600080fd5b82359150602083013567ffffffffffffffff811115613d7957600080fd5b613c92858286016139b3565b60008060408385031215613d9857600080fd5b82359150602083013567ffffffffffffffff811115613db657600080fd5b8301601f81018513613dc757600080fd5b613c92858235602084016138bb565b60008060408385031215613de957600080fd5b50508035926020909101359150565b600081518084526020808501945080840160005b83811015613e2857815187529582019590820190600101613e0c565b509495945050505050565b60008151808452613e4b81602086016020860161414b565b601f01601f19169290920160200192915050565b7f416363657373436f6e74726f6c3a206163636f756e7420000000000000000000815260008351613e9781601785016020880161414b565b7f206973206d697373696e6720726f6c65200000000000000000000000000000006017918401918201528351613ed481602884016020880161414b565b01602801949350505050565b60006001600160a01b03808816835280871660208401525060a06040830152613f0c60a0830186613df8565b8281036060840152613f1e8186613df8565b90508281036080840152613f328185613e33565b98975050505050505050565b60006001600160a01b03808816835280871660208401525084604083015283606083015260a06080830152613f7660a0830184613e33565b979650505050505050565b6020808252825182820181905260009190848201906040850190845b81811015613ff957613fe68385518051825260208101516020830152604081015160408301526001600160a01b0360608201511660608301526080810151151560808301525050565b9284019260a09290920191600101613f9d565b50909695505050505050565b60208152600061238e6020830184613df8565b60408152600061402b6040830185613df8565b828103602084015261403d8185613df8565b95945050505050565b602081016002831061406857634e487b7160e01b600052602160045260246000fd5b91905290565b60208152600061238e6020830184613e33565b60a08101610beb82848051825260208101516020830152604081015160408301526001600160a01b0360608201511660608301526080810151151560808301525050565b600067ffffffffffffffff8211156140df576140df614281565b5060051b60200190565b600082198211156140fc576140fc614229565b500190565b6000826141105761411061423f565b500490565b600081600019048311821515161561412f5761412f614229565b500290565b60008282101561414657614146614229565b500390565b60005b8381101561416657818101518382015260200161414e565b83811115614175576000848401525b50505050565b60008161418a5761418a614229565b506000190190565b600181811c908216806141a657607f821691505b602082108114156141c757634e487b7160e01b600052602260045260246000fd5b50919050565b601f8201601f1916810167ffffffffffffffff811182821017156141f3576141f3614281565b6040525050565b600060001982141561420e5761420e614229565b5060010190565b6000826142245761422461423f565b500690565b634e487b7160e01b600052601160045260246000fd5b634e487b7160e01b600052601260045260246000fd5b634e487b7160e01b600052602160045260246000fd5b634e487b7160e01b600052603260045260246000fd5b634e487b7160e01b600052604160045260246000fd5b600060033d11156142b05760046000803e5060005160e01c5b90565b600060443d10156142c15790565b6040516003193d81016004833e81513d67ffffffffffffffff81602484011181841117156142f157505050505090565b82850191508151818111156143095750505050505090565b843d87010160208285010111156143235750505050505090565b614332602082860101876141cd565b509095945050505050565b8015158114610e4557600080fd5b6001600160e01b031981168114610e4557600080fdfea2646970667358221220cde85a52838d22af180bac211a0e9a411b45e0d26221d060ed1399581569822764736f6c63430008070033",
  "linkReferences": {},
  "deployedLinkReferences": {}
}