{
  "_format": "hh-sol-artifact-1",
  "contractName": "RacksItems",
  "sourceName": "contracts/RacksItems.sol",
  "abi": [
    {
      "inputs": [
        {
          "internalType": "address",
          "name": "vrfCoordinatorV2",
          "type": "address"
        },
        {
          "internalType": "bytes32",
          "name": "gasLane",
          "type": "bytes32"
        },
        {
          "internalType": "uint64",
          "name": "subscriptionId",
          "type": "uint64"
        },
        {
          "internalType": "uint32",
          "name": "callbackGasLimit",
          "type": "uint32"
        }
      ],
      "stateMutability": "nonpayable",
      "type": "constructor"
    },
    {
      "inputs": [
        {
          "internalType": "address",
          "name": "have",
          "type": "address"
        },
        {
          "internalType": "address",
          "name": "want",
          "type": "address"
        }
      ],
      "name": "OnlyCoordinatorCanFulfill",
      "type": "error"
    },
    {
      "anonymous": false,
      "inputs": [
        {
          "indexed": true,
          "internalType": "address",
          "name": "account",
          "type": "address"
        },
        {
          "indexed": true,
          "internalType": "address",
          "name": "operator",
          "type": "address"
        },
        {
          "indexed": false,
          "internalType": "bool",
          "name": "approved",
          "type": "bool"
        }
      ],
      "name": "ApprovalForAll",
      "type": "event"
    },
    {
      "anonymous": false,
      "inputs": [
        {
          "indexed": false,
          "internalType": "uint256",
          "name": "baseItemId",
          "type": "uint256"
        },
        {
          "indexed": false,
          "internalType": "uint256",
          "name": "rackstrackItemId",
          "type": "uint256"
        }
      ],
      "name": "RacksTrackMinted",
      "type": "event"
    },
    {
      "anonymous": false,
      "inputs": [
        {
          "indexed": true,
          "internalType": "bytes32",
          "name": "role",
          "type": "bytes32"
        },
        {
          "indexed": true,
          "internalType": "bytes32",
          "name": "previousAdminRole",
          "type": "bytes32"
        },
        {
          "indexed": true,
          "internalType": "bytes32",
          "name": "newAdminRole",
          "type": "bytes32"
        }
      ],
      "name": "RoleAdminChanged",
      "type": "event"
    },
    {
      "anonymous": false,
      "inputs": [
        {
          "indexed": true,
          "internalType": "bytes32",
          "name": "role",
          "type": "bytes32"
        },
        {
          "indexed": true,
          "internalType": "address",
          "name": "account",
          "type": "address"
        },
        {
          "indexed": true,
          "internalType": "address",
          "name": "sender",
          "type": "address"
        }
      ],
      "name": "RoleGranted",
      "type": "event"
    },
    {
      "anonymous": false,
      "inputs": [
        {
          "indexed": true,
          "internalType": "bytes32",
          "name": "role",
          "type": "bytes32"
        },
        {
          "indexed": true,
          "internalType": "address",
          "name": "account",
          "type": "address"
        },
        {
          "indexed": true,
          "internalType": "address",
          "name": "sender",
          "type": "address"
        }
      ],
      "name": "RoleRevoked",
      "type": "event"
    },
    {
      "anonymous": false,
      "inputs": [
        {
          "indexed": true,
          "internalType": "address",
          "name": "operator",
          "type": "address"
        },
        {
          "indexed": true,
          "internalType": "address",
          "name": "from",
          "type": "address"
        },
        {
          "indexed": true,
          "internalType": "address",
          "name": "to",
          "type": "address"
        },
        {
          "indexed": false,
          "internalType": "uint256[]",
          "name": "ids",
          "type": "uint256[]"
        },
        {
          "indexed": false,
          "internalType": "uint256[]",
          "name": "values",
          "type": "uint256[]"
        }
      ],
      "name": "TransferBatch",
      "type": "event"
    },
    {
      "anonymous": false,
      "inputs": [
        {
          "indexed": true,
          "internalType": "address",
          "name": "operator",
          "type": "address"
        },
        {
          "indexed": true,
          "internalType": "address",
          "name": "from",
          "type": "address"
        },
        {
          "indexed": true,
          "internalType": "address",
          "name": "to",
          "type": "address"
        },
        {
          "indexed": false,
          "internalType": "uint256",
          "name": "id",
          "type": "uint256"
        },
        {
          "indexed": false,
          "internalType": "uint256",
          "name": "value",
          "type": "uint256"
        }
      ],
      "name": "TransferSingle",
      "type": "event"
    },
    {
      "anonymous": false,
      "inputs": [
        {
          "indexed": false,
          "internalType": "string",
          "name": "value",
          "type": "string"
        },
        {
          "indexed": true,
          "internalType": "uint256",
          "name": "id",
          "type": "uint256"
        }
      ],
      "name": "URI",
      "type": "event"
    },
    {
      "inputs": [],
      "name": "ADMIN_ROLE",
      "outputs": [
        {
          "internalType": "bytes32",
          "name": "",
          "type": "bytes32"
        }
      ],
      "stateMutability": "view",
      "type": "function"
    },
    {
      "inputs": [],
      "name": "DEFAULT_ADMIN_ROLE",
      "outputs": [
        {
          "internalType": "bytes32",
          "name": "",
          "type": "bytes32"
        }
      ],
      "stateMutability": "view",
      "type": "function"
    },
    {
      "inputs": [],
      "name": "NUM_WORDS",
      "outputs": [
        {
          "internalType": "uint32",
          "name": "",
          "type": "uint32"
        }
      ],
      "stateMutability": "view",
      "type": "function"
    },
    {
      "inputs": [],
      "name": "REQUEST_CONFIRMATIONS",
      "outputs": [
        {
          "internalType": "uint16",
          "name": "",
          "type": "uint16"
        }
      ],
      "stateMutability": "view",
      "type": "function"
    },
    {
      "inputs": [
        {
          "internalType": "uint256",
          "name": "tokenId",
          "type": "uint256"
        }
      ],
      "name": "_chanceOfItem",
      "outputs": [
        {
          "internalType": "uint256",
          "name": "",
          "type": "uint256"
        }
      ],
      "stateMutability": "view",
      "type": "function"
    },
    {
      "inputs": [
        {
          "internalType": "address",
          "name": "account",
          "type": "address"
        },
        {
          "internalType": "uint256",
          "name": "id",
          "type": "uint256"
        }
      ],
      "name": "balanceOf",
      "outputs": [
        {
          "internalType": "uint256",
          "name": "",
          "type": "uint256"
        }
      ],
      "stateMutability": "view",
      "type": "function"
    },
    {
      "inputs": [
        {
          "internalType": "address[]",
          "name": "accounts",
          "type": "address[]"
        },
        {
          "internalType": "uint256[]",
          "name": "ids",
          "type": "uint256[]"
        }
      ],
      "name": "balanceOfBatch",
      "outputs": [
        {
          "internalType": "uint256[]",
          "name": "",
          "type": "uint256[]"
        }
      ],
      "stateMutability": "view",
      "type": "function"
    },
    {
      "inputs": [],
      "name": "casePrice",
      "outputs": [
        {
          "internalType": "uint256",
          "name": "",
          "type": "uint256"
        }
      ],
      "stateMutability": "view",
      "type": "function"
    },
    {
      "inputs": [],
      "name": "contractActive",
      "outputs": [
        {
          "internalType": "bool",
          "name": "",
          "type": "bool"
        }
      ],
      "stateMutability": "view",
      "type": "function"
    },
    {
      "inputs": [],
      "name": "flipContractState",
      "outputs": [],
      "stateMutability": "nonpayable",
      "type": "function"
    },
    {
      "inputs": [
        {
          "internalType": "bytes32",
          "name": "role",
          "type": "bytes32"
        }
      ],
      "name": "getRoleAdmin",
      "outputs": [
        {
          "internalType": "bytes32",
          "name": "",
          "type": "bytes32"
        }
      ],
      "stateMutability": "view",
      "type": "function"
    },
    {
      "inputs": [
        {
          "internalType": "bytes32",
          "name": "role",
          "type": "bytes32"
        },
        {
          "internalType": "address",
          "name": "account",
          "type": "address"
        }
      ],
      "name": "grantRole",
      "outputs": [],
      "stateMutability": "nonpayable",
      "type": "function"
    },
    {
      "inputs": [
        {
          "internalType": "bytes32",
          "name": "role",
          "type": "bytes32"
        },
        {
          "internalType": "address",
          "name": "account",
          "type": "address"
        }
      ],
      "name": "hasRole",
      "outputs": [
        {
          "internalType": "bool",
          "name": "",
          "type": "bool"
        }
      ],
      "stateMutability": "view",
      "type": "function"
    },
    {
      "inputs": [],
      "name": "i_MrCryptoAddress",
      "outputs": [
        {
          "internalType": "address",
          "name": "",
          "type": "address"
        }
      ],
      "stateMutability": "view",
      "type": "function"
    },
    {
      "inputs": [],
      "name": "i_callbackGasLimit",
      "outputs": [
        {
          "internalType": "uint32",
          "name": "",
          "type": "uint32"
        }
      ],
      "stateMutability": "view",
      "type": "function"
    },
    {
      "inputs": [],
      "name": "i_gasLane",
      "outputs": [
        {
          "internalType": "bytes32",
          "name": "",
          "type": "bytes32"
        }
      ],
      "stateMutability": "view",
      "type": "function"
    },
    {
      "inputs": [],
      "name": "i_subscriptionId",
      "outputs": [
        {
          "internalType": "uint64",
          "name": "",
          "type": "uint64"
        }
      ],
      "stateMutability": "view",
      "type": "function"
    },
    {
      "inputs": [],
      "name": "i_vrfCoordinator",
      "outputs": [
        {
          "internalType": "contract VRFCoordinatorV2Interface",
          "name": "",
          "type": "address"
        }
      ],
      "stateMutability": "view",
      "type": "function"
    },
    {
      "inputs": [
        {
          "internalType": "address",
          "name": "account",
          "type": "address"
        },
        {
          "internalType": "address",
          "name": "operator",
          "type": "address"
        }
      ],
      "name": "isApprovedForAll",
      "outputs": [
        {
          "internalType": "bool",
          "name": "",
          "type": "bool"
        }
      ],
      "stateMutability": "view",
      "type": "function"
    },
    {
      "inputs": [
        {
          "internalType": "address",
          "name": "user",
          "type": "address"
        }
      ],
      "name": "isVip",
      "outputs": [
        {
          "internalType": "bool",
          "name": "",
          "type": "bool"
        }
      ],
      "stateMutability": "view",
      "type": "function"
    },
    {
      "inputs": [
        {
          "internalType": "uint256",
          "name": "itemSupply",
          "type": "uint256"
        }
      ],
      "name": "listItem",
      "outputs": [],
      "stateMutability": "nonpayable",
      "type": "function"
    },
    {
      "inputs": [],
      "name": "openCase",
      "outputs": [
        {
          "internalType": "uint256",
          "name": "",
          "type": "uint256"
        }
      ],
      "stateMutability": "payable",
      "type": "function"
    },
    {
      "inputs": [
        {
          "internalType": "uint256",
          "name": "requestId",
          "type": "uint256"
        },
        {
          "internalType": "uint256[]",
          "name": "randomWords",
          "type": "uint256[]"
        }
      ],
      "name": "rawFulfillRandomWords",
      "outputs": [],
      "stateMutability": "nonpayable",
      "type": "function"
    },
    {
      "inputs": [
        {
          "internalType": "address[]",
          "name": "users",
          "type": "address[]"
        }
      ],
      "name": "removeListRacksMembers",
      "outputs": [],
      "stateMutability": "nonpayable",
      "type": "function"
    },
    {
      "inputs": [
        {
          "internalType": "address",
          "name": "user",
          "type": "address"
        }
      ],
      "name": "removeSingleRacksMember",
      "outputs": [],
      "stateMutability": "nonpayable",
      "type": "function"
    },
    {
      "inputs": [
        {
          "internalType": "bytes32",
          "name": "role",
          "type": "bytes32"
        },
        {
          "internalType": "address",
          "name": "account",
          "type": "address"
        }
      ],
      "name": "renounceRole",
      "outputs": [],
      "stateMutability": "nonpayable",
      "type": "function"
    },
    {
      "inputs": [
        {
          "internalType": "bytes32",
          "name": "role",
          "type": "bytes32"
        },
        {
          "internalType": "address",
          "name": "account",
          "type": "address"
        }
      ],
      "name": "revokeRole",
      "outputs": [],
      "stateMutability": "nonpayable",
      "type": "function"
    },
    {
      "inputs": [],
      "name": "s_contractState",
      "outputs": [
        {
          "internalType": "enum RacksItems.ContractState",
          "name": "",
          "type": "uint8"
        }
      ],
      "stateMutability": "view",
      "type": "function"
    },
    {
      "inputs": [],
      "name": "s_randomWord",
      "outputs": [
        {
          "internalType": "uint256",
          "name": "",
          "type": "uint256"
        }
      ],
      "stateMutability": "view",
      "type": "function"
    },
    {
      "inputs": [
        {
          "internalType": "address",
          "name": "from",
          "type": "address"
        },
        {
          "internalType": "address",
          "name": "to",
          "type": "address"
        },
        {
          "internalType": "uint256[]",
          "name": "ids",
          "type": "uint256[]"
        },
        {
          "internalType": "uint256[]",
          "name": "amounts",
          "type": "uint256[]"
        },
        {
          "internalType": "bytes",
          "name": "data",
          "type": "bytes"
        }
      ],
      "name": "safeBatchTransferFrom",
      "outputs": [],
      "stateMutability": "nonpayable",
      "type": "function"
    },
    {
      "inputs": [
        {
          "internalType": "address",
          "name": "from",
          "type": "address"
        },
        {
          "internalType": "address",
          "name": "to",
          "type": "address"
        },
        {
          "internalType": "uint256",
          "name": "id",
          "type": "uint256"
        },
        {
          "internalType": "uint256",
          "name": "amount",
          "type": "uint256"
        },
        {
          "internalType": "bytes",
          "name": "data",
          "type": "bytes"
        }
      ],
      "name": "safeTransferFrom",
      "outputs": [],
      "stateMutability": "nonpayable",
      "type": "function"
    },
    {
      "inputs": [
        {
          "internalType": "address",
          "name": "_newAdmin",
          "type": "address"
        }
      ],
      "name": "setAdmin",
      "outputs": [],
      "stateMutability": "nonpayable",
      "type": "function"
    },
    {
      "inputs": [
        {
          "internalType": "address",
          "name": "operator",
          "type": "address"
        },
        {
          "internalType": "bool",
          "name": "approved",
          "type": "bool"
        }
      ],
      "name": "setApprovalForAll",
      "outputs": [],
      "stateMutability": "nonpayable",
      "type": "function"
    },
    {
      "inputs": [
        {
          "internalType": "uint256",
          "name": "price",
          "type": "uint256"
        }
      ],
      "name": "setCasePrice",
      "outputs": [],
      "stateMutability": "nonpayable",
      "type": "function"
    },
    {
      "inputs": [
        {
          "internalType": "address[]",
          "name": "users",
          "type": "address[]"
        }
      ],
      "name": "setListRacksMembers",
      "outputs": [],
      "stateMutability": "nonpayable",
      "type": "function"
    },
    {
      "inputs": [
        {
          "internalType": "address",
          "name": "user",
          "type": "address"
        }
      ],
      "name": "setSingleRacksMember",
      "outputs": [],
      "stateMutability": "nonpayable",
      "type": "function"
    },
    {
      "inputs": [
        {
          "internalType": "uint256",
          "name": "tokenId",
          "type": "uint256"
        }
      ],
      "name": "supplyOfItem",
      "outputs": [
        {
          "internalType": "uint256",
          "name": "",
          "type": "uint256"
        }
      ],
      "stateMutability": "view",
      "type": "function"
    },
    {
      "inputs": [
        {
          "internalType": "bytes4",
          "name": "interfaceId",
          "type": "bytes4"
        }
      ],
      "name": "supportsInterface",
      "outputs": [
        {
          "internalType": "bool",
          "name": "",
          "type": "bool"
        }
      ],
      "stateMutability": "view",
      "type": "function"
    },
    {
      "inputs": [
        {
          "internalType": "uint256",
          "name": "",
          "type": "uint256"
        }
      ],
      "name": "uri",
      "outputs": [
        {
          "internalType": "string",
          "name": "",
          "type": "string"
        }
      ],
      "stateMutability": "view",
      "type": "function"
    },
    {
      "inputs": [
        {
          "internalType": "address",
          "name": "owner",
          "type": "address"
        }
      ],
      "name": "viewItems",
      "outputs": [
        {
          "internalType": "uint256[]",
          "name": "",
          "type": "uint256[]"
        }
      ],
      "stateMutability": "view",
      "type": "function"
    }
  ],
  "bytecode": "0x6101206040526801158e460913d000006008556001600960006101000a81548160ff0219169083151502179055503480156200003a57600080fd5b5060405162006369380380620063698339818101604052810190620000609190620008f3565b8360405180606001604052806027815260200162006342602791396200008c816200027660201b60201c565b508073ffffffffffffffffffffffffffffffffffffffff1660808173ffffffffffffffffffffffffffffffffffffffff1660601b81525050508373ffffffffffffffffffffffffffffffffffffffff1660a08173ffffffffffffffffffffffffffffffffffffffff1660601b815250508260c081815250508167ffffffffffffffff1660e08167ffffffffffffffff1660c01b815250508063ffffffff166101008163ffffffff1660e01b815250507343b31fa35672c844f5dab60f2fb72474955292cd600460006101000a81548173ffffffffffffffffffffffffffffffffffffffff021916908373ffffffffffffffffffffffffffffffffffffffff16021790555033600560006101000a81548173ffffffffffffffffffffffffffffffffffffffff021916908373ffffffffffffffffffffffffffffffffffffffff16021790555060006007819055506000600960016101000a81548160ff0219169083600181111562000202576200020162000dd3565b5b02179055506200021c30620186a06200029260201b60201c565b62000230306103e86200029260201b60201c565b620002443061c3506200029260201b60201c565b62000258306103e86200029260201b60201c565b6200026c306175306200029260201b60201c565b50505050620010e8565b80600290805190602001906200028e929190620007d0565b5050565b620002b78260075483604051806020016040528060008152506200030660201b60201c565b620002cb60075482620004ee60201b60201c565b8060066000828254620002df919062000c0d565b92505081905550600160076000828254620002fb919062000c0d565b925050819055505050565b600073ffffffffffffffffffffffffffffffffffffffff168473ffffffffffffffffffffffffffffffffffffffff16141562000379576040517f08c379a0000000000000000000000000000000000000000000000000000000008152600401620003709062000b7c565b60405180910390fd5b60006200038b6200050a60201b60201c565b90506000620003a0856200051260201b60201c565b90506000620003b5856200051260201b60201c565b9050620003ce836000898585896200059360201b60201c565b8460008088815260200190815260200160002060008973ffffffffffffffffffffffffffffffffffffffff1673ffffffffffffffffffffffffffffffffffffffff16815260200190815260200160002060008282546200042f919062000c0d565b925050819055508673ffffffffffffffffffffffffffffffffffffffff16600073ffffffffffffffffffffffffffffffffffffffff168473ffffffffffffffffffffffffffffffffffffffff167fc3d58168c5ae7397731d063d5bbf3d657854427343f4c083240f7aacaa2d0f628989604051620004af92919062000b9e565b60405180910390a4620004ce836000898585896200059b60201b60201c565b620004e583600089898989620005a360201b60201c565b50505050505050565b80600c6000848152602001908152602001600020819055505050565b600033905090565b60606000600167ffffffffffffffff81111562000534576200053362000e60565b5b604051908082528060200260200182016040528015620005635781602001602082028036833780820191505090505b50905082816000815181106200057e576200057d62000e31565b5b60200260200101818152505080915050919050565b505050505050565b505050505050565b620005cf8473ffffffffffffffffffffffffffffffffffffffff16620007ad60201b62001aec1760201c565b15620007a5578373ffffffffffffffffffffffffffffffffffffffff1663f23a6e6187878686866040518663ffffffff1660e01b81526004016200061895949392919062000ab0565b602060405180830381600087803b1580156200063357600080fd5b505af19250505080156200066757506040513d601f19601f8201168201806040525081019062000664919062000965565b60015b62000719576200067662000e8f565b806308c379a01415620006da57506200068e62000fc4565b806200069b5750620006dc565b806040517f08c379a0000000000000000000000000000000000000000000000000000000008152600401620006d1919062000b14565b60405180910390fd5b505b6040517f08c379a0000000000000000000000000000000000000000000000000000000008152600401620007109062000b38565b60405180910390fd5b63f23a6e6160e01b7bffffffffffffffffffffffffffffffffffffffffffffffffffffffff1916817bffffffffffffffffffffffffffffffffffffffffffffffffffffffff191614620007a3576040517f08c379a00000000000000000000000000000000000000000000000000000000081526004016200079a9062000b5a565b60405180910390fd5b505b505050505050565b6000808273ffffffffffffffffffffffffffffffffffffffff163b119050919050565b828054620007de9062000d38565b90600052602060002090601f0160209004810192826200080257600085556200084e565b82601f106200081d57805160ff19168380011785556200084e565b828001600101855582156200084e579182015b828111156200084d57825182559160200191906001019062000830565b5b5090506200085d919062000861565b5090565b5b808211156200087c57600081600090555060010162000862565b5090565b600081519050620008918162001066565b92915050565b600081519050620008a88162001080565b92915050565b600081519050620008bf816200109a565b92915050565b600081519050620008d681620010b4565b92915050565b600081519050620008ed81620010ce565b92915050565b6000806000806080858703121562000910576200090f62000eb4565b5b6000620009208782880162000880565b9450506020620009338782880162000897565b93505060406200094687828801620008dc565b92505060606200095987828801620008c5565b91505092959194509250565b6000602082840312156200097e576200097d62000eb4565b5b60006200098e84828501620008ae565b91505092915050565b620009a28162000c6a565b82525050565b6000620009b58262000bd5565b620009c1818562000beb565b9350620009d381856020860162000d02565b620009de8162000eb9565b840191505092915050565b6000620009f68262000be0565b62000a02818562000bfc565b935062000a1481856020860162000d02565b62000a1f8162000eb9565b840191505092915050565b600062000a3960348362000bfc565b915062000a468262000ed7565b604082019050919050565b600062000a6060288362000bfc565b915062000a6d8262000f26565b604082019050919050565b600062000a8760218362000bfc565b915062000a948262000f75565b604082019050919050565b62000aaa8162000cd4565b82525050565b600060a08201905062000ac7600083018862000997565b62000ad6602083018762000997565b62000ae5604083018662000a9f565b62000af4606083018562000a9f565b818103608083015262000b088184620009a8565b90509695505050505050565b6000602082019050818103600083015262000b308184620009e9565b905092915050565b6000602082019050818103600083015262000b538162000a2a565b9050919050565b6000602082019050818103600083015262000b758162000a51565b9050919050565b6000602082019050818103600083015262000b978162000a78565b9050919050565b600060408201905062000bb5600083018562000a9f565b62000bc4602083018462000a9f565b9392505050565b6000604051905090565b600081519050919050565b600081519050919050565b600082825260208201905092915050565b600082825260208201905092915050565b600062000c1a8262000cd4565b915062000c278362000cd4565b9250827fffffffffffffffffffffffffffffffffffffffffffffffffffffffffffffffff0382111562000c5f5762000c5e62000da4565b5b828201905092915050565b600062000c778262000cb4565b9050919050565b6000819050919050565b60007fffffffff0000000000000000000000000000000000000000000000000000000082169050919050565b600073ffffffffffffffffffffffffffffffffffffffff82169050919050565b6000819050919050565b600063ffffffff82169050919050565b600067ffffffffffffffff82169050919050565b60005b8381101562000d2257808201518184015260208101905062000d05565b8381111562000d32576000848401525b50505050565b6000600282049050600182168062000d5157607f821691505b6020821081141562000d685762000d6762000e02565b5b50919050565b62000d798262000eb9565b810181811067ffffffffffffffff8211171562000d9b5762000d9a62000e60565b5b80604052505050565b7f4e487b7100000000000000000000000000000000000000000000000000000000600052601160045260246000fd5b7f4e487b7100000000000000000000000000000000000000000000000000000000600052602160045260246000fd5b7f4e487b7100000000000000000000000000000000000000000000000000000000600052602260045260246000fd5b7f4e487b7100000000000000000000000000000000000000000000000000000000600052603260045260246000fd5b7f4e487b7100000000000000000000000000000000000000000000000000000000600052604160045260246000fd5b600060033d111562000eb15760046000803e62000eae60005162000eca565b90505b90565b600080fd5b6000601f19601f8301169050919050565b60008160e01c9050919050565b7f455243313135353a207472616e7366657220746f206e6f6e204552433131353560008201527f526563656976657220696d706c656d656e746572000000000000000000000000602082015250565b7f455243313135353a204552433131353552656365697665722072656a6563746560008201527f6420746f6b656e73000000000000000000000000000000000000000000000000602082015250565b7f455243313135353a206d696e7420746f20746865207a65726f2061646472657360008201527f7300000000000000000000000000000000000000000000000000000000000000602082015250565b600060443d101562000fd65762001063565b62000fe062000bcb565b60043d036004823e80513d602482011167ffffffffffffffff821117156200100a57505062001063565b808201805167ffffffffffffffff8111156200102a575050505062001063565b80602083010160043d0385018111156200104957505050505062001063565b6200105a8260200185018662000d6e565b82955050505050505b90565b620010718162000c6a565b81146200107d57600080fd5b50565b6200108b8162000c7e565b81146200109757600080fd5b50565b620010a58162000c88565b8114620010b157600080fd5b50565b620010bf8162000cde565b8114620010cb57600080fd5b50565b620010d98162000cee565b8114620010e557600080fd5b50565b60805160601c60a05160601c60c05160e05160c01c6101005160e01c6151e66200115c600039600081816117eb015261220e015260008181610da001526121eb0152600081816116e101526121ca01526000818161178d015261218e015260008181610b090152610b5d01526151e66000f3fe60806040526004361061023a5760003560e01c806375b238fc1161012e578063b63b8612116100ab578063e289fcb61161006f578063e289fcb614610887578063e985e9c5146108b2578063f242432a146108ef578063f48c9d3414610918578063fd210fd9146109555761023a565b8063b63b8612146107c6578063ca90958f146107f1578063d547741f1461081c578063d757d02714610845578063de08f653146108705761023a565b80638e879c8a116100f25780638e879c8a146106df57806391d148541461070a578063a217fddf14610747578063a22cb46514610772578063aebc45501461079b5761023a565b806375b238fc146105fc57806384203f4b1461062757806389165aa9146106645780638ba8b15a1461068d5780638dc5f45b146106b65761023a565b806336568abe116101bc57806354e889f61161018057806354e889f61461051757806367be820a1461054057806367f082b01461057d578063704b6c02146105a857806372cf6e34146105d15761023a565b806336568abe1461043f578063470cdf97146104685780634a226657146104935780634e1273f4146104b15780635408c319146104ee5761023a565b806320ba08141161020357806320ba08141461034a578063248a9ca3146103875780632ce38190146103c45780632eb2c2d6146103ed5780632f2ff15d146104165761023a565b8062fdd58e1461023f57806301ffc9a71461027c5780630e89341c146102b9578063109b8278146102f65780631fe543e314610321575b600080fd5b34801561024b57600080fd5b50610266600480360381019061026191906137ce565b610980565b6040516102739190614412565b60405180910390f35b34801561028857600080fd5b506102a3600480360381019061029e919061393c565b610a49565b6040516102b09190614096565b60405180910390f35b3480156102c557600080fd5b506102e060048036038101906102db9190613996565b610a5b565b6040516102ed9190614155565b60405180910390f35b34801561030257600080fd5b5061030b610aef565b6040516103189190613f37565b60405180910390f35b34801561032d57600080fd5b50610348600480360381019061034391906139f0565b610b07565b005b34801561035657600080fd5b50610371600480360381019061036c9190613996565b610bc7565b60405161037e9190614412565b60405180910390f35b34801561039357600080fd5b506103ae60048036038101906103a991906138cf565b610be4565b6040516103bb91906140b1565b60405180910390f35b3480156103d057600080fd5b506103eb60048036038101906103e69190613996565b610c04565b005b3480156103f957600080fd5b50610414600480360381019061040f9190613628565b610c59565b005b34801561042257600080fd5b5061043d600480360381019061043891906138fc565b610cfa565b005b34801561044b57600080fd5b50610466600480360381019061046191906138fc565b610d1b565b005b34801561047457600080fd5b5061047d610d9e565b60405161048a9190614471565b60405180910390f35b61049b610dc2565b6040516104a89190614412565b60405180910390f35b3480156104bd57600080fd5b506104d860048036038101906104d39190613857565b61106a565b6040516104e5919061403d565b60405180910390f35b3480156104fa57600080fd5b506105156004803603810190610510919061380e565b611183565b005b34801561052357600080fd5b5061053e600480360381019061053991906135bb565b611260565b005b34801561054c57600080fd5b5061056760048036038101906105629190613996565b611303565b6040516105749190614412565b60405180910390f35b34801561058957600080fd5b50610592611345565b60405161059f91906143f7565b60405180910390f35b3480156105b457600080fd5b506105cf60048036038101906105ca91906135bb565b61134a565b005b3480156105dd57600080fd5b506105e66113ea565b6040516105f39190614456565b60405180910390f35b34801561060857600080fd5b506106116113ef565b60405161061e91906140b1565b60405180910390f35b34801561063357600080fd5b5061064e600480360381019061064991906135bb565b6113f6565b60405161065b9190614096565b60405180910390f35b34801561067057600080fd5b5061068b6004803603810190610686919061380e565b61150d565b005b34801561069957600080fd5b506106b460048036038101906106af91906135bb565b6115ea565b005b3480156106c257600080fd5b506106dd60048036038101906106d89190613996565b61168d565b005b3480156106eb57600080fd5b506106f46116df565b60405161070191906140b1565b60405180910390f35b34801561071657600080fd5b50610731600480360381019061072c91906138fc565b611703565b60405161073e9190614096565b60405180910390f35b34801561075357600080fd5b5061075c61176e565b60405161076991906140b1565b60405180910390f35b34801561077e57600080fd5b506107996004803603810190610794919061378e565b611775565b005b3480156107a757600080fd5b506107b061178b565b6040516107bd919061411f565b60405180910390f35b3480156107d257600080fd5b506107db6117af565b6040516107e8919061413a565b60405180910390f35b3480156107fd57600080fd5b506108066117c2565b6040516108139190614412565b60405180910390f35b34801561082857600080fd5b50610843600480360381019061083e91906138fc565b6117c8565b005b34801561085157600080fd5b5061085a6117e9565b6040516108679190614456565b60405180910390f35b34801561087c57600080fd5b5061088561180d565b005b34801561089357600080fd5b5061089c6118ef565b6040516108a99190614096565b60405180910390f35b3480156108be57600080fd5b506108d960048036038101906108d491906135e8565b611902565b6040516108e69190614096565b60405180910390f35b3480156108fb57600080fd5b50610916600480360381019061091191906136f7565b611996565b005b34801561092457600080fd5b5061093f600480360381019061093a91906135bb565b611a37565b60405161094c919061403d565b60405180910390f35b34801561096157600080fd5b5061096a611ae6565b6040516109779190614412565b60405180910390f35b60008073ffffffffffffffffffffffffffffffffffffffff168373ffffffffffffffffffffffffffffffffffffffff1614156109f1576040517f08c379a00000000000000000000000000000000000000000000000000000000081526004016109e8906141f7565b60405180910390fd5b60008083815260200190815260200160002060008473ffffffffffffffffffffffffffffffffffffffff1673ffffffffffffffffffffffffffffffffffffffff16815260200190815260200160002054905092915050565b6000610a5482611b0f565b9050919050565b606060028054610a6a90614842565b80601f0160208091040260200160405190810160405280929190818152602001828054610a9690614842565b8015610ae35780601f10610ab857610100808354040283529160200191610ae3565b820191906000526020600020905b815481529060010190602001808311610ac657829003601f168201915b50505050509050919050565b7343b31fa35672c844f5dab60f2fb72474955292cd81565b7f000000000000000000000000000000000000000000000000000000000000000073ffffffffffffffffffffffffffffffffffffffff163373ffffffffffffffffffffffffffffffffffffffff1614610bb957337f00000000000000000000000000000000000000000000000000000000000000006040517f1cf993f4000000000000000000000000000000000000000000000000000000008152600401610bb0929190613f52565b60405180910390fd5b610bc38282611b89565b5050565b6000600c6000838152602001908152602001600020549050919050565b600060036000838152602001908152602001600020600101549050919050565b610c0d33611baf565b610c4c576040517f08c379a0000000000000000000000000000000000000000000000000000000008152600401610c43906142f7565b60405180910390fd5b610c563082611c28565b50565b610c61611c88565b73ffffffffffffffffffffffffffffffffffffffff168573ffffffffffffffffffffffffffffffffffffffff161480610ca75750610ca685610ca1611c88565b611902565b5b610ce6576040517f08c379a0000000000000000000000000000000000000000000000000000000008152600401610cdd90614297565b60405180910390fd5b610cf38585858585611c90565b5050505050565b610d0382610be4565b610d0c81611fb2565b610d168383611fc6565b505050565b610d23611c88565b73ffffffffffffffffffffffffffffffffffffffff168173ffffffffffffffffffffffffffffffffffffffff1614610d90576040517f08c379a0000000000000000000000000000000000000000000000000000000008152600401610d87906143d7565b60405180910390fd5b610d9a82826120a7565b5050565b7f000000000000000000000000000000000000000000000000000000000000000081565b6000806001811115610dd757610dd661494c565b5b600960019054906101000a900460ff166001811115610df957610df861494c565b5b14610e39576040517f08c379a0000000000000000000000000000000000000000000000000000000008152600401610e3090614257565b60405180910390fd5b610e42336113f6565b610e81576040517f08c379a0000000000000000000000000000000000000000000000000000000008152600401610e7890614377565b60405180910390fd5b6008543414610ec5576040517f08c379a0000000000000000000000000000000000000000000000000000000008152600401610ebc906141d7565b60405180910390fd5b6000614e20610ed2612189565b610edc919061460c565b905060008080600090505b600754811015611060576000600c60008381526020019081526020016000205484610f1291906145b6565b905083851115610f245780935061104c565b6002600c6000600185610f379190614697565b815260200190815260200160002054610f50919061460c565b84610f5b9190614697565b85141561101957610f7a30600184610f739190614697565b60016122aa565b6001600c60008481526020019081526020016000206000828254610f9e9190614697565b92505081905550610fb0336001611c28565b7f99bb60d14b2f35bce2de341319715cea54bf49980080f12b0f99d678556f0f73600183610fde9190614697565b6001600754610fed9190614697565b604051610ffb92919061442d565b60405180910390a160016007546110129190614697565b9250611046565b611042303360018561102b9190614697565b6001604051806020016040528060008152506124f1565b8192505b50611060565b508080611058906148a5565b915050610ee7565b5080935050505090565b606081518351146110b0576040517f08c379a00000000000000000000000000000000000000000000000000000000081526004016110a790614357565b60405180910390fd5b6000835167ffffffffffffffff8111156110cd576110cc6149d9565b5b6040519080825280602002602001820160405280156110fb5781602001602082028036833780820191505090505b50905060005b8451811015611178576111488582815181106111205761111f6149aa565b5b602002602001015185838151811061113b5761113a6149aa565b5b6020026020010151610980565b82828151811061115b5761115a6149aa565b5b60200260200101818152505080611171906148a5565b9050611101565b508091505092915050565b61118c33611baf565b6111cb576040517f08c379a00000000000000000000000000000000000000000000000000000000081526004016111c2906142f7565b60405180910390fd5b60005b815181101561125c576000600b60008484815181106111f0576111ef6149aa565b5b602002602001015173ffffffffffffffffffffffffffffffffffffffff1673ffffffffffffffffffffffffffffffffffffffff16815260200190815260200160002060006101000a81548160ff0219169083151502179055508080611254906148a5565b9150506111ce565b5050565b61126933611baf565b6112a8576040517f08c379a000000000000000000000000000000000000000000000000000000000815260040161129f906142f7565b60405180910390fd5b6001600b60008373ffffffffffffffffffffffffffffffffffffffff1673ffffffffffffffffffffffffffffffffffffffff16815260200190815260200160002060006101000a81548160ff02191690831515021790555050565b600061130e8261278d565b61131757600080fd5b6000600654600c60008581526020019081526020016000205461133a919061460c565b905080915050919050565b600181565b600560009054906101000a900473ffffffffffffffffffffffffffffffffffffffff1673ffffffffffffffffffffffffffffffffffffffff163373ffffffffffffffffffffffffffffffffffffffff16146113da576040517f08c379a00000000000000000000000000000000000000000000000000000000081526004016113d190614317565b60405180910390fd5b6113e76000801b826127b7565b50565b600181565b6000801b81565b600080600460009054906101000a900473ffffffffffffffffffffffffffffffffffffffff1673ffffffffffffffffffffffffffffffffffffffff166370a08231846040518263ffffffff1660e01b81526004016114549190613f37565b60206040518083038186803b15801561146c57600080fd5b505afa158015611480573d6000803e3d6000fd5b505050506040513d601f19601f820116820180604052508101906114a491906139c3565b116114ae57600080fd5b600b60008373ffffffffffffffffffffffffffffffffffffffff1673ffffffffffffffffffffffffffffffffffffffff16815260200190815260200160002060009054906101000a900460ff1661150457600080fd5b60019050919050565b61151633611baf565b611555576040517f08c379a000000000000000000000000000000000000000000000000000000000815260040161154c906142f7565b60405180910390fd5b60005b81518110156115e6576001600b600084848151811061157a576115796149aa565b5b602002602001015173ffffffffffffffffffffffffffffffffffffffff1673ffffffffffffffffffffffffffffffffffffffff16815260200190815260200160002060006101000a81548160ff02191690831515021790555080806115de906148a5565b915050611558565b5050565b6115f333611baf565b611632576040517f08c379a0000000000000000000000000000000000000000000000000000000008152600401611629906142f7565b60405180910390fd5b6000600b60008373ffffffffffffffffffffffffffffffffffffffff1673ffffffffffffffffffffffffffffffffffffffff16815260200190815260200160002060006101000a81548160ff02191690831515021790555050565b61169633611baf565b6116d5576040517f08c379a00000000000000000000000000000000000000000000000000000000081526004016116cc906142f7565b60405180910390fd5b8060088190555050565b7f000000000000000000000000000000000000000000000000000000000000000081565b60006003600084815260200190815260200160002060000160008373ffffffffffffffffffffffffffffffffffffffff1673ffffffffffffffffffffffffffffffffffffffff16815260200190815260200160002060009054906101000a900460ff16905092915050565b6000801b81565b611787611780611c88565b83836127c5565b5050565b7f000000000000000000000000000000000000000000000000000000000000000081565b600960019054906101000a900460ff1681565b60085481565b6117d182610be4565b6117da81611fb2565b6117e483836120a7565b505050565b7f000000000000000000000000000000000000000000000000000000000000000081565b61181633611baf565b611855576040517f08c379a000000000000000000000000000000000000000000000000000000000815260040161184c906142f7565b60405180910390fd5b600060018111156118695761186861494c565b5b600960019054906101000a900460ff16600181111561188b5761188a61494c565b5b14156118c1576001600960016101000a81548160ff021916908360018111156118b7576118b661494c565b5b02179055506118ed565b6000600960016101000a81548160ff021916908360018111156118e7576118e661494c565b5b02179055505b565b600960009054906101000a900460ff1681565b6000600160008473ffffffffffffffffffffffffffffffffffffffff1673ffffffffffffffffffffffffffffffffffffffff16815260200190815260200160002060008373ffffffffffffffffffffffffffffffffffffffff1673ffffffffffffffffffffffffffffffffffffffff16815260200190815260200160002060009054906101000a900460ff16905092915050565b61199e611c88565b73ffffffffffffffffffffffffffffffffffffffff168573ffffffffffffffffffffffffffffffffffffffff1614806119e457506119e3856119de611c88565b611902565b5b611a23576040517f08c379a0000000000000000000000000000000000000000000000000000000008152600401611a1a90614237565b60405180910390fd5b611a3085858585856124f1565b5050505050565b606060006001600754611a4a91906145b6565b67ffffffffffffffff811115611a6357611a626149d9565b5b604051908082528060200260200182016040528015611a915781602001602082028036833780820191505090505b50905060005b8151811015611adc57611aaa8482610980565b828281518110611abd57611abc6149aa565b5b6020026020010181815250508080611ad4906148a5565b915050611a97565b5080915050919050565b600a5481565b6000808273ffffffffffffffffffffffffffffffffffffffff163b119050919050565b60007f7965db0b000000000000000000000000000000000000000000000000000000007bffffffffffffffffffffffffffffffffffffffffffffffffffffffff1916827bffffffffffffffffffffffffffffffffffffffffffffffffffffffff19161480611b825750611b8182612932565b5b9050919050565b80600081518110611b9d57611b9c6149aa565b5b6020026020010151600a819055505050565b60008173ffffffffffffffffffffffffffffffffffffffff16600560009054906101000a900473ffffffffffffffffffffffffffffffffffffffff1673ffffffffffffffffffffffffffffffffffffffff161480611c165750611c156000801b83611703565b5b611c1f57600080fd5b60019050919050565b611c45826007548360405180602001604052806000815250612a14565b611c5160075482612bc5565b8060066000828254611c6391906145b6565b92505081905550600160076000828254611c7d91906145b6565b925050819055505050565b600033905090565b8151835114611cd4576040517f08c379a0000000000000000000000000000000000000000000000000000000008152600401611ccb90614397565b60405180910390fd5b600073ffffffffffffffffffffffffffffffffffffffff168473ffffffffffffffffffffffffffffffffffffffff161415611d44576040517f08c379a0000000000000000000000000000000000000000000000000000000008152600401611d3b90614277565b60405180910390fd5b6000611d4e611c88565b9050611d5e818787878787612be1565b60005b8451811015611f0f576000858281518110611d7f57611d7e6149aa565b5b602002602001015190506000858381518110611d9e57611d9d6149aa565b5b60200260200101519050600080600084815260200190815260200160002060008b73ffffffffffffffffffffffffffffffffffffffff1673ffffffffffffffffffffffffffffffffffffffff16815260200190815260200160002054905081811015611e3f576040517f08c379a0000000000000000000000000000000000000000000000000000000008152600401611e36906142d7565b60405180910390fd5b81810360008085815260200190815260200160002060008c73ffffffffffffffffffffffffffffffffffffffff1673ffffffffffffffffffffffffffffffffffffffff168152602001908152602001600020819055508160008085815260200190815260200160002060008b73ffffffffffffffffffffffffffffffffffffffff1673ffffffffffffffffffffffffffffffffffffffff1681526020019081526020016000206000828254611ef491906145b6565b9250508190555050505080611f08906148a5565b9050611d61565b508473ffffffffffffffffffffffffffffffffffffffff168673ffffffffffffffffffffffffffffffffffffffff168273ffffffffffffffffffffffffffffffffffffffff167f4a39dc06d4c0dbc64b70af90fd698a233a518aa5d07e595d983b8c0526c8f7fb8787604051611f8692919061405f565b60405180910390a4611f9c818787878787612be9565b611faa818787878787612bf1565b505050505050565b611fc381611fbe611c88565b612dd8565b50565b611fd08282611703565b6120a35760016003600084815260200190815260200160002060000160008373ffffffffffffffffffffffffffffffffffffffff1673ffffffffffffffffffffffffffffffffffffffff16815260200190815260200160002060006101000a81548160ff021916908315150217905550612048611c88565b73ffffffffffffffffffffffffffffffffffffffff168173ffffffffffffffffffffffffffffffffffffffff16837f2f8788117e7eff1d82e926ec794901d17c78024a50270940304540a733656f0d60405160405180910390a45b5050565b6120b18282611703565b156121855760006003600084815260200190815260200160002060000160008373ffffffffffffffffffffffffffffffffffffffff1673ffffffffffffffffffffffffffffffffffffffff16815260200190815260200160002060006101000a81548160ff02191690831515021790555061212a611c88565b73ffffffffffffffffffffffffffffffffffffffff168173ffffffffffffffffffffffffffffffffffffffff16837ff6391f5c32d9c69d2a47ea670b442974b53935d1edc7fd64eb21e047a839171b60405160405180910390a45b5050565b6000807f000000000000000000000000000000000000000000000000000000000000000073ffffffffffffffffffffffffffffffffffffffff16635d3b1d307f00000000000000000000000000000000000000000000000000000000000000007f000000000000000000000000000000000000000000000000000000000000000060017f000000000000000000000000000000000000000000000000000000000000000060016040518663ffffffff1660e01b815260040161224f9594939291906140cc565b602060405180830381600087803b15801561226957600080fd5b505af115801561227d573d6000803e3d6000fd5b505050506040513d601f19601f820116820180604052508101906122a191906139c3565b90508091505090565b600073ffffffffffffffffffffffffffffffffffffffff168373ffffffffffffffffffffffffffffffffffffffff16141561231a576040517f08c379a0000000000000000000000000000000000000000000000000000000008152600401612311906142b7565b60405180910390fd5b6000612324611c88565b9050600061233184612e75565b9050600061233e84612e75565b905061235e83876000858560405180602001604052806000815250612be1565b600080600087815260200190815260200160002060008873ffffffffffffffffffffffffffffffffffffffff1673ffffffffffffffffffffffffffffffffffffffff168152602001908152602001600020549050848110156123f5576040517f08c379a00000000000000000000000000000000000000000000000000000000081526004016123ec90614217565b60405180910390fd5b84810360008088815260200190815260200160002060008973ffffffffffffffffffffffffffffffffffffffff1673ffffffffffffffffffffffffffffffffffffffff16815260200190815260200160002081905550600073ffffffffffffffffffffffffffffffffffffffff168773ffffffffffffffffffffffffffffffffffffffff168573ffffffffffffffffffffffffffffffffffffffff167fc3d58168c5ae7397731d063d5bbf3d657854427343f4c083240f7aacaa2d0f6289896040516124c292919061442d565b60405180910390a46124e884886000868660405180602001604052806000815250612be9565b50505050505050565b600073ffffffffffffffffffffffffffffffffffffffff168473ffffffffffffffffffffffffffffffffffffffff161415612561576040517f08c379a000000000000000000000000000000000000000000000000000000000815260040161255890614277565b60405180910390fd5b600061256b611c88565b9050600061257885612e75565b9050600061258585612e75565b9050612595838989858589612be1565b600080600088815260200190815260200160002060008a73ffffffffffffffffffffffffffffffffffffffff1673ffffffffffffffffffffffffffffffffffffffff1681526020019081526020016000205490508581101561262c576040517f08c379a0000000000000000000000000000000000000000000000000000000008152600401612623906142d7565b60405180910390fd5b85810360008089815260200190815260200160002060008b73ffffffffffffffffffffffffffffffffffffffff1673ffffffffffffffffffffffffffffffffffffffff168152602001908152602001600020819055508560008089815260200190815260200160002060008a73ffffffffffffffffffffffffffffffffffffffff1673ffffffffffffffffffffffffffffffffffffffff16815260200190815260200160002060008282546126e191906145b6565b925050819055508773ffffffffffffffffffffffffffffffffffffffff168973ffffffffffffffffffffffffffffffffffffffff168573ffffffffffffffffffffffffffffffffffffffff167fc3d58168c5ae7397731d063d5bbf3d657854427343f4c083240f7aacaa2d0f628a8a60405161275e92919061442d565b60405180910390a4612774848a8a86868a612be9565b612782848a8a8a8a8a612eef565b505050505050505050565b600080600c600084815260200190815260200160002054116127ae57600080fd5b60019050919050565b6127c18282611fc6565b5050565b8173ffffffffffffffffffffffffffffffffffffffff168373ffffffffffffffffffffffffffffffffffffffff161415612834576040517f08c379a000000000000000000000000000000000000000000000000000000000815260040161282b90614337565b60405180910390fd5b80600160008573ffffffffffffffffffffffffffffffffffffffff1673ffffffffffffffffffffffffffffffffffffffff16815260200190815260200160002060008473ffffffffffffffffffffffffffffffffffffffff1673ffffffffffffffffffffffffffffffffffffffff16815260200190815260200160002060006101000a81548160ff0219169083151502179055508173ffffffffffffffffffffffffffffffffffffffff168373ffffffffffffffffffffffffffffffffffffffff167f17307eab39ab6107e8899845ad3d59bd9653f200f220920489ca2b5937696c31836040516129259190614096565b60405180910390a3505050565b60007fd9b67a26000000000000000000000000000000000000000000000000000000007bffffffffffffffffffffffffffffffffffffffffffffffffffffffff1916827bffffffffffffffffffffffffffffffffffffffffffffffffffffffff191614806129fd57507f0e89341c000000000000000000000000000000000000000000000000000000007bffffffffffffffffffffffffffffffffffffffffffffffffffffffff1916827bffffffffffffffffffffffffffffffffffffffffffffffffffffffff1916145b80612a0d5750612a0c826130d6565b5b9050919050565b600073ffffffffffffffffffffffffffffffffffffffff168473ffffffffffffffffffffffffffffffffffffffff161415612a84576040517f08c379a0000000000000000000000000000000000000000000000000000000008152600401612a7b906143b7565b60405180910390fd5b6000612a8e611c88565b90506000612a9b85612e75565b90506000612aa885612e75565b9050612ab983600089858589612be1565b8460008088815260200190815260200160002060008973ffffffffffffffffffffffffffffffffffffffff1673ffffffffffffffffffffffffffffffffffffffff1681526020019081526020016000206000828254612b1891906145b6565b925050819055508673ffffffffffffffffffffffffffffffffffffffff16600073ffffffffffffffffffffffffffffffffffffffff168473ffffffffffffffffffffffffffffffffffffffff167fc3d58168c5ae7397731d063d5bbf3d657854427343f4c083240f7aacaa2d0f628989604051612b9692919061442d565b60405180910390a4612bad83600089858589612be9565b612bbc83600089898989612eef565b50505050505050565b80600c6000848152602001908152602001600020819055505050565b505050505050565b505050505050565b612c108473ffffffffffffffffffffffffffffffffffffffff16611aec565b15612dd0578373ffffffffffffffffffffffffffffffffffffffff1663bc197c8187878686866040518663ffffffff1660e01b8152600401612c56959493929190613f7b565b602060405180830381600087803b158015612c7057600080fd5b505af1925050508015612ca157506040513d601f19601f82011682018060405250810190612c9e9190613969565b60015b612d4757612cad614a08565b806308c379a01415612d0a5750612cc2615093565b80612ccd5750612d0c565b806040517f08c379a0000000000000000000000000000000000000000000000000000000008152600401612d019190614155565b60405180910390fd5b505b6040517f08c379a0000000000000000000000000000000000000000000000000000000008152600401612d3e90614177565b60405180910390fd5b63bc197c8160e01b7bffffffffffffffffffffffffffffffffffffffffffffffffffffffff1916817bffffffffffffffffffffffffffffffffffffffffffffffffffffffff191614612dce576040517f08c379a0000000000000000000000000000000000000000000000000000000008152600401612dc5906141b7565b60405180910390fd5b505b505050505050565b612de28282611703565b612e7157612e078173ffffffffffffffffffffffffffffffffffffffff166014613140565b612e158360001c6020613140565b604051602001612e26929190613efd565b6040516020818303038152906040526040517f08c379a0000000000000000000000000000000000000000000000000000000008152600401612e689190614155565b60405180910390fd5b5050565b60606000600167ffffffffffffffff811115612e9457612e936149d9565b5b604051908082528060200260200182016040528015612ec25781602001602082028036833780820191505090505b5090508281600081518110612eda57612ed96149aa565b5b60200260200101818152505080915050919050565b612f0e8473ffffffffffffffffffffffffffffffffffffffff16611aec565b156130ce578373ffffffffffffffffffffffffffffffffffffffff1663f23a6e6187878686866040518663ffffffff1660e01b8152600401612f54959493929190613fe3565b602060405180830381600087803b158015612f6e57600080fd5b505af1925050508015612f9f57506040513d601f19601f82011682018060405250810190612f9c9190613969565b60015b61304557612fab614a08565b806308c379a014156130085750612fc0615093565b80612fcb575061300a565b806040517f08c379a0000000000000000000000000000000000000000000000000000000008152600401612fff9190614155565b60405180910390fd5b505b6040517f08c379a000000000000000000000000000000000000000000000000000000000815260040161303c90614177565b60405180910390fd5b63f23a6e6160e01b7bffffffffffffffffffffffffffffffffffffffffffffffffffffffff1916817bffffffffffffffffffffffffffffffffffffffffffffffffffffffff1916146130cc576040517f08c379a00000000000000000000000000000000000000000000000000000000081526004016130c3906141b7565b60405180910390fd5b505b505050505050565b60007f01ffc9a7000000000000000000000000000000000000000000000000000000007bffffffffffffffffffffffffffffffffffffffffffffffffffffffff1916827bffffffffffffffffffffffffffffffffffffffffffffffffffffffff1916149050919050565b606060006002836002613153919061463d565b61315d91906145b6565b67ffffffffffffffff811115613176576131756149d9565b5b6040519080825280601f01601f1916602001820160405280156131a85781602001600182028036833780820191505090505b5090507f3000000000000000000000000000000000000000000000000000000000000000816000815181106131e0576131df6149aa565b5b60200101907effffffffffffffffffffffffffffffffffffffffffffffffffffffffffffff1916908160001a9053507f780000000000000000000000000000000000000000000000000000000000000081600181518110613244576132436149aa565b5b60200101907effffffffffffffffffffffffffffffffffffffffffffffffffffffffffffff1916908160001a90535060006001846002613284919061463d565b61328e91906145b6565b90505b600181111561332e577f3031323334353637383961626364656600000000000000000000000000000000600f8616601081106132d0576132cf6149aa565b5b1a60f81b8282815181106132e7576132e66149aa565b5b60200101907effffffffffffffffffffffffffffffffffffffffffffffffffffffffffffff1916908160001a905350600485901c94508061332790614818565b9050613291565b5060008414613372576040517f08c379a000000000000000000000000000000000000000000000000000000000815260040161336990614197565b60405180910390fd5b8091505092915050565b600061338f61338a846144b1565b61448c565b905080838252602082019050828560208602820111156133b2576133b1614a2f565b5b60005b858110156133e257816133c8888261349e565b8452602084019350602083019250506001810190506133b5565b5050509392505050565b60006133ff6133fa846144dd565b61448c565b9050808382526020820190508285602086028201111561342257613421614a2f565b5b60005b8581101561345257816134388882613591565b845260208401935060208301925050600181019050613425565b5050509392505050565b600061346f61346a84614509565b61448c565b90508281526020810184848401111561348b5761348a614a34565b5b6134968482856147d6565b509392505050565b6000813590506134ad8161513d565b92915050565b600082601f8301126134c8576134c7614a2a565b5b81356134d884826020860161337c565b91505092915050565b600082601f8301126134f6576134f5614a2a565b5b81356135068482602086016133ec565b91505092915050565b60008135905061351e81615154565b92915050565b6000813590506135338161516b565b92915050565b60008135905061354881615182565b92915050565b60008151905061355d81615182565b92915050565b600082601f83011261357857613577614a2a565b5b813561358884826020860161345c565b91505092915050565b6000813590506135a081615199565b92915050565b6000815190506135b581615199565b92915050565b6000602082840312156135d1576135d0614a3e565b5b60006135df8482850161349e565b91505092915050565b600080604083850312156135ff576135fe614a3e565b5b600061360d8582860161349e565b925050602061361e8582860161349e565b9150509250929050565b600080600080600060a0868803121561364457613643614a3e565b5b60006136528882890161349e565b95505060206136638882890161349e565b945050604086013567ffffffffffffffff81111561368457613683614a39565b5b613690888289016134e1565b935050606086013567ffffffffffffffff8111156136b1576136b0614a39565b5b6136bd888289016134e1565b925050608086013567ffffffffffffffff8111156136de576136dd614a39565b5b6136ea88828901613563565b9150509295509295909350565b600080600080600060a0868803121561371357613712614a3e565b5b60006137218882890161349e565b95505060206137328882890161349e565b945050604061374388828901613591565b935050606061375488828901613591565b925050608086013567ffffffffffffffff81111561377557613774614a39565b5b61378188828901613563565b9150509295509295909350565b600080604083850312156137a5576137a4614a3e565b5b60006137b38582860161349e565b92505060206137c48582860161350f565b9150509250929050565b600080604083850312156137e5576137e4614a3e565b5b60006137f38582860161349e565b925050602061380485828601613591565b9150509250929050565b60006020828403121561382457613823614a3e565b5b600082013567ffffffffffffffff81111561384257613841614a39565b5b61384e848285016134b3565b91505092915050565b6000806040838503121561386e5761386d614a3e565b5b600083013567ffffffffffffffff81111561388c5761388b614a39565b5b613898858286016134b3565b925050602083013567ffffffffffffffff8111156138b9576138b8614a39565b5b6138c5858286016134e1565b9150509250929050565b6000602082840312156138e5576138e4614a3e565b5b60006138f384828501613524565b91505092915050565b6000806040838503121561391357613912614a3e565b5b600061392185828601613524565b92505060206139328582860161349e565b9150509250929050565b60006020828403121561395257613951614a3e565b5b600061396084828501613539565b91505092915050565b60006020828403121561397f5761397e614a3e565b5b600061398d8482850161354e565b91505092915050565b6000602082840312156139ac576139ab614a3e565b5b60006139ba84828501613591565b91505092915050565b6000602082840312156139d9576139d8614a3e565b5b60006139e7848285016135a6565b91505092915050565b60008060408385031215613a0757613a06614a3e565b5b6000613a1585828601613591565b925050602083013567ffffffffffffffff811115613a3657613a35614a39565b5b613a42858286016134e1565b9150509250929050565b6000613a588383613ec1565b60208301905092915050565b613a6d816146cb565b82525050565b6000613a7e8261454a565b613a888185614578565b9350613a938361453a565b8060005b83811015613ac4578151613aab8882613a4c565b9750613ab68361456b565b925050600181019050613a97565b5085935050505092915050565b613ada816146dd565b82525050565b613ae9816146e9565b82525050565b6000613afa82614555565b613b048185614589565b9350613b148185602086016147e5565b613b1d81614a43565b840191505092915050565b613b318161478e565b82525050565b613b40816147a0565b82525050565b6000613b5182614560565b613b5b818561459a565b9350613b6b8185602086016147e5565b613b7481614a43565b840191505092915050565b6000613b8a82614560565b613b9481856145ab565b9350613ba48185602086016147e5565b80840191505092915050565b6000613bbd60348361459a565b9150613bc882614a61565b604082019050919050565b6000613be060208361459a565b9150613beb82614ab0565b602082019050919050565b6000613c0360288361459a565b9150613c0e82614ad9565b604082019050919050565b6000613c26602e8361459a565b9150613c3182614b28565b604082019050919050565b6000613c49602b8361459a565b9150613c5482614b77565b604082019050919050565b6000613c6c60248361459a565b9150613c7782614bc6565b604082019050919050565b6000613c8f60298361459a565b9150613c9a82614c15565b604082019050919050565b6000613cb260258361459a565b9150613cbd82614c64565b604082019050919050565b6000613cd560258361459a565b9150613ce082614cb3565b604082019050919050565b6000613cf860328361459a565b9150613d0382614d02565b604082019050919050565b6000613d1b60238361459a565b9150613d2682614d51565b604082019050919050565b6000613d3e602a8361459a565b9150613d4982614da0565b604082019050919050565b6000613d6160218361459a565b9150613d6c82614def565b604082019050919050565b6000613d8460158361459a565b9150613d8f82614e3e565b602082019050919050565b6000613da76017836145ab565b9150613db282614e67565b601782019050919050565b6000613dca60298361459a565b9150613dd582614e90565b604082019050919050565b6000613ded60298361459a565b9150613df882614edf565b604082019050919050565b6000613e1060348361459a565b9150613e1b82614f2e565b604082019050919050565b6000613e3360288361459a565b9150613e3e82614f7d565b604082019050919050565b6000613e5660218361459a565b9150613e6182614fcc565b604082019050919050565b6000613e796011836145ab565b9150613e848261501b565b601182019050919050565b6000613e9c602f8361459a565b9150613ea782615044565b604082019050919050565b613ebb81614732565b82525050565b613eca81614760565b82525050565b613ed981614760565b82525050565b613ee88161476a565b82525050565b613ef78161477a565b82525050565b6000613f0882613d9a565b9150613f148285613b7f565b9150613f1f82613e6c565b9150613f2b8284613b7f565b91508190509392505050565b6000602082019050613f4c6000830184613a64565b92915050565b6000604082019050613f676000830185613a64565b613f746020830184613a64565b9392505050565b600060a082019050613f906000830188613a64565b613f9d6020830187613a64565b8181036040830152613faf8186613a73565b90508181036060830152613fc38185613a73565b90508181036080830152613fd78184613aef565b90509695505050505050565b600060a082019050613ff86000830188613a64565b6140056020830187613a64565b6140126040830186613ed0565b61401f6060830185613ed0565b81810360808301526140318184613aef565b90509695505050505050565b600060208201905081810360008301526140578184613a73565b905092915050565b600060408201905081810360008301526140798185613a73565b9050818103602083015261408d8184613a73565b90509392505050565b60006020820190506140ab6000830184613ad1565b92915050565b60006020820190506140c66000830184613ae0565b92915050565b600060a0820190506140e16000830188613ae0565b6140ee6020830187613eee565b6140fb6040830186613eb2565b6141086060830185613edf565b6141156080830184613edf565b9695505050505050565b60006020820190506141346000830184613b28565b92915050565b600060208201905061414f6000830184613b37565b92915050565b6000602082019050818103600083015261416f8184613b46565b905092915050565b6000602082019050818103600083015261419081613bb0565b9050919050565b600060208201905081810360008301526141b081613bd3565b9050919050565b600060208201905081810360008301526141d081613bf6565b9050919050565b600060208201905081810360008301526141f081613c19565b9050919050565b6000602082019050818103600083015261421081613c3c565b9050919050565b6000602082019050818103600083015261423081613c5f565b9050919050565b6000602082019050818103600083015261425081613c82565b9050919050565b6000602082019050818103600083015261427081613ca5565b9050919050565b6000602082019050818103600083015261429081613cc8565b9050919050565b600060208201905081810360008301526142b081613ceb565b9050919050565b600060208201905081810360008301526142d081613d0e565b9050919050565b600060208201905081810360008301526142f081613d31565b9050919050565b6000602082019050818103600083015261431081613d54565b9050919050565b6000602082019050818103600083015261433081613d77565b9050919050565b6000602082019050818103600083015261435081613dbd565b9050919050565b6000602082019050818103600083015261437081613de0565b9050919050565b6000602082019050818103600083015261439081613e03565b9050919050565b600060208201905081810360008301526143b081613e26565b9050919050565b600060208201905081810360008301526143d081613e49565b9050919050565b600060208201905081810360008301526143f081613e8f565b9050919050565b600060208201905061440c6000830184613eb2565b92915050565b60006020820190506144276000830184613ed0565b92915050565b60006040820190506144426000830185613ed0565b61444f6020830184613ed0565b9392505050565b600060208201905061446b6000830184613edf565b92915050565b60006020820190506144866000830184613eee565b92915050565b60006144966144a7565b90506144a28282614874565b919050565b6000604051905090565b600067ffffffffffffffff8211156144cc576144cb6149d9565b5b602082029050602081019050919050565b600067ffffffffffffffff8211156144f8576144f76149d9565b5b602082029050602081019050919050565b600067ffffffffffffffff821115614524576145236149d9565b5b61452d82614a43565b9050602081019050919050565b6000819050602082019050919050565b600081519050919050565b600081519050919050565b600081519050919050565b6000602082019050919050565b600082825260208201905092915050565b600082825260208201905092915050565b600082825260208201905092915050565b600081905092915050565b60006145c182614760565b91506145cc83614760565b9250827fffffffffffffffffffffffffffffffffffffffffffffffffffffffffffffffff03821115614601576146006148ee565b5b828201905092915050565b600061461782614760565b915061462283614760565b9250826146325761463161491d565b5b828204905092915050565b600061464882614760565b915061465383614760565b9250817fffffffffffffffffffffffffffffffffffffffffffffffffffffffffffffffff048311821515161561468c5761468b6148ee565b5b828202905092915050565b60006146a282614760565b91506146ad83614760565b9250828210156146c0576146bf6148ee565b5b828203905092915050565b60006146d682614740565b9050919050565b60008115159050919050565b6000819050919050565b60007fffffffff0000000000000000000000000000000000000000000000000000000082169050919050565b600081905061472d82615129565b919050565b600061ffff82169050919050565b600073ffffffffffffffffffffffffffffffffffffffff82169050919050565b6000819050919050565b600063ffffffff82169050919050565b600067ffffffffffffffff82169050919050565b6000614799826147b2565b9050919050565b60006147ab8261471f565b9050919050565b60006147bd826147c4565b9050919050565b60006147cf82614740565b9050919050565b82818337600083830152505050565b60005b838110156148035780820151818401526020810190506147e8565b83811115614812576000848401525b50505050565b600061482382614760565b91506000821415614837576148366148ee565b5b600182039050919050565b6000600282049050600182168061485a57607f821691505b6020821081141561486e5761486d61497b565b5b50919050565b61487d82614a43565b810181811067ffffffffffffffff8211171561489c5761489b6149d9565b5b80604052505050565b60006148b082614760565b91507fffffffffffffffffffffffffffffffffffffffffffffffffffffffffffffffff8214156148e3576148e26148ee565b5b600182019050919050565b7f4e487b7100000000000000000000000000000000000000000000000000000000600052601160045260246000fd5b7f4e487b7100000000000000000000000000000000000000000000000000000000600052601260045260246000fd5b7f4e487b7100000000000000000000000000000000000000000000000000000000600052602160045260246000fd5b7f4e487b7100000000000000000000000000000000000000000000000000000000600052602260045260246000fd5b7f4e487b7100000000000000000000000000000000000000000000000000000000600052603260045260246000fd5b7f4e487b7100000000000000000000000000000000000000000000000000000000600052604160045260246000fd5b600060033d1115614a275760046000803e614a24600051614a54565b90505b90565b600080fd5b600080fd5b600080fd5b600080fd5b600080fd5b6000601f19601f8301169050919050565b60008160e01c9050919050565b7f455243313135353a207472616e7366657220746f206e6f6e204552433131353560008201527f526563656976657220696d706c656d656e746572000000000000000000000000602082015250565b7f537472696e67733a20686578206c656e67746820696e73756666696369656e74600082015250565b7f455243313135353a204552433131353552656365697665722072656a6563746560008201527f6420746f6b656e73000000000000000000000000000000000000000000000000602082015250565b7f5573657220646964206e6f742070617920656e6f756768206d6f6e657920746f60008201527f206f70656e207468652063617365000000000000000000000000000000000000602082015250565b7f455243313135353a2062616c616e636520717565727920666f7220746865207a60008201527f65726f2061646472657373000000000000000000000000000000000000000000602082015250565b7f455243313135353a206275726e20616d6f756e7420657863656564732062616c60008201527f616e636500000000000000000000000000000000000000000000000000000000602082015250565b7f455243313135353a2063616c6c6572206973206e6f74206f776e6572206e6f7260008201527f20617070726f7665640000000000000000000000000000000000000000000000602082015250565b7f436f6e7472616374206973206e6f74206163746976652061742074686973206d60008201527f6f6d656e74000000000000000000000000000000000000000000000000000000602082015250565b7f455243313135353a207472616e7366657220746f20746865207a65726f20616460008201527f6472657373000000000000000000000000000000000000000000000000000000602082015250565b7f455243313135353a207472616e736665722063616c6c6572206973206e6f742060008201527f6f776e6572206e6f7220617070726f7665640000000000000000000000000000602082015250565b7f455243313135353a206275726e2066726f6d20746865207a65726f206164647260008201527f6573730000000000000000000000000000000000000000000000000000000000602082015250565b7f455243313135353a20696e73756666696369656e742062616c616e636520666f60008201527f72207472616e7366657200000000000000000000000000000000000000000000602082015250565b7f55736572206973206e6f7420746865204f776e6572206f7220616e2041646d6960008201527f6e00000000000000000000000000000000000000000000000000000000000000602082015250565b7f55736572206973206e6f7420746865206f776e65720000000000000000000000600082015250565b7f416363657373436f6e74726f6c3a206163636f756e7420000000000000000000600082015250565b7f455243313135353a2073657474696e6720617070726f76616c2073746174757360008201527f20666f722073656c660000000000000000000000000000000000000000000000602082015250565b7f455243313135353a206163636f756e747320616e6420696473206c656e67746860008201527f206d69736d617463680000000000000000000000000000000000000000000000602082015250565b7f55736572206973206e6f74205261636b734d656d62657273206f7220646f657360008201527f206e6f74206f776e732061204d7243727970746f000000000000000000000000602082015250565b7f455243313135353a2069647320616e6420616d6f756e7473206c656e6774682060008201527f6d69736d61746368000000000000000000000000000000000000000000000000602082015250565b7f455243313135353a206d696e7420746f20746865207a65726f2061646472657360008201527f7300000000000000000000000000000000000000000000000000000000000000602082015250565b7f206973206d697373696e6720726f6c6520000000000000000000000000000000600082015250565b7f416363657373436f6e74726f6c3a2063616e206f6e6c792072656e6f756e636560008201527f20726f6c657320666f722073656c660000000000000000000000000000000000602082015250565b600060443d10156150a357615126565b6150ab6144a7565b60043d036004823e80513d602482011167ffffffffffffffff821117156150d3575050615126565b808201805167ffffffffffffffff8111156150f15750505050615126565b80602083010160043d03850181111561510e575050505050615126565b61511d82602001850186614874565b82955050505050505b90565b6002811061513a5761513961494c565b5b50565b615146816146cb565b811461515157600080fd5b50565b61515d816146dd565b811461516857600080fd5b50565b615174816146e9565b811461517f57600080fd5b50565b61518b816146f3565b811461519657600080fd5b50565b6151a281614760565b81146151ad57600080fd5b5056fea26469706673582212205a1ea0bfe3dfbf8b9af39cb38cbd1bae532ac0c2892032a2dd4ba68c61eef89064736f6c6343000807003368747470733a2f2f67616d652e6578616d706c652f6170692f6974656d2f7b69647d2e6a736f6e",
  "linkReferences": {},
  "deployedLinkReferences": {}
}