{
  "_format": "hh-sol-artifact-1",
  "contractName": "RacksItems",
  "sourceName": "contracts/RacksItems.sol",
  "abi": [
    {
      "inputs": [
        {
          "internalType": "address",
          "name": "vrfCoordinatorV2",
          "type": "address"
        },
        {
          "internalType": "bytes32",
          "name": "gasLane",
          "type": "bytes32"
        },
        {
          "internalType": "uint64",
          "name": "subscriptionId",
          "type": "uint64"
        },
        {
          "internalType": "uint32",
          "name": "callbackGasLimit",
          "type": "uint32"
        },
        {
          "internalType": "address",
          "name": "_racksTokenAddress",
          "type": "address"
        }
      ],
      "stateMutability": "nonpayable",
      "type": "constructor"
    },
    {
      "inputs": [
        {
          "internalType": "address",
          "name": "have",
          "type": "address"
        },
        {
          "internalType": "address",
          "name": "want",
          "type": "address"
        }
      ],
      "name": "OnlyCoordinatorCanFulfill",
      "type": "error"
    },
    {
      "anonymous": false,
      "inputs": [
        {
          "indexed": true,
          "internalType": "address",
          "name": "account",
          "type": "address"
        },
        {
          "indexed": true,
          "internalType": "address",
          "name": "operator",
          "type": "address"
        },
        {
          "indexed": false,
          "internalType": "bool",
          "name": "approved",
          "type": "bool"
        }
      ],
      "name": "ApprovalForAll",
      "type": "event"
    },
    {
      "anonymous": false,
      "inputs": [
        {
          "indexed": false,
          "internalType": "address",
          "name": "user",
          "type": "address"
        },
        {
          "indexed": false,
          "internalType": "uint256",
          "name": "casePrice",
          "type": "uint256"
        },
        {
          "indexed": false,
          "internalType": "uint256",
          "name": "item",
          "type": "uint256"
        }
      ],
      "name": "CaseOpened",
      "type": "event"
    },
    {
      "anonymous": false,
      "inputs": [
        {
          "indexed": true,
          "internalType": "bytes32",
          "name": "role",
          "type": "bytes32"
        },
        {
          "indexed": true,
          "internalType": "bytes32",
          "name": "previousAdminRole",
          "type": "bytes32"
        },
        {
          "indexed": true,
          "internalType": "bytes32",
          "name": "newAdminRole",
          "type": "bytes32"
        }
      ],
      "name": "RoleAdminChanged",
      "type": "event"
    },
    {
      "anonymous": false,
      "inputs": [
        {
          "indexed": true,
          "internalType": "bytes32",
          "name": "role",
          "type": "bytes32"
        },
        {
          "indexed": true,
          "internalType": "address",
          "name": "account",
          "type": "address"
        },
        {
          "indexed": true,
          "internalType": "address",
          "name": "sender",
          "type": "address"
        }
      ],
      "name": "RoleGranted",
      "type": "event"
    },
    {
      "anonymous": false,
      "inputs": [
        {
          "indexed": true,
          "internalType": "bytes32",
          "name": "role",
          "type": "bytes32"
        },
        {
          "indexed": true,
          "internalType": "address",
          "name": "account",
          "type": "address"
        },
        {
          "indexed": true,
          "internalType": "address",
          "name": "sender",
          "type": "address"
        }
      ],
      "name": "RoleRevoked",
      "type": "event"
    },
    {
      "anonymous": false,
      "inputs": [
        {
          "indexed": true,
          "internalType": "address",
          "name": "operator",
          "type": "address"
        },
        {
          "indexed": true,
          "internalType": "address",
          "name": "from",
          "type": "address"
        },
        {
          "indexed": true,
          "internalType": "address",
          "name": "to",
          "type": "address"
        },
        {
          "indexed": false,
          "internalType": "uint256[]",
          "name": "ids",
          "type": "uint256[]"
        },
        {
          "indexed": false,
          "internalType": "uint256[]",
          "name": "values",
          "type": "uint256[]"
        }
      ],
      "name": "TransferBatch",
      "type": "event"
    },
    {
      "anonymous": false,
      "inputs": [
        {
          "indexed": true,
          "internalType": "address",
          "name": "operator",
          "type": "address"
        },
        {
          "indexed": true,
          "internalType": "address",
          "name": "from",
          "type": "address"
        },
        {
          "indexed": true,
          "internalType": "address",
          "name": "to",
          "type": "address"
        },
        {
          "indexed": false,
          "internalType": "uint256",
          "name": "id",
          "type": "uint256"
        },
        {
          "indexed": false,
          "internalType": "uint256",
          "name": "value",
          "type": "uint256"
        }
      ],
      "name": "TransferSingle",
      "type": "event"
    },
    {
      "anonymous": false,
      "inputs": [
        {
          "indexed": false,
          "internalType": "string",
          "name": "value",
          "type": "string"
        },
        {
          "indexed": true,
          "internalType": "uint256",
          "name": "id",
          "type": "uint256"
        }
      ],
      "name": "URI",
      "type": "event"
    },
    {
      "anonymous": false,
      "inputs": [
        {
          "indexed": false,
          "internalType": "uint256",
          "name": "newPrice",
          "type": "uint256"
        }
      ],
      "name": "casePriceChanged",
      "type": "event"
    },
    {
      "anonymous": false,
      "inputs": [
        {
          "indexed": false,
          "internalType": "address",
          "name": "buyer",
          "type": "address"
        },
        {
          "indexed": false,
          "internalType": "address",
          "name": "seller",
          "type": "address"
        },
        {
          "indexed": false,
          "internalType": "uint256",
          "name": "marketItemId",
          "type": "uint256"
        },
        {
          "indexed": false,
          "internalType": "uint256",
          "name": "price",
          "type": "uint256"
        }
      ],
      "name": "itemBought",
      "type": "event"
    },
    {
      "anonymous": false,
      "inputs": [
        {
          "indexed": false,
          "internalType": "address",
          "name": "user",
          "type": "address"
        },
        {
          "indexed": false,
          "internalType": "uint256",
          "name": "tokenId",
          "type": "uint256"
        }
      ],
      "name": "itemExchanged",
      "type": "event"
    },
    {
      "anonymous": false,
      "inputs": [
        {
          "indexed": false,
          "internalType": "address",
          "name": "user",
          "type": "address"
        },
        {
          "indexed": false,
          "internalType": "uint256",
          "name": "tokenId",
          "type": "uint256"
        },
        {
          "indexed": false,
          "internalType": "uint256",
          "name": "price",
          "type": "uint256"
        }
      ],
      "name": "sellingItem",
      "type": "event"
    },
    {
      "inputs": [],
      "name": "ADMIN_ROLE",
      "outputs": [
        {
          "internalType": "bytes32",
          "name": "",
          "type": "bytes32"
        }
      ],
      "stateMutability": "view",
      "type": "function"
    },
    {
      "inputs": [],
      "name": "DEFAULT_ADMIN_ROLE",
      "outputs": [
        {
          "internalType": "bytes32",
          "name": "",
          "type": "bytes32"
        }
      ],
      "stateMutability": "view",
      "type": "function"
    },
    {
      "inputs": [],
      "name": "NUM_WORDS",
      "outputs": [
        {
          "internalType": "uint32",
          "name": "",
          "type": "uint32"
        }
      ],
      "stateMutability": "view",
      "type": "function"
    },
    {
      "inputs": [],
      "name": "REQUEST_CONFIRMATIONS",
      "outputs": [
        {
          "internalType": "uint16",
          "name": "",
          "type": "uint16"
        }
      ],
      "stateMutability": "view",
      "type": "function"
    },
    {
      "inputs": [],
      "name": "_randomNumber",
      "outputs": [
        {
          "internalType": "uint256",
          "name": "",
          "type": "uint256"
        }
      ],
      "stateMutability": "nonpayable",
      "type": "function"
    },
    {
      "inputs": [
        {
          "internalType": "uint256",
          "name": "tokenId",
          "type": "uint256"
        }
      ],
      "name": "_rarityOfItem",
      "outputs": [
        {
          "internalType": "uint256",
          "name": "",
          "type": "uint256"
        }
      ],
      "stateMutability": "view",
      "type": "function"
    },
    {
      "inputs": [
        {
          "internalType": "address",
          "name": "account",
          "type": "address"
        },
        {
          "internalType": "uint256",
          "name": "id",
          "type": "uint256"
        }
      ],
      "name": "balanceOf",
      "outputs": [
        {
          "internalType": "uint256",
          "name": "",
          "type": "uint256"
        }
      ],
      "stateMutability": "view",
      "type": "function"
    },
    {
      "inputs": [
        {
          "internalType": "address[]",
          "name": "accounts",
          "type": "address[]"
        },
        {
          "internalType": "uint256[]",
          "name": "ids",
          "type": "uint256[]"
        }
      ],
      "name": "balanceOfBatch",
      "outputs": [
        {
          "internalType": "uint256[]",
          "name": "",
          "type": "uint256[]"
        }
      ],
      "stateMutability": "view",
      "type": "function"
    },
    {
      "inputs": [
        {
          "internalType": "uint256",
          "name": "marketItemId",
          "type": "uint256"
        }
      ],
      "name": "buyItem",
      "outputs": [],
      "stateMutability": "nonpayable",
      "type": "function"
    },
    {
      "inputs": [],
      "name": "casePrice",
      "outputs": [
        {
          "internalType": "uint256",
          "name": "",
          "type": "uint256"
        }
      ],
      "stateMutability": "view",
      "type": "function"
    },
    {
      "inputs": [],
      "name": "contractActive",
      "outputs": [
        {
          "internalType": "bool",
          "name": "",
          "type": "bool"
        }
      ],
      "stateMutability": "view",
      "type": "function"
    },
    {
      "inputs": [
        {
          "internalType": "uint256",
          "name": "marketItemId",
          "type": "uint256"
        }
      ],
      "name": "exchangeItem",
      "outputs": [],
      "stateMutability": "nonpayable",
      "type": "function"
    },
    {
      "inputs": [],
      "name": "flipContractState",
      "outputs": [],
      "stateMutability": "nonpayable",
      "type": "function"
    },
    {
      "inputs": [],
      "name": "getCasePrice",
      "outputs": [
        {
          "internalType": "uint256",
          "name": "",
          "type": "uint256"
        }
      ],
      "stateMutability": "view",
      "type": "function"
    },
    {
      "inputs": [],
      "name": "getItemsOnSale",
      "outputs": [
        {
          "components": [
            {
              "internalType": "uint256",
              "name": "tokenId",
              "type": "uint256"
            },
            {
              "internalType": "uint256",
              "name": "marketItemId",
              "type": "uint256"
            },
            {
              "internalType": "uint256",
              "name": "price",
              "type": "uint256"
            },
            {
              "internalType": "address",
              "name": "seller",
              "type": "address"
            },
            {
              "internalType": "bool",
              "name": "sold",
              "type": "bool"
            }
          ],
          "internalType": "struct RacksItems.itemOnSale[]",
          "name": "",
          "type": "tuple[]"
        }
      ],
      "stateMutability": "view",
      "type": "function"
    },
    {
      "inputs": [
        {
          "internalType": "uint256",
          "name": "marketItemId",
          "type": "uint256"
        }
      ],
      "name": "getMarketItem",
      "outputs": [
        {
          "components": [
            {
              "internalType": "uint256",
              "name": "tokenId",
              "type": "uint256"
            },
            {
              "internalType": "uint256",
              "name": "marketItemId",
              "type": "uint256"
            },
            {
              "internalType": "uint256",
              "name": "price",
              "type": "uint256"
            },
            {
              "internalType": "address",
              "name": "seller",
              "type": "address"
            },
            {
              "internalType": "bool",
              "name": "sold",
              "type": "bool"
            }
          ],
          "internalType": "struct RacksItems.itemOnSale",
          "name": "",
          "type": "tuple"
        }
      ],
      "stateMutability": "view",
      "type": "function"
    },
    {
      "inputs": [
        {
          "internalType": "bytes32",
          "name": "role",
          "type": "bytes32"
        }
      ],
      "name": "getRoleAdmin",
      "outputs": [
        {
          "internalType": "bytes32",
          "name": "",
          "type": "bytes32"
        }
      ],
      "stateMutability": "view",
      "type": "function"
    },
    {
      "inputs": [
        {
          "internalType": "bytes32",
          "name": "role",
          "type": "bytes32"
        },
        {
          "internalType": "address",
          "name": "account",
          "type": "address"
        }
      ],
      "name": "grantRole",
      "outputs": [],
      "stateMutability": "nonpayable",
      "type": "function"
    },
    {
      "inputs": [
        {
          "internalType": "bytes32",
          "name": "role",
          "type": "bytes32"
        },
        {
          "internalType": "address",
          "name": "account",
          "type": "address"
        }
      ],
      "name": "hasRole",
      "outputs": [
        {
          "internalType": "bool",
          "name": "",
          "type": "bool"
        }
      ],
      "stateMutability": "view",
      "type": "function"
    },
    {
      "inputs": [],
      "name": "i_MrCryptoAddress",
      "outputs": [
        {
          "internalType": "address",
          "name": "",
          "type": "address"
        }
      ],
      "stateMutability": "view",
      "type": "function"
    },
    {
      "inputs": [],
      "name": "i_callbackGasLimit",
      "outputs": [
        {
          "internalType": "uint32",
          "name": "",
          "type": "uint32"
        }
      ],
      "stateMutability": "view",
      "type": "function"
    },
    {
      "inputs": [],
      "name": "i_gasLane",
      "outputs": [
        {
          "internalType": "bytes32",
          "name": "",
          "type": "bytes32"
        }
      ],
      "stateMutability": "view",
      "type": "function"
    },
    {
      "inputs": [],
      "name": "i_subscriptionId",
      "outputs": [
        {
          "internalType": "uint64",
          "name": "",
          "type": "uint64"
        }
      ],
      "stateMutability": "view",
      "type": "function"
    },
    {
      "inputs": [],
      "name": "i_vrfCoordinator",
      "outputs": [
        {
          "internalType": "contract VRFCoordinatorV2Interface",
          "name": "",
          "type": "address"
        }
      ],
      "stateMutability": "view",
      "type": "function"
    },
    {
      "inputs": [
        {
          "internalType": "address",
          "name": "account",
          "type": "address"
        },
        {
          "internalType": "address",
          "name": "operator",
          "type": "address"
        }
      ],
      "name": "isApprovedForAll",
      "outputs": [
        {
          "internalType": "bool",
          "name": "",
          "type": "bool"
        }
      ],
      "stateMutability": "view",
      "type": "function"
    },
    {
      "inputs": [
        {
          "internalType": "address",
          "name": "user",
          "type": "address"
        }
      ],
      "name": "isVip",
      "outputs": [
        {
          "internalType": "bool",
          "name": "",
          "type": "bool"
        }
      ],
      "stateMutability": "view",
      "type": "function"
    },
    {
      "inputs": [
        {
          "internalType": "uint256",
          "name": "itemSupply",
          "type": "uint256"
        }
      ],
      "name": "listItem",
      "outputs": [],
      "stateMutability": "nonpayable",
      "type": "function"
    },
    {
      "inputs": [
        {
          "internalType": "address",
          "name": "",
          "type": "address"
        },
        {
          "internalType": "address",
          "name": "",
          "type": "address"
        },
        {
          "internalType": "uint256[]",
          "name": "",
          "type": "uint256[]"
        },
        {
          "internalType": "uint256[]",
          "name": "",
          "type": "uint256[]"
        },
        {
          "internalType": "bytes",
          "name": "",
          "type": "bytes"
        }
      ],
      "name": "onERC1155BatchReceived",
      "outputs": [
        {
          "internalType": "bytes4",
          "name": "",
          "type": "bytes4"
        }
      ],
      "stateMutability": "nonpayable",
      "type": "function"
    },
    {
      "inputs": [
        {
          "internalType": "address",
          "name": "",
          "type": "address"
        },
        {
          "internalType": "address",
          "name": "",
          "type": "address"
        },
        {
          "internalType": "uint256",
          "name": "",
          "type": "uint256"
        },
        {
          "internalType": "uint256",
          "name": "",
          "type": "uint256"
        },
        {
          "internalType": "bytes",
          "name": "",
          "type": "bytes"
        }
      ],
      "name": "onERC1155Received",
      "outputs": [
        {
          "internalType": "bytes4",
          "name": "",
          "type": "bytes4"
        }
      ],
      "stateMutability": "nonpayable",
      "type": "function"
    },
    {
      "inputs": [],
      "name": "openCase",
      "outputs": [],
      "stateMutability": "nonpayable",
      "type": "function"
    },
    {
      "inputs": [
        {
          "internalType": "uint256",
          "name": "requestId",
          "type": "uint256"
        },
        {
          "internalType": "uint256[]",
          "name": "randomWords",
          "type": "uint256[]"
        }
      ],
      "name": "rawFulfillRandomWords",
      "outputs": [],
      "stateMutability": "nonpayable",
      "type": "function"
    },
    {
      "inputs": [
        {
          "internalType": "address[]",
          "name": "users",
          "type": "address[]"
        }
      ],
      "name": "removeListRacksMembers",
      "outputs": [],
      "stateMutability": "nonpayable",
      "type": "function"
    },
    {
      "inputs": [
        {
          "internalType": "address",
          "name": "user",
          "type": "address"
        }
      ],
      "name": "removeSingleRacksMember",
      "outputs": [],
      "stateMutability": "nonpayable",
      "type": "function"
    },
    {
      "inputs": [
        {
          "internalType": "bytes32",
          "name": "role",
          "type": "bytes32"
        },
        {
          "internalType": "address",
          "name": "account",
          "type": "address"
        }
      ],
      "name": "renounceRole",
      "outputs": [],
      "stateMutability": "nonpayable",
      "type": "function"
    },
    {
      "inputs": [
        {
          "internalType": "bytes32",
          "name": "role",
          "type": "bytes32"
        },
        {
          "internalType": "address",
          "name": "account",
          "type": "address"
        }
      ],
      "name": "revokeRole",
      "outputs": [],
      "stateMutability": "nonpayable",
      "type": "function"
    },
    {
      "inputs": [],
      "name": "s_contractState",
      "outputs": [
        {
          "internalType": "enum RacksItems.ContractState",
          "name": "",
          "type": "uint8"
        }
      ],
      "stateMutability": "view",
      "type": "function"
    },
    {
      "inputs": [],
      "name": "s_randomWord",
      "outputs": [
        {
          "internalType": "uint256",
          "name": "",
          "type": "uint256"
        }
      ],
      "stateMutability": "view",
      "type": "function"
    },
    {
      "inputs": [
        {
          "internalType": "address",
          "name": "from",
          "type": "address"
        },
        {
          "internalType": "address",
          "name": "to",
          "type": "address"
        },
        {
          "internalType": "uint256[]",
          "name": "ids",
          "type": "uint256[]"
        },
        {
          "internalType": "uint256[]",
          "name": "amounts",
          "type": "uint256[]"
        },
        {
          "internalType": "bytes",
          "name": "data",
          "type": "bytes"
        }
      ],
      "name": "safeBatchTransferFrom",
      "outputs": [],
      "stateMutability": "nonpayable",
      "type": "function"
    },
    {
      "inputs": [
        {
          "internalType": "address",
          "name": "from",
          "type": "address"
        },
        {
          "internalType": "address",
          "name": "to",
          "type": "address"
        },
        {
          "internalType": "uint256",
          "name": "id",
          "type": "uint256"
        },
        {
          "internalType": "uint256",
          "name": "amount",
          "type": "uint256"
        },
        {
          "internalType": "bytes",
          "name": "data",
          "type": "bytes"
        }
      ],
      "name": "safeTransferFrom",
      "outputs": [],
      "stateMutability": "nonpayable",
      "type": "function"
    },
    {
      "inputs": [
        {
          "internalType": "uint256",
          "name": "marketItemId",
          "type": "uint256"
        },
        {
          "internalType": "uint256",
          "name": "price",
          "type": "uint256"
        }
      ],
      "name": "sellItem",
      "outputs": [],
      "stateMutability": "nonpayable",
      "type": "function"
    },
    {
      "inputs": [
        {
          "internalType": "address",
          "name": "_newAdmin",
          "type": "address"
        }
      ],
      "name": "setAdmin",
      "outputs": [],
      "stateMutability": "nonpayable",
      "type": "function"
    },
    {
      "inputs": [
        {
          "internalType": "address",
          "name": "operator",
          "type": "address"
        },
        {
          "internalType": "bool",
          "name": "approved",
          "type": "bool"
        }
      ],
      "name": "setApprovalForAll",
      "outputs": [],
      "stateMutability": "nonpayable",
      "type": "function"
    },
    {
      "inputs": [
        {
          "internalType": "uint256",
          "name": "price",
          "type": "uint256"
        }
      ],
      "name": "setCasePrice",
      "outputs": [],
      "stateMutability": "nonpayable",
      "type": "function"
    },
    {
      "inputs": [
        {
          "internalType": "address[]",
          "name": "users",
          "type": "address[]"
        }
      ],
      "name": "setListRacksMembers",
      "outputs": [],
      "stateMutability": "nonpayable",
      "type": "function"
    },
    {
      "inputs": [
        {
          "internalType": "address",
          "name": "user",
          "type": "address"
        }
      ],
      "name": "setSingleRacksMember",
      "outputs": [],
      "stateMutability": "nonpayable",
      "type": "function"
    },
    {
      "inputs": [
        {
          "internalType": "uint256",
          "name": "tokenId",
          "type": "uint256"
        },
        {
          "internalType": "string",
          "name": "_uri",
          "type": "string"
        }
      ],
      "name": "setTokenUri",
      "outputs": [],
      "stateMutability": "nonpayable",
      "type": "function"
    },
    {
      "inputs": [
        {
          "internalType": "uint256",
          "name": "tokenId",
          "type": "uint256"
        }
      ],
      "name": "supplyOfItem",
      "outputs": [
        {
          "internalType": "uint256",
          "name": "",
          "type": "uint256"
        }
      ],
      "stateMutability": "view",
      "type": "function"
    },
    {
      "inputs": [
        {
          "internalType": "bytes4",
          "name": "interfaceId",
          "type": "bytes4"
        }
      ],
      "name": "supportsInterface",
      "outputs": [
        {
          "internalType": "bool",
          "name": "",
          "type": "bool"
        }
      ],
      "stateMutability": "view",
      "type": "function"
    },
    {
      "inputs": [
        {
          "internalType": "uint256",
          "name": "marketItemId",
          "type": "uint256"
        }
      ],
      "name": "unListItem",
      "outputs": [],
      "stateMutability": "nonpayable",
      "type": "function"
    },
    {
      "inputs": [
        {
          "internalType": "uint256",
          "name": "tokenId",
          "type": "uint256"
        }
      ],
      "name": "uri",
      "outputs": [
        {
          "internalType": "string",
          "name": "",
          "type": "string"
        }
      ],
      "stateMutability": "view",
      "type": "function"
    },
    {
      "inputs": [
        {
          "internalType": "address",
          "name": "owner",
          "type": "address"
        }
      ],
      "name": "viewItems",
      "outputs": [
        {
          "internalType": "uint256[]",
          "name": "",
          "type": "uint256[]"
        }
      ],
      "stateMutability": "view",
      "type": "function"
    },
    {
      "inputs": [
        {
          "internalType": "address",
          "name": "wallet",
          "type": "address"
        }
      ],
      "name": "withdrawAllFunds",
      "outputs": [],
      "stateMutability": "nonpayable",
      "type": "function"
    },
    {
      "inputs": [
        {
          "internalType": "address",
          "name": "wallet",
          "type": "address"
        },
        {
          "internalType": "uint256",
          "name": "amount",
          "type": "uint256"
        }
      ],
      "name": "withdrawFunds",
      "outputs": [],
      "stateMutability": "nonpayable",
      "type": "function"
    },
    {
      "stateMutability": "payable",
      "type": "receive"
    }
  ],
  "bytecode": "0x610120604052600b805460ff191660011790553480156200001f57600080fd5b506040516200447b3803806200447b8339810160408190526200004291620001e7565b60408051602081019091526000815285906200005e816200010b565b50606090811b6001600160601b031990811660805295901b90941660a05260c0928352911b6001600160c01b03191660e09081521b6001600160e01b031916610100526004805473ef453154766505feb9dbf0a58e6990fd6eb669696001600160a01b0319918216179091556005805482166001600160a01b0393909316929092179091556006805433921691909117905560006008556001600a55600b805461ff0019169055620002a4565b80516200012090600290602084019062000124565b5050565b828054620001329062000267565b90600052602060002090601f016020900481019282620001565760008555620001a1565b82601f106200017157805160ff1916838001178555620001a1565b82800160010185558215620001a1579182015b82811115620001a157825182559160200191906001019062000184565b50620001af929150620001b3565b5090565b5b80821115620001af5760008155600101620001b4565b80516001600160a01b0381168114620001e257600080fd5b919050565b600080600080600060a086880312156200020057600080fd5b6200020b86620001ca565b6020870151604088015191965094506001600160401b03811681146200023057600080fd5b606087015190935063ffffffff811681146200024b57600080fd5b91506200025b60808701620001ca565b90509295509295909350565b600181811c908216806200027c57607f821691505b602082108114156200029e57634e487b7160e01b600052602260045260246000fd5b50919050565b60805160601c60a05160601c60c05160e05160c01c6101005160e01c61416362000318600039600081816109de015261184201526000818161059a015261180f0152600081816107a501526117e0015260008181610874015261187d015260008181610d1b0152610d7601526141636000f3fe60806040526004361061034d5760003560e01c806389165aa9116101bb578063c1075329116100f7578063e289fcb611610095578063f23a6e611161006f578063f23a6e6114610a98578063f242432a14610ac4578063f48c9d3414610ae4578063fd210fd914610b0457600080fd5b8063e289fcb614610a15578063e7fb74c714610a2f578063e985e9c514610a4f57600080fd5b8063ca90958f116100d1578063ca90958f14610996578063d547741f146109ac578063d757d027146109cc578063de08f65314610a0057600080fd5b8063c107532914610929578063c7be7a4914610949578063c7e05f8d1461097657600080fd5b8063a217fddf11610164578063aebc45501161013e578063aebc455014610862578063b63b861214610896578063bbcbc2e7146108c2578063bc197c81146108e457600080fd5b8063a217fddf146106fe578063a22cb46514610822578063a7bc77c61461084257600080fd5b80638e879c8a116101955780638e879c8a1461079357806391d14854146107c7578063976298f31461080d57600080fd5b806389165aa9146107335780638ba8b15a146107535780638dc5f45b1461077357600080fd5b806336568abe1161028a57806357f7789e11610233578063704b6c021161020d578063704b6c02146106b457806372cf6e34146106d457806375b238fc146106fe57806384203f4b1461071357600080fd5b806357f7789e14610657578063616524501461067757806367f082b01461068c57600080fd5b80634e1273f4116102645780634e1273f4146105ea5780635408c3191461061757806354e889f61461063757600080fd5b806336568abe14610568578063470cdf97146105885780634a226657146105d557600080fd5b806320ba0814116102f75780632d923561116102d15780632d923561146104e85780632eb2c2d6146105085780632f2ff15d1461052857806332dee40b1461054857600080fd5b806320ba08141461046b578063248a9ca3146104985780632ce38190146104c857600080fd5b8063109b827811610328578063109b8278146103e95780631cb0b273146104295780631fe543e31461044b57600080fd5b8062fdd58e1461035957806301ffc9a71461038c5780630e89341c146103bc57600080fd5b3661035457005b600080fd5b34801561036557600080fd5b5061037961037436600461399d565b610b1a565b6040519081526020015b60405180910390f35b34801561039857600080fd5b506103ac6103a7366004613ac1565b610bc6565b6040519015158152602001610383565b3480156103c857600080fd5b506103dc6103d7366004613a85565b610bd1565b6040516103839190613e3a565b3480156103f557600080fd5b5061041173ef453154766505feb9dbf0a58e6990fd6eb6696981565b6040516001600160a01b039091168152602001610383565b34801561043557600080fd5b50610449610444366004613a85565b610c73565b005b34801561045757600080fd5b50610449610466366004613b14565b610d10565b34801561047757600080fd5b50610379610486366004613a85565b6000908152600f602052604090205490565b3480156104a457600080fd5b506103796104b3366004613a85565b60009081526003602052604090206001015490565b3480156104d457600080fd5b506104496104e3366004613a85565b610db1565b3480156104f457600080fd5b50610449610503366004613ba2565b610e1d565b34801561051457600080fd5b50610449610523366004613857565b61100c565b34801561053457600080fd5b50610449610543366004613a9e565b6110ae565b34801561055457600080fd5b50610449610563366004613809565b6110d8565b34801561057457600080fd5b50610449610583366004613a9e565b611207565b34801561059457600080fd5b506105bc7f000000000000000000000000000000000000000000000000000000000000000081565b60405167ffffffffffffffff9091168152602001610383565b3480156105e157600080fd5b5061044961128f565b3480156105f657600080fd5b5061060a610605366004613a04565b61144a565b6040516103839190613dd1565b34801561062357600080fd5b506104496106323660046139c7565b611588565b34801561064357600080fd5b50610449610652366004613809565b61164f565b34801561066357600080fd5b50610449610672366004613b51565b6116d2565b34801561068357600080fd5b506103796117b8565b34801561069857600080fd5b506106a1600381565b60405161ffff9091168152602001610383565b3480156106c057600080fd5b506104496106cf366004613809565b6118f9565b3480156106e057600080fd5b506106e9600281565b60405163ffffffff9091168152602001610383565b34801561070a57600080fd5b50610379600081565b34801561071f57600080fd5b506103ac61072e366004613809565b61195e565b34801561073f57600080fd5b5061044961074e3660046139c7565b611a31565b34801561075f57600080fd5b5061044961076e366004613809565b611af8565b34801561077f57600080fd5b5061044961078e366004613a85565b611b78565b34801561079f57600080fd5b506103797f000000000000000000000000000000000000000000000000000000000000000081565b3480156107d357600080fd5b506103ac6107e2366004613a9e565b60009182526003602090815260408084206001600160a01b0393909316845291905290205460ff1690565b34801561081957600080fd5b50600a54610379565b34801561082e57600080fd5b5061044961083d366004613966565b611c0c565b34801561084e57600080fd5b5061044961085d366004613a85565b611c17565b34801561086e57600080fd5b506104117f000000000000000000000000000000000000000000000000000000000000000081565b3480156108a257600080fd5b50600b546108b590610100900460ff1681565b6040516103839190613e12565b3480156108ce57600080fd5b506108d7611d21565b6040516103839190613d4d565b3480156108f057600080fd5b506109106108ff366004613857565b63bc197c8160e01b95945050505050565b6040516001600160e01b03199091168152602001610383565b34801561093557600080fd5b5061044961094436600461399d565b611f2c565b34801561095557600080fd5b50610969610964366004613a85565b61205c565b6040516103839190613e4d565b34801561098257600080fd5b50610379610991366004613a85565b61210f565b3480156109a257600080fd5b50610379600a5481565b3480156109b857600080fd5b506104496109c7366004613a9e565b612146565b3480156109d857600080fd5b506106e97f000000000000000000000000000000000000000000000000000000000000000081565b348015610a0c57600080fd5b5061044961216b565b348015610a2157600080fd5b50600b546103ac9060ff1681565b348015610a3b57600080fd5b50610449610a4a366004613a85565b61220c565b348015610a5b57600080fd5b506103ac610a6a366004613824565b6001600160a01b03918216600090815260016020908152604080832093909416825291909152205460ff1690565b348015610aa457600080fd5b50610910610ab3366004613901565b63f23a6e6160e01b95945050505050565b348015610ad057600080fd5b50610449610adf366004613901565b61240f565b348015610af057600080fd5b5061060a610aff366004613809565b6124aa565b348015610b1057600080fd5b50610379600d5481565b60006001600160a01b038316610b9d5760405162461bcd60e51b815260206004820152602b60248201527f455243313135353a2062616c616e636520717565727920666f7220746865207a60448201527f65726f206164647265737300000000000000000000000000000000000000000060648201526084015b60405180910390fd5b506000818152602081815260408083206001600160a01b03861684529091529020545b92915050565b6000610bc082612541565b6000818152601060205260409020805460609190610bee90613f5e565b80601f0160208091040260200160405190810160405280929190818152602001828054610c1a90613f5e565b8015610c675780601f10610c3c57610100808354040283529160200191610c67565b820191906000526020600020905b815481529060010190602001808311610c4a57829003601f168201915b50505050509050919050565b6000610c7f3383610b1a565b11610c8957600080fd5b610c953382600161257f565b6000818152600f60205260408120805460019290610cb4908490613f00565b92505081905550600160076000828254610cce9190613f00565b909155505060408051338152602081018390527f9e90d55d2f1f115ffe1b87372c45f27f6b3a2b5ba392942167be78456189009491015b60405180910390a150565b336001600160a01b037f00000000000000000000000000000000000000000000000000000000000000001614610da3576040517f1cf993f40000000000000000000000000000000000000000000000000000000081523360048201526001600160a01b037f0000000000000000000000000000000000000000000000000000000000000000166024820152604401610b94565b610dad8282612733565b5050565b610dba33612758565b610e105760405162461bcd60e51b815260206004820152602160248201527f55736572206973206e6f7420746865204f776e6572206f7220616e2041646d696044820152603760f91b6064820152608401610b94565b610e1a30826127b7565b50565b6000610e293384610b1a565b11610e765760405162461bcd60e51b815260206004820152600f60248201527f4974656d206e6f7420666f756e642e00000000000000000000000000000000006044820152606401610b94565b610e93333084600160405180602001604052806000815250612822565b6040805160a08101825283815260098054602083019081529282018481523360608401908152600060808501818152600c8054600181018255908352955160049096027fdf6966c971051c3d54ec59162606531493a51404a002842f56009d7e5cf4a8c781019690965595517fdf6966c971051c3d54ec59162606531493a51404a002842f56009d7e5cf4a8c886015591517fdf6966c971051c3d54ec59162606531493a51404a002842f56009d7e5cf4a8c9850155517fdf6966c971051c3d54ec59162606531493a51404a002842f56009d7e5cf4a8ca909301805494511515600160a01b027fffffffffffffffffffffff0000000000000000000000000000000000000000009095166001600160a01b03949094169390931793909317909155805491610fc183613fc6565b909155505060408051338152602081018490529081018290527f23cba88d6c6f26b62b2cfc32a2cc04fbbde8590188b97cd3590e45af9ac6dd6d906060015b60405180910390a15050565b6001600160a01b03851633148061102857506110288533610a6a565b61109a5760405162461bcd60e51b815260206004820152603260248201527f455243313135353a207472616e736665722063616c6c6572206973206e6f742060448201527f6f776e6572206e6f7220617070726f76656400000000000000000000000000006064820152608401610b94565b6110a785858585856129cd565b5050505050565b6000828152600360205260409020600101546110c981612c40565b6110d38383612c4a565b505050565b6006546001600160a01b031633146111325760405162461bcd60e51b815260206004820152601560248201527f55736572206973206e6f7420746865206f776e657200000000000000000000006044820152606401610b94565b600047116111825760405162461bcd60e51b815260206004820152601460248201527f4e6f2066756e647320746f2077697468647261770000000000000000000000006044820152606401610b94565b60055460405163a9059cbb60e01b81526001600160a01b0383811660048301524760248301529091169063a9059cbb90604401602060405180830381600087803b1580156111cf57600080fd5b505af11580156111e3573d6000803e3d6000fd5b505050506040513d601f19601f82011682018060405250810190610dad9190613a68565b6001600160a01b03811633146112855760405162461bcd60e51b815260206004820152602f60248201527f416363657373436f6e74726f6c3a2063616e206f6e6c792072656e6f756e636560448201527f20726f6c657320666f722073656c6600000000000000000000000000000000006064820152608401610b94565b610dad8282612cec565b600554600a546040516323b872dd60e01b815233600482015230602482015260448101919091526001600160a01b03909116906323b872dd90606401602060405180830381600087803b1580156112e557600080fd5b505af11580156112f9573d6000803e3d6000fd5b505050506040513d601f19601f8201168201806040525081019061131d9190613a68565b50600060075461132b6117b8565b6113359190613fe1565b9050600080805b600854811015611400576000818152600f602052604081205461135f9085613eb5565b905083851115611371578093506113ed565b61137c600183613f00565b92506113883084610b1a565b6113ca576000611399600185613f00565b90505b60006113a83083610b1a565b11156113b6578093506113c8565b806113c081613f47565b91505061139c565b505b6113e7303385600160405180602001604052806000815250612822565b50611400565b50806113f881613fc6565b91505061133c565b50600a5460408051338152602081019290925281018290527fea32e37a2618dbb680c93d891742e9e13b30d184822562a0ee3c09290fd42b439060600160405180910390a1505050565b606081518351146114c35760405162461bcd60e51b815260206004820152602960248201527f455243313135353a206163636f756e747320616e6420696473206c656e67746860448201527f206d69736d6174636800000000000000000000000000000000000000000000006064820152608401610b94565b6000835167ffffffffffffffff8111156114df576114df61404d565b604051908082528060200260200182016040528015611508578160200160208202803683370190505b50905060005b84518110156115805761155385828151811061152c5761152c614037565b602002602001015185838151811061154657611546614037565b6020026020010151610b1a565b82828151811061156557611565614037565b602090810291909101015261157981613fc6565b905061150e565b509392505050565b61159133612758565b6115e75760405162461bcd60e51b815260206004820152602160248201527f55736572206973206e6f7420746865204f776e6572206f7220616e2041646d696044820152603760f91b6064820152608401610b94565b60005b8151811015610dad576000600e600084848151811061160b5761160b614037565b6020908102919091018101516001600160a01b03168252810191909152604001600020805460ff19169115159190911790558061164781613fc6565b9150506115ea565b61165833612758565b6116ae5760405162461bcd60e51b815260206004820152602160248201527f55736572206973206e6f7420746865204f776e6572206f7220616e2041646d696044820152603760f91b6064820152608401610b94565b6001600160a01b03166000908152600e60205260409020805460ff19166001179055565b6116db33612758565b6117315760405162461bcd60e51b815260206004820152602160248201527f55736572206973206e6f7420746865204f776e6572206f7220616e2041646d696044820152603760f91b6064820152608401610b94565b6000828152601060205260409020805461174a90613f5e565b1590506117995760405162461bcd60e51b815260206004820152601560248201527f43616e206e6f74207365742075726920747769636500000000000000000000006044820152606401610b94565b600082815260106020908152604090912082516110d3928401906135ee565b6040517f5d3b1d300000000000000000000000000000000000000000000000000000000081527f0000000000000000000000000000000000000000000000000000000000000000600482015267ffffffffffffffff7f00000000000000000000000000000000000000000000000000000000000000001660248201526003604482015263ffffffff7f00000000000000000000000000000000000000000000000000000000000000001660648201526002608482015260009081906001600160a01b037f00000000000000000000000000000000000000000000000000000000000000001690635d3b1d309060a401602060405180830381600087803b1580156118c157600080fd5b505af11580156118d5573d6000803e3d6000fd5b505050506040513d601f19601f82011682018060405250810190610bc09190613afb565b6006546001600160a01b031633146119535760405162461bcd60e51b815260206004820152601560248201527f55736572206973206e6f7420746865206f776e657200000000000000000000006044820152606401610b94565b610e1a600082612d6f565b600480546040517f70a082310000000000000000000000000000000000000000000000000000000081526001600160a01b0384811693820193909352600092839216906370a082319060240160206040518083038186803b1580156119c257600080fd5b505afa1580156119d6573d6000803e3d6000fd5b505050506040513d601f19601f820116820180604052508101906119fa9190613afb565b11611a0457600080fd5b6001600160a01b0382166000908152600e602052604090205460ff16611a2957600080fd5b506001919050565b611a3a33612758565b611a905760405162461bcd60e51b815260206004820152602160248201527f55736572206973206e6f7420746865204f776e6572206f7220616e2041646d696044820152603760f91b6064820152608401610b94565b60005b8151811015610dad576001600e6000848481518110611ab457611ab4614037565b6020908102919091018101516001600160a01b03168252810191909152604001600020805460ff191691151591909117905580611af081613fc6565b915050611a93565b611b0133612758565b611b575760405162461bcd60e51b815260206004820152602160248201527f55736572206973206e6f7420746865204f776e6572206f7220616e2041646d696044820152603760f91b6064820152608401610b94565b6001600160a01b03166000908152600e60205260409020805460ff19169055565b611b8133612758565b611bd75760405162461bcd60e51b815260206004820152602160248201527f55736572206973206e6f7420746865204f776e6572206f7220616e2041646d696044820152603760f91b6064820152608401610b94565b600a8190556040518181527f06cd74aabc11982a85b554df4d7833623303656fe69bed4db1b0cb3245feebe390602001610d05565b610dad338383612d79565b336001600160a01b0316600c8281548110611c3457611c34614037565b60009182526020909120600360049092020101546001600160a01b031614611cc45760405162461bcd60e51b815260206004820152602360248201527f596f7520617265206e6f7420746865206f776e6572206f66207468697320697460448201527f656d2e00000000000000000000000000000000000000000000000000000000006064820152608401610b94565b611ce1303383600160405180602001604052806000815250612822565b6001600c8281548110611cf657611cf6614037565b906000526020600020906004020160030160146101000a81548160ff02191690831515021790555050565b60606000805b600c54811015611dcd576000600c8281548110611d4657611d46614037565b60009182526020918290206040805160a0810182526004909302909101805483526001810154938301939093526002830154908201526003909101546001600160a01b038116606083015260ff600160a01b90910416151560808201819052909150611dba57611db7600184613eb5565b92505b5080611dc581613fc6565b915050611d27565b5060008167ffffffffffffffff811115611de957611de961404d565b604051908082528060200260200182016040528015611e5757816020015b611e446040518060a0016040528060008152602001600081526020016000815260200160006001600160a01b031681526020016000151581525090565b815260200190600190039081611e075790505b5090506000805b600c54811015611f23576000600c8281548110611e7d57611e7d614037565b60009182526020918290206040805160a0810182526004909302909101805483526001810154938301939093526002830154908201526003909101546001600160a01b038116606083015260ff600160a01b90910416151560808201819052909150611f105780848481518110611ef657611ef6614037565b60200260200101819052508280611f0c90613fc6565b9350505b5080611f1b81613fc6565b915050611e5e565b50909392505050565b6006546001600160a01b03163314611f865760405162461bcd60e51b815260206004820152601560248201527f55736572206973206e6f7420746865206f776e657200000000000000000000006044820152606401610b94565b60004711611fd65760405162461bcd60e51b815260206004820152601460248201527f4e6f2066756e647320746f2077697468647261770000000000000000000000006044820152606401610b94565b60055460405163a9059cbb60e01b81526001600160a01b038481166004830152602482018490529091169063a9059cbb90604401602060405180830381600087803b15801561202457600080fd5b505af1158015612038573d6000803e3d6000fd5b505050506040513d601f19601f820116820180604052508101906110d39190613a68565b6120996040518060a0016040528060008152602001600081526020016000815260200160006001600160a01b031681526020016000151581525090565b600c82815481106120ac576120ac614037565b60009182526020918290206040805160a0810182526004909302909101805483526001810154938301939093526002830154908201526003909101546001600160a01b038116606083015260ff600160a01b909104161515608082015292915050565b600061211a82612e6e565b61212357600080fd5b6000828152600f602052604081205460075461213f9190613ecd565b9392505050565b60008281526003602052604090206001015461216181612c40565b6110d38383612cec565b61217433612758565b6121ca5760405162461bcd60e51b815260206004820152602160248201527f55736572206973206e6f7420746865204f776e6572206f7220616e2041646d696044820152603760f91b6064820152608401610b94565b6000600b54610100900460ff1660018111156121e8576121e8614021565b14156121ff57600b805461ff001916610100179055565b600b805461ff0019169055565b6000600c828154811061222157612221614037565b60009182526020918290206040805160a081018252600493909302909101805483526001810154938301939093526002830154908201526003909101546001600160a01b03811660608301819052600160a01b90910460ff161515608083015290915033141561229057600080fd5b60808101511561229f57600080fd5b600554606082015160408084015190516323b872dd60e01b81523360048201526001600160a01b03928316602482015260448101919091529116906323b872dd90606401602060405180830381600087803b1580156122fd57600080fd5b505af1158015612311573d6000803e3d6000fd5b505050506040513d601f19601f820116820180604052508101906123359190613a68565b5061235730338360000151600160405180602001604052806000815250612822565b6001600c838154811061236c5761236c614037565b60009182526020918290206003600490920201018054921515600160a01b027fffffffffffffffffffffff00ffffffffffffffffffffffffffffffffffffffff9093169290921790915560608083015160408085015181513381526001600160a01b03909316948301949094528101859052908101919091527f642067ff529c9b5b1162502fc8e8a3a91dda56e126a84f2fe38d341236231a8290608001611000565b6001600160a01b03851633148061242b575061242b8533610a6a565b61249d5760405162461bcd60e51b815260206004820152602960248201527f455243313135353a2063616c6c6572206973206e6f74206f776e6572206e6f7260448201527f20617070726f76656400000000000000000000000000000000000000000000006064820152608401610b94565b6110a78585858585612822565b6060600060085467ffffffffffffffff8111156124c9576124c961404d565b6040519080825280602002602001820160405280156124f2578160200160208202803683370190505b50905060005b815181101561253a5761250b8482610b1a565b82828151811061251d5761251d614037565b60209081029190910101528061253281613fc6565b9150506124f8565b5092915050565b60006001600160e01b031982167f7965db0b000000000000000000000000000000000000000000000000000000001480610bc05750610bc082612e86565b6001600160a01b0383166125fb5760405162461bcd60e51b815260206004820152602360248201527f455243313135353a206275726e2066726f6d20746865207a65726f206164647260448201527f65737300000000000000000000000000000000000000000000000000000000006064820152608401610b94565b33600061260784612ec4565b9050600061261484612ec4565b60408051602080820183526000918290528882528181528282206001600160a01b038b16835290522054909150848110156126b65760405162461bcd60e51b8152602060048201526024808201527f455243313135353a206275726e20616d6f756e7420657863656564732062616c60448201527f616e6365000000000000000000000000000000000000000000000000000000006064820152608401610b94565b6000868152602081815260408083206001600160a01b038b81168086529184528285208a8703905582518b81529384018a90529092908816917fc3d58168c5ae7397731d063d5bbf3d657854427343f4c083240f7aacaa2d0f62910160405180910390a46040805160208101909152600090525b50505050505050565b8060008151811061274657612746614037565b6020026020010151600d819055505050565b6006546000906001600160a01b03838116911614806127ae57506001600160a01b03821660009081527f3617319a054d772f909f7c479a2cebe5066e836a939412e32403c99029b92eff602052604090205460ff165b611a2957600080fd5b6127d4826008548360405180602001604052806000815250612f0f565b6127ed600854826000918252600f602052604090912055565b80600760008282546127ff9190613eb5565b925050819055506001600860008282546128199190613eb5565b90915550505050565b6001600160a01b0384166128865760405162461bcd60e51b815260206004820152602560248201527f455243313135353a207472616e7366657220746f20746865207a65726f206164604482015264647265737360d81b6064820152608401610b94565b33600061289285612ec4565b9050600061289f85612ec4565b90506000868152602081815260408083206001600160a01b038c168452909152902054858110156129255760405162461bcd60e51b815260206004820152602a60248201527f455243313135353a20696e73756666696369656e742062616c616e636520666f60448201526939103a3930b739b332b960b11b6064820152608401610b94565b6000878152602081815260408083206001600160a01b038d8116855292528083208985039055908a16825281208054889290612962908490613eb5565b909155505060408051888152602081018890526001600160a01b03808b16928c821692918816917fc3d58168c5ae7397731d063d5bbf3d657854427343f4c083240f7aacaa2d0f62910160405180910390a46129c2848a8a8a8a8a613032565b505050505050505050565b8151835114612a445760405162461bcd60e51b815260206004820152602860248201527f455243313135353a2069647320616e6420616d6f756e7473206c656e6774682060448201527f6d69736d617463680000000000000000000000000000000000000000000000006064820152608401610b94565b6001600160a01b038416612aa85760405162461bcd60e51b815260206004820152602560248201527f455243313135353a207472616e7366657220746f20746865207a65726f206164604482015264647265737360d81b6064820152608401610b94565b3360005b8451811015612bd2576000858281518110612ac957612ac9614037565b602002602001015190506000858381518110612ae757612ae7614037565b602090810291909101810151600084815280835260408082206001600160a01b038e168352909352919091205490915081811015612b7a5760405162461bcd60e51b815260206004820152602a60248201527f455243313135353a20696e73756666696369656e742062616c616e636520666f60448201526939103a3930b739b332b960b11b6064820152608401610b94565b6000838152602081815260408083206001600160a01b038e8116855292528083208585039055908b16825281208054849290612bb7908490613eb5565b9250508190555050505080612bcb90613fc6565b9050612aac565b50846001600160a01b0316866001600160a01b0316826001600160a01b03167f4a39dc06d4c0dbc64b70af90fd698a233a518aa5d07e595d983b8c0526c8f7fb8787604051612c22929190613de4565b60405180910390a4612c388187878787876131e7565b505050505050565b610e1a81336132f2565b60008281526003602090815260408083206001600160a01b038516845290915290205460ff16610dad5760008281526003602090815260408083206001600160a01b03851684529091529020805460ff19166001179055612ca83390565b6001600160a01b0316816001600160a01b0316837f2f8788117e7eff1d82e926ec794901d17c78024a50270940304540a733656f0d60405160405180910390a45050565b60008281526003602090815260408083206001600160a01b038516845290915290205460ff1615610dad5760008281526003602090815260408083206001600160a01b0385168085529252808320805460ff1916905551339285917ff6391f5c32d9c69d2a47ea670b442974b53935d1edc7fd64eb21e047a839171b9190a45050565b610dad8282612c4a565b816001600160a01b0316836001600160a01b03161415612e015760405162461bcd60e51b815260206004820152602960248201527f455243313135353a2073657474696e6720617070726f76616c2073746174757360448201527f20666f722073656c6600000000000000000000000000000000000000000000006064820152608401610b94565b6001600160a01b03838116600081815260016020908152604080832094871680845294825291829020805460ff191686151590811790915591519182527f17307eab39ab6107e8899845ad3d59bd9653f200f220920489ca2b5937696c31910160405180910390a3505050565b6000818152600f6020526040812054611a2957600080fd5b60006001600160e01b031982167f4e2312e0000000000000000000000000000000000000000000000000000000001480610bc05750610bc082613372565b60408051600180825281830190925260609160009190602080830190803683370190505090508281600081518110612efe57612efe614037565b602090810291909101015292915050565b6001600160a01b038416612f8b5760405162461bcd60e51b815260206004820152602160248201527f455243313135353a206d696e7420746f20746865207a65726f2061646472657360448201527f73000000000000000000000000000000000000000000000000000000000000006064820152608401610b94565b336000612f9785612ec4565b90506000612fa485612ec4565b90506000868152602081815260408083206001600160a01b038b16845290915281208054879290612fd6908490613eb5565b909155505060408051878152602081018790526001600160a01b03808a1692600092918716917fc3d58168c5ae7397731d063d5bbf3d657854427343f4c083240f7aacaa2d0f62910160405180910390a461272a836000898989895b6001600160a01b0384163b15612c385760405163f23a6e6160e01b81526001600160a01b0385169063f23a6e61906130769089908990889088908890600401613d0a565b602060405180830381600087803b15801561309057600080fd5b505af19250505080156130c0575060408051601f3d908101601f191682019092526130bd91810190613ade565b60015b613176576130cc614063565b806308c379a0141561310657506130e161407f565b806130ec5750613108565b8060405162461bcd60e51b8152600401610b949190613e3a565b505b60405162461bcd60e51b815260206004820152603460248201527f455243313135353a207472616e7366657220746f206e6f6e204552433131353560448201527f526563656976657220696d706c656d656e7465720000000000000000000000006064820152608401610b94565b6001600160e01b0319811663f23a6e6160e01b1461272a5760405162461bcd60e51b815260206004820152602860248201527f455243313135353a204552433131353552656365697665722072656a656374656044820152676420746f6b656e7360c01b6064820152608401610b94565b6001600160a01b0384163b15612c385760405163bc197c8160e01b81526001600160a01b0385169063bc197c819061322b9089908990889088908890600401613cac565b602060405180830381600087803b15801561324557600080fd5b505af1925050508015613275575060408051601f3d908101601f1916820190925261327291810190613ade565b60015b613281576130cc614063565b6001600160e01b0319811663bc197c8160e01b1461272a5760405162461bcd60e51b815260206004820152602860248201527f455243313135353a204552433131353552656365697665722072656a656374656044820152676420746f6b656e7360c01b6064820152608401610b94565b60008281526003602090815260408083206001600160a01b038516845290915290205460ff16610dad57613330816001600160a01b0316601461340d565b61333b83602061340d565b60405160200161334c929190613c2b565b60408051601f198184030181529082905262461bcd60e51b8252610b9491600401613e3a565b60006001600160e01b031982167fd9b67a260000000000000000000000000000000000000000000000000000000014806133d557506001600160e01b031982167f0e89341c00000000000000000000000000000000000000000000000000000000145b80610bc057507f01ffc9a7000000000000000000000000000000000000000000000000000000006001600160e01b0319831614610bc0565b6060600061341c836002613ee1565b613427906002613eb5565b67ffffffffffffffff81111561343f5761343f61404d565b6040519080825280601f01601f191660200182016040528015613469576020820181803683370190505b5090507f3000000000000000000000000000000000000000000000000000000000000000816000815181106134a0576134a0614037565b60200101906001600160f81b031916908160001a9053507f7800000000000000000000000000000000000000000000000000000000000000816001815181106134eb576134eb614037565b60200101906001600160f81b031916908160001a905350600061350f846002613ee1565b61351a906001613eb5565b90505b600181111561359f577f303132333435363738396162636465660000000000000000000000000000000085600f166010811061355b5761355b614037565b1a60f81b82828151811061357157613571614037565b60200101906001600160f81b031916908160001a90535060049490941c9361359881613f47565b905061351d565b50831561213f5760405162461bcd60e51b815260206004820181905260248201527f537472696e67733a20686578206c656e67746820696e73756666696369656e746044820152606401610b94565b8280546135fa90613f5e565b90600052602060002090601f01602090048101928261361c5760008555613662565b82601f1061363557805160ff1916838001178555613662565b82800160010185558215613662579182015b82811115613662578251825591602001919060010190613647565b5061366e929150613672565b5090565b5b8082111561366e5760008155600101613673565b600067ffffffffffffffff8311156136a1576136a161404d565b6040516136b8601f8501601f191660200182613f99565b8091508381528484840111156136cd57600080fd5b83836020830137600060208583010152509392505050565b80356001600160a01b03811681146136fc57600080fd5b919050565b600082601f83011261371257600080fd5b8135602061371f82613e91565b60405161372c8282613f99565b8381528281019150858301600585901b8701840188101561374c57600080fd5b60005b8581101561377257613760826136e5565b8452928401929084019060010161374f565b5090979650505050505050565b600082601f83011261379057600080fd5b8135602061379d82613e91565b6040516137aa8282613f99565b8381528281019150858301600585901b870184018810156137ca57600080fd5b60005b85811015613772578135845292840192908401906001016137cd565b600082601f8301126137fa57600080fd5b61213f83833560208501613687565b60006020828403121561381b57600080fd5b61213f826136e5565b6000806040838503121561383757600080fd5b613840836136e5565b915061384e602084016136e5565b90509250929050565b600080600080600060a0868803121561386f57600080fd5b613878866136e5565b9450613886602087016136e5565b9350604086013567ffffffffffffffff808211156138a357600080fd5b6138af89838a0161377f565b945060608801359150808211156138c557600080fd5b6138d189838a0161377f565b935060808801359150808211156138e757600080fd5b506138f4888289016137e9565b9150509295509295909350565b600080600080600060a0868803121561391957600080fd5b613922866136e5565b9450613930602087016136e5565b93506040860135925060608601359150608086013567ffffffffffffffff81111561395a57600080fd5b6138f4888289016137e9565b6000806040838503121561397957600080fd5b613982836136e5565b9150602083013561399281614109565b809150509250929050565b600080604083850312156139b057600080fd5b6139b9836136e5565b946020939093013593505050565b6000602082840312156139d957600080fd5b813567ffffffffffffffff8111156139f057600080fd5b6139fc84828501613701565b949350505050565b60008060408385031215613a1757600080fd5b823567ffffffffffffffff80821115613a2f57600080fd5b613a3b86838701613701565b93506020850135915080821115613a5157600080fd5b50613a5e8582860161377f565b9150509250929050565b600060208284031215613a7a57600080fd5b815161213f81614109565b600060208284031215613a9757600080fd5b5035919050565b60008060408385031215613ab157600080fd5b8235915061384e602084016136e5565b600060208284031215613ad357600080fd5b813561213f81614117565b600060208284031215613af057600080fd5b815161213f81614117565b600060208284031215613b0d57600080fd5b5051919050565b60008060408385031215613b2757600080fd5b82359150602083013567ffffffffffffffff811115613b4557600080fd5b613a5e8582860161377f565b60008060408385031215613b6457600080fd5b82359150602083013567ffffffffffffffff811115613b8257600080fd5b8301601f81018513613b9357600080fd5b613a5e85823560208401613687565b60008060408385031215613bb557600080fd5b50508035926020909101359150565b600081518084526020808501945080840160005b83811015613bf457815187529582019590820190600101613bd8565b509495945050505050565b60008151808452613c17816020860160208601613f17565b601f01601f19169290920160200192915050565b7f416363657373436f6e74726f6c3a206163636f756e7420000000000000000000815260008351613c63816017850160208801613f17565b7f206973206d697373696e6720726f6c65200000000000000000000000000000006017918401918201528351613ca0816028840160208801613f17565b01602801949350505050565b60006001600160a01b03808816835280871660208401525060a06040830152613cd860a0830186613bc4565b8281036060840152613cea8186613bc4565b90508281036080840152613cfe8185613bff565b98975050505050505050565b60006001600160a01b03808816835280871660208401525084604083015283606083015260a06080830152613d4260a0830184613bff565b979650505050505050565b6020808252825182820181905260009190848201906040850190845b81811015613dc557613db28385518051825260208101516020830152604081015160408301526001600160a01b0360608201511660608301526080810151151560808301525050565b9284019260a09290920191600101613d69565b50909695505050505050565b60208152600061213f6020830184613bc4565b604081526000613df76040830185613bc4565b8281036020840152613e098185613bc4565b95945050505050565b6020810160028310613e3457634e487b7160e01b600052602160045260246000fd5b91905290565b60208152600061213f6020830184613bff565b60a08101610bc082848051825260208101516020830152604081015160408301526001600160a01b0360608201511660608301526080810151151560808301525050565b600067ffffffffffffffff821115613eab57613eab61404d565b5060051b60200190565b60008219821115613ec857613ec8613ff5565b500190565b600082613edc57613edc61400b565b500490565b6000816000190483118215151615613efb57613efb613ff5565b500290565b600082821015613f1257613f12613ff5565b500390565b60005b83811015613f32578181015183820152602001613f1a565b83811115613f41576000848401525b50505050565b600081613f5657613f56613ff5565b506000190190565b600181811c90821680613f7257607f821691505b60208210811415613f9357634e487b7160e01b600052602260045260246000fd5b50919050565b601f8201601f1916810167ffffffffffffffff81118282101715613fbf57613fbf61404d565b6040525050565b6000600019821415613fda57613fda613ff5565b5060010190565b600082613ff057613ff061400b565b500690565b634e487b7160e01b600052601160045260246000fd5b634e487b7160e01b600052601260045260246000fd5b634e487b7160e01b600052602160045260246000fd5b634e487b7160e01b600052603260045260246000fd5b634e487b7160e01b600052604160045260246000fd5b600060033d111561407c5760046000803e5060005160e01c5b90565b600060443d101561408d5790565b6040516003193d81016004833e81513d67ffffffffffffffff81602484011181841117156140bd57505050505090565b82850191508151818111156140d55750505050505090565b843d87010160208285010111156140ef5750505050505090565b6140fe60208286010187613f99565b509095945050505050565b8015158114610e1a57600080fd5b6001600160e01b031981168114610e1a57600080fdfea2646970667358221220ed29659e12eeb20b8a26fe551da02c10a8e5ef22f7d4e05953cd71b72239d7e564736f6c63430008070033",
  "linkReferences": {},
  "deployedLinkReferences": {}
}