{
  "_format": "hh-sol-artifact-1",
  "contractName": "RacksItems",
  "sourceName": "contracts/RacksItems.sol",
  "abi": [
    {
      "inputs": [
        {
          "internalType": "address",
          "name": "vrfCoordinatorV2",
          "type": "address"
        },
        {
          "internalType": "bytes32",
          "name": "gasLane",
          "type": "bytes32"
        },
        {
          "internalType": "uint64",
          "name": "subscriptionId",
          "type": "uint64"
        },
        {
          "internalType": "uint32",
          "name": "callbackGasLimit",
          "type": "uint32"
        },
        {
          "internalType": "contract RacksToken",
          "name": "_racksToken",
          "type": "address"
        }
      ],
      "stateMutability": "nonpayable",
      "type": "constructor"
    },
    {
      "inputs": [
        {
          "internalType": "address",
          "name": "have",
          "type": "address"
        },
        {
          "internalType": "address",
          "name": "want",
          "type": "address"
        }
      ],
      "name": "OnlyCoordinatorCanFulfill",
      "type": "error"
    },
    {
      "anonymous": false,
      "inputs": [
        {
          "indexed": true,
          "internalType": "address",
          "name": "account",
          "type": "address"
        },
        {
          "indexed": true,
          "internalType": "address",
          "name": "operator",
          "type": "address"
        },
        {
          "indexed": false,
          "internalType": "bool",
          "name": "approved",
          "type": "bool"
        }
      ],
      "name": "ApprovalForAll",
      "type": "event"
    },
    {
      "anonymous": false,
      "inputs": [
        {
          "indexed": false,
          "internalType": "address",
          "name": "user",
          "type": "address"
        },
        {
          "indexed": false,
          "internalType": "uint256",
          "name": "casePrice",
          "type": "uint256"
        },
        {
          "indexed": false,
          "internalType": "uint256",
          "name": "item",
          "type": "uint256"
        }
      ],
      "name": "CaseOpened",
      "type": "event"
    },
    {
      "anonymous": false,
      "inputs": [
        {
          "indexed": true,
          "internalType": "bytes32",
          "name": "role",
          "type": "bytes32"
        },
        {
          "indexed": true,
          "internalType": "bytes32",
          "name": "previousAdminRole",
          "type": "bytes32"
        },
        {
          "indexed": true,
          "internalType": "bytes32",
          "name": "newAdminRole",
          "type": "bytes32"
        }
      ],
      "name": "RoleAdminChanged",
      "type": "event"
    },
    {
      "anonymous": false,
      "inputs": [
        {
          "indexed": true,
          "internalType": "bytes32",
          "name": "role",
          "type": "bytes32"
        },
        {
          "indexed": true,
          "internalType": "address",
          "name": "account",
          "type": "address"
        },
        {
          "indexed": true,
          "internalType": "address",
          "name": "sender",
          "type": "address"
        }
      ],
      "name": "RoleGranted",
      "type": "event"
    },
    {
      "anonymous": false,
      "inputs": [
        {
          "indexed": true,
          "internalType": "bytes32",
          "name": "role",
          "type": "bytes32"
        },
        {
          "indexed": true,
          "internalType": "address",
          "name": "account",
          "type": "address"
        },
        {
          "indexed": true,
          "internalType": "address",
          "name": "sender",
          "type": "address"
        }
      ],
      "name": "RoleRevoked",
      "type": "event"
    },
    {
      "anonymous": false,
      "inputs": [
        {
          "indexed": true,
          "internalType": "address",
          "name": "operator",
          "type": "address"
        },
        {
          "indexed": true,
          "internalType": "address",
          "name": "from",
          "type": "address"
        },
        {
          "indexed": true,
          "internalType": "address",
          "name": "to",
          "type": "address"
        },
        {
          "indexed": false,
          "internalType": "uint256[]",
          "name": "ids",
          "type": "uint256[]"
        },
        {
          "indexed": false,
          "internalType": "uint256[]",
          "name": "values",
          "type": "uint256[]"
        }
      ],
      "name": "TransferBatch",
      "type": "event"
    },
    {
      "anonymous": false,
      "inputs": [
        {
          "indexed": true,
          "internalType": "address",
          "name": "operator",
          "type": "address"
        },
        {
          "indexed": true,
          "internalType": "address",
          "name": "from",
          "type": "address"
        },
        {
          "indexed": true,
          "internalType": "address",
          "name": "to",
          "type": "address"
        },
        {
          "indexed": false,
          "internalType": "uint256",
          "name": "id",
          "type": "uint256"
        },
        {
          "indexed": false,
          "internalType": "uint256",
          "name": "value",
          "type": "uint256"
        }
      ],
      "name": "TransferSingle",
      "type": "event"
    },
    {
      "anonymous": false,
      "inputs": [
        {
          "indexed": false,
          "internalType": "string",
          "name": "value",
          "type": "string"
        },
        {
          "indexed": true,
          "internalType": "uint256",
          "name": "id",
          "type": "uint256"
        }
      ],
      "name": "URI",
      "type": "event"
    },
    {
      "anonymous": false,
      "inputs": [
        {
          "indexed": false,
          "internalType": "uint256",
          "name": "newPrice",
          "type": "uint256"
        }
      ],
      "name": "casePriceChanged",
      "type": "event"
    },
    {
      "anonymous": false,
      "inputs": [
        {
          "indexed": false,
          "internalType": "address",
          "name": "buyer",
          "type": "address"
        },
        {
          "indexed": false,
          "internalType": "address",
          "name": "seller",
          "type": "address"
        },
        {
          "indexed": false,
          "internalType": "uint256",
          "name": "marketItemId",
          "type": "uint256"
        },
        {
          "indexed": false,
          "internalType": "uint256",
          "name": "price",
          "type": "uint256"
        }
      ],
      "name": "itemBought",
      "type": "event"
    },
    {
      "anonymous": false,
      "inputs": [
        {
          "indexed": false,
          "internalType": "address",
          "name": "user",
          "type": "address"
        },
        {
          "indexed": false,
          "internalType": "uint256",
          "name": "tokenId",
          "type": "uint256"
        }
      ],
      "name": "itemExchanged",
      "type": "event"
    },
    {
      "anonymous": false,
      "inputs": [
        {
          "indexed": false,
          "internalType": "address",
          "name": "user",
          "type": "address"
        },
        {
          "indexed": false,
          "internalType": "uint256",
          "name": "tokenId",
          "type": "uint256"
        },
        {
          "indexed": false,
          "internalType": "uint256",
          "name": "price",
          "type": "uint256"
        }
      ],
      "name": "sellingItem",
      "type": "event"
    },
    {
      "inputs": [],
      "name": "ADMIN_ROLE",
      "outputs": [
        {
          "internalType": "bytes32",
          "name": "",
          "type": "bytes32"
        }
      ],
      "stateMutability": "view",
      "type": "function"
    },
    {
      "inputs": [],
      "name": "DEFAULT_ADMIN_ROLE",
      "outputs": [
        {
          "internalType": "bytes32",
          "name": "",
          "type": "bytes32"
        }
      ],
      "stateMutability": "view",
      "type": "function"
    },
    {
      "inputs": [],
      "name": "NUM_WORDS",
      "outputs": [
        {
          "internalType": "uint32",
          "name": "",
          "type": "uint32"
        }
      ],
      "stateMutability": "view",
      "type": "function"
    },
    {
      "inputs": [],
      "name": "REQUEST_CONFIRMATIONS",
      "outputs": [
        {
          "internalType": "uint16",
          "name": "",
          "type": "uint16"
        }
      ],
      "stateMutability": "view",
      "type": "function"
    },
    {
      "inputs": [
        {
          "internalType": "uint256",
          "name": "tokenId",
          "type": "uint256"
        }
      ],
      "name": "_chanceOfItem",
      "outputs": [
        {
          "internalType": "uint256",
          "name": "",
          "type": "uint256"
        }
      ],
      "stateMutability": "view",
      "type": "function"
    },
    {
      "inputs": [
        {
          "internalType": "address",
          "name": "account",
          "type": "address"
        },
        {
          "internalType": "uint256",
          "name": "id",
          "type": "uint256"
        }
      ],
      "name": "balanceOf",
      "outputs": [
        {
          "internalType": "uint256",
          "name": "",
          "type": "uint256"
        }
      ],
      "stateMutability": "view",
      "type": "function"
    },
    {
      "inputs": [
        {
          "internalType": "address[]",
          "name": "accounts",
          "type": "address[]"
        },
        {
          "internalType": "uint256[]",
          "name": "ids",
          "type": "uint256[]"
        }
      ],
      "name": "balanceOfBatch",
      "outputs": [
        {
          "internalType": "uint256[]",
          "name": "",
          "type": "uint256[]"
        }
      ],
      "stateMutability": "view",
      "type": "function"
    },
    {
      "inputs": [
        {
          "internalType": "uint256",
          "name": "marketItemId",
          "type": "uint256"
        }
      ],
      "name": "buyItem",
      "outputs": [],
      "stateMutability": "payable",
      "type": "function"
    },
    {
      "inputs": [],
      "name": "casePrice",
      "outputs": [
        {
          "internalType": "uint256",
          "name": "",
          "type": "uint256"
        }
      ],
      "stateMutability": "view",
      "type": "function"
    },
    {
      "inputs": [],
      "name": "contractActive",
      "outputs": [
        {
          "internalType": "bool",
          "name": "",
          "type": "bool"
        }
      ],
      "stateMutability": "view",
      "type": "function"
    },
    {
      "inputs": [
        {
          "internalType": "uint256",
          "name": "tokenId",
          "type": "uint256"
        }
      ],
      "name": "exchangeItem",
      "outputs": [],
      "stateMutability": "nonpayable",
      "type": "function"
    },
    {
      "inputs": [],
      "name": "flipContractState",
      "outputs": [],
      "stateMutability": "nonpayable",
      "type": "function"
    },
    {
      "inputs": [],
      "name": "getCasePrice",
      "outputs": [
        {
          "internalType": "uint256",
          "name": "",
          "type": "uint256"
        }
      ],
      "stateMutability": "view",
      "type": "function"
    },
    {
      "inputs": [],
      "name": "getItemsOnSale",
      "outputs": [
        {
          "components": [
            {
              "internalType": "uint256",
              "name": "tokenId",
              "type": "uint256"
            },
            {
              "internalType": "uint256",
              "name": "price",
              "type": "uint256"
            },
            {
              "internalType": "address payable",
              "name": "seller",
              "type": "address"
            },
            {
              "internalType": "bool",
              "name": "sold",
              "type": "bool"
            }
          ],
          "internalType": "struct RacksItems.itemOnSale[]",
          "name": "",
          "type": "tuple[]"
        }
      ],
      "stateMutability": "view",
      "type": "function"
    },
    {
      "inputs": [
        {
          "internalType": "bytes32",
          "name": "role",
          "type": "bytes32"
        }
      ],
      "name": "getRoleAdmin",
      "outputs": [
        {
          "internalType": "bytes32",
          "name": "",
          "type": "bytes32"
        }
      ],
      "stateMutability": "view",
      "type": "function"
    },
    {
      "inputs": [
        {
          "internalType": "bytes32",
          "name": "role",
          "type": "bytes32"
        },
        {
          "internalType": "address",
          "name": "account",
          "type": "address"
        }
      ],
      "name": "grantRole",
      "outputs": [],
      "stateMutability": "nonpayable",
      "type": "function"
    },
    {
      "inputs": [
        {
          "internalType": "bytes32",
          "name": "role",
          "type": "bytes32"
        },
        {
          "internalType": "address",
          "name": "account",
          "type": "address"
        }
      ],
      "name": "hasRole",
      "outputs": [
        {
          "internalType": "bool",
          "name": "",
          "type": "bool"
        }
      ],
      "stateMutability": "view",
      "type": "function"
    },
    {
      "inputs": [],
      "name": "i_MrCryptoAddress",
      "outputs": [
        {
          "internalType": "address",
          "name": "",
          "type": "address"
        }
      ],
      "stateMutability": "view",
      "type": "function"
    },
    {
      "inputs": [],
      "name": "i_callbackGasLimit",
      "outputs": [
        {
          "internalType": "uint32",
          "name": "",
          "type": "uint32"
        }
      ],
      "stateMutability": "view",
      "type": "function"
    },
    {
      "inputs": [],
      "name": "i_gasLane",
      "outputs": [
        {
          "internalType": "bytes32",
          "name": "",
          "type": "bytes32"
        }
      ],
      "stateMutability": "view",
      "type": "function"
    },
    {
      "inputs": [],
      "name": "i_subscriptionId",
      "outputs": [
        {
          "internalType": "uint64",
          "name": "",
          "type": "uint64"
        }
      ],
      "stateMutability": "view",
      "type": "function"
    },
    {
      "inputs": [],
      "name": "i_vrfCoordinator",
      "outputs": [
        {
          "internalType": "contract VRFCoordinatorV2Interface",
          "name": "",
          "type": "address"
        }
      ],
      "stateMutability": "view",
      "type": "function"
    },
    {
      "inputs": [
        {
          "internalType": "address",
          "name": "account",
          "type": "address"
        },
        {
          "internalType": "address",
          "name": "operator",
          "type": "address"
        }
      ],
      "name": "isApprovedForAll",
      "outputs": [
        {
          "internalType": "bool",
          "name": "",
          "type": "bool"
        }
      ],
      "stateMutability": "view",
      "type": "function"
    },
    {
      "inputs": [
        {
          "internalType": "address",
          "name": "user",
          "type": "address"
        }
      ],
      "name": "isVip",
      "outputs": [
        {
          "internalType": "bool",
          "name": "",
          "type": "bool"
        }
      ],
      "stateMutability": "view",
      "type": "function"
    },
    {
      "inputs": [
        {
          "internalType": "uint256",
          "name": "itemSupply",
          "type": "uint256"
        }
      ],
      "name": "listItem",
      "outputs": [],
      "stateMutability": "nonpayable",
      "type": "function"
    },
    {
      "inputs": [],
      "name": "openCase",
      "outputs": [],
      "stateMutability": "nonpayable",
      "type": "function"
    },
    {
      "inputs": [],
      "name": "racksToken",
      "outputs": [
        {
          "internalType": "contract RacksToken",
          "name": "",
          "type": "address"
        }
      ],
      "stateMutability": "view",
      "type": "function"
    },
    {
      "inputs": [
        {
          "internalType": "uint256",
          "name": "requestId",
          "type": "uint256"
        },
        {
          "internalType": "uint256[]",
          "name": "randomWords",
          "type": "uint256[]"
        }
      ],
      "name": "rawFulfillRandomWords",
      "outputs": [],
      "stateMutability": "nonpayable",
      "type": "function"
    },
    {
      "inputs": [
        {
          "internalType": "address[]",
          "name": "users",
          "type": "address[]"
        }
      ],
      "name": "removeListRacksMembers",
      "outputs": [],
      "stateMutability": "nonpayable",
      "type": "function"
    },
    {
      "inputs": [
        {
          "internalType": "address",
          "name": "user",
          "type": "address"
        }
      ],
      "name": "removeSingleRacksMember",
      "outputs": [],
      "stateMutability": "nonpayable",
      "type": "function"
    },
    {
      "inputs": [
        {
          "internalType": "bytes32",
          "name": "role",
          "type": "bytes32"
        },
        {
          "internalType": "address",
          "name": "account",
          "type": "address"
        }
      ],
      "name": "renounceRole",
      "outputs": [],
      "stateMutability": "nonpayable",
      "type": "function"
    },
    {
      "inputs": [
        {
          "internalType": "bytes32",
          "name": "role",
          "type": "bytes32"
        },
        {
          "internalType": "address",
          "name": "account",
          "type": "address"
        }
      ],
      "name": "revokeRole",
      "outputs": [],
      "stateMutability": "nonpayable",
      "type": "function"
    },
    {
      "inputs": [],
      "name": "s_contractState",
      "outputs": [
        {
          "internalType": "enum RacksItems.ContractState",
          "name": "",
          "type": "uint8"
        }
      ],
      "stateMutability": "view",
      "type": "function"
    },
    {
      "inputs": [],
      "name": "s_randomWord",
      "outputs": [
        {
          "internalType": "uint256",
          "name": "",
          "type": "uint256"
        }
      ],
      "stateMutability": "view",
      "type": "function"
    },
    {
      "inputs": [
        {
          "internalType": "address",
          "name": "from",
          "type": "address"
        },
        {
          "internalType": "address",
          "name": "to",
          "type": "address"
        },
        {
          "internalType": "uint256[]",
          "name": "ids",
          "type": "uint256[]"
        },
        {
          "internalType": "uint256[]",
          "name": "amounts",
          "type": "uint256[]"
        },
        {
          "internalType": "bytes",
          "name": "data",
          "type": "bytes"
        }
      ],
      "name": "safeBatchTransferFrom",
      "outputs": [],
      "stateMutability": "nonpayable",
      "type": "function"
    },
    {
      "inputs": [
        {
          "internalType": "address",
          "name": "from",
          "type": "address"
        },
        {
          "internalType": "address",
          "name": "to",
          "type": "address"
        },
        {
          "internalType": "uint256",
          "name": "id",
          "type": "uint256"
        },
        {
          "internalType": "uint256",
          "name": "amount",
          "type": "uint256"
        },
        {
          "internalType": "bytes",
          "name": "data",
          "type": "bytes"
        }
      ],
      "name": "safeTransferFrom",
      "outputs": [],
      "stateMutability": "nonpayable",
      "type": "function"
    },
    {
      "inputs": [
        {
          "internalType": "uint256",
          "name": "tokenId",
          "type": "uint256"
        },
        {
          "internalType": "uint256",
          "name": "price",
          "type": "uint256"
        }
      ],
      "name": "sellItem",
      "outputs": [],
      "stateMutability": "nonpayable",
      "type": "function"
    },
    {
      "inputs": [
        {
          "internalType": "address",
          "name": "_newAdmin",
          "type": "address"
        }
      ],
      "name": "setAdmin",
      "outputs": [],
      "stateMutability": "nonpayable",
      "type": "function"
    },
    {
      "inputs": [
        {
          "internalType": "address",
          "name": "operator",
          "type": "address"
        },
        {
          "internalType": "bool",
          "name": "approved",
          "type": "bool"
        }
      ],
      "name": "setApprovalForAll",
      "outputs": [],
      "stateMutability": "nonpayable",
      "type": "function"
    },
    {
      "inputs": [
        {
          "internalType": "uint256",
          "name": "price",
          "type": "uint256"
        }
      ],
      "name": "setCasePrice",
      "outputs": [],
      "stateMutability": "nonpayable",
      "type": "function"
    },
    {
      "inputs": [
        {
          "internalType": "address[]",
          "name": "users",
          "type": "address[]"
        }
      ],
      "name": "setListRacksMembers",
      "outputs": [],
      "stateMutability": "nonpayable",
      "type": "function"
    },
    {
      "inputs": [
        {
          "internalType": "address",
          "name": "user",
          "type": "address"
        }
      ],
      "name": "setSingleRacksMember",
      "outputs": [],
      "stateMutability": "nonpayable",
      "type": "function"
    },
    {
      "inputs": [
        {
          "internalType": "uint256",
          "name": "tokenId",
          "type": "uint256"
        },
        {
          "internalType": "string",
          "name": "_uri",
          "type": "string"
        }
      ],
      "name": "setTokenUri",
      "outputs": [],
      "stateMutability": "nonpayable",
      "type": "function"
    },
    {
      "inputs": [
        {
          "internalType": "uint256",
          "name": "tokenId",
          "type": "uint256"
        }
      ],
      "name": "supplyOfItem",
      "outputs": [
        {
          "internalType": "uint256",
          "name": "",
          "type": "uint256"
        }
      ],
      "stateMutability": "view",
      "type": "function"
    },
    {
      "inputs": [
        {
          "internalType": "bytes4",
          "name": "interfaceId",
          "type": "bytes4"
        }
      ],
      "name": "supportsInterface",
      "outputs": [
        {
          "internalType": "bool",
          "name": "",
          "type": "bool"
        }
      ],
      "stateMutability": "view",
      "type": "function"
    },
    {
      "inputs": [
        {
          "internalType": "uint256",
          "name": "tokenId",
          "type": "uint256"
        }
      ],
      "name": "uri",
      "outputs": [
        {
          "internalType": "string",
          "name": "",
          "type": "string"
        }
      ],
      "stateMutability": "view",
      "type": "function"
    },
    {
      "inputs": [
        {
          "internalType": "address",
          "name": "owner",
          "type": "address"
        }
      ],
      "name": "viewItems",
      "outputs": [
        {
          "internalType": "uint256[]",
          "name": "",
          "type": "uint256[]"
        }
      ],
      "stateMutability": "view",
      "type": "function"
    },
    {
      "inputs": [
        {
          "internalType": "address",
          "name": "wallet",
          "type": "address"
        }
      ],
      "name": "withdrawAllFunds",
      "outputs": [],
      "stateMutability": "nonpayable",
      "type": "function"
    },
    {
      "inputs": [
        {
          "internalType": "address",
          "name": "wallet",
          "type": "address"
        },
        {
          "internalType": "uint256",
          "name": "amount",
          "type": "uint256"
        }
      ],
      "name": "withdrawFunds",
      "outputs": [],
      "stateMutability": "nonpayable",
      "type": "function"
    },
    {
      "stateMutability": "payable",
      "type": "receive"
    }
  ],
  "bytecode": "0x610120604052600a805460ff191660011790553480156200001f57600080fd5b50604051620040e6380380620040e68339810160408190526200004291620001ca565b60408051602081019091526000815285906200005e816200010b565b50606090811b6001600160601b031990811660805295901b90941660a05260c0928352911b6001600160c01b03191660e09081521b6001600160e01b031916610100526004805473ef453154766505feb9dbf0a58e6990fd6eb669696001600160a01b0319918216179091556005805482166001600160a01b0393909316929092179091556006805433921691909117905560006008556001600955600a805461ff0019169055620002a7565b80516200012090600290602084019062000124565b5050565b828054620001329062000251565b90600052602060002090601f016020900481019282620001565760008555620001a1565b82601f106200017157805160ff1916838001178555620001a1565b82800160010185558215620001a1579182015b82811115620001a157825182559160200191906001019062000184565b50620001af929150620001b3565b5090565b5b80821115620001af5760008155600101620001b4565b600080600080600060a08688031215620001e357600080fd5b8551620001f0816200028e565b6020870151604088015191965094506001600160401b03811681146200021557600080fd5b606087015190935063ffffffff811681146200023057600080fd5b608087015190925062000243816200028e565b809150509295509295909350565b600181811c908216806200026657607f821691505b602082108114156200028857634e487b7160e01b600052602260045260246000fd5b50919050565b6001600160a01b0381168114620002a457600080fd5b50565b60805160601c60a05160601c60c05160e05160c01c6101005160e01c613dcb6200031b6000396000818161092b01526129b901526000818161056e01526129840152600081816107a4015261295501526000818161085301526129f2015260008181610c180152610c730152613dcb6000f3fe6080604052600436106103215760003560e01c806372cf6e34116101a5578063b63b8612116100ec578063de08f65311610095578063e985e9c51161006f578063e985e9c51461098f578063f242432a146109d8578063f48c9d34146109f8578063fd210fd914610a1857600080fd5b8063de08f6531461094d578063e289fcb614610962578063e7fb74c71461097c57600080fd5b8063ca90958f116100c6578063ca90958f146108e3578063d547741f146108f9578063d757d0271461091957600080fd5b8063b63b861214610875578063bbcbc2e7146108a1578063c1075329146108c357600080fd5b80638e879c8a1161014e578063a217fddf11610128578063a217fddf146106fd578063a22cb46514610821578063aebc45501461084157600080fd5b80638e879c8a1461079257806391d14854146107c6578063976298f31461080c57600080fd5b806389165aa91161017f57806389165aa9146107325780638ba8b15a146107525780638dc5f45b1461077257600080fd5b806372cf6e34146106d357806375b238fc146106fd57806384203f4b1461071257600080fd5b806332dee40b1161026957806354e889f61161021257806367f082b0116101ec57806367f082b01461066b57806368b7210014610693578063704b6c02146106b357600080fd5b806354e889f61461060b57806357f7789e1461062b57806367be820a1461064b57600080fd5b80634a226657116102435780634a226657146105a95780634e1273f4146105be5780635408c319146105eb57600080fd5b806332dee40b1461051c57806336568abe1461053c578063470cdf971461055c57600080fd5b806320ba0814116102cb5780632d923561116102a55780632d923561146104bc5780632eb2c2d6146104dc5780632f2ff15d146104fc57600080fd5b806320ba08141461043f578063248a9ca31461046c5780632ce381901461049c57600080fd5b8063109b8278116102fc578063109b8278146103bd5780631cb0b273146103fd5780631fe543e31461041f57600080fd5b8062fdd58e1461032d57806301ffc9a7146103605780630e89341c1461039057600080fd5b3661032857005b600080fd5b34801561033957600080fd5b5061034d61034836600461365e565b610a2e565b6040519081526020015b60405180910390f35b34801561036c57600080fd5b5061038061037b366004613782565b610ad7565b6040519015158152602001610357565b34801561039c57600080fd5b506103b06103ab366004613746565b610ae8565b6040516103579190613ae6565b3480156103c957600080fd5b506103e573ef453154766505feb9dbf0a58e6990fd6eb6696981565b6040516001600160a01b039091168152602001610357565b34801561040957600080fd5b5061041d610418366004613746565b610b8a565b005b34801561042b57600080fd5b5061041d61043a3660046137d5565b610c0d565b34801561044b57600080fd5b5061034d61045a366004613746565b6000908152600e602052604090205490565b34801561047857600080fd5b5061034d610487366004613746565b60009081526003602052604090206001015490565b3480156104a857600080fd5b5061041d6104b7366004613746565b610cae565b3480156104c857600080fd5b5061041d6104d7366004613863565b610d1a565b3480156104e857600080fd5b5061041d6104f7366004613518565b610ec2565b34801561050857600080fd5b5061041d61051736600461375f565b610f64565b34801561052857600080fd5b5061041d6105373660046134ca565b610f8e565b34801561054857600080fd5b5061041d61055736600461375f565b6110bd565b34801561056857600080fd5b506105907f000000000000000000000000000000000000000000000000000000000000000081565b60405167ffffffffffffffff9091168152602001610357565b3480156105b557600080fd5b5061041d611145565b3480156105ca57600080fd5b506105de6105d93660046136c5565b611476565b6040516103579190613a7d565b3480156105f757600080fd5b5061041d610606366004613688565b6115b4565b34801561061757600080fd5b5061041d6106263660046134ca565b61167b565b34801561063757600080fd5b5061041d610646366004613812565b6116fe565b34801561065757600080fd5b5061034d610666366004613746565b6117e4565b34801561067757600080fd5b50610680600181565b60405161ffff9091168152602001610357565b34801561069f57600080fd5b506005546103e5906001600160a01b031681565b3480156106bf57600080fd5b5061041d6106ce3660046134ca565b61181c565b3480156106df57600080fd5b506106e8600181565b60405163ffffffff9091168152602001610357565b34801561070957600080fd5b5061034d600081565b34801561071e57600080fd5b5061038061072d3660046134ca565b611881565b34801561073e57600080fd5b5061041d61074d366004613688565b611954565b34801561075e57600080fd5b5061041d61076d3660046134ca565b611a1b565b34801561077e57600080fd5b5061041d61078d366004613746565b611a9b565b34801561079e57600080fd5b5061034d7f000000000000000000000000000000000000000000000000000000000000000081565b3480156107d257600080fd5b506103806107e136600461375f565b60009182526003602090815260408084206001600160a01b0393909316845291905290205460ff1690565b34801561081857600080fd5b5060095461034d565b34801561082d57600080fd5b5061041d61083c366004613627565b611b2f565b34801561084d57600080fd5b506103e57f000000000000000000000000000000000000000000000000000000000000000081565b34801561088157600080fd5b50600a5461089490610100900460ff1681565b6040516103579190613abe565b3480156108ad57600080fd5b506108b6611b3a565b6040516103579190613a0e565b3480156108cf57600080fd5b5061041d6108de36600461365e565b611c5e565b3480156108ef57600080fd5b5061034d60095481565b34801561090557600080fd5b5061041d61091436600461375f565b611d8e565b34801561092557600080fd5b506106e87f000000000000000000000000000000000000000000000000000000000000000081565b34801561095957600080fd5b5061041d611db3565b34801561096e57600080fd5b50600a546103809060ff1681565b61041d61098a366004613746565b611e54565b34801561099b57600080fd5b506103806109aa3660046134e5565b6001600160a01b03918216600090815260016020908152604080832093909416825291909152205460ff1690565b3480156109e457600080fd5b5061041d6109f33660046135c2565b611fc8565b348015610a0457600080fd5b506105de610a133660046134ca565b612063565b348015610a2457600080fd5b5061034d600c5481565b60006001600160a01b038316610ab15760405162461bcd60e51b815260206004820152602b60248201527f455243313135353a2062616c616e636520717565727920666f7220746865207a60448201527f65726f206164647265737300000000000000000000000000000000000000000060648201526084015b60405180910390fd5b506000908152602081815260408083206001600160a01b03949094168352929052205490565b6000610ae2826120ff565b92915050565b6000818152600f60205260409020805460609190610b0590613bc6565b80601f0160208091040260200160405190810160405280929190818152602001828054610b3190613bc6565b8015610b7e5780601f10610b5357610100808354040283529160200191610b7e565b820191906000526020600020905b815481529060010190602001808311610b6157829003601f168201915b50505050509050919050565b6000610b963383610a2e565b11610ba057600080fd5b610bac3382600161213d565b6000818152600e60205260408120805460019290610bcb908490613b68565b909155505060408051338152602081018390527f9e90d55d2f1f115ffe1b87372c45f27f6b3a2b5ba392942167be78456189009491015b60405180910390a150565b336001600160a01b037f00000000000000000000000000000000000000000000000000000000000000001614610ca0576040517f1cf993f40000000000000000000000000000000000000000000000000000000081523360048201526001600160a01b037f0000000000000000000000000000000000000000000000000000000000000000166024820152604401610aa8565b610caa82826122f1565b5050565b610cb733612316565b610d0d5760405162461bcd60e51b815260206004820152602160248201527f55736572206973206e6f7420746865204f776e6572206f7220616e2041646d696044820152603760f91b6064820152608401610aa8565b610d173082612375565b50565b6000610d263384610a2e565b11610d735760405162461bcd60e51b815260206004820152600f60248201527f4974656d206e6f7420666f756e642e00000000000000000000000000000000006044820152606401610aa8565b610d903330846001604051806020016040528060008152506123e0565b6040805160808101825283815260208082018481523383850181815260006060808701828152600b8054600181018255935296517f0175b7a638427703f0dbe7bb9bbf987a2551717b34e79f33b5b1008d1fa01db960039093029283015593517f0175b7a638427703f0dbe7bb9bbf987a2551717b34e79f33b5b1008d1fa01dba82015590517f0175b7a638427703f0dbe7bb9bbf987a2551717b34e79f33b5b1008d1fa01dbb909101805495516001600160a01b039092167fffffffffffffffffffffff00000000000000000000000000000000000000000090961695909517600160a01b911515919091021790935583519283529082018590529181018390527f23cba88d6c6f26b62b2cfc32a2cc04fbbde8590188b97cd3590e45af9ac6dd6d91015b60405180910390a15050565b6001600160a01b038516331480610ede5750610ede85336109aa565b610f505760405162461bcd60e51b815260206004820152603260248201527f455243313135353a207472616e736665722063616c6c6572206973206e6f742060448201527f6f776e6572206e6f7220617070726f76656400000000000000000000000000006064820152608401610aa8565b610f5d858585858561258b565b5050505050565b600082815260036020526040902060010154610f7f816127fe565b610f898383612808565b505050565b6006546001600160a01b03163314610fe85760405162461bcd60e51b815260206004820152601560248201527f55736572206973206e6f7420746865206f776e657200000000000000000000006044820152606401610aa8565b600047116110385760405162461bcd60e51b815260206004820152601460248201527f4e6f2066756e647320746f2077697468647261770000000000000000000000006044820152606401610aa8565b60055460405163a9059cbb60e01b81526001600160a01b0383811660048301524760248301529091169063a9059cbb90604401602060405180830381600087803b15801561108557600080fd5b505af1158015611099573d6000803e3d6000fd5b505050506040513d601f19601f82011682018060405250810190610caa9190613729565b6001600160a01b038116331461113b5760405162461bcd60e51b815260206004820152602f60248201527f416363657373436f6e74726f6c3a2063616e206f6e6c792072656e6f756e636560448201527f20726f6c657320666f722073656c6600000000000000000000000000000000006064820152608401610aa8565b610caa82826128aa565b6000600a54610100900460ff16600181111561116357611163613c89565b146111d65760405162461bcd60e51b815260206004820152602560248201527f436f6e7472616374206973206e6f74206163746976652061742074686973206d60448201527f6f6d656e740000000000000000000000000000000000000000000000000000006064820152608401610aa8565b6009546005546040517fdd62ed3e0000000000000000000000000000000000000000000000000000000081523360048201523060248201526001600160a01b039091169063dd62ed3e9060440160206040518083038186803b15801561123b57600080fd5b505afa15801561124f573d6000803e3d6000fd5b505050506040513d601f19601f8201168201806040525081019061127391906137bc565b10156112c15760405162461bcd60e51b815260206004820152600d60248201527f417070726f7665206669727374000000000000000000000000000000000000006044820152606401610aa8565b6005546009546040516323b872dd60e01b815233600482015230602482015260448101919091526001600160a01b03909116906323b872dd90606401602060405180830381600087803b15801561131757600080fd5b505af115801561132b573d6000803e3d6000fd5b505050506040513d601f19601f8201168201806040525081019061134f9190613729565b50600060075461135d61292d565b6113679190613c49565b9050600080805b60085481101561142c576000818152600e60205260408120546113919085613b1d565b9050838511156113a357809350611419565b81925060006113b23084610a2e565b11156113f65760006113c5600184613b68565b90505b60006113d43083610a2e565b11156113e2578093506113f4565b806113ec81613baf565b9150506113c8565b505b6114133033856001604051806020016040528060008152506123e0565b5061142c565b508061142481613c2e565b91505061136e565b5060095460408051338152602081019290925281018290527fea32e37a2618dbb680c93d891742e9e13b30d184822562a0ee3c09290fd42b439060600160405180910390a1505050565b606081518351146114ef5760405162461bcd60e51b815260206004820152602960248201527f455243313135353a206163636f756e747320616e6420696473206c656e67746860448201527f206d69736d6174636800000000000000000000000000000000000000000000006064820152608401610aa8565b6000835167ffffffffffffffff81111561150b5761150b613cb5565b604051908082528060200260200182016040528015611534578160200160208202803683370190505b50905060005b84518110156115ac5761157f85828151811061155857611558613c9f565b602002602001015185838151811061157257611572613c9f565b6020026020010151610a2e565b82828151811061159157611591613c9f565b60209081029190910101526115a581613c2e565b905061153a565b509392505050565b6115bd33612316565b6116135760405162461bcd60e51b815260206004820152602160248201527f55736572206973206e6f7420746865204f776e6572206f7220616e2041646d696044820152603760f91b6064820152608401610aa8565b60005b8151811015610caa576000600d600084848151811061163757611637613c9f565b6020908102919091018101516001600160a01b03168252810191909152604001600020805460ff19169115159190911790558061167381613c2e565b915050611616565b61168433612316565b6116da5760405162461bcd60e51b815260206004820152602160248201527f55736572206973206e6f7420746865204f776e6572206f7220616e2041646d696044820152603760f91b6064820152608401610aa8565b6001600160a01b03166000908152600d60205260409020805460ff19166001179055565b61170733612316565b61175d5760405162461bcd60e51b815260206004820152602160248201527f55736572206973206e6f7420746865204f776e6572206f7220616e2041646d696044820152603760f91b6064820152608401610aa8565b6000828152600f60205260409020805461177690613bc6565b1590506117c55760405162461bcd60e51b815260206004820152601560248201527f43616e206e6f74207365742075726920747769636500000000000000000000006044820152606401610aa8565b6000828152600f602090815260409091208251610f89928401906132af565b60006117ef82612a6e565b6117f857600080fd5b6007546000838152600e6020526040812054909161181591613b35565b9392505050565b6006546001600160a01b031633146118765760405162461bcd60e51b815260206004820152601560248201527f55736572206973206e6f7420746865206f776e657200000000000000000000006044820152606401610aa8565b610d17600082612a86565b600480546040517f70a082310000000000000000000000000000000000000000000000000000000081526001600160a01b0384811693820193909352600092839216906370a082319060240160206040518083038186803b1580156118e557600080fd5b505afa1580156118f9573d6000803e3d6000fd5b505050506040513d601f19601f8201168201806040525081019061191d91906137bc565b1161192757600080fd5b6001600160a01b0382166000908152600d602052604090205460ff1661194c57600080fd5b506001919050565b61195d33612316565b6119b35760405162461bcd60e51b815260206004820152602160248201527f55736572206973206e6f7420746865204f776e6572206f7220616e2041646d696044820152603760f91b6064820152608401610aa8565b60005b8151811015610caa576001600d60008484815181106119d7576119d7613c9f565b6020908102919091018101516001600160a01b03168252810191909152604001600020805460ff191691151591909117905580611a1381613c2e565b9150506119b6565b611a2433612316565b611a7a5760405162461bcd60e51b815260206004820152602160248201527f55736572206973206e6f7420746865204f776e6572206f7220616e2041646d696044820152603760f91b6064820152608401610aa8565b6001600160a01b03166000908152600d60205260409020805460ff19169055565b611aa433612316565b611afa5760405162461bcd60e51b815260206004820152602160248201527f55736572206973206e6f7420746865204f776e6572206f7220616e2041646d696044820152603760f91b6064820152608401610aa8565b60098190556040518181527f06cd74aabc11982a85b554df4d7833623303656fe69bed4db1b0cb3245feebe390602001610c02565b610caa338383612a90565b600b5460609060008167ffffffffffffffff811115611b5b57611b5b613cb5565b604051908082528060200260200182016040528015611bad57816020015b604080516080810182526000808252602080830182905292820181905260608201528252600019909201910181611b795790505b50905060005b82811015611c5757600b8181548110611bce57611bce613c9f565b600091825260209182902060408051608081018252600393909302909101805483526001810154938301939093526002909201546001600160a01b03811692820192909252600160a01b90910460ff16151560608201528251839083908110611c3957611c39613c9f565b60200260200101819052508080611c4f90613c2e565b915050611bb3565b5092915050565b6006546001600160a01b03163314611cb85760405162461bcd60e51b815260206004820152601560248201527f55736572206973206e6f7420746865206f776e657200000000000000000000006044820152606401610aa8565b60004711611d085760405162461bcd60e51b815260206004820152601460248201527f4e6f2066756e647320746f2077697468647261770000000000000000000000006044820152606401610aa8565b60055460405163a9059cbb60e01b81526001600160a01b038481166004830152602482018490529091169063a9059cbb90604401602060405180830381600087803b158015611d5657600080fd5b505af1158015611d6a573d6000803e3d6000fd5b505050506040513d601f19601f82011682018060405250810190610f899190613729565b600082815260036020526040902060010154611da9816127fe565b610f8983836128aa565b611dbc33612316565b611e125760405162461bcd60e51b815260206004820152602160248201527f55736572206973206e6f7420746865204f776e6572206f7220616e2041646d696044820152603760f91b6064820152608401610aa8565b6000600a54610100900460ff166001811115611e3057611e30613c89565b1415611e4757600a805461ff001916610100179055565b600a805461ff0019169055565b6000600b8281548110611e6957611e69613c9f565b600091825260209182902060408051608081018252600393909302909101805483526001810154938301849052600201546001600160a01b03808216848401819052600160a01b90920460ff161515606085015260055492516323b872dd60e01b815233600482015260248101929092526044820194909452919350909116906323b872dd90606401602060405180830381600087803b158015611f0c57600080fd5b505af1158015611f20573d6000803e3d6000fd5b505050506040513d601f19601f82011682018060405250810190611f449190613729565b50611f66303383600001516001604051806020016040528060008152506123e0565b600160608281019190915260408083015160208085015183513381526001600160a01b0390931691830191909152918101859052918201527f642067ff529c9b5b1162502fc8e8a3a91dda56e126a84f2fe38d341236231a8290608001610eb6565b6001600160a01b038516331480611fe45750611fe485336109aa565b6120565760405162461bcd60e51b815260206004820152602960248201527f455243313135353a2063616c6c6572206973206e6f74206f776e6572206e6f7260448201527f20617070726f76656400000000000000000000000000000000000000000000006064820152608401610aa8565b610f5d85858585856123e0565b6060600060085460016120769190613b1d565b67ffffffffffffffff81111561208e5761208e613cb5565b6040519080825280602002602001820160405280156120b7578160200160208202803683370190505b50905060005b8151811015611c57576120d08482610a2e565b8282815181106120e2576120e2613c9f565b6020908102919091010152806120f781613c2e565b9150506120bd565b60006001600160e01b031982167f7965db0b000000000000000000000000000000000000000000000000000000001480610ae25750610ae282612b85565b6001600160a01b0383166121b95760405162461bcd60e51b815260206004820152602360248201527f455243313135353a206275726e2066726f6d20746865207a65726f206164647260448201527f65737300000000000000000000000000000000000000000000000000000000006064820152608401610aa8565b3360006121c584612c20565b905060006121d284612c20565b60408051602080820183526000918290528882528181528282206001600160a01b038b16835290522054909150848110156122745760405162461bcd60e51b8152602060048201526024808201527f455243313135353a206275726e20616d6f756e7420657863656564732062616c60448201527f616e6365000000000000000000000000000000000000000000000000000000006064820152608401610aa8565b6000868152602081815260408083206001600160a01b038b81168086529184528285208a8703905582518b81529384018a90529092908816917fc3d58168c5ae7397731d063d5bbf3d657854427343f4c083240f7aacaa2d0f62910160405180910390a46040805160208101909152600090525b50505050505050565b8060008151811061230457612304613c9f565b6020026020010151600c819055505050565b6006546000906001600160a01b038381169116148061236c57506001600160a01b03821660009081527f3617319a054d772f909f7c479a2cebe5066e836a939412e32403c99029b92eff602052604090205460ff165b61194c57600080fd5b612392826008548360405180602001604052806000815250612c6b565b6123ab600854826000918252600e602052604090912055565b80600760008282546123bd9190613b1d565b925050819055506001600860008282546123d79190613b1d565b90915550505050565b6001600160a01b0384166124445760405162461bcd60e51b815260206004820152602560248201527f455243313135353a207472616e7366657220746f20746865207a65726f206164604482015264647265737360d81b6064820152608401610aa8565b33600061245085612c20565b9050600061245d85612c20565b90506000868152602081815260408083206001600160a01b038c168452909152902054858110156124e35760405162461bcd60e51b815260206004820152602a60248201527f455243313135353a20696e73756666696369656e742062616c616e636520666f60448201526939103a3930b739b332b960b11b6064820152608401610aa8565b6000878152602081815260408083206001600160a01b038d8116855292528083208985039055908a16825281208054889290612520908490613b1d565b909155505060408051888152602081018890526001600160a01b03808b16928c821692918816917fc3d58168c5ae7397731d063d5bbf3d657854427343f4c083240f7aacaa2d0f62910160405180910390a4612580848a8a8a8a8a612d8e565b505050505050505050565b81518351146126025760405162461bcd60e51b815260206004820152602860248201527f455243313135353a2069647320616e6420616d6f756e7473206c656e6774682060448201527f6d69736d617463680000000000000000000000000000000000000000000000006064820152608401610aa8565b6001600160a01b0384166126665760405162461bcd60e51b815260206004820152602560248201527f455243313135353a207472616e7366657220746f20746865207a65726f206164604482015264647265737360d81b6064820152608401610aa8565b3360005b845181101561279057600085828151811061268757612687613c9f565b6020026020010151905060008583815181106126a5576126a5613c9f565b602090810291909101810151600084815280835260408082206001600160a01b038e1683529093529190912054909150818110156127385760405162461bcd60e51b815260206004820152602a60248201527f455243313135353a20696e73756666696369656e742062616c616e636520666f60448201526939103a3930b739b332b960b11b6064820152608401610aa8565b6000838152602081815260408083206001600160a01b038e8116855292528083208585039055908b16825281208054849290612775908490613b1d565b925050819055505050508061278990613c2e565b905061266a565b50846001600160a01b0316866001600160a01b0316826001600160a01b03167f4a39dc06d4c0dbc64b70af90fd698a233a518aa5d07e595d983b8c0526c8f7fb87876040516127e0929190613a90565b60405180910390a46127f6818787878787612f43565b505050505050565b610d17813361304e565b60008281526003602090815260408083206001600160a01b038516845290915290205460ff16610caa5760008281526003602090815260408083206001600160a01b03851684529091529020805460ff191660011790556128663390565b6001600160a01b0316816001600160a01b0316837f2f8788117e7eff1d82e926ec794901d17c78024a50270940304540a733656f0d60405160405180910390a45050565b60008281526003602090815260408083206001600160a01b038516845290915290205460ff1615610caa5760008281526003602090815260408083206001600160a01b0385168085529252808320805460ff1916905551339285917ff6391f5c32d9c69d2a47ea670b442974b53935d1edc7fd64eb21e047a839171b9190a45050565b6040517f5d3b1d300000000000000000000000000000000000000000000000000000000081527f0000000000000000000000000000000000000000000000000000000000000000600482015267ffffffffffffffff7f000000000000000000000000000000000000000000000000000000000000000016602482015260016044820181905263ffffffff7f0000000000000000000000000000000000000000000000000000000000000000166064830152608482015260009081906001600160a01b037f00000000000000000000000000000000000000000000000000000000000000001690635d3b1d309060a401602060405180830381600087803b158015612a3657600080fd5b505af1158015612a4a573d6000803e3d6000fd5b505050506040513d601f19601f82011682018060405250810190610ae291906137bc565b6000818152600e602052604081205461194c57600080fd5b610caa8282612808565b816001600160a01b0316836001600160a01b03161415612b185760405162461bcd60e51b815260206004820152602960248201527f455243313135353a2073657474696e6720617070726f76616c2073746174757360448201527f20666f722073656c6600000000000000000000000000000000000000000000006064820152608401610aa8565b6001600160a01b03838116600081815260016020908152604080832094871680845294825291829020805460ff191686151590811790915591519182527f17307eab39ab6107e8899845ad3d59bd9653f200f220920489ca2b5937696c31910160405180910390a3505050565b60006001600160e01b031982167fd9b67a26000000000000000000000000000000000000000000000000000000001480612be857506001600160e01b031982167f0e89341c00000000000000000000000000000000000000000000000000000000145b80610ae257507f01ffc9a7000000000000000000000000000000000000000000000000000000006001600160e01b0319831614610ae2565b60408051600180825281830190925260609160009190602080830190803683370190505090508281600081518110612c5a57612c5a613c9f565b602090810291909101015292915050565b6001600160a01b038416612ce75760405162461bcd60e51b815260206004820152602160248201527f455243313135353a206d696e7420746f20746865207a65726f2061646472657360448201527f73000000000000000000000000000000000000000000000000000000000000006064820152608401610aa8565b336000612cf385612c20565b90506000612d0085612c20565b90506000868152602081815260408083206001600160a01b038b16845290915281208054879290612d32908490613b1d565b909155505060408051878152602081018790526001600160a01b03808a1692600092918716917fc3d58168c5ae7397731d063d5bbf3d657854427343f4c083240f7aacaa2d0f62910160405180910390a46122e8836000898989895b6001600160a01b0384163b156127f65760405163f23a6e6160e01b81526001600160a01b0385169063f23a6e6190612dd290899089908890889088906004016139cb565b602060405180830381600087803b158015612dec57600080fd5b505af1925050508015612e1c575060408051601f3d908101601f19168201909252612e199181019061379f565b60015b612ed257612e28613ccb565b806308c379a01415612e625750612e3d613ce7565b80612e485750612e64565b8060405162461bcd60e51b8152600401610aa89190613ae6565b505b60405162461bcd60e51b815260206004820152603460248201527f455243313135353a207472616e7366657220746f206e6f6e204552433131353560448201527f526563656976657220696d706c656d656e7465720000000000000000000000006064820152608401610aa8565b6001600160e01b0319811663f23a6e6160e01b146122e85760405162461bcd60e51b815260206004820152602860248201527f455243313135353a204552433131353552656365697665722072656a656374656044820152676420746f6b656e7360c01b6064820152608401610aa8565b6001600160a01b0384163b156127f65760405163bc197c8160e01b81526001600160a01b0385169063bc197c8190612f87908990899088908890889060040161396d565b602060405180830381600087803b158015612fa157600080fd5b505af1925050508015612fd1575060408051601f3d908101601f19168201909252612fce9181019061379f565b60015b612fdd57612e28613ccb565b6001600160e01b0319811663bc197c8160e01b146122e85760405162461bcd60e51b815260206004820152602860248201527f455243313135353a204552433131353552656365697665722072656a656374656044820152676420746f6b656e7360c01b6064820152608401610aa8565b60008281526003602090815260408083206001600160a01b038516845290915290205460ff16610caa5761308c816001600160a01b031660146130ce565b6130978360206130ce565b6040516020016130a89291906138ec565b60408051601f198184030181529082905262461bcd60e51b8252610aa891600401613ae6565b606060006130dd836002613b49565b6130e8906002613b1d565b67ffffffffffffffff81111561310057613100613cb5565b6040519080825280601f01601f19166020018201604052801561312a576020820181803683370190505b5090507f30000000000000000000000000000000000000000000000000000000000000008160008151811061316157613161613c9f565b60200101906001600160f81b031916908160001a9053507f7800000000000000000000000000000000000000000000000000000000000000816001815181106131ac576131ac613c9f565b60200101906001600160f81b031916908160001a90535060006131d0846002613b49565b6131db906001613b1d565b90505b6001811115613260577f303132333435363738396162636465660000000000000000000000000000000085600f166010811061321c5761321c613c9f565b1a60f81b82828151811061323257613232613c9f565b60200101906001600160f81b031916908160001a90535060049490941c9361325981613baf565b90506131de565b5083156118155760405162461bcd60e51b815260206004820181905260248201527f537472696e67733a20686578206c656e67746820696e73756666696369656e746044820152606401610aa8565b8280546132bb90613bc6565b90600052602060002090601f0160209004810192826132dd5760008555613323565b82601f106132f657805160ff1916838001178555613323565b82800160010185558215613323579182015b82811115613323578251825591602001919060010190613308565b5061332f929150613333565b5090565b5b8082111561332f5760008155600101613334565b600067ffffffffffffffff83111561336257613362613cb5565b604051613379601f8501601f191660200182613c01565b80915083815284848401111561338e57600080fd5b83836020830137600060208583010152509392505050565b80356001600160a01b03811681146133bd57600080fd5b919050565b600082601f8301126133d357600080fd5b813560206133e082613af9565b6040516133ed8282613c01565b8381528281019150858301600585901b8701840188101561340d57600080fd5b60005b8581101561343357613421826133a6565b84529284019290840190600101613410565b5090979650505050505050565b600082601f83011261345157600080fd5b8135602061345e82613af9565b60405161346b8282613c01565b8381528281019150858301600585901b8701840188101561348b57600080fd5b60005b858110156134335781358452928401929084019060010161348e565b600082601f8301126134bb57600080fd5b61181583833560208501613348565b6000602082840312156134dc57600080fd5b611815826133a6565b600080604083850312156134f857600080fd5b613501836133a6565b915061350f602084016133a6565b90509250929050565b600080600080600060a0868803121561353057600080fd5b613539866133a6565b9450613547602087016133a6565b9350604086013567ffffffffffffffff8082111561356457600080fd5b61357089838a01613440565b9450606088013591508082111561358657600080fd5b61359289838a01613440565b935060808801359150808211156135a857600080fd5b506135b5888289016134aa565b9150509295509295909350565b600080600080600060a086880312156135da57600080fd5b6135e3866133a6565b94506135f1602087016133a6565b93506040860135925060608601359150608086013567ffffffffffffffff81111561361b57600080fd5b6135b5888289016134aa565b6000806040838503121561363a57600080fd5b613643836133a6565b9150602083013561365381613d71565b809150509250929050565b6000806040838503121561367157600080fd5b61367a836133a6565b946020939093013593505050565b60006020828403121561369a57600080fd5b813567ffffffffffffffff8111156136b157600080fd5b6136bd848285016133c2565b949350505050565b600080604083850312156136d857600080fd5b823567ffffffffffffffff808211156136f057600080fd5b6136fc868387016133c2565b9350602085013591508082111561371257600080fd5b5061371f85828601613440565b9150509250929050565b60006020828403121561373b57600080fd5b815161181581613d71565b60006020828403121561375857600080fd5b5035919050565b6000806040838503121561377257600080fd5b8235915061350f602084016133a6565b60006020828403121561379457600080fd5b813561181581613d7f565b6000602082840312156137b157600080fd5b815161181581613d7f565b6000602082840312156137ce57600080fd5b5051919050565b600080604083850312156137e857600080fd5b82359150602083013567ffffffffffffffff81111561380657600080fd5b61371f85828601613440565b6000806040838503121561382557600080fd5b82359150602083013567ffffffffffffffff81111561384357600080fd5b8301601f8101851361385457600080fd5b61371f85823560208401613348565b6000806040838503121561387657600080fd5b50508035926020909101359150565b600081518084526020808501945080840160005b838110156138b557815187529582019590820190600101613899565b509495945050505050565b600081518084526138d8816020860160208601613b7f565b601f01601f19169290920160200192915050565b7f416363657373436f6e74726f6c3a206163636f756e7420000000000000000000815260008351613924816017850160208801613b7f565b7f206973206d697373696e6720726f6c65200000000000000000000000000000006017918401918201528351613961816028840160208801613b7f565b01602801949350505050565b60006001600160a01b03808816835280871660208401525060a0604083015261399960a0830186613885565b82810360608401526139ab8186613885565b905082810360808401526139bf81856138c0565b98975050505050505050565b60006001600160a01b03808816835280871660208401525084604083015283606083015260a06080830152613a0360a08301846138c0565b979650505050505050565b602080825282518282018190526000919060409081850190868401855b82811015613a70578151805185528681015187860152858101516001600160a01b03168686015260609081015115159085015260809093019290850190600101613a2b565b5091979650505050505050565b6020815260006118156020830184613885565b604081526000613aa36040830185613885565b8281036020840152613ab58185613885565b95945050505050565b6020810160028310613ae057634e487b7160e01b600052602160045260246000fd5b91905290565b60208152600061181560208301846138c0565b600067ffffffffffffffff821115613b1357613b13613cb5565b5060051b60200190565b60008219821115613b3057613b30613c5d565b500190565b600082613b4457613b44613c73565b500490565b6000816000190483118215151615613b6357613b63613c5d565b500290565b600082821015613b7a57613b7a613c5d565b500390565b60005b83811015613b9a578181015183820152602001613b82565b83811115613ba9576000848401525b50505050565b600081613bbe57613bbe613c5d565b506000190190565b600181811c90821680613bda57607f821691505b60208210811415613bfb57634e487b7160e01b600052602260045260246000fd5b50919050565b601f8201601f1916810167ffffffffffffffff81118282101715613c2757613c27613cb5565b6040525050565b6000600019821415613c4257613c42613c5d565b5060010190565b600082613c5857613c58613c73565b500690565b634e487b7160e01b600052601160045260246000fd5b634e487b7160e01b600052601260045260246000fd5b634e487b7160e01b600052602160045260246000fd5b634e487b7160e01b600052603260045260246000fd5b634e487b7160e01b600052604160045260246000fd5b600060033d1115613ce45760046000803e5060005160e01c5b90565b600060443d1015613cf55790565b6040516003193d81016004833e81513d67ffffffffffffffff8160248401118184111715613d2557505050505090565b8285019150815181811115613d3d5750505050505090565b843d8701016020828501011115613d575750505050505090565b613d6660208286010187613c01565b509095945050505050565b8015158114610d1757600080fd5b6001600160e01b031981168114610d1757600080fdfea264697066735822122089271970dcfa07c0250bd5a3e9b65b70ec54d57eddbd25e63c6ce04e9ef3840764736f6c63430008070033",
  "linkReferences": {},
  "deployedLinkReferences": {}
}