{
  "_format": "hh-sol-artifact-1",
  "contractName": "RacksItems",
  "sourceName": "contracts/RacksItems.sol",
  "abi": [
    {
      "inputs": [
        {
          "internalType": "address",
          "name": "vrfCoordinatorV2",
          "type": "address"
        },
        {
          "internalType": "bytes32",
          "name": "gasLane",
          "type": "bytes32"
        },
        {
          "internalType": "uint64",
          "name": "subscriptionId",
          "type": "uint64"
        },
        {
          "internalType": "uint32",
          "name": "callbackGasLimit",
          "type": "uint32"
        },
        {
          "internalType": "contract RacksToken",
          "name": "_racksToken",
          "type": "address"
        }
      ],
      "stateMutability": "nonpayable",
      "type": "constructor"
    },
    {
      "inputs": [
        {
          "internalType": "address",
          "name": "have",
          "type": "address"
        },
        {
          "internalType": "address",
          "name": "want",
          "type": "address"
        }
      ],
      "name": "OnlyCoordinatorCanFulfill",
      "type": "error"
    },
    {
      "anonymous": false,
      "inputs": [
        {
          "indexed": true,
          "internalType": "address",
          "name": "account",
          "type": "address"
        },
        {
          "indexed": true,
          "internalType": "address",
          "name": "operator",
          "type": "address"
        },
        {
          "indexed": false,
          "internalType": "bool",
          "name": "approved",
          "type": "bool"
        }
      ],
      "name": "ApprovalForAll",
      "type": "event"
    },
    {
      "anonymous": false,
      "inputs": [
        {
          "indexed": false,
          "internalType": "address",
          "name": "user",
          "type": "address"
        },
        {
          "indexed": false,
          "internalType": "uint256",
          "name": "casePrice",
          "type": "uint256"
        },
        {
          "indexed": false,
          "internalType": "uint256",
          "name": "item",
          "type": "uint256"
        }
      ],
      "name": "CaseOpened",
      "type": "event"
    },
    {
      "anonymous": false,
      "inputs": [
        {
          "indexed": true,
          "internalType": "bytes32",
          "name": "role",
          "type": "bytes32"
        },
        {
          "indexed": true,
          "internalType": "bytes32",
          "name": "previousAdminRole",
          "type": "bytes32"
        },
        {
          "indexed": true,
          "internalType": "bytes32",
          "name": "newAdminRole",
          "type": "bytes32"
        }
      ],
      "name": "RoleAdminChanged",
      "type": "event"
    },
    {
      "anonymous": false,
      "inputs": [
        {
          "indexed": true,
          "internalType": "bytes32",
          "name": "role",
          "type": "bytes32"
        },
        {
          "indexed": true,
          "internalType": "address",
          "name": "account",
          "type": "address"
        },
        {
          "indexed": true,
          "internalType": "address",
          "name": "sender",
          "type": "address"
        }
      ],
      "name": "RoleGranted",
      "type": "event"
    },
    {
      "anonymous": false,
      "inputs": [
        {
          "indexed": true,
          "internalType": "bytes32",
          "name": "role",
          "type": "bytes32"
        },
        {
          "indexed": true,
          "internalType": "address",
          "name": "account",
          "type": "address"
        },
        {
          "indexed": true,
          "internalType": "address",
          "name": "sender",
          "type": "address"
        }
      ],
      "name": "RoleRevoked",
      "type": "event"
    },
    {
      "anonymous": false,
      "inputs": [
        {
          "indexed": true,
          "internalType": "address",
          "name": "operator",
          "type": "address"
        },
        {
          "indexed": true,
          "internalType": "address",
          "name": "from",
          "type": "address"
        },
        {
          "indexed": true,
          "internalType": "address",
          "name": "to",
          "type": "address"
        },
        {
          "indexed": false,
          "internalType": "uint256[]",
          "name": "ids",
          "type": "uint256[]"
        },
        {
          "indexed": false,
          "internalType": "uint256[]",
          "name": "values",
          "type": "uint256[]"
        }
      ],
      "name": "TransferBatch",
      "type": "event"
    },
    {
      "anonymous": false,
      "inputs": [
        {
          "indexed": true,
          "internalType": "address",
          "name": "operator",
          "type": "address"
        },
        {
          "indexed": true,
          "internalType": "address",
          "name": "from",
          "type": "address"
        },
        {
          "indexed": true,
          "internalType": "address",
          "name": "to",
          "type": "address"
        },
        {
          "indexed": false,
          "internalType": "uint256",
          "name": "id",
          "type": "uint256"
        },
        {
          "indexed": false,
          "internalType": "uint256",
          "name": "value",
          "type": "uint256"
        }
      ],
      "name": "TransferSingle",
      "type": "event"
    },
    {
      "anonymous": false,
      "inputs": [
        {
          "indexed": false,
          "internalType": "string",
          "name": "value",
          "type": "string"
        },
        {
          "indexed": true,
          "internalType": "uint256",
          "name": "id",
          "type": "uint256"
        }
      ],
      "name": "URI",
      "type": "event"
    },
    {
      "anonymous": false,
      "inputs": [
        {
          "indexed": false,
          "internalType": "address",
          "name": "buyer",
          "type": "address"
        },
        {
          "indexed": false,
          "internalType": "address",
          "name": "seller",
          "type": "address"
        },
        {
          "indexed": false,
          "internalType": "uint256",
          "name": "marketItemId",
          "type": "uint256"
        },
        {
          "indexed": false,
          "internalType": "uint256",
          "name": "price",
          "type": "uint256"
        }
      ],
      "name": "itemBought",
      "type": "event"
    },
    {
      "anonymous": false,
      "inputs": [
        {
          "indexed": false,
          "internalType": "address",
          "name": "user",
          "type": "address"
        },
        {
          "indexed": false,
          "internalType": "uint256",
          "name": "tokenId",
          "type": "uint256"
        }
      ],
      "name": "itemExchanged",
      "type": "event"
    },
    {
      "anonymous": false,
      "inputs": [
        {
          "indexed": false,
          "internalType": "address",
          "name": "user",
          "type": "address"
        },
        {
          "indexed": false,
          "internalType": "uint256",
          "name": "tokenId",
          "type": "uint256"
        },
        {
          "indexed": false,
          "internalType": "uint256",
          "name": "price",
          "type": "uint256"
        }
      ],
      "name": "sellingItem",
      "type": "event"
    },
    {
      "inputs": [],
      "name": "ADMIN_ROLE",
      "outputs": [
        {
          "internalType": "bytes32",
          "name": "",
          "type": "bytes32"
        }
      ],
      "stateMutability": "view",
      "type": "function"
    },
    {
      "inputs": [],
      "name": "DEFAULT_ADMIN_ROLE",
      "outputs": [
        {
          "internalType": "bytes32",
          "name": "",
          "type": "bytes32"
        }
      ],
      "stateMutability": "view",
      "type": "function"
    },
    {
      "inputs": [],
      "name": "NUM_WORDS",
      "outputs": [
        {
          "internalType": "uint32",
          "name": "",
          "type": "uint32"
        }
      ],
      "stateMutability": "view",
      "type": "function"
    },
    {
      "inputs": [],
      "name": "REQUEST_CONFIRMATIONS",
      "outputs": [
        {
          "internalType": "uint16",
          "name": "",
          "type": "uint16"
        }
      ],
      "stateMutability": "view",
      "type": "function"
    },
    {
      "inputs": [
        {
          "internalType": "uint256",
          "name": "tokenId",
          "type": "uint256"
        }
      ],
      "name": "_chanceOfItem",
      "outputs": [
        {
          "internalType": "uint256",
          "name": "",
          "type": "uint256"
        }
      ],
      "stateMutability": "view",
      "type": "function"
    },
    {
      "inputs": [
        {
          "internalType": "address",
          "name": "account",
          "type": "address"
        },
        {
          "internalType": "uint256",
          "name": "id",
          "type": "uint256"
        }
      ],
      "name": "balanceOf",
      "outputs": [
        {
          "internalType": "uint256",
          "name": "",
          "type": "uint256"
        }
      ],
      "stateMutability": "view",
      "type": "function"
    },
    {
      "inputs": [
        {
          "internalType": "address[]",
          "name": "accounts",
          "type": "address[]"
        },
        {
          "internalType": "uint256[]",
          "name": "ids",
          "type": "uint256[]"
        }
      ],
      "name": "balanceOfBatch",
      "outputs": [
        {
          "internalType": "uint256[]",
          "name": "",
          "type": "uint256[]"
        }
      ],
      "stateMutability": "view",
      "type": "function"
    },
    {
      "inputs": [
        {
          "internalType": "uint256",
          "name": "marketItemId",
          "type": "uint256"
        }
      ],
      "name": "buyItem",
      "outputs": [],
      "stateMutability": "payable",
      "type": "function"
    },
    {
      "inputs": [],
      "name": "casePrice",
      "outputs": [
        {
          "internalType": "uint256",
          "name": "",
          "type": "uint256"
        }
      ],
      "stateMutability": "view",
      "type": "function"
    },
    {
      "inputs": [],
      "name": "contractActive",
      "outputs": [
        {
          "internalType": "bool",
          "name": "",
          "type": "bool"
        }
      ],
      "stateMutability": "view",
      "type": "function"
    },
    {
      "inputs": [
        {
          "internalType": "uint256",
          "name": "tokenId",
          "type": "uint256"
        }
      ],
      "name": "exchangeItem",
      "outputs": [],
      "stateMutability": "nonpayable",
      "type": "function"
    },
    {
      "inputs": [],
      "name": "flipContractState",
      "outputs": [],
      "stateMutability": "nonpayable",
      "type": "function"
    },
    {
      "inputs": [],
      "name": "getItemsOnSale",
      "outputs": [
        {
          "components": [
            {
              "internalType": "uint256",
              "name": "tokenId",
              "type": "uint256"
            },
            {
              "internalType": "uint256",
              "name": "price",
              "type": "uint256"
            },
            {
              "internalType": "address payable",
              "name": "seller",
              "type": "address"
            },
            {
              "internalType": "bool",
              "name": "sold",
              "type": "bool"
            }
          ],
          "internalType": "struct RacksItems.itemOnSale[]",
          "name": "",
          "type": "tuple[]"
        }
      ],
      "stateMutability": "view",
      "type": "function"
    },
    {
      "inputs": [
        {
          "internalType": "bytes32",
          "name": "role",
          "type": "bytes32"
        }
      ],
      "name": "getRoleAdmin",
      "outputs": [
        {
          "internalType": "bytes32",
          "name": "",
          "type": "bytes32"
        }
      ],
      "stateMutability": "view",
      "type": "function"
    },
    {
      "inputs": [
        {
          "internalType": "bytes32",
          "name": "role",
          "type": "bytes32"
        },
        {
          "internalType": "address",
          "name": "account",
          "type": "address"
        }
      ],
      "name": "grantRole",
      "outputs": [],
      "stateMutability": "nonpayable",
      "type": "function"
    },
    {
      "inputs": [
        {
          "internalType": "bytes32",
          "name": "role",
          "type": "bytes32"
        },
        {
          "internalType": "address",
          "name": "account",
          "type": "address"
        }
      ],
      "name": "hasRole",
      "outputs": [
        {
          "internalType": "bool",
          "name": "",
          "type": "bool"
        }
      ],
      "stateMutability": "view",
      "type": "function"
    },
    {
      "inputs": [],
      "name": "i_MrCryptoAddress",
      "outputs": [
        {
          "internalType": "address",
          "name": "",
          "type": "address"
        }
      ],
      "stateMutability": "view",
      "type": "function"
    },
    {
      "inputs": [],
      "name": "i_callbackGasLimit",
      "outputs": [
        {
          "internalType": "uint32",
          "name": "",
          "type": "uint32"
        }
      ],
      "stateMutability": "view",
      "type": "function"
    },
    {
      "inputs": [],
      "name": "i_gasLane",
      "outputs": [
        {
          "internalType": "bytes32",
          "name": "",
          "type": "bytes32"
        }
      ],
      "stateMutability": "view",
      "type": "function"
    },
    {
      "inputs": [],
      "name": "i_subscriptionId",
      "outputs": [
        {
          "internalType": "uint64",
          "name": "",
          "type": "uint64"
        }
      ],
      "stateMutability": "view",
      "type": "function"
    },
    {
      "inputs": [],
      "name": "i_vrfCoordinator",
      "outputs": [
        {
          "internalType": "contract VRFCoordinatorV2Interface",
          "name": "",
          "type": "address"
        }
      ],
      "stateMutability": "view",
      "type": "function"
    },
    {
      "inputs": [
        {
          "internalType": "address",
          "name": "account",
          "type": "address"
        },
        {
          "internalType": "address",
          "name": "operator",
          "type": "address"
        }
      ],
      "name": "isApprovedForAll",
      "outputs": [
        {
          "internalType": "bool",
          "name": "",
          "type": "bool"
        }
      ],
      "stateMutability": "view",
      "type": "function"
    },
    {
      "inputs": [
        {
          "internalType": "address",
          "name": "user",
          "type": "address"
        }
      ],
      "name": "isVip",
      "outputs": [
        {
          "internalType": "bool",
          "name": "",
          "type": "bool"
        }
      ],
      "stateMutability": "view",
      "type": "function"
    },
    {
      "inputs": [
        {
          "internalType": "uint256",
          "name": "itemSupply",
          "type": "uint256"
        }
      ],
      "name": "listItem",
      "outputs": [],
      "stateMutability": "nonpayable",
      "type": "function"
    },
    {
      "inputs": [],
      "name": "openCase",
      "outputs": [],
      "stateMutability": "nonpayable",
      "type": "function"
    },
    {
      "inputs": [],
      "name": "racksToken",
      "outputs": [
        {
          "internalType": "contract RacksToken",
          "name": "",
          "type": "address"
        }
      ],
      "stateMutability": "view",
      "type": "function"
    },
    {
      "inputs": [
        {
          "internalType": "uint256",
          "name": "requestId",
          "type": "uint256"
        },
        {
          "internalType": "uint256[]",
          "name": "randomWords",
          "type": "uint256[]"
        }
      ],
      "name": "rawFulfillRandomWords",
      "outputs": [],
      "stateMutability": "nonpayable",
      "type": "function"
    },
    {
      "inputs": [
        {
          "internalType": "address[]",
          "name": "users",
          "type": "address[]"
        }
      ],
      "name": "removeListRacksMembers",
      "outputs": [],
      "stateMutability": "nonpayable",
      "type": "function"
    },
    {
      "inputs": [
        {
          "internalType": "address",
          "name": "user",
          "type": "address"
        }
      ],
      "name": "removeSingleRacksMember",
      "outputs": [],
      "stateMutability": "nonpayable",
      "type": "function"
    },
    {
      "inputs": [
        {
          "internalType": "bytes32",
          "name": "role",
          "type": "bytes32"
        },
        {
          "internalType": "address",
          "name": "account",
          "type": "address"
        }
      ],
      "name": "renounceRole",
      "outputs": [],
      "stateMutability": "nonpayable",
      "type": "function"
    },
    {
      "inputs": [
        {
          "internalType": "bytes32",
          "name": "role",
          "type": "bytes32"
        },
        {
          "internalType": "address",
          "name": "account",
          "type": "address"
        }
      ],
      "name": "revokeRole",
      "outputs": [],
      "stateMutability": "nonpayable",
      "type": "function"
    },
    {
      "inputs": [],
      "name": "s_contractState",
      "outputs": [
        {
          "internalType": "enum RacksItems.ContractState",
          "name": "",
          "type": "uint8"
        }
      ],
      "stateMutability": "view",
      "type": "function"
    },
    {
      "inputs": [],
      "name": "s_randomWord",
      "outputs": [
        {
          "internalType": "uint256",
          "name": "",
          "type": "uint256"
        }
      ],
      "stateMutability": "view",
      "type": "function"
    },
    {
      "inputs": [
        {
          "internalType": "address",
          "name": "from",
          "type": "address"
        },
        {
          "internalType": "address",
          "name": "to",
          "type": "address"
        },
        {
          "internalType": "uint256[]",
          "name": "ids",
          "type": "uint256[]"
        },
        {
          "internalType": "uint256[]",
          "name": "amounts",
          "type": "uint256[]"
        },
        {
          "internalType": "bytes",
          "name": "data",
          "type": "bytes"
        }
      ],
      "name": "safeBatchTransferFrom",
      "outputs": [],
      "stateMutability": "nonpayable",
      "type": "function"
    },
    {
      "inputs": [
        {
          "internalType": "address",
          "name": "from",
          "type": "address"
        },
        {
          "internalType": "address",
          "name": "to",
          "type": "address"
        },
        {
          "internalType": "uint256",
          "name": "id",
          "type": "uint256"
        },
        {
          "internalType": "uint256",
          "name": "amount",
          "type": "uint256"
        },
        {
          "internalType": "bytes",
          "name": "data",
          "type": "bytes"
        }
      ],
      "name": "safeTransferFrom",
      "outputs": [],
      "stateMutability": "nonpayable",
      "type": "function"
    },
    {
      "inputs": [
        {
          "internalType": "uint256",
          "name": "tokenId",
          "type": "uint256"
        },
        {
          "internalType": "uint256",
          "name": "price",
          "type": "uint256"
        }
      ],
      "name": "sellItem",
      "outputs": [],
      "stateMutability": "nonpayable",
      "type": "function"
    },
    {
      "inputs": [
        {
          "internalType": "address",
          "name": "_newAdmin",
          "type": "address"
        }
      ],
      "name": "setAdmin",
      "outputs": [],
      "stateMutability": "nonpayable",
      "type": "function"
    },
    {
      "inputs": [
        {
          "internalType": "address",
          "name": "operator",
          "type": "address"
        },
        {
          "internalType": "bool",
          "name": "approved",
          "type": "bool"
        }
      ],
      "name": "setApprovalForAll",
      "outputs": [],
      "stateMutability": "nonpayable",
      "type": "function"
    },
    {
      "inputs": [
        {
          "internalType": "uint256",
          "name": "price",
          "type": "uint256"
        }
      ],
      "name": "setCasePrice",
      "outputs": [],
      "stateMutability": "nonpayable",
      "type": "function"
    },
    {
      "inputs": [
        {
          "internalType": "address[]",
          "name": "users",
          "type": "address[]"
        }
      ],
      "name": "setListRacksMembers",
      "outputs": [],
      "stateMutability": "nonpayable",
      "type": "function"
    },
    {
      "inputs": [
        {
          "internalType": "address",
          "name": "user",
          "type": "address"
        }
      ],
      "name": "setSingleRacksMember",
      "outputs": [],
      "stateMutability": "nonpayable",
      "type": "function"
    },
    {
      "inputs": [
        {
          "internalType": "uint256",
          "name": "tokenId",
          "type": "uint256"
        },
        {
          "internalType": "string",
          "name": "_uri",
          "type": "string"
        }
      ],
      "name": "setTokenUri",
      "outputs": [],
      "stateMutability": "nonpayable",
      "type": "function"
    },
    {
      "inputs": [
        {
          "internalType": "uint256",
          "name": "tokenId",
          "type": "uint256"
        }
      ],
      "name": "supplyOfItem",
      "outputs": [
        {
          "internalType": "uint256",
          "name": "",
          "type": "uint256"
        }
      ],
      "stateMutability": "view",
      "type": "function"
    },
    {
      "inputs": [
        {
          "internalType": "bytes4",
          "name": "interfaceId",
          "type": "bytes4"
        }
      ],
      "name": "supportsInterface",
      "outputs": [
        {
          "internalType": "bool",
          "name": "",
          "type": "bool"
        }
      ],
      "stateMutability": "view",
      "type": "function"
    },
    {
      "inputs": [
        {
          "internalType": "uint256",
          "name": "tokenId",
          "type": "uint256"
        }
      ],
      "name": "uri",
      "outputs": [
        {
          "internalType": "string",
          "name": "",
          "type": "string"
        }
      ],
      "stateMutability": "view",
      "type": "function"
    },
    {
      "inputs": [
        {
          "internalType": "address",
          "name": "owner",
          "type": "address"
        }
      ],
      "name": "viewItems",
      "outputs": [
        {
          "internalType": "uint256[]",
          "name": "",
          "type": "uint256[]"
        }
      ],
      "stateMutability": "view",
      "type": "function"
    },
    {
      "inputs": [
        {
          "internalType": "address",
          "name": "wallet",
          "type": "address"
        }
      ],
      "name": "withdrawAllFunds",
      "outputs": [],
      "stateMutability": "nonpayable",
      "type": "function"
    },
    {
      "inputs": [
        {
          "internalType": "address",
          "name": "wallet",
          "type": "address"
        },
        {
          "internalType": "uint256",
          "name": "amount",
          "type": "uint256"
        }
      ],
      "name": "withdrawFunds",
      "outputs": [],
      "stateMutability": "nonpayable",
      "type": "function"
    },
    {
      "stateMutability": "payable",
      "type": "receive"
    }
  ],
  "bytecode": "0x610120604052600a805460ff191660011790553480156200001f57600080fd5b5060405162004095380380620040958339810160408190526200004291620001ca565b60408051602081019091526000815285906200005e816200010b565b50606090811b6001600160601b031990811660805295901b90941660a05260c0928352911b6001600160c01b03191660e09081521b6001600160e01b031916610100526004805473ef453154766505feb9dbf0a58e6990fd6eb669696001600160a01b0319918216179091556005805482166001600160a01b0393909316929092179091556006805433921691909117905560006008556001600955600a805461ff0019169055620002a7565b80516200012090600290602084019062000124565b5050565b828054620001329062000251565b90600052602060002090601f016020900481019282620001565760008555620001a1565b82601f106200017157805160ff1916838001178555620001a1565b82800160010185558215620001a1579182015b82811115620001a157825182559160200191906001019062000184565b50620001af929150620001b3565b5090565b5b80821115620001af5760008155600101620001b4565b600080600080600060a08688031215620001e357600080fd5b8551620001f0816200028e565b6020870151604088015191965094506001600160401b03811681146200021557600080fd5b606087015190935063ffffffff811681146200023057600080fd5b608087015190925062000243816200028e565b809150509295509295909350565b600181811c908216806200026657607f821691505b602082108114156200028857634e487b7160e01b600052602260045260246000fd5b50919050565b6001600160a01b0381168114620002a457600080fd5b50565b60805160601c60a05160601c60c05160e05160c01c6101005160e01c613d7a6200031b6000396000818161090b01526129680152600081816105630152612933015260008181610799015261290401526000818161083301526129a1015260008181610bf70152610c520152613d7a6000f3fe6080604052600436106103165760003560e01c806372cf6e341161019a578063bbcbc2e7116100e1578063e289fcb61161008a578063f242432a11610064578063f242432a146109b8578063f48c9d34146109d8578063fd210fd9146109f857600080fd5b8063e289fcb614610942578063e7fb74c71461095c578063e985e9c51461096f57600080fd5b8063d547741f116100bb578063d547741f146108d9578063d757d027146108f9578063de08f6531461092d57600080fd5b8063bbcbc2e714610881578063c1075329146108a3578063ca90958f146108c357600080fd5b80638e879c8a11610143578063a22cb4651161011d578063a22cb46514610801578063aebc455014610821578063b63b86121461085557600080fd5b80638e879c8a1461078757806391d14854146107bb578063a217fddf146106f257600080fd5b806389165aa91161017457806389165aa9146107275780638ba8b15a146107475780638dc5f45b1461076757600080fd5b806372cf6e34146106c857806375b238fc146106f257806384203f4b1461070757600080fd5b806332dee40b1161025e57806354e889f61161020757806367f082b0116101e157806367f082b01461066057806368b7210014610688578063704b6c02146106a857600080fd5b806354e889f61461060057806357f7789e1461062057806367be820a1461064057600080fd5b80634a226657116102385780634a2266571461059e5780634e1273f4146105b35780635408c319146105e057600080fd5b806332dee40b1461051157806336568abe14610531578063470cdf971461055157600080fd5b806320ba0814116102c05780632d9235611161029a5780632d923561146104b15780632eb2c2d6146104d15780632f2ff15d146104f157600080fd5b806320ba081414610434578063248a9ca3146104615780632ce381901461049157600080fd5b8063109b8278116102f1578063109b8278146103b25780631cb0b273146103f25780631fe543e31461041457600080fd5b8062fdd58e1461032257806301ffc9a7146103555780630e89341c1461038557600080fd5b3661031d57005b600080fd5b34801561032e57600080fd5b5061034261033d36600461360d565b610a0e565b6040519081526020015b60405180910390f35b34801561036157600080fd5b50610375610370366004613731565b610ab7565b604051901515815260200161034c565b34801561039157600080fd5b506103a56103a03660046136f5565b610ac8565b60405161034c9190613a95565b3480156103be57600080fd5b506103da73ef453154766505feb9dbf0a58e6990fd6eb6696981565b6040516001600160a01b03909116815260200161034c565b3480156103fe57600080fd5b5061041261040d3660046136f5565b610b6a565b005b34801561042057600080fd5b5061041261042f366004613784565b610bec565b34801561044057600080fd5b5061034261044f3660046136f5565b6000908152600e602052604090205490565b34801561046d57600080fd5b5061034261047c3660046136f5565b60009081526003602052604090206001015490565b34801561049d57600080fd5b506104126104ac3660046136f5565b610c8d565b3480156104bd57600080fd5b506104126104cc366004613812565b610cf9565b3480156104dd57600080fd5b506104126104ec3660046134c7565b610ea1565b3480156104fd57600080fd5b5061041261050c36600461370e565b610f43565b34801561051d57600080fd5b5061041261052c366004613479565b610f6d565b34801561053d57600080fd5b5061041261054c36600461370e565b61109c565b34801561055d57600080fd5b506105857f000000000000000000000000000000000000000000000000000000000000000081565b60405167ffffffffffffffff909116815260200161034c565b3480156105aa57600080fd5b50610412611124565b3480156105bf57600080fd5b506105d36105ce366004613674565b611455565b60405161034c9190613a2c565b3480156105ec57600080fd5b506104126105fb366004613637565b611593565b34801561060c57600080fd5b5061041261061b366004613479565b61165a565b34801561062c57600080fd5b5061041261063b3660046137c1565b6116dd565b34801561064c57600080fd5b5061034261065b3660046136f5565b6117c3565b34801561066c57600080fd5b50610675600181565b60405161ffff909116815260200161034c565b34801561069457600080fd5b506005546103da906001600160a01b031681565b3480156106b457600080fd5b506104126106c3366004613479565b6117fb565b3480156106d457600080fd5b506106dd600181565b60405163ffffffff909116815260200161034c565b3480156106fe57600080fd5b50610342600081565b34801561071357600080fd5b50610375610722366004613479565b611860565b34801561073357600080fd5b50610412610742366004613637565b611933565b34801561075357600080fd5b50610412610762366004613479565b6119fa565b34801561077357600080fd5b506104126107823660046136f5565b611a7a565b34801561079357600080fd5b506103427f000000000000000000000000000000000000000000000000000000000000000081565b3480156107c757600080fd5b506103756107d636600461370e565b60009182526003602090815260408084206001600160a01b0393909316845291905290205460ff1690565b34801561080d57600080fd5b5061041261081c3660046135d6565b611ade565b34801561082d57600080fd5b506103da7f000000000000000000000000000000000000000000000000000000000000000081565b34801561086157600080fd5b50600a5461087490610100900460ff1681565b60405161034c9190613a6d565b34801561088d57600080fd5b50610896611ae9565b60405161034c91906139bd565b3480156108af57600080fd5b506104126108be36600461360d565b611c0d565b3480156108cf57600080fd5b5061034260095481565b3480156108e557600080fd5b506104126108f436600461370e565b611d3d565b34801561090557600080fd5b506106dd7f000000000000000000000000000000000000000000000000000000000000000081565b34801561093957600080fd5b50610412611d62565b34801561094e57600080fd5b50600a546103759060ff1681565b61041261096a3660046136f5565b611e03565b34801561097b57600080fd5b5061037561098a366004613494565b6001600160a01b03918216600090815260016020908152604080832093909416825291909152205460ff1690565b3480156109c457600080fd5b506104126109d3366004613571565b611f77565b3480156109e457600080fd5b506105d36109f3366004613479565b612012565b348015610a0457600080fd5b50610342600c5481565b60006001600160a01b038316610a915760405162461bcd60e51b815260206004820152602b60248201527f455243313135353a2062616c616e636520717565727920666f7220746865207a60448201527f65726f206164647265737300000000000000000000000000000000000000000060648201526084015b60405180910390fd5b506000908152602081815260408083206001600160a01b03949094168352929052205490565b6000610ac2826120ae565b92915050565b6000818152600f60205260409020805460609190610ae590613b75565b80601f0160208091040260200160405190810160405280929190818152602001828054610b1190613b75565b8015610b5e5780601f10610b3357610100808354040283529160200191610b5e565b820191906000526020600020905b815481529060010190602001808311610b4157829003601f168201915b50505050509050919050565b6000610b763383610a0e565b11610b8057600080fd5b610b8c338260016120ec565b6000818152600e60205260408120805460019290610bab908490613b17565b909155505060408051338152602081018390527f9e90d55d2f1f115ffe1b87372c45f27f6b3a2b5ba392942167be784561890094910160405180910390a150565b336001600160a01b037f00000000000000000000000000000000000000000000000000000000000000001614610c7f576040517f1cf993f40000000000000000000000000000000000000000000000000000000081523360048201526001600160a01b037f0000000000000000000000000000000000000000000000000000000000000000166024820152604401610a88565b610c8982826122a0565b5050565b610c96336122c5565b610cec5760405162461bcd60e51b815260206004820152602160248201527f55736572206973206e6f7420746865204f776e6572206f7220616e2041646d696044820152603760f91b6064820152608401610a88565b610cf63082612324565b50565b6000610d053384610a0e565b11610d525760405162461bcd60e51b815260206004820152600f60248201527f4974656d206e6f7420666f756e642e00000000000000000000000000000000006044820152606401610a88565b610d6f33308460016040518060200160405280600081525061238f565b6040805160808101825283815260208082018481523383850181815260006060808701828152600b8054600181018255935296517f0175b7a638427703f0dbe7bb9bbf987a2551717b34e79f33b5b1008d1fa01db960039093029283015593517f0175b7a638427703f0dbe7bb9bbf987a2551717b34e79f33b5b1008d1fa01dba82015590517f0175b7a638427703f0dbe7bb9bbf987a2551717b34e79f33b5b1008d1fa01dbb909101805495516001600160a01b039092167fffffffffffffffffffffff00000000000000000000000000000000000000000090961695909517600160a01b911515919091021790935583519283529082018590529181018390527f23cba88d6c6f26b62b2cfc32a2cc04fbbde8590188b97cd3590e45af9ac6dd6d91015b60405180910390a15050565b6001600160a01b038516331480610ebd5750610ebd853361098a565b610f2f5760405162461bcd60e51b815260206004820152603260248201527f455243313135353a207472616e736665722063616c6c6572206973206e6f742060448201527f6f776e6572206e6f7220617070726f76656400000000000000000000000000006064820152608401610a88565b610f3c858585858561253a565b5050505050565b600082815260036020526040902060010154610f5e816127ad565b610f6883836127b7565b505050565b6006546001600160a01b03163314610fc75760405162461bcd60e51b815260206004820152601560248201527f55736572206973206e6f7420746865206f776e657200000000000000000000006044820152606401610a88565b600047116110175760405162461bcd60e51b815260206004820152601460248201527f4e6f2066756e647320746f2077697468647261770000000000000000000000006044820152606401610a88565b60055460405163a9059cbb60e01b81526001600160a01b0383811660048301524760248301529091169063a9059cbb90604401602060405180830381600087803b15801561106457600080fd5b505af1158015611078573d6000803e3d6000fd5b505050506040513d601f19601f82011682018060405250810190610c8991906136d8565b6001600160a01b038116331461111a5760405162461bcd60e51b815260206004820152602f60248201527f416363657373436f6e74726f6c3a2063616e206f6e6c792072656e6f756e636560448201527f20726f6c657320666f722073656c6600000000000000000000000000000000006064820152608401610a88565b610c898282612859565b6000600a54610100900460ff16600181111561114257611142613c38565b146111b55760405162461bcd60e51b815260206004820152602560248201527f436f6e7472616374206973206e6f74206163746976652061742074686973206d60448201527f6f6d656e740000000000000000000000000000000000000000000000000000006064820152608401610a88565b6009546005546040517fdd62ed3e0000000000000000000000000000000000000000000000000000000081523360048201523060248201526001600160a01b039091169063dd62ed3e9060440160206040518083038186803b15801561121a57600080fd5b505afa15801561122e573d6000803e3d6000fd5b505050506040513d601f19601f82011682018060405250810190611252919061376b565b10156112a05760405162461bcd60e51b815260206004820152600d60248201527f417070726f7665206669727374000000000000000000000000000000000000006044820152606401610a88565b6005546009546040516323b872dd60e01b815233600482015230602482015260448101919091526001600160a01b03909116906323b872dd90606401602060405180830381600087803b1580156112f657600080fd5b505af115801561130a573d6000803e3d6000fd5b505050506040513d601f19601f8201168201806040525081019061132e91906136d8565b50600060075461133c6128dc565b6113469190613bf8565b9050600080805b60085481101561140b576000818152600e60205260408120546113709085613acc565b905083851115611382578093506113f8565b81925060006113913084610a0e565b11156113d55760006113a4600184613b17565b90505b60006113b33083610a0e565b11156113c1578093506113d3565b806113cb81613b5e565b9150506113a7565b505b6113f230338560016040518060200160405280600081525061238f565b5061140b565b508061140381613bdd565b91505061134d565b5060095460408051338152602081019290925281018290527fea32e37a2618dbb680c93d891742e9e13b30d184822562a0ee3c09290fd42b439060600160405180910390a1505050565b606081518351146114ce5760405162461bcd60e51b815260206004820152602960248201527f455243313135353a206163636f756e747320616e6420696473206c656e67746860448201527f206d69736d6174636800000000000000000000000000000000000000000000006064820152608401610a88565b6000835167ffffffffffffffff8111156114ea576114ea613c64565b604051908082528060200260200182016040528015611513578160200160208202803683370190505b50905060005b845181101561158b5761155e85828151811061153757611537613c4e565b602002602001015185838151811061155157611551613c4e565b6020026020010151610a0e565b82828151811061157057611570613c4e565b602090810291909101015261158481613bdd565b9050611519565b509392505050565b61159c336122c5565b6115f25760405162461bcd60e51b815260206004820152602160248201527f55736572206973206e6f7420746865204f776e6572206f7220616e2041646d696044820152603760f91b6064820152608401610a88565b60005b8151811015610c89576000600d600084848151811061161657611616613c4e565b6020908102919091018101516001600160a01b03168252810191909152604001600020805460ff19169115159190911790558061165281613bdd565b9150506115f5565b611663336122c5565b6116b95760405162461bcd60e51b815260206004820152602160248201527f55736572206973206e6f7420746865204f776e6572206f7220616e2041646d696044820152603760f91b6064820152608401610a88565b6001600160a01b03166000908152600d60205260409020805460ff19166001179055565b6116e6336122c5565b61173c5760405162461bcd60e51b815260206004820152602160248201527f55736572206973206e6f7420746865204f776e6572206f7220616e2041646d696044820152603760f91b6064820152608401610a88565b6000828152600f60205260409020805461175590613b75565b1590506117a45760405162461bcd60e51b815260206004820152601560248201527f43616e206e6f74207365742075726920747769636500000000000000000000006044820152606401610a88565b6000828152600f602090815260409091208251610f689284019061325e565b60006117ce82612a1d565b6117d757600080fd5b6007546000838152600e602052604081205490916117f491613ae4565b9392505050565b6006546001600160a01b031633146118555760405162461bcd60e51b815260206004820152601560248201527f55736572206973206e6f7420746865206f776e657200000000000000000000006044820152606401610a88565b610cf6600082612a35565b600480546040517f70a082310000000000000000000000000000000000000000000000000000000081526001600160a01b0384811693820193909352600092839216906370a082319060240160206040518083038186803b1580156118c457600080fd5b505afa1580156118d8573d6000803e3d6000fd5b505050506040513d601f19601f820116820180604052508101906118fc919061376b565b1161190657600080fd5b6001600160a01b0382166000908152600d602052604090205460ff1661192b57600080fd5b506001919050565b61193c336122c5565b6119925760405162461bcd60e51b815260206004820152602160248201527f55736572206973206e6f7420746865204f776e6572206f7220616e2041646d696044820152603760f91b6064820152608401610a88565b60005b8151811015610c89576001600d60008484815181106119b6576119b6613c4e565b6020908102919091018101516001600160a01b03168252810191909152604001600020805460ff1916911515919091179055806119f281613bdd565b915050611995565b611a03336122c5565b611a595760405162461bcd60e51b815260206004820152602160248201527f55736572206973206e6f7420746865204f776e6572206f7220616e2041646d696044820152603760f91b6064820152608401610a88565b6001600160a01b03166000908152600d60205260409020805460ff19169055565b611a83336122c5565b611ad95760405162461bcd60e51b815260206004820152602160248201527f55736572206973206e6f7420746865204f776e6572206f7220616e2041646d696044820152603760f91b6064820152608401610a88565b600955565b610c89338383612a3f565b600b5460609060008167ffffffffffffffff811115611b0a57611b0a613c64565b604051908082528060200260200182016040528015611b5c57816020015b604080516080810182526000808252602080830182905292820181905260608201528252600019909201910181611b285790505b50905060005b82811015611c0657600b8181548110611b7d57611b7d613c4e565b600091825260209182902060408051608081018252600393909302909101805483526001810154938301939093526002909201546001600160a01b03811692820192909252600160a01b90910460ff16151560608201528251839083908110611be857611be8613c4e565b60200260200101819052508080611bfe90613bdd565b915050611b62565b5092915050565b6006546001600160a01b03163314611c675760405162461bcd60e51b815260206004820152601560248201527f55736572206973206e6f7420746865206f776e657200000000000000000000006044820152606401610a88565b60004711611cb75760405162461bcd60e51b815260206004820152601460248201527f4e6f2066756e647320746f2077697468647261770000000000000000000000006044820152606401610a88565b60055460405163a9059cbb60e01b81526001600160a01b038481166004830152602482018490529091169063a9059cbb90604401602060405180830381600087803b158015611d0557600080fd5b505af1158015611d19573d6000803e3d6000fd5b505050506040513d601f19601f82011682018060405250810190610f6891906136d8565b600082815260036020526040902060010154611d58816127ad565b610f688383612859565b611d6b336122c5565b611dc15760405162461bcd60e51b815260206004820152602160248201527f55736572206973206e6f7420746865204f776e6572206f7220616e2041646d696044820152603760f91b6064820152608401610a88565b6000600a54610100900460ff166001811115611ddf57611ddf613c38565b1415611df657600a805461ff001916610100179055565b600a805461ff0019169055565b6000600b8281548110611e1857611e18613c4e565b600091825260209182902060408051608081018252600393909302909101805483526001810154938301849052600201546001600160a01b03808216848401819052600160a01b90920460ff161515606085015260055492516323b872dd60e01b815233600482015260248101929092526044820194909452919350909116906323b872dd90606401602060405180830381600087803b158015611ebb57600080fd5b505af1158015611ecf573d6000803e3d6000fd5b505050506040513d601f19601f82011682018060405250810190611ef391906136d8565b50611f153033836000015160016040518060200160405280600081525061238f565b600160608281019190915260408083015160208085015183513381526001600160a01b0390931691830191909152918101859052918201527f642067ff529c9b5b1162502fc8e8a3a91dda56e126a84f2fe38d341236231a8290608001610e95565b6001600160a01b038516331480611f935750611f93853361098a565b6120055760405162461bcd60e51b815260206004820152602960248201527f455243313135353a2063616c6c6572206973206e6f74206f776e6572206e6f7260448201527f20617070726f76656400000000000000000000000000000000000000000000006064820152608401610a88565b610f3c858585858561238f565b6060600060085460016120259190613acc565b67ffffffffffffffff81111561203d5761203d613c64565b604051908082528060200260200182016040528015612066578160200160208202803683370190505b50905060005b8151811015611c065761207f8482610a0e565b82828151811061209157612091613c4e565b6020908102919091010152806120a681613bdd565b91505061206c565b60006001600160e01b031982167f7965db0b000000000000000000000000000000000000000000000000000000001480610ac25750610ac282612b34565b6001600160a01b0383166121685760405162461bcd60e51b815260206004820152602360248201527f455243313135353a206275726e2066726f6d20746865207a65726f206164647260448201527f65737300000000000000000000000000000000000000000000000000000000006064820152608401610a88565b33600061217484612bcf565b9050600061218184612bcf565b60408051602080820183526000918290528882528181528282206001600160a01b038b16835290522054909150848110156122235760405162461bcd60e51b8152602060048201526024808201527f455243313135353a206275726e20616d6f756e7420657863656564732062616c60448201527f616e6365000000000000000000000000000000000000000000000000000000006064820152608401610a88565b6000868152602081815260408083206001600160a01b038b81168086529184528285208a8703905582518b81529384018a90529092908816917fc3d58168c5ae7397731d063d5bbf3d657854427343f4c083240f7aacaa2d0f62910160405180910390a46040805160208101909152600090525b50505050505050565b806000815181106122b3576122b3613c4e565b6020026020010151600c819055505050565b6006546000906001600160a01b038381169116148061231b57506001600160a01b03821660009081527f3617319a054d772f909f7c479a2cebe5066e836a939412e32403c99029b92eff602052604090205460ff165b61192b57600080fd5b612341826008548360405180602001604052806000815250612c1a565b61235a600854826000918252600e602052604090912055565b806007600082825461236c9190613acc565b925050819055506001600860008282546123869190613acc565b90915550505050565b6001600160a01b0384166123f35760405162461bcd60e51b815260206004820152602560248201527f455243313135353a207472616e7366657220746f20746865207a65726f206164604482015264647265737360d81b6064820152608401610a88565b3360006123ff85612bcf565b9050600061240c85612bcf565b90506000868152602081815260408083206001600160a01b038c168452909152902054858110156124925760405162461bcd60e51b815260206004820152602a60248201527f455243313135353a20696e73756666696369656e742062616c616e636520666f60448201526939103a3930b739b332b960b11b6064820152608401610a88565b6000878152602081815260408083206001600160a01b038d8116855292528083208985039055908a168252812080548892906124cf908490613acc565b909155505060408051888152602081018890526001600160a01b03808b16928c821692918816917fc3d58168c5ae7397731d063d5bbf3d657854427343f4c083240f7aacaa2d0f62910160405180910390a461252f848a8a8a8a8a612d3d565b505050505050505050565b81518351146125b15760405162461bcd60e51b815260206004820152602860248201527f455243313135353a2069647320616e6420616d6f756e7473206c656e6774682060448201527f6d69736d617463680000000000000000000000000000000000000000000000006064820152608401610a88565b6001600160a01b0384166126155760405162461bcd60e51b815260206004820152602560248201527f455243313135353a207472616e7366657220746f20746865207a65726f206164604482015264647265737360d81b6064820152608401610a88565b3360005b845181101561273f57600085828151811061263657612636613c4e565b60200260200101519050600085838151811061265457612654613c4e565b602090810291909101810151600084815280835260408082206001600160a01b038e1683529093529190912054909150818110156126e75760405162461bcd60e51b815260206004820152602a60248201527f455243313135353a20696e73756666696369656e742062616c616e636520666f60448201526939103a3930b739b332b960b11b6064820152608401610a88565b6000838152602081815260408083206001600160a01b038e8116855292528083208585039055908b16825281208054849290612724908490613acc565b925050819055505050508061273890613bdd565b9050612619565b50846001600160a01b0316866001600160a01b0316826001600160a01b03167f4a39dc06d4c0dbc64b70af90fd698a233a518aa5d07e595d983b8c0526c8f7fb878760405161278f929190613a3f565b60405180910390a46127a5818787878787612ef2565b505050505050565b610cf68133612ffd565b60008281526003602090815260408083206001600160a01b038516845290915290205460ff16610c895760008281526003602090815260408083206001600160a01b03851684529091529020805460ff191660011790556128153390565b6001600160a01b0316816001600160a01b0316837f2f8788117e7eff1d82e926ec794901d17c78024a50270940304540a733656f0d60405160405180910390a45050565b60008281526003602090815260408083206001600160a01b038516845290915290205460ff1615610c895760008281526003602090815260408083206001600160a01b0385168085529252808320805460ff1916905551339285917ff6391f5c32d9c69d2a47ea670b442974b53935d1edc7fd64eb21e047a839171b9190a45050565b6040517f5d3b1d300000000000000000000000000000000000000000000000000000000081527f0000000000000000000000000000000000000000000000000000000000000000600482015267ffffffffffffffff7f000000000000000000000000000000000000000000000000000000000000000016602482015260016044820181905263ffffffff7f0000000000000000000000000000000000000000000000000000000000000000166064830152608482015260009081906001600160a01b037f00000000000000000000000000000000000000000000000000000000000000001690635d3b1d309060a401602060405180830381600087803b1580156129e557600080fd5b505af11580156129f9573d6000803e3d6000fd5b505050506040513d601f19601f82011682018060405250810190610ac2919061376b565b6000818152600e602052604081205461192b57600080fd5b610c8982826127b7565b816001600160a01b0316836001600160a01b03161415612ac75760405162461bcd60e51b815260206004820152602960248201527f455243313135353a2073657474696e6720617070726f76616c2073746174757360448201527f20666f722073656c6600000000000000000000000000000000000000000000006064820152608401610a88565b6001600160a01b03838116600081815260016020908152604080832094871680845294825291829020805460ff191686151590811790915591519182527f17307eab39ab6107e8899845ad3d59bd9653f200f220920489ca2b5937696c31910160405180910390a3505050565b60006001600160e01b031982167fd9b67a26000000000000000000000000000000000000000000000000000000001480612b9757506001600160e01b031982167f0e89341c00000000000000000000000000000000000000000000000000000000145b80610ac257507f01ffc9a7000000000000000000000000000000000000000000000000000000006001600160e01b0319831614610ac2565b60408051600180825281830190925260609160009190602080830190803683370190505090508281600081518110612c0957612c09613c4e565b602090810291909101015292915050565b6001600160a01b038416612c965760405162461bcd60e51b815260206004820152602160248201527f455243313135353a206d696e7420746f20746865207a65726f2061646472657360448201527f73000000000000000000000000000000000000000000000000000000000000006064820152608401610a88565b336000612ca285612bcf565b90506000612caf85612bcf565b90506000868152602081815260408083206001600160a01b038b16845290915281208054879290612ce1908490613acc565b909155505060408051878152602081018790526001600160a01b03808a1692600092918716917fc3d58168c5ae7397731d063d5bbf3d657854427343f4c083240f7aacaa2d0f62910160405180910390a4612297836000898989895b6001600160a01b0384163b156127a55760405163f23a6e6160e01b81526001600160a01b0385169063f23a6e6190612d81908990899088908890889060040161397a565b602060405180830381600087803b158015612d9b57600080fd5b505af1925050508015612dcb575060408051601f3d908101601f19168201909252612dc89181019061374e565b60015b612e8157612dd7613c7a565b806308c379a01415612e115750612dec613c96565b80612df75750612e13565b8060405162461bcd60e51b8152600401610a889190613a95565b505b60405162461bcd60e51b815260206004820152603460248201527f455243313135353a207472616e7366657220746f206e6f6e204552433131353560448201527f526563656976657220696d706c656d656e7465720000000000000000000000006064820152608401610a88565b6001600160e01b0319811663f23a6e6160e01b146122975760405162461bcd60e51b815260206004820152602860248201527f455243313135353a204552433131353552656365697665722072656a656374656044820152676420746f6b656e7360c01b6064820152608401610a88565b6001600160a01b0384163b156127a55760405163bc197c8160e01b81526001600160a01b0385169063bc197c8190612f36908990899088908890889060040161391c565b602060405180830381600087803b158015612f5057600080fd5b505af1925050508015612f80575060408051601f3d908101601f19168201909252612f7d9181019061374e565b60015b612f8c57612dd7613c7a565b6001600160e01b0319811663bc197c8160e01b146122975760405162461bcd60e51b815260206004820152602860248201527f455243313135353a204552433131353552656365697665722072656a656374656044820152676420746f6b656e7360c01b6064820152608401610a88565b60008281526003602090815260408083206001600160a01b038516845290915290205460ff16610c895761303b816001600160a01b0316601461307d565b61304683602061307d565b60405160200161305792919061389b565b60408051601f198184030181529082905262461bcd60e51b8252610a8891600401613a95565b6060600061308c836002613af8565b613097906002613acc565b67ffffffffffffffff8111156130af576130af613c64565b6040519080825280601f01601f1916602001820160405280156130d9576020820181803683370190505b5090507f30000000000000000000000000000000000000000000000000000000000000008160008151811061311057613110613c4e565b60200101906001600160f81b031916908160001a9053507f78000000000000000000000000000000000000000000000000000000000000008160018151811061315b5761315b613c4e565b60200101906001600160f81b031916908160001a905350600061317f846002613af8565b61318a906001613acc565b90505b600181111561320f577f303132333435363738396162636465660000000000000000000000000000000085600f16601081106131cb576131cb613c4e565b1a60f81b8282815181106131e1576131e1613c4e565b60200101906001600160f81b031916908160001a90535060049490941c9361320881613b5e565b905061318d565b5083156117f45760405162461bcd60e51b815260206004820181905260248201527f537472696e67733a20686578206c656e67746820696e73756666696369656e746044820152606401610a88565b82805461326a90613b75565b90600052602060002090601f01602090048101928261328c57600085556132d2565b82601f106132a557805160ff19168380011785556132d2565b828001600101855582156132d2579182015b828111156132d25782518255916020019190600101906132b7565b506132de9291506132e2565b5090565b5b808211156132de57600081556001016132e3565b600067ffffffffffffffff83111561331157613311613c64565b604051613328601f8501601f191660200182613bb0565b80915083815284848401111561333d57600080fd5b83836020830137600060208583010152509392505050565b80356001600160a01b038116811461336c57600080fd5b919050565b600082601f83011261338257600080fd5b8135602061338f82613aa8565b60405161339c8282613bb0565b8381528281019150858301600585901b870184018810156133bc57600080fd5b60005b858110156133e2576133d082613355565b845292840192908401906001016133bf565b5090979650505050505050565b600082601f83011261340057600080fd5b8135602061340d82613aa8565b60405161341a8282613bb0565b8381528281019150858301600585901b8701840188101561343a57600080fd5b60005b858110156133e25781358452928401929084019060010161343d565b600082601f83011261346a57600080fd5b6117f4838335602085016132f7565b60006020828403121561348b57600080fd5b6117f482613355565b600080604083850312156134a757600080fd5b6134b083613355565b91506134be60208401613355565b90509250929050565b600080600080600060a086880312156134df57600080fd5b6134e886613355565b94506134f660208701613355565b9350604086013567ffffffffffffffff8082111561351357600080fd5b61351f89838a016133ef565b9450606088013591508082111561353557600080fd5b61354189838a016133ef565b9350608088013591508082111561355757600080fd5b5061356488828901613459565b9150509295509295909350565b600080600080600060a0868803121561358957600080fd5b61359286613355565b94506135a060208701613355565b93506040860135925060608601359150608086013567ffffffffffffffff8111156135ca57600080fd5b61356488828901613459565b600080604083850312156135e957600080fd5b6135f283613355565b9150602083013561360281613d20565b809150509250929050565b6000806040838503121561362057600080fd5b61362983613355565b946020939093013593505050565b60006020828403121561364957600080fd5b813567ffffffffffffffff81111561366057600080fd5b61366c84828501613371565b949350505050565b6000806040838503121561368757600080fd5b823567ffffffffffffffff8082111561369f57600080fd5b6136ab86838701613371565b935060208501359150808211156136c157600080fd5b506136ce858286016133ef565b9150509250929050565b6000602082840312156136ea57600080fd5b81516117f481613d20565b60006020828403121561370757600080fd5b5035919050565b6000806040838503121561372157600080fd5b823591506134be60208401613355565b60006020828403121561374357600080fd5b81356117f481613d2e565b60006020828403121561376057600080fd5b81516117f481613d2e565b60006020828403121561377d57600080fd5b5051919050565b6000806040838503121561379757600080fd5b82359150602083013567ffffffffffffffff8111156137b557600080fd5b6136ce858286016133ef565b600080604083850312156137d457600080fd5b82359150602083013567ffffffffffffffff8111156137f257600080fd5b8301601f8101851361380357600080fd5b6136ce858235602084016132f7565b6000806040838503121561382557600080fd5b50508035926020909101359150565b600081518084526020808501945080840160005b8381101561386457815187529582019590820190600101613848565b509495945050505050565b60008151808452613887816020860160208601613b2e565b601f01601f19169290920160200192915050565b7f416363657373436f6e74726f6c3a206163636f756e74200000000000000000008152600083516138d3816017850160208801613b2e565b7f206973206d697373696e6720726f6c65200000000000000000000000000000006017918401918201528351613910816028840160208801613b2e565b01602801949350505050565b60006001600160a01b03808816835280871660208401525060a0604083015261394860a0830186613834565b828103606084015261395a8186613834565b9050828103608084015261396e818561386f565b98975050505050505050565b60006001600160a01b03808816835280871660208401525084604083015283606083015260a060808301526139b260a083018461386f565b979650505050505050565b602080825282518282018190526000919060409081850190868401855b82811015613a1f578151805185528681015187860152858101516001600160a01b031686860152606090810151151590850152608090930192908501906001016139da565b5091979650505050505050565b6020815260006117f46020830184613834565b604081526000613a526040830185613834565b8281036020840152613a648185613834565b95945050505050565b6020810160028310613a8f57634e487b7160e01b600052602160045260246000fd5b91905290565b6020815260006117f4602083018461386f565b600067ffffffffffffffff821115613ac257613ac2613c64565b5060051b60200190565b60008219821115613adf57613adf613c0c565b500190565b600082613af357613af3613c22565b500490565b6000816000190483118215151615613b1257613b12613c0c565b500290565b600082821015613b2957613b29613c0c565b500390565b60005b83811015613b49578181015183820152602001613b31565b83811115613b58576000848401525b50505050565b600081613b6d57613b6d613c0c565b506000190190565b600181811c90821680613b8957607f821691505b60208210811415613baa57634e487b7160e01b600052602260045260246000fd5b50919050565b601f8201601f1916810167ffffffffffffffff81118282101715613bd657613bd6613c64565b6040525050565b6000600019821415613bf157613bf1613c0c565b5060010190565b600082613c0757613c07613c22565b500690565b634e487b7160e01b600052601160045260246000fd5b634e487b7160e01b600052601260045260246000fd5b634e487b7160e01b600052602160045260246000fd5b634e487b7160e01b600052603260045260246000fd5b634e487b7160e01b600052604160045260246000fd5b600060033d1115613c935760046000803e5060005160e01c5b90565b600060443d1015613ca45790565b6040516003193d81016004833e81513d67ffffffffffffffff8160248401118184111715613cd457505050505090565b8285019150815181811115613cec5750505050505090565b843d8701016020828501011115613d065750505050505090565b613d1560208286010187613bb0565b509095945050505050565b8015158114610cf657600080fd5b6001600160e01b031981168114610cf657600080fdfea2646970667358221220b1bf75409fc5d7d194f7f2578f96ed8acab3ac2e3e932da28181cb18b1c8b08664736f6c63430008070033",
  "linkReferences": {},
  "deployedLinkReferences": {}
}