{
  "_format": "hh-sol-artifact-1",
  "contractName": "RacksItems",
  "sourceName": "contracts/RacksItems.sol",
  "abi": [
    {
      "inputs": [
        {
          "internalType": "address",
          "name": "vrfCoordinatorV2",
          "type": "address"
        },
        {
          "internalType": "bytes32",
          "name": "gasLane",
          "type": "bytes32"
        },
        {
          "internalType": "uint64",
          "name": "subscriptionId",
          "type": "uint64"
        },
        {
          "internalType": "uint32",
          "name": "callbackGasLimit",
          "type": "uint32"
        },
        {
          "internalType": "address",
          "name": "_racksTokenAddress",
          "type": "address"
        }
      ],
      "stateMutability": "nonpayable",
      "type": "constructor"
    },
    {
      "inputs": [
        {
          "internalType": "address",
          "name": "have",
          "type": "address"
        },
        {
          "internalType": "address",
          "name": "want",
          "type": "address"
        }
      ],
      "name": "OnlyCoordinatorCanFulfill",
      "type": "error"
    },
    {
      "anonymous": false,
      "inputs": [
        {
          "indexed": true,
          "internalType": "address",
          "name": "account",
          "type": "address"
        },
        {
          "indexed": true,
          "internalType": "address",
          "name": "operator",
          "type": "address"
        },
        {
          "indexed": false,
          "internalType": "bool",
          "name": "approved",
          "type": "bool"
        }
      ],
      "name": "ApprovalForAll",
      "type": "event"
    },
    {
      "anonymous": false,
      "inputs": [
        {
          "indexed": false,
          "internalType": "address",
          "name": "user",
          "type": "address"
        },
        {
          "indexed": false,
          "internalType": "uint256",
          "name": "casePrice",
          "type": "uint256"
        },
        {
          "indexed": false,
          "internalType": "uint256",
          "name": "item",
          "type": "uint256"
        }
      ],
      "name": "CaseOpened",
      "type": "event"
    },
    {
      "anonymous": false,
      "inputs": [
        {
          "indexed": true,
          "internalType": "bytes32",
          "name": "role",
          "type": "bytes32"
        },
        {
          "indexed": true,
          "internalType": "bytes32",
          "name": "previousAdminRole",
          "type": "bytes32"
        },
        {
          "indexed": true,
          "internalType": "bytes32",
          "name": "newAdminRole",
          "type": "bytes32"
        }
      ],
      "name": "RoleAdminChanged",
      "type": "event"
    },
    {
      "anonymous": false,
      "inputs": [
        {
          "indexed": true,
          "internalType": "bytes32",
          "name": "role",
          "type": "bytes32"
        },
        {
          "indexed": true,
          "internalType": "address",
          "name": "account",
          "type": "address"
        },
        {
          "indexed": true,
          "internalType": "address",
          "name": "sender",
          "type": "address"
        }
      ],
      "name": "RoleGranted",
      "type": "event"
    },
    {
      "anonymous": false,
      "inputs": [
        {
          "indexed": true,
          "internalType": "bytes32",
          "name": "role",
          "type": "bytes32"
        },
        {
          "indexed": true,
          "internalType": "address",
          "name": "account",
          "type": "address"
        },
        {
          "indexed": true,
          "internalType": "address",
          "name": "sender",
          "type": "address"
        }
      ],
      "name": "RoleRevoked",
      "type": "event"
    },
    {
      "anonymous": false,
      "inputs": [
        {
          "indexed": true,
          "internalType": "address",
          "name": "operator",
          "type": "address"
        },
        {
          "indexed": true,
          "internalType": "address",
          "name": "from",
          "type": "address"
        },
        {
          "indexed": true,
          "internalType": "address",
          "name": "to",
          "type": "address"
        },
        {
          "indexed": false,
          "internalType": "uint256[]",
          "name": "ids",
          "type": "uint256[]"
        },
        {
          "indexed": false,
          "internalType": "uint256[]",
          "name": "values",
          "type": "uint256[]"
        }
      ],
      "name": "TransferBatch",
      "type": "event"
    },
    {
      "anonymous": false,
      "inputs": [
        {
          "indexed": true,
          "internalType": "address",
          "name": "operator",
          "type": "address"
        },
        {
          "indexed": true,
          "internalType": "address",
          "name": "from",
          "type": "address"
        },
        {
          "indexed": true,
          "internalType": "address",
          "name": "to",
          "type": "address"
        },
        {
          "indexed": false,
          "internalType": "uint256",
          "name": "id",
          "type": "uint256"
        },
        {
          "indexed": false,
          "internalType": "uint256",
          "name": "value",
          "type": "uint256"
        }
      ],
      "name": "TransferSingle",
      "type": "event"
    },
    {
      "anonymous": false,
      "inputs": [
        {
          "indexed": false,
          "internalType": "string",
          "name": "value",
          "type": "string"
        },
        {
          "indexed": true,
          "internalType": "uint256",
          "name": "id",
          "type": "uint256"
        }
      ],
      "name": "URI",
      "type": "event"
    },
    {
      "anonymous": false,
      "inputs": [
        {
          "indexed": false,
          "internalType": "uint256",
          "name": "newPrice",
          "type": "uint256"
        }
      ],
      "name": "casePriceChanged",
      "type": "event"
    },
    {
      "anonymous": false,
      "inputs": [
        {
          "indexed": false,
          "internalType": "address",
          "name": "buyer",
          "type": "address"
        },
        {
          "indexed": false,
          "internalType": "address",
          "name": "seller",
          "type": "address"
        },
        {
          "indexed": false,
          "internalType": "uint256",
          "name": "marketItemId",
          "type": "uint256"
        },
        {
          "indexed": false,
          "internalType": "uint256",
          "name": "price",
          "type": "uint256"
        }
      ],
      "name": "itemBought",
      "type": "event"
    },
    {
      "anonymous": false,
      "inputs": [
        {
          "indexed": false,
          "internalType": "address",
          "name": "user",
          "type": "address"
        },
        {
          "indexed": false,
          "internalType": "uint256",
          "name": "tokenId",
          "type": "uint256"
        }
      ],
      "name": "itemExchanged",
      "type": "event"
    },
    {
      "anonymous": false,
      "inputs": [
        {
          "indexed": false,
          "internalType": "address",
          "name": "user",
          "type": "address"
        },
        {
          "indexed": false,
          "internalType": "uint256",
          "name": "tokenId",
          "type": "uint256"
        },
        {
          "indexed": false,
          "internalType": "uint256",
          "name": "price",
          "type": "uint256"
        }
      ],
      "name": "sellingItem",
      "type": "event"
    },
    {
      "inputs": [],
      "name": "ADMIN_ROLE",
      "outputs": [
        {
          "internalType": "bytes32",
          "name": "",
          "type": "bytes32"
        }
      ],
      "stateMutability": "view",
      "type": "function"
    },
    {
      "inputs": [],
      "name": "DEFAULT_ADMIN_ROLE",
      "outputs": [
        {
          "internalType": "bytes32",
          "name": "",
          "type": "bytes32"
        }
      ],
      "stateMutability": "view",
      "type": "function"
    },
    {
      "inputs": [],
      "name": "NUM_WORDS",
      "outputs": [
        {
          "internalType": "uint32",
          "name": "",
          "type": "uint32"
        }
      ],
      "stateMutability": "view",
      "type": "function"
    },
    {
      "inputs": [],
      "name": "REQUEST_CONFIRMATIONS",
      "outputs": [
        {
          "internalType": "uint16",
          "name": "",
          "type": "uint16"
        }
      ],
      "stateMutability": "view",
      "type": "function"
    },
    {
      "inputs": [],
      "name": "_randomNumber",
      "outputs": [
        {
          "internalType": "uint256",
          "name": "",
          "type": "uint256"
        }
      ],
      "stateMutability": "nonpayable",
      "type": "function"
    },
    {
      "inputs": [
        {
          "internalType": "uint256",
          "name": "tokenId",
          "type": "uint256"
        }
      ],
      "name": "_rarityOfItem",
      "outputs": [
        {
          "internalType": "uint256",
          "name": "",
          "type": "uint256"
        }
      ],
      "stateMutability": "view",
      "type": "function"
    },
    {
      "inputs": [
        {
          "internalType": "address",
          "name": "account",
          "type": "address"
        },
        {
          "internalType": "uint256",
          "name": "id",
          "type": "uint256"
        }
      ],
      "name": "balanceOf",
      "outputs": [
        {
          "internalType": "uint256",
          "name": "",
          "type": "uint256"
        }
      ],
      "stateMutability": "view",
      "type": "function"
    },
    {
      "inputs": [
        {
          "internalType": "address[]",
          "name": "accounts",
          "type": "address[]"
        },
        {
          "internalType": "uint256[]",
          "name": "ids",
          "type": "uint256[]"
        }
      ],
      "name": "balanceOfBatch",
      "outputs": [
        {
          "internalType": "uint256[]",
          "name": "",
          "type": "uint256[]"
        }
      ],
      "stateMutability": "view",
      "type": "function"
    },
    {
      "inputs": [
        {
          "internalType": "uint256",
          "name": "marketItemId",
          "type": "uint256"
        }
      ],
      "name": "buyItem",
      "outputs": [],
      "stateMutability": "payable",
      "type": "function"
    },
    {
      "inputs": [],
      "name": "casePrice",
      "outputs": [
        {
          "internalType": "uint256",
          "name": "",
          "type": "uint256"
        }
      ],
      "stateMutability": "view",
      "type": "function"
    },
    {
      "inputs": [],
      "name": "contractActive",
      "outputs": [
        {
          "internalType": "bool",
          "name": "",
          "type": "bool"
        }
      ],
      "stateMutability": "view",
      "type": "function"
    },
    {
      "inputs": [
        {
          "internalType": "uint256",
          "name": "tokenId",
          "type": "uint256"
        }
      ],
      "name": "exchangeItem",
      "outputs": [],
      "stateMutability": "nonpayable",
      "type": "function"
    },
    {
      "inputs": [],
      "name": "flipContractState",
      "outputs": [],
      "stateMutability": "nonpayable",
      "type": "function"
    },
    {
      "inputs": [],
      "name": "getCasePrice",
      "outputs": [
        {
          "internalType": "uint256",
          "name": "",
          "type": "uint256"
        }
      ],
      "stateMutability": "view",
      "type": "function"
    },
    {
      "inputs": [],
      "name": "getItemsOnSale",
      "outputs": [
        {
          "components": [
            {
              "internalType": "uint256",
              "name": "tokenId",
              "type": "uint256"
            },
            {
              "internalType": "uint256",
              "name": "marketItemId",
              "type": "uint256"
            },
            {
              "internalType": "uint256",
              "name": "price",
              "type": "uint256"
            },
            {
              "internalType": "address payable",
              "name": "seller",
              "type": "address"
            },
            {
              "internalType": "bool",
              "name": "sold",
              "type": "bool"
            }
          ],
          "internalType": "struct RacksItems.itemOnSale[]",
          "name": "",
          "type": "tuple[]"
        }
      ],
      "stateMutability": "view",
      "type": "function"
    },
    {
      "inputs": [
        {
          "internalType": "uint256",
          "name": "marketItemId",
          "type": "uint256"
        }
      ],
      "name": "getMarketItem",
      "outputs": [
        {
          "components": [
            {
              "internalType": "uint256",
              "name": "tokenId",
              "type": "uint256"
            },
            {
              "internalType": "uint256",
              "name": "marketItemId",
              "type": "uint256"
            },
            {
              "internalType": "uint256",
              "name": "price",
              "type": "uint256"
            },
            {
              "internalType": "address payable",
              "name": "seller",
              "type": "address"
            },
            {
              "internalType": "bool",
              "name": "sold",
              "type": "bool"
            }
          ],
          "internalType": "struct RacksItems.itemOnSale",
          "name": "",
          "type": "tuple"
        }
      ],
      "stateMutability": "view",
      "type": "function"
    },
    {
      "inputs": [
        {
          "internalType": "bytes32",
          "name": "role",
          "type": "bytes32"
        }
      ],
      "name": "getRoleAdmin",
      "outputs": [
        {
          "internalType": "bytes32",
          "name": "",
          "type": "bytes32"
        }
      ],
      "stateMutability": "view",
      "type": "function"
    },
    {
      "inputs": [
        {
          "internalType": "bytes32",
          "name": "role",
          "type": "bytes32"
        },
        {
          "internalType": "address",
          "name": "account",
          "type": "address"
        }
      ],
      "name": "grantRole",
      "outputs": [],
      "stateMutability": "nonpayable",
      "type": "function"
    },
    {
      "inputs": [
        {
          "internalType": "bytes32",
          "name": "role",
          "type": "bytes32"
        },
        {
          "internalType": "address",
          "name": "account",
          "type": "address"
        }
      ],
      "name": "hasRole",
      "outputs": [
        {
          "internalType": "bool",
          "name": "",
          "type": "bool"
        }
      ],
      "stateMutability": "view",
      "type": "function"
    },
    {
      "inputs": [],
      "name": "i_MrCryptoAddress",
      "outputs": [
        {
          "internalType": "address",
          "name": "",
          "type": "address"
        }
      ],
      "stateMutability": "view",
      "type": "function"
    },
    {
      "inputs": [],
      "name": "i_callbackGasLimit",
      "outputs": [
        {
          "internalType": "uint32",
          "name": "",
          "type": "uint32"
        }
      ],
      "stateMutability": "view",
      "type": "function"
    },
    {
      "inputs": [],
      "name": "i_gasLane",
      "outputs": [
        {
          "internalType": "bytes32",
          "name": "",
          "type": "bytes32"
        }
      ],
      "stateMutability": "view",
      "type": "function"
    },
    {
      "inputs": [],
      "name": "i_subscriptionId",
      "outputs": [
        {
          "internalType": "uint64",
          "name": "",
          "type": "uint64"
        }
      ],
      "stateMutability": "view",
      "type": "function"
    },
    {
      "inputs": [],
      "name": "i_vrfCoordinator",
      "outputs": [
        {
          "internalType": "contract VRFCoordinatorV2Interface",
          "name": "",
          "type": "address"
        }
      ],
      "stateMutability": "view",
      "type": "function"
    },
    {
      "inputs": [
        {
          "internalType": "address",
          "name": "account",
          "type": "address"
        },
        {
          "internalType": "address",
          "name": "operator",
          "type": "address"
        }
      ],
      "name": "isApprovedForAll",
      "outputs": [
        {
          "internalType": "bool",
          "name": "",
          "type": "bool"
        }
      ],
      "stateMutability": "view",
      "type": "function"
    },
    {
      "inputs": [
        {
          "internalType": "address",
          "name": "user",
          "type": "address"
        }
      ],
      "name": "isVip",
      "outputs": [
        {
          "internalType": "bool",
          "name": "",
          "type": "bool"
        }
      ],
      "stateMutability": "view",
      "type": "function"
    },
    {
      "inputs": [
        {
          "internalType": "uint256",
          "name": "itemSupply",
          "type": "uint256"
        }
      ],
      "name": "listItem",
      "outputs": [],
      "stateMutability": "nonpayable",
      "type": "function"
    },
    {
      "inputs": [
        {
          "internalType": "address",
          "name": "",
          "type": "address"
        },
        {
          "internalType": "address",
          "name": "",
          "type": "address"
        },
        {
          "internalType": "uint256[]",
          "name": "",
          "type": "uint256[]"
        },
        {
          "internalType": "uint256[]",
          "name": "",
          "type": "uint256[]"
        },
        {
          "internalType": "bytes",
          "name": "",
          "type": "bytes"
        }
      ],
      "name": "onERC1155BatchReceived",
      "outputs": [
        {
          "internalType": "bytes4",
          "name": "",
          "type": "bytes4"
        }
      ],
      "stateMutability": "nonpayable",
      "type": "function"
    },
    {
      "inputs": [
        {
          "internalType": "address",
          "name": "",
          "type": "address"
        },
        {
          "internalType": "address",
          "name": "",
          "type": "address"
        },
        {
          "internalType": "uint256",
          "name": "",
          "type": "uint256"
        },
        {
          "internalType": "uint256",
          "name": "",
          "type": "uint256"
        },
        {
          "internalType": "bytes",
          "name": "",
          "type": "bytes"
        }
      ],
      "name": "onERC1155Received",
      "outputs": [
        {
          "internalType": "bytes4",
          "name": "",
          "type": "bytes4"
        }
      ],
      "stateMutability": "nonpayable",
      "type": "function"
    },
    {
      "inputs": [],
      "name": "openCase",
      "outputs": [],
      "stateMutability": "nonpayable",
      "type": "function"
    },
    {
      "inputs": [
        {
          "internalType": "uint256",
          "name": "requestId",
          "type": "uint256"
        },
        {
          "internalType": "uint256[]",
          "name": "randomWords",
          "type": "uint256[]"
        }
      ],
      "name": "rawFulfillRandomWords",
      "outputs": [],
      "stateMutability": "nonpayable",
      "type": "function"
    },
    {
      "inputs": [
        {
          "internalType": "address[]",
          "name": "users",
          "type": "address[]"
        }
      ],
      "name": "removeListRacksMembers",
      "outputs": [],
      "stateMutability": "nonpayable",
      "type": "function"
    },
    {
      "inputs": [
        {
          "internalType": "address",
          "name": "user",
          "type": "address"
        }
      ],
      "name": "removeSingleRacksMember",
      "outputs": [],
      "stateMutability": "nonpayable",
      "type": "function"
    },
    {
      "inputs": [
        {
          "internalType": "bytes32",
          "name": "role",
          "type": "bytes32"
        },
        {
          "internalType": "address",
          "name": "account",
          "type": "address"
        }
      ],
      "name": "renounceRole",
      "outputs": [],
      "stateMutability": "nonpayable",
      "type": "function"
    },
    {
      "inputs": [
        {
          "internalType": "bytes32",
          "name": "role",
          "type": "bytes32"
        },
        {
          "internalType": "address",
          "name": "account",
          "type": "address"
        }
      ],
      "name": "revokeRole",
      "outputs": [],
      "stateMutability": "nonpayable",
      "type": "function"
    },
    {
      "inputs": [],
      "name": "s_contractState",
      "outputs": [
        {
          "internalType": "enum RacksItems.ContractState",
          "name": "",
          "type": "uint8"
        }
      ],
      "stateMutability": "view",
      "type": "function"
    },
    {
      "inputs": [],
      "name": "s_randomWord",
      "outputs": [
        {
          "internalType": "uint256",
          "name": "",
          "type": "uint256"
        }
      ],
      "stateMutability": "view",
      "type": "function"
    },
    {
      "inputs": [
        {
          "internalType": "address",
          "name": "from",
          "type": "address"
        },
        {
          "internalType": "address",
          "name": "to",
          "type": "address"
        },
        {
          "internalType": "uint256[]",
          "name": "ids",
          "type": "uint256[]"
        },
        {
          "internalType": "uint256[]",
          "name": "amounts",
          "type": "uint256[]"
        },
        {
          "internalType": "bytes",
          "name": "data",
          "type": "bytes"
        }
      ],
      "name": "safeBatchTransferFrom",
      "outputs": [],
      "stateMutability": "nonpayable",
      "type": "function"
    },
    {
      "inputs": [
        {
          "internalType": "address",
          "name": "from",
          "type": "address"
        },
        {
          "internalType": "address",
          "name": "to",
          "type": "address"
        },
        {
          "internalType": "uint256",
          "name": "id",
          "type": "uint256"
        },
        {
          "internalType": "uint256",
          "name": "amount",
          "type": "uint256"
        },
        {
          "internalType": "bytes",
          "name": "data",
          "type": "bytes"
        }
      ],
      "name": "safeTransferFrom",
      "outputs": [],
      "stateMutability": "nonpayable",
      "type": "function"
    },
    {
      "inputs": [
        {
          "internalType": "uint256",
          "name": "tokenId",
          "type": "uint256"
        },
        {
          "internalType": "uint256",
          "name": "price",
          "type": "uint256"
        }
      ],
      "name": "sellItem",
      "outputs": [],
      "stateMutability": "nonpayable",
      "type": "function"
    },
    {
      "inputs": [
        {
          "internalType": "address",
          "name": "_newAdmin",
          "type": "address"
        }
      ],
      "name": "setAdmin",
      "outputs": [],
      "stateMutability": "nonpayable",
      "type": "function"
    },
    {
      "inputs": [
        {
          "internalType": "address",
          "name": "operator",
          "type": "address"
        },
        {
          "internalType": "bool",
          "name": "approved",
          "type": "bool"
        }
      ],
      "name": "setApprovalForAll",
      "outputs": [],
      "stateMutability": "nonpayable",
      "type": "function"
    },
    {
      "inputs": [
        {
          "internalType": "uint256",
          "name": "price",
          "type": "uint256"
        }
      ],
      "name": "setCasePrice",
      "outputs": [],
      "stateMutability": "nonpayable",
      "type": "function"
    },
    {
      "inputs": [
        {
          "internalType": "address[]",
          "name": "users",
          "type": "address[]"
        }
      ],
      "name": "setListRacksMembers",
      "outputs": [],
      "stateMutability": "nonpayable",
      "type": "function"
    },
    {
      "inputs": [
        {
          "internalType": "address",
          "name": "user",
          "type": "address"
        }
      ],
      "name": "setSingleRacksMember",
      "outputs": [],
      "stateMutability": "nonpayable",
      "type": "function"
    },
    {
      "inputs": [
        {
          "internalType": "uint256",
          "name": "tokenId",
          "type": "uint256"
        },
        {
          "internalType": "string",
          "name": "_uri",
          "type": "string"
        }
      ],
      "name": "setTokenUri",
      "outputs": [],
      "stateMutability": "nonpayable",
      "type": "function"
    },
    {
      "inputs": [
        {
          "internalType": "uint256",
          "name": "tokenId",
          "type": "uint256"
        }
      ],
      "name": "supplyOfItem",
      "outputs": [
        {
          "internalType": "uint256",
          "name": "",
          "type": "uint256"
        }
      ],
      "stateMutability": "view",
      "type": "function"
    },
    {
      "inputs": [
        {
          "internalType": "bytes4",
          "name": "interfaceId",
          "type": "bytes4"
        }
      ],
      "name": "supportsInterface",
      "outputs": [
        {
          "internalType": "bool",
          "name": "",
          "type": "bool"
        }
      ],
      "stateMutability": "view",
      "type": "function"
    },
    {
      "inputs": [
        {
          "internalType": "uint256",
          "name": "tokenId",
          "type": "uint256"
        }
      ],
      "name": "uri",
      "outputs": [
        {
          "internalType": "string",
          "name": "",
          "type": "string"
        }
      ],
      "stateMutability": "view",
      "type": "function"
    },
    {
      "inputs": [
        {
          "internalType": "address",
          "name": "owner",
          "type": "address"
        }
      ],
      "name": "viewItems",
      "outputs": [
        {
          "internalType": "uint256[]",
          "name": "",
          "type": "uint256[]"
        }
      ],
      "stateMutability": "view",
      "type": "function"
    },
    {
      "inputs": [
        {
          "internalType": "address",
          "name": "wallet",
          "type": "address"
        }
      ],
      "name": "withdrawAllFunds",
      "outputs": [],
      "stateMutability": "nonpayable",
      "type": "function"
    },
    {
      "inputs": [
        {
          "internalType": "address",
          "name": "wallet",
          "type": "address"
        },
        {
          "internalType": "uint256",
          "name": "amount",
          "type": "uint256"
        }
      ],
      "name": "withdrawFunds",
      "outputs": [],
      "stateMutability": "nonpayable",
      "type": "function"
    },
    {
      "stateMutability": "payable",
      "type": "receive"
    }
  ],
  "bytecode": "0x610120604052600b805460ff191660011790553480156200001f57600080fd5b50604051620042fb380380620042fb8339810160408190526200004291620001e7565b60408051602081019091526000815285906200005e816200010b565b50606090811b6001600160601b031990811660805295901b90941660a05260c0928352911b6001600160c01b03191660e09081521b6001600160e01b031916610100526004805473ef453154766505feb9dbf0a58e6990fd6eb669696001600160a01b0319918216179091556005805482166001600160a01b0393909316929092179091556006805433921691909117905560006008556001600a55600b805461ff0019169055620002a4565b80516200012090600290602084019062000124565b5050565b828054620001329062000267565b90600052602060002090601f016020900481019282620001565760008555620001a1565b82601f106200017157805160ff1916838001178555620001a1565b82800160010185558215620001a1579182015b82811115620001a157825182559160200191906001019062000184565b50620001af929150620001b3565b5090565b5b80821115620001af5760008155600101620001b4565b80516001600160a01b0381168114620001e257600080fd5b919050565b600080600080600060a086880312156200020057600080fd5b6200020b86620001ca565b6020870151604088015191965094506001600160401b03811681146200023057600080fd5b606087015190935063ffffffff811681146200024b57600080fd5b91506200025b60808701620001ca565b90509295509295909350565b600181811c908216806200027c57607f821691505b602082108114156200029e57634e487b7160e01b600052602260045260246000fd5b50919050565b60805160601c60a05160601c60c05160e05160c01c6101005160e01c613fe362000318600039600081816109b3015261180a01526000818161058f01526117d701526000818161079a01526117a80152600081816108490152611845015260008181610ce30152610d3e0152613fe36000f3fe6080604052600436106103425760003560e01c806389165aa9116101b0578063c7be7a49116100ec578063e289fcb611610095578063f23a6e611161006f578063f23a6e6114610a60578063f242432a14610a8c578063f48c9d3414610aac578063fd210fd914610acc57600080fd5b8063e289fcb6146109ea578063e7fb74c714610a04578063e985e9c514610a1757600080fd5b8063d547741f116100c6578063d547741f14610981578063d757d027146109a1578063de08f653146109d557600080fd5b8063c7be7a491461091e578063c7e05f8d1461094b578063ca90958f1461096b57600080fd5b8063a217fddf11610159578063b63b861211610133578063b63b86121461086b578063bbcbc2e714610897578063bc197c81146108b9578063c1075329146108fe57600080fd5b8063a217fddf146106f3578063a22cb46514610817578063aebc45501461083757600080fd5b80638e879c8a1161018a5780638e879c8a1461078857806391d14854146107bc578063976298f31461080257600080fd5b806389165aa9146107285780638ba8b15a146107485780638dc5f45b1461076857600080fd5b806336568abe1161027f57806357f7789e11610228578063704b6c0211610202578063704b6c02146106a957806372cf6e34146106c957806375b238fc146106f357806384203f4b1461070857600080fd5b806357f7789e1461064c578063616524501461066c57806367f082b01461068157600080fd5b80634e1273f4116102595780634e1273f4146105df5780635408c3191461060c57806354e889f61461062c57600080fd5b806336568abe1461055d578063470cdf971461057d5780634a226657146105ca57600080fd5b806320ba0814116102ec5780632d923561116102c65780632d923561146104dd5780632eb2c2d6146104fd5780632f2ff15d1461051d57806332dee40b1461053d57600080fd5b806320ba081414610460578063248a9ca31461048d5780632ce38190146104bd57600080fd5b8063109b82781161031d578063109b8278146103de5780631cb0b2731461041e5780631fe543e31461044057600080fd5b8062fdd58e1461034e57806301ffc9a7146103815780630e89341c146103b157600080fd5b3661034957005b600080fd5b34801561035a57600080fd5b5061036e61036936600461381d565b610ae2565b6040519081526020015b60405180910390f35b34801561038d57600080fd5b506103a161039c366004613941565b610b8e565b6040519015158152602001610378565b3480156103bd57600080fd5b506103d16103cc366004613905565b610b99565b6040516103789190613cba565b3480156103ea57600080fd5b5061040673ef453154766505feb9dbf0a58e6990fd6eb6696981565b6040516001600160a01b039091168152602001610378565b34801561042a57600080fd5b5061043e610439366004613905565b610c3b565b005b34801561044c57600080fd5b5061043e61045b366004613994565b610cd8565b34801561046c57600080fd5b5061036e61047b366004613905565b6000908152600f602052604090205490565b34801561049957600080fd5b5061036e6104a8366004613905565b60009081526003602052604090206001015490565b3480156104c957600080fd5b5061043e6104d8366004613905565b610d79565b3480156104e957600080fd5b5061043e6104f8366004613a22565b610de5565b34801561050957600080fd5b5061043e6105183660046136d7565b610fd4565b34801561052957600080fd5b5061043e61053836600461391e565b611076565b34801561054957600080fd5b5061043e610558366004613689565b6110a0565b34801561056957600080fd5b5061043e61057836600461391e565b6111cf565b34801561058957600080fd5b506105b17f000000000000000000000000000000000000000000000000000000000000000081565b60405167ffffffffffffffff9091168152602001610378565b3480156105d657600080fd5b5061043e611257565b3480156105eb57600080fd5b506105ff6105fa366004613884565b611412565b6040516103789190613c51565b34801561061857600080fd5b5061043e610627366004613847565b611550565b34801561063857600080fd5b5061043e610647366004613689565b611617565b34801561065857600080fd5b5061043e6106673660046139d1565b61169a565b34801561067857600080fd5b5061036e611780565b34801561068d57600080fd5b50610696600381565b60405161ffff9091168152602001610378565b3480156106b557600080fd5b5061043e6106c4366004613689565b6118c1565b3480156106d557600080fd5b506106de600281565b60405163ffffffff9091168152602001610378565b3480156106ff57600080fd5b5061036e600081565b34801561071457600080fd5b506103a1610723366004613689565b611926565b34801561073457600080fd5b5061043e610743366004613847565b6119f9565b34801561075457600080fd5b5061043e610763366004613689565b611ac0565b34801561077457600080fd5b5061043e610783366004613905565b611b40565b34801561079457600080fd5b5061036e7f000000000000000000000000000000000000000000000000000000000000000081565b3480156107c857600080fd5b506103a16107d736600461391e565b60009182526003602090815260408084206001600160a01b0393909316845291905290205460ff1690565b34801561080e57600080fd5b50600a5461036e565b34801561082357600080fd5b5061043e6108323660046137e6565b611bd4565b34801561084357600080fd5b506104067f000000000000000000000000000000000000000000000000000000000000000081565b34801561087757600080fd5b50600b5461088a90610100900460ff1681565b6040516103789190613c92565b3480156108a357600080fd5b506108ac611bdf565b6040516103789190613bcd565b3480156108c557600080fd5b506108e56108d43660046136d7565b63bc197c8160e01b95945050505050565b6040516001600160e01b03199091168152602001610378565b34801561090a57600080fd5b5061043e61091936600461381d565b611dea565b34801561092a57600080fd5b5061093e610939366004613905565b611f1a565b6040516103789190613ccd565b34801561095757600080fd5b5061036e610966366004613905565b611fcd565b34801561097757600080fd5b5061036e600a5481565b34801561098d57600080fd5b5061043e61099c36600461391e565b612004565b3480156109ad57600080fd5b506106de7f000000000000000000000000000000000000000000000000000000000000000081565b3480156109e157600080fd5b5061043e612029565b3480156109f657600080fd5b50600b546103a19060ff1681565b61043e610a12366004613905565b6120ca565b348015610a2357600080fd5b506103a1610a323660046136a4565b6001600160a01b03918216600090815260016020908152604080832093909416825291909152205460ff1690565b348015610a6c57600080fd5b506108e5610a7b366004613781565b63f23a6e6160e01b95945050505050565b348015610a9857600080fd5b5061043e610aa7366004613781565b61228f565b348015610ab857600080fd5b506105ff610ac7366004613689565b61232a565b348015610ad857600080fd5b5061036e600d5481565b60006001600160a01b038316610b655760405162461bcd60e51b815260206004820152602b60248201527f455243313135353a2062616c616e636520717565727920666f7220746865207a60448201527f65726f206164647265737300000000000000000000000000000000000000000060648201526084015b60405180910390fd5b506000818152602081815260408083206001600160a01b03861684529091529020545b92915050565b6000610b88826123c1565b6000818152601060205260409020805460609190610bb690613dde565b80601f0160208091040260200160405190810160405280929190818152602001828054610be290613dde565b8015610c2f5780601f10610c0457610100808354040283529160200191610c2f565b820191906000526020600020905b815481529060010190602001808311610c1257829003601f168201915b50505050509050919050565b6000610c473383610ae2565b11610c5157600080fd5b610c5d338260016123ff565b6000818152600f60205260408120805460019290610c7c908490613d80565b92505081905550600160076000828254610c969190613d80565b909155505060408051338152602081018390527f9e90d55d2f1f115ffe1b87372c45f27f6b3a2b5ba392942167be78456189009491015b60405180910390a150565b336001600160a01b037f00000000000000000000000000000000000000000000000000000000000000001614610d6b576040517f1cf993f40000000000000000000000000000000000000000000000000000000081523360048201526001600160a01b037f0000000000000000000000000000000000000000000000000000000000000000166024820152604401610b5c565b610d7582826125b3565b5050565b610d82336125d8565b610dd85760405162461bcd60e51b815260206004820152602160248201527f55736572206973206e6f7420746865204f776e6572206f7220616e2041646d696044820152603760f91b6064820152608401610b5c565b610de23082612637565b50565b6000610df13384610ae2565b11610e3e5760405162461bcd60e51b815260206004820152600f60248201527f4974656d206e6f7420666f756e642e00000000000000000000000000000000006044820152606401610b5c565b610e5b3330846001604051806020016040528060008152506126a2565b6040805160a08101825283815260098054602083019081529282018481523360608401908152600060808501818152600c8054600181018255908352955160049096027fdf6966c971051c3d54ec59162606531493a51404a002842f56009d7e5cf4a8c781019690965595517fdf6966c971051c3d54ec59162606531493a51404a002842f56009d7e5cf4a8c886015591517fdf6966c971051c3d54ec59162606531493a51404a002842f56009d7e5cf4a8c9850155517fdf6966c971051c3d54ec59162606531493a51404a002842f56009d7e5cf4a8ca909301805494511515600160a01b027fffffffffffffffffffffff0000000000000000000000000000000000000000009095166001600160a01b03949094169390931793909317909155805491610f8983613e46565b909155505060408051338152602081018490529081018290527f23cba88d6c6f26b62b2cfc32a2cc04fbbde8590188b97cd3590e45af9ac6dd6d906060015b60405180910390a15050565b6001600160a01b038516331480610ff05750610ff08533610a32565b6110625760405162461bcd60e51b815260206004820152603260248201527f455243313135353a207472616e736665722063616c6c6572206973206e6f742060448201527f6f776e6572206e6f7220617070726f76656400000000000000000000000000006064820152608401610b5c565b61106f858585858561284d565b5050505050565b60008281526003602052604090206001015461109181612ac0565b61109b8383612aca565b505050565b6006546001600160a01b031633146110fa5760405162461bcd60e51b815260206004820152601560248201527f55736572206973206e6f7420746865206f776e657200000000000000000000006044820152606401610b5c565b6000471161114a5760405162461bcd60e51b815260206004820152601460248201527f4e6f2066756e647320746f2077697468647261770000000000000000000000006044820152606401610b5c565b60055460405163a9059cbb60e01b81526001600160a01b0383811660048301524760248301529091169063a9059cbb90604401602060405180830381600087803b15801561119757600080fd5b505af11580156111ab573d6000803e3d6000fd5b505050506040513d601f19601f82011682018060405250810190610d7591906138e8565b6001600160a01b038116331461124d5760405162461bcd60e51b815260206004820152602f60248201527f416363657373436f6e74726f6c3a2063616e206f6e6c792072656e6f756e636560448201527f20726f6c657320666f722073656c6600000000000000000000000000000000006064820152608401610b5c565b610d758282612b6c565b600554600a546040516323b872dd60e01b815233600482015230602482015260448101919091526001600160a01b03909116906323b872dd90606401602060405180830381600087803b1580156112ad57600080fd5b505af11580156112c1573d6000803e3d6000fd5b505050506040513d601f19601f820116820180604052508101906112e591906138e8565b5060006007546112f3611780565b6112fd9190613e61565b9050600080805b6008548110156113c8576000818152600f60205260408120546113279085613d35565b905083851115611339578093506113b5565b611344600183613d80565b92506113503084610ae2565b611392576000611361600185613d80565b90505b60006113703083610ae2565b111561137e57809350611390565b8061138881613dc7565b915050611364565b505b6113af3033856001604051806020016040528060008152506126a2565b506113c8565b50806113c081613e46565b915050611304565b50600a5460408051338152602081019290925281018290527fea32e37a2618dbb680c93d891742e9e13b30d184822562a0ee3c09290fd42b439060600160405180910390a1505050565b6060815183511461148b5760405162461bcd60e51b815260206004820152602960248201527f455243313135353a206163636f756e747320616e6420696473206c656e67746860448201527f206d69736d6174636800000000000000000000000000000000000000000000006064820152608401610b5c565b6000835167ffffffffffffffff8111156114a7576114a7613ecd565b6040519080825280602002602001820160405280156114d0578160200160208202803683370190505b50905060005b84518110156115485761151b8582815181106114f4576114f4613eb7565b602002602001015185838151811061150e5761150e613eb7565b6020026020010151610ae2565b82828151811061152d5761152d613eb7565b602090810291909101015261154181613e46565b90506114d6565b509392505050565b611559336125d8565b6115af5760405162461bcd60e51b815260206004820152602160248201527f55736572206973206e6f7420746865204f776e6572206f7220616e2041646d696044820152603760f91b6064820152608401610b5c565b60005b8151811015610d75576000600e60008484815181106115d3576115d3613eb7565b6020908102919091018101516001600160a01b03168252810191909152604001600020805460ff19169115159190911790558061160f81613e46565b9150506115b2565b611620336125d8565b6116765760405162461bcd60e51b815260206004820152602160248201527f55736572206973206e6f7420746865204f776e6572206f7220616e2041646d696044820152603760f91b6064820152608401610b5c565b6001600160a01b03166000908152600e60205260409020805460ff19166001179055565b6116a3336125d8565b6116f95760405162461bcd60e51b815260206004820152602160248201527f55736572206973206e6f7420746865204f776e6572206f7220616e2041646d696044820152603760f91b6064820152608401610b5c565b6000828152601060205260409020805461171290613dde565b1590506117615760405162461bcd60e51b815260206004820152601560248201527f43616e206e6f74207365742075726920747769636500000000000000000000006044820152606401610b5c565b6000828152601060209081526040909120825161109b9284019061346e565b6040517f5d3b1d300000000000000000000000000000000000000000000000000000000081527f0000000000000000000000000000000000000000000000000000000000000000600482015267ffffffffffffffff7f00000000000000000000000000000000000000000000000000000000000000001660248201526003604482015263ffffffff7f00000000000000000000000000000000000000000000000000000000000000001660648201526002608482015260009081906001600160a01b037f00000000000000000000000000000000000000000000000000000000000000001690635d3b1d309060a401602060405180830381600087803b15801561188957600080fd5b505af115801561189d573d6000803e3d6000fd5b505050506040513d601f19601f82011682018060405250810190610b88919061397b565b6006546001600160a01b0316331461191b5760405162461bcd60e51b815260206004820152601560248201527f55736572206973206e6f7420746865206f776e657200000000000000000000006044820152606401610b5c565b610de2600082612bef565b600480546040517f70a082310000000000000000000000000000000000000000000000000000000081526001600160a01b0384811693820193909352600092839216906370a082319060240160206040518083038186803b15801561198a57600080fd5b505afa15801561199e573d6000803e3d6000fd5b505050506040513d601f19601f820116820180604052508101906119c2919061397b565b116119cc57600080fd5b6001600160a01b0382166000908152600e602052604090205460ff166119f157600080fd5b506001919050565b611a02336125d8565b611a585760405162461bcd60e51b815260206004820152602160248201527f55736572206973206e6f7420746865204f776e6572206f7220616e2041646d696044820152603760f91b6064820152608401610b5c565b60005b8151811015610d75576001600e6000848481518110611a7c57611a7c613eb7565b6020908102919091018101516001600160a01b03168252810191909152604001600020805460ff191691151591909117905580611ab881613e46565b915050611a5b565b611ac9336125d8565b611b1f5760405162461bcd60e51b815260206004820152602160248201527f55736572206973206e6f7420746865204f776e6572206f7220616e2041646d696044820152603760f91b6064820152608401610b5c565b6001600160a01b03166000908152600e60205260409020805460ff19169055565b611b49336125d8565b611b9f5760405162461bcd60e51b815260206004820152602160248201527f55736572206973206e6f7420746865204f776e6572206f7220616e2041646d696044820152603760f91b6064820152608401610b5c565b600a8190556040518181527f06cd74aabc11982a85b554df4d7833623303656fe69bed4db1b0cb3245feebe390602001610ccd565b610d75338383612bf9565b60606000805b600c54811015611c8b576000600c8281548110611c0457611c04613eb7565b60009182526020918290206040805160a0810182526004909302909101805483526001810154938301939093526002830154908201526003909101546001600160a01b038116606083015260ff600160a01b90910416151560808201819052909150611c7857611c75600184613d35565b92505b5080611c8381613e46565b915050611be5565b5060008167ffffffffffffffff811115611ca757611ca7613ecd565b604051908082528060200260200182016040528015611d1557816020015b611d026040518060a0016040528060008152602001600081526020016000815260200160006001600160a01b031681526020016000151581525090565b815260200190600190039081611cc55790505b5090506000805b600c54811015611de1576000600c8281548110611d3b57611d3b613eb7565b60009182526020918290206040805160a0810182526004909302909101805483526001810154938301939093526002830154908201526003909101546001600160a01b038116606083015260ff600160a01b90910416151560808201819052909150611dce5780848481518110611db457611db4613eb7565b60200260200101819052508280611dca90613e46565b9350505b5080611dd981613e46565b915050611d1c565b50909392505050565b6006546001600160a01b03163314611e445760405162461bcd60e51b815260206004820152601560248201527f55736572206973206e6f7420746865206f776e657200000000000000000000006044820152606401610b5c565b60004711611e945760405162461bcd60e51b815260206004820152601460248201527f4e6f2066756e647320746f2077697468647261770000000000000000000000006044820152606401610b5c565b60055460405163a9059cbb60e01b81526001600160a01b038481166004830152602482018490529091169063a9059cbb90604401602060405180830381600087803b158015611ee257600080fd5b505af1158015611ef6573d6000803e3d6000fd5b505050506040513d601f19601f8201168201806040525081019061109b91906138e8565b611f576040518060a0016040528060008152602001600081526020016000815260200160006001600160a01b031681526020016000151581525090565b600c8281548110611f6a57611f6a613eb7565b60009182526020918290206040805160a0810182526004909302909101805483526001810154938301939093526002830154908201526003909101546001600160a01b038116606083015260ff600160a01b909104161515608082015292915050565b6000611fd882612cee565b611fe157600080fd5b6000828152600f6020526040812054600754611ffd9190613d4d565b9392505050565b60008281526003602052604090206001015461201f81612ac0565b61109b8383612b6c565b612032336125d8565b6120885760405162461bcd60e51b815260206004820152602160248201527f55736572206973206e6f7420746865204f776e6572206f7220616e2041646d696044820152603760f91b6064820152608401610b5c565b6000600b54610100900460ff1660018111156120a6576120a6613ea1565b14156120bd57600b805461ff001916610100179055565b600b805461ff0019169055565b6000600c82815481106120df576120df613eb7565b60009182526020918290206040805160a08101825260049384029092018054835260018101549483019490945260028401548282018190526003909401546001600160a01b0380821660608501819052600160a01b90920460ff161515608085015260055492516323b872dd60e01b8152339581019590955260248501919091526044840194909452909350909116906323b872dd90606401602060405180830381600087803b15801561219257600080fd5b505af11580156121a6573d6000803e3d6000fd5b505050506040513d601f19601f820116820180604052508101906121ca91906138e8565b5080606001516001600160a01b0316336001600160a01b031614156121ee57600080fd5b806040015134146121fe57600080fd5b60808101511561220d57600080fd5b61222e303383600001516001604051806020016040528060008152506126a2565b600160808281019190915260608083015160408085015181513381526001600160a01b039093166020840152908201869052918101919091527f642067ff529c9b5b1162502fc8e8a3a91dda56e126a84f2fe38d341236231a829101610fc8565b6001600160a01b0385163314806122ab57506122ab8533610a32565b61231d5760405162461bcd60e51b815260206004820152602960248201527f455243313135353a2063616c6c6572206973206e6f74206f776e6572206e6f7260448201527f20617070726f76656400000000000000000000000000000000000000000000006064820152608401610b5c565b61106f85858585856126a2565b6060600060085467ffffffffffffffff81111561234957612349613ecd565b604051908082528060200260200182016040528015612372578160200160208202803683370190505b50905060005b81518110156123ba5761238b8482610ae2565b82828151811061239d5761239d613eb7565b6020908102919091010152806123b281613e46565b915050612378565b5092915050565b60006001600160e01b031982167f7965db0b000000000000000000000000000000000000000000000000000000001480610b885750610b8882612d06565b6001600160a01b03831661247b5760405162461bcd60e51b815260206004820152602360248201527f455243313135353a206275726e2066726f6d20746865207a65726f206164647260448201527f65737300000000000000000000000000000000000000000000000000000000006064820152608401610b5c565b33600061248784612d44565b9050600061249484612d44565b60408051602080820183526000918290528882528181528282206001600160a01b038b16835290522054909150848110156125365760405162461bcd60e51b8152602060048201526024808201527f455243313135353a206275726e20616d6f756e7420657863656564732062616c60448201527f616e6365000000000000000000000000000000000000000000000000000000006064820152608401610b5c565b6000868152602081815260408083206001600160a01b038b81168086529184528285208a8703905582518b81529384018a90529092908816917fc3d58168c5ae7397731d063d5bbf3d657854427343f4c083240f7aacaa2d0f62910160405180910390a46040805160208101909152600090525b50505050505050565b806000815181106125c6576125c6613eb7565b6020026020010151600d819055505050565b6006546000906001600160a01b038381169116148061262e57506001600160a01b03821660009081527f3617319a054d772f909f7c479a2cebe5066e836a939412e32403c99029b92eff602052604090205460ff165b6119f157600080fd5b612654826008548360405180602001604052806000815250612d8f565b61266d600854826000918252600f602052604090912055565b806007600082825461267f9190613d35565b925050819055506001600860008282546126999190613d35565b90915550505050565b6001600160a01b0384166127065760405162461bcd60e51b815260206004820152602560248201527f455243313135353a207472616e7366657220746f20746865207a65726f206164604482015264647265737360d81b6064820152608401610b5c565b33600061271285612d44565b9050600061271f85612d44565b90506000868152602081815260408083206001600160a01b038c168452909152902054858110156127a55760405162461bcd60e51b815260206004820152602a60248201527f455243313135353a20696e73756666696369656e742062616c616e636520666f60448201526939103a3930b739b332b960b11b6064820152608401610b5c565b6000878152602081815260408083206001600160a01b038d8116855292528083208985039055908a168252812080548892906127e2908490613d35565b909155505060408051888152602081018890526001600160a01b03808b16928c821692918816917fc3d58168c5ae7397731d063d5bbf3d657854427343f4c083240f7aacaa2d0f62910160405180910390a4612842848a8a8a8a8a612eb2565b505050505050505050565b81518351146128c45760405162461bcd60e51b815260206004820152602860248201527f455243313135353a2069647320616e6420616d6f756e7473206c656e6774682060448201527f6d69736d617463680000000000000000000000000000000000000000000000006064820152608401610b5c565b6001600160a01b0384166129285760405162461bcd60e51b815260206004820152602560248201527f455243313135353a207472616e7366657220746f20746865207a65726f206164604482015264647265737360d81b6064820152608401610b5c565b3360005b8451811015612a5257600085828151811061294957612949613eb7565b60200260200101519050600085838151811061296757612967613eb7565b602090810291909101810151600084815280835260408082206001600160a01b038e1683529093529190912054909150818110156129fa5760405162461bcd60e51b815260206004820152602a60248201527f455243313135353a20696e73756666696369656e742062616c616e636520666f60448201526939103a3930b739b332b960b11b6064820152608401610b5c565b6000838152602081815260408083206001600160a01b038e8116855292528083208585039055908b16825281208054849290612a37908490613d35565b9250508190555050505080612a4b90613e46565b905061292c565b50846001600160a01b0316866001600160a01b0316826001600160a01b03167f4a39dc06d4c0dbc64b70af90fd698a233a518aa5d07e595d983b8c0526c8f7fb8787604051612aa2929190613c64565b60405180910390a4612ab8818787878787613067565b505050505050565b610de28133613172565b60008281526003602090815260408083206001600160a01b038516845290915290205460ff16610d755760008281526003602090815260408083206001600160a01b03851684529091529020805460ff19166001179055612b283390565b6001600160a01b0316816001600160a01b0316837f2f8788117e7eff1d82e926ec794901d17c78024a50270940304540a733656f0d60405160405180910390a45050565b60008281526003602090815260408083206001600160a01b038516845290915290205460ff1615610d755760008281526003602090815260408083206001600160a01b0385168085529252808320805460ff1916905551339285917ff6391f5c32d9c69d2a47ea670b442974b53935d1edc7fd64eb21e047a839171b9190a45050565b610d758282612aca565b816001600160a01b0316836001600160a01b03161415612c815760405162461bcd60e51b815260206004820152602960248201527f455243313135353a2073657474696e6720617070726f76616c2073746174757360448201527f20666f722073656c6600000000000000000000000000000000000000000000006064820152608401610b5c565b6001600160a01b03838116600081815260016020908152604080832094871680845294825291829020805460ff191686151590811790915591519182527f17307eab39ab6107e8899845ad3d59bd9653f200f220920489ca2b5937696c31910160405180910390a3505050565b6000818152600f60205260408120546119f157600080fd5b60006001600160e01b031982167f4e2312e0000000000000000000000000000000000000000000000000000000001480610b885750610b88826131f2565b60408051600180825281830190925260609160009190602080830190803683370190505090508281600081518110612d7e57612d7e613eb7565b602090810291909101015292915050565b6001600160a01b038416612e0b5760405162461bcd60e51b815260206004820152602160248201527f455243313135353a206d696e7420746f20746865207a65726f2061646472657360448201527f73000000000000000000000000000000000000000000000000000000000000006064820152608401610b5c565b336000612e1785612d44565b90506000612e2485612d44565b90506000868152602081815260408083206001600160a01b038b16845290915281208054879290612e56908490613d35565b909155505060408051878152602081018790526001600160a01b03808a1692600092918716917fc3d58168c5ae7397731d063d5bbf3d657854427343f4c083240f7aacaa2d0f62910160405180910390a46125aa836000898989895b6001600160a01b0384163b15612ab85760405163f23a6e6160e01b81526001600160a01b0385169063f23a6e6190612ef69089908990889088908890600401613b8a565b602060405180830381600087803b158015612f1057600080fd5b505af1925050508015612f40575060408051601f3d908101601f19168201909252612f3d9181019061395e565b60015b612ff657612f4c613ee3565b806308c379a01415612f865750612f61613eff565b80612f6c5750612f88565b8060405162461bcd60e51b8152600401610b5c9190613cba565b505b60405162461bcd60e51b815260206004820152603460248201527f455243313135353a207472616e7366657220746f206e6f6e204552433131353560448201527f526563656976657220696d706c656d656e7465720000000000000000000000006064820152608401610b5c565b6001600160e01b0319811663f23a6e6160e01b146125aa5760405162461bcd60e51b815260206004820152602860248201527f455243313135353a204552433131353552656365697665722072656a656374656044820152676420746f6b656e7360c01b6064820152608401610b5c565b6001600160a01b0384163b15612ab85760405163bc197c8160e01b81526001600160a01b0385169063bc197c81906130ab9089908990889088908890600401613b2c565b602060405180830381600087803b1580156130c557600080fd5b505af19250505080156130f5575060408051601f3d908101601f191682019092526130f29181019061395e565b60015b61310157612f4c613ee3565b6001600160e01b0319811663bc197c8160e01b146125aa5760405162461bcd60e51b815260206004820152602860248201527f455243313135353a204552433131353552656365697665722072656a656374656044820152676420746f6b656e7360c01b6064820152608401610b5c565b60008281526003602090815260408083206001600160a01b038516845290915290205460ff16610d75576131b0816001600160a01b0316601461328d565b6131bb83602061328d565b6040516020016131cc929190613aab565b60408051601f198184030181529082905262461bcd60e51b8252610b5c91600401613cba565b60006001600160e01b031982167fd9b67a2600000000000000000000000000000000000000000000000000000000148061325557506001600160e01b031982167f0e89341c00000000000000000000000000000000000000000000000000000000145b80610b8857507f01ffc9a7000000000000000000000000000000000000000000000000000000006001600160e01b0319831614610b88565b6060600061329c836002613d61565b6132a7906002613d35565b67ffffffffffffffff8111156132bf576132bf613ecd565b6040519080825280601f01601f1916602001820160405280156132e9576020820181803683370190505b5090507f30000000000000000000000000000000000000000000000000000000000000008160008151811061332057613320613eb7565b60200101906001600160f81b031916908160001a9053507f78000000000000000000000000000000000000000000000000000000000000008160018151811061336b5761336b613eb7565b60200101906001600160f81b031916908160001a905350600061338f846002613d61565b61339a906001613d35565b90505b600181111561341f577f303132333435363738396162636465660000000000000000000000000000000085600f16601081106133db576133db613eb7565b1a60f81b8282815181106133f1576133f1613eb7565b60200101906001600160f81b031916908160001a90535060049490941c9361341881613dc7565b905061339d565b508315611ffd5760405162461bcd60e51b815260206004820181905260248201527f537472696e67733a20686578206c656e67746820696e73756666696369656e746044820152606401610b5c565b82805461347a90613dde565b90600052602060002090601f01602090048101928261349c57600085556134e2565b82601f106134b557805160ff19168380011785556134e2565b828001600101855582156134e2579182015b828111156134e25782518255916020019190600101906134c7565b506134ee9291506134f2565b5090565b5b808211156134ee57600081556001016134f3565b600067ffffffffffffffff83111561352157613521613ecd565b604051613538601f8501601f191660200182613e19565b80915083815284848401111561354d57600080fd5b83836020830137600060208583010152509392505050565b80356001600160a01b038116811461357c57600080fd5b919050565b600082601f83011261359257600080fd5b8135602061359f82613d11565b6040516135ac8282613e19565b8381528281019150858301600585901b870184018810156135cc57600080fd5b60005b858110156135f2576135e082613565565b845292840192908401906001016135cf565b5090979650505050505050565b600082601f83011261361057600080fd5b8135602061361d82613d11565b60405161362a8282613e19565b8381528281019150858301600585901b8701840188101561364a57600080fd5b60005b858110156135f25781358452928401929084019060010161364d565b600082601f83011261367a57600080fd5b611ffd83833560208501613507565b60006020828403121561369b57600080fd5b611ffd82613565565b600080604083850312156136b757600080fd5b6136c083613565565b91506136ce60208401613565565b90509250929050565b600080600080600060a086880312156136ef57600080fd5b6136f886613565565b945061370660208701613565565b9350604086013567ffffffffffffffff8082111561372357600080fd5b61372f89838a016135ff565b9450606088013591508082111561374557600080fd5b61375189838a016135ff565b9350608088013591508082111561376757600080fd5b5061377488828901613669565b9150509295509295909350565b600080600080600060a0868803121561379957600080fd5b6137a286613565565b94506137b060208701613565565b93506040860135925060608601359150608086013567ffffffffffffffff8111156137da57600080fd5b61377488828901613669565b600080604083850312156137f957600080fd5b61380283613565565b9150602083013561381281613f89565b809150509250929050565b6000806040838503121561383057600080fd5b61383983613565565b946020939093013593505050565b60006020828403121561385957600080fd5b813567ffffffffffffffff81111561387057600080fd5b61387c84828501613581565b949350505050565b6000806040838503121561389757600080fd5b823567ffffffffffffffff808211156138af57600080fd5b6138bb86838701613581565b935060208501359150808211156138d157600080fd5b506138de858286016135ff565b9150509250929050565b6000602082840312156138fa57600080fd5b8151611ffd81613f89565b60006020828403121561391757600080fd5b5035919050565b6000806040838503121561393157600080fd5b823591506136ce60208401613565565b60006020828403121561395357600080fd5b8135611ffd81613f97565b60006020828403121561397057600080fd5b8151611ffd81613f97565b60006020828403121561398d57600080fd5b5051919050565b600080604083850312156139a757600080fd5b82359150602083013567ffffffffffffffff8111156139c557600080fd5b6138de858286016135ff565b600080604083850312156139e457600080fd5b82359150602083013567ffffffffffffffff811115613a0257600080fd5b8301601f81018513613a1357600080fd5b6138de85823560208401613507565b60008060408385031215613a3557600080fd5b50508035926020909101359150565b600081518084526020808501945080840160005b83811015613a7457815187529582019590820190600101613a58565b509495945050505050565b60008151808452613a97816020860160208601613d97565b601f01601f19169290920160200192915050565b7f416363657373436f6e74726f6c3a206163636f756e7420000000000000000000815260008351613ae3816017850160208801613d97565b7f206973206d697373696e6720726f6c65200000000000000000000000000000006017918401918201528351613b20816028840160208801613d97565b01602801949350505050565b60006001600160a01b03808816835280871660208401525060a06040830152613b5860a0830186613a44565b8281036060840152613b6a8186613a44565b90508281036080840152613b7e8185613a7f565b98975050505050505050565b60006001600160a01b03808816835280871660208401525084604083015283606083015260a06080830152613bc260a0830184613a7f565b979650505050505050565b6020808252825182820181905260009190848201906040850190845b81811015613c4557613c328385518051825260208101516020830152604081015160408301526001600160a01b0360608201511660608301526080810151151560808301525050565b9284019260a09290920191600101613be9565b50909695505050505050565b602081526000611ffd6020830184613a44565b604081526000613c776040830185613a44565b8281036020840152613c898185613a44565b95945050505050565b6020810160028310613cb457634e487b7160e01b600052602160045260246000fd5b91905290565b602081526000611ffd6020830184613a7f565b60a08101610b8882848051825260208101516020830152604081015160408301526001600160a01b0360608201511660608301526080810151151560808301525050565b600067ffffffffffffffff821115613d2b57613d2b613ecd565b5060051b60200190565b60008219821115613d4857613d48613e75565b500190565b600082613d5c57613d5c613e8b565b500490565b6000816000190483118215151615613d7b57613d7b613e75565b500290565b600082821015613d9257613d92613e75565b500390565b60005b83811015613db2578181015183820152602001613d9a565b83811115613dc1576000848401525b50505050565b600081613dd657613dd6613e75565b506000190190565b600181811c90821680613df257607f821691505b60208210811415613e1357634e487b7160e01b600052602260045260246000fd5b50919050565b601f8201601f1916810167ffffffffffffffff81118282101715613e3f57613e3f613ecd565b6040525050565b6000600019821415613e5a57613e5a613e75565b5060010190565b600082613e7057613e70613e8b565b500690565b634e487b7160e01b600052601160045260246000fd5b634e487b7160e01b600052601260045260246000fd5b634e487b7160e01b600052602160045260246000fd5b634e487b7160e01b600052603260045260246000fd5b634e487b7160e01b600052604160045260246000fd5b600060033d1115613efc5760046000803e5060005160e01c5b90565b600060443d1015613f0d5790565b6040516003193d81016004833e81513d67ffffffffffffffff8160248401118184111715613f3d57505050505090565b8285019150815181811115613f555750505050505090565b843d8701016020828501011115613f6f5750505050505090565b613f7e60208286010187613e19565b509095945050505050565b8015158114610de257600080fd5b6001600160e01b031981168114610de257600080fdfea264697066735822122063267cb9f658a092e19ae9a6f1f7b8f261ee85f6a6b64e9660a058e3161316c864736f6c63430008070033",
  "linkReferences": {},
  "deployedLinkReferences": {}
}