{
  "_format": "hh-sol-artifact-1",
  "contractName": "RacksItems",
  "sourceName": "contracts/RacksItems.sol",
  "abi": [
    {
      "inputs": [
        {
          "internalType": "address",
          "name": "vrfCoordinatorV2",
          "type": "address"
        },
        {
          "internalType": "bytes32",
          "name": "gasLane",
          "type": "bytes32"
        },
        {
          "internalType": "uint64",
          "name": "subscriptionId",
          "type": "uint64"
        },
        {
          "internalType": "uint32",
          "name": "callbackGasLimit",
          "type": "uint32"
        },
        {
          "internalType": "contract RacksToken",
          "name": "_racksToken",
          "type": "address"
        }
      ],
      "stateMutability": "nonpayable",
      "type": "constructor"
    },
    {
      "inputs": [
        {
          "internalType": "address",
          "name": "have",
          "type": "address"
        },
        {
          "internalType": "address",
          "name": "want",
          "type": "address"
        }
      ],
      "name": "OnlyCoordinatorCanFulfill",
      "type": "error"
    },
    {
      "anonymous": false,
      "inputs": [
        {
          "indexed": true,
          "internalType": "address",
          "name": "account",
          "type": "address"
        },
        {
          "indexed": true,
          "internalType": "address",
          "name": "operator",
          "type": "address"
        },
        {
          "indexed": false,
          "internalType": "bool",
          "name": "approved",
          "type": "bool"
        }
      ],
      "name": "ApprovalForAll",
      "type": "event"
    },
    {
      "anonymous": false,
      "inputs": [
        {
          "indexed": false,
          "internalType": "address",
          "name": "user",
          "type": "address"
        },
        {
          "indexed": false,
          "internalType": "uint256",
          "name": "casePrice",
          "type": "uint256"
        },
        {
          "indexed": false,
          "internalType": "uint256",
          "name": "item",
          "type": "uint256"
        }
      ],
      "name": "CaseOpened",
      "type": "event"
    },
    {
      "anonymous": false,
      "inputs": [
        {
          "indexed": true,
          "internalType": "bytes32",
          "name": "role",
          "type": "bytes32"
        },
        {
          "indexed": true,
          "internalType": "bytes32",
          "name": "previousAdminRole",
          "type": "bytes32"
        },
        {
          "indexed": true,
          "internalType": "bytes32",
          "name": "newAdminRole",
          "type": "bytes32"
        }
      ],
      "name": "RoleAdminChanged",
      "type": "event"
    },
    {
      "anonymous": false,
      "inputs": [
        {
          "indexed": true,
          "internalType": "bytes32",
          "name": "role",
          "type": "bytes32"
        },
        {
          "indexed": true,
          "internalType": "address",
          "name": "account",
          "type": "address"
        },
        {
          "indexed": true,
          "internalType": "address",
          "name": "sender",
          "type": "address"
        }
      ],
      "name": "RoleGranted",
      "type": "event"
    },
    {
      "anonymous": false,
      "inputs": [
        {
          "indexed": true,
          "internalType": "bytes32",
          "name": "role",
          "type": "bytes32"
        },
        {
          "indexed": true,
          "internalType": "address",
          "name": "account",
          "type": "address"
        },
        {
          "indexed": true,
          "internalType": "address",
          "name": "sender",
          "type": "address"
        }
      ],
      "name": "RoleRevoked",
      "type": "event"
    },
    {
      "anonymous": false,
      "inputs": [
        {
          "indexed": true,
          "internalType": "address",
          "name": "operator",
          "type": "address"
        },
        {
          "indexed": true,
          "internalType": "address",
          "name": "from",
          "type": "address"
        },
        {
          "indexed": true,
          "internalType": "address",
          "name": "to",
          "type": "address"
        },
        {
          "indexed": false,
          "internalType": "uint256[]",
          "name": "ids",
          "type": "uint256[]"
        },
        {
          "indexed": false,
          "internalType": "uint256[]",
          "name": "values",
          "type": "uint256[]"
        }
      ],
      "name": "TransferBatch",
      "type": "event"
    },
    {
      "anonymous": false,
      "inputs": [
        {
          "indexed": true,
          "internalType": "address",
          "name": "operator",
          "type": "address"
        },
        {
          "indexed": true,
          "internalType": "address",
          "name": "from",
          "type": "address"
        },
        {
          "indexed": true,
          "internalType": "address",
          "name": "to",
          "type": "address"
        },
        {
          "indexed": false,
          "internalType": "uint256",
          "name": "id",
          "type": "uint256"
        },
        {
          "indexed": false,
          "internalType": "uint256",
          "name": "value",
          "type": "uint256"
        }
      ],
      "name": "TransferSingle",
      "type": "event"
    },
    {
      "anonymous": false,
      "inputs": [
        {
          "indexed": false,
          "internalType": "string",
          "name": "value",
          "type": "string"
        },
        {
          "indexed": true,
          "internalType": "uint256",
          "name": "id",
          "type": "uint256"
        }
      ],
      "name": "URI",
      "type": "event"
    },
    {
      "anonymous": false,
      "inputs": [
        {
          "indexed": false,
          "internalType": "uint256",
          "name": "newPrice",
          "type": "uint256"
        }
      ],
      "name": "casePriceChanged",
      "type": "event"
    },
    {
      "anonymous": false,
      "inputs": [
        {
          "indexed": false,
          "internalType": "address",
          "name": "buyer",
          "type": "address"
        },
        {
          "indexed": false,
          "internalType": "address",
          "name": "seller",
          "type": "address"
        },
        {
          "indexed": false,
          "internalType": "uint256",
          "name": "marketItemId",
          "type": "uint256"
        },
        {
          "indexed": false,
          "internalType": "uint256",
          "name": "price",
          "type": "uint256"
        }
      ],
      "name": "itemBought",
      "type": "event"
    },
    {
      "anonymous": false,
      "inputs": [
        {
          "indexed": false,
          "internalType": "address",
          "name": "user",
          "type": "address"
        },
        {
          "indexed": false,
          "internalType": "uint256",
          "name": "tokenId",
          "type": "uint256"
        }
      ],
      "name": "itemExchanged",
      "type": "event"
    },
    {
      "anonymous": false,
      "inputs": [
        {
          "indexed": false,
          "internalType": "address",
          "name": "user",
          "type": "address"
        },
        {
          "indexed": false,
          "internalType": "uint256",
          "name": "tokenId",
          "type": "uint256"
        },
        {
          "indexed": false,
          "internalType": "uint256",
          "name": "price",
          "type": "uint256"
        }
      ],
      "name": "sellingItem",
      "type": "event"
    },
    {
      "inputs": [],
      "name": "ADMIN_ROLE",
      "outputs": [
        {
          "internalType": "bytes32",
          "name": "",
          "type": "bytes32"
        }
      ],
      "stateMutability": "view",
      "type": "function"
    },
    {
      "inputs": [],
      "name": "DEFAULT_ADMIN_ROLE",
      "outputs": [
        {
          "internalType": "bytes32",
          "name": "",
          "type": "bytes32"
        }
      ],
      "stateMutability": "view",
      "type": "function"
    },
    {
      "inputs": [],
      "name": "NUM_WORDS",
      "outputs": [
        {
          "internalType": "uint32",
          "name": "",
          "type": "uint32"
        }
      ],
      "stateMutability": "view",
      "type": "function"
    },
    {
      "inputs": [],
      "name": "REQUEST_CONFIRMATIONS",
      "outputs": [
        {
          "internalType": "uint16",
          "name": "",
          "type": "uint16"
        }
      ],
      "stateMutability": "view",
      "type": "function"
    },
    {
      "inputs": [
        {
          "internalType": "uint256",
          "name": "tokenId",
          "type": "uint256"
        }
      ],
      "name": "_chanceOfItem",
      "outputs": [
        {
          "internalType": "uint256",
          "name": "",
          "type": "uint256"
        }
      ],
      "stateMutability": "view",
      "type": "function"
    },
    {
      "inputs": [
        {
          "internalType": "address",
          "name": "account",
          "type": "address"
        },
        {
          "internalType": "uint256",
          "name": "id",
          "type": "uint256"
        }
      ],
      "name": "balanceOf",
      "outputs": [
        {
          "internalType": "uint256",
          "name": "",
          "type": "uint256"
        }
      ],
      "stateMutability": "view",
      "type": "function"
    },
    {
      "inputs": [
        {
          "internalType": "address[]",
          "name": "accounts",
          "type": "address[]"
        },
        {
          "internalType": "uint256[]",
          "name": "ids",
          "type": "uint256[]"
        }
      ],
      "name": "balanceOfBatch",
      "outputs": [
        {
          "internalType": "uint256[]",
          "name": "",
          "type": "uint256[]"
        }
      ],
      "stateMutability": "view",
      "type": "function"
    },
    {
      "inputs": [
        {
          "internalType": "uint256",
          "name": "marketItemId",
          "type": "uint256"
        }
      ],
      "name": "buyItem",
      "outputs": [],
      "stateMutability": "payable",
      "type": "function"
    },
    {
      "inputs": [],
      "name": "casePrice",
      "outputs": [
        {
          "internalType": "uint256",
          "name": "",
          "type": "uint256"
        }
      ],
      "stateMutability": "view",
      "type": "function"
    },
    {
      "inputs": [],
      "name": "contractActive",
      "outputs": [
        {
          "internalType": "bool",
          "name": "",
          "type": "bool"
        }
      ],
      "stateMutability": "view",
      "type": "function"
    },
    {
      "inputs": [
        {
          "internalType": "uint256",
          "name": "tokenId",
          "type": "uint256"
        }
      ],
      "name": "exchangeItem",
      "outputs": [],
      "stateMutability": "nonpayable",
      "type": "function"
    },
    {
      "inputs": [],
      "name": "flipContractState",
      "outputs": [],
      "stateMutability": "nonpayable",
      "type": "function"
    },
    {
      "inputs": [],
      "name": "getCasePrice",
      "outputs": [
        {
          "internalType": "uint256",
          "name": "",
          "type": "uint256"
        }
      ],
      "stateMutability": "view",
      "type": "function"
    },
    {
      "inputs": [],
      "name": "getItemsOnSale",
      "outputs": [
        {
          "components": [
            {
              "internalType": "uint256",
              "name": "tokenId",
              "type": "uint256"
            },
            {
              "internalType": "uint256",
              "name": "price",
              "type": "uint256"
            },
            {
              "internalType": "address payable",
              "name": "seller",
              "type": "address"
            },
            {
              "internalType": "bool",
              "name": "sold",
              "type": "bool"
            }
          ],
          "internalType": "struct RacksItems.itemOnSale[]",
          "name": "",
          "type": "tuple[]"
        }
      ],
      "stateMutability": "view",
      "type": "function"
    },
    {
      "inputs": [
        {
          "internalType": "bytes32",
          "name": "role",
          "type": "bytes32"
        }
      ],
      "name": "getRoleAdmin",
      "outputs": [
        {
          "internalType": "bytes32",
          "name": "",
          "type": "bytes32"
        }
      ],
      "stateMutability": "view",
      "type": "function"
    },
    {
      "inputs": [
        {
          "internalType": "bytes32",
          "name": "role",
          "type": "bytes32"
        },
        {
          "internalType": "address",
          "name": "account",
          "type": "address"
        }
      ],
      "name": "grantRole",
      "outputs": [],
      "stateMutability": "nonpayable",
      "type": "function"
    },
    {
      "inputs": [
        {
          "internalType": "bytes32",
          "name": "role",
          "type": "bytes32"
        },
        {
          "internalType": "address",
          "name": "account",
          "type": "address"
        }
      ],
      "name": "hasRole",
      "outputs": [
        {
          "internalType": "bool",
          "name": "",
          "type": "bool"
        }
      ],
      "stateMutability": "view",
      "type": "function"
    },
    {
      "inputs": [],
      "name": "i_MrCryptoAddress",
      "outputs": [
        {
          "internalType": "address",
          "name": "",
          "type": "address"
        }
      ],
      "stateMutability": "view",
      "type": "function"
    },
    {
      "inputs": [],
      "name": "i_callbackGasLimit",
      "outputs": [
        {
          "internalType": "uint32",
          "name": "",
          "type": "uint32"
        }
      ],
      "stateMutability": "view",
      "type": "function"
    },
    {
      "inputs": [],
      "name": "i_gasLane",
      "outputs": [
        {
          "internalType": "bytes32",
          "name": "",
          "type": "bytes32"
        }
      ],
      "stateMutability": "view",
      "type": "function"
    },
    {
      "inputs": [],
      "name": "i_subscriptionId",
      "outputs": [
        {
          "internalType": "uint64",
          "name": "",
          "type": "uint64"
        }
      ],
      "stateMutability": "view",
      "type": "function"
    },
    {
      "inputs": [],
      "name": "i_vrfCoordinator",
      "outputs": [
        {
          "internalType": "contract VRFCoordinatorV2Interface",
          "name": "",
          "type": "address"
        }
      ],
      "stateMutability": "view",
      "type": "function"
    },
    {
      "inputs": [
        {
          "internalType": "address",
          "name": "account",
          "type": "address"
        },
        {
          "internalType": "address",
          "name": "operator",
          "type": "address"
        }
      ],
      "name": "isApprovedForAll",
      "outputs": [
        {
          "internalType": "bool",
          "name": "",
          "type": "bool"
        }
      ],
      "stateMutability": "view",
      "type": "function"
    },
    {
      "inputs": [
        {
          "internalType": "address",
          "name": "user",
          "type": "address"
        }
      ],
      "name": "isVip",
      "outputs": [
        {
          "internalType": "bool",
          "name": "",
          "type": "bool"
        }
      ],
      "stateMutability": "view",
      "type": "function"
    },
    {
      "inputs": [
        {
          "internalType": "uint256",
          "name": "itemSupply",
          "type": "uint256"
        }
      ],
      "name": "listItem",
      "outputs": [],
      "stateMutability": "nonpayable",
      "type": "function"
    },
    {
      "inputs": [
        {
          "internalType": "address",
          "name": "",
          "type": "address"
        },
        {
          "internalType": "address",
          "name": "",
          "type": "address"
        },
        {
          "internalType": "uint256[]",
          "name": "",
          "type": "uint256[]"
        },
        {
          "internalType": "uint256[]",
          "name": "",
          "type": "uint256[]"
        },
        {
          "internalType": "bytes",
          "name": "",
          "type": "bytes"
        }
      ],
      "name": "onERC1155BatchReceived",
      "outputs": [
        {
          "internalType": "bytes4",
          "name": "",
          "type": "bytes4"
        }
      ],
      "stateMutability": "nonpayable",
      "type": "function"
    },
    {
      "inputs": [
        {
          "internalType": "address",
          "name": "",
          "type": "address"
        },
        {
          "internalType": "address",
          "name": "",
          "type": "address"
        },
        {
          "internalType": "uint256",
          "name": "",
          "type": "uint256"
        },
        {
          "internalType": "uint256",
          "name": "",
          "type": "uint256"
        },
        {
          "internalType": "bytes",
          "name": "",
          "type": "bytes"
        }
      ],
      "name": "onERC1155Received",
      "outputs": [
        {
          "internalType": "bytes4",
          "name": "",
          "type": "bytes4"
        }
      ],
      "stateMutability": "nonpayable",
      "type": "function"
    },
    {
      "inputs": [],
      "name": "openCase",
      "outputs": [],
      "stateMutability": "nonpayable",
      "type": "function"
    },
    {
      "inputs": [],
      "name": "racksToken",
      "outputs": [
        {
          "internalType": "contract RacksToken",
          "name": "",
          "type": "address"
        }
      ],
      "stateMutability": "view",
      "type": "function"
    },
    {
      "inputs": [
        {
          "internalType": "uint256",
          "name": "requestId",
          "type": "uint256"
        },
        {
          "internalType": "uint256[]",
          "name": "randomWords",
          "type": "uint256[]"
        }
      ],
      "name": "rawFulfillRandomWords",
      "outputs": [],
      "stateMutability": "nonpayable",
      "type": "function"
    },
    {
      "inputs": [
        {
          "internalType": "address[]",
          "name": "users",
          "type": "address[]"
        }
      ],
      "name": "removeListRacksMembers",
      "outputs": [],
      "stateMutability": "nonpayable",
      "type": "function"
    },
    {
      "inputs": [
        {
          "internalType": "address",
          "name": "user",
          "type": "address"
        }
      ],
      "name": "removeSingleRacksMember",
      "outputs": [],
      "stateMutability": "nonpayable",
      "type": "function"
    },
    {
      "inputs": [
        {
          "internalType": "bytes32",
          "name": "role",
          "type": "bytes32"
        },
        {
          "internalType": "address",
          "name": "account",
          "type": "address"
        }
      ],
      "name": "renounceRole",
      "outputs": [],
      "stateMutability": "nonpayable",
      "type": "function"
    },
    {
      "inputs": [
        {
          "internalType": "bytes32",
          "name": "role",
          "type": "bytes32"
        },
        {
          "internalType": "address",
          "name": "account",
          "type": "address"
        }
      ],
      "name": "revokeRole",
      "outputs": [],
      "stateMutability": "nonpayable",
      "type": "function"
    },
    {
      "inputs": [],
      "name": "s_contractState",
      "outputs": [
        {
          "internalType": "enum RacksItems.ContractState",
          "name": "",
          "type": "uint8"
        }
      ],
      "stateMutability": "view",
      "type": "function"
    },
    {
      "inputs": [],
      "name": "s_randomWord",
      "outputs": [
        {
          "internalType": "uint256",
          "name": "",
          "type": "uint256"
        }
      ],
      "stateMutability": "view",
      "type": "function"
    },
    {
      "inputs": [
        {
          "internalType": "address",
          "name": "from",
          "type": "address"
        },
        {
          "internalType": "address",
          "name": "to",
          "type": "address"
        },
        {
          "internalType": "uint256[]",
          "name": "ids",
          "type": "uint256[]"
        },
        {
          "internalType": "uint256[]",
          "name": "amounts",
          "type": "uint256[]"
        },
        {
          "internalType": "bytes",
          "name": "data",
          "type": "bytes"
        }
      ],
      "name": "safeBatchTransferFrom",
      "outputs": [],
      "stateMutability": "nonpayable",
      "type": "function"
    },
    {
      "inputs": [
        {
          "internalType": "address",
          "name": "from",
          "type": "address"
        },
        {
          "internalType": "address",
          "name": "to",
          "type": "address"
        },
        {
          "internalType": "uint256",
          "name": "id",
          "type": "uint256"
        },
        {
          "internalType": "uint256",
          "name": "amount",
          "type": "uint256"
        },
        {
          "internalType": "bytes",
          "name": "data",
          "type": "bytes"
        }
      ],
      "name": "safeTransferFrom",
      "outputs": [],
      "stateMutability": "nonpayable",
      "type": "function"
    },
    {
      "inputs": [
        {
          "internalType": "uint256",
          "name": "tokenId",
          "type": "uint256"
        },
        {
          "internalType": "uint256",
          "name": "price",
          "type": "uint256"
        }
      ],
      "name": "sellItem",
      "outputs": [],
      "stateMutability": "nonpayable",
      "type": "function"
    },
    {
      "inputs": [
        {
          "internalType": "address",
          "name": "_newAdmin",
          "type": "address"
        }
      ],
      "name": "setAdmin",
      "outputs": [],
      "stateMutability": "nonpayable",
      "type": "function"
    },
    {
      "inputs": [
        {
          "internalType": "address",
          "name": "operator",
          "type": "address"
        },
        {
          "internalType": "bool",
          "name": "approved",
          "type": "bool"
        }
      ],
      "name": "setApprovalForAll",
      "outputs": [],
      "stateMutability": "nonpayable",
      "type": "function"
    },
    {
      "inputs": [
        {
          "internalType": "uint256",
          "name": "price",
          "type": "uint256"
        }
      ],
      "name": "setCasePrice",
      "outputs": [],
      "stateMutability": "nonpayable",
      "type": "function"
    },
    {
      "inputs": [
        {
          "internalType": "address[]",
          "name": "users",
          "type": "address[]"
        }
      ],
      "name": "setListRacksMembers",
      "outputs": [],
      "stateMutability": "nonpayable",
      "type": "function"
    },
    {
      "inputs": [
        {
          "internalType": "address",
          "name": "user",
          "type": "address"
        }
      ],
      "name": "setSingleRacksMember",
      "outputs": [],
      "stateMutability": "nonpayable",
      "type": "function"
    },
    {
      "inputs": [
        {
          "internalType": "uint256",
          "name": "tokenId",
          "type": "uint256"
        },
        {
          "internalType": "string",
          "name": "_uri",
          "type": "string"
        }
      ],
      "name": "setTokenUri",
      "outputs": [],
      "stateMutability": "nonpayable",
      "type": "function"
    },
    {
      "inputs": [
        {
          "internalType": "uint256",
          "name": "tokenId",
          "type": "uint256"
        }
      ],
      "name": "supplyOfItem",
      "outputs": [
        {
          "internalType": "uint256",
          "name": "",
          "type": "uint256"
        }
      ],
      "stateMutability": "view",
      "type": "function"
    },
    {
      "inputs": [
        {
          "internalType": "bytes4",
          "name": "interfaceId",
          "type": "bytes4"
        }
      ],
      "name": "supportsInterface",
      "outputs": [
        {
          "internalType": "bool",
          "name": "",
          "type": "bool"
        }
      ],
      "stateMutability": "view",
      "type": "function"
    },
    {
      "inputs": [
        {
          "internalType": "uint256",
          "name": "tokenId",
          "type": "uint256"
        }
      ],
      "name": "uri",
      "outputs": [
        {
          "internalType": "string",
          "name": "",
          "type": "string"
        }
      ],
      "stateMutability": "view",
      "type": "function"
    },
    {
      "inputs": [
        {
          "internalType": "address",
          "name": "owner",
          "type": "address"
        }
      ],
      "name": "viewItems",
      "outputs": [
        {
          "internalType": "uint256[]",
          "name": "",
          "type": "uint256[]"
        }
      ],
      "stateMutability": "view",
      "type": "function"
    },
    {
      "inputs": [
        {
          "internalType": "address",
          "name": "wallet",
          "type": "address"
        }
      ],
      "name": "withdrawAllFunds",
      "outputs": [],
      "stateMutability": "nonpayable",
      "type": "function"
    },
    {
      "inputs": [
        {
          "internalType": "address",
          "name": "wallet",
          "type": "address"
        },
        {
          "internalType": "uint256",
          "name": "amount",
          "type": "uint256"
        }
      ],
      "name": "withdrawFunds",
      "outputs": [],
      "stateMutability": "nonpayable",
      "type": "function"
    },
    {
      "stateMutability": "payable",
      "type": "receive"
    }
  ],
  "bytecode": "0x610120604052600a805460ff191660011790553480156200001f57600080fd5b5060405162004275380380620042758339810160408190526200004291620001ca565b60408051602081019091526000815285906200005e816200010b565b50606090811b6001600160601b031990811660805295901b90941660a05260c0928352911b6001600160c01b03191660e09081521b6001600160e01b031916610100526004805473ef453154766505feb9dbf0a58e6990fd6eb669696001600160a01b0319918216179091556005805482166001600160a01b0393909316929092179091556006805433921691909117905560006008556001600955600a805461ff0019169055620002a7565b80516200012090600290602084019062000124565b5050565b828054620001329062000251565b90600052602060002090601f016020900481019282620001565760008555620001a1565b82601f106200017157805160ff1916838001178555620001a1565b82800160010185558215620001a1579182015b82811115620001a157825182559160200191906001019062000184565b50620001af929150620001b3565b5090565b5b80821115620001af5760008155600101620001b4565b600080600080600060a08688031215620001e357600080fd5b8551620001f0816200028e565b6020870151604088015191965094506001600160401b03811681146200021557600080fd5b606087015190935063ffffffff811681146200023057600080fd5b608087015190925062000243816200028e565b809150509295509295909350565b600181811c908216806200026657607f821691505b602082108114156200028857634e487b7160e01b600052602260045260246000fd5b50919050565b6001600160a01b0381168114620002a457600080fd5b50565b60805160601c60a05160601c60c05160e05160c01c6101005160e01c613f5a6200031b600039600081816109860152612b0a0152600081816105840152612ad50152600081816107ba0152612aa60152600081816108690152612b43015260008181610c9f0152610cfa0152613f5a6000f3fe6080604052600436106103375760003560e01c806375b238fc116101b0578063bc197c81116100ec578063e289fcb611610095578063f23a6e611161006f578063f23a6e6114610a33578063f242432a14610a5f578063f48c9d3414610a7f578063fd210fd914610a9f57600080fd5b8063e289fcb6146109bd578063e7fb74c7146109d7578063e985e9c5146109ea57600080fd5b8063d547741f116100c6578063d547741f14610954578063d757d02714610974578063de08f653146109a857600080fd5b8063bc197c81146108d9578063c10753291461091e578063ca90958f1461093e57600080fd5b806391d1485411610159578063a22cb46511610133578063a22cb46514610837578063aebc455014610857578063b63b86121461088b578063bbcbc2e7146108b757600080fd5b806391d14854146107dc578063976298f314610822578063a217fddf1461071357600080fd5b80638ba8b15a1161018a5780638ba8b15a146107685780638dc5f45b146107885780638e879c8a146107a857600080fd5b806375b238fc1461071357806384203f4b1461072857806389165aa91461074857600080fd5b806332dee40b1161027f57806354e889f61161022857806367f082b01161020257806367f082b01461068157806368b72100146106a9578063704b6c02146106c957806372cf6e34146106e957600080fd5b806354e889f61461062157806357f7789e1461064157806367be820a1461066157600080fd5b80634a226657116102595780634a226657146105bf5780634e1273f4146105d45780635408c3191461060157600080fd5b806332dee40b1461053257806336568abe14610552578063470cdf971461057257600080fd5b806320ba0814116102e15780632d923561116102bb5780632d923561146104d25780632eb2c2d6146104f25780632f2ff15d1461051257600080fd5b806320ba081414610455578063248a9ca3146104825780632ce38190146104b257600080fd5b8063109b827811610312578063109b8278146103d35780631cb0b273146104135780631fe543e31461043557600080fd5b8062fdd58e1461034357806301ffc9a7146103765780630e89341c146103a657600080fd5b3661033e57005b600080fd5b34801561034f57600080fd5b5061036361035e3660046137ed565b610ab5565b6040519081526020015b60405180910390f35b34801561038257600080fd5b50610396610391366004613911565b610b5e565b604051901515815260200161036d565b3480156103b257600080fd5b506103c66103c13660046138d5565b610b6f565b60405161036d9190613c75565b3480156103df57600080fd5b506103fb73ef453154766505feb9dbf0a58e6990fd6eb6696981565b6040516001600160a01b03909116815260200161036d565b34801561041f57600080fd5b5061043361042e3660046138d5565b610c11565b005b34801561044157600080fd5b50610433610450366004613964565b610c94565b34801561046157600080fd5b506103636104703660046138d5565b6000908152600e602052604090205490565b34801561048e57600080fd5b5061036361049d3660046138d5565b60009081526003602052604090206001015490565b3480156104be57600080fd5b506104336104cd3660046138d5565b610d35565b3480156104de57600080fd5b506104336104ed3660046139f2565b610da1565b3480156104fe57600080fd5b5061043361050d3660046136a7565b610f49565b34801561051e57600080fd5b5061043361052d3660046138ee565b610feb565b34801561053e57600080fd5b5061043361054d366004613659565b611015565b34801561055e57600080fd5b5061043361056d3660046138ee565b611144565b34801561057e57600080fd5b506105a67f000000000000000000000000000000000000000000000000000000000000000081565b60405167ffffffffffffffff909116815260200161036d565b3480156105cb57600080fd5b506104336111cc565b3480156105e057600080fd5b506105f46105ef366004613854565b611501565b60405161036d9190613c0c565b34801561060d57600080fd5b5061043361061c366004613817565b61163f565b34801561062d57600080fd5b5061043361063c366004613659565b611706565b34801561064d57600080fd5b5061043361065c3660046139a1565b611789565b34801561066d57600080fd5b5061036361067c3660046138d5565b61186f565b34801561068d57600080fd5b50610696600181565b60405161ffff909116815260200161036d565b3480156106b557600080fd5b506005546103fb906001600160a01b031681565b3480156106d557600080fd5b506104336106e4366004613659565b6118a7565b3480156106f557600080fd5b506106fe600181565b60405163ffffffff909116815260200161036d565b34801561071f57600080fd5b50610363600081565b34801561073457600080fd5b50610396610743366004613659565b61190c565b34801561075457600080fd5b50610433610763366004613817565b6119df565b34801561077457600080fd5b50610433610783366004613659565b611aa6565b34801561079457600080fd5b506104336107a33660046138d5565b611b26565b3480156107b457600080fd5b506103637f000000000000000000000000000000000000000000000000000000000000000081565b3480156107e857600080fd5b506103966107f73660046138ee565b60009182526003602090815260408084206001600160a01b0393909316845291905290205460ff1690565b34801561082e57600080fd5b50600954610363565b34801561084357600080fd5b506104336108523660046137b6565b611bba565b34801561086357600080fd5b506103fb7f000000000000000000000000000000000000000000000000000000000000000081565b34801561089757600080fd5b50600a546108aa90610100900460ff1681565b60405161036d9190613c4d565b3480156108c357600080fd5b506108cc611bc5565b60405161036d9190613b9d565b3480156108e557600080fd5b506109056108f43660046136a7565b63bc197c8160e01b95945050505050565b6040516001600160e01b0319909116815260200161036d565b34801561092a57600080fd5b506104336109393660046137ed565b611da8565b34801561094a57600080fd5b5061036360095481565b34801561096057600080fd5b5061043361096f3660046138ee565b611ed8565b34801561098057600080fd5b506106fe7f000000000000000000000000000000000000000000000000000000000000000081565b3480156109b457600080fd5b50610433611efd565b3480156109c957600080fd5b50600a546103969060ff1681565b6104336109e53660046138d5565b611f9e565b3480156109f657600080fd5b50610396610a05366004613674565b6001600160a01b03918216600090815260016020908152604080832093909416825291909152205460ff1690565b348015610a3f57600080fd5b50610905610a4e366004613751565b63f23a6e6160e01b95945050505050565b348015610a6b57600080fd5b50610433610a7a366004613751565b612112565b348015610a8b57600080fd5b506105f4610a9a366004613659565b6121ad565b348015610aab57600080fd5b50610363600c5481565b60006001600160a01b038316610b385760405162461bcd60e51b815260206004820152602b60248201527f455243313135353a2062616c616e636520717565727920666f7220746865207a60448201527f65726f206164647265737300000000000000000000000000000000000000000060648201526084015b60405180910390fd5b506000908152602081815260408083206001600160a01b03949094168352929052205490565b6000610b6982612250565b92915050565b6000818152600f60205260409020805460609190610b8c90613d55565b80601f0160208091040260200160405190810160405280929190818152602001828054610bb890613d55565b8015610c055780601f10610bda57610100808354040283529160200191610c05565b820191906000526020600020905b815481529060010190602001808311610be857829003601f168201915b50505050509050919050565b6000610c1d3383610ab5565b11610c2757600080fd5b610c333382600161228e565b6000818152600e60205260408120805460019290610c52908490613cf7565b909155505060408051338152602081018390527f9e90d55d2f1f115ffe1b87372c45f27f6b3a2b5ba392942167be78456189009491015b60405180910390a150565b336001600160a01b037f00000000000000000000000000000000000000000000000000000000000000001614610d27576040517f1cf993f40000000000000000000000000000000000000000000000000000000081523360048201526001600160a01b037f0000000000000000000000000000000000000000000000000000000000000000166024820152604401610b2f565b610d318282612442565b5050565b610d3e33612467565b610d945760405162461bcd60e51b815260206004820152602160248201527f55736572206973206e6f7420746865204f776e6572206f7220616e2041646d696044820152603760f91b6064820152608401610b2f565b610d9e30826124c6565b50565b6000610dad3384610ab5565b11610dfa5760405162461bcd60e51b815260206004820152600f60248201527f4974656d206e6f7420666f756e642e00000000000000000000000000000000006044820152606401610b2f565b610e17333084600160405180602001604052806000815250612531565b6040805160808101825283815260208082018481523383850181815260006060808701828152600b8054600181018255935296517f0175b7a638427703f0dbe7bb9bbf987a2551717b34e79f33b5b1008d1fa01db960039093029283015593517f0175b7a638427703f0dbe7bb9bbf987a2551717b34e79f33b5b1008d1fa01dba82015590517f0175b7a638427703f0dbe7bb9bbf987a2551717b34e79f33b5b1008d1fa01dbb909101805495516001600160a01b039092167fffffffffffffffffffffff00000000000000000000000000000000000000000090961695909517600160a01b911515919091021790935583519283529082018590529181018390527f23cba88d6c6f26b62b2cfc32a2cc04fbbde8590188b97cd3590e45af9ac6dd6d91015b60405180910390a15050565b6001600160a01b038516331480610f655750610f658533610a05565b610fd75760405162461bcd60e51b815260206004820152603260248201527f455243313135353a207472616e736665722063616c6c6572206973206e6f742060448201527f6f776e6572206e6f7220617070726f76656400000000000000000000000000006064820152608401610b2f565b610fe485858585856126dc565b5050505050565b6000828152600360205260409020600101546110068161294f565b6110108383612959565b505050565b6006546001600160a01b0316331461106f5760405162461bcd60e51b815260206004820152601560248201527f55736572206973206e6f7420746865206f776e657200000000000000000000006044820152606401610b2f565b600047116110bf5760405162461bcd60e51b815260206004820152601460248201527f4e6f2066756e647320746f2077697468647261770000000000000000000000006044820152606401610b2f565b60055460405163a9059cbb60e01b81526001600160a01b0383811660048301524760248301529091169063a9059cbb90604401602060405180830381600087803b15801561110c57600080fd5b505af1158015611120573d6000803e3d6000fd5b505050506040513d601f19601f82011682018060405250810190610d3191906138b8565b6001600160a01b03811633146111c25760405162461bcd60e51b815260206004820152602f60248201527f416363657373436f6e74726f6c3a2063616e206f6e6c792072656e6f756e636560448201527f20726f6c657320666f722073656c6600000000000000000000000000000000006064820152608401610b2f565b610d3182826129fb565b6000600a54610100900460ff1660018111156111ea576111ea613e18565b1461125d5760405162461bcd60e51b815260206004820152602560248201527f436f6e7472616374206973206e6f74206163746976652061742074686973206d60448201527f6f6d656e740000000000000000000000000000000000000000000000000000006064820152608401610b2f565b6009546005546040517fdd62ed3e0000000000000000000000000000000000000000000000000000000081523360048201523060248201526001600160a01b039091169063dd62ed3e9060440160206040518083038186803b1580156112c257600080fd5b505afa1580156112d6573d6000803e3d6000fd5b505050506040513d601f19601f820116820180604052508101906112fa919061394b565b10156113485760405162461bcd60e51b815260206004820152600d60248201527f417070726f7665206669727374000000000000000000000000000000000000006044820152606401610b2f565b6005546009546040516323b872dd60e01b815233600482015230602482015260448101919091526001600160a01b03909116906323b872dd90606401602060405180830381600087803b15801561139e57600080fd5b505af11580156113b2573d6000803e3d6000fd5b505050506040513d601f19601f820116820180604052508101906113d691906138b8565b506113df612a7e565b506000600754600c546113f29190613dd8565b9050600080805b6008548110156114b7576000818152600e602052604081205461141c9085613cac565b90508385111561142e578093506114a4565b819250600061143d3084610ab5565b1115611481576000611450600184613cf7565b90505b600061145f3083610ab5565b111561146d5780935061147f565b8061147781613d3e565b915050611453565b505b61149e303385600160405180602001604052806000815250612531565b506114b7565b50806114af81613dbd565b9150506113f9565b5060095460408051338152602081019290925281018290527fea32e37a2618dbb680c93d891742e9e13b30d184822562a0ee3c09290fd42b439060600160405180910390a1505050565b6060815183511461157a5760405162461bcd60e51b815260206004820152602960248201527f455243313135353a206163636f756e747320616e6420696473206c656e67746860448201527f206d69736d6174636800000000000000000000000000000000000000000000006064820152608401610b2f565b6000835167ffffffffffffffff81111561159657611596613e44565b6040519080825280602002602001820160405280156115bf578160200160208202803683370190505b50905060005b84518110156116375761160a8582815181106115e3576115e3613e2e565b60200260200101518583815181106115fd576115fd613e2e565b6020026020010151610ab5565b82828151811061161c5761161c613e2e565b602090810291909101015261163081613dbd565b90506115c5565b509392505050565b61164833612467565b61169e5760405162461bcd60e51b815260206004820152602160248201527f55736572206973206e6f7420746865204f776e6572206f7220616e2041646d696044820152603760f91b6064820152608401610b2f565b60005b8151811015610d31576000600d60008484815181106116c2576116c2613e2e565b6020908102919091018101516001600160a01b03168252810191909152604001600020805460ff1916911515919091179055806116fe81613dbd565b9150506116a1565b61170f33612467565b6117655760405162461bcd60e51b815260206004820152602160248201527f55736572206973206e6f7420746865204f776e6572206f7220616e2041646d696044820152603760f91b6064820152608401610b2f565b6001600160a01b03166000908152600d60205260409020805460ff19166001179055565b61179233612467565b6117e85760405162461bcd60e51b815260206004820152602160248201527f55736572206973206e6f7420746865204f776e6572206f7220616e2041646d696044820152603760f91b6064820152608401610b2f565b6000828152600f60205260409020805461180190613d55565b1590506118505760405162461bcd60e51b815260206004820152601560248201527f43616e206e6f74207365742075726920747769636500000000000000000000006044820152606401610b2f565b6000828152600f6020908152604090912082516110109284019061343e565b600061187a82612bbf565b61188357600080fd5b6007546000838152600e602052604081205490916118a091613cc4565b9392505050565b6006546001600160a01b031633146119015760405162461bcd60e51b815260206004820152601560248201527f55736572206973206e6f7420746865206f776e657200000000000000000000006044820152606401610b2f565b610d9e600082612bd7565b600480546040517f70a082310000000000000000000000000000000000000000000000000000000081526001600160a01b0384811693820193909352600092839216906370a082319060240160206040518083038186803b15801561197057600080fd5b505afa158015611984573d6000803e3d6000fd5b505050506040513d601f19601f820116820180604052508101906119a8919061394b565b116119b257600080fd5b6001600160a01b0382166000908152600d602052604090205460ff166119d757600080fd5b506001919050565b6119e833612467565b611a3e5760405162461bcd60e51b815260206004820152602160248201527f55736572206973206e6f7420746865204f776e6572206f7220616e2041646d696044820152603760f91b6064820152608401610b2f565b60005b8151811015610d31576001600d6000848481518110611a6257611a62613e2e565b6020908102919091018101516001600160a01b03168252810191909152604001600020805460ff191691151591909117905580611a9e81613dbd565b915050611a41565b611aaf33612467565b611b055760405162461bcd60e51b815260206004820152602160248201527f55736572206973206e6f7420746865204f776e6572206f7220616e2041646d696044820152603760f91b6064820152608401610b2f565b6001600160a01b03166000908152600d60205260409020805460ff19169055565b611b2f33612467565b611b855760405162461bcd60e51b815260206004820152602160248201527f55736572206973206e6f7420746865204f776e6572206f7220616e2041646d696044820152603760f91b6064820152608401610b2f565b60098190556040518181527f06cd74aabc11982a85b554df4d7833623303656fe69bed4db1b0cb3245feebe390602001610c89565b610d31338383612be1565b60606000805b600b54811015611c6b576000600b8281548110611bea57611bea613e2e565b600091825260209182902060408051608081018252600393909302909101805483526001810154938301939093526002909201546001600160a01b03811692820192909252600160a01b90910460ff16151560608201819052909150611c5857611c55600184613cac565b92505b5080611c6381613dbd565b915050611bcb565b5060008167ffffffffffffffff811115611c8757611c87613e44565b604051908082528060200260200182016040528015611cd957816020015b604080516080810182526000808252602080830182905292820181905260608201528252600019909201910181611ca55790505b5090506000805b600b54811015611d9f576000600b8281548110611cff57611cff613e2e565b600091825260209182902060408051608081018252600393909302909101805483526001810154938301939093526002909201546001600160a01b03811692820192909252600160a01b90910460ff16151560608201819052909150611d8c5780848481518110611d7257611d72613e2e565b60200260200101819052508280611d8890613dbd565b9350505b5080611d9781613dbd565b915050611ce0565b50909392505050565b6006546001600160a01b03163314611e025760405162461bcd60e51b815260206004820152601560248201527f55736572206973206e6f7420746865206f776e657200000000000000000000006044820152606401610b2f565b60004711611e525760405162461bcd60e51b815260206004820152601460248201527f4e6f2066756e647320746f2077697468647261770000000000000000000000006044820152606401610b2f565b60055460405163a9059cbb60e01b81526001600160a01b038481166004830152602482018490529091169063a9059cbb90604401602060405180830381600087803b158015611ea057600080fd5b505af1158015611eb4573d6000803e3d6000fd5b505050506040513d601f19601f8201168201806040525081019061101091906138b8565b600082815260036020526040902060010154611ef38161294f565b61101083836129fb565b611f0633612467565b611f5c5760405162461bcd60e51b815260206004820152602160248201527f55736572206973206e6f7420746865204f776e6572206f7220616e2041646d696044820152603760f91b6064820152608401610b2f565b6000600a54610100900460ff166001811115611f7a57611f7a613e18565b1415611f9157600a805461ff001916610100179055565b600a805461ff0019169055565b6000600b8281548110611fb357611fb3613e2e565b600091825260209182902060408051608081018252600393909302909101805483526001810154938301849052600201546001600160a01b03808216848401819052600160a01b90920460ff161515606085015260055492516323b872dd60e01b815233600482015260248101929092526044820194909452919350909116906323b872dd90606401602060405180830381600087803b15801561205657600080fd5b505af115801561206a573d6000803e3d6000fd5b505050506040513d601f19601f8201168201806040525081019061208e91906138b8565b506120b030338360000151600160405180602001604052806000815250612531565b600160608281019190915260408083015160208085015183513381526001600160a01b0390931691830191909152918101859052918201527f642067ff529c9b5b1162502fc8e8a3a91dda56e126a84f2fe38d341236231a8290608001610f3d565b6001600160a01b03851633148061212e575061212e8533610a05565b6121a05760405162461bcd60e51b815260206004820152602960248201527f455243313135353a2063616c6c6572206973206e6f74206f776e6572206e6f7260448201527f20617070726f76656400000000000000000000000000000000000000000000006064820152608401610b2f565b610fe48585858585612531565b6060600060085460016121c09190613cac565b67ffffffffffffffff8111156121d8576121d8613e44565b604051908082528060200260200182016040528015612201578160200160208202803683370190505b50905060005b81518110156122495761221a8482610ab5565b82828151811061222c5761222c613e2e565b60209081029190910101528061224181613dbd565b915050612207565b5092915050565b60006001600160e01b031982167f7965db0b000000000000000000000000000000000000000000000000000000001480610b695750610b6982612cd6565b6001600160a01b03831661230a5760405162461bcd60e51b815260206004820152602360248201527f455243313135353a206275726e2066726f6d20746865207a65726f206164647260448201527f65737300000000000000000000000000000000000000000000000000000000006064820152608401610b2f565b33600061231684612d14565b9050600061232384612d14565b60408051602080820183526000918290528882528181528282206001600160a01b038b16835290522054909150848110156123c55760405162461bcd60e51b8152602060048201526024808201527f455243313135353a206275726e20616d6f756e7420657863656564732062616c60448201527f616e6365000000000000000000000000000000000000000000000000000000006064820152608401610b2f565b6000868152602081815260408083206001600160a01b038b81168086529184528285208a8703905582518b81529384018a90529092908816917fc3d58168c5ae7397731d063d5bbf3d657854427343f4c083240f7aacaa2d0f62910160405180910390a46040805160208101909152600090525b50505050505050565b8060008151811061245557612455613e2e565b6020026020010151600c819055505050565b6006546000906001600160a01b03838116911614806124bd57506001600160a01b03821660009081527f3617319a054d772f909f7c479a2cebe5066e836a939412e32403c99029b92eff602052604090205460ff165b6119d757600080fd5b6124e3826008548360405180602001604052806000815250612d5f565b6124fc600854826000918252600e602052604090912055565b806007600082825461250e9190613cac565b925050819055506001600860008282546125289190613cac565b90915550505050565b6001600160a01b0384166125955760405162461bcd60e51b815260206004820152602560248201527f455243313135353a207472616e7366657220746f20746865207a65726f206164604482015264647265737360d81b6064820152608401610b2f565b3360006125a185612d14565b905060006125ae85612d14565b90506000868152602081815260408083206001600160a01b038c168452909152902054858110156126345760405162461bcd60e51b815260206004820152602a60248201527f455243313135353a20696e73756666696369656e742062616c616e636520666f60448201526939103a3930b739b332b960b11b6064820152608401610b2f565b6000878152602081815260408083206001600160a01b038d8116855292528083208985039055908a16825281208054889290612671908490613cac565b909155505060408051888152602081018890526001600160a01b03808b16928c821692918816917fc3d58168c5ae7397731d063d5bbf3d657854427343f4c083240f7aacaa2d0f62910160405180910390a46126d1848a8a8a8a8a612e82565b505050505050505050565b81518351146127535760405162461bcd60e51b815260206004820152602860248201527f455243313135353a2069647320616e6420616d6f756e7473206c656e6774682060448201527f6d69736d617463680000000000000000000000000000000000000000000000006064820152608401610b2f565b6001600160a01b0384166127b75760405162461bcd60e51b815260206004820152602560248201527f455243313135353a207472616e7366657220746f20746865207a65726f206164604482015264647265737360d81b6064820152608401610b2f565b3360005b84518110156128e15760008582815181106127d8576127d8613e2e565b6020026020010151905060008583815181106127f6576127f6613e2e565b602090810291909101810151600084815280835260408082206001600160a01b038e1683529093529190912054909150818110156128895760405162461bcd60e51b815260206004820152602a60248201527f455243313135353a20696e73756666696369656e742062616c616e636520666f60448201526939103a3930b739b332b960b11b6064820152608401610b2f565b6000838152602081815260408083206001600160a01b038e8116855292528083208585039055908b168252812080548492906128c6908490613cac565b92505081905550505050806128da90613dbd565b90506127bb565b50846001600160a01b0316866001600160a01b0316826001600160a01b03167f4a39dc06d4c0dbc64b70af90fd698a233a518aa5d07e595d983b8c0526c8f7fb8787604051612931929190613c1f565b60405180910390a4612947818787878787613037565b505050505050565b610d9e8133613142565b60008281526003602090815260408083206001600160a01b038516845290915290205460ff16610d315760008281526003602090815260408083206001600160a01b03851684529091529020805460ff191660011790556129b73390565b6001600160a01b0316816001600160a01b0316837f2f8788117e7eff1d82e926ec794901d17c78024a50270940304540a733656f0d60405160405180910390a45050565b60008281526003602090815260408083206001600160a01b038516845290915290205460ff1615610d315760008281526003602090815260408083206001600160a01b0385168085529252808320805460ff1916905551339285917ff6391f5c32d9c69d2a47ea670b442974b53935d1edc7fd64eb21e047a839171b9190a45050565b6040517f5d3b1d300000000000000000000000000000000000000000000000000000000081527f0000000000000000000000000000000000000000000000000000000000000000600482015267ffffffffffffffff7f000000000000000000000000000000000000000000000000000000000000000016602482015260016044820181905263ffffffff7f0000000000000000000000000000000000000000000000000000000000000000166064830152608482015260009081906001600160a01b037f00000000000000000000000000000000000000000000000000000000000000001690635d3b1d309060a401602060405180830381600087803b158015612b8757600080fd5b505af1158015612b9b573d6000803e3d6000fd5b505050506040513d601f19601f82011682018060405250810190610b69919061394b565b6000818152600e60205260408120546119d757600080fd5b610d318282612959565b816001600160a01b0316836001600160a01b03161415612c695760405162461bcd60e51b815260206004820152602960248201527f455243313135353a2073657474696e6720617070726f76616c2073746174757360448201527f20666f722073656c6600000000000000000000000000000000000000000000006064820152608401610b2f565b6001600160a01b03838116600081815260016020908152604080832094871680845294825291829020805460ff191686151590811790915591519182527f17307eab39ab6107e8899845ad3d59bd9653f200f220920489ca2b5937696c31910160405180910390a3505050565b60006001600160e01b031982167f4e2312e0000000000000000000000000000000000000000000000000000000001480610b695750610b69826131c2565b60408051600180825281830190925260609160009190602080830190803683370190505090508281600081518110612d4e57612d4e613e2e565b602090810291909101015292915050565b6001600160a01b038416612ddb5760405162461bcd60e51b815260206004820152602160248201527f455243313135353a206d696e7420746f20746865207a65726f2061646472657360448201527f73000000000000000000000000000000000000000000000000000000000000006064820152608401610b2f565b336000612de785612d14565b90506000612df485612d14565b90506000868152602081815260408083206001600160a01b038b16845290915281208054879290612e26908490613cac565b909155505060408051878152602081018790526001600160a01b03808a1692600092918716917fc3d58168c5ae7397731d063d5bbf3d657854427343f4c083240f7aacaa2d0f62910160405180910390a4612439836000898989895b6001600160a01b0384163b156129475760405163f23a6e6160e01b81526001600160a01b0385169063f23a6e6190612ec69089908990889088908890600401613b5a565b602060405180830381600087803b158015612ee057600080fd5b505af1925050508015612f10575060408051601f3d908101601f19168201909252612f0d9181019061392e565b60015b612fc657612f1c613e5a565b806308c379a01415612f565750612f31613e76565b80612f3c5750612f58565b8060405162461bcd60e51b8152600401610b2f9190613c75565b505b60405162461bcd60e51b815260206004820152603460248201527f455243313135353a207472616e7366657220746f206e6f6e204552433131353560448201527f526563656976657220696d706c656d656e7465720000000000000000000000006064820152608401610b2f565b6001600160e01b0319811663f23a6e6160e01b146124395760405162461bcd60e51b815260206004820152602860248201527f455243313135353a204552433131353552656365697665722072656a656374656044820152676420746f6b656e7360c01b6064820152608401610b2f565b6001600160a01b0384163b156129475760405163bc197c8160e01b81526001600160a01b0385169063bc197c819061307b9089908990889088908890600401613afc565b602060405180830381600087803b15801561309557600080fd5b505af19250505080156130c5575060408051601f3d908101601f191682019092526130c29181019061392e565b60015b6130d157612f1c613e5a565b6001600160e01b0319811663bc197c8160e01b146124395760405162461bcd60e51b815260206004820152602860248201527f455243313135353a204552433131353552656365697665722072656a656374656044820152676420746f6b656e7360c01b6064820152608401610b2f565b60008281526003602090815260408083206001600160a01b038516845290915290205460ff16610d3157613180816001600160a01b0316601461325d565b61318b83602061325d565b60405160200161319c929190613a7b565b60408051601f198184030181529082905262461bcd60e51b8252610b2f91600401613c75565b60006001600160e01b031982167fd9b67a2600000000000000000000000000000000000000000000000000000000148061322557506001600160e01b031982167f0e89341c00000000000000000000000000000000000000000000000000000000145b80610b6957507f01ffc9a7000000000000000000000000000000000000000000000000000000006001600160e01b0319831614610b69565b6060600061326c836002613cd8565b613277906002613cac565b67ffffffffffffffff81111561328f5761328f613e44565b6040519080825280601f01601f1916602001820160405280156132b9576020820181803683370190505b5090507f3000000000000000000000000000000000000000000000000000000000000000816000815181106132f0576132f0613e2e565b60200101906001600160f81b031916908160001a9053507f78000000000000000000000000000000000000000000000000000000000000008160018151811061333b5761333b613e2e565b60200101906001600160f81b031916908160001a905350600061335f846002613cd8565b61336a906001613cac565b90505b60018111156133ef577f303132333435363738396162636465660000000000000000000000000000000085600f16601081106133ab576133ab613e2e565b1a60f81b8282815181106133c1576133c1613e2e565b60200101906001600160f81b031916908160001a90535060049490941c936133e881613d3e565b905061336d565b5083156118a05760405162461bcd60e51b815260206004820181905260248201527f537472696e67733a20686578206c656e67746820696e73756666696369656e746044820152606401610b2f565b82805461344a90613d55565b90600052602060002090601f01602090048101928261346c57600085556134b2565b82601f1061348557805160ff19168380011785556134b2565b828001600101855582156134b2579182015b828111156134b2578251825591602001919060010190613497565b506134be9291506134c2565b5090565b5b808211156134be57600081556001016134c3565b600067ffffffffffffffff8311156134f1576134f1613e44565b604051613508601f8501601f191660200182613d90565b80915083815284848401111561351d57600080fd5b83836020830137600060208583010152509392505050565b80356001600160a01b038116811461354c57600080fd5b919050565b600082601f83011261356257600080fd5b8135602061356f82613c88565b60405161357c8282613d90565b8381528281019150858301600585901b8701840188101561359c57600080fd5b60005b858110156135c2576135b082613535565b8452928401929084019060010161359f565b5090979650505050505050565b600082601f8301126135e057600080fd5b813560206135ed82613c88565b6040516135fa8282613d90565b8381528281019150858301600585901b8701840188101561361a57600080fd5b60005b858110156135c25781358452928401929084019060010161361d565b600082601f83011261364a57600080fd5b6118a0838335602085016134d7565b60006020828403121561366b57600080fd5b6118a082613535565b6000806040838503121561368757600080fd5b61369083613535565b915061369e60208401613535565b90509250929050565b600080600080600060a086880312156136bf57600080fd5b6136c886613535565b94506136d660208701613535565b9350604086013567ffffffffffffffff808211156136f357600080fd5b6136ff89838a016135cf565b9450606088013591508082111561371557600080fd5b61372189838a016135cf565b9350608088013591508082111561373757600080fd5b5061374488828901613639565b9150509295509295909350565b600080600080600060a0868803121561376957600080fd5b61377286613535565b945061378060208701613535565b93506040860135925060608601359150608086013567ffffffffffffffff8111156137aa57600080fd5b61374488828901613639565b600080604083850312156137c957600080fd5b6137d283613535565b915060208301356137e281613f00565b809150509250929050565b6000806040838503121561380057600080fd5b61380983613535565b946020939093013593505050565b60006020828403121561382957600080fd5b813567ffffffffffffffff81111561384057600080fd5b61384c84828501613551565b949350505050565b6000806040838503121561386757600080fd5b823567ffffffffffffffff8082111561387f57600080fd5b61388b86838701613551565b935060208501359150808211156138a157600080fd5b506138ae858286016135cf565b9150509250929050565b6000602082840312156138ca57600080fd5b81516118a081613f00565b6000602082840312156138e757600080fd5b5035919050565b6000806040838503121561390157600080fd5b8235915061369e60208401613535565b60006020828403121561392357600080fd5b81356118a081613f0e565b60006020828403121561394057600080fd5b81516118a081613f0e565b60006020828403121561395d57600080fd5b5051919050565b6000806040838503121561397757600080fd5b82359150602083013567ffffffffffffffff81111561399557600080fd5b6138ae858286016135cf565b600080604083850312156139b457600080fd5b82359150602083013567ffffffffffffffff8111156139d257600080fd5b8301601f810185136139e357600080fd5b6138ae858235602084016134d7565b60008060408385031215613a0557600080fd5b50508035926020909101359150565b600081518084526020808501945080840160005b83811015613a4457815187529582019590820190600101613a28565b509495945050505050565b60008151808452613a67816020860160208601613d0e565b601f01601f19169290920160200192915050565b7f416363657373436f6e74726f6c3a206163636f756e7420000000000000000000815260008351613ab3816017850160208801613d0e565b7f206973206d697373696e6720726f6c65200000000000000000000000000000006017918401918201528351613af0816028840160208801613d0e565b01602801949350505050565b60006001600160a01b03808816835280871660208401525060a06040830152613b2860a0830186613a14565b8281036060840152613b3a8186613a14565b90508281036080840152613b4e8185613a4f565b98975050505050505050565b60006001600160a01b03808816835280871660208401525084604083015283606083015260a06080830152613b9260a0830184613a4f565b979650505050505050565b602080825282518282018190526000919060409081850190868401855b82811015613bff578151805185528681015187860152858101516001600160a01b03168686015260609081015115159085015260809093019290850190600101613bba565b5091979650505050505050565b6020815260006118a06020830184613a14565b604081526000613c326040830185613a14565b8281036020840152613c448185613a14565b95945050505050565b6020810160028310613c6f57634e487b7160e01b600052602160045260246000fd5b91905290565b6020815260006118a06020830184613a4f565b600067ffffffffffffffff821115613ca257613ca2613e44565b5060051b60200190565b60008219821115613cbf57613cbf613dec565b500190565b600082613cd357613cd3613e02565b500490565b6000816000190483118215151615613cf257613cf2613dec565b500290565b600082821015613d0957613d09613dec565b500390565b60005b83811015613d29578181015183820152602001613d11565b83811115613d38576000848401525b50505050565b600081613d4d57613d4d613dec565b506000190190565b600181811c90821680613d6957607f821691505b60208210811415613d8a57634e487b7160e01b600052602260045260246000fd5b50919050565b601f8201601f1916810167ffffffffffffffff81118282101715613db657613db6613e44565b6040525050565b6000600019821415613dd157613dd1613dec565b5060010190565b600082613de757613de7613e02565b500690565b634e487b7160e01b600052601160045260246000fd5b634e487b7160e01b600052601260045260246000fd5b634e487b7160e01b600052602160045260246000fd5b634e487b7160e01b600052603260045260246000fd5b634e487b7160e01b600052604160045260246000fd5b600060033d1115613e735760046000803e5060005160e01c5b90565b600060443d1015613e845790565b6040516003193d81016004833e81513d67ffffffffffffffff8160248401118184111715613eb457505050505090565b8285019150815181811115613ecc5750505050505090565b843d8701016020828501011115613ee65750505050505090565b613ef560208286010187613d90565b509095945050505050565b8015158114610d9e57600080fd5b6001600160e01b031981168114610d9e57600080fdfea26469706673582212200bf2d31ba9369053664dd3553d0f0e9af15b748b3a0b225962f19a703c37282f64736f6c63430008070033",
  "linkReferences": {},
  "deployedLinkReferences": {}
}