{
  "_format": "hh-sol-artifact-1",
  "contractName": "RacksItems",
  "sourceName": "contracts/RacksItems.sol",
  "abi": [
    {
      "inputs": [
        {
          "internalType": "address",
          "name": "vrfCoordinatorV2",
          "type": "address"
        },
        {
          "internalType": "bytes32",
          "name": "gasLane",
          "type": "bytes32"
        },
        {
          "internalType": "uint64",
          "name": "subscriptionId",
          "type": "uint64"
        },
        {
          "internalType": "uint32",
          "name": "callbackGasLimit",
          "type": "uint32"
        },
        {
          "internalType": "contract RacksToken",
          "name": "_racksToken",
          "type": "address"
        }
      ],
      "stateMutability": "nonpayable",
      "type": "constructor"
    },
    {
      "inputs": [
        {
          "internalType": "address",
          "name": "have",
          "type": "address"
        },
        {
          "internalType": "address",
          "name": "want",
          "type": "address"
        }
      ],
      "name": "OnlyCoordinatorCanFulfill",
      "type": "error"
    },
    {
      "anonymous": false,
      "inputs": [
        {
          "indexed": true,
          "internalType": "address",
          "name": "account",
          "type": "address"
        },
        {
          "indexed": true,
          "internalType": "address",
          "name": "operator",
          "type": "address"
        },
        {
          "indexed": false,
          "internalType": "bool",
          "name": "approved",
          "type": "bool"
        }
      ],
      "name": "ApprovalForAll",
      "type": "event"
    },
    {
      "anonymous": false,
      "inputs": [
        {
          "indexed": false,
          "internalType": "address",
          "name": "user",
          "type": "address"
        },
        {
          "indexed": false,
          "internalType": "uint256",
          "name": "casePrice",
          "type": "uint256"
        },
        {
          "indexed": false,
          "internalType": "uint256",
          "name": "item",
          "type": "uint256"
        }
      ],
      "name": "CaseOpened",
      "type": "event"
    },
    {
      "anonymous": false,
      "inputs": [
        {
          "indexed": true,
          "internalType": "bytes32",
          "name": "role",
          "type": "bytes32"
        },
        {
          "indexed": true,
          "internalType": "bytes32",
          "name": "previousAdminRole",
          "type": "bytes32"
        },
        {
          "indexed": true,
          "internalType": "bytes32",
          "name": "newAdminRole",
          "type": "bytes32"
        }
      ],
      "name": "RoleAdminChanged",
      "type": "event"
    },
    {
      "anonymous": false,
      "inputs": [
        {
          "indexed": true,
          "internalType": "bytes32",
          "name": "role",
          "type": "bytes32"
        },
        {
          "indexed": true,
          "internalType": "address",
          "name": "account",
          "type": "address"
        },
        {
          "indexed": true,
          "internalType": "address",
          "name": "sender",
          "type": "address"
        }
      ],
      "name": "RoleGranted",
      "type": "event"
    },
    {
      "anonymous": false,
      "inputs": [
        {
          "indexed": true,
          "internalType": "bytes32",
          "name": "role",
          "type": "bytes32"
        },
        {
          "indexed": true,
          "internalType": "address",
          "name": "account",
          "type": "address"
        },
        {
          "indexed": true,
          "internalType": "address",
          "name": "sender",
          "type": "address"
        }
      ],
      "name": "RoleRevoked",
      "type": "event"
    },
    {
      "anonymous": false,
      "inputs": [
        {
          "indexed": true,
          "internalType": "address",
          "name": "operator",
          "type": "address"
        },
        {
          "indexed": true,
          "internalType": "address",
          "name": "from",
          "type": "address"
        },
        {
          "indexed": true,
          "internalType": "address",
          "name": "to",
          "type": "address"
        },
        {
          "indexed": false,
          "internalType": "uint256[]",
          "name": "ids",
          "type": "uint256[]"
        },
        {
          "indexed": false,
          "internalType": "uint256[]",
          "name": "values",
          "type": "uint256[]"
        }
      ],
      "name": "TransferBatch",
      "type": "event"
    },
    {
      "anonymous": false,
      "inputs": [
        {
          "indexed": true,
          "internalType": "address",
          "name": "operator",
          "type": "address"
        },
        {
          "indexed": true,
          "internalType": "address",
          "name": "from",
          "type": "address"
        },
        {
          "indexed": true,
          "internalType": "address",
          "name": "to",
          "type": "address"
        },
        {
          "indexed": false,
          "internalType": "uint256",
          "name": "id",
          "type": "uint256"
        },
        {
          "indexed": false,
          "internalType": "uint256",
          "name": "value",
          "type": "uint256"
        }
      ],
      "name": "TransferSingle",
      "type": "event"
    },
    {
      "anonymous": false,
      "inputs": [
        {
          "indexed": false,
          "internalType": "string",
          "name": "value",
          "type": "string"
        },
        {
          "indexed": true,
          "internalType": "uint256",
          "name": "id",
          "type": "uint256"
        }
      ],
      "name": "URI",
      "type": "event"
    },
    {
      "anonymous": false,
      "inputs": [
        {
          "indexed": false,
          "internalType": "uint256",
          "name": "newPrice",
          "type": "uint256"
        }
      ],
      "name": "casePriceChanged",
      "type": "event"
    },
    {
      "anonymous": false,
      "inputs": [
        {
          "indexed": false,
          "internalType": "address",
          "name": "buyer",
          "type": "address"
        },
        {
          "indexed": false,
          "internalType": "address",
          "name": "seller",
          "type": "address"
        },
        {
          "indexed": false,
          "internalType": "uint256",
          "name": "marketItemId",
          "type": "uint256"
        },
        {
          "indexed": false,
          "internalType": "uint256",
          "name": "price",
          "type": "uint256"
        }
      ],
      "name": "itemBought",
      "type": "event"
    },
    {
      "anonymous": false,
      "inputs": [
        {
          "indexed": false,
          "internalType": "address",
          "name": "user",
          "type": "address"
        },
        {
          "indexed": false,
          "internalType": "uint256",
          "name": "tokenId",
          "type": "uint256"
        }
      ],
      "name": "itemExchanged",
      "type": "event"
    },
    {
      "anonymous": false,
      "inputs": [
        {
          "indexed": false,
          "internalType": "address",
          "name": "user",
          "type": "address"
        },
        {
          "indexed": false,
          "internalType": "uint256",
          "name": "tokenId",
          "type": "uint256"
        },
        {
          "indexed": false,
          "internalType": "uint256",
          "name": "price",
          "type": "uint256"
        }
      ],
      "name": "sellingItem",
      "type": "event"
    },
    {
      "inputs": [],
      "name": "ADMIN_ROLE",
      "outputs": [
        {
          "internalType": "bytes32",
          "name": "",
          "type": "bytes32"
        }
      ],
      "stateMutability": "view",
      "type": "function"
    },
    {
      "inputs": [],
      "name": "DEFAULT_ADMIN_ROLE",
      "outputs": [
        {
          "internalType": "bytes32",
          "name": "",
          "type": "bytes32"
        }
      ],
      "stateMutability": "view",
      "type": "function"
    },
    {
      "inputs": [],
      "name": "NUM_WORDS",
      "outputs": [
        {
          "internalType": "uint32",
          "name": "",
          "type": "uint32"
        }
      ],
      "stateMutability": "view",
      "type": "function"
    },
    {
      "inputs": [],
      "name": "REQUEST_CONFIRMATIONS",
      "outputs": [
        {
          "internalType": "uint16",
          "name": "",
          "type": "uint16"
        }
      ],
      "stateMutability": "view",
      "type": "function"
    },
    {
      "inputs": [],
      "name": "_randomNumber",
      "outputs": [
        {
          "internalType": "uint256",
          "name": "",
          "type": "uint256"
        }
      ],
      "stateMutability": "nonpayable",
      "type": "function"
    },
    {
      "inputs": [
        {
          "internalType": "uint256",
          "name": "tokenId",
          "type": "uint256"
        }
      ],
      "name": "_rarityOfItem",
      "outputs": [
        {
          "internalType": "uint256",
          "name": "",
          "type": "uint256"
        }
      ],
      "stateMutability": "view",
      "type": "function"
    },
    {
      "inputs": [
        {
          "internalType": "address",
          "name": "account",
          "type": "address"
        },
        {
          "internalType": "uint256",
          "name": "id",
          "type": "uint256"
        }
      ],
      "name": "balanceOf",
      "outputs": [
        {
          "internalType": "uint256",
          "name": "",
          "type": "uint256"
        }
      ],
      "stateMutability": "view",
      "type": "function"
    },
    {
      "inputs": [
        {
          "internalType": "address[]",
          "name": "accounts",
          "type": "address[]"
        },
        {
          "internalType": "uint256[]",
          "name": "ids",
          "type": "uint256[]"
        }
      ],
      "name": "balanceOfBatch",
      "outputs": [
        {
          "internalType": "uint256[]",
          "name": "",
          "type": "uint256[]"
        }
      ],
      "stateMutability": "view",
      "type": "function"
    },
    {
      "inputs": [
        {
          "internalType": "uint256",
          "name": "marketItemId",
          "type": "uint256"
        }
      ],
      "name": "buyItem",
      "outputs": [],
      "stateMutability": "payable",
      "type": "function"
    },
    {
      "inputs": [],
      "name": "casePrice",
      "outputs": [
        {
          "internalType": "uint256",
          "name": "",
          "type": "uint256"
        }
      ],
      "stateMutability": "view",
      "type": "function"
    },
    {
      "inputs": [],
      "name": "contractActive",
      "outputs": [
        {
          "internalType": "bool",
          "name": "",
          "type": "bool"
        }
      ],
      "stateMutability": "view",
      "type": "function"
    },
    {
      "inputs": [
        {
          "internalType": "uint256",
          "name": "tokenId",
          "type": "uint256"
        }
      ],
      "name": "exchangeItem",
      "outputs": [],
      "stateMutability": "nonpayable",
      "type": "function"
    },
    {
      "inputs": [],
      "name": "flipContractState",
      "outputs": [],
      "stateMutability": "nonpayable",
      "type": "function"
    },
    {
      "inputs": [],
      "name": "getCasePrice",
      "outputs": [
        {
          "internalType": "uint256",
          "name": "",
          "type": "uint256"
        }
      ],
      "stateMutability": "view",
      "type": "function"
    },
    {
      "inputs": [],
      "name": "getItemsOnSale",
      "outputs": [
        {
          "components": [
            {
              "internalType": "uint256",
              "name": "tokenId",
              "type": "uint256"
            },
            {
              "internalType": "uint256",
              "name": "price",
              "type": "uint256"
            },
            {
              "internalType": "address payable",
              "name": "seller",
              "type": "address"
            },
            {
              "internalType": "bool",
              "name": "sold",
              "type": "bool"
            }
          ],
          "internalType": "struct RacksItems.itemOnSale[]",
          "name": "",
          "type": "tuple[]"
        }
      ],
      "stateMutability": "view",
      "type": "function"
    },
    {
      "inputs": [
        {
          "internalType": "bytes32",
          "name": "role",
          "type": "bytes32"
        }
      ],
      "name": "getRoleAdmin",
      "outputs": [
        {
          "internalType": "bytes32",
          "name": "",
          "type": "bytes32"
        }
      ],
      "stateMutability": "view",
      "type": "function"
    },
    {
      "inputs": [
        {
          "internalType": "bytes32",
          "name": "role",
          "type": "bytes32"
        },
        {
          "internalType": "address",
          "name": "account",
          "type": "address"
        }
      ],
      "name": "grantRole",
      "outputs": [],
      "stateMutability": "nonpayable",
      "type": "function"
    },
    {
      "inputs": [
        {
          "internalType": "bytes32",
          "name": "role",
          "type": "bytes32"
        },
        {
          "internalType": "address",
          "name": "account",
          "type": "address"
        }
      ],
      "name": "hasRole",
      "outputs": [
        {
          "internalType": "bool",
          "name": "",
          "type": "bool"
        }
      ],
      "stateMutability": "view",
      "type": "function"
    },
    {
      "inputs": [],
      "name": "i_MrCryptoAddress",
      "outputs": [
        {
          "internalType": "address",
          "name": "",
          "type": "address"
        }
      ],
      "stateMutability": "view",
      "type": "function"
    },
    {
      "inputs": [],
      "name": "i_callbackGasLimit",
      "outputs": [
        {
          "internalType": "uint32",
          "name": "",
          "type": "uint32"
        }
      ],
      "stateMutability": "view",
      "type": "function"
    },
    {
      "inputs": [],
      "name": "i_gasLane",
      "outputs": [
        {
          "internalType": "bytes32",
          "name": "",
          "type": "bytes32"
        }
      ],
      "stateMutability": "view",
      "type": "function"
    },
    {
      "inputs": [],
      "name": "i_subscriptionId",
      "outputs": [
        {
          "internalType": "uint64",
          "name": "",
          "type": "uint64"
        }
      ],
      "stateMutability": "view",
      "type": "function"
    },
    {
      "inputs": [],
      "name": "i_vrfCoordinator",
      "outputs": [
        {
          "internalType": "contract VRFCoordinatorV2Interface",
          "name": "",
          "type": "address"
        }
      ],
      "stateMutability": "view",
      "type": "function"
    },
    {
      "inputs": [
        {
          "internalType": "address",
          "name": "account",
          "type": "address"
        },
        {
          "internalType": "address",
          "name": "operator",
          "type": "address"
        }
      ],
      "name": "isApprovedForAll",
      "outputs": [
        {
          "internalType": "bool",
          "name": "",
          "type": "bool"
        }
      ],
      "stateMutability": "view",
      "type": "function"
    },
    {
      "inputs": [
        {
          "internalType": "address",
          "name": "user",
          "type": "address"
        }
      ],
      "name": "isVip",
      "outputs": [
        {
          "internalType": "bool",
          "name": "",
          "type": "bool"
        }
      ],
      "stateMutability": "view",
      "type": "function"
    },
    {
      "inputs": [
        {
          "internalType": "uint256",
          "name": "itemSupply",
          "type": "uint256"
        }
      ],
      "name": "listItem",
      "outputs": [],
      "stateMutability": "nonpayable",
      "type": "function"
    },
    {
      "inputs": [
        {
          "internalType": "address",
          "name": "",
          "type": "address"
        },
        {
          "internalType": "address",
          "name": "",
          "type": "address"
        },
        {
          "internalType": "uint256[]",
          "name": "",
          "type": "uint256[]"
        },
        {
          "internalType": "uint256[]",
          "name": "",
          "type": "uint256[]"
        },
        {
          "internalType": "bytes",
          "name": "",
          "type": "bytes"
        }
      ],
      "name": "onERC1155BatchReceived",
      "outputs": [
        {
          "internalType": "bytes4",
          "name": "",
          "type": "bytes4"
        }
      ],
      "stateMutability": "nonpayable",
      "type": "function"
    },
    {
      "inputs": [
        {
          "internalType": "address",
          "name": "",
          "type": "address"
        },
        {
          "internalType": "address",
          "name": "",
          "type": "address"
        },
        {
          "internalType": "uint256",
          "name": "",
          "type": "uint256"
        },
        {
          "internalType": "uint256",
          "name": "",
          "type": "uint256"
        },
        {
          "internalType": "bytes",
          "name": "",
          "type": "bytes"
        }
      ],
      "name": "onERC1155Received",
      "outputs": [
        {
          "internalType": "bytes4",
          "name": "",
          "type": "bytes4"
        }
      ],
      "stateMutability": "nonpayable",
      "type": "function"
    },
    {
      "inputs": [],
      "name": "openCase",
      "outputs": [],
      "stateMutability": "nonpayable",
      "type": "function"
    },
    {
      "inputs": [],
      "name": "racksToken",
      "outputs": [
        {
          "internalType": "contract RacksToken",
          "name": "",
          "type": "address"
        }
      ],
      "stateMutability": "view",
      "type": "function"
    },
    {
      "inputs": [
        {
          "internalType": "uint256",
          "name": "requestId",
          "type": "uint256"
        },
        {
          "internalType": "uint256[]",
          "name": "randomWords",
          "type": "uint256[]"
        }
      ],
      "name": "rawFulfillRandomWords",
      "outputs": [],
      "stateMutability": "nonpayable",
      "type": "function"
    },
    {
      "inputs": [
        {
          "internalType": "address[]",
          "name": "users",
          "type": "address[]"
        }
      ],
      "name": "removeListRacksMembers",
      "outputs": [],
      "stateMutability": "nonpayable",
      "type": "function"
    },
    {
      "inputs": [
        {
          "internalType": "address",
          "name": "user",
          "type": "address"
        }
      ],
      "name": "removeSingleRacksMember",
      "outputs": [],
      "stateMutability": "nonpayable",
      "type": "function"
    },
    {
      "inputs": [
        {
          "internalType": "bytes32",
          "name": "role",
          "type": "bytes32"
        },
        {
          "internalType": "address",
          "name": "account",
          "type": "address"
        }
      ],
      "name": "renounceRole",
      "outputs": [],
      "stateMutability": "nonpayable",
      "type": "function"
    },
    {
      "inputs": [
        {
          "internalType": "bytes32",
          "name": "role",
          "type": "bytes32"
        },
        {
          "internalType": "address",
          "name": "account",
          "type": "address"
        }
      ],
      "name": "revokeRole",
      "outputs": [],
      "stateMutability": "nonpayable",
      "type": "function"
    },
    {
      "inputs": [],
      "name": "s_contractState",
      "outputs": [
        {
          "internalType": "enum RacksItems.ContractState",
          "name": "",
          "type": "uint8"
        }
      ],
      "stateMutability": "view",
      "type": "function"
    },
    {
      "inputs": [],
      "name": "s_randomWord",
      "outputs": [
        {
          "internalType": "uint256",
          "name": "",
          "type": "uint256"
        }
      ],
      "stateMutability": "view",
      "type": "function"
    },
    {
      "inputs": [
        {
          "internalType": "address",
          "name": "from",
          "type": "address"
        },
        {
          "internalType": "address",
          "name": "to",
          "type": "address"
        },
        {
          "internalType": "uint256[]",
          "name": "ids",
          "type": "uint256[]"
        },
        {
          "internalType": "uint256[]",
          "name": "amounts",
          "type": "uint256[]"
        },
        {
          "internalType": "bytes",
          "name": "data",
          "type": "bytes"
        }
      ],
      "name": "safeBatchTransferFrom",
      "outputs": [],
      "stateMutability": "nonpayable",
      "type": "function"
    },
    {
      "inputs": [
        {
          "internalType": "address",
          "name": "from",
          "type": "address"
        },
        {
          "internalType": "address",
          "name": "to",
          "type": "address"
        },
        {
          "internalType": "uint256",
          "name": "id",
          "type": "uint256"
        },
        {
          "internalType": "uint256",
          "name": "amount",
          "type": "uint256"
        },
        {
          "internalType": "bytes",
          "name": "data",
          "type": "bytes"
        }
      ],
      "name": "safeTransferFrom",
      "outputs": [],
      "stateMutability": "nonpayable",
      "type": "function"
    },
    {
      "inputs": [
        {
          "internalType": "uint256",
          "name": "tokenId",
          "type": "uint256"
        },
        {
          "internalType": "uint256",
          "name": "price",
          "type": "uint256"
        }
      ],
      "name": "sellItem",
      "outputs": [],
      "stateMutability": "nonpayable",
      "type": "function"
    },
    {
      "inputs": [
        {
          "internalType": "address",
          "name": "_newAdmin",
          "type": "address"
        }
      ],
      "name": "setAdmin",
      "outputs": [],
      "stateMutability": "nonpayable",
      "type": "function"
    },
    {
      "inputs": [
        {
          "internalType": "address",
          "name": "operator",
          "type": "address"
        },
        {
          "internalType": "bool",
          "name": "approved",
          "type": "bool"
        }
      ],
      "name": "setApprovalForAll",
      "outputs": [],
      "stateMutability": "nonpayable",
      "type": "function"
    },
    {
      "inputs": [
        {
          "internalType": "uint256",
          "name": "price",
          "type": "uint256"
        }
      ],
      "name": "setCasePrice",
      "outputs": [],
      "stateMutability": "nonpayable",
      "type": "function"
    },
    {
      "inputs": [
        {
          "internalType": "address[]",
          "name": "users",
          "type": "address[]"
        }
      ],
      "name": "setListRacksMembers",
      "outputs": [],
      "stateMutability": "nonpayable",
      "type": "function"
    },
    {
      "inputs": [
        {
          "internalType": "address",
          "name": "user",
          "type": "address"
        }
      ],
      "name": "setSingleRacksMember",
      "outputs": [],
      "stateMutability": "nonpayable",
      "type": "function"
    },
    {
      "inputs": [
        {
          "internalType": "uint256",
          "name": "tokenId",
          "type": "uint256"
        },
        {
          "internalType": "string",
          "name": "_uri",
          "type": "string"
        }
      ],
      "name": "setTokenUri",
      "outputs": [],
      "stateMutability": "nonpayable",
      "type": "function"
    },
    {
      "inputs": [
        {
          "internalType": "uint256",
          "name": "tokenId",
          "type": "uint256"
        }
      ],
      "name": "supplyOfItem",
      "outputs": [
        {
          "internalType": "uint256",
          "name": "",
          "type": "uint256"
        }
      ],
      "stateMutability": "view",
      "type": "function"
    },
    {
      "inputs": [
        {
          "internalType": "bytes4",
          "name": "interfaceId",
          "type": "bytes4"
        }
      ],
      "name": "supportsInterface",
      "outputs": [
        {
          "internalType": "bool",
          "name": "",
          "type": "bool"
        }
      ],
      "stateMutability": "view",
      "type": "function"
    },
    {
      "inputs": [
        {
          "internalType": "uint256",
          "name": "tokenId",
          "type": "uint256"
        }
      ],
      "name": "uri",
      "outputs": [
        {
          "internalType": "string",
          "name": "",
          "type": "string"
        }
      ],
      "stateMutability": "view",
      "type": "function"
    },
    {
      "inputs": [
        {
          "internalType": "address",
          "name": "owner",
          "type": "address"
        }
      ],
      "name": "viewItems",
      "outputs": [
        {
          "internalType": "uint256[]",
          "name": "",
          "type": "uint256[]"
        }
      ],
      "stateMutability": "view",
      "type": "function"
    },
    {
      "inputs": [
        {
          "internalType": "address",
          "name": "wallet",
          "type": "address"
        }
      ],
      "name": "withdrawAllFunds",
      "outputs": [],
      "stateMutability": "nonpayable",
      "type": "function"
    },
    {
      "inputs": [
        {
          "internalType": "address",
          "name": "wallet",
          "type": "address"
        },
        {
          "internalType": "uint256",
          "name": "amount",
          "type": "uint256"
        }
      ],
      "name": "withdrawFunds",
      "outputs": [],
      "stateMutability": "nonpayable",
      "type": "function"
    },
    {
      "stateMutability": "payable",
      "type": "receive"
    }
  ],
  "bytecode": "0x610120604052600a805460ff191660011790553480156200001f57600080fd5b50604051620041a3380380620041a38339810160408190526200004291620001ca565b60408051602081019091526000815285906200005e816200010b565b50606090811b6001600160601b031990811660805295901b90941660a05260c0928352911b6001600160c01b03191660e09081521b6001600160e01b031916610100526004805473ef453154766505feb9dbf0a58e6990fd6eb669696001600160a01b0319918216179091556005805482166001600160a01b0393909316929092179091556006805433921691909117905560006008556001600955600a805461ff0019169055620002a7565b80516200012090600290602084019062000124565b5050565b828054620001329062000251565b90600052602060002090601f016020900481019282620001565760008555620001a1565b82601f106200017157805160ff1916838001178555620001a1565b82800160010185558215620001a1579182015b82811115620001a157825182559160200191906001019062000184565b50620001af929150620001b3565b5090565b5b80821115620001af5760008155600101620001b4565b600080600080600060a08688031215620001e357600080fd5b8551620001f0816200028e565b6020870151604088015191965094506001600160401b03811681146200021557600080fd5b606087015190935063ffffffff811681146200023057600080fd5b608087015190925062000243816200028e565b809150509295509295909350565b600181811c908216806200026657607f821691505b602082108114156200028857634e487b7160e01b600052602260045260246000fd5b50919050565b6001600160a01b0381168114620002a457600080fd5b50565b60805160601c60a05160601c60c05160e05160c01c6101005160e01c613e886200031b600039600081816109a6015261183401526000818161058f01526118010152600081816107ba01526117d2015260008181610869015261186f015260008181610cbf0152610d1a0152613e886000f3fe6080604052600436106103425760003560e01c806384203f4b116101b0578063c1075329116100ec578063e289fcb611610095578063f23a6e611161006f578063f23a6e6114610a53578063f242432a14610a7f578063f48c9d3414610a9f578063fd210fd914610abf57600080fd5b8063e289fcb6146109dd578063e7fb74c7146109f7578063e985e9c514610a0a57600080fd5b8063d547741f116100c6578063d547741f14610974578063d757d02714610994578063de08f653146109c857600080fd5b8063c10753291461091e578063c7e05f8d1461093e578063ca90958f1461095e57600080fd5b8063976298f311610159578063aebc455011610133578063aebc455014610857578063b63b86121461088b578063bbcbc2e7146108b7578063bc197c81146108d957600080fd5b8063976298f314610822578063a217fddf14610713578063a22cb4651461083757600080fd5b80638dc5f45b1161018a5780638dc5f45b146107885780638e879c8a146107a857806391d14854146107dc57600080fd5b806384203f4b1461072857806389165aa9146107485780638ba8b15a1461076857600080fd5b806336568abe1161027f57806357f7789e1161022857806368b721001161020257806368b72100146106a9578063704b6c02146106c957806372cf6e34146106e957806375b238fc1461071357600080fd5b806357f7789e1461064c578063616524501461066c57806367f082b01461068157600080fd5b80634e1273f4116102595780634e1273f4146105df5780635408c3191461060c57806354e889f61461062c57600080fd5b806336568abe1461055d578063470cdf971461057d5780634a226657146105ca57600080fd5b806320ba0814116102ec5780632d923561116102c65780632d923561146104dd5780632eb2c2d6146104fd5780632f2ff15d1461051d57806332dee40b1461053d57600080fd5b806320ba081414610460578063248a9ca31461048d5780632ce38190146104bd57600080fd5b8063109b82781161031d578063109b8278146103de5780631cb0b2731461041e5780631fe543e31461044057600080fd5b8062fdd58e1461034e57806301ffc9a7146103815780630e89341c146103b157600080fd5b3661034957005b600080fd5b34801561035a57600080fd5b5061036e61036936600461371b565b610ad5565b6040519081526020015b60405180910390f35b34801561038d57600080fd5b506103a161039c36600461383f565b610b7e565b6040519015158152602001610378565b3480156103bd57600080fd5b506103d16103cc366004613803565b610b8f565b6040516103789190613ba3565b3480156103ea57600080fd5b5061040673ef453154766505feb9dbf0a58e6990fd6eb6696981565b6040516001600160a01b039091168152602001610378565b34801561042a57600080fd5b5061043e610439366004613803565b610c31565b005b34801561044c57600080fd5b5061043e61045b366004613892565b610cb4565b34801561046c57600080fd5b5061036e61047b366004613803565b6000908152600e602052604090205490565b34801561049957600080fd5b5061036e6104a8366004613803565b60009081526003602052604090206001015490565b3480156104c957600080fd5b5061043e6104d8366004613803565b610d55565b3480156104e957600080fd5b5061043e6104f8366004613920565b610dc1565b34801561050957600080fd5b5061043e6105183660046135d5565b610f69565b34801561052957600080fd5b5061043e61053836600461381c565b61100b565b34801561054957600080fd5b5061043e610558366004613587565b611035565b34801561056957600080fd5b5061043e61057836600461381c565b611164565b34801561058957600080fd5b506105b17f000000000000000000000000000000000000000000000000000000000000000081565b60405167ffffffffffffffff9091168152602001610378565b3480156105d657600080fd5b5061043e6111ec565b3480156105eb57600080fd5b506105ff6105fa366004613782565b61143c565b6040516103789190613b3a565b34801561061857600080fd5b5061043e610627366004613745565b61157a565b34801561063857600080fd5b5061043e610647366004613587565b611641565b34801561065857600080fd5b5061043e6106673660046138cf565b6116c4565b34801561067857600080fd5b5061036e6117aa565b34801561068d57600080fd5b50610696600381565b60405161ffff9091168152602001610378565b3480156106b557600080fd5b50600554610406906001600160a01b031681565b3480156106d557600080fd5b5061043e6106e4366004613587565b6118eb565b3480156106f557600080fd5b506106fe600281565b60405163ffffffff9091168152602001610378565b34801561071f57600080fd5b5061036e600081565b34801561073457600080fd5b506103a1610743366004613587565b611950565b34801561075457600080fd5b5061043e610763366004613745565b611a23565b34801561077457600080fd5b5061043e610783366004613587565b611aea565b34801561079457600080fd5b5061043e6107a3366004613803565b611b6a565b3480156107b457600080fd5b5061036e7f000000000000000000000000000000000000000000000000000000000000000081565b3480156107e857600080fd5b506103a16107f736600461381c565b60009182526003602090815260408084206001600160a01b0393909316845291905290205460ff1690565b34801561082e57600080fd5b5060095461036e565b34801561084357600080fd5b5061043e6108523660046136e4565b611bfe565b34801561086357600080fd5b506104067f000000000000000000000000000000000000000000000000000000000000000081565b34801561089757600080fd5b50600a546108aa90610100900460ff1681565b6040516103789190613b7b565b3480156108c357600080fd5b506108cc611c09565b6040516103789190613acb565b3480156108e557600080fd5b506109056108f43660046135d5565b63bc197c8160e01b95945050505050565b6040516001600160e01b03199091168152602001610378565b34801561092a57600080fd5b5061043e61093936600461371b565b611dec565b34801561094a57600080fd5b5061036e610959366004613803565b611f1c565b34801561096a57600080fd5b5061036e60095481565b34801561098057600080fd5b5061043e61098f36600461381c565b611f53565b3480156109a057600080fd5b506106fe7f000000000000000000000000000000000000000000000000000000000000000081565b3480156109d457600080fd5b5061043e611f78565b3480156109e957600080fd5b50600a546103a19060ff1681565b61043e610a05366004613803565b612019565b348015610a1657600080fd5b506103a1610a253660046135a2565b6001600160a01b03918216600090815260016020908152604080832093909416825291909152205460ff1690565b348015610a5f57600080fd5b50610905610a6e36600461367f565b63f23a6e6160e01b95945050505050565b348015610a8b57600080fd5b5061043e610a9a36600461367f565b61218d565b348015610aab57600080fd5b506105ff610aba366004613587565b612228565b348015610acb57600080fd5b5061036e600c5481565b60006001600160a01b038316610b585760405162461bcd60e51b815260206004820152602b60248201527f455243313135353a2062616c616e636520717565727920666f7220746865207a60448201527f65726f206164647265737300000000000000000000000000000000000000000060648201526084015b60405180910390fd5b506000908152602081815260408083206001600160a01b03949094168352929052205490565b6000610b89826122bf565b92915050565b6000818152600f60205260409020805460609190610bac90613c83565b80601f0160208091040260200160405190810160405280929190818152602001828054610bd890613c83565b8015610c255780601f10610bfa57610100808354040283529160200191610c25565b820191906000526020600020905b815481529060010190602001808311610c0857829003601f168201915b50505050509050919050565b6000610c3d3383610ad5565b11610c4757600080fd5b610c53338260016122fd565b6000818152600e60205260408120805460019290610c72908490613c25565b909155505060408051338152602081018390527f9e90d55d2f1f115ffe1b87372c45f27f6b3a2b5ba392942167be78456189009491015b60405180910390a150565b336001600160a01b037f00000000000000000000000000000000000000000000000000000000000000001614610d47576040517f1cf993f40000000000000000000000000000000000000000000000000000000081523360048201526001600160a01b037f0000000000000000000000000000000000000000000000000000000000000000166024820152604401610b4f565b610d5182826124b1565b5050565b610d5e336124d6565b610db45760405162461bcd60e51b815260206004820152602160248201527f55736572206973206e6f7420746865204f776e6572206f7220616e2041646d696044820152603760f91b6064820152608401610b4f565b610dbe3082612535565b50565b6000610dcd3384610ad5565b11610e1a5760405162461bcd60e51b815260206004820152600f60248201527f4974656d206e6f7420666f756e642e00000000000000000000000000000000006044820152606401610b4f565b610e373330846001604051806020016040528060008152506125a0565b6040805160808101825283815260208082018481523383850181815260006060808701828152600b8054600181018255935296517f0175b7a638427703f0dbe7bb9bbf987a2551717b34e79f33b5b1008d1fa01db960039093029283015593517f0175b7a638427703f0dbe7bb9bbf987a2551717b34e79f33b5b1008d1fa01dba82015590517f0175b7a638427703f0dbe7bb9bbf987a2551717b34e79f33b5b1008d1fa01dbb909101805495516001600160a01b039092167fffffffffffffffffffffff00000000000000000000000000000000000000000090961695909517600160a01b911515919091021790935583519283529082018590529181018390527f23cba88d6c6f26b62b2cfc32a2cc04fbbde8590188b97cd3590e45af9ac6dd6d91015b60405180910390a15050565b6001600160a01b038516331480610f855750610f858533610a25565b610ff75760405162461bcd60e51b815260206004820152603260248201527f455243313135353a207472616e736665722063616c6c6572206973206e6f742060448201527f6f776e6572206e6f7220617070726f76656400000000000000000000000000006064820152608401610b4f565b611004858585858561274b565b5050505050565b600082815260036020526040902060010154611026816129be565b61103083836129c8565b505050565b6006546001600160a01b0316331461108f5760405162461bcd60e51b815260206004820152601560248201527f55736572206973206e6f7420746865206f776e657200000000000000000000006044820152606401610b4f565b600047116110df5760405162461bcd60e51b815260206004820152601460248201527f4e6f2066756e647320746f2077697468647261770000000000000000000000006044820152606401610b4f565b60055460405163a9059cbb60e01b81526001600160a01b0383811660048301524760248301529091169063a9059cbb90604401602060405180830381600087803b15801561112c57600080fd5b505af1158015611140573d6000803e3d6000fd5b505050506040513d601f19601f82011682018060405250810190610d5191906137e6565b6001600160a01b03811633146111e25760405162461bcd60e51b815260206004820152602f60248201527f416363657373436f6e74726f6c3a2063616e206f6e6c792072656e6f756e636560448201527f20726f6c657320666f722073656c6600000000000000000000000000000000006064820152608401610b4f565b610d518282612a6a565b6000600a54610100900460ff16600181111561120a5761120a613d46565b1461127d5760405162461bcd60e51b815260206004820152602560248201527f436f6e7472616374206973206e6f74206163746976652061742074686973206d60448201527f6f6d656e740000000000000000000000000000000000000000000000000000006064820152608401610b4f565b6005546009546040516323b872dd60e01b815233600482015230602482015260448101919091526001600160a01b03909116906323b872dd90606401602060405180830381600087803b1580156112d357600080fd5b505af11580156112e7573d6000803e3d6000fd5b505050506040513d601f19601f8201168201806040525081019061130b91906137e6565b5060006007546113196117aa565b6113239190613d06565b9050600080805b6008548110156113f2576000818152600e602052604081205461134d9085613bda565b90508385111561135f578093506113df565b61136a600183613c25565b925060006113783084610ad5565b11156113bc57600061138b600184613c25565b90505b600061139a3083610ad5565b11156113a8578093506113ba565b806113b281613c6c565b91505061138e565b505b6113d93033856001604051806020016040528060008152506125a0565b506113f2565b50806113ea81613ceb565b91505061132a565b5060095460408051338152602081019290925281018290527fea32e37a2618dbb680c93d891742e9e13b30d184822562a0ee3c09290fd42b439060600160405180910390a1505050565b606081518351146114b55760405162461bcd60e51b815260206004820152602960248201527f455243313135353a206163636f756e747320616e6420696473206c656e67746860448201527f206d69736d6174636800000000000000000000000000000000000000000000006064820152608401610b4f565b6000835167ffffffffffffffff8111156114d1576114d1613d72565b6040519080825280602002602001820160405280156114fa578160200160208202803683370190505b50905060005b84518110156115725761154585828151811061151e5761151e613d5c565b602002602001015185838151811061153857611538613d5c565b6020026020010151610ad5565b82828151811061155757611557613d5c565b602090810291909101015261156b81613ceb565b9050611500565b509392505050565b611583336124d6565b6115d95760405162461bcd60e51b815260206004820152602160248201527f55736572206973206e6f7420746865204f776e6572206f7220616e2041646d696044820152603760f91b6064820152608401610b4f565b60005b8151811015610d51576000600d60008484815181106115fd576115fd613d5c565b6020908102919091018101516001600160a01b03168252810191909152604001600020805460ff19169115159190911790558061163981613ceb565b9150506115dc565b61164a336124d6565b6116a05760405162461bcd60e51b815260206004820152602160248201527f55736572206973206e6f7420746865204f776e6572206f7220616e2041646d696044820152603760f91b6064820152608401610b4f565b6001600160a01b03166000908152600d60205260409020805460ff19166001179055565b6116cd336124d6565b6117235760405162461bcd60e51b815260206004820152602160248201527f55736572206973206e6f7420746865204f776e6572206f7220616e2041646d696044820152603760f91b6064820152608401610b4f565b6000828152600f60205260409020805461173c90613c83565b15905061178b5760405162461bcd60e51b815260206004820152601560248201527f43616e206e6f74207365742075726920747769636500000000000000000000006044820152606401610b4f565b6000828152600f6020908152604090912082516110309284019061336c565b6040517f5d3b1d300000000000000000000000000000000000000000000000000000000081527f0000000000000000000000000000000000000000000000000000000000000000600482015267ffffffffffffffff7f00000000000000000000000000000000000000000000000000000000000000001660248201526003604482015263ffffffff7f00000000000000000000000000000000000000000000000000000000000000001660648201526002608482015260009081906001600160a01b037f00000000000000000000000000000000000000000000000000000000000000001690635d3b1d309060a401602060405180830381600087803b1580156118b357600080fd5b505af11580156118c7573d6000803e3d6000fd5b505050506040513d601f19601f82011682018060405250810190610b899190613879565b6006546001600160a01b031633146119455760405162461bcd60e51b815260206004820152601560248201527f55736572206973206e6f7420746865206f776e657200000000000000000000006044820152606401610b4f565b610dbe600082612aed565b600480546040517f70a082310000000000000000000000000000000000000000000000000000000081526001600160a01b0384811693820193909352600092839216906370a082319060240160206040518083038186803b1580156119b457600080fd5b505afa1580156119c8573d6000803e3d6000fd5b505050506040513d601f19601f820116820180604052508101906119ec9190613879565b116119f657600080fd5b6001600160a01b0382166000908152600d602052604090205460ff16611a1b57600080fd5b506001919050565b611a2c336124d6565b611a825760405162461bcd60e51b815260206004820152602160248201527f55736572206973206e6f7420746865204f776e6572206f7220616e2041646d696044820152603760f91b6064820152608401610b4f565b60005b8151811015610d51576001600d6000848481518110611aa657611aa6613d5c565b6020908102919091018101516001600160a01b03168252810191909152604001600020805460ff191691151591909117905580611ae281613ceb565b915050611a85565b611af3336124d6565b611b495760405162461bcd60e51b815260206004820152602160248201527f55736572206973206e6f7420746865204f776e6572206f7220616e2041646d696044820152603760f91b6064820152608401610b4f565b6001600160a01b03166000908152600d60205260409020805460ff19169055565b611b73336124d6565b611bc95760405162461bcd60e51b815260206004820152602160248201527f55736572206973206e6f7420746865204f776e6572206f7220616e2041646d696044820152603760f91b6064820152608401610b4f565b60098190556040518181527f06cd74aabc11982a85b554df4d7833623303656fe69bed4db1b0cb3245feebe390602001610ca9565b610d51338383612af7565b60606000805b600b54811015611caf576000600b8281548110611c2e57611c2e613d5c565b600091825260209182902060408051608081018252600393909302909101805483526001810154938301939093526002909201546001600160a01b03811692820192909252600160a01b90910460ff16151560608201819052909150611c9c57611c99600184613bda565b92505b5080611ca781613ceb565b915050611c0f565b5060008167ffffffffffffffff811115611ccb57611ccb613d72565b604051908082528060200260200182016040528015611d1d57816020015b604080516080810182526000808252602080830182905292820181905260608201528252600019909201910181611ce95790505b5090506000805b600b54811015611de3576000600b8281548110611d4357611d43613d5c565b600091825260209182902060408051608081018252600393909302909101805483526001810154938301939093526002909201546001600160a01b03811692820192909252600160a01b90910460ff16151560608201819052909150611dd05780848481518110611db657611db6613d5c565b60200260200101819052508280611dcc90613ceb565b9350505b5080611ddb81613ceb565b915050611d24565b50909392505050565b6006546001600160a01b03163314611e465760405162461bcd60e51b815260206004820152601560248201527f55736572206973206e6f7420746865206f776e657200000000000000000000006044820152606401610b4f565b60004711611e965760405162461bcd60e51b815260206004820152601460248201527f4e6f2066756e647320746f2077697468647261770000000000000000000000006044820152606401610b4f565b60055460405163a9059cbb60e01b81526001600160a01b038481166004830152602482018490529091169063a9059cbb90604401602060405180830381600087803b158015611ee457600080fd5b505af1158015611ef8573d6000803e3d6000fd5b505050506040513d601f19601f8201168201806040525081019061103091906137e6565b6000611f2782612bec565b611f3057600080fd5b6000828152600e6020526040812054600754611f4c9190613bf2565b9392505050565b600082815260036020526040902060010154611f6e816129be565b6110308383612a6a565b611f81336124d6565b611fd75760405162461bcd60e51b815260206004820152602160248201527f55736572206973206e6f7420746865204f776e6572206f7220616e2041646d696044820152603760f91b6064820152608401610b4f565b6000600a54610100900460ff166001811115611ff557611ff5613d46565b141561200c57600a805461ff001916610100179055565b600a805461ff0019169055565b6000600b828154811061202e5761202e613d5c565b600091825260209182902060408051608081018252600393909302909101805483526001810154938301849052600201546001600160a01b03808216848401819052600160a01b90920460ff161515606085015260055492516323b872dd60e01b815233600482015260248101929092526044820194909452919350909116906323b872dd90606401602060405180830381600087803b1580156120d157600080fd5b505af11580156120e5573d6000803e3d6000fd5b505050506040513d601f19601f8201168201806040525081019061210991906137e6565b5061212b303383600001516001604051806020016040528060008152506125a0565b600160608281019190915260408083015160208085015183513381526001600160a01b0390931691830191909152918101859052918201527f642067ff529c9b5b1162502fc8e8a3a91dda56e126a84f2fe38d341236231a8290608001610f5d565b6001600160a01b0385163314806121a957506121a98533610a25565b61221b5760405162461bcd60e51b815260206004820152602960248201527f455243313135353a2063616c6c6572206973206e6f74206f776e6572206e6f7260448201527f20617070726f76656400000000000000000000000000000000000000000000006064820152608401610b4f565b61100485858585856125a0565b6060600060085467ffffffffffffffff81111561224757612247613d72565b604051908082528060200260200182016040528015612270578160200160208202803683370190505b50905060005b81518110156122b8576122898482610ad5565b82828151811061229b5761229b613d5c565b6020908102919091010152806122b081613ceb565b915050612276565b5092915050565b60006001600160e01b031982167f7965db0b000000000000000000000000000000000000000000000000000000001480610b895750610b8982612c04565b6001600160a01b0383166123795760405162461bcd60e51b815260206004820152602360248201527f455243313135353a206275726e2066726f6d20746865207a65726f206164647260448201527f65737300000000000000000000000000000000000000000000000000000000006064820152608401610b4f565b33600061238584612c42565b9050600061239284612c42565b60408051602080820183526000918290528882528181528282206001600160a01b038b16835290522054909150848110156124345760405162461bcd60e51b8152602060048201526024808201527f455243313135353a206275726e20616d6f756e7420657863656564732062616c60448201527f616e6365000000000000000000000000000000000000000000000000000000006064820152608401610b4f565b6000868152602081815260408083206001600160a01b038b81168086529184528285208a8703905582518b81529384018a90529092908816917fc3d58168c5ae7397731d063d5bbf3d657854427343f4c083240f7aacaa2d0f62910160405180910390a46040805160208101909152600090525b50505050505050565b806000815181106124c4576124c4613d5c565b6020026020010151600c819055505050565b6006546000906001600160a01b038381169116148061252c57506001600160a01b03821660009081527f3617319a054d772f909f7c479a2cebe5066e836a939412e32403c99029b92eff602052604090205460ff165b611a1b57600080fd5b612552826008548360405180602001604052806000815250612c8d565b61256b600854826000918252600e602052604090912055565b806007600082825461257d9190613bda565b925050819055506001600860008282546125979190613bda565b90915550505050565b6001600160a01b0384166126045760405162461bcd60e51b815260206004820152602560248201527f455243313135353a207472616e7366657220746f20746865207a65726f206164604482015264647265737360d81b6064820152608401610b4f565b33600061261085612c42565b9050600061261d85612c42565b90506000868152602081815260408083206001600160a01b038c168452909152902054858110156126a35760405162461bcd60e51b815260206004820152602a60248201527f455243313135353a20696e73756666696369656e742062616c616e636520666f60448201526939103a3930b739b332b960b11b6064820152608401610b4f565b6000878152602081815260408083206001600160a01b038d8116855292528083208985039055908a168252812080548892906126e0908490613bda565b909155505060408051888152602081018890526001600160a01b03808b16928c821692918816917fc3d58168c5ae7397731d063d5bbf3d657854427343f4c083240f7aacaa2d0f62910160405180910390a4612740848a8a8a8a8a612db0565b505050505050505050565b81518351146127c25760405162461bcd60e51b815260206004820152602860248201527f455243313135353a2069647320616e6420616d6f756e7473206c656e6774682060448201527f6d69736d617463680000000000000000000000000000000000000000000000006064820152608401610b4f565b6001600160a01b0384166128265760405162461bcd60e51b815260206004820152602560248201527f455243313135353a207472616e7366657220746f20746865207a65726f206164604482015264647265737360d81b6064820152608401610b4f565b3360005b845181101561295057600085828151811061284757612847613d5c565b60200260200101519050600085838151811061286557612865613d5c565b602090810291909101810151600084815280835260408082206001600160a01b038e1683529093529190912054909150818110156128f85760405162461bcd60e51b815260206004820152602a60248201527f455243313135353a20696e73756666696369656e742062616c616e636520666f60448201526939103a3930b739b332b960b11b6064820152608401610b4f565b6000838152602081815260408083206001600160a01b038e8116855292528083208585039055908b16825281208054849290612935908490613bda565b925050819055505050508061294990613ceb565b905061282a565b50846001600160a01b0316866001600160a01b0316826001600160a01b03167f4a39dc06d4c0dbc64b70af90fd698a233a518aa5d07e595d983b8c0526c8f7fb87876040516129a0929190613b4d565b60405180910390a46129b6818787878787612f65565b505050505050565b610dbe8133613070565b60008281526003602090815260408083206001600160a01b038516845290915290205460ff16610d515760008281526003602090815260408083206001600160a01b03851684529091529020805460ff19166001179055612a263390565b6001600160a01b0316816001600160a01b0316837f2f8788117e7eff1d82e926ec794901d17c78024a50270940304540a733656f0d60405160405180910390a45050565b60008281526003602090815260408083206001600160a01b038516845290915290205460ff1615610d515760008281526003602090815260408083206001600160a01b0385168085529252808320805460ff1916905551339285917ff6391f5c32d9c69d2a47ea670b442974b53935d1edc7fd64eb21e047a839171b9190a45050565b610d5182826129c8565b816001600160a01b0316836001600160a01b03161415612b7f5760405162461bcd60e51b815260206004820152602960248201527f455243313135353a2073657474696e6720617070726f76616c2073746174757360448201527f20666f722073656c6600000000000000000000000000000000000000000000006064820152608401610b4f565b6001600160a01b03838116600081815260016020908152604080832094871680845294825291829020805460ff191686151590811790915591519182527f17307eab39ab6107e8899845ad3d59bd9653f200f220920489ca2b5937696c31910160405180910390a3505050565b6000818152600e6020526040812054611a1b57600080fd5b60006001600160e01b031982167f4e2312e0000000000000000000000000000000000000000000000000000000001480610b895750610b89826130f0565b60408051600180825281830190925260609160009190602080830190803683370190505090508281600081518110612c7c57612c7c613d5c565b602090810291909101015292915050565b6001600160a01b038416612d095760405162461bcd60e51b815260206004820152602160248201527f455243313135353a206d696e7420746f20746865207a65726f2061646472657360448201527f73000000000000000000000000000000000000000000000000000000000000006064820152608401610b4f565b336000612d1585612c42565b90506000612d2285612c42565b90506000868152602081815260408083206001600160a01b038b16845290915281208054879290612d54908490613bda565b909155505060408051878152602081018790526001600160a01b03808a1692600092918716917fc3d58168c5ae7397731d063d5bbf3d657854427343f4c083240f7aacaa2d0f62910160405180910390a46124a8836000898989895b6001600160a01b0384163b156129b65760405163f23a6e6160e01b81526001600160a01b0385169063f23a6e6190612df49089908990889088908890600401613a88565b602060405180830381600087803b158015612e0e57600080fd5b505af1925050508015612e3e575060408051601f3d908101601f19168201909252612e3b9181019061385c565b60015b612ef457612e4a613d88565b806308c379a01415612e845750612e5f613da4565b80612e6a5750612e86565b8060405162461bcd60e51b8152600401610b4f9190613ba3565b505b60405162461bcd60e51b815260206004820152603460248201527f455243313135353a207472616e7366657220746f206e6f6e204552433131353560448201527f526563656976657220696d706c656d656e7465720000000000000000000000006064820152608401610b4f565b6001600160e01b0319811663f23a6e6160e01b146124a85760405162461bcd60e51b815260206004820152602860248201527f455243313135353a204552433131353552656365697665722072656a656374656044820152676420746f6b656e7360c01b6064820152608401610b4f565b6001600160a01b0384163b156129b65760405163bc197c8160e01b81526001600160a01b0385169063bc197c8190612fa99089908990889088908890600401613a2a565b602060405180830381600087803b158015612fc357600080fd5b505af1925050508015612ff3575060408051601f3d908101601f19168201909252612ff09181019061385c565b60015b612fff57612e4a613d88565b6001600160e01b0319811663bc197c8160e01b146124a85760405162461bcd60e51b815260206004820152602860248201527f455243313135353a204552433131353552656365697665722072656a656374656044820152676420746f6b656e7360c01b6064820152608401610b4f565b60008281526003602090815260408083206001600160a01b038516845290915290205460ff16610d51576130ae816001600160a01b0316601461318b565b6130b983602061318b565b6040516020016130ca9291906139a9565b60408051601f198184030181529082905262461bcd60e51b8252610b4f91600401613ba3565b60006001600160e01b031982167fd9b67a2600000000000000000000000000000000000000000000000000000000148061315357506001600160e01b031982167f0e89341c00000000000000000000000000000000000000000000000000000000145b80610b8957507f01ffc9a7000000000000000000000000000000000000000000000000000000006001600160e01b0319831614610b89565b6060600061319a836002613c06565b6131a5906002613bda565b67ffffffffffffffff8111156131bd576131bd613d72565b6040519080825280601f01601f1916602001820160405280156131e7576020820181803683370190505b5090507f30000000000000000000000000000000000000000000000000000000000000008160008151811061321e5761321e613d5c565b60200101906001600160f81b031916908160001a9053507f78000000000000000000000000000000000000000000000000000000000000008160018151811061326957613269613d5c565b60200101906001600160f81b031916908160001a905350600061328d846002613c06565b613298906001613bda565b90505b600181111561331d577f303132333435363738396162636465660000000000000000000000000000000085600f16601081106132d9576132d9613d5c565b1a60f81b8282815181106132ef576132ef613d5c565b60200101906001600160f81b031916908160001a90535060049490941c9361331681613c6c565b905061329b565b508315611f4c5760405162461bcd60e51b815260206004820181905260248201527f537472696e67733a20686578206c656e67746820696e73756666696369656e746044820152606401610b4f565b82805461337890613c83565b90600052602060002090601f01602090048101928261339a57600085556133e0565b82601f106133b357805160ff19168380011785556133e0565b828001600101855582156133e0579182015b828111156133e05782518255916020019190600101906133c5565b506133ec9291506133f0565b5090565b5b808211156133ec57600081556001016133f1565b600067ffffffffffffffff83111561341f5761341f613d72565b604051613436601f8501601f191660200182613cbe565b80915083815284848401111561344b57600080fd5b83836020830137600060208583010152509392505050565b80356001600160a01b038116811461347a57600080fd5b919050565b600082601f83011261349057600080fd5b8135602061349d82613bb6565b6040516134aa8282613cbe565b8381528281019150858301600585901b870184018810156134ca57600080fd5b60005b858110156134f0576134de82613463565b845292840192908401906001016134cd565b5090979650505050505050565b600082601f83011261350e57600080fd5b8135602061351b82613bb6565b6040516135288282613cbe565b8381528281019150858301600585901b8701840188101561354857600080fd5b60005b858110156134f05781358452928401929084019060010161354b565b600082601f83011261357857600080fd5b611f4c83833560208501613405565b60006020828403121561359957600080fd5b611f4c82613463565b600080604083850312156135b557600080fd5b6135be83613463565b91506135cc60208401613463565b90509250929050565b600080600080600060a086880312156135ed57600080fd5b6135f686613463565b945061360460208701613463565b9350604086013567ffffffffffffffff8082111561362157600080fd5b61362d89838a016134fd565b9450606088013591508082111561364357600080fd5b61364f89838a016134fd565b9350608088013591508082111561366557600080fd5b5061367288828901613567565b9150509295509295909350565b600080600080600060a0868803121561369757600080fd5b6136a086613463565b94506136ae60208701613463565b93506040860135925060608601359150608086013567ffffffffffffffff8111156136d857600080fd5b61367288828901613567565b600080604083850312156136f757600080fd5b61370083613463565b9150602083013561371081613e2e565b809150509250929050565b6000806040838503121561372e57600080fd5b61373783613463565b946020939093013593505050565b60006020828403121561375757600080fd5b813567ffffffffffffffff81111561376e57600080fd5b61377a8482850161347f565b949350505050565b6000806040838503121561379557600080fd5b823567ffffffffffffffff808211156137ad57600080fd5b6137b98683870161347f565b935060208501359150808211156137cf57600080fd5b506137dc858286016134fd565b9150509250929050565b6000602082840312156137f857600080fd5b8151611f4c81613e2e565b60006020828403121561381557600080fd5b5035919050565b6000806040838503121561382f57600080fd5b823591506135cc60208401613463565b60006020828403121561385157600080fd5b8135611f4c81613e3c565b60006020828403121561386e57600080fd5b8151611f4c81613e3c565b60006020828403121561388b57600080fd5b5051919050565b600080604083850312156138a557600080fd5b82359150602083013567ffffffffffffffff8111156138c357600080fd5b6137dc858286016134fd565b600080604083850312156138e257600080fd5b82359150602083013567ffffffffffffffff81111561390057600080fd5b8301601f8101851361391157600080fd5b6137dc85823560208401613405565b6000806040838503121561393357600080fd5b50508035926020909101359150565b600081518084526020808501945080840160005b8381101561397257815187529582019590820190600101613956565b509495945050505050565b60008151808452613995816020860160208601613c3c565b601f01601f19169290920160200192915050565b7f416363657373436f6e74726f6c3a206163636f756e74200000000000000000008152600083516139e1816017850160208801613c3c565b7f206973206d697373696e6720726f6c65200000000000000000000000000000006017918401918201528351613a1e816028840160208801613c3c565b01602801949350505050565b60006001600160a01b03808816835280871660208401525060a06040830152613a5660a0830186613942565b8281036060840152613a688186613942565b90508281036080840152613a7c818561397d565b98975050505050505050565b60006001600160a01b03808816835280871660208401525084604083015283606083015260a06080830152613ac060a083018461397d565b979650505050505050565b602080825282518282018190526000919060409081850190868401855b82811015613b2d578151805185528681015187860152858101516001600160a01b03168686015260609081015115159085015260809093019290850190600101613ae8565b5091979650505050505050565b602081526000611f4c6020830184613942565b604081526000613b606040830185613942565b8281036020840152613b728185613942565b95945050505050565b6020810160028310613b9d57634e487b7160e01b600052602160045260246000fd5b91905290565b602081526000611f4c602083018461397d565b600067ffffffffffffffff821115613bd057613bd0613d72565b5060051b60200190565b60008219821115613bed57613bed613d1a565b500190565b600082613c0157613c01613d30565b500490565b6000816000190483118215151615613c2057613c20613d1a565b500290565b600082821015613c3757613c37613d1a565b500390565b60005b83811015613c57578181015183820152602001613c3f565b83811115613c66576000848401525b50505050565b600081613c7b57613c7b613d1a565b506000190190565b600181811c90821680613c9757607f821691505b60208210811415613cb857634e487b7160e01b600052602260045260246000fd5b50919050565b601f8201601f1916810167ffffffffffffffff81118282101715613ce457613ce4613d72565b6040525050565b6000600019821415613cff57613cff613d1a565b5060010190565b600082613d1557613d15613d30565b500690565b634e487b7160e01b600052601160045260246000fd5b634e487b7160e01b600052601260045260246000fd5b634e487b7160e01b600052602160045260246000fd5b634e487b7160e01b600052603260045260246000fd5b634e487b7160e01b600052604160045260246000fd5b600060033d1115613da15760046000803e5060005160e01c5b90565b600060443d1015613db25790565b6040516003193d81016004833e81513d67ffffffffffffffff8160248401118184111715613de257505050505090565b8285019150815181811115613dfa5750505050505090565b843d8701016020828501011115613e145750505050505090565b613e2360208286010187613cbe565b509095945050505050565b8015158114610dbe57600080fd5b6001600160e01b031981168114610dbe57600080fdfea2646970667358221220251ad899dc26f2745f95f83ba01183964f0ab3f7844189229597a42ceb854fed64736f6c63430008070033",
  "linkReferences": {},
  "deployedLinkReferences": {}
}