{
  "_format": "hh-sol-artifact-1",
  "contractName": "RacksItems",
  "sourceName": "contracts/RacksItems.sol",
  "abi": [
    {
      "inputs": [
        {
          "internalType": "address",
          "name": "vrfCoordinatorV2",
          "type": "address"
        },
        {
          "internalType": "bytes32",
          "name": "gasLane",
          "type": "bytes32"
        },
        {
          "internalType": "uint64",
          "name": "subscriptionId",
          "type": "uint64"
        },
        {
          "internalType": "uint32",
          "name": "callbackGasLimit",
          "type": "uint32"
        },
        {
          "internalType": "contract RacksToken",
          "name": "_racksToken",
          "type": "address"
        }
      ],
      "stateMutability": "nonpayable",
      "type": "constructor"
    },
    {
      "inputs": [
        {
          "internalType": "address",
          "name": "have",
          "type": "address"
        },
        {
          "internalType": "address",
          "name": "want",
          "type": "address"
        }
      ],
      "name": "OnlyCoordinatorCanFulfill",
      "type": "error"
    },
    {
      "anonymous": false,
      "inputs": [
        {
          "indexed": true,
          "internalType": "address",
          "name": "account",
          "type": "address"
        },
        {
          "indexed": true,
          "internalType": "address",
          "name": "operator",
          "type": "address"
        },
        {
          "indexed": false,
          "internalType": "bool",
          "name": "approved",
          "type": "bool"
        }
      ],
      "name": "ApprovalForAll",
      "type": "event"
    },
    {
      "anonymous": false,
      "inputs": [
        {
          "indexed": false,
          "internalType": "address",
          "name": "user",
          "type": "address"
        },
        {
          "indexed": false,
          "internalType": "uint256",
          "name": "casePrice",
          "type": "uint256"
        },
        {
          "indexed": false,
          "internalType": "uint256",
          "name": "item",
          "type": "uint256"
        }
      ],
      "name": "CaseOpened",
      "type": "event"
    },
    {
      "anonymous": false,
      "inputs": [
        {
          "indexed": true,
          "internalType": "bytes32",
          "name": "role",
          "type": "bytes32"
        },
        {
          "indexed": true,
          "internalType": "bytes32",
          "name": "previousAdminRole",
          "type": "bytes32"
        },
        {
          "indexed": true,
          "internalType": "bytes32",
          "name": "newAdminRole",
          "type": "bytes32"
        }
      ],
      "name": "RoleAdminChanged",
      "type": "event"
    },
    {
      "anonymous": false,
      "inputs": [
        {
          "indexed": true,
          "internalType": "bytes32",
          "name": "role",
          "type": "bytes32"
        },
        {
          "indexed": true,
          "internalType": "address",
          "name": "account",
          "type": "address"
        },
        {
          "indexed": true,
          "internalType": "address",
          "name": "sender",
          "type": "address"
        }
      ],
      "name": "RoleGranted",
      "type": "event"
    },
    {
      "anonymous": false,
      "inputs": [
        {
          "indexed": true,
          "internalType": "bytes32",
          "name": "role",
          "type": "bytes32"
        },
        {
          "indexed": true,
          "internalType": "address",
          "name": "account",
          "type": "address"
        },
        {
          "indexed": true,
          "internalType": "address",
          "name": "sender",
          "type": "address"
        }
      ],
      "name": "RoleRevoked",
      "type": "event"
    },
    {
      "anonymous": false,
      "inputs": [
        {
          "indexed": true,
          "internalType": "address",
          "name": "operator",
          "type": "address"
        },
        {
          "indexed": true,
          "internalType": "address",
          "name": "from",
          "type": "address"
        },
        {
          "indexed": true,
          "internalType": "address",
          "name": "to",
          "type": "address"
        },
        {
          "indexed": false,
          "internalType": "uint256[]",
          "name": "ids",
          "type": "uint256[]"
        },
        {
          "indexed": false,
          "internalType": "uint256[]",
          "name": "values",
          "type": "uint256[]"
        }
      ],
      "name": "TransferBatch",
      "type": "event"
    },
    {
      "anonymous": false,
      "inputs": [
        {
          "indexed": true,
          "internalType": "address",
          "name": "operator",
          "type": "address"
        },
        {
          "indexed": true,
          "internalType": "address",
          "name": "from",
          "type": "address"
        },
        {
          "indexed": true,
          "internalType": "address",
          "name": "to",
          "type": "address"
        },
        {
          "indexed": false,
          "internalType": "uint256",
          "name": "id",
          "type": "uint256"
        },
        {
          "indexed": false,
          "internalType": "uint256",
          "name": "value",
          "type": "uint256"
        }
      ],
      "name": "TransferSingle",
      "type": "event"
    },
    {
      "anonymous": false,
      "inputs": [
        {
          "indexed": false,
          "internalType": "string",
          "name": "value",
          "type": "string"
        },
        {
          "indexed": true,
          "internalType": "uint256",
          "name": "id",
          "type": "uint256"
        }
      ],
      "name": "URI",
      "type": "event"
    },
    {
      "anonymous": false,
      "inputs": [
        {
          "indexed": false,
          "internalType": "address",
          "name": "buyer",
          "type": "address"
        },
        {
          "indexed": false,
          "internalType": "address",
          "name": "seller",
          "type": "address"
        },
        {
          "indexed": false,
          "internalType": "uint256",
          "name": "marketItemId",
          "type": "uint256"
        },
        {
          "indexed": false,
          "internalType": "uint256",
          "name": "price",
          "type": "uint256"
        }
      ],
      "name": "itemBought",
      "type": "event"
    },
    {
      "anonymous": false,
      "inputs": [
        {
          "indexed": false,
          "internalType": "address",
          "name": "user",
          "type": "address"
        },
        {
          "indexed": false,
          "internalType": "uint256",
          "name": "tokenId",
          "type": "uint256"
        }
      ],
      "name": "itemExchanged",
      "type": "event"
    },
    {
      "anonymous": false,
      "inputs": [
        {
          "indexed": false,
          "internalType": "address",
          "name": "user",
          "type": "address"
        },
        {
          "indexed": false,
          "internalType": "uint256",
          "name": "tokenId",
          "type": "uint256"
        },
        {
          "indexed": false,
          "internalType": "uint256",
          "name": "price",
          "type": "uint256"
        }
      ],
      "name": "sellingItem",
      "type": "event"
    },
    {
      "inputs": [],
      "name": "ADMIN_ROLE",
      "outputs": [
        {
          "internalType": "bytes32",
          "name": "",
          "type": "bytes32"
        }
      ],
      "stateMutability": "view",
      "type": "function"
    },
    {
      "inputs": [],
      "name": "DEFAULT_ADMIN_ROLE",
      "outputs": [
        {
          "internalType": "bytes32",
          "name": "",
          "type": "bytes32"
        }
      ],
      "stateMutability": "view",
      "type": "function"
    },
    {
      "inputs": [],
      "name": "NUM_WORDS",
      "outputs": [
        {
          "internalType": "uint32",
          "name": "",
          "type": "uint32"
        }
      ],
      "stateMutability": "view",
      "type": "function"
    },
    {
      "inputs": [],
      "name": "REQUEST_CONFIRMATIONS",
      "outputs": [
        {
          "internalType": "uint16",
          "name": "",
          "type": "uint16"
        }
      ],
      "stateMutability": "view",
      "type": "function"
    },
    {
      "inputs": [
        {
          "internalType": "uint256",
          "name": "tokenId",
          "type": "uint256"
        }
      ],
      "name": "_chanceOfItem",
      "outputs": [
        {
          "internalType": "uint256",
          "name": "",
          "type": "uint256"
        }
      ],
      "stateMutability": "view",
      "type": "function"
    },
    {
      "inputs": [
        {
          "internalType": "address",
          "name": "account",
          "type": "address"
        },
        {
          "internalType": "uint256",
          "name": "id",
          "type": "uint256"
        }
      ],
      "name": "balanceOf",
      "outputs": [
        {
          "internalType": "uint256",
          "name": "",
          "type": "uint256"
        }
      ],
      "stateMutability": "view",
      "type": "function"
    },
    {
      "inputs": [
        {
          "internalType": "address[]",
          "name": "accounts",
          "type": "address[]"
        },
        {
          "internalType": "uint256[]",
          "name": "ids",
          "type": "uint256[]"
        }
      ],
      "name": "balanceOfBatch",
      "outputs": [
        {
          "internalType": "uint256[]",
          "name": "",
          "type": "uint256[]"
        }
      ],
      "stateMutability": "view",
      "type": "function"
    },
    {
      "inputs": [
        {
          "internalType": "uint256",
          "name": "marketItemId",
          "type": "uint256"
        }
      ],
      "name": "buyItem",
      "outputs": [],
      "stateMutability": "payable",
      "type": "function"
    },
    {
      "inputs": [],
      "name": "casePrice",
      "outputs": [
        {
          "internalType": "uint256",
          "name": "",
          "type": "uint256"
        }
      ],
      "stateMutability": "view",
      "type": "function"
    },
    {
      "inputs": [],
      "name": "contractActive",
      "outputs": [
        {
          "internalType": "bool",
          "name": "",
          "type": "bool"
        }
      ],
      "stateMutability": "view",
      "type": "function"
    },
    {
      "inputs": [
        {
          "internalType": "uint256",
          "name": "tokenId",
          "type": "uint256"
        }
      ],
      "name": "exchangeItem",
      "outputs": [],
      "stateMutability": "nonpayable",
      "type": "function"
    },
    {
      "inputs": [],
      "name": "flipContractState",
      "outputs": [],
      "stateMutability": "nonpayable",
      "type": "function"
    },
    {
      "inputs": [],
      "name": "getItemsOnSale",
      "outputs": [
        {
          "components": [
            {
              "internalType": "uint256",
              "name": "tokenId",
              "type": "uint256"
            },
            {
              "internalType": "uint256",
              "name": "price",
              "type": "uint256"
            },
            {
              "internalType": "address payable",
              "name": "seller",
              "type": "address"
            },
            {
              "internalType": "bool",
              "name": "sold",
              "type": "bool"
            }
          ],
          "internalType": "struct RacksItems.itemOnSale[]",
          "name": "",
          "type": "tuple[]"
        }
      ],
      "stateMutability": "view",
      "type": "function"
    },
    {
      "inputs": [
        {
          "internalType": "bytes32",
          "name": "role",
          "type": "bytes32"
        }
      ],
      "name": "getRoleAdmin",
      "outputs": [
        {
          "internalType": "bytes32",
          "name": "",
          "type": "bytes32"
        }
      ],
      "stateMutability": "view",
      "type": "function"
    },
    {
      "inputs": [
        {
          "internalType": "bytes32",
          "name": "role",
          "type": "bytes32"
        },
        {
          "internalType": "address",
          "name": "account",
          "type": "address"
        }
      ],
      "name": "grantRole",
      "outputs": [],
      "stateMutability": "nonpayable",
      "type": "function"
    },
    {
      "inputs": [
        {
          "internalType": "bytes32",
          "name": "role",
          "type": "bytes32"
        },
        {
          "internalType": "address",
          "name": "account",
          "type": "address"
        }
      ],
      "name": "hasRole",
      "outputs": [
        {
          "internalType": "bool",
          "name": "",
          "type": "bool"
        }
      ],
      "stateMutability": "view",
      "type": "function"
    },
    {
      "inputs": [],
      "name": "i_MrCryptoAddress",
      "outputs": [
        {
          "internalType": "address",
          "name": "",
          "type": "address"
        }
      ],
      "stateMutability": "view",
      "type": "function"
    },
    {
      "inputs": [],
      "name": "i_callbackGasLimit",
      "outputs": [
        {
          "internalType": "uint32",
          "name": "",
          "type": "uint32"
        }
      ],
      "stateMutability": "view",
      "type": "function"
    },
    {
      "inputs": [],
      "name": "i_gasLane",
      "outputs": [
        {
          "internalType": "bytes32",
          "name": "",
          "type": "bytes32"
        }
      ],
      "stateMutability": "view",
      "type": "function"
    },
    {
      "inputs": [],
      "name": "i_subscriptionId",
      "outputs": [
        {
          "internalType": "uint64",
          "name": "",
          "type": "uint64"
        }
      ],
      "stateMutability": "view",
      "type": "function"
    },
    {
      "inputs": [],
      "name": "i_vrfCoordinator",
      "outputs": [
        {
          "internalType": "contract VRFCoordinatorV2Interface",
          "name": "",
          "type": "address"
        }
      ],
      "stateMutability": "view",
      "type": "function"
    },
    {
      "inputs": [
        {
          "internalType": "address",
          "name": "account",
          "type": "address"
        },
        {
          "internalType": "address",
          "name": "operator",
          "type": "address"
        }
      ],
      "name": "isApprovedForAll",
      "outputs": [
        {
          "internalType": "bool",
          "name": "",
          "type": "bool"
        }
      ],
      "stateMutability": "view",
      "type": "function"
    },
    {
      "inputs": [
        {
          "internalType": "address",
          "name": "user",
          "type": "address"
        }
      ],
      "name": "isVip",
      "outputs": [
        {
          "internalType": "bool",
          "name": "",
          "type": "bool"
        }
      ],
      "stateMutability": "view",
      "type": "function"
    },
    {
      "inputs": [
        {
          "internalType": "uint256",
          "name": "itemSupply",
          "type": "uint256"
        }
      ],
      "name": "listItem",
      "outputs": [],
      "stateMutability": "nonpayable",
      "type": "function"
    },
    {
      "inputs": [],
      "name": "openCase",
      "outputs": [
        {
          "internalType": "uint256",
          "name": "",
          "type": "uint256"
        }
      ],
      "stateMutability": "payable",
      "type": "function"
    },
    {
      "inputs": [],
      "name": "racksToken",
      "outputs": [
        {
          "internalType": "contract RacksToken",
          "name": "",
          "type": "address"
        }
      ],
      "stateMutability": "view",
      "type": "function"
    },
    {
      "inputs": [
        {
          "internalType": "uint256",
          "name": "requestId",
          "type": "uint256"
        },
        {
          "internalType": "uint256[]",
          "name": "randomWords",
          "type": "uint256[]"
        }
      ],
      "name": "rawFulfillRandomWords",
      "outputs": [],
      "stateMutability": "nonpayable",
      "type": "function"
    },
    {
      "inputs": [
        {
          "internalType": "address[]",
          "name": "users",
          "type": "address[]"
        }
      ],
      "name": "removeListRacksMembers",
      "outputs": [],
      "stateMutability": "nonpayable",
      "type": "function"
    },
    {
      "inputs": [
        {
          "internalType": "address",
          "name": "user",
          "type": "address"
        }
      ],
      "name": "removeSingleRacksMember",
      "outputs": [],
      "stateMutability": "nonpayable",
      "type": "function"
    },
    {
      "inputs": [
        {
          "internalType": "bytes32",
          "name": "role",
          "type": "bytes32"
        },
        {
          "internalType": "address",
          "name": "account",
          "type": "address"
        }
      ],
      "name": "renounceRole",
      "outputs": [],
      "stateMutability": "nonpayable",
      "type": "function"
    },
    {
      "inputs": [
        {
          "internalType": "bytes32",
          "name": "role",
          "type": "bytes32"
        },
        {
          "internalType": "address",
          "name": "account",
          "type": "address"
        }
      ],
      "name": "revokeRole",
      "outputs": [],
      "stateMutability": "nonpayable",
      "type": "function"
    },
    {
      "inputs": [],
      "name": "s_contractState",
      "outputs": [
        {
          "internalType": "enum RacksItems.ContractState",
          "name": "",
          "type": "uint8"
        }
      ],
      "stateMutability": "view",
      "type": "function"
    },
    {
      "inputs": [],
      "name": "s_randomWord",
      "outputs": [
        {
          "internalType": "uint256",
          "name": "",
          "type": "uint256"
        }
      ],
      "stateMutability": "view",
      "type": "function"
    },
    {
      "inputs": [
        {
          "internalType": "address",
          "name": "from",
          "type": "address"
        },
        {
          "internalType": "address",
          "name": "to",
          "type": "address"
        },
        {
          "internalType": "uint256[]",
          "name": "ids",
          "type": "uint256[]"
        },
        {
          "internalType": "uint256[]",
          "name": "amounts",
          "type": "uint256[]"
        },
        {
          "internalType": "bytes",
          "name": "data",
          "type": "bytes"
        }
      ],
      "name": "safeBatchTransferFrom",
      "outputs": [],
      "stateMutability": "nonpayable",
      "type": "function"
    },
    {
      "inputs": [
        {
          "internalType": "address",
          "name": "from",
          "type": "address"
        },
        {
          "internalType": "address",
          "name": "to",
          "type": "address"
        },
        {
          "internalType": "uint256",
          "name": "id",
          "type": "uint256"
        },
        {
          "internalType": "uint256",
          "name": "amount",
          "type": "uint256"
        },
        {
          "internalType": "bytes",
          "name": "data",
          "type": "bytes"
        }
      ],
      "name": "safeTransferFrom",
      "outputs": [],
      "stateMutability": "nonpayable",
      "type": "function"
    },
    {
      "inputs": [
        {
          "internalType": "uint256",
          "name": "tokenId",
          "type": "uint256"
        },
        {
          "internalType": "uint256",
          "name": "price",
          "type": "uint256"
        }
      ],
      "name": "sellItem",
      "outputs": [],
      "stateMutability": "nonpayable",
      "type": "function"
    },
    {
      "inputs": [
        {
          "internalType": "address",
          "name": "_newAdmin",
          "type": "address"
        }
      ],
      "name": "setAdmin",
      "outputs": [],
      "stateMutability": "nonpayable",
      "type": "function"
    },
    {
      "inputs": [
        {
          "internalType": "address",
          "name": "operator",
          "type": "address"
        },
        {
          "internalType": "bool",
          "name": "approved",
          "type": "bool"
        }
      ],
      "name": "setApprovalForAll",
      "outputs": [],
      "stateMutability": "nonpayable",
      "type": "function"
    },
    {
      "inputs": [
        {
          "internalType": "uint256",
          "name": "price",
          "type": "uint256"
        }
      ],
      "name": "setCasePrice",
      "outputs": [],
      "stateMutability": "nonpayable",
      "type": "function"
    },
    {
      "inputs": [
        {
          "internalType": "address[]",
          "name": "users",
          "type": "address[]"
        }
      ],
      "name": "setListRacksMembers",
      "outputs": [],
      "stateMutability": "nonpayable",
      "type": "function"
    },
    {
      "inputs": [
        {
          "internalType": "address",
          "name": "user",
          "type": "address"
        }
      ],
      "name": "setSingleRacksMember",
      "outputs": [],
      "stateMutability": "nonpayable",
      "type": "function"
    },
    {
      "inputs": [
        {
          "internalType": "uint256",
          "name": "tokenId",
          "type": "uint256"
        },
        {
          "internalType": "string",
          "name": "_uri",
          "type": "string"
        }
      ],
      "name": "setTokenUri",
      "outputs": [],
      "stateMutability": "nonpayable",
      "type": "function"
    },
    {
      "inputs": [
        {
          "internalType": "uint256",
          "name": "tokenId",
          "type": "uint256"
        }
      ],
      "name": "supplyOfItem",
      "outputs": [
        {
          "internalType": "uint256",
          "name": "",
          "type": "uint256"
        }
      ],
      "stateMutability": "view",
      "type": "function"
    },
    {
      "inputs": [
        {
          "internalType": "bytes4",
          "name": "interfaceId",
          "type": "bytes4"
        }
      ],
      "name": "supportsInterface",
      "outputs": [
        {
          "internalType": "bool",
          "name": "",
          "type": "bool"
        }
      ],
      "stateMutability": "view",
      "type": "function"
    },
    {
      "inputs": [
        {
          "internalType": "uint256",
          "name": "tokenId",
          "type": "uint256"
        }
      ],
      "name": "uri",
      "outputs": [
        {
          "internalType": "string",
          "name": "",
          "type": "string"
        }
      ],
      "stateMutability": "view",
      "type": "function"
    },
    {
      "inputs": [
        {
          "internalType": "address",
          "name": "owner",
          "type": "address"
        }
      ],
      "name": "viewItems",
      "outputs": [
        {
          "internalType": "uint256[]",
          "name": "",
          "type": "uint256[]"
        }
      ],
      "stateMutability": "view",
      "type": "function"
    },
    {
      "inputs": [
        {
          "internalType": "address",
          "name": "wallet",
          "type": "address"
        }
      ],
      "name": "withdrawAllFunds",
      "outputs": [],
      "stateMutability": "nonpayable",
      "type": "function"
    },
    {
      "inputs": [
        {
          "internalType": "address",
          "name": "wallet",
          "type": "address"
        },
        {
          "internalType": "uint256",
          "name": "amount",
          "type": "uint256"
        }
      ],
      "name": "withdrawFunds",
      "outputs": [],
      "stateMutability": "nonpayable",
      "type": "function"
    },
    {
      "stateMutability": "payable",
      "type": "receive"
    }
  ],
  "bytecode": "0x6101206040526801158e460913d00000600955600a805460ff191660011790553480156200002c57600080fd5b506040516200408c3803806200408c8339810160408190526200004f91620001d2565b60408051602081019091526000815285906200006b8162000113565b50606090811b6001600160601b031990811660805295901b90941660a05260c0928352911b6001600160c01b03191660e09081521b6001600160e01b031916610100526004805473ef453154766505feb9dbf0a58e6990fd6eb669696001600160a01b0319918216179091556005805482166001600160a01b039390931692909217909155600680543392169190911790556000600855600a805461ff0019169055620002af565b8051620001289060029060208401906200012c565b5050565b8280546200013a9062000259565b90600052602060002090601f0160209004810192826200015e5760008555620001a9565b82601f106200017957805160ff1916838001178555620001a9565b82800160010185558215620001a9579182015b82811115620001a95782518255916020019190600101906200018c565b50620001b7929150620001bb565b5090565b5b80821115620001b75760008155600101620001bc565b600080600080600060a08688031215620001eb57600080fd5b8551620001f88162000296565b6020870151604088015191965094506001600160401b03811681146200021d57600080fd5b606087015190935063ffffffff811681146200023857600080fd5b60808701519092506200024b8162000296565b809150509295509295909350565b600181811c908216806200026e57607f821691505b602082108114156200029057634e487b7160e01b600052602260045260246000fd5b50919050565b6001600160a01b0381168114620002ac57600080fd5b50565b60805160601c60a05160601c60c05160e05160c01c6101005160e01c613d6962000323600039600081816108fe0152612958015260008181610563015261292301526000818161078c01526128f40152600081816108260152612991015260008181610bea0152610c450152613d696000f3fe6080604052600436106103165760003560e01c806372cf6e341161019a578063bbcbc2e7116100e1578063e289fcb61161008a578063f242432a11610064578063f242432a146109ab578063f48c9d34146109cb578063fd210fd9146109eb57600080fd5b8063e289fcb614610935578063e7fb74c71461094f578063e985e9c51461096257600080fd5b8063d547741f116100bb578063d547741f146108cc578063d757d027146108ec578063de08f6531461092057600080fd5b8063bbcbc2e714610874578063c107532914610896578063ca90958f146108b657600080fd5b80638e879c8a11610143578063a22cb4651161011d578063a22cb465146107f4578063aebc455014610814578063b63b86121461084857600080fd5b80638e879c8a1461077a57806391d14854146107ae578063a217fddf146106e557600080fd5b806389165aa91161017457806389165aa91461071a5780638ba8b15a1461073a5780638dc5f45b1461075a57600080fd5b806372cf6e34146106bb57806375b238fc146106e557806384203f4b146106fa57600080fd5b806332dee40b1161025e57806354e889f61161020757806367f082b0116101e157806367f082b01461065357806368b721001461067b578063704b6c021461069b57600080fd5b806354e889f6146105f357806357f7789e1461061357806367be820a1461063357600080fd5b80634a226657116102385780634a2266571461059e5780634e1273f4146105a65780635408c319146105d357600080fd5b806332dee40b1461051157806336568abe14610531578063470cdf971461055157600080fd5b806320ba0814116102c05780632d9235611161029a5780632d923561146104b15780632eb2c2d6146104d15780632f2ff15d146104f157600080fd5b806320ba081414610434578063248a9ca3146104615780632ce381901461049157600080fd5b8063109b8278116102f1578063109b8278146103b25780631cb0b273146103f25780631fe543e31461041457600080fd5b8062fdd58e1461032257806301ffc9a7146103555780630e89341c1461038557600080fd5b3661031d57005b600080fd5b34801561032e57600080fd5b5061034261033d3660046135fd565b610a01565b6040519081526020015b60405180910390f35b34801561036157600080fd5b50610375610370366004613721565b610aaa565b604051901515815260200161034c565b34801561039157600080fd5b506103a56103a03660046136e5565b610abb565b60405161034c9190613a85565b3480156103be57600080fd5b506103da73ef453154766505feb9dbf0a58e6990fd6eb6696981565b6040516001600160a01b03909116815260200161034c565b3480156103fe57600080fd5b5061041261040d3660046136e5565b610b5d565b005b34801561042057600080fd5b5061041261042f366004613774565b610bdf565b34801561044057600080fd5b5061034261044f3660046136e5565b6000908152600e602052604090205490565b34801561046d57600080fd5b5061034261047c3660046136e5565b60009081526003602052604090206001015490565b34801561049d57600080fd5b506104126104ac3660046136e5565b610c80565b3480156104bd57600080fd5b506104126104cc366004613802565b610cec565b3480156104dd57600080fd5b506104126104ec3660046134b7565b610e94565b3480156104fd57600080fd5b5061041261050c3660046136fe565b610f36565b34801561051d57600080fd5b5061041261052c366004613469565b610f60565b34801561053d57600080fd5b5061041261054c3660046136fe565b61108f565b34801561055d57600080fd5b506105857f000000000000000000000000000000000000000000000000000000000000000081565b60405167ffffffffffffffff909116815260200161034c565b610342611117565b3480156105b257600080fd5b506105c66105c1366004613664565b611445565b60405161034c9190613a1c565b3480156105df57600080fd5b506104126105ee366004613627565b611583565b3480156105ff57600080fd5b5061041261060e366004613469565b61164a565b34801561061f57600080fd5b5061041261062e3660046137b1565b6116cd565b34801561063f57600080fd5b5061034261064e3660046136e5565b6117b3565b34801561065f57600080fd5b50610668600181565b60405161ffff909116815260200161034c565b34801561068757600080fd5b506005546103da906001600160a01b031681565b3480156106a757600080fd5b506104126106b6366004613469565b6117eb565b3480156106c757600080fd5b506106d0600181565b60405163ffffffff909116815260200161034c565b3480156106f157600080fd5b50610342600081565b34801561070657600080fd5b50610375610715366004613469565b611850565b34801561072657600080fd5b50610412610735366004613627565b611923565b34801561074657600080fd5b50610412610755366004613469565b6119ea565b34801561076657600080fd5b506104126107753660046136e5565b611a6a565b34801561078657600080fd5b506103427f000000000000000000000000000000000000000000000000000000000000000081565b3480156107ba57600080fd5b506103756107c93660046136fe565b60009182526003602090815260408084206001600160a01b0393909316845291905290205460ff1690565b34801561080057600080fd5b5061041261080f3660046135c6565b611ace565b34801561082057600080fd5b506103da7f000000000000000000000000000000000000000000000000000000000000000081565b34801561085457600080fd5b50600a5461086790610100900460ff1681565b60405161034c9190613a5d565b34801561088057600080fd5b50610889611ad9565b60405161034c91906139ad565b3480156108a257600080fd5b506104126108b13660046135fd565b611bfd565b3480156108c257600080fd5b5061034260095481565b3480156108d857600080fd5b506104126108e73660046136fe565b611d2d565b3480156108f857600080fd5b506106d07f000000000000000000000000000000000000000000000000000000000000000081565b34801561092c57600080fd5b50610412611d52565b34801561094157600080fd5b50600a546103759060ff1681565b61041261095d3660046136e5565b611df3565b34801561096e57600080fd5b5061037561097d366004613484565b6001600160a01b03918216600090815260016020908152604080832093909416825291909152205460ff1690565b3480156109b757600080fd5b506104126109c6366004613561565b611f67565b3480156109d757600080fd5b506105c66109e6366004613469565b612002565b3480156109f757600080fd5b50610342600c5481565b60006001600160a01b038316610a845760405162461bcd60e51b815260206004820152602b60248201527f455243313135353a2062616c616e636520717565727920666f7220746865207a60448201527f65726f206164647265737300000000000000000000000000000000000000000060648201526084015b60405180910390fd5b506000908152602081815260408083206001600160a01b03949094168352929052205490565b6000610ab58261209e565b92915050565b6000818152600f60205260409020805460609190610ad890613b65565b80601f0160208091040260200160405190810160405280929190818152602001828054610b0490613b65565b8015610b515780601f10610b2657610100808354040283529160200191610b51565b820191906000526020600020905b815481529060010190602001808311610b3457829003601f168201915b50505050509050919050565b6000610b693383610a01565b11610b7357600080fd5b610b7f338260016120dc565b6000818152600e60205260408120805460019290610b9e908490613b07565b909155505060408051338152602081018390527f9e90d55d2f1f115ffe1b87372c45f27f6b3a2b5ba392942167be784561890094910160405180910390a150565b336001600160a01b037f00000000000000000000000000000000000000000000000000000000000000001614610c72576040517f1cf993f40000000000000000000000000000000000000000000000000000000081523360048201526001600160a01b037f0000000000000000000000000000000000000000000000000000000000000000166024820152604401610a7b565b610c7c8282612290565b5050565b610c89336122b5565b610cdf5760405162461bcd60e51b815260206004820152602160248201527f55736572206973206e6f7420746865204f776e6572206f7220616e2041646d696044820152603760f91b6064820152608401610a7b565b610ce93082612314565b50565b6000610cf83384610a01565b11610d455760405162461bcd60e51b815260206004820152600f60248201527f4974656d206e6f7420666f756e642e00000000000000000000000000000000006044820152606401610a7b565b610d6233308460016040518060200160405280600081525061237f565b6040805160808101825283815260208082018481523383850181815260006060808701828152600b8054600181018255935296517f0175b7a638427703f0dbe7bb9bbf987a2551717b34e79f33b5b1008d1fa01db960039093029283015593517f0175b7a638427703f0dbe7bb9bbf987a2551717b34e79f33b5b1008d1fa01dba82015590517f0175b7a638427703f0dbe7bb9bbf987a2551717b34e79f33b5b1008d1fa01dbb909101805495516001600160a01b039092167fffffffffffffffffffffff00000000000000000000000000000000000000000090961695909517600160a01b911515919091021790935583519283529082018590529181018390527f23cba88d6c6f26b62b2cfc32a2cc04fbbde8590188b97cd3590e45af9ac6dd6d91015b60405180910390a15050565b6001600160a01b038516331480610eb05750610eb0853361097d565b610f225760405162461bcd60e51b815260206004820152603260248201527f455243313135353a207472616e736665722063616c6c6572206973206e6f742060448201527f6f776e6572206e6f7220617070726f76656400000000000000000000000000006064820152608401610a7b565b610f2f858585858561252a565b5050505050565b600082815260036020526040902060010154610f518161279d565b610f5b83836127a7565b505050565b6006546001600160a01b03163314610fba5760405162461bcd60e51b815260206004820152601560248201527f55736572206973206e6f7420746865206f776e657200000000000000000000006044820152606401610a7b565b6000471161100a5760405162461bcd60e51b815260206004820152601460248201527f4e6f2066756e647320746f2077697468647261770000000000000000000000006044820152606401610a7b565b60055460405163a9059cbb60e01b81526001600160a01b0383811660048301524760248301529091169063a9059cbb90604401602060405180830381600087803b15801561105757600080fd5b505af115801561106b573d6000803e3d6000fd5b505050506040513d601f19601f82011682018060405250810190610c7c91906136c8565b6001600160a01b038116331461110d5760405162461bcd60e51b815260206004820152602f60248201527f416363657373436f6e74726f6c3a2063616e206f6e6c792072656e6f756e636560448201527f20726f6c657320666f722073656c6600000000000000000000000000000000006064820152608401610a7b565b610c7c8282612849565b600080600a54610100900460ff16600181111561113657611136613c28565b146111a95760405162461bcd60e51b815260206004820152602560248201527f436f6e7472616374206973206e6f74206163746976652061742074686973206d60448201527f6f6d656e740000000000000000000000000000000000000000000000000000006064820152608401610a7b565b6111b233611850565b6112245760405162461bcd60e51b815260206004820152603460248201527f55736572206973206e6f74205261636b734d656d62657273206f7220646f657360448201527f206e6f74206f776e732061204d7243727970746f0000000000000000000000006064820152608401610a7b565b600954341461129b5760405162461bcd60e51b815260206004820152602e60248201527f5573657220646964206e6f742070617920656e6f756768206d6f6e657920746f60448201527f206f70656e2074686520636173650000000000000000000000000000000000006064820152608401610a7b565b6005546040516323b872dd60e01b81523360048201523060248201523460448201526001600160a01b03909116906323b872dd90606401602060405180830381600087803b1580156112ec57600080fd5b505af1158015611300573d6000803e3d6000fd5b505050506040513d601f19601f8201168201806040525081019061132491906136c8565b5060006007546113326128cc565b61133c9190613be8565b9050600080805b6008548110156113f8576000818152600e60205260408120546113669085613abc565b905083851115611378578093506113e5565b60006113843084610a01565b11156113e5576000611397600184613b07565b90505b60006113a63083610a01565b11156113d1578093506113cc30338360016040518060200160405280600081525061237f565b6113e3565b806113db81613b4e565b91505061139a565b505b50806113f081613bcd565b915050611343565b5060095460408051338152602081019290925281018290527fea32e37a2618dbb680c93d891742e9e13b30d184822562a0ee3c09290fd42b439060600160405180910390a1925050505b90565b606081518351146114be5760405162461bcd60e51b815260206004820152602960248201527f455243313135353a206163636f756e747320616e6420696473206c656e67746860448201527f206d69736d6174636800000000000000000000000000000000000000000000006064820152608401610a7b565b6000835167ffffffffffffffff8111156114da576114da613c54565b604051908082528060200260200182016040528015611503578160200160208202803683370190505b50905060005b845181101561157b5761154e85828151811061152757611527613c3e565b602002602001015185838151811061154157611541613c3e565b6020026020010151610a01565b82828151811061156057611560613c3e565b602090810291909101015261157481613bcd565b9050611509565b509392505050565b61158c336122b5565b6115e25760405162461bcd60e51b815260206004820152602160248201527f55736572206973206e6f7420746865204f776e6572206f7220616e2041646d696044820152603760f91b6064820152608401610a7b565b60005b8151811015610c7c576000600d600084848151811061160657611606613c3e565b6020908102919091018101516001600160a01b03168252810191909152604001600020805460ff19169115159190911790558061164281613bcd565b9150506115e5565b611653336122b5565b6116a95760405162461bcd60e51b815260206004820152602160248201527f55736572206973206e6f7420746865204f776e6572206f7220616e2041646d696044820152603760f91b6064820152608401610a7b565b6001600160a01b03166000908152600d60205260409020805460ff19166001179055565b6116d6336122b5565b61172c5760405162461bcd60e51b815260206004820152602160248201527f55736572206973206e6f7420746865204f776e6572206f7220616e2041646d696044820152603760f91b6064820152608401610a7b565b6000828152600f60205260409020805461174590613b65565b1590506117945760405162461bcd60e51b815260206004820152601560248201527f43616e206e6f74207365742075726920747769636500000000000000000000006044820152606401610a7b565b6000828152600f602090815260409091208251610f5b9284019061324e565b60006117be82612a0d565b6117c757600080fd5b6007546000838152600e602052604081205490916117e491613ad4565b9392505050565b6006546001600160a01b031633146118455760405162461bcd60e51b815260206004820152601560248201527f55736572206973206e6f7420746865206f776e657200000000000000000000006044820152606401610a7b565b610ce9600082612a25565b600480546040517f70a082310000000000000000000000000000000000000000000000000000000081526001600160a01b0384811693820193909352600092839216906370a082319060240160206040518083038186803b1580156118b457600080fd5b505afa1580156118c8573d6000803e3d6000fd5b505050506040513d601f19601f820116820180604052508101906118ec919061375b565b116118f657600080fd5b6001600160a01b0382166000908152600d602052604090205460ff1661191b57600080fd5b506001919050565b61192c336122b5565b6119825760405162461bcd60e51b815260206004820152602160248201527f55736572206973206e6f7420746865204f776e6572206f7220616e2041646d696044820152603760f91b6064820152608401610a7b565b60005b8151811015610c7c576001600d60008484815181106119a6576119a6613c3e565b6020908102919091018101516001600160a01b03168252810191909152604001600020805460ff1916911515919091179055806119e281613bcd565b915050611985565b6119f3336122b5565b611a495760405162461bcd60e51b815260206004820152602160248201527f55736572206973206e6f7420746865204f776e6572206f7220616e2041646d696044820152603760f91b6064820152608401610a7b565b6001600160a01b03166000908152600d60205260409020805460ff19169055565b611a73336122b5565b611ac95760405162461bcd60e51b815260206004820152602160248201527f55736572206973206e6f7420746865204f776e6572206f7220616e2041646d696044820152603760f91b6064820152608401610a7b565b600955565b610c7c338383612a2f565b600b5460609060008167ffffffffffffffff811115611afa57611afa613c54565b604051908082528060200260200182016040528015611b4c57816020015b604080516080810182526000808252602080830182905292820181905260608201528252600019909201910181611b185790505b50905060005b82811015611bf657600b8181548110611b6d57611b6d613c3e565b600091825260209182902060408051608081018252600393909302909101805483526001810154938301939093526002909201546001600160a01b03811692820192909252600160a01b90910460ff16151560608201528251839083908110611bd857611bd8613c3e565b60200260200101819052508080611bee90613bcd565b915050611b52565b5092915050565b6006546001600160a01b03163314611c575760405162461bcd60e51b815260206004820152601560248201527f55736572206973206e6f7420746865206f776e657200000000000000000000006044820152606401610a7b565b60004711611ca75760405162461bcd60e51b815260206004820152601460248201527f4e6f2066756e647320746f2077697468647261770000000000000000000000006044820152606401610a7b565b60055460405163a9059cbb60e01b81526001600160a01b038481166004830152602482018490529091169063a9059cbb90604401602060405180830381600087803b158015611cf557600080fd5b505af1158015611d09573d6000803e3d6000fd5b505050506040513d601f19601f82011682018060405250810190610f5b91906136c8565b600082815260036020526040902060010154611d488161279d565b610f5b8383612849565b611d5b336122b5565b611db15760405162461bcd60e51b815260206004820152602160248201527f55736572206973206e6f7420746865204f776e6572206f7220616e2041646d696044820152603760f91b6064820152608401610a7b565b6000600a54610100900460ff166001811115611dcf57611dcf613c28565b1415611de657600a805461ff001916610100179055565b600a805461ff0019169055565b6000600b8281548110611e0857611e08613c3e565b600091825260209182902060408051608081018252600393909302909101805483526001810154938301849052600201546001600160a01b03808216848401819052600160a01b90920460ff161515606085015260055492516323b872dd60e01b815233600482015260248101929092526044820194909452919350909116906323b872dd90606401602060405180830381600087803b158015611eab57600080fd5b505af1158015611ebf573d6000803e3d6000fd5b505050506040513d601f19601f82011682018060405250810190611ee391906136c8565b50611f053033836000015160016040518060200160405280600081525061237f565b600160608281019190915260408083015160208085015183513381526001600160a01b0390931691830191909152918101859052918201527f642067ff529c9b5b1162502fc8e8a3a91dda56e126a84f2fe38d341236231a8290608001610e88565b6001600160a01b038516331480611f835750611f83853361097d565b611ff55760405162461bcd60e51b815260206004820152602960248201527f455243313135353a2063616c6c6572206973206e6f74206f776e6572206e6f7260448201527f20617070726f76656400000000000000000000000000000000000000000000006064820152608401610a7b565b610f2f858585858561237f565b6060600060085460016120159190613abc565b67ffffffffffffffff81111561202d5761202d613c54565b604051908082528060200260200182016040528015612056578160200160208202803683370190505b50905060005b8151811015611bf65761206f8482610a01565b82828151811061208157612081613c3e565b60209081029190910101528061209681613bcd565b91505061205c565b60006001600160e01b031982167f7965db0b000000000000000000000000000000000000000000000000000000001480610ab55750610ab582612b24565b6001600160a01b0383166121585760405162461bcd60e51b815260206004820152602360248201527f455243313135353a206275726e2066726f6d20746865207a65726f206164647260448201527f65737300000000000000000000000000000000000000000000000000000000006064820152608401610a7b565b33600061216484612bbf565b9050600061217184612bbf565b60408051602080820183526000918290528882528181528282206001600160a01b038b16835290522054909150848110156122135760405162461bcd60e51b8152602060048201526024808201527f455243313135353a206275726e20616d6f756e7420657863656564732062616c60448201527f616e6365000000000000000000000000000000000000000000000000000000006064820152608401610a7b565b6000868152602081815260408083206001600160a01b038b81168086529184528285208a8703905582518b81529384018a90529092908816917fc3d58168c5ae7397731d063d5bbf3d657854427343f4c083240f7aacaa2d0f62910160405180910390a46040805160208101909152600090525b50505050505050565b806000815181106122a3576122a3613c3e565b6020026020010151600c819055505050565b6006546000906001600160a01b038381169116148061230b57506001600160a01b03821660009081527f3617319a054d772f909f7c479a2cebe5066e836a939412e32403c99029b92eff602052604090205460ff165b61191b57600080fd5b612331826008548360405180602001604052806000815250612c0a565b61234a600854826000918252600e602052604090912055565b806007600082825461235c9190613abc565b925050819055506001600860008282546123769190613abc565b90915550505050565b6001600160a01b0384166123e35760405162461bcd60e51b815260206004820152602560248201527f455243313135353a207472616e7366657220746f20746865207a65726f206164604482015264647265737360d81b6064820152608401610a7b565b3360006123ef85612bbf565b905060006123fc85612bbf565b90506000868152602081815260408083206001600160a01b038c168452909152902054858110156124825760405162461bcd60e51b815260206004820152602a60248201527f455243313135353a20696e73756666696369656e742062616c616e636520666f60448201526939103a3930b739b332b960b11b6064820152608401610a7b565b6000878152602081815260408083206001600160a01b038d8116855292528083208985039055908a168252812080548892906124bf908490613abc565b909155505060408051888152602081018890526001600160a01b03808b16928c821692918816917fc3d58168c5ae7397731d063d5bbf3d657854427343f4c083240f7aacaa2d0f62910160405180910390a461251f848a8a8a8a8a612d2d565b505050505050505050565b81518351146125a15760405162461bcd60e51b815260206004820152602860248201527f455243313135353a2069647320616e6420616d6f756e7473206c656e6774682060448201527f6d69736d617463680000000000000000000000000000000000000000000000006064820152608401610a7b565b6001600160a01b0384166126055760405162461bcd60e51b815260206004820152602560248201527f455243313135353a207472616e7366657220746f20746865207a65726f206164604482015264647265737360d81b6064820152608401610a7b565b3360005b845181101561272f57600085828151811061262657612626613c3e565b60200260200101519050600085838151811061264457612644613c3e565b602090810291909101810151600084815280835260408082206001600160a01b038e1683529093529190912054909150818110156126d75760405162461bcd60e51b815260206004820152602a60248201527f455243313135353a20696e73756666696369656e742062616c616e636520666f60448201526939103a3930b739b332b960b11b6064820152608401610a7b565b6000838152602081815260408083206001600160a01b038e8116855292528083208585039055908b16825281208054849290612714908490613abc565b925050819055505050508061272890613bcd565b9050612609565b50846001600160a01b0316866001600160a01b0316826001600160a01b03167f4a39dc06d4c0dbc64b70af90fd698a233a518aa5d07e595d983b8c0526c8f7fb878760405161277f929190613a2f565b60405180910390a4612795818787878787612ee2565b505050505050565b610ce98133612fed565b60008281526003602090815260408083206001600160a01b038516845290915290205460ff16610c7c5760008281526003602090815260408083206001600160a01b03851684529091529020805460ff191660011790556128053390565b6001600160a01b0316816001600160a01b0316837f2f8788117e7eff1d82e926ec794901d17c78024a50270940304540a733656f0d60405160405180910390a45050565b60008281526003602090815260408083206001600160a01b038516845290915290205460ff1615610c7c5760008281526003602090815260408083206001600160a01b0385168085529252808320805460ff1916905551339285917ff6391f5c32d9c69d2a47ea670b442974b53935d1edc7fd64eb21e047a839171b9190a45050565b6040517f5d3b1d300000000000000000000000000000000000000000000000000000000081527f0000000000000000000000000000000000000000000000000000000000000000600482015267ffffffffffffffff7f000000000000000000000000000000000000000000000000000000000000000016602482015260016044820181905263ffffffff7f0000000000000000000000000000000000000000000000000000000000000000166064830152608482015260009081906001600160a01b037f00000000000000000000000000000000000000000000000000000000000000001690635d3b1d309060a401602060405180830381600087803b1580156129d557600080fd5b505af11580156129e9573d6000803e3d6000fd5b505050506040513d601f19601f82011682018060405250810190610ab5919061375b565b6000818152600e602052604081205461191b57600080fd5b610c7c82826127a7565b816001600160a01b0316836001600160a01b03161415612ab75760405162461bcd60e51b815260206004820152602960248201527f455243313135353a2073657474696e6720617070726f76616c2073746174757360448201527f20666f722073656c6600000000000000000000000000000000000000000000006064820152608401610a7b565b6001600160a01b03838116600081815260016020908152604080832094871680845294825291829020805460ff191686151590811790915591519182527f17307eab39ab6107e8899845ad3d59bd9653f200f220920489ca2b5937696c31910160405180910390a3505050565b60006001600160e01b031982167fd9b67a26000000000000000000000000000000000000000000000000000000001480612b8757506001600160e01b031982167f0e89341c00000000000000000000000000000000000000000000000000000000145b80610ab557507f01ffc9a7000000000000000000000000000000000000000000000000000000006001600160e01b0319831614610ab5565b60408051600180825281830190925260609160009190602080830190803683370190505090508281600081518110612bf957612bf9613c3e565b602090810291909101015292915050565b6001600160a01b038416612c865760405162461bcd60e51b815260206004820152602160248201527f455243313135353a206d696e7420746f20746865207a65726f2061646472657360448201527f73000000000000000000000000000000000000000000000000000000000000006064820152608401610a7b565b336000612c9285612bbf565b90506000612c9f85612bbf565b90506000868152602081815260408083206001600160a01b038b16845290915281208054879290612cd1908490613abc565b909155505060408051878152602081018790526001600160a01b03808a1692600092918716917fc3d58168c5ae7397731d063d5bbf3d657854427343f4c083240f7aacaa2d0f62910160405180910390a4612287836000898989895b6001600160a01b0384163b156127955760405163f23a6e6160e01b81526001600160a01b0385169063f23a6e6190612d71908990899088908890889060040161396a565b602060405180830381600087803b158015612d8b57600080fd5b505af1925050508015612dbb575060408051601f3d908101601f19168201909252612db89181019061373e565b60015b612e7157612dc7613c6a565b806308c379a01415612e015750612ddc613c85565b80612de75750612e03565b8060405162461bcd60e51b8152600401610a7b9190613a85565b505b60405162461bcd60e51b815260206004820152603460248201527f455243313135353a207472616e7366657220746f206e6f6e204552433131353560448201527f526563656976657220696d706c656d656e7465720000000000000000000000006064820152608401610a7b565b6001600160e01b0319811663f23a6e6160e01b146122875760405162461bcd60e51b815260206004820152602860248201527f455243313135353a204552433131353552656365697665722072656a656374656044820152676420746f6b656e7360c01b6064820152608401610a7b565b6001600160a01b0384163b156127955760405163bc197c8160e01b81526001600160a01b0385169063bc197c8190612f26908990899088908890889060040161390c565b602060405180830381600087803b158015612f4057600080fd5b505af1925050508015612f70575060408051601f3d908101601f19168201909252612f6d9181019061373e565b60015b612f7c57612dc7613c6a565b6001600160e01b0319811663bc197c8160e01b146122875760405162461bcd60e51b815260206004820152602860248201527f455243313135353a204552433131353552656365697665722072656a656374656044820152676420746f6b656e7360c01b6064820152608401610a7b565b60008281526003602090815260408083206001600160a01b038516845290915290205460ff16610c7c5761302b816001600160a01b0316601461306d565b61303683602061306d565b60405160200161304792919061388b565b60408051601f198184030181529082905262461bcd60e51b8252610a7b91600401613a85565b6060600061307c836002613ae8565b613087906002613abc565b67ffffffffffffffff81111561309f5761309f613c54565b6040519080825280601f01601f1916602001820160405280156130c9576020820181803683370190505b5090507f30000000000000000000000000000000000000000000000000000000000000008160008151811061310057613100613c3e565b60200101906001600160f81b031916908160001a9053507f78000000000000000000000000000000000000000000000000000000000000008160018151811061314b5761314b613c3e565b60200101906001600160f81b031916908160001a905350600061316f846002613ae8565b61317a906001613abc565b90505b60018111156131ff577f303132333435363738396162636465660000000000000000000000000000000085600f16601081106131bb576131bb613c3e565b1a60f81b8282815181106131d1576131d1613c3e565b60200101906001600160f81b031916908160001a90535060049490941c936131f881613b4e565b905061317d565b5083156117e45760405162461bcd60e51b815260206004820181905260248201527f537472696e67733a20686578206c656e67746820696e73756666696369656e746044820152606401610a7b565b82805461325a90613b65565b90600052602060002090601f01602090048101928261327c57600085556132c2565b82601f1061329557805160ff19168380011785556132c2565b828001600101855582156132c2579182015b828111156132c25782518255916020019190600101906132a7565b506132ce9291506132d2565b5090565b5b808211156132ce57600081556001016132d3565b600067ffffffffffffffff83111561330157613301613c54565b604051613318601f8501601f191660200182613ba0565b80915083815284848401111561332d57600080fd5b83836020830137600060208583010152509392505050565b80356001600160a01b038116811461335c57600080fd5b919050565b600082601f83011261337257600080fd5b8135602061337f82613a98565b60405161338c8282613ba0565b8381528281019150858301600585901b870184018810156133ac57600080fd5b60005b858110156133d2576133c082613345565b845292840192908401906001016133af565b5090979650505050505050565b600082601f8301126133f057600080fd5b813560206133fd82613a98565b60405161340a8282613ba0565b8381528281019150858301600585901b8701840188101561342a57600080fd5b60005b858110156133d25781358452928401929084019060010161342d565b600082601f83011261345a57600080fd5b6117e4838335602085016132e7565b60006020828403121561347b57600080fd5b6117e482613345565b6000806040838503121561349757600080fd5b6134a083613345565b91506134ae60208401613345565b90509250929050565b600080600080600060a086880312156134cf57600080fd5b6134d886613345565b94506134e660208701613345565b9350604086013567ffffffffffffffff8082111561350357600080fd5b61350f89838a016133df565b9450606088013591508082111561352557600080fd5b61353189838a016133df565b9350608088013591508082111561354757600080fd5b5061355488828901613449565b9150509295509295909350565b600080600080600060a0868803121561357957600080fd5b61358286613345565b945061359060208701613345565b93506040860135925060608601359150608086013567ffffffffffffffff8111156135ba57600080fd5b61355488828901613449565b600080604083850312156135d957600080fd5b6135e283613345565b915060208301356135f281613d0f565b809150509250929050565b6000806040838503121561361057600080fd5b61361983613345565b946020939093013593505050565b60006020828403121561363957600080fd5b813567ffffffffffffffff81111561365057600080fd5b61365c84828501613361565b949350505050565b6000806040838503121561367757600080fd5b823567ffffffffffffffff8082111561368f57600080fd5b61369b86838701613361565b935060208501359150808211156136b157600080fd5b506136be858286016133df565b9150509250929050565b6000602082840312156136da57600080fd5b81516117e481613d0f565b6000602082840312156136f757600080fd5b5035919050565b6000806040838503121561371157600080fd5b823591506134ae60208401613345565b60006020828403121561373357600080fd5b81356117e481613d1d565b60006020828403121561375057600080fd5b81516117e481613d1d565b60006020828403121561376d57600080fd5b5051919050565b6000806040838503121561378757600080fd5b82359150602083013567ffffffffffffffff8111156137a557600080fd5b6136be858286016133df565b600080604083850312156137c457600080fd5b82359150602083013567ffffffffffffffff8111156137e257600080fd5b8301601f810185136137f357600080fd5b6136be858235602084016132e7565b6000806040838503121561381557600080fd5b50508035926020909101359150565b600081518084526020808501945080840160005b8381101561385457815187529582019590820190600101613838565b509495945050505050565b60008151808452613877816020860160208601613b1e565b601f01601f19169290920160200192915050565b7f416363657373436f6e74726f6c3a206163636f756e74200000000000000000008152600083516138c3816017850160208801613b1e565b7f206973206d697373696e6720726f6c65200000000000000000000000000000006017918401918201528351613900816028840160208801613b1e565b01602801949350505050565b60006001600160a01b03808816835280871660208401525060a0604083015261393860a0830186613824565b828103606084015261394a8186613824565b9050828103608084015261395e818561385f565b98975050505050505050565b60006001600160a01b03808816835280871660208401525084604083015283606083015260a060808301526139a260a083018461385f565b979650505050505050565b602080825282518282018190526000919060409081850190868401855b82811015613a0f578151805185528681015187860152858101516001600160a01b031686860152606090810151151590850152608090930192908501906001016139ca565b5091979650505050505050565b6020815260006117e46020830184613824565b604081526000613a426040830185613824565b8281036020840152613a548185613824565b95945050505050565b6020810160028310613a7f57634e487b7160e01b600052602160045260246000fd5b91905290565b6020815260006117e4602083018461385f565b600067ffffffffffffffff821115613ab257613ab2613c54565b5060051b60200190565b60008219821115613acf57613acf613bfc565b500190565b600082613ae357613ae3613c12565b500490565b6000816000190483118215151615613b0257613b02613bfc565b500290565b600082821015613b1957613b19613bfc565b500390565b60005b83811015613b39578181015183820152602001613b21565b83811115613b48576000848401525b50505050565b600081613b5d57613b5d613bfc565b506000190190565b600181811c90821680613b7957607f821691505b60208210811415613b9a57634e487b7160e01b600052602260045260246000fd5b50919050565b601f8201601f1916810167ffffffffffffffff81118282101715613bc657613bc6613c54565b6040525050565b6000600019821415613be157613be1613bfc565b5060010190565b600082613bf757613bf7613c12565b500690565b634e487b7160e01b600052601160045260246000fd5b634e487b7160e01b600052601260045260246000fd5b634e487b7160e01b600052602160045260246000fd5b634e487b7160e01b600052603260045260246000fd5b634e487b7160e01b600052604160045260246000fd5b600060033d11156114425760046000803e5060005160e01c90565b600060443d1015613c935790565b6040516003193d81016004833e81513d67ffffffffffffffff8160248401118184111715613cc357505050505090565b8285019150815181811115613cdb5750505050505090565b843d8701016020828501011115613cf55750505050505090565b613d0460208286010187613ba0565b509095945050505050565b8015158114610ce957600080fd5b6001600160e01b031981168114610ce957600080fdfea264697066735822122024fab3f41a61c35927b9ed6712f92fdaab52534d57b17490e7967a7953f47e9e64736f6c63430008070033",
  "linkReferences": {},
  "deployedLinkReferences": {}
}