{
  "_format": "hh-sol-artifact-1",
  "contractName": "RacksItems",
  "sourceName": "contracts/RacksItems.sol",
  "abi": [
    {
      "inputs": [
        {
          "internalType": "address",
          "name": "vrfCoordinatorV2",
          "type": "address"
        },
        {
          "internalType": "bytes32",
          "name": "gasLane",
          "type": "bytes32"
        },
        {
          "internalType": "uint64",
          "name": "subscriptionId",
          "type": "uint64"
        },
        {
          "internalType": "uint32",
          "name": "callbackGasLimit",
          "type": "uint32"
        }
      ],
      "stateMutability": "nonpayable",
      "type": "constructor"
    },
    {
      "inputs": [
        {
          "internalType": "address",
          "name": "have",
          "type": "address"
        },
        {
          "internalType": "address",
          "name": "want",
          "type": "address"
        }
      ],
      "name": "OnlyCoordinatorCanFulfill",
      "type": "error"
    },
    {
      "anonymous": false,
      "inputs": [
        {
          "indexed": true,
          "internalType": "address",
          "name": "account",
          "type": "address"
        },
        {
          "indexed": true,
          "internalType": "address",
          "name": "operator",
          "type": "address"
        },
        {
          "indexed": false,
          "internalType": "bool",
          "name": "approved",
          "type": "bool"
        }
      ],
      "name": "ApprovalForAll",
      "type": "event"
    },
    {
      "anonymous": false,
      "inputs": [
        {
          "indexed": false,
          "internalType": "uint256",
          "name": "baseItemId",
          "type": "uint256"
        },
        {
          "indexed": false,
          "internalType": "uint256",
          "name": "rackstrackItemId",
          "type": "uint256"
        }
      ],
      "name": "RacksTrackMinted",
      "type": "event"
    },
    {
      "anonymous": false,
      "inputs": [
        {
          "indexed": true,
          "internalType": "bytes32",
          "name": "role",
          "type": "bytes32"
        },
        {
          "indexed": true,
          "internalType": "bytes32",
          "name": "previousAdminRole",
          "type": "bytes32"
        },
        {
          "indexed": true,
          "internalType": "bytes32",
          "name": "newAdminRole",
          "type": "bytes32"
        }
      ],
      "name": "RoleAdminChanged",
      "type": "event"
    },
    {
      "anonymous": false,
      "inputs": [
        {
          "indexed": true,
          "internalType": "bytes32",
          "name": "role",
          "type": "bytes32"
        },
        {
          "indexed": true,
          "internalType": "address",
          "name": "account",
          "type": "address"
        },
        {
          "indexed": true,
          "internalType": "address",
          "name": "sender",
          "type": "address"
        }
      ],
      "name": "RoleGranted",
      "type": "event"
    },
    {
      "anonymous": false,
      "inputs": [
        {
          "indexed": true,
          "internalType": "bytes32",
          "name": "role",
          "type": "bytes32"
        },
        {
          "indexed": true,
          "internalType": "address",
          "name": "account",
          "type": "address"
        },
        {
          "indexed": true,
          "internalType": "address",
          "name": "sender",
          "type": "address"
        }
      ],
      "name": "RoleRevoked",
      "type": "event"
    },
    {
      "anonymous": false,
      "inputs": [
        {
          "indexed": true,
          "internalType": "address",
          "name": "operator",
          "type": "address"
        },
        {
          "indexed": true,
          "internalType": "address",
          "name": "from",
          "type": "address"
        },
        {
          "indexed": true,
          "internalType": "address",
          "name": "to",
          "type": "address"
        },
        {
          "indexed": false,
          "internalType": "uint256[]",
          "name": "ids",
          "type": "uint256[]"
        },
        {
          "indexed": false,
          "internalType": "uint256[]",
          "name": "values",
          "type": "uint256[]"
        }
      ],
      "name": "TransferBatch",
      "type": "event"
    },
    {
      "anonymous": false,
      "inputs": [
        {
          "indexed": true,
          "internalType": "address",
          "name": "operator",
          "type": "address"
        },
        {
          "indexed": true,
          "internalType": "address",
          "name": "from",
          "type": "address"
        },
        {
          "indexed": true,
          "internalType": "address",
          "name": "to",
          "type": "address"
        },
        {
          "indexed": false,
          "internalType": "uint256",
          "name": "id",
          "type": "uint256"
        },
        {
          "indexed": false,
          "internalType": "uint256",
          "name": "value",
          "type": "uint256"
        }
      ],
      "name": "TransferSingle",
      "type": "event"
    },
    {
      "anonymous": false,
      "inputs": [
        {
          "indexed": false,
          "internalType": "string",
          "name": "value",
          "type": "string"
        },
        {
          "indexed": true,
          "internalType": "uint256",
          "name": "id",
          "type": "uint256"
        }
      ],
      "name": "URI",
      "type": "event"
    },
    {
      "inputs": [],
      "name": "ADMIN_ROLE",
      "outputs": [
        {
          "internalType": "bytes32",
          "name": "",
          "type": "bytes32"
        }
      ],
      "stateMutability": "view",
      "type": "function"
    },
    {
      "inputs": [],
      "name": "DEFAULT_ADMIN_ROLE",
      "outputs": [
        {
          "internalType": "bytes32",
          "name": "",
          "type": "bytes32"
        }
      ],
      "stateMutability": "view",
      "type": "function"
    },
    {
      "inputs": [],
      "name": "NUM_WORDS",
      "outputs": [
        {
          "internalType": "uint32",
          "name": "",
          "type": "uint32"
        }
      ],
      "stateMutability": "view",
      "type": "function"
    },
    {
      "inputs": [],
      "name": "REQUEST_CONFIRMATIONS",
      "outputs": [
        {
          "internalType": "uint16",
          "name": "",
          "type": "uint16"
        }
      ],
      "stateMutability": "view",
      "type": "function"
    },
    {
      "inputs": [
        {
          "internalType": "uint256",
          "name": "tokenId",
          "type": "uint256"
        }
      ],
      "name": "_chanceOfItem",
      "outputs": [
        {
          "internalType": "uint256",
          "name": "",
          "type": "uint256"
        }
      ],
      "stateMutability": "view",
      "type": "function"
    },
    {
      "inputs": [
        {
          "internalType": "address",
          "name": "account",
          "type": "address"
        },
        {
          "internalType": "uint256",
          "name": "id",
          "type": "uint256"
        }
      ],
      "name": "balanceOf",
      "outputs": [
        {
          "internalType": "uint256",
          "name": "",
          "type": "uint256"
        }
      ],
      "stateMutability": "view",
      "type": "function"
    },
    {
      "inputs": [
        {
          "internalType": "address[]",
          "name": "accounts",
          "type": "address[]"
        },
        {
          "internalType": "uint256[]",
          "name": "ids",
          "type": "uint256[]"
        }
      ],
      "name": "balanceOfBatch",
      "outputs": [
        {
          "internalType": "uint256[]",
          "name": "",
          "type": "uint256[]"
        }
      ],
      "stateMutability": "view",
      "type": "function"
    },
    {
      "inputs": [],
      "name": "casePrice",
      "outputs": [
        {
          "internalType": "uint256",
          "name": "",
          "type": "uint256"
        }
      ],
      "stateMutability": "view",
      "type": "function"
    },
    {
      "inputs": [],
      "name": "contractActive",
      "outputs": [
        {
          "internalType": "bool",
          "name": "",
          "type": "bool"
        }
      ],
      "stateMutability": "view",
      "type": "function"
    },
    {
      "inputs": [],
      "name": "flipContractState",
      "outputs": [],
      "stateMutability": "nonpayable",
      "type": "function"
    },
    {
      "inputs": [
        {
          "internalType": "bytes32",
          "name": "role",
          "type": "bytes32"
        }
      ],
      "name": "getRoleAdmin",
      "outputs": [
        {
          "internalType": "bytes32",
          "name": "",
          "type": "bytes32"
        }
      ],
      "stateMutability": "view",
      "type": "function"
    },
    {
      "inputs": [
        {
          "internalType": "bytes32",
          "name": "role",
          "type": "bytes32"
        },
        {
          "internalType": "address",
          "name": "account",
          "type": "address"
        }
      ],
      "name": "grantRole",
      "outputs": [],
      "stateMutability": "nonpayable",
      "type": "function"
    },
    {
      "inputs": [
        {
          "internalType": "bytes32",
          "name": "role",
          "type": "bytes32"
        },
        {
          "internalType": "address",
          "name": "account",
          "type": "address"
        }
      ],
      "name": "hasRole",
      "outputs": [
        {
          "internalType": "bool",
          "name": "",
          "type": "bool"
        }
      ],
      "stateMutability": "view",
      "type": "function"
    },
    {
      "inputs": [],
      "name": "i_MrCryptoAddress",
      "outputs": [
        {
          "internalType": "address",
          "name": "",
          "type": "address"
        }
      ],
      "stateMutability": "view",
      "type": "function"
    },
    {
      "inputs": [],
      "name": "i_callbackGasLimit",
      "outputs": [
        {
          "internalType": "uint32",
          "name": "",
          "type": "uint32"
        }
      ],
      "stateMutability": "view",
      "type": "function"
    },
    {
      "inputs": [],
      "name": "i_gasLane",
      "outputs": [
        {
          "internalType": "bytes32",
          "name": "",
          "type": "bytes32"
        }
      ],
      "stateMutability": "view",
      "type": "function"
    },
    {
      "inputs": [],
      "name": "i_subscriptionId",
      "outputs": [
        {
          "internalType": "uint64",
          "name": "",
          "type": "uint64"
        }
      ],
      "stateMutability": "view",
      "type": "function"
    },
    {
      "inputs": [],
      "name": "i_vrfCoordinator",
      "outputs": [
        {
          "internalType": "contract VRFCoordinatorV2Interface",
          "name": "",
          "type": "address"
        }
      ],
      "stateMutability": "view",
      "type": "function"
    },
    {
      "inputs": [
        {
          "internalType": "address",
          "name": "account",
          "type": "address"
        },
        {
          "internalType": "address",
          "name": "operator",
          "type": "address"
        }
      ],
      "name": "isApprovedForAll",
      "outputs": [
        {
          "internalType": "bool",
          "name": "",
          "type": "bool"
        }
      ],
      "stateMutability": "view",
      "type": "function"
    },
    {
      "inputs": [
        {
          "internalType": "address",
          "name": "user",
          "type": "address"
        }
      ],
      "name": "isVip",
      "outputs": [
        {
          "internalType": "bool",
          "name": "",
          "type": "bool"
        }
      ],
      "stateMutability": "view",
      "type": "function"
    },
    {
      "inputs": [
        {
          "internalType": "uint256",
          "name": "itemSupply",
          "type": "uint256"
        }
      ],
      "name": "listItem",
      "outputs": [],
      "stateMutability": "nonpayable",
      "type": "function"
    },
    {
      "inputs": [],
      "name": "openCase",
      "outputs": [
        {
          "internalType": "uint256",
          "name": "",
          "type": "uint256"
        }
      ],
      "stateMutability": "payable",
      "type": "function"
    },
    {
      "inputs": [
        {
          "internalType": "uint256",
          "name": "requestId",
          "type": "uint256"
        },
        {
          "internalType": "uint256[]",
          "name": "randomWords",
          "type": "uint256[]"
        }
      ],
      "name": "rawFulfillRandomWords",
      "outputs": [],
      "stateMutability": "nonpayable",
      "type": "function"
    },
    {
      "inputs": [
        {
          "internalType": "address[]",
          "name": "users",
          "type": "address[]"
        }
      ],
      "name": "removeListRacksMembers",
      "outputs": [],
      "stateMutability": "nonpayable",
      "type": "function"
    },
    {
      "inputs": [
        {
          "internalType": "address",
          "name": "user",
          "type": "address"
        }
      ],
      "name": "removeSingleRacksMember",
      "outputs": [],
      "stateMutability": "nonpayable",
      "type": "function"
    },
    {
      "inputs": [
        {
          "internalType": "bytes32",
          "name": "role",
          "type": "bytes32"
        },
        {
          "internalType": "address",
          "name": "account",
          "type": "address"
        }
      ],
      "name": "renounceRole",
      "outputs": [],
      "stateMutability": "nonpayable",
      "type": "function"
    },
    {
      "inputs": [
        {
          "internalType": "bytes32",
          "name": "role",
          "type": "bytes32"
        },
        {
          "internalType": "address",
          "name": "account",
          "type": "address"
        }
      ],
      "name": "revokeRole",
      "outputs": [],
      "stateMutability": "nonpayable",
      "type": "function"
    },
    {
      "inputs": [],
      "name": "s_contractState",
      "outputs": [
        {
          "internalType": "enum RacksItems.ContractState",
          "name": "",
          "type": "uint8"
        }
      ],
      "stateMutability": "view",
      "type": "function"
    },
    {
      "inputs": [],
      "name": "s_randomWord",
      "outputs": [
        {
          "internalType": "uint256",
          "name": "",
          "type": "uint256"
        }
      ],
      "stateMutability": "view",
      "type": "function"
    },
    {
      "inputs": [
        {
          "internalType": "address",
          "name": "from",
          "type": "address"
        },
        {
          "internalType": "address",
          "name": "to",
          "type": "address"
        },
        {
          "internalType": "uint256[]",
          "name": "ids",
          "type": "uint256[]"
        },
        {
          "internalType": "uint256[]",
          "name": "amounts",
          "type": "uint256[]"
        },
        {
          "internalType": "bytes",
          "name": "data",
          "type": "bytes"
        }
      ],
      "name": "safeBatchTransferFrom",
      "outputs": [],
      "stateMutability": "nonpayable",
      "type": "function"
    },
    {
      "inputs": [
        {
          "internalType": "address",
          "name": "from",
          "type": "address"
        },
        {
          "internalType": "address",
          "name": "to",
          "type": "address"
        },
        {
          "internalType": "uint256",
          "name": "id",
          "type": "uint256"
        },
        {
          "internalType": "uint256",
          "name": "amount",
          "type": "uint256"
        },
        {
          "internalType": "bytes",
          "name": "data",
          "type": "bytes"
        }
      ],
      "name": "safeTransferFrom",
      "outputs": [],
      "stateMutability": "nonpayable",
      "type": "function"
    },
    {
      "inputs": [
        {
          "internalType": "address",
          "name": "_newAdmin",
          "type": "address"
        }
      ],
      "name": "setAdmin",
      "outputs": [],
      "stateMutability": "nonpayable",
      "type": "function"
    },
    {
      "inputs": [
        {
          "internalType": "address",
          "name": "operator",
          "type": "address"
        },
        {
          "internalType": "bool",
          "name": "approved",
          "type": "bool"
        }
      ],
      "name": "setApprovalForAll",
      "outputs": [],
      "stateMutability": "nonpayable",
      "type": "function"
    },
    {
      "inputs": [
        {
          "internalType": "uint256",
          "name": "price",
          "type": "uint256"
        }
      ],
      "name": "setCasePrice",
      "outputs": [],
      "stateMutability": "nonpayable",
      "type": "function"
    },
    {
      "inputs": [
        {
          "internalType": "address[]",
          "name": "users",
          "type": "address[]"
        }
      ],
      "name": "setListRacksMembers",
      "outputs": [],
      "stateMutability": "nonpayable",
      "type": "function"
    },
    {
      "inputs": [
        {
          "internalType": "address",
          "name": "user",
          "type": "address"
        }
      ],
      "name": "setSingleRacksMember",
      "outputs": [],
      "stateMutability": "nonpayable",
      "type": "function"
    },
    {
      "inputs": [
        {
          "internalType": "uint256",
          "name": "tokenId",
          "type": "uint256"
        },
        {
          "internalType": "string",
          "name": "_uri",
          "type": "string"
        }
      ],
      "name": "setTokenUri",
      "outputs": [],
      "stateMutability": "nonpayable",
      "type": "function"
    },
    {
      "inputs": [
        {
          "internalType": "uint256",
          "name": "tokenId",
          "type": "uint256"
        }
      ],
      "name": "supplyOfItem",
      "outputs": [
        {
          "internalType": "uint256",
          "name": "",
          "type": "uint256"
        }
      ],
      "stateMutability": "view",
      "type": "function"
    },
    {
      "inputs": [
        {
          "internalType": "bytes4",
          "name": "interfaceId",
          "type": "bytes4"
        }
      ],
      "name": "supportsInterface",
      "outputs": [
        {
          "internalType": "bool",
          "name": "",
          "type": "bool"
        }
      ],
      "stateMutability": "view",
      "type": "function"
    },
    {
      "inputs": [
        {
          "internalType": "uint256",
          "name": "tokenId",
          "type": "uint256"
        }
      ],
      "name": "uri",
      "outputs": [
        {
          "internalType": "string",
          "name": "",
          "type": "string"
        }
      ],
      "stateMutability": "view",
      "type": "function"
    },
    {
      "inputs": [
        {
          "internalType": "address",
          "name": "owner",
          "type": "address"
        }
      ],
      "name": "viewItems",
      "outputs": [
        {
          "internalType": "uint256[]",
          "name": "",
          "type": "uint256[]"
        }
      ],
      "stateMutability": "view",
      "type": "function"
    }
  ],
  "bytecode": "0x6101206040526801158e460913d000006008556001600960006101000a81548160ff0219169083151502179055503480156200003a57600080fd5b5060405162005a8538038062005a8583398181016040528101906200006091906200032f565b836040518060200160405280600081525062000082816200020760201b60201c565b508073ffffffffffffffffffffffffffffffffffffffff1660808173ffffffffffffffffffffffffffffffffffffffff1660601b81525050508373ffffffffffffffffffffffffffffffffffffffff1660a08173ffffffffffffffffffffffffffffffffffffffff1660601b815250508260c081815250508167ffffffffffffffff1660e08167ffffffffffffffff1660c01b815250508063ffffffff166101008163ffffffff1660e01b815250507343b31fa35672c844f5dab60f2fb72474955292cd600460006101000a81548173ffffffffffffffffffffffffffffffffffffffff021916908373ffffffffffffffffffffffffffffffffffffffff16021790555033600560006101000a81548173ffffffffffffffffffffffffffffffffffffffff021916908373ffffffffffffffffffffffffffffffffffffffff16021790555060006007819055506000600960016101000a81548160ff02191690836001811115620001f857620001f762000439565b5b02179055505050505062000504565b80600290805190602001906200021f92919062000223565b5050565b828054620002319062000403565b90600052602060002090601f016020900481019282620002555760008555620002a1565b82601f106200027057805160ff1916838001178555620002a1565b82800160010185558215620002a1579182015b82811115620002a057825182559160200191906001019062000283565b5b509050620002b09190620002b4565b5090565b5b80821115620002cf576000816000905550600101620002b5565b5090565b600081519050620002e4816200049c565b92915050565b600081519050620002fb81620004b6565b92915050565b6000815190506200031281620004d0565b92915050565b6000815190506200032981620004ea565b92915050565b600080600080608085870312156200034c576200034b62000497565b5b60006200035c87828801620002d3565b94505060206200036f87828801620002ea565b9350506040620003828782880162000318565b9250506060620003958782880162000301565b91505092959194509250565b6000620003ae82620003bf565b9050919050565b6000819050919050565b600073ffffffffffffffffffffffffffffffffffffffff82169050919050565b600063ffffffff82169050919050565b600067ffffffffffffffff82169050919050565b600060028204905060018216806200041c57607f821691505b6020821081141562000433576200043262000468565b5b50919050565b7f4e487b7100000000000000000000000000000000000000000000000000000000600052602160045260246000fd5b7f4e487b7100000000000000000000000000000000000000000000000000000000600052602260045260246000fd5b600080fd5b620004a781620003a1565b8114620004b357600080fd5b50565b620004c181620003b5565b8114620004cd57600080fd5b50565b620004db81620003df565b8114620004e757600080fd5b50565b620004f581620003ef565b81146200050157600080fd5b50565b60805160601c60a05160601c60c05160e05160c01c6101005160e01c61550d62000578600039600081816119060152612306015260008181610de501526122e30152600081816117fc01526122c20152600081816118a80152612286015260008181610b4e0152610ba2015261550d6000f3fe6080604052600436106102455760003560e01c806372cf6e3411610139578063aebc4550116100b6578063de08f6531161007a578063de08f653146108a4578063e289fcb6146108bb578063e985e9c5146108e6578063f242432a14610923578063f48c9d341461094c578063fd210fd91461098957610245565b8063aebc4550146107cf578063b63b8612146107fa578063ca90958f14610825578063d547741f14610850578063d757d0271461087957610245565b80638dc5f45b116100fd5780638dc5f45b146106ea5780638e879c8a1461071357806391d148541461073e578063a217fddf1461077b578063a22cb465146107a657610245565b806372cf6e341461060557806375b238fc1461063057806384203f4b1461065b57806389165aa9146106985780638ba8b15a146106c157610245565b806336568abe116101c757806354e889f61161018b57806354e889f61461052257806357f7789e1461054b57806367be820a1461057457806367f082b0146105b1578063704b6c02146105dc57610245565b806336568abe1461044a578063470cdf97146104735780634a2266571461049e5780634e1273f4146104bc5780635408c319146104f957610245565b806320ba08141161020e57806320ba081414610355578063248a9ca3146103925780632ce38190146103cf5780632eb2c2d6146103f85780632f2ff15d1461042157610245565b8062fdd58e1461024a57806301ffc9a7146102875780630e89341c146102c4578063109b8278146103015780631fe543e31461032c575b600080fd5b34801561025657600080fd5b50610271600480360381019061026c91906139fc565b6109b4565b60405161027e91906146df565b60405180910390f35b34801561029357600080fd5b506102ae60048036038101906102a99190613b6a565b610a7d565b6040516102bb9190614343565b60405180910390f35b3480156102d057600080fd5b506102eb60048036038101906102e69190613bc4565b610a8f565b6040516102f89190614402565b60405180910390f35b34801561030d57600080fd5b50610316610b34565b60405161032391906141e4565b60405180910390f35b34801561033857600080fd5b50610353600480360381019061034e9190613c1e565b610b4c565b005b34801561036157600080fd5b5061037c60048036038101906103779190613bc4565b610c0c565b60405161038991906146df565b60405180910390f35b34801561039e57600080fd5b506103b960048036038101906103b49190613afd565b610c29565b6040516103c6919061435e565b60405180910390f35b3480156103db57600080fd5b506103f660048036038101906103f19190613bc4565b610c49565b005b34801561040457600080fd5b5061041f600480360381019061041a9190613856565b610c9e565b005b34801561042d57600080fd5b5061044860048036038101906104439190613b2a565b610d3f565b005b34801561045657600080fd5b50610471600480360381019061046c9190613b2a565b610d60565b005b34801561047f57600080fd5b50610488610de3565b604051610495919061473e565b60405180910390f35b6104a6610e07565b6040516104b391906146df565b60405180910390f35b3480156104c857600080fd5b506104e360048036038101906104de9190613a85565b6110af565b6040516104f091906142ea565b60405180910390f35b34801561050557600080fd5b50610520600480360381019061051b9190613a3c565b6111c8565b005b34801561052e57600080fd5b50610549600480360381019061054491906137e9565b6112a5565b005b34801561055757600080fd5b50610572600480360381019061056d9190613c7a565b611348565b005b34801561058057600080fd5b5061059b60048036038101906105969190613bc4565b61141e565b6040516105a891906146df565b60405180910390f35b3480156105bd57600080fd5b506105c6611460565b6040516105d391906146c4565b60405180910390f35b3480156105e857600080fd5b5061060360048036038101906105fe91906137e9565b611465565b005b34801561061157600080fd5b5061061a611505565b6040516106279190614723565b60405180910390f35b34801561063c57600080fd5b5061064561150a565b604051610652919061435e565b60405180910390f35b34801561066757600080fd5b50610682600480360381019061067d91906137e9565b611511565b60405161068f9190614343565b60405180910390f35b3480156106a457600080fd5b506106bf60048036038101906106ba9190613a3c565b611628565b005b3480156106cd57600080fd5b506106e860048036038101906106e391906137e9565b611705565b005b3480156106f657600080fd5b50610711600480360381019061070c9190613bc4565b6117a8565b005b34801561071f57600080fd5b506107286117fa565b604051610735919061435e565b60405180910390f35b34801561074a57600080fd5b5061076560048036038101906107609190613b2a565b61181e565b6040516107729190614343565b60405180910390f35b34801561078757600080fd5b50610790611889565b60405161079d919061435e565b60405180910390f35b3480156107b257600080fd5b506107cd60048036038101906107c891906139bc565b611890565b005b3480156107db57600080fd5b506107e46118a6565b6040516107f191906143cc565b60405180910390f35b34801561080657600080fd5b5061080f6118ca565b60405161081c91906143e7565b60405180910390f35b34801561083157600080fd5b5061083a6118dd565b60405161084791906146df565b60405180910390f35b34801561085c57600080fd5b5061087760048036038101906108729190613b2a565b6118e3565b005b34801561088557600080fd5b5061088e611904565b60405161089b9190614723565b60405180910390f35b3480156108b057600080fd5b506108b9611928565b005b3480156108c757600080fd5b506108d0611a0a565b6040516108dd9190614343565b60405180910390f35b3480156108f257600080fd5b5061090d60048036038101906109089190613816565b611a1d565b60405161091a9190614343565b60405180910390f35b34801561092f57600080fd5b5061094a60048036038101906109459190613925565b611ab1565b005b34801561095857600080fd5b50610973600480360381019061096e91906137e9565b611b52565b60405161098091906142ea565b60405180910390f35b34801561099557600080fd5b5061099e611c01565b6040516109ab91906146df565b60405180910390f35b60008073ffffffffffffffffffffffffffffffffffffffff168373ffffffffffffffffffffffffffffffffffffffff161415610a25576040517f08c379a0000000000000000000000000000000000000000000000000000000008152600401610a1c906144c4565b60405180910390fd5b60008083815260200190815260200160002060008473ffffffffffffffffffffffffffffffffffffffff1673ffffffffffffffffffffffffffffffffffffffff16815260200190815260200160002054905092915050565b6000610a8882611c07565b9050919050565b6060600d60008381526020019081526020016000208054610aaf90614b40565b80601f0160208091040260200160405190810160405280929190818152602001828054610adb90614b40565b8015610b285780601f10610afd57610100808354040283529160200191610b28565b820191906000526020600020905b815481529060010190602001808311610b0b57829003601f168201915b50505050509050919050565b7343b31fa35672c844f5dab60f2fb72474955292cd81565b7f000000000000000000000000000000000000000000000000000000000000000073ffffffffffffffffffffffffffffffffffffffff163373ffffffffffffffffffffffffffffffffffffffff1614610bfe57337f00000000000000000000000000000000000000000000000000000000000000006040517f1cf993f4000000000000000000000000000000000000000000000000000000008152600401610bf59291906141ff565b60405180910390fd5b610c088282611c81565b5050565b6000600c6000838152602001908152602001600020549050919050565b600060036000838152602001908152602001600020600101549050919050565b610c5233611ca7565b610c91576040517f08c379a0000000000000000000000000000000000000000000000000000000008152600401610c88906145c4565b60405180910390fd5b610c9b3082611d20565b50565b610ca6611d80565b73ffffffffffffffffffffffffffffffffffffffff168573ffffffffffffffffffffffffffffffffffffffff161480610cec5750610ceb85610ce6611d80565b611a1d565b5b610d2b576040517f08c379a0000000000000000000000000000000000000000000000000000000008152600401610d2290614564565b60405180910390fd5b610d388585858585611d88565b5050505050565b610d4882610c29565b610d51816120aa565b610d5b83836120be565b505050565b610d68611d80565b73ffffffffffffffffffffffffffffffffffffffff168173ffffffffffffffffffffffffffffffffffffffff1614610dd5576040517f08c379a0000000000000000000000000000000000000000000000000000000008152600401610dcc906146a4565b60405180910390fd5b610ddf828261219f565b5050565b7f000000000000000000000000000000000000000000000000000000000000000081565b6000806001811115610e1c57610e1b614c4a565b5b600960019054906101000a900460ff166001811115610e3e57610e3d614c4a565b5b14610e7e576040517f08c379a0000000000000000000000000000000000000000000000000000000008152600401610e7590614524565b60405180910390fd5b610e8733611511565b610ec6576040517f08c379a0000000000000000000000000000000000000000000000000000000008152600401610ebd90614644565b60405180910390fd5b6008543414610f0a576040517f08c379a0000000000000000000000000000000000000000000000000000000008152600401610f01906144a4565b60405180910390fd5b6000614e20610f17612281565b610f21919061490a565b905060008080600090505b6007548110156110a5576000600c60008381526020019081526020016000205484610f5791906148b4565b905083851115610f6957809350611091565b6002600c6000600185610f7c9190614995565b815260200190815260200160002054610f95919061490a565b84610fa09190614995565b85141561105e57610fbf30600184610fb89190614995565b60016123a2565b6001600c60008481526020019081526020016000206000828254610fe39190614995565b92505081905550610ff5336001611d20565b7f99bb60d14b2f35bce2de341319715cea54bf49980080f12b0f99d678556f0f736001836110239190614995565b60016007546110329190614995565b6040516110409291906146fa565b60405180910390a160016007546110579190614995565b925061108b565b61108730336001856110709190614995565b6001604051806020016040528060008152506125e9565b8192505b506110a5565b50808061109d90614ba3565b915050610f2c565b5080935050505090565b606081518351146110f5576040517f08c379a00000000000000000000000000000000000000000000000000000000081526004016110ec90614624565b60405180910390fd5b6000835167ffffffffffffffff81111561111257611111614cd7565b5b6040519080825280602002602001820160405280156111405781602001602082028036833780820191505090505b50905060005b84518110156111bd5761118d85828151811061116557611164614ca8565b5b60200260200101518583815181106111805761117f614ca8565b5b60200260200101516109b4565b8282815181106111a05761119f614ca8565b5b602002602001018181525050806111b690614ba3565b9050611146565b508091505092915050565b6111d133611ca7565b611210576040517f08c379a0000000000000000000000000000000000000000000000000000000008152600401611207906145c4565b60405180910390fd5b60005b81518110156112a1576000600b600084848151811061123557611234614ca8565b5b602002602001015173ffffffffffffffffffffffffffffffffffffffff1673ffffffffffffffffffffffffffffffffffffffff16815260200190815260200160002060006101000a81548160ff021916908315150217905550808061129990614ba3565b915050611213565b5050565b6112ae33611ca7565b6112ed576040517f08c379a00000000000000000000000000000000000000000000000000000000081526004016112e4906145c4565b60405180910390fd5b6001600b60008373ffffffffffffffffffffffffffffffffffffffff1673ffffffffffffffffffffffffffffffffffffffff16815260200190815260200160002060006101000a81548160ff02191690831515021790555050565b61135133611ca7565b611390576040517f08c379a0000000000000000000000000000000000000000000000000000000008152600401611387906145c4565b60405180910390fd5b6000600d600084815260200190815260200160002080546113b090614b40565b9050146113f2576040517f08c379a00000000000000000000000000000000000000000000000000000000081526004016113e990614444565b60405180910390fd5b80600d60008481526020019081526020016000209080519060200190611419929190613497565b505050565b600061142982612885565b61143257600080fd5b6000600654600c600085815260200190815260200160002054611455919061490a565b905080915050919050565b600181565b600560009054906101000a900473ffffffffffffffffffffffffffffffffffffffff1673ffffffffffffffffffffffffffffffffffffffff163373ffffffffffffffffffffffffffffffffffffffff16146114f5576040517f08c379a00000000000000000000000000000000000000000000000000000000081526004016114ec906145e4565b60405180910390fd5b6115026000801b826128af565b50565b600181565b6000801b81565b600080600460009054906101000a900473ffffffffffffffffffffffffffffffffffffffff1673ffffffffffffffffffffffffffffffffffffffff166370a08231846040518263ffffffff1660e01b815260040161156f91906141e4565b60206040518083038186803b15801561158757600080fd5b505afa15801561159b573d6000803e3d6000fd5b505050506040513d601f19601f820116820180604052508101906115bf9190613bf1565b116115c957600080fd5b600b60008373ffffffffffffffffffffffffffffffffffffffff1673ffffffffffffffffffffffffffffffffffffffff16815260200190815260200160002060009054906101000a900460ff1661161f57600080fd5b60019050919050565b61163133611ca7565b611670576040517f08c379a0000000000000000000000000000000000000000000000000000000008152600401611667906145c4565b60405180910390fd5b60005b8151811015611701576001600b600084848151811061169557611694614ca8565b5b602002602001015173ffffffffffffffffffffffffffffffffffffffff1673ffffffffffffffffffffffffffffffffffffffff16815260200190815260200160002060006101000a81548160ff02191690831515021790555080806116f990614ba3565b915050611673565b5050565b61170e33611ca7565b61174d576040517f08c379a0000000000000000000000000000000000000000000000000000000008152600401611744906145c4565b60405180910390fd5b6000600b60008373ffffffffffffffffffffffffffffffffffffffff1673ffffffffffffffffffffffffffffffffffffffff16815260200190815260200160002060006101000a81548160ff02191690831515021790555050565b6117b133611ca7565b6117f0576040517f08c379a00000000000000000000000000000000000000000000000000000000081526004016117e7906145c4565b60405180910390fd5b8060088190555050565b7f000000000000000000000000000000000000000000000000000000000000000081565b60006003600084815260200190815260200160002060000160008373ffffffffffffffffffffffffffffffffffffffff1673ffffffffffffffffffffffffffffffffffffffff16815260200190815260200160002060009054906101000a900460ff16905092915050565b6000801b81565b6118a261189b611d80565b83836128bd565b5050565b7f000000000000000000000000000000000000000000000000000000000000000081565b600960019054906101000a900460ff1681565b60085481565b6118ec82610c29565b6118f5816120aa565b6118ff838361219f565b505050565b7f000000000000000000000000000000000000000000000000000000000000000081565b61193133611ca7565b611970576040517f08c379a0000000000000000000000000000000000000000000000000000000008152600401611967906145c4565b60405180910390fd5b6000600181111561198457611983614c4a565b5b600960019054906101000a900460ff1660018111156119a6576119a5614c4a565b5b14156119dc576001600960016101000a81548160ff021916908360018111156119d2576119d1614c4a565b5b0217905550611a08565b6000600960016101000a81548160ff02191690836001811115611a0257611a01614c4a565b5b02179055505b565b600960009054906101000a900460ff1681565b6000600160008473ffffffffffffffffffffffffffffffffffffffff1673ffffffffffffffffffffffffffffffffffffffff16815260200190815260200160002060008373ffffffffffffffffffffffffffffffffffffffff1673ffffffffffffffffffffffffffffffffffffffff16815260200190815260200160002060009054906101000a900460ff16905092915050565b611ab9611d80565b73ffffffffffffffffffffffffffffffffffffffff168573ffffffffffffffffffffffffffffffffffffffff161480611aff5750611afe85611af9611d80565b611a1d565b5b611b3e576040517f08c379a0000000000000000000000000000000000000000000000000000000008152600401611b3590614504565b60405180910390fd5b611b4b85858585856125e9565b5050505050565b606060006001600754611b6591906148b4565b67ffffffffffffffff811115611b7e57611b7d614cd7565b5b604051908082528060200260200182016040528015611bac5781602001602082028036833780820191505090505b50905060005b8151811015611bf757611bc584826109b4565b828281518110611bd857611bd7614ca8565b5b6020026020010181815250508080611bef90614ba3565b915050611bb2565b5080915050919050565b600a5481565b60007f7965db0b000000000000000000000000000000000000000000000000000000007bffffffffffffffffffffffffffffffffffffffffffffffffffffffff1916827bffffffffffffffffffffffffffffffffffffffffffffffffffffffff19161480611c7a5750611c7982612a2a565b5b9050919050565b80600081518110611c9557611c94614ca8565b5b6020026020010151600a819055505050565b60008173ffffffffffffffffffffffffffffffffffffffff16600560009054906101000a900473ffffffffffffffffffffffffffffffffffffffff1673ffffffffffffffffffffffffffffffffffffffff161480611d0e5750611d0d6000801b8361181e565b5b611d1757600080fd5b60019050919050565b611d3d826007548360405180602001604052806000815250612b0c565b611d4960075482612cbd565b8060066000828254611d5b91906148b4565b92505081905550600160076000828254611d7591906148b4565b925050819055505050565b600033905090565b8151835114611dcc576040517f08c379a0000000000000000000000000000000000000000000000000000000008152600401611dc390614664565b60405180910390fd5b600073ffffffffffffffffffffffffffffffffffffffff168473ffffffffffffffffffffffffffffffffffffffff161415611e3c576040517f08c379a0000000000000000000000000000000000000000000000000000000008152600401611e3390614544565b60405180910390fd5b6000611e46611d80565b9050611e56818787878787612cd9565b60005b8451811015612007576000858281518110611e7757611e76614ca8565b5b602002602001015190506000858381518110611e9657611e95614ca8565b5b60200260200101519050600080600084815260200190815260200160002060008b73ffffffffffffffffffffffffffffffffffffffff1673ffffffffffffffffffffffffffffffffffffffff16815260200190815260200160002054905081811015611f37576040517f08c379a0000000000000000000000000000000000000000000000000000000008152600401611f2e906145a4565b60405180910390fd5b81810360008085815260200190815260200160002060008c73ffffffffffffffffffffffffffffffffffffffff1673ffffffffffffffffffffffffffffffffffffffff168152602001908152602001600020819055508160008085815260200190815260200160002060008b73ffffffffffffffffffffffffffffffffffffffff1673ffffffffffffffffffffffffffffffffffffffff1681526020019081526020016000206000828254611fec91906148b4565b925050819055505050508061200090614ba3565b9050611e59565b508473ffffffffffffffffffffffffffffffffffffffff168673ffffffffffffffffffffffffffffffffffffffff168273ffffffffffffffffffffffffffffffffffffffff167f4a39dc06d4c0dbc64b70af90fd698a233a518aa5d07e595d983b8c0526c8f7fb878760405161207e92919061430c565b60405180910390a4612094818787878787612ce1565b6120a2818787878787612ce9565b505050505050565b6120bb816120b6611d80565b612ed0565b50565b6120c8828261181e565b61219b5760016003600084815260200190815260200160002060000160008373ffffffffffffffffffffffffffffffffffffffff1673ffffffffffffffffffffffffffffffffffffffff16815260200190815260200160002060006101000a81548160ff021916908315150217905550612140611d80565b73ffffffffffffffffffffffffffffffffffffffff168173ffffffffffffffffffffffffffffffffffffffff16837f2f8788117e7eff1d82e926ec794901d17c78024a50270940304540a733656f0d60405160405180910390a45b5050565b6121a9828261181e565b1561227d5760006003600084815260200190815260200160002060000160008373ffffffffffffffffffffffffffffffffffffffff1673ffffffffffffffffffffffffffffffffffffffff16815260200190815260200160002060006101000a81548160ff021916908315150217905550612222611d80565b73ffffffffffffffffffffffffffffffffffffffff168173ffffffffffffffffffffffffffffffffffffffff16837ff6391f5c32d9c69d2a47ea670b442974b53935d1edc7fd64eb21e047a839171b60405160405180910390a45b5050565b6000807f000000000000000000000000000000000000000000000000000000000000000073ffffffffffffffffffffffffffffffffffffffff16635d3b1d307f00000000000000000000000000000000000000000000000000000000000000007f000000000000000000000000000000000000000000000000000000000000000060017f000000000000000000000000000000000000000000000000000000000000000060016040518663ffffffff1660e01b8152600401612347959493929190614379565b602060405180830381600087803b15801561236157600080fd5b505af1158015612375573d6000803e3d6000fd5b505050506040513d601f19601f820116820180604052508101906123999190613bf1565b90508091505090565b600073ffffffffffffffffffffffffffffffffffffffff168373ffffffffffffffffffffffffffffffffffffffff161415612412576040517f08c379a000000000000000000000000000000000000000000000000000000000815260040161240990614584565b60405180910390fd5b600061241c611d80565b9050600061242984612f6d565b9050600061243684612f6d565b905061245683876000858560405180602001604052806000815250612cd9565b600080600087815260200190815260200160002060008873ffffffffffffffffffffffffffffffffffffffff1673ffffffffffffffffffffffffffffffffffffffff168152602001908152602001600020549050848110156124ed576040517f08c379a00000000000000000000000000000000000000000000000000000000081526004016124e4906144e4565b60405180910390fd5b84810360008088815260200190815260200160002060008973ffffffffffffffffffffffffffffffffffffffff1673ffffffffffffffffffffffffffffffffffffffff16815260200190815260200160002081905550600073ffffffffffffffffffffffffffffffffffffffff168773ffffffffffffffffffffffffffffffffffffffff168573ffffffffffffffffffffffffffffffffffffffff167fc3d58168c5ae7397731d063d5bbf3d657854427343f4c083240f7aacaa2d0f6289896040516125ba9291906146fa565b60405180910390a46125e084886000868660405180602001604052806000815250612ce1565b50505050505050565b600073ffffffffffffffffffffffffffffffffffffffff168473ffffffffffffffffffffffffffffffffffffffff161415612659576040517f08c379a000000000000000000000000000000000000000000000000000000000815260040161265090614544565b60405180910390fd5b6000612663611d80565b9050600061267085612f6d565b9050600061267d85612f6d565b905061268d838989858589612cd9565b600080600088815260200190815260200160002060008a73ffffffffffffffffffffffffffffffffffffffff1673ffffffffffffffffffffffffffffffffffffffff16815260200190815260200160002054905085811015612724576040517f08c379a000000000000000000000000000000000000000000000000000000000815260040161271b906145a4565b60405180910390fd5b85810360008089815260200190815260200160002060008b73ffffffffffffffffffffffffffffffffffffffff1673ffffffffffffffffffffffffffffffffffffffff168152602001908152602001600020819055508560008089815260200190815260200160002060008a73ffffffffffffffffffffffffffffffffffffffff1673ffffffffffffffffffffffffffffffffffffffff16815260200190815260200160002060008282546127d991906148b4565b925050819055508773ffffffffffffffffffffffffffffffffffffffff168973ffffffffffffffffffffffffffffffffffffffff168573ffffffffffffffffffffffffffffffffffffffff167fc3d58168c5ae7397731d063d5bbf3d657854427343f4c083240f7aacaa2d0f628a8a6040516128569291906146fa565b60405180910390a461286c848a8a86868a612ce1565b61287a848a8a8a8a8a612fe7565b505050505050505050565b600080600c600084815260200190815260200160002054116128a657600080fd5b60019050919050565b6128b982826120be565b5050565b8173ffffffffffffffffffffffffffffffffffffffff168373ffffffffffffffffffffffffffffffffffffffff16141561292c576040517f08c379a000000000000000000000000000000000000000000000000000000000815260040161292390614604565b60405180910390fd5b80600160008573ffffffffffffffffffffffffffffffffffffffff1673ffffffffffffffffffffffffffffffffffffffff16815260200190815260200160002060008473ffffffffffffffffffffffffffffffffffffffff1673ffffffffffffffffffffffffffffffffffffffff16815260200190815260200160002060006101000a81548160ff0219169083151502179055508173ffffffffffffffffffffffffffffffffffffffff168373ffffffffffffffffffffffffffffffffffffffff167f17307eab39ab6107e8899845ad3d59bd9653f200f220920489ca2b5937696c3183604051612a1d9190614343565b60405180910390a3505050565b60007fd9b67a26000000000000000000000000000000000000000000000000000000007bffffffffffffffffffffffffffffffffffffffffffffffffffffffff1916827bffffffffffffffffffffffffffffffffffffffffffffffffffffffff19161480612af557507f0e89341c000000000000000000000000000000000000000000000000000000007bffffffffffffffffffffffffffffffffffffffffffffffffffffffff1916827bffffffffffffffffffffffffffffffffffffffffffffffffffffffff1916145b80612b055750612b04826131ce565b5b9050919050565b600073ffffffffffffffffffffffffffffffffffffffff168473ffffffffffffffffffffffffffffffffffffffff161415612b7c576040517f08c379a0000000000000000000000000000000000000000000000000000000008152600401612b7390614684565b60405180910390fd5b6000612b86611d80565b90506000612b9385612f6d565b90506000612ba085612f6d565b9050612bb183600089858589612cd9565b8460008088815260200190815260200160002060008973ffffffffffffffffffffffffffffffffffffffff1673ffffffffffffffffffffffffffffffffffffffff1681526020019081526020016000206000828254612c1091906148b4565b925050819055508673ffffffffffffffffffffffffffffffffffffffff16600073ffffffffffffffffffffffffffffffffffffffff168473ffffffffffffffffffffffffffffffffffffffff167fc3d58168c5ae7397731d063d5bbf3d657854427343f4c083240f7aacaa2d0f628989604051612c8e9291906146fa565b60405180910390a4612ca583600089858589612ce1565b612cb483600089898989612fe7565b50505050505050565b80600c6000848152602001908152602001600020819055505050565b505050505050565b505050505050565b612d088473ffffffffffffffffffffffffffffffffffffffff16613238565b15612ec8578373ffffffffffffffffffffffffffffffffffffffff1663bc197c8187878686866040518663ffffffff1660e01b8152600401612d4e959493929190614228565b602060405180830381600087803b158015612d6857600080fd5b505af1925050508015612d9957506040513d601f19601f82011682018060405250810190612d969190613b97565b60015b612e3f57612da5614d06565b806308c379a01415612e025750612dba6153ba565b80612dc55750612e04565b806040517f08c379a0000000000000000000000000000000000000000000000000000000008152600401612df99190614402565b60405180910390fd5b505b6040517f08c379a0000000000000000000000000000000000000000000000000000000008152600401612e3690614424565b60405180910390fd5b63bc197c8160e01b7bffffffffffffffffffffffffffffffffffffffffffffffffffffffff1916817bffffffffffffffffffffffffffffffffffffffffffffffffffffffff191614612ec6576040517f08c379a0000000000000000000000000000000000000000000000000000000008152600401612ebd90614484565b60405180910390fd5b505b505050505050565b612eda828261181e565b612f6957612eff8173ffffffffffffffffffffffffffffffffffffffff16601461325b565b612f0d8360001c602061325b565b604051602001612f1e9291906141aa565b6040516020818303038152906040526040517f08c379a0000000000000000000000000000000000000000000000000000000008152600401612f609190614402565b60405180910390fd5b5050565b60606000600167ffffffffffffffff811115612f8c57612f8b614cd7565b5b604051908082528060200260200182016040528015612fba5781602001602082028036833780820191505090505b5090508281600081518110612fd257612fd1614ca8565b5b60200260200101818152505080915050919050565b6130068473ffffffffffffffffffffffffffffffffffffffff16613238565b156131c6578373ffffffffffffffffffffffffffffffffffffffff1663f23a6e6187878686866040518663ffffffff1660e01b815260040161304c959493929190614290565b602060405180830381600087803b15801561306657600080fd5b505af192505050801561309757506040513d601f19601f820116820180604052508101906130949190613b97565b60015b61313d576130a3614d06565b806308c379a0141561310057506130b86153ba565b806130c35750613102565b806040517f08c379a00000000000000000000000000000000000000000000000000000000081526004016130f79190614402565b60405180910390fd5b505b6040517f08c379a000000000000000000000000000000000000000000000000000000000815260040161313490614424565b60405180910390fd5b63f23a6e6160e01b7bffffffffffffffffffffffffffffffffffffffffffffffffffffffff1916817bffffffffffffffffffffffffffffffffffffffffffffffffffffffff1916146131c4576040517f08c379a00000000000000000000000000000000000000000000000000000000081526004016131bb90614484565b60405180910390fd5b505b505050505050565b60007f01ffc9a7000000000000000000000000000000000000000000000000000000007bffffffffffffffffffffffffffffffffffffffffffffffffffffffff1916827bffffffffffffffffffffffffffffffffffffffffffffffffffffffff1916149050919050565b6000808273ffffffffffffffffffffffffffffffffffffffff163b119050919050565b60606000600283600261326e919061493b565b61327891906148b4565b67ffffffffffffffff81111561329157613290614cd7565b5b6040519080825280601f01601f1916602001820160405280156132c35781602001600182028036833780820191505090505b5090507f3000000000000000000000000000000000000000000000000000000000000000816000815181106132fb576132fa614ca8565b5b60200101907effffffffffffffffffffffffffffffffffffffffffffffffffffffffffffff1916908160001a9053507f78000000000000000000000000000000000000000000000000000000000000008160018151811061335f5761335e614ca8565b5b60200101907effffffffffffffffffffffffffffffffffffffffffffffffffffffffffffff1916908160001a9053506000600184600261339f919061493b565b6133a991906148b4565b90505b6001811115613449577f3031323334353637383961626364656600000000000000000000000000000000600f8616601081106133eb576133ea614ca8565b5b1a60f81b82828151811061340257613401614ca8565b5b60200101907effffffffffffffffffffffffffffffffffffffffffffffffffffffffffffff1916908160001a905350600485901c94508061344290614b16565b90506133ac565b506000841461348d576040517f08c379a000000000000000000000000000000000000000000000000000000000815260040161348490614464565b60405180910390fd5b8091505092915050565b8280546134a390614b40565b90600052602060002090601f0160209004810192826134c5576000855561350c565b82601f106134de57805160ff191683800117855561350c565b8280016001018555821561350c579182015b8281111561350b5782518255916020019190600101906134f0565b5b509050613519919061351d565b5090565b5b8082111561353657600081600090555060010161351e565b5090565b600061354d6135488461477e565b614759565b905080838252602082019050828560208602820111156135705761356f614d2d565b5b60005b858110156135a05781613586888261369e565b845260208401935060208301925050600181019050613573565b5050509392505050565b60006135bd6135b8846147aa565b614759565b905080838252602082019050828560208602820111156135e0576135df614d2d565b5b60005b8581101561361057816135f688826137bf565b8452602084019350602083019250506001810190506135e3565b5050509392505050565b600061362d613628846147d6565b614759565b90508281526020810184848401111561364957613648614d32565b5b613654848285614ad4565b509392505050565b600061366f61366a84614807565b614759565b90508281526020810184848401111561368b5761368a614d32565b5b613696848285614ad4565b509392505050565b6000813590506136ad81615464565b92915050565b600082601f8301126136c8576136c7614d28565b5b81356136d884826020860161353a565b91505092915050565b600082601f8301126136f6576136f5614d28565b5b81356137068482602086016135aa565b91505092915050565b60008135905061371e8161547b565b92915050565b60008135905061373381615492565b92915050565b600081359050613748816154a9565b92915050565b60008151905061375d816154a9565b92915050565b600082601f83011261377857613777614d28565b5b813561378884826020860161361a565b91505092915050565b600082601f8301126137a6576137a5614d28565b5b81356137b684826020860161365c565b91505092915050565b6000813590506137ce816154c0565b92915050565b6000815190506137e3816154c0565b92915050565b6000602082840312156137ff576137fe614d3c565b5b600061380d8482850161369e565b91505092915050565b6000806040838503121561382d5761382c614d3c565b5b600061383b8582860161369e565b925050602061384c8582860161369e565b9150509250929050565b600080600080600060a0868803121561387257613871614d3c565b5b60006138808882890161369e565b95505060206138918882890161369e565b945050604086013567ffffffffffffffff8111156138b2576138b1614d37565b5b6138be888289016136e1565b935050606086013567ffffffffffffffff8111156138df576138de614d37565b5b6138eb888289016136e1565b925050608086013567ffffffffffffffff81111561390c5761390b614d37565b5b61391888828901613763565b9150509295509295909350565b600080600080600060a0868803121561394157613940614d3c565b5b600061394f8882890161369e565b95505060206139608882890161369e565b9450506040613971888289016137bf565b9350506060613982888289016137bf565b925050608086013567ffffffffffffffff8111156139a3576139a2614d37565b5b6139af88828901613763565b9150509295509295909350565b600080604083850312156139d3576139d2614d3c565b5b60006139e18582860161369e565b92505060206139f28582860161370f565b9150509250929050565b60008060408385031215613a1357613a12614d3c565b5b6000613a218582860161369e565b9250506020613a32858286016137bf565b9150509250929050565b600060208284031215613a5257613a51614d3c565b5b600082013567ffffffffffffffff811115613a7057613a6f614d37565b5b613a7c848285016136b3565b91505092915050565b60008060408385031215613a9c57613a9b614d3c565b5b600083013567ffffffffffffffff811115613aba57613ab9614d37565b5b613ac6858286016136b3565b925050602083013567ffffffffffffffff811115613ae757613ae6614d37565b5b613af3858286016136e1565b9150509250929050565b600060208284031215613b1357613b12614d3c565b5b6000613b2184828501613724565b91505092915050565b60008060408385031215613b4157613b40614d3c565b5b6000613b4f85828601613724565b9250506020613b608582860161369e565b9150509250929050565b600060208284031215613b8057613b7f614d3c565b5b6000613b8e84828501613739565b91505092915050565b600060208284031215613bad57613bac614d3c565b5b6000613bbb8482850161374e565b91505092915050565b600060208284031215613bda57613bd9614d3c565b5b6000613be8848285016137bf565b91505092915050565b600060208284031215613c0757613c06614d3c565b5b6000613c15848285016137d4565b91505092915050565b60008060408385031215613c3557613c34614d3c565b5b6000613c43858286016137bf565b925050602083013567ffffffffffffffff811115613c6457613c63614d37565b5b613c70858286016136e1565b9150509250929050565b60008060408385031215613c9157613c90614d3c565b5b6000613c9f858286016137bf565b925050602083013567ffffffffffffffff811115613cc057613cbf614d37565b5b613ccc85828601613791565b9150509250929050565b6000613ce2838361416e565b60208301905092915050565b613cf7816149c9565b82525050565b6000613d0882614848565b613d128185614876565b9350613d1d83614838565b8060005b83811015613d4e578151613d358882613cd6565b9750613d4083614869565b925050600181019050613d21565b5085935050505092915050565b613d64816149db565b82525050565b613d73816149e7565b82525050565b6000613d8482614853565b613d8e8185614887565b9350613d9e818560208601614ae3565b613da781614d41565b840191505092915050565b613dbb81614a8c565b82525050565b613dca81614a9e565b82525050565b6000613ddb8261485e565b613de58185614898565b9350613df5818560208601614ae3565b613dfe81614d41565b840191505092915050565b6000613e148261485e565b613e1e81856148a9565b9350613e2e818560208601614ae3565b80840191505092915050565b6000613e47603483614898565b9150613e5282614d5f565b604082019050919050565b6000613e6a601583614898565b9150613e7582614dae565b602082019050919050565b6000613e8d602083614898565b9150613e9882614dd7565b602082019050919050565b6000613eb0602883614898565b9150613ebb82614e00565b604082019050919050565b6000613ed3602e83614898565b9150613ede82614e4f565b604082019050919050565b6000613ef6602b83614898565b9150613f0182614e9e565b604082019050919050565b6000613f19602483614898565b9150613f2482614eed565b604082019050919050565b6000613f3c602983614898565b9150613f4782614f3c565b604082019050919050565b6000613f5f602583614898565b9150613f6a82614f8b565b604082019050919050565b6000613f82602583614898565b9150613f8d82614fda565b604082019050919050565b6000613fa5603283614898565b9150613fb082615029565b604082019050919050565b6000613fc8602383614898565b9150613fd382615078565b604082019050919050565b6000613feb602a83614898565b9150613ff6826150c7565b604082019050919050565b600061400e602183614898565b915061401982615116565b604082019050919050565b6000614031601583614898565b915061403c82615165565b602082019050919050565b60006140546017836148a9565b915061405f8261518e565b601782019050919050565b6000614077602983614898565b9150614082826151b7565b604082019050919050565b600061409a602983614898565b91506140a582615206565b604082019050919050565b60006140bd603483614898565b91506140c882615255565b604082019050919050565b60006140e0602883614898565b91506140eb826152a4565b604082019050919050565b6000614103602183614898565b915061410e826152f3565b604082019050919050565b60006141266011836148a9565b915061413182615342565b601182019050919050565b6000614149602f83614898565b91506141548261536b565b604082019050919050565b61416881614a30565b82525050565b61417781614a5e565b82525050565b61418681614a5e565b82525050565b61419581614a68565b82525050565b6141a481614a78565b82525050565b60006141b582614047565b91506141c18285613e09565b91506141cc82614119565b91506141d88284613e09565b91508190509392505050565b60006020820190506141f96000830184613cee565b92915050565b60006040820190506142146000830185613cee565b6142216020830184613cee565b9392505050565b600060a08201905061423d6000830188613cee565b61424a6020830187613cee565b818103604083015261425c8186613cfd565b905081810360608301526142708185613cfd565b905081810360808301526142848184613d79565b90509695505050505050565b600060a0820190506142a56000830188613cee565b6142b26020830187613cee565b6142bf604083018661417d565b6142cc606083018561417d565b81810360808301526142de8184613d79565b90509695505050505050565b600060208201905081810360008301526143048184613cfd565b905092915050565b600060408201905081810360008301526143268185613cfd565b9050818103602083015261433a8184613cfd565b90509392505050565b60006020820190506143586000830184613d5b565b92915050565b60006020820190506143736000830184613d6a565b92915050565b600060a08201905061438e6000830188613d6a565b61439b602083018761419b565b6143a8604083018661415f565b6143b5606083018561418c565b6143c2608083018461418c565b9695505050505050565b60006020820190506143e16000830184613db2565b92915050565b60006020820190506143fc6000830184613dc1565b92915050565b6000602082019050818103600083015261441c8184613dd0565b905092915050565b6000602082019050818103600083015261443d81613e3a565b9050919050565b6000602082019050818103600083015261445d81613e5d565b9050919050565b6000602082019050818103600083015261447d81613e80565b9050919050565b6000602082019050818103600083015261449d81613ea3565b9050919050565b600060208201905081810360008301526144bd81613ec6565b9050919050565b600060208201905081810360008301526144dd81613ee9565b9050919050565b600060208201905081810360008301526144fd81613f0c565b9050919050565b6000602082019050818103600083015261451d81613f2f565b9050919050565b6000602082019050818103600083015261453d81613f52565b9050919050565b6000602082019050818103600083015261455d81613f75565b9050919050565b6000602082019050818103600083015261457d81613f98565b9050919050565b6000602082019050818103600083015261459d81613fbb565b9050919050565b600060208201905081810360008301526145bd81613fde565b9050919050565b600060208201905081810360008301526145dd81614001565b9050919050565b600060208201905081810360008301526145fd81614024565b9050919050565b6000602082019050818103600083015261461d8161406a565b9050919050565b6000602082019050818103600083015261463d8161408d565b9050919050565b6000602082019050818103600083015261465d816140b0565b9050919050565b6000602082019050818103600083015261467d816140d3565b9050919050565b6000602082019050818103600083015261469d816140f6565b9050919050565b600060208201905081810360008301526146bd8161413c565b9050919050565b60006020820190506146d9600083018461415f565b92915050565b60006020820190506146f4600083018461417d565b92915050565b600060408201905061470f600083018561417d565b61471c602083018461417d565b9392505050565b6000602082019050614738600083018461418c565b92915050565b6000602082019050614753600083018461419b565b92915050565b6000614763614774565b905061476f8282614b72565b919050565b6000604051905090565b600067ffffffffffffffff82111561479957614798614cd7565b5b602082029050602081019050919050565b600067ffffffffffffffff8211156147c5576147c4614cd7565b5b602082029050602081019050919050565b600067ffffffffffffffff8211156147f1576147f0614cd7565b5b6147fa82614d41565b9050602081019050919050565b600067ffffffffffffffff82111561482257614821614cd7565b5b61482b82614d41565b9050602081019050919050565b6000819050602082019050919050565b600081519050919050565b600081519050919050565b600081519050919050565b6000602082019050919050565b600082825260208201905092915050565b600082825260208201905092915050565b600082825260208201905092915050565b600081905092915050565b60006148bf82614a5e565b91506148ca83614a5e565b9250827fffffffffffffffffffffffffffffffffffffffffffffffffffffffffffffffff038211156148ff576148fe614bec565b5b828201905092915050565b600061491582614a5e565b915061492083614a5e565b9250826149305761492f614c1b565b5b828204905092915050565b600061494682614a5e565b915061495183614a5e565b9250817fffffffffffffffffffffffffffffffffffffffffffffffffffffffffffffffff048311821515161561498a57614989614bec565b5b828202905092915050565b60006149a082614a5e565b91506149ab83614a5e565b9250828210156149be576149bd614bec565b5b828203905092915050565b60006149d482614a3e565b9050919050565b60008115159050919050565b6000819050919050565b60007fffffffff0000000000000000000000000000000000000000000000000000000082169050919050565b6000819050614a2b82615450565b919050565b600061ffff82169050919050565b600073ffffffffffffffffffffffffffffffffffffffff82169050919050565b6000819050919050565b600063ffffffff82169050919050565b600067ffffffffffffffff82169050919050565b6000614a9782614ab0565b9050919050565b6000614aa982614a1d565b9050919050565b6000614abb82614ac2565b9050919050565b6000614acd82614a3e565b9050919050565b82818337600083830152505050565b60005b83811015614b01578082015181840152602081019050614ae6565b83811115614b10576000848401525b50505050565b6000614b2182614a5e565b91506000821415614b3557614b34614bec565b5b600182039050919050565b60006002820490506001821680614b5857607f821691505b60208210811415614b6c57614b6b614c79565b5b50919050565b614b7b82614d41565b810181811067ffffffffffffffff82111715614b9a57614b99614cd7565b5b80604052505050565b6000614bae82614a5e565b91507fffffffffffffffffffffffffffffffffffffffffffffffffffffffffffffffff821415614be157614be0614bec565b5b600182019050919050565b7f4e487b7100000000000000000000000000000000000000000000000000000000600052601160045260246000fd5b7f4e487b7100000000000000000000000000000000000000000000000000000000600052601260045260246000fd5b7f4e487b7100000000000000000000000000000000000000000000000000000000600052602160045260246000fd5b7f4e487b7100000000000000000000000000000000000000000000000000000000600052602260045260246000fd5b7f4e487b7100000000000000000000000000000000000000000000000000000000600052603260045260246000fd5b7f4e487b7100000000000000000000000000000000000000000000000000000000600052604160045260246000fd5b600060033d1115614d255760046000803e614d22600051614d52565b90505b90565b600080fd5b600080fd5b600080fd5b600080fd5b600080fd5b6000601f19601f8301169050919050565b60008160e01c9050919050565b7f455243313135353a207472616e7366657220746f206e6f6e204552433131353560008201527f526563656976657220696d706c656d656e746572000000000000000000000000602082015250565b7f43616e206e6f7420736574207572692074776963650000000000000000000000600082015250565b7f537472696e67733a20686578206c656e67746820696e73756666696369656e74600082015250565b7f455243313135353a204552433131353552656365697665722072656a6563746560008201527f6420746f6b656e73000000000000000000000000000000000000000000000000602082015250565b7f5573657220646964206e6f742070617920656e6f756768206d6f6e657920746f60008201527f206f70656e207468652063617365000000000000000000000000000000000000602082015250565b7f455243313135353a2062616c616e636520717565727920666f7220746865207a60008201527f65726f2061646472657373000000000000000000000000000000000000000000602082015250565b7f455243313135353a206275726e20616d6f756e7420657863656564732062616c60008201527f616e636500000000000000000000000000000000000000000000000000000000602082015250565b7f455243313135353a2063616c6c6572206973206e6f74206f776e6572206e6f7260008201527f20617070726f7665640000000000000000000000000000000000000000000000602082015250565b7f436f6e7472616374206973206e6f74206163746976652061742074686973206d60008201527f6f6d656e74000000000000000000000000000000000000000000000000000000602082015250565b7f455243313135353a207472616e7366657220746f20746865207a65726f20616460008201527f6472657373000000000000000000000000000000000000000000000000000000602082015250565b7f455243313135353a207472616e736665722063616c6c6572206973206e6f742060008201527f6f776e6572206e6f7220617070726f7665640000000000000000000000000000602082015250565b7f455243313135353a206275726e2066726f6d20746865207a65726f206164647260008201527f6573730000000000000000000000000000000000000000000000000000000000602082015250565b7f455243313135353a20696e73756666696369656e742062616c616e636520666f60008201527f72207472616e7366657200000000000000000000000000000000000000000000602082015250565b7f55736572206973206e6f7420746865204f776e6572206f7220616e2041646d6960008201527f6e00000000000000000000000000000000000000000000000000000000000000602082015250565b7f55736572206973206e6f7420746865206f776e65720000000000000000000000600082015250565b7f416363657373436f6e74726f6c3a206163636f756e7420000000000000000000600082015250565b7f455243313135353a2073657474696e6720617070726f76616c2073746174757360008201527f20666f722073656c660000000000000000000000000000000000000000000000602082015250565b7f455243313135353a206163636f756e747320616e6420696473206c656e67746860008201527f206d69736d617463680000000000000000000000000000000000000000000000602082015250565b7f55736572206973206e6f74205261636b734d656d62657273206f7220646f657360008201527f206e6f74206f776e732061204d7243727970746f000000000000000000000000602082015250565b7f455243313135353a2069647320616e6420616d6f756e7473206c656e6774682060008201527f6d69736d61746368000000000000000000000000000000000000000000000000602082015250565b7f455243313135353a206d696e7420746f20746865207a65726f2061646472657360008201527f7300000000000000000000000000000000000000000000000000000000000000602082015250565b7f206973206d697373696e6720726f6c6520000000000000000000000000000000600082015250565b7f416363657373436f6e74726f6c3a2063616e206f6e6c792072656e6f756e636560008201527f20726f6c657320666f722073656c660000000000000000000000000000000000602082015250565b600060443d10156153ca5761544d565b6153d2614774565b60043d036004823e80513d602482011167ffffffffffffffff821117156153fa57505061544d565b808201805167ffffffffffffffff811115615418575050505061544d565b80602083010160043d03850181111561543557505050505061544d565b61544482602001850186614b72565b82955050505050505b90565b6002811061546157615460614c4a565b5b50565b61546d816149c9565b811461547857600080fd5b50565b615484816149db565b811461548f57600080fd5b50565b61549b816149e7565b81146154a657600080fd5b50565b6154b2816149f1565b81146154bd57600080fd5b50565b6154c981614a5e565b81146154d457600080fd5b5056fea264697066735822122072e02ccad7e5fc937dd4c45e02267b4fd97d6b883ad27c5d0eba543ec8945a8564736f6c63430008070033",
  "linkReferences": {},
  "deployedLinkReferences": {}
}