{
  "_format": "hh-sol-artifact-1",
  "contractName": "RacksItems",
  "sourceName": "contracts/RacksItems.sol",
  "abi": [
    {
      "inputs": [
        {
          "internalType": "address",
          "name": "_racksTokenAddress",
          "type": "address"
        },
        {
          "internalType": "address",
          "name": "_MockMrCryptoAddress",
          "type": "address"
        }
      ],
      "stateMutability": "nonpayable",
      "type": "constructor"
    },
    {
      "anonymous": false,
      "inputs": [
        {
          "indexed": true,
          "internalType": "address",
          "name": "account",
          "type": "address"
        },
        {
          "indexed": true,
          "internalType": "address",
          "name": "operator",
          "type": "address"
        },
        {
          "indexed": false,
          "internalType": "bool",
          "name": "approved",
          "type": "bool"
        }
      ],
      "name": "ApprovalForAll",
      "type": "event"
    },
    {
      "anonymous": false,
      "inputs": [
        {
          "indexed": false,
          "internalType": "address",
          "name": "user",
          "type": "address"
        },
        {
          "indexed": false,
          "internalType": "uint256",
          "name": "casePrice",
          "type": "uint256"
        },
        {
          "indexed": false,
          "internalType": "uint256",
          "name": "item",
          "type": "uint256"
        }
      ],
      "name": "CaseOpened",
      "type": "event"
    },
    {
      "anonymous": false,
      "inputs": [
        {
          "indexed": true,
          "internalType": "bytes32",
          "name": "role",
          "type": "bytes32"
        },
        {
          "indexed": true,
          "internalType": "bytes32",
          "name": "previousAdminRole",
          "type": "bytes32"
        },
        {
          "indexed": true,
          "internalType": "bytes32",
          "name": "newAdminRole",
          "type": "bytes32"
        }
      ],
      "name": "RoleAdminChanged",
      "type": "event"
    },
    {
      "anonymous": false,
      "inputs": [
        {
          "indexed": true,
          "internalType": "bytes32",
          "name": "role",
          "type": "bytes32"
        },
        {
          "indexed": true,
          "internalType": "address",
          "name": "account",
          "type": "address"
        },
        {
          "indexed": true,
          "internalType": "address",
          "name": "sender",
          "type": "address"
        }
      ],
      "name": "RoleGranted",
      "type": "event"
    },
    {
      "anonymous": false,
      "inputs": [
        {
          "indexed": true,
          "internalType": "bytes32",
          "name": "role",
          "type": "bytes32"
        },
        {
          "indexed": true,
          "internalType": "address",
          "name": "account",
          "type": "address"
        },
        {
          "indexed": true,
          "internalType": "address",
          "name": "sender",
          "type": "address"
        }
      ],
      "name": "RoleRevoked",
      "type": "event"
    },
    {
      "anonymous": false,
      "inputs": [
        {
          "indexed": true,
          "internalType": "address",
          "name": "operator",
          "type": "address"
        },
        {
          "indexed": true,
          "internalType": "address",
          "name": "from",
          "type": "address"
        },
        {
          "indexed": true,
          "internalType": "address",
          "name": "to",
          "type": "address"
        },
        {
          "indexed": false,
          "internalType": "uint256[]",
          "name": "ids",
          "type": "uint256[]"
        },
        {
          "indexed": false,
          "internalType": "uint256[]",
          "name": "values",
          "type": "uint256[]"
        }
      ],
      "name": "TransferBatch",
      "type": "event"
    },
    {
      "anonymous": false,
      "inputs": [
        {
          "indexed": true,
          "internalType": "address",
          "name": "operator",
          "type": "address"
        },
        {
          "indexed": true,
          "internalType": "address",
          "name": "from",
          "type": "address"
        },
        {
          "indexed": true,
          "internalType": "address",
          "name": "to",
          "type": "address"
        },
        {
          "indexed": false,
          "internalType": "uint256",
          "name": "id",
          "type": "uint256"
        },
        {
          "indexed": false,
          "internalType": "uint256",
          "name": "value",
          "type": "uint256"
        }
      ],
      "name": "TransferSingle",
      "type": "event"
    },
    {
      "anonymous": false,
      "inputs": [
        {
          "indexed": false,
          "internalType": "string",
          "name": "value",
          "type": "string"
        },
        {
          "indexed": true,
          "internalType": "uint256",
          "name": "id",
          "type": "uint256"
        }
      ],
      "name": "URI",
      "type": "event"
    },
    {
      "anonymous": false,
      "inputs": [
        {
          "indexed": false,
          "internalType": "uint256",
          "name": "newPrice",
          "type": "uint256"
        }
      ],
      "name": "casePriceChanged",
      "type": "event"
    },
    {
      "anonymous": false,
      "inputs": [
        {
          "indexed": false,
          "internalType": "address",
          "name": "buyer",
          "type": "address"
        },
        {
          "indexed": false,
          "internalType": "address",
          "name": "seller",
          "type": "address"
        },
        {
          "indexed": false,
          "internalType": "uint256",
          "name": "marketItemId",
          "type": "uint256"
        },
        {
          "indexed": false,
          "internalType": "uint256",
          "name": "price",
          "type": "uint256"
        }
      ],
      "name": "itemBought",
      "type": "event"
    },
    {
      "anonymous": false,
      "inputs": [
        {
          "indexed": false,
          "internalType": "address",
          "name": "user",
          "type": "address"
        },
        {
          "indexed": false,
          "internalType": "uint256",
          "name": "tokenId",
          "type": "uint256"
        }
      ],
      "name": "itemExchanged",
      "type": "event"
    },
    {
      "anonymous": false,
      "inputs": [
        {
          "indexed": false,
          "internalType": "address",
          "name": "owner",
          "type": "address"
        },
        {
          "indexed": false,
          "internalType": "uint256",
          "name": "marketItemId",
          "type": "uint256"
        },
        {
          "indexed": false,
          "internalType": "uint256",
          "name": "oldPrice",
          "type": "uint256"
        },
        {
          "indexed": false,
          "internalType": "uint256",
          "name": "newPrice",
          "type": "uint256"
        }
      ],
      "name": "itemPriceChanged",
      "type": "event"
    },
    {
      "anonymous": false,
      "inputs": [
        {
          "indexed": false,
          "internalType": "address",
          "name": "seller",
          "type": "address"
        },
        {
          "indexed": false,
          "internalType": "uint256",
          "name": "numTries",
          "type": "uint256"
        },
        {
          "indexed": false,
          "internalType": "uint256",
          "name": "_hours",
          "type": "uint256"
        },
        {
          "indexed": false,
          "internalType": "uint256",
          "name": "price",
          "type": "uint256"
        }
      ],
      "name": "newTicketOnSale",
      "type": "event"
    },
    {
      "anonymous": false,
      "inputs": [
        {
          "indexed": false,
          "internalType": "address",
          "name": "user",
          "type": "address"
        },
        {
          "indexed": false,
          "internalType": "uint256",
          "name": "tokenId",
          "type": "uint256"
        },
        {
          "indexed": false,
          "internalType": "uint256",
          "name": "price",
          "type": "uint256"
        }
      ],
      "name": "sellingItem",
      "type": "event"
    },
    {
      "anonymous": false,
      "inputs": [
        {
          "indexed": false,
          "internalType": "uint256",
          "name": "ticketId",
          "type": "uint256"
        },
        {
          "indexed": false,
          "internalType": "address",
          "name": "oldOwner",
          "type": "address"
        },
        {
          "indexed": false,
          "internalType": "address",
          "name": "newOwner",
          "type": "address"
        },
        {
          "indexed": false,
          "internalType": "uint256",
          "name": "price",
          "type": "uint256"
        }
      ],
      "name": "ticketBought",
      "type": "event"
    },
    {
      "anonymous": false,
      "inputs": [
        {
          "indexed": false,
          "internalType": "address",
          "name": "realOwner",
          "type": "address"
        }
      ],
      "name": "ticketClaimedBack",
      "type": "event"
    },
    {
      "anonymous": false,
      "inputs": [
        {
          "indexed": false,
          "internalType": "address",
          "name": "owner",
          "type": "address"
        },
        {
          "indexed": false,
          "internalType": "uint256",
          "name": "newTries",
          "type": "uint256"
        },
        {
          "indexed": false,
          "internalType": "uint256",
          "name": "newHours",
          "type": "uint256"
        },
        {
          "indexed": false,
          "internalType": "uint256",
          "name": "newPrice",
          "type": "uint256"
        }
      ],
      "name": "ticketConditionsChanged",
      "type": "event"
    },
    {
      "anonymous": false,
      "inputs": [
        {
          "indexed": false,
          "internalType": "address",
          "name": "owner",
          "type": "address"
        }
      ],
      "name": "unListTicketOnSale",
      "type": "event"
    },
    {
      "anonymous": false,
      "inputs": [
        {
          "indexed": false,
          "internalType": "address",
          "name": "owner",
          "type": "address"
        },
        {
          "indexed": false,
          "internalType": "uint256",
          "name": "marketItemId",
          "type": "uint256"
        }
      ],
      "name": "unListedItem",
      "type": "event"
    },
    {
      "inputs": [],
      "name": "ADMIN_ROLE",
      "outputs": [
        {
          "internalType": "bytes32",
          "name": "",
          "type": "bytes32"
        }
      ],
      "stateMutability": "view",
      "type": "function"
    },
    {
      "inputs": [],
      "name": "DEFAULT_ADMIN_ROLE",
      "outputs": [
        {
          "internalType": "bytes32",
          "name": "",
          "type": "bytes32"
        }
      ],
      "stateMutability": "view",
      "type": "function"
    },
    {
      "inputs": [
        {
          "internalType": "address",
          "name": "account",
          "type": "address"
        },
        {
          "internalType": "uint256",
          "name": "id",
          "type": "uint256"
        }
      ],
      "name": "balanceOf",
      "outputs": [
        {
          "internalType": "uint256",
          "name": "",
          "type": "uint256"
        }
      ],
      "stateMutability": "view",
      "type": "function"
    },
    {
      "inputs": [
        {
          "internalType": "address[]",
          "name": "accounts",
          "type": "address[]"
        },
        {
          "internalType": "uint256[]",
          "name": "ids",
          "type": "uint256[]"
        }
      ],
      "name": "balanceOfBatch",
      "outputs": [
        {
          "internalType": "uint256[]",
          "name": "",
          "type": "uint256[]"
        }
      ],
      "stateMutability": "view",
      "type": "function"
    },
    {
      "inputs": [
        {
          "internalType": "uint256",
          "name": "marketItemId",
          "type": "uint256"
        }
      ],
      "name": "buyItem",
      "outputs": [],
      "stateMutability": "nonpayable",
      "type": "function"
    },
    {
      "inputs": [
        {
          "internalType": "uint256",
          "name": "ticketId",
          "type": "uint256"
        }
      ],
      "name": "buyTicket",
      "outputs": [],
      "stateMutability": "nonpayable",
      "type": "function"
    },
    {
      "inputs": [],
      "name": "caseLiquidity",
      "outputs": [
        {
          "internalType": "uint256[]",
          "name": "",
          "type": "uint256[]"
        }
      ],
      "stateMutability": "view",
      "type": "function"
    },
    {
      "inputs": [
        {
          "internalType": "uint256",
          "name": "marketItemId",
          "type": "uint256"
        },
        {
          "internalType": "uint256",
          "name": "newPrice",
          "type": "uint256"
        }
      ],
      "name": "changeItemPrice",
      "outputs": [],
      "stateMutability": "nonpayable",
      "type": "function"
    },
    {
      "inputs": [
        {
          "internalType": "address",
          "name": "from",
          "type": "address"
        },
        {
          "internalType": "uint256",
          "name": "newTries",
          "type": "uint256"
        },
        {
          "internalType": "uint256",
          "name": "newHours",
          "type": "uint256"
        },
        {
          "internalType": "uint256",
          "name": "newPrice",
          "type": "uint256"
        }
      ],
      "name": "changeTicketConditions",
      "outputs": [],
      "stateMutability": "nonpayable",
      "type": "function"
    },
    {
      "inputs": [
        {
          "internalType": "address",
          "name": "from",
          "type": "address"
        }
      ],
      "name": "claimTicketBack",
      "outputs": [],
      "stateMutability": "nonpayable",
      "type": "function"
    },
    {
      "inputs": [
        {
          "internalType": "uint256",
          "name": "tokenId",
          "type": "uint256"
        }
      ],
      "name": "exchangeItem",
      "outputs": [],
      "stateMutability": "nonpayable",
      "type": "function"
    },
    {
      "inputs": [],
      "name": "flipContractState",
      "outputs": [],
      "stateMutability": "nonpayable",
      "type": "function"
    },
    {
      "inputs": [
        {
          "internalType": "address",
          "name": "_user",
          "type": "address"
        },
        {
          "internalType": "uint256",
          "name": "_randomNumber",
          "type": "uint256"
        }
      ],
      "name": "fulfillCaseRequest",
      "outputs": [],
      "stateMutability": "nonpayable",
      "type": "function"
    },
    {
      "inputs": [],
      "name": "getCasePrice",
      "outputs": [
        {
          "internalType": "uint256",
          "name": "",
          "type": "uint256"
        }
      ],
      "stateMutability": "view",
      "type": "function"
    },
    {
      "inputs": [],
      "name": "getContractState",
      "outputs": [
        {
          "internalType": "enum RacksItems.ContractState",
          "name": "",
          "type": "uint8"
        }
      ],
      "stateMutability": "view",
      "type": "function"
    },
    {
      "inputs": [],
      "name": "getItemsOnSale",
      "outputs": [
        {
          "components": [
            {
              "internalType": "uint256",
              "name": "tokenId",
              "type": "uint256"
            },
            {
              "internalType": "uint256",
              "name": "marketItemId",
              "type": "uint256"
            },
            {
              "internalType": "uint256",
              "name": "price",
              "type": "uint256"
            },
            {
              "internalType": "address",
              "name": "itemOwner",
              "type": "address"
            },
            {
              "internalType": "bool",
              "name": "isOnSale",
              "type": "bool"
            }
          ],
          "internalType": "struct IRacksItems.itemOnSale[]",
          "name": "",
          "type": "tuple[]"
        }
      ],
      "stateMutability": "view",
      "type": "function"
    },
    {
      "inputs": [
        {
          "internalType": "uint256",
          "name": "ticketId",
          "type": "uint256"
        }
      ],
      "name": "getMarketTicket",
      "outputs": [],
      "stateMutability": "view",
      "type": "function"
    },
    {
      "inputs": [],
      "name": "getMarketcount",
      "outputs": [
        {
          "internalType": "uint256",
          "name": "",
          "type": "uint256"
        }
      ],
      "stateMutability": "view",
      "type": "function"
    },
    {
      "inputs": [],
      "name": "getMaxTotalSupply",
      "outputs": [
        {
          "internalType": "uint256",
          "name": "",
          "type": "uint256"
        }
      ],
      "stateMutability": "view",
      "type": "function"
    },
    {
      "inputs": [],
      "name": "getOwner",
      "outputs": [
        {
          "internalType": "address",
          "name": "",
          "type": "address"
        }
      ],
      "stateMutability": "view",
      "type": "function"
    },
    {
      "inputs": [
        {
          "internalType": "bytes32",
          "name": "role",
          "type": "bytes32"
        }
      ],
      "name": "getRoleAdmin",
      "outputs": [
        {
          "internalType": "bytes32",
          "name": "",
          "type": "bytes32"
        }
      ],
      "stateMutability": "view",
      "type": "function"
    },
    {
      "inputs": [
        {
          "internalType": "uint256",
          "name": "ticketId",
          "type": "uint256"
        }
      ],
      "name": "getTicketDurationLeft",
      "outputs": [
        {
          "internalType": "address",
          "name": "",
          "type": "address"
        },
        {
          "internalType": "uint256",
          "name": "",
          "type": "uint256"
        },
        {
          "internalType": "bool",
          "name": "",
          "type": "bool"
        }
      ],
      "stateMutability": "view",
      "type": "function"
    },
    {
      "inputs": [],
      "name": "getTicketsOnSale",
      "outputs": [
        {
          "components": [
            {
              "internalType": "uint256",
              "name": "ticketId",
              "type": "uint256"
            },
            {
              "internalType": "uint256",
              "name": "numTries",
              "type": "uint256"
            },
            {
              "internalType": "uint256",
              "name": "duration",
              "type": "uint256"
            },
            {
              "internalType": "uint256",
              "name": "price",
              "type": "uint256"
            },
            {
              "internalType": "address",
              "name": "owner",
              "type": "address"
            },
            {
              "internalType": "uint256",
              "name": "timeWhenSold",
              "type": "uint256"
            },
            {
              "internalType": "bool",
              "name": "isAvaliable",
              "type": "bool"
            }
          ],
          "internalType": "struct ITickets.caseTicket[]",
          "name": "",
          "type": "tuple[]"
        }
      ],
      "stateMutability": "view",
      "type": "function"
    },
    {
      "inputs": [],
      "name": "getTokenCount",
      "outputs": [
        {
          "internalType": "uint256",
          "name": "",
          "type": "uint256"
        }
      ],
      "stateMutability": "view",
      "type": "function"
    },
    {
      "inputs": [
        {
          "internalType": "address",
          "name": "user",
          "type": "address"
        }
      ],
      "name": "getUserTicket",
      "outputs": [
        {
          "internalType": "uint256",
          "name": "durationLeft",
          "type": "uint256"
        },
        {
          "internalType": "uint256",
          "name": "triesLeft",
          "type": "uint256"
        },
        {
          "internalType": "uint256",
          "name": "ownerOrSpender",
          "type": "uint256"
        },
        {
          "internalType": "uint256",
          "name": "ticketPrice",
          "type": "uint256"
        }
      ],
      "stateMutability": "view",
      "type": "function"
    },
    {
      "inputs": [
        {
          "internalType": "bytes32",
          "name": "role",
          "type": "bytes32"
        },
        {
          "internalType": "address",
          "name": "account",
          "type": "address"
        }
      ],
      "name": "grantRole",
      "outputs": [],
      "stateMutability": "nonpayable",
      "type": "function"
    },
    {
      "inputs": [
        {
          "internalType": "bytes32",
          "name": "role",
          "type": "bytes32"
        },
        {
          "internalType": "address",
          "name": "account",
          "type": "address"
        }
      ],
      "name": "hasRole",
      "outputs": [
        {
          "internalType": "bool",
          "name": "",
          "type": "bool"
        }
      ],
      "stateMutability": "view",
      "type": "function"
    },
    {
      "inputs": [
        {
          "internalType": "address",
          "name": "account",
          "type": "address"
        },
        {
          "internalType": "address",
          "name": "operator",
          "type": "address"
        }
      ],
      "name": "isApprovedForAll",
      "outputs": [
        {
          "internalType": "bool",
          "name": "",
          "type": "bool"
        }
      ],
      "stateMutability": "view",
      "type": "function"
    },
    {
      "inputs": [
        {
          "internalType": "address",
          "name": "user",
          "type": "address"
        }
      ],
      "name": "isVip",
      "outputs": [
        {
          "internalType": "bool",
          "name": "",
          "type": "bool"
        }
      ],
      "stateMutability": "view",
      "type": "function"
    },
    {
      "inputs": [
        {
          "internalType": "uint256",
          "name": "itemSupply",
          "type": "uint256"
        }
      ],
      "name": "listItem",
      "outputs": [],
      "stateMutability": "nonpayable",
      "type": "function"
    },
    {
      "inputs": [
        {
          "internalType": "uint256",
          "name": "marketItemId",
          "type": "uint256"
        },
        {
          "internalType": "uint256",
          "name": "price",
          "type": "uint256"
        }
      ],
      "name": "listItemOnMarket",
      "outputs": [],
      "stateMutability": "nonpayable",
      "type": "function"
    },
    {
      "inputs": [
        {
          "internalType": "address",
          "name": "from",
          "type": "address"
        },
        {
          "internalType": "uint256",
          "name": "numTries",
          "type": "uint256"
        },
        {
          "internalType": "uint256",
          "name": "_hours",
          "type": "uint256"
        },
        {
          "internalType": "uint256",
          "name": "price",
          "type": "uint256"
        }
      ],
      "name": "listTicket",
      "outputs": [],
      "stateMutability": "nonpayable",
      "type": "function"
    },
    {
      "inputs": [
        {
          "internalType": "address",
          "name": "",
          "type": "address"
        },
        {
          "internalType": "address",
          "name": "",
          "type": "address"
        },
        {
          "internalType": "uint256[]",
          "name": "",
          "type": "uint256[]"
        },
        {
          "internalType": "uint256[]",
          "name": "",
          "type": "uint256[]"
        },
        {
          "internalType": "bytes",
          "name": "",
          "type": "bytes"
        }
      ],
      "name": "onERC1155BatchReceived",
      "outputs": [
        {
          "internalType": "bytes4",
          "name": "",
          "type": "bytes4"
        }
      ],
      "stateMutability": "nonpayable",
      "type": "function"
    },
    {
      "inputs": [
        {
          "internalType": "address",
          "name": "",
          "type": "address"
        },
        {
          "internalType": "address",
          "name": "",
          "type": "address"
        },
        {
          "internalType": "uint256",
          "name": "",
          "type": "uint256"
        },
        {
          "internalType": "uint256",
          "name": "",
          "type": "uint256"
        },
        {
          "internalType": "bytes",
          "name": "",
          "type": "bytes"
        }
      ],
      "name": "onERC1155Received",
      "outputs": [
        {
          "internalType": "bytes4",
          "name": "",
          "type": "bytes4"
        }
      ],
      "stateMutability": "nonpayable",
      "type": "function"
    },
    {
      "inputs": [],
      "name": "openCase",
      "outputs": [
        {
          "internalType": "bool",
          "name": "success",
          "type": "bool"
        }
      ],
      "stateMutability": "nonpayable",
      "type": "function"
    },
    {
      "inputs": [
        {
          "internalType": "bytes32",
          "name": "role",
          "type": "bytes32"
        },
        {
          "internalType": "address",
          "name": "account",
          "type": "address"
        }
      ],
      "name": "renounceRole",
      "outputs": [],
      "stateMutability": "nonpayable",
      "type": "function"
    },
    {
      "inputs": [
        {
          "internalType": "bytes32",
          "name": "role",
          "type": "bytes32"
        },
        {
          "internalType": "address",
          "name": "account",
          "type": "address"
        }
      ],
      "name": "revokeRole",
      "outputs": [],
      "stateMutability": "nonpayable",
      "type": "function"
    },
    {
      "inputs": [
        {
          "internalType": "uint256",
          "name": "",
          "type": "uint256"
        }
      ],
      "name": "s_caseResults",
      "outputs": [
        {
          "internalType": "bytes",
          "name": "",
          "type": "bytes"
        }
      ],
      "stateMutability": "view",
      "type": "function"
    },
    {
      "inputs": [
        {
          "internalType": "address",
          "name": "from",
          "type": "address"
        },
        {
          "internalType": "address",
          "name": "to",
          "type": "address"
        },
        {
          "internalType": "uint256[]",
          "name": "ids",
          "type": "uint256[]"
        },
        {
          "internalType": "uint256[]",
          "name": "amounts",
          "type": "uint256[]"
        },
        {
          "internalType": "bytes",
          "name": "data",
          "type": "bytes"
        }
      ],
      "name": "safeBatchTransferFrom",
      "outputs": [],
      "stateMutability": "nonpayable",
      "type": "function"
    },
    {
      "inputs": [
        {
          "internalType": "address",
          "name": "from",
          "type": "address"
        },
        {
          "internalType": "address",
          "name": "to",
          "type": "address"
        },
        {
          "internalType": "uint256",
          "name": "id",
          "type": "uint256"
        },
        {
          "internalType": "uint256",
          "name": "amount",
          "type": "uint256"
        },
        {
          "internalType": "bytes",
          "name": "data",
          "type": "bytes"
        }
      ],
      "name": "safeTransferFrom",
      "outputs": [],
      "stateMutability": "nonpayable",
      "type": "function"
    },
    {
      "inputs": [
        {
          "internalType": "address",
          "name": "_newAdmin",
          "type": "address"
        }
      ],
      "name": "setAdmin",
      "outputs": [],
      "stateMutability": "nonpayable",
      "type": "function"
    },
    {
      "inputs": [
        {
          "internalType": "address",
          "name": "operator",
          "type": "address"
        },
        {
          "internalType": "bool",
          "name": "approved",
          "type": "bool"
        }
      ],
      "name": "setApprovalForAll",
      "outputs": [],
      "stateMutability": "nonpayable",
      "type": "function"
    },
    {
      "inputs": [
        {
          "internalType": "uint256",
          "name": "price",
          "type": "uint256"
        }
      ],
      "name": "setCasePrice",
      "outputs": [],
      "stateMutability": "nonpayable",
      "type": "function"
    },
    {
      "inputs": [
        {
          "internalType": "address",
          "name": "_caseOpenerAddress",
          "type": "address"
        },
        {
          "internalType": "address",
          "name": "_ticketsAddress",
          "type": "address"
        }
      ],
      "name": "setInterfaces",
      "outputs": [],
      "stateMutability": "nonpayable",
      "type": "function"
    },
    {
      "inputs": [
        {
          "internalType": "uint256",
          "name": "tokenId",
          "type": "uint256"
        },
        {
          "internalType": "string",
          "name": "_uri",
          "type": "string"
        }
      ],
      "name": "setTokenUri",
      "outputs": [],
      "stateMutability": "nonpayable",
      "type": "function"
    },
    {
      "inputs": [
        {
          "internalType": "uint256",
          "name": "tokenId",
          "type": "uint256"
        }
      ],
      "name": "supplyOfItem",
      "outputs": [
        {
          "internalType": "uint256",
          "name": "",
          "type": "uint256"
        }
      ],
      "stateMutability": "view",
      "type": "function"
    },
    {
      "inputs": [
        {
          "internalType": "bytes4",
          "name": "interfaceId",
          "type": "bytes4"
        }
      ],
      "name": "supportsInterface",
      "outputs": [
        {
          "internalType": "bool",
          "name": "",
          "type": "bool"
        }
      ],
      "stateMutability": "view",
      "type": "function"
    },
    {
      "inputs": [
        {
          "internalType": "uint256",
          "name": "marketItemId",
          "type": "uint256"
        }
      ],
      "name": "unListItem",
      "outputs": [],
      "stateMutability": "nonpayable",
      "type": "function"
    },
    {
      "inputs": [
        {
          "internalType": "address",
          "name": "from",
          "type": "address"
        }
      ],
      "name": "unListTicket",
      "outputs": [],
      "stateMutability": "nonpayable",
      "type": "function"
    },
    {
      "inputs": [
        {
          "internalType": "uint256",
          "name": "tokenId",
          "type": "uint256"
        }
      ],
      "name": "uri",
      "outputs": [
        {
          "internalType": "string",
          "name": "",
          "type": "string"
        }
      ],
      "stateMutability": "view",
      "type": "function"
    },
    {
      "inputs": [
        {
          "internalType": "address",
          "name": "owner",
          "type": "address"
        }
      ],
      "name": "viewItems",
      "outputs": [
        {
          "internalType": "uint256[]",
          "name": "",
          "type": "uint256[]"
        }
      ],
      "stateMutability": "view",
      "type": "function"
    },
    {
      "inputs": [
        {
          "internalType": "address",
          "name": "wallet",
          "type": "address"
        }
      ],
      "name": "withdrawAllFunds",
      "outputs": [],
      "stateMutability": "nonpayable",
      "type": "function"
    },
    {
      "inputs": [
        {
          "internalType": "address",
          "name": "wallet",
          "type": "address"
        },
        {
          "internalType": "uint256",
          "name": "amount",
          "type": "uint256"
        }
      ],
      "name": "withdrawFunds",
      "outputs": [],
      "stateMutability": "nonpayable",
      "type": "function"
    }
  ],
  "bytecode": "0x60806040523480156200001157600080fd5b5060405162004da238038062004da2833981016040819052620000349162000180565b6040805160208101909152600081526200004e81620000a4565b50600680546001600160a01b039283166001600160a01b031991821617909155600780549390921692811692909217905560088054909116331790556000600a556064600c55600d805460ff19169055620001f5565b8051620000b9906002906020840190620000bd565b5050565b828054620000cb90620001b8565b90600052602060002090601f016020900481019282620000ef57600085556200013a565b82601f106200010a57805160ff19168380011785556200013a565b828001600101855582156200013a579182015b828111156200013a5782518255916020019190600101906200011d565b50620001489291506200014c565b5090565b5b808211156200014857600081556001016200014d565b80516001600160a01b03811681146200017b57600080fd5b919050565b600080604083850312156200019457600080fd5b6200019f8362000163565b9150620001af6020840162000163565b90509250929050565b600181811c90821680620001cd57607f821691505b60208210811415620001ef57634e487b7160e01b600052602260045260246000fd5b50919050565b614b9d80620002056000396000f3fe608060405234801561001057600080fd5b50600436106102d65760003560e01c80637f4e484911610188578063c1075329116100e4578063dd006d3111610092578063dd006d31146106b7578063de08f653146106ca578063e7fb74c7146106d2578063e985e9c5146106e5578063f23a6e6114610721578063f242432a14610740578063f48c9d341461075357600080fd5b8063c107532914610626578063c25e2af414610639578063c4c427301461066c578063c853d92214610674578063d066b70414610689578063d3c115f21461069c578063d547741f146106a457600080fd5b8063976298f311610141578063976298f314610598578063a217fddf14610510578063a22cb465146105a0578063a7b19424146105b3578063a7bc77c6146105c6578063bbcbc2e7146105d9578063bc197c81146105ee57600080fd5b80637f4e484914610520578063821029981461053357806384203f4b14610546578063893d20e8146105595780638dc5f45b1461057257806391d148541461058557600080fd5b806332dee40b116102375780635721ff60116101f05780635721ff60146104bc57806357f7789e146104cf5780635db30bb1146104e257806367dd74ca146104ea578063704b6c02146104fd57806375b238fc1461051057806378a895671461051857600080fd5b806332dee40b1461044857806336568abe1461045b578063401ea50e1461046e57806348f8704c146104815780634a226657146104945780634e1273f41461049c57600080fd5b806319c085751161029457806319c085751461037f5780631cb0b273146103b957806320ba0814146103cc578063248a9ca3146103ec5780632ce381901461040f5780632eb2c2d6146104225780632f2ff15d1461043557600080fd5b8062fdd58e146102db57806301ffc9a714610301578063020f1980146103245780630e89341c1461033957806310fa69b31461035957806315e2d6941461036c575b600080fd5b6102ee6102e9366004613e52565b610766565b6040519081526020015b60405180910390f35b61031461030f366004614133565b610800565b60405190151581526020016102f8565b6103376103323660046141d6565b61080b565b005b61034c6103473660046140f5565b610a30565b6040516102f89190614622565b610337610367366004613cd6565b610ad2565b61033761037a366004613cb9565b610b2a565b61039261038d3660046140f5565b610bed565b604080516001600160a01b03909416845260208401929092521515908201526060016102f8565b6103376103c73660046140f5565b610c7b565b6102ee6103da3660046140f5565b60009081526010602052604090205490565b6102ee6103fa3660046140f5565b60009081526003602052604090206001015490565b61033761041d3660046140f5565b610d0d565b610337610430366004613d0f565b610d3f565b61033761044336600461410e565b610dd6565b610337610456366004613cb9565b610e00565b61033761046936600461410e565b610fc5565b61033761047c366004613e52565b61103f565b61034c61048f3660046140f5565b611204565b6103146112b0565b6104af6104aa366004613efc565b611612565b6040516102f891906145e1565b6103376104ca366004613ec1565b61173b565b6103376104dd366004614186565b611843565b6009546102ee565b6103376104f83660046140f5565b6118e7565b61033761050b366004613cb9565b611b40565b6102ee600081565b600a546102ee565b600d5460ff166040516102f89190614635565b610337610541366004613ec1565b611b75565b610314610554366004613cb9565b611c6f565b6008546001600160a01b03166040516102f89190614363565b6103376105803660046140f5565b611d0a565b61031461059336600461410e565b611d64565b600c546102ee565b6103376105ae366004613e24565b611d8f565b6103376105c13660046141d6565b611d9a565b6103376105d43660046140f5565b611e78565b6105e1611f9b565b6040516102f89190614575565b61060d6105fc366004613d0f565b63bc197c8160e01b95945050505050565b6040516001600160e01b031990911681526020016102f8565b610337610634366004613e52565b6121df565b61064c610647366004613cb9565b61232b565b6040805194855260208501939093529183015260608201526080016102f8565b600b546102ee565b61067c6123c3565b6040516102f891906144e8565b610337610697366004613cb9565b612451565b6104af61253f565b6103376106b236600461410e565b612626565b6103376106c53660046140f5565b61264b565b6103376126d0565b6103376106e03660046140f5565b61272f565b6103146106f3366004613cd6565b6001600160a01b03918216600090815260016020908152604080832093909416825291909152205460ff1690565b61060d61072f366004613dbc565b63f23a6e6160e01b95945050505050565b61033761074e366004613dbc565b612cc3565b6104af610761366004613cb9565b612d4a565b60006001600160a01b0383166107d75760405162461bcd60e51b815260206004820152602b60248201527f455243313135353a2062616c616e636520717565727920666f7220746865207a60448201526a65726f206164647265737360a81b60648201526084015b60405180910390fd5b506000818152602081815260408083206001600160a01b03861684529091529020545b92915050565b60006107fa82612e0e565b60006108173384610766565b116108565760405162461bcd60e51b815260206004820152600f60248201526e24ba32b6903737ba103337bab7321760891b60448201526064016107ce565b600081116108a65760405162461bcd60e51b815260206004820152601c60248201527f5072696365206d7573742062652067726561746572207468616e20300000000060448201526064016107ce565b33600090815260126020908152604080832085845290915281208054600192906108d19084906148b4565b90915550506040805160a081018252838152600b8054602083019081529282018481523360608401908152600160808501818152600e80549283018155600090815295517fbb7b4a454dc3493923482f07822329ed19e8244eff582cc204f8554c3620c3fd60049093029283015595517fbb7b4a454dc3493923482f07822329ed19e8244eff582cc204f8554c3620c3fe82015591517fbb7b4a454dc3493923482f07822329ed19e8244eff582cc204f8554c3620c3ff830155517fbb7b4a454dc3493923482f07822329ed19e8244eff582cc204f8554c3620c400909101805494516001600160a01b039092166001600160a81b031990951694909417600160a01b9115159190910217909255815491906109ec836149d5565b91905055507f23cba88d6c6f26b62b2cfc32a2cc04fbbde8590188b97cd3590e45af9ac6dd6d338383604051610a2493929190614471565b60405180910390a15050565b6000818152601160205260409020805460609190610a4d90614949565b80601f0160208091040260200160405190810160405280929190818152602001828054610a7990614949565b8015610ac65780601f10610a9b57610100808354040283529160200191610ac6565b820191906000526020600020905b815481529060010190602001808311610aa957829003601f168201915b50505050509050919050565b6008546001600160a01b03163314610afc5760405162461bcd60e51b81526004016107ce90614862565b600480546001600160a01b039384166001600160a01b03199182161790915560058054929093169116179055565b610b3333611c6f565b610b4f5760405162461bcd60e51b81526004016107ce906147a0565b60055460405163846618ab60e01b81526001600160a01b039091169063846618ab90610b819084903390600401614377565b600060405180830381600087803b158015610b9b57600080fd5b505af1158015610baf573d6000803e3d6000fd5b505050507f7786f3ed748004d17dc650f21466cb6542269adcfbdd3e88f5c0aa131909b9c333604051610be29190614363565b60405180910390a150565b6005546040516319c0857560e01b815260048101839052600091829182916001600160a01b0316906319c085759060240160606040518083038186803b158015610c3657600080fd5b505afa158015610c4a573d6000803e3d6000fd5b505050506040513d601f19601f82011682018060405250810190610c6e9190613e7e565b9250925092509193909250565b6000610c873383610766565b11610c9157600080fd5b610c9d33826001612e33565b6000818152601060205260408120805460019290610cbc9084906148eb565b92505081905550600160096000828254610cd691906148eb565b90915550506040517f9e90d55d2f1f115ffe1b87372c45f27f6b3a2b5ba392942167be78456189009490610be29033908490614458565b610d1633612f9d565b610d325760405162461bcd60e51b81526004016107ce90614821565b610d3c3082612fd3565b50565b6001600160a01b038516331480610d5b5750610d5b85336106f3565b610dc25760405162461bcd60e51b815260206004820152603260248201527f455243313135353a207472616e736665722063616c6c6572206973206e6f74206044820152711bdddb995c881b9bdc88185c1c1c9bdd995960721b60648201526084016107ce565b610dcf858585858561303e565b5050505050565b600082815260036020526040902060010154610df18161321b565b610dfb8383613225565b505050565b6008546001600160a01b03163314610e2a5760405162461bcd60e51b81526004016107ce90614862565b6007546040516370a0823160e01b81526000916001600160a01b0316906370a0823190610e5b903090600401614363565b60206040518083038186803b158015610e7357600080fd5b505afa158015610e87573d6000803e3d6000fd5b505050506040513d601f19601f82011682018060405250810190610eab919061416d565b11610ec85760405162461bcd60e51b81526004016107ce906146a5565b6007546040516370a0823160e01b81526001600160a01b039091169063a9059cbb90839083906370a0823190610f02903090600401614363565b60206040518083038186803b158015610f1a57600080fd5b505afa158015610f2e573d6000803e3d6000fd5b505050506040513d601f19601f82011682018060405250810190610f52919061416d565b6040518363ffffffff1660e01b8152600401610f6f929190614458565b602060405180830381600087803b158015610f8957600080fd5b505af1158015610f9d573d6000803e3d6000fd5b505050506040513d601f19601f82011682018060405250810190610fc191906140d8565b5050565b6001600160a01b03811633146110355760405162461bcd60e51b815260206004820152602f60248201527f416363657373436f6e74726f6c3a2063616e206f6e6c792072656e6f756e636560448201526e103937b632b9903337b91039b2b63360891b60648201526084016107ce565b610fc182826132ab565b6004546001600160a01b0316331461105657600080fd5b60008061106161253f565b905060005b81518110156110bc5761109e82828151811061108457611084614a3e565b602002602001015160009081526010602052604090205490565b6110a890846148b4565b9250806110b4816149d5565b915050611066565b5060006110c983856149f0565b9050600080805b84518110156111415760006110f086838151811061108457611084614a3e565b6110fa90856148b4565b90508085111561110c5780935061112e565b85828151811061111e5761111e614a3e565b6020026020010151925050611141565b5080611139816149d5565b9150506110d0565b506040516bffffffffffffffffffffffff19606089901b16602082015260348101829052600f9060540160408051601f198184030181529190528154600181018355600092835260209283902082516111a09491909201920190613b2c565b506111be308883600160405180602001604052806000815250613312565b7fea32e37a2618dbb680c93d891742e9e13b30d184822562a0ee3c09290fd42b4333600c54836040516111f393929190614471565b60405180910390a150505050505050565b600f818154811061121457600080fd5b90600052602060002001600091509050805461122f90614949565b80601f016020809104026020016040519081016040528092919081815260200182805461125b90614949565b80156112a85780601f1061127d576101008083540402835291602001916112a8565b820191906000526020600020905b81548152906001019060200180831161128b57829003601f168201915b505050505081565b600080600954116113035760405162461bcd60e51b815260206004820152601c60248201527f546865726520617265206e6f206974656d73206176616c6961626c650000000060448201526064016107ce565b6000600d5460ff16600181111561131c5761131c614a28565b146113395760405162461bcd60e51b81526004016107ce90614716565b6006546040516370a0823160e01b81526001916001600160a01b0316906370a082319061136a903390600401614363565b60206040518083038186803b15801561138257600080fd5b505afa158015611396573d6000803e3d6000fd5b505050506040513d601f19601f820116820180604052508101906113ba919061416d565b10156114b2576005546040516330978abd60e21b81526000916001600160a01b03169063c25e2af4906113f1903390600401614363565b60806040518083038186803b15801561140957600080fd5b505afa15801561141d573d6000803e3d6000fd5b505050506040513d601f19601f820116820180604052508101906114419190614257565b5092505050806002146114b05760405162461bcd60e51b815260206004820152603160248201527f5573657220646f6573206e6f74206f776e2061205469636b657420666f72206f6044820152703832b73734b733903a34329031b0b9b29760791b60648201526084016107ce565b505b600754600c546040516323b872dd60e01b81526001600160a01b03909216916323b872dd916114e791339130916004016143ef565b602060405180830381600087803b15801561150157600080fd5b505af1158015611515573d6000803e3d6000fd5b505050506040513d601f19601f8201168201806040525081019061153991906140d8565b506004805460405163831cbb6b60e01b81526001600160a01b039091169163831cbb6b9161156991339101614363565b600060405180830381600087803b15801561158357600080fd5b505af1158015611597573d6000803e3d6000fd5b505050506115a433611c6f565b61160b57600554604051630c3709d960e21b81526001600160a01b03909116906330dc2764906115d8903390600401614363565b600060405180830381600087803b1580156115f257600080fd5b505af1158015611606573d6000803e3d6000fd5b505050505b5060015b90565b606081518351146116775760405162461bcd60e51b815260206004820152602960248201527f455243313135353a206163636f756e747320616e6420696473206c656e677468604482015268040dad2e6dac2e8c6d60bb1b60648201526084016107ce565b600083516001600160401b0381111561169257611692614a54565b6040519080825280602002602001820160405280156116bb578160200160208202803683370190505b50905060005b8451811015611733576117068582815181106116df576116df614a3e565b60200260200101518583815181106116f9576116f9614a3e565b6020026020010151610766565b82828151811061171857611718614a3e565b602090810291909101015261172c816149d5565b90506116c1565b509392505050565b61174433611c6f565b6117605760405162461bcd60e51b81526004016107ce906147a0565b6000600d5460ff16600181111561177957611779614a28565b146117965760405162461bcd60e51b81526004016107ce90614716565b6005546040516334ff6ddd60e11b81526001600160a01b03909116906369fedbba906117ce90879087908790879033906004016144b8565b600060405180830381600087803b1580156117e857600080fd5b505af11580156117fc573d6000803e3d6000fd5b505050507f0fcd915268f7fe921a6c99bd903199d2f30c7f65a422416bfd1de6a264b8264d338484846040516118359493929190614492565b60405180910390a150505050565b61184c33612f9d565b6118685760405162461bcd60e51b81526004016107ce90614821565b6000828152601160205260409020805461188190614949565b1590506118c85760405162461bcd60e51b815260206004820152601560248201527443616e206e6f74207365742075726920747769636560581b60448201526064016107ce565b60008281526011602090815260409091208251610dfb92840190613b2c565b6000600d5460ff16600181111561190057611900614a28565b1461191d5760405162461bcd60e51b81526004016107ce90614716565b61192633611c6f565b156119735760405162461bcd60e51b815260206004820152601f60248201527f412056495020757365722063616e206e6f74206275792061207469636b65740060448201526064016107ce565b60055460405163dd006d3160e01b81526004810183905260009182916001600160a01b039091169063dd006d319060240160c06040518083038186803b1580156119bc57600080fd5b505afa1580156119d0573d6000803e3d6000fd5b505050506040513d601f19601f820116820180604052508101906119f491906141f8565b50506007546040516323b872dd60e01b81529296509094506001600160a01b031692506323b872dd9150611a30903390859087906004016143ef565b602060405180830381600087803b158015611a4a57600080fd5b505af1158015611a5e573d6000803e3d6000fd5b505050506040513d601f19601f82011682018060405250810190611a8291906140d8565b506005546040516318aa117b60e21b8152600481018590523360248201526001600160a01b03909116906362a845ec90604401600060405180830381600087803b158015611acf57600080fd5b505af1158015611ae3573d6000803e3d6000fd5b5050604080518681526001600160a01b03851660208201523391810191909152606081018590527f060f7dd92424d6f1af65d2fe9acba5b63d299cc26cd8eb26403ca371bc9fbfbb925060800190505b60405180910390a1505050565b6008546001600160a01b03163314611b6a5760405162461bcd60e51b81526004016107ce90614862565b610d3c60008261342a565b611b7e33611c6f565b611b9a5760405162461bcd60e51b81526004016107ce906147a0565b6000600d5460ff166001811115611bb357611bb3614a28565b14611bd05760405162461bcd60e51b81526004016107ce90614716565b60055460405163187ab7cb60e21b81526001600160a01b03909116906361eadf2c90611c0890879087908790879033906004016144b8565b600060405180830381600087803b158015611c2257600080fd5b505af1158015611c36573d6000803e3d6000fd5b505050507f07814713aba2e13eb5f2470225f7395d33fad1452b70f8427dae73e4d3a59344338484846040516118359493929190614492565b6006546040516370a0823160e01b815260009182916001600160a01b03909116906370a0823190611ca4908690600401614363565b60206040518083038186803b158015611cbc57600080fd5b505afa158015611cd0573d6000803e3d6000fd5b505050506040513d601f19601f82011682018060405250810190611cf4919061416d565b1115611d0257506001919050565b506000919050565b611d1333612f9d565b611d2f5760405162461bcd60e51b81526004016107ce90614821565b600c8190556040518181527f06cd74aabc11982a85b554df4d7833623303656fe69bed4db1b0cb3245feebe390602001610be2565b60009182526003602090815260408084206001600160a01b0393909316845291905290205460ff1690565b610fc1338383613434565b336001600160a01b0316600e8381548110611db757611db7614a3e565b60009182526020909120600360049092020101546001600160a01b031614611df15760405162461bcd60e51b81526004016107ce906146d3565b6000600e8381548110611e0657611e06614a3e565b906000526020600020906004020160020154905081600e8481548110611e2e57611e2e614a3e565b9060005260206000209060040201600201819055507fb141d00f22a670547caacc412e6489d8edaba6a840df558118363ce1a40d6ed233848385604051611b339493929190614492565b336001600160a01b0316600e8281548110611e9557611e95614a3e565b60009182526020909120600360049092020101546001600160a01b031614611ecf5760405162461bcd60e51b81526004016107ce906146d3565b336000908152601260205260408120600e8054600193919085908110611ef757611ef7614a3e565b90600052602060002090600402016000015481526020019081526020016000206000828254611f2691906148eb565b925050819055506000600e8281548110611f4257611f42614a3e565b906000526020600020906004020160030160146101000a81548160ff0219169083151502179055507fc9cedcca3d85d6009a562a9e70071f6288adabda9ba7f059589165e75c9cf4043382604051610be2929190614458565b60606000805b600e54811015612064576000600e8281548110611fc057611fc0614a3e565b60009182526020918290206040805160a08101825260049093029091018054835260018082015494840194909452600281015491830191909152600301546001600160a01b038116606083015260ff600160a01b9091041615156080820181905290925014801561203e575061203e81606001518260000151613515565b156120515761204e6001846148b4565b92505b508061205c816149d5565b915050611fa1565b506000816001600160401b0381111561207f5761207f614a54565b6040519080825280602002602001820160405280156120ed57816020015b6120da6040518060a0016040528060008152602001600081526020016000815260200160006001600160a01b031681526020016000151581525090565b81526020019060019003908161209d5790505b5090506000805b600e548110156121d6576000600e828154811061211357612113614a3e565b60009182526020918290206040805160a08101825260049093029091018054835260018082015494840194909452600281015491830191909152600301546001600160a01b038116606083015260ff600160a01b90910416151560808201819052909250148015612191575061219181606001518260000151613515565b156121c357808484815181106121a9576121a9614a3e565b602002602001018190525082806121bf906149d5565b9350505b50806121ce816149d5565b9150506120f4565b50909392505050565b6008546001600160a01b031633146122095760405162461bcd60e51b81526004016107ce90614862565b6007546040516370a0823160e01b81526000916001600160a01b0316906370a082319061223a903090600401614363565b60206040518083038186803b15801561225257600080fd5b505afa158015612266573d6000803e3d6000fd5b505050506040513d601f19601f8201168201806040525081019061228a919061416d565b116122a75760405162461bcd60e51b81526004016107ce906146a5565b60075460405163a9059cbb60e01b81526001600160a01b039091169063a9059cbb906122d99085908590600401614458565b602060405180830381600087803b1580156122f357600080fd5b505af1158015612307573d6000803e3d6000fd5b505050506040513d601f19601f82011682018060405250810190610dfb91906140d8565b6005546040516330978abd60e21b81526000918291829182916001600160a01b039091169063c25e2af490612364908890600401614363565b60806040518083038186803b15801561237c57600080fd5b505afa158015612390573d6000803e3d6000fd5b505050506040513d601f19601f820116820180604052508101906123b49190614257565b93509350935093509193509193565b60606000600560009054906101000a90046001600160a01b03166001600160a01b031663c853d9226040518163ffffffff1660e01b815260040160006040518083038186803b15801561241557600080fd5b505afa158015612429573d6000803e3d6000fd5b505050506040513d6000823e601f3d908101601f191682016040526107fa9190810190613fce565b61245a33611c6f565b6124765760405162461bcd60e51b81526004016107ce906147a0565b6000600d5460ff16600181111561248f5761248f614a28565b146124ac5760405162461bcd60e51b81526004016107ce90614716565b60055460405163f200e16160e01b81526001600160a01b039091169063f200e161906124de9084903390600401614377565b600060405180830381600087803b1580156124f857600080fd5b505af115801561250c573d6000803e3d6000fd5b505050507f5dbab6b1e9ddd154d6eb51aa5622fb5278ea62a0b5f81d046a945d899490f63133604051610be29190614363565b60606000805b600a5481101561258157600061255b3083610766565b111561256f578161256b816149d5565b9250505b80612579816149d5565b915050612545565b506000816001600160401b0381111561259c5761259c614a54565b6040519080825280602002602001820160405280156125c5578160200160208202803683370190505b5090506000805b600a548110156121d65760006125e23083610766565b111561261457808383815181106125fb576125fb614a3e565b602090810291909101015281612610816149d5565b9250505b8061261e816149d5565b9150506125cc565b6000828152600360205260409020600101546126418161321b565b610dfb83836132ab565b60055460405163dd006d3160e01b8152600481018390526001600160a01b039091169063dd006d319060240160c06040518083038186803b15801561268f57600080fd5b505afa1580156126a3573d6000803e3d6000fd5b505050506040513d601f19601f820116820180604052508101906126c791906141f8565b50505050505050565b6126d933612f9d565b6126f55760405162461bcd60e51b81526004016107ce90614821565b6000600d5460ff16600181111561270e5761270e614a28565b141561272357600d805460ff19166001179055565b600d805460ff19169055565b6000600e828154811061274457612744614a3e565b60009182526020918290206040805160a0810182526004909302909101805483526001810154938301939093526002830154908201526003909101546001600160a01b038116606083015260ff600160a01b9091041615156080820152600e805491925090839081106127b9576127b9614a3e565b60009182526020909120600490910201600301546001600160a01b03163314156128315760405162461bcd60e51b815260206004820152602360248201527f596f752063616e206e6f742062757920616e206974656d20746f20796f75727360448201526232b63360e91b60648201526084016107ce565b600e828154811061284457612844614a3e565b906000526020600020906004020160030160149054906101000a900460ff16151560011515146128c05760405162461bcd60e51b815260206004820152602160248201527f54686973206974656d206973206e6f74206f6e2073616c6520616e796d6f72656044820152601760f91b60648201526084016107ce565b6128d281606001518260000151613515565b6129155760405162461bcd60e51b815260206004820152601460248201527324ba32b6903237b2b9903737ba1032bc34b9ba1760611b60448201526064016107ce565b6040808201516007549151636eb1769f60e11b815290916001600160a01b03169063dd62ed3e9061294c9033903090600401614377565b60206040518083038186803b15801561296457600080fd5b505afa158015612978573d6000803e3d6000fd5b505050506040513d601f19601f8201168201806040525081019061299c919061416d565b10156129ea5760405162461bcd60e51b815260206004820152601c60248201527f496e73756666696369656e7420455243323020616c6c6f77616e63650000000060448201526064016107ce565b600754600e80546001600160a01b03909216916323b872dd91339186908110612a1557612a15614a3e565b906000526020600020906004020160030160009054906101000a90046001600160a01b0316600e8681548110612a4d57612a4d614a3e565b9060005260206000209060040201600201546040518463ffffffff1660e01b8152600401612a7d939291906143ef565b602060405180830381600087803b158015612a9757600080fd5b505af1158015612aab573d6000803e3d6000fd5b505050506040513d601f19601f82011682018060405250810190612acf91906140d8565b50612b48600e8381548110612ae657612ae6614a3e565b906000526020600020906004020160030160009054906101000a90046001600160a01b031633600e8581548110612b1f57612b1f614a3e565b906000526020600020906004020160000154600160405180602001604052806000815250613312565b60608101516001600160a01b03166000908152601260209081526040808320845184529091528120805460019290612b819084906148eb565b925050819055506000600e8381548110612b9d57612b9d614a3e565b906000526020600020906004020160030160009054906101000a90046001600160a01b0316905033600e8481548110612bd857612bd8614a3e565b906000526020600020906004020160030160006101000a8154816001600160a01b0302191690836001600160a01b031602179055506000600e8481548110612c2257612c22614a3e565b906000526020600020906004020160030160146101000a81548160ff0219169083151502179055507f642067ff529c9b5b1162502fc8e8a3a91dda56e126a84f2fe38d341236231a82338285600e8781548110612c8157612c81614a3e565b600091825260209182902060026004909202010154604080516001600160a01b0396871681529590941691850191909152918301526060820152608001611b33565b6001600160a01b038516331480612cdf5750612cdf85336106f3565b612d3d5760405162461bcd60e51b815260206004820152602960248201527f455243313135353a2063616c6c6572206973206e6f74206f776e6572206e6f7260448201526808185c1c1c9bdd995960ba1b60648201526084016107ce565b610dcf8585858585613312565b60606000600a546001600160401b03811115612d6857612d68614a54565b604051908082528060200260200182016040528015612d91578160200160208202803683370190505b50905060005b8151811015612e07576001600160a01b0384166000908152601260209081526040808320848452909152902054612dce8583610766565b612dd891906148eb565b828281518110612dea57612dea614a3e565b602090810291909101015280612dff816149d5565b915050612d97565b5092915050565b60006001600160e01b03198216637965db0b60e01b14806107fa57506107fa82613538565b6001600160a01b038316612e955760405162461bcd60e51b815260206004820152602360248201527f455243313135353a206275726e2066726f6d20746865207a65726f206164647260448201526265737360e81b60648201526084016107ce565b336000612ea18461355d565b90506000612eae8461355d565b60408051602080820183526000918290528882528181528282206001600160a01b038b1683529052205490915084811015612f375760405162461bcd60e51b8152602060048201526024808201527f455243313135353a206275726e20616d6f756e7420657863656564732062616c604482015263616e636560e01b60648201526084016107ce565b6000868152602081815260408083206001600160a01b038b81168086529184528285208a8703905582518b81529384018a9052909290881691600080516020614b48833981519152910160405180910390a46040805160208101909152600090526126c7565b6008546000906001600160a01b0383811691161480612fc25750612fc2600083611d64565b612fcb57600080fd5b506001919050565b612ff082600a5483604051806020016040528060008152506135a8565b613009600a548260009182526010602052604090912055565b806009600082825461301b91906148b4565b925050819055506001600a600082825461303591906148b4565b90915550505050565b81518351146130a05760405162461bcd60e51b815260206004820152602860248201527f455243313135353a2069647320616e6420616d6f756e7473206c656e677468206044820152670dad2e6dac2e8c6d60c31b60648201526084016107ce565b6001600160a01b0384166130c65760405162461bcd60e51b81526004016107ce9061475b565b3360005b84518110156131ad5760008582815181106130e7576130e7614a3e565b60200260200101519050600085838151811061310557613105614a3e565b602090810291909101810151600084815280835260408082206001600160a01b038e1683529093529190912054909150818110156131555760405162461bcd60e51b81526004016107ce906147d7565b6000838152602081815260408083206001600160a01b038e8116855292528083208585039055908b168252812080548492906131929084906148b4565b92505081905550505050806131a6906149d5565b90506130ca565b50846001600160a01b0316866001600160a01b0316826001600160a01b03167f4a39dc06d4c0dbc64b70af90fd698a233a518aa5d07e595d983b8c0526c8f7fb87876040516131fd9291906145f4565b60405180910390a46132138187878787876136a1565b505050505050565b610d3c813361380c565b61322f8282611d64565b610fc15760008281526003602090815260408083206001600160a01b03851684529091529020805460ff191660011790556132673390565b6001600160a01b0316816001600160a01b0316837f2f8788117e7eff1d82e926ec794901d17c78024a50270940304540a733656f0d60405160405180910390a45050565b6132b58282611d64565b15610fc15760008281526003602090815260408083206001600160a01b0385168085529252808320805460ff1916905551339285917ff6391f5c32d9c69d2a47ea670b442974b53935d1edc7fd64eb21e047a839171b9190a45050565b6001600160a01b0384166133385760405162461bcd60e51b81526004016107ce9061475b565b3360006133448561355d565b905060006133518561355d565b90506000868152602081815260408083206001600160a01b038c168452909152902054858110156133945760405162461bcd60e51b81526004016107ce906147d7565b6000878152602081815260408083206001600160a01b038d8116855292528083208985039055908a168252812080548892906133d19084906148b4565b909155505060408051888152602081018890526001600160a01b03808b16928c82169291881691600080516020614b48833981519152910160405180910390a461341f848a8a8a8a8a613870565b505050505050505050565b610fc18282613225565b816001600160a01b0316836001600160a01b031614156134a85760405162461bcd60e51b815260206004820152602960248201527f455243313135353a2073657474696e6720617070726f76616c20737461747573604482015268103337b91039b2b63360b91b60648201526084016107ce565b6001600160a01b03838116600081815260016020908152604080832094871680845294825291829020805460ff191686151590811790915591519182527f17307eab39ab6107e8899845ad3d59bd9653f200f220920489ca2b5937696c31910160405180910390a3505050565b6000806135228484610766565b1115613530575060016107fa565b5060006107fa565b60006001600160e01b03198216630271189760e51b14806107fa57506107fa8261393a565b6040805160018082528183019092526060916000919060208083019080368337019050509050828160008151811061359757613597614a3e565b602090810291909101015292915050565b6001600160a01b0384166136085760405162461bcd60e51b815260206004820152602160248201527f455243313135353a206d696e7420746f20746865207a65726f206164647265736044820152607360f81b60648201526084016107ce565b3360006136148561355d565b905060006136218561355d565b90506000868152602081815260408083206001600160a01b038b168452909152812080548792906136539084906148b4565b909155505060408051878152602081018790526001600160a01b03808a169260009291871691600080516020614b48833981519152910160405180910390a46126c783600089898989613870565b6001600160a01b0384163b156132135760405163bc197c8160e01b81526001600160a01b0385169063bc197c81906136e59089908990889088908890600401614391565b602060405180830381600087803b1580156136ff57600080fd5b505af192505050801561372f575060408051601f3d908101601f1916820190925261372c91810190614150565b60015b6137dc5761373b614a6a565b806308c379a014156137755750613750614a85565b8061375b5750613777565b8060405162461bcd60e51b81526004016107ce9190614622565b505b60405162461bcd60e51b815260206004820152603460248201527f455243313135353a207472616e7366657220746f206e6f6e20455243313135356044820152732932b1b2b4bb32b91034b6b83632b6b2b73a32b960611b60648201526084016107ce565b6001600160e01b0319811663bc197c8160e01b146126c75760405162461bcd60e51b81526004016107ce9061465d565b6138168282611d64565b610fc15761382e816001600160a01b0316601461398a565b61383983602061398a565b60405160200161384a9291906142f4565b60408051601f198184030181529082905262461bcd60e51b82526107ce91600401614622565b6001600160a01b0384163b156132135760405163f23a6e6160e01b81526001600160a01b0385169063f23a6e61906138b49089908990889088908890600401614413565b602060405180830381600087803b1580156138ce57600080fd5b505af19250505080156138fe575060408051601f3d908101601f191682019092526138fb91810190614150565b60015b61390a5761373b614a6a565b6001600160e01b0319811663f23a6e6160e01b146126c75760405162461bcd60e51b81526004016107ce9061465d565b60006001600160e01b03198216636cdb3d1360e11b148061396b57506001600160e01b031982166303a24d0760e21b145b806107fa57506301ffc9a760e01b6001600160e01b03198316146107fa565b606060006139998360026148cc565b6139a49060026148b4565b6001600160401b038111156139bb576139bb614a54565b6040519080825280601f01601f1916602001820160405280156139e5576020820181803683370190505b509050600360fc1b81600081518110613a0057613a00614a3e565b60200101906001600160f81b031916908160001a905350600f60fb1b81600181518110613a2f57613a2f614a3e565b60200101906001600160f81b031916908160001a9053506000613a538460026148cc565b613a5e9060016148b4565b90505b6001811115613ad6576f181899199a1a9b1b9c1cb0b131b232b360811b85600f1660108110613a9257613a92614a3e565b1a60f81b828281518110613aa857613aa8614a3e565b60200101906001600160f81b031916908160001a90535060049490941c93613acf81614932565b9050613a61565b508315613b255760405162461bcd60e51b815260206004820181905260248201527f537472696e67733a20686578206c656e67746820696e73756666696369656e7460448201526064016107ce565b9392505050565b828054613b3890614949565b90600052602060002090601f016020900481019282613b5a5760008555613ba0565b82601f10613b7357805160ff1916838001178555613ba0565b82800160010185558215613ba0579182015b82811115613ba0578251825591602001919060010190613b85565b50613bac929150613bb0565b5090565b5b80821115613bac5760008155600101613bb1565b60006001600160401b03831115613bde57613bde614a54565b604051613bf5601f8501601f1916602001826149a9565b809150838152848484011115613c0a57600080fd5b83836020830137600060208583010152509392505050565b600082601f830112613c3357600080fd5b81356020613c4082614891565b604051613c4d82826149a9565b8381528281019150858301600585901b87018401881015613c6d57600080fd5b60005b85811015613c8c57813584529284019290840190600101613c70565b5090979650505050505050565b600082601f830112613caa57600080fd5b613b2583833560208501613bc5565b600060208284031215613ccb57600080fd5b8135613b2581614b0e565b60008060408385031215613ce957600080fd5b8235613cf481614b0e565b91506020830135613d0481614b0e565b809150509250929050565b600080600080600060a08688031215613d2757600080fd5b8535613d3281614b0e565b94506020860135613d4281614b0e565b935060408601356001600160401b0380821115613d5e57600080fd5b613d6a89838a01613c22565b94506060880135915080821115613d8057600080fd5b613d8c89838a01613c22565b93506080880135915080821115613da257600080fd5b50613daf88828901613c99565b9150509295509295909350565b600080600080600060a08688031215613dd457600080fd5b8535613ddf81614b0e565b94506020860135613def81614b0e565b9350604086013592506060860135915060808601356001600160401b03811115613e1857600080fd5b613daf88828901613c99565b60008060408385031215613e3757600080fd5b8235613e4281614b0e565b91506020830135613d0481614b23565b60008060408385031215613e6557600080fd5b8235613e7081614b0e565b946020939093013593505050565b600080600060608486031215613e9357600080fd5b8351613e9e81614b0e565b602085015160408601519194509250613eb681614b23565b809150509250925092565b60008060008060808587031215613ed757600080fd5b8435613ee281614b0e565b966020860135965060408601359560600135945092505050565b60008060408385031215613f0f57600080fd5b82356001600160401b0380821115613f2657600080fd5b818501915085601f830112613f3a57600080fd5b81356020613f4782614891565b604051613f5482826149a9565b8381528281019150858301600585901b870184018b1015613f7457600080fd5b600096505b84871015613fa0578035613f8c81614b0e565b835260019690960195918301918301613f79565b5096505086013592505080821115613fb757600080fd5b50613fc485828601613c22565b9150509250929050565b60006020808385031215613fe157600080fd5b82516001600160401b03811115613ff757600080fd5b8301601f8101851361400857600080fd5b805161401381614891565b6040805161402183826149a9565b838152858101925084860160e0808602870188018b101561404157600080fd5b60009650865b868110156140c85781838d03121561405d578788fd5b845161406881614984565b83518152898401518a82015285840151868201526060808501519082015260808085015161409581614b0e565b9082015260a0848101519082015260c0808501516140b281614b23565b9082015286529488019491810191600101614047565b50919a9950505050505050505050565b6000602082840312156140ea57600080fd5b8151613b2581614b23565b60006020828403121561410757600080fd5b5035919050565b6000806040838503121561412157600080fd5b823591506020830135613d0481614b0e565b60006020828403121561414557600080fd5b8135613b2581614b31565b60006020828403121561416257600080fd5b8151613b2581614b31565b60006020828403121561417f57600080fd5b5051919050565b6000806040838503121561419957600080fd5b8235915060208301356001600160401b038111156141b657600080fd5b8301601f810185136141c757600080fd5b613fc485823560208401613bc5565b600080604083850312156141e957600080fd5b50508035926020909101359150565b60008060008060008060c0878903121561421157600080fd5b865195506020870151945060408701519350606087015161423181614b0e565b608088015160a0890151919450925061424981614b23565b809150509295509295509295565b6000806000806080858703121561426d57600080fd5b505082516020840151604085015160609095015191969095509092509050565b600081518084526020808501945080840160005b838110156142bd578151875295820195908201906001016142a1565b509495945050505050565b600081518084526142e0816020860160208601614902565b601f01601f19169290920160200192915050565b76020b1b1b2b9b9a1b7b73a3937b61d1030b1b1b7bab73a1604d1b815260008351614326816017850160208801614902565b7001034b99036b4b9b9b4b733903937b6329607d1b6017918401918201528351614357816028840160208801614902565b01602801949350505050565b6001600160a01b0391909116815260200190565b6001600160a01b0392831681529116602082015260400190565b6001600160a01b0386811682528516602082015260a0604082018190526000906143bd9083018661428d565b82810360608401526143cf818661428d565b905082810360808401526143e381856142c8565b98975050505050505050565b6001600160a01b039384168152919092166020820152604081019190915260600190565b6001600160a01b03868116825285166020820152604081018490526060810183905260a06080820181905260009061444d908301846142c8565b979650505050505050565b6001600160a01b03929092168252602082015260400190565b6001600160a01b039390931683526020830191909152604082015260600190565b6001600160a01b0394909416845260208401929092526040830152606082015260800190565b6001600160a01b039586168152602081019490945260408401929092526060830152909116608082015260a00190565b602080825282518282018190526000919060409081850190868401855b828110156145685781518051855286810151878601528581015186860152606080820151908601526080808201516001600160a01b03169086015260a0808201519086015260c09081015115159085015260e09093019290850190600101614505565b5091979650505050505050565b602080825282518282018190526000919060409081850190868401855b8281101561456857815180518552868101518786015285810151868601526060808201516001600160a01b03169086015260809081015115159085015260a09093019290850190600101614592565b602081526000613b25602083018461428d565b604081526000614607604083018561428d565b8281036020840152614619818561428d565b95945050505050565b602081526000613b2560208301846142c8565b602081016002831061465757634e487b7160e01b600052602160045260246000fd5b91905290565b60208082526028908201527f455243313135353a204552433131353552656365697665722072656a656374656040820152676420746f6b656e7360c01b606082015260800190565b6020808252601490820152734e6f2066756e647320746f20776974686472617760601b604082015260600190565b60208082526023908201527f596f7520617265206e6f7420746865206f776e6572206f66207468697320697460408201526232b69760e91b606082015260800190565b60208082526025908201527f436f6e7472616374206973206e6f74206163746976652061742074686973206d6040820152641bdb595b9d60da1b606082015260800190565b60208082526025908201527f455243313135353a207472616e7366657220746f20746865207a65726f206164604082015264647265737360d81b606082015260800190565b6020808252601d908201527f5573657220646f6573206e6f74206f776e732061204d7243727970746f000000604082015260600190565b6020808252602a908201527f455243313135353a20696e73756666696369656e742062616c616e636520666f60408201526939103a3930b739b332b960b11b606082015260800190565b60208082526021908201527f55736572206973206e6f7420746865204f776e6572206f7220616e2041646d696040820152603760f91b606082015260800190565b6020808252601590820152742ab9b2b91034b9903737ba103a34329037bbb732b960591b604082015260600190565b60006001600160401b038211156148aa576148aa614a54565b5060051b60200190565b600082198211156148c7576148c7614a12565b500190565b60008160001904831182151516156148e6576148e6614a12565b500290565b6000828210156148fd576148fd614a12565b500390565b60005b8381101561491d578181015183820152602001614905565b8381111561492c576000848401525b50505050565b60008161494157614941614a12565b506000190190565b600181811c9082168061495d57607f821691505b6020821081141561497e57634e487b7160e01b600052602260045260246000fd5b50919050565b60e081018181106001600160401b03821117156149a3576149a3614a54565b60405250565b601f8201601f191681016001600160401b03811182821017156149ce576149ce614a54565b6040525050565b60006000198214156149e9576149e9614a12565b5060010190565b600082614a0d57634e487b7160e01b600052601260045260246000fd5b500690565b634e487b7160e01b600052601160045260246000fd5b634e487b7160e01b600052602160045260246000fd5b634e487b7160e01b600052603260045260246000fd5b634e487b7160e01b600052604160045260246000fd5b600060033d111561160f5760046000803e5060005160e01c90565b600060443d1015614a935790565b6040516003193d81016004833e81513d6001600160401b038160248401118184111715614ac257505050505090565b8285019150815181811115614ada5750505050505090565b843d8701016020828501011115614af45750505050505090565b614b03602082860101876149a9565b509095945050505050565b6001600160a01b0381168114610d3c57600080fd5b8015158114610d3c57600080fd5b6001600160e01b031981168114610d3c57600080fdfec3d58168c5ae7397731d063d5bbf3d657854427343f4c083240f7aacaa2d0f62a26469706673582212203b7385ed6d685c78bb6fc20d4cbb0b05025c0fda45553d033c491ace57c0efee64736f6c63430008070033",
  "linkReferences": {},
  "deployedLinkReferences": {}
}