{
  "_format": "hh-sol-artifact-1",
  "contractName": "RacksItemsv2",
  "sourceName": "contracts/oldVersions/RacksItemsv2.sol",
  "abi": [
    {
      "inputs": [
        {
          "internalType": "address",
          "name": "vrfCoordinatorV2",
          "type": "address"
        },
        {
          "internalType": "bytes32",
          "name": "gasLane",
          "type": "bytes32"
        },
        {
          "internalType": "uint64",
          "name": "subscriptionId",
          "type": "uint64"
        },
        {
          "internalType": "uint32",
          "name": "callbackGasLimit",
          "type": "uint32"
        },
        {
          "internalType": "address",
          "name": "_racksTokenAddress",
          "type": "address"
        }
      ],
      "stateMutability": "nonpayable",
      "type": "constructor"
    },
    {
      "inputs": [
        {
          "internalType": "address",
          "name": "have",
          "type": "address"
        },
        {
          "internalType": "address",
          "name": "want",
          "type": "address"
        }
      ],
      "name": "OnlyCoordinatorCanFulfill",
      "type": "error"
    },
    {
      "anonymous": false,
      "inputs": [
        {
          "indexed": true,
          "internalType": "address",
          "name": "account",
          "type": "address"
        },
        {
          "indexed": true,
          "internalType": "address",
          "name": "operator",
          "type": "address"
        },
        {
          "indexed": false,
          "internalType": "bool",
          "name": "approved",
          "type": "bool"
        }
      ],
      "name": "ApprovalForAll",
      "type": "event"
    },
    {
      "anonymous": false,
      "inputs": [
        {
          "indexed": false,
          "internalType": "address",
          "name": "user",
          "type": "address"
        },
        {
          "indexed": false,
          "internalType": "uint256",
          "name": "casePrice",
          "type": "uint256"
        },
        {
          "indexed": false,
          "internalType": "uint256",
          "name": "item",
          "type": "uint256"
        }
      ],
      "name": "CaseOpened",
      "type": "event"
    },
    {
      "anonymous": false,
      "inputs": [
        {
          "indexed": true,
          "internalType": "bytes32",
          "name": "role",
          "type": "bytes32"
        },
        {
          "indexed": true,
          "internalType": "bytes32",
          "name": "previousAdminRole",
          "type": "bytes32"
        },
        {
          "indexed": true,
          "internalType": "bytes32",
          "name": "newAdminRole",
          "type": "bytes32"
        }
      ],
      "name": "RoleAdminChanged",
      "type": "event"
    },
    {
      "anonymous": false,
      "inputs": [
        {
          "indexed": true,
          "internalType": "bytes32",
          "name": "role",
          "type": "bytes32"
        },
        {
          "indexed": true,
          "internalType": "address",
          "name": "account",
          "type": "address"
        },
        {
          "indexed": true,
          "internalType": "address",
          "name": "sender",
          "type": "address"
        }
      ],
      "name": "RoleGranted",
      "type": "event"
    },
    {
      "anonymous": false,
      "inputs": [
        {
          "indexed": true,
          "internalType": "bytes32",
          "name": "role",
          "type": "bytes32"
        },
        {
          "indexed": true,
          "internalType": "address",
          "name": "account",
          "type": "address"
        },
        {
          "indexed": true,
          "internalType": "address",
          "name": "sender",
          "type": "address"
        }
      ],
      "name": "RoleRevoked",
      "type": "event"
    },
    {
      "anonymous": false,
      "inputs": [
        {
          "indexed": true,
          "internalType": "address",
          "name": "operator",
          "type": "address"
        },
        {
          "indexed": true,
          "internalType": "address",
          "name": "from",
          "type": "address"
        },
        {
          "indexed": true,
          "internalType": "address",
          "name": "to",
          "type": "address"
        },
        {
          "indexed": false,
          "internalType": "uint256[]",
          "name": "ids",
          "type": "uint256[]"
        },
        {
          "indexed": false,
          "internalType": "uint256[]",
          "name": "values",
          "type": "uint256[]"
        }
      ],
      "name": "TransferBatch",
      "type": "event"
    },
    {
      "anonymous": false,
      "inputs": [
        {
          "indexed": true,
          "internalType": "address",
          "name": "operator",
          "type": "address"
        },
        {
          "indexed": true,
          "internalType": "address",
          "name": "from",
          "type": "address"
        },
        {
          "indexed": true,
          "internalType": "address",
          "name": "to",
          "type": "address"
        },
        {
          "indexed": false,
          "internalType": "uint256",
          "name": "id",
          "type": "uint256"
        },
        {
          "indexed": false,
          "internalType": "uint256",
          "name": "value",
          "type": "uint256"
        }
      ],
      "name": "TransferSingle",
      "type": "event"
    },
    {
      "anonymous": false,
      "inputs": [
        {
          "indexed": false,
          "internalType": "string",
          "name": "value",
          "type": "string"
        },
        {
          "indexed": true,
          "internalType": "uint256",
          "name": "id",
          "type": "uint256"
        }
      ],
      "name": "URI",
      "type": "event"
    },
    {
      "anonymous": false,
      "inputs": [
        {
          "indexed": false,
          "internalType": "uint256",
          "name": "newPrice",
          "type": "uint256"
        }
      ],
      "name": "casePriceChanged",
      "type": "event"
    },
    {
      "anonymous": false,
      "inputs": [
        {
          "indexed": false,
          "internalType": "address",
          "name": "buyer",
          "type": "address"
        },
        {
          "indexed": false,
          "internalType": "address",
          "name": "seller",
          "type": "address"
        },
        {
          "indexed": false,
          "internalType": "uint256",
          "name": "marketItemId",
          "type": "uint256"
        },
        {
          "indexed": false,
          "internalType": "uint256",
          "name": "price",
          "type": "uint256"
        }
      ],
      "name": "itemBought",
      "type": "event"
    },
    {
      "anonymous": false,
      "inputs": [
        {
          "indexed": false,
          "internalType": "address",
          "name": "user",
          "type": "address"
        },
        {
          "indexed": false,
          "internalType": "uint256",
          "name": "tokenId",
          "type": "uint256"
        }
      ],
      "name": "itemExchanged",
      "type": "event"
    },
    {
      "anonymous": false,
      "inputs": [
        {
          "indexed": false,
          "internalType": "address",
          "name": "owner",
          "type": "address"
        },
        {
          "indexed": false,
          "internalType": "uint256",
          "name": "marketItemId",
          "type": "uint256"
        },
        {
          "indexed": false,
          "internalType": "uint256",
          "name": "oldPrice",
          "type": "uint256"
        },
        {
          "indexed": false,
          "internalType": "uint256",
          "name": "newPrice",
          "type": "uint256"
        }
      ],
      "name": "itemPriceChanged",
      "type": "event"
    },
    {
      "anonymous": false,
      "inputs": [
        {
          "indexed": false,
          "internalType": "address",
          "name": "seller",
          "type": "address"
        },
        {
          "indexed": false,
          "internalType": "uint256",
          "name": "numTries",
          "type": "uint256"
        },
        {
          "indexed": false,
          "internalType": "uint256",
          "name": "_hours",
          "type": "uint256"
        },
        {
          "indexed": false,
          "internalType": "uint256",
          "name": "price",
          "type": "uint256"
        }
      ],
      "name": "newTicketOnSale",
      "type": "event"
    },
    {
      "anonymous": false,
      "inputs": [
        {
          "indexed": false,
          "internalType": "address",
          "name": "user",
          "type": "address"
        },
        {
          "indexed": false,
          "internalType": "uint256",
          "name": "tokenId",
          "type": "uint256"
        },
        {
          "indexed": false,
          "internalType": "uint256",
          "name": "price",
          "type": "uint256"
        }
      ],
      "name": "sellingItem",
      "type": "event"
    },
    {
      "anonymous": false,
      "inputs": [
        {
          "indexed": false,
          "internalType": "uint256",
          "name": "ticketId",
          "type": "uint256"
        },
        {
          "indexed": false,
          "internalType": "address",
          "name": "oldOwner",
          "type": "address"
        },
        {
          "indexed": false,
          "internalType": "address",
          "name": "newOwner",
          "type": "address"
        },
        {
          "indexed": false,
          "internalType": "uint256",
          "name": "price",
          "type": "uint256"
        }
      ],
      "name": "ticketBought",
      "type": "event"
    },
    {
      "anonymous": false,
      "inputs": [
        {
          "indexed": false,
          "internalType": "address",
          "name": "borrower",
          "type": "address"
        },
        {
          "indexed": false,
          "internalType": "address",
          "name": "realOwner",
          "type": "address"
        }
      ],
      "name": "ticketClaimedBack",
      "type": "event"
    },
    {
      "anonymous": false,
      "inputs": [
        {
          "indexed": false,
          "internalType": "address",
          "name": "owner",
          "type": "address"
        },
        {
          "indexed": false,
          "internalType": "uint256",
          "name": "newTries",
          "type": "uint256"
        },
        {
          "indexed": false,
          "internalType": "uint256",
          "name": "newPrice",
          "type": "uint256"
        }
      ],
      "name": "ticketPriceChanged",
      "type": "event"
    },
    {
      "anonymous": false,
      "inputs": [
        {
          "indexed": false,
          "internalType": "address",
          "name": "owner",
          "type": "address"
        }
      ],
      "name": "unListTicketOnSale",
      "type": "event"
    },
    {
      "anonymous": false,
      "inputs": [
        {
          "indexed": false,
          "internalType": "address",
          "name": "owner",
          "type": "address"
        },
        {
          "indexed": false,
          "internalType": "uint256",
          "name": "marketItemId",
          "type": "uint256"
        }
      ],
      "name": "unListedItem",
      "type": "event"
    },
    {
      "inputs": [],
      "name": "ADMIN_ROLE",
      "outputs": [
        {
          "internalType": "bytes32",
          "name": "",
          "type": "bytes32"
        }
      ],
      "stateMutability": "view",
      "type": "function"
    },
    {
      "inputs": [],
      "name": "DEFAULT_ADMIN_ROLE",
      "outputs": [
        {
          "internalType": "bytes32",
          "name": "",
          "type": "bytes32"
        }
      ],
      "stateMutability": "view",
      "type": "function"
    },
    {
      "inputs": [],
      "name": "NUM_WORDS",
      "outputs": [
        {
          "internalType": "uint32",
          "name": "",
          "type": "uint32"
        }
      ],
      "stateMutability": "view",
      "type": "function"
    },
    {
      "inputs": [],
      "name": "REQUEST_CONFIRMATIONS",
      "outputs": [
        {
          "internalType": "uint16",
          "name": "",
          "type": "uint16"
        }
      ],
      "stateMutability": "view",
      "type": "function"
    },
    {
      "inputs": [],
      "name": "_randomNumber",
      "outputs": [
        {
          "internalType": "uint256",
          "name": "",
          "type": "uint256"
        }
      ],
      "stateMutability": "nonpayable",
      "type": "function"
    },
    {
      "inputs": [
        {
          "internalType": "uint256",
          "name": "tokenId",
          "type": "uint256"
        }
      ],
      "name": "_rarityOfItem",
      "outputs": [
        {
          "internalType": "uint256",
          "name": "",
          "type": "uint256"
        }
      ],
      "stateMutability": "view",
      "type": "function"
    },
    {
      "inputs": [
        {
          "internalType": "address",
          "name": "account",
          "type": "address"
        },
        {
          "internalType": "uint256",
          "name": "id",
          "type": "uint256"
        }
      ],
      "name": "balanceOf",
      "outputs": [
        {
          "internalType": "uint256",
          "name": "",
          "type": "uint256"
        }
      ],
      "stateMutability": "view",
      "type": "function"
    },
    {
      "inputs": [
        {
          "internalType": "address[]",
          "name": "accounts",
          "type": "address[]"
        },
        {
          "internalType": "uint256[]",
          "name": "ids",
          "type": "uint256[]"
        }
      ],
      "name": "balanceOfBatch",
      "outputs": [
        {
          "internalType": "uint256[]",
          "name": "",
          "type": "uint256[]"
        }
      ],
      "stateMutability": "view",
      "type": "function"
    },
    {
      "inputs": [
        {
          "internalType": "uint256",
          "name": "marketItemId",
          "type": "uint256"
        }
      ],
      "name": "buyItem",
      "outputs": [],
      "stateMutability": "nonpayable",
      "type": "function"
    },
    {
      "inputs": [
        {
          "internalType": "uint256",
          "name": "ticketId",
          "type": "uint256"
        }
      ],
      "name": "buyTicket",
      "outputs": [],
      "stateMutability": "nonpayable",
      "type": "function"
    },
    {
      "inputs": [],
      "name": "casePrice",
      "outputs": [
        {
          "internalType": "uint256",
          "name": "",
          "type": "uint256"
        }
      ],
      "stateMutability": "view",
      "type": "function"
    },
    {
      "inputs": [
        {
          "internalType": "uint256",
          "name": "marketItemId",
          "type": "uint256"
        },
        {
          "internalType": "uint256",
          "name": "newPrice",
          "type": "uint256"
        }
      ],
      "name": "changeItemPrice",
      "outputs": [],
      "stateMutability": "nonpayable",
      "type": "function"
    },
    {
      "inputs": [
        {
          "internalType": "uint256",
          "name": "ticketId",
          "type": "uint256"
        },
        {
          "internalType": "uint256",
          "name": "newTries",
          "type": "uint256"
        },
        {
          "internalType": "uint256",
          "name": "newPrice",
          "type": "uint256"
        }
      ],
      "name": "changeTicketConditions",
      "outputs": [],
      "stateMutability": "nonpayable",
      "type": "function"
    },
    {
      "inputs": [
        {
          "internalType": "uint256",
          "name": "ticketId",
          "type": "uint256"
        }
      ],
      "name": "claimTicketBack",
      "outputs": [],
      "stateMutability": "nonpayable",
      "type": "function"
    },
    {
      "inputs": [],
      "name": "contractActive",
      "outputs": [
        {
          "internalType": "bool",
          "name": "",
          "type": "bool"
        }
      ],
      "stateMutability": "view",
      "type": "function"
    },
    {
      "inputs": [
        {
          "internalType": "address",
          "name": "user",
          "type": "address"
        }
      ],
      "name": "decreaseTicketTries",
      "outputs": [],
      "stateMutability": "nonpayable",
      "type": "function"
    },
    {
      "inputs": [
        {
          "internalType": "uint256",
          "name": "marketItemId",
          "type": "uint256"
        }
      ],
      "name": "exchangeItem",
      "outputs": [],
      "stateMutability": "nonpayable",
      "type": "function"
    },
    {
      "inputs": [],
      "name": "flipContractState",
      "outputs": [],
      "stateMutability": "nonpayable",
      "type": "function"
    },
    {
      "inputs": [],
      "name": "getCasePrice",
      "outputs": [
        {
          "internalType": "uint256",
          "name": "",
          "type": "uint256"
        }
      ],
      "stateMutability": "view",
      "type": "function"
    },
    {
      "inputs": [],
      "name": "getITicketsOnSale",
      "outputs": [
        {
          "components": [
            {
              "internalType": "uint256",
              "name": "ticketId",
              "type": "uint256"
            },
            {
              "internalType": "uint256",
              "name": "numTries",
              "type": "uint256"
            },
            {
              "internalType": "uint256",
              "name": "duration",
              "type": "uint256"
            },
            {
              "internalType": "uint256",
              "name": "price",
              "type": "uint256"
            },
            {
              "internalType": "address",
              "name": "owner",
              "type": "address"
            },
            {
              "internalType": "uint256",
              "name": "timeWhenSold",
              "type": "uint256"
            },
            {
              "internalType": "bool",
              "name": "isAvaliable",
              "type": "bool"
            }
          ],
          "internalType": "struct RacksItemsv2.caseTicket[]",
          "name": "",
          "type": "tuple[]"
        }
      ],
      "stateMutability": "view",
      "type": "function"
    },
    {
      "inputs": [],
      "name": "getItemsOnSale",
      "outputs": [
        {
          "components": [
            {
              "internalType": "uint256",
              "name": "tokenId",
              "type": "uint256"
            },
            {
              "internalType": "uint256",
              "name": "marketItemId",
              "type": "uint256"
            },
            {
              "internalType": "uint256",
              "name": "price",
              "type": "uint256"
            },
            {
              "internalType": "address",
              "name": "seller",
              "type": "address"
            },
            {
              "internalType": "bool",
              "name": "sold",
              "type": "bool"
            }
          ],
          "internalType": "struct RacksItemsv2.itemOnSale[]",
          "name": "",
          "type": "tuple[]"
        }
      ],
      "stateMutability": "view",
      "type": "function"
    },
    {
      "inputs": [
        {
          "internalType": "uint256",
          "name": "marketItemId",
          "type": "uint256"
        }
      ],
      "name": "getMarketItem",
      "outputs": [
        {
          "components": [
            {
              "internalType": "uint256",
              "name": "tokenId",
              "type": "uint256"
            },
            {
              "internalType": "uint256",
              "name": "marketItemId",
              "type": "uint256"
            },
            {
              "internalType": "uint256",
              "name": "price",
              "type": "uint256"
            },
            {
              "internalType": "address",
              "name": "seller",
              "type": "address"
            },
            {
              "internalType": "bool",
              "name": "sold",
              "type": "bool"
            }
          ],
          "internalType": "struct RacksItemsv2.itemOnSale",
          "name": "",
          "type": "tuple"
        }
      ],
      "stateMutability": "view",
      "type": "function"
    },
    {
      "inputs": [
        {
          "internalType": "uint256",
          "name": "ticketId",
          "type": "uint256"
        }
      ],
      "name": "getMarketTicket",
      "outputs": [
        {
          "components": [
            {
              "internalType": "uint256",
              "name": "ticketId",
              "type": "uint256"
            },
            {
              "internalType": "uint256",
              "name": "numTries",
              "type": "uint256"
            },
            {
              "internalType": "uint256",
              "name": "duration",
              "type": "uint256"
            },
            {
              "internalType": "uint256",
              "name": "price",
              "type": "uint256"
            },
            {
              "internalType": "address",
              "name": "owner",
              "type": "address"
            },
            {
              "internalType": "uint256",
              "name": "timeWhenSold",
              "type": "uint256"
            },
            {
              "internalType": "bool",
              "name": "isAvaliable",
              "type": "bool"
            }
          ],
          "internalType": "struct RacksItemsv2.caseTicket",
          "name": "",
          "type": "tuple"
        }
      ],
      "stateMutability": "view",
      "type": "function"
    },
    {
      "inputs": [
        {
          "internalType": "bytes32",
          "name": "role",
          "type": "bytes32"
        }
      ],
      "name": "getRoleAdmin",
      "outputs": [
        {
          "internalType": "bytes32",
          "name": "",
          "type": "bytes32"
        }
      ],
      "stateMutability": "view",
      "type": "function"
    },
    {
      "inputs": [
        {
          "internalType": "bytes32",
          "name": "role",
          "type": "bytes32"
        },
        {
          "internalType": "address",
          "name": "account",
          "type": "address"
        }
      ],
      "name": "grantRole",
      "outputs": [],
      "stateMutability": "nonpayable",
      "type": "function"
    },
    {
      "inputs": [
        {
          "internalType": "bytes32",
          "name": "role",
          "type": "bytes32"
        },
        {
          "internalType": "address",
          "name": "account",
          "type": "address"
        }
      ],
      "name": "hasRole",
      "outputs": [
        {
          "internalType": "bool",
          "name": "",
          "type": "bool"
        }
      ],
      "stateMutability": "view",
      "type": "function"
    },
    {
      "inputs": [],
      "name": "i_MrCryptoAddress",
      "outputs": [
        {
          "internalType": "address",
          "name": "",
          "type": "address"
        }
      ],
      "stateMutability": "view",
      "type": "function"
    },
    {
      "inputs": [],
      "name": "i_callbackGasLimit",
      "outputs": [
        {
          "internalType": "uint32",
          "name": "",
          "type": "uint32"
        }
      ],
      "stateMutability": "view",
      "type": "function"
    },
    {
      "inputs": [],
      "name": "i_gasLane",
      "outputs": [
        {
          "internalType": "bytes32",
          "name": "",
          "type": "bytes32"
        }
      ],
      "stateMutability": "view",
      "type": "function"
    },
    {
      "inputs": [],
      "name": "i_subscriptionId",
      "outputs": [
        {
          "internalType": "uint64",
          "name": "",
          "type": "uint64"
        }
      ],
      "stateMutability": "view",
      "type": "function"
    },
    {
      "inputs": [],
      "name": "i_vrfCoordinator",
      "outputs": [
        {
          "internalType": "contract VRFCoordinatorV2Interface",
          "name": "",
          "type": "address"
        }
      ],
      "stateMutability": "view",
      "type": "function"
    },
    {
      "inputs": [
        {
          "internalType": "address",
          "name": "account",
          "type": "address"
        },
        {
          "internalType": "address",
          "name": "operator",
          "type": "address"
        }
      ],
      "name": "isApprovedForAll",
      "outputs": [
        {
          "internalType": "bool",
          "name": "",
          "type": "bool"
        }
      ],
      "stateMutability": "view",
      "type": "function"
    },
    {
      "inputs": [
        {
          "internalType": "address",
          "name": "user",
          "type": "address"
        }
      ],
      "name": "isVip",
      "outputs": [
        {
          "internalType": "bool",
          "name": "",
          "type": "bool"
        }
      ],
      "stateMutability": "view",
      "type": "function"
    },
    {
      "inputs": [
        {
          "internalType": "uint256",
          "name": "itemSupply",
          "type": "uint256"
        }
      ],
      "name": "listItem",
      "outputs": [],
      "stateMutability": "nonpayable",
      "type": "function"
    },
    {
      "inputs": [
        {
          "internalType": "uint256",
          "name": "numTries",
          "type": "uint256"
        },
        {
          "internalType": "uint256",
          "name": "_hours",
          "type": "uint256"
        },
        {
          "internalType": "uint256",
          "name": "price",
          "type": "uint256"
        }
      ],
      "name": "listTicket",
      "outputs": [],
      "stateMutability": "nonpayable",
      "type": "function"
    },
    {
      "inputs": [
        {
          "internalType": "address",
          "name": "",
          "type": "address"
        },
        {
          "internalType": "address",
          "name": "",
          "type": "address"
        },
        {
          "internalType": "uint256[]",
          "name": "",
          "type": "uint256[]"
        },
        {
          "internalType": "uint256[]",
          "name": "",
          "type": "uint256[]"
        },
        {
          "internalType": "bytes",
          "name": "",
          "type": "bytes"
        }
      ],
      "name": "onERC1155BatchReceived",
      "outputs": [
        {
          "internalType": "bytes4",
          "name": "",
          "type": "bytes4"
        }
      ],
      "stateMutability": "nonpayable",
      "type": "function"
    },
    {
      "inputs": [
        {
          "internalType": "address",
          "name": "",
          "type": "address"
        },
        {
          "internalType": "address",
          "name": "",
          "type": "address"
        },
        {
          "internalType": "uint256",
          "name": "",
          "type": "uint256"
        },
        {
          "internalType": "uint256",
          "name": "",
          "type": "uint256"
        },
        {
          "internalType": "bytes",
          "name": "",
          "type": "bytes"
        }
      ],
      "name": "onERC1155Received",
      "outputs": [
        {
          "internalType": "bytes4",
          "name": "",
          "type": "bytes4"
        }
      ],
      "stateMutability": "nonpayable",
      "type": "function"
    },
    {
      "inputs": [],
      "name": "openCase",
      "outputs": [],
      "stateMutability": "nonpayable",
      "type": "function"
    },
    {
      "inputs": [
        {
          "internalType": "uint256",
          "name": "requestId",
          "type": "uint256"
        },
        {
          "internalType": "uint256[]",
          "name": "randomWords",
          "type": "uint256[]"
        }
      ],
      "name": "rawFulfillRandomWords",
      "outputs": [],
      "stateMutability": "nonpayable",
      "type": "function"
    },
    {
      "inputs": [
        {
          "internalType": "address[]",
          "name": "users",
          "type": "address[]"
        }
      ],
      "name": "removeListRacksMembers",
      "outputs": [],
      "stateMutability": "nonpayable",
      "type": "function"
    },
    {
      "inputs": [
        {
          "internalType": "address",
          "name": "user",
          "type": "address"
        }
      ],
      "name": "removeSingleRacksMember",
      "outputs": [],
      "stateMutability": "nonpayable",
      "type": "function"
    },
    {
      "inputs": [
        {
          "internalType": "bytes32",
          "name": "role",
          "type": "bytes32"
        },
        {
          "internalType": "address",
          "name": "account",
          "type": "address"
        }
      ],
      "name": "renounceRole",
      "outputs": [],
      "stateMutability": "nonpayable",
      "type": "function"
    },
    {
      "inputs": [
        {
          "internalType": "bytes32",
          "name": "role",
          "type": "bytes32"
        },
        {
          "internalType": "address",
          "name": "account",
          "type": "address"
        }
      ],
      "name": "revokeRole",
      "outputs": [],
      "stateMutability": "nonpayable",
      "type": "function"
    },
    {
      "inputs": [],
      "name": "s_contractState",
      "outputs": [
        {
          "internalType": "enum RacksItemsv2.ContractState",
          "name": "",
          "type": "uint8"
        }
      ],
      "stateMutability": "view",
      "type": "function"
    },
    {
      "inputs": [],
      "name": "s_randomWord",
      "outputs": [
        {
          "internalType": "uint256",
          "name": "",
          "type": "uint256"
        }
      ],
      "stateMutability": "view",
      "type": "function"
    },
    {
      "inputs": [
        {
          "internalType": "address",
          "name": "from",
          "type": "address"
        },
        {
          "internalType": "address",
          "name": "to",
          "type": "address"
        },
        {
          "internalType": "uint256[]",
          "name": "ids",
          "type": "uint256[]"
        },
        {
          "internalType": "uint256[]",
          "name": "amounts",
          "type": "uint256[]"
        },
        {
          "internalType": "bytes",
          "name": "data",
          "type": "bytes"
        }
      ],
      "name": "safeBatchTransferFrom",
      "outputs": [],
      "stateMutability": "nonpayable",
      "type": "function"
    },
    {
      "inputs": [
        {
          "internalType": "address",
          "name": "from",
          "type": "address"
        },
        {
          "internalType": "address",
          "name": "to",
          "type": "address"
        },
        {
          "internalType": "uint256",
          "name": "id",
          "type": "uint256"
        },
        {
          "internalType": "uint256",
          "name": "amount",
          "type": "uint256"
        },
        {
          "internalType": "bytes",
          "name": "data",
          "type": "bytes"
        }
      ],
      "name": "safeTransferFrom",
      "outputs": [],
      "stateMutability": "nonpayable",
      "type": "function"
    },
    {
      "inputs": [
        {
          "internalType": "uint256",
          "name": "marketItemId",
          "type": "uint256"
        },
        {
          "internalType": "uint256",
          "name": "price",
          "type": "uint256"
        }
      ],
      "name": "sellItem",
      "outputs": [],
      "stateMutability": "nonpayable",
      "type": "function"
    },
    {
      "inputs": [
        {
          "internalType": "address",
          "name": "_newAdmin",
          "type": "address"
        }
      ],
      "name": "setAdmin",
      "outputs": [],
      "stateMutability": "nonpayable",
      "type": "function"
    },
    {
      "inputs": [
        {
          "internalType": "address",
          "name": "operator",
          "type": "address"
        },
        {
          "internalType": "bool",
          "name": "approved",
          "type": "bool"
        }
      ],
      "name": "setApprovalForAll",
      "outputs": [],
      "stateMutability": "nonpayable",
      "type": "function"
    },
    {
      "inputs": [
        {
          "internalType": "uint256",
          "name": "price",
          "type": "uint256"
        }
      ],
      "name": "setCasePrice",
      "outputs": [],
      "stateMutability": "nonpayable",
      "type": "function"
    },
    {
      "inputs": [
        {
          "internalType": "address[]",
          "name": "users",
          "type": "address[]"
        }
      ],
      "name": "setListRacksMembers",
      "outputs": [],
      "stateMutability": "nonpayable",
      "type": "function"
    },
    {
      "inputs": [
        {
          "internalType": "address",
          "name": "user",
          "type": "address"
        }
      ],
      "name": "setSingleRacksMember",
      "outputs": [],
      "stateMutability": "nonpayable",
      "type": "function"
    },
    {
      "inputs": [
        {
          "internalType": "uint256",
          "name": "tokenId",
          "type": "uint256"
        },
        {
          "internalType": "string",
          "name": "_uri",
          "type": "string"
        }
      ],
      "name": "setTokenUri",
      "outputs": [],
      "stateMutability": "nonpayable",
      "type": "function"
    },
    {
      "inputs": [
        {
          "internalType": "uint256",
          "name": "tokenId",
          "type": "uint256"
        }
      ],
      "name": "supplyOfItem",
      "outputs": [
        {
          "internalType": "uint256",
          "name": "",
          "type": "uint256"
        }
      ],
      "stateMutability": "view",
      "type": "function"
    },
    {
      "inputs": [
        {
          "internalType": "bytes4",
          "name": "interfaceId",
          "type": "bytes4"
        }
      ],
      "name": "supportsInterface",
      "outputs": [
        {
          "internalType": "bool",
          "name": "",
          "type": "bool"
        }
      ],
      "stateMutability": "view",
      "type": "function"
    },
    {
      "inputs": [
        {
          "internalType": "uint256",
          "name": "marketItemId",
          "type": "uint256"
        }
      ],
      "name": "unListItem",
      "outputs": [],
      "stateMutability": "nonpayable",
      "type": "function"
    },
    {
      "inputs": [
        {
          "internalType": "uint256",
          "name": "ticketId",
          "type": "uint256"
        }
      ],
      "name": "unListTicket",
      "outputs": [],
      "stateMutability": "nonpayable",
      "type": "function"
    },
    {
      "inputs": [
        {
          "internalType": "uint256",
          "name": "tokenId",
          "type": "uint256"
        }
      ],
      "name": "uri",
      "outputs": [
        {
          "internalType": "string",
          "name": "",
          "type": "string"
        }
      ],
      "stateMutability": "view",
      "type": "function"
    },
    {
      "inputs": [
        {
          "internalType": "address",
          "name": "owner",
          "type": "address"
        }
      ],
      "name": "viewItems",
      "outputs": [
        {
          "internalType": "uint256[]",
          "name": "",
          "type": "uint256[]"
        }
      ],
      "stateMutability": "view",
      "type": "function"
    },
    {
      "inputs": [
        {
          "internalType": "address",
          "name": "wallet",
          "type": "address"
        }
      ],
      "name": "withdrawAllFunds",
      "outputs": [],
      "stateMutability": "nonpayable",
      "type": "function"
    },
    {
      "inputs": [
        {
          "internalType": "address",
          "name": "wallet",
          "type": "address"
        },
        {
          "internalType": "uint256",
          "name": "amount",
          "type": "uint256"
        }
      ],
      "name": "withdrawFunds",
      "outputs": [],
      "stateMutability": "nonpayable",
      "type": "function"
    },
    {
      "stateMutability": "payable",
      "type": "receive"
    }
  ],
  "bytecode": "0x610120604052600c805460ff191660011790553480156200001f57600080fd5b50604051620053ad380380620053ad8339810160408190526200004291620001ec565b60408051602081019091526000815285906200005e8162000110565b50606090811b6001600160601b031990811660805295901b90941660a05260c0928352911b6001600160c01b03191660e09081521b6001600160e01b031916610100526004805473ef453154766505feb9dbf0a58e6990fd6eb669696001600160a01b0319918216179091556005805482166001600160a01b0393909316929092179091556006805433921691909117905560006008819055600a556001600b55600c805461ff0019169055620002a9565b80516200012590600290602084019062000129565b5050565b82805462000137906200026c565b90600052602060002090601f0160209004810192826200015b5760008555620001a6565b82601f106200017657805160ff1916838001178555620001a6565b82800160010185558215620001a6579182015b82811115620001a657825182559160200191906001019062000189565b50620001b4929150620001b8565b5090565b5b80821115620001b45760008155600101620001b9565b80516001600160a01b0381168114620001e757600080fd5b919050565b600080600080600060a086880312156200020557600080fd5b6200021086620001cf565b6020870151604088015191965094506001600160401b03811681146200023557600080fd5b606087015190935063ffffffff811681146200025057600080fd5b91506200026060808701620001cf565b90509295509295909350565b600181811c908216806200028157607f821691505b60208210811415620002a357634e487b7160e01b600052602260045260246000fd5b50919050565b60805160601c60a05160601c60c05160e05160c01c6101005160e01c6150906200031d60003960008181610a71015261196a01526000818161059201526119370152600081816107fc01526119090152600081816108c501526119a5015260008181610de90152610e2b01526150906000f3fe6080604052600436106103305760003560e01c80638ba8b15a116101a7578063c1075329116100ed578063e289fcb611610090578063e289fcb614610ad5578063e7fb74c714610aef578063e985e9c514610b0f578063ebf82e5c14610b58578063f23a6e6114610b78578063f242432a14610ba4578063f48c9d3414610bc4578063fd210fd914610be457600080fd5b8063c1075329146109bc578063c7be7a49146109dc578063c7e05f8d14610a09578063ca90958f14610a29578063d547741f14610a3f578063d757d02714610a5f578063dd006d3114610a93578063de08f65314610ac057600080fd5b8063a7b1942411610155578063a7b1942414610873578063a7bc77c614610893578063aebc4550146108b3578063b2ead3c7146108e7578063b63b861214610909578063b85e67af14610935578063bbcbc2e714610955578063bc197c811461097757600080fd5b80638ba8b15a146107aa5780638dc5f45b146107ca5780638e879c8a146107ea57806391d148541461081e578063976298f31461083e578063a217fddf14610735578063a22cb4651461085357600080fd5b8063470cdf971161027757806367dd74ca1161021a57806367dd74ca146106a357806367f082b0146106c3578063704b6c02146106eb57806372cf6e341461070b57806375b238fc146107355780637e420db51461074a57806384203f4b1461076a57806389165aa91461078a57600080fd5b8063470cdf97146105805780634a226657146105cc5780634e1273f4146105e15780635408c3191461060e57806354e889f61461062e57806357f7789e1461064e578063616524501461066e57806361c073d61461068357600080fd5b8063248a9ca3116102df578063248a9ca3146104705780632ce38190146104a05780632d923561146104c05780632eb2c2d6146104e05780632f2ff15d1461050057806330dc27641461052057806332dee40b1461054057806336568abe1461056057600080fd5b8062fdd58e1461033c57806301ffc9a71461036f5780630e89341c1461039f578063109b8278146103cc5780631cb0b273146104015780631fe543e31461042357806320ba08141461044357600080fd5b3661033757005b600080fd5b34801561034857600080fd5b5061035c61035736600461450e565b610bfa565b6040519081526020015b60405180910390f35b34801561037b57600080fd5b5061038f61038a366004614630565b610c94565b6040519015158152602001610366565b3480156103ab57600080fd5b506103bf6103ba3660046145f4565b610c9f565b6040516103669190614aeb565b3480156103d857600080fd5b506103f473ef453154766505feb9dbf0a58e6990fd6eb6696981565b60405161036691906148b7565b34801561040d57600080fd5b5061042161041c3660046145f4565b610d41565b005b34801561042f57600080fd5b5061042161043e366004614683565b610dde565b34801561044f57600080fd5b5061035c61045e3660046145f4565b60009081526011602052604090205490565b34801561047c57600080fd5b5061035c61048b3660046145f4565b60009081526003602052604090206001015490565b3480156104ac57600080fd5b506104216104bb3660046145f4565b610e66565b3480156104cc57600080fd5b506104216104db36600461470f565b610e98565b3480156104ec57600080fd5b506104216104fb3660046143ca565b61105a565b34801561050c57600080fd5b5061042161051b36600461460d565b6110f1565b34801561052c57600080fd5b5061042161053b36600461437c565b61111b565b34801561054c57600080fd5b5061042161055b36600461437c565b61126c565b34801561056c57600080fd5b5061042161057b36600461460d565b6113b8565b34801561058c57600080fd5b506105b47f000000000000000000000000000000000000000000000000000000000000000081565b6040516001600160401b039091168152602001610366565b3480156105d857600080fd5b50610421611432565b3480156105ed57600080fd5b506106016105fc366004614574565b611657565b6040516103669190614a82565b34801561061a57600080fd5b50610421610629366004614538565b611780565b34801561063a57600080fd5b5061042161064936600461437c565b61180d565b34801561065a57600080fd5b506104216106693660046146bf565b611856565b34801561067a57600080fd5b5061035c6118fa565b34801561068f57600080fd5b5061042161069e3660046145f4565b611a21565b3480156106af57600080fd5b506104216106be3660046145f4565b611c48565b3480156106cf57600080fd5b506106d8600381565b60405161ffff9091168152602001610366565b3480156106f757600080fd5b5061042161070636600461437c565b612098565b34801561071757600080fd5b50610720600281565b60405163ffffffff9091168152602001610366565b34801561074157600080fd5b5061035c600081565b34801561075657600080fd5b506104216107653660046145f4565b6120cd565b34801561077657600080fd5b5061038f61078536600461437c565b6121f4565b34801561079657600080fd5b506104216107a5366004614538565b6122ad565b3480156107b657600080fd5b506104216107c536600461437c565b61233a565b3480156107d657600080fd5b506104216107e53660046145f4565b612380565b3480156107f657600080fd5b5061035c7f000000000000000000000000000000000000000000000000000000000000000081565b34801561082a57600080fd5b5061038f61083936600461460d565b6123da565b34801561084a57600080fd5b50600b5461035c565b34801561085f57600080fd5b5061042161086e3660046144d7565b612405565b34801561087f57600080fd5b5061042161088e36600461470f565b612410565b34801561089f57600080fd5b506104216108ae3660046145f4565b6124ee565b3480156108bf57600080fd5b506103f47f000000000000000000000000000000000000000000000000000000000000000081565b3480156108f357600080fd5b506108fc6125d0565b60405161036691906149f2565b34801561091557600080fd5b50600c5461092890610100900460ff1681565b6040516103669190614ac3565b34801561094157600080fd5b50610421610950366004614731565b6127cd565b34801561096157600080fd5b5061096a612aa4565b6040516103669190614a40565b34801561098357600080fd5b506109a36109923660046143ca565b63bc197c8160e01b95945050505050565b6040516001600160e01b03199091168152602001610366565b3480156109c857600080fd5b506104216109d736600461450e565b612c70565b3480156109e857600080fd5b506109fc6109f73660046145f4565b612dbc565b6040516103669190614d93565b348015610a1557600080fd5b5061035c610a243660046145f4565b612e3a565b348015610a3557600080fd5b5061035c600b5481565b348015610a4b57600080fd5b50610421610a5a36600461460d565b612e71565b348015610a6b57600080fd5b506107207f000000000000000000000000000000000000000000000000000000000000000081565b348015610a9f57600080fd5b50610ab3610aae3660046145f4565b612e96565b6040516103669190614d85565b348015610acc57600080fd5b50610421612f24565b348015610ae157600080fd5b50600c5461038f9060ff1681565b348015610afb57600080fd5b50610421610b0a3660046145f4565b612f8b565b348015610b1b57600080fd5b5061038f610b2a366004614397565b6001600160a01b03918216600090815260016020908152604080832093909416825291909152205460ff1690565b348015610b6457600080fd5b50610421610b73366004614731565b613169565b348015610b8457600080fd5b506109a3610b93366004614473565b63f23a6e6160e01b95945050505050565b348015610bb057600080fd5b50610421610bbf366004614473565b613299565b348015610bd057600080fd5b50610601610bdf36600461437c565b613320565b348015610bf057600080fd5b5061035c600f5481565b60006001600160a01b038316610c6b5760405162461bcd60e51b815260206004820152602b60248201527f455243313135353a2062616c616e636520717565727920666f7220746865207a60448201526a65726f206164647265737360a81b60648201526084015b60405180910390fd5b506000818152602081815260408083206001600160a01b03861684529091529020545b92915050565b6000610c8e826133b6565b6000818152601260205260409020805460609190610cbc90614e6d565b80601f0160208091040260200160405190810160405280929190818152602001828054610ce890614e6d565b8015610d355780601f10610d0a57610100808354040283529160200191610d35565b820191906000526020600020905b815481529060010190602001808311610d1857829003601f168201915b50505050509050919050565b6000610d4d3383610bfa565b11610d5757600080fd5b610d63338260016133db565b6000818152601160205260408120805460019290610d82908490614e0f565b92505081905550600160076000828254610d9c9190614e0f565b90915550506040517f9e90d55d2f1f115ffe1b87372c45f27f6b3a2b5ba392942167be78456189009490610dd39033908490614992565b60405180910390a150565b336001600160a01b037f00000000000000000000000000000000000000000000000000000000000000001614610e585760405163073e64fd60e21b81523360048201526001600160a01b037f0000000000000000000000000000000000000000000000000000000000000000166024820152604401610c62565b610e62828261354a565b5050565b610e6f3361356f565b610e8b5760405162461bcd60e51b8152600401610c6290614cc1565b610e95308261359d565b50565b6000610ea43384610bfa565b11610ee35760405162461bcd60e51b815260206004820152600f60248201526e24ba32b6903737ba103337bab7321760891b6044820152606401610c62565b610f00333084600160405180602001604052806000815250613608565b6040805160a08101825283815260098054602083019081529282018481523360608401908152600060808501818152600d8054600181018255908352955160049096027fd7b6990105719101dabeb77144f2a3385c8033acd3af97e9423a695e81ad1eb581019690965595517fd7b6990105719101dabeb77144f2a3385c8033acd3af97e9423a695e81ad1eb686015591517fd7b6990105719101dabeb77144f2a3385c8033acd3af97e9423a695e81ad1eb7850155517fd7b6990105719101dabeb77144f2a3385c8033acd3af97e9423a695e81ad1eb8909301805494511515600160a01b026001600160a81b03199095166001600160a01b0394909416939093179390931790915580549161101683614ed4565b91905055507f23cba88d6c6f26b62b2cfc32a2cc04fbbde8590188b97cd3590e45af9ac6dd6d33838360405161104e939291906149ab565b60405180910390a15050565b6001600160a01b03851633148061107657506110768533610b2a565b6110dd5760405162461bcd60e51b815260206004820152603260248201527f455243313135353a207472616e736665722063616c6c6572206973206e6f74206044820152711bdddb995c881b9bdc88185c1c1c9bdd995960721b6064820152608401610c62565b6110ea8585858585613720565b5050505050565b60008281526003602052604090206001015461110c816138fd565b6111168383613907565b505050565b60005b600e54811015610e6257816001600160a01b0316600e828154811061114557611145614f45565b60009182526020909120600460079092020101546001600160a01b0316141561125a57600e818154811061117b5761117b614f45565b9060005260206000209060070201600101546001146111cf57600e81815481106111a7576111a7614f45565b6000918252602082206001600790920201018054916111c583614e56565b919050555061125a565b600e81815481106111e2576111e2614f45565b60009182526020822060016007909202010180549161120083614e56565b91905055506000600e828154811061121a5761121a614f45565b60009182526020808320600660079093020191909101805493151560ff199485161790556001600160a01b03851682526014905260409020805490911690555b8061126481614ed4565b91505061111e565b6006546001600160a01b031633146112965760405162461bcd60e51b8152600401610c6290614d02565b6005546040516370a0823160e01b81526000916001600160a01b0316906370a08231906112c79030906004016148b7565b60206040518083038186803b1580156112df57600080fd5b505afa1580156112f3573d6000803e3d6000fd5b505050506040513d601f19601f82011682018060405250810190611317919061466a565b116113345760405162461bcd60e51b8152600401610c6290614bc1565b60055460405163a9059cbb60e01b81526001600160a01b039091169063a9059cbb906113669084904790600401614992565b602060405180830381600087803b15801561138057600080fd5b505af1158015611394573d6000803e3d6000fd5b505050506040513d601f19601f82011682018060405250810190610e6291906145d7565b6001600160a01b03811633146114285760405162461bcd60e51b815260206004820152602f60248201527f416363657373436f6e74726f6c3a2063616e206f6e6c792072656e6f756e636560448201526e103937b632b9903337b91039b2b63360891b6064820152608401610c62565b610e62828261398d565b6000600c54610100900460ff16600181111561145057611450614f2f565b146114ab5760405162461bcd60e51b815260206004820152602560248201527f436f6e7472616374206973206e6f74206163746976652061742074686973206d6044820152641bdb595b9d60da1b6064820152608401610c62565b600554600b546040516323b872dd60e01b81526001600160a01b03909216916323b872dd916114e09133913091600401614929565b602060405180830381600087803b1580156114fa57600080fd5b505af115801561150e573d6000803e3d6000fd5b505050506040513d601f19601f8201168201806040525081019061153291906145d7565b5060006007546115406118fa565b61154a9190614eef565b9050600080805b60085481101561160b576000818152601160205260408120546115749085614dc4565b905080851115611586578093506115f8565b8192506115933084610bfa565b6115d55760006115a4600185614e0f565b90505b60006115b33083610bfa565b11156115c1578093506115d3565b806115cb81614e56565b9150506115a7565b505b6115f2303385600160405180602001604052806000815250613608565b5061160b565b508061160381614ed4565b915050611551565b506116153361111b565b7fea32e37a2618dbb680c93d891742e9e13b30d184822562a0ee3c09290fd42b4333600b548360405161164a939291906149ab565b60405180910390a1505050565b606081518351146116bc5760405162461bcd60e51b815260206004820152602960248201527f455243313135353a206163636f756e747320616e6420696473206c656e677468604482015268040dad2e6dac2e8c6d60bb1b6064820152608401610c62565b600083516001600160401b038111156116d7576116d7614f5b565b604051908082528060200260200182016040528015611700578160200160208202803683370190505b50905060005b84518110156117785761174b85828151811061172457611724614f45565b602002602001015185838151811061173e5761173e614f45565b6020026020010151610bfa565b82828151811061175d5761175d614f45565b602090810291909101015261177181614ed4565b9050611706565b509392505050565b6117893361356f565b6117a55760405162461bcd60e51b8152600401610c6290614cc1565b60005b8151811015610e62576000601060008484815181106117c9576117c9614f45565b6020908102919091018101516001600160a01b03168252810191909152604001600020805460ff19169115159190911790558061180581614ed4565b9150506117a8565b6118163361356f565b6118325760405162461bcd60e51b8152600401610c6290614cc1565b6001600160a01b03166000908152601060205260409020805460ff19166001179055565b61185f3361356f565b61187b5760405162461bcd60e51b8152600401610c6290614cc1565b6000828152601260205260409020805461189490614e6d565b1590506118db5760405162461bcd60e51b815260206004820152601560248201527443616e206e6f74207365742075726920747769636560581b6044820152606401610c62565b60008281526012602090815260409091208251611116928401906140e0565b6040516305d3b1d360e41b81527f000000000000000000000000000000000000000000000000000000000000000060048201526001600160401b037f00000000000000000000000000000000000000000000000000000000000000001660248201526003604482015263ffffffff7f00000000000000000000000000000000000000000000000000000000000000001660648201526002608482015260009081906001600160a01b037f00000000000000000000000000000000000000000000000000000000000000001690635d3b1d309060a401602060405180830381600087803b1580156119e957600080fd5b505af11580156119fd573d6000803e3d6000fd5b505050506040513d601f19601f82011682018060405250810190610c8e919061466a565b611a2a336121f4565b611a465760405162461bcd60e51b8152600401610c6290614d31565b3360009081526015602052604090205460ff16611aa55760405162461bcd60e51b815260206004820152601c60248201527f5573657220646964206e6f742073656c6c20616e79205469636b6574000000006044820152606401610c62565b603c600e8281548110611aba57611aba614f45565b906000526020600020906007020160020154611ad69190614ddc565b42600e8381548110611aea57611aea614f45565b906000526020600020906007020160050154611b069190614e0f565b11611b655760405162461bcd60e51b815260206004820152602960248201527f4475726174696f6e206f6620746865205469636b6574206973207374696c6c206044820152686176616c6961626c6560b81b6064820152608401610c62565b600060146000600e8481548110611b7e57611b7e614f45565b60009182526020808320600460079093020191909101546001600160a01b031683528281019390935260409182018120805494151560ff19958616179055338152601483528181208054851660011790556015909252902080549091169055600e80547f5093646a80c0a81f51115fbf5ec8379ecf902ae2ba552c74599cbe844dcb53e3919083908110611c1457611c14614f45565b600091825260209182902060079091020160040154604080516001600160a01b039092168252339282019290925201610dd3565b611c51336121f4565b15611c5b57600080fd5b336001600160a01b0316600e8281548110611c7857611c78614f45565b60009182526020909120600460079092020101546001600160a01b03161415611cf15760405162461bcd60e51b815260206004820152602560248201527f596f752063616e206e6f74206275792061207469636b657420746f20796f75726044820152641039b2b63360d91b6064820152608401610c62565b600e8181548110611d0457611d04614f45565b600091825260209091206006600790920201015460ff161515600114611d765760405162461bcd60e51b815260206004820152602160248201527f5469636b6574206973206e6f742063757272656e746c79206176616c6961626c6044820152606560f81b6064820152608401610c62565b6000600e8281548110611d8b57611d8b614f45565b6000918252602090912060079091020160040154600554600e80546001600160a01b03938416945092909116916323b872dd91339186908110611dd057611dd0614f45565b906000526020600020906007020160040160009054906101000a90046001600160a01b0316600e8681548110611e0857611e08614f45565b9060005260206000209060070201600301546040518463ffffffff1660e01b8152600401611e3893929190614929565b602060405180830381600087803b158015611e5257600080fd5b505af1158015611e66573d6000803e3d6000fd5b505050506040513d601f19601f82011682018060405250810190611e8a91906145d7565b5042600e8381548110611e9f57611e9f614f45565b906000526020600020906007020160050181905550600060146000600e8581548110611ecd57611ecd614f45565b60009182526020808320600792909202909101600401546001600160a01b031683528201929092526040018120805460ff191692151592909217909155600e8054601391839186908110611f2357611f23614f45565b60009182526020808320600792909202909101600401546001600160a01b031683528201929092526040018120805460ff191692151592909217909155600e8054600192601592909186908110611f7c57611f7c614f45565b60009182526020808320600792909202909101600401546001600160a01b031683528201929092526040019020805460ff1916911515919091179055600e805433919084908110611fcf57611fcf614f45565b6000918252602080832060079290920290910160040180546001600160a01b0319166001600160a01b03949094169390931790925533808252601490925260409020805460ff19166001179055600e80547f060f7dd92424d6f1af65d2fe9acba5b63d299cc26cd8eb26403ca371bc9fbfbb92859285928490811061205657612056614f45565b90600052602060002090600702016003015460405161104e94939291909384526001600160a01b03928316602085015291166040830152606082015260800190565b6006546001600160a01b031633146120c25760405162461bcd60e51b8152600401610c6290614d02565b610e956000826139f4565b6120d6336121f4565b6120f25760405162461bcd60e51b8152600401610c6290614d31565b3360009081526013602052604090205460ff166121215760405162461bcd60e51b8152600401610c6290614b7b565b336001600160a01b0316600e828154811061213e5761213e614f45565b60009182526020909120600460079092020101546001600160a01b0316146121785760405162461bcd60e51b8152600401610c6290614b46565b6000600e828154811061218d5761218d614f45565b60009182526020808320600660079093020191909101805493151560ff199485161790553380835260139091526040918290208054909316909255517f5dbab6b1e9ddd154d6eb51aa5622fb5278ea62a0b5f81d046a945d899490f63191610dd3916148b7565b600480546040516370a0823160e01b815260009283926001600160a01b0316916370a0823191612226918791016148b7565b60206040518083038186803b15801561223e57600080fd5b505afa158015612252573d6000803e3d6000fd5b505050506040513d601f19601f82011682018060405250810190612276919061466a565b1161228057600080fd5b6001600160a01b03821660009081526010602052604090205460ff166122a557600080fd5b506001919050565b6122b63361356f565b6122d25760405162461bcd60e51b8152600401610c6290614cc1565b60005b8151811015610e62576001601060008484815181106122f6576122f6614f45565b6020908102919091018101516001600160a01b03168252810191909152604001600020805460ff19169115159190911790558061233281614ed4565b9150506122d5565b6123433361356f565b61235f5760405162461bcd60e51b8152600401610c6290614cc1565b6001600160a01b03166000908152601060205260409020805460ff19169055565b6123893361356f565b6123a55760405162461bcd60e51b8152600401610c6290614cc1565b600b8190556040518181527f06cd74aabc11982a85b554df4d7833623303656fe69bed4db1b0cb3245feebe390602001610dd3565b60009182526003602090815260408084206001600160a01b0393909316845291905290205460ff1690565b610e623383836139fe565b336001600160a01b0316600d838154811061242d5761242d614f45565b60009182526020909120600360049092020101546001600160a01b0316146124675760405162461bcd60e51b8152600401610c6290614bef565b6000600d838154811061247c5761247c614f45565b906000526020600020906004020160020154905081600d84815481106124a4576124a4614f45565b9060005260206000209060040201600201819055507fb141d00f22a670547caacc412e6489d8edaba6a840df558118363ce1a40d6ed23384838560405161164a94939291906149cc565b336001600160a01b0316600d828154811061250b5761250b614f45565b60009182526020909120600360049092020101546001600160a01b0316146125455760405162461bcd60e51b8152600401610c6290614bef565b612562303383600160405180602001604052806000815250613608565b6001600d828154811061257757612577614f45565b906000526020600020906004020160030160146101000a81548160ff0219169083151502179055507fc9cedcca3d85d6009a562a9e70071f6288adabda9ba7f059589165e75c9cf4043382604051610dd3929190614992565b60606000805b600e54811015612690576000600e82815481106125f5576125f5614f45565b60009182526020918290206040805160e081018252600790930290910180548352600180820154948401949094526002810154918301919091526003810154606083015260048101546001600160a01b03166080830152600581015460a08301526006015460ff16151560c08201819052909250141561267d5761267a600184614dc4565b92505b508061268881614ed4565b9150506125d6565b506000816001600160401b038111156126ab576126ab614f5b565b6040519080825280602002602001820160405280156126e457816020015b6126d1614164565b8152602001906001900390816126c95790505b5090506000805b600e548110156127c4576000600e828154811061270a5761270a614f45565b60009182526020918290206040805160e081018252600790930290910180548352600180820154948401949094526002810154918301919091526003810154606083015260048101546001600160a01b03166080830152600581015460a08301526006015460ff16151560c0820181905290925014156127b1578084848151811061279757612797614f45565b602002602001018190525082806127ad90614ed4565b9350505b50806127bc81614ed4565b9150506126eb565b50909392505050565b6127d6336121f4565b6127f25760405162461bcd60e51b8152600401610c6290614d31565b3360009081526013602052604090205460ff16156128655760405162461bcd60e51b815260206004820152602a60248201527f5573657220697320616c72656164792063757272656e746c792073656c6c696e60448201526919c81848151a58dad95d60b21b6064820152608401610c62565b3360009081526014602052604090205460ff166128c05760405162461bcd60e51b81526020600482015260196024820152785573657220686173207469636b6574206176616c6961626c6560381b6044820152606401610c62565b6040805160e081018252600a8054825260208201868152928201858152606083018581523360808501908152600060a08601818152600160c08801818152600e80549283018155845297517fbb7b4a454dc3493923482f07822329ed19e8244eff582cc204f8554c3620c3fd60079092029182015597517fbb7b4a454dc3493923482f07822329ed19e8244eff582cc204f8554c3620c3fe89015593517fbb7b4a454dc3493923482f07822329ed19e8244eff582cc204f8554c3620c3ff88015591517fbb7b4a454dc3493923482f07822329ed19e8244eff582cc204f8554c3620c400870155517fbb7b4a454dc3493923482f07822329ed19e8244eff582cc204f8554c3620c401860180546001600160a01b0319166001600160a01b0390921691909117905590517fbb7b4a454dc3493923482f07822329ed19e8244eff582cc204f8554c3620c40285015591517fbb7b4a454dc3493923482f07822329ed19e8244eff582cc204f8554c3620c403909301805460ff19169315159390931790925581549190612a5183614ed4565b90915550503360008181526013602052604090819020805460ff19166001179055517f07814713aba2e13eb5f2470225f7395d33fad1452b70f8427dae73e4d3a593449161164a918690869086906149cc565b60606000805b600d54811015612b50576000600d8281548110612ac957612ac9614f45565b60009182526020918290206040805160a0810182526004909302909101805483526001810154938301939093526002830154908201526003909101546001600160a01b038116606083015260ff600160a01b90910416151560808201819052909150612b3d57612b3a600184614dc4565b92505b5080612b4881614ed4565b915050612aaa565b506000816001600160401b03811115612b6b57612b6b614f5b565b604051908082528060200260200182016040528015612ba457816020015b612b916141ac565b815260200190600190039081612b895790505b5090506000805b600d548110156127c4576000600d8281548110612bca57612bca614f45565b60009182526020918290206040805160a0810182526004909302909101805483526001810154938301939093526002830154908201526003909101546001600160a01b038116606083015260ff600160a01b90910416151560808201819052909150612c5d5780848481518110612c4357612c43614f45565b60200260200101819052508280612c5990614ed4565b9350505b5080612c6881614ed4565b915050612bab565b6006546001600160a01b03163314612c9a5760405162461bcd60e51b8152600401610c6290614d02565b6005546040516370a0823160e01b81526000916001600160a01b0316906370a0823190612ccb9030906004016148b7565b60206040518083038186803b158015612ce357600080fd5b505afa158015612cf7573d6000803e3d6000fd5b505050506040513d601f19601f82011682018060405250810190612d1b919061466a565b11612d385760405162461bcd60e51b8152600401610c6290614bc1565b60055460405163a9059cbb60e01b81526001600160a01b039091169063a9059cbb90612d6a9085908590600401614992565b602060405180830381600087803b158015612d8457600080fd5b505af1158015612d98573d6000803e3d6000fd5b505050506040513d601f19601f8201168201806040525081019061111691906145d7565b612dc46141ac565b600d8281548110612dd757612dd7614f45565b60009182526020918290206040805160a0810182526004909302909101805483526001810154938301939093526002830154908201526003909101546001600160a01b038116606083015260ff600160a01b909104161515608082015292915050565b6000612e4582613adf565b612e4e57600080fd5b600082815260116020526040812054600754612e6a9190614ddc565b9392505050565b600082815260036020526040902060010154612e8c816138fd565b611116838361398d565b612e9e614164565b600e8281548110612eb157612eb1614f45565b60009182526020918290206040805160e0810182526007909302909101805483526001810154938301939093526002830154908201526003820154606082015260048201546001600160a01b03166080820152600582015460a082015260069091015460ff16151560c082015292915050565b612f2d3361356f565b612f495760405162461bcd60e51b8152600401610c6290614cc1565b6000600c54610100900460ff166001811115612f6757612f67614f2f565b1415612f7e57600c805461ff001916610100179055565b600c805461ff0019169055565b6000600d8281548110612fa057612fa0614f45565b60009182526020918290206040805160a081018252600493909302909101805483526001810154938301939093526002830154908201526003909101546001600160a01b03811660608301819052600160a01b90910460ff161515608083015290915033141561300f57600080fd5b60808101511561301e57600080fd5b600554606082015160408084015190516323b872dd60e01b81526001600160a01b03909316926323b872dd92613058923392600401614929565b602060405180830381600087803b15801561307257600080fd5b505af1158015613086573d6000803e3d6000fd5b505050506040513d601f19601f820116820180604052508101906130aa91906145d7565b506130cc30338360000151600160405180602001604052806000815250613608565b6001600d83815481106130e1576130e1614f45565b60009182526020918290206003600490920201018054921515600160a01b0260ff60a01b199093169290921790915560608083015160408085015181513381526001600160a01b03909316948301949094528101859052908101919091527f642067ff529c9b5b1162502fc8e8a3a91dda56e126a84f2fe38d341236231a829060800161104e565b613172336121f4565b61318e5760405162461bcd60e51b8152600401610c6290614d31565b3360009081526013602052604090205460ff166131bd5760405162461bcd60e51b8152600401610c6290614b7b565b336001600160a01b0316600e84815481106131da576131da614f45565b60009182526020909120600460079092020101546001600160a01b0316146132145760405162461bcd60e51b8152600401610c6290614b46565b80600e848154811061322857613228614f45565b90600052602060002090600702016003018190555081600e848154811061325157613251614f45565b9060005260206000209060070201600101819055507f4dfa55e7e1af9cb25343bfcd39c4bcb1f066d75ebe9b67988cf1496f06dedfef33838360405161164a939291906149ab565b6001600160a01b0385163314806132b557506132b58533610b2a565b6133135760405162461bcd60e51b815260206004820152602960248201527f455243313135353a2063616c6c6572206973206e6f74206f776e6572206e6f7260448201526808185c1c1c9bdd995960ba1b6064820152608401610c62565b6110ea8585858585613608565b606060006008546001600160401b0381111561333e5761333e614f5b565b604051908082528060200260200182016040528015613367578160200160208202803683370190505b50905060005b81518110156133af576133808482610bfa565b82828151811061339257613392614f45565b6020908102919091010152806133a781614ed4565b91505061336d565b5092915050565b60006001600160e01b03198216637965db0b60e01b1480610c8e5750610c8e82613af7565b6001600160a01b03831661343d5760405162461bcd60e51b815260206004820152602360248201527f455243313135353a206275726e2066726f6d20746865207a65726f206164647260448201526265737360e81b6064820152608401610c62565b33600061344984613b1c565b9050600061345684613b1c565b60408051602080820183526000918290528882528181528282206001600160a01b038b16835290522054909150848110156134df5760405162461bcd60e51b8152602060048201526024808201527f455243313135353a206275726e20616d6f756e7420657863656564732062616c604482015263616e636560e01b6064820152608401610c62565b6000868152602081815260408083206001600160a01b038b81168086529184528285208a8703905582518b81529384018a905290929088169160008051602061503b833981519152910160405180910390a46040805160208101909152600090525b50505050505050565b8060008151811061355d5761355d614f45565b6020026020010151600f819055505050565b6006546000906001600160a01b038381169116148061359457506135946000836123da565b6122a557600080fd5b6135ba826008548360405180602001604052806000815250613b67565b6135d36008548260009182526011602052604090912055565b80600760008282546135e59190614dc4565b925050819055506001600860008282546135ff9190614dc4565b90915550505050565b6001600160a01b03841661362e5760405162461bcd60e51b8152600401610c6290614c32565b33600061363a85613b1c565b9050600061364785613b1c565b90506000868152602081815260408083206001600160a01b038c1684529091529020548581101561368a5760405162461bcd60e51b8152600401610c6290614c77565b6000878152602081815260408083206001600160a01b038d8116855292528083208985039055908a168252812080548892906136c7908490614dc4565b909155505060408051888152602081018890526001600160a01b03808b16928c8216929188169160008051602061503b833981519152910160405180910390a4613715848a8a8a8a8a613c5c565b505050505050505050565b81518351146137825760405162461bcd60e51b815260206004820152602860248201527f455243313135353a2069647320616e6420616d6f756e7473206c656e677468206044820152670dad2e6dac2e8c6d60c31b6064820152608401610c62565b6001600160a01b0384166137a85760405162461bcd60e51b8152600401610c6290614c32565b3360005b845181101561388f5760008582815181106137c9576137c9614f45565b6020026020010151905060008583815181106137e7576137e7614f45565b602090810291909101810151600084815280835260408082206001600160a01b038e1683529093529190912054909150818110156138375760405162461bcd60e51b8152600401610c6290614c77565b6000838152602081815260408083206001600160a01b038e8116855292528083208585039055908b16825281208054849290613874908490614dc4565b925050819055505050508061388890614ed4565b90506137ac565b50846001600160a01b0316866001600160a01b0316826001600160a01b03167f4a39dc06d4c0dbc64b70af90fd698a233a518aa5d07e595d983b8c0526c8f7fb87876040516138df929190614a95565b60405180910390a46138f5818787878787613dc7565b505050505050565b610e958133613e91565b61391182826123da565b610e625760008281526003602090815260408083206001600160a01b03851684529091529020805460ff191660011790556139493390565b6001600160a01b0316816001600160a01b0316837f2f8788117e7eff1d82e926ec794901d17c78024a50270940304540a733656f0d60405160405180910390a45050565b61399782826123da565b15610e625760008281526003602090815260408083206001600160a01b0385168085529252808320805460ff1916905551339285917ff6391f5c32d9c69d2a47ea670b442974b53935d1edc7fd64eb21e047a839171b9190a45050565b610e628282613907565b816001600160a01b0316836001600160a01b03161415613a725760405162461bcd60e51b815260206004820152602960248201527f455243313135353a2073657474696e6720617070726f76616c20737461747573604482015268103337b91039b2b63360b91b6064820152608401610c62565b6001600160a01b03838116600081815260016020908152604080832094871680845294825291829020805460ff191686151590811790915591519182527f17307eab39ab6107e8899845ad3d59bd9653f200f220920489ca2b5937696c31910160405180910390a3505050565b6000818152601160205260408120546122a557600080fd5b60006001600160e01b03198216630271189760e51b1480610c8e5750610c8e82613ef5565b60408051600180825281830190925260609160009190602080830190803683370190505090508281600081518110613b5657613b56614f45565b602090810291909101015292915050565b6001600160a01b038416613bc75760405162461bcd60e51b815260206004820152602160248201527f455243313135353a206d696e7420746f20746865207a65726f206164647265736044820152607360f81b6064820152608401610c62565b336000613bd385613b1c565b90506000613be085613b1c565b90506000868152602081815260408083206001600160a01b038b16845290915281208054879290613c12908490614dc4565b909155505060408051878152602081018790526001600160a01b03808a16926000929187169160008051602061503b833981519152910160405180910390a4613541836000898989895b6001600160a01b0384163b156138f55760405163f23a6e6160e01b81526001600160a01b0385169063f23a6e6190613ca0908990899088908890889060040161494d565b602060405180830381600087803b158015613cba57600080fd5b505af1925050508015613cea575060408051601f3d908101601f19168201909252613ce79181019061464d565b60015b613d9757613cf6614f71565b806308c379a01415613d305750613d0b614f8d565b80613d165750613d32565b8060405162461bcd60e51b8152600401610c629190614aeb565b505b60405162461bcd60e51b815260206004820152603460248201527f455243313135353a207472616e7366657220746f206e6f6e20455243313135356044820152732932b1b2b4bb32b91034b6b83632b6b2b73a32b960611b6064820152608401610c62565b6001600160e01b0319811663f23a6e6160e01b146135415760405162461bcd60e51b8152600401610c6290614afe565b6001600160a01b0384163b156138f55760405163bc197c8160e01b81526001600160a01b0385169063bc197c8190613e0b90899089908890889088906004016148cb565b602060405180830381600087803b158015613e2557600080fd5b505af1925050508015613e55575060408051601f3d908101601f19168201909252613e529181019061464d565b60015b613e6157613cf6614f71565b6001600160e01b0319811663bc197c8160e01b146135415760405162461bcd60e51b8152600401610c6290614afe565b613e9b82826123da565b610e6257613eb3816001600160a01b03166014613f45565b613ebe836020613f45565b604051602001613ecf929190614848565b60408051601f198184030181529082905262461bcd60e51b8252610c6291600401614aeb565b60006001600160e01b03198216636cdb3d1360e11b1480613f2657506001600160e01b031982166303a24d0760e21b145b80610c8e57506301ffc9a760e01b6001600160e01b0319831614610c8e565b60606000613f54836002614df0565b613f5f906002614dc4565b6001600160401b03811115613f7657613f76614f5b565b6040519080825280601f01601f191660200182016040528015613fa0576020820181803683370190505b509050600360fc1b81600081518110613fbb57613fbb614f45565b60200101906001600160f81b031916908160001a905350600f60fb1b81600181518110613fea57613fea614f45565b60200101906001600160f81b031916908160001a905350600061400e846002614df0565b614019906001614dc4565b90505b6001811115614091576f181899199a1a9b1b9c1cb0b131b232b360811b85600f166010811061404d5761404d614f45565b1a60f81b82828151811061406357614063614f45565b60200101906001600160f81b031916908160001a90535060049490941c9361408a81614e56565b905061401c565b508315612e6a5760405162461bcd60e51b815260206004820181905260248201527f537472696e67733a20686578206c656e67746820696e73756666696369656e746044820152606401610c62565b8280546140ec90614e6d565b90600052602060002090601f01602090048101928261410e5760008555614154565b82601f1061412757805160ff1916838001178555614154565b82800160010185558215614154579182015b82811115614154578251825591602001919060010190614139565b506141609291506141e6565b5090565b6040518060e001604052806000815260200160008152602001600081526020016000815260200160006001600160a01b03168152602001600081526020016000151581525090565b6040518060a0016040528060008152602001600081526020016000815260200160006001600160a01b031681526020016000151581525090565b5b8082111561416057600081556001016141e7565b60006001600160401b0383111561421457614214614f5b565b60405161422b601f8501601f191660200182614ea8565b80915083815284848401111561424057600080fd5b83836020830137600060208583010152509392505050565b80356001600160a01b038116811461426f57600080fd5b919050565b600082601f83011261428557600080fd5b8135602061429282614da1565b60405161429f8282614ea8565b8381528281019150858301600585901b870184018810156142bf57600080fd5b60005b858110156142e5576142d382614258565b845292840192908401906001016142c2565b5090979650505050505050565b600082601f83011261430357600080fd5b8135602061431082614da1565b60405161431d8282614ea8565b8381528281019150858301600585901b8701840188101561433d57600080fd5b60005b858110156142e557813584529284019290840190600101614340565b600082601f83011261436d57600080fd5b612e6a838335602085016141fb565b60006020828403121561438e57600080fd5b612e6a82614258565b600080604083850312156143aa57600080fd5b6143b383614258565b91506143c160208401614258565b90509250929050565b600080600080600060a086880312156143e257600080fd5b6143eb86614258565b94506143f960208701614258565b935060408601356001600160401b038082111561441557600080fd5b61442189838a016142f2565b9450606088013591508082111561443757600080fd5b61444389838a016142f2565b9350608088013591508082111561445957600080fd5b506144668882890161435c565b9150509295509295909350565b600080600080600060a0868803121561448b57600080fd5b61449486614258565b94506144a260208701614258565b9350604086013592506060860135915060808601356001600160401b038111156144cb57600080fd5b6144668882890161435c565b600080604083850312156144ea57600080fd5b6144f383614258565b9150602083013561450381615016565b809150509250929050565b6000806040838503121561452157600080fd5b61452a83614258565b946020939093013593505050565b60006020828403121561454a57600080fd5b81356001600160401b0381111561456057600080fd5b61456c84828501614274565b949350505050565b6000806040838503121561458757600080fd5b82356001600160401b038082111561459e57600080fd5b6145aa86838701614274565b935060208501359150808211156145c057600080fd5b506145cd858286016142f2565b9150509250929050565b6000602082840312156145e957600080fd5b8151612e6a81615016565b60006020828403121561460657600080fd5b5035919050565b6000806040838503121561462057600080fd5b823591506143c160208401614258565b60006020828403121561464257600080fd5b8135612e6a81615024565b60006020828403121561465f57600080fd5b8151612e6a81615024565b60006020828403121561467c57600080fd5b5051919050565b6000806040838503121561469657600080fd5b8235915060208301356001600160401b038111156146b357600080fd5b6145cd858286016142f2565b600080604083850312156146d257600080fd5b8235915060208301356001600160401b038111156146ef57600080fd5b8301601f8101851361470057600080fd5b6145cd858235602084016141fb565b6000806040838503121561472257600080fd5b50508035926020909101359150565b60008060006060848603121561474657600080fd5b505081359360208301359350604090920135919050565b600081518084526020808501945080840160005b8381101561478d57815187529582019590820190600101614771565b509495945050505050565b600081518084526147b0816020860160208601614e26565b601f01601f19169290920160200192915050565b805182526020808201519083015260408082015190830152606080820151908301526080808201516001600160a01b03169083015260a0808201519083015260c0908101511515910152565b8051825260208082015190830152604080820151908301526060808201516001600160a01b0316908301526080908101511515910152565b76020b1b1b2b9b9a1b7b73a3937b61d1030b1b1b7bab73a1604d1b81526000835161487a816017850160208801614e26565b7001034b99036b4b9b9b4b733903937b6329607d1b60179184019182015283516148ab816028840160208801614e26565b01602801949350505050565b6001600160a01b0391909116815260200190565b6001600160a01b0386811682528516602082015260a0604082018190526000906148f79083018661475d565b8281036060840152614909818661475d565b9050828103608084015261491d8185614798565b98975050505050505050565b6001600160a01b039384168152919092166020820152604081019190915260600190565b6001600160a01b03868116825285166020820152604081018490526060810183905260a06080820181905260009061498790830184614798565b979650505050505050565b6001600160a01b03929092168252602082015260400190565b6001600160a01b039390931683526020830191909152604082015260600190565b6001600160a01b0394909416845260208401929092526040830152606082015260800190565b6020808252825182820181905260009190848201906040850190845b81811015614a3457614a218385516147c4565b9284019260e09290920191600101614a0e565b50909695505050505050565b6020808252825182820181905260009190848201906040850190845b81811015614a3457614a6f838551614810565b9284019260a09290920191600101614a5c565b602081526000612e6a602083018461475d565b604081526000614aa8604083018561475d565b8281036020840152614aba818561475d565b95945050505050565b6020810160028310614ae557634e487b7160e01b600052602160045260246000fd5b91905290565b602081526000612e6a6020830184614798565b60208082526028908201527f455243313135353a204552433131353552656365697665722072656a656374656040820152676420746f6b656e7360c01b606082015260800190565b6020808252818101527f55736572206973206e6f74206f776e6572206f662074686973207469636b6574604082015260600190565b60208082526026908201527f55736572206973206e6f742063757272656e746c792073656c6c696e67206120604082015265151a58dad95d60d21b606082015260800190565b6020808252601490820152734e6f2066756e647320746f20776974686472617760601b604082015260600190565b60208082526023908201527f596f7520617265206e6f7420746865206f776e6572206f66207468697320697460408201526232b69760e91b606082015260800190565b60208082526025908201527f455243313135353a207472616e7366657220746f20746865207a65726f206164604082015264647265737360d81b606082015260800190565b6020808252602a908201527f455243313135353a20696e73756666696369656e742062616c616e636520666f60408201526939103a3930b739b332b960b11b606082015260800190565b60208082526021908201527f55736572206973206e6f7420746865204f776e6572206f7220616e2041646d696040820152603760f91b606082015260800190565b6020808252601590820152742ab9b2b91034b9903737ba103a34329037bbb732b960591b604082015260600190565b60208082526034908201527f55736572206973206e6f74205261636b734d656d62657273206f7220646f6573604082015273206e6f74206f776e732061204d7243727970746f60601b606082015260800190565b60e08101610c8e82846147c4565b60a08101610c8e8284614810565b60006001600160401b03821115614dba57614dba614f5b565b5060051b60200190565b60008219821115614dd757614dd7614f03565b500190565b600082614deb57614deb614f19565b500490565b6000816000190483118215151615614e0a57614e0a614f03565b500290565b600082821015614e2157614e21614f03565b500390565b60005b83811015614e41578181015183820152602001614e29565b83811115614e50576000848401525b50505050565b600081614e6557614e65614f03565b506000190190565b600181811c90821680614e8157607f821691505b60208210811415614ea257634e487b7160e01b600052602260045260246000fd5b50919050565b601f8201601f191681016001600160401b0381118282101715614ecd57614ecd614f5b565b6040525050565b6000600019821415614ee857614ee8614f03565b5060010190565b600082614efe57614efe614f19565b500690565b634e487b7160e01b600052601160045260246000fd5b634e487b7160e01b600052601260045260246000fd5b634e487b7160e01b600052602160045260246000fd5b634e487b7160e01b600052603260045260246000fd5b634e487b7160e01b600052604160045260246000fd5b600060033d1115614f8a5760046000803e5060005160e01c5b90565b600060443d1015614f9b5790565b6040516003193d81016004833e81513d6001600160401b038160248401118184111715614fca57505050505090565b8285019150815181811115614fe25750505050505090565b843d8701016020828501011115614ffc5750505050505090565b61500b60208286010187614ea8565b509095945050505050565b8015158114610e9557600080fd5b6001600160e01b031981168114610e9557600080fdfec3d58168c5ae7397731d063d5bbf3d657854427343f4c083240f7aacaa2d0f62a2646970667358221220cecea39a92bde7ef72caf5aa3f1320d9f204d32b55ff648f66670d03ca09032c64736f6c63430008070033",
  "linkReferences": {},
  "deployedLinkReferences": {}
}