{
  "address": "0x48af794Fa60DAA5be8B26242F1B0BA92fE6AdF95",
  "abi": [
    {
      "inputs": [
        {
          "internalType": "address",
          "name": "vrfCoordinatorV2",
          "type": "address"
        },
        {
          "internalType": "bytes32",
          "name": "gasLane",
          "type": "bytes32"
        },
        {
          "internalType": "uint64",
          "name": "subscriptionId",
          "type": "uint64"
        },
        {
          "internalType": "uint32",
          "name": "callbackGasLimit",
          "type": "uint32"
        },
        {
          "internalType": "address",
          "name": "_racksTokenAddress",
          "type": "address"
        }
      ],
      "stateMutability": "nonpayable",
      "type": "constructor"
    },
    {
      "inputs": [
        {
          "internalType": "address",
          "name": "have",
          "type": "address"
        },
        {
          "internalType": "address",
          "name": "want",
          "type": "address"
        }
      ],
      "name": "OnlyCoordinatorCanFulfill",
      "type": "error"
    },
    {
      "anonymous": false,
      "inputs": [
        {
          "indexed": true,
          "internalType": "address",
          "name": "account",
          "type": "address"
        },
        {
          "indexed": true,
          "internalType": "address",
          "name": "operator",
          "type": "address"
        },
        {
          "indexed": false,
          "internalType": "bool",
          "name": "approved",
          "type": "bool"
        }
      ],
      "name": "ApprovalForAll",
      "type": "event"
    },
    {
      "anonymous": false,
      "inputs": [
        {
          "indexed": false,
          "internalType": "address",
          "name": "user",
          "type": "address"
        },
        {
          "indexed": false,
          "internalType": "uint256",
          "name": "casePrice",
          "type": "uint256"
        },
        {
          "indexed": false,
          "internalType": "uint256",
          "name": "item",
          "type": "uint256"
        }
      ],
      "name": "CaseOpened",
      "type": "event"
    },
    {
      "anonymous": false,
      "inputs": [
        {
          "indexed": true,
          "internalType": "bytes32",
          "name": "role",
          "type": "bytes32"
        },
        {
          "indexed": true,
          "internalType": "bytes32",
          "name": "previousAdminRole",
          "type": "bytes32"
        },
        {
          "indexed": true,
          "internalType": "bytes32",
          "name": "newAdminRole",
          "type": "bytes32"
        }
      ],
      "name": "RoleAdminChanged",
      "type": "event"
    },
    {
      "anonymous": false,
      "inputs": [
        {
          "indexed": true,
          "internalType": "bytes32",
          "name": "role",
          "type": "bytes32"
        },
        {
          "indexed": true,
          "internalType": "address",
          "name": "account",
          "type": "address"
        },
        {
          "indexed": true,
          "internalType": "address",
          "name": "sender",
          "type": "address"
        }
      ],
      "name": "RoleGranted",
      "type": "event"
    },
    {
      "anonymous": false,
      "inputs": [
        {
          "indexed": true,
          "internalType": "bytes32",
          "name": "role",
          "type": "bytes32"
        },
        {
          "indexed": true,
          "internalType": "address",
          "name": "account",
          "type": "address"
        },
        {
          "indexed": true,
          "internalType": "address",
          "name": "sender",
          "type": "address"
        }
      ],
      "name": "RoleRevoked",
      "type": "event"
    },
    {
      "anonymous": false,
      "inputs": [
        {
          "indexed": true,
          "internalType": "address",
          "name": "operator",
          "type": "address"
        },
        {
          "indexed": true,
          "internalType": "address",
          "name": "from",
          "type": "address"
        },
        {
          "indexed": true,
          "internalType": "address",
          "name": "to",
          "type": "address"
        },
        {
          "indexed": false,
          "internalType": "uint256[]",
          "name": "ids",
          "type": "uint256[]"
        },
        {
          "indexed": false,
          "internalType": "uint256[]",
          "name": "values",
          "type": "uint256[]"
        }
      ],
      "name": "TransferBatch",
      "type": "event"
    },
    {
      "anonymous": false,
      "inputs": [
        {
          "indexed": true,
          "internalType": "address",
          "name": "operator",
          "type": "address"
        },
        {
          "indexed": true,
          "internalType": "address",
          "name": "from",
          "type": "address"
        },
        {
          "indexed": true,
          "internalType": "address",
          "name": "to",
          "type": "address"
        },
        {
          "indexed": false,
          "internalType": "uint256",
          "name": "id",
          "type": "uint256"
        },
        {
          "indexed": false,
          "internalType": "uint256",
          "name": "value",
          "type": "uint256"
        }
      ],
      "name": "TransferSingle",
      "type": "event"
    },
    {
      "anonymous": false,
      "inputs": [
        {
          "indexed": false,
          "internalType": "string",
          "name": "value",
          "type": "string"
        },
        {
          "indexed": true,
          "internalType": "uint256",
          "name": "id",
          "type": "uint256"
        }
      ],
      "name": "URI",
      "type": "event"
    },
    {
      "anonymous": false,
      "inputs": [
        {
          "indexed": false,
          "internalType": "uint256",
          "name": "newPrice",
          "type": "uint256"
        }
      ],
      "name": "casePriceChanged",
      "type": "event"
    },
    {
      "anonymous": false,
      "inputs": [
        {
          "indexed": false,
          "internalType": "address",
          "name": "buyer",
          "type": "address"
        },
        {
          "indexed": false,
          "internalType": "address",
          "name": "seller",
          "type": "address"
        },
        {
          "indexed": false,
          "internalType": "uint256",
          "name": "marketItemId",
          "type": "uint256"
        },
        {
          "indexed": false,
          "internalType": "uint256",
          "name": "price",
          "type": "uint256"
        }
      ],
      "name": "itemBought",
      "type": "event"
    },
    {
      "anonymous": false,
      "inputs": [
        {
          "indexed": false,
          "internalType": "address",
          "name": "user",
          "type": "address"
        },
        {
          "indexed": false,
          "internalType": "uint256",
          "name": "tokenId",
          "type": "uint256"
        }
      ],
      "name": "itemExchanged",
      "type": "event"
    },
    {
      "anonymous": false,
      "inputs": [
        {
          "indexed": false,
          "internalType": "address",
          "name": "owner",
          "type": "address"
        },
        {
          "indexed": false,
          "internalType": "uint256",
          "name": "marketItemId",
          "type": "uint256"
        },
        {
          "indexed": false,
          "internalType": "uint256",
          "name": "oldPrice",
          "type": "uint256"
        },
        {
          "indexed": false,
          "internalType": "uint256",
          "name": "newPrice",
          "type": "uint256"
        }
      ],
      "name": "itemPriceChanged",
      "type": "event"
    },
    {
      "anonymous": false,
      "inputs": [
        {
          "indexed": false,
          "internalType": "address",
          "name": "user",
          "type": "address"
        },
        {
          "indexed": false,
          "internalType": "uint256",
          "name": "tokenId",
          "type": "uint256"
        },
        {
          "indexed": false,
          "internalType": "uint256",
          "name": "price",
          "type": "uint256"
        }
      ],
      "name": "sellingItem",
      "type": "event"
    },
    {
      "anonymous": false,
      "inputs": [
        {
          "indexed": false,
          "internalType": "address",
          "name": "owner",
          "type": "address"
        },
        {
          "indexed": false,
          "internalType": "uint256",
          "name": "marketItemId",
          "type": "uint256"
        }
      ],
      "name": "unListedItem",
      "type": "event"
    },
    {
      "inputs": [],
      "name": "ADMIN_ROLE",
      "outputs": [
        {
          "internalType": "bytes32",
          "name": "",
          "type": "bytes32"
        }
      ],
      "stateMutability": "view",
      "type": "function"
    },
    {
      "inputs": [],
      "name": "DEFAULT_ADMIN_ROLE",
      "outputs": [
        {
          "internalType": "bytes32",
          "name": "",
          "type": "bytes32"
        }
      ],
      "stateMutability": "view",
      "type": "function"
    },
    {
      "inputs": [],
      "name": "NUM_WORDS",
      "outputs": [
        {
          "internalType": "uint32",
          "name": "",
          "type": "uint32"
        }
      ],
      "stateMutability": "view",
      "type": "function"
    },
    {
      "inputs": [],
      "name": "REQUEST_CONFIRMATIONS",
      "outputs": [
        {
          "internalType": "uint16",
          "name": "",
          "type": "uint16"
        }
      ],
      "stateMutability": "view",
      "type": "function"
    },
    {
      "inputs": [],
      "name": "_randomNumber",
      "outputs": [
        {
          "internalType": "uint256",
          "name": "",
          "type": "uint256"
        }
      ],
      "stateMutability": "nonpayable",
      "type": "function"
    },
    {
      "inputs": [
        {
          "internalType": "uint256",
          "name": "tokenId",
          "type": "uint256"
        }
      ],
      "name": "_rarityOfItem",
      "outputs": [
        {
          "internalType": "uint256",
          "name": "",
          "type": "uint256"
        }
      ],
      "stateMutability": "view",
      "type": "function"
    },
    {
      "inputs": [
        {
          "internalType": "address",
          "name": "account",
          "type": "address"
        },
        {
          "internalType": "uint256",
          "name": "id",
          "type": "uint256"
        }
      ],
      "name": "balanceOf",
      "outputs": [
        {
          "internalType": "uint256",
          "name": "",
          "type": "uint256"
        }
      ],
      "stateMutability": "view",
      "type": "function"
    },
    {
      "inputs": [
        {
          "internalType": "address[]",
          "name": "accounts",
          "type": "address[]"
        },
        {
          "internalType": "uint256[]",
          "name": "ids",
          "type": "uint256[]"
        }
      ],
      "name": "balanceOfBatch",
      "outputs": [
        {
          "internalType": "uint256[]",
          "name": "",
          "type": "uint256[]"
        }
      ],
      "stateMutability": "view",
      "type": "function"
    },
    {
      "inputs": [
        {
          "internalType": "uint256",
          "name": "marketItemId",
          "type": "uint256"
        }
      ],
      "name": "buyItem",
      "outputs": [],
      "stateMutability": "nonpayable",
      "type": "function"
    },
    {
      "inputs": [],
      "name": "casePrice",
      "outputs": [
        {
          "internalType": "uint256",
          "name": "",
          "type": "uint256"
        }
      ],
      "stateMutability": "view",
      "type": "function"
    },
    {
      "inputs": [
        {
          "internalType": "uint256",
          "name": "marketItemId",
          "type": "uint256"
        },
        {
          "internalType": "uint256",
          "name": "newPrice",
          "type": "uint256"
        }
      ],
      "name": "changeItemPrice",
      "outputs": [],
      "stateMutability": "nonpayable",
      "type": "function"
    },
    {
      "inputs": [],
      "name": "contractActive",
      "outputs": [
        {
          "internalType": "bool",
          "name": "",
          "type": "bool"
        }
      ],
      "stateMutability": "view",
      "type": "function"
    },
    {
      "inputs": [
        {
          "internalType": "uint256",
          "name": "marketItemId",
          "type": "uint256"
        }
      ],
      "name": "exchangeItem",
      "outputs": [],
      "stateMutability": "nonpayable",
      "type": "function"
    },
    {
      "inputs": [],
      "name": "flipContractState",
      "outputs": [],
      "stateMutability": "nonpayable",
      "type": "function"
    },
    {
      "inputs": [],
      "name": "getCasePrice",
      "outputs": [
        {
          "internalType": "uint256",
          "name": "",
          "type": "uint256"
        }
      ],
      "stateMutability": "view",
      "type": "function"
    },
    {
      "inputs": [],
      "name": "getItemsOnSale",
      "outputs": [
        {
          "components": [
            {
              "internalType": "uint256",
              "name": "tokenId",
              "type": "uint256"
            },
            {
              "internalType": "uint256",
              "name": "marketItemId",
              "type": "uint256"
            },
            {
              "internalType": "uint256",
              "name": "price",
              "type": "uint256"
            },
            {
              "internalType": "address",
              "name": "seller",
              "type": "address"
            },
            {
              "internalType": "bool",
              "name": "sold",
              "type": "bool"
            }
          ],
          "internalType": "struct RacksItems.itemOnSale[]",
          "name": "",
          "type": "tuple[]"
        }
      ],
      "stateMutability": "view",
      "type": "function"
    },
    {
      "inputs": [
        {
          "internalType": "uint256",
          "name": "marketItemId",
          "type": "uint256"
        }
      ],
      "name": "getMarketItem",
      "outputs": [
        {
          "components": [
            {
              "internalType": "uint256",
              "name": "tokenId",
              "type": "uint256"
            },
            {
              "internalType": "uint256",
              "name": "marketItemId",
              "type": "uint256"
            },
            {
              "internalType": "uint256",
              "name": "price",
              "type": "uint256"
            },
            {
              "internalType": "address",
              "name": "seller",
              "type": "address"
            },
            {
              "internalType": "bool",
              "name": "sold",
              "type": "bool"
            }
          ],
          "internalType": "struct RacksItems.itemOnSale",
          "name": "",
          "type": "tuple"
        }
      ],
      "stateMutability": "view",
      "type": "function"
    },
    {
      "inputs": [
        {
          "internalType": "bytes32",
          "name": "role",
          "type": "bytes32"
        }
      ],
      "name": "getRoleAdmin",
      "outputs": [
        {
          "internalType": "bytes32",
          "name": "",
          "type": "bytes32"
        }
      ],
      "stateMutability": "view",
      "type": "function"
    },
    {
      "inputs": [
        {
          "internalType": "bytes32",
          "name": "role",
          "type": "bytes32"
        },
        {
          "internalType": "address",
          "name": "account",
          "type": "address"
        }
      ],
      "name": "grantRole",
      "outputs": [],
      "stateMutability": "nonpayable",
      "type": "function"
    },
    {
      "inputs": [
        {
          "internalType": "bytes32",
          "name": "role",
          "type": "bytes32"
        },
        {
          "internalType": "address",
          "name": "account",
          "type": "address"
        }
      ],
      "name": "hasRole",
      "outputs": [
        {
          "internalType": "bool",
          "name": "",
          "type": "bool"
        }
      ],
      "stateMutability": "view",
      "type": "function"
    },
    {
      "inputs": [],
      "name": "i_MrCryptoAddress",
      "outputs": [
        {
          "internalType": "address",
          "name": "",
          "type": "address"
        }
      ],
      "stateMutability": "view",
      "type": "function"
    },
    {
      "inputs": [],
      "name": "i_callbackGasLimit",
      "outputs": [
        {
          "internalType": "uint32",
          "name": "",
          "type": "uint32"
        }
      ],
      "stateMutability": "view",
      "type": "function"
    },
    {
      "inputs": [],
      "name": "i_gasLane",
      "outputs": [
        {
          "internalType": "bytes32",
          "name": "",
          "type": "bytes32"
        }
      ],
      "stateMutability": "view",
      "type": "function"
    },
    {
      "inputs": [],
      "name": "i_subscriptionId",
      "outputs": [
        {
          "internalType": "uint64",
          "name": "",
          "type": "uint64"
        }
      ],
      "stateMutability": "view",
      "type": "function"
    },
    {
      "inputs": [],
      "name": "i_vrfCoordinator",
      "outputs": [
        {
          "internalType": "contract VRFCoordinatorV2Interface",
          "name": "",
          "type": "address"
        }
      ],
      "stateMutability": "view",
      "type": "function"
    },
    {
      "inputs": [
        {
          "internalType": "address",
          "name": "account",
          "type": "address"
        },
        {
          "internalType": "address",
          "name": "operator",
          "type": "address"
        }
      ],
      "name": "isApprovedForAll",
      "outputs": [
        {
          "internalType": "bool",
          "name": "",
          "type": "bool"
        }
      ],
      "stateMutability": "view",
      "type": "function"
    },
    {
      "inputs": [
        {
          "internalType": "address",
          "name": "user",
          "type": "address"
        }
      ],
      "name": "isVip",
      "outputs": [
        {
          "internalType": "bool",
          "name": "",
          "type": "bool"
        }
      ],
      "stateMutability": "view",
      "type": "function"
    },
    {
      "inputs": [
        {
          "internalType": "uint256",
          "name": "itemSupply",
          "type": "uint256"
        }
      ],
      "name": "listItem",
      "outputs": [],
      "stateMutability": "nonpayable",
      "type": "function"
    },
    {
      "inputs": [
        {
          "internalType": "address",
          "name": "",
          "type": "address"
        },
        {
          "internalType": "address",
          "name": "",
          "type": "address"
        },
        {
          "internalType": "uint256[]",
          "name": "",
          "type": "uint256[]"
        },
        {
          "internalType": "uint256[]",
          "name": "",
          "type": "uint256[]"
        },
        {
          "internalType": "bytes",
          "name": "",
          "type": "bytes"
        }
      ],
      "name": "onERC1155BatchReceived",
      "outputs": [
        {
          "internalType": "bytes4",
          "name": "",
          "type": "bytes4"
        }
      ],
      "stateMutability": "nonpayable",
      "type": "function"
    },
    {
      "inputs": [
        {
          "internalType": "address",
          "name": "",
          "type": "address"
        },
        {
          "internalType": "address",
          "name": "",
          "type": "address"
        },
        {
          "internalType": "uint256",
          "name": "",
          "type": "uint256"
        },
        {
          "internalType": "uint256",
          "name": "",
          "type": "uint256"
        },
        {
          "internalType": "bytes",
          "name": "",
          "type": "bytes"
        }
      ],
      "name": "onERC1155Received",
      "outputs": [
        {
          "internalType": "bytes4",
          "name": "",
          "type": "bytes4"
        }
      ],
      "stateMutability": "nonpayable",
      "type": "function"
    },
    {
      "inputs": [],
      "name": "openCase",
      "outputs": [],
      "stateMutability": "nonpayable",
      "type": "function"
    },
    {
      "inputs": [
        {
          "internalType": "uint256",
          "name": "requestId",
          "type": "uint256"
        },
        {
          "internalType": "uint256[]",
          "name": "randomWords",
          "type": "uint256[]"
        }
      ],
      "name": "rawFulfillRandomWords",
      "outputs": [],
      "stateMutability": "nonpayable",
      "type": "function"
    },
    {
      "inputs": [
        {
          "internalType": "address[]",
          "name": "users",
          "type": "address[]"
        }
      ],
      "name": "removeListRacksMembers",
      "outputs": [],
      "stateMutability": "nonpayable",
      "type": "function"
    },
    {
      "inputs": [
        {
          "internalType": "address",
          "name": "user",
          "type": "address"
        }
      ],
      "name": "removeSingleRacksMember",
      "outputs": [],
      "stateMutability": "nonpayable",
      "type": "function"
    },
    {
      "inputs": [
        {
          "internalType": "bytes32",
          "name": "role",
          "type": "bytes32"
        },
        {
          "internalType": "address",
          "name": "account",
          "type": "address"
        }
      ],
      "name": "renounceRole",
      "outputs": [],
      "stateMutability": "nonpayable",
      "type": "function"
    },
    {
      "inputs": [
        {
          "internalType": "bytes32",
          "name": "role",
          "type": "bytes32"
        },
        {
          "internalType": "address",
          "name": "account",
          "type": "address"
        }
      ],
      "name": "revokeRole",
      "outputs": [],
      "stateMutability": "nonpayable",
      "type": "function"
    },
    {
      "inputs": [],
      "name": "s_contractState",
      "outputs": [
        {
          "internalType": "enum RacksItems.ContractState",
          "name": "",
          "type": "uint8"
        }
      ],
      "stateMutability": "view",
      "type": "function"
    },
    {
      "inputs": [],
      "name": "s_randomWord",
      "outputs": [
        {
          "internalType": "uint256",
          "name": "",
          "type": "uint256"
        }
      ],
      "stateMutability": "view",
      "type": "function"
    },
    {
      "inputs": [
        {
          "internalType": "address",
          "name": "from",
          "type": "address"
        },
        {
          "internalType": "address",
          "name": "to",
          "type": "address"
        },
        {
          "internalType": "uint256[]",
          "name": "ids",
          "type": "uint256[]"
        },
        {
          "internalType": "uint256[]",
          "name": "amounts",
          "type": "uint256[]"
        },
        {
          "internalType": "bytes",
          "name": "data",
          "type": "bytes"
        }
      ],
      "name": "safeBatchTransferFrom",
      "outputs": [],
      "stateMutability": "nonpayable",
      "type": "function"
    },
    {
      "inputs": [
        {
          "internalType": "address",
          "name": "from",
          "type": "address"
        },
        {
          "internalType": "address",
          "name": "to",
          "type": "address"
        },
        {
          "internalType": "uint256",
          "name": "id",
          "type": "uint256"
        },
        {
          "internalType": "uint256",
          "name": "amount",
          "type": "uint256"
        },
        {
          "internalType": "bytes",
          "name": "data",
          "type": "bytes"
        }
      ],
      "name": "safeTransferFrom",
      "outputs": [],
      "stateMutability": "nonpayable",
      "type": "function"
    },
    {
      "inputs": [
        {
          "internalType": "uint256",
          "name": "marketItemId",
          "type": "uint256"
        },
        {
          "internalType": "uint256",
          "name": "price",
          "type": "uint256"
        }
      ],
      "name": "sellItem",
      "outputs": [],
      "stateMutability": "nonpayable",
      "type": "function"
    },
    {
      "inputs": [
        {
          "internalType": "address",
          "name": "_newAdmin",
          "type": "address"
        }
      ],
      "name": "setAdmin",
      "outputs": [],
      "stateMutability": "nonpayable",
      "type": "function"
    },
    {
      "inputs": [
        {
          "internalType": "address",
          "name": "operator",
          "type": "address"
        },
        {
          "internalType": "bool",
          "name": "approved",
          "type": "bool"
        }
      ],
      "name": "setApprovalForAll",
      "outputs": [],
      "stateMutability": "nonpayable",
      "type": "function"
    },
    {
      "inputs": [
        {
          "internalType": "uint256",
          "name": "price",
          "type": "uint256"
        }
      ],
      "name": "setCasePrice",
      "outputs": [],
      "stateMutability": "nonpayable",
      "type": "function"
    },
    {
      "inputs": [
        {
          "internalType": "address[]",
          "name": "users",
          "type": "address[]"
        }
      ],
      "name": "setListRacksMembers",
      "outputs": [],
      "stateMutability": "nonpayable",
      "type": "function"
    },
    {
      "inputs": [
        {
          "internalType": "address",
          "name": "user",
          "type": "address"
        }
      ],
      "name": "setSingleRacksMember",
      "outputs": [],
      "stateMutability": "nonpayable",
      "type": "function"
    },
    {
      "inputs": [
        {
          "internalType": "uint256",
          "name": "tokenId",
          "type": "uint256"
        },
        {
          "internalType": "string",
          "name": "_uri",
          "type": "string"
        }
      ],
      "name": "setTokenUri",
      "outputs": [],
      "stateMutability": "nonpayable",
      "type": "function"
    },
    {
      "inputs": [
        {
          "internalType": "uint256",
          "name": "tokenId",
          "type": "uint256"
        }
      ],
      "name": "supplyOfItem",
      "outputs": [
        {
          "internalType": "uint256",
          "name": "",
          "type": "uint256"
        }
      ],
      "stateMutability": "view",
      "type": "function"
    },
    {
      "inputs": [
        {
          "internalType": "bytes4",
          "name": "interfaceId",
          "type": "bytes4"
        }
      ],
      "name": "supportsInterface",
      "outputs": [
        {
          "internalType": "bool",
          "name": "",
          "type": "bool"
        }
      ],
      "stateMutability": "view",
      "type": "function"
    },
    {
      "inputs": [
        {
          "internalType": "uint256",
          "name": "marketItemId",
          "type": "uint256"
        }
      ],
      "name": "unListItem",
      "outputs": [],
      "stateMutability": "nonpayable",
      "type": "function"
    },
    {
      "inputs": [
        {
          "internalType": "uint256",
          "name": "tokenId",
          "type": "uint256"
        }
      ],
      "name": "uri",
      "outputs": [
        {
          "internalType": "string",
          "name": "",
          "type": "string"
        }
      ],
      "stateMutability": "view",
      "type": "function"
    },
    {
      "inputs": [
        {
          "internalType": "address",
          "name": "owner",
          "type": "address"
        }
      ],
      "name": "viewItems",
      "outputs": [
        {
          "internalType": "uint256[]",
          "name": "",
          "type": "uint256[]"
        }
      ],
      "stateMutability": "view",
      "type": "function"
    },
    {
      "inputs": [
        {
          "internalType": "address",
          "name": "wallet",
          "type": "address"
        }
      ],
      "name": "withdrawAllFunds",
      "outputs": [],
      "stateMutability": "nonpayable",
      "type": "function"
    },
    {
      "inputs": [
        {
          "internalType": "address",
          "name": "wallet",
          "type": "address"
        },
        {
          "internalType": "uint256",
          "name": "amount",
          "type": "uint256"
        }
      ],
      "name": "withdrawFunds",
      "outputs": [],
      "stateMutability": "nonpayable",
      "type": "function"
    },
    {
      "stateMutability": "payable",
      "type": "receive"
    }
  ],
  "transactionHash": "0xce15f3fc02a62bad835cc1278c82918b5322ff27c2f46931058e7c6f0ffe6a19",
  "args": [
    "0x7a1BaC17Ccc5b313516C5E16fb24f7659aA5ebed",
    "0x4b09e658ed251bcafeebbc69400383d49f344ace09b9576fe248bb02c003fe9f",
    "286",
    "100000",
    "0x3855c456ca83b63377dC5b78726b4363684Bb538"
  ],
  "numDeployments": 24,
  "solcInputHash": "275528d18e9a597ef7e8fc74b476902b",
  "bytecode": "0x610120604052600b805460ff191660011790553480156200001f57600080fd5b50604051620040cc380380620040cc8339810160408190526200004291620001e7565b60408051602081019091526000815285906200005e816200010b565b50606090811b6001600160601b031990811660805295901b90941660a05260c0928352911b6001600160c01b03191660e09081521b6001600160e01b031916610100526004805473ef453154766505feb9dbf0a58e6990fd6eb669696001600160a01b0319918216179091556005805482166001600160a01b0393909316929092179091556006805433921691909117905560006008556001600a55600b805461ff0019169055620002a4565b80516200012090600290602084019062000124565b5050565b828054620001329062000267565b90600052602060002090601f016020900481019282620001565760008555620001a1565b82601f106200017157805160ff1916838001178555620001a1565b82800160010185558215620001a1579182015b82811115620001a157825182559160200191906001019062000184565b50620001af929150620001b3565b5090565b5b80821115620001af5760008155600101620001b4565b80516001600160a01b0381168114620001e257600080fd5b919050565b600080600080600060a086880312156200020057600080fd5b6200020b86620001ca565b6020870151604088015191965094506001600160401b03811681146200023057600080fd5b606087015190935063ffffffff811681146200024b57600080fd5b91506200025b60808701620001ca565b90509295509295909350565b600181811c908216806200027c57607f821691505b602082108114156200029e57634e487b7160e01b600052602260045260246000fd5b50919050565b60805160601c60a05160601c60c05160e05160c01c6101005160e01c613db4620003186000396000818161095701526116a901526000818161051a015261167601526000818161072401526116480152600081816107ed01526116e4015260008181610c820152610cc40152613db46000f3fe6080604052600436106102d85760003560e01c80638ba8b15a1161017b578063c1075329116100d7578063e289fcb611610085578063e289fcb61461098e578063e7fb74c7146109a8578063e985e9c5146109c8578063f23a6e6114610a11578063f242432a14610a3d578063f48c9d3414610a5d578063fd210fd914610a7d57600080fd5b8063c1075329146108a2578063c7be7a49146108c2578063c7e05f8d146108ef578063ca90958f1461090f578063d547741f14610925578063d757d02714610945578063de08f6531461097957600080fd5b8063a22cb46511610134578063a22cb4651461077b578063a7b194241461079b578063a7bc77c6146107bb578063aebc4550146107db578063b63b86121461080f578063bbcbc2e71461083b578063bc197c811461085d57600080fd5b80638ba8b15a146106d25780638dc5f45b146106f25780638e879c8a1461071257806391d1485414610746578063976298f314610766578063a217fddf1461067d57600080fd5b806336568abe1161023557806361652450116101e357806361652450146105f657806367f082b01461060b578063704b6c021461063357806372cf6e341461065357806375b238fc1461067d57806384203f4b1461069257806389165aa9146106b257600080fd5b806336568abe146104e8578063470cdf97146105085780634a226657146105545780634e1273f4146105695780635408c3191461059657806354e889f6146105b657806357f7789e146105d657600080fd5b806320ba08141161029257806320ba0814146103eb578063248a9ca3146104185780632ce38190146104485780632d923561146104685780632eb2c2d6146104885780632f2ff15d146104a857806332dee40b146104c857600080fd5b8062fdd58e146102e457806301ffc9a7146103175780630e89341c14610347578063109b8278146103745780631cb0b273146103a95780631fe543e3146103cb57600080fd5b366102df57005b600080fd5b3480156102f057600080fd5b506103046102ff3660046133ef565b610a93565b6040519081526020015b60405180910390f35b34801561032357600080fd5b50610337610332366004613511565b610b2d565b604051901515815260200161030e565b34801561035357600080fd5b506103676103623660046134d5565b610b38565b60405161030e91906138ec565b34801561038057600080fd5b5061039c73ef453154766505feb9dbf0a58e6990fd6eb6696981565b60405161030e9190613720565b3480156103b557600080fd5b506103c96103c43660046134d5565b610bda565b005b3480156103d757600080fd5b506103c96103e6366004613564565b610c77565b3480156103f757600080fd5b506103046104063660046134d5565b6000908152600f602052604090205490565b34801561042457600080fd5b506103046104333660046134d5565b60009081526003602052604090206001015490565b34801561045457600080fd5b506103c96104633660046134d5565b610cff565b34801561047457600080fd5b506103c96104833660046135f0565b610d31565b34801561049457600080fd5b506103c96104a33660046132ab565b610ef3565b3480156104b457600080fd5b506103c96104c33660046134ee565b610f8a565b3480156104d457600080fd5b506103c96104e336600461325d565b610fb4565b3480156104f457600080fd5b506103c96105033660046134ee565b611100565b34801561051457600080fd5b5061053c7f000000000000000000000000000000000000000000000000000000000000000081565b6040516001600160401b03909116815260200161030e565b34801561056057600080fd5b506103c961117a565b34801561057557600080fd5b50610589610584366004613455565b611396565b60405161030e9190613883565b3480156105a257600080fd5b506103c96105b1366004613419565b6114bf565b3480156105c257600080fd5b506103c96105d136600461325d565b61154c565b3480156105e257600080fd5b506103c96105f13660046135a0565b611595565b34801561060257600080fd5b50610304611639565b34801561061757600080fd5b50610620600381565b60405161ffff909116815260200161030e565b34801561063f57600080fd5b506103c961064e36600461325d565b611760565b34801561065f57600080fd5b50610668600281565b60405163ffffffff909116815260200161030e565b34801561068957600080fd5b50610304600081565b34801561069e57600080fd5b506103376106ad36600461325d565b611795565b3480156106be57600080fd5b506103c96106cd366004613419565b61184e565b3480156106de57600080fd5b506103c96106ed36600461325d565b6118db565b3480156106fe57600080fd5b506103c961070d3660046134d5565b611921565b34801561071e57600080fd5b506103047f000000000000000000000000000000000000000000000000000000000000000081565b34801561075257600080fd5b506103376107613660046134ee565b61197b565b34801561077257600080fd5b50600a54610304565b34801561078757600080fd5b506103c96107963660046133b8565b6119a6565b3480156107a757600080fd5b506103c96107b63660046135f0565b6119b1565b3480156107c757600080fd5b506103c96107d63660046134d5565b611aa0565b3480156107e757600080fd5b5061039c7f000000000000000000000000000000000000000000000000000000000000000081565b34801561081b57600080fd5b50600b5461082e90610100900460ff1681565b60405161030e91906138c4565b34801561084757600080fd5b50610850611b82565b60405161030e9190613835565b34801561086957600080fd5b506108896108783660046132ab565b63bc197c8160e01b95945050505050565b6040516001600160e01b0319909116815260200161030e565b3480156108ae57600080fd5b506103c96108bd3660046133ef565b611d57565b3480156108ce57600080fd5b506108e26108dd3660046134d5565b611ea3565b60405161030e9190613ab7565b3480156108fb57600080fd5b5061030461090a3660046134d5565b611f21565b34801561091b57600080fd5b50610304600a5481565b34801561093157600080fd5b506103c96109403660046134ee565b611f58565b34801561095157600080fd5b506106687f000000000000000000000000000000000000000000000000000000000000000081565b34801561098557600080fd5b506103c9611f7d565b34801561099a57600080fd5b50600b546103379060ff1681565b3480156109b457600080fd5b506103c96109c33660046134d5565b611fe4565b3480156109d457600080fd5b506103376109e3366004613278565b6001600160a01b03918216600090815260016020908152604080832093909416825291909152205460ff1690565b348015610a1d57600080fd5b50610889610a2c366004613354565b63f23a6e6160e01b95945050505050565b348015610a4957600080fd5b506103c9610a58366004613354565b6121c2565b348015610a6957600080fd5b50610589610a7836600461325d565b612249565b348015610a8957600080fd5b50610304600d5481565b60006001600160a01b038316610b045760405162461bcd60e51b815260206004820152602b60248201527f455243313135353a2062616c616e636520717565727920666f7220746865207a60448201526a65726f206164647265737360a81b60648201526084015b60405180910390fd5b506000818152602081815260408083206001600160a01b03861684529091529020545b92915050565b6000610b27826122df565b6000818152601060205260409020805460609190610b5590613b91565b80601f0160208091040260200160405190810160405280929190818152602001828054610b8190613b91565b8015610bce5780601f10610ba357610100808354040283529160200191610bce565b820191906000526020600020905b815481529060010190602001808311610bb157829003601f168201915b50505050509050919050565b6000610be63383610a93565b11610bf057600080fd5b610bfc33826001612304565b6000818152600f60205260408120805460019290610c1b908490613b33565b92505081905550600160076000828254610c359190613b33565b90915550506040517f9e90d55d2f1f115ffe1b87372c45f27f6b3a2b5ba392942167be78456189009490610c6c90339084906137fb565b60405180910390a150565b336001600160a01b037f00000000000000000000000000000000000000000000000000000000000000001614610cf15760405163073e64fd60e21b81523360048201526001600160a01b037f0000000000000000000000000000000000000000000000000000000000000000166024820152604401610afb565b610cfb8282612473565b5050565b610d0833612498565b610d245760405162461bcd60e51b8152600401610afb90613a47565b610d2e30826124c6565b50565b6000610d3d3384610a93565b11610d7c5760405162461bcd60e51b815260206004820152600f60248201526e24ba32b6903737ba103337bab7321760891b6044820152606401610afb565b610d99333084600160405180602001604052806000815250612531565b6040805160a08101825283815260098054602083019081529282018481523360608401908152600060808501818152600c8054600181018255908352955160049096027fdf6966c971051c3d54ec59162606531493a51404a002842f56009d7e5cf4a8c781019690965595517fdf6966c971051c3d54ec59162606531493a51404a002842f56009d7e5cf4a8c886015591517fdf6966c971051c3d54ec59162606531493a51404a002842f56009d7e5cf4a8c9850155517fdf6966c971051c3d54ec59162606531493a51404a002842f56009d7e5cf4a8ca909301805494511515600160a01b026001600160a81b03199095166001600160a01b03949094169390931793909317909155805491610eaf83613bf8565b91905055507f23cba88d6c6f26b62b2cfc32a2cc04fbbde8590188b97cd3590e45af9ac6dd6d338383604051610ee793929190613814565b60405180910390a15050565b6001600160a01b038516331480610f0f5750610f0f85336109e3565b610f765760405162461bcd60e51b815260206004820152603260248201527f455243313135353a207472616e736665722063616c6c6572206973206e6f74206044820152711bdddb995c881b9bdc88185c1c1c9bdd995960721b6064820152608401610afb565b610f838585858585612649565b5050505050565b600082815260036020526040902060010154610fa581612826565b610faf8383612830565b505050565b6006546001600160a01b03163314610fde5760405162461bcd60e51b8152600401610afb90613a88565b6005546040516370a0823160e01b81526000916001600160a01b0316906370a082319061100f903090600401613720565b60206040518083038186803b15801561102757600080fd5b505afa15801561103b573d6000803e3d6000fd5b505050506040513d601f19601f8201168201806040525081019061105f919061354b565b1161107c5760405162461bcd60e51b8152600401610afb90613947565b60055460405163a9059cbb60e01b81526001600160a01b039091169063a9059cbb906110ae90849047906004016137fb565b602060405180830381600087803b1580156110c857600080fd5b505af11580156110dc573d6000803e3d6000fd5b505050506040513d601f19601f82011682018060405250810190610cfb91906134b8565b6001600160a01b03811633146111705760405162461bcd60e51b815260206004820152602f60248201527f416363657373436f6e74726f6c3a2063616e206f6e6c792072656e6f756e636560448201526e103937b632b9903337b91039b2b63360891b6064820152608401610afb565b610cfb82826128b6565b6000600b54610100900460ff16600181111561119857611198613c53565b146111f35760405162461bcd60e51b815260206004820152602560248201527f436f6e7472616374206973206e6f74206163746976652061742074686973206d6044820152641bdb595b9d60da1b6064820152608401610afb565b600554600a546040516323b872dd60e01b81526001600160a01b03909216916323b872dd916112289133913091600401613792565b602060405180830381600087803b15801561124257600080fd5b505af1158015611256573d6000803e3d6000fd5b505050506040513d601f19601f8201168201806040525081019061127a91906134b8565b506000600754611288611639565b6112929190613c13565b9050600080805b600854811015611353576000818152600f60205260408120546112bc9085613ae8565b9050808511156112ce57809350611340565b8192506112db3084610a93565b61131d5760006112ec600185613b33565b90505b60006112fb3083610a93565b11156113095780935061131b565b8061131381613b7a565b9150506112ef565b505b61133a303385600160405180602001604052806000815250612531565b50611353565b508061134b81613bf8565b915050611299565b507fea32e37a2618dbb680c93d891742e9e13b30d184822562a0ee3c09290fd42b4333600a548360405161138993929190613814565b60405180910390a1505050565b606081518351146113fb5760405162461bcd60e51b815260206004820152602960248201527f455243313135353a206163636f756e747320616e6420696473206c656e677468604482015268040dad2e6dac2e8c6d60bb1b6064820152608401610afb565b600083516001600160401b0381111561141657611416613c7f565b60405190808252806020026020018201604052801561143f578160200160208202803683370190505b50905060005b84518110156114b75761148a85828151811061146357611463613c69565b602002602001015185838151811061147d5761147d613c69565b6020026020010151610a93565b82828151811061149c5761149c613c69565b60209081029190910101526114b081613bf8565b9050611445565b509392505050565b6114c833612498565b6114e45760405162461bcd60e51b8152600401610afb90613a47565b60005b8151811015610cfb576000600e600084848151811061150857611508613c69565b6020908102919091018101516001600160a01b03168252810191909152604001600020805460ff19169115159190911790558061154481613bf8565b9150506114e7565b61155533612498565b6115715760405162461bcd60e51b8152600401610afb90613a47565b6001600160a01b03166000908152600e60205260409020805460ff19166001179055565b61159e33612498565b6115ba5760405162461bcd60e51b8152600401610afb90613a47565b600082815260106020526040902080546115d390613b91565b15905061161a5760405162461bcd60e51b815260206004820152601560248201527443616e206e6f74207365742075726920747769636560581b6044820152606401610afb565b60008281526010602090815260409091208251610faf92840190613009565b6040516305d3b1d360e41b81527f000000000000000000000000000000000000000000000000000000000000000060048201526001600160401b037f00000000000000000000000000000000000000000000000000000000000000001660248201526003604482015263ffffffff7f00000000000000000000000000000000000000000000000000000000000000001660648201526002608482015260009081906001600160a01b037f00000000000000000000000000000000000000000000000000000000000000001690635d3b1d309060a401602060405180830381600087803b15801561172857600080fd5b505af115801561173c573d6000803e3d6000fd5b505050506040513d601f19601f82011682018060405250810190610b27919061354b565b6006546001600160a01b0316331461178a5760405162461bcd60e51b8152600401610afb90613a88565b610d2e60008261291d565b600480546040516370a0823160e01b815260009283926001600160a01b0316916370a08231916117c791879101613720565b60206040518083038186803b1580156117df57600080fd5b505afa1580156117f3573d6000803e3d6000fd5b505050506040513d601f19601f82011682018060405250810190611817919061354b565b1161182157600080fd5b6001600160a01b0382166000908152600e602052604090205460ff1661184657600080fd5b506001919050565b61185733612498565b6118735760405162461bcd60e51b8152600401610afb90613a47565b60005b8151811015610cfb576001600e600084848151811061189757611897613c69565b6020908102919091018101516001600160a01b03168252810191909152604001600020805460ff1916911515919091179055806118d381613bf8565b915050611876565b6118e433612498565b6119005760405162461bcd60e51b8152600401610afb90613a47565b6001600160a01b03166000908152600e60205260409020805460ff19169055565b61192a33612498565b6119465760405162461bcd60e51b8152600401610afb90613a47565b600a8190556040518181527f06cd74aabc11982a85b554df4d7833623303656fe69bed4db1b0cb3245feebe390602001610c6c565b60009182526003602090815260408084206001600160a01b0393909316845291905290205460ff1690565b610cfb338383612927565b336001600160a01b0316600c83815481106119ce576119ce613c69565b60009182526020909120600360049092020101546001600160a01b031614611a085760405162461bcd60e51b8152600401610afb90613975565b6000600c8381548110611a1d57611a1d613c69565b906000526020600020906004020160020154905081600c8481548110611a4557611a45613c69565b600091825260209182902060026004909202010191909155604080513381529182018590528101829052606081018390527fb141d00f22a670547caacc412e6489d8edaba6a840df558118363ce1a40d6ed290608001611389565b336001600160a01b0316600c8281548110611abd57611abd613c69565b60009182526020909120600360049092020101546001600160a01b031614611af75760405162461bcd60e51b8152600401610afb90613975565b611b14303383600160405180602001604052806000815250612531565b6001600c8281548110611b2957611b29613c69565b906000526020600020906004020160030160146101000a81548160ff0219169083151502179055507fc9cedcca3d85d6009a562a9e70071f6288adabda9ba7f059589165e75c9cf4043382604051610c6c9291906137fb565b60606000805b600c54811015611c2e576000600c8281548110611ba757611ba7613c69565b60009182526020918290206040805160a0810182526004909302909101805483526001810154938301939093526002830154908201526003909101546001600160a01b038116606083015260ff600160a01b90910416151560808201819052909150611c1b57611c18600184613ae8565b92505b5080611c2681613bf8565b915050611b88565b506000816001600160401b03811115611c4957611c49613c7f565b604051908082528060200260200182016040528015611c8257816020015b611c6f61308d565b815260200190600190039081611c675790505b5090506000805b600c54811015611d4e576000600c8281548110611ca857611ca8613c69565b60009182526020918290206040805160a0810182526004909302909101805483526001810154938301939093526002830154908201526003909101546001600160a01b038116606083015260ff600160a01b90910416151560808201819052909150611d3b5780848481518110611d2157611d21613c69565b60200260200101819052508280611d3790613bf8565b9350505b5080611d4681613bf8565b915050611c89565b50909392505050565b6006546001600160a01b03163314611d815760405162461bcd60e51b8152600401610afb90613a88565b6005546040516370a0823160e01b81526000916001600160a01b0316906370a0823190611db2903090600401613720565b60206040518083038186803b158015611dca57600080fd5b505afa158015611dde573d6000803e3d6000fd5b505050506040513d601f19601f82011682018060405250810190611e02919061354b565b11611e1f5760405162461bcd60e51b8152600401610afb90613947565b60055460405163a9059cbb60e01b81526001600160a01b039091169063a9059cbb90611e5190859085906004016137fb565b602060405180830381600087803b158015611e6b57600080fd5b505af1158015611e7f573d6000803e3d6000fd5b505050506040513d601f19601f82011682018060405250810190610faf91906134b8565b611eab61308d565b600c8281548110611ebe57611ebe613c69565b60009182526020918290206040805160a0810182526004909302909101805483526001810154938301939093526002830154908201526003909101546001600160a01b038116606083015260ff600160a01b909104161515608082015292915050565b6000611f2c82612a08565b611f3557600080fd5b6000828152600f6020526040812054600754611f519190613b00565b9392505050565b600082815260036020526040902060010154611f7381612826565b610faf83836128b6565b611f8633612498565b611fa25760405162461bcd60e51b8152600401610afb90613a47565b6000600b54610100900460ff166001811115611fc057611fc0613c53565b1415611fd757600b805461ff001916610100179055565b600b805461ff0019169055565b6000600c8281548110611ff957611ff9613c69565b60009182526020918290206040805160a081018252600493909302909101805483526001810154938301939093526002830154908201526003909101546001600160a01b03811660608301819052600160a01b90910460ff161515608083015290915033141561206857600080fd5b60808101511561207757600080fd5b600554606082015160408084015190516323b872dd60e01b81526001600160a01b03909316926323b872dd926120b1923392600401613792565b602060405180830381600087803b1580156120cb57600080fd5b505af11580156120df573d6000803e3d6000fd5b505050506040513d601f19601f8201168201806040525081019061210391906134b8565b5061212530338360000151600160405180602001604052806000815250612531565b6001600c838154811061213a5761213a613c69565b60009182526020918290206003600490920201018054921515600160a01b0260ff60a01b199093169290921790915560608083015160408085015181513381526001600160a01b03909316948301949094528101859052908101919091527f642067ff529c9b5b1162502fc8e8a3a91dda56e126a84f2fe38d341236231a8290608001610ee7565b6001600160a01b0385163314806121de57506121de85336109e3565b61223c5760405162461bcd60e51b815260206004820152602960248201527f455243313135353a2063616c6c6572206973206e6f74206f776e6572206e6f7260448201526808185c1c1c9bdd995960ba1b6064820152608401610afb565b610f838585858585612531565b606060006008546001600160401b0381111561226757612267613c7f565b604051908082528060200260200182016040528015612290578160200160208202803683370190505b50905060005b81518110156122d8576122a98482610a93565b8282815181106122bb576122bb613c69565b6020908102919091010152806122d081613bf8565b915050612296565b5092915050565b60006001600160e01b03198216637965db0b60e01b1480610b275750610b2782612a20565b6001600160a01b0383166123665760405162461bcd60e51b815260206004820152602360248201527f455243313135353a206275726e2066726f6d20746865207a65726f206164647260448201526265737360e81b6064820152608401610afb565b33600061237284612a45565b9050600061237f84612a45565b60408051602080820183526000918290528882528181528282206001600160a01b038b16835290522054909150848110156124085760405162461bcd60e51b8152602060048201526024808201527f455243313135353a206275726e20616d6f756e7420657863656564732062616c604482015263616e636560e01b6064820152608401610afb565b6000868152602081815260408083206001600160a01b038b81168086529184528285208a8703905582518b81529384018a9052909290881691600080516020613d5f833981519152910160405180910390a46040805160208101909152600090525b50505050505050565b8060008151811061248657612486613c69565b6020026020010151600d819055505050565b6006546000906001600160a01b03838116911614806124bd57506124bd60008361197b565b61184657600080fd5b6124e3826008548360405180602001604052806000815250612a90565b6124fc600854826000918252600f602052604090912055565b806007600082825461250e9190613ae8565b925050819055506001600860008282546125289190613ae8565b90915550505050565b6001600160a01b0384166125575760405162461bcd60e51b8152600401610afb906139b8565b33600061256385612a45565b9050600061257085612a45565b90506000868152602081815260408083206001600160a01b038c168452909152902054858110156125b35760405162461bcd60e51b8152600401610afb906139fd565b6000878152602081815260408083206001600160a01b038d8116855292528083208985039055908a168252812080548892906125f0908490613ae8565b909155505060408051888152602081018890526001600160a01b03808b16928c82169291881691600080516020613d5f833981519152910160405180910390a461263e848a8a8a8a8a612b85565b505050505050505050565b81518351146126ab5760405162461bcd60e51b815260206004820152602860248201527f455243313135353a2069647320616e6420616d6f756e7473206c656e677468206044820152670dad2e6dac2e8c6d60c31b6064820152608401610afb565b6001600160a01b0384166126d15760405162461bcd60e51b8152600401610afb906139b8565b3360005b84518110156127b85760008582815181106126f2576126f2613c69565b60200260200101519050600085838151811061271057612710613c69565b602090810291909101810151600084815280835260408082206001600160a01b038e1683529093529190912054909150818110156127605760405162461bcd60e51b8152600401610afb906139fd565b6000838152602081815260408083206001600160a01b038e8116855292528083208585039055908b1682528120805484929061279d908490613ae8565b92505081905550505050806127b190613bf8565b90506126d5565b50846001600160a01b0316866001600160a01b0316826001600160a01b03167f4a39dc06d4c0dbc64b70af90fd698a233a518aa5d07e595d983b8c0526c8f7fb8787604051612808929190613896565b60405180910390a461281e818787878787612cf0565b505050505050565b610d2e8133612dba565b61283a828261197b565b610cfb5760008281526003602090815260408083206001600160a01b03851684529091529020805460ff191660011790556128723390565b6001600160a01b0316816001600160a01b0316837f2f8788117e7eff1d82e926ec794901d17c78024a50270940304540a733656f0d60405160405180910390a45050565b6128c0828261197b565b15610cfb5760008281526003602090815260408083206001600160a01b0385168085529252808320805460ff1916905551339285917ff6391f5c32d9c69d2a47ea670b442974b53935d1edc7fd64eb21e047a839171b9190a45050565b610cfb8282612830565b816001600160a01b0316836001600160a01b0316141561299b5760405162461bcd60e51b815260206004820152602960248201527f455243313135353a2073657474696e6720617070726f76616c20737461747573604482015268103337b91039b2b63360b91b6064820152608401610afb565b6001600160a01b03838116600081815260016020908152604080832094871680845294825291829020805460ff191686151590811790915591519182527f17307eab39ab6107e8899845ad3d59bd9653f200f220920489ca2b5937696c31910160405180910390a3505050565b6000818152600f602052604081205461184657600080fd5b60006001600160e01b03198216630271189760e51b1480610b275750610b2782612e1e565b60408051600180825281830190925260609160009190602080830190803683370190505090508281600081518110612a7f57612a7f613c69565b602090810291909101015292915050565b6001600160a01b038416612af05760405162461bcd60e51b815260206004820152602160248201527f455243313135353a206d696e7420746f20746865207a65726f206164647265736044820152607360f81b6064820152608401610afb565b336000612afc85612a45565b90506000612b0985612a45565b90506000868152602081815260408083206001600160a01b038b16845290915281208054879290612b3b908490613ae8565b909155505060408051878152602081018790526001600160a01b03808a169260009291871691600080516020613d5f833981519152910160405180910390a461246a836000898989895b6001600160a01b0384163b1561281e5760405163f23a6e6160e01b81526001600160a01b0385169063f23a6e6190612bc990899089908890889088906004016137b6565b602060405180830381600087803b158015612be357600080fd5b505af1925050508015612c13575060408051601f3d908101601f19168201909252612c109181019061352e565b60015b612cc057612c1f613c95565b806308c379a01415612c595750612c34613cb1565b80612c3f5750612c5b565b8060405162461bcd60e51b8152600401610afb91906138ec565b505b60405162461bcd60e51b815260206004820152603460248201527f455243313135353a207472616e7366657220746f206e6f6e20455243313135356044820152732932b1b2b4bb32b91034b6b83632b6b2b73a32b960611b6064820152608401610afb565b6001600160e01b0319811663f23a6e6160e01b1461246a5760405162461bcd60e51b8152600401610afb906138ff565b6001600160a01b0384163b1561281e5760405163bc197c8160e01b81526001600160a01b0385169063bc197c8190612d349089908990889088908890600401613734565b602060405180830381600087803b158015612d4e57600080fd5b505af1925050508015612d7e575060408051601f3d908101601f19168201909252612d7b9181019061352e565b60015b612d8a57612c1f613c95565b6001600160e01b0319811663bc197c8160e01b1461246a5760405162461bcd60e51b8152600401610afb906138ff565b612dc4828261197b565b610cfb57612ddc816001600160a01b03166014612e6e565b612de7836020612e6e565b604051602001612df89291906136b1565b60408051601f198184030181529082905262461bcd60e51b8252610afb916004016138ec565b60006001600160e01b03198216636cdb3d1360e11b1480612e4f57506001600160e01b031982166303a24d0760e21b145b80610b2757506301ffc9a760e01b6001600160e01b0319831614610b27565b60606000612e7d836002613b14565b612e88906002613ae8565b6001600160401b03811115612e9f57612e9f613c7f565b6040519080825280601f01601f191660200182016040528015612ec9576020820181803683370190505b509050600360fc1b81600081518110612ee457612ee4613c69565b60200101906001600160f81b031916908160001a905350600f60fb1b81600181518110612f1357612f13613c69565b60200101906001600160f81b031916908160001a9053506000612f37846002613b14565b612f42906001613ae8565b90505b6001811115612fba576f181899199a1a9b1b9c1cb0b131b232b360811b85600f1660108110612f7657612f76613c69565b1a60f81b828281518110612f8c57612f8c613c69565b60200101906001600160f81b031916908160001a90535060049490941c93612fb381613b7a565b9050612f45565b508315611f515760405162461bcd60e51b815260206004820181905260248201527f537472696e67733a20686578206c656e67746820696e73756666696369656e746044820152606401610afb565b82805461301590613b91565b90600052602060002090601f016020900481019282613037576000855561307d565b82601f1061305057805160ff191683800117855561307d565b8280016001018555821561307d579182015b8281111561307d578251825591602001919060010190613062565b506130899291506130c7565b5090565b6040518060a0016040528060008152602001600081526020016000815260200160006001600160a01b031681526020016000151581525090565b5b8082111561308957600081556001016130c8565b60006001600160401b038311156130f5576130f5613c7f565b60405161310c601f8501601f191660200182613bcc565b80915083815284848401111561312157600080fd5b83836020830137600060208583010152509392505050565b80356001600160a01b038116811461315057600080fd5b919050565b600082601f83011261316657600080fd5b8135602061317382613ac5565b6040516131808282613bcc565b8381528281019150858301600585901b870184018810156131a057600080fd5b60005b858110156131c6576131b482613139565b845292840192908401906001016131a3565b5090979650505050505050565b600082601f8301126131e457600080fd5b813560206131f182613ac5565b6040516131fe8282613bcc565b8381528281019150858301600585901b8701840188101561321e57600080fd5b60005b858110156131c657813584529284019290840190600101613221565b600082601f83011261324e57600080fd5b611f51838335602085016130dc565b60006020828403121561326f57600080fd5b611f5182613139565b6000806040838503121561328b57600080fd5b61329483613139565b91506132a260208401613139565b90509250929050565b600080600080600060a086880312156132c357600080fd5b6132cc86613139565b94506132da60208701613139565b935060408601356001600160401b03808211156132f657600080fd5b61330289838a016131d3565b9450606088013591508082111561331857600080fd5b61332489838a016131d3565b9350608088013591508082111561333a57600080fd5b506133478882890161323d565b9150509295509295909350565b600080600080600060a0868803121561336c57600080fd5b61337586613139565b945061338360208701613139565b9350604086013592506060860135915060808601356001600160401b038111156133ac57600080fd5b6133478882890161323d565b600080604083850312156133cb57600080fd5b6133d483613139565b915060208301356133e481613d3a565b809150509250929050565b6000806040838503121561340257600080fd5b61340b83613139565b946020939093013593505050565b60006020828403121561342b57600080fd5b81356001600160401b0381111561344157600080fd5b61344d84828501613155565b949350505050565b6000806040838503121561346857600080fd5b82356001600160401b038082111561347f57600080fd5b61348b86838701613155565b935060208501359150808211156134a157600080fd5b506134ae858286016131d3565b9150509250929050565b6000602082840312156134ca57600080fd5b8151611f5181613d3a565b6000602082840312156134e757600080fd5b5035919050565b6000806040838503121561350157600080fd5b823591506132a260208401613139565b60006020828403121561352357600080fd5b8135611f5181613d48565b60006020828403121561354057600080fd5b8151611f5181613d48565b60006020828403121561355d57600080fd5b5051919050565b6000806040838503121561357757600080fd5b8235915060208301356001600160401b0381111561359457600080fd5b6134ae858286016131d3565b600080604083850312156135b357600080fd5b8235915060208301356001600160401b038111156135d057600080fd5b8301601f810185136135e157600080fd5b6134ae858235602084016130dc565b6000806040838503121561360357600080fd5b50508035926020909101359150565b600081518084526020808501945080840160005b8381101561364257815187529582019590820190600101613626565b509495945050505050565b60008151808452613665816020860160208601613b4a565b601f01601f19169290920160200192915050565b8051825260208082015190830152604080820151908301526060808201516001600160a01b0316908301526080908101511515910152565b76020b1b1b2b9b9a1b7b73a3937b61d1030b1b1b7bab73a1604d1b8152600083516136e3816017850160208801613b4a565b7001034b99036b4b9b9b4b733903937b6329607d1b6017918401918201528351613714816028840160208801613b4a565b01602801949350505050565b6001600160a01b0391909116815260200190565b6001600160a01b0386811682528516602082015260a06040820181905260009061376090830186613612565b82810360608401526137728186613612565b90508281036080840152613786818561364d565b98975050505050505050565b6001600160a01b039384168152919092166020820152604081019190915260600190565b6001600160a01b03868116825285166020820152604081018490526060810183905260a0608082018190526000906137f09083018461364d565b979650505050505050565b6001600160a01b03929092168252602082015260400190565b6001600160a01b039390931683526020830191909152604082015260600190565b6020808252825182820181905260009190848201906040850190845b8181101561387757613864838551613679565b9284019260a09290920191600101613851565b50909695505050505050565b602081526000611f516020830184613612565b6040815260006138a96040830185613612565b82810360208401526138bb8185613612565b95945050505050565b60208101600283106138e657634e487b7160e01b600052602160045260246000fd5b91905290565b602081526000611f51602083018461364d565b60208082526028908201527f455243313135353a204552433131353552656365697665722072656a656374656040820152676420746f6b656e7360c01b606082015260800190565b6020808252601490820152734e6f2066756e647320746f20776974686472617760601b604082015260600190565b60208082526023908201527f596f7520617265206e6f7420746865206f776e6572206f66207468697320697460408201526232b69760e91b606082015260800190565b60208082526025908201527f455243313135353a207472616e7366657220746f20746865207a65726f206164604082015264647265737360d81b606082015260800190565b6020808252602a908201527f455243313135353a20696e73756666696369656e742062616c616e636520666f60408201526939103a3930b739b332b960b11b606082015260800190565b60208082526021908201527f55736572206973206e6f7420746865204f776e6572206f7220616e2041646d696040820152603760f91b606082015260800190565b6020808252601590820152742ab9b2b91034b9903737ba103a34329037bbb732b960591b604082015260600190565b60a08101610b278284613679565b60006001600160401b03821115613ade57613ade613c7f565b5060051b60200190565b60008219821115613afb57613afb613c27565b500190565b600082613b0f57613b0f613c3d565b500490565b6000816000190483118215151615613b2e57613b2e613c27565b500290565b600082821015613b4557613b45613c27565b500390565b60005b83811015613b65578181015183820152602001613b4d565b83811115613b74576000848401525b50505050565b600081613b8957613b89613c27565b506000190190565b600181811c90821680613ba557607f821691505b60208210811415613bc657634e487b7160e01b600052602260045260246000fd5b50919050565b601f8201601f191681016001600160401b0381118282101715613bf157613bf1613c7f565b6040525050565b6000600019821415613c0c57613c0c613c27565b5060010190565b600082613c2257613c22613c3d565b500690565b634e487b7160e01b600052601160045260246000fd5b634e487b7160e01b600052601260045260246000fd5b634e487b7160e01b600052602160045260246000fd5b634e487b7160e01b600052603260045260246000fd5b634e487b7160e01b600052604160045260246000fd5b600060033d1115613cae5760046000803e5060005160e01c5b90565b600060443d1015613cbf5790565b6040516003193d81016004833e81513d6001600160401b038160248401118184111715613cee57505050505090565b8285019150815181811115613d065750505050505090565b843d8701016020828501011115613d205750505050505090565b613d2f60208286010187613bcc565b509095945050505050565b8015158114610d2e57600080fd5b6001600160e01b031981168114610d2e57600080fdfec3d58168c5ae7397731d063d5bbf3d657854427343f4c083240f7aacaa2d0f62a264697066735822122089fb8d305f05d6efb81c1f04a38172ccc6cf3b9b5c5f1b380ddec4fd8e421d3b64736f6c63430008070033",
  "devdoc": {
    "kind": "dev",
    "methods": {
      "_randomNumber()": {
        "details": "Uses Chainlink VRF -> call requestRandomWords method by using o_vrfCoordinator object set as internal because is going to be called only when a case is opened"
      },
      "_rarityOfItem(uint256)": {
        "details": "- Requires that tokenId exists (item is listed) - chance is calculated as item supply divided by total items supply"
      },
      "balanceOf(address,uint256)": {
        "details": "See {IERC1155-balanceOf}. Requirements: - `account` cannot be the zero address."
      },
      "balanceOfBatch(address[],uint256[])": {
        "details": "See {IERC1155-balanceOfBatch}. Requirements: - `accounts` and `ids` must have the same length."
      },
      "buyItem(uint256)": {
        "details": "- Needs to check that user is not trying to buy its own item - Needs to check that item was not sold before - Needs to transfer tokens from buyer to seller - Needs to transfer item from seller to buyer - Update sold attribute from array - Emit event "
      },
      "changeItemPrice(uint256,uint256)": {
        "details": "- Needs to check that user is trying to unlist an item he owns - Needs to update price status - Emit event"
      },
      "flipContractState()": {
        "details": "Only callable by the Owner or an admin"
      },
      "getRoleAdmin(bytes32)": {
        "details": "Returns the admin role that controls `role`. See {grantRole} and {revokeRole}. To change a role's admin, use {_setRoleAdmin}."
      },
      "grantRole(bytes32,address)": {
        "details": "Grants `role` to `account`. If `account` had not been already granted `role`, emits a {RoleGranted} event. Requirements: - the caller must have ``role``'s admin role."
      },
      "hasRole(bytes32,address)": {
        "details": "Returns `true` if `account` has been granted `role`."
      },
      "isApprovedForAll(address,address)": {
        "details": "See {IERC1155-isApprovedForAll}."
      },
      "isVip(address)": {
        "details": "- Require users MrCrypro's balance is > ' - Require that RacksMembers user's attribute is true"
      },
      "listItem(uint256)": {
        "details": "Only callable by the Owner"
      },
      "openCase()": {
        "details": " - Should check that msg.value is bigger than casePrice - Should transfer msg.value to the contract - Internally calls randomNumber()  - Apply modular function for the randomNumber to be between 0 and totalSupply of items - Should choose an item"
      },
      "removeListRacksMembers(address[])": {
        "details": "Only callable by the Owner Require comented because maybe owner or admin are trying to set as false some address that was already set as false"
      },
      "removeSingleRacksMember(address)": {
        "details": "Only callable by the Owner Require comented because maybe owner or admin are trying to set as false some address that was already set as false"
      },
      "renounceRole(bytes32,address)": {
        "details": "Revokes `role` from the calling account. Roles are often managed via {grantRole} and {revokeRole}: this function's purpose is to provide a mechanism for accounts to lose their privileges if they are compromised (such as when a trusted device is misplaced). If the calling account had been revoked `role`, emits a {RoleRevoked} event. Requirements: - the caller must be `account`."
      },
      "revokeRole(bytes32,address)": {
        "details": "Revokes `role` from `account`. If `account` had been granted `role`, emits a {RoleRevoked} event. Requirements: - the caller must have ``role``'s admin role."
      },
      "safeBatchTransferFrom(address,address,uint256[],uint256[],bytes)": {
        "details": "See {IERC1155-safeBatchTransferFrom}."
      },
      "safeTransferFrom(address,address,uint256,uint256,bytes)": {
        "details": "See {IERC1155-safeTransferFrom}."
      },
      "sellItem(uint256,uint256)": {
        "details": "- Needs to check balanceOf item trying to be sold - Needs to transfer item  - Update marketItems array - Emit event "
      },
      "setAdmin(address)": {
        "details": "Only callable by the Owner"
      },
      "setApprovalForAll(address,bool)": {
        "details": "See {IERC1155-setApprovalForAll}."
      },
      "setCasePrice(uint256)": {
        "details": "Only callable by the Owner"
      },
      "setListRacksMembers(address[])": {
        "details": "Only callable by the Owner Require comented because maybe owner or admin are trying to set as true some address that was already set as true"
      },
      "setSingleRacksMember(address)": {
        "details": "Only callable by the Owner Require comented because maybe owner or admin are trying to set as true some address that was already set as true"
      },
      "setTokenUri(uint256,string)": {
        "details": "- Only Owner or Admins can call this function - Need to specify:  - tokenId: specific item you want to set its uri  - uri: uri wanted to be set"
      },
      "supplyOfItem(uint256)": {
        "details": "- Getter of s_maxSupply mapping"
      },
      "unListItem(uint256)": {
        "details": "- Needs to check that user is trying to unlist an item he owns - Needs to transfer item from contract to user address - Update item's sold variable - Emit event"
      },
      "uri(uint256)": {
        "details": "- returns information stored in s_uris mapping - Any user can check this information"
      },
      "viewItems(address)": {
        "details": "Copy users inventory in an empty array and returns it"
      },
      "withdrawAllFunds(address)": {
        "details": " - Only owner is able to call this function - Should check that there are avaliable funds to withdraw - Should specify the wallet address you want to transfer the funds to"
      },
      "withdrawFunds(address,uint256)": {
        "details": " - Only owner is able to call this function - Should check that there are avaliable funds to withdraw - Should specify the wallet address you want to transfer the funds to - Should specify the amount of funds you want to transfer"
      }
    },
    "version": 1
  },
  "userdoc": {
    "events": {
      "CaseOpened(address,uint256,uint256)": {
        "notice": "Events"
      }
    },
    "kind": "user",
    "methods": {
      "ADMIN_ROLE()": {
        "notice": "Standard variables"
      },
      "_randomNumber()": {
        "notice": "Used to get an actually Random Number -> to pick an item when openning a case"
      },
      "_rarityOfItem(uint256)": {
        "notice": "Calculate chance of receiving an specific item - As higher is result higher is the rarity of the item"
      },
      "buyItem(uint256)": {
        "notice": "Function used to buy an item on the marketplace"
      },
      "changeItemPrice(uint256,uint256)": {
        "notice": "Function used to change price from item listed "
      },
      "exchangeItem(uint256)": {
        "notice": "Function used to exchange a token item for a real physical clothe."
      },
      "flipContractState()": {
        "notice": "Change contract state from Active to Inactive and viceversa"
      },
      "getCasePrice()": {
        "notice": "View case price"
      },
      "getMarketItem(uint256)": {
        "notice": "Function used to return items that are currently on sale"
      },
      "i_vrfCoordinator()": {
        "notice": "VRF Variables"
      },
      "isVip(address)": {
        "notice": "Check if user is RacksMembers and owns at least 1 MrCrypto"
      },
      "listItem(uint256)": {
        "notice": "List a new item to the avaliable collection"
      },
      "openCase()": {
        "notice": "Function used to 'open a case' and get an item"
      },
      "removeListRacksMembers(address[])": {
        "notice": "Set RacksMember attribute as false for a list of users that are Members (array)"
      },
      "removeSingleRacksMember(address)": {
        "notice": "Set RacksMember attribute as false for a user that was Racks Member before but it is not now"
      },
      "sellItem(uint256,uint256)": {
        "notice": "Function used to sell an item on the marketplace"
      },
      "setAdmin(address)": {
        "notice": "Set new Admin"
      },
      "setCasePrice(uint256)": {
        "notice": "Change price of the box"
      },
      "setListRacksMembers(address[])": {
        "notice": "Set RacksMember attribute as true for a list of users that are Members (array)"
      },
      "setSingleRacksMember(address)": {
        "notice": "Set RacksMember attribute as true for a user that is Member"
      },
      "setTokenUri(uint256,string)": {
        "notice": "Used to set tokenURI to specific item "
      },
      "supplyOfItem(uint256)": {
        "notice": "Returns maxSupply of specific item (by tokenId)"
      },
      "supportsInterface(bytes4)": {
        "notice": "Need to override supportsInterface function because Contract is ERC1155 and AccessControl"
      },
      "unListItem(uint256)": {
        "notice": "Function used to unlist an item from marketplace"
      },
      "uri(uint256)": {
        "notice": "Used to return token URI by inserting tokenID"
      },
      "viewItems(address)": {
        "notice": "Returns all the items inside the user's inventory (Could be used by the user to check his inventory or to check someone else inventory by address)"
      },
      "withdrawAllFunds(address)": {
        "notice": "Used to withdraw ALL funds"
      },
      "withdrawFunds(address,uint256)": {
        "notice": "Used to withdraw specific amount of funds"
      }
    },
    "version": 1
  },
  "storageLayout": {
    "storage": [
      {
        "astId": 670,
        "contract": "contracts/RacksItems.sol:RacksItems",
        "label": "_balances",
        "offset": 0,
        "slot": "0",
        "type": "t_mapping(t_uint256,t_mapping(t_address,t_uint256))"
      },
      {
        "astId": 676,
        "contract": "contracts/RacksItems.sol:RacksItems",
        "label": "_operatorApprovals",
        "offset": 0,
        "slot": "1",
        "type": "t_mapping(t_address,t_mapping(t_address,t_bool))"
      },
      {
        "astId": 678,
        "contract": "contracts/RacksItems.sol:RacksItems",
        "label": "_uri",
        "offset": 0,
        "slot": "2",
        "type": "t_string_storage"
      },
      {
        "astId": 171,
        "contract": "contracts/RacksItems.sol:RacksItems",
        "label": "_roles",
        "offset": 0,
        "slot": "3",
        "type": "t_mapping(t_bytes32,t_struct(RoleData)166_storage)"
      },
      {
        "astId": 4784,
        "contract": "contracts/RacksItems.sol:RacksItems",
        "label": "MR_CRYPTO",
        "offset": 0,
        "slot": "4",
        "type": "t_contract(IERC721)3801"
      },
      {
        "astId": 4790,
        "contract": "contracts/RacksItems.sol:RacksItems",
        "label": "racksToken",
        "offset": 0,
        "slot": "5",
        "type": "t_contract(IERC20)2794"
      },
      {
        "astId": 4796,
        "contract": "contracts/RacksItems.sol:RacksItems",
        "label": "_owner",
        "offset": 0,
        "slot": "6",
        "type": "t_address"
      },
      {
        "astId": 4798,
        "contract": "contracts/RacksItems.sol:RacksItems",
        "label": "s_maxTotalSupply",
        "offset": 0,
        "slot": "7",
        "type": "t_uint256"
      },
      {
        "astId": 4800,
        "contract": "contracts/RacksItems.sol:RacksItems",
        "label": "s_tokenCount",
        "offset": 0,
        "slot": "8",
        "type": "t_uint256"
      },
      {
        "astId": 4802,
        "contract": "contracts/RacksItems.sol:RacksItems",
        "label": "_marketCount",
        "offset": 0,
        "slot": "9",
        "type": "t_uint256"
      },
      {
        "astId": 4804,
        "contract": "contracts/RacksItems.sol:RacksItems",
        "label": "casePrice",
        "offset": 0,
        "slot": "10",
        "type": "t_uint256"
      },
      {
        "astId": 4807,
        "contract": "contracts/RacksItems.sol:RacksItems",
        "label": "contractActive",
        "offset": 0,
        "slot": "11",
        "type": "t_bool"
      },
      {
        "astId": 4810,
        "contract": "contracts/RacksItems.sol:RacksItems",
        "label": "s_contractState",
        "offset": 1,
        "slot": "11",
        "type": "t_enum(ContractState)4769"
      },
      {
        "astId": 4814,
        "contract": "contracts/RacksItems.sol:RacksItems",
        "label": "_marketItems",
        "offset": 0,
        "slot": "12",
        "type": "t_array(t_struct(itemOnSale)4780_storage)dyn_storage"
      },
      {
        "astId": 4832,
        "contract": "contracts/RacksItems.sol:RacksItems",
        "label": "s_randomWord",
        "offset": 0,
        "slot": "13",
        "type": "t_uint256"
      },
      {
        "astId": 4837,
        "contract": "contracts/RacksItems.sol:RacksItems",
        "label": "s_gotRacksMembers",
        "offset": 0,
        "slot": "14",
        "type": "t_mapping(t_address,t_bool)"
      },
      {
        "astId": 4841,
        "contract": "contracts/RacksItems.sol:RacksItems",
        "label": "s_maxSupply",
        "offset": 0,
        "slot": "15",
        "type": "t_mapping(t_uint256,t_uint256)"
      },
      {
        "astId": 4845,
        "contract": "contracts/RacksItems.sol:RacksItems",
        "label": "s_uris",
        "offset": 0,
        "slot": "16",
        "type": "t_mapping(t_uint256,t_string_storage)"
      }
    ],
    "types": {
      "t_address": {
        "encoding": "inplace",
        "label": "address",
        "numberOfBytes": "20"
      },
      "t_array(t_struct(itemOnSale)4780_storage)dyn_storage": {
        "base": "t_struct(itemOnSale)4780_storage",
        "encoding": "dynamic_array",
        "label": "struct RacksItems.itemOnSale[]",
        "numberOfBytes": "32"
      },
      "t_bool": {
        "encoding": "inplace",
        "label": "bool",
        "numberOfBytes": "1"
      },
      "t_bytes32": {
        "encoding": "inplace",
        "label": "bytes32",
        "numberOfBytes": "32"
      },
      "t_contract(IERC20)2794": {
        "encoding": "inplace",
        "label": "contract IERC20",
        "numberOfBytes": "20"
      },
      "t_contract(IERC721)3801": {
        "encoding": "inplace",
        "label": "contract IERC721",
        "numberOfBytes": "20"
      },
      "t_enum(ContractState)4769": {
        "encoding": "inplace",
        "label": "enum RacksItems.ContractState",
        "numberOfBytes": "1"
      },
      "t_mapping(t_address,t_bool)": {
        "encoding": "mapping",
        "key": "t_address",
        "label": "mapping(address => bool)",
        "numberOfBytes": "32",
        "value": "t_bool"
      },
      "t_mapping(t_address,t_mapping(t_address,t_bool))": {
        "encoding": "mapping",
        "key": "t_address",
        "label": "mapping(address => mapping(address => bool))",
        "numberOfBytes": "32",
        "value": "t_mapping(t_address,t_bool)"
      },
      "t_mapping(t_address,t_uint256)": {
        "encoding": "mapping",
        "key": "t_address",
        "label": "mapping(address => uint256)",
        "numberOfBytes": "32",
        "value": "t_uint256"
      },
      "t_mapping(t_bytes32,t_struct(RoleData)166_storage)": {
        "encoding": "mapping",
        "key": "t_bytes32",
        "label": "mapping(bytes32 => struct AccessControl.RoleData)",
        "numberOfBytes": "32",
        "value": "t_struct(RoleData)166_storage"
      },
      "t_mapping(t_uint256,t_mapping(t_address,t_uint256))": {
        "encoding": "mapping",
        "key": "t_uint256",
        "label": "mapping(uint256 => mapping(address => uint256))",
        "numberOfBytes": "32",
        "value": "t_mapping(t_address,t_uint256)"
      },
      "t_mapping(t_uint256,t_string_storage)": {
        "encoding": "mapping",
        "key": "t_uint256",
        "label": "mapping(uint256 => string)",
        "numberOfBytes": "32",
        "value": "t_string_storage"
      },
      "t_mapping(t_uint256,t_uint256)": {
        "encoding": "mapping",
        "key": "t_uint256",
        "label": "mapping(uint256 => uint256)",
        "numberOfBytes": "32",
        "value": "t_uint256"
      },
      "t_string_storage": {
        "encoding": "bytes",
        "label": "string",
        "numberOfBytes": "32"
      },
      "t_struct(RoleData)166_storage": {
        "encoding": "inplace",
        "label": "struct AccessControl.RoleData",
        "members": [
          {
            "astId": 163,
            "contract": "contracts/RacksItems.sol:RacksItems",
            "label": "members",
            "offset": 0,
            "slot": "0",
            "type": "t_mapping(t_address,t_bool)"
          },
          {
            "astId": 165,
            "contract": "contracts/RacksItems.sol:RacksItems",
            "label": "adminRole",
            "offset": 0,
            "slot": "1",
            "type": "t_bytes32"
          }
        ],
        "numberOfBytes": "64"
      },
      "t_struct(itemOnSale)4780_storage": {
        "encoding": "inplace",
        "label": "struct RacksItems.itemOnSale",
        "members": [
          {
            "astId": 4771,
            "contract": "contracts/RacksItems.sol:RacksItems",
            "label": "tokenId",
            "offset": 0,
            "slot": "0",
            "type": "t_uint256"
          },
          {
            "astId": 4773,
            "contract": "contracts/RacksItems.sol:RacksItems",
            "label": "marketItemId",
            "offset": 0,
            "slot": "1",
            "type": "t_uint256"
          },
          {
            "astId": 4775,
            "contract": "contracts/RacksItems.sol:RacksItems",
            "label": "price",
            "offset": 0,
            "slot": "2",
            "type": "t_uint256"
          },
          {
            "astId": 4777,
            "contract": "contracts/RacksItems.sol:RacksItems",
            "label": "seller",
            "offset": 0,
            "slot": "3",
            "type": "t_address"
          },
          {
            "astId": 4779,
            "contract": "contracts/RacksItems.sol:RacksItems",
            "label": "sold",
            "offset": 20,
            "slot": "3",
            "type": "t_bool"
          }
        ],
        "numberOfBytes": "128"
      },
      "t_uint256": {
        "encoding": "inplace",
        "label": "uint256",
        "numberOfBytes": "32"
      }
    }
  }
}