{
  "address": "0x876b7705f8ddA66b4E76D38fa1126abD8e1683d6",
  "abi": [
    {
      "inputs": [
        {
          "internalType": "address",
          "name": "vrfCoordinatorV2",
          "type": "address"
        },
        {
          "internalType": "bytes32",
          "name": "gasLane",
          "type": "bytes32"
        },
        {
          "internalType": "uint64",
          "name": "subscriptionId",
          "type": "uint64"
        },
        {
          "internalType": "uint32",
          "name": "callbackGasLimit",
          "type": "uint32"
        },
        {
          "internalType": "address",
          "name": "_racksTokenAddress",
          "type": "address"
        },
        {
          "internalType": "address",
          "name": "_MockMrCryptoAddress",
          "type": "address"
        }
      ],
      "stateMutability": "nonpayable",
      "type": "constructor"
    },
    {
      "inputs": [
        {
          "internalType": "address",
          "name": "have",
          "type": "address"
        },
        {
          "internalType": "address",
          "name": "want",
          "type": "address"
        }
      ],
      "name": "OnlyCoordinatorCanFulfill",
      "type": "error"
    },
    {
      "anonymous": false,
      "inputs": [
        {
          "indexed": true,
          "internalType": "address",
          "name": "account",
          "type": "address"
        },
        {
          "indexed": true,
          "internalType": "address",
          "name": "operator",
          "type": "address"
        },
        {
          "indexed": false,
          "internalType": "bool",
          "name": "approved",
          "type": "bool"
        }
      ],
      "name": "ApprovalForAll",
      "type": "event"
    },
    {
      "anonymous": false,
      "inputs": [
        {
          "indexed": false,
          "internalType": "address",
          "name": "user",
          "type": "address"
        },
        {
          "indexed": false,
          "internalType": "uint256",
          "name": "casePrice",
          "type": "uint256"
        },
        {
          "indexed": false,
          "internalType": "uint256",
          "name": "item",
          "type": "uint256"
        }
      ],
      "name": "CaseOpened",
      "type": "event"
    },
    {
      "anonymous": false,
      "inputs": [
        {
          "indexed": true,
          "internalType": "bytes32",
          "name": "role",
          "type": "bytes32"
        },
        {
          "indexed": true,
          "internalType": "bytes32",
          "name": "previousAdminRole",
          "type": "bytes32"
        },
        {
          "indexed": true,
          "internalType": "bytes32",
          "name": "newAdminRole",
          "type": "bytes32"
        }
      ],
      "name": "RoleAdminChanged",
      "type": "event"
    },
    {
      "anonymous": false,
      "inputs": [
        {
          "indexed": true,
          "internalType": "bytes32",
          "name": "role",
          "type": "bytes32"
        },
        {
          "indexed": true,
          "internalType": "address",
          "name": "account",
          "type": "address"
        },
        {
          "indexed": true,
          "internalType": "address",
          "name": "sender",
          "type": "address"
        }
      ],
      "name": "RoleGranted",
      "type": "event"
    },
    {
      "anonymous": false,
      "inputs": [
        {
          "indexed": true,
          "internalType": "bytes32",
          "name": "role",
          "type": "bytes32"
        },
        {
          "indexed": true,
          "internalType": "address",
          "name": "account",
          "type": "address"
        },
        {
          "indexed": true,
          "internalType": "address",
          "name": "sender",
          "type": "address"
        }
      ],
      "name": "RoleRevoked",
      "type": "event"
    },
    {
      "anonymous": false,
      "inputs": [
        {
          "indexed": true,
          "internalType": "address",
          "name": "operator",
          "type": "address"
        },
        {
          "indexed": true,
          "internalType": "address",
          "name": "from",
          "type": "address"
        },
        {
          "indexed": true,
          "internalType": "address",
          "name": "to",
          "type": "address"
        },
        {
          "indexed": false,
          "internalType": "uint256[]",
          "name": "ids",
          "type": "uint256[]"
        },
        {
          "indexed": false,
          "internalType": "uint256[]",
          "name": "values",
          "type": "uint256[]"
        }
      ],
      "name": "TransferBatch",
      "type": "event"
    },
    {
      "anonymous": false,
      "inputs": [
        {
          "indexed": true,
          "internalType": "address",
          "name": "operator",
          "type": "address"
        },
        {
          "indexed": true,
          "internalType": "address",
          "name": "from",
          "type": "address"
        },
        {
          "indexed": true,
          "internalType": "address",
          "name": "to",
          "type": "address"
        },
        {
          "indexed": false,
          "internalType": "uint256",
          "name": "id",
          "type": "uint256"
        },
        {
          "indexed": false,
          "internalType": "uint256",
          "name": "value",
          "type": "uint256"
        }
      ],
      "name": "TransferSingle",
      "type": "event"
    },
    {
      "anonymous": false,
      "inputs": [
        {
          "indexed": false,
          "internalType": "string",
          "name": "value",
          "type": "string"
        },
        {
          "indexed": true,
          "internalType": "uint256",
          "name": "id",
          "type": "uint256"
        }
      ],
      "name": "URI",
      "type": "event"
    },
    {
      "anonymous": false,
      "inputs": [
        {
          "indexed": false,
          "internalType": "uint256",
          "name": "newPrice",
          "type": "uint256"
        }
      ],
      "name": "casePriceChanged",
      "type": "event"
    },
    {
      "anonymous": false,
      "inputs": [
        {
          "indexed": false,
          "internalType": "address",
          "name": "buyer",
          "type": "address"
        },
        {
          "indexed": false,
          "internalType": "address",
          "name": "seller",
          "type": "address"
        },
        {
          "indexed": false,
          "internalType": "uint256",
          "name": "marketItemId",
          "type": "uint256"
        },
        {
          "indexed": false,
          "internalType": "uint256",
          "name": "price",
          "type": "uint256"
        }
      ],
      "name": "itemBought",
      "type": "event"
    },
    {
      "anonymous": false,
      "inputs": [
        {
          "indexed": false,
          "internalType": "address",
          "name": "user",
          "type": "address"
        },
        {
          "indexed": false,
          "internalType": "uint256",
          "name": "tokenId",
          "type": "uint256"
        }
      ],
      "name": "itemExchanged",
      "type": "event"
    },
    {
      "anonymous": false,
      "inputs": [
        {
          "indexed": false,
          "internalType": "address",
          "name": "owner",
          "type": "address"
        },
        {
          "indexed": false,
          "internalType": "uint256",
          "name": "marketItemId",
          "type": "uint256"
        },
        {
          "indexed": false,
          "internalType": "uint256",
          "name": "oldPrice",
          "type": "uint256"
        },
        {
          "indexed": false,
          "internalType": "uint256",
          "name": "newPrice",
          "type": "uint256"
        }
      ],
      "name": "itemPriceChanged",
      "type": "event"
    },
    {
      "anonymous": false,
      "inputs": [
        {
          "indexed": false,
          "internalType": "address",
          "name": "seller",
          "type": "address"
        },
        {
          "indexed": false,
          "internalType": "uint256",
          "name": "numTries",
          "type": "uint256"
        },
        {
          "indexed": false,
          "internalType": "uint256",
          "name": "_hours",
          "type": "uint256"
        },
        {
          "indexed": false,
          "internalType": "uint256",
          "name": "price",
          "type": "uint256"
        }
      ],
      "name": "newTicketOnSale",
      "type": "event"
    },
    {
      "anonymous": false,
      "inputs": [
        {
          "indexed": false,
          "internalType": "address",
          "name": "user",
          "type": "address"
        },
        {
          "indexed": false,
          "internalType": "uint256",
          "name": "tokenId",
          "type": "uint256"
        },
        {
          "indexed": false,
          "internalType": "uint256",
          "name": "price",
          "type": "uint256"
        }
      ],
      "name": "sellingItem",
      "type": "event"
    },
    {
      "anonymous": false,
      "inputs": [
        {
          "indexed": false,
          "internalType": "uint256",
          "name": "ticketId",
          "type": "uint256"
        },
        {
          "indexed": false,
          "internalType": "address",
          "name": "oldOwner",
          "type": "address"
        },
        {
          "indexed": false,
          "internalType": "address",
          "name": "newOwner",
          "type": "address"
        },
        {
          "indexed": false,
          "internalType": "uint256",
          "name": "price",
          "type": "uint256"
        }
      ],
      "name": "ticketBought",
      "type": "event"
    },
    {
      "anonymous": false,
      "inputs": [
        {
          "indexed": false,
          "internalType": "address",
          "name": "borrower",
          "type": "address"
        },
        {
          "indexed": false,
          "internalType": "address",
          "name": "realOwner",
          "type": "address"
        }
      ],
      "name": "ticketClaimedBack",
      "type": "event"
    },
    {
      "anonymous": false,
      "inputs": [
        {
          "indexed": false,
          "internalType": "address",
          "name": "owner",
          "type": "address"
        },
        {
          "indexed": false,
          "internalType": "uint256",
          "name": "newTries",
          "type": "uint256"
        },
        {
          "indexed": false,
          "internalType": "uint256",
          "name": "newHours",
          "type": "uint256"
        },
        {
          "indexed": false,
          "internalType": "uint256",
          "name": "newPrice",
          "type": "uint256"
        }
      ],
      "name": "ticketConditionsChanged",
      "type": "event"
    },
    {
      "anonymous": false,
      "inputs": [
        {
          "indexed": false,
          "internalType": "address",
          "name": "owner",
          "type": "address"
        }
      ],
      "name": "unListTicketOnSale",
      "type": "event"
    },
    {
      "anonymous": false,
      "inputs": [
        {
          "indexed": false,
          "internalType": "address",
          "name": "owner",
          "type": "address"
        },
        {
          "indexed": false,
          "internalType": "uint256",
          "name": "marketItemId",
          "type": "uint256"
        }
      ],
      "name": "unListedItem",
      "type": "event"
    },
    {
      "inputs": [],
      "name": "ADMIN_ROLE",
      "outputs": [
        {
          "internalType": "bytes32",
          "name": "",
          "type": "bytes32"
        }
      ],
      "stateMutability": "view",
      "type": "function"
    },
    {
      "inputs": [],
      "name": "DEFAULT_ADMIN_ROLE",
      "outputs": [
        {
          "internalType": "bytes32",
          "name": "",
          "type": "bytes32"
        }
      ],
      "stateMutability": "view",
      "type": "function"
    },
    {
      "inputs": [],
      "name": "NUM_WORDS",
      "outputs": [
        {
          "internalType": "uint32",
          "name": "",
          "type": "uint32"
        }
      ],
      "stateMutability": "view",
      "type": "function"
    },
    {
      "inputs": [],
      "name": "REQUEST_CONFIRMATIONS",
      "outputs": [
        {
          "internalType": "uint16",
          "name": "",
          "type": "uint16"
        }
      ],
      "stateMutability": "view",
      "type": "function"
    },
    {
      "inputs": [],
      "name": "_randomNumber",
      "outputs": [
        {
          "internalType": "uint256",
          "name": "",
          "type": "uint256"
        }
      ],
      "stateMutability": "nonpayable",
      "type": "function"
    },
    {
      "inputs": [
        {
          "internalType": "uint256",
          "name": "tokenId",
          "type": "uint256"
        }
      ],
      "name": "_rarityOfItem",
      "outputs": [
        {
          "internalType": "uint256",
          "name": "",
          "type": "uint256"
        }
      ],
      "stateMutability": "view",
      "type": "function"
    },
    {
      "inputs": [
        {
          "internalType": "address",
          "name": "account",
          "type": "address"
        },
        {
          "internalType": "uint256",
          "name": "id",
          "type": "uint256"
        }
      ],
      "name": "balanceOf",
      "outputs": [
        {
          "internalType": "uint256",
          "name": "",
          "type": "uint256"
        }
      ],
      "stateMutability": "view",
      "type": "function"
    },
    {
      "inputs": [
        {
          "internalType": "address[]",
          "name": "accounts",
          "type": "address[]"
        },
        {
          "internalType": "uint256[]",
          "name": "ids",
          "type": "uint256[]"
        }
      ],
      "name": "balanceOfBatch",
      "outputs": [
        {
          "internalType": "uint256[]",
          "name": "",
          "type": "uint256[]"
        }
      ],
      "stateMutability": "view",
      "type": "function"
    },
    {
      "inputs": [
        {
          "internalType": "uint256",
          "name": "marketItemId",
          "type": "uint256"
        }
      ],
      "name": "buyItem",
      "outputs": [],
      "stateMutability": "nonpayable",
      "type": "function"
    },
    {
      "inputs": [
        {
          "internalType": "uint256",
          "name": "ticketId",
          "type": "uint256"
        }
      ],
      "name": "buyTicket",
      "outputs": [],
      "stateMutability": "nonpayable",
      "type": "function"
    },
    {
      "inputs": [],
      "name": "casePrice",
      "outputs": [
        {
          "internalType": "uint256",
          "name": "",
          "type": "uint256"
        }
      ],
      "stateMutability": "view",
      "type": "function"
    },
    {
      "inputs": [
        {
          "internalType": "uint256",
          "name": "marketItemId",
          "type": "uint256"
        },
        {
          "internalType": "uint256",
          "name": "newPrice",
          "type": "uint256"
        }
      ],
      "name": "changeItemPrice",
      "outputs": [],
      "stateMutability": "nonpayable",
      "type": "function"
    },
    {
      "inputs": [
        {
          "internalType": "uint256",
          "name": "ticketId",
          "type": "uint256"
        },
        {
          "internalType": "uint256",
          "name": "newTries",
          "type": "uint256"
        },
        {
          "internalType": "uint256",
          "name": "newHours",
          "type": "uint256"
        },
        {
          "internalType": "uint256",
          "name": "newPrice",
          "type": "uint256"
        }
      ],
      "name": "changeTicketConditions",
      "outputs": [],
      "stateMutability": "nonpayable",
      "type": "function"
    },
    {
      "inputs": [
        {
          "internalType": "uint256",
          "name": "ticketId",
          "type": "uint256"
        }
      ],
      "name": "claimTicketBack",
      "outputs": [],
      "stateMutability": "nonpayable",
      "type": "function"
    },
    {
      "inputs": [],
      "name": "contractActive",
      "outputs": [
        {
          "internalType": "bool",
          "name": "",
          "type": "bool"
        }
      ],
      "stateMutability": "view",
      "type": "function"
    },
    {
      "inputs": [
        {
          "internalType": "uint256",
          "name": "tokenId",
          "type": "uint256"
        }
      ],
      "name": "exchangeItem",
      "outputs": [],
      "stateMutability": "nonpayable",
      "type": "function"
    },
    {
      "inputs": [],
      "name": "flipContractState",
      "outputs": [],
      "stateMutability": "nonpayable",
      "type": "function"
    },
    {
      "inputs": [],
      "name": "getCasePrice",
      "outputs": [
        {
          "internalType": "uint256",
          "name": "",
          "type": "uint256"
        }
      ],
      "stateMutability": "view",
      "type": "function"
    },
    {
      "inputs": [],
      "name": "getITicketsOnSale",
      "outputs": [
        {
          "components": [
            {
              "internalType": "uint256",
              "name": "ticketId",
              "type": "uint256"
            },
            {
              "internalType": "uint256",
              "name": "numTries",
              "type": "uint256"
            },
            {
              "internalType": "uint256",
              "name": "duration",
              "type": "uint256"
            },
            {
              "internalType": "uint256",
              "name": "price",
              "type": "uint256"
            },
            {
              "internalType": "address",
              "name": "owner",
              "type": "address"
            },
            {
              "internalType": "uint256",
              "name": "timeWhenSold",
              "type": "uint256"
            },
            {
              "internalType": "bool",
              "name": "isAvaliable",
              "type": "bool"
            }
          ],
          "internalType": "struct RacksItemsv3.caseTicket[]",
          "name": "",
          "type": "tuple[]"
        }
      ],
      "stateMutability": "view",
      "type": "function"
    },
    {
      "inputs": [],
      "name": "getItemsOnSale",
      "outputs": [
        {
          "components": [
            {
              "internalType": "uint256",
              "name": "tokenId",
              "type": "uint256"
            },
            {
              "internalType": "uint256",
              "name": "marketItemId",
              "type": "uint256"
            },
            {
              "internalType": "uint256",
              "name": "price",
              "type": "uint256"
            },
            {
              "internalType": "address",
              "name": "itemOwner",
              "type": "address"
            },
            {
              "internalType": "bool",
              "name": "isOnSale",
              "type": "bool"
            }
          ],
          "internalType": "struct RacksItemsv3.itemOnSale[]",
          "name": "",
          "type": "tuple[]"
        }
      ],
      "stateMutability": "view",
      "type": "function"
    },
    {
      "inputs": [
        {
          "internalType": "uint256",
          "name": "marketItemId",
          "type": "uint256"
        }
      ],
      "name": "getMarketItem",
      "outputs": [
        {
          "components": [
            {
              "internalType": "uint256",
              "name": "tokenId",
              "type": "uint256"
            },
            {
              "internalType": "uint256",
              "name": "marketItemId",
              "type": "uint256"
            },
            {
              "internalType": "uint256",
              "name": "price",
              "type": "uint256"
            },
            {
              "internalType": "address",
              "name": "itemOwner",
              "type": "address"
            },
            {
              "internalType": "bool",
              "name": "isOnSale",
              "type": "bool"
            }
          ],
          "internalType": "struct RacksItemsv3.itemOnSale",
          "name": "",
          "type": "tuple"
        }
      ],
      "stateMutability": "view",
      "type": "function"
    },
    {
      "inputs": [
        {
          "internalType": "uint256",
          "name": "ticketId",
          "type": "uint256"
        }
      ],
      "name": "getMarketTicket",
      "outputs": [
        {
          "components": [
            {
              "internalType": "uint256",
              "name": "ticketId",
              "type": "uint256"
            },
            {
              "internalType": "uint256",
              "name": "numTries",
              "type": "uint256"
            },
            {
              "internalType": "uint256",
              "name": "duration",
              "type": "uint256"
            },
            {
              "internalType": "uint256",
              "name": "price",
              "type": "uint256"
            },
            {
              "internalType": "address",
              "name": "owner",
              "type": "address"
            },
            {
              "internalType": "uint256",
              "name": "timeWhenSold",
              "type": "uint256"
            },
            {
              "internalType": "bool",
              "name": "isAvaliable",
              "type": "bool"
            }
          ],
          "internalType": "struct RacksItemsv3.caseTicket",
          "name": "",
          "type": "tuple"
        }
      ],
      "stateMutability": "view",
      "type": "function"
    },
    {
      "inputs": [
        {
          "internalType": "bytes32",
          "name": "role",
          "type": "bytes32"
        }
      ],
      "name": "getRoleAdmin",
      "outputs": [
        {
          "internalType": "bytes32",
          "name": "",
          "type": "bytes32"
        }
      ],
      "stateMutability": "view",
      "type": "function"
    },
    {
      "inputs": [
        {
          "internalType": "uint256",
          "name": "ticketId",
          "type": "uint256"
        }
      ],
      "name": "getTicketDurationLeft",
      "outputs": [
        {
          "internalType": "address",
          "name": "",
          "type": "address"
        },
        {
          "internalType": "uint256",
          "name": "",
          "type": "uint256"
        },
        {
          "internalType": "bool",
          "name": "",
          "type": "bool"
        }
      ],
      "stateMutability": "view",
      "type": "function"
    },
    {
      "inputs": [
        {
          "internalType": "bytes32",
          "name": "role",
          "type": "bytes32"
        },
        {
          "internalType": "address",
          "name": "account",
          "type": "address"
        }
      ],
      "name": "grantRole",
      "outputs": [],
      "stateMutability": "nonpayable",
      "type": "function"
    },
    {
      "inputs": [
        {
          "internalType": "bytes32",
          "name": "role",
          "type": "bytes32"
        },
        {
          "internalType": "address",
          "name": "account",
          "type": "address"
        }
      ],
      "name": "hasRole",
      "outputs": [
        {
          "internalType": "bool",
          "name": "",
          "type": "bool"
        }
      ],
      "stateMutability": "view",
      "type": "function"
    },
    {
      "inputs": [],
      "name": "i_callbackGasLimit",
      "outputs": [
        {
          "internalType": "uint32",
          "name": "",
          "type": "uint32"
        }
      ],
      "stateMutability": "view",
      "type": "function"
    },
    {
      "inputs": [],
      "name": "i_gasLane",
      "outputs": [
        {
          "internalType": "bytes32",
          "name": "",
          "type": "bytes32"
        }
      ],
      "stateMutability": "view",
      "type": "function"
    },
    {
      "inputs": [],
      "name": "i_subscriptionId",
      "outputs": [
        {
          "internalType": "uint64",
          "name": "",
          "type": "uint64"
        }
      ],
      "stateMutability": "view",
      "type": "function"
    },
    {
      "inputs": [],
      "name": "i_vrfCoordinator",
      "outputs": [
        {
          "internalType": "contract VRFCoordinatorV2Interface",
          "name": "",
          "type": "address"
        }
      ],
      "stateMutability": "view",
      "type": "function"
    },
    {
      "inputs": [
        {
          "internalType": "address",
          "name": "account",
          "type": "address"
        },
        {
          "internalType": "address",
          "name": "operator",
          "type": "address"
        }
      ],
      "name": "isApprovedForAll",
      "outputs": [
        {
          "internalType": "bool",
          "name": "",
          "type": "bool"
        }
      ],
      "stateMutability": "view",
      "type": "function"
    },
    {
      "inputs": [
        {
          "internalType": "address",
          "name": "user",
          "type": "address"
        }
      ],
      "name": "isVip",
      "outputs": [
        {
          "internalType": "bool",
          "name": "",
          "type": "bool"
        }
      ],
      "stateMutability": "view",
      "type": "function"
    },
    {
      "inputs": [
        {
          "internalType": "uint256",
          "name": "itemSupply",
          "type": "uint256"
        }
      ],
      "name": "listItem",
      "outputs": [],
      "stateMutability": "nonpayable",
      "type": "function"
    },
    {
      "inputs": [
        {
          "internalType": "uint256",
          "name": "marketItemId",
          "type": "uint256"
        },
        {
          "internalType": "uint256",
          "name": "price",
          "type": "uint256"
        }
      ],
      "name": "listItemOnMarket",
      "outputs": [],
      "stateMutability": "nonpayable",
      "type": "function"
    },
    {
      "inputs": [
        {
          "internalType": "uint256",
          "name": "numTries",
          "type": "uint256"
        },
        {
          "internalType": "uint256",
          "name": "_hours",
          "type": "uint256"
        },
        {
          "internalType": "uint256",
          "name": "price",
          "type": "uint256"
        }
      ],
      "name": "listTicket",
      "outputs": [],
      "stateMutability": "nonpayable",
      "type": "function"
    },
    {
      "inputs": [
        {
          "internalType": "address",
          "name": "",
          "type": "address"
        },
        {
          "internalType": "address",
          "name": "",
          "type": "address"
        },
        {
          "internalType": "uint256[]",
          "name": "",
          "type": "uint256[]"
        },
        {
          "internalType": "uint256[]",
          "name": "",
          "type": "uint256[]"
        },
        {
          "internalType": "bytes",
          "name": "",
          "type": "bytes"
        }
      ],
      "name": "onERC1155BatchReceived",
      "outputs": [
        {
          "internalType": "bytes4",
          "name": "",
          "type": "bytes4"
        }
      ],
      "stateMutability": "nonpayable",
      "type": "function"
    },
    {
      "inputs": [
        {
          "internalType": "address",
          "name": "",
          "type": "address"
        },
        {
          "internalType": "address",
          "name": "",
          "type": "address"
        },
        {
          "internalType": "uint256",
          "name": "",
          "type": "uint256"
        },
        {
          "internalType": "uint256",
          "name": "",
          "type": "uint256"
        },
        {
          "internalType": "bytes",
          "name": "",
          "type": "bytes"
        }
      ],
      "name": "onERC1155Received",
      "outputs": [
        {
          "internalType": "bytes4",
          "name": "",
          "type": "bytes4"
        }
      ],
      "stateMutability": "nonpayable",
      "type": "function"
    },
    {
      "inputs": [],
      "name": "openCase",
      "outputs": [],
      "stateMutability": "nonpayable",
      "type": "function"
    },
    {
      "inputs": [
        {
          "internalType": "uint256",
          "name": "requestId",
          "type": "uint256"
        },
        {
          "internalType": "uint256[]",
          "name": "randomWords",
          "type": "uint256[]"
        }
      ],
      "name": "rawFulfillRandomWords",
      "outputs": [],
      "stateMutability": "nonpayable",
      "type": "function"
    },
    {
      "inputs": [
        {
          "internalType": "address[]",
          "name": "users",
          "type": "address[]"
        }
      ],
      "name": "removeListRacksMembers",
      "outputs": [],
      "stateMutability": "nonpayable",
      "type": "function"
    },
    {
      "inputs": [
        {
          "internalType": "address",
          "name": "user",
          "type": "address"
        }
      ],
      "name": "removeSingleRacksMember",
      "outputs": [],
      "stateMutability": "nonpayable",
      "type": "function"
    },
    {
      "inputs": [
        {
          "internalType": "bytes32",
          "name": "role",
          "type": "bytes32"
        },
        {
          "internalType": "address",
          "name": "account",
          "type": "address"
        }
      ],
      "name": "renounceRole",
      "outputs": [],
      "stateMutability": "nonpayable",
      "type": "function"
    },
    {
      "inputs": [
        {
          "internalType": "bytes32",
          "name": "role",
          "type": "bytes32"
        },
        {
          "internalType": "address",
          "name": "account",
          "type": "address"
        }
      ],
      "name": "revokeRole",
      "outputs": [],
      "stateMutability": "nonpayable",
      "type": "function"
    },
    {
      "inputs": [],
      "name": "s_contractState",
      "outputs": [
        {
          "internalType": "enum RacksItemsv3.ContractState",
          "name": "",
          "type": "uint8"
        }
      ],
      "stateMutability": "view",
      "type": "function"
    },
    {
      "inputs": [],
      "name": "s_randomWord",
      "outputs": [
        {
          "internalType": "uint256",
          "name": "",
          "type": "uint256"
        }
      ],
      "stateMutability": "view",
      "type": "function"
    },
    {
      "inputs": [
        {
          "internalType": "address",
          "name": "from",
          "type": "address"
        },
        {
          "internalType": "address",
          "name": "to",
          "type": "address"
        },
        {
          "internalType": "uint256[]",
          "name": "ids",
          "type": "uint256[]"
        },
        {
          "internalType": "uint256[]",
          "name": "amounts",
          "type": "uint256[]"
        },
        {
          "internalType": "bytes",
          "name": "data",
          "type": "bytes"
        }
      ],
      "name": "safeBatchTransferFrom",
      "outputs": [],
      "stateMutability": "nonpayable",
      "type": "function"
    },
    {
      "inputs": [
        {
          "internalType": "address",
          "name": "from",
          "type": "address"
        },
        {
          "internalType": "address",
          "name": "to",
          "type": "address"
        },
        {
          "internalType": "uint256",
          "name": "id",
          "type": "uint256"
        },
        {
          "internalType": "uint256",
          "name": "amount",
          "type": "uint256"
        },
        {
          "internalType": "bytes",
          "name": "data",
          "type": "bytes"
        }
      ],
      "name": "safeTransferFrom",
      "outputs": [],
      "stateMutability": "nonpayable",
      "type": "function"
    },
    {
      "inputs": [
        {
          "internalType": "address",
          "name": "_newAdmin",
          "type": "address"
        }
      ],
      "name": "setAdmin",
      "outputs": [],
      "stateMutability": "nonpayable",
      "type": "function"
    },
    {
      "inputs": [
        {
          "internalType": "address",
          "name": "operator",
          "type": "address"
        },
        {
          "internalType": "bool",
          "name": "approved",
          "type": "bool"
        }
      ],
      "name": "setApprovalForAll",
      "outputs": [],
      "stateMutability": "nonpayable",
      "type": "function"
    },
    {
      "inputs": [
        {
          "internalType": "uint256",
          "name": "price",
          "type": "uint256"
        }
      ],
      "name": "setCasePrice",
      "outputs": [],
      "stateMutability": "nonpayable",
      "type": "function"
    },
    {
      "inputs": [
        {
          "internalType": "address[]",
          "name": "users",
          "type": "address[]"
        }
      ],
      "name": "setListRacksMembers",
      "outputs": [],
      "stateMutability": "nonpayable",
      "type": "function"
    },
    {
      "inputs": [
        {
          "internalType": "address",
          "name": "user",
          "type": "address"
        }
      ],
      "name": "setSingleRacksMember",
      "outputs": [],
      "stateMutability": "nonpayable",
      "type": "function"
    },
    {
      "inputs": [
        {
          "internalType": "uint256",
          "name": "tokenId",
          "type": "uint256"
        },
        {
          "internalType": "string",
          "name": "_uri",
          "type": "string"
        }
      ],
      "name": "setTokenUri",
      "outputs": [],
      "stateMutability": "nonpayable",
      "type": "function"
    },
    {
      "inputs": [
        {
          "internalType": "uint256",
          "name": "tokenId",
          "type": "uint256"
        }
      ],
      "name": "supplyOfItem",
      "outputs": [
        {
          "internalType": "uint256",
          "name": "",
          "type": "uint256"
        }
      ],
      "stateMutability": "view",
      "type": "function"
    },
    {
      "inputs": [
        {
          "internalType": "bytes4",
          "name": "interfaceId",
          "type": "bytes4"
        }
      ],
      "name": "supportsInterface",
      "outputs": [
        {
          "internalType": "bool",
          "name": "",
          "type": "bool"
        }
      ],
      "stateMutability": "view",
      "type": "function"
    },
    {
      "inputs": [
        {
          "internalType": "uint256",
          "name": "marketItemId",
          "type": "uint256"
        }
      ],
      "name": "unListItem",
      "outputs": [],
      "stateMutability": "nonpayable",
      "type": "function"
    },
    {
      "inputs": [
        {
          "internalType": "uint256",
          "name": "ticketId",
          "type": "uint256"
        }
      ],
      "name": "unListTicket",
      "outputs": [],
      "stateMutability": "nonpayable",
      "type": "function"
    },
    {
      "inputs": [
        {
          "internalType": "uint256",
          "name": "tokenId",
          "type": "uint256"
        }
      ],
      "name": "uri",
      "outputs": [
        {
          "internalType": "string",
          "name": "",
          "type": "string"
        }
      ],
      "stateMutability": "view",
      "type": "function"
    },
    {
      "inputs": [
        {
          "internalType": "address",
          "name": "owner",
          "type": "address"
        }
      ],
      "name": "viewItems",
      "outputs": [
        {
          "internalType": "uint256[]",
          "name": "",
          "type": "uint256[]"
        }
      ],
      "stateMutability": "view",
      "type": "function"
    },
    {
      "inputs": [
        {
          "internalType": "address",
          "name": "wallet",
          "type": "address"
        }
      ],
      "name": "withdrawAllFunds",
      "outputs": [],
      "stateMutability": "nonpayable",
      "type": "function"
    },
    {
      "inputs": [
        {
          "internalType": "address",
          "name": "wallet",
          "type": "address"
        },
        {
          "internalType": "uint256",
          "name": "amount",
          "type": "uint256"
        }
      ],
      "name": "withdrawFunds",
      "outputs": [],
      "stateMutability": "nonpayable",
      "type": "function"
    },
    {
      "stateMutability": "payable",
      "type": "receive"
    }
  ],
  "transactionHash": "0x1d7a8c68d35b4579580554dad00820df79160a551070d204d775e2173b9adc6a",
  "args": [
    "0x7a1BaC17Ccc5b313516C5E16fb24f7659aA5ebed",
    "0x4b09e658ed251bcafeebbc69400383d49f344ace09b9576fe248bb02c003fe9f",
    "286",
    "100000",
    "0x3855c456ca83b63377dC5b78726b4363684Bb538",
    "0x5CE7935AAc560c80a73F0DEfF7fC649A5539aF9e"
  ],
  "numDeployments": 20,
  "solcInputHash": "275528d18e9a597ef7e8fc74b476902b",
  "bytecode": "0x610120604052600c805460ff191660011790553480156200001f57600080fd5b5060405162005f9b38038062005f9b8339810160408190526200004291620001de565b60408051602081019091526000815286906200005e8162000102565b506001600160601b0319606091821b811660805296901b90951660a05260c09384526001600160c01b03199290931b9190911660e09081526001600160e01b031991901b1661010052600480546001600160a01b039384166001600160a01b0319918216179091556005805493909216928116929092179055600680549091163317905560006008819055600a556001600b55600c805461ff0019169055620002ac565b8051620001179060029060208401906200011b565b5050565b82805462000129906200026f565b90600052602060002090601f0160209004810192826200014d576000855562000198565b82601f106200016857805160ff191683800117855562000198565b8280016001018555821562000198579182015b82811115620001985782518255916020019190600101906200017b565b50620001a6929150620001aa565b5090565b5b80821115620001a65760008155600101620001ab565b80516001600160a01b0381168114620001d957600080fd5b919050565b60008060008060008060c08789031215620001f857600080fd5b6200020387620001c1565b6020880151604089015191975095506001600160401b03811681146200022857600080fd5b606088015190945063ffffffff811681146200024357600080fd5b92506200025360808801620001c1565b91506200026360a08801620001c1565b90509295509295509295565b600181811c908216806200028457607f821691505b60208210811415620002a657634e487b7160e01b600052602260045260246000fd5b50919050565b60805160601c60a05160601c60c05160e05160c01c6101005160e01c615c7b6200032060003960008181610a850152611f4c0152600081816105990152611f190152600081816108030152611eeb0152600081816108cc0152611f8701526000818161143e01526114800152615c7b6000f3fe6080604052600436106103255760003560e01c806389165aa9116101a7578063bc197c81116100ed578063de08f65311610090578063de08f65314610ad4578063e289fcb614610ae9578063e7fb74c714610b03578063e985e9c514610b23578063f23a6e6114610b43578063f242432a14610b6f578063f48c9d3414610b8f578063fd210fd914610baf57600080fd5b8063bc197c811461098b578063c1075329146109d0578063c7be7a49146109f0578063c7e05f8d14610a1d578063ca90958f14610a3d578063d547741f14610a53578063d757d02714610a73578063dd006d3114610aa757600080fd5b8063a22cb46511610155578063a22cb4651461085a578063a7b194241461087a578063a7bc77c61461089a578063aebc4550146108ba578063b2ead3c7146108fb578063b63b86121461091d578063b85e67af14610949578063bbcbc2e71461096957600080fd5b806389165aa9146107915780638ba8b15a146107b15780638dc5f45b146107d15780638e879c8a146107f157806391d1485414610825578063976298f314610845578063a217fddf1461073c57600080fd5b8063470cdf971161026c57806361c073d61161021a57806361c073d61461068a57806367dd74ca146106aa57806367f082b0146106ca578063704b6c02146106f257806372cf6e341461071257806375b238fc1461073c5780637e420db51461075157806384203f4b1461077157600080fd5b8063470cdf97146105875780634a226657146105d35780634e1273f4146105e85780635408c3191461061557806354e889f61461063557806357f7789e14610655578063616524501461067557600080fd5b80631fe543e3116102d45780631fe543e31461046a57806320ba08141461048a578063248a9ca3146104b75780632ce38190146104e75780632eb2c2d6146105075780632f2ff15d1461052757806332dee40b1461054757806336568abe1461056757600080fd5b8062fdd58e1461033157806301ffc9a714610364578063020f1980146103945780630e89341c146103b657806319c08575146103e35780631c7cbe4f1461042a5780631cb0b2731461044a57600080fd5b3661032c57005b600080fd5b34801561033d57600080fd5b5061035161034c3660046150c7565b610bc5565b6040519081526020015b60405180910390f35b34801561037057600080fd5b5061038461037f3660046151e9565b610c5f565b604051901515815260200161035b565b3480156103a057600080fd5b506103b46103af3660046152c8565b610c6a565b005b3480156103c257600080fd5b506103d66103d13660046151ad565b610e65565b60405161035b91906156d6565b3480156103ef57600080fd5b506104036103fe3660046151ad565b610f07565b604080516001600160a01b039094168452602084019290925215159082015260600161035b565b34801561043657600080fd5b506103b4610445366004615316565b61122d565b34801561045657600080fd5b506103b46104653660046151ad565b611396565b34801561047657600080fd5b506103b461048536600461523c565b611433565b34801561049657600080fd5b506103516104a53660046151ad565b60009081526011602052604090205490565b3480156104c357600080fd5b506103516104d23660046151ad565b60009081526003602052604090206001015490565b3480156104f357600080fd5b506103b46105023660046151ad565b6114bb565b34801561051357600080fd5b506103b4610522366004614f83565b6114ed565b34801561053357600080fd5b506103b46105423660046151c6565b611584565b34801561055357600080fd5b506103b4610562366004614f35565b6115ae565b34801561057357600080fd5b506103b46105823660046151c6565b61176f565b34801561059357600080fd5b506105bb7f000000000000000000000000000000000000000000000000000000000000000081565b6040516001600160401b03909116815260200161035b565b3480156105df57600080fd5b506103b46117e9565b3480156105f457600080fd5b5061060861060336600461512d565b611afc565b60405161035b919061566d565b34801561062157600080fd5b506103b46106303660046150f1565b611c25565b34801561064157600080fd5b506103b4610650366004614f35565b611d09565b34801561066157600080fd5b506103b4610670366004615278565b611e38565b34801561068157600080fd5b50610351611edc565b34801561069657600080fd5b506103b46106a53660046151ad565b612003565b3480156106b657600080fd5b506103b46106c53660046151ad565b61235c565b3480156106d657600080fd5b506106df600381565b60405161ffff909116815260200161035b565b3480156106fe57600080fd5b506103b461070d366004614f35565b612825565b34801561071e57600080fd5b50610727600281565b60405163ffffffff909116815260200161035b565b34801561074857600080fd5b50610351600081565b34801561075d57600080fd5b506103b461076c3660046151ad565b61285a565b34801561077d57600080fd5b5061038461078c366004614f35565b612992565b34801561079d57600080fd5b506103b46107ac3660046150f1565b612a53565b3480156107bd57600080fd5b506103b46107cc366004614f35565b612c86565b3480156107dd57600080fd5b506103b46107ec3660046151ad565b612ce1565b3480156107fd57600080fd5b506103517f000000000000000000000000000000000000000000000000000000000000000081565b34801561083157600080fd5b506103846108403660046151c6565b612d3b565b34801561085157600080fd5b50600b54610351565b34801561086657600080fd5b506103b4610875366004615090565b612d66565b34801561088657600080fd5b506103b46108953660046152c8565b612d71565b3480156108a657600080fd5b506103b46108b53660046151ad565b612e4f565b3480156108c657600080fd5b506108ee7f000000000000000000000000000000000000000000000000000000000000000081565b60405161035b91906154a2565b34801561090757600080fd5b50610910612f14565b60405161035b91906155dd565b34801561092957600080fd5b50600c5461093c90610100900460ff1681565b60405161035b91906156ae565b34801561095557600080fd5b506103b46109643660046152ea565b613111565b34801561097557600080fd5b5061097e61342a565b60405161035b919061562b565b34801561099757600080fd5b506109b76109a6366004614f83565b63bc197c8160e01b95945050505050565b6040516001600160e01b0319909116815260200161035b565b3480156109dc57600080fd5b506103b46109eb3660046150c7565b6135fe565b3480156109fc57600080fd5b50610a10610a0b3660046151ad565b61374a565b60405161035b919061597e565b348015610a2957600080fd5b50610351610a383660046151ad565b6137c8565b348015610a4957600080fd5b50610351600b5481565b348015610a5f57600080fd5b506103b4610a6e3660046151c6565b6137ff565b348015610a7f57600080fd5b506107277f000000000000000000000000000000000000000000000000000000000000000081565b348015610ab357600080fd5b50610ac7610ac23660046151ad565b613824565b60405161035b9190615970565b348015610ae057600080fd5b506103b46138b2565b348015610af557600080fd5b50600c546103849060ff1681565b348015610b0f57600080fd5b506103b4610b1e3660046151ad565b613919565b348015610b2f57600080fd5b50610384610b3e366004614f50565b613ccc565b348015610b4f57600080fd5b506109b7610b5e36600461502c565b63f23a6e6160e01b95945050505050565b348015610b7b57600080fd5b506103b4610b8a36600461502c565b613cfa565b348015610b9b57600080fd5b50610608610baa366004614f35565b613d81565b348015610bbb57600080fd5b50610351600f5481565b60006001600160a01b038316610c365760405162461bcd60e51b815260206004820152602b60248201527f455243313135353a2062616c616e636520717565727920666f7220746865207a60448201526a65726f206164647265737360a81b60648201526084015b60405180910390fd5b506000818152602081815260408083206001600160a01b03861684529091529020545b92915050565b6000610c5982613e17565b6000610c763384610bc5565b11610cb55760405162461bcd60e51b815260206004820152600f60248201526e24ba32b6903737ba103337bab7321760891b6044820152606401610c2d565b610cbf3330613ccc565b610d0b5760405162461bcd60e51b815260206004820152601f60248201527f417070726f766564206973206e6f7420636f72726563746c7920646f6e652e006044820152606401610c2d565b6040805160a08101825283815260098054602083019081529282018481523360608401908152600160808501818152600d80549283018155600090815295517fd7b6990105719101dabeb77144f2a3385c8033acd3af97e9423a695e81ad1eb560049093029283015595517fd7b6990105719101dabeb77144f2a3385c8033acd3af97e9423a695e81ad1eb682015591517fd7b6990105719101dabeb77144f2a3385c8033acd3af97e9423a695e81ad1eb7830155517fd7b6990105719101dabeb77144f2a3385c8033acd3af97e9423a695e81ad1eb8909101805494516001600160a01b039092166001600160a81b031990951694909417600160a01b911515919091021790925581549190610e2183615abf565b91905055507f23cba88d6c6f26b62b2cfc32a2cc04fbbde8590188b97cd3590e45af9ac6dd6d338383604051610e5993929190615596565b60405180910390a15050565b6000818152601260205260409020805460609190610e8290615a58565b80601f0160208091040260200160405190810160405280929190818152602001828054610eae90615a58565b8015610efb5780601f10610ed057610100808354040283529160200191610efb565b820191906000526020600020905b815481529060010190602001808311610ede57829003601f168201915b50505050509050919050565b600080600080600e8581548110610f2057610f20615b30565b90600052602060002090600702016005015411610f795760405162461bcd60e51b81526020600482015260176024820152762a34b1b5b2ba1034b9903737ba1039b7b632103cb2ba1760491b6044820152606401610c2d565b6000600e8581548110610f8e57610f8e615b30565b906000526020600020906007020160010154600014156110e657600e8581548110610fbb57610fbb615b30565b906000526020600020906007020160020154603c610fd991906159db565b603c600e8781548110610fee57610fee615b30565b9060005260206000209060070201600501544261100b91906159fa565b61101591906159c7565b141561105a5760009050600e858154811061103257611032615b30565b600091825260208220600460079092020101546001600160a01b031694509092509050611226565b603c600e868154811061106f5761106f615b30565b9060005260206000209060070201600501544261108c91906159fa565b61109691906159c7565b600e86815481106110a9576110a9615b30565b906000526020600020906007020160020154603c6110c791906159db565b6110d191906159fa565b9050600e858154811061103257611032615b30565b600e85815481106110f9576110f9615b30565b906000526020600020906007020160020154603c61111791906159db565b603c600e878154811061112c5761112c615b30565b9060005260206000209060070201600501544261114991906159fa565b61115391906159c7565b141561119a5760009050600e858154811061117057611170615b30565b60009182526020909120600460079092020101546001600160a01b03169350915060019050611226565b603c600e86815481106111af576111af615b30565b906000526020600020906007020160050154426111cc91906159fa565b6111d691906159c7565b600e86815481106111e9576111e9615b30565b906000526020600020906007020160020154603c61120791906159db565b61121191906159fa565b9050600e858154811061117057611170615b30565b9193909250565b61123633612992565b6112525760405162461bcd60e51b8152600401610c2d9061591c565b3360009081526013602052604090205460ff166112815760405162461bcd60e51b8152600401610c2d90615766565b336001600160a01b0316600e858154811061129e5761129e615b30565b60009182526020909120600460079092020101546001600160a01b0316146112d85760405162461bcd60e51b8152600401610c2d90615731565b80600e85815481106112ec576112ec615b30565b90600052602060002090600702016003018190555081600e858154811061131557611315615b30565b90600052602060002090600702016002018190555082600e858154811061133e5761133e615b30565b9060005260206000209060070201600101819055507f0fcd915268f7fe921a6c99bd903199d2f30c7f65a422416bfd1de6a264b8264d3384848460405161138894939291906155b7565b60405180910390a150505050565b60006113a23383610bc5565b116113ac57600080fd5b6113b833826001613e3c565b60008181526011602052604081208054600192906113d79084906159fa565b925050819055506001600760008282546113f191906159fa565b90915550506040517f9e90d55d2f1f115ffe1b87372c45f27f6b3a2b5ba392942167be78456189009490611428903390849061557d565b60405180910390a150565b336001600160a01b037f000000000000000000000000000000000000000000000000000000000000000016146114ad5760405163073e64fd60e21b81523360048201526001600160a01b037f0000000000000000000000000000000000000000000000000000000000000000166024820152604401610c2d565b6114b78282613fab565b5050565b6114c433613fd0565b6114e05760405162461bcd60e51b8152600401610c2d906158ac565b6114ea3082614006565b50565b6001600160a01b03851633148061150957506115098533613ccc565b6115705760405162461bcd60e51b815260206004820152603260248201527f455243313135353a207472616e736665722063616c6c6572206973206e6f74206044820152711bdddb995c881b9bdc88185c1c1c9bdd995960721b6064820152608401610c2d565b61157d8585858585614071565b5050505050565b60008281526003602052604090206001015461159f8161424e565b6115a98383614258565b505050565b6006546001600160a01b031633146115d85760405162461bcd60e51b8152600401610c2d906158ed565b6005546040516370a0823160e01b81526000916001600160a01b0316906370a08231906116099030906004016154a2565b60206040518083038186803b15801561162157600080fd5b505afa158015611635573d6000803e3d6000fd5b505050506040513d601f19601f820116820180604052508101906116599190615223565b116116765760405162461bcd60e51b8152600401610c2d906157ac565b6005546040516370a0823160e01b81526001600160a01b039091169063a9059cbb90839083906370a08231906116b09030906004016154a2565b60206040518083038186803b1580156116c857600080fd5b505afa1580156116dc573d6000803e3d6000fd5b505050506040513d601f19601f820116820180604052508101906117009190615223565b6040518363ffffffff1660e01b815260040161171d92919061557d565b602060405180830381600087803b15801561173757600080fd5b505af115801561174b573d6000803e3d6000fd5b505050506040513d601f19601f820116820180604052508101906114b79190615190565b6001600160a01b03811633146117df5760405162461bcd60e51b815260206004820152602f60248201527f416363657373436f6e74726f6c3a2063616e206f6e6c792072656e6f756e636560448201526e103937b632b9903337b91039b2b63360891b6064820152608401610c2d565b6114b782826142de565b3360009081526014602052604090205460ff166118635760405162461bcd60e51b815260206004820152603260248201527f5573657220646f6573206e6f74206f776e732061205469636b657420666f722060448201527137b832b73734b733903a34329031b0b9b29760711b6064820152608401610c2d565b6000600754116118b55760405162461bcd60e51b815260206004820152601c60248201527f546865726520617265206e6f206974656d73206176616c6961626c65000000006044820152606401610c2d565b6000600c54610100900460ff1660018111156118d3576118d3615b1a565b1461192e5760405162461bcd60e51b815260206004820152602560248201527f436f6e7472616374206973206e6f74206163746976652061742074686973206d6044820152641bdb595b9d60da1b6064820152608401610c2d565b600554600b546040516323b872dd60e01b81526001600160a01b03909216916323b872dd916119639133913091600401615514565b602060405180830381600087803b15801561197d57600080fd5b505af1158015611991573d6000803e3d6000fd5b505050506040513d601f19601f820116820180604052508101906119b59190615190565b5060006007546119c3611edc565b6119cd9190615ada565b9050600080805b600854811015611aa3576000818152601160205260408120546119f790856159af565b905080851115611a0957809350611a90565b819250611a163084610bc5565b611a58576000611a276001856159fa565b90505b6000611a363083610bc5565b1115611a4457809350611a56565b80611a4e81615a41565b915050611a2a565b505b611a75303385600160405180602001604052806000815250614345565b60078054906000611a8583615a41565b919050555050611aa3565b5080611a9b81615abf565b9150506119d4565b50611aad33612992565b611aba57611aba3361445d565b7fea32e37a2618dbb680c93d891742e9e13b30d184822562a0ee3c09290fd42b4333600b5483604051611aef93929190615596565b60405180910390a1505050565b60608151835114611b615760405162461bcd60e51b815260206004820152602960248201527f455243313135353a206163636f756e747320616e6420696473206c656e677468604482015268040dad2e6dac2e8c6d60bb1b6064820152608401610c2d565b600083516001600160401b03811115611b7c57611b7c615b46565b604051908082528060200260200182016040528015611ba5578160200160208202803683370190505b50905060005b8451811015611c1d57611bf0858281518110611bc957611bc9615b30565b6020026020010151858381518110611be357611be3615b30565b6020026020010151610bc5565b828281518110611c0257611c02615b30565b6020908102919091010152611c1681615abf565b9050611bab565b509392505050565b611c2e33613fd0565b611c4a5760405162461bcd60e51b8152600401610c2d906158ac565b60005b81518110156114b757600060106000848481518110611c6e57611c6e615b30565b60200260200101516001600160a01b03166001600160a01b0316815260200190815260200160002060006101000a81548160ff021916908315150217905550600060146000848481518110611cc557611cc5615b30565b6020908102919091018101516001600160a01b03168252810191909152604001600020805460ff191691151591909117905580611d0181615abf565b915050611c4d565b611d1233613fd0565b611d2e5760405162461bcd60e51b8152600401610c2d906158ac565b6001600160a01b03811660009081526010602052604090205460ff166114ea57600480546040516370a0823160e01b81526000926001600160a01b03909216916370a0823191611d80918691016154a2565b60206040518083038186803b158015611d9857600080fd5b505afa158015611dac573d6000803e3d6000fd5b505050506040513d601f19601f82011682018060405250810190611dd09190615223565b1115611e12576001600160a01b031660009081526010602090815260408083208054600160ff1991821681179092556014909352922080549091169091179055565b6001600160a01b0381166000908152601060205260409020805460ff1916600117905550565b611e4133613fd0565b611e5d5760405162461bcd60e51b8152600401610c2d906158ac565b60008281526012602052604090208054611e7690615a58565b159050611ebd5760405162461bcd60e51b815260206004820152601560248201527443616e206e6f74207365742075726920747769636560581b6044820152606401610c2d565b600082815260126020908152604090912082516115a992840190614c9e565b6040516305d3b1d360e41b81527f000000000000000000000000000000000000000000000000000000000000000060048201526001600160401b037f00000000000000000000000000000000000000000000000000000000000000001660248201526003604482015263ffffffff7f00000000000000000000000000000000000000000000000000000000000000001660648201526002608482015260009081906001600160a01b037f00000000000000000000000000000000000000000000000000000000000000001690635d3b1d309060a401602060405180830381600087803b158015611fcb57600080fd5b505af1158015611fdf573d6000803e3d6000fd5b505050506040513d601f19601f82011682018060405250810190610c599190615223565b61200c33612992565b6120285760405162461bcd60e51b8152600401610c2d9061591c565b3360009081526016602052604090205460ff166120875760405162461bcd60e51b815260206004820152601c60248201527f5573657220646964206e6f742073656c6c20616e79205469636b6574000000006044820152606401610c2d565b600e818154811061209a5761209a615b30565b906000526020600020906007020160010154600014806121245750600e81815481106120c8576120c8615b30565b906000526020600020906007020160020154603c6120e691906159db565b603c600e83815481106120fb576120fb615b30565b9060005260206000209060070201600501544261211891906159fa565b61212291906159c7565b145b61218e5760405162461bcd60e51b815260206004820152603560248201527f4475726174696f6e206f6620746865205469636b6574206f72206e756d5472696044820152746573206973207374696c6c206176616c6961626c6560581b6064820152608401610c2d565b6000600e82815481106121a3576121a3615b30565b906000526020600020906007020160040160009054906101000a90046001600160a01b03169050600060146000600e85815481106121e3576121e3615b30565b60009182526020808320600460079093020191909101546001600160a01b031683528281019390935260409182018120805494151560ff1995861617905533808252601484528282208054861660011790556016909352208054909216909155600e80548490811061225757612257615b30565b906000526020600020906007020160040160006101000a8154816001600160a01b0302191690836001600160a01b031602179055506001600e83815481106122a1576122a1615b30565b906000526020600020906007020160060160006101000a81548160ff021916908315150217905550600160146000600e85815481106122e2576122e2615b30565b60009182526020808320600792909202909101600401546001600160a01b039081168452838201949094526040928301909120805460ff1916941515949094179093558051918416825233928201929092527f5093646a80c0a81f51115fbf5ec8379ecf902ae2ba552c74599cbe844dcb53e39101610e59565b61236533612992565b156123b25760405162461bcd60e51b815260206004820152601f60248201527f412056495020757365722063616e206e6f74206275792061207469636b6574006044820152606401610c2d565b336001600160a01b0316600e82815481106123cf576123cf615b30565b60009182526020909120600460079092020101546001600160a01b031614156124485760405162461bcd60e51b815260206004820152602560248201527f596f752063616e206e6f74206275792061207469636b657420746f20796f75726044820152641039b2b63360d91b6064820152608401610c2d565b600e818154811061245b5761245b615b30565b600091825260209091206006600790920201015460ff1615156001146124cd5760405162461bcd60e51b815260206004820152602160248201527f5469636b6574206973206e6f742063757272656e746c79206176616c6961626c6044820152606560f81b6064820152608401610c2d565b6000600e82815481106124e2576124e2615b30565b6000918252602090912060079091020160040154600554600e80546001600160a01b03938416945092909116916323b872dd9133918690811061252757612527615b30565b906000526020600020906007020160040160009054906101000a90046001600160a01b0316600e868154811061255f5761255f615b30565b9060005260206000209060070201600301546040518463ffffffff1660e01b815260040161258f93929190615514565b602060405180830381600087803b1580156125a957600080fd5b505af11580156125bd573d6000803e3d6000fd5b505050506040513d601f19601f820116820180604052508101906125e19190615190565b5042600e83815481106125f6576125f6615b30565b906000526020600020906007020160050181905550600060146000600e858154811061262457612624615b30565b60009182526020808320600792909202909101600401546001600160a01b031683528201929092526040018120805460ff191692151592909217909155600e805460139183918690811061267a5761267a615b30565b60009182526020808320600792909202909101600401546001600160a01b031683528201929092526040018120805460ff191692151592909217909155600e80546001926016929091869081106126d3576126d3615b30565b60009182526020808320600460079093020191909101546001600160a01b031683528281019390935260409182018120805494151560ff19958616179055338082526014909352208054909216600117909155600e80548490811061273a5761273a615b30565b906000526020600020906007020160040160006101000a8154816001600160a01b0302191690836001600160a01b031602179055506000600e838154811061278457612784615b30565b906000526020600020906007020160060160006101000a81548160ff0219169083151502179055507f060f7dd92424d6f1af65d2fe9acba5b63d299cc26cd8eb26403ca371bc9fbfbb828233600e86815481106127e3576127e3615b30565b906000526020600020906007020160030154604051610e5994939291909384526001600160a01b03928316602085015291166040830152606082015260800190565b6006546001600160a01b0316331461284f5760405162461bcd60e51b8152600401610c2d906158ed565b6114ea6000826145ae565b61286333612992565b61287f5760405162461bcd60e51b8152600401610c2d9061591c565b3360009081526013602052604090205460ff166128ae5760405162461bcd60e51b8152600401610c2d90615766565b336001600160a01b0316600e82815481106128cb576128cb615b30565b60009182526020909120600460079092020101546001600160a01b0316146129055760405162461bcd60e51b8152600401610c2d90615731565b6000600e828154811061291a5761291a615b30565b60009182526020808320600660079093020191909101805493151560ff1994851617905533808352601382526040808420805486169055601490925291819020805490931660011790925590517f5dbab6b1e9ddd154d6eb51aa5622fb5278ea62a0b5f81d046a945d899490f63191611428916154a2565b600480546040516370a0823160e01b815260009283926001600160a01b0316916370a08231916129c4918791016154a2565b60206040518083038186803b1580156129dc57600080fd5b505afa1580156129f0573d6000803e3d6000fd5b505050506040513d601f19601f82011682018060405250810190612a149190615223565b118015612a3957506001600160a01b03821660009081526010602052604090205460ff165b15612a4657506001919050565b506000919050565b919050565b612a5c33613fd0565b612a785760405162461bcd60e51b8152600401610c2d906158ac565b60005b81518110156114b75760106000838381518110612a9a57612a9a615b30565b6020908102919091018101516001600160a01b031682528101919091526040016000205460ff16612c745760045482516000916001600160a01b0316906370a0823190859085908110612aef57612aef615b30565b60200260200101516040518263ffffffff1660e01b8152600401612b1391906154a2565b60206040518083038186803b158015612b2b57600080fd5b505afa158015612b3f573d6000803e3d6000fd5b505050506040513d601f19601f82011682018060405250810190612b639190615223565b1115612c1c57600160106000848481518110612b8157612b81615b30565b60200260200101516001600160a01b03166001600160a01b0316815260200190815260200160002060006101000a81548160ff021916908315150217905550600160146000848481518110612bd857612bd8615b30565b60200260200101516001600160a01b03166001600160a01b0316815260200190815260200160002060006101000a81548160ff021916908315150217905550612c74565b600160106000848481518110612c3457612c34615b30565b60200260200101516001600160a01b03166001600160a01b0316815260200190815260200160002060006101000a81548160ff0219169083151502179055505b80612c7e81615abf565b915050612a7b565b612c8f33613fd0565b612cab5760405162461bcd60e51b8152600401610c2d906158ac565b6001600160a01b03166000908152601060209081526040808320805460ff19908116909155601490925290912080549091169055565b612cea33613fd0565b612d065760405162461bcd60e51b8152600401610c2d906158ac565b600b8190556040518181527f06cd74aabc11982a85b554df4d7833623303656fe69bed4db1b0cb3245feebe390602001611428565b60009182526003602090815260408084206001600160a01b0393909316845291905290205460ff1690565b6114b73383836145b8565b336001600160a01b0316600d8381548110612d8e57612d8e615b30565b60009182526020909120600360049092020101546001600160a01b031614612dc85760405162461bcd60e51b8152600401610c2d906157da565b6000600d8381548110612ddd57612ddd615b30565b906000526020600020906004020160020154905081600d8481548110612e0557612e05615b30565b9060005260206000209060040201600201819055507fb141d00f22a670547caacc412e6489d8edaba6a840df558118363ce1a40d6ed233848385604051611aef94939291906155b7565b336001600160a01b0316600d8281548110612e6c57612e6c615b30565b60009182526020909120600360049092020101546001600160a01b031614612ea65760405162461bcd60e51b8152600401610c2d906157da565b6000600d8281548110612ebb57612ebb615b30565b906000526020600020906004020160030160146101000a81548160ff0219169083151502179055507fc9cedcca3d85d6009a562a9e70071f6288adabda9ba7f059589165e75c9cf404338260405161142892919061557d565b60606000805b600e54811015612fd4576000600e8281548110612f3957612f39615b30565b60009182526020918290206040805160e081018252600790930290910180548352600180820154948401949094526002810154918301919091526003810154606083015260048101546001600160a01b03166080830152600581015460a08301526006015460ff16151560c082018190529092501415612fc157612fbe6001846159af565b92505b5080612fcc81615abf565b915050612f1a565b506000816001600160401b03811115612fef57612fef615b46565b60405190808252806020026020018201604052801561302857816020015b613015614d22565b81526020019060019003908161300d5790505b5090506000805b600e54811015613108576000600e828154811061304e5761304e615b30565b60009182526020918290206040805160e081018252600790930290910180548352600180820154948401949094526002810154918301919091526003810154606083015260048101546001600160a01b03166080830152600581015460a08301526006015460ff16151560c0820181905290925014156130f557808484815181106130db576130db615b30565b602002602001018190525082806130f190615abf565b9350505b508061310081615abf565b91505061302f565b50909392505050565b61311a33612992565b6131365760405162461bcd60e51b8152600401610c2d9061591c565b3360009081526013602052604090205460ff16156131a95760405162461bcd60e51b815260206004820152602a60248201527f5573657220697320616c72656164792063757272656e746c792073656c6c696e60448201526919c81848151a58dad95d60b21b6064820152608401610c2d565b3360009081526015602052604090205460ff1615613220573360009081526014602052604090205460ff166132205760405162461bcd60e51b815260206004820152601d60248201527f5573657220686173206e6f74207469636b6574206176616c6961626c650000006044820152606401610c2d565b6040805160e081018252600a8054825260208201868152928201858152606083018581523360808501908152600060a08601818152600160c08801818152600e80549283018155845297517fbb7b4a454dc3493923482f07822329ed19e8244eff582cc204f8554c3620c3fd60079092029182015597517fbb7b4a454dc3493923482f07822329ed19e8244eff582cc204f8554c3620c3fe89015593517fbb7b4a454dc3493923482f07822329ed19e8244eff582cc204f8554c3620c3ff88015591517fbb7b4a454dc3493923482f07822329ed19e8244eff582cc204f8554c3620c400870155517fbb7b4a454dc3493923482f07822329ed19e8244eff582cc204f8554c3620c401860180546001600160a01b0319166001600160a01b0390921691909117905590517fbb7b4a454dc3493923482f07822329ed19e8244eff582cc204f8554c3620c40285015591517fbb7b4a454dc3493923482f07822329ed19e8244eff582cc204f8554c3620c403909301805460ff191693151593909317909255815491906133b183615abf565b90915550503360008181526013602090815260408083208054600160ff199182168117909255601584528285208054821690921790915560149092529182902080549091169055517f07814713aba2e13eb5f2470225f7395d33fad1452b70f8427dae73e4d3a5934491611aef918690869086906155b7565b60606000805b600d548110156134da576000600d828154811061344f5761344f615b30565b60009182526020918290206040805160a08101825260049093029091018054835260018082015494840194909452600281015491830191909152600301546001600160a01b038116606083015260ff600160a01b9091041615156080820181905290925014156134c7576134c46001846159af565b92505b50806134d281615abf565b915050613430565b506000816001600160401b038111156134f5576134f5615b46565b60405190808252806020026020018201604052801561352e57816020015b61351b614d6a565b8152602001906001900390816135135790505b5090506000805b600d54811015613108576000600d828154811061355457613554615b30565b60009182526020918290206040805160a08101825260049093029091018054835260018082015494840194909452600281015491830191909152600301546001600160a01b038116606083015260ff600160a01b9091041615156080820181905290925014156135eb57808484815181106135d1576135d1615b30565b602002602001018190525082806135e790615abf565b9350505b50806135f681615abf565b915050613535565b6006546001600160a01b031633146136285760405162461bcd60e51b8152600401610c2d906158ed565b6005546040516370a0823160e01b81526000916001600160a01b0316906370a08231906136599030906004016154a2565b60206040518083038186803b15801561367157600080fd5b505afa158015613685573d6000803e3d6000fd5b505050506040513d601f19601f820116820180604052508101906136a99190615223565b116136c65760405162461bcd60e51b8152600401610c2d906157ac565b60055460405163a9059cbb60e01b81526001600160a01b039091169063a9059cbb906136f8908590859060040161557d565b602060405180830381600087803b15801561371257600080fd5b505af1158015613726573d6000803e3d6000fd5b505050506040513d601f19601f820116820180604052508101906115a99190615190565b613752614d6a565b600d828154811061376557613765615b30565b60009182526020918290206040805160a0810182526004909302909101805483526001810154938301939093526002830154908201526003909101546001600160a01b038116606083015260ff600160a01b909104161515608082015292915050565b60006137d382614699565b6137dc57600080fd5b6000828152601160205260408120546007546137f891906159c7565b9392505050565b60008281526003602052604090206001015461381a8161424e565b6115a983836142de565b61382c614d22565b600e828154811061383f5761383f615b30565b60009182526020918290206040805160e0810182526007909302909101805483526001810154938301939093526002830154908201526003820154606082015260048201546001600160a01b03166080820152600582015460a082015260069091015460ff16151560c082015292915050565b6138bb33613fd0565b6138d75760405162461bcd60e51b8152600401610c2d906158ac565b6000600c54610100900460ff1660018111156138f5576138f5615b1a565b141561390c57600c805461ff001916610100179055565b600c805461ff0019169055565b600d818154811061392c5761392c615b30565b60009182526020909120600490910201600301546001600160a01b03163314156139a45760405162461bcd60e51b815260206004820152602360248201527f596f752063616e206e6f742062757920616e206974656d20746f20796f75727360448201526232b63360e91b6064820152608401610c2d565b600d81815481106139b7576139b7615b30565b906000526020600020906004020160030160149054906101000a900460ff1615156001151514613a335760405162461bcd60e51b815260206004820152602160248201527f54686973206974656d206973206e6f74206f6e2073616c6520616e796d6f72656044820152601760f91b6064820152608401610c2d565b613aab600d8281548110613a4957613a49615b30565b906000526020600020906004020160030160009054906101000a90046001600160a01b031633600d8481548110613a8257613a82615b30565b906000526020600020906004020160000154600160405180602001604052806000815250614345565b600554600d80546001600160a01b03909216916323b872dd91339185908110613ad657613ad6615b30565b906000526020600020906004020160030160009054906101000a90046001600160a01b0316600d8581548110613b0e57613b0e615b30565b9060005260206000209060040201600201546040518463ffffffff1660e01b8152600401613b3e93929190615514565b602060405180830381600087803b158015613b5857600080fd5b505af1158015613b6c573d6000803e3d6000fd5b505050506040513d601f19601f82011682018060405250810190613b909190615190565b506000600d8281548110613ba657613ba6615b30565b906000526020600020906004020160030160009054906101000a90046001600160a01b0316905033600d8381548110613be157613be1615b30565b906000526020600020906004020160030160006101000a8154816001600160a01b0302191690836001600160a01b031602179055506000600d8381548110613c2b57613c2b615b30565b906000526020600020906004020160030160146101000a81548160ff0219169083151502179055507f642067ff529c9b5b1162502fc8e8a3a91dda56e126a84f2fe38d341236231a82338284600d8681548110613c8a57613c8a615b30565b600091825260209182902060026004909202010154604080516001600160a01b0396871681529590941691850191909152918301526060820152608001610e59565b6001600160a01b03918216600090815260016020908152604080832093909416825291909152205460ff1690565b6001600160a01b038516331480613d165750613d168533613ccc565b613d745760405162461bcd60e51b815260206004820152602960248201527f455243313135353a2063616c6c6572206973206e6f74206f776e6572206e6f7260448201526808185c1c1c9bdd995960ba1b6064820152608401610c2d565b61157d8585858585614345565b606060006008546001600160401b03811115613d9f57613d9f615b46565b604051908082528060200260200182016040528015613dc8578160200160208202803683370190505b50905060005b8151811015613e1057613de18482610bc5565b828281518110613df357613df3615b30565b602090810291909101015280613e0881615abf565b915050613dce565b5092915050565b60006001600160e01b03198216637965db0b60e01b1480610c595750610c59826146b1565b6001600160a01b038316613e9e5760405162461bcd60e51b815260206004820152602360248201527f455243313135353a206275726e2066726f6d20746865207a65726f206164647260448201526265737360e81b6064820152608401610c2d565b336000613eaa846146d6565b90506000613eb7846146d6565b60408051602080820183526000918290528882528181528282206001600160a01b038b1683529052205490915084811015613f405760405162461bcd60e51b8152602060048201526024808201527f455243313135353a206275726e20616d6f756e7420657863656564732062616c604482015263616e636560e01b6064820152608401610c2d565b6000868152602081815260408083206001600160a01b038b81168086529184528285208a8703905582518b81529384018a9052909290881691600080516020615c26833981519152910160405180910390a46040805160208101909152600090525b50505050505050565b80600081518110613fbe57613fbe615b30565b6020026020010151600f819055505050565b6006546000906001600160a01b0383811691161480613ff55750613ff5600083612d3b565b613ffe57600080fd5b506001919050565b614023826008548360405180602001604052806000815250614721565b61403c6008548260009182526011602052604090912055565b806007600082825461404e91906159af565b9250508190555060016008600082825461406891906159af565b90915550505050565b81518351146140d35760405162461bcd60e51b815260206004820152602860248201527f455243313135353a2069647320616e6420616d6f756e7473206c656e677468206044820152670dad2e6dac2e8c6d60c31b6064820152608401610c2d565b6001600160a01b0384166140f95760405162461bcd60e51b8152600401610c2d9061581d565b3360005b84518110156141e057600085828151811061411a5761411a615b30565b60200260200101519050600085838151811061413857614138615b30565b602090810291909101810151600084815280835260408082206001600160a01b038e1683529093529190912054909150818110156141885760405162461bcd60e51b8152600401610c2d90615862565b6000838152602081815260408083206001600160a01b038e8116855292528083208585039055908b168252812080548492906141c59084906159af565b92505081905550505050806141d990615abf565b90506140fd565b50846001600160a01b0316866001600160a01b0316826001600160a01b03167f4a39dc06d4c0dbc64b70af90fd698a233a518aa5d07e595d983b8c0526c8f7fb8787604051614230929190615680565b60405180910390a461424681878787878761481a565b505050505050565b6114ea8133614985565b6142628282612d3b565b6114b75760008281526003602090815260408083206001600160a01b03851684529091529020805460ff1916600117905561429a3390565b6001600160a01b0316816001600160a01b0316837f2f8788117e7eff1d82e926ec794901d17c78024a50270940304540a733656f0d60405160405180910390a45050565b6142e88282612d3b565b156114b75760008281526003602090815260408083206001600160a01b0385168085529252808320805460ff1916905551339285917ff6391f5c32d9c69d2a47ea670b442974b53935d1edc7fd64eb21e047a839171b9190a45050565b6001600160a01b03841661436b5760405162461bcd60e51b8152600401610c2d9061581d565b336000614377856146d6565b90506000614384856146d6565b90506000868152602081815260408083206001600160a01b038c168452909152902054858110156143c75760405162461bcd60e51b8152600401610c2d90615862565b6000878152602081815260408083206001600160a01b038d8116855292528083208985039055908a168252812080548892906144049084906159af565b909155505060408051888152602081018890526001600160a01b03808b16928c82169291881691600080516020615c26833981519152910160405180910390a4614452848a8a8a8a8a6149e9565b505050505050505050565b60005b600e548110156114b757816001600160a01b0316600e828154811061448757614487615b30565b60009182526020909120600460079092020101546001600160a01b0316141561459c57600e81815481106144bd576144bd615b30565b90600052602060002090600702016001015460011461451157600e81815481106144e9576144e9615b30565b60009182526020822060016007909202010180549161450783615a41565b919050555061459c565b600e818154811061452457614524615b30565b60009182526020822060016007909202010180549161454283615a41565b91905055506000600e828154811061455c5761455c615b30565b60009182526020808320600660079093020191909101805493151560ff199485161790556001600160a01b03851682526014905260409020805490911690555b806145a681615abf565b915050614460565b6114b78282614258565b816001600160a01b0316836001600160a01b0316141561462c5760405162461bcd60e51b815260206004820152602960248201527f455243313135353a2073657474696e6720617070726f76616c20737461747573604482015268103337b91039b2b63360b91b6064820152608401610c2d565b6001600160a01b03838116600081815260016020908152604080832094871680845294825291829020805460ff191686151590811790915591519182527f17307eab39ab6107e8899845ad3d59bd9653f200f220920489ca2b5937696c31910160405180910390a3505050565b600081815260116020526040812054613ffe57600080fd5b60006001600160e01b03198216630271189760e51b1480610c595750610c5982614ab3565b6040805160018082528183019092526060916000919060208083019080368337019050509050828160008151811061471057614710615b30565b602090810291909101015292915050565b6001600160a01b0384166147815760405162461bcd60e51b815260206004820152602160248201527f455243313135353a206d696e7420746f20746865207a65726f206164647265736044820152607360f81b6064820152608401610c2d565b33600061478d856146d6565b9050600061479a856146d6565b90506000868152602081815260408083206001600160a01b038b168452909152812080548792906147cc9084906159af565b909155505060408051878152602081018790526001600160a01b03808a169260009291871691600080516020615c26833981519152910160405180910390a4613fa2836000898989896149e9565b6001600160a01b0384163b156142465760405163bc197c8160e01b81526001600160a01b0385169063bc197c819061485e90899089908890889088906004016154b6565b602060405180830381600087803b15801561487857600080fd5b505af19250505080156148a8575060408051601f3d908101601f191682019092526148a591810190615206565b60015b614955576148b4615b5c565b806308c379a014156148ee57506148c9615b78565b806148d457506148f0565b8060405162461bcd60e51b8152600401610c2d91906156d6565b505b60405162461bcd60e51b815260206004820152603460248201527f455243313135353a207472616e7366657220746f206e6f6e20455243313135356044820152732932b1b2b4bb32b91034b6b83632b6b2b73a32b960611b6064820152608401610c2d565b6001600160e01b0319811663bc197c8160e01b14613fa25760405162461bcd60e51b8152600401610c2d906156e9565b61498f8282612d3b565b6114b7576149a7816001600160a01b03166014614b03565b6149b2836020614b03565b6040516020016149c3929190615433565b60408051601f198184030181529082905262461bcd60e51b8252610c2d916004016156d6565b6001600160a01b0384163b156142465760405163f23a6e6160e01b81526001600160a01b0385169063f23a6e6190614a2d9089908990889088908890600401615538565b602060405180830381600087803b158015614a4757600080fd5b505af1925050508015614a77575060408051601f3d908101601f19168201909252614a7491810190615206565b60015b614a83576148b4615b5c565b6001600160e01b0319811663f23a6e6160e01b14613fa25760405162461bcd60e51b8152600401610c2d906156e9565b60006001600160e01b03198216636cdb3d1360e11b1480614ae457506001600160e01b031982166303a24d0760e21b145b80610c5957506301ffc9a760e01b6001600160e01b0319831614610c59565b60606000614b128360026159db565b614b1d9060026159af565b6001600160401b03811115614b3457614b34615b46565b6040519080825280601f01601f191660200182016040528015614b5e576020820181803683370190505b509050600360fc1b81600081518110614b7957614b79615b30565b60200101906001600160f81b031916908160001a905350600f60fb1b81600181518110614ba857614ba8615b30565b60200101906001600160f81b031916908160001a9053506000614bcc8460026159db565b614bd79060016159af565b90505b6001811115614c4f576f181899199a1a9b1b9c1cb0b131b232b360811b85600f1660108110614c0b57614c0b615b30565b1a60f81b828281518110614c2157614c21615b30565b60200101906001600160f81b031916908160001a90535060049490941c93614c4881615a41565b9050614bda565b5083156137f85760405162461bcd60e51b815260206004820181905260248201527f537472696e67733a20686578206c656e67746820696e73756666696369656e746044820152606401610c2d565b828054614caa90615a58565b90600052602060002090601f016020900481019282614ccc5760008555614d12565b82601f10614ce557805160ff1916838001178555614d12565b82800160010185558215614d12579182015b82811115614d12578251825591602001919060010190614cf7565b50614d1e929150614da4565b5090565b6040518060e001604052806000815260200160008152602001600081526020016000815260200160006001600160a01b03168152602001600081526020016000151581525090565b6040518060a0016040528060008152602001600081526020016000815260200160006001600160a01b031681526020016000151581525090565b5b80821115614d1e5760008155600101614da5565b60006001600160401b03831115614dd257614dd2615b46565b604051614de9601f8501601f191660200182615a93565b809150838152848484011115614dfe57600080fd5b83836020830137600060208583010152509392505050565b80356001600160a01b0381168114612a4e57600080fd5b600082601f830112614e3e57600080fd5b81356020614e4b8261598c565b604051614e588282615a93565b8381528281019150858301600585901b87018401881015614e7857600080fd5b60005b85811015614e9e57614e8c82614e16565b84529284019290840190600101614e7b565b5090979650505050505050565b600082601f830112614ebc57600080fd5b81356020614ec98261598c565b604051614ed68282615a93565b8381528281019150858301600585901b87018401881015614ef657600080fd5b60005b85811015614e9e57813584529284019290840190600101614ef9565b600082601f830112614f2657600080fd5b6137f883833560208501614db9565b600060208284031215614f4757600080fd5b6137f882614e16565b60008060408385031215614f6357600080fd5b614f6c83614e16565b9150614f7a60208401614e16565b90509250929050565b600080600080600060a08688031215614f9b57600080fd5b614fa486614e16565b9450614fb260208701614e16565b935060408601356001600160401b0380821115614fce57600080fd5b614fda89838a01614eab565b94506060880135915080821115614ff057600080fd5b614ffc89838a01614eab565b9350608088013591508082111561501257600080fd5b5061501f88828901614f15565b9150509295509295909350565b600080600080600060a0868803121561504457600080fd5b61504d86614e16565b945061505b60208701614e16565b9350604086013592506060860135915060808601356001600160401b0381111561508457600080fd5b61501f88828901614f15565b600080604083850312156150a357600080fd5b6150ac83614e16565b915060208301356150bc81615c01565b809150509250929050565b600080604083850312156150da57600080fd5b6150e383614e16565b946020939093013593505050565b60006020828403121561510357600080fd5b81356001600160401b0381111561511957600080fd5b61512584828501614e2d565b949350505050565b6000806040838503121561514057600080fd5b82356001600160401b038082111561515757600080fd5b61516386838701614e2d565b9350602085013591508082111561517957600080fd5b5061518685828601614eab565b9150509250929050565b6000602082840312156151a257600080fd5b81516137f881615c01565b6000602082840312156151bf57600080fd5b5035919050565b600080604083850312156151d957600080fd5b82359150614f7a60208401614e16565b6000602082840312156151fb57600080fd5b81356137f881615c0f565b60006020828403121561521857600080fd5b81516137f881615c0f565b60006020828403121561523557600080fd5b5051919050565b6000806040838503121561524f57600080fd5b8235915060208301356001600160401b0381111561526c57600080fd5b61518685828601614eab565b6000806040838503121561528b57600080fd5b8235915060208301356001600160401b038111156152a857600080fd5b8301601f810185136152b957600080fd5b61518685823560208401614db9565b600080604083850312156152db57600080fd5b50508035926020909101359150565b6000806000606084860312156152ff57600080fd5b505081359360208301359350604090920135919050565b6000806000806080858703121561532c57600080fd5b5050823594602084013594506040840135936060013592509050565b600081518084526020808501945080840160005b838110156153785781518752958201959082019060010161535c565b509495945050505050565b6000815180845261539b816020860160208601615a11565b601f01601f19169290920160200192915050565b805182526020808201519083015260408082015190830152606080820151908301526080808201516001600160a01b03169083015260a0808201519083015260c0908101511515910152565b8051825260208082015190830152604080820151908301526060808201516001600160a01b0316908301526080908101511515910152565b76020b1b1b2b9b9a1b7b73a3937b61d1030b1b1b7bab73a1604d1b815260008351615465816017850160208801615a11565b7001034b99036b4b9b9b4b733903937b6329607d1b6017918401918201528351615496816028840160208801615a11565b01602801949350505050565b6001600160a01b0391909116815260200190565b6001600160a01b0386811682528516602082015260a0604082018190526000906154e290830186615348565b82810360608401526154f48186615348565b905082810360808401526155088185615383565b98975050505050505050565b6001600160a01b039384168152919092166020820152604081019190915260600190565b6001600160a01b03868116825285166020820152604081018490526060810183905260a06080820181905260009061557290830184615383565b979650505050505050565b6001600160a01b03929092168252602082015260400190565b6001600160a01b039390931683526020830191909152604082015260600190565b6001600160a01b0394909416845260208401929092526040830152606082015260800190565b6020808252825182820181905260009190848201906040850190845b8181101561561f5761560c8385516153af565b9284019260e092909201916001016155f9565b50909695505050505050565b6020808252825182820181905260009190848201906040850190845b8181101561561f5761565a8385516153fb565b9284019260a09290920191600101615647565b6020815260006137f86020830184615348565b6040815260006156936040830185615348565b82810360208401526156a58185615348565b95945050505050565b60208101600283106156d057634e487b7160e01b600052602160045260246000fd5b91905290565b6020815260006137f86020830184615383565b60208082526028908201527f455243313135353a204552433131353552656365697665722072656a656374656040820152676420746f6b656e7360c01b606082015260800190565b6020808252818101527f55736572206973206e6f74206f776e6572206f662074686973207469636b6574604082015260600190565b60208082526026908201527f55736572206973206e6f742063757272656e746c792073656c6c696e67206120604082015265151a58dad95d60d21b606082015260800190565b6020808252601490820152734e6f2066756e647320746f20776974686472617760601b604082015260600190565b60208082526023908201527f596f7520617265206e6f7420746865206f776e6572206f66207468697320697460408201526232b69760e91b606082015260800190565b60208082526025908201527f455243313135353a207472616e7366657220746f20746865207a65726f206164604082015264647265737360d81b606082015260800190565b6020808252602a908201527f455243313135353a20696e73756666696369656e742062616c616e636520666f60408201526939103a3930b739b332b960b11b606082015260800190565b60208082526021908201527f55736572206973206e6f7420746865204f776e6572206f7220616e2041646d696040820152603760f91b606082015260800190565b6020808252601590820152742ab9b2b91034b9903737ba103a34329037bbb732b960591b604082015260600190565b60208082526034908201527f55736572206973206e6f74205261636b734d656d62657273206f7220646f6573604082015273206e6f74206f776e732061204d7243727970746f60601b606082015260800190565b60e08101610c5982846153af565b60a08101610c5982846153fb565b60006001600160401b038211156159a5576159a5615b46565b5060051b60200190565b600082198211156159c2576159c2615aee565b500190565b6000826159d6576159d6615b04565b500490565b60008160001904831182151516156159f5576159f5615aee565b500290565b600082821015615a0c57615a0c615aee565b500390565b60005b83811015615a2c578181015183820152602001615a14565b83811115615a3b576000848401525b50505050565b600081615a5057615a50615aee565b506000190190565b600181811c90821680615a6c57607f821691505b60208210811415615a8d57634e487b7160e01b600052602260045260246000fd5b50919050565b601f8201601f191681016001600160401b0381118282101715615ab857615ab8615b46565b6040525050565b6000600019821415615ad357615ad3615aee565b5060010190565b600082615ae957615ae9615b04565b500690565b634e487b7160e01b600052601160045260246000fd5b634e487b7160e01b600052601260045260246000fd5b634e487b7160e01b600052602160045260246000fd5b634e487b7160e01b600052603260045260246000fd5b634e487b7160e01b600052604160045260246000fd5b600060033d1115615b755760046000803e5060005160e01c5b90565b600060443d1015615b865790565b6040516003193d81016004833e81513d6001600160401b038160248401118184111715615bb557505050505090565b8285019150815181811115615bcd5750505050505090565b843d8701016020828501011115615be75750505050505090565b615bf660208286010187615a93565b509095945050505050565b80151581146114ea57600080fd5b6001600160e01b0319811681146114ea57600080fdfec3d58168c5ae7397731d063d5bbf3d657854427343f4c083240f7aacaa2d0f62a2646970667358221220c97cb31c7cd82b63d778eae77a4cdd9d36e49557eeac0bacf2bd962c334bf48064736f6c63430008070033",
  "devdoc": {
    "kind": "dev",
    "methods": {
      "_randomNumber()": {
        "details": "Uses Chainlink VRF -> call requestRandomWords method by using o_vrfCoordinator object set as internal because is going to be called only when a case is opened"
      },
      "_rarityOfItem(uint256)": {
        "details": "- Requires that tokenId exists (item is listed) - chance is calculated as item supply divided by total items supply"
      },
      "balanceOf(address,uint256)": {
        "details": "See {IERC1155-balanceOf}. Requirements: - `account` cannot be the zero address."
      },
      "balanceOfBatch(address[],uint256[])": {
        "details": "See {IERC1155-balanceOfBatch}. Requirements: - `accounts` and `ids` must have the same length."
      },
      "buyItem(uint256)": {
        "details": "- Needs to check that user is not trying to buy its own item - Needs to check that item was not sold before - Needs to transfer tokens from buyer to seller - Needs to transfer item from seller to buyer - Update sold attribute from array - Emit event "
      },
      "buyTicket(uint256)": {
        "details": "- Should check that user is NOT Vip -> does make sense that a VIP user buys a ticket - Should check that user has a listed ticket - Transfer RacksToken from buyer to seller - Update mappings variables - Emit event"
      },
      "changeItemPrice(uint256,uint256)": {
        "details": "- Needs to check that user is trying to unlist an item he owns - Needs to update price status - Emit event"
      },
      "changeTicketConditions(uint256,uint256,uint256,uint256)": {
        "details": "- Should check that user is Vip (Modifier) - Should check that user has a listed ticket - Emit event"
      },
      "claimTicketBack(uint256)": {
        "details": "- Check that claimer is lending a Ticket - Check that duration of the Ticket is over -> block.timestamp is in seconds and duration in hours  -> transform duration into seconds  - Update mappings - Emit event"
      },
      "flipContractState()": {
        "details": "Only callable by the Owner or an admin"
      },
      "getRoleAdmin(bytes32)": {
        "details": "Returns the admin role that controls `role`. See {grantRole} and {revokeRole}. To change a role's admin, use {_setRoleAdmin}."
      },
      "getTicketDurationLeft(uint256)": {
        "details": "This function returns 2 parameters - uint256: timeLeft  - bool: false if numTries == 0         true if numTries > 0"
      },
      "grantRole(bytes32,address)": {
        "details": "Grants `role` to `account`. If `account` had not been already granted `role`, emits a {RoleGranted} event. Requirements: - the caller must have ``role``'s admin role."
      },
      "hasRole(bytes32,address)": {
        "details": "Returns `true` if `account` has been granted `role`."
      },
      "isApprovedForAll(address,address)": {
        "details": "See {IERC1155-isApprovedForAll}."
      },
      "isVip(address)": {
        "details": "- Require users MrCrypro's balance is > ' - Require that RacksMembers user's attribute is true"
      },
      "listItem(uint256)": {
        "details": "Only callable by the Owner"
      },
      "listItemOnMarket(uint256,uint256)": {
        "details": "- Needs to check balanceOf item trying to be sold - Needs to check if user has correctly done an Approve for the item transfer in case it is sold - Needs to transfer item  - Update marketItems array - Emit event "
      },
      "listTicket(uint256,uint256,uint256)": {
        "details": "- Should check that user is Vip (Modifier) - Check is user has had a ticket before     - If so: check that is has ticket now     - if not: create ticket (first ticket in live for this user) - Should check that user is NOT currently selling another ticket -> Users can only sell 1 ticket at the same time - Include ticket on array - Increase s_ticketCount - Set mapping to true - Emit event"
      },
      "openCase()": {
        "details": " - Should check that user owns a Ticket -> modifier - Should check that msg.value is bigger than casePrice - Should transfer msg.value to the contract - Internally calls randomNumber()  - Apply modular function for the randomNumber to be between 0 and totalSupply of items - Should choose an item"
      },
      "removeListRacksMembers(address[])": {
        "details": "Only callable by the Owner Require comented because maybe owner or admin are trying to set as false some address that was already set as false"
      },
      "removeSingleRacksMember(address)": {
        "details": "Only callable by the Owner Require comented because maybe owner or admin are trying to set as false some address that was already set as false"
      },
      "renounceRole(bytes32,address)": {
        "details": "Revokes `role` from the calling account. Roles are often managed via {grantRole} and {revokeRole}: this function's purpose is to provide a mechanism for accounts to lose their privileges if they are compromised (such as when a trusted device is misplaced). If the calling account had been revoked `role`, emits a {RoleRevoked} event. Requirements: - the caller must be `account`."
      },
      "revokeRole(bytes32,address)": {
        "details": "Revokes `role` from `account`. If `account` had been granted `role`, emits a {RoleRevoked} event. Requirements: - the caller must have ``role``'s admin role."
      },
      "safeBatchTransferFrom(address,address,uint256[],uint256[],bytes)": {
        "details": "See {IERC1155-safeBatchTransferFrom}."
      },
      "safeTransferFrom(address,address,uint256,uint256,bytes)": {
        "details": "See {IERC1155-safeTransferFrom}."
      },
      "setAdmin(address)": {
        "details": "Only callable by the Owner"
      },
      "setApprovalForAll(address,bool)": {
        "details": "See {IERC1155-setApprovalForAll}."
      },
      "setCasePrice(uint256)": {
        "details": "Only callable by the Owner"
      },
      "setListRacksMembers(address[])": {
        "details": "Only callable by the Owner Require comented because maybe owner or admin are trying to set as true some address that was already set as true"
      },
      "setSingleRacksMember(address)": {
        "details": "Only callable by the Owner Check that user was not already racksMember - If so: do nothing - If not: check if user owns MrCrypto      - If so: set racksMember and give Ticket      - If not: set racksMember "
      },
      "setTokenUri(uint256,string)": {
        "details": "- Only Owner or Admins can call this function - Need to specify:  - tokenId: specific item you want to set its uri  - uri: uri wanted to be set"
      },
      "supplyOfItem(uint256)": {
        "details": "- Getter of s_maxSupply mapping"
      },
      "unListItem(uint256)": {
        "details": "- Needs to check that user is trying to unlist an item he owns - Update item's sold variable - Emit event"
      },
      "unListTicket(uint256)": {
        "details": "- Should check that user is Vip (Modifier) - Should check that user has a listed ticket - Emit event"
      },
      "uri(uint256)": {
        "details": "- returns information stored in s_uris mapping - Any user can check this information"
      },
      "viewItems(address)": {
        "details": "Copy users inventory in an empty array and returns it"
      },
      "withdrawAllFunds(address)": {
        "details": " - Only owner is able to call this function - Should check that there are avaliable funds to withdraw - Should specify the wallet address you want to transfer the funds to"
      },
      "withdrawFunds(address,uint256)": {
        "details": " - Only owner is able to call this function - Should check that there are avaliable funds to withdraw - Should specify the wallet address you want to transfer the funds to - Should specify the amount of funds you want to transfer"
      }
    },
    "version": 1
  },
  "userdoc": {
    "events": {
      "CaseOpened(address,uint256,uint256)": {
        "notice": "Events"
      }
    },
    "kind": "user",
    "methods": {
      "ADMIN_ROLE()": {
        "notice": "Standard variables"
      },
      "_randomNumber()": {
        "notice": "Used to get an actually Random Number -> to pick an item when openning a case"
      },
      "_rarityOfItem(uint256)": {
        "notice": "Calculate chance of receiving an specific item - As higher is result higher is the rarity of the item"
      },
      "buyItem(uint256)": {
        "notice": "Function used to buy an item on the marketplace"
      },
      "buyTicket(uint256)": {
        "notice": "This function is used to buy a caseTicket"
      },
      "changeItemPrice(uint256,uint256)": {
        "notice": "Function used to change price from item listed "
      },
      "changeTicketConditions(uint256,uint256,uint256,uint256)": {
        "notice": "This function is used for a VIP user to change 'Case Tickets' price and tries on the MarketPlace"
      },
      "claimTicketBack(uint256)": {
        "notice": "Function used to claim Ticket back when duration is over"
      },
      "exchangeItem(uint256)": {
        "notice": "Function used to exchange a token item for a real physical clothe."
      },
      "flipContractState()": {
        "notice": "Change contract state from Active to Inactive and viceversa"
      },
      "getCasePrice()": {
        "notice": "View case price"
      },
      "getITicketsOnSale()": {
        "notice": "Function used to return every ticket that are currently on sale"
      },
      "getItemsOnSale()": {
        "notice": "function used to return every item that is on sale on the MarketPlace"
      },
      "getMarketItem(uint256)": {
        "notice": "Function used to return items that are currently on sale"
      },
      "getMarketTicket(uint256)": {
        "notice": "Function used to return ticket that are currently on sale"
      },
      "getTicketDurationLeft(uint256)": {
        "notice": "Function used to view how much time is left for lended Ticket"
      },
      "i_vrfCoordinator()": {
        "notice": "VRF Variables"
      },
      "isVip(address)": {
        "notice": "Check if user is RacksMembers and owns at least 1 MrCrypto"
      },
      "listItem(uint256)": {
        "notice": "List a new item to the avaliable collection"
      },
      "listItemOnMarket(uint256,uint256)": {
        "notice": "Function used to sell an item on the marketplace"
      },
      "listTicket(uint256,uint256,uint256)": {
        "notice": "This function is used for a VIP user to list 'Case Tickets' on the MarketPlace"
      },
      "openCase()": {
        "notice": "Function used to 'open a case' and get an item"
      },
      "removeListRacksMembers(address[])": {
        "notice": "Set RacksMember attribute as false for a list of users that are Members (array)"
      },
      "removeSingleRacksMember(address)": {
        "notice": "Set RacksMember attribute as false for a user that was Racks Member before but it is not now"
      },
      "setAdmin(address)": {
        "notice": "Set new Admin"
      },
      "setCasePrice(uint256)": {
        "notice": "Change price of the box"
      },
      "setListRacksMembers(address[])": {
        "notice": "Set RacksMember attribute as true for a list of users that are Members (array)"
      },
      "setSingleRacksMember(address)": {
        "notice": "Set RacksMember attribute as true for a user that is Member"
      },
      "setTokenUri(uint256,string)": {
        "notice": "Used to set tokenURI to specific item "
      },
      "supplyOfItem(uint256)": {
        "notice": "Returns maxSupply of specific item (by tokenId)"
      },
      "supportsInterface(bytes4)": {
        "notice": "Need to override supportsInterface function because Contract is ERC1155 and AccessControl"
      },
      "unListItem(uint256)": {
        "notice": "Function used to unlist an item from marketplace"
      },
      "unListTicket(uint256)": {
        "notice": "This function is used for a VIP user to unlist 'Case Tickets' on the MarketPlace"
      },
      "uri(uint256)": {
        "notice": "Used to return token URI by inserting tokenID"
      },
      "viewItems(address)": {
        "notice": "Returns all the items inside the user's inventory (Could be used by the user to check his inventory or to check someone else inventory by address)"
      },
      "withdrawAllFunds(address)": {
        "notice": "Used to withdraw ALL funds"
      },
      "withdrawFunds(address,uint256)": {
        "notice": "Used to withdraw specific amount of funds"
      }
    },
    "version": 1
  },
  "storageLayout": {
    "storage": [
      {
        "astId": 670,
        "contract": "contracts/RacksItemsv3.sol:RacksItemsv3",
        "label": "_balances",
        "offset": 0,
        "slot": "0",
        "type": "t_mapping(t_uint256,t_mapping(t_address,t_uint256))"
      },
      {
        "astId": 676,
        "contract": "contracts/RacksItemsv3.sol:RacksItemsv3",
        "label": "_operatorApprovals",
        "offset": 0,
        "slot": "1",
        "type": "t_mapping(t_address,t_mapping(t_address,t_bool))"
      },
      {
        "astId": 678,
        "contract": "contracts/RacksItemsv3.sol:RacksItemsv3",
        "label": "_uri",
        "offset": 0,
        "slot": "2",
        "type": "t_string_storage"
      },
      {
        "astId": 171,
        "contract": "contracts/RacksItemsv3.sol:RacksItemsv3",
        "label": "_roles",
        "offset": 0,
        "slot": "3",
        "type": "t_mapping(t_bytes32,t_struct(RoleData)166_storage)"
      },
      {
        "astId": 7995,
        "contract": "contracts/RacksItemsv3.sol:RacksItemsv3",
        "label": "MR_CRYPTO",
        "offset": 0,
        "slot": "4",
        "type": "t_contract(IERC721Enumerable)3850"
      },
      {
        "astId": 7998,
        "contract": "contracts/RacksItemsv3.sol:RacksItemsv3",
        "label": "racksToken",
        "offset": 0,
        "slot": "5",
        "type": "t_contract(IERC20)2794"
      },
      {
        "astId": 8004,
        "contract": "contracts/RacksItemsv3.sol:RacksItemsv3",
        "label": "_owner",
        "offset": 0,
        "slot": "6",
        "type": "t_address"
      },
      {
        "astId": 8006,
        "contract": "contracts/RacksItemsv3.sol:RacksItemsv3",
        "label": "s_maxTotalSupply",
        "offset": 0,
        "slot": "7",
        "type": "t_uint256"
      },
      {
        "astId": 8008,
        "contract": "contracts/RacksItemsv3.sol:RacksItemsv3",
        "label": "s_tokenCount",
        "offset": 0,
        "slot": "8",
        "type": "t_uint256"
      },
      {
        "astId": 8010,
        "contract": "contracts/RacksItemsv3.sol:RacksItemsv3",
        "label": "_marketCount",
        "offset": 0,
        "slot": "9",
        "type": "t_uint256"
      },
      {
        "astId": 8012,
        "contract": "contracts/RacksItemsv3.sol:RacksItemsv3",
        "label": "s_ticketCount",
        "offset": 0,
        "slot": "10",
        "type": "t_uint256"
      },
      {
        "astId": 8014,
        "contract": "contracts/RacksItemsv3.sol:RacksItemsv3",
        "label": "casePrice",
        "offset": 0,
        "slot": "11",
        "type": "t_uint256"
      },
      {
        "astId": 8017,
        "contract": "contracts/RacksItemsv3.sol:RacksItemsv3",
        "label": "contractActive",
        "offset": 0,
        "slot": "12",
        "type": "t_bool"
      },
      {
        "astId": 8020,
        "contract": "contracts/RacksItemsv3.sol:RacksItemsv3",
        "label": "s_contractState",
        "offset": 1,
        "slot": "12",
        "type": "t_enum(ContractState)7965"
      },
      {
        "astId": 8024,
        "contract": "contracts/RacksItemsv3.sol:RacksItemsv3",
        "label": "_marketItems",
        "offset": 0,
        "slot": "13",
        "type": "t_array(t_struct(itemOnSale)7976_storage)dyn_storage"
      },
      {
        "astId": 8028,
        "contract": "contracts/RacksItemsv3.sol:RacksItemsv3",
        "label": "_tickets",
        "offset": 0,
        "slot": "14",
        "type": "t_array(t_struct(caseTicket)7991_storage)dyn_storage"
      },
      {
        "astId": 8046,
        "contract": "contracts/RacksItemsv3.sol:RacksItemsv3",
        "label": "s_randomWord",
        "offset": 0,
        "slot": "15",
        "type": "t_uint256"
      },
      {
        "astId": 8051,
        "contract": "contracts/RacksItemsv3.sol:RacksItemsv3",
        "label": "s_gotRacksMembers",
        "offset": 0,
        "slot": "16",
        "type": "t_mapping(t_address,t_bool)"
      },
      {
        "astId": 8055,
        "contract": "contracts/RacksItemsv3.sol:RacksItemsv3",
        "label": "s_maxSupply",
        "offset": 0,
        "slot": "17",
        "type": "t_mapping(t_uint256,t_uint256)"
      },
      {
        "astId": 8059,
        "contract": "contracts/RacksItemsv3.sol:RacksItemsv3",
        "label": "s_uris",
        "offset": 0,
        "slot": "18",
        "type": "t_mapping(t_uint256,t_string_storage)"
      },
      {
        "astId": 8063,
        "contract": "contracts/RacksItemsv3.sol:RacksItemsv3",
        "label": "s_isSellingTicket",
        "offset": 0,
        "slot": "19",
        "type": "t_mapping(t_address,t_bool)"
      },
      {
        "astId": 8067,
        "contract": "contracts/RacksItemsv3.sol:RacksItemsv3",
        "label": "s_hasTicket",
        "offset": 0,
        "slot": "20",
        "type": "t_mapping(t_address,t_bool)"
      },
      {
        "astId": 8071,
        "contract": "contracts/RacksItemsv3.sol:RacksItemsv3",
        "label": "s_hadTicket",
        "offset": 0,
        "slot": "21",
        "type": "t_mapping(t_address,t_bool)"
      },
      {
        "astId": 8075,
        "contract": "contracts/RacksItemsv3.sol:RacksItemsv3",
        "label": "s_ticketIsLended",
        "offset": 0,
        "slot": "22",
        "type": "t_mapping(t_address,t_bool)"
      }
    ],
    "types": {
      "t_address": {
        "encoding": "inplace",
        "label": "address",
        "numberOfBytes": "20"
      },
      "t_array(t_struct(caseTicket)7991_storage)dyn_storage": {
        "base": "t_struct(caseTicket)7991_storage",
        "encoding": "dynamic_array",
        "label": "struct RacksItemsv3.caseTicket[]",
        "numberOfBytes": "32"
      },
      "t_array(t_struct(itemOnSale)7976_storage)dyn_storage": {
        "base": "t_struct(itemOnSale)7976_storage",
        "encoding": "dynamic_array",
        "label": "struct RacksItemsv3.itemOnSale[]",
        "numberOfBytes": "32"
      },
      "t_bool": {
        "encoding": "inplace",
        "label": "bool",
        "numberOfBytes": "1"
      },
      "t_bytes32": {
        "encoding": "inplace",
        "label": "bytes32",
        "numberOfBytes": "32"
      },
      "t_contract(IERC20)2794": {
        "encoding": "inplace",
        "label": "contract IERC20",
        "numberOfBytes": "20"
      },
      "t_contract(IERC721Enumerable)3850": {
        "encoding": "inplace",
        "label": "contract IERC721Enumerable",
        "numberOfBytes": "20"
      },
      "t_enum(ContractState)7965": {
        "encoding": "inplace",
        "label": "enum RacksItemsv3.ContractState",
        "numberOfBytes": "1"
      },
      "t_mapping(t_address,t_bool)": {
        "encoding": "mapping",
        "key": "t_address",
        "label": "mapping(address => bool)",
        "numberOfBytes": "32",
        "value": "t_bool"
      },
      "t_mapping(t_address,t_mapping(t_address,t_bool))": {
        "encoding": "mapping",
        "key": "t_address",
        "label": "mapping(address => mapping(address => bool))",
        "numberOfBytes": "32",
        "value": "t_mapping(t_address,t_bool)"
      },
      "t_mapping(t_address,t_uint256)": {
        "encoding": "mapping",
        "key": "t_address",
        "label": "mapping(address => uint256)",
        "numberOfBytes": "32",
        "value": "t_uint256"
      },
      "t_mapping(t_bytes32,t_struct(RoleData)166_storage)": {
        "encoding": "mapping",
        "key": "t_bytes32",
        "label": "mapping(bytes32 => struct AccessControl.RoleData)",
        "numberOfBytes": "32",
        "value": "t_struct(RoleData)166_storage"
      },
      "t_mapping(t_uint256,t_mapping(t_address,t_uint256))": {
        "encoding": "mapping",
        "key": "t_uint256",
        "label": "mapping(uint256 => mapping(address => uint256))",
        "numberOfBytes": "32",
        "value": "t_mapping(t_address,t_uint256)"
      },
      "t_mapping(t_uint256,t_string_storage)": {
        "encoding": "mapping",
        "key": "t_uint256",
        "label": "mapping(uint256 => string)",
        "numberOfBytes": "32",
        "value": "t_string_storage"
      },
      "t_mapping(t_uint256,t_uint256)": {
        "encoding": "mapping",
        "key": "t_uint256",
        "label": "mapping(uint256 => uint256)",
        "numberOfBytes": "32",
        "value": "t_uint256"
      },
      "t_string_storage": {
        "encoding": "bytes",
        "label": "string",
        "numberOfBytes": "32"
      },
      "t_struct(RoleData)166_storage": {
        "encoding": "inplace",
        "label": "struct AccessControl.RoleData",
        "members": [
          {
            "astId": 163,
            "contract": "contracts/RacksItemsv3.sol:RacksItemsv3",
            "label": "members",
            "offset": 0,
            "slot": "0",
            "type": "t_mapping(t_address,t_bool)"
          },
          {
            "astId": 165,
            "contract": "contracts/RacksItemsv3.sol:RacksItemsv3",
            "label": "adminRole",
            "offset": 0,
            "slot": "1",
            "type": "t_bytes32"
          }
        ],
        "numberOfBytes": "64"
      },
      "t_struct(caseTicket)7991_storage": {
        "encoding": "inplace",
        "label": "struct RacksItemsv3.caseTicket",
        "members": [
          {
            "astId": 7978,
            "contract": "contracts/RacksItemsv3.sol:RacksItemsv3",
            "label": "ticketId",
            "offset": 0,
            "slot": "0",
            "type": "t_uint256"
          },
          {
            "astId": 7980,
            "contract": "contracts/RacksItemsv3.sol:RacksItemsv3",
            "label": "numTries",
            "offset": 0,
            "slot": "1",
            "type": "t_uint256"
          },
          {
            "astId": 7982,
            "contract": "contracts/RacksItemsv3.sol:RacksItemsv3",
            "label": "duration",
            "offset": 0,
            "slot": "2",
            "type": "t_uint256"
          },
          {
            "astId": 7984,
            "contract": "contracts/RacksItemsv3.sol:RacksItemsv3",
            "label": "price",
            "offset": 0,
            "slot": "3",
            "type": "t_uint256"
          },
          {
            "astId": 7986,
            "contract": "contracts/RacksItemsv3.sol:RacksItemsv3",
            "label": "owner",
            "offset": 0,
            "slot": "4",
            "type": "t_address"
          },
          {
            "astId": 7988,
            "contract": "contracts/RacksItemsv3.sol:RacksItemsv3",
            "label": "timeWhenSold",
            "offset": 0,
            "slot": "5",
            "type": "t_uint256"
          },
          {
            "astId": 7990,
            "contract": "contracts/RacksItemsv3.sol:RacksItemsv3",
            "label": "isAvaliable",
            "offset": 0,
            "slot": "6",
            "type": "t_bool"
          }
        ],
        "numberOfBytes": "224"
      },
      "t_struct(itemOnSale)7976_storage": {
        "encoding": "inplace",
        "label": "struct RacksItemsv3.itemOnSale",
        "members": [
          {
            "astId": 7967,
            "contract": "contracts/RacksItemsv3.sol:RacksItemsv3",
            "label": "tokenId",
            "offset": 0,
            "slot": "0",
            "type": "t_uint256"
          },
          {
            "astId": 7969,
            "contract": "contracts/RacksItemsv3.sol:RacksItemsv3",
            "label": "marketItemId",
            "offset": 0,
            "slot": "1",
            "type": "t_uint256"
          },
          {
            "astId": 7971,
            "contract": "contracts/RacksItemsv3.sol:RacksItemsv3",
            "label": "price",
            "offset": 0,
            "slot": "2",
            "type": "t_uint256"
          },
          {
            "astId": 7973,
            "contract": "contracts/RacksItemsv3.sol:RacksItemsv3",
            "label": "itemOwner",
            "offset": 0,
            "slot": "3",
            "type": "t_address"
          },
          {
            "astId": 7975,
            "contract": "contracts/RacksItemsv3.sol:RacksItemsv3",
            "label": "isOnSale",
            "offset": 20,
            "slot": "3",
            "type": "t_bool"
          }
        ],
        "numberOfBytes": "128"
      },
      "t_uint256": {
        "encoding": "inplace",
        "label": "uint256",
        "numberOfBytes": "32"
      }
    }
  }
}