{
  "address": "0x4b6f9b84c58836dF2af626C01548429AFe0800D9",
  "abi": [
    {
      "inputs": [
        {
          "internalType": "address",
          "name": "vrfCoordinatorV2",
          "type": "address"
        },
        {
          "internalType": "bytes32",
          "name": "gasLane",
          "type": "bytes32"
        },
        {
          "internalType": "uint64",
          "name": "subscriptionId",
          "type": "uint64"
        },
        {
          "internalType": "uint32",
          "name": "callbackGasLimit",
          "type": "uint32"
        },
        {
          "internalType": "address",
          "name": "_racksTokenAddress",
          "type": "address"
        }
      ],
      "stateMutability": "nonpayable",
      "type": "constructor"
    },
    {
      "inputs": [
        {
          "internalType": "address",
          "name": "have",
          "type": "address"
        },
        {
          "internalType": "address",
          "name": "want",
          "type": "address"
        }
      ],
      "name": "OnlyCoordinatorCanFulfill",
      "type": "error"
    },
    {
      "anonymous": false,
      "inputs": [
        {
          "indexed": true,
          "internalType": "address",
          "name": "account",
          "type": "address"
        },
        {
          "indexed": true,
          "internalType": "address",
          "name": "operator",
          "type": "address"
        },
        {
          "indexed": false,
          "internalType": "bool",
          "name": "approved",
          "type": "bool"
        }
      ],
      "name": "ApprovalForAll",
      "type": "event"
    },
    {
      "anonymous": false,
      "inputs": [
        {
          "indexed": false,
          "internalType": "address",
          "name": "user",
          "type": "address"
        },
        {
          "indexed": false,
          "internalType": "uint256",
          "name": "casePrice",
          "type": "uint256"
        },
        {
          "indexed": false,
          "internalType": "uint256",
          "name": "item",
          "type": "uint256"
        }
      ],
      "name": "CaseOpened",
      "type": "event"
    },
    {
      "anonymous": false,
      "inputs": [
        {
          "indexed": true,
          "internalType": "bytes32",
          "name": "role",
          "type": "bytes32"
        },
        {
          "indexed": true,
          "internalType": "bytes32",
          "name": "previousAdminRole",
          "type": "bytes32"
        },
        {
          "indexed": true,
          "internalType": "bytes32",
          "name": "newAdminRole",
          "type": "bytes32"
        }
      ],
      "name": "RoleAdminChanged",
      "type": "event"
    },
    {
      "anonymous": false,
      "inputs": [
        {
          "indexed": true,
          "internalType": "bytes32",
          "name": "role",
          "type": "bytes32"
        },
        {
          "indexed": true,
          "internalType": "address",
          "name": "account",
          "type": "address"
        },
        {
          "indexed": true,
          "internalType": "address",
          "name": "sender",
          "type": "address"
        }
      ],
      "name": "RoleGranted",
      "type": "event"
    },
    {
      "anonymous": false,
      "inputs": [
        {
          "indexed": true,
          "internalType": "bytes32",
          "name": "role",
          "type": "bytes32"
        },
        {
          "indexed": true,
          "internalType": "address",
          "name": "account",
          "type": "address"
        },
        {
          "indexed": true,
          "internalType": "address",
          "name": "sender",
          "type": "address"
        }
      ],
      "name": "RoleRevoked",
      "type": "event"
    },
    {
      "anonymous": false,
      "inputs": [
        {
          "indexed": true,
          "internalType": "address",
          "name": "operator",
          "type": "address"
        },
        {
          "indexed": true,
          "internalType": "address",
          "name": "from",
          "type": "address"
        },
        {
          "indexed": true,
          "internalType": "address",
          "name": "to",
          "type": "address"
        },
        {
          "indexed": false,
          "internalType": "uint256[]",
          "name": "ids",
          "type": "uint256[]"
        },
        {
          "indexed": false,
          "internalType": "uint256[]",
          "name": "values",
          "type": "uint256[]"
        }
      ],
      "name": "TransferBatch",
      "type": "event"
    },
    {
      "anonymous": false,
      "inputs": [
        {
          "indexed": true,
          "internalType": "address",
          "name": "operator",
          "type": "address"
        },
        {
          "indexed": true,
          "internalType": "address",
          "name": "from",
          "type": "address"
        },
        {
          "indexed": true,
          "internalType": "address",
          "name": "to",
          "type": "address"
        },
        {
          "indexed": false,
          "internalType": "uint256",
          "name": "id",
          "type": "uint256"
        },
        {
          "indexed": false,
          "internalType": "uint256",
          "name": "value",
          "type": "uint256"
        }
      ],
      "name": "TransferSingle",
      "type": "event"
    },
    {
      "anonymous": false,
      "inputs": [
        {
          "indexed": false,
          "internalType": "string",
          "name": "value",
          "type": "string"
        },
        {
          "indexed": true,
          "internalType": "uint256",
          "name": "id",
          "type": "uint256"
        }
      ],
      "name": "URI",
      "type": "event"
    },
    {
      "anonymous": false,
      "inputs": [
        {
          "indexed": false,
          "internalType": "uint256",
          "name": "newPrice",
          "type": "uint256"
        }
      ],
      "name": "casePriceChanged",
      "type": "event"
    },
    {
      "anonymous": false,
      "inputs": [
        {
          "indexed": false,
          "internalType": "address",
          "name": "buyer",
          "type": "address"
        },
        {
          "indexed": false,
          "internalType": "address",
          "name": "seller",
          "type": "address"
        },
        {
          "indexed": false,
          "internalType": "uint256",
          "name": "marketItemId",
          "type": "uint256"
        },
        {
          "indexed": false,
          "internalType": "uint256",
          "name": "price",
          "type": "uint256"
        }
      ],
      "name": "itemBought",
      "type": "event"
    },
    {
      "anonymous": false,
      "inputs": [
        {
          "indexed": false,
          "internalType": "address",
          "name": "user",
          "type": "address"
        },
        {
          "indexed": false,
          "internalType": "uint256",
          "name": "tokenId",
          "type": "uint256"
        }
      ],
      "name": "itemExchanged",
      "type": "event"
    },
    {
      "anonymous": false,
      "inputs": [
        {
          "indexed": false,
          "internalType": "address",
          "name": "owner",
          "type": "address"
        },
        {
          "indexed": false,
          "internalType": "uint256",
          "name": "marketItemId",
          "type": "uint256"
        },
        {
          "indexed": false,
          "internalType": "uint256",
          "name": "oldPrice",
          "type": "uint256"
        },
        {
          "indexed": false,
          "internalType": "uint256",
          "name": "newPrice",
          "type": "uint256"
        }
      ],
      "name": "itemPriceChanged",
      "type": "event"
    },
    {
      "anonymous": false,
      "inputs": [
        {
          "indexed": false,
          "internalType": "address",
          "name": "seller",
          "type": "address"
        },
        {
          "indexed": false,
          "internalType": "uint256",
          "name": "numTries",
          "type": "uint256"
        },
        {
          "indexed": false,
          "internalType": "uint256",
          "name": "_hours",
          "type": "uint256"
        },
        {
          "indexed": false,
          "internalType": "uint256",
          "name": "price",
          "type": "uint256"
        }
      ],
      "name": "newTicketOnSale",
      "type": "event"
    },
    {
      "anonymous": false,
      "inputs": [
        {
          "indexed": false,
          "internalType": "address",
          "name": "user",
          "type": "address"
        },
        {
          "indexed": false,
          "internalType": "uint256",
          "name": "tokenId",
          "type": "uint256"
        },
        {
          "indexed": false,
          "internalType": "uint256",
          "name": "price",
          "type": "uint256"
        }
      ],
      "name": "sellingItem",
      "type": "event"
    },
    {
      "anonymous": false,
      "inputs": [
        {
          "indexed": false,
          "internalType": "uint256",
          "name": "ticketId",
          "type": "uint256"
        },
        {
          "indexed": false,
          "internalType": "address",
          "name": "oldOwner",
          "type": "address"
        },
        {
          "indexed": false,
          "internalType": "address",
          "name": "newOwner",
          "type": "address"
        },
        {
          "indexed": false,
          "internalType": "uint256",
          "name": "price",
          "type": "uint256"
        }
      ],
      "name": "ticketBought",
      "type": "event"
    },
    {
      "anonymous": false,
      "inputs": [
        {
          "indexed": false,
          "internalType": "address",
          "name": "borrower",
          "type": "address"
        },
        {
          "indexed": false,
          "internalType": "address",
          "name": "realOwner",
          "type": "address"
        }
      ],
      "name": "ticketClaimedBack",
      "type": "event"
    },
    {
      "anonymous": false,
      "inputs": [
        {
          "indexed": false,
          "internalType": "address",
          "name": "owner",
          "type": "address"
        },
        {
          "indexed": false,
          "internalType": "uint256",
          "name": "newTries",
          "type": "uint256"
        },
        {
          "indexed": false,
          "internalType": "uint256",
          "name": "newPrice",
          "type": "uint256"
        }
      ],
      "name": "ticketPriceChanged",
      "type": "event"
    },
    {
      "anonymous": false,
      "inputs": [
        {
          "indexed": false,
          "internalType": "address",
          "name": "owner",
          "type": "address"
        }
      ],
      "name": "unListTicketOnSale",
      "type": "event"
    },
    {
      "anonymous": false,
      "inputs": [
        {
          "indexed": false,
          "internalType": "address",
          "name": "owner",
          "type": "address"
        },
        {
          "indexed": false,
          "internalType": "uint256",
          "name": "marketItemId",
          "type": "uint256"
        }
      ],
      "name": "unListedItem",
      "type": "event"
    },
    {
      "inputs": [],
      "name": "ADMIN_ROLE",
      "outputs": [
        {
          "internalType": "bytes32",
          "name": "",
          "type": "bytes32"
        }
      ],
      "stateMutability": "view",
      "type": "function"
    },
    {
      "inputs": [],
      "name": "DEFAULT_ADMIN_ROLE",
      "outputs": [
        {
          "internalType": "bytes32",
          "name": "",
          "type": "bytes32"
        }
      ],
      "stateMutability": "view",
      "type": "function"
    },
    {
      "inputs": [],
      "name": "NUM_WORDS",
      "outputs": [
        {
          "internalType": "uint32",
          "name": "",
          "type": "uint32"
        }
      ],
      "stateMutability": "view",
      "type": "function"
    },
    {
      "inputs": [],
      "name": "REQUEST_CONFIRMATIONS",
      "outputs": [
        {
          "internalType": "uint16",
          "name": "",
          "type": "uint16"
        }
      ],
      "stateMutability": "view",
      "type": "function"
    },
    {
      "inputs": [],
      "name": "_randomNumber",
      "outputs": [
        {
          "internalType": "uint256",
          "name": "",
          "type": "uint256"
        }
      ],
      "stateMutability": "nonpayable",
      "type": "function"
    },
    {
      "inputs": [
        {
          "internalType": "uint256",
          "name": "tokenId",
          "type": "uint256"
        }
      ],
      "name": "_rarityOfItem",
      "outputs": [
        {
          "internalType": "uint256",
          "name": "",
          "type": "uint256"
        }
      ],
      "stateMutability": "view",
      "type": "function"
    },
    {
      "inputs": [
        {
          "internalType": "address",
          "name": "account",
          "type": "address"
        },
        {
          "internalType": "uint256",
          "name": "id",
          "type": "uint256"
        }
      ],
      "name": "balanceOf",
      "outputs": [
        {
          "internalType": "uint256",
          "name": "",
          "type": "uint256"
        }
      ],
      "stateMutability": "view",
      "type": "function"
    },
    {
      "inputs": [
        {
          "internalType": "address[]",
          "name": "accounts",
          "type": "address[]"
        },
        {
          "internalType": "uint256[]",
          "name": "ids",
          "type": "uint256[]"
        }
      ],
      "name": "balanceOfBatch",
      "outputs": [
        {
          "internalType": "uint256[]",
          "name": "",
          "type": "uint256[]"
        }
      ],
      "stateMutability": "view",
      "type": "function"
    },
    {
      "inputs": [
        {
          "internalType": "uint256",
          "name": "marketItemId",
          "type": "uint256"
        }
      ],
      "name": "buyItem",
      "outputs": [],
      "stateMutability": "nonpayable",
      "type": "function"
    },
    {
      "inputs": [
        {
          "internalType": "uint256",
          "name": "ticketId",
          "type": "uint256"
        }
      ],
      "name": "buyTicket",
      "outputs": [],
      "stateMutability": "nonpayable",
      "type": "function"
    },
    {
      "inputs": [],
      "name": "casePrice",
      "outputs": [
        {
          "internalType": "uint256",
          "name": "",
          "type": "uint256"
        }
      ],
      "stateMutability": "view",
      "type": "function"
    },
    {
      "inputs": [
        {
          "internalType": "uint256",
          "name": "marketItemId",
          "type": "uint256"
        },
        {
          "internalType": "uint256",
          "name": "newPrice",
          "type": "uint256"
        }
      ],
      "name": "changeItemPrice",
      "outputs": [],
      "stateMutability": "nonpayable",
      "type": "function"
    },
    {
      "inputs": [
        {
          "internalType": "uint256",
          "name": "ticketId",
          "type": "uint256"
        },
        {
          "internalType": "uint256",
          "name": "newTries",
          "type": "uint256"
        },
        {
          "internalType": "uint256",
          "name": "newPrice",
          "type": "uint256"
        }
      ],
      "name": "changeTicketConditions",
      "outputs": [],
      "stateMutability": "nonpayable",
      "type": "function"
    },
    {
      "inputs": [
        {
          "internalType": "uint256",
          "name": "ticketId",
          "type": "uint256"
        }
      ],
      "name": "claimTicketBack",
      "outputs": [],
      "stateMutability": "nonpayable",
      "type": "function"
    },
    {
      "inputs": [],
      "name": "contractActive",
      "outputs": [
        {
          "internalType": "bool",
          "name": "",
          "type": "bool"
        }
      ],
      "stateMutability": "view",
      "type": "function"
    },
    {
      "inputs": [
        {
          "internalType": "uint256",
          "name": "tokenId",
          "type": "uint256"
        }
      ],
      "name": "exchangeItem",
      "outputs": [],
      "stateMutability": "nonpayable",
      "type": "function"
    },
    {
      "inputs": [],
      "name": "flipContractState",
      "outputs": [],
      "stateMutability": "nonpayable",
      "type": "function"
    },
    {
      "inputs": [],
      "name": "getCasePrice",
      "outputs": [
        {
          "internalType": "uint256",
          "name": "",
          "type": "uint256"
        }
      ],
      "stateMutability": "view",
      "type": "function"
    },
    {
      "inputs": [],
      "name": "getITicketsOnSale",
      "outputs": [
        {
          "components": [
            {
              "internalType": "uint256",
              "name": "ticketId",
              "type": "uint256"
            },
            {
              "internalType": "uint256",
              "name": "numTries",
              "type": "uint256"
            },
            {
              "internalType": "uint256",
              "name": "duration",
              "type": "uint256"
            },
            {
              "internalType": "uint256",
              "name": "price",
              "type": "uint256"
            },
            {
              "internalType": "address",
              "name": "owner",
              "type": "address"
            },
            {
              "internalType": "uint256",
              "name": "timeWhenSold",
              "type": "uint256"
            },
            {
              "internalType": "bool",
              "name": "isAvaliable",
              "type": "bool"
            }
          ],
          "internalType": "struct RacksItemsv3.caseTicket[]",
          "name": "",
          "type": "tuple[]"
        }
      ],
      "stateMutability": "view",
      "type": "function"
    },
    {
      "inputs": [],
      "name": "getItemsOnSale",
      "outputs": [
        {
          "components": [
            {
              "internalType": "uint256",
              "name": "tokenId",
              "type": "uint256"
            },
            {
              "internalType": "uint256",
              "name": "marketItemId",
              "type": "uint256"
            },
            {
              "internalType": "uint256",
              "name": "price",
              "type": "uint256"
            },
            {
              "internalType": "address",
              "name": "itemOwner",
              "type": "address"
            },
            {
              "internalType": "bool",
              "name": "isOnSale",
              "type": "bool"
            }
          ],
          "internalType": "struct RacksItemsv3.itemOnSale[]",
          "name": "",
          "type": "tuple[]"
        }
      ],
      "stateMutability": "view",
      "type": "function"
    },
    {
      "inputs": [
        {
          "internalType": "uint256",
          "name": "marketItemId",
          "type": "uint256"
        }
      ],
      "name": "getMarketItem",
      "outputs": [
        {
          "components": [
            {
              "internalType": "uint256",
              "name": "tokenId",
              "type": "uint256"
            },
            {
              "internalType": "uint256",
              "name": "marketItemId",
              "type": "uint256"
            },
            {
              "internalType": "uint256",
              "name": "price",
              "type": "uint256"
            },
            {
              "internalType": "address",
              "name": "itemOwner",
              "type": "address"
            },
            {
              "internalType": "bool",
              "name": "isOnSale",
              "type": "bool"
            }
          ],
          "internalType": "struct RacksItemsv3.itemOnSale",
          "name": "",
          "type": "tuple"
        }
      ],
      "stateMutability": "view",
      "type": "function"
    },
    {
      "inputs": [
        {
          "internalType": "uint256",
          "name": "ticketId",
          "type": "uint256"
        }
      ],
      "name": "getMarketTicket",
      "outputs": [
        {
          "components": [
            {
              "internalType": "uint256",
              "name": "ticketId",
              "type": "uint256"
            },
            {
              "internalType": "uint256",
              "name": "numTries",
              "type": "uint256"
            },
            {
              "internalType": "uint256",
              "name": "duration",
              "type": "uint256"
            },
            {
              "internalType": "uint256",
              "name": "price",
              "type": "uint256"
            },
            {
              "internalType": "address",
              "name": "owner",
              "type": "address"
            },
            {
              "internalType": "uint256",
              "name": "timeWhenSold",
              "type": "uint256"
            },
            {
              "internalType": "bool",
              "name": "isAvaliable",
              "type": "bool"
            }
          ],
          "internalType": "struct RacksItemsv3.caseTicket",
          "name": "",
          "type": "tuple"
        }
      ],
      "stateMutability": "view",
      "type": "function"
    },
    {
      "inputs": [
        {
          "internalType": "bytes32",
          "name": "role",
          "type": "bytes32"
        }
      ],
      "name": "getRoleAdmin",
      "outputs": [
        {
          "internalType": "bytes32",
          "name": "",
          "type": "bytes32"
        }
      ],
      "stateMutability": "view",
      "type": "function"
    },
    {
      "inputs": [
        {
          "internalType": "bytes32",
          "name": "role",
          "type": "bytes32"
        },
        {
          "internalType": "address",
          "name": "account",
          "type": "address"
        }
      ],
      "name": "grantRole",
      "outputs": [],
      "stateMutability": "nonpayable",
      "type": "function"
    },
    {
      "inputs": [
        {
          "internalType": "bytes32",
          "name": "role",
          "type": "bytes32"
        },
        {
          "internalType": "address",
          "name": "account",
          "type": "address"
        }
      ],
      "name": "hasRole",
      "outputs": [
        {
          "internalType": "bool",
          "name": "",
          "type": "bool"
        }
      ],
      "stateMutability": "view",
      "type": "function"
    },
    {
      "inputs": [],
      "name": "i_MrCryptoAddress",
      "outputs": [
        {
          "internalType": "address",
          "name": "",
          "type": "address"
        }
      ],
      "stateMutability": "view",
      "type": "function"
    },
    {
      "inputs": [],
      "name": "i_callbackGasLimit",
      "outputs": [
        {
          "internalType": "uint32",
          "name": "",
          "type": "uint32"
        }
      ],
      "stateMutability": "view",
      "type": "function"
    },
    {
      "inputs": [],
      "name": "i_gasLane",
      "outputs": [
        {
          "internalType": "bytes32",
          "name": "",
          "type": "bytes32"
        }
      ],
      "stateMutability": "view",
      "type": "function"
    },
    {
      "inputs": [],
      "name": "i_subscriptionId",
      "outputs": [
        {
          "internalType": "uint64",
          "name": "",
          "type": "uint64"
        }
      ],
      "stateMutability": "view",
      "type": "function"
    },
    {
      "inputs": [],
      "name": "i_vrfCoordinator",
      "outputs": [
        {
          "internalType": "contract VRFCoordinatorV2Interface",
          "name": "",
          "type": "address"
        }
      ],
      "stateMutability": "view",
      "type": "function"
    },
    {
      "inputs": [
        {
          "internalType": "address",
          "name": "account",
          "type": "address"
        },
        {
          "internalType": "address",
          "name": "operator",
          "type": "address"
        }
      ],
      "name": "isApprovedForAll",
      "outputs": [
        {
          "internalType": "bool",
          "name": "",
          "type": "bool"
        }
      ],
      "stateMutability": "view",
      "type": "function"
    },
    {
      "inputs": [
        {
          "internalType": "address",
          "name": "user",
          "type": "address"
        }
      ],
      "name": "isVip",
      "outputs": [
        {
          "internalType": "bool",
          "name": "",
          "type": "bool"
        }
      ],
      "stateMutability": "view",
      "type": "function"
    },
    {
      "inputs": [
        {
          "internalType": "uint256",
          "name": "itemSupply",
          "type": "uint256"
        }
      ],
      "name": "listItem",
      "outputs": [],
      "stateMutability": "nonpayable",
      "type": "function"
    },
    {
      "inputs": [
        {
          "internalType": "uint256",
          "name": "marketItemId",
          "type": "uint256"
        },
        {
          "internalType": "uint256",
          "name": "price",
          "type": "uint256"
        }
      ],
      "name": "listItemOnMarket",
      "outputs": [],
      "stateMutability": "nonpayable",
      "type": "function"
    },
    {
      "inputs": [
        {
          "internalType": "uint256",
          "name": "numTries",
          "type": "uint256"
        },
        {
          "internalType": "uint256",
          "name": "_hours",
          "type": "uint256"
        },
        {
          "internalType": "uint256",
          "name": "price",
          "type": "uint256"
        }
      ],
      "name": "listTicket",
      "outputs": [],
      "stateMutability": "nonpayable",
      "type": "function"
    },
    {
      "inputs": [
        {
          "internalType": "address",
          "name": "",
          "type": "address"
        },
        {
          "internalType": "address",
          "name": "",
          "type": "address"
        },
        {
          "internalType": "uint256[]",
          "name": "",
          "type": "uint256[]"
        },
        {
          "internalType": "uint256[]",
          "name": "",
          "type": "uint256[]"
        },
        {
          "internalType": "bytes",
          "name": "",
          "type": "bytes"
        }
      ],
      "name": "onERC1155BatchReceived",
      "outputs": [
        {
          "internalType": "bytes4",
          "name": "",
          "type": "bytes4"
        }
      ],
      "stateMutability": "nonpayable",
      "type": "function"
    },
    {
      "inputs": [
        {
          "internalType": "address",
          "name": "",
          "type": "address"
        },
        {
          "internalType": "address",
          "name": "",
          "type": "address"
        },
        {
          "internalType": "uint256",
          "name": "",
          "type": "uint256"
        },
        {
          "internalType": "uint256",
          "name": "",
          "type": "uint256"
        },
        {
          "internalType": "bytes",
          "name": "",
          "type": "bytes"
        }
      ],
      "name": "onERC1155Received",
      "outputs": [
        {
          "internalType": "bytes4",
          "name": "",
          "type": "bytes4"
        }
      ],
      "stateMutability": "nonpayable",
      "type": "function"
    },
    {
      "inputs": [],
      "name": "openCase",
      "outputs": [],
      "stateMutability": "nonpayable",
      "type": "function"
    },
    {
      "inputs": [
        {
          "internalType": "uint256",
          "name": "requestId",
          "type": "uint256"
        },
        {
          "internalType": "uint256[]",
          "name": "randomWords",
          "type": "uint256[]"
        }
      ],
      "name": "rawFulfillRandomWords",
      "outputs": [],
      "stateMutability": "nonpayable",
      "type": "function"
    },
    {
      "inputs": [
        {
          "internalType": "address[]",
          "name": "users",
          "type": "address[]"
        }
      ],
      "name": "removeListRacksMembers",
      "outputs": [],
      "stateMutability": "nonpayable",
      "type": "function"
    },
    {
      "inputs": [
        {
          "internalType": "address",
          "name": "user",
          "type": "address"
        }
      ],
      "name": "removeSingleRacksMember",
      "outputs": [],
      "stateMutability": "nonpayable",
      "type": "function"
    },
    {
      "inputs": [
        {
          "internalType": "bytes32",
          "name": "role",
          "type": "bytes32"
        },
        {
          "internalType": "address",
          "name": "account",
          "type": "address"
        }
      ],
      "name": "renounceRole",
      "outputs": [],
      "stateMutability": "nonpayable",
      "type": "function"
    },
    {
      "inputs": [
        {
          "internalType": "bytes32",
          "name": "role",
          "type": "bytes32"
        },
        {
          "internalType": "address",
          "name": "account",
          "type": "address"
        }
      ],
      "name": "revokeRole",
      "outputs": [],
      "stateMutability": "nonpayable",
      "type": "function"
    },
    {
      "inputs": [],
      "name": "s_contractState",
      "outputs": [
        {
          "internalType": "enum RacksItemsv3.ContractState",
          "name": "",
          "type": "uint8"
        }
      ],
      "stateMutability": "view",
      "type": "function"
    },
    {
      "inputs": [],
      "name": "s_randomWord",
      "outputs": [
        {
          "internalType": "uint256",
          "name": "",
          "type": "uint256"
        }
      ],
      "stateMutability": "view",
      "type": "function"
    },
    {
      "inputs": [
        {
          "internalType": "address",
          "name": "from",
          "type": "address"
        },
        {
          "internalType": "address",
          "name": "to",
          "type": "address"
        },
        {
          "internalType": "uint256[]",
          "name": "ids",
          "type": "uint256[]"
        },
        {
          "internalType": "uint256[]",
          "name": "amounts",
          "type": "uint256[]"
        },
        {
          "internalType": "bytes",
          "name": "data",
          "type": "bytes"
        }
      ],
      "name": "safeBatchTransferFrom",
      "outputs": [],
      "stateMutability": "nonpayable",
      "type": "function"
    },
    {
      "inputs": [
        {
          "internalType": "address",
          "name": "from",
          "type": "address"
        },
        {
          "internalType": "address",
          "name": "to",
          "type": "address"
        },
        {
          "internalType": "uint256",
          "name": "id",
          "type": "uint256"
        },
        {
          "internalType": "uint256",
          "name": "amount",
          "type": "uint256"
        },
        {
          "internalType": "bytes",
          "name": "data",
          "type": "bytes"
        }
      ],
      "name": "safeTransferFrom",
      "outputs": [],
      "stateMutability": "nonpayable",
      "type": "function"
    },
    {
      "inputs": [
        {
          "internalType": "address",
          "name": "_newAdmin",
          "type": "address"
        }
      ],
      "name": "setAdmin",
      "outputs": [],
      "stateMutability": "nonpayable",
      "type": "function"
    },
    {
      "inputs": [
        {
          "internalType": "address",
          "name": "operator",
          "type": "address"
        },
        {
          "internalType": "bool",
          "name": "approved",
          "type": "bool"
        }
      ],
      "name": "setApprovalForAll",
      "outputs": [],
      "stateMutability": "nonpayable",
      "type": "function"
    },
    {
      "inputs": [
        {
          "internalType": "uint256",
          "name": "price",
          "type": "uint256"
        }
      ],
      "name": "setCasePrice",
      "outputs": [],
      "stateMutability": "nonpayable",
      "type": "function"
    },
    {
      "inputs": [
        {
          "internalType": "address[]",
          "name": "users",
          "type": "address[]"
        }
      ],
      "name": "setListRacksMembers",
      "outputs": [],
      "stateMutability": "nonpayable",
      "type": "function"
    },
    {
      "inputs": [
        {
          "internalType": "address",
          "name": "user",
          "type": "address"
        }
      ],
      "name": "setSingleRacksMember",
      "outputs": [],
      "stateMutability": "nonpayable",
      "type": "function"
    },
    {
      "inputs": [
        {
          "internalType": "uint256",
          "name": "tokenId",
          "type": "uint256"
        },
        {
          "internalType": "string",
          "name": "_uri",
          "type": "string"
        }
      ],
      "name": "setTokenUri",
      "outputs": [],
      "stateMutability": "nonpayable",
      "type": "function"
    },
    {
      "inputs": [
        {
          "internalType": "uint256",
          "name": "tokenId",
          "type": "uint256"
        }
      ],
      "name": "supplyOfItem",
      "outputs": [
        {
          "internalType": "uint256",
          "name": "",
          "type": "uint256"
        }
      ],
      "stateMutability": "view",
      "type": "function"
    },
    {
      "inputs": [
        {
          "internalType": "bytes4",
          "name": "interfaceId",
          "type": "bytes4"
        }
      ],
      "name": "supportsInterface",
      "outputs": [
        {
          "internalType": "bool",
          "name": "",
          "type": "bool"
        }
      ],
      "stateMutability": "view",
      "type": "function"
    },
    {
      "inputs": [
        {
          "internalType": "uint256",
          "name": "marketItemId",
          "type": "uint256"
        }
      ],
      "name": "unListItem",
      "outputs": [],
      "stateMutability": "nonpayable",
      "type": "function"
    },
    {
      "inputs": [
        {
          "internalType": "uint256",
          "name": "ticketId",
          "type": "uint256"
        }
      ],
      "name": "unListTicket",
      "outputs": [],
      "stateMutability": "nonpayable",
      "type": "function"
    },
    {
      "inputs": [
        {
          "internalType": "uint256",
          "name": "tokenId",
          "type": "uint256"
        }
      ],
      "name": "uri",
      "outputs": [
        {
          "internalType": "string",
          "name": "",
          "type": "string"
        }
      ],
      "stateMutability": "view",
      "type": "function"
    },
    {
      "inputs": [
        {
          "internalType": "address",
          "name": "owner",
          "type": "address"
        }
      ],
      "name": "viewItems",
      "outputs": [
        {
          "internalType": "uint256[]",
          "name": "",
          "type": "uint256[]"
        }
      ],
      "stateMutability": "view",
      "type": "function"
    },
    {
      "inputs": [
        {
          "internalType": "address",
          "name": "wallet",
          "type": "address"
        }
      ],
      "name": "withdrawAllFunds",
      "outputs": [],
      "stateMutability": "nonpayable",
      "type": "function"
    },
    {
      "inputs": [
        {
          "internalType": "address",
          "name": "wallet",
          "type": "address"
        },
        {
          "internalType": "uint256",
          "name": "amount",
          "type": "uint256"
        }
      ],
      "name": "withdrawFunds",
      "outputs": [],
      "stateMutability": "nonpayable",
      "type": "function"
    },
    {
      "stateMutability": "payable",
      "type": "receive"
    }
  ],
  "transactionHash": "0xa7530f319917c6eceb1bf81feebc1871490686dffef140ad6a7ca10fdf13f8bb",
  "args": [
    "0x7a1BaC17Ccc5b313516C5E16fb24f7659aA5ebed",
    "0x4b09e658ed251bcafeebbc69400383d49f344ace09b9576fe248bb02c003fe9f",
    "286",
    "100000",
    "0xDd37cc99D2B01834C005C0d0329a10873D6C5148"
  ],
  "numDeployments": 5,
  "solcInputHash": "d5c86f0cbf388cc20f56edb9d1c74a88",
  "bytecode": "0x610120604052600c805460ff191660011790553480156200001f57600080fd5b5060405162005ed338038062005ed38339810160408190526200004291620001ec565b60408051602081019091526000815285906200005e8162000110565b50606090811b6001600160601b031990811660805295901b90941660a05260c0928352911b6001600160c01b03191660e09081521b6001600160e01b031916610100526004805473ef453154766505feb9dbf0a58e6990fd6eb669696001600160a01b0319918216179091556005805482166001600160a01b0393909316929092179091556006805433921691909117905560006008819055600a556001600b55600c805461ff0019169055620002a9565b80516200012590600290602084019062000129565b5050565b82805462000137906200026c565b90600052602060002090601f0160209004810192826200015b5760008555620001a6565b82601f106200017657805160ff1916838001178555620001a6565b82800160010185558215620001a6579182015b82811115620001a657825182559160200191906001019062000189565b50620001b4929150620001b8565b5090565b5b80821115620001b45760008155600101620001b9565b80516001600160a01b0381168114620001e757600080fd5b919050565b600080600080600060a086880312156200020557600080fd5b6200021086620001cf565b6020870151604088015191965094506001600160401b03811681146200023557600080fd5b606087015190935063ffffffff811681146200025057600080fd5b91506200026060808701620001cf565b90509295509295909350565b600181811c908216806200028157607f821691505b60208210811415620002a357634e487b7160e01b600052602260045260246000fd5b50919050565b60805160601c60a05160601c60c05160e05160c01c6101005160e01c615bb66200031d60003960008181610af80152611b2d0152600081816105f20152611afa01526000818161085d0152611acb01526000818161094c0152611b6801526000818161105401526110af0152615bb66000f3fe6080604052600436106103a55760003560e01c80638ba8b15a116101e7578063c10753291161010d578063e289fcb6116100a0578063f23a6e611161006f578063f23a6e6114610bff578063f242432a14610c2b578063f48c9d3414610c4b578063fd210fd914610c6b57600080fd5b8063e289fcb614610b5c578063e7fb74c714610b76578063e985e9c514610b96578063ebf82e5c14610bdf57600080fd5b8063d547741f116100dc578063d547741f14610ac6578063d757d02714610ae6578063dd006d3114610b1a578063de08f65314610b4757600080fd5b8063c107532914610a43578063c7be7a4914610a63578063c7e05f8d14610a90578063ca90958f14610ab057600080fd5b8063a7b1942411610185578063b63b861211610154578063b63b861214610990578063b85e67af146109bc578063bbcbc2e7146109dc578063bc197c81146109fe57600080fd5b8063a7b19424146108fa578063a7bc77c61461091a578063aebc45501461093a578063b2ead3c71461096e57600080fd5b806391d14854116101c157806391d148541461087f578063976298f3146108c5578063a217fddf14610796578063a22cb465146108da57600080fd5b80638ba8b15a1461080b5780638dc5f45b1461082b5780638e879c8a1461084b57600080fd5b80634a226657116102cc57806367dd74ca1161026a57806375b238fc1161023957806375b238fc146107965780637e420db5146107ab57806384203f4b146107cb57806389165aa9146107eb57600080fd5b806367dd74ca1461070457806367f082b014610724578063704b6c021461074c57806372cf6e341461076c57600080fd5b806354e889f6116102a657806354e889f61461068f57806357f7789e146106af57806361652450146106cf57806361c073d6146106e457600080fd5b80634a2266571461062d5780634e1273f4146106425780635408c3191461066f57600080fd5b806320ba0814116103445780632f2ff15d116103135780632f2ff15d1461058057806332dee40b146105a057806336568abe146105c0578063470cdf97146105e057600080fd5b806320ba0814146104e3578063248a9ca3146105105780632ce38190146105405780632eb2c2d61461056057600080fd5b80630e89341c116103805780630e89341c14610436578063109b8278146104635780631cb0b273146104a35780631fe543e3146104c357600080fd5b8062fdd58e146103b157806301ffc9a7146103e4578063020f19801461041457600080fd5b366103ac57005b600080fd5b3480156103bd57600080fd5b506103d16103cc3660046152e0565b610c81565b6040519081526020015b60405180910390f35b3480156103f057600080fd5b506104046103ff366004615404565b610d2d565b60405190151581526020016103db565b34801561042057600080fd5b5061043461042f3660046154e5565b610d38565b005b34801561044257600080fd5b506104566104513660046153c8565b610f0a565b6040516103db9190615835565b34801561046f57600080fd5b5061048b73ef453154766505feb9dbf0a58e6990fd6eb6696981565b6040516001600160a01b0390911681526020016103db565b3480156104af57600080fd5b506104346104be3660046153c8565b610fac565b3480156104cf57600080fd5b506104346104de366004615457565b611049565b3480156104ef57600080fd5b506103d16104fe3660046153c8565b60009081526011602052604090205490565b34801561051c57600080fd5b506103d161052b3660046153c8565b60009081526003602052604090206001015490565b34801561054c57600080fd5b5061043461055b3660046153c8565b6110ea565b34801561056c57600080fd5b5061043461057b36600461519a565b611156565b34801561058c57600080fd5b5061043461059b3660046153e1565b6111f8565b3480156105ac57600080fd5b506104346105bb36600461514c565b611222565b3480156105cc57600080fd5b506104346105db3660046153e1565b611448565b3480156105ec57600080fd5b506106147f000000000000000000000000000000000000000000000000000000000000000081565b60405167ffffffffffffffff90911681526020016103db565b34801561063957600080fd5b506104346114d0565b34801561064e57600080fd5b5061066261065d366004615347565b611735565b6040516103db91906157cc565b34801561067b57600080fd5b5061043461068a36600461530a565b611873565b34801561069b57600080fd5b506104346106aa36600461514c565b61193a565b3480156106bb57600080fd5b506104346106ca366004615494565b6119bd565b3480156106db57600080fd5b506103d1611aa3565b3480156106f057600080fd5b506104346106ff3660046153c8565b611be4565b34801561071057600080fd5b5061043461071f3660046153c8565b611dfa565b34801561073057600080fd5b50610739600381565b60405161ffff90911681526020016103db565b34801561075857600080fd5b5061043461076736600461514c565b6122a4565b34801561077857600080fd5b50610781600281565b60405163ffffffff90911681526020016103db565b3480156107a257600080fd5b506103d1600081565b3480156107b757600080fd5b506104346107c63660046153c8565b612309565b3480156107d757600080fd5b506104046107e636600461514c565b6124f6565b3480156107f757600080fd5b5061043461080636600461530a565b6125b0565b34801561081757600080fd5b5061043461082636600461514c565b612677565b34801561083757600080fd5b506104346108463660046153c8565b6126f7565b34801561085757600080fd5b506103d17f000000000000000000000000000000000000000000000000000000000000000081565b34801561088b57600080fd5b5061040461089a3660046153e1565b60009182526003602090815260408084206001600160a01b0393909316845291905290205460ff1690565b3480156108d157600080fd5b50600b546103d1565b3480156108e657600080fd5b506104346108f53660046152a9565b61278b565b34801561090657600080fd5b506104346109153660046154e5565b612796565b34801561092657600080fd5b506104346109353660046153c8565b6128c1565b34801561094657600080fd5b5061048b7f000000000000000000000000000000000000000000000000000000000000000081565b34801561097a57600080fd5b50610983612a05565b6040516103db91906156bc565b34801561099c57600080fd5b50600c546109af90610100900460ff1681565b6040516103db919061580d565b3480156109c857600080fd5b506104346109d7366004615507565b612c46565b3480156109e857600080fd5b506109f1612fa7565b6040516103db9190615754565b348015610a0a57600080fd5b50610a2a610a1936600461519a565b63bc197c8160e01b95945050505050565b6040516001600160e01b031990911681526020016103db565b348015610a4f57600080fd5b50610434610a5e3660046152e0565b6131b1565b348015610a6f57600080fd5b50610a83610a7e3660046153c8565b613373565b6040516103db91906158a0565b348015610a9c57600080fd5b506103d1610aab3660046153c8565b613426565b348015610abc57600080fd5b506103d1600b5481565b348015610ad257600080fd5b50610434610ae13660046153e1565b61345d565b348015610af257600080fd5b506107817f000000000000000000000000000000000000000000000000000000000000000081565b348015610b2657600080fd5b50610b3a610b353660046153c8565b613482565b6040516103db9190615848565b348015610b5357600080fd5b50610434613553565b348015610b6857600080fd5b50600c546104049060ff1681565b348015610b8257600080fd5b50610434610b913660046153c8565b6135f4565b348015610ba257600080fd5b50610404610bb1366004615167565b6001600160a01b03918216600090815260016020908152604080832093909416825291909152205460ff1690565b348015610beb57600080fd5b50610434610bfa366004615507565b6139fc565b348015610c0b57600080fd5b50610a2a610c1a366004615244565b63f23a6e6160e01b95945050505050565b348015610c3757600080fd5b50610434610c46366004615244565b613bfd565b348015610c5757600080fd5b50610662610c6636600461514c565b613c98565b348015610c7757600080fd5b506103d1600f5481565b60006001600160a01b038316610d045760405162461bcd60e51b815260206004820152602b60248201527f455243313135353a2062616c616e636520717565727920666f7220746865207a60448201527f65726f206164647265737300000000000000000000000000000000000000000060648201526084015b60405180910390fd5b506000818152602081815260408083206001600160a01b03861684529091529020545b92915050565b6000610d2782613d2f565b6000610d443384610c81565b11610d915760405162461bcd60e51b815260206004820152600f60248201527f4974656d206e6f7420666f756e642e00000000000000000000000000000000006044820152606401610cfb565b6040805160a08101825283815260098054602083019081529282018481523360608401908152600160808501818152600d80549283018155600090815295517fd7b6990105719101dabeb77144f2a3385c8033acd3af97e9423a695e81ad1eb560049093029283015595517fd7b6990105719101dabeb77144f2a3385c8033acd3af97e9423a695e81ad1eb682015591517fd7b6990105719101dabeb77144f2a3385c8033acd3af97e9423a695e81ad1eb7830155517fd7b6990105719101dabeb77144f2a3385c8033acd3af97e9423a695e81ad1eb8909101805494516001600160a01b039092167fffffffffffffffffffffff00000000000000000000000000000000000000000090951694909417600160a01b911515919091021790925581549190610ebf83615a19565b909155505060408051338152602081018490529081018290527f23cba88d6c6f26b62b2cfc32a2cc04fbbde8590188b97cd3590e45af9ac6dd6d906060015b60405180910390a15050565b6000818152601260205260409020805460609190610f27906159b1565b80601f0160208091040260200160405190810160405280929190818152602001828054610f53906159b1565b8015610fa05780601f10610f7557610100808354040283529160200191610fa0565b820191906000526020600020905b815481529060010190602001808311610f8357829003601f168201915b50505050509050919050565b6000610fb83383610c81565b11610fc257600080fd5b610fce33826001613d6d565b6000818152601160205260408120805460019290610fed908490615953565b925050819055506001600760008282546110079190615953565b909155505060408051338152602081018390527f9e90d55d2f1f115ffe1b87372c45f27f6b3a2b5ba392942167be78456189009491015b60405180910390a150565b336001600160a01b037f000000000000000000000000000000000000000000000000000000000000000016146110dc576040517f1cf993f40000000000000000000000000000000000000000000000000000000081523360048201526001600160a01b037f0000000000000000000000000000000000000000000000000000000000000000166024820152604401610cfb565b6110e68282613f21565b5050565b6110f333613f46565b6111495760405162461bcd60e51b815260206004820152602160248201527f55736572206973206e6f7420746865204f776e6572206f7220616e2041646d696044820152603760f91b6064820152608401610cfb565b6111533082613fa5565b50565b6001600160a01b03851633148061117257506111728533610bb1565b6111e45760405162461bcd60e51b815260206004820152603260248201527f455243313135353a207472616e736665722063616c6c6572206973206e6f742060448201527f6f776e6572206e6f7220617070726f76656400000000000000000000000000006064820152608401610cfb565b6111f18585858585614010565b5050505050565b60008281526003602052604090206001015461121381614283565b61121d838361428d565b505050565b6006546001600160a01b0316331461127c5760405162461bcd60e51b815260206004820152601560248201527f55736572206973206e6f7420746865206f776e657200000000000000000000006044820152606401610cfb565b6005546040516370a0823160e01b81523060048201526000916001600160a01b0316906370a082319060240160206040518083038186803b1580156112c057600080fd5b505afa1580156112d4573d6000803e3d6000fd5b505050506040513d601f19601f820116820180604052508101906112f8919061543e565b116113455760405162461bcd60e51b815260206004820152601460248201527f4e6f2066756e647320746f2077697468647261770000000000000000000000006044820152606401610cfb565b6005546040516370a0823160e01b81523060048201526001600160a01b039091169063a9059cbb90839083906370a082319060240160206040518083038186803b15801561139257600080fd5b505afa1580156113a6573d6000803e3d6000fd5b505050506040513d601f19601f820116820180604052508101906113ca919061543e565b6040516001600160e01b031960e085901b1681526001600160a01b0390921660048301526024820152604401602060405180830381600087803b15801561141057600080fd5b505af1158015611424573d6000803e3d6000fd5b505050506040513d601f19601f820116820180604052508101906110e691906153ab565b6001600160a01b03811633146114c65760405162461bcd60e51b815260206004820152602f60248201527f416363657373436f6e74726f6c3a2063616e206f6e6c792072656e6f756e636560448201527f20726f6c657320666f722073656c6600000000000000000000000000000000006064820152608401610cfb565b6110e6828261432f565b6000600c54610100900460ff1660018111156114ee576114ee615a74565b146115615760405162461bcd60e51b815260206004820152602560248201527f436f6e7472616374206973206e6f74206163746976652061742074686973206d60448201527f6f6d656e740000000000000000000000000000000000000000000000000000006064820152608401610cfb565b600554600b546040517f23b872dd00000000000000000000000000000000000000000000000000000000815233600482015230602482015260448101919091526001600160a01b03909116906323b872dd90606401602060405180830381600087803b1580156115d057600080fd5b505af11580156115e4573d6000803e3d6000fd5b505050506040513d601f19601f8201168201806040525081019061160891906153ab565b506000600754611616611aa3565b6116209190615a34565b9050600080805b6008548110156116e15760008181526011602052604081205461164a9085615908565b90508085111561165c578093506116ce565b8192506116693084610c81565b6116ab57600061167a600185615953565b90505b60006116893083610c81565b1115611697578093506116a9565b806116a18161599a565b91505061167d565b505b6116c83033856001604051806020016040528060008152506143b2565b506116e1565b50806116d981615a19565b915050611627565b506116eb3361455d565b600b5460408051338152602081019290925281018290527fea32e37a2618dbb680c93d891742e9e13b30d184822562a0ee3c09290fd42b43906060015b60405180910390a1505050565b606081518351146117ae5760405162461bcd60e51b815260206004820152602960248201527f455243313135353a206163636f756e747320616e6420696473206c656e67746860448201527f206d69736d6174636800000000000000000000000000000000000000000000006064820152608401610cfb565b6000835167ffffffffffffffff8111156117ca576117ca615aa0565b6040519080825280602002602001820160405280156117f3578160200160208202803683370190505b50905060005b845181101561186b5761183e85828151811061181757611817615a8a565b602002602001015185838151811061183157611831615a8a565b6020026020010151610c81565b82828151811061185057611850615a8a565b602090810291909101015261186481615a19565b90506117f9565b509392505050565b61187c33613f46565b6118d25760405162461bcd60e51b815260206004820152602160248201527f55736572206973206e6f7420746865204f776e6572206f7220616e2041646d696044820152603760f91b6064820152608401610cfb565b60005b81518110156110e6576000601060008484815181106118f6576118f6615a8a565b6020908102919091018101516001600160a01b03168252810191909152604001600020805460ff19169115159190911790558061193281615a19565b9150506118d5565b61194333613f46565b6119995760405162461bcd60e51b815260206004820152602160248201527f55736572206973206e6f7420746865204f776e6572206f7220616e2041646d696044820152603760f91b6064820152608401610cfb565b6001600160a01b03166000908152601060205260409020805460ff19166001179055565b6119c633613f46565b611a1c5760405162461bcd60e51b815260206004820152602160248201527f55736572206973206e6f7420746865204f776e6572206f7220616e2041646d696044820152603760f91b6064820152608401610cfb565b60008281526012602052604090208054611a35906159b1565b159050611a845760405162461bcd60e51b815260206004820152601560248201527f43616e206e6f74207365742075726920747769636500000000000000000000006044820152606401610cfb565b6000828152601260209081526040909120825161121d92840190614f31565b6040517f5d3b1d300000000000000000000000000000000000000000000000000000000081527f0000000000000000000000000000000000000000000000000000000000000000600482015267ffffffffffffffff7f00000000000000000000000000000000000000000000000000000000000000001660248201526003604482015263ffffffff7f00000000000000000000000000000000000000000000000000000000000000001660648201526002608482015260009081906001600160a01b037f00000000000000000000000000000000000000000000000000000000000000001690635d3b1d309060a401602060405180830381600087803b158015611bac57600080fd5b505af1158015611bc0573d6000803e3d6000fd5b505050506040513d601f19601f82011682018060405250810190610d27919061543e565b3360009081526015602052604090205460ff16611c435760405162461bcd60e51b815260206004820152601c60248201527f5573657220646964206e6f742073656c6c20616e79205469636b6574000000006044820152606401610cfb565b603c600e8281548110611c5857611c58615a8a565b906000526020600020906007020160020154611c749190615920565b600e8281548110611c8757611c87615a8a565b90600052602060002090600702016005015442611ca49190615953565b11611d175760405162461bcd60e51b815260206004820152602960248201527f4475726174696f6e206f6620746865205469636b6574206973207374696c6c2060448201527f6176616c6961626c6500000000000000000000000000000000000000000000006064820152608401610cfb565b600060146000600e8481548110611d3057611d30615a8a565b60009182526020808320600460079093020191909101546001600160a01b031683528281019390935260409182018120805494151560ff19958616179055338152601483528181208054851660011790556015909252902080549091169055600e80547f5093646a80c0a81f51115fbf5ec8379ecf902ae2ba552c74599cbe844dcb53e3919083908110611dc657611dc6615a8a565b600091825260209182902060079091020160040154604080516001600160a01b03909216825233928201929092520161103e565b611e03336124f6565b15611e0d57600080fd5b336001600160a01b0316600e8281548110611e2a57611e2a615a8a565b60009182526020909120600460079092020101546001600160a01b03161415611ebb5760405162461bcd60e51b815260206004820152602560248201527f596f752063616e206e6f74206275792061207469636b657420746f20796f757260448201527f2073656c660000000000000000000000000000000000000000000000000000006064820152608401610cfb565b600e8181548110611ece57611ece615a8a565b600091825260209091206006600790920201015460ff161515600114611f5c5760405162461bcd60e51b815260206004820152602160248201527f5469636b6574206973206e6f742063757272656e746c79206176616c6961626c60448201527f65000000000000000000000000000000000000000000000000000000000000006064820152608401610cfb565b6000600e8281548110611f7157611f71615a8a565b6000918252602090912060079091020160040154600554600e80546001600160a01b03938416945092909116916323b872dd91339186908110611fb657611fb6615a8a565b906000526020600020906007020160040160009054906101000a90046001600160a01b0316600e8681548110611fee57611fee615a8a565b60009182526020909120600360079092020101546040516001600160e01b031960e086901b1681526001600160a01b0393841660048201529290911660248301526044820152606401602060405180830381600087803b15801561205157600080fd5b505af1158015612065573d6000803e3d6000fd5b505050506040513d601f19601f8201168201806040525081019061208991906153ab565b5042600e838154811061209e5761209e615a8a565b906000526020600020906007020160050181905550600060146000600e85815481106120cc576120cc615a8a565b60009182526020808320600792909202909101600401546001600160a01b031683528201929092526040018120805460ff191692151592909217909155600e805460139183918690811061212257612122615a8a565b60009182526020808320600792909202909101600401546001600160a01b031683528201929092526040018120805460ff191692151592909217909155600e805460019260159290918690811061217b5761217b615a8a565b60009182526020808320600792909202909101600401546001600160a01b031683528201929092526040019020805460ff1916911515919091179055600e8054339190849081106121ce576121ce615a8a565b60009182526020808320600792909202909101600401805473ffffffffffffffffffffffffffffffffffffffff19166001600160a01b03949094169390931790925533808252601490925260409020805460ff19166001179055600e80547f060f7dd92424d6f1af65d2fe9acba5b63d299cc26cd8eb26403ca371bc9fbfbb92859285928490811061226257612262615a8a565b906000526020600020906007020160030154604051610efe94939291909384526001600160a01b03928316602085015291166040830152606082015260800190565b6006546001600160a01b031633146122fe5760405162461bcd60e51b815260206004820152601560248201527f55736572206973206e6f7420746865206f776e657200000000000000000000006044820152606401610cfb565b6111536000826146ae565b612312336124f6565b6123845760405162461bcd60e51b815260206004820152603460248201527f55736572206973206e6f74205261636b734d656d62657273206f7220646f657360448201527f206e6f74206f776e732061204d7243727970746f0000000000000000000000006064820152608401610cfb565b3360009081526013602052604090205460ff166123f25760405162461bcd60e51b815260206004820152602660248201527f55736572206973206e6f742063757272656e746c792073656c6c696e67206120604482015265151a58dad95d60d21b6064820152608401610cfb565b336001600160a01b0316600e828154811061240f5761240f615a8a565b60009182526020909120600460079092020101546001600160a01b0316146124795760405162461bcd60e51b815260206004820181905260248201527f55736572206973206e6f74206f776e6572206f662074686973207469636b65746044820152606401610cfb565b6000600e828154811061248e5761248e615a8a565b6000918252602080832060066007939093020191909101805493151560ff199485161790553380835260138252604092839020805490941690935590519182527f5dbab6b1e9ddd154d6eb51aa5622fb5278ea62a0b5f81d046a945d899490f631910161103e565b600480546040516370a0823160e01b81526001600160a01b0384811693820193909352600092839216906370a082319060240160206040518083038186803b15801561254157600080fd5b505afa158015612555573d6000803e3d6000fd5b505050506040513d601f19601f82011682018060405250810190612579919061543e565b1161258357600080fd5b6001600160a01b03821660009081526010602052604090205460ff166125a857600080fd5b506001919050565b6125b933613f46565b61260f5760405162461bcd60e51b815260206004820152602160248201527f55736572206973206e6f7420746865204f776e6572206f7220616e2041646d696044820152603760f91b6064820152608401610cfb565b60005b81518110156110e65760016010600084848151811061263357612633615a8a565b6020908102919091018101516001600160a01b03168252810191909152604001600020805460ff19169115159190911790558061266f81615a19565b915050612612565b61268033613f46565b6126d65760405162461bcd60e51b815260206004820152602160248201527f55736572206973206e6f7420746865204f776e6572206f7220616e2041646d696044820152603760f91b6064820152608401610cfb565b6001600160a01b03166000908152601060205260409020805460ff19169055565b61270033613f46565b6127565760405162461bcd60e51b815260206004820152602160248201527f55736572206973206e6f7420746865204f776e6572206f7220616e2041646d696044820152603760f91b6064820152608401610cfb565b600b8190556040518181527f06cd74aabc11982a85b554df4d7833623303656fe69bed4db1b0cb3245feebe39060200161103e565b6110e63383836146b8565b336001600160a01b0316600d83815481106127b3576127b3615a8a565b60009182526020909120600360049092020101546001600160a01b0316146128295760405162461bcd60e51b815260206004820152602360248201527f596f7520617265206e6f7420746865206f776e6572206f66207468697320697460448201526232b69760e91b6064820152608401610cfb565b6000600d838154811061283e5761283e615a8a565b906000526020600020906004020160020154905081600d848154811061286657612866615a8a565b600091825260209182902060026004909202010191909155604080513381529182018590528101829052606081018390527fb141d00f22a670547caacc412e6489d8edaba6a840df558118363ce1a40d6ed290608001611728565b336001600160a01b0316600d82815481106128de576128de615a8a565b60009182526020909120600360049092020101546001600160a01b0316146129545760405162461bcd60e51b815260206004820152602360248201527f596f7520617265206e6f7420746865206f776e6572206f66207468697320697460448201526232b69760e91b6064820152608401610cfb565b6129713033836001604051806020016040528060008152506143b2565b6000600d828154811061298657612986615a8a565b60009182526020918290206003600490920201018054921515600160a01b027fffffffffffffffffffffff00ffffffffffffffffffffffffffffffffffffffff90931692909217909155604080513381529182018390527fc9cedcca3d85d6009a562a9e70071f6288adabda9ba7f059589165e75c9cf404910161103e565b60606000805b600e54811015612ac5576000600e8281548110612a2a57612a2a615a8a565b60009182526020918290206040805160e081018252600790930290910180548352600180820154948401949094526002810154918301919091526003810154606083015260048101546001600160a01b03166080830152600581015460a08301526006015460ff16151560c082018190529092501415612ab257612aaf600184615908565b92505b5080612abd81615a19565b915050612a0b565b5060008167ffffffffffffffff811115612ae157612ae1615aa0565b604051908082528060200260200182016040528015612b5d57816020015b612b4a6040518060e001604052806000815260200160008152602001600081526020016000815260200160006001600160a01b03168152602001600081526020016000151581525090565b815260200190600190039081612aff5790505b5090506000805b600e54811015612c3d576000600e8281548110612b8357612b83615a8a565b60009182526020918290206040805160e081018252600790930290910180548352600180820154948401949094526002810154918301919091526003810154606083015260048101546001600160a01b03166080830152600581015460a08301526006015460ff16151560c082018190529092501415612c2a5780848481518110612c1057612c10615a8a565b60200260200101819052508280612c2690615a19565b9350505b5080612c3581615a19565b915050612b64565b50909392505050565b612c4f336124f6565b612cc15760405162461bcd60e51b815260206004820152603460248201527f55736572206973206e6f74205261636b734d656d62657273206f7220646f657360448201527f206e6f74206f776e732061204d7243727970746f0000000000000000000000006064820152608401610cfb565b3360009081526013602052604090205460ff1615612d475760405162461bcd60e51b815260206004820152602a60248201527f5573657220697320616c72656164792063757272656e746c792073656c6c696e60448201527f672061205469636b6574000000000000000000000000000000000000000000006064820152608401610cfb565b3360009081526014602052604090205460ff16612da65760405162461bcd60e51b815260206004820152601960248201527f5573657220686173207469636b6574206176616c6961626c65000000000000006044820152606401610cfb565b6040805160e081018252600a8054825260208201868152928201858152606083018581523360808501908152600060a08601818152600160c08801818152600e80549283018155845297517fbb7b4a454dc3493923482f07822329ed19e8244eff582cc204f8554c3620c3fd60079092029182015597517fbb7b4a454dc3493923482f07822329ed19e8244eff582cc204f8554c3620c3fe89015593517fbb7b4a454dc3493923482f07822329ed19e8244eff582cc204f8554c3620c3ff88015591517fbb7b4a454dc3493923482f07822329ed19e8244eff582cc204f8554c3620c400870155517fbb7b4a454dc3493923482f07822329ed19e8244eff582cc204f8554c3620c4018601805473ffffffffffffffffffffffffffffffffffffffff19166001600160a01b0390921691909117905590517fbb7b4a454dc3493923482f07822329ed19e8244eff582cc204f8554c3620c40285015591517fbb7b4a454dc3493923482f07822329ed19e8244eff582cc204f8554c3620c403909301805460ff19169315159390931790925581549190612f4483615a19565b909155505033600081815260136020908152604091829020805460ff19166001179055815192835282018590528101839052606081018290527f07814713aba2e13eb5f2470225f7395d33fad1452b70f8427dae73e4d3a5934490608001611728565b60606000805b600d54811015613057576000600d8281548110612fcc57612fcc615a8a565b60009182526020918290206040805160a08101825260049093029091018054835260018082015494840194909452600281015491830191909152600301546001600160a01b038116606083015260ff600160a01b90910416151560808201819052909250141561304457613041600184615908565b92505b508061304f81615a19565b915050612fad565b5060008167ffffffffffffffff81111561307357613073615aa0565b6040519080825280602002602001820160405280156130e157816020015b6130ce6040518060a0016040528060008152602001600081526020016000815260200160006001600160a01b031681526020016000151581525090565b8152602001906001900390816130915790505b5090506000805b600d54811015612c3d576000600d828154811061310757613107615a8a565b60009182526020918290206040805160a08101825260049093029091018054835260018082015494840194909452600281015491830191909152600301546001600160a01b038116606083015260ff600160a01b90910416151560808201819052909250141561319e578084848151811061318457613184615a8a565b6020026020010181905250828061319a90615a19565b9350505b50806131a981615a19565b9150506130e8565b6006546001600160a01b0316331461320b5760405162461bcd60e51b815260206004820152601560248201527f55736572206973206e6f7420746865206f776e657200000000000000000000006044820152606401610cfb565b6005546040516370a0823160e01b81523060048201526000916001600160a01b0316906370a082319060240160206040518083038186803b15801561324f57600080fd5b505afa158015613263573d6000803e3d6000fd5b505050506040513d601f19601f82011682018060405250810190613287919061543e565b116132d45760405162461bcd60e51b815260206004820152601460248201527f4e6f2066756e647320746f2077697468647261770000000000000000000000006044820152606401610cfb565b6005546040517fa9059cbb0000000000000000000000000000000000000000000000000000000081526001600160a01b038481166004830152602482018490529091169063a9059cbb90604401602060405180830381600087803b15801561333b57600080fd5b505af115801561334f573d6000803e3d6000fd5b505050506040513d601f19601f8201168201806040525081019061121d91906153ab565b6133b06040518060a0016040528060008152602001600081526020016000815260200160006001600160a01b031681526020016000151581525090565b600d82815481106133c3576133c3615a8a565b60009182526020918290206040805160a0810182526004909302909101805483526001810154938301939093526002830154908201526003909101546001600160a01b038116606083015260ff600160a01b909104161515608082015292915050565b6000613431826147ad565b61343a57600080fd5b6000828152601160205260408120546007546134569190615920565b9392505050565b60008281526003602052604090206001015461347881614283565b61121d838361432f565b6134cd6040518060e001604052806000815260200160008152602001600081526020016000815260200160006001600160a01b03168152602001600081526020016000151581525090565b600e82815481106134e0576134e0615a8a565b60009182526020918290206040805160e0810182526007909302909101805483526001810154938301939093526002830154908201526003820154606082015260048201546001600160a01b03166080820152600582015460a082015260069091015460ff16151560c082015292915050565b61355c33613f46565b6135b25760405162461bcd60e51b815260206004820152602160248201527f55736572206973206e6f7420746865204f776e6572206f7220616e2041646d696044820152603760f91b6064820152608401610cfb565b6000600c54610100900460ff1660018111156135d0576135d0615a74565b14156135e757600c805461ff001916610100179055565b600c805461ff0019169055565b600d818154811061360757613607615a8a565b60009182526020909120600490910201600301546001600160a01b03163314156136995760405162461bcd60e51b815260206004820152602360248201527f596f752063616e206e6f742062757920616e206974656d20746f20796f75727360448201527f656c6600000000000000000000000000000000000000000000000000000000006064820152608401610cfb565b600d81815481106136ac576136ac615a8a565b906000526020600020906004020160030160149054906101000a900460ff16151560011515146137445760405162461bcd60e51b815260206004820152602160248201527f54686973206974656d206973206e6f74206f6e2073616c6520616e796d6f726560448201527f2e000000000000000000000000000000000000000000000000000000000000006064820152608401610cfb565b600554600d80546001600160a01b03909216916323b872dd9133918590811061376f5761376f615a8a565b906000526020600020906004020160030160009054906101000a90046001600160a01b0316600d85815481106137a7576137a7615a8a565b9060005260206000209060040201600201546040518463ffffffff1660e01b81526004016137f6939291906001600160a01b039384168152919092166020820152604081019190915260600190565b602060405180830381600087803b15801561381057600080fd5b505af1158015613824573d6000803e3d6000fd5b505050506040513d601f19601f8201168201806040525081019061384891906153ab565b506138c1600d828154811061385f5761385f615a8a565b906000526020600020906004020160030160009054906101000a90046001600160a01b031633600d848154811061389857613898615a8a565b9060005260206000209060040201600001546001604051806020016040528060008152506143b2565b6000600d82815481106138d6576138d6615a8a565b906000526020600020906004020160030160009054906101000a90046001600160a01b0316905033600d838154811061391157613911615a8a565b906000526020600020906004020160030160006101000a8154816001600160a01b0302191690836001600160a01b031602179055506000600d838154811061395b5761395b615a8a565b906000526020600020906004020160030160146101000a81548160ff0219169083151502179055507f642067ff529c9b5b1162502fc8e8a3a91dda56e126a84f2fe38d341236231a82338284600d86815481106139ba576139ba615a8a565b600091825260209182902060026004909202010154604080516001600160a01b0396871681529590941691850191909152918301526060820152608001610efe565b613a05336124f6565b613a775760405162461bcd60e51b815260206004820152603460248201527f55736572206973206e6f74205261636b734d656d62657273206f7220646f657360448201527f206e6f74206f776e732061204d7243727970746f0000000000000000000000006064820152608401610cfb565b3360009081526013602052604090205460ff16613ae55760405162461bcd60e51b815260206004820152602660248201527f55736572206973206e6f742063757272656e746c792073656c6c696e67206120604482015265151a58dad95d60d21b6064820152608401610cfb565b336001600160a01b0316600e8481548110613b0257613b02615a8a565b60009182526020909120600460079092020101546001600160a01b031614613b6c5760405162461bcd60e51b815260206004820181905260248201527f55736572206973206e6f74206f776e6572206f662074686973207469636b65746044820152606401610cfb565b80600e8481548110613b8057613b80615a8a565b90600052602060002090600702016003018190555081600e8481548110613ba957613ba9615a8a565b6000918252602091829020600160079092020101919091556040805133815291820184905281018290527f4dfa55e7e1af9cb25343bfcd39c4bcb1f066d75ebe9b67988cf1496f06dedfef90606001611728565b6001600160a01b038516331480613c195750613c198533610bb1565b613c8b5760405162461bcd60e51b815260206004820152602960248201527f455243313135353a2063616c6c6572206973206e6f74206f776e6572206e6f7260448201527f20617070726f76656400000000000000000000000000000000000000000000006064820152608401610cfb565b6111f185858585856143b2565b6060600060085467ffffffffffffffff811115613cb757613cb7615aa0565b604051908082528060200260200182016040528015613ce0578160200160208202803683370190505b50905060005b8151811015613d2857613cf98482610c81565b828281518110613d0b57613d0b615a8a565b602090810291909101015280613d2081615a19565b915050613ce6565b5092915050565b60006001600160e01b031982167f7965db0b000000000000000000000000000000000000000000000000000000001480610d275750610d27826147c5565b6001600160a01b038316613de95760405162461bcd60e51b815260206004820152602360248201527f455243313135353a206275726e2066726f6d20746865207a65726f206164647260448201527f65737300000000000000000000000000000000000000000000000000000000006064820152608401610cfb565b336000613df584614803565b90506000613e0284614803565b60408051602080820183526000918290528882528181528282206001600160a01b038b1683529052205490915084811015613ea45760405162461bcd60e51b8152602060048201526024808201527f455243313135353a206275726e20616d6f756e7420657863656564732062616c60448201527f616e6365000000000000000000000000000000000000000000000000000000006064820152608401610cfb565b6000868152602081815260408083206001600160a01b038b81168086529184528285208a8703905582518b81529384018a90529092908816917fc3d58168c5ae7397731d063d5bbf3d657854427343f4c083240f7aacaa2d0f62910160405180910390a46040805160208101909152600090525b50505050505050565b80600081518110613f3457613f34615a8a565b6020026020010151600f819055505050565b6006546000906001600160a01b0383811691161480613f9c57506001600160a01b03821660009081527f3617319a054d772f909f7c479a2cebe5066e836a939412e32403c99029b92eff602052604090205460ff165b6125a857600080fd5b613fc282600854836040518060200160405280600081525061484e565b613fdb6008548260009182526011602052604090912055565b8060076000828254613fed9190615908565b925050819055506001600860008282546140079190615908565b90915550505050565b81518351146140875760405162461bcd60e51b815260206004820152602860248201527f455243313135353a2069647320616e6420616d6f756e7473206c656e6774682060448201527f6d69736d617463680000000000000000000000000000000000000000000000006064820152608401610cfb565b6001600160a01b0384166140eb5760405162461bcd60e51b815260206004820152602560248201527f455243313135353a207472616e7366657220746f20746865207a65726f206164604482015264647265737360d81b6064820152608401610cfb565b3360005b845181101561421557600085828151811061410c5761410c615a8a565b60200260200101519050600085838151811061412a5761412a615a8a565b602090810291909101810151600084815280835260408082206001600160a01b038e1683529093529190912054909150818110156141bd5760405162461bcd60e51b815260206004820152602a60248201527f455243313135353a20696e73756666696369656e742062616c616e636520666f60448201526939103a3930b739b332b960b11b6064820152608401610cfb565b6000838152602081815260408083206001600160a01b038e8116855292528083208585039055908b168252812080548492906141fa908490615908565b925050819055505050508061420e90615a19565b90506140ef565b50846001600160a01b0316866001600160a01b0316826001600160a01b03167f4a39dc06d4c0dbc64b70af90fd698a233a518aa5d07e595d983b8c0526c8f7fb87876040516142659291906157df565b60405180910390a461427b818787878787614975565b505050505050565b6111538133614b2a565b60008281526003602090815260408083206001600160a01b038516845290915290205460ff166110e65760008281526003602090815260408083206001600160a01b03851684529091529020805460ff191660011790556142eb3390565b6001600160a01b0316816001600160a01b0316837f2f8788117e7eff1d82e926ec794901d17c78024a50270940304540a733656f0d60405160405180910390a45050565b60008281526003602090815260408083206001600160a01b038516845290915290205460ff16156110e65760008281526003602090815260408083206001600160a01b0385168085529252808320805460ff1916905551339285917ff6391f5c32d9c69d2a47ea670b442974b53935d1edc7fd64eb21e047a839171b9190a45050565b6001600160a01b0384166144165760405162461bcd60e51b815260206004820152602560248201527f455243313135353a207472616e7366657220746f20746865207a65726f206164604482015264647265737360d81b6064820152608401610cfb565b33600061442285614803565b9050600061442f85614803565b90506000868152602081815260408083206001600160a01b038c168452909152902054858110156144b55760405162461bcd60e51b815260206004820152602a60248201527f455243313135353a20696e73756666696369656e742062616c616e636520666f60448201526939103a3930b739b332b960b11b6064820152608401610cfb565b6000878152602081815260408083206001600160a01b038d8116855292528083208985039055908a168252812080548892906144f2908490615908565b909155505060408051888152602081018890526001600160a01b03808b16928c821692918816917fc3d58168c5ae7397731d063d5bbf3d657854427343f4c083240f7aacaa2d0f62910160405180910390a4614552848a8a8a8a8a614baa565b505050505050505050565b60005b600e548110156110e657816001600160a01b0316600e828154811061458757614587615a8a565b60009182526020909120600460079092020101546001600160a01b0316141561469c57600e81815481106145bd576145bd615a8a565b90600052602060002090600702016001015460011461461157600e81815481106145e9576145e9615a8a565b6000918252602082206001600790920201018054916146078361599a565b919050555061469c565b600e818154811061462457614624615a8a565b6000918252602082206001600790920201018054916146428361599a565b91905055506000600e828154811061465c5761465c615a8a565b60009182526020808320600660079093020191909101805493151560ff199485161790556001600160a01b03851682526014905260409020805490911690555b806146a681615a19565b915050614560565b6110e6828261428d565b816001600160a01b0316836001600160a01b031614156147405760405162461bcd60e51b815260206004820152602960248201527f455243313135353a2073657474696e6720617070726f76616c2073746174757360448201527f20666f722073656c6600000000000000000000000000000000000000000000006064820152608401610cfb565b6001600160a01b03838116600081815260016020908152604080832094871680845294825291829020805460ff191686151590811790915591519182527f17307eab39ab6107e8899845ad3d59bd9653f200f220920489ca2b5937696c31910160405180910390a3505050565b6000818152601160205260408120546125a857600080fd5b60006001600160e01b031982167f4e2312e0000000000000000000000000000000000000000000000000000000001480610d275750610d2782614cb5565b6040805160018082528183019092526060916000919060208083019080368337019050509050828160008151811061483d5761483d615a8a565b602090810291909101015292915050565b6001600160a01b0384166148ca5760405162461bcd60e51b815260206004820152602160248201527f455243313135353a206d696e7420746f20746865207a65726f2061646472657360448201527f73000000000000000000000000000000000000000000000000000000000000006064820152608401610cfb565b3360006148d685614803565b905060006148e385614803565b90506000868152602081815260408083206001600160a01b038b16845290915281208054879290614915908490615908565b909155505060408051878152602081018790526001600160a01b03808a1692600092918716917fc3d58168c5ae7397731d063d5bbf3d657854427343f4c083240f7aacaa2d0f62910160405180910390a4613f1883600089898989614baa565b6001600160a01b0384163b1561427b5760405163bc197c8160e01b81526001600160a01b0385169063bc197c81906149b9908990899088908890889060040161561b565b602060405180830381600087803b1580156149d357600080fd5b505af1925050508015614a03575060408051601f3d908101601f19168201909252614a0091810190615421565b60015b614ab957614a0f615ab6565b806308c379a01415614a495750614a24615ad2565b80614a2f5750614a4b565b8060405162461bcd60e51b8152600401610cfb9190615835565b505b60405162461bcd60e51b815260206004820152603460248201527f455243313135353a207472616e7366657220746f206e6f6e204552433131353560448201527f526563656976657220696d706c656d656e7465720000000000000000000000006064820152608401610cfb565b6001600160e01b0319811663bc197c8160e01b14613f185760405162461bcd60e51b815260206004820152602860248201527f455243313135353a204552433131353552656365697665722072656a656374656044820152676420746f6b656e7360c01b6064820152608401610cfb565b60008281526003602090815260408083206001600160a01b038516845290915290205460ff166110e657614b68816001600160a01b03166014614d50565b614b73836020614d50565b604051602001614b8492919061559a565b60408051601f198184030181529082905262461bcd60e51b8252610cfb91600401615835565b6001600160a01b0384163b1561427b5760405163f23a6e6160e01b81526001600160a01b0385169063f23a6e6190614bee9089908990889088908890600401615679565b602060405180830381600087803b158015614c0857600080fd5b505af1925050508015614c38575060408051601f3d908101601f19168201909252614c3591810190615421565b60015b614c4457614a0f615ab6565b6001600160e01b0319811663f23a6e6160e01b14613f185760405162461bcd60e51b815260206004820152602860248201527f455243313135353a204552433131353552656365697665722072656a656374656044820152676420746f6b656e7360c01b6064820152608401610cfb565b60006001600160e01b031982167fd9b67a26000000000000000000000000000000000000000000000000000000001480614d1857506001600160e01b031982167f0e89341c00000000000000000000000000000000000000000000000000000000145b80610d2757507f01ffc9a7000000000000000000000000000000000000000000000000000000006001600160e01b0319831614610d27565b60606000614d5f836002615934565b614d6a906002615908565b67ffffffffffffffff811115614d8257614d82615aa0565b6040519080825280601f01601f191660200182016040528015614dac576020820181803683370190505b5090507f300000000000000000000000000000000000000000000000000000000000000081600081518110614de357614de3615a8a565b60200101906001600160f81b031916908160001a9053507f780000000000000000000000000000000000000000000000000000000000000081600181518110614e2e57614e2e615a8a565b60200101906001600160f81b031916908160001a9053506000614e52846002615934565b614e5d906001615908565b90505b6001811115614ee2577f303132333435363738396162636465660000000000000000000000000000000085600f1660108110614e9e57614e9e615a8a565b1a60f81b828281518110614eb457614eb4615a8a565b60200101906001600160f81b031916908160001a90535060049490941c93614edb8161599a565b9050614e60565b5083156134565760405162461bcd60e51b815260206004820181905260248201527f537472696e67733a20686578206c656e67746820696e73756666696369656e746044820152606401610cfb565b828054614f3d906159b1565b90600052602060002090601f016020900481019282614f5f5760008555614fa5565b82601f10614f7857805160ff1916838001178555614fa5565b82800160010185558215614fa5579182015b82811115614fa5578251825591602001919060010190614f8a565b50614fb1929150614fb5565b5090565b5b80821115614fb15760008155600101614fb6565b600067ffffffffffffffff831115614fe457614fe4615aa0565b604051614ffb601f8501601f1916602001826159ec565b80915083815284848401111561501057600080fd5b83836020830137600060208583010152509392505050565b80356001600160a01b038116811461503f57600080fd5b919050565b600082601f83011261505557600080fd5b81356020615062826158e4565b60405161506f82826159ec565b8381528281019150858301600585901b8701840188101561508f57600080fd5b60005b858110156150b5576150a382615028565b84529284019290840190600101615092565b5090979650505050505050565b600082601f8301126150d357600080fd5b813560206150e0826158e4565b6040516150ed82826159ec565b8381528281019150858301600585901b8701840188101561510d57600080fd5b60005b858110156150b557813584529284019290840190600101615110565b600082601f83011261513d57600080fd5b61345683833560208501614fca565b60006020828403121561515e57600080fd5b61345682615028565b6000806040838503121561517a57600080fd5b61518383615028565b915061519160208401615028565b90509250929050565b600080600080600060a086880312156151b257600080fd5b6151bb86615028565b94506151c960208701615028565b9350604086013567ffffffffffffffff808211156151e657600080fd5b6151f289838a016150c2565b9450606088013591508082111561520857600080fd5b61521489838a016150c2565b9350608088013591508082111561522a57600080fd5b506152378882890161512c565b9150509295509295909350565b600080600080600060a0868803121561525c57600080fd5b61526586615028565b945061527360208701615028565b93506040860135925060608601359150608086013567ffffffffffffffff81111561529d57600080fd5b6152378882890161512c565b600080604083850312156152bc57600080fd5b6152c583615028565b915060208301356152d581615b5c565b809150509250929050565b600080604083850312156152f357600080fd5b6152fc83615028565b946020939093013593505050565b60006020828403121561531c57600080fd5b813567ffffffffffffffff81111561533357600080fd5b61533f84828501615044565b949350505050565b6000806040838503121561535a57600080fd5b823567ffffffffffffffff8082111561537257600080fd5b61537e86838701615044565b9350602085013591508082111561539457600080fd5b506153a1858286016150c2565b9150509250929050565b6000602082840312156153bd57600080fd5b815161345681615b5c565b6000602082840312156153da57600080fd5b5035919050565b600080604083850312156153f457600080fd5b8235915061519160208401615028565b60006020828403121561541657600080fd5b813561345681615b6a565b60006020828403121561543357600080fd5b815161345681615b6a565b60006020828403121561545057600080fd5b5051919050565b6000806040838503121561546a57600080fd5b82359150602083013567ffffffffffffffff81111561548857600080fd5b6153a1858286016150c2565b600080604083850312156154a757600080fd5b82359150602083013567ffffffffffffffff8111156154c557600080fd5b8301601f810185136154d657600080fd5b6153a185823560208401614fca565b600080604083850312156154f857600080fd5b50508035926020909101359150565b60008060006060848603121561551c57600080fd5b505081359360208301359350604090920135919050565b600081518084526020808501945080840160005b8381101561556357815187529582019590820190600101615547565b509495945050505050565b6000815180845261558681602086016020860161596a565b601f01601f19169290920160200192915050565b7f416363657373436f6e74726f6c3a206163636f756e74200000000000000000008152600083516155d281601785016020880161596a565b7f206973206d697373696e6720726f6c6520000000000000000000000000000000601791840191820152835161560f81602884016020880161596a565b01602801949350505050565b60006001600160a01b03808816835280871660208401525060a0604083015261564760a0830186615533565b82810360608401526156598186615533565b9050828103608084015261566d818561556e565b98975050505050505050565b60006001600160a01b03808816835280871660208401525084604083015283606083015260a060808301526156b160a083018461556e565b979650505050505050565b6020808252825182820181905260009190848201906040850190845b8181101561574857615735838551805182526020810151602083015260408101516040830152606081015160608301526001600160a01b03608082015116608083015260a081015160a083015260c0810151151560c08301525050565b9284019260e092909201916001016156d8565b50909695505050505050565b6020808252825182820181905260009190848201906040850190845b81811015615748576157b98385518051825260208101516020830152604081015160408301526001600160a01b0360608201511660608301526080810151151560808301525050565b9284019260a09290920191600101615770565b6020815260006134566020830184615533565b6040815260006157f26040830185615533565b82810360208401526158048185615533565b95945050505050565b602081016002831061582f57634e487b7160e01b600052602160045260246000fd5b91905290565b602081526000613456602083018461556e565b60e08101610d278284805182526020810151602083015260408101516040830152606081015160608301526001600160a01b03608082015116608083015260a081015160a083015260c0810151151560c08301525050565b60a08101610d2782848051825260208101516020830152604081015160408301526001600160a01b0360608201511660608301526080810151151560808301525050565b600067ffffffffffffffff8211156158fe576158fe615aa0565b5060051b60200190565b6000821982111561591b5761591b615a48565b500190565b60008261592f5761592f615a5e565b500490565b600081600019048311821515161561594e5761594e615a48565b500290565b60008282101561596557615965615a48565b500390565b60005b8381101561598557818101518382015260200161596d565b83811115615994576000848401525b50505050565b6000816159a9576159a9615a48565b506000190190565b600181811c908216806159c557607f821691505b602082108114156159e657634e487b7160e01b600052602260045260246000fd5b50919050565b601f8201601f1916810167ffffffffffffffff81118282101715615a1257615a12615aa0565b6040525050565b6000600019821415615a2d57615a2d615a48565b5060010190565b600082615a4357615a43615a5e565b500690565b634e487b7160e01b600052601160045260246000fd5b634e487b7160e01b600052601260045260246000fd5b634e487b7160e01b600052602160045260246000fd5b634e487b7160e01b600052603260045260246000fd5b634e487b7160e01b600052604160045260246000fd5b600060033d1115615acf5760046000803e5060005160e01c5b90565b600060443d1015615ae05790565b6040516003193d81016004833e81513d67ffffffffffffffff8160248401118184111715615b1057505050505090565b8285019150815181811115615b285750505050505090565b843d8701016020828501011115615b425750505050505090565b615b51602082860101876159ec565b509095945050505050565b801515811461115357600080fd5b6001600160e01b03198116811461115357600080fdfea26469706673582212202142ef98e966cfd4e035aa9927476ffa713d7cc10b9502253314931c1140153764736f6c63430008070033",
  "devdoc": {
    "kind": "dev",
    "methods": {
      "_randomNumber()": {
        "details": "Uses Chainlink VRF -> call requestRandomWords method by using o_vrfCoordinator object set as internal because is going to be called only when a case is opened"
      },
      "_rarityOfItem(uint256)": {
        "details": "- Requires that tokenId exists (item is listed) - chance is calculated as item supply divided by total items supply"
      },
      "balanceOf(address,uint256)": {
        "details": "See {IERC1155-balanceOf}. Requirements: - `account` cannot be the zero address."
      },
      "balanceOfBatch(address[],uint256[])": {
        "details": "See {IERC1155-balanceOfBatch}. Requirements: - `accounts` and `ids` must have the same length."
      },
      "buyItem(uint256)": {
        "details": "- Needs to check that user is not trying to buy its own item - Needs to check that item was not sold before - Needs to transfer tokens from buyer to seller - Needs to transfer item from seller to buyer - Update sold attribute from array - Emit event "
      },
      "buyTicket(uint256)": {
        "details": "- Should check that user is NOT Vip -> does make sense that a VIP user buys a ticket - Should check that user has a listed ticket - Transfer RacksToken from buyer to seller - Update mappings variables - Emit event"
      },
      "changeItemPrice(uint256,uint256)": {
        "details": "- Needs to check that user is trying to unlist an item he owns - Needs to update price status - Emit event"
      },
      "changeTicketConditions(uint256,uint256,uint256)": {
        "details": "- Should check that user is Vip (Modifier) - Should check that user has a listed ticket - Emit event"
      },
      "claimTicketBack(uint256)": {
        "details": "- Check that claimer is lending a Ticket - Check that duration of the Ticket is over -> block.timestamp is in seconds and duration in hours  -> transform duration into seconds  - Update mappings - Emit event"
      },
      "flipContractState()": {
        "details": "Only callable by the Owner or an admin"
      },
      "getRoleAdmin(bytes32)": {
        "details": "Returns the admin role that controls `role`. See {grantRole} and {revokeRole}. To change a role's admin, use {_setRoleAdmin}."
      },
      "grantRole(bytes32,address)": {
        "details": "Grants `role` to `account`. If `account` had not been already granted `role`, emits a {RoleGranted} event. Requirements: - the caller must have ``role``'s admin role."
      },
      "hasRole(bytes32,address)": {
        "details": "Returns `true` if `account` has been granted `role`."
      },
      "isApprovedForAll(address,address)": {
        "details": "See {IERC1155-isApprovedForAll}."
      },
      "isVip(address)": {
        "details": "- Require users MrCrypro's balance is > ' - Require that RacksMembers user's attribute is true"
      },
      "listItem(uint256)": {
        "details": "Only callable by the Owner"
      },
      "listItemOnMarket(uint256,uint256)": {
        "details": "- Needs to check balanceOf item trying to be sold - Needs to transfer item  - Update marketItems array - Emit event "
      },
      "listTicket(uint256,uint256,uint256)": {
        "details": "- Should check that user is Vip (Modifier) - Should check that user is NOT currently selling another ticket -> Users can only sell 1 ticket at the same time - Include ticket on array - Increase s_ticketCount - Set mapping to true - Emit event"
      },
      "openCase()": {
        "details": " - Should check that user owns a Ticket -> modifier - Should check that msg.value is bigger than casePrice - Should transfer msg.value to the contract - Internally calls randomNumber()  - Apply modular function for the randomNumber to be between 0 and totalSupply of items - Should choose an item"
      },
      "removeListRacksMembers(address[])": {
        "details": "Only callable by the Owner Require comented because maybe owner or admin are trying to set as false some address that was already set as false"
      },
      "removeSingleRacksMember(address)": {
        "details": "Only callable by the Owner Require comented because maybe owner or admin are trying to set as false some address that was already set as false"
      },
      "renounceRole(bytes32,address)": {
        "details": "Revokes `role` from the calling account. Roles are often managed via {grantRole} and {revokeRole}: this function's purpose is to provide a mechanism for accounts to lose their privileges if they are compromised (such as when a trusted device is misplaced). If the calling account had been revoked `role`, emits a {RoleRevoked} event. Requirements: - the caller must be `account`."
      },
      "revokeRole(bytes32,address)": {
        "details": "Revokes `role` from `account`. If `account` had been granted `role`, emits a {RoleRevoked} event. Requirements: - the caller must have ``role``'s admin role."
      },
      "safeBatchTransferFrom(address,address,uint256[],uint256[],bytes)": {
        "details": "See {IERC1155-safeBatchTransferFrom}."
      },
      "safeTransferFrom(address,address,uint256,uint256,bytes)": {
        "details": "See {IERC1155-safeTransferFrom}."
      },
      "setAdmin(address)": {
        "details": "Only callable by the Owner"
      },
      "setApprovalForAll(address,bool)": {
        "details": "See {IERC1155-setApprovalForAll}."
      },
      "setCasePrice(uint256)": {
        "details": "Only callable by the Owner"
      },
      "setListRacksMembers(address[])": {
        "details": "Only callable by the Owner Require comented because maybe owner or admin are trying to set as true some address that was already set as true"
      },
      "setSingleRacksMember(address)": {
        "details": "Only callable by the Owner Require comented because maybe owner or admin are trying to set as true some address that was already set as true"
      },
      "setTokenUri(uint256,string)": {
        "details": "- Only Owner or Admins can call this function - Need to specify:  - tokenId: specific item you want to set its uri  - uri: uri wanted to be set"
      },
      "supplyOfItem(uint256)": {
        "details": "- Getter of s_maxSupply mapping"
      },
      "unListItem(uint256)": {
        "details": "- Needs to check that user is trying to unlist an item he owns - Needs to transfer item from contract to user address - Update item's sold variable - Emit event"
      },
      "unListTicket(uint256)": {
        "details": "- Should check that user is Vip (Modifier) - Should check that user has a listed ticket - Emit event"
      },
      "uri(uint256)": {
        "details": "- returns information stored in s_uris mapping - Any user can check this information"
      },
      "viewItems(address)": {
        "details": "Copy users inventory in an empty array and returns it"
      },
      "withdrawAllFunds(address)": {
        "details": " - Only owner is able to call this function - Should check that there are avaliable funds to withdraw - Should specify the wallet address you want to transfer the funds to"
      },
      "withdrawFunds(address,uint256)": {
        "details": " - Only owner is able to call this function - Should check that there are avaliable funds to withdraw - Should specify the wallet address you want to transfer the funds to - Should specify the amount of funds you want to transfer"
      }
    },
    "version": 1
  },
  "userdoc": {
    "events": {
      "CaseOpened(address,uint256,uint256)": {
        "notice": "Events"
      }
    },
    "kind": "user",
    "methods": {
      "ADMIN_ROLE()": {
        "notice": "Standard variables"
      },
      "_randomNumber()": {
        "notice": "Used to get an actually Random Number -> to pick an item when openning a case"
      },
      "_rarityOfItem(uint256)": {
        "notice": "Calculate chance of receiving an specific item - As higher is result higher is the rarity of the item"
      },
      "buyItem(uint256)": {
        "notice": "Function used to buy an item on the marketplace"
      },
      "buyTicket(uint256)": {
        "notice": "This function is used to buy a caseTicket"
      },
      "changeItemPrice(uint256,uint256)": {
        "notice": "Function used to change price from item listed "
      },
      "changeTicketConditions(uint256,uint256,uint256)": {
        "notice": "This function is used for a VIP user to change 'Case Tickets' price and tries on the MarketPlace"
      },
      "claimTicketBack(uint256)": {
        "notice": "Function used to claim Ticket back when duration is over"
      },
      "exchangeItem(uint256)": {
        "notice": "Function used to exchange a token item for a real physical clothe."
      },
      "flipContractState()": {
        "notice": "Change contract state from Active to Inactive and viceversa"
      },
      "getCasePrice()": {
        "notice": "View case price"
      },
      "getITicketsOnSale()": {
        "notice": "Function used to return every ticket that are currently on sale"
      },
      "getItemsOnSale()": {
        "notice": "function used to return every item that is on sale on the MarketPlace"
      },
      "getMarketItem(uint256)": {
        "notice": "Function used to return items that are currently on sale"
      },
      "getMarketTicket(uint256)": {
        "notice": "Function used to return ticket that are currently on sale"
      },
      "i_vrfCoordinator()": {
        "notice": "VRF Variables"
      },
      "isVip(address)": {
        "notice": "Check if user is RacksMembers and owns at least 1 MrCrypto"
      },
      "listItem(uint256)": {
        "notice": "List a new item to the avaliable collection"
      },
      "listItemOnMarket(uint256,uint256)": {
        "notice": "Function used to sell an item on the marketplace"
      },
      "listTicket(uint256,uint256,uint256)": {
        "notice": "This function is used for a VIP user to list 'Case Tickets' on the MarketPlace"
      },
      "openCase()": {
        "notice": "Function used to 'open a case' and get an item"
      },
      "removeListRacksMembers(address[])": {
        "notice": "Set RacksMember attribute as false for a list of users that are Members (array)"
      },
      "removeSingleRacksMember(address)": {
        "notice": "Set RacksMember attribute as false for a user that was Racks Member before but it is not now"
      },
      "setAdmin(address)": {
        "notice": "Set new Admin"
      },
      "setCasePrice(uint256)": {
        "notice": "Change price of the box"
      },
      "setListRacksMembers(address[])": {
        "notice": "Set RacksMember attribute as true for a list of users that are Members (array)"
      },
      "setSingleRacksMember(address)": {
        "notice": "Set RacksMember attribute as true for a user that is Member"
      },
      "setTokenUri(uint256,string)": {
        "notice": "Used to set tokenURI to specific item "
      },
      "supplyOfItem(uint256)": {
        "notice": "Returns maxSupply of specific item (by tokenId)"
      },
      "supportsInterface(bytes4)": {
        "notice": "Need to override supportsInterface function because Contract is ERC1155 and AccessControl"
      },
      "unListItem(uint256)": {
        "notice": "Function used to unlist an item from marketplace"
      },
      "unListTicket(uint256)": {
        "notice": "This function is used for a VIP user to unlist 'Case Tickets' on the MarketPlace"
      },
      "uri(uint256)": {
        "notice": "Used to return token URI by inserting tokenID"
      },
      "viewItems(address)": {
        "notice": "Returns all the items inside the user's inventory (Could be used by the user to check his inventory or to check someone else inventory by address)"
      },
      "withdrawAllFunds(address)": {
        "notice": "Used to withdraw ALL funds"
      },
      "withdrawFunds(address,uint256)": {
        "notice": "Used to withdraw specific amount of funds"
      }
    },
    "version": 1
  },
  "storageLayout": {
    "storage": [
      {
        "astId": 670,
        "contract": "contracts/RacksItemsv3.sol:RacksItemsv3",
        "label": "_balances",
        "offset": 0,
        "slot": "0",
        "type": "t_mapping(t_uint256,t_mapping(t_address,t_uint256))"
      },
      {
        "astId": 676,
        "contract": "contracts/RacksItemsv3.sol:RacksItemsv3",
        "label": "_operatorApprovals",
        "offset": 0,
        "slot": "1",
        "type": "t_mapping(t_address,t_mapping(t_address,t_bool))"
      },
      {
        "astId": 678,
        "contract": "contracts/RacksItemsv3.sol:RacksItemsv3",
        "label": "_uri",
        "offset": 0,
        "slot": "2",
        "type": "t_string_storage"
      },
      {
        "astId": 171,
        "contract": "contracts/RacksItemsv3.sol:RacksItemsv3",
        "label": "_roles",
        "offset": 0,
        "slot": "3",
        "type": "t_mapping(t_bytes32,t_struct(RoleData)166_storage)"
      },
      {
        "astId": 6735,
        "contract": "contracts/RacksItemsv3.sol:RacksItemsv3",
        "label": "MR_CRYPTO",
        "offset": 0,
        "slot": "4",
        "type": "t_contract(IERC721)2935"
      },
      {
        "astId": 6741,
        "contract": "contracts/RacksItemsv3.sol:RacksItemsv3",
        "label": "racksToken",
        "offset": 0,
        "slot": "5",
        "type": "t_contract(IERC20)2794"
      },
      {
        "astId": 6747,
        "contract": "contracts/RacksItemsv3.sol:RacksItemsv3",
        "label": "_owner",
        "offset": 0,
        "slot": "6",
        "type": "t_address"
      },
      {
        "astId": 6749,
        "contract": "contracts/RacksItemsv3.sol:RacksItemsv3",
        "label": "s_maxTotalSupply",
        "offset": 0,
        "slot": "7",
        "type": "t_uint256"
      },
      {
        "astId": 6751,
        "contract": "contracts/RacksItemsv3.sol:RacksItemsv3",
        "label": "s_tokenCount",
        "offset": 0,
        "slot": "8",
        "type": "t_uint256"
      },
      {
        "astId": 6753,
        "contract": "contracts/RacksItemsv3.sol:RacksItemsv3",
        "label": "_marketCount",
        "offset": 0,
        "slot": "9",
        "type": "t_uint256"
      },
      {
        "astId": 6755,
        "contract": "contracts/RacksItemsv3.sol:RacksItemsv3",
        "label": "s_ticketCount",
        "offset": 0,
        "slot": "10",
        "type": "t_uint256"
      },
      {
        "astId": 6757,
        "contract": "contracts/RacksItemsv3.sol:RacksItemsv3",
        "label": "casePrice",
        "offset": 0,
        "slot": "11",
        "type": "t_uint256"
      },
      {
        "astId": 6760,
        "contract": "contracts/RacksItemsv3.sol:RacksItemsv3",
        "label": "contractActive",
        "offset": 0,
        "slot": "12",
        "type": "t_bool"
      },
      {
        "astId": 6763,
        "contract": "contracts/RacksItemsv3.sol:RacksItemsv3",
        "label": "s_contractState",
        "offset": 1,
        "slot": "12",
        "type": "t_enum(ContractState)6705"
      },
      {
        "astId": 6767,
        "contract": "contracts/RacksItemsv3.sol:RacksItemsv3",
        "label": "_marketItems",
        "offset": 0,
        "slot": "13",
        "type": "t_array(t_struct(itemOnSale)6716_storage)dyn_storage"
      },
      {
        "astId": 6771,
        "contract": "contracts/RacksItemsv3.sol:RacksItemsv3",
        "label": "_tickets",
        "offset": 0,
        "slot": "14",
        "type": "t_array(t_struct(caseTicket)6731_storage)dyn_storage"
      },
      {
        "astId": 6789,
        "contract": "contracts/RacksItemsv3.sol:RacksItemsv3",
        "label": "s_randomWord",
        "offset": 0,
        "slot": "15",
        "type": "t_uint256"
      },
      {
        "astId": 6794,
        "contract": "contracts/RacksItemsv3.sol:RacksItemsv3",
        "label": "s_gotRacksMembers",
        "offset": 0,
        "slot": "16",
        "type": "t_mapping(t_address,t_bool)"
      },
      {
        "astId": 6798,
        "contract": "contracts/RacksItemsv3.sol:RacksItemsv3",
        "label": "s_maxSupply",
        "offset": 0,
        "slot": "17",
        "type": "t_mapping(t_uint256,t_uint256)"
      },
      {
        "astId": 6802,
        "contract": "contracts/RacksItemsv3.sol:RacksItemsv3",
        "label": "s_uris",
        "offset": 0,
        "slot": "18",
        "type": "t_mapping(t_uint256,t_string_storage)"
      },
      {
        "astId": 6806,
        "contract": "contracts/RacksItemsv3.sol:RacksItemsv3",
        "label": "s_isSellingTicket",
        "offset": 0,
        "slot": "19",
        "type": "t_mapping(t_address,t_bool)"
      },
      {
        "astId": 6810,
        "contract": "contracts/RacksItemsv3.sol:RacksItemsv3",
        "label": "s_hasTicket",
        "offset": 0,
        "slot": "20",
        "type": "t_mapping(t_address,t_bool)"
      },
      {
        "astId": 6814,
        "contract": "contracts/RacksItemsv3.sol:RacksItemsv3",
        "label": "s_ticketIsLended",
        "offset": 0,
        "slot": "21",
        "type": "t_mapping(t_address,t_bool)"
      }
    ],
    "types": {
      "t_address": {
        "encoding": "inplace",
        "label": "address",
        "numberOfBytes": "20"
      },
      "t_array(t_struct(caseTicket)6731_storage)dyn_storage": {
        "base": "t_struct(caseTicket)6731_storage",
        "encoding": "dynamic_array",
        "label": "struct RacksItemsv3.caseTicket[]",
        "numberOfBytes": "32"
      },
      "t_array(t_struct(itemOnSale)6716_storage)dyn_storage": {
        "base": "t_struct(itemOnSale)6716_storage",
        "encoding": "dynamic_array",
        "label": "struct RacksItemsv3.itemOnSale[]",
        "numberOfBytes": "32"
      },
      "t_bool": {
        "encoding": "inplace",
        "label": "bool",
        "numberOfBytes": "1"
      },
      "t_bytes32": {
        "encoding": "inplace",
        "label": "bytes32",
        "numberOfBytes": "32"
      },
      "t_contract(IERC20)2794": {
        "encoding": "inplace",
        "label": "contract IERC20",
        "numberOfBytes": "20"
      },
      "t_contract(IERC721)2935": {
        "encoding": "inplace",
        "label": "contract IERC721",
        "numberOfBytes": "20"
      },
      "t_enum(ContractState)6705": {
        "encoding": "inplace",
        "label": "enum RacksItemsv3.ContractState",
        "numberOfBytes": "1"
      },
      "t_mapping(t_address,t_bool)": {
        "encoding": "mapping",
        "key": "t_address",
        "label": "mapping(address => bool)",
        "numberOfBytes": "32",
        "value": "t_bool"
      },
      "t_mapping(t_address,t_mapping(t_address,t_bool))": {
        "encoding": "mapping",
        "key": "t_address",
        "label": "mapping(address => mapping(address => bool))",
        "numberOfBytes": "32",
        "value": "t_mapping(t_address,t_bool)"
      },
      "t_mapping(t_address,t_uint256)": {
        "encoding": "mapping",
        "key": "t_address",
        "label": "mapping(address => uint256)",
        "numberOfBytes": "32",
        "value": "t_uint256"
      },
      "t_mapping(t_bytes32,t_struct(RoleData)166_storage)": {
        "encoding": "mapping",
        "key": "t_bytes32",
        "label": "mapping(bytes32 => struct AccessControl.RoleData)",
        "numberOfBytes": "32",
        "value": "t_struct(RoleData)166_storage"
      },
      "t_mapping(t_uint256,t_mapping(t_address,t_uint256))": {
        "encoding": "mapping",
        "key": "t_uint256",
        "label": "mapping(uint256 => mapping(address => uint256))",
        "numberOfBytes": "32",
        "value": "t_mapping(t_address,t_uint256)"
      },
      "t_mapping(t_uint256,t_string_storage)": {
        "encoding": "mapping",
        "key": "t_uint256",
        "label": "mapping(uint256 => string)",
        "numberOfBytes": "32",
        "value": "t_string_storage"
      },
      "t_mapping(t_uint256,t_uint256)": {
        "encoding": "mapping",
        "key": "t_uint256",
        "label": "mapping(uint256 => uint256)",
        "numberOfBytes": "32",
        "value": "t_uint256"
      },
      "t_string_storage": {
        "encoding": "bytes",
        "label": "string",
        "numberOfBytes": "32"
      },
      "t_struct(RoleData)166_storage": {
        "encoding": "inplace",
        "label": "struct AccessControl.RoleData",
        "members": [
          {
            "astId": 163,
            "contract": "contracts/RacksItemsv3.sol:RacksItemsv3",
            "label": "members",
            "offset": 0,
            "slot": "0",
            "type": "t_mapping(t_address,t_bool)"
          },
          {
            "astId": 165,
            "contract": "contracts/RacksItemsv3.sol:RacksItemsv3",
            "label": "adminRole",
            "offset": 0,
            "slot": "1",
            "type": "t_bytes32"
          }
        ],
        "numberOfBytes": "64"
      },
      "t_struct(caseTicket)6731_storage": {
        "encoding": "inplace",
        "label": "struct RacksItemsv3.caseTicket",
        "members": [
          {
            "astId": 6718,
            "contract": "contracts/RacksItemsv3.sol:RacksItemsv3",
            "label": "ticketId",
            "offset": 0,
            "slot": "0",
            "type": "t_uint256"
          },
          {
            "astId": 6720,
            "contract": "contracts/RacksItemsv3.sol:RacksItemsv3",
            "label": "numTries",
            "offset": 0,
            "slot": "1",
            "type": "t_uint256"
          },
          {
            "astId": 6722,
            "contract": "contracts/RacksItemsv3.sol:RacksItemsv3",
            "label": "duration",
            "offset": 0,
            "slot": "2",
            "type": "t_uint256"
          },
          {
            "astId": 6724,
            "contract": "contracts/RacksItemsv3.sol:RacksItemsv3",
            "label": "price",
            "offset": 0,
            "slot": "3",
            "type": "t_uint256"
          },
          {
            "astId": 6726,
            "contract": "contracts/RacksItemsv3.sol:RacksItemsv3",
            "label": "owner",
            "offset": 0,
            "slot": "4",
            "type": "t_address"
          },
          {
            "astId": 6728,
            "contract": "contracts/RacksItemsv3.sol:RacksItemsv3",
            "label": "timeWhenSold",
            "offset": 0,
            "slot": "5",
            "type": "t_uint256"
          },
          {
            "astId": 6730,
            "contract": "contracts/RacksItemsv3.sol:RacksItemsv3",
            "label": "isAvaliable",
            "offset": 0,
            "slot": "6",
            "type": "t_bool"
          }
        ],
        "numberOfBytes": "224"
      },
      "t_struct(itemOnSale)6716_storage": {
        "encoding": "inplace",
        "label": "struct RacksItemsv3.itemOnSale",
        "members": [
          {
            "astId": 6707,
            "contract": "contracts/RacksItemsv3.sol:RacksItemsv3",
            "label": "tokenId",
            "offset": 0,
            "slot": "0",
            "type": "t_uint256"
          },
          {
            "astId": 6709,
            "contract": "contracts/RacksItemsv3.sol:RacksItemsv3",
            "label": "marketItemId",
            "offset": 0,
            "slot": "1",
            "type": "t_uint256"
          },
          {
            "astId": 6711,
            "contract": "contracts/RacksItemsv3.sol:RacksItemsv3",
            "label": "price",
            "offset": 0,
            "slot": "2",
            "type": "t_uint256"
          },
          {
            "astId": 6713,
            "contract": "contracts/RacksItemsv3.sol:RacksItemsv3",
            "label": "itemOwner",
            "offset": 0,
            "slot": "3",
            "type": "t_address"
          },
          {
            "astId": 6715,
            "contract": "contracts/RacksItemsv3.sol:RacksItemsv3",
            "label": "isOnSale",
            "offset": 20,
            "slot": "3",
            "type": "t_bool"
          }
        ],
        "numberOfBytes": "128"
      },
      "t_uint256": {
        "encoding": "inplace",
        "label": "uint256",
        "numberOfBytes": "32"
      }
    }
  }
}