{
  "address": "0x67c8c575DA7C0D3641Be3e460d54471756ed62A2",
  "abi": [
    {
      "inputs": [
        {
          "internalType": "address",
          "name": "vrfCoordinatorV2",
          "type": "address"
        },
        {
          "internalType": "bytes32",
          "name": "gasLane",
          "type": "bytes32"
        },
        {
          "internalType": "uint64",
          "name": "subscriptionId",
          "type": "uint64"
        },
        {
          "internalType": "uint32",
          "name": "callbackGasLimit",
          "type": "uint32"
        },
        {
          "internalType": "address",
          "name": "_racksTokenAddress",
          "type": "address"
        },
        {
          "internalType": "address",
          "name": "_MockMrCryptoAddress",
          "type": "address"
        }
      ],
      "stateMutability": "nonpayable",
      "type": "constructor"
    },
    {
      "inputs": [
        {
          "internalType": "address",
          "name": "have",
          "type": "address"
        },
        {
          "internalType": "address",
          "name": "want",
          "type": "address"
        }
      ],
      "name": "OnlyCoordinatorCanFulfill",
      "type": "error"
    },
    {
      "anonymous": false,
      "inputs": [
        {
          "indexed": true,
          "internalType": "address",
          "name": "account",
          "type": "address"
        },
        {
          "indexed": true,
          "internalType": "address",
          "name": "operator",
          "type": "address"
        },
        {
          "indexed": false,
          "internalType": "bool",
          "name": "approved",
          "type": "bool"
        }
      ],
      "name": "ApprovalForAll",
      "type": "event"
    },
    {
      "anonymous": false,
      "inputs": [
        {
          "indexed": false,
          "internalType": "address",
          "name": "user",
          "type": "address"
        },
        {
          "indexed": false,
          "internalType": "uint256",
          "name": "casePrice",
          "type": "uint256"
        },
        {
          "indexed": false,
          "internalType": "uint256",
          "name": "item",
          "type": "uint256"
        }
      ],
      "name": "CaseOpened",
      "type": "event"
    },
    {
      "anonymous": false,
      "inputs": [
        {
          "indexed": true,
          "internalType": "bytes32",
          "name": "role",
          "type": "bytes32"
        },
        {
          "indexed": true,
          "internalType": "bytes32",
          "name": "previousAdminRole",
          "type": "bytes32"
        },
        {
          "indexed": true,
          "internalType": "bytes32",
          "name": "newAdminRole",
          "type": "bytes32"
        }
      ],
      "name": "RoleAdminChanged",
      "type": "event"
    },
    {
      "anonymous": false,
      "inputs": [
        {
          "indexed": true,
          "internalType": "bytes32",
          "name": "role",
          "type": "bytes32"
        },
        {
          "indexed": true,
          "internalType": "address",
          "name": "account",
          "type": "address"
        },
        {
          "indexed": true,
          "internalType": "address",
          "name": "sender",
          "type": "address"
        }
      ],
      "name": "RoleGranted",
      "type": "event"
    },
    {
      "anonymous": false,
      "inputs": [
        {
          "indexed": true,
          "internalType": "bytes32",
          "name": "role",
          "type": "bytes32"
        },
        {
          "indexed": true,
          "internalType": "address",
          "name": "account",
          "type": "address"
        },
        {
          "indexed": true,
          "internalType": "address",
          "name": "sender",
          "type": "address"
        }
      ],
      "name": "RoleRevoked",
      "type": "event"
    },
    {
      "anonymous": false,
      "inputs": [
        {
          "indexed": true,
          "internalType": "address",
          "name": "operator",
          "type": "address"
        },
        {
          "indexed": true,
          "internalType": "address",
          "name": "from",
          "type": "address"
        },
        {
          "indexed": true,
          "internalType": "address",
          "name": "to",
          "type": "address"
        },
        {
          "indexed": false,
          "internalType": "uint256[]",
          "name": "ids",
          "type": "uint256[]"
        },
        {
          "indexed": false,
          "internalType": "uint256[]",
          "name": "values",
          "type": "uint256[]"
        }
      ],
      "name": "TransferBatch",
      "type": "event"
    },
    {
      "anonymous": false,
      "inputs": [
        {
          "indexed": true,
          "internalType": "address",
          "name": "operator",
          "type": "address"
        },
        {
          "indexed": true,
          "internalType": "address",
          "name": "from",
          "type": "address"
        },
        {
          "indexed": true,
          "internalType": "address",
          "name": "to",
          "type": "address"
        },
        {
          "indexed": false,
          "internalType": "uint256",
          "name": "id",
          "type": "uint256"
        },
        {
          "indexed": false,
          "internalType": "uint256",
          "name": "value",
          "type": "uint256"
        }
      ],
      "name": "TransferSingle",
      "type": "event"
    },
    {
      "anonymous": false,
      "inputs": [
        {
          "indexed": false,
          "internalType": "string",
          "name": "value",
          "type": "string"
        },
        {
          "indexed": true,
          "internalType": "uint256",
          "name": "id",
          "type": "uint256"
        }
      ],
      "name": "URI",
      "type": "event"
    },
    {
      "anonymous": false,
      "inputs": [
        {
          "indexed": false,
          "internalType": "uint256",
          "name": "newPrice",
          "type": "uint256"
        }
      ],
      "name": "casePriceChanged",
      "type": "event"
    },
    {
      "anonymous": false,
      "inputs": [
        {
          "indexed": false,
          "internalType": "address",
          "name": "buyer",
          "type": "address"
        },
        {
          "indexed": false,
          "internalType": "address",
          "name": "seller",
          "type": "address"
        },
        {
          "indexed": false,
          "internalType": "uint256",
          "name": "marketItemId",
          "type": "uint256"
        },
        {
          "indexed": false,
          "internalType": "uint256",
          "name": "price",
          "type": "uint256"
        }
      ],
      "name": "itemBought",
      "type": "event"
    },
    {
      "anonymous": false,
      "inputs": [
        {
          "indexed": false,
          "internalType": "address",
          "name": "user",
          "type": "address"
        },
        {
          "indexed": false,
          "internalType": "uint256",
          "name": "tokenId",
          "type": "uint256"
        }
      ],
      "name": "itemExchanged",
      "type": "event"
    },
    {
      "anonymous": false,
      "inputs": [
        {
          "indexed": false,
          "internalType": "address",
          "name": "owner",
          "type": "address"
        },
        {
          "indexed": false,
          "internalType": "uint256",
          "name": "marketItemId",
          "type": "uint256"
        },
        {
          "indexed": false,
          "internalType": "uint256",
          "name": "oldPrice",
          "type": "uint256"
        },
        {
          "indexed": false,
          "internalType": "uint256",
          "name": "newPrice",
          "type": "uint256"
        }
      ],
      "name": "itemPriceChanged",
      "type": "event"
    },
    {
      "anonymous": false,
      "inputs": [
        {
          "indexed": false,
          "internalType": "address",
          "name": "seller",
          "type": "address"
        },
        {
          "indexed": false,
          "internalType": "uint256",
          "name": "numTries",
          "type": "uint256"
        },
        {
          "indexed": false,
          "internalType": "uint256",
          "name": "_hours",
          "type": "uint256"
        },
        {
          "indexed": false,
          "internalType": "uint256",
          "name": "price",
          "type": "uint256"
        }
      ],
      "name": "newTicketOnSale",
      "type": "event"
    },
    {
      "anonymous": false,
      "inputs": [
        {
          "indexed": false,
          "internalType": "address",
          "name": "user",
          "type": "address"
        },
        {
          "indexed": false,
          "internalType": "uint256",
          "name": "tokenId",
          "type": "uint256"
        },
        {
          "indexed": false,
          "internalType": "uint256",
          "name": "price",
          "type": "uint256"
        }
      ],
      "name": "sellingItem",
      "type": "event"
    },
    {
      "anonymous": false,
      "inputs": [
        {
          "indexed": false,
          "internalType": "uint256",
          "name": "ticketId",
          "type": "uint256"
        },
        {
          "indexed": false,
          "internalType": "address",
          "name": "oldOwner",
          "type": "address"
        },
        {
          "indexed": false,
          "internalType": "address",
          "name": "newOwner",
          "type": "address"
        },
        {
          "indexed": false,
          "internalType": "uint256",
          "name": "price",
          "type": "uint256"
        }
      ],
      "name": "ticketBought",
      "type": "event"
    },
    {
      "anonymous": false,
      "inputs": [
        {
          "indexed": false,
          "internalType": "address",
          "name": "borrower",
          "type": "address"
        },
        {
          "indexed": false,
          "internalType": "address",
          "name": "realOwner",
          "type": "address"
        }
      ],
      "name": "ticketClaimedBack",
      "type": "event"
    },
    {
      "anonymous": false,
      "inputs": [
        {
          "indexed": false,
          "internalType": "address",
          "name": "owner",
          "type": "address"
        },
        {
          "indexed": false,
          "internalType": "uint256",
          "name": "newTries",
          "type": "uint256"
        },
        {
          "indexed": false,
          "internalType": "uint256",
          "name": "newHours",
          "type": "uint256"
        },
        {
          "indexed": false,
          "internalType": "uint256",
          "name": "newPrice",
          "type": "uint256"
        }
      ],
      "name": "ticketConditionsChanged",
      "type": "event"
    },
    {
      "anonymous": false,
      "inputs": [
        {
          "indexed": false,
          "internalType": "address",
          "name": "owner",
          "type": "address"
        }
      ],
      "name": "unListTicketOnSale",
      "type": "event"
    },
    {
      "anonymous": false,
      "inputs": [
        {
          "indexed": false,
          "internalType": "address",
          "name": "owner",
          "type": "address"
        },
        {
          "indexed": false,
          "internalType": "uint256",
          "name": "marketItemId",
          "type": "uint256"
        }
      ],
      "name": "unListedItem",
      "type": "event"
    },
    {
      "inputs": [],
      "name": "ADMIN_ROLE",
      "outputs": [
        {
          "internalType": "bytes32",
          "name": "",
          "type": "bytes32"
        }
      ],
      "stateMutability": "view",
      "type": "function"
    },
    {
      "inputs": [],
      "name": "DEFAULT_ADMIN_ROLE",
      "outputs": [
        {
          "internalType": "bytes32",
          "name": "",
          "type": "bytes32"
        }
      ],
      "stateMutability": "view",
      "type": "function"
    },
    {
      "inputs": [],
      "name": "NUM_WORDS",
      "outputs": [
        {
          "internalType": "uint32",
          "name": "",
          "type": "uint32"
        }
      ],
      "stateMutability": "view",
      "type": "function"
    },
    {
      "inputs": [],
      "name": "REQUEST_CONFIRMATIONS",
      "outputs": [
        {
          "internalType": "uint16",
          "name": "",
          "type": "uint16"
        }
      ],
      "stateMutability": "view",
      "type": "function"
    },
    {
      "inputs": [],
      "name": "_randomNumber",
      "outputs": [
        {
          "internalType": "uint256",
          "name": "",
          "type": "uint256"
        }
      ],
      "stateMutability": "nonpayable",
      "type": "function"
    },
    {
      "inputs": [
        {
          "internalType": "uint256",
          "name": "tokenId",
          "type": "uint256"
        }
      ],
      "name": "_rarityOfItem",
      "outputs": [
        {
          "internalType": "uint256",
          "name": "",
          "type": "uint256"
        }
      ],
      "stateMutability": "view",
      "type": "function"
    },
    {
      "inputs": [
        {
          "internalType": "address",
          "name": "account",
          "type": "address"
        },
        {
          "internalType": "uint256",
          "name": "id",
          "type": "uint256"
        }
      ],
      "name": "balanceOf",
      "outputs": [
        {
          "internalType": "uint256",
          "name": "",
          "type": "uint256"
        }
      ],
      "stateMutability": "view",
      "type": "function"
    },
    {
      "inputs": [
        {
          "internalType": "address[]",
          "name": "accounts",
          "type": "address[]"
        },
        {
          "internalType": "uint256[]",
          "name": "ids",
          "type": "uint256[]"
        }
      ],
      "name": "balanceOfBatch",
      "outputs": [
        {
          "internalType": "uint256[]",
          "name": "",
          "type": "uint256[]"
        }
      ],
      "stateMutability": "view",
      "type": "function"
    },
    {
      "inputs": [
        {
          "internalType": "uint256",
          "name": "marketItemId",
          "type": "uint256"
        }
      ],
      "name": "buyItem",
      "outputs": [],
      "stateMutability": "nonpayable",
      "type": "function"
    },
    {
      "inputs": [
        {
          "internalType": "uint256",
          "name": "ticketId",
          "type": "uint256"
        }
      ],
      "name": "buyTicket",
      "outputs": [],
      "stateMutability": "nonpayable",
      "type": "function"
    },
    {
      "inputs": [],
      "name": "caseLiquidity",
      "outputs": [
        {
          "internalType": "uint256[]",
          "name": "",
          "type": "uint256[]"
        }
      ],
      "stateMutability": "view",
      "type": "function"
    },
    {
      "inputs": [
        {
          "internalType": "uint256",
          "name": "marketItemId",
          "type": "uint256"
        },
        {
          "internalType": "uint256",
          "name": "newPrice",
          "type": "uint256"
        }
      ],
      "name": "changeItemPrice",
      "outputs": [],
      "stateMutability": "nonpayable",
      "type": "function"
    },
    {
      "inputs": [
        {
          "internalType": "uint256",
          "name": "ticketId",
          "type": "uint256"
        },
        {
          "internalType": "uint256",
          "name": "newTries",
          "type": "uint256"
        },
        {
          "internalType": "uint256",
          "name": "newHours",
          "type": "uint256"
        },
        {
          "internalType": "uint256",
          "name": "newPrice",
          "type": "uint256"
        }
      ],
      "name": "changeTicketConditions",
      "outputs": [],
      "stateMutability": "nonpayable",
      "type": "function"
    },
    {
      "inputs": [
        {
          "internalType": "uint256",
          "name": "ticketId",
          "type": "uint256"
        }
      ],
      "name": "claimTicketBack",
      "outputs": [],
      "stateMutability": "nonpayable",
      "type": "function"
    },
    {
      "inputs": [
        {
          "internalType": "uint256",
          "name": "tokenId",
          "type": "uint256"
        }
      ],
      "name": "exchangeItem",
      "outputs": [],
      "stateMutability": "nonpayable",
      "type": "function"
    },
    {
      "inputs": [],
      "name": "flipContractState",
      "outputs": [],
      "stateMutability": "nonpayable",
      "type": "function"
    },
    {
      "inputs": [],
      "name": "getContractState",
      "outputs": [
        {
          "internalType": "enum RacksItemsv4.ContractState",
          "name": "",
          "type": "uint8"
        }
      ],
      "stateMutability": "view",
      "type": "function"
    },
    {
      "inputs": [],
      "name": "getITicketsOnSale",
      "outputs": [
        {
          "components": [
            {
              "internalType": "uint256",
              "name": "ticketId",
              "type": "uint256"
            },
            {
              "internalType": "uint256",
              "name": "numTries",
              "type": "uint256"
            },
            {
              "internalType": "uint256",
              "name": "duration",
              "type": "uint256"
            },
            {
              "internalType": "uint256",
              "name": "price",
              "type": "uint256"
            },
            {
              "internalType": "address",
              "name": "owner",
              "type": "address"
            },
            {
              "internalType": "uint256",
              "name": "timeWhenSold",
              "type": "uint256"
            },
            {
              "internalType": "bool",
              "name": "isAvaliable",
              "type": "bool"
            }
          ],
          "internalType": "struct IRacksItems.caseTicket[]",
          "name": "",
          "type": "tuple[]"
        }
      ],
      "stateMutability": "view",
      "type": "function"
    },
    {
      "inputs": [
        {
          "internalType": "uint256",
          "name": "itemId",
          "type": "uint256"
        }
      ],
      "name": "getItemsOnSale",
      "outputs": [
        {
          "components": [
            {
              "internalType": "uint256",
              "name": "tokenId",
              "type": "uint256"
            },
            {
              "internalType": "uint256",
              "name": "marketItemId",
              "type": "uint256"
            },
            {
              "internalType": "uint256",
              "name": "price",
              "type": "uint256"
            },
            {
              "internalType": "address",
              "name": "itemOwner",
              "type": "address"
            },
            {
              "internalType": "bool",
              "name": "isOnSale",
              "type": "bool"
            }
          ],
          "internalType": "struct IRacksItems.itemOnSale",
          "name": "",
          "type": "tuple"
        }
      ],
      "stateMutability": "view",
      "type": "function"
    },
    {
      "inputs": [],
      "name": "getItemsOnSale",
      "outputs": [
        {
          "components": [
            {
              "internalType": "uint256",
              "name": "tokenId",
              "type": "uint256"
            },
            {
              "internalType": "uint256",
              "name": "marketItemId",
              "type": "uint256"
            },
            {
              "internalType": "uint256",
              "name": "price",
              "type": "uint256"
            },
            {
              "internalType": "address",
              "name": "itemOwner",
              "type": "address"
            },
            {
              "internalType": "bool",
              "name": "isOnSale",
              "type": "bool"
            }
          ],
          "internalType": "struct IRacksItems.itemOnSale[]",
          "name": "",
          "type": "tuple[]"
        }
      ],
      "stateMutability": "view",
      "type": "function"
    },
    {
      "inputs": [
        {
          "internalType": "uint256",
          "name": "marketItemId",
          "type": "uint256"
        }
      ],
      "name": "getMarketItem",
      "outputs": [
        {
          "components": [
            {
              "internalType": "uint256",
              "name": "tokenId",
              "type": "uint256"
            },
            {
              "internalType": "uint256",
              "name": "marketItemId",
              "type": "uint256"
            },
            {
              "internalType": "uint256",
              "name": "price",
              "type": "uint256"
            },
            {
              "internalType": "address",
              "name": "itemOwner",
              "type": "address"
            },
            {
              "internalType": "bool",
              "name": "isOnSale",
              "type": "bool"
            }
          ],
          "internalType": "struct IRacksItems.itemOnSale",
          "name": "",
          "type": "tuple"
        }
      ],
      "stateMutability": "view",
      "type": "function"
    },
    {
      "inputs": [
        {
          "internalType": "uint256",
          "name": "ticketId",
          "type": "uint256"
        }
      ],
      "name": "getMarketTicket",
      "outputs": [
        {
          "components": [
            {
              "internalType": "uint256",
              "name": "ticketId",
              "type": "uint256"
            },
            {
              "internalType": "uint256",
              "name": "numTries",
              "type": "uint256"
            },
            {
              "internalType": "uint256",
              "name": "duration",
              "type": "uint256"
            },
            {
              "internalType": "uint256",
              "name": "price",
              "type": "uint256"
            },
            {
              "internalType": "address",
              "name": "owner",
              "type": "address"
            },
            {
              "internalType": "uint256",
              "name": "timeWhenSold",
              "type": "uint256"
            },
            {
              "internalType": "bool",
              "name": "isAvaliable",
              "type": "bool"
            }
          ],
          "internalType": "struct IRacksItems.caseTicket",
          "name": "",
          "type": "tuple"
        }
      ],
      "stateMutability": "view",
      "type": "function"
    },
    {
      "inputs": [],
      "name": "getMarketcount",
      "outputs": [
        {
          "internalType": "uint256",
          "name": "",
          "type": "uint256"
        }
      ],
      "stateMutability": "view",
      "type": "function"
    },
    {
      "inputs": [],
      "name": "getMaxTotalSupply",
      "outputs": [
        {
          "internalType": "uint256",
          "name": "",
          "type": "uint256"
        }
      ],
      "stateMutability": "view",
      "type": "function"
    },
    {
      "inputs": [],
      "name": "getOwner",
      "outputs": [
        {
          "internalType": "address",
          "name": "",
          "type": "address"
        }
      ],
      "stateMutability": "view",
      "type": "function"
    },
    {
      "inputs": [],
      "name": "getPriceCase",
      "outputs": [
        {
          "internalType": "uint256",
          "name": "",
          "type": "uint256"
        }
      ],
      "stateMutability": "view",
      "type": "function"
    },
    {
      "inputs": [
        {
          "internalType": "bytes32",
          "name": "role",
          "type": "bytes32"
        }
      ],
      "name": "getRoleAdmin",
      "outputs": [
        {
          "internalType": "bytes32",
          "name": "",
          "type": "bytes32"
        }
      ],
      "stateMutability": "view",
      "type": "function"
    },
    {
      "inputs": [
        {
          "internalType": "uint256",
          "name": "ticketId",
          "type": "uint256"
        }
      ],
      "name": "getTicket",
      "outputs": [
        {
          "components": [
            {
              "internalType": "uint256",
              "name": "ticketId",
              "type": "uint256"
            },
            {
              "internalType": "uint256",
              "name": "numTries",
              "type": "uint256"
            },
            {
              "internalType": "uint256",
              "name": "duration",
              "type": "uint256"
            },
            {
              "internalType": "uint256",
              "name": "price",
              "type": "uint256"
            },
            {
              "internalType": "address",
              "name": "owner",
              "type": "address"
            },
            {
              "internalType": "uint256",
              "name": "timeWhenSold",
              "type": "uint256"
            },
            {
              "internalType": "bool",
              "name": "isAvaliable",
              "type": "bool"
            }
          ],
          "internalType": "struct IRacksItems.caseTicket",
          "name": "",
          "type": "tuple"
        }
      ],
      "stateMutability": "view",
      "type": "function"
    },
    {
      "inputs": [],
      "name": "getTicketCount",
      "outputs": [
        {
          "internalType": "uint256",
          "name": "",
          "type": "uint256"
        }
      ],
      "stateMutability": "view",
      "type": "function"
    },
    {
      "inputs": [
        {
          "internalType": "uint256",
          "name": "ticketId",
          "type": "uint256"
        }
      ],
      "name": "getTicketDurationLeft",
      "outputs": [
        {
          "internalType": "address",
          "name": "",
          "type": "address"
        },
        {
          "internalType": "uint256",
          "name": "",
          "type": "uint256"
        },
        {
          "internalType": "bool",
          "name": "",
          "type": "bool"
        }
      ],
      "stateMutability": "view",
      "type": "function"
    },
    {
      "inputs": [],
      "name": "getTokenCount",
      "outputs": [
        {
          "internalType": "uint256",
          "name": "",
          "type": "uint256"
        }
      ],
      "stateMutability": "view",
      "type": "function"
    },
    {
      "inputs": [
        {
          "internalType": "bytes32",
          "name": "role",
          "type": "bytes32"
        },
        {
          "internalType": "address",
          "name": "account",
          "type": "address"
        }
      ],
      "name": "grantRole",
      "outputs": [],
      "stateMutability": "nonpayable",
      "type": "function"
    },
    {
      "inputs": [
        {
          "internalType": "bytes32",
          "name": "role",
          "type": "bytes32"
        },
        {
          "internalType": "address",
          "name": "account",
          "type": "address"
        }
      ],
      "name": "hasRole",
      "outputs": [
        {
          "internalType": "bool",
          "name": "",
          "type": "bool"
        }
      ],
      "stateMutability": "view",
      "type": "function"
    },
    {
      "inputs": [],
      "name": "i_callbackGasLimit",
      "outputs": [
        {
          "internalType": "uint32",
          "name": "",
          "type": "uint32"
        }
      ],
      "stateMutability": "view",
      "type": "function"
    },
    {
      "inputs": [],
      "name": "i_gasLane",
      "outputs": [
        {
          "internalType": "bytes32",
          "name": "",
          "type": "bytes32"
        }
      ],
      "stateMutability": "view",
      "type": "function"
    },
    {
      "inputs": [],
      "name": "i_subscriptionId",
      "outputs": [
        {
          "internalType": "uint64",
          "name": "",
          "type": "uint64"
        }
      ],
      "stateMutability": "view",
      "type": "function"
    },
    {
      "inputs": [],
      "name": "i_vrfCoordinator",
      "outputs": [
        {
          "internalType": "contract VRFCoordinatorV2Interface",
          "name": "",
          "type": "address"
        }
      ],
      "stateMutability": "view",
      "type": "function"
    },
    {
      "inputs": [
        {
          "internalType": "address",
          "name": "account",
          "type": "address"
        },
        {
          "internalType": "address",
          "name": "operator",
          "type": "address"
        }
      ],
      "name": "isApprovedForAll",
      "outputs": [
        {
          "internalType": "bool",
          "name": "",
          "type": "bool"
        }
      ],
      "stateMutability": "view",
      "type": "function"
    },
    {
      "inputs": [
        {
          "internalType": "address",
          "name": "user",
          "type": "address"
        }
      ],
      "name": "isVip",
      "outputs": [
        {
          "internalType": "bool",
          "name": "",
          "type": "bool"
        }
      ],
      "stateMutability": "view",
      "type": "function"
    },
    {
      "inputs": [
        {
          "internalType": "uint256",
          "name": "itemSupply",
          "type": "uint256"
        }
      ],
      "name": "listItem",
      "outputs": [],
      "stateMutability": "nonpayable",
      "type": "function"
    },
    {
      "inputs": [
        {
          "internalType": "uint256",
          "name": "marketItemId",
          "type": "uint256"
        },
        {
          "internalType": "uint256",
          "name": "price",
          "type": "uint256"
        }
      ],
      "name": "listItemOnMarket",
      "outputs": [],
      "stateMutability": "nonpayable",
      "type": "function"
    },
    {
      "inputs": [
        {
          "internalType": "uint256",
          "name": "numTries",
          "type": "uint256"
        },
        {
          "internalType": "uint256",
          "name": "_hours",
          "type": "uint256"
        },
        {
          "internalType": "uint256",
          "name": "price",
          "type": "uint256"
        }
      ],
      "name": "listTicket",
      "outputs": [],
      "stateMutability": "nonpayable",
      "type": "function"
    },
    {
      "inputs": [
        {
          "internalType": "address",
          "name": "",
          "type": "address"
        },
        {
          "internalType": "address",
          "name": "",
          "type": "address"
        },
        {
          "internalType": "uint256[]",
          "name": "",
          "type": "uint256[]"
        },
        {
          "internalType": "uint256[]",
          "name": "",
          "type": "uint256[]"
        },
        {
          "internalType": "bytes",
          "name": "",
          "type": "bytes"
        }
      ],
      "name": "onERC1155BatchReceived",
      "outputs": [
        {
          "internalType": "bytes4",
          "name": "",
          "type": "bytes4"
        }
      ],
      "stateMutability": "nonpayable",
      "type": "function"
    },
    {
      "inputs": [
        {
          "internalType": "address",
          "name": "",
          "type": "address"
        },
        {
          "internalType": "address",
          "name": "",
          "type": "address"
        },
        {
          "internalType": "uint256",
          "name": "",
          "type": "uint256"
        },
        {
          "internalType": "uint256",
          "name": "",
          "type": "uint256"
        },
        {
          "internalType": "bytes",
          "name": "",
          "type": "bytes"
        }
      ],
      "name": "onERC1155Received",
      "outputs": [
        {
          "internalType": "bytes4",
          "name": "",
          "type": "bytes4"
        }
      ],
      "stateMutability": "nonpayable",
      "type": "function"
    },
    {
      "inputs": [],
      "name": "openCase",
      "outputs": [],
      "stateMutability": "nonpayable",
      "type": "function"
    },
    {
      "inputs": [
        {
          "internalType": "uint256",
          "name": "requestId",
          "type": "uint256"
        },
        {
          "internalType": "uint256[]",
          "name": "randomWords",
          "type": "uint256[]"
        }
      ],
      "name": "rawFulfillRandomWords",
      "outputs": [],
      "stateMutability": "nonpayable",
      "type": "function"
    },
    {
      "inputs": [
        {
          "internalType": "bytes32",
          "name": "role",
          "type": "bytes32"
        },
        {
          "internalType": "address",
          "name": "account",
          "type": "address"
        }
      ],
      "name": "renounceRole",
      "outputs": [],
      "stateMutability": "nonpayable",
      "type": "function"
    },
    {
      "inputs": [
        {
          "internalType": "bytes32",
          "name": "role",
          "type": "bytes32"
        },
        {
          "internalType": "address",
          "name": "account",
          "type": "address"
        }
      ],
      "name": "revokeRole",
      "outputs": [],
      "stateMutability": "nonpayable",
      "type": "function"
    },
    {
      "inputs": [],
      "name": "s_randomWord",
      "outputs": [
        {
          "internalType": "uint256",
          "name": "",
          "type": "uint256"
        }
      ],
      "stateMutability": "view",
      "type": "function"
    },
    {
      "inputs": [
        {
          "internalType": "address",
          "name": "from",
          "type": "address"
        },
        {
          "internalType": "address",
          "name": "to",
          "type": "address"
        },
        {
          "internalType": "uint256[]",
          "name": "ids",
          "type": "uint256[]"
        },
        {
          "internalType": "uint256[]",
          "name": "amounts",
          "type": "uint256[]"
        },
        {
          "internalType": "bytes",
          "name": "data",
          "type": "bytes"
        }
      ],
      "name": "safeBatchTransferFrom",
      "outputs": [],
      "stateMutability": "nonpayable",
      "type": "function"
    },
    {
      "inputs": [
        {
          "internalType": "address",
          "name": "from",
          "type": "address"
        },
        {
          "internalType": "address",
          "name": "to",
          "type": "address"
        },
        {
          "internalType": "uint256",
          "name": "id",
          "type": "uint256"
        },
        {
          "internalType": "uint256",
          "name": "amount",
          "type": "uint256"
        },
        {
          "internalType": "bytes",
          "name": "data",
          "type": "bytes"
        }
      ],
      "name": "safeTransferFrom",
      "outputs": [],
      "stateMutability": "nonpayable",
      "type": "function"
    },
    {
      "inputs": [
        {
          "internalType": "address",
          "name": "_newAdmin",
          "type": "address"
        }
      ],
      "name": "setAdmin",
      "outputs": [],
      "stateMutability": "nonpayable",
      "type": "function"
    },
    {
      "inputs": [
        {
          "internalType": "address",
          "name": "operator",
          "type": "address"
        },
        {
          "internalType": "bool",
          "name": "approved",
          "type": "bool"
        }
      ],
      "name": "setApprovalForAll",
      "outputs": [],
      "stateMutability": "nonpayable",
      "type": "function"
    },
    {
      "inputs": [
        {
          "internalType": "uint256",
          "name": "price",
          "type": "uint256"
        }
      ],
      "name": "setCasePrice",
      "outputs": [],
      "stateMutability": "nonpayable",
      "type": "function"
    },
    {
      "inputs": [
        {
          "internalType": "uint256",
          "name": "tokenId",
          "type": "uint256"
        },
        {
          "internalType": "string",
          "name": "_uri",
          "type": "string"
        }
      ],
      "name": "setTokenUri",
      "outputs": [],
      "stateMutability": "nonpayable",
      "type": "function"
    },
    {
      "inputs": [
        {
          "internalType": "uint256",
          "name": "tokenId",
          "type": "uint256"
        }
      ],
      "name": "supplyOfItem",
      "outputs": [
        {
          "internalType": "uint256",
          "name": "",
          "type": "uint256"
        }
      ],
      "stateMutability": "view",
      "type": "function"
    },
    {
      "inputs": [
        {
          "internalType": "bytes4",
          "name": "interfaceId",
          "type": "bytes4"
        }
      ],
      "name": "supportsInterface",
      "outputs": [
        {
          "internalType": "bool",
          "name": "",
          "type": "bool"
        }
      ],
      "stateMutability": "view",
      "type": "function"
    },
    {
      "inputs": [
        {
          "internalType": "uint256",
          "name": "marketItemId",
          "type": "uint256"
        }
      ],
      "name": "unListItem",
      "outputs": [],
      "stateMutability": "nonpayable",
      "type": "function"
    },
    {
      "inputs": [
        {
          "internalType": "uint256",
          "name": "ticketId",
          "type": "uint256"
        }
      ],
      "name": "unListTicket",
      "outputs": [],
      "stateMutability": "nonpayable",
      "type": "function"
    },
    {
      "inputs": [
        {
          "internalType": "uint256",
          "name": "tokenId",
          "type": "uint256"
        }
      ],
      "name": "uri",
      "outputs": [
        {
          "internalType": "string",
          "name": "",
          "type": "string"
        }
      ],
      "stateMutability": "view",
      "type": "function"
    },
    {
      "inputs": [
        {
          "internalType": "address",
          "name": "owner",
          "type": "address"
        }
      ],
      "name": "viewItems",
      "outputs": [
        {
          "internalType": "uint256[]",
          "name": "",
          "type": "uint256[]"
        }
      ],
      "stateMutability": "view",
      "type": "function"
    },
    {
      "inputs": [
        {
          "internalType": "address",
          "name": "wallet",
          "type": "address"
        }
      ],
      "name": "withdrawAllFunds",
      "outputs": [],
      "stateMutability": "nonpayable",
      "type": "function"
    },
    {
      "inputs": [
        {
          "internalType": "address",
          "name": "wallet",
          "type": "address"
        },
        {
          "internalType": "uint256",
          "name": "amount",
          "type": "uint256"
        }
      ],
      "name": "withdrawFunds",
      "outputs": [],
      "stateMutability": "nonpayable",
      "type": "function"
    },
    {
      "stateMutability": "payable",
      "type": "receive"
    }
  ],
  "transactionHash": "0xa5223c556298d9afb4d7e9837685a212b7de8d3423c99896dbdc1ba27aef6568",
  "args": [
    "0x7a1BaC17Ccc5b313516C5E16fb24f7659aA5ebed",
    "0x4b09e658ed251bcafeebbc69400383d49f344ace09b9576fe248bb02c003fe9f",
    "286",
    "100000",
    "0x3855c456ca83b63377dC5b78726b4363684Bb538",
    "0x5CE7935AAc560c80a73F0DEfF7fC649A5539aF9e"
  ],
  "numDeployments": 1,
  "solcInputHash": "275528d18e9a597ef7e8fc74b476902b",
  "bytecode": "0x6101206040523480156200001257600080fd5b5060405162005eef38038062005eef8339810160408190526200003591620001d0565b60408051602081019091526000815286906200005181620000f4565b506001600160601b0319606091821b811660805296901b90951660a05260c09384526001600160c01b03199290931b9190911660e09081526001600160e01b031991901b1661010052600480546001600160a01b039384166001600160a01b0319918216179091556005805493909216928116929092179055600680549091163317905560006008819055600a556001600b55600c805460ff191690556200029e565b8051620001099060029060208401906200010d565b5050565b8280546200011b9062000261565b90600052602060002090601f0160209004810192826200013f57600085556200018a565b82601f106200015a57805160ff19168380011785556200018a565b828001600101855582156200018a579182015b828111156200018a5782518255916020019190600101906200016d565b50620001989291506200019c565b5090565b5b808211156200019857600081556001016200019d565b80516001600160a01b0381168114620001cb57600080fd5b919050565b60008060008060008060c08789031215620001ea57600080fd5b620001f587620001b3565b6020880151604089015191975095506001600160401b03811681146200021a57600080fd5b606088015190945063ffffffff811681146200023557600080fd5b92506200024560808801620001b3565b91506200025560a08801620001b3565b90509295509295509295565b600181811c908216806200027657607f821691505b602082108114156200029857634e487b7160e01b600052602260045260246000fd5b50919050565b60805160601c60a05160601c60c05160e05160c01c6101005160e01c615bdd6200031260003960008181610aa90152611e8a0152600081816105c40152611e5701526000818161088e0152611e290152600081816109420152611ec501526000818161149b01526114c30152615bdd6000f3fe60806040526004361061033b5760003560e01c80637e420db5116101b2578063bc197c81116100ed578063dd006d3111610090578063dd006d3114610793578063de08f65314610acb578063e7fb74c714610ae0578063e985e9c514610b00578063f23a6e6114610b20578063f242432a14610b4c578063f48c9d3414610b6c578063fd210fd914610b8c57600080fd5b8063bc197c81146109c8578063c107532914610a0d578063c4c4273014610a2d578063c7be7a4914610640578063c7e05f8d14610a42578063d3c115f214610a62578063d547741f14610a77578063d757d02714610a9757600080fd5b8063a217fddf11610155578063a217fddf14610769578063a22cb465146108d0578063a7b19424146108f0578063a7bc77c614610910578063aebc455014610930578063b2ead3c714610964578063b85e67af14610986578063bbcbc2e7146109a657600080fd5b80637e420db5146107c05780637f4e4849146107e057806384203f4b14610800578063885c2f1714610820578063893d20e8146108355780638dc5f45b1461085c5780638e879c8a1461087c57806391d14854146108b057600080fd5b806336568abe1161028257806361c073d61161022557806361c073d6146106b757806367dd74ca146106d757806367f082b0146106f7578063704b6c021461071f57806372cf6e341461073f57806375b238fc1461076957806378a895671461077e5780637dc379fa1461079357600080fd5b806336568abe14610592578063470cdf97146105b25780634a226657146105fe5780634e1273f41461061357806352a8bd221461064057806357f7789e1461066d5780635db30bb11461068d57806361652450146106a257600080fd5b80631fe543e3116102ea5780631fe543e31461048057806320ba0814146104a057806321c63a47146104cd578063248a9ca3146104e25780632ce38190146105125780632eb2c2d6146105325780632f2ff15d1461055257806332dee40b1461057257600080fd5b8062fdd58e1461034757806301ffc9a71461037a578063020f1980146103aa5780630e89341c146103cc57806319c08575146103f95780631c7cbe4f146104405780631cb0b2731461046057600080fd5b3661034257005b600080fd5b34801561035357600080fd5b50610367610362366004614ffb565b610ba2565b6040519081526020015b60405180910390f35b34801561038657600080fd5b5061039a61039536600461514e565b610c3c565b6040519015158152602001610371565b3480156103b657600080fd5b506103ca6103c536600461522d565b610c47565b005b3480156103d857600080fd5b506103ec6103e7366004615112565b610ec2565b6040516103719190615655565b34801561040557600080fd5b50610419610414366004615112565b610f64565b604080516001600160a01b0390941684526020840192909252151590820152606001610371565b34801561044c57600080fd5b506103ca61045b36600461527b565b61128a565b34801561046c57600080fd5b506103ca61047b366004615112565b6113f3565b34801561048c57600080fd5b506103ca61049b3660046151a1565b611490565b3480156104ac57600080fd5b506103676104bb366004615112565b60009081526010602052604090205490565b3480156104d957600080fd5b50600a54610367565b3480156104ee57600080fd5b506103676104fd366004615112565b60009081526003602052604090206001015490565b34801561051e57600080fd5b506103ca61052d366004615112565b61150b565b34801561053e57600080fd5b506103ca61054d366004614eb7565b61153d565b34801561055e57600080fd5b506103ca61056d36600461512b565b6115d4565b34801561057e57600080fd5b506103ca61058d366004614e69565b6115fe565b34801561059e57600080fd5b506103ca6105ad36600461512b565b6117bf565b3480156105be57600080fd5b506105e67f000000000000000000000000000000000000000000000000000000000000000081565b6040516001600160401b039091168152602001610371565b34801561060a57600080fd5b506103ca611839565b34801561061f57600080fd5b5061063361062e366004615025565b611bcf565b60405161037191906155ec565b34801561064c57600080fd5b5061066061065b366004615112565b611cf8565b60405161037191906158e0565b34801561067957600080fd5b506103ca6106883660046151dd565b611d76565b34801561069957600080fd5b50600754610367565b3480156106ae57600080fd5b50610367611e1a565b3480156106c357600080fd5b506103ca6106d2366004615112565b611f41565b3480156106e357600080fd5b506103ca6106f2366004615112565b612290565b34801561070357600080fd5b5061070c600381565b60405161ffff9091168152602001610371565b34801561072b57600080fd5b506103ca61073a366004614e69565b612759565b34801561074b57600080fd5b50610754600281565b60405163ffffffff9091168152602001610371565b34801561077557600080fd5b50610367600081565b34801561078a57600080fd5b50600854610367565b34801561079f57600080fd5b506107b36107ae366004615112565b61278e565b60405161037191906158d2565b3480156107cc57600080fd5b506103ca6107db366004615112565b61281c565b3480156107ec57600080fd5b50600c5460ff16604051610371919061562d565b34801561080c57600080fd5b5061039a61081b366004614e69565b612954565b34801561082c57600080fd5b50600b54610367565b34801561084157600080fd5b506006546001600160a01b03165b6040516103719190615407565b34801561086857600080fd5b506103ca610877366004615112565b6129f1565b34801561088857600080fd5b506103677f000000000000000000000000000000000000000000000000000000000000000081565b3480156108bc57600080fd5b5061039a6108cb36600461512b565b612a4b565b3480156108dc57600080fd5b506103ca6108eb366004614fc4565b612a76565b3480156108fc57600080fd5b506103ca61090b36600461522d565b612a81565b34801561091c57600080fd5b506103ca61092b366004615112565b612b5f565b34801561093c57600080fd5b5061084f7f000000000000000000000000000000000000000000000000000000000000000081565b34801561097057600080fd5b50610979612c82565b604051610371919061555c565b34801561099257600080fd5b506103ca6109a136600461524f565b612e7f565b3480156109b257600080fd5b506109bb613198565b60405161037191906155aa565b3480156109d457600080fd5b506109f46109e3366004614eb7565b63bc197c8160e01b95945050505050565b6040516001600160e01b03199091168152602001610371565b348015610a1957600080fd5b506103ca610a28366004614ffb565b61339e565b348015610a3957600080fd5b50600954610367565b348015610a4e57600080fd5b50610367610a5d366004615112565b6134ea565b348015610a6e57600080fd5b50610633613521565b348015610a8357600080fd5b506103ca610a9236600461512b565b613608565b348015610aa357600080fd5b506107547f000000000000000000000000000000000000000000000000000000000000000081565b348015610ad757600080fd5b506103ca61362d565b348015610aec57600080fd5b506103ca610afb366004615112565b61368c565b348015610b0c57600080fd5b5061039a610b1b366004614e84565b613c20565b348015610b2c57600080fd5b506109f4610b3b366004614f60565b63f23a6e6160e01b95945050505050565b348015610b5857600080fd5b506103ca610b67366004614f60565b613c4e565b348015610b7857600080fd5b50610633610b87366004614e69565b613cd5565b348015610b9857600080fd5b50610367600f5481565b60006001600160a01b038316610c135760405162461bcd60e51b815260206004820152602b60248201527f455243313135353a2062616c616e636520717565727920666f7220746865207a60448201526a65726f206164647265737360a81b60648201526084015b60405180910390fd5b506000818152602081815260408083206001600160a01b03861684529091529020545b92915050565b6000610c3682613d99565b6000610c533384610ba2565b11610c925760405162461bcd60e51b815260206004820152600f60248201526e24ba32b6903737ba103337bab7321760891b6044820152606401610c0a565b610c9c3330613c20565b610ce85760405162461bcd60e51b815260206004820152601f60248201527f417070726f766564206973206e6f7420636f72726563746c7920646f6e652e006044820152606401610c0a565b60008111610d385760405162461bcd60e51b815260206004820152601c60248201527f5072696365206d7573742062652067726561746572207468616e2030000000006044820152606401610c0a565b3360009081526016602090815260408083208584529091528120805460019290610d63908490615911565b90915550506040805160a08101825283815260098054602083019081529282018481523360608401908152600160808501818152600d80549283018155600090815295517fd7b6990105719101dabeb77144f2a3385c8033acd3af97e9423a695e81ad1eb560049093029283015595517fd7b6990105719101dabeb77144f2a3385c8033acd3af97e9423a695e81ad1eb682015591517fd7b6990105719101dabeb77144f2a3385c8033acd3af97e9423a695e81ad1eb7830155517fd7b6990105719101dabeb77144f2a3385c8033acd3af97e9423a695e81ad1eb8909101805494516001600160a01b039092166001600160a81b031990951694909417600160a01b911515919091021790925581549190610e7e83615a21565b91905055507f23cba88d6c6f26b62b2cfc32a2cc04fbbde8590188b97cd3590e45af9ac6dd6d338383604051610eb693929190615515565b60405180910390a15050565b6000818152601160205260409020805460609190610edf906159ba565b80601f0160208091040260200160405190810160405280929190818152602001828054610f0b906159ba565b8015610f585780601f10610f2d57610100808354040283529160200191610f58565b820191906000526020600020905b815481529060010190602001808311610f3b57829003601f168201915b50505050509050919050565b600080600080600e8581548110610f7d57610f7d615a92565b90600052602060002090600702016005015411610fd65760405162461bcd60e51b81526020600482015260176024820152762a34b1b5b2ba1034b9903737ba1039b7b632103cb2ba1760491b6044820152606401610c0a565b6000600e8581548110610feb57610feb615a92565b9060005260206000209060070201600101546000141561114357600e858154811061101857611018615a92565b906000526020600020906007020160020154603c611036919061593d565b603c600e878154811061104b5761104b615a92565b90600052602060002090600702016005015442611068919061595c565b6110729190615929565b14156110b75760009050600e858154811061108f5761108f615a92565b600091825260208220600460079092020101546001600160a01b031694509092509050611283565b603c600e86815481106110cc576110cc615a92565b906000526020600020906007020160050154426110e9919061595c565b6110f39190615929565b600e868154811061110657611106615a92565b906000526020600020906007020160020154603c611124919061593d565b61112e919061595c565b9050600e858154811061108f5761108f615a92565b600e858154811061115657611156615a92565b906000526020600020906007020160020154603c611174919061593d565b603c600e878154811061118957611189615a92565b906000526020600020906007020160050154426111a6919061595c565b6111b09190615929565b14156111f75760009050600e85815481106111cd576111cd615a92565b60009182526020909120600460079092020101546001600160a01b03169350915060019050611283565b603c600e868154811061120c5761120c615a92565b90600052602060002090600702016005015442611229919061595c565b6112339190615929565b600e868154811061124657611246615a92565b906000526020600020906007020160020154603c611264919061593d565b61126e919061595c565b9050600e85815481106111cd576111cd615a92565b9193909250565b61129333612954565b6112af5760405162461bcd60e51b8152600401610c0a906157e1565b3360009081526012602052604090205460ff166112de5760405162461bcd60e51b8152600401610c0a906156e5565b336001600160a01b0316600e85815481106112fb576112fb615a92565b60009182526020909120600460079092020101546001600160a01b0316146113355760405162461bcd60e51b8152600401610c0a906156b0565b80600e858154811061134957611349615a92565b90600052602060002090600702016003018190555081600e858154811061137257611372615a92565b90600052602060002090600702016002018190555082600e858154811061139b5761139b615a92565b9060005260206000209060070201600101819055507f0fcd915268f7fe921a6c99bd903199d2f30c7f65a422416bfd1de6a264b8264d338484846040516113e59493929190615536565b60405180910390a150505050565b60006113ff3383610ba2565b1161140957600080fd5b61141533826001613dbe565b600081815260106020526040812080546001929061143490849061595c565b9250508190555060016007600082825461144e919061595c565b90915550506040517f9e90d55d2f1f115ffe1b87372c45f27f6b3a2b5ba392942167be7845618900949061148590339084906154fc565b60405180910390a150565b336001600160a01b037f000000000000000000000000000000000000000000000000000000000000000016146114fd57337f000000000000000000000000000000000000000000000000000000000000000060405163073e64fd60e21b8152600401610c0a92919061541b565b6115078282613f2d565b5050565b61151433613f52565b6115305760405162461bcd60e51b8152600401610c0a90615862565b61153a3082613f88565b50565b6001600160a01b03851633148061155957506115598533613c20565b6115c05760405162461bcd60e51b815260206004820152603260248201527f455243313135353a207472616e736665722063616c6c6572206973206e6f74206044820152711bdddb995c881b9bdc88185c1c1c9bdd995960721b6064820152608401610c0a565b6115cd8585858585613ff3565b5050505050565b6000828152600360205260409020600101546115ef816141d0565b6115f983836141da565b505050565b6006546001600160a01b031633146116285760405162461bcd60e51b8152600401610c0a906158a3565b6005546040516370a0823160e01b81526000916001600160a01b0316906370a0823190611659903090600401615407565b60206040518083038186803b15801561167157600080fd5b505afa158015611685573d6000803e3d6000fd5b505050506040513d601f19601f820116820180604052508101906116a99190615188565b116116c65760405162461bcd60e51b8152600401610c0a9061572b565b6005546040516370a0823160e01b81526001600160a01b039091169063a9059cbb90839083906370a0823190611700903090600401615407565b60206040518083038186803b15801561171857600080fd5b505afa15801561172c573d6000803e3d6000fd5b505050506040513d601f19601f820116820180604052508101906117509190615188565b6040518363ffffffff1660e01b815260040161176d9291906154fc565b602060405180830381600087803b15801561178757600080fd5b505af115801561179b573d6000803e3d6000fd5b505050506040513d601f19601f8201168201806040525081019061150791906150f5565b6001600160a01b038116331461182f5760405162461bcd60e51b815260206004820152602f60248201527f416363657373436f6e74726f6c3a2063616e206f6e6c792072656e6f756e636560448201526e103937b632b9903337b91039b2b63360891b6064820152608401610c0a565b6115078282614260565b60006007541161188b5760405162461bcd60e51b815260206004820152601c60248201527f546865726520617265206e6f206974656d73206176616c6961626c65000000006044820152606401610c0a565b6000600c5460ff1660018111156118a4576118a4615a7c565b146118ff5760405162461bcd60e51b815260206004820152602560248201527f436f6e7472616374206973206e6f74206163746976652061742074686973206d6044820152641bdb595b9d60da1b6064820152608401610c0a565b600480546040516370a0823160e01b81526001926001600160a01b03909216916370a082319161193191339101615407565b60206040518083038186803b15801561194957600080fd5b505afa15801561195d573d6000803e3d6000fd5b505050506040513d601f19601f820116820180604052508101906119819190615188565b1015611a01573360009081526013602052604090205460ff16611a015760405162461bcd60e51b815260206004820152603260248201527f5573657220646f6573206e6f74206f776e732061205469636b657420666f722060448201527137b832b73734b733903a34329031b0b9b29760711b6064820152608401610c0a565b600554600b546040516323b872dd60e01b81526001600160a01b03909216916323b872dd91611a369133913091600401615493565b602060405180830381600087803b158015611a5057600080fd5b505af1158015611a64573d6000803e3d6000fd5b505050506040513d601f19601f82011682018060405250810190611a8891906150f5565b506000600754611a96611e1a565b611aa09190615a3c565b9050600080805b600854811015611b7657600081815260106020526040812054611aca9085615911565b905080851115611adc57809350611b63565b819250611ae93084610ba2565b611b2b576000611afa60018561595c565b90505b6000611b093083610ba2565b1115611b1757809350611b29565b80611b21816159a3565b915050611afd565b505b611b483033856001604051806020016040528060008152506142c7565b60078054906000611b58836159a3565b919050555050611b76565b5080611b6e81615a21565b915050611aa7565b50611b8033612954565b611b8d57611b8d336143df565b7fea32e37a2618dbb680c93d891742e9e13b30d184822562a0ee3c09290fd42b4333600b5483604051611bc293929190615515565b60405180910390a1505050565b60608151835114611c345760405162461bcd60e51b815260206004820152602960248201527f455243313135353a206163636f756e747320616e6420696473206c656e677468604482015268040dad2e6dac2e8c6d60bb1b6064820152608401610c0a565b600083516001600160401b03811115611c4f57611c4f615aa8565b604051908082528060200260200182016040528015611c78578160200160208202803683370190505b50905060005b8451811015611cf057611cc3858281518110611c9c57611c9c615a92565b6020026020010151858381518110611cb657611cb6615a92565b6020026020010151610ba2565b828281518110611cd557611cd5615a92565b6020908102919091010152611ce981615a21565b9050611c7e565b509392505050565b611d00614c43565b600d8281548110611d1357611d13615a92565b60009182526020918290206040805160a0810182526004909302909101805483526001810154938301939093526002830154908201526003909101546001600160a01b038116606083015260ff600160a01b909104161515608082015292915050565b611d7f33613f52565b611d9b5760405162461bcd60e51b8152600401610c0a90615862565b60008281526011602052604090208054611db4906159ba565b159050611dfb5760405162461bcd60e51b815260206004820152601560248201527443616e206e6f74207365742075726920747769636560581b6044820152606401610c0a565b600082815260116020908152604090912082516115f992840190614c7d565b6040516305d3b1d360e41b81527f000000000000000000000000000000000000000000000000000000000000000060048201526001600160401b037f00000000000000000000000000000000000000000000000000000000000000001660248201526003604482015263ffffffff7f00000000000000000000000000000000000000000000000000000000000000001660648201526002608482015260009081906001600160a01b037f00000000000000000000000000000000000000000000000000000000000000001690635d3b1d309060a401602060405180830381600087803b158015611f0957600080fd5b505af1158015611f1d573d6000803e3d6000fd5b505050506040513d601f19601f82011682018060405250810190610c369190615188565b611f4a33612954565b611f665760405162461bcd60e51b8152600401610c0a906157e1565b3360009081526015602052604090205460ff16611fc55760405162461bcd60e51b815260206004820152601c60248201527f5573657220646964206e6f742073656c6c20616e79205469636b6574000000006044820152606401610c0a565b600e8181548110611fd857611fd8615a92565b906000526020600020906007020160010154600014806120625750600e818154811061200657612006615a92565b906000526020600020906007020160020154603c612024919061593d565b603c600e838154811061203957612039615a92565b90600052602060002090600702016005015442612056919061595c565b6120609190615929565b145b6120cc5760405162461bcd60e51b815260206004820152603560248201527f4475726174696f6e206f6620746865205469636b6574206f72206e756d5472696044820152746573206973207374696c6c206176616c6961626c6560581b6064820152608401610c0a565b6000600e82815481106120e1576120e1615a92565b906000526020600020906007020160040160009054906101000a90046001600160a01b03169050600060136000600e858154811061212157612121615a92565b60009182526020808320600460079093020191909101546001600160a01b031683528281019390935260409182018120805494151560ff1995861617905533808252601384528282208054861660011790556015909352208054909216909155600e80548490811061219557612195615a92565b906000526020600020906007020160040160006101000a8154816001600160a01b0302191690836001600160a01b031602179055506001600e83815481106121df576121df615a92565b906000526020600020906007020160060160006101000a81548160ff021916908315150217905550600160136000600e858154811061222057612220615a92565b60009182526020808320600792909202909101600401546001600160a01b031683528201929092526040908101909120805460ff191692151592909217909155517f5093646a80c0a81f51115fbf5ec8379ecf902ae2ba552c74599cbe844dcb53e390610eb6908390339061541b565b61229933612954565b156122e65760405162461bcd60e51b815260206004820152601f60248201527f412056495020757365722063616e206e6f74206275792061207469636b6574006044820152606401610c0a565b336001600160a01b0316600e828154811061230357612303615a92565b60009182526020909120600460079092020101546001600160a01b0316141561237c5760405162461bcd60e51b815260206004820152602560248201527f596f752063616e206e6f74206275792061207469636b657420746f20796f75726044820152641039b2b63360d91b6064820152608401610c0a565b600e818154811061238f5761238f615a92565b600091825260209091206006600790920201015460ff1615156001146124015760405162461bcd60e51b815260206004820152602160248201527f5469636b6574206973206e6f742063757272656e746c79206176616c6961626c6044820152606560f81b6064820152608401610c0a565b6000600e828154811061241657612416615a92565b6000918252602090912060079091020160040154600554600e80546001600160a01b03938416945092909116916323b872dd9133918690811061245b5761245b615a92565b906000526020600020906007020160040160009054906101000a90046001600160a01b0316600e868154811061249357612493615a92565b9060005260206000209060070201600301546040518463ffffffff1660e01b81526004016124c393929190615493565b602060405180830381600087803b1580156124dd57600080fd5b505af11580156124f1573d6000803e3d6000fd5b505050506040513d601f19601f8201168201806040525081019061251591906150f5565b5042600e838154811061252a5761252a615a92565b906000526020600020906007020160050181905550600060136000600e858154811061255857612558615a92565b60009182526020808320600792909202909101600401546001600160a01b031683528201929092526040018120805460ff191692151592909217909155600e80546012918391869081106125ae576125ae615a92565b60009182526020808320600792909202909101600401546001600160a01b031683528201929092526040018120805460ff191692151592909217909155600e805460019260159290918690811061260757612607615a92565b60009182526020808320600460079093020191909101546001600160a01b031683528281019390935260409182018120805494151560ff19958616179055338082526013909352208054909216600117909155600e80548490811061266e5761266e615a92565b906000526020600020906007020160040160006101000a8154816001600160a01b0302191690836001600160a01b031602179055506000600e83815481106126b8576126b8615a92565b906000526020600020906007020160060160006101000a81548160ff0219169083151502179055507f060f7dd92424d6f1af65d2fe9acba5b63d299cc26cd8eb26403ca371bc9fbfbb828233600e868154811061271757612717615a92565b906000526020600020906007020160030154604051610eb694939291909384526001600160a01b03928316602085015291166040830152606082015260800190565b6006546001600160a01b031633146127835760405162461bcd60e51b8152600401610c0a906158a3565b61153a600082614530565b612796614d01565b600e82815481106127a9576127a9615a92565b60009182526020918290206040805160e0810182526007909302909101805483526001810154938301939093526002830154908201526003820154606082015260048201546001600160a01b03166080820152600582015460a082015260069091015460ff16151560c082015292915050565b61282533612954565b6128415760405162461bcd60e51b8152600401610c0a906157e1565b3360009081526012602052604090205460ff166128705760405162461bcd60e51b8152600401610c0a906156e5565b336001600160a01b0316600e828154811061288d5761288d615a92565b60009182526020909120600460079092020101546001600160a01b0316146128c75760405162461bcd60e51b8152600401610c0a906156b0565b6000600e82815481106128dc576128dc615a92565b60009182526020808320600660079093020191909101805493151560ff1994851617905533808352601282526040808420805486169055601390925291819020805490931660011790925590517f5dbab6b1e9ddd154d6eb51aa5622fb5278ea62a0b5f81d046a945d899490f6319161148591615407565b600480546040516370a0823160e01b815260009283926001600160a01b0316916370a082319161298691879101615407565b60206040518083038186803b15801561299e57600080fd5b505afa1580156129b2573d6000803e3d6000fd5b505050506040513d601f19601f820116820180604052508101906129d69190615188565b11156129e457506001919050565b506000919050565b919050565b6129fa33613f52565b612a165760405162461bcd60e51b8152600401610c0a90615862565b600b8190556040518181527f06cd74aabc11982a85b554df4d7833623303656fe69bed4db1b0cb3245feebe390602001611485565b60009182526003602090815260408084206001600160a01b0393909316845291905290205460ff1690565b61150733838361453a565b336001600160a01b0316600d8381548110612a9e57612a9e615a92565b60009182526020909120600360049092020101546001600160a01b031614612ad85760405162461bcd60e51b8152600401610c0a90615759565b6000600d8381548110612aed57612aed615a92565b906000526020600020906004020160020154905081600d8481548110612b1557612b15615a92565b9060005260206000209060040201600201819055507fb141d00f22a670547caacc412e6489d8edaba6a840df558118363ce1a40d6ed233848385604051611bc29493929190615536565b336001600160a01b0316600d8281548110612b7c57612b7c615a92565b60009182526020909120600360049092020101546001600160a01b031614612bb65760405162461bcd60e51b8152600401610c0a90615759565b336000908152601660205260408120600d8054600193919085908110612bde57612bde615a92565b90600052602060002090600402016000015481526020019081526020016000206000828254612c0d919061595c565b925050819055506000600d8281548110612c2957612c29615a92565b906000526020600020906004020160030160146101000a81548160ff0219169083151502179055507fc9cedcca3d85d6009a562a9e70071f6288adabda9ba7f059589165e75c9cf40433826040516114859291906154fc565b60606000805b600e54811015612d42576000600e8281548110612ca757612ca7615a92565b60009182526020918290206040805160e081018252600790930290910180548352600180820154948401949094526002810154918301919091526003810154606083015260048101546001600160a01b03166080830152600581015460a08301526006015460ff16151560c082018190529092501415612d2f57612d2c600184615911565b92505b5080612d3a81615a21565b915050612c88565b506000816001600160401b03811115612d5d57612d5d615aa8565b604051908082528060200260200182016040528015612d9657816020015b612d83614d01565b815260200190600190039081612d7b5790505b5090506000805b600e54811015612e76576000600e8281548110612dbc57612dbc615a92565b60009182526020918290206040805160e081018252600790930290910180548352600180820154948401949094526002810154918301919091526003810154606083015260048101546001600160a01b03166080830152600581015460a08301526006015460ff16151560c082018190529092501415612e635780848481518110612e4957612e49615a92565b60200260200101819052508280612e5f90615a21565b9350505b5080612e6e81615a21565b915050612d9d565b50909392505050565b612e8833612954565b612ea45760405162461bcd60e51b8152600401610c0a906157e1565b3360009081526012602052604090205460ff1615612f175760405162461bcd60e51b815260206004820152602a60248201527f5573657220697320616c72656164792063757272656e746c792073656c6c696e60448201526919c81848151a58dad95d60b21b6064820152608401610c0a565b3360009081526014602052604090205460ff1615612f8e573360009081526013602052604090205460ff16612f8e5760405162461bcd60e51b815260206004820152601d60248201527f5573657220686173206e6f74207469636b6574206176616c6961626c650000006044820152606401610c0a565b6040805160e081018252600a8054825260208201868152928201858152606083018581523360808501908152600060a08601818152600160c08801818152600e80549283018155845297517fbb7b4a454dc3493923482f07822329ed19e8244eff582cc204f8554c3620c3fd60079092029182015597517fbb7b4a454dc3493923482f07822329ed19e8244eff582cc204f8554c3620c3fe89015593517fbb7b4a454dc3493923482f07822329ed19e8244eff582cc204f8554c3620c3ff88015591517fbb7b4a454dc3493923482f07822329ed19e8244eff582cc204f8554c3620c400870155517fbb7b4a454dc3493923482f07822329ed19e8244eff582cc204f8554c3620c401860180546001600160a01b0319166001600160a01b0390921691909117905590517fbb7b4a454dc3493923482f07822329ed19e8244eff582cc204f8554c3620c40285015591517fbb7b4a454dc3493923482f07822329ed19e8244eff582cc204f8554c3620c403909301805460ff1916931515939093179092558154919061311f83615a21565b90915550503360008181526012602090815260408083208054600160ff199182168117909255601484528285208054821690921790915560139092529182902080549091169055517f07814713aba2e13eb5f2470225f7395d33fad1452b70f8427dae73e4d3a5934491611bc291869086908690615536565b60606000805b600d54811015613261576000600d82815481106131bd576131bd615a92565b60009182526020918290206040805160a08101825260049093029091018054835260018082015494840194909452600281015491830191909152600301546001600160a01b038116606083015260ff600160a01b9091041615156080820181905290925014801561323b575061323b8160600151826000015161461b565b1561324e5761324b600184615911565b92505b508061325981615a21565b91505061319e565b506000816001600160401b0381111561327c5761327c615aa8565b6040519080825280602002602001820160405280156132b557816020015b6132a2614c43565b81526020019060019003908161329a5790505b5090506000805b600d54811015612e76576000600d82815481106132db576132db615a92565b60009182526020918290206040805160a08101825260049093029091018054835260018082015494840194909452600281015491830191909152600301546001600160a01b038116606083015260ff600160a01b9091041615156080820181905290925014801561335957506133598160600151826000015161461b565b1561338b578084848151811061337157613371615a92565b6020026020010181905250828061338790615a21565b9350505b508061339681615a21565b9150506132bc565b6006546001600160a01b031633146133c85760405162461bcd60e51b8152600401610c0a906158a3565b6005546040516370a0823160e01b81526000916001600160a01b0316906370a08231906133f9903090600401615407565b60206040518083038186803b15801561341157600080fd5b505afa158015613425573d6000803e3d6000fd5b505050506040513d601f19601f820116820180604052508101906134499190615188565b116134665760405162461bcd60e51b8152600401610c0a9061572b565b60055460405163a9059cbb60e01b81526001600160a01b039091169063a9059cbb9061349890859085906004016154fc565b602060405180830381600087803b1580156134b257600080fd5b505af11580156134c6573d6000803e3d6000fd5b505050506040513d601f19601f820116820180604052508101906115f991906150f5565b60006134f58261463e565b6134fe57600080fd5b60008281526010602052604081205460075461351a9190615929565b9392505050565b60606000805b60085481101561356357600061353d3083610ba2565b1115613551578161354d81615a21565b9250505b8061355b81615a21565b915050613527565b506000816001600160401b0381111561357e5761357e615aa8565b6040519080825280602002602001820160405280156135a7578160200160208202803683370190505b5090506000805b600854811015612e765760006135c43083610ba2565b11156135f657808383815181106135dd576135dd615a92565b6020908102919091010152816135f281615a21565b9250505b8061360081615a21565b9150506135ae565b600082815260036020526040902060010154613623816141d0565b6115f98383614260565b61363633613f52565b6136525760405162461bcd60e51b8152600401610c0a90615862565b6000600c5460ff16600181111561366b5761366b615a7c565b141561368057600c805460ff19166001179055565b600c805460ff19169055565b6000600d82815481106136a1576136a1615a92565b60009182526020918290206040805160a0810182526004909302909101805483526001810154938301939093526002830154908201526003909101546001600160a01b038116606083015260ff600160a01b9091041615156080820152600d8054919250908390811061371657613716615a92565b60009182526020909120600490910201600301546001600160a01b031633141561378e5760405162461bcd60e51b815260206004820152602360248201527f596f752063616e206e6f742062757920616e206974656d20746f20796f75727360448201526232b63360e91b6064820152608401610c0a565b600d82815481106137a1576137a1615a92565b906000526020600020906004020160030160149054906101000a900460ff161515600115151461381d5760405162461bcd60e51b815260206004820152602160248201527f54686973206974656d206973206e6f74206f6e2073616c6520616e796d6f72656044820152601760f91b6064820152608401610c0a565b61382f8160600151826000015161461b565b6138725760405162461bcd60e51b815260206004820152601460248201527324ba32b6903237b2b9903737ba1032bc34b9ba1760611b6044820152606401610c0a565b6040808201516005549151636eb1769f60e11b815290916001600160a01b03169063dd62ed3e906138a9903390309060040161541b565b60206040518083038186803b1580156138c157600080fd5b505afa1580156138d5573d6000803e3d6000fd5b505050506040513d601f19601f820116820180604052508101906138f99190615188565b10156139475760405162461bcd60e51b815260206004820152601c60248201527f496e73756666696369656e7420455243323020616c6c6f77616e6365000000006044820152606401610c0a565b600554600d80546001600160a01b03909216916323b872dd9133918690811061397257613972615a92565b906000526020600020906004020160030160009054906101000a90046001600160a01b0316600d86815481106139aa576139aa615a92565b9060005260206000209060040201600201546040518463ffffffff1660e01b81526004016139da93929190615493565b602060405180830381600087803b1580156139f457600080fd5b505af1158015613a08573d6000803e3d6000fd5b505050506040513d601f19601f82011682018060405250810190613a2c91906150f5565b50613aa5600d8381548110613a4357613a43615a92565b906000526020600020906004020160030160009054906101000a90046001600160a01b031633600d8581548110613a7c57613a7c615a92565b9060005260206000209060040201600001546001604051806020016040528060008152506142c7565b60608101516001600160a01b03166000908152601660209081526040808320845184529091528120805460019290613ade90849061595c565b925050819055506000600d8381548110613afa57613afa615a92565b906000526020600020906004020160030160009054906101000a90046001600160a01b0316905033600d8481548110613b3557613b35615a92565b906000526020600020906004020160030160006101000a8154816001600160a01b0302191690836001600160a01b031602179055506000600d8481548110613b7f57613b7f615a92565b906000526020600020906004020160030160146101000a81548160ff0219169083151502179055507f642067ff529c9b5b1162502fc8e8a3a91dda56e126a84f2fe38d341236231a82338285600d8781548110613bde57613bde615a92565b600091825260209182902060026004909202010154604080516001600160a01b0396871681529590941691850191909152918301526060820152608001611bc2565b6001600160a01b03918216600090815260016020908152604080832093909416825291909152205460ff1690565b6001600160a01b038516331480613c6a5750613c6a8533613c20565b613cc85760405162461bcd60e51b815260206004820152602960248201527f455243313135353a2063616c6c6572206973206e6f74206f776e6572206e6f7260448201526808185c1c1c9bdd995960ba1b6064820152608401610c0a565b6115cd85858585856142c7565b606060006008546001600160401b03811115613cf357613cf3615aa8565b604051908082528060200260200182016040528015613d1c578160200160208202803683370190505b50905060005b8151811015613d92576001600160a01b0384166000908152601660209081526040808320848452909152902054613d598583610ba2565b613d63919061595c565b828281518110613d7557613d75615a92565b602090810291909101015280613d8a81615a21565b915050613d22565b5092915050565b60006001600160e01b03198216637965db0b60e01b1480610c365750610c3682614656565b6001600160a01b038316613e205760405162461bcd60e51b815260206004820152602360248201527f455243313135353a206275726e2066726f6d20746865207a65726f206164647260448201526265737360e81b6064820152608401610c0a565b336000613e2c8461467b565b90506000613e398461467b565b60408051602080820183526000918290528882528181528282206001600160a01b038b1683529052205490915084811015613ec25760405162461bcd60e51b8152602060048201526024808201527f455243313135353a206275726e20616d6f756e7420657863656564732062616c604482015263616e636560e01b6064820152608401610c0a565b6000868152602081815260408083206001600160a01b038b81168086529184528285208a8703905582518b81529384018a9052909290881691600080516020615b88833981519152910160405180910390a46040805160208101909152600090525b50505050505050565b80600081518110613f4057613f40615a92565b6020026020010151600f819055505050565b6006546000906001600160a01b0383811691161480613f775750613f77600083612a4b565b613f8057600080fd5b506001919050565b613fa58260085483604051806020016040528060008152506146c6565b613fbe6008548260009182526010602052604090912055565b8060076000828254613fd09190615911565b92505081905550600160086000828254613fea9190615911565b90915550505050565b81518351146140555760405162461bcd60e51b815260206004820152602860248201527f455243313135353a2069647320616e6420616d6f756e7473206c656e677468206044820152670dad2e6dac2e8c6d60c31b6064820152608401610c0a565b6001600160a01b03841661407b5760405162461bcd60e51b8152600401610c0a9061579c565b3360005b845181101561416257600085828151811061409c5761409c615a92565b6020026020010151905060008583815181106140ba576140ba615a92565b602090810291909101810151600084815280835260408082206001600160a01b038e16835290935291909120549091508181101561410a5760405162461bcd60e51b8152600401610c0a90615818565b6000838152602081815260408083206001600160a01b038e8116855292528083208585039055908b16825281208054849290614147908490615911565b925050819055505050508061415b90615a21565b905061407f565b50846001600160a01b0316866001600160a01b0316826001600160a01b03167f4a39dc06d4c0dbc64b70af90fd698a233a518aa5d07e595d983b8c0526c8f7fb87876040516141b29291906155ff565b60405180910390a46141c88187878787876147bf565b505050505050565b61153a813361492a565b6141e48282612a4b565b6115075760008281526003602090815260408083206001600160a01b03851684529091529020805460ff1916600117905561421c3390565b6001600160a01b0316816001600160a01b0316837f2f8788117e7eff1d82e926ec794901d17c78024a50270940304540a733656f0d60405160405180910390a45050565b61426a8282612a4b565b156115075760008281526003602090815260408083206001600160a01b0385168085529252808320805460ff1916905551339285917ff6391f5c32d9c69d2a47ea670b442974b53935d1edc7fd64eb21e047a839171b9190a45050565b6001600160a01b0384166142ed5760405162461bcd60e51b8152600401610c0a9061579c565b3360006142f98561467b565b905060006143068561467b565b90506000868152602081815260408083206001600160a01b038c168452909152902054858110156143495760405162461bcd60e51b8152600401610c0a90615818565b6000878152602081815260408083206001600160a01b038d8116855292528083208985039055908a16825281208054889290614386908490615911565b909155505060408051888152602081018890526001600160a01b03808b16928c82169291881691600080516020615b88833981519152910160405180910390a46143d4848a8a8a8a8a61498e565b505050505050505050565b60005b600e5481101561150757816001600160a01b0316600e828154811061440957614409615a92565b60009182526020909120600460079092020101546001600160a01b0316141561451e57600e818154811061443f5761443f615a92565b90600052602060002090600702016001015460011461449357600e818154811061446b5761446b615a92565b600091825260208220600160079092020101805491614489836159a3565b919050555061451e565b600e81815481106144a6576144a6615a92565b6000918252602082206001600790920201018054916144c4836159a3565b91905055506000600e82815481106144de576144de615a92565b60009182526020808320600660079093020191909101805493151560ff199485161790556001600160a01b03851682526013905260409020805490911690555b8061452881615a21565b9150506143e2565b61150782826141da565b816001600160a01b0316836001600160a01b031614156145ae5760405162461bcd60e51b815260206004820152602960248201527f455243313135353a2073657474696e6720617070726f76616c20737461747573604482015268103337b91039b2b63360b91b6064820152608401610c0a565b6001600160a01b03838116600081815260016020908152604080832094871680845294825291829020805460ff191686151590811790915591519182527f17307eab39ab6107e8899845ad3d59bd9653f200f220920489ca2b5937696c31910160405180910390a3505050565b6000806146288484610ba2565b111561463657506001610c36565b506000610c36565b600081815260106020526040812054613f8057600080fd5b60006001600160e01b03198216630271189760e51b1480610c365750610c3682614a58565b604080516001808252818301909252606091600091906020808301908036833701905050905082816000815181106146b5576146b5615a92565b602090810291909101015292915050565b6001600160a01b0384166147265760405162461bcd60e51b815260206004820152602160248201527f455243313135353a206d696e7420746f20746865207a65726f206164647265736044820152607360f81b6064820152608401610c0a565b3360006147328561467b565b9050600061473f8561467b565b90506000868152602081815260408083206001600160a01b038b16845290915281208054879290614771908490615911565b909155505060408051878152602081018790526001600160a01b03808a169260009291871691600080516020615b88833981519152910160405180910390a4613f248360008989898961498e565b6001600160a01b0384163b156141c85760405163bc197c8160e01b81526001600160a01b0385169063bc197c81906148039089908990889088908890600401615435565b602060405180830381600087803b15801561481d57600080fd5b505af192505050801561484d575060408051601f3d908101601f1916820190925261484a9181019061516b565b60015b6148fa57614859615abe565b806308c379a01415614893575061486e615ada565b806148795750614895565b8060405162461bcd60e51b8152600401610c0a9190615655565b505b60405162461bcd60e51b815260206004820152603460248201527f455243313135353a207472616e7366657220746f206e6f6e20455243313135356044820152732932b1b2b4bb32b91034b6b83632b6b2b73a32b960611b6064820152608401610c0a565b6001600160e01b0319811663bc197c8160e01b14613f245760405162461bcd60e51b8152600401610c0a90615668565b6149348282612a4b565b6115075761494c816001600160a01b03166014614aa8565b614957836020614aa8565b604051602001614968929190615398565b60408051601f198184030181529082905262461bcd60e51b8252610c0a91600401615655565b6001600160a01b0384163b156141c85760405163f23a6e6160e01b81526001600160a01b0385169063f23a6e61906149d290899089908890889088906004016154b7565b602060405180830381600087803b1580156149ec57600080fd5b505af1925050508015614a1c575060408051601f3d908101601f19168201909252614a199181019061516b565b60015b614a2857614859615abe565b6001600160e01b0319811663f23a6e6160e01b14613f245760405162461bcd60e51b8152600401610c0a90615668565b60006001600160e01b03198216636cdb3d1360e11b1480614a8957506001600160e01b031982166303a24d0760e21b145b80610c3657506301ffc9a760e01b6001600160e01b0319831614610c36565b60606000614ab783600261593d565b614ac2906002615911565b6001600160401b03811115614ad957614ad9615aa8565b6040519080825280601f01601f191660200182016040528015614b03576020820181803683370190505b509050600360fc1b81600081518110614b1e57614b1e615a92565b60200101906001600160f81b031916908160001a905350600f60fb1b81600181518110614b4d57614b4d615a92565b60200101906001600160f81b031916908160001a9053506000614b7184600261593d565b614b7c906001615911565b90505b6001811115614bf4576f181899199a1a9b1b9c1cb0b131b232b360811b85600f1660108110614bb057614bb0615a92565b1a60f81b828281518110614bc657614bc6615a92565b60200101906001600160f81b031916908160001a90535060049490941c93614bed816159a3565b9050614b7f565b50831561351a5760405162461bcd60e51b815260206004820181905260248201527f537472696e67733a20686578206c656e67746820696e73756666696369656e746044820152606401610c0a565b6040518060a0016040528060008152602001600081526020016000815260200160006001600160a01b031681526020016000151581525090565b828054614c89906159ba565b90600052602060002090601f016020900481019282614cab5760008555614cf1565b82601f10614cc457805160ff1916838001178555614cf1565b82800160010185558215614cf1579182015b82811115614cf1578251825591602001919060010190614cd6565b50614cfd929150614d49565b5090565b6040518060e001604052806000815260200160008152602001600081526020016000815260200160006001600160a01b03168152602001600081526020016000151581525090565b5b80821115614cfd5760008155600101614d4a565b60006001600160401b03831115614d7757614d77615aa8565b604051614d8e601f8501601f1916602001826159f5565b809150838152848484011115614da357600080fd5b83836020830137600060208583010152509392505050565b80356001600160a01b03811681146129ec57600080fd5b600082601f830112614de357600080fd5b81356020614df0826158ee565b604051614dfd82826159f5565b8381528281019150858301600585901b87018401881015614e1d57600080fd5b60005b85811015614e3c57813584529284019290840190600101614e20565b5090979650505050505050565b600082601f830112614e5a57600080fd5b61351a83833560208501614d5e565b600060208284031215614e7b57600080fd5b61351a82614dbb565b60008060408385031215614e9757600080fd5b614ea083614dbb565b9150614eae60208401614dbb565b90509250929050565b600080600080600060a08688031215614ecf57600080fd5b614ed886614dbb565b9450614ee660208701614dbb565b935060408601356001600160401b0380821115614f0257600080fd5b614f0e89838a01614dd2565b94506060880135915080821115614f2457600080fd5b614f3089838a01614dd2565b93506080880135915080821115614f4657600080fd5b50614f5388828901614e49565b9150509295509295909350565b600080600080600060a08688031215614f7857600080fd5b614f8186614dbb565b9450614f8f60208701614dbb565b9350604086013592506060860135915060808601356001600160401b03811115614fb857600080fd5b614f5388828901614e49565b60008060408385031215614fd757600080fd5b614fe083614dbb565b91506020830135614ff081615b63565b809150509250929050565b6000806040838503121561500e57600080fd5b61501783614dbb565b946020939093013593505050565b6000806040838503121561503857600080fd5b82356001600160401b038082111561504f57600080fd5b818501915085601f83011261506357600080fd5b81356020615070826158ee565b60405161507d82826159f5565b8381528281019150858301600585901b870184018b101561509d57600080fd5b600096505b848710156150c7576150b381614dbb565b8352600196909601959183019183016150a2565b50965050860135925050808211156150de57600080fd5b506150eb85828601614dd2565b9150509250929050565b60006020828403121561510757600080fd5b815161351a81615b63565b60006020828403121561512457600080fd5b5035919050565b6000806040838503121561513e57600080fd5b82359150614eae60208401614dbb565b60006020828403121561516057600080fd5b813561351a81615b71565b60006020828403121561517d57600080fd5b815161351a81615b71565b60006020828403121561519a57600080fd5b5051919050565b600080604083850312156151b457600080fd5b8235915060208301356001600160401b038111156151d157600080fd5b6150eb85828601614dd2565b600080604083850312156151f057600080fd5b8235915060208301356001600160401b0381111561520d57600080fd5b8301601f8101851361521e57600080fd5b6150eb85823560208401614d5e565b6000806040838503121561524057600080fd5b50508035926020909101359150565b60008060006060848603121561526457600080fd5b505081359360208301359350604090920135919050565b6000806000806080858703121561529157600080fd5b5050823594602084013594506040840135936060013592509050565b600081518084526020808501945080840160005b838110156152dd578151875295820195908201906001016152c1565b509495945050505050565b60008151808452615300816020860160208601615973565b601f01601f19169290920160200192915050565b805182526020808201519083015260408082015190830152606080820151908301526080808201516001600160a01b03169083015260a0808201519083015260c0908101511515910152565b8051825260208082015190830152604080820151908301526060808201516001600160a01b0316908301526080908101511515910152565b76020b1b1b2b9b9a1b7b73a3937b61d1030b1b1b7bab73a1604d1b8152600083516153ca816017850160208801615973565b7001034b99036b4b9b9b4b733903937b6329607d1b60179184019182015283516153fb816028840160208801615973565b01602801949350505050565b6001600160a01b0391909116815260200190565b6001600160a01b0392831681529116602082015260400190565b6001600160a01b0386811682528516602082015260a060408201819052600090615461908301866152ad565b828103606084015261547381866152ad565b9050828103608084015261548781856152e8565b98975050505050505050565b6001600160a01b039384168152919092166020820152604081019190915260600190565b6001600160a01b03868116825285166020820152604081018490526060810183905260a0608082018190526000906154f1908301846152e8565b979650505050505050565b6001600160a01b03929092168252602082015260400190565b6001600160a01b039390931683526020830191909152604082015260600190565b6001600160a01b0394909416845260208401929092526040830152606082015260800190565b6020808252825182820181905260009190848201906040850190845b8181101561559e5761558b838551615314565b9284019260e09290920191600101615578565b50909695505050505050565b6020808252825182820181905260009190848201906040850190845b8181101561559e576155d9838551615360565b9284019260a092909201916001016155c6565b60208152600061351a60208301846152ad565b60408152600061561260408301856152ad565b828103602084015261562481856152ad565b95945050505050565b602081016002831061564f57634e487b7160e01b600052602160045260246000fd5b91905290565b60208152600061351a60208301846152e8565b60208082526028908201527f455243313135353a204552433131353552656365697665722072656a656374656040820152676420746f6b656e7360c01b606082015260800190565b6020808252818101527f55736572206973206e6f74206f776e6572206f662074686973207469636b6574604082015260600190565b60208082526026908201527f55736572206973206e6f742063757272656e746c792073656c6c696e67206120604082015265151a58dad95d60d21b606082015260800190565b6020808252601490820152734e6f2066756e647320746f20776974686472617760601b604082015260600190565b60208082526023908201527f596f7520617265206e6f7420746865206f776e6572206f66207468697320697460408201526232b69760e91b606082015260800190565b60208082526025908201527f455243313135353a207472616e7366657220746f20746865207a65726f206164604082015264647265737360d81b606082015260800190565b6020808252601d908201527f5573657220646f6573206e6f74206f776e732061204d7243727970746f000000604082015260600190565b6020808252602a908201527f455243313135353a20696e73756666696369656e742062616c616e636520666f60408201526939103a3930b739b332b960b11b606082015260800190565b60208082526021908201527f55736572206973206e6f7420746865204f776e6572206f7220616e2041646d696040820152603760f91b606082015260800190565b6020808252601590820152742ab9b2b91034b9903737ba103a34329037bbb732b960591b604082015260600190565b60e08101610c368284615314565b60a08101610c368284615360565b60006001600160401b0382111561590757615907615aa8565b5060051b60200190565b6000821982111561592457615924615a50565b500190565b60008261593857615938615a66565b500490565b600081600019048311821515161561595757615957615a50565b500290565b60008282101561596e5761596e615a50565b500390565b60005b8381101561598e578181015183820152602001615976565b8381111561599d576000848401525b50505050565b6000816159b2576159b2615a50565b506000190190565b600181811c908216806159ce57607f821691505b602082108114156159ef57634e487b7160e01b600052602260045260246000fd5b50919050565b601f8201601f191681016001600160401b0381118282101715615a1a57615a1a615aa8565b6040525050565b6000600019821415615a3557615a35615a50565b5060010190565b600082615a4b57615a4b615a66565b500690565b634e487b7160e01b600052601160045260246000fd5b634e487b7160e01b600052601260045260246000fd5b634e487b7160e01b600052602160045260246000fd5b634e487b7160e01b600052603260045260246000fd5b634e487b7160e01b600052604160045260246000fd5b600060033d1115615ad75760046000803e5060005160e01c5b90565b600060443d1015615ae85790565b6040516003193d81016004833e81513d6001600160401b038160248401118184111715615b1757505050505090565b8285019150815181811115615b2f5750505050505090565b843d8701016020828501011115615b495750505050505090565b615b58602082860101876159f5565b509095945050505050565b801515811461153a57600080fd5b6001600160e01b03198116811461153a57600080fdfec3d58168c5ae7397731d063d5bbf3d657854427343f4c083240f7aacaa2d0f62a2646970667358221220608fd6f585a2f77f85275024d90facd38bf26aac4c29714a21cc50afee2a0ee564736f6c63430008070033",
  "devdoc": {
    "kind": "dev",
    "methods": {
      "_randomNumber()": {
        "details": "Uses Chainlink VRF -> call requestRandomWords method by using o_vrfCoordinator object set as internal because is going to be called only when a case is opened"
      },
      "_rarityOfItem(uint256)": {
        "details": "- Requires that tokenId exists (item is listed) - chance is calculated as item supply divided by total items supply"
      },
      "balanceOf(address,uint256)": {
        "details": "See {IERC1155-balanceOf}. Requirements: - `account` cannot be the zero address."
      },
      "balanceOfBatch(address[],uint256[])": {
        "details": "See {IERC1155-balanceOfBatch}. Requirements: - `accounts` and `ids` must have the same length."
      },
      "buyItem(uint256)": {
        "details": "- Needs to check that user is not trying to buy its own item - Needs to check that item was not sold before - Needs to transfer tokens from buyer to seller - Needs to transfer item from seller to buyer - Update sold attribute from array - Emit event "
      },
      "buyTicket(uint256)": {
        "details": "- Should check that user is NOT Vip -> does make sense that a VIP user buys a ticket - Should check that user has a listed ticket - Transfer RacksToken from buyer to seller - Update mappings variables - Emit event"
      },
      "changeItemPrice(uint256,uint256)": {
        "details": "- Needs to check that user is trying to unlist an item he owns - Needs to update price status - Emit event"
      },
      "changeTicketConditions(uint256,uint256,uint256,uint256)": {
        "details": "- Should check that user is Vip (Modifier) - Should check that user has a listed ticket - Emit event"
      },
      "claimTicketBack(uint256)": {
        "details": "- Check that claimer is lending a Ticket - Check that duration of the Ticket is over -> block.timestamp is in seconds and duration in hours  -> transform duration into seconds  - Update mappings - Emit event"
      },
      "flipContractState()": {
        "details": "Only callable by the Owner or an admin"
      },
      "getRoleAdmin(bytes32)": {
        "details": "Returns the admin role that controls `role`. See {grantRole} and {revokeRole}. To change a role's admin, use {_setRoleAdmin}."
      },
      "getTicketDurationLeft(uint256)": {
        "details": "This function returns 2 parameters - uint256: timeLeft  - bool: false if numTries == 0         true if numTries > 0"
      },
      "grantRole(bytes32,address)": {
        "details": "Grants `role` to `account`. If `account` had not been already granted `role`, emits a {RoleGranted} event. Requirements: - the caller must have ``role``'s admin role."
      },
      "hasRole(bytes32,address)": {
        "details": "Returns `true` if `account` has been granted `role`."
      },
      "isApprovedForAll(address,address)": {
        "details": "See {IERC1155-isApprovedForAll}."
      },
      "isVip(address)": {
        "details": "- Require users MrCrypro's balance is > 0"
      },
      "listItem(uint256)": {
        "details": "Only callable by the Owner"
      },
      "listItemOnMarket(uint256,uint256)": {
        "details": "- Needs to check balanceOf item trying to be sold - Needs to check if user has correctly done an Approve for the item transfer in case it is sold - Needs to transfer item  - Update s_marketInventory - Update marketItems array - Emit event "
      },
      "listTicket(uint256,uint256,uint256)": {
        "details": "- Should check that user is Vip (Modifier) - Check is user has had a ticket before     - If so: check that is has ticket now     - if not: create ticket (first ticket in live for this user) - Should check that user is NOT currently selling another ticket -> Users can only sell 1 ticket at the same time - Include ticket on array - Increase s_ticketCount - Set mapping to true - Emit event"
      },
      "openCase()": {
        "details": " - Should check that user owns a Ticket -> modifier - Should check that msg.value is bigger than casePrice - Should transfer msg.value to the contract - Internally calls randomNumber()  - Apply modular function for the randomNumber to be between 0 and totalSupply of items - Should choose an item"
      },
      "renounceRole(bytes32,address)": {
        "details": "Revokes `role` from the calling account. Roles are often managed via {grantRole} and {revokeRole}: this function's purpose is to provide a mechanism for accounts to lose their privileges if they are compromised (such as when a trusted device is misplaced). If the calling account had been revoked `role`, emits a {RoleRevoked} event. Requirements: - the caller must be `account`."
      },
      "revokeRole(bytes32,address)": {
        "details": "Revokes `role` from `account`. If `account` had been granted `role`, emits a {RoleRevoked} event. Requirements: - the caller must have ``role``'s admin role."
      },
      "safeBatchTransferFrom(address,address,uint256[],uint256[],bytes)": {
        "details": "See {IERC1155-safeBatchTransferFrom}."
      },
      "safeTransferFrom(address,address,uint256,uint256,bytes)": {
        "details": "See {IERC1155-safeTransferFrom}."
      },
      "setAdmin(address)": {
        "details": "Only callable by the Owner"
      },
      "setApprovalForAll(address,bool)": {
        "details": "See {IERC1155-setApprovalForAll}."
      },
      "setCasePrice(uint256)": {
        "details": "Only callable by the Owner"
      },
      "setTokenUri(uint256,string)": {
        "details": "- Only Owner or Admins can call this function - Need to specify:  - tokenId: specific item you want to set its uri  - uri: uri wanted to be set"
      },
      "supplyOfItem(uint256)": {
        "details": "- Getter of s_maxSupply mapping"
      },
      "unListItem(uint256)": {
        "details": "- Needs to check that user is trying to unlist an item he owns - Update marketInventory - Update item's sold variable - Emit event"
      },
      "unListTicket(uint256)": {
        "details": "- Should check that user is Vip (Modifier) - Should check that user has a listed ticket - Emit event"
      },
      "uri(uint256)": {
        "details": "- returns information stored in s_uris mapping - Any user can check this information"
      },
      "viewItems(address)": {
        "details": "Copy users inventory in an empty array and returns it"
      },
      "withdrawAllFunds(address)": {
        "details": " - Only owner is able to call this function - Should check that there are avaliable funds to withdraw - Should specify the wallet address you want to transfer the funds to"
      },
      "withdrawFunds(address,uint256)": {
        "details": " - Only owner is able to call this function - Should check that there are avaliable funds to withdraw - Should specify the wallet address you want to transfer the funds to - Should specify the amount of funds you want to transfer"
      }
    },
    "version": 1
  },
  "userdoc": {
    "events": {
      "CaseOpened(address,uint256,uint256)": {
        "notice": "Events"
      }
    },
    "kind": "user",
    "methods": {
      "ADMIN_ROLE()": {
        "notice": "Standard variables"
      },
      "_randomNumber()": {
        "notice": "Used to get an actually Random Number -> to pick an item when openning a case"
      },
      "_rarityOfItem(uint256)": {
        "notice": "Calculate chance of receiving an specific item - As higher is result higher is the rarity of the item"
      },
      "buyItem(uint256)": {
        "notice": "Function used to buy an item on the marketplace"
      },
      "buyTicket(uint256)": {
        "notice": "This function is used to buy a caseTicket"
      },
      "caseLiquidity()": {
        "notice": "Returns all the items the case can drop"
      },
      "changeItemPrice(uint256,uint256)": {
        "notice": "Function used to change price from item listed "
      },
      "changeTicketConditions(uint256,uint256,uint256,uint256)": {
        "notice": "This function is used for a VIP user to change 'Case Tickets' price and tries on the MarketPlace"
      },
      "claimTicketBack(uint256)": {
        "notice": "Function used to claim Ticket back when duration is over"
      },
      "exchangeItem(uint256)": {
        "notice": "Function used to exchange a token item for a real physical clothe."
      },
      "flipContractState()": {
        "notice": "Change contract state from Active to Inactive and viceversa"
      },
      "getITicketsOnSale()": {
        "notice": "Function used to return every ticket that are currently on sale"
      },
      "getItemsOnSale()": {
        "notice": "function used to return every item that is on sale on the MarketPlace"
      },
      "getMarketItem(uint256)": {
        "notice": "Function used to return items that are currently on sale"
      },
      "getMarketTicket(uint256)": {
        "notice": "Function used to return ticket that are currently on sale"
      },
      "getTicketDurationLeft(uint256)": {
        "notice": "Function used to view how much time is left for lended Ticket"
      },
      "i_vrfCoordinator()": {
        "notice": "VRF Variables"
      },
      "isVip(address)": {
        "notice": "Check if user owns at least 1 MrCrypto"
      },
      "listItem(uint256)": {
        "notice": "List a new item to the avaliable collection"
      },
      "listItemOnMarket(uint256,uint256)": {
        "notice": "Function used to sell an item on the marketplace"
      },
      "listTicket(uint256,uint256,uint256)": {
        "notice": "This function is used for a VIP user to list 'Case Tickets' on the MarketPlace"
      },
      "openCase()": {
        "notice": "Function used to 'open a case' and get an item"
      },
      "setAdmin(address)": {
        "notice": "Set new Admin"
      },
      "setCasePrice(uint256)": {
        "notice": "Change price of the box"
      },
      "setTokenUri(uint256,string)": {
        "notice": "Used to set tokenURI to specific item "
      },
      "supplyOfItem(uint256)": {
        "notice": "Returns maxSupply of specific item (by tokenId)"
      },
      "supportsInterface(bytes4)": {
        "notice": "Need to override supportsInterface function because Contract is ERC1155 and AccessControl"
      },
      "unListItem(uint256)": {
        "notice": "Function used to unlist an item from marketplace"
      },
      "unListTicket(uint256)": {
        "notice": "This function is used for a VIP user to unlist 'Case Tickets' on the MarketPlace"
      },
      "uri(uint256)": {
        "notice": "Used to return token URI by inserting tokenID"
      },
      "viewItems(address)": {
        "notice": "Returns all the items inside the user's inventory without the ones on Market Sale(Could be used by the user to check his inventory or to check someone else inventory by address)"
      },
      "withdrawAllFunds(address)": {
        "notice": "Used to withdraw ALL funds"
      },
      "withdrawFunds(address,uint256)": {
        "notice": "Used to withdraw specific amount of funds"
      }
    },
    "version": 1
  },
  "storageLayout": {
    "storage": [
      {
        "astId": 670,
        "contract": "contracts/RacksItemsv4.sol:RacksItemsv4",
        "label": "_balances",
        "offset": 0,
        "slot": "0",
        "type": "t_mapping(t_uint256,t_mapping(t_address,t_uint256))"
      },
      {
        "astId": 676,
        "contract": "contracts/RacksItemsv4.sol:RacksItemsv4",
        "label": "_operatorApprovals",
        "offset": 0,
        "slot": "1",
        "type": "t_mapping(t_address,t_mapping(t_address,t_bool))"
      },
      {
        "astId": 678,
        "contract": "contracts/RacksItemsv4.sol:RacksItemsv4",
        "label": "_uri",
        "offset": 0,
        "slot": "2",
        "type": "t_string_storage"
      },
      {
        "astId": 171,
        "contract": "contracts/RacksItemsv4.sol:RacksItemsv4",
        "label": "_roles",
        "offset": 0,
        "slot": "3",
        "type": "t_mapping(t_bytes32,t_struct(RoleData)166_storage)"
      },
      {
        "astId": 10253,
        "contract": "contracts/RacksItemsv4.sol:RacksItemsv4",
        "label": "MR_CRYPTO",
        "offset": 0,
        "slot": "4",
        "type": "t_contract(IERC721Enumerable)3850"
      },
      {
        "astId": 10256,
        "contract": "contracts/RacksItemsv4.sol:RacksItemsv4",
        "label": "racksToken",
        "offset": 0,
        "slot": "5",
        "type": "t_contract(IERC20)2794"
      },
      {
        "astId": 10262,
        "contract": "contracts/RacksItemsv4.sol:RacksItemsv4",
        "label": "_owner",
        "offset": 0,
        "slot": "6",
        "type": "t_address"
      },
      {
        "astId": 10264,
        "contract": "contracts/RacksItemsv4.sol:RacksItemsv4",
        "label": "s_maxTotalSupply",
        "offset": 0,
        "slot": "7",
        "type": "t_uint256"
      },
      {
        "astId": 10266,
        "contract": "contracts/RacksItemsv4.sol:RacksItemsv4",
        "label": "s_tokenCount",
        "offset": 0,
        "slot": "8",
        "type": "t_uint256"
      },
      {
        "astId": 10268,
        "contract": "contracts/RacksItemsv4.sol:RacksItemsv4",
        "label": "_marketCount",
        "offset": 0,
        "slot": "9",
        "type": "t_uint256"
      },
      {
        "astId": 10270,
        "contract": "contracts/RacksItemsv4.sol:RacksItemsv4",
        "label": "s_ticketCount",
        "offset": 0,
        "slot": "10",
        "type": "t_uint256"
      },
      {
        "astId": 10272,
        "contract": "contracts/RacksItemsv4.sol:RacksItemsv4",
        "label": "casePrice",
        "offset": 0,
        "slot": "11",
        "type": "t_uint256"
      },
      {
        "astId": 10275,
        "contract": "contracts/RacksItemsv4.sol:RacksItemsv4",
        "label": "s_contractState",
        "offset": 0,
        "slot": "12",
        "type": "t_enum(ContractState)10249"
      },
      {
        "astId": 10279,
        "contract": "contracts/RacksItemsv4.sol:RacksItemsv4",
        "label": "_marketItems",
        "offset": 0,
        "slot": "13",
        "type": "t_array(t_struct(itemOnSale)4446_storage)dyn_storage"
      },
      {
        "astId": 10283,
        "contract": "contracts/RacksItemsv4.sol:RacksItemsv4",
        "label": "_tickets",
        "offset": 0,
        "slot": "14",
        "type": "t_array(t_struct(caseTicket)4461_storage)dyn_storage"
      },
      {
        "astId": 10301,
        "contract": "contracts/RacksItemsv4.sol:RacksItemsv4",
        "label": "s_randomWord",
        "offset": 0,
        "slot": "15",
        "type": "t_uint256"
      },
      {
        "astId": 10306,
        "contract": "contracts/RacksItemsv4.sol:RacksItemsv4",
        "label": "s_maxSupply",
        "offset": 0,
        "slot": "16",
        "type": "t_mapping(t_uint256,t_uint256)"
      },
      {
        "astId": 10310,
        "contract": "contracts/RacksItemsv4.sol:RacksItemsv4",
        "label": "s_uris",
        "offset": 0,
        "slot": "17",
        "type": "t_mapping(t_uint256,t_string_storage)"
      },
      {
        "astId": 10314,
        "contract": "contracts/RacksItemsv4.sol:RacksItemsv4",
        "label": "s_isSellingTicket",
        "offset": 0,
        "slot": "18",
        "type": "t_mapping(t_address,t_bool)"
      },
      {
        "astId": 10318,
        "contract": "contracts/RacksItemsv4.sol:RacksItemsv4",
        "label": "s_hasTicket",
        "offset": 0,
        "slot": "19",
        "type": "t_mapping(t_address,t_bool)"
      },
      {
        "astId": 10322,
        "contract": "contracts/RacksItemsv4.sol:RacksItemsv4",
        "label": "s_hadTicket",
        "offset": 0,
        "slot": "20",
        "type": "t_mapping(t_address,t_bool)"
      },
      {
        "astId": 10326,
        "contract": "contracts/RacksItemsv4.sol:RacksItemsv4",
        "label": "s_ticketIsLended",
        "offset": 0,
        "slot": "21",
        "type": "t_mapping(t_address,t_bool)"
      },
      {
        "astId": 10332,
        "contract": "contracts/RacksItemsv4.sol:RacksItemsv4",
        "label": "s_marketInventory",
        "offset": 0,
        "slot": "22",
        "type": "t_mapping(t_address,t_mapping(t_uint256,t_uint256))"
      }
    ],
    "types": {
      "t_address": {
        "encoding": "inplace",
        "label": "address",
        "numberOfBytes": "20"
      },
      "t_array(t_struct(caseTicket)4461_storage)dyn_storage": {
        "base": "t_struct(caseTicket)4461_storage",
        "encoding": "dynamic_array",
        "label": "struct IRacksItems.caseTicket[]",
        "numberOfBytes": "32"
      },
      "t_array(t_struct(itemOnSale)4446_storage)dyn_storage": {
        "base": "t_struct(itemOnSale)4446_storage",
        "encoding": "dynamic_array",
        "label": "struct IRacksItems.itemOnSale[]",
        "numberOfBytes": "32"
      },
      "t_bool": {
        "encoding": "inplace",
        "label": "bool",
        "numberOfBytes": "1"
      },
      "t_bytes32": {
        "encoding": "inplace",
        "label": "bytes32",
        "numberOfBytes": "32"
      },
      "t_contract(IERC20)2794": {
        "encoding": "inplace",
        "label": "contract IERC20",
        "numberOfBytes": "20"
      },
      "t_contract(IERC721Enumerable)3850": {
        "encoding": "inplace",
        "label": "contract IERC721Enumerable",
        "numberOfBytes": "20"
      },
      "t_enum(ContractState)10249": {
        "encoding": "inplace",
        "label": "enum RacksItemsv4.ContractState",
        "numberOfBytes": "1"
      },
      "t_mapping(t_address,t_bool)": {
        "encoding": "mapping",
        "key": "t_address",
        "label": "mapping(address => bool)",
        "numberOfBytes": "32",
        "value": "t_bool"
      },
      "t_mapping(t_address,t_mapping(t_address,t_bool))": {
        "encoding": "mapping",
        "key": "t_address",
        "label": "mapping(address => mapping(address => bool))",
        "numberOfBytes": "32",
        "value": "t_mapping(t_address,t_bool)"
      },
      "t_mapping(t_address,t_mapping(t_uint256,t_uint256))": {
        "encoding": "mapping",
        "key": "t_address",
        "label": "mapping(address => mapping(uint256 => uint256))",
        "numberOfBytes": "32",
        "value": "t_mapping(t_uint256,t_uint256)"
      },
      "t_mapping(t_address,t_uint256)": {
        "encoding": "mapping",
        "key": "t_address",
        "label": "mapping(address => uint256)",
        "numberOfBytes": "32",
        "value": "t_uint256"
      },
      "t_mapping(t_bytes32,t_struct(RoleData)166_storage)": {
        "encoding": "mapping",
        "key": "t_bytes32",
        "label": "mapping(bytes32 => struct AccessControl.RoleData)",
        "numberOfBytes": "32",
        "value": "t_struct(RoleData)166_storage"
      },
      "t_mapping(t_uint256,t_mapping(t_address,t_uint256))": {
        "encoding": "mapping",
        "key": "t_uint256",
        "label": "mapping(uint256 => mapping(address => uint256))",
        "numberOfBytes": "32",
        "value": "t_mapping(t_address,t_uint256)"
      },
      "t_mapping(t_uint256,t_string_storage)": {
        "encoding": "mapping",
        "key": "t_uint256",
        "label": "mapping(uint256 => string)",
        "numberOfBytes": "32",
        "value": "t_string_storage"
      },
      "t_mapping(t_uint256,t_uint256)": {
        "encoding": "mapping",
        "key": "t_uint256",
        "label": "mapping(uint256 => uint256)",
        "numberOfBytes": "32",
        "value": "t_uint256"
      },
      "t_string_storage": {
        "encoding": "bytes",
        "label": "string",
        "numberOfBytes": "32"
      },
      "t_struct(RoleData)166_storage": {
        "encoding": "inplace",
        "label": "struct AccessControl.RoleData",
        "members": [
          {
            "astId": 163,
            "contract": "contracts/RacksItemsv4.sol:RacksItemsv4",
            "label": "members",
            "offset": 0,
            "slot": "0",
            "type": "t_mapping(t_address,t_bool)"
          },
          {
            "astId": 165,
            "contract": "contracts/RacksItemsv4.sol:RacksItemsv4",
            "label": "adminRole",
            "offset": 0,
            "slot": "1",
            "type": "t_bytes32"
          }
        ],
        "numberOfBytes": "64"
      },
      "t_struct(caseTicket)4461_storage": {
        "encoding": "inplace",
        "label": "struct IRacksItems.caseTicket",
        "members": [
          {
            "astId": 4448,
            "contract": "contracts/RacksItemsv4.sol:RacksItemsv4",
            "label": "ticketId",
            "offset": 0,
            "slot": "0",
            "type": "t_uint256"
          },
          {
            "astId": 4450,
            "contract": "contracts/RacksItemsv4.sol:RacksItemsv4",
            "label": "numTries",
            "offset": 0,
            "slot": "1",
            "type": "t_uint256"
          },
          {
            "astId": 4452,
            "contract": "contracts/RacksItemsv4.sol:RacksItemsv4",
            "label": "duration",
            "offset": 0,
            "slot": "2",
            "type": "t_uint256"
          },
          {
            "astId": 4454,
            "contract": "contracts/RacksItemsv4.sol:RacksItemsv4",
            "label": "price",
            "offset": 0,
            "slot": "3",
            "type": "t_uint256"
          },
          {
            "astId": 4456,
            "contract": "contracts/RacksItemsv4.sol:RacksItemsv4",
            "label": "owner",
            "offset": 0,
            "slot": "4",
            "type": "t_address"
          },
          {
            "astId": 4458,
            "contract": "contracts/RacksItemsv4.sol:RacksItemsv4",
            "label": "timeWhenSold",
            "offset": 0,
            "slot": "5",
            "type": "t_uint256"
          },
          {
            "astId": 4460,
            "contract": "contracts/RacksItemsv4.sol:RacksItemsv4",
            "label": "isAvaliable",
            "offset": 0,
            "slot": "6",
            "type": "t_bool"
          }
        ],
        "numberOfBytes": "224"
      },
      "t_struct(itemOnSale)4446_storage": {
        "encoding": "inplace",
        "label": "struct IRacksItems.itemOnSale",
        "members": [
          {
            "astId": 4437,
            "contract": "contracts/RacksItemsv4.sol:RacksItemsv4",
            "label": "tokenId",
            "offset": 0,
            "slot": "0",
            "type": "t_uint256"
          },
          {
            "astId": 4439,
            "contract": "contracts/RacksItemsv4.sol:RacksItemsv4",
            "label": "marketItemId",
            "offset": 0,
            "slot": "1",
            "type": "t_uint256"
          },
          {
            "astId": 4441,
            "contract": "contracts/RacksItemsv4.sol:RacksItemsv4",
            "label": "price",
            "offset": 0,
            "slot": "2",
            "type": "t_uint256"
          },
          {
            "astId": 4443,
            "contract": "contracts/RacksItemsv4.sol:RacksItemsv4",
            "label": "itemOwner",
            "offset": 0,
            "slot": "3",
            "type": "t_address"
          },
          {
            "astId": 4445,
            "contract": "contracts/RacksItemsv4.sol:RacksItemsv4",
            "label": "isOnSale",
            "offset": 20,
            "slot": "3",
            "type": "t_bool"
          }
        ],
        "numberOfBytes": "128"
      },
      "t_uint256": {
        "encoding": "inplace",
        "label": "uint256",
        "numberOfBytes": "32"
      }
    }
  }
}