{
  "_format": "hh-sol-artifact-1",
  "contractName": "MockMrCryptoToken",
  "sourceName": "contracts/MockMrCryptoToken.sol",
  "abi": [
    {
      "anonymous": false,
      "inputs": [
        {
          "indexed": true,
          "internalType": "address",
          "name": "owner",
          "type": "address"
        },
        {
          "indexed": true,
          "internalType": "address",
          "name": "approved",
          "type": "address"
        },
        {
          "indexed": true,
          "internalType": "uint256",
          "name": "tokenId",
          "type": "uint256"
        }
      ],
      "name": "Approval",
      "type": "event"
    },
    {
      "anonymous": false,
      "inputs": [
        {
          "indexed": true,
          "internalType": "address",
          "name": "owner",
          "type": "address"
        },
        {
          "indexed": true,
          "internalType": "address",
          "name": "operator",
          "type": "address"
        },
        {
          "indexed": false,
          "internalType": "bool",
          "name": "approved",
          "type": "bool"
        }
      ],
      "name": "ApprovalForAll",
      "type": "event"
    },
    {
      "anonymous": false,
      "inputs": [
        {
          "indexed": true,
          "internalType": "address",
          "name": "previousOwner",
          "type": "address"
        },
        {
          "indexed": true,
          "internalType": "address",
          "name": "newOwner",
          "type": "address"
        }
      ],
      "name": "OwnershipTransferred",
      "type": "event"
    },
    {
      "anonymous": false,
      "inputs": [
        {
          "indexed": true,
          "internalType": "address",
          "name": "from",
          "type": "address"
        },
        {
          "indexed": true,
          "internalType": "address",
          "name": "to",
          "type": "address"
        },
        {
          "indexed": true,
          "internalType": "uint256",
          "name": "tokenId",
          "type": "uint256"
        }
      ],
      "name": "Transfer",
      "type": "event"
    },
    {
      "inputs": [
        {
          "internalType": "address",
          "name": "to",
          "type": "address"
        },
        {
          "internalType": "uint256",
          "name": "tokenId",
          "type": "uint256"
        }
      ],
      "name": "approve",
      "outputs": [],
      "stateMutability": "nonpayable",
      "type": "function"
    },
    {
      "inputs": [
        {
          "internalType": "address",
          "name": "owner",
          "type": "address"
        }
      ],
      "name": "balanceOf",
      "outputs": [
        {
          "internalType": "uint256",
          "name": "",
          "type": "uint256"
        }
      ],
      "stateMutability": "view",
      "type": "function"
    },
    {
      "inputs": [
        {
          "internalType": "uint256",
          "name": "tokenId",
          "type": "uint256"
        }
      ],
      "name": "getApproved",
      "outputs": [
        {
          "internalType": "address",
          "name": "",
          "type": "address"
        }
      ],
      "stateMutability": "view",
      "type": "function"
    },
    {
      "inputs": [
        {
          "internalType": "address",
          "name": "owner",
          "type": "address"
        },
        {
          "internalType": "address",
          "name": "operator",
          "type": "address"
        }
      ],
      "name": "isApprovedForAll",
      "outputs": [
        {
          "internalType": "bool",
          "name": "",
          "type": "bool"
        }
      ],
      "stateMutability": "view",
      "type": "function"
    },
    {
      "inputs": [
        {
          "internalType": "address",
          "name": "_to",
          "type": "address"
        },
        {
          "internalType": "uint256",
          "name": "tokenId",
          "type": "uint256"
        }
      ],
      "name": "mint",
      "outputs": [],
      "stateMutability": "nonpayable",
      "type": "function"
    },
    {
      "inputs": [],
      "name": "name",
      "outputs": [
        {
          "internalType": "string",
          "name": "",
          "type": "string"
        }
      ],
      "stateMutability": "view",
      "type": "function"
    },
    {
      "inputs": [],
      "name": "owner",
      "outputs": [
        {
          "internalType": "address",
          "name": "",
          "type": "address"
        }
      ],
      "stateMutability": "view",
      "type": "function"
    },
    {
      "inputs": [
        {
          "internalType": "uint256",
          "name": "tokenId",
          "type": "uint256"
        }
      ],
      "name": "ownerOf",
      "outputs": [
        {
          "internalType": "address",
          "name": "",
          "type": "address"
        }
      ],
      "stateMutability": "view",
      "type": "function"
    },
    {
      "inputs": [],
      "name": "renounceOwnership",
      "outputs": [],
      "stateMutability": "nonpayable",
      "type": "function"
    },
    {
      "inputs": [
        {
          "internalType": "address",
          "name": "from",
          "type": "address"
        },
        {
          "internalType": "address",
          "name": "to",
          "type": "address"
        },
        {
          "internalType": "uint256",
          "name": "tokenId",
          "type": "uint256"
        }
      ],
      "name": "safeTransferFrom",
      "outputs": [],
      "stateMutability": "nonpayable",
      "type": "function"
    },
    {
      "inputs": [
        {
          "internalType": "address",
          "name": "from",
          "type": "address"
        },
        {
          "internalType": "address",
          "name": "to",
          "type": "address"
        },
        {
          "internalType": "uint256",
          "name": "tokenId",
          "type": "uint256"
        },
        {
          "internalType": "bytes",
          "name": "_data",
          "type": "bytes"
        }
      ],
      "name": "safeTransferFrom",
      "outputs": [],
      "stateMutability": "nonpayable",
      "type": "function"
    },
    {
      "inputs": [
        {
          "internalType": "address",
          "name": "operator",
          "type": "address"
        },
        {
          "internalType": "bool",
          "name": "approved",
          "type": "bool"
        }
      ],
      "name": "setApprovalForAll",
      "outputs": [],
      "stateMutability": "nonpayable",
      "type": "function"
    },
    {
      "inputs": [
        {
          "internalType": "bytes4",
          "name": "interfaceId",
          "type": "bytes4"
        }
      ],
      "name": "supportsInterface",
      "outputs": [
        {
          "internalType": "bool",
          "name": "",
          "type": "bool"
        }
      ],
      "stateMutability": "view",
      "type": "function"
    },
    {
      "inputs": [],
      "name": "symbol",
      "outputs": [
        {
          "internalType": "string",
          "name": "",
          "type": "string"
        }
      ],
      "stateMutability": "view",
      "type": "function"
    },
    {
      "inputs": [
        {
          "internalType": "uint256",
          "name": "tokenId",
          "type": "uint256"
        }
      ],
      "name": "tokenURI",
      "outputs": [
        {
          "internalType": "string",
          "name": "",
          "type": "string"
        }
      ],
      "stateMutability": "view",
      "type": "function"
    },
    {
      "inputs": [
        {
          "internalType": "address",
          "name": "from",
          "type": "address"
        },
        {
          "internalType": "address",
          "name": "to",
          "type": "address"
        },
        {
          "internalType": "uint256",
          "name": "tokenId",
          "type": "uint256"
        }
      ],
      "name": "transferFrom",
      "outputs": [],
      "stateMutability": "nonpayable",
      "type": "function"
    },
    {
      "inputs": [
        {
          "internalType": "address",
          "name": "newOwner",
          "type": "address"
        }
      ],
      "name": "transferOwnership",
      "outputs": [],
      "stateMutability": "nonpayable",
      "type": "function"
    }
  ],
  "bytecode": "0x60806040523480156200001157600080fd5b50604080518082018252600c81526b135c90dc9e5c1d1bc813919560a21b6020808301918252835180850190945260038452624d724360e81b9084015281519192916200006191600091620000f0565b50805162000077906001906020840190620000f0565b505050620000946200008e6200009a60201b60201c565b6200009e565b620001d3565b3390565b600680546001600160a01b038381166001600160a01b0319831681179093556040519116919082907f8be0079c531659141344cd1fd0a4f28419497f9722a3daafe3b4186f6b6457e090600090a35050565b828054620000fe9062000196565b90600052602060002090601f0160209004810192826200012257600085556200016d565b82601f106200013d57805160ff19168380011785556200016d565b828001600101855582156200016d579182015b828111156200016d57825182559160200191906001019062000150565b506200017b9291506200017f565b5090565b5b808211156200017b576000815560010162000180565b600181811c90821680620001ab57607f821691505b60208210811415620001cd57634e487b7160e01b600052602260045260246000fd5b50919050565b61154180620001e36000396000f3fe608060405234801561001057600080fd5b50600436106100eb5760003560e01c806370a082311161009257806370a08231146101b9578063715018a6146101da5780638da5cb5b146101e257806395d89b41146101f3578063a22cb465146101fb578063b88d4fde1461020e578063c87b56dd14610221578063e985e9c514610234578063f2fde38b1461024757600080fd5b806301ffc9a7146100f057806306fdde0314610118578063081812fc1461012d578063095ea7b31461015857806323b872dd1461016d57806340c10f191461018057806342842e0e146101935780636352211e146101a6575b600080fd5b6101036100fe3660046111ee565b61025a565b60405190151581526020015b60405180910390f35b6101206102ac565b60405161010f91906112d9565b61014061013b366004611228565b61033e565b6040516001600160a01b03909116815260200161010f565b61016b6101663660046111c4565b6103cb565b005b61016b61017b366004611070565b6104dc565b61016b61018e3660046111c4565b61050d565b61016b6101a1366004611070565b610545565b6101406101b4366004611228565b610560565b6101cc6101c7366004611022565b6105d7565b60405190815260200161010f565b61016b61065e565b6006546001600160a01b0316610140565b610120610694565b61016b610209366004611188565b6106a3565b61016b61021c3660046110ac565b6106ae565b61012061022f366004611228565b6106e6565b61010361024236600461103d565b6107be565b61016b610255366004611022565b6107ec565b60006001600160e01b031982166380ac58cd60e01b148061028b57506001600160e01b03198216635b5e139f60e01b145b806102a657506301ffc9a760e01b6001600160e01b03198316145b92915050565b6060600080546102bb90611433565b80601f01602080910402602001604051908101604052809291908181526020018280546102e790611433565b80156103345780601f1061030957610100808354040283529160200191610334565b820191906000526020600020905b81548152906001019060200180831161031757829003601f168201915b5050505050905090565b600061034982610887565b6103af5760405162461bcd60e51b815260206004820152602c60248201527f4552433732313a20617070726f76656420717565727920666f72206e6f6e657860448201526b34b9ba32b73a103a37b5b2b760a11b60648201526084015b60405180910390fd5b506000908152600460205260409020546001600160a01b031690565b60006103d682610560565b9050806001600160a01b0316836001600160a01b031614156104445760405162461bcd60e51b815260206004820152602160248201527f4552433732313a20617070726f76616c20746f2063757272656e74206f776e656044820152603960f91b60648201526084016103a6565b336001600160a01b0382161480610460575061046081336107be565b6104cd5760405162461bcd60e51b815260206004820152603860248201527f4552433732313a20617070726f76652063616c6c6572206973206e6f74206f776044820152771b995c881b9bdc88185c1c1c9bdd995908199bdc88185b1b60421b60648201526084016103a6565b6104d783836108a4565b505050565b6104e63382610912565b6105025760405162461bcd60e51b81526004016103a690611373565b6104d78383836109dc565b6006546001600160a01b031633146105375760405162461bcd60e51b81526004016103a69061133e565b6105418282610b78565b5050565b6104d7838383604051806020016040528060008152506106ae565b6000818152600260205260408120546001600160a01b0316806102a65760405162461bcd60e51b815260206004820152602960248201527f4552433732313a206f776e657220717565727920666f72206e6f6e657869737460448201526832b73a103a37b5b2b760b91b60648201526084016103a6565b60006001600160a01b0382166106425760405162461bcd60e51b815260206004820152602a60248201527f4552433732313a2062616c616e636520717565727920666f7220746865207a65604482015269726f206164647265737360b01b60648201526084016103a6565b506001600160a01b031660009081526003602052604090205490565b6006546001600160a01b031633146106885760405162461bcd60e51b81526004016103a69061133e565b6106926000610cab565b565b6060600180546102bb90611433565b610541338383610cfd565b6106b83383610912565b6106d45760405162461bcd60e51b81526004016103a690611373565b6106e084848484610dc8565b50505050565b60606106f182610887565b6107555760405162461bcd60e51b815260206004820152602f60248201527f4552433732314d657461646174613a2055524920717565727920666f72206e6f60448201526e3732bc34b9ba32b73a103a37b5b2b760891b60648201526084016103a6565b600061076c60408051602081019091526000815290565b9050600081511161078c57604051806020016040528060008152506107b7565b8061079684610dfb565b6040516020016107a792919061126d565b6040516020818303038152906040525b9392505050565b6001600160a01b03918216600090815260056020908152604080832093909416825291909152205460ff1690565b6006546001600160a01b031633146108165760405162461bcd60e51b81526004016103a69061133e565b6001600160a01b03811661087b5760405162461bcd60e51b815260206004820152602660248201527f4f776e61626c653a206e6577206f776e657220697320746865207a65726f206160448201526564647265737360d01b60648201526084016103a6565b61088481610cab565b50565b6000908152600260205260409020546001600160a01b0316151590565b600081815260046020526040902080546001600160a01b0319166001600160a01b03841690811790915581906108d982610560565b6001600160a01b03167f8c5be1e5ebec7d5bd14f71427d1e84f3dd0314c0f7b2291e5b200ac8c7c3b92560405160405180910390a45050565b600061091d82610887565b61097e5760405162461bcd60e51b815260206004820152602c60248201527f4552433732313a206f70657261746f7220717565727920666f72206e6f6e657860448201526b34b9ba32b73a103a37b5b2b760a11b60648201526084016103a6565b600061098983610560565b9050806001600160a01b0316846001600160a01b031614806109b057506109b081856107be565b806109d45750836001600160a01b03166109c98461033e565b6001600160a01b0316145b949350505050565b826001600160a01b03166109ef82610560565b6001600160a01b031614610a535760405162461bcd60e51b815260206004820152602560248201527f4552433732313a207472616e736665722066726f6d20696e636f72726563742060448201526437bbb732b960d91b60648201526084016103a6565b6001600160a01b038216610ab55760405162461bcd60e51b8152602060048201526024808201527f4552433732313a207472616e7366657220746f20746865207a65726f206164646044820152637265737360e01b60648201526084016103a6565b610ac06000826108a4565b6001600160a01b0383166000908152600360205260408120805460019290610ae99084906113f0565b90915550506001600160a01b0382166000908152600360205260408120805460019290610b179084906113c4565b909155505060008181526002602052604080822080546001600160a01b0319166001600160a01b0386811691821790925591518493918716917fddf252ad1be2c89b69c2b068fc378daa952ba7f163c4a11628f55a4df523b3ef91a4505050565b6001600160a01b038216610bce5760405162461bcd60e51b815260206004820181905260248201527f4552433732313a206d696e7420746f20746865207a65726f206164647265737360448201526064016103a6565b610bd781610887565b15610c245760405162461bcd60e51b815260206004820152601c60248201527f4552433732313a20746f6b656e20616c7265616479206d696e7465640000000060448201526064016103a6565b6001600160a01b0382166000908152600360205260408120805460019290610c4d9084906113c4565b909155505060008181526002602052604080822080546001600160a01b0319166001600160a01b03861690811790915590518392907fddf252ad1be2c89b69c2b068fc378daa952ba7f163c4a11628f55a4df523b3ef908290a45050565b600680546001600160a01b038381166001600160a01b0319831681179093556040519116919082907f8be0079c531659141344cd1fd0a4f28419497f9722a3daafe3b4186f6b6457e090600090a35050565b816001600160a01b0316836001600160a01b03161415610d5b5760405162461bcd60e51b815260206004820152601960248201527822a9219b99189d1030b8383937bb32903a379031b0b63632b960391b60448201526064016103a6565b6001600160a01b03838116600081815260056020908152604080832094871680845294825291829020805460ff191686151590811790915591519182527f17307eab39ab6107e8899845ad3d59bd9653f200f220920489ca2b5937696c31910160405180910390a3505050565b610dd38484846109dc565b610ddf84848484610ef9565b6106e05760405162461bcd60e51b81526004016103a6906112ec565b606081610e1f5750506040805180820190915260018152600360fc1b602082015290565b8160005b8115610e495780610e338161146e565b9150610e429050600a836113dc565b9150610e23565b60008167ffffffffffffffff811115610e6457610e646114df565b6040519080825280601f01601f191660200182016040528015610e8e576020820181803683370190505b5090505b84156109d457610ea36001836113f0565b9150610eb0600a86611489565b610ebb9060306113c4565b60f81b818381518110610ed057610ed06114c9565b60200101906001600160f81b031916908160001a905350610ef2600a866113dc565b9450610e92565b60006001600160a01b0384163b15610ffb57604051630a85bd0160e11b81526001600160a01b0385169063150b7a0290610f3d90339089908890889060040161129c565b602060405180830381600087803b158015610f5757600080fd5b505af1925050508015610f87575060408051601f3d908101601f19168201909252610f849181019061120b565b60015b610fe1573d808015610fb5576040519150601f19603f3d011682016040523d82523d6000602084013e610fba565b606091505b508051610fd95760405162461bcd60e51b81526004016103a6906112ec565b805181602001fd5b6001600160e01b031916630a85bd0160e11b1490506109d4565b506001949350505050565b80356001600160a01b038116811461101d57600080fd5b919050565b60006020828403121561103457600080fd5b6107b782611006565b6000806040838503121561105057600080fd5b61105983611006565b915061106760208401611006565b90509250929050565b60008060006060848603121561108557600080fd5b61108e84611006565b925061109c60208501611006565b9150604084013590509250925092565b600080600080608085870312156110c257600080fd5b6110cb85611006565b93506110d960208601611006565b925060408501359150606085013567ffffffffffffffff808211156110fd57600080fd5b818701915087601f83011261111157600080fd5b813581811115611123576111236114df565b604051601f8201601f19908116603f0116810190838211818310171561114b5761114b6114df565b816040528281528a602084870101111561116457600080fd5b82602086016020830137600060208483010152809550505050505092959194509250565b6000806040838503121561119b57600080fd5b6111a483611006565b9150602083013580151581146111b957600080fd5b809150509250929050565b600080604083850312156111d757600080fd5b6111e083611006565b946020939093013593505050565b60006020828403121561120057600080fd5b81356107b7816114f5565b60006020828403121561121d57600080fd5b81516107b7816114f5565b60006020828403121561123a57600080fd5b5035919050565b60008151808452611259816020860160208601611407565b601f01601f19169290920160200192915050565b6000835161127f818460208801611407565b835190830190611293818360208801611407565b01949350505050565b6001600160a01b03858116825284166020820152604081018390526080606082018190526000906112cf90830184611241565b9695505050505050565b6020815260006107b76020830184611241565b60208082526032908201527f4552433732313a207472616e7366657220746f206e6f6e20455243373231526560408201527131b2b4bb32b91034b6b83632b6b2b73a32b960711b606082015260800190565b6020808252818101527f4f776e61626c653a2063616c6c6572206973206e6f7420746865206f776e6572604082015260600190565b60208082526031908201527f4552433732313a207472616e736665722063616c6c6572206973206e6f74206f6040820152701ddb995c881b9bdc88185c1c1c9bdd9959607a1b606082015260800190565b600082198211156113d7576113d761149d565b500190565b6000826113eb576113eb6114b3565b500490565b6000828210156114025761140261149d565b500390565b60005b8381101561142257818101518382015260200161140a565b838111156106e05750506000910152565b600181811c9082168061144757607f821691505b6020821081141561146857634e487b7160e01b600052602260045260246000fd5b50919050565b60006000198214156114825761148261149d565b5060010190565b600082611498576114986114b3565b500690565b634e487b7160e01b600052601160045260246000fd5b634e487b7160e01b600052601260045260246000fd5b634e487b7160e01b600052603260045260246000fd5b634e487b7160e01b600052604160045260246000fd5b6001600160e01b03198116811461088457600080fdfea2646970667358221220989429ca896866282496eabc7346904c882d4b9c53bcb47ab5460eef28081f5c64736f6c63430008070033",
  "linkReferences": {},
  "deployedLinkReferences": {}
}