{
  "_format": "hh-sol-artifact-1",
  "contractName": "RacksItemsv5",
  "sourceName": "contracts/RacksItemsv5.sol",
  "abi": [
    {
      "inputs": [
        {
          "internalType": "address",
          "name": "vrfCoordinatorV2",
          "type": "address"
        },
        {
          "internalType": "bytes32",
          "name": "gasLane",
          "type": "bytes32"
        },
        {
          "internalType": "uint64",
          "name": "subscriptionId",
          "type": "uint64"
        },
        {
          "internalType": "uint32",
          "name": "callbackGasLimit",
          "type": "uint32"
        },
        {
          "internalType": "address",
          "name": "_racksTokenAddress",
          "type": "address"
        },
        {
          "internalType": "address",
          "name": "_MockMrCryptoAddress",
          "type": "address"
        }
      ],
      "stateMutability": "nonpayable",
      "type": "constructor"
    },
    {
      "inputs": [
        {
          "internalType": "address",
          "name": "have",
          "type": "address"
        },
        {
          "internalType": "address",
          "name": "want",
          "type": "address"
        }
      ],
      "name": "OnlyCoordinatorCanFulfill",
      "type": "error"
    },
    {
      "anonymous": false,
      "inputs": [
        {
          "indexed": true,
          "internalType": "address",
          "name": "account",
          "type": "address"
        },
        {
          "indexed": true,
          "internalType": "address",
          "name": "operator",
          "type": "address"
        },
        {
          "indexed": false,
          "internalType": "bool",
          "name": "approved",
          "type": "bool"
        }
      ],
      "name": "ApprovalForAll",
      "type": "event"
    },
    {
      "anonymous": false,
      "inputs": [
        {
          "indexed": false,
          "internalType": "address",
          "name": "user",
          "type": "address"
        },
        {
          "indexed": false,
          "internalType": "uint256",
          "name": "casePrice",
          "type": "uint256"
        },
        {
          "indexed": false,
          "internalType": "uint256",
          "name": "item",
          "type": "uint256"
        }
      ],
      "name": "CaseOpened",
      "type": "event"
    },
    {
      "anonymous": false,
      "inputs": [
        {
          "indexed": true,
          "internalType": "bytes32",
          "name": "role",
          "type": "bytes32"
        },
        {
          "indexed": true,
          "internalType": "bytes32",
          "name": "previousAdminRole",
          "type": "bytes32"
        },
        {
          "indexed": true,
          "internalType": "bytes32",
          "name": "newAdminRole",
          "type": "bytes32"
        }
      ],
      "name": "RoleAdminChanged",
      "type": "event"
    },
    {
      "anonymous": false,
      "inputs": [
        {
          "indexed": true,
          "internalType": "bytes32",
          "name": "role",
          "type": "bytes32"
        },
        {
          "indexed": true,
          "internalType": "address",
          "name": "account",
          "type": "address"
        },
        {
          "indexed": true,
          "internalType": "address",
          "name": "sender",
          "type": "address"
        }
      ],
      "name": "RoleGranted",
      "type": "event"
    },
    {
      "anonymous": false,
      "inputs": [
        {
          "indexed": true,
          "internalType": "bytes32",
          "name": "role",
          "type": "bytes32"
        },
        {
          "indexed": true,
          "internalType": "address",
          "name": "account",
          "type": "address"
        },
        {
          "indexed": true,
          "internalType": "address",
          "name": "sender",
          "type": "address"
        }
      ],
      "name": "RoleRevoked",
      "type": "event"
    },
    {
      "anonymous": false,
      "inputs": [
        {
          "indexed": true,
          "internalType": "address",
          "name": "operator",
          "type": "address"
        },
        {
          "indexed": true,
          "internalType": "address",
          "name": "from",
          "type": "address"
        },
        {
          "indexed": true,
          "internalType": "address",
          "name": "to",
          "type": "address"
        },
        {
          "indexed": false,
          "internalType": "uint256[]",
          "name": "ids",
          "type": "uint256[]"
        },
        {
          "indexed": false,
          "internalType": "uint256[]",
          "name": "values",
          "type": "uint256[]"
        }
      ],
      "name": "TransferBatch",
      "type": "event"
    },
    {
      "anonymous": false,
      "inputs": [
        {
          "indexed": true,
          "internalType": "address",
          "name": "operator",
          "type": "address"
        },
        {
          "indexed": true,
          "internalType": "address",
          "name": "from",
          "type": "address"
        },
        {
          "indexed": true,
          "internalType": "address",
          "name": "to",
          "type": "address"
        },
        {
          "indexed": false,
          "internalType": "uint256",
          "name": "id",
          "type": "uint256"
        },
        {
          "indexed": false,
          "internalType": "uint256",
          "name": "value",
          "type": "uint256"
        }
      ],
      "name": "TransferSingle",
      "type": "event"
    },
    {
      "anonymous": false,
      "inputs": [
        {
          "indexed": false,
          "internalType": "string",
          "name": "value",
          "type": "string"
        },
        {
          "indexed": true,
          "internalType": "uint256",
          "name": "id",
          "type": "uint256"
        }
      ],
      "name": "URI",
      "type": "event"
    },
    {
      "anonymous": false,
      "inputs": [
        {
          "indexed": false,
          "internalType": "uint256",
          "name": "newPrice",
          "type": "uint256"
        }
      ],
      "name": "casePriceChanged",
      "type": "event"
    },
    {
      "anonymous": false,
      "inputs": [
        {
          "indexed": false,
          "internalType": "address",
          "name": "buyer",
          "type": "address"
        },
        {
          "indexed": false,
          "internalType": "address",
          "name": "seller",
          "type": "address"
        },
        {
          "indexed": false,
          "internalType": "uint256",
          "name": "marketItemId",
          "type": "uint256"
        },
        {
          "indexed": false,
          "internalType": "uint256",
          "name": "price",
          "type": "uint256"
        }
      ],
      "name": "itemBought",
      "type": "event"
    },
    {
      "anonymous": false,
      "inputs": [
        {
          "indexed": false,
          "internalType": "address",
          "name": "user",
          "type": "address"
        },
        {
          "indexed": false,
          "internalType": "uint256",
          "name": "tokenId",
          "type": "uint256"
        }
      ],
      "name": "itemExchanged",
      "type": "event"
    },
    {
      "anonymous": false,
      "inputs": [
        {
          "indexed": false,
          "internalType": "address",
          "name": "owner",
          "type": "address"
        },
        {
          "indexed": false,
          "internalType": "uint256",
          "name": "marketItemId",
          "type": "uint256"
        },
        {
          "indexed": false,
          "internalType": "uint256",
          "name": "oldPrice",
          "type": "uint256"
        },
        {
          "indexed": false,
          "internalType": "uint256",
          "name": "newPrice",
          "type": "uint256"
        }
      ],
      "name": "itemPriceChanged",
      "type": "event"
    },
    {
      "anonymous": false,
      "inputs": [
        {
          "indexed": false,
          "internalType": "address",
          "name": "seller",
          "type": "address"
        },
        {
          "indexed": false,
          "internalType": "uint256",
          "name": "numTries",
          "type": "uint256"
        },
        {
          "indexed": false,
          "internalType": "uint256",
          "name": "_hours",
          "type": "uint256"
        },
        {
          "indexed": false,
          "internalType": "uint256",
          "name": "price",
          "type": "uint256"
        }
      ],
      "name": "newTicketOnSale",
      "type": "event"
    },
    {
      "anonymous": false,
      "inputs": [
        {
          "indexed": false,
          "internalType": "address",
          "name": "user",
          "type": "address"
        },
        {
          "indexed": false,
          "internalType": "uint256",
          "name": "tokenId",
          "type": "uint256"
        },
        {
          "indexed": false,
          "internalType": "uint256",
          "name": "price",
          "type": "uint256"
        }
      ],
      "name": "sellingItem",
      "type": "event"
    },
    {
      "anonymous": false,
      "inputs": [
        {
          "indexed": false,
          "internalType": "uint256",
          "name": "ticketId",
          "type": "uint256"
        },
        {
          "indexed": false,
          "internalType": "address",
          "name": "oldOwner",
          "type": "address"
        },
        {
          "indexed": false,
          "internalType": "address",
          "name": "newOwner",
          "type": "address"
        },
        {
          "indexed": false,
          "internalType": "uint256",
          "name": "price",
          "type": "uint256"
        }
      ],
      "name": "ticketBought",
      "type": "event"
    },
    {
      "anonymous": false,
      "inputs": [
        {
          "indexed": false,
          "internalType": "address",
          "name": "borrower",
          "type": "address"
        },
        {
          "indexed": false,
          "internalType": "address",
          "name": "realOwner",
          "type": "address"
        }
      ],
      "name": "ticketClaimedBack",
      "type": "event"
    },
    {
      "anonymous": false,
      "inputs": [
        {
          "indexed": false,
          "internalType": "address",
          "name": "owner",
          "type": "address"
        },
        {
          "indexed": false,
          "internalType": "uint256",
          "name": "newTries",
          "type": "uint256"
        },
        {
          "indexed": false,
          "internalType": "uint256",
          "name": "newHours",
          "type": "uint256"
        },
        {
          "indexed": false,
          "internalType": "uint256",
          "name": "newPrice",
          "type": "uint256"
        }
      ],
      "name": "ticketConditionsChanged",
      "type": "event"
    },
    {
      "anonymous": false,
      "inputs": [
        {
          "indexed": false,
          "internalType": "address",
          "name": "owner",
          "type": "address"
        }
      ],
      "name": "unListTicketOnSale",
      "type": "event"
    },
    {
      "anonymous": false,
      "inputs": [
        {
          "indexed": false,
          "internalType": "address",
          "name": "owner",
          "type": "address"
        },
        {
          "indexed": false,
          "internalType": "uint256",
          "name": "marketItemId",
          "type": "uint256"
        }
      ],
      "name": "unListedItem",
      "type": "event"
    },
    {
      "inputs": [],
      "name": "ADMIN_ROLE",
      "outputs": [
        {
          "internalType": "bytes32",
          "name": "",
          "type": "bytes32"
        }
      ],
      "stateMutability": "view",
      "type": "function"
    },
    {
      "inputs": [],
      "name": "DEFAULT_ADMIN_ROLE",
      "outputs": [
        {
          "internalType": "bytes32",
          "name": "",
          "type": "bytes32"
        }
      ],
      "stateMutability": "view",
      "type": "function"
    },
    {
      "inputs": [],
      "name": "NUM_WORDS",
      "outputs": [
        {
          "internalType": "uint32",
          "name": "",
          "type": "uint32"
        }
      ],
      "stateMutability": "view",
      "type": "function"
    },
    {
      "inputs": [],
      "name": "REQUEST_CONFIRMATIONS",
      "outputs": [
        {
          "internalType": "uint16",
          "name": "",
          "type": "uint16"
        }
      ],
      "stateMutability": "view",
      "type": "function"
    },
    {
      "inputs": [
        {
          "internalType": "address",
          "name": "account",
          "type": "address"
        },
        {
          "internalType": "uint256",
          "name": "id",
          "type": "uint256"
        }
      ],
      "name": "balanceOf",
      "outputs": [
        {
          "internalType": "uint256",
          "name": "",
          "type": "uint256"
        }
      ],
      "stateMutability": "view",
      "type": "function"
    },
    {
      "inputs": [
        {
          "internalType": "address[]",
          "name": "accounts",
          "type": "address[]"
        },
        {
          "internalType": "uint256[]",
          "name": "ids",
          "type": "uint256[]"
        }
      ],
      "name": "balanceOfBatch",
      "outputs": [
        {
          "internalType": "uint256[]",
          "name": "",
          "type": "uint256[]"
        }
      ],
      "stateMutability": "view",
      "type": "function"
    },
    {
      "inputs": [
        {
          "internalType": "uint256",
          "name": "marketItemId",
          "type": "uint256"
        }
      ],
      "name": "buyItem",
      "outputs": [],
      "stateMutability": "nonpayable",
      "type": "function"
    },
    {
      "inputs": [
        {
          "internalType": "uint256",
          "name": "ticketId",
          "type": "uint256"
        }
      ],
      "name": "buyTicket",
      "outputs": [],
      "stateMutability": "nonpayable",
      "type": "function"
    },
    {
      "inputs": [],
      "name": "caseLiquidity",
      "outputs": [
        {
          "internalType": "uint256[]",
          "name": "",
          "type": "uint256[]"
        }
      ],
      "stateMutability": "view",
      "type": "function"
    },
    {
      "inputs": [
        {
          "internalType": "uint256",
          "name": "marketItemId",
          "type": "uint256"
        },
        {
          "internalType": "uint256",
          "name": "newPrice",
          "type": "uint256"
        }
      ],
      "name": "changeItemPrice",
      "outputs": [],
      "stateMutability": "nonpayable",
      "type": "function"
    },
    {
      "inputs": [
        {
          "internalType": "uint256",
          "name": "newTries",
          "type": "uint256"
        },
        {
          "internalType": "uint256",
          "name": "newHours",
          "type": "uint256"
        },
        {
          "internalType": "uint256",
          "name": "newPrice",
          "type": "uint256"
        }
      ],
      "name": "changeTicketConditions",
      "outputs": [],
      "stateMutability": "nonpayable",
      "type": "function"
    },
    {
      "inputs": [],
      "name": "claimTicketBack",
      "outputs": [],
      "stateMutability": "nonpayable",
      "type": "function"
    },
    {
      "inputs": [
        {
          "internalType": "uint256",
          "name": "tokenId",
          "type": "uint256"
        }
      ],
      "name": "exchangeItem",
      "outputs": [],
      "stateMutability": "nonpayable",
      "type": "function"
    },
    {
      "inputs": [],
      "name": "flipContractState",
      "outputs": [],
      "stateMutability": "nonpayable",
      "type": "function"
    },
    {
      "inputs": [],
      "name": "getContractState",
      "outputs": [
        {
          "internalType": "enum RacksItemsv5.ContractState",
          "name": "",
          "type": "uint8"
        }
      ],
      "stateMutability": "view",
      "type": "function"
    },
    {
      "inputs": [
        {
          "internalType": "uint256",
          "name": "itemId",
          "type": "uint256"
        }
      ],
      "name": "getItemsOnSale",
      "outputs": [
        {
          "components": [
            {
              "internalType": "uint256",
              "name": "tokenId",
              "type": "uint256"
            },
            {
              "internalType": "uint256",
              "name": "marketItemId",
              "type": "uint256"
            },
            {
              "internalType": "uint256",
              "name": "price",
              "type": "uint256"
            },
            {
              "internalType": "address",
              "name": "itemOwner",
              "type": "address"
            },
            {
              "internalType": "bool",
              "name": "isOnSale",
              "type": "bool"
            }
          ],
          "internalType": "struct IRacksItemsv5.itemOnSale",
          "name": "",
          "type": "tuple"
        }
      ],
      "stateMutability": "view",
      "type": "function"
    },
    {
      "inputs": [],
      "name": "getItemsOnSale",
      "outputs": [
        {
          "components": [
            {
              "internalType": "uint256",
              "name": "tokenId",
              "type": "uint256"
            },
            {
              "internalType": "uint256",
              "name": "marketItemId",
              "type": "uint256"
            },
            {
              "internalType": "uint256",
              "name": "price",
              "type": "uint256"
            },
            {
              "internalType": "address",
              "name": "itemOwner",
              "type": "address"
            },
            {
              "internalType": "bool",
              "name": "isOnSale",
              "type": "bool"
            }
          ],
          "internalType": "struct IRacksItemsv5.itemOnSale[]",
          "name": "",
          "type": "tuple[]"
        }
      ],
      "stateMutability": "view",
      "type": "function"
    },
    {
      "inputs": [
        {
          "internalType": "uint256",
          "name": "marketItemId",
          "type": "uint256"
        }
      ],
      "name": "getMarketItem",
      "outputs": [
        {
          "components": [
            {
              "internalType": "uint256",
              "name": "tokenId",
              "type": "uint256"
            },
            {
              "internalType": "uint256",
              "name": "marketItemId",
              "type": "uint256"
            },
            {
              "internalType": "uint256",
              "name": "price",
              "type": "uint256"
            },
            {
              "internalType": "address",
              "name": "itemOwner",
              "type": "address"
            },
            {
              "internalType": "bool",
              "name": "isOnSale",
              "type": "bool"
            }
          ],
          "internalType": "struct IRacksItemsv5.itemOnSale",
          "name": "",
          "type": "tuple"
        }
      ],
      "stateMutability": "view",
      "type": "function"
    },
    {
      "inputs": [
        {
          "internalType": "uint256",
          "name": "ticketId",
          "type": "uint256"
        }
      ],
      "name": "getMarketTicket",
      "outputs": [
        {
          "components": [
            {
              "internalType": "uint256",
              "name": "ticketId",
              "type": "uint256"
            },
            {
              "internalType": "uint256",
              "name": "numTries",
              "type": "uint256"
            },
            {
              "internalType": "uint256",
              "name": "duration",
              "type": "uint256"
            },
            {
              "internalType": "uint256",
              "name": "price",
              "type": "uint256"
            },
            {
              "internalType": "address",
              "name": "owner",
              "type": "address"
            },
            {
              "internalType": "uint256",
              "name": "timeWhenSold",
              "type": "uint256"
            },
            {
              "internalType": "bool",
              "name": "isAvaliable",
              "type": "bool"
            }
          ],
          "internalType": "struct IRacksItemsv5.caseTicket",
          "name": "",
          "type": "tuple"
        }
      ],
      "stateMutability": "view",
      "type": "function"
    },
    {
      "inputs": [],
      "name": "getMarketcount",
      "outputs": [
        {
          "internalType": "uint256",
          "name": "",
          "type": "uint256"
        }
      ],
      "stateMutability": "view",
      "type": "function"
    },
    {
      "inputs": [],
      "name": "getMaxTotalSupply",
      "outputs": [
        {
          "internalType": "uint256",
          "name": "",
          "type": "uint256"
        }
      ],
      "stateMutability": "view",
      "type": "function"
    },
    {
      "inputs": [],
      "name": "getOwner",
      "outputs": [
        {
          "internalType": "address",
          "name": "",
          "type": "address"
        }
      ],
      "stateMutability": "view",
      "type": "function"
    },
    {
      "inputs": [],
      "name": "getPriceCase",
      "outputs": [
        {
          "internalType": "uint256",
          "name": "",
          "type": "uint256"
        }
      ],
      "stateMutability": "view",
      "type": "function"
    },
    {
      "inputs": [
        {
          "internalType": "bytes32",
          "name": "role",
          "type": "bytes32"
        }
      ],
      "name": "getRoleAdmin",
      "outputs": [
        {
          "internalType": "bytes32",
          "name": "",
          "type": "bytes32"
        }
      ],
      "stateMutability": "view",
      "type": "function"
    },
    {
      "inputs": [
        {
          "internalType": "uint256",
          "name": "ticketId",
          "type": "uint256"
        }
      ],
      "name": "getTicket",
      "outputs": [
        {
          "components": [
            {
              "internalType": "uint256",
              "name": "ticketId",
              "type": "uint256"
            },
            {
              "internalType": "uint256",
              "name": "numTries",
              "type": "uint256"
            },
            {
              "internalType": "uint256",
              "name": "duration",
              "type": "uint256"
            },
            {
              "internalType": "uint256",
              "name": "price",
              "type": "uint256"
            },
            {
              "internalType": "address",
              "name": "owner",
              "type": "address"
            },
            {
              "internalType": "uint256",
              "name": "timeWhenSold",
              "type": "uint256"
            },
            {
              "internalType": "bool",
              "name": "isAvaliable",
              "type": "bool"
            }
          ],
          "internalType": "struct IRacksItemsv5.caseTicket",
          "name": "",
          "type": "tuple"
        }
      ],
      "stateMutability": "view",
      "type": "function"
    },
    {
      "inputs": [],
      "name": "getTicketCount",
      "outputs": [
        {
          "internalType": "uint256",
          "name": "",
          "type": "uint256"
        }
      ],
      "stateMutability": "view",
      "type": "function"
    },
    {
      "inputs": [
        {
          "internalType": "uint256",
          "name": "ticketId",
          "type": "uint256"
        }
      ],
      "name": "getTicketDurationLeft",
      "outputs": [
        {
          "internalType": "address",
          "name": "",
          "type": "address"
        },
        {
          "internalType": "uint256",
          "name": "",
          "type": "uint256"
        },
        {
          "internalType": "bool",
          "name": "",
          "type": "bool"
        }
      ],
      "stateMutability": "view",
      "type": "function"
    },
    {
      "inputs": [],
      "name": "getTicketsOnSale",
      "outputs": [
        {
          "components": [
            {
              "internalType": "uint256",
              "name": "ticketId",
              "type": "uint256"
            },
            {
              "internalType": "uint256",
              "name": "numTries",
              "type": "uint256"
            },
            {
              "internalType": "uint256",
              "name": "duration",
              "type": "uint256"
            },
            {
              "internalType": "uint256",
              "name": "price",
              "type": "uint256"
            },
            {
              "internalType": "address",
              "name": "owner",
              "type": "address"
            },
            {
              "internalType": "uint256",
              "name": "timeWhenSold",
              "type": "uint256"
            },
            {
              "internalType": "bool",
              "name": "isAvaliable",
              "type": "bool"
            }
          ],
          "internalType": "struct IRacksItemsv5.caseTicket[]",
          "name": "",
          "type": "tuple[]"
        }
      ],
      "stateMutability": "view",
      "type": "function"
    },
    {
      "inputs": [],
      "name": "getTokenCount",
      "outputs": [
        {
          "internalType": "uint256",
          "name": "",
          "type": "uint256"
        }
      ],
      "stateMutability": "view",
      "type": "function"
    },
    {
      "inputs": [
        {
          "internalType": "address",
          "name": "user",
          "type": "address"
        }
      ],
      "name": "getUserTicket",
      "outputs": [
        {
          "internalType": "uint256",
          "name": "durationLeft",
          "type": "uint256"
        },
        {
          "internalType": "uint256",
          "name": "triesLeft",
          "type": "uint256"
        },
        {
          "internalType": "uint256",
          "name": "ownerOrSpender",
          "type": "uint256"
        },
        {
          "internalType": "uint256",
          "name": "ticketPrice",
          "type": "uint256"
        }
      ],
      "stateMutability": "view",
      "type": "function"
    },
    {
      "inputs": [
        {
          "internalType": "bytes32",
          "name": "role",
          "type": "bytes32"
        },
        {
          "internalType": "address",
          "name": "account",
          "type": "address"
        }
      ],
      "name": "grantRole",
      "outputs": [],
      "stateMutability": "nonpayable",
      "type": "function"
    },
    {
      "inputs": [
        {
          "internalType": "bytes32",
          "name": "role",
          "type": "bytes32"
        },
        {
          "internalType": "address",
          "name": "account",
          "type": "address"
        }
      ],
      "name": "hasRole",
      "outputs": [
        {
          "internalType": "bool",
          "name": "",
          "type": "bool"
        }
      ],
      "stateMutability": "view",
      "type": "function"
    },
    {
      "inputs": [],
      "name": "i_callbackGasLimit",
      "outputs": [
        {
          "internalType": "uint32",
          "name": "",
          "type": "uint32"
        }
      ],
      "stateMutability": "view",
      "type": "function"
    },
    {
      "inputs": [],
      "name": "i_gasLane",
      "outputs": [
        {
          "internalType": "bytes32",
          "name": "",
          "type": "bytes32"
        }
      ],
      "stateMutability": "view",
      "type": "function"
    },
    {
      "inputs": [],
      "name": "i_subscriptionId",
      "outputs": [
        {
          "internalType": "uint64",
          "name": "",
          "type": "uint64"
        }
      ],
      "stateMutability": "view",
      "type": "function"
    },
    {
      "inputs": [],
      "name": "i_vrfCoordinator",
      "outputs": [
        {
          "internalType": "contract VRFCoordinatorV2Interface",
          "name": "",
          "type": "address"
        }
      ],
      "stateMutability": "view",
      "type": "function"
    },
    {
      "inputs": [
        {
          "internalType": "address",
          "name": "account",
          "type": "address"
        },
        {
          "internalType": "address",
          "name": "operator",
          "type": "address"
        }
      ],
      "name": "isApprovedForAll",
      "outputs": [
        {
          "internalType": "bool",
          "name": "",
          "type": "bool"
        }
      ],
      "stateMutability": "view",
      "type": "function"
    },
    {
      "inputs": [
        {
          "internalType": "address",
          "name": "user",
          "type": "address"
        }
      ],
      "name": "isVip",
      "outputs": [
        {
          "internalType": "bool",
          "name": "",
          "type": "bool"
        }
      ],
      "stateMutability": "view",
      "type": "function"
    },
    {
      "inputs": [
        {
          "internalType": "uint256",
          "name": "itemSupply",
          "type": "uint256"
        }
      ],
      "name": "listItem",
      "outputs": [],
      "stateMutability": "nonpayable",
      "type": "function"
    },
    {
      "inputs": [
        {
          "internalType": "uint256",
          "name": "marketItemId",
          "type": "uint256"
        },
        {
          "internalType": "uint256",
          "name": "price",
          "type": "uint256"
        }
      ],
      "name": "listItemOnMarket",
      "outputs": [],
      "stateMutability": "nonpayable",
      "type": "function"
    },
    {
      "inputs": [
        {
          "internalType": "uint256",
          "name": "numTries",
          "type": "uint256"
        },
        {
          "internalType": "uint256",
          "name": "_hours",
          "type": "uint256"
        },
        {
          "internalType": "uint256",
          "name": "price",
          "type": "uint256"
        }
      ],
      "name": "listTicket",
      "outputs": [],
      "stateMutability": "nonpayable",
      "type": "function"
    },
    {
      "inputs": [
        {
          "internalType": "address",
          "name": "",
          "type": "address"
        },
        {
          "internalType": "address",
          "name": "",
          "type": "address"
        },
        {
          "internalType": "uint256[]",
          "name": "",
          "type": "uint256[]"
        },
        {
          "internalType": "uint256[]",
          "name": "",
          "type": "uint256[]"
        },
        {
          "internalType": "bytes",
          "name": "",
          "type": "bytes"
        }
      ],
      "name": "onERC1155BatchReceived",
      "outputs": [
        {
          "internalType": "bytes4",
          "name": "",
          "type": "bytes4"
        }
      ],
      "stateMutability": "nonpayable",
      "type": "function"
    },
    {
      "inputs": [
        {
          "internalType": "address",
          "name": "",
          "type": "address"
        },
        {
          "internalType": "address",
          "name": "",
          "type": "address"
        },
        {
          "internalType": "uint256",
          "name": "",
          "type": "uint256"
        },
        {
          "internalType": "uint256",
          "name": "",
          "type": "uint256"
        },
        {
          "internalType": "bytes",
          "name": "",
          "type": "bytes"
        }
      ],
      "name": "onERC1155Received",
      "outputs": [
        {
          "internalType": "bytes4",
          "name": "",
          "type": "bytes4"
        }
      ],
      "stateMutability": "nonpayable",
      "type": "function"
    },
    {
      "inputs": [],
      "name": "openCase",
      "outputs": [],
      "stateMutability": "nonpayable",
      "type": "function"
    },
    {
      "inputs": [
        {
          "internalType": "uint256",
          "name": "requestId",
          "type": "uint256"
        },
        {
          "internalType": "uint256[]",
          "name": "randomWords",
          "type": "uint256[]"
        }
      ],
      "name": "rawFulfillRandomWords",
      "outputs": [],
      "stateMutability": "nonpayable",
      "type": "function"
    },
    {
      "inputs": [
        {
          "internalType": "bytes32",
          "name": "role",
          "type": "bytes32"
        },
        {
          "internalType": "address",
          "name": "account",
          "type": "address"
        }
      ],
      "name": "renounceRole",
      "outputs": [],
      "stateMutability": "nonpayable",
      "type": "function"
    },
    {
      "inputs": [
        {
          "internalType": "bytes32",
          "name": "role",
          "type": "bytes32"
        },
        {
          "internalType": "address",
          "name": "account",
          "type": "address"
        }
      ],
      "name": "revokeRole",
      "outputs": [],
      "stateMutability": "nonpayable",
      "type": "function"
    },
    {
      "inputs": [],
      "name": "s_randomWord",
      "outputs": [
        {
          "internalType": "uint256",
          "name": "",
          "type": "uint256"
        }
      ],
      "stateMutability": "view",
      "type": "function"
    },
    {
      "inputs": [
        {
          "internalType": "address",
          "name": "from",
          "type": "address"
        },
        {
          "internalType": "address",
          "name": "to",
          "type": "address"
        },
        {
          "internalType": "uint256[]",
          "name": "ids",
          "type": "uint256[]"
        },
        {
          "internalType": "uint256[]",
          "name": "amounts",
          "type": "uint256[]"
        },
        {
          "internalType": "bytes",
          "name": "data",
          "type": "bytes"
        }
      ],
      "name": "safeBatchTransferFrom",
      "outputs": [],
      "stateMutability": "nonpayable",
      "type": "function"
    },
    {
      "inputs": [
        {
          "internalType": "address",
          "name": "from",
          "type": "address"
        },
        {
          "internalType": "address",
          "name": "to",
          "type": "address"
        },
        {
          "internalType": "uint256",
          "name": "id",
          "type": "uint256"
        },
        {
          "internalType": "uint256",
          "name": "amount",
          "type": "uint256"
        },
        {
          "internalType": "bytes",
          "name": "data",
          "type": "bytes"
        }
      ],
      "name": "safeTransferFrom",
      "outputs": [],
      "stateMutability": "nonpayable",
      "type": "function"
    },
    {
      "inputs": [
        {
          "internalType": "address",
          "name": "_newAdmin",
          "type": "address"
        }
      ],
      "name": "setAdmin",
      "outputs": [],
      "stateMutability": "nonpayable",
      "type": "function"
    },
    {
      "inputs": [
        {
          "internalType": "address",
          "name": "operator",
          "type": "address"
        },
        {
          "internalType": "bool",
          "name": "approved",
          "type": "bool"
        }
      ],
      "name": "setApprovalForAll",
      "outputs": [],
      "stateMutability": "nonpayable",
      "type": "function"
    },
    {
      "inputs": [
        {
          "internalType": "uint256",
          "name": "price",
          "type": "uint256"
        }
      ],
      "name": "setCasePrice",
      "outputs": [],
      "stateMutability": "nonpayable",
      "type": "function"
    },
    {
      "inputs": [
        {
          "internalType": "uint256",
          "name": "tokenId",
          "type": "uint256"
        },
        {
          "internalType": "string",
          "name": "_uri",
          "type": "string"
        }
      ],
      "name": "setTokenUri",
      "outputs": [],
      "stateMutability": "nonpayable",
      "type": "function"
    },
    {
      "inputs": [
        {
          "internalType": "uint256",
          "name": "tokenId",
          "type": "uint256"
        }
      ],
      "name": "supplyOfItem",
      "outputs": [
        {
          "internalType": "uint256",
          "name": "",
          "type": "uint256"
        }
      ],
      "stateMutability": "view",
      "type": "function"
    },
    {
      "inputs": [
        {
          "internalType": "bytes4",
          "name": "interfaceId",
          "type": "bytes4"
        }
      ],
      "name": "supportsInterface",
      "outputs": [
        {
          "internalType": "bool",
          "name": "",
          "type": "bool"
        }
      ],
      "stateMutability": "view",
      "type": "function"
    },
    {
      "inputs": [
        {
          "internalType": "uint256",
          "name": "marketItemId",
          "type": "uint256"
        }
      ],
      "name": "unListItem",
      "outputs": [],
      "stateMutability": "nonpayable",
      "type": "function"
    },
    {
      "inputs": [],
      "name": "unListTicket",
      "outputs": [],
      "stateMutability": "nonpayable",
      "type": "function"
    },
    {
      "inputs": [
        {
          "internalType": "uint256",
          "name": "tokenId",
          "type": "uint256"
        }
      ],
      "name": "uri",
      "outputs": [
        {
          "internalType": "string",
          "name": "",
          "type": "string"
        }
      ],
      "stateMutability": "view",
      "type": "function"
    },
    {
      "inputs": [
        {
          "internalType": "address",
          "name": "owner",
          "type": "address"
        }
      ],
      "name": "viewItems",
      "outputs": [
        {
          "internalType": "uint256[]",
          "name": "",
          "type": "uint256[]"
        }
      ],
      "stateMutability": "view",
      "type": "function"
    },
    {
      "inputs": [
        {
          "internalType": "address",
          "name": "wallet",
          "type": "address"
        }
      ],
      "name": "withdrawAllFunds",
      "outputs": [],
      "stateMutability": "nonpayable",
      "type": "function"
    },
    {
      "inputs": [
        {
          "internalType": "address",
          "name": "wallet",
          "type": "address"
        },
        {
          "internalType": "uint256",
          "name": "amount",
          "type": "uint256"
        }
      ],
      "name": "withdrawFunds",
      "outputs": [],
      "stateMutability": "nonpayable",
      "type": "function"
    },
    {
      "stateMutability": "payable",
      "type": "receive"
    }
  ],
  "bytecode": "0x6101206040523480156200001257600080fd5b50604051620061ef380380620061ef8339810160408190526200003591620001d0565b60408051602081019091526000815286906200005181620000f4565b506001600160601b0319606091821b811660805296901b90951660a05260c09384526001600160c01b03199290931b9190911660e09081526001600160e01b031991901b1661010052600480546001600160a01b039384166001600160a01b0319918216179091556005805493909216928116929092179055600680549091163317905560006008819055600a556001600b55600c805460ff191690556200029e565b8051620001099060029060208401906200010d565b5050565b8280546200011b9062000261565b90600052602060002090601f0160209004810192826200013f57600085556200018a565b82601f106200015a57805160ff19168380011785556200018a565b828001600101855582156200018a579182015b828111156200018a5782518255916020019190600101906200016d565b50620001989291506200019c565b5090565b5b808211156200019857600081556001016200019d565b80516001600160a01b0381168114620001cb57600080fd5b919050565b60008060008060008060c08789031215620001ea57600080fd5b620001f587620001b3565b6020880151604089015191975095506001600160401b03811681146200021a57600080fd5b606088015190945063ffffffff811681146200023557600080fd5b92506200024560808801620001b3565b91506200025560a08801620001b3565b90509295509295509295565b600181811c908216806200027657607f821691505b602082108114156200029857634e487b7160e01b600052602260045260246000fd5b50919050565b60805160601c60a05160601c60c05160e05160c01c6101005160e01c615edd6200031260003960008181610a5e0152614361015260008181610599015261432e01526000818161080e01526143000152600081816108d7015261439c0152600081816112ef01526113170152615edd6000f3fe6080604052600436106103305760003560e01c8063893d20e8116101a7578063c4c42730116100ed578063e7fb74c711610090578063e7fb74c714610a95578063e985e9c514610ab5578063ebf82e5c14610afe578063f23a6e6114610b1e578063f242432a14610b4a578063f45b030e14610b6a578063f48c9d3414610b7f578063fd210fd914610b9f57600080fd5b8063c4c42730146109e0578063c7be7a4914610615578063c853d922146109f5578063d3c115f214610a17578063d547741f14610a2c578063d757d02714610a4c578063dd006d3114610733578063de08f65314610a8057600080fd5b8063a7b1942411610155578063a7b1942414610885578063a7bc77c6146108a5578063aebc4550146108c5578063b85e67af146108f9578063bbcbc2e714610919578063bc197c811461093b578063c107532914610980578063c25e2af4146109a057600080fd5b8063893d20e8146107b55780638dc5f45b146107dc5780638e879c8a146107fc57806391d14854146108305780639dc542ef14610850578063a217fddf14610709578063a22cb4651461086557600080fd5b8063470cdf9711610277578063704b6c021161021a578063704b6c02146106bf57806372cf6e34146106df57806375b238fc1461070957806378a895671461071e5780637dc379fa146107335780637f4e48491461076057806384203f4b14610780578063885c2f17146107a057600080fd5b8063470cdf97146105875780634a226657146105d35780634e1273f4146105e857806352a8bd221461061557806357f7789e146106425780635db30bb11461066257806367dd74ca1461067757806367f082b01461069757600080fd5b806320ba0814116102df57806320ba08141461047557806321c63a47146104a2578063248a9ca3146104b75780632ce38190146104e75780632eb2c2d6146105075780632f2ff15d1461052757806332dee40b1461054757806336568abe1461056757600080fd5b8062fdd58e1461033c57806301ffc9a71461036f578063020f19801461039f5780630e89341c146103c157806319c08575146103ee5780631cb0b273146104355780631fe543e31461045557600080fd5b3661033757005b600080fd5b34801561034857600080fd5b5061035c6103573660046152e8565b610bb5565b6040519081526020015b60405180910390f35b34801561037b57600080fd5b5061038f61038a36600461543b565b610c4f565b6040519015158152602001610366565b3480156103ab57600080fd5b506103bf6103ba36600461551a565b610c5a565b005b3480156103cd57600080fd5b506103e16103dc3660046153ff565b610e7f565b6040516103669190615910565b3480156103fa57600080fd5b5061040e6104093660046153ff565b610f21565b604080516001600160a01b0390941684526020840192909252151590820152606001610366565b34801561044157600080fd5b506103bf6104503660046153ff565b611247565b34801561046157600080fd5b506103bf61047036600461548e565b6112e4565b34801561048157600080fd5b5061035c6104903660046153ff565b60009081526010602052604090205490565b3480156104ae57600080fd5b50600a5461035c565b3480156104c357600080fd5b5061035c6104d23660046153ff565b60009081526003602052604090206001015490565b3480156104f357600080fd5b506103bf6105023660046153ff565b61135f565b34801561051357600080fd5b506103bf6105223660046151a4565b611391565b34801561053357600080fd5b506103bf610542366004615418565b611428565b34801561055357600080fd5b506103bf610562366004615156565b611452565b34801561057357600080fd5b506103bf610582366004615418565b611613565b34801561059357600080fd5b506105bb7f000000000000000000000000000000000000000000000000000000000000000081565b6040516001600160401b039091168152602001610366565b3480156105df57600080fd5b506103bf61168d565b3480156105f457600080fd5b50610608610603366004615312565b611a24565b60405161036691906158a7565b34801561062157600080fd5b506106356106303660046153ff565b611b4d565b6040516103669190615be0565b34801561064e57600080fd5b506103bf61065d3660046154ca565b611bcb565b34801561066e57600080fd5b5060075461035c565b34801561068357600080fd5b506103bf6106923660046153ff565b611c6f565b3480156106a357600080fd5b506106ac600381565b60405161ffff9091168152602001610366565b3480156106cb57600080fd5b506103bf6106da366004615156565b61217f565b3480156106eb57600080fd5b506106f4600281565b60405163ffffffff9091168152602001610366565b34801561071557600080fd5b5061035c600081565b34801561072a57600080fd5b5060085461035c565b34801561073f57600080fd5b5061075361074e3660046153ff565b6121b4565b6040516103669190615bd2565b34801561076c57600080fd5b50600c5460ff1660405161036691906158e8565b34801561078c57600080fd5b5061038f61079b366004615156565b612242565b3480156107ac57600080fd5b50600b5461035c565b3480156107c157600080fd5b506006546001600160a01b03165b60405161036691906156c2565b3480156107e857600080fd5b506103bf6107f73660046153ff565b6122df565b34801561080857600080fd5b5061035c7f000000000000000000000000000000000000000000000000000000000000000081565b34801561083c57600080fd5b5061038f61084b366004615418565b612339565b34801561085c57600080fd5b506103bf612364565b34801561087157600080fd5b506103bf6108803660046152b1565b6126bf565b34801561089157600080fd5b506103bf6108a036600461551a565b6126ca565b3480156108b157600080fd5b506103bf6108c03660046153ff565b6127b5565b3480156108d157600080fd5b506107cf7f000000000000000000000000000000000000000000000000000000000000000081565b34801561090557600080fd5b506103bf61091436600461553c565b6128d8565b34801561092557600080fd5b5061092e612c35565b6040516103669190615865565b34801561094757600080fd5b506109676109563660046151a4565b63bc197c8160e01b95945050505050565b6040516001600160e01b03199091168152602001610366565b34801561098c57600080fd5b506103bf61099b3660046152e8565b612e44565b3480156109ac57600080fd5b506109c06109bb366004615156565b612f90565b604080519485526020850193909352918301526060820152608001610366565b3480156109ec57600080fd5b5060095461035c565b348015610a0157600080fd5b50610a0a613060565b6040516103669190615817565b348015610a2357600080fd5b50610608613254565b348015610a3857600080fd5b506103bf610a47366004615418565b61333b565b348015610a5857600080fd5b506106f47f000000000000000000000000000000000000000000000000000000000000000081565b348015610a8c57600080fd5b506103bf613360565b348015610aa157600080fd5b506103bf610ab03660046153ff565b6133bf565b348015610ac157600080fd5b5061038f610ad0366004615171565b6001600160a01b03918216600090815260016020908152604080832093909416825291909152205460ff1690565b348015610b0a57600080fd5b506103bf610b1936600461553c565b613953565b348015610b2a57600080fd5b50610967610b3936600461524d565b63f23a6e6160e01b95945050505050565b348015610b5657600080fd5b506103bf610b6536600461524d565b613afe565b348015610b7657600080fd5b506103bf613b85565b348015610b8b57600080fd5b50610608610b9a366004615156565b613cff565b348015610bab57600080fd5b5061035c600f5481565b60006001600160a01b038316610c265760405162461bcd60e51b815260206004820152602b60248201527f455243313135353a2062616c616e636520717565727920666f7220746865207a60448201526a65726f206164647265737360a81b60648201526084015b60405180910390fd5b506000818152602081815260408083206001600160a01b03861684529091529020545b92915050565b6000610c4982613dc3565b6000610c663384610bb5565b11610ca55760405162461bcd60e51b815260206004820152600f60248201526e24ba32b6903737ba103337bab7321760891b6044820152606401610c1d565b60008111610cf55760405162461bcd60e51b815260206004820152601c60248201527f5072696365206d7573742062652067726561746572207468616e2030000000006044820152606401610c1d565b3360009081526016602090815260408083208584529091528120805460019290610d20908490615c11565b90915550506040805160a08101825283815260098054602083019081529282018481523360608401908152600160808501818152600d80549283018155600090815295517fd7b6990105719101dabeb77144f2a3385c8033acd3af97e9423a695e81ad1eb560049093029283015595517fd7b6990105719101dabeb77144f2a3385c8033acd3af97e9423a695e81ad1eb682015591517fd7b6990105719101dabeb77144f2a3385c8033acd3af97e9423a695e81ad1eb7830155517fd7b6990105719101dabeb77144f2a3385c8033acd3af97e9423a695e81ad1eb8909101805494516001600160a01b039092166001600160a81b031990951694909417600160a01b911515919091021790925581549190610e3b83615d21565b91905055507f23cba88d6c6f26b62b2cfc32a2cc04fbbde8590188b97cd3590e45af9ac6dd6d338383604051610e73939291906157d0565b60405180910390a15050565b6000818152601160205260409020805460609190610e9c90615cba565b80601f0160208091040260200160405190810160405280929190818152602001828054610ec890615cba565b8015610f155780601f10610eea57610100808354040283529160200191610f15565b820191906000526020600020905b815481529060010190602001808311610ef857829003601f168201915b50505050509050919050565b600080600080600e8581548110610f3a57610f3a615d92565b90600052602060002090600702016005015411610f935760405162461bcd60e51b81526020600482015260176024820152762a34b1b5b2ba1034b9903737ba1039b7b632103cb2ba1760491b6044820152606401610c1d565b6000600e8581548110610fa857610fa8615d92565b9060005260206000209060070201600101546000141561110057600e8581548110610fd557610fd5615d92565b906000526020600020906007020160020154603c610ff39190615c3d565b603c600e878154811061100857611008615d92565b906000526020600020906007020160050154426110259190615c5c565b61102f9190615c29565b14156110745760009050600e858154811061104c5761104c615d92565b600091825260208220600460079092020101546001600160a01b031694509092509050611240565b603c600e868154811061108957611089615d92565b906000526020600020906007020160050154426110a69190615c5c565b6110b09190615c29565b600e86815481106110c3576110c3615d92565b906000526020600020906007020160020154603c6110e19190615c3d565b6110eb9190615c5c565b9050600e858154811061104c5761104c615d92565b600e858154811061111357611113615d92565b906000526020600020906007020160020154603c6111319190615c3d565b603c600e878154811061114657611146615d92565b906000526020600020906007020160050154426111639190615c5c565b61116d9190615c29565b14156111b45760009050600e858154811061118a5761118a615d92565b60009182526020909120600460079092020101546001600160a01b03169350915060019050611240565b603c600e86815481106111c9576111c9615d92565b906000526020600020906007020160050154426111e69190615c5c565b6111f09190615c29565b600e868154811061120357611203615d92565b906000526020600020906007020160020154603c6112219190615c3d565b61122b9190615c5c565b9050600e858154811061118a5761118a615d92565b9193909250565b60006112533383610bb5565b1161125d57600080fd5b61126933826001613de8565b6000818152601060205260408120805460019290611288908490615c5c565b925050819055506001600760008282546112a29190615c5c565b90915550506040517f9e90d55d2f1f115ffe1b87372c45f27f6b3a2b5ba392942167be784561890094906112d990339084906157b7565b60405180910390a150565b336001600160a01b037f0000000000000000000000000000000000000000000000000000000000000000161461135157337f000000000000000000000000000000000000000000000000000000000000000060405163073e64fd60e21b8152600401610c1d9291906156d6565b61135b8282613f57565b5050565b61136833613f7c565b6113845760405162461bcd60e51b8152600401610c1d90615b62565b61138e3082613fb2565b50565b6001600160a01b0385163314806113ad57506113ad8533610ad0565b6114145760405162461bcd60e51b815260206004820152603260248201527f455243313135353a207472616e736665722063616c6c6572206973206e6f74206044820152711bdddb995c881b9bdc88185c1c1c9bdd995960721b6064820152608401610c1d565b611421858585858561401d565b5050505050565b600082815260036020526040902060010154611443816141fa565b61144d8383614204565b505050565b6006546001600160a01b0316331461147c5760405162461bcd60e51b8152600401610c1d90615ba3565b6005546040516370a0823160e01b81526000916001600160a01b0316906370a08231906114ad9030906004016156c2565b60206040518083038186803b1580156114c557600080fd5b505afa1580156114d9573d6000803e3d6000fd5b505050506040513d601f19601f820116820180604052508101906114fd9190615475565b1161151a5760405162461bcd60e51b8152600401610c1d906159e6565b6005546040516370a0823160e01b81526001600160a01b039091169063a9059cbb90839083906370a08231906115549030906004016156c2565b60206040518083038186803b15801561156c57600080fd5b505afa158015611580573d6000803e3d6000fd5b505050506040513d601f19601f820116820180604052508101906115a49190615475565b6040518363ffffffff1660e01b81526004016115c19291906157b7565b602060405180830381600087803b1580156115db57600080fd5b505af11580156115ef573d6000803e3d6000fd5b505050506040513d601f19601f8201168201806040525081019061135b91906153e2565b6001600160a01b03811633146116835760405162461bcd60e51b815260206004820152602f60248201527f416363657373436f6e74726f6c3a2063616e206f6e6c792072656e6f756e636560448201526e103937b632b9903337b91039b2b63360891b6064820152608401610c1d565b61135b828261428a565b6000600754116116df5760405162461bcd60e51b815260206004820152601c60248201527f546865726520617265206e6f206974656d73206176616c6961626c65000000006044820152606401610c1d565b6000600c5460ff1660018111156116f8576116f8615d7c565b146117155760405162461bcd60e51b8152600401610c1d90615a57565b600480546040516370a0823160e01b81526001926001600160a01b03909216916370a0823191611747913391016156c2565b60206040518083038186803b15801561175f57600080fd5b505afa158015611773573d6000803e3d6000fd5b505050506040513d601f19601f820116820180604052508101906117979190615475565b1015611817573360009081526013602052604090205460ff166118175760405162461bcd60e51b815260206004820152603260248201527f5573657220646f6573206e6f74206f776e732061205469636b657420666f722060448201527137b832b73734b733903a34329031b0b9b29760711b6064820152608401610c1d565b600554600b546040516323b872dd60e01b81526000926001600160a01b0316916323b872dd9161184e91339130919060040161574e565b602060405180830381600087803b15801561186857600080fd5b505af115801561187c573d6000803e3d6000fd5b505050506040513d601f19601f820116820180604052508101906118a091906153e2565b5060006118ab613254565b905060005b815181101561190557601060008383815181106118cf576118cf615d92565b6020026020010151815260200190815260200160002054836118f19190615c11565b9250806118fd81615d21565b9150506118b0565b506000826119116142f1565b61191b9190615d3c565b9050600080805b84518110156119c95760006010600087848151811061194357611943615d92565b6020026020010151815260200190815260200160002054846119659190615c11565b905080851115611977578093506119b6565b85828151811061198957611989615d92565b602002602001015192506119b0303385600160405180602001604052806000815250614418565b506119c9565b50806119c181615d21565b915050611922565b506119d333612242565b6119e0576119e033614530565b7fea32e37a2618dbb680c93d891742e9e13b30d184822562a0ee3c09290fd42b4333600b5483604051611a15939291906157d0565b60405180910390a15050505050565b60608151835114611a895760405162461bcd60e51b815260206004820152602960248201527f455243313135353a206163636f756e747320616e6420696473206c656e677468604482015268040dad2e6dac2e8c6d60bb1b6064820152608401610c1d565b600083516001600160401b03811115611aa457611aa4615da8565b604051908082528060200260200182016040528015611acd578160200160208202803683370190505b50905060005b8451811015611b4557611b18858281518110611af157611af1615d92565b6020026020010151858381518110611b0b57611b0b615d92565b6020026020010151610bb5565b828281518110611b2a57611b2a615d92565b6020908102919091010152611b3e81615d21565b9050611ad3565b509392505050565b611b55614f30565b600d8281548110611b6857611b68615d92565b60009182526020918290206040805160a0810182526004909302909101805483526001810154938301939093526002830154908201526003909101546001600160a01b038116606083015260ff600160a01b909104161515608082015292915050565b611bd433613f7c565b611bf05760405162461bcd60e51b8152600401610c1d90615b62565b60008281526011602052604090208054611c0990615cba565b159050611c505760405162461bcd60e51b815260206004820152601560248201527443616e206e6f74207365742075726920747769636560581b6044820152606401610c1d565b6000828152601160209081526040909120825161144d92840190614f6a565b6000600c5460ff166001811115611c8857611c88615d7c565b14611ca55760405162461bcd60e51b8152600401610c1d90615a57565b611cae33612242565b15611cfb5760405162461bcd60e51b815260206004820152601f60248201527f412056495020757365722063616e206e6f74206275792061207469636b6574006044820152606401610c1d565b336001600160a01b0316600e8281548110611d1857611d18615d92565b60009182526020909120600460079092020101546001600160a01b03161415611d915760405162461bcd60e51b815260206004820152602560248201527f596f752063616e206e6f74206275792061207469636b657420746f20796f75726044820152641039b2b63360d91b6064820152608401610c1d565b600e8181548110611da457611da4615d92565b600091825260209091206006600790920201015460ff161515600114611e165760405162461bcd60e51b815260206004820152602160248201527f5469636b6574206973206e6f742063757272656e746c79206176616c6961626c6044820152606560f81b6064820152608401610c1d565b6000600e8281548110611e2b57611e2b615d92565b6000918252602090912060079091020160040154600554600e80546001600160a01b03938416945092909116916323b872dd91339186908110611e7057611e70615d92565b906000526020600020906007020160040160009054906101000a90046001600160a01b0316600e8681548110611ea857611ea8615d92565b9060005260206000209060070201600301546040518463ffffffff1660e01b8152600401611ed89392919061574e565b602060405180830381600087803b158015611ef257600080fd5b505af1158015611f06573d6000803e3d6000fd5b505050506040513d601f19601f82011682018060405250810190611f2a91906153e2565b5042600e8381548110611f3f57611f3f615d92565b906000526020600020906007020160050181905550600060136000600e8581548110611f6d57611f6d615d92565b60009182526020808320600792909202909101600401546001600160a01b031683528201929092526040018120805460ff191692151592909217909155600e8054601291839186908110611fc357611fc3615d92565b60009182526020808320600792909202909101600401546001600160a01b031683528201929092526040018120805460ff191692151592909217909155600e805460019260159290918690811061201c5761201c615d92565b60009182526020808320600460079093020191909101546001600160a01b031683528281019390935260409182018120805494151560ff19958616179055338082526013909352208054909216600117909155600e80548490811061208357612083615d92565b906000526020600020906007020160040160006101000a8154816001600160a01b0302191690836001600160a01b031602179055506000600e83815481106120cd576120cd615d92565b60009182526020808320600792909202909101600601805460ff19169315159390931790925533808252601790925260409020839055600e80547f060f7dd92424d6f1af65d2fe9acba5b63d299cc26cd8eb26403ca371bc9fbfbb92859285928490811061213d5761213d615d92565b906000526020600020906007020160030154604051610e7394939291909384526001600160a01b03928316602085015291166040830152606082015260800190565b6006546001600160a01b031633146121a95760405162461bcd60e51b8152600401610c1d90615ba3565b61138e600082614681565b6121bc614fee565b600e82815481106121cf576121cf615d92565b60009182526020918290206040805160e0810182526007909302909101805483526001810154938301939093526002830154908201526003820154606082015260048201546001600160a01b03166080820152600582015460a082015260069091015460ff16151560c082015292915050565b600480546040516370a0823160e01b815260009283926001600160a01b0316916370a0823191612274918791016156c2565b60206040518083038186803b15801561228c57600080fd5b505afa1580156122a0573d6000803e3d6000fd5b505050506040513d601f19601f820116820180604052508101906122c49190615475565b11156122d257506001919050565b506000919050565b919050565b6122e833613f7c565b6123045760405162461bcd60e51b8152600401610c1d90615b62565b600b8190556040518181527f06cd74aabc11982a85b554df4d7833623303656fe69bed4db1b0cb3245feebe3906020016112d9565b60009182526003602090815260408084206001600160a01b0393909316845291905290205460ff1690565b61236d33612242565b6123895760405162461bcd60e51b8152600401610c1d90615ae1565b3360009081526017602090815260408083205460159092529091205460ff166123f45760405162461bcd60e51b815260206004820152601c60248201527f5573657220646964206e6f742073656c6c20616e79205469636b6574000000006044820152606401610c1d565b600e818154811061240757612407615d92565b906000526020600020906007020160010154600014806124915750600e818154811061243557612435615d92565b906000526020600020906007020160020154603c6124539190615c3d565b603c600e838154811061246857612468615d92565b906000526020600020906007020160050154426124859190615c5c565b61248f9190615c29565b145b6124fb5760405162461bcd60e51b815260206004820152603560248201527f4475726174696f6e206f6620746865205469636b6574206f72206e756d5472696044820152746573206973207374696c6c206176616c6961626c6560581b6064820152608401610c1d565b6000600e828154811061251057612510615d92565b906000526020600020906007020160040160009054906101000a90046001600160a01b03169050600060136000600e858154811061255057612550615d92565b60009182526020808320600460079093020191909101546001600160a01b031683528281019390935260409182018120805494151560ff1995861617905533808252601384528282208054861660011790556015909352208054909216909155600e8054849081106125c4576125c4615d92565b906000526020600020906007020160040160006101000a8154816001600160a01b0302191690836001600160a01b031602179055506001600e838154811061260e5761260e615d92565b906000526020600020906007020160060160006101000a81548160ff021916908315150217905550600160136000600e858154811061264f5761264f615d92565b60009182526020808320600792909202909101600401546001600160a01b031683528201929092526040908101909120805460ff191692151592909217909155517f5093646a80c0a81f51115fbf5ec8379ecf902ae2ba552c74599cbe844dcb53e390610e7390839033906156d6565b61135b33838361468b565b336001600160a01b0316600d83815481106126e7576126e7615d92565b60009182526020909120600360049092020101546001600160a01b0316146127215760405162461bcd60e51b8152600401610c1d90615a14565b6000600d838154811061273657612736615d92565b906000526020600020906004020160020154905081600d848154811061275e5761275e615d92565b9060005260206000209060040201600201819055507fb141d00f22a670547caacc412e6489d8edaba6a840df558118363ce1a40d6ed2338483856040516127a894939291906157f1565b60405180910390a1505050565b336001600160a01b0316600d82815481106127d2576127d2615d92565b60009182526020909120600360049092020101546001600160a01b03161461280c5760405162461bcd60e51b8152600401610c1d90615a14565b336000908152601660205260408120600d805460019391908590811061283457612834615d92565b906000526020600020906004020160000154815260200190815260200160002060008282546128639190615c5c565b925050819055506000600d828154811061287f5761287f615d92565b906000526020600020906004020160030160146101000a81548160ff0219169083151502179055507fc9cedcca3d85d6009a562a9e70071f6288adabda9ba7f059589165e75c9cf40433826040516112d99291906157b7565b6128e133612242565b6128fd5760405162461bcd60e51b8152600401610c1d90615ae1565b6000600c5460ff16600181111561291657612916615d7c565b146129335760405162461bcd60e51b8152600401610c1d90615a57565b3360009081526012602052604090205460ff16156129a65760405162461bcd60e51b815260206004820152602a60248201527f5573657220697320616c72656164792063757272656e746c792073656c6c696e60448201526919c81848151a58dad95d60b21b6064820152608401610c1d565b3360009081526014602052604090205460ff1615612a1d573360009081526013602052604090205460ff16612a1d5760405162461bcd60e51b815260206004820152601d60248201527f5573657220686173206e6f74207469636b6574206176616c6961626c650000006044820152606401610c1d565b6040805160e081018252600a805482526020808301878152838501878152606085018781523360808701818152600060a08901818152600160c08b01818152600e8054928301815584529a517fbb7b4a454dc3493923482f07822329ed19e8244eff582cc204f8554c3620c3fd60079092029182015596517fbb7b4a454dc3493923482f07822329ed19e8244eff582cc204f8554c3620c3fe88015594517fbb7b4a454dc3493923482f07822329ed19e8244eff582cc204f8554c3620c3ff87015592517fbb7b4a454dc3493923482f07822329ed19e8244eff582cc204f8554c3620c400860155517fbb7b4a454dc3493923482f07822329ed19e8244eff582cc204f8554c3620c401850180546001600160a01b0319166001600160a01b0390921691909117905591517fbb7b4a454dc3493923482f07822329ed19e8244eff582cc204f8554c3620c40284015594517fbb7b4a454dc3493923482f07822329ed19e8244eff582cc204f8554c3620c403909201805460ff1916921515929092179091558254908452601790915292822083905590612bbc83615d21565b90915550503360008181526012602090815260408083208054600160ff199182168117909255601484528285208054821690921790915560139092529182902080549091169055517f07814713aba2e13eb5f2470225f7395d33fad1452b70f8427dae73e4d3a59344916127a8918690869086906157f1565b60606000805b600d54811015612cfe576000600d8281548110612c5a57612c5a615d92565b60009182526020918290206040805160a08101825260049093029091018054835260018082015494840194909452600281015491830191909152600301546001600160a01b038116606083015260ff600160a01b90910416151560808201819052909250148015612cd85750612cd88160600151826000015161476c565b15612ceb57612ce8600184615c11565b92505b5080612cf681615d21565b915050612c3b565b506000816001600160401b03811115612d1957612d19615da8565b604051908082528060200260200182016040528015612d5257816020015b612d3f614f30565b815260200190600190039081612d375790505b5090506000805b600d54811015612e3b576000600d8281548110612d7857612d78615d92565b60009182526020918290206040805160a08101825260049093029091018054835260018082015494840194909452600281015491830191909152600301546001600160a01b038116606083015260ff600160a01b90910416151560808201819052909250148015612df65750612df68160600151826000015161476c565b15612e285780848481518110612e0e57612e0e615d92565b60200260200101819052508280612e2490615d21565b9350505b5080612e3381615d21565b915050612d59565b50909392505050565b6006546001600160a01b03163314612e6e5760405162461bcd60e51b8152600401610c1d90615ba3565b6005546040516370a0823160e01b81526000916001600160a01b0316906370a0823190612e9f9030906004016156c2565b60206040518083038186803b158015612eb757600080fd5b505afa158015612ecb573d6000803e3d6000fd5b505050506040513d601f19601f82011682018060405250810190612eef9190615475565b11612f0c5760405162461bcd60e51b8152600401610c1d906159e6565b60055460405163a9059cbb60e01b81526001600160a01b039091169063a9059cbb90612f3e90859085906004016157b7565b602060405180830381600087803b158015612f5857600080fd5b505af1158015612f6c573d6000803e3d6000fd5b505050506040513d601f19601f8201168201806040525081019061144d91906153e2565b600080600080612f9f8561478f565b60011480612fb35750612fb18561478f565b155b15612fd357600080612fc48761478f565b60009350935093509350613059565b6001600160a01b03851660009081526017602052604081205490612ff682610f21565b5091505080600e838154811061300e5761300e615d92565b9060005260206000209060070201600101546130298961478f565b600e858154811061303c5761303c615d92565b906000526020600020906007020160030154955095509550955050505b9193509193565b60606000805b600e54811015613120576000600e828154811061308557613085615d92565b60009182526020918290206040805160e081018252600790930290910180548352600180820154948401949094526002810154918301919091526003810154606083015260048101546001600160a01b03166080830152600581015460a08301526006015460ff16151560c08201819052909250141561310d5761310a600184615c11565b92505b508061311881615d21565b915050613066565b506000816001600160401b0381111561313b5761313b615da8565b60405190808252806020026020018201604052801561317457816020015b613161614fee565b8152602001906001900390816131595790505b5090506000805b600e54811015612e3b576000600e828154811061319a5761319a615d92565b60009182526020918290206040805160e081018252600790930290910180548352600180820154948401949094526002810154918301919091526003810154606083015260048101546001600160a01b03166080830152600581015460a08301526006015460ff16151560c082018190529092501415613241578084848151811061322757613227615d92565b6020026020010181905250828061323d90615d21565b9350505b508061324c81615d21565b91505061317b565b60606000805b6008548110156132965760006132703083610bb5565b1115613284578161328081615d21565b9250505b8061328e81615d21565b91505061325a565b506000816001600160401b038111156132b1576132b1615da8565b6040519080825280602002602001820160405280156132da578160200160208202803683370190505b5090506000805b600854811015612e3b5760006132f73083610bb5565b1115613329578083838151811061331057613310615d92565b60209081029190910101528161332581615d21565b9250505b8061333381615d21565b9150506132e1565b600082815260036020526040902060010154613356816141fa565b61144d838361428a565b61336933613f7c565b6133855760405162461bcd60e51b8152600401610c1d90615b62565b6000600c5460ff16600181111561339e5761339e615d7c565b14156133b357600c805460ff19166001179055565b600c805460ff19169055565b6000600d82815481106133d4576133d4615d92565b60009182526020918290206040805160a0810182526004909302909101805483526001810154938301939093526002830154908201526003909101546001600160a01b038116606083015260ff600160a01b9091041615156080820152600d8054919250908390811061344957613449615d92565b60009182526020909120600490910201600301546001600160a01b03163314156134c15760405162461bcd60e51b815260206004820152602360248201527f596f752063616e206e6f742062757920616e206974656d20746f20796f75727360448201526232b63360e91b6064820152608401610c1d565b600d82815481106134d4576134d4615d92565b906000526020600020906004020160030160149054906101000a900460ff16151560011515146135505760405162461bcd60e51b815260206004820152602160248201527f54686973206974656d206973206e6f74206f6e2073616c6520616e796d6f72656044820152601760f91b6064820152608401610c1d565b6135628160600151826000015161476c565b6135a55760405162461bcd60e51b815260206004820152601460248201527324ba32b6903237b2b9903737ba1032bc34b9ba1760611b6044820152606401610c1d565b6040808201516005549151636eb1769f60e11b815290916001600160a01b03169063dd62ed3e906135dc90339030906004016156d6565b60206040518083038186803b1580156135f457600080fd5b505afa158015613608573d6000803e3d6000fd5b505050506040513d601f19601f8201168201806040525081019061362c9190615475565b101561367a5760405162461bcd60e51b815260206004820152601c60248201527f496e73756666696369656e7420455243323020616c6c6f77616e6365000000006044820152606401610c1d565b600554600d80546001600160a01b03909216916323b872dd913391869081106136a5576136a5615d92565b906000526020600020906004020160030160009054906101000a90046001600160a01b0316600d86815481106136dd576136dd615d92565b9060005260206000209060040201600201546040518463ffffffff1660e01b815260040161370d9392919061574e565b602060405180830381600087803b15801561372757600080fd5b505af115801561373b573d6000803e3d6000fd5b505050506040513d601f19601f8201168201806040525081019061375f91906153e2565b506137d8600d838154811061377657613776615d92565b906000526020600020906004020160030160009054906101000a90046001600160a01b031633600d85815481106137af576137af615d92565b906000526020600020906004020160000154600160405180602001604052806000815250614418565b60608101516001600160a01b03166000908152601660209081526040808320845184529091528120805460019290613811908490615c5c565b925050819055506000600d838154811061382d5761382d615d92565b906000526020600020906004020160030160009054906101000a90046001600160a01b0316905033600d848154811061386857613868615d92565b906000526020600020906004020160030160006101000a8154816001600160a01b0302191690836001600160a01b031602179055506000600d84815481106138b2576138b2615d92565b906000526020600020906004020160030160146101000a81548160ff0219169083151502179055507f642067ff529c9b5b1162502fc8e8a3a91dda56e126a84f2fe38d341236231a82338285600d878154811061391157613911615d92565b600091825260209182902060026004909202010154604080516001600160a01b03968716815295909416918501919091529183015260608201526080016127a8565b61395c33612242565b6139785760405162461bcd60e51b8152600401610c1d90615ae1565b6000600c5460ff16600181111561399157613991615d7c565b146139ae5760405162461bcd60e51b8152600401610c1d90615a57565b3360009081526017602090815260408083205460129092529091205460ff166139e95760405162461bcd60e51b8152600401610c1d906159a0565b336001600160a01b0316600e8281548110613a0657613a06615d92565b60009182526020909120600460079092020101546001600160a01b031614613a405760405162461bcd60e51b8152600401610c1d9061596b565b81600e8281548110613a5457613a54615d92565b90600052602060002090600702016003018190555082600e8281548110613a7d57613a7d615d92565b90600052602060002090600702016002018190555083600e8281548110613aa657613aa6615d92565b9060005260206000209060070201600101819055507f0fcd915268f7fe921a6c99bd903199d2f30c7f65a422416bfd1de6a264b8264d33858585604051613af094939291906157f1565b60405180910390a150505050565b6001600160a01b038516331480613b1a5750613b1a8533610ad0565b613b785760405162461bcd60e51b815260206004820152602960248201527f455243313135353a2063616c6c6572206973206e6f74206f776e6572206e6f7260448201526808185c1c1c9bdd995960ba1b6064820152608401610c1d565b6114218585858585614418565b613b8e33612242565b613baa5760405162461bcd60e51b8152600401610c1d90615ae1565b6000600c5460ff166001811115613bc357613bc3615d7c565b14613be05760405162461bcd60e51b8152600401610c1d90615a57565b3360009081526017602090815260408083205460129092529091205460ff16613c1b5760405162461bcd60e51b8152600401610c1d906159a0565b336001600160a01b0316600e8281548110613c3857613c38615d92565b60009182526020909120600460079092020101546001600160a01b031614613c725760405162461bcd60e51b8152600401610c1d9061596b565b6000600e8281548110613c8757613c87615d92565b60009182526020808320600660079093020191909101805493151560ff1994851617905533808352601282526040808420805486169055601390925291819020805490931660011790925590517f5dbab6b1e9ddd154d6eb51aa5622fb5278ea62a0b5f81d046a945d899490f631916112d9916156c2565b606060006008546001600160401b03811115613d1d57613d1d615da8565b604051908082528060200260200182016040528015613d46578160200160208202803683370190505b50905060005b8151811015613dbc576001600160a01b0384166000908152601660209081526040808320848452909152902054613d838583610bb5565b613d8d9190615c5c565b828281518110613d9f57613d9f615d92565b602090810291909101015280613db481615d21565b915050613d4c565b5092915050565b60006001600160e01b03198216637965db0b60e01b1480610c495750610c498261493c565b6001600160a01b038316613e4a5760405162461bcd60e51b815260206004820152602360248201527f455243313135353a206275726e2066726f6d20746865207a65726f206164647260448201526265737360e81b6064820152608401610c1d565b336000613e5684614961565b90506000613e6384614961565b60408051602080820183526000918290528882528181528282206001600160a01b038b1683529052205490915084811015613eec5760405162461bcd60e51b8152602060048201526024808201527f455243313135353a206275726e20616d6f756e7420657863656564732062616c604482015263616e636560e01b6064820152608401610c1d565b6000868152602081815260408083206001600160a01b038b81168086529184528285208a8703905582518b81529384018a9052909290881691600080516020615e88833981519152910160405180910390a46040805160208101909152600090525b50505050505050565b80600081518110613f6a57613f6a615d92565b6020026020010151600f819055505050565b6006546000906001600160a01b0383811691161480613fa15750613fa1600083612339565b613faa57600080fd5b506001919050565b613fcf8260085483604051806020016040528060008152506149ac565b613fe86008548260009182526010602052604090912055565b8060076000828254613ffa9190615c11565b925050819055506001600860008282546140149190615c11565b90915550505050565b815183511461407f5760405162461bcd60e51b815260206004820152602860248201527f455243313135353a2069647320616e6420616d6f756e7473206c656e677468206044820152670dad2e6dac2e8c6d60c31b6064820152608401610c1d565b6001600160a01b0384166140a55760405162461bcd60e51b8152600401610c1d90615a9c565b3360005b845181101561418c5760008582815181106140c6576140c6615d92565b6020026020010151905060008583815181106140e4576140e4615d92565b602090810291909101810151600084815280835260408082206001600160a01b038e1683529093529190912054909150818110156141345760405162461bcd60e51b8152600401610c1d90615b18565b6000838152602081815260408083206001600160a01b038e8116855292528083208585039055908b16825281208054849290614171908490615c11565b925050819055505050508061418590615d21565b90506140a9565b50846001600160a01b0316866001600160a01b0316826001600160a01b03167f4a39dc06d4c0dbc64b70af90fd698a233a518aa5d07e595d983b8c0526c8f7fb87876040516141dc9291906158ba565b60405180910390a46141f2818787878787614aa5565b505050505050565b61138e8133614c10565b61420e8282612339565b61135b5760008281526003602090815260408083206001600160a01b03851684529091529020805460ff191660011790556142463390565b6001600160a01b0316816001600160a01b0316837f2f8788117e7eff1d82e926ec794901d17c78024a50270940304540a733656f0d60405160405180910390a45050565b6142948282612339565b1561135b5760008281526003602090815260408083206001600160a01b0385168085529252808320805460ff1916905551339285917ff6391f5c32d9c69d2a47ea670b442974b53935d1edc7fd64eb21e047a839171b9190a45050565b6040516305d3b1d360e41b81527f000000000000000000000000000000000000000000000000000000000000000060048201526001600160401b037f00000000000000000000000000000000000000000000000000000000000000001660248201526003604482015263ffffffff7f00000000000000000000000000000000000000000000000000000000000000001660648201526002608482015260009081906001600160a01b037f00000000000000000000000000000000000000000000000000000000000000001690635d3b1d309060a401602060405180830381600087803b1580156143e057600080fd5b505af11580156143f4573d6000803e3d6000fd5b505050506040513d601f19601f82011682018060405250810190610c499190615475565b6001600160a01b03841661443e5760405162461bcd60e51b8152600401610c1d90615a9c565b33600061444a85614961565b9050600061445785614961565b90506000868152602081815260408083206001600160a01b038c1684529091529020548581101561449a5760405162461bcd60e51b8152600401610c1d90615b18565b6000878152602081815260408083206001600160a01b038d8116855292528083208985039055908a168252812080548892906144d7908490615c11565b909155505060408051888152602081018890526001600160a01b03808b16928c82169291881691600080516020615e88833981519152910160405180910390a4614525848a8a8a8a8a614c74565b505050505050505050565b60005b600e5481101561135b57816001600160a01b0316600e828154811061455a5761455a615d92565b60009182526020909120600460079092020101546001600160a01b0316141561466f57600e818154811061459057614590615d92565b9060005260206000209060070201600101546001146145e457600e81815481106145bc576145bc615d92565b6000918252602082206001600790920201018054916145da83615ca3565b919050555061466f565b600e81815481106145f7576145f7615d92565b60009182526020822060016007909202010180549161461583615ca3565b91905055506000600e828154811061462f5761462f615d92565b60009182526020808320600660079093020191909101805493151560ff199485161790556001600160a01b03851682526013905260409020805490911690555b8061467981615d21565b915050614533565b61135b8282614204565b816001600160a01b0316836001600160a01b031614156146ff5760405162461bcd60e51b815260206004820152602960248201527f455243313135353a2073657474696e6720617070726f76616c20737461747573604482015268103337b91039b2b63360b91b6064820152608401610c1d565b6001600160a01b03838116600081815260016020908152604080832094871680845294825291829020805460ff191686151590811790915591519182527f17307eab39ab6107e8899845ad3d59bd9653f200f220920489ca2b5937696c31910160405180910390a3505050565b6000806147798484610bb5565b111561478757506001610c49565b506000610c49565b60008061479b83612242565b80156147c057506001600160a01b03831660009081526014602052604090205460ff16155b156147cd57506001610c49565b6147d683612242565b1580156147fb57506001600160a01b03831660009081526013602052604090205460ff165b1561480857506002610c49565b61481183612242565b801561483657506001600160a01b03831660009081526012602052604090205460ff16155b801561485b57506001600160a01b03831660009081526013602052604090205460ff16155b801561487f57506001600160a01b03831660009081526014602052604090205460ff165b80156148a357506001600160a01b03831660009081526015602052604090205460ff165b156148b057506003610c49565b6148b983612242565b80156148dd57506001600160a01b03831660009081526012602052604090205460ff165b801561490257506001600160a01b03831660009081526013602052604090205460ff16155b801561492657506001600160a01b03831660009081526014602052604090205460ff165b1561493357506004610c49565b50600092915050565b60006001600160e01b03198216630271189760e51b1480610c495750610c4982614d3e565b6040805160018082528183019092526060916000919060208083019080368337019050509050828160008151811061499b5761499b615d92565b602090810291909101015292915050565b6001600160a01b038416614a0c5760405162461bcd60e51b815260206004820152602160248201527f455243313135353a206d696e7420746f20746865207a65726f206164647265736044820152607360f81b6064820152608401610c1d565b336000614a1885614961565b90506000614a2585614961565b90506000868152602081815260408083206001600160a01b038b16845290915281208054879290614a57908490615c11565b909155505060408051878152602081018790526001600160a01b03808a169260009291871691600080516020615e88833981519152910160405180910390a4613f4e83600089898989614c74565b6001600160a01b0384163b156141f25760405163bc197c8160e01b81526001600160a01b0385169063bc197c8190614ae990899089908890889088906004016156f0565b602060405180830381600087803b158015614b0357600080fd5b505af1925050508015614b33575060408051601f3d908101601f19168201909252614b3091810190615458565b60015b614be057614b3f615dbe565b806308c379a01415614b795750614b54615dda565b80614b5f5750614b7b565b8060405162461bcd60e51b8152600401610c1d9190615910565b505b60405162461bcd60e51b815260206004820152603460248201527f455243313135353a207472616e7366657220746f206e6f6e20455243313135356044820152732932b1b2b4bb32b91034b6b83632b6b2b73a32b960611b6064820152608401610c1d565b6001600160e01b0319811663bc197c8160e01b14613f4e5760405162461bcd60e51b8152600401610c1d90615923565b614c1a8282612339565b61135b57614c32816001600160a01b03166014614d8e565b614c3d836020614d8e565b604051602001614c4e929190615653565b60408051601f198184030181529082905262461bcd60e51b8252610c1d91600401615910565b6001600160a01b0384163b156141f25760405163f23a6e6160e01b81526001600160a01b0385169063f23a6e6190614cb89089908990889088908890600401615772565b602060405180830381600087803b158015614cd257600080fd5b505af1925050508015614d02575060408051601f3d908101601f19168201909252614cff91810190615458565b60015b614d0e57614b3f615dbe565b6001600160e01b0319811663f23a6e6160e01b14613f4e5760405162461bcd60e51b8152600401610c1d90615923565b60006001600160e01b03198216636cdb3d1360e11b1480614d6f57506001600160e01b031982166303a24d0760e21b145b80610c4957506301ffc9a760e01b6001600160e01b0319831614610c49565b60606000614d9d836002615c3d565b614da8906002615c11565b6001600160401b03811115614dbf57614dbf615da8565b6040519080825280601f01601f191660200182016040528015614de9576020820181803683370190505b509050600360fc1b81600081518110614e0457614e04615d92565b60200101906001600160f81b031916908160001a905350600f60fb1b81600181518110614e3357614e33615d92565b60200101906001600160f81b031916908160001a9053506000614e57846002615c3d565b614e62906001615c11565b90505b6001811115614eda576f181899199a1a9b1b9c1cb0b131b232b360811b85600f1660108110614e9657614e96615d92565b1a60f81b828281518110614eac57614eac615d92565b60200101906001600160f81b031916908160001a90535060049490941c93614ed381615ca3565b9050614e65565b508315614f295760405162461bcd60e51b815260206004820181905260248201527f537472696e67733a20686578206c656e67746820696e73756666696369656e746044820152606401610c1d565b9392505050565b6040518060a0016040528060008152602001600081526020016000815260200160006001600160a01b031681526020016000151581525090565b828054614f7690615cba565b90600052602060002090601f016020900481019282614f985760008555614fde565b82601f10614fb157805160ff1916838001178555614fde565b82800160010185558215614fde579182015b82811115614fde578251825591602001919060010190614fc3565b50614fea929150615036565b5090565b6040518060e001604052806000815260200160008152602001600081526020016000815260200160006001600160a01b03168152602001600081526020016000151581525090565b5b80821115614fea5760008155600101615037565b60006001600160401b0383111561506457615064615da8565b60405161507b601f8501601f191660200182615cf5565b80915083815284848401111561509057600080fd5b83836020830137600060208583010152509392505050565b80356001600160a01b03811681146122da57600080fd5b600082601f8301126150d057600080fd5b813560206150dd82615bee565b6040516150ea8282615cf5565b8381528281019150858301600585901b8701840188101561510a57600080fd5b60005b858110156151295781358452928401929084019060010161510d565b5090979650505050505050565b600082601f83011261514757600080fd5b614f298383356020850161504b565b60006020828403121561516857600080fd5b614f29826150a8565b6000806040838503121561518457600080fd5b61518d836150a8565b915061519b602084016150a8565b90509250929050565b600080600080600060a086880312156151bc57600080fd5b6151c5866150a8565b94506151d3602087016150a8565b935060408601356001600160401b03808211156151ef57600080fd5b6151fb89838a016150bf565b9450606088013591508082111561521157600080fd5b61521d89838a016150bf565b9350608088013591508082111561523357600080fd5b5061524088828901615136565b9150509295509295909350565b600080600080600060a0868803121561526557600080fd5b61526e866150a8565b945061527c602087016150a8565b9350604086013592506060860135915060808601356001600160401b038111156152a557600080fd5b61524088828901615136565b600080604083850312156152c457600080fd5b6152cd836150a8565b915060208301356152dd81615e63565b809150509250929050565b600080604083850312156152fb57600080fd5b615304836150a8565b946020939093013593505050565b6000806040838503121561532557600080fd5b82356001600160401b038082111561533c57600080fd5b818501915085601f83011261535057600080fd5b8135602061535d82615bee565b60405161536a8282615cf5565b8381528281019150858301600585901b870184018b101561538a57600080fd5b600096505b848710156153b4576153a0816150a8565b83526001969096019591830191830161538f565b50965050860135925050808211156153cb57600080fd5b506153d8858286016150bf565b9150509250929050565b6000602082840312156153f457600080fd5b8151614f2981615e63565b60006020828403121561541157600080fd5b5035919050565b6000806040838503121561542b57600080fd5b8235915061519b602084016150a8565b60006020828403121561544d57600080fd5b8135614f2981615e71565b60006020828403121561546a57600080fd5b8151614f2981615e71565b60006020828403121561548757600080fd5b5051919050565b600080604083850312156154a157600080fd5b8235915060208301356001600160401b038111156154be57600080fd5b6153d8858286016150bf565b600080604083850312156154dd57600080fd5b8235915060208301356001600160401b038111156154fa57600080fd5b8301601f8101851361550b57600080fd5b6153d88582356020840161504b565b6000806040838503121561552d57600080fd5b50508035926020909101359150565b60008060006060848603121561555157600080fd5b505081359360208301359350604090920135919050565b600081518084526020808501945080840160005b838110156155985781518752958201959082019060010161557c565b509495945050505050565b600081518084526155bb816020860160208601615c73565b601f01601f19169290920160200192915050565b805182526020808201519083015260408082015190830152606080820151908301526080808201516001600160a01b03169083015260a0808201519083015260c0908101511515910152565b8051825260208082015190830152604080820151908301526060808201516001600160a01b0316908301526080908101511515910152565b76020b1b1b2b9b9a1b7b73a3937b61d1030b1b1b7bab73a1604d1b815260008351615685816017850160208801615c73565b7001034b99036b4b9b9b4b733903937b6329607d1b60179184019182015283516156b6816028840160208801615c73565b01602801949350505050565b6001600160a01b0391909116815260200190565b6001600160a01b0392831681529116602082015260400190565b6001600160a01b0386811682528516602082015260a06040820181905260009061571c90830186615568565b828103606084015261572e8186615568565b9050828103608084015261574281856155a3565b98975050505050505050565b6001600160a01b039384168152919092166020820152604081019190915260600190565b6001600160a01b03868116825285166020820152604081018490526060810183905260a0608082018190526000906157ac908301846155a3565b979650505050505050565b6001600160a01b03929092168252602082015260400190565b6001600160a01b039390931683526020830191909152604082015260600190565b6001600160a01b0394909416845260208401929092526040830152606082015260800190565b6020808252825182820181905260009190848201906040850190845b81811015615859576158468385516155cf565b9284019260e09290920191600101615833565b50909695505050505050565b6020808252825182820181905260009190848201906040850190845b818110156158595761589483855161561b565b9284019260a09290920191600101615881565b602081526000614f296020830184615568565b6040815260006158cd6040830185615568565b82810360208401526158df8185615568565b95945050505050565b602081016002831061590a57634e487b7160e01b600052602160045260246000fd5b91905290565b602081526000614f2960208301846155a3565b60208082526028908201527f455243313135353a204552433131353552656365697665722072656a656374656040820152676420746f6b656e7360c01b606082015260800190565b6020808252818101527f55736572206973206e6f74206f776e6572206f662074686973207469636b6574604082015260600190565b60208082526026908201527f55736572206973206e6f742063757272656e746c792073656c6c696e67206120604082015265151a58dad95d60d21b606082015260800190565b6020808252601490820152734e6f2066756e647320746f20776974686472617760601b604082015260600190565b60208082526023908201527f596f7520617265206e6f7420746865206f776e6572206f66207468697320697460408201526232b69760e91b606082015260800190565b60208082526025908201527f436f6e7472616374206973206e6f74206163746976652061742074686973206d6040820152641bdb595b9d60da1b606082015260800190565b60208082526025908201527f455243313135353a207472616e7366657220746f20746865207a65726f206164604082015264647265737360d81b606082015260800190565b6020808252601d908201527f5573657220646f6573206e6f74206f776e732061204d7243727970746f000000604082015260600190565b6020808252602a908201527f455243313135353a20696e73756666696369656e742062616c616e636520666f60408201526939103a3930b739b332b960b11b606082015260800190565b60208082526021908201527f55736572206973206e6f7420746865204f776e6572206f7220616e2041646d696040820152603760f91b606082015260800190565b6020808252601590820152742ab9b2b91034b9903737ba103a34329037bbb732b960591b604082015260600190565b60e08101610c4982846155cf565b60a08101610c49828461561b565b60006001600160401b03821115615c0757615c07615da8565b5060051b60200190565b60008219821115615c2457615c24615d50565b500190565b600082615c3857615c38615d66565b500490565b6000816000190483118215151615615c5757615c57615d50565b500290565b600082821015615c6e57615c6e615d50565b500390565b60005b83811015615c8e578181015183820152602001615c76565b83811115615c9d576000848401525b50505050565b600081615cb257615cb2615d50565b506000190190565b600181811c90821680615cce57607f821691505b60208210811415615cef57634e487b7160e01b600052602260045260246000fd5b50919050565b601f8201601f191681016001600160401b0381118282101715615d1a57615d1a615da8565b6040525050565b6000600019821415615d3557615d35615d50565b5060010190565b600082615d4b57615d4b615d66565b500690565b634e487b7160e01b600052601160045260246000fd5b634e487b7160e01b600052601260045260246000fd5b634e487b7160e01b600052602160045260246000fd5b634e487b7160e01b600052603260045260246000fd5b634e487b7160e01b600052604160045260246000fd5b600060033d1115615dd75760046000803e5060005160e01c5b90565b600060443d1015615de85790565b6040516003193d81016004833e81513d6001600160401b038160248401118184111715615e1757505050505090565b8285019150815181811115615e2f5750505050505090565b843d8701016020828501011115615e495750505050505090565b615e5860208286010187615cf5565b509095945050505050565b801515811461138e57600080fd5b6001600160e01b03198116811461138e57600080fdfec3d58168c5ae7397731d063d5bbf3d657854427343f4c083240f7aacaa2d0f62a26469706673582212204da2b916a65ee1030663cdffafa5b97c9eca70c53d2414ed37daba63fd2eb98f64736f6c63430008070033",
  "linkReferences": {},
  "deployedLinkReferences": {}
}