{
  "_format": "hh-sol-artifact-1",
  "contractName": "Tickets",
  "sourceName": "contracts/Tickets.sol",
  "abi": [
    {
      "inputs": [
        {
          "internalType": "address",
          "name": "_racksItems",
          "type": "address"
        },
        {
          "internalType": "address",
          "name": "_mrCrypto",
          "type": "address"
        }
      ],
      "stateMutability": "nonpayable",
      "type": "constructor"
    },
    {
      "inputs": [
        {
          "internalType": "address",
          "name": "owner",
          "type": "address"
        },
        {
          "internalType": "address",
          "name": "spender",
          "type": "address"
        },
        {
          "internalType": "bool",
          "name": "permission",
          "type": "bool"
        }
      ],
      "name": "approveTicket",
      "outputs": [],
      "stateMutability": "nonpayable",
      "type": "function"
    },
    {
      "inputs": [
        {
          "internalType": "uint256",
          "name": "ticketId",
          "type": "uint256"
        },
        {
          "internalType": "address",
          "name": "user",
          "type": "address"
        }
      ],
      "name": "buyTicket",
      "outputs": [],
      "stateMutability": "nonpayable",
      "type": "function"
    },
    {
      "inputs": [
        {
          "internalType": "address",
          "name": "from",
          "type": "address"
        },
        {
          "internalType": "uint256",
          "name": "newTries",
          "type": "uint256"
        },
        {
          "internalType": "uint256",
          "name": "newHours",
          "type": "uint256"
        },
        {
          "internalType": "uint256",
          "name": "newPrice",
          "type": "uint256"
        },
        {
          "internalType": "address",
          "name": "user",
          "type": "address"
        }
      ],
      "name": "changeTicketConditions",
      "outputs": [],
      "stateMutability": "nonpayable",
      "type": "function"
    },
    {
      "inputs": [
        {
          "internalType": "address",
          "name": "from",
          "type": "address"
        },
        {
          "internalType": "address",
          "name": "user",
          "type": "address"
        }
      ],
      "name": "claimTicketBack",
      "outputs": [],
      "stateMutability": "nonpayable",
      "type": "function"
    },
    {
      "inputs": [
        {
          "internalType": "address",
          "name": "user",
          "type": "address"
        }
      ],
      "name": "decreaseTicketTries",
      "outputs": [],
      "stateMutability": "nonpayable",
      "type": "function"
    },
    {
      "inputs": [
        {
          "internalType": "uint256",
          "name": "ticketId",
          "type": "uint256"
        }
      ],
      "name": "getMarketTicket",
      "outputs": [
        {
          "internalType": "uint256",
          "name": "numTries",
          "type": "uint256"
        },
        {
          "internalType": "uint256",
          "name": "duration",
          "type": "uint256"
        },
        {
          "internalType": "uint256",
          "name": "price",
          "type": "uint256"
        },
        {
          "internalType": "address",
          "name": "owner",
          "type": "address"
        },
        {
          "internalType": "uint256",
          "name": "timeWhenSold",
          "type": "uint256"
        },
        {
          "internalType": "bool",
          "name": "isAvaliable",
          "type": "bool"
        }
      ],
      "stateMutability": "view",
      "type": "function"
    },
    {
      "inputs": [],
      "name": "getTicketCount",
      "outputs": [
        {
          "internalType": "uint256",
          "name": "",
          "type": "uint256"
        }
      ],
      "stateMutability": "view",
      "type": "function"
    },
    {
      "inputs": [
        {
          "internalType": "uint256",
          "name": "ticketId",
          "type": "uint256"
        }
      ],
      "name": "getTicketDurationLeft",
      "outputs": [
        {
          "internalType": "address",
          "name": "",
          "type": "address"
        },
        {
          "internalType": "uint256",
          "name": "",
          "type": "uint256"
        },
        {
          "internalType": "bool",
          "name": "",
          "type": "bool"
        }
      ],
      "stateMutability": "view",
      "type": "function"
    },
    {
      "inputs": [],
      "name": "getTicketsOnSale",
      "outputs": [
        {
          "components": [
            {
              "internalType": "uint256",
              "name": "ticketId",
              "type": "uint256"
            },
            {
              "internalType": "uint256",
              "name": "numTries",
              "type": "uint256"
            },
            {
              "internalType": "uint256",
              "name": "duration",
              "type": "uint256"
            },
            {
              "internalType": "uint256",
              "name": "price",
              "type": "uint256"
            },
            {
              "internalType": "address",
              "name": "owner",
              "type": "address"
            },
            {
              "internalType": "uint256",
              "name": "timeWhenSold",
              "type": "uint256"
            },
            {
              "internalType": "bool",
              "name": "isAvaliable",
              "type": "bool"
            }
          ],
          "internalType": "struct ITickets.caseTicket[]",
          "name": "",
          "type": "tuple[]"
        }
      ],
      "stateMutability": "view",
      "type": "function"
    },
    {
      "inputs": [
        {
          "internalType": "address",
          "name": "user",
          "type": "address"
        }
      ],
      "name": "getUserTicket",
      "outputs": [
        {
          "internalType": "uint256",
          "name": "durationLeft",
          "type": "uint256"
        },
        {
          "internalType": "uint256",
          "name": "triesLeft",
          "type": "uint256"
        },
        {
          "internalType": "uint256",
          "name": "ownerOrSpender",
          "type": "uint256"
        },
        {
          "internalType": "uint256",
          "name": "ticketPrice",
          "type": "uint256"
        }
      ],
      "stateMutability": "view",
      "type": "function"
    },
    {
      "inputs": [
        {
          "internalType": "address",
          "name": "user",
          "type": "address"
        }
      ],
      "name": "isApproved",
      "outputs": [
        {
          "internalType": "bool",
          "name": "",
          "type": "bool"
        }
      ],
      "stateMutability": "view",
      "type": "function"
    },
    {
      "inputs": [
        {
          "internalType": "address",
          "name": "from",
          "type": "address"
        },
        {
          "internalType": "uint256",
          "name": "numTries",
          "type": "uint256"
        },
        {
          "internalType": "uint256",
          "name": "_hours",
          "type": "uint256"
        },
        {
          "internalType": "uint256",
          "name": "price",
          "type": "uint256"
        },
        {
          "internalType": "address",
          "name": "user",
          "type": "address"
        }
      ],
      "name": "listTicket",
      "outputs": [],
      "stateMutability": "nonpayable",
      "type": "function"
    },
    {
      "inputs": [
        {
          "internalType": "address",
          "name": "owner",
          "type": "address"
        },
        {
          "internalType": "address",
          "name": "spender",
          "type": "address"
        }
      ],
      "name": "ticketAllowance",
      "outputs": [
        {
          "internalType": "bool",
          "name": "",
          "type": "bool"
        }
      ],
      "stateMutability": "view",
      "type": "function"
    },
    {
      "inputs": [
        {
          "internalType": "address",
          "name": "from",
          "type": "address"
        },
        {
          "internalType": "address",
          "name": "user",
          "type": "address"
        }
      ],
      "name": "unListTicket",
      "outputs": [],
      "stateMutability": "nonpayable",
      "type": "function"
    }
  ],
  "bytecode": "0x60806040523480156200001157600080fd5b50604051620023c5380380620023c5833981016040819052620000349162000083565b600080546001600160a01b039384166001600160a01b03199182161790915560018054929093169116179055620000bb565b80516001600160a01b03811681146200007e57600080fd5b919050565b600080604083850312156200009757600080fd5b620000a28362000066565b9150620000b26020840162000066565b90509250929050565b6122fa80620000cb6000396000f3fe608060405234801561001057600080fd5b50600436106100ca5760003560e01c8063846618ab1161007c578063846618ab146101a9578063983ba044146101bc578063c25e2af4146101cf578063c853d92214610202578063cc4ac04d14610217578063dd006d311461022a578063f200e1611461027557600080fd5b806319c08575146100cf57806321c63a471461010e57806330dc27641461011f57806361eadf2c1461013457806362a845ec14610147578063673448dd1461015a57806369fedbba14610196575b600080fd5b6100e26100dd366004612001565b610288565b604080516001600160a01b03909416845260208401929092521515908201526060015b60405180910390f35b600254604051908152602001610105565b61013261012d366004611ef8565b6105b2565b005b610132610142366004611f94565b61068a565b610132610155366004612033565b610a48565b610186610168366004611ef8565b6001600160a01b031660009081526005602052604090205460ff1690565b6040519015158152602001610105565b6101326101a4366004611f94565b610e2b565b6101326101b7366004611f1a565b610fa1565b6101866101ca366004611f1a565b6111e6565b6101e26101dd366004611ef8565b611214565b604080519485526020850193909352918301526060820152608001610105565b61020a61130f565b604051610105919061206a565b610132610225366004611f4d565b61157b565b61023d610238366004612001565b6115df565b604080519687526020870195909552938501929092526001600160a01b031660608401526080830152151560a082015260c001610105565b610132610283366004611f1a565b61168a565b600080600080600385815481106102a1576102a1612287565b906000526020600020906007020160050154116102fe5760405162461bcd60e51b8152602060048201526016602482015275151a58dad95d081a5cc81b9bdd081cdbdb19081e595d60521b60448201526064015b60405180910390fd5b60006003858154811061031357610313612287565b9060005260206000209060070201600101546000141561046b576003858154811061034057610340612287565b906000526020600020906007020160020154603c61035e9190612209565b603c6003878154811061037357610373612287565b906000526020600020906007020160050154426103909190612228565b61039a91906121e7565b14156103df5760009050600385815481106103b7576103b7612287565b600091825260208220600460079092020101546001600160a01b0316945090925090506105ab565b603c600386815481106103f4576103f4612287565b906000526020600020906007020160050154426104119190612228565b61041b91906121e7565b6003868154811061042e5761042e612287565b906000526020600020906007020160020154603c61044c9190612209565b6104569190612228565b9050600385815481106103b7576103b7612287565b6003858154811061047e5761047e612287565b906000526020600020906007020160020154603c61049c9190612209565b603c600387815481106104b1576104b1612287565b906000526020600020906007020160050154426104ce9190612228565b6104d891906121e7565b141561051f5760009050600385815481106104f5576104f5612287565b60009182526020909120600460079092020101546001600160a01b031693509150600190506105ab565b603c6003868154811061053457610534612287565b906000526020600020906007020160050154426105519190612228565b61055b91906121e7565b6003868154811061056e5761056e612287565b906000526020600020906007020160020154603c61058c9190612209565b6105969190612228565b9050600385815481106104f5576104f5612287565b9193909250565b6001600160a01b0381166000908152600a602052604090205460038054829081106105df576105df612287565b906000526020600020906007020160010154600114610632576003818154811061060b5761060b612287565b6000918252602082206001600790920201018054916106298361223f565b91905055505050565b6003818154811061064557610645612287565b6000918252602082206001600790920201018054916106638361223f565b9091555050506001600160a01b03166000908152600760205260409020805460ff19169055565b6000546001600160a01b031633146106b45760405162461bcd60e51b81526004016102f590612172565b806001600160a01b0316856001600160a01b0316146106e0576106d785826111e6565b6106e057600080fd5b6001600160a01b03811660009081526006602052604090205460ff161561075c5760405162461bcd60e51b815260206004820152602a60248201527f5573657220697320616c72656164792063757272656e746c792073656c6c696e60448201526919c81848151a58dad95d60b21b60648201526084016102f5565b6001600160a01b03811660009081526008602052604090205460ff16156107e5576001600160a01b03811660009081526007602052604090205460ff166107e55760405162461bcd60e51b815260206004820152601d60248201527f5573657220686173206e6f74207469636b6574206176616c6961626c6500000060448201526064016102f5565b60006107f0826117bb565b9050806108535760405162461bcd60e51b815260206004820152602b60248201527f536f7272792c20796f7520616c726561647920686176652061204d722043727960448201526a383a379037b7103ab9b29760a91b60648201526084016102f5565b6040805160e0810182526002805482526020808301898152838501898152606085018981526001600160a01b0389811660808801818152600060a08a01818152600160c08c0181815260038054928301815584529b517fc2575a0e9e593c00f959f8c92f12db2869c3395a3b0502d05e2516446f71f85b60079092029182015597517fc2575a0e9e593c00f959f8c92f12db2869c3395a3b0502d05e2516446f71f85c89015595517fc2575a0e9e593c00f959f8c92f12db2869c3395a3b0502d05e2516446f71f85d88015593517fc2575a0e9e593c00f959f8c92f12db2869c3395a3b0502d05e2516446f71f85e870155517fc2575a0e9e593c00f959f8c92f12db2869c3395a3b0502d05e2516446f71f85f860180546001600160a01b031916919093161790915591517fc2575a0e9e593c00f959f8c92f12db2869c3395a3b0502d05e2516446f71f86084015594517fc2575a0e9e593c00f959f8c92f12db2869c3395a3b0502d05e2516446f71f861909201805460ff1916921515929092179091558254908452600a909152928220839055906109f383612256565b9091555050506001600160a01b031660009081526006602090815260408083208054600160ff199182168117909255600884528285208054821690921790915560079092529091208054909116905550505050565b6000546001600160a01b03163314610a5f57600080fd5b6000546040516384203f4b60e01b81526001600160a01b03909116906384203f4b90610a8f908490600401612056565b60206040518083038186803b158015610aa757600080fd5b505afa158015610abb573d6000803e3d6000fd5b505050506040513d601f19601f82011682018060405250810190610adf9190611fe4565b15610b2c5760405162461bcd60e51b815260206004820152601f60248201527f412056495020757365722063616e206e6f74206275792061207469636b65740060448201526064016102f5565b806001600160a01b031660038381548110610b4957610b49612287565b60009182526020909120600460079092020101546001600160a01b03161415610bc25760405162461bcd60e51b815260206004820152602560248201527f596f752063616e206e6f74206275792061207469636b657420746f20796f75726044820152641039b2b63360d91b60648201526084016102f5565b60038281548110610bd557610bd5612287565b600091825260209091206006600790920201015460ff161515600114610c475760405162461bcd60e51b815260206004820152602160248201527f5469636b6574206973206e6f742063757272656e746c79206176616c6961626c6044820152606560f81b60648201526084016102f5565b4260038381548110610c5b57610c5b612287565b90600052602060002090600702016005018190555060006007600060038581548110610c8957610c89612287565b60009182526020808320600792909202909101600401546001600160a01b031683528201929092526040018120805460ff19169215159290921790915560038054600691839186908110610cdf57610cdf612287565b60009182526020808320600792909202909101600401546001600160a01b031683528201929092526040018120805460ff19169215159290921790915560038054600192600992909186908110610d3857610d38612287565b600091825260208083206004600793840290910101546001600160a01b0390811685528482019590955260409384018320805496151560ff1997881617905593861682529092529020805490911660011790556003805433919084908110610da257610da2612287565b906000526020600020906007020160040160006101000a8154816001600160a01b0302191690836001600160a01b03160217905550600060038381548110610dec57610dec612287565b60009182526020808320600792909202909101600601805460ff1916931515939093179092556001600160a01b03929092168252600a90526040902055565b806001600160a01b0316856001600160a01b031614610e5757610e4e85826111e6565b610e5757600080fd5b806001600160a01b0316856001600160a01b031614610e8357610e7a85826111e6565b610e8357600080fd5b6001600160a01b0381166000908152600a602090815260408083205460069092529091205460ff16610ec75760405162461bcd60e51b81526004016102f59061212c565b816001600160a01b031660038281548110610ee457610ee4612287565b60009182526020909120600460079092020101546001600160a01b031614610f1e5760405162461bcd60e51b81526004016102f5906120f7565b8260038281548110610f3257610f32612287565b9060005260206000209060070201600301819055508360038281548110610f5b57610f5b612287565b9060005260206000209060070201600201819055508460038281548110610f8457610f84612287565b906000526020600020906007020160010181905550505050505050565b806001600160a01b0316826001600160a01b031614610fcd57610fc482826111e6565b610fcd57600080fd5b6000546001600160a01b03163314610fe457600080fd5b6001600160a01b0381166000908152600a602090815260408083205460099092529091205460ff166110585760405162461bcd60e51b815260206004820152601c60248201527f5573657220646964206e6f742073656c6c20616e79205469636b65740000000060448201526064016102f5565b6003818154811061106b5761106b612287565b906000526020600020906007020160010154600014806110f557506003818154811061109957611099612287565b906000526020600020906007020160020154603c6110b79190612209565b603c600383815481106110cc576110cc612287565b906000526020600020906007020160050154426110e99190612228565b6110f391906121e7565b145b61115f5760405162461bcd60e51b815260206004820152603560248201527f4475726174696f6e206f6620746865205469636b6574206f72206e756d5472696044820152746573206973207374696c6c206176616c6961626c6560581b60648201526084016102f5565b6000600760006003848154811061117857611178612287565b600091825260208083206004600793840290910101546001600160a01b0390811685528482019590955260409384018320805496151560ff199788161790559387168252835281812080548516600117905560099092529020805490911690556111e182611879565b505050565b6001600160a01b03918216600090815260046020908152604080832093909416825291909152205460ff1690565b600080548190819081906001600160a01b0316331461123257600080fd5b61123b85611971565b6001148061124f575061124d85611971565b155b80611262575061125e85611971565b6004145b156112825760008061127387611971565b60009350935093509350611308565b6001600160a01b0385166000908152600a6020526040812054906112a582610288565b5091505080600383815481106112bd576112bd612287565b9060005260206000209060070201600101546112d889611971565b600385815481106112eb576112eb612287565b906000526020600020906007020160030154955095509550955050505b9193509193565b6000546060906001600160a01b0316331461133c5760405162461bcd60e51b81526004016102f590612172565b6000805b6003548110156113fa5760006003828154811061135f5761135f612287565b60009182526020918290206040805160e081018252600790930290910180548352600180820154948401949094526002810154918301919091526003810154606083015260048101546001600160a01b03166080830152600581015460a08301526006015460ff16151560c0820181905290925014156113e7576113e46001846121cf565b92505b50806113f281612256565b915050611340565b5060008167ffffffffffffffff8111156114165761141661229d565b60405190808252806020026020018201604052801561149257816020015b61147f6040518060e001604052806000815260200160008152602001600081526020016000815260200160006001600160a01b03168152602001600081526020016000151581525090565b8152602001906001900390816114345790505b5090506000805b600354811015611572576000600382815481106114b8576114b8612287565b60009182526020918290206040805160e081018252600790930290910180548352600180820154948401949094526002810154918301919091526003810154606083015260048101546001600160a01b03166080830152600581015460a08301526006015460ff16151560c08201819052909250141561155f578084848151811061154557611545612287565b6020026020010181905250828061155b90612256565b9350505b508061156a81612256565b915050611499565b50909392505050565b6000546001600160a01b031633146115a55760405162461bcd60e51b81526004016102f590612172565b6001600160a01b03928316600090815260046020908152604080832094909516825292909252919020805460ff1916911515919091179055565b6000806000806000806000600388815481106115fd576115fd612287565b60009182526020918290206040805160e081018252600793909302909101805483526001810154938301849052600281015491830182905260038101546060840181905260048201546001600160a01b031660808501819052600583015460a0860181905260069093015460ff16151560c0909501859052949d929c509a50929850919650945092505050565b806001600160a01b0316826001600160a01b0316146116b6576116ad82826111e6565b6116b657600080fd5b6001600160a01b0381166000908152600a602090815260408083205460069092529091205460ff166116fa5760405162461bcd60e51b81526004016102f59061212c565b816001600160a01b03166003828154811061171757611717612287565b60009182526020909120600460079092020101546001600160a01b0316146117515760405162461bcd60e51b81526004016102f5906120f7565b60006003828154811061176657611766612287565b60009182526020808320600660079384029091018101805495151560ff199687161790556001600160a01b0387168452815260408084208054861690559190529020805490911660011790556111e182611879565b60008060006117c984611d49565b905060005b815181101561157257600b60008383815181106117ed576117ed612287565b60209081029190910181015182528101919091526040016000205460ff16611867576001600160a01b0385166000908152600c60205260409020825183908390811061183b5761183b612287565b602090810291909101810151825460018181018555600094855292909320909201919091559250611572565b8061187181612256565b9150506117ce565b6001600160a01b0381166000908152600c60209081526040808320805482518185028101850190935280835291929091908301828280156118d957602002820191906000526020600020905b8154815260200190600101908083116118c5575b5050505050905060005b81518110156111e1578181815181106118fe576118fe612287565b602002602001015160001461195f576001600160a01b0383166000908152600c6020526040902080548290811061193757611937612287565b60009182526020808320909101829055828252600b905260409020805460ff19169055505050565b8061196981612256565b9150506118e3565b600080546001600160a01b0316331461199c5760405162461bcd60e51b81526004016102f590612172565b600080546040516384203f4b60e01b81526001600160a01b03909116906384203f4b906119cd908690600401612056565b60206040518083038186803b1580156119e557600080fd5b505afa1580156119f9573d6000803e3d6000fd5b505050506040513d601f19601f82011682018060405250810190611a1d9190611fe4565b8015611a4257506001600160a01b03831660009081526006602052604090205460ff16155b8015611a6757506001600160a01b03831660009081526009602052604090205460ff16155b15611a7457506001611d43565b6000546040516384203f4b60e01b81526001600160a01b03909116906384203f4b90611aa4908690600401612056565b60206040518083038186803b158015611abc57600080fd5b505afa158015611ad0573d6000803e3d6000fd5b505050506040513d601f19601f82011682018060405250810190611af49190611fe4565b158015611b1957506001600160a01b03831660009081526007602052604090205460ff165b15611b2657506002611d43565b6000546040516384203f4b60e01b81526001600160a01b03909116906384203f4b90611b56908690600401612056565b60206040518083038186803b158015611b6e57600080fd5b505afa158015611b82573d6000803e3d6000fd5b505050506040513d601f19601f82011682018060405250810190611ba69190611fe4565b8015611bcb57506001600160a01b03831660009081526006602052604090205460ff16155b8015611bf057506001600160a01b03831660009081526007602052604090205460ff16155b8015611c1457506001600160a01b03831660009081526008602052604090205460ff165b8015611c3857506001600160a01b03831660009081526009602052604090205460ff165b15611c4557506003611d43565b6000546040516384203f4b60e01b81526001600160a01b03909116906384203f4b90611c75908690600401612056565b60206040518083038186803b158015611c8d57600080fd5b505afa158015611ca1573d6000803e3d6000fd5b505050506040513d601f19601f82011682018060405250810190611cc59190611fe4565b8015611ce957506001600160a01b03831660009081526006602052604090205460ff165b8015611d0e57506001600160a01b03831660009081526007602052604090205460ff16155b8015611d3257506001600160a01b03831660009081526008602052604090205460ff165b15611d3f57506004611d43565b5060005b92915050565b6001546040516370a0823160e01b81526060916000916001600160a01b03909116906370a0823190611d7f908690600401612056565b60206040518083038186803b158015611d9757600080fd5b505afa158015611dab573d6000803e3d6000fd5b505050506040513d601f19601f82011682018060405250810190611dcf919061201a565b905060008167ffffffffffffffff811115611dec57611dec61229d565b604051908082528060200260200182016040528015611e15578160200160208202803683370190505b50905060005b82811015611ed457600154604051632f745c5960e01b81526001600160a01b0387811660048301526024820184905290911690632f745c599060440160206040518083038186803b158015611e6f57600080fd5b505afa158015611e83573d6000803e3d6000fd5b505050506040513d601f19601f82011682018060405250810190611ea7919061201a565b828281518110611eb957611eb9612287565b6020908102919091010152611ecd81612256565b9050611e1b565b509392505050565b80356001600160a01b0381168114611ef357600080fd5b919050565b600060208284031215611f0a57600080fd5b611f1382611edc565b9392505050565b60008060408385031215611f2d57600080fd5b611f3683611edc565b9150611f4460208401611edc565b90509250929050565b600080600060608486031215611f6257600080fd5b611f6b84611edc565b9250611f7960208501611edc565b91506040840135611f89816122b3565b809150509250925092565b600080600080600060a08688031215611fac57600080fd5b611fb586611edc565b9450602086013593506040860135925060608601359150611fd860808701611edc565b90509295509295909350565b600060208284031215611ff657600080fd5b8151611f13816122b3565b60006020828403121561201357600080fd5b5035919050565b60006020828403121561202c57600080fd5b5051919050565b6000806040838503121561204657600080fd5b82359150611f4460208401611edc565b6001600160a01b0391909116815260200190565b602080825282518282018190526000919060409081850190868401855b828110156120ea5781518051855286810151878601528581015186860152606080820151908601526080808201516001600160a01b03169086015260a0808201519086015260c09081015115159085015260e09093019290850190600101612087565b5091979650505050505050565b6020808252818101527f55736572206973206e6f74206f776e6572206f662074686973207469636b6574604082015260600190565b60208082526026908201527f55736572206973206e6f742063757272656e746c792073656c6c696e67206120604082015265151a58dad95d60d21b606082015260800190565b6020808252603a908201527f546869732066756e6374696f6e206973207370656369616c6c7920726573657260408201527f76656420666f7220746865206d61696e20636f6e74726163742e000000000000606082015260800190565b600082198211156121e2576121e2612271565b500190565b60008261220457634e487b7160e01b600052601260045260246000fd5b500490565b600081600019048311821515161561222357612223612271565b500290565b60008282101561223a5761223a612271565b500390565b60008161224e5761224e612271565b506000190190565b600060001982141561226a5761226a612271565b5060010190565b634e487b7160e01b600052601160045260246000fd5b634e487b7160e01b600052603260045260246000fd5b634e487b7160e01b600052604160045260246000fd5b80151581146122c157600080fd5b5056fea2646970667358221220c46ca5936f9ce519bd2b93e284d031f45db962e00d761805cca7a58a2c52fa1064736f6c63430008070033",
  "linkReferences": {},
  "deployedLinkReferences": {}
}